{
  "_format": "hh-sol-artifact-1",
  "contractName": "MemeCoin",
  "sourceName": "contracts/MemeCoin.sol",
  "abi": [
    {
      "inputs": [
        {
          "internalType": "string",
          "name": "name_",
          "type": "string"
        },
        {
          "internalType": "string",
          "name": "symbol_",
          "type": "string"
        },
        {
          "internalType": "uint256",
          "name": "totalSupply_",
          "type": "uint256"
        },
        {
          "internalType": "address",
          "name": "creator_",
          "type": "address"
        },
        {
          "internalType": "string",
          "name": "ipfsHash_",
          "type": "string"
        }
      ],
      "stateMutability": "nonpayable",
      "type": "constructor"
    },
    {
      "inputs": [],
      "name": "EmptyNameOrSymbol",
      "type": "error"
    },
    {
      "inputs": [],
      "name": "InvalidShortString",
      "type": "error"
    },
    {
      "inputs": [
        {
          "internalType": "string",
          "name": "str",
          "type": "string"
        }
      ],
      "name": "StringTooLong",
      "type": "error"
    },
    {
      "inputs": [],
      "name": "ZeroAddress",
      "type": "error"
    },
    {
      "inputs": [],
      "name": "ZeroSupply",
      "type": "error"
    },
    {
      "anonymous": false,
      "inputs": [
        {
          "indexed": true,
          "internalType": "address",
          "name": "owner",
          "type": "address"
        },
        {
          "indexed": true,
          "internalType": "address",
          "name": "spender",
          "type": "address"
        },
        {
          "indexed": false,
          "internalType": "uint256",
          "name": "value",
          "type": "uint256"
        }
      ],
      "name": "Approval",
      "type": "event"
    },
    {
      "anonymous": false,
      "inputs": [],
      "name": "EIP712DomainChanged",
      "type": "event"
    },
    {
      "anonymous": false,
      "inputs": [
        {
          "indexed": true,
          "internalType": "address",
          "name": "previousOwner",
          "type": "address"
        },
        {
          "indexed": true,
          "internalType": "address",
          "name": "newOwner",
          "type": "address"
        }
      ],
      "name": "OwnershipTransferred",
      "type": "event"
    },
    {
      "anonymous": false,
      "inputs": [
        {
          "indexed": true,
          "internalType": "address",
          "name": "from",
          "type": "address"
        },
        {
          "indexed": true,
          "internalType": "address",
          "name": "to",
          "type": "address"
        },
        {
          "indexed": false,
          "internalType": "uint256",
          "name": "value",
          "type": "uint256"
        }
      ],
      "name": "Transfer",
      "type": "event"
    },
    {
      "inputs": [],
      "name": "DOMAIN_SEPARATOR",
      "outputs": [
        {
          "internalType": "bytes32",
          "name": "",
          "type": "bytes32"
        }
      ],
      "stateMutability": "view",
      "type": "function"
    },
    {
      "inputs": [
        {
          "internalType": "address",
          "name": "owner",
          "type": "address"
        },
        {
          "internalType": "address",
          "name": "spender",
          "type": "address"
        }
      ],
      "name": "allowance",
      "outputs": [
        {
          "internalType": "uint256",
          "name": "",
          "type": "uint256"
        }
      ],
      "stateMutability": "view",
      "type": "function"
    },
    {
      "inputs": [
        {
          "internalType": "address",
          "name": "spender",
          "type": "address"
        },
        {
          "internalType": "uint256",
          "name": "amount",
          "type": "uint256"
        }
      ],
      "name": "approve",
      "outputs": [
        {
          "internalType": "bool",
          "name": "",
          "type": "bool"
        }
      ],
      "stateMutability": "nonpayable",
      "type": "function"
    },
    {
      "inputs": [
        {
          "internalType": "address",
          "name": "account",
          "type": "address"
        }
      ],
      "name": "balanceOf",
      "outputs": [
        {
          "internalType": "uint256",
          "name": "",
          "type": "uint256"
        }
      ],
      "stateMutability": "view",
      "type": "function"
    },
    {
      "inputs": [],
      "name": "decimals",
      "outputs": [
        {
          "internalType": "uint8",
          "name": "",
          "type": "uint8"
        }
      ],
      "stateMutability": "view",
      "type": "function"
    },
    {
      "inputs": [
        {
          "internalType": "address",
          "name": "spender",
          "type": "address"
        },
        {
          "internalType": "uint256",
          "name": "subtractedValue",
          "type": "uint256"
        }
      ],
      "name": "decreaseAllowance",
      "outputs": [
        {
          "internalType": "bool",
          "name": "",
          "type": "bool"
        }
      ],
      "stateMutability": "nonpayable",
      "type": "function"
    },
    {
      "inputs": [],
      "name": "eip712Domain",
      "outputs": [
        {
          "internalType": "bytes1",
          "name": "fields",
          "type": "bytes1"
        },
        {
          "internalType": "string",
          "name": "name",
          "type": "string"
        },
        {
          "internalType": "string",
          "name": "version",
          "type": "string"
        },
        {
          "internalType": "uint256",
          "name": "chainId",
          "type": "uint256"
        },
        {
          "internalType": "address",
          "name": "verifyingContract",
          "type": "address"
        },
        {
          "internalType": "bytes32",
          "name": "salt",
          "type": "bytes32"
        },
        {
          "internalType": "uint256[]",
          "name": "extensions",
          "type": "uint256[]"
        }
      ],
      "stateMutability": "view",
      "type": "function"
    },
    {
      "inputs": [
        {
          "internalType": "address",
          "name": "spender",
          "type": "address"
        },
        {
          "internalType": "uint256",
          "name": "addedValue",
          "type": "uint256"
        }
      ],
      "name": "increaseAllowance",
      "outputs": [
        {
          "internalType": "bool",
          "name": "",
          "type": "bool"
        }
      ],
      "stateMutability": "nonpayable",
      "type": "function"
    },
    {
      "inputs": [],
      "name": "ipfsHash",
      "outputs": [
        {
          "internalType": "string",
          "name": "",
          "type": "string"
        }
      ],
      "stateMutability": "view",
      "type": "function"
    },
    {
      "inputs": [],
      "name": "name",
      "outputs": [
        {
          "internalType": "string",
          "name": "",
          "type": "string"
        }
      ],
      "stateMutability": "view",
      "type": "function"
    },
    {
      "inputs": [
        {
          "internalType": "address",
          "name": "owner",
          "type": "address"
        }
      ],
      "name": "nonces",
      "outputs": [
        {
          "internalType": "uint256",
          "name": "",
          "type": "uint256"
        }
      ],
      "stateMutability": "view",
      "type": "function"
    },
    {
      "inputs": [],
      "name": "owner",
      "outputs": [
        {
          "internalType": "address",
          "name": "",
          "type": "address"
        }
      ],
      "stateMutability": "view",
      "type": "function"
    },
    {
      "inputs": [
        {
          "internalType": "address",
          "name": "owner",
          "type": "address"
        },
        {
          "internalType": "address",
          "name": "spender",
          "type": "address"
        },
        {
          "internalType": "uint256",
          "name": "value",
          "type": "uint256"
        },
        {
          "internalType": "uint256",
          "name": "deadline",
          "type": "uint256"
        },
        {
          "internalType": "uint8",
          "name": "v",
          "type": "uint8"
        },
        {
          "internalType": "bytes32",
          "name": "r",
          "type": "bytes32"
        },
        {
          "internalType": "bytes32",
          "name": "s",
          "type": "bytes32"
        }
      ],
      "name": "permit",
      "outputs": [],
      "stateMutability": "nonpayable",
      "type": "function"
    },
    {
      "inputs": [],
      "name": "renounceOwnership",
      "outputs": [],
      "stateMutability": "nonpayable",
      "type": "function"
    },
    {
      "inputs": [],
      "name": "symbol",
      "outputs": [
        {
          "internalType": "string",
          "name": "",
          "type": "string"
        }
      ],
      "stateMutability": "view",
      "type": "function"
    },
    {
      "inputs": [],
      "name": "tokenURI",
      "outputs": [
        {
          "internalType": "string",
          "name": "",
          "type": "string"
        }
      ],
      "stateMutability": "view",
      "type": "function"
    },
    {
      "inputs": [],
      "name": "totalSupply",
      "outputs": [
        {
          "internalType": "uint256",
          "name": "",
          "type": "uint256"
        }
      ],
      "stateMutability": "view",
      "type": "function"
    },
    {
      "inputs": [
        {
          "internalType": "address",
          "name": "to",
          "type": "address"
        },
        {
          "internalType": "uint256",
          "name": "amount",
          "type": "uint256"
        }
      ],
      "name": "transfer",
      "outputs": [
        {
          "internalType": "bool",
          "name": "",
          "type": "bool"
        }
      ],
      "stateMutability": "nonpayable",
      "type": "function"
    },
    {
      "inputs": [
        {
          "internalType": "address",
          "name": "from",
          "type": "address"
        },
        {
          "internalType": "address",
          "name": "to",
          "type": "address"
        },
        {
          "internalType": "uint256",
          "name": "amount",
          "type": "uint256"
        }
      ],
      "name": "transferFrom",
      "outputs": [
        {
          "internalType": "bool",
          "name": "",
          "type": "bool"
        }
      ],
      "stateMutability": "nonpayable",
      "type": "function"
    },
    {
      "inputs": [
        {
          "internalType": "address",
          "name": "newOwner",
          "type": "address"
        }
      ],
      "name": "transferOwnership",
      "outputs": [],
      "stateMutability": "nonpayable",
      "type": "function"
    }
  ],
  "bytecode": "0x6101608060405234620007cd576200201c8038038091620000218285620007d2565b8339810160a082820312620007cd5781516001600160401b038111620007cd57816200004f9184016200081b565b60208301519092906001600160401b038111620007cd5782620000749183016200081b565b60408201516060830151939092906001600160a01b0385168503620007cd5760808201516001600160401b038111620007cd57620000b392016200081b565b604080519195919081016001600160401b03811182821017620005605760405260018152603160f81b602082015281516001600160401b0381116200056057600354600181811c91168015620007c2575b60208210146200053f57601f81116200075c575b50806020601f8211600114620006d257600091620006c6575b508160011b916000199060031b1c1916176003555b82516001600160401b0381116200056057600454600181811c91168015620006bb575b60208210146200053f57601f811162000651575b50806020601f8211600114620005c757600091620005bb575b508160011b916000199060031b1c1916176004555b620001b682620008bf565b61012052620001c58162000a64565b6101405281516020830120908160e0526020815191012080610100524660a052604051917f8b73c3c69bb8fe3d512ecc4cf759cc79239f7b179b0ffacaa9a75d522b39400f6020840152604083015260608201524660808201523060a082015260a081528060c081011060018060401b0360c083011117620005605760c08101604052805160208201206080523060c052620002613362000876565b6001600160a01b03851615620005a7575060039051109081156200059a575b5062000588578015620005765782516001600160401b0381116200056057600a54600181811c9116801562000555575b60208210146200053f57601f8111620004e6575b506020601f82116001146200046d578192939460009262000461575b50508160011b916000199060031b1c191617600a555b33156200041c576002548181018091116200040657600255336000526000602052604060002081815401905560405190815260007fddf252ad1be2c89b69c2b068fc378daa952ba7f163c4a11628f55a4df523b3ef60203393a3600954336001600160a01b0390911603620003c257620003709062000876565b604051611440908162000bbc82396080518161118b015260a05181611257015260c05181611155015260e051816111da01526101005181611200015261012051816106a8015261014051816106d20152f35b606460405162461bcd60e51b815260206004820152602060248201527f4f776e61626c653a2063616c6c6572206973206e6f7420746865206f776e65726044820152fd5b634e487b7160e01b600052601160045260246000fd5b60405162461bcd60e51b815260206004820152601f60248201527f45524332303a206d696e7420746f20746865207a65726f2061646472657373006044820152606490fd5b015190503880620002e0565b600a600090815260008051602062001ffc8339815191529190601f198416905b818110620004cd57509583600195969710620004b3575b505050811b01600a55620002f6565b015160001960f88460031b161c19169055388080620004a4565b9192602060018192868b0151815501940192016200048d565b600a60005260008051602062001ffc833981519152601f830160051c8101916020841062000534575b601f0160051c01905b818110620005275750620002c4565b6000815560010162000518565b90915081906200050f565b634e487b7160e01b600052602260045260246000fd5b90607f1690620002b0565b634e487b7160e01b600052604160045260246000fd5b60405163c16f3a9360e01b8152600490fd5b604051639432241960e01b8152600490fd5b6003915051103862000280565b60c060049163d92e233d60e01b8282015201fd5b90508401513862000196565b6004600090815292507f8a35acfbc15ff81a39ae7d344fd709f28e8600b4aa8c65c6b64bfe7fe36bd19b905b601f198316841062000638576001935082601f198116106200061e575b5050811b01600455620001ab565b86015160001960f88460031b161c19169055388062000610565b86810151825560209384019360019092019101620005f3565b60046000527f8a35acfbc15ff81a39ae7d344fd709f28e8600b4aa8c65c6b64bfe7fe36bd19b601f830160051c81019160208410620006b0575b601f0160051c01905b818110620006a357506200017d565b6000815560010162000694565b90915081906200068b565b90607f169062000169565b90508301513862000131565b6003600090815292507fc2575a0e9e593c00f959f8c92f12db2869c3395a3b0502d05e2516446f71f85b905b601f198316841062000743576001935082601f1981161062000729575b5050811b0160035562000146565b85015160001960f88460031b161c1916905538806200071b565b85810151825560209384019360019092019101620006fe565b60036000527fc2575a0e9e593c00f959f8c92f12db2869c3395a3b0502d05e2516446f71f85b601f830160051c810160208410620007ba575b601f830160051c82018110620007ad57505062000118565b6000815560010162000795565b508062000795565b90607f169062000104565b600080fd5b601f909101601f19168101906001600160401b038211908210176200056057604052565b60005b8381106200080a5750506000910152565b8181015183820152602001620007f9565b81601f82011215620007cd5780516001600160401b03811162000560576040519262000852601f8301601f191660200185620007d2565b81845260208284010111620007cd57620008739160208085019101620007f6565b90565b600980546001600160a01b039283166001600160a01b0319821681179092559091167f8be0079c531659141344cd1fd0a4f28419497f9722a3daafe3b4186f6b6457e0600080a3565b805160209190828110156200093f575090601f825111620008fd5780825192015190808310620008ee57501790565b82600019910360031b1b161790565b604490620009319260405193849263305a27a960e01b845280600485015282519283918260248701528686019101620007f6565b601f01601f19168101030190fd5b6001600160401b03811162000560576005928354926001938481811c9116801562000a59575b838210146200053f57601f811162000a22575b5081601f8411600114620009b85750928293918392600094620009ac575b50501b916000199060031b1c191617905560ff90565b01519250388062000996565b919083601f1981168760005284600020946000905b8883831062000a075750505010620009ed575b505050811b01905560ff90565b015160001960f88460031b161c19169055388080620009e0565b858701518855909601959485019487935090810190620009cd565b8560005284601f846000209201871c820191601f8601881c015b82811062000a4c57505062000978565b6000815501859062000a3c565b90607f169062000965565b80516020908181101562000a915750601f825111620008fd5780825192015190808310620008ee57501790565b906001600160401b0382116200056057600654926001938481811c9116801562000bb0575b838210146200053f57601f811162000b76575b5081601f841160011462000b0a575092829391839260009462000afe575b50501b916000199060031b1c19161760065560ff90565b01519250388062000ae7565b919083601f198116600660005284600020946000905b8883831062000b5b575050501062000b41575b505050811b0160065560ff90565b015160001960f88460031b161c1916905538808062000b33565b85870151885590960195948501948793509081019062000b20565b600660005284601f84600020920160051c820191601f860160051c015b82811062000ba357505062000ac9565b6000815501859062000b93565b90607f169062000ab656fe6080604081815260048036101561001557600080fd5b600092833560e01c90816306fdde0314610b3a57508063095ea7b314610b1057806318160ddd14610af157806323b872dd14610a27578063313ce56714610a0b5780633644e515146109e757806339509351146109805780633c130d901461087a57806370a0823114610843578063715018a6146107e65780637ecebe00146107ae57806384b0196e146106915780638da5cb5b1461066857806395d89b4114610594578063a457c2d7146104ed578063a9059cbb146104bc578063c623674f146103d3578063d505accf1461021a578063dd62ed3e146101cd5763f2fde38b146100ff57600080fd5b346101c95760203660031901126101c957610118610c22565b90610121610ce1565b6001600160a01b03918216928315610177575050600954826bffffffffffffffffffffffff60a01b821617600955167f8be0079c531659141344cd1fd0a4f28419497f9722a3daafe3b4186f6b6457e08380a380f35b906020608492519162461bcd60e51b8352820152602660248201527f4f776e61626c653a206e6577206f776e657220697320746865207a65726f206160448201526564647265737360d01b6064820152fd5b8280fd5b505034610216578060031936011261021657806020926101eb610c22565b6101f3610c3d565b6001600160a01b0391821683526001865283832091168252845220549051908152f35b5080fd5b508290346102165760e036600319011261021657610236610c22565b61023e610c3d565b906044359260643560843560ff811681036103cf5781421161038c5760018060a01b0390818516928389526007602052898920908154916001830190558a519060208201927f6e71edae12b1b97f4d1f60370fef10105fa2faae0126114a169c64845d6126c98452868d840152858a1660608401528a608084015260a083015260c082015260c0815260e0810181811067ffffffffffffffff821117610379578b5251902061032191610319916102f3611152565b908c519161190160f01b83526002830152602282015260c43591604260a43592206110c3565b919091610fa9565b16036103365750610333939450610ea7565b80f35b606490602087519162461bcd60e51b8352820152601e60248201527f45524332305065726d69743a20696e76616c6964207369676e617475726500006044820152fd5b634e487b7160e01b8b526041875260248bfd5b875162461bcd60e51b8152602081850152601d60248201527f45524332305065726d69743a206578706972656420646561646c696e650000006044820152606490fd5b8680fd5b50503461021657816003193601126102165780519082600a546103f581610c53565b808552916001918083169081156104945750600114610437575b50505061042182610433940383610cbf565b51918291602083526020830190610be2565b0390f35b9450600a85527fc65a7bb8d6351c1cf70c95a316cc6a92839c986682d98bc35f958f4883f9d2a85b82861061047c57505050610421826020610433958201019461040f565b8054602087870181019190915290950194810161045f565b61043397508693506020925061042194915060ff191682840152151560051b8201019461040f565b5050346102165780600319360112610216576020906104e66104dc610c22565b6024359033610d39565b5160018152f35b508234610591578260031936011261059157610507610c22565b918360243592338152600160205281812060018060a01b0386168252602052205490828210610540576020856104e68585038733610ea7565b608490602086519162461bcd60e51b8352820152602560248201527f45524332303a2064656372656173656420616c6c6f77616e63652062656c6f77604482015264207a65726f60d81b6064820152fd5b80fd5b5090346101c957826003193601126101c957805191838154906105b682610c53565b8086529260019280841690811561063d57506001146105e1575b6104338686610421828b0383610cbf565b815294507f8a35acfbc15ff81a39ae7d344fd709f28e8600b4aa8c65c6b64bfe7fe36bd19b5b828610610625575050506104218260206104339582010194386105d0565b80546020878701810191909152909501948101610607565b905061043397508693506020925061042194915060ff191682840152151560051b82010194386105d0565b50503461021657816003193601126102165760095490516001600160a01b039091168152602090f35b5090346101c957826003193601126101c9576106cc7f000000000000000000000000000000000000000000000000000000000000000061127d565b926106f67f0000000000000000000000000000000000000000000000000000000000000000611379565b908251926020928385019585871067ffffffffffffffff88111761079b57509280610751838896610744998b9996528686528151998a99600f60f81b8b5260e0868c015260e08b0190610be2565b91898303908a0152610be2565b924660608801523060808801528460a088015286840360c088015251928381520193925b82811061078457505050500390f35b835185528695509381019392810192600101610775565b634e487b7160e01b845260419052602483fd5b5050346102165760203660031901126102165760209181906001600160a01b036107d6610c22565b1681526007845220549051908152f35b83346105915780600319360112610591576107ff610ce1565b600980546001600160a01b0319811690915581906001600160a01b03167f8be0079c531659141344cd1fd0a4f28419497f9722a3daafe3b4186f6b6457e08280a380f35b5050346102165760203660031901126102165760209181906001600160a01b0361086b610c22565b16815280845220549051908152f35b8284346105915780600319360112610591578151918260209266697066733a2f2f60c81b8483015280600a54906108b082610c53565b9160019081811690811561095557506001146108f0575b50505061043392916108e19103601f198101865285610cbf565b51928284938452830190610be2565b8695949350600a82527fc65a7bb8d6351c1cf70c95a316cc6a92839c986682d98bc35f958f4883f9d2a85b83831061093c575093945091925082016027019050816108e16104336108c7565b80546027848b010152879689955090920191810161091b565b90506108e1945060279250610433969593915060ff19168284015280151502820101918193946108c7565b50913461059157816003193601126105915761099a610c22565b338252600160209081528383206001600160a01b03831684529052828220546024358101929083106109d4576020846104e6858533610ea7565b634e487b7160e01b815260118552602490fd5b505034610216578160031936011261021657602090610a04611152565b9051908152f35b5050346102165781600319360112610216576020905160128152f35b5082903461021657606036600319011261021657610a43610c22565b610a4b610c3d565b91846044359460018060a01b038416815260016020528181203382526020522054906000198203610a85575b6020866104e6878787610d39565b848210610aae5750918391610aa3602096956104e695033383610ea7565b919394819350610a77565b606490602087519162461bcd60e51b8352820152601d60248201527f45524332303a20696e73756666696369656e7420616c6c6f77616e63650000006044820152fd5b5050346102165781600319360112610216576020906002549051908152f35b5050346102165780600319360112610216576020906104e6610b30610c22565b6024359033610ea7565b849084346101c957826003193601126101c95782600354610b5a81610c53565b808552916001918083169081156104945750600114610b855750505061042182610433940383610cbf565b9450600385527fc2575a0e9e593c00f959f8c92f12db2869c3395a3b0502d05e2516446f71f85b5b828610610bca57505050610421826020610433958201019461040f565b80546020878701810191909152909501948101610bad565b919082519283825260005b848110610c0e575050826000602080949584010152601f8019910116010190565b602081830181015184830182015201610bed565b600435906001600160a01b0382168203610c3857565b600080fd5b602435906001600160a01b0382168203610c3857565b90600182811c92168015610c83575b6020831014610c6d57565b634e487b7160e01b600052602260045260246000fd5b91607f1691610c62565b6040810190811067ffffffffffffffff821117610ca957604052565b634e487b7160e01b600052604160045260246000fd5b90601f8019910116810190811067ffffffffffffffff821117610ca957604052565b6009546001600160a01b03163303610cf557565b606460405162461bcd60e51b815260206004820152602060248201527f4f776e61626c653a2063616c6c6572206973206e6f7420746865206f776e65726044820152fd5b6001600160a01b03908116918215610e545716918215610e0357600082815280602052604081205491808310610daf57604082827fddf252ad1be2c89b69c2b068fc378daa952ba7f163c4a11628f55a4df523b3ef958760209652828652038282205586815220818154019055604051908152a3565b60405162461bcd60e51b815260206004820152602660248201527f45524332303a207472616e7366657220616d6f756e7420657863656564732062604482015265616c616e636560d01b6064820152608490fd5b60405162461bcd60e51b815260206004820152602360248201527f45524332303a207472616e7366657220746f20746865207a65726f206164647260448201526265737360e81b6064820152608490fd5b60405162461bcd60e51b815260206004820152602560248201527f45524332303a207472616e736665722066726f6d20746865207a65726f206164604482015264647265737360d81b6064820152608490fd5b6001600160a01b03908116918215610f585716918215610f085760207f8c5be1e5ebec7d5bd14f71427d1e84f3dd0314c0f7b2291e5b200ac8c7c3b925918360005260018252604060002085600052825280604060002055604051908152a3565b60405162461bcd60e51b815260206004820152602260248201527f45524332303a20617070726f766520746f20746865207a65726f206164647265604482015261737360f01b6064820152608490fd5b60405162461bcd60e51b8152602060048201526024808201527f45524332303a20617070726f76652066726f6d20746865207a65726f206164646044820152637265737360e01b6064820152608490fd5b60058110156110ad5780610fba5750565b600181036110075760405162461bcd60e51b815260206004820152601860248201527f45434453413a20696e76616c6964207369676e617475726500000000000000006044820152606490fd5b600281036110545760405162461bcd60e51b815260206004820152601f60248201527f45434453413a20696e76616c6964207369676e6174757265206c656e677468006044820152606490fd5b60031461105d57565b60405162461bcd60e51b815260206004820152602260248201527f45434453413a20696e76616c6964207369676e6174757265202773272076616c604482015261756560f01b6064820152608490fd5b634e487b7160e01b600052602160045260246000fd5b9291907f7fffffffffffffffffffffffffffffff5d576e7357a4501ddfe92f46681b20a083116111465791608094939160ff602094604051948552168484015260408301526060820152600093849182805260015afa156111395781516001600160a01b03811615611133579190565b50600190565b50604051903d90823e3d90fd5b50505050600090600390565b307f00000000000000000000000000000000000000000000000000000000000000006001600160a01b03161480611254575b156111ad577f000000000000000000000000000000000000000000000000000000000000000090565b60405160208101907f8b73c3c69bb8fe3d512ecc4cf759cc79239f7b179b0ffacaa9a75d522b39400f82527f000000000000000000000000000000000000000000000000000000000000000060408201527f000000000000000000000000000000000000000000000000000000000000000060608201524660808201523060a082015260a0815260c0810181811067ffffffffffffffff821117610ca95760405251902090565b507f00000000000000000000000000000000000000000000000000000000000000004614611184565b60ff81146112bb5760ff811690601f82116112a9576040519161129f83610c8d565b8252602082015290565b604051632cd44ac360e21b8152600490fd5b506040516005548160006112ce83610c53565b8083529260019081811690811561135757506001146112f8575b506112f592500382610cbf565b90565b6005600090815291507f036b6384b5eca791c62761152d0c79bb0604c104a5fb6f4eb0703f3154bb3db05b84831061133c57506112f59350508101602001386112e8565b81935090816020925483858901015201910190918492611323565b9050602092506112f594915060ff191682840152151560051b820101386112e8565b60ff811461139b5760ff811690601f82116112a9576040519161129f83610c8d565b506040516006548160006113ae83610c53565b8083529260019081811690811561135757506001146113d457506112f592500382610cbf565b6006600090815291507ff652222313e28459528d920b65115c16c04f3efc82aaedc97be59f3f377c0d3f5b84831061141857506112f59350508101602001386112e8565b819350908160209254838589010152019101909184926113ff56fea164736f6c6343000814000ac65a7bb8d6351c1cf70c95a316cc6a92839c986682d98bc35f958f4883f9d2a8",
  "linkReferences": {},
  "deployedLinkReferences": {}
}