{
  "_format": "hh-sol-artifact-1",
  "contractName": "MemeCoin",
  "sourceName": "contracts/MemeCoin.sol",
  "abi": [
    {
      "inputs": [
        {
          "internalType": "string",
          "name": "name_",
          "type": "string"
        },
        {
          "internalType": "string",
          "name": "symbol_",
          "type": "string"
        },
        {
          "internalType": "uint256",
          "name": "totalSupply_",
          "type": "uint256"
        },
        {
          "internalType": "address",
          "name": "creator_",
          "type": "address"
        },
        {
          "internalType": "string",
          "name": "ipfsHash_",
          "type": "string"
        }
      ],
      "stateMutability": "nonpayable",
      "type": "constructor"
    },
    {
      "inputs": [],
      "name": "ECDSAInvalidSignature",
      "type": "error"
    },
    {
      "inputs": [
        {
          "internalType": "uint256",
          "name": "length",
          "type": "uint256"
        }
      ],
      "name": "ECDSAInvalidSignatureLength",
      "type": "error"
    },
    {
      "inputs": [
        {
          "internalType": "bytes32",
          "name": "s",
          "type": "bytes32"
        }
      ],
      "name": "ECDSAInvalidSignatureS",
      "type": "error"
    },
    {
      "inputs": [
        {
          "internalType": "address",
          "name": "spender",
          "type": "address"
        },
        {
          "internalType": "uint256",
          "name": "allowance",
          "type": "uint256"
        },
        {
          "internalType": "uint256",
          "name": "needed",
          "type": "uint256"
        }
      ],
      "name": "ERC20InsufficientAllowance",
      "type": "error"
    },
    {
      "inputs": [
        {
          "internalType": "address",
          "name": "sender",
          "type": "address"
        },
        {
          "internalType": "uint256",
          "name": "balance",
          "type": "uint256"
        },
        {
          "internalType": "uint256",
          "name": "needed",
          "type": "uint256"
        }
      ],
      "name": "ERC20InsufficientBalance",
      "type": "error"
    },
    {
      "inputs": [
        {
          "internalType": "address",
          "name": "approver",
          "type": "address"
        }
      ],
      "name": "ERC20InvalidApprover",
      "type": "error"
    },
    {
      "inputs": [
        {
          "internalType": "address",
          "name": "receiver",
          "type": "address"
        }
      ],
      "name": "ERC20InvalidReceiver",
      "type": "error"
    },
    {
      "inputs": [
        {
          "internalType": "address",
          "name": "sender",
          "type": "address"
        }
      ],
      "name": "ERC20InvalidSender",
      "type": "error"
    },
    {
      "inputs": [
        {
          "internalType": "address",
          "name": "spender",
          "type": "address"
        }
      ],
      "name": "ERC20InvalidSpender",
      "type": "error"
    },
    {
      "inputs": [
        {
          "internalType": "uint256",
          "name": "deadline",
          "type": "uint256"
        }
      ],
      "name": "ERC2612ExpiredSignature",
      "type": "error"
    },
    {
      "inputs": [
        {
          "internalType": "address",
          "name": "signer",
          "type": "address"
        },
        {
          "internalType": "address",
          "name": "owner",
          "type": "address"
        }
      ],
      "name": "ERC2612InvalidSigner",
      "type": "error"
    },
    {
      "inputs": [],
      "name": "EmptyNameOrSymbol",
      "type": "error"
    },
    {
      "inputs": [
        {
          "internalType": "address",
          "name": "account",
          "type": "address"
        },
        {
          "internalType": "uint256",
          "name": "currentNonce",
          "type": "uint256"
        }
      ],
      "name": "InvalidAccountNonce",
      "type": "error"
    },
    {
      "inputs": [],
      "name": "InvalidShortString",
      "type": "error"
    },
    {
      "inputs": [
        {
          "internalType": "address",
          "name": "owner",
          "type": "address"
        }
      ],
      "name": "OwnableInvalidOwner",
      "type": "error"
    },
    {
      "inputs": [
        {
          "internalType": "address",
          "name": "account",
          "type": "address"
        }
      ],
      "name": "OwnableUnauthorizedAccount",
      "type": "error"
    },
    {
      "inputs": [
        {
          "internalType": "string",
          "name": "str",
          "type": "string"
        }
      ],
      "name": "StringTooLong",
      "type": "error"
    },
    {
      "inputs": [],
      "name": "ZeroAddress",
      "type": "error"
    },
    {
      "inputs": [],
      "name": "ZeroSupply",
      "type": "error"
    },
    {
      "anonymous": false,
      "inputs": [
        {
          "indexed": true,
          "internalType": "address",
          "name": "owner",
          "type": "address"
        },
        {
          "indexed": true,
          "internalType": "address",
          "name": "spender",
          "type": "address"
        },
        {
          "indexed": false,
          "internalType": "uint256",
          "name": "value",
          "type": "uint256"
        }
      ],
      "name": "Approval",
      "type": "event"
    },
    {
      "anonymous": false,
      "inputs": [],
      "name": "EIP712DomainChanged",
      "type": "event"
    },
    {
      "anonymous": false,
      "inputs": [
        {
          "indexed": true,
          "internalType": "address",
          "name": "previousOwner",
          "type": "address"
        },
        {
          "indexed": true,
          "internalType": "address",
          "name": "newOwner",
          "type": "address"
        }
      ],
      "name": "OwnershipTransferred",
      "type": "event"
    },
    {
      "anonymous": false,
      "inputs": [
        {
          "indexed": true,
          "internalType": "address",
          "name": "from",
          "type": "address"
        },
        {
          "indexed": true,
          "internalType": "address",
          "name": "to",
          "type": "address"
        },
        {
          "indexed": false,
          "internalType": "uint256",
          "name": "value",
          "type": "uint256"
        }
      ],
      "name": "Transfer",
      "type": "event"
    },
    {
      "inputs": [],
      "name": "DOMAIN_SEPARATOR",
      "outputs": [
        {
          "internalType": "bytes32",
          "name": "",
          "type": "bytes32"
        }
      ],
      "stateMutability": "view",
      "type": "function"
    },
    {
      "inputs": [
        {
          "internalType": "address",
          "name": "owner",
          "type": "address"
        },
        {
          "internalType": "address",
          "name": "spender",
          "type": "address"
        }
      ],
      "name": "allowance",
      "outputs": [
        {
          "internalType": "uint256",
          "name": "",
          "type": "uint256"
        }
      ],
      "stateMutability": "view",
      "type": "function"
    },
    {
      "inputs": [
        {
          "internalType": "address",
          "name": "spender",
          "type": "address"
        },
        {
          "internalType": "uint256",
          "name": "value",
          "type": "uint256"
        }
      ],
      "name": "approve",
      "outputs": [
        {
          "internalType": "bool",
          "name": "",
          "type": "bool"
        }
      ],
      "stateMutability": "nonpayable",
      "type": "function"
    },
    {
      "inputs": [
        {
          "internalType": "address",
          "name": "account",
          "type": "address"
        }
      ],
      "name": "balanceOf",
      "outputs": [
        {
          "internalType": "uint256",
          "name": "",
          "type": "uint256"
        }
      ],
      "stateMutability": "view",
      "type": "function"
    },
    {
      "inputs": [],
      "name": "decimals",
      "outputs": [
        {
          "internalType": "uint8",
          "name": "",
          "type": "uint8"
        }
      ],
      "stateMutability": "view",
      "type": "function"
    },
    {
      "inputs": [],
      "name": "eip712Domain",
      "outputs": [
        {
          "internalType": "bytes1",
          "name": "fields",
          "type": "bytes1"
        },
        {
          "internalType": "string",
          "name": "name",
          "type": "string"
        },
        {
          "internalType": "string",
          "name": "version",
          "type": "string"
        },
        {
          "internalType": "uint256",
          "name": "chainId",
          "type": "uint256"
        },
        {
          "internalType": "address",
          "name": "verifyingContract",
          "type": "address"
        },
        {
          "internalType": "bytes32",
          "name": "salt",
          "type": "bytes32"
        },
        {
          "internalType": "uint256[]",
          "name": "extensions",
          "type": "uint256[]"
        }
      ],
      "stateMutability": "view",
      "type": "function"
    },
    {
      "inputs": [],
      "name": "ipfsHash",
      "outputs": [
        {
          "internalType": "string",
          "name": "",
          "type": "string"
        }
      ],
      "stateMutability": "view",
      "type": "function"
    },
    {
      "inputs": [],
      "name": "name",
      "outputs": [
        {
          "internalType": "string",
          "name": "",
          "type": "string"
        }
      ],
      "stateMutability": "view",
      "type": "function"
    },
    {
      "inputs": [
        {
          "internalType": "address",
          "name": "owner",
          "type": "address"
        }
      ],
      "name": "nonces",
      "outputs": [
        {
          "internalType": "uint256",
          "name": "",
          "type": "uint256"
        }
      ],
      "stateMutability": "view",
      "type": "function"
    },
    {
      "inputs": [],
      "name": "owner",
      "outputs": [
        {
          "internalType": "address",
          "name": "",
          "type": "address"
        }
      ],
      "stateMutability": "view",
      "type": "function"
    },
    {
      "inputs": [
        {
          "internalType": "address",
          "name": "owner",
          "type": "address"
        },
        {
          "internalType": "address",
          "name": "spender",
          "type": "address"
        },
        {
          "internalType": "uint256",
          "name": "value",
          "type": "uint256"
        },
        {
          "internalType": "uint256",
          "name": "deadline",
          "type": "uint256"
        },
        {
          "internalType": "uint8",
          "name": "v",
          "type": "uint8"
        },
        {
          "internalType": "bytes32",
          "name": "r",
          "type": "bytes32"
        },
        {
          "internalType": "bytes32",
          "name": "s",
          "type": "bytes32"
        }
      ],
      "name": "permit",
      "outputs": [],
      "stateMutability": "nonpayable",
      "type": "function"
    },
    {
      "inputs": [],
      "name": "renounceOwnership",
      "outputs": [],
      "stateMutability": "nonpayable",
      "type": "function"
    },
    {
      "inputs": [],
      "name": "symbol",
      "outputs": [
        {
          "internalType": "string",
          "name": "",
          "type": "string"
        }
      ],
      "stateMutability": "view",
      "type": "function"
    },
    {
      "inputs": [],
      "name": "tokenURI",
      "outputs": [
        {
          "internalType": "string",
          "name": "",
          "type": "string"
        }
      ],
      "stateMutability": "view",
      "type": "function"
    },
    {
      "inputs": [],
      "name": "totalSupply",
      "outputs": [
        {
          "internalType": "uint256",
          "name": "",
          "type": "uint256"
        }
      ],
      "stateMutability": "view",
      "type": "function"
    },
    {
      "inputs": [
        {
          "internalType": "address",
          "name": "to",
          "type": "address"
        },
        {
          "internalType": "uint256",
          "name": "value",
          "type": "uint256"
        }
      ],
      "name": "transfer",
      "outputs": [
        {
          "internalType": "bool",
          "name": "",
          "type": "bool"
        }
      ],
      "stateMutability": "nonpayable",
      "type": "function"
    },
    {
      "inputs": [
        {
          "internalType": "address",
          "name": "from",
          "type": "address"
        },
        {
          "internalType": "address",
          "name": "to",
          "type": "address"
        },
        {
          "internalType": "uint256",
          "name": "value",
          "type": "uint256"
        }
      ],
      "name": "transferFrom",
      "outputs": [
        {
          "internalType": "bool",
          "name": "",
          "type": "bool"
        }
      ],
      "stateMutability": "nonpayable",
      "type": "function"
    },
    {
      "inputs": [
        {
          "internalType": "address",
          "name": "newOwner",
          "type": "address"
        }
      ],
      "name": "transferOwnership",
      "outputs": [],
      "stateMutability": "nonpayable",
      "type": "function"
    }
  ],
  "bytecode": "0x6101606040523480156200001257600080fd5b5060405162001a5038038062001a50833981016040819052620000359162000598565b338580604051806040016040528060018152602001603160f81b81525088888160039081620000659190620006e4565b506004620000748282620006e4565b50620000869150839050600562000217565b610120526200009781600662000217565b61014052815160208084019190912060e052815190820120610100524660a0526200012560e05161010051604080517f8b73c3c69bb8fe3d512ecc4cf759cc79239f7b179b0ffacaa9a75d522b39400f60208201529081019290925260608201524660808201523060a082015260009060c00160405160208183030381529060405280519060200120905090565b60805250503060c052506001600160a01b0381166200015f57604051631e4fbdf760e01b8152600060048201526024015b60405180910390fd5b6200016a8162000250565b506001600160a01b038216620001935760405163d92e233d60e01b815260040160405180910390fd5b600385511080620001a5575060038451105b15620001c457604051639432241960e01b815260040160405180910390fd5b82600003620001e65760405163c16f3a9360e01b815260040160405180910390fd5b6009620001f48282620006e4565b50620002013384620002a2565b6200020c82620002e0565b50505050506200082c565b600060208351101562000237576200022f8362000324565b90506200024a565b81620002448482620006e4565b5060ff90505b92915050565b600880546001600160a01b038381166001600160a01b0319831681179093556040519116919082907f8be0079c531659141344cd1fd0a4f28419497f9722a3daafe3b4186f6b6457e090600090a35050565b6001600160a01b038216620002ce5760405163ec442f0560e01b81526000600482015260240162000156565b620002dc6000838362000367565b5050565b620002ea6200049a565b6001600160a01b0381166200031657604051631e4fbdf760e01b81526000600482015260240162000156565b620003218162000250565b50565b600080829050601f8151111562000352578260405163305a27a960e01b8152600401620001569190620007b0565b80516200035f82620007e5565b179392505050565b6001600160a01b038316620003965780600260008282546200038a91906200080a565b909155506200040a9050565b6001600160a01b03831660009081526020819052604090205481811015620003eb5760405163391434e360e21b81526001600160a01b0385166004820152602481018290526044810183905260640162000156565b6001600160a01b03841660009081526020819052604090209082900390555b6001600160a01b038216620004285760028054829003905562000447565b6001600160a01b03821660009081526020819052604090208054820190555b816001600160a01b0316836001600160a01b03167fddf252ad1be2c89b69c2b068fc378daa952ba7f163c4a11628f55a4df523b3ef836040516200048d91815260200190565b60405180910390a3505050565b6008546001600160a01b03163314620004c95760405163118cdaa760e01b815233600482015260240162000156565b565b634e487b7160e01b600052604160045260246000fd5b60005b83811015620004fe578181015183820152602001620004e4565b50506000910152565b600082601f8301126200051957600080fd5b81516001600160401b0380821115620005365762000536620004cb565b604051601f8301601f19908116603f01168101908282118183101715620005615762000561620004cb565b816040528381528660208588010111156200057b57600080fd5b6200058e846020830160208901620004e1565b9695505050505050565b600080600080600060a08688031215620005b157600080fd5b85516001600160401b0380821115620005c957600080fd5b620005d789838a0162000507565b96506020880151915080821115620005ee57600080fd5b620005fc89838a0162000507565b604089015160608a0151919750955091506001600160a01b03821682146200062357600080fd5b6080880151919350808211156200063957600080fd5b50620006488882890162000507565b9150509295509295909350565b600181811c908216806200066a57607f821691505b6020821081036200068b57634e487b7160e01b600052602260045260246000fd5b50919050565b601f821115620006df57600081815260208120601f850160051c81016020861015620006ba5750805b601f850160051c820191505b81811015620006db57828155600101620006c6565b5050505b505050565b81516001600160401b03811115620007005762000700620004cb565b620007188162000711845462000655565b8462000691565b602080601f831160018114620007505760008415620007375750858301515b600019600386901b1c1916600185901b178555620006db565b600085815260208120601f198616915b82811015620007815788860151825594840194600190910190840162000760565b5085821015620007a05787850151600019600388901b60f8161c191681555b5050505050600190811b01905550565b6020815260008251806020840152620007d1816040850160208701620004e1565b601f01601f19169190910160400192915050565b805160208083015191908110156200068b5760001960209190910360031b1b16919050565b808201808211156200024a57634e487b7160e01b600052601160045260246000fd5b60805160a05160c05160e0516101005161012051610140516111c9620008876000396000610913015260006108e60152600061080f015260006107e7015260006107420152600061076c0152600061079601526111c96000f3fe608060405234801561001057600080fd5b50600436106101165760003560e01c80637ecebe00116100a2578063a9059cbb11610071578063a9059cbb14610224578063c623674f14610237578063d505accf1461023f578063dd62ed3e14610252578063f2fde38b1461028b57600080fd5b80637ecebe00146101d357806384b0196e146101e65780638da5cb5b1461020157806395d89b411461021c57600080fd5b8063313ce567116100e9578063313ce567146101815780633644e515146101905780633c130d901461019857806370a08231146101a0578063715018a6146101c957600080fd5b806306fdde031461011b578063095ea7b31461013957806318160ddd1461015c57806323b872dd1461016e575b600080fd5b61012361029e565b6040516101309190610e77565b60405180910390f35b61014c610147366004610ead565b610330565b6040519015158152602001610130565b6002545b604051908152602001610130565b61014c61017c366004610ed7565b61034a565b60405160128152602001610130565b61016061036e565b61012361037d565b6101606101ae366004610f13565b6001600160a01b031660009081526020819052604090205490565b6101d16103a5565b005b6101606101e1366004610f13565b6103b9565b6101ee6103d7565b6040516101309796959493929190610f2e565b6008546040516001600160a01b039091168152602001610130565b61012361041d565b61014c610232366004610ead565b61042c565b61012361043a565b6101d161024d366004610fc4565b6104c8565b610160610260366004611037565b6001600160a01b03918216600090815260016020908152604080832093909416825291909152205490565b6101d1610299366004610f13565b610607565b6060600380546102ad9061106a565b80601f01602080910402602001604051908101604052809291908181526020018280546102d99061106a565b80156103265780601f106102fb57610100808354040283529160200191610326565b820191906000526020600020905b81548152906001019060200180831161030957829003601f168201915b5050505050905090565b60003361033e818585610645565b60019150505b92915050565b600033610358858285610657565b6103638585856106d6565b506001949350505050565b6000610378610735565b905090565b6060600960405160200161039191906110a4565b604051602081830303815290604052905090565b6103ad610860565b6103b7600061088d565b565b6001600160a01b038116600090815260076020526040812054610344565b6000606080600080600060606103eb6108df565b6103f361090c565b60408051600080825260208201909252600f60f81b9b939a50919850469750309650945092509050565b6060600480546102ad9061106a565b60003361033e8185856106d6565b600980546104479061106a565b80601f01602080910402602001604051908101604052809291908181526020018280546104739061106a565b80156104c05780601f10610495576101008083540402835291602001916104c0565b820191906000526020600020905b8154815290600101906020018083116104a357829003601f168201915b505050505081565b834211156104f15760405163313c898160e11b8152600481018590526024015b60405180910390fd5b60007f6e71edae12b1b97f4d1f60370fef10105fa2faae0126114a169c64845d6126c988888861053e8c6001600160a01b0316600090815260076020526040902080546001810190915590565b6040805160208101969096526001600160a01b0394851690860152929091166060840152608083015260a082015260c0810186905260e001604051602081830303815290604052805190602001209050600061059982610939565b905060006105a982878787610966565b9050896001600160a01b0316816001600160a01b0316146105f0576040516325c0072360e11b81526001600160a01b0380831660048301528b1660248201526044016104e8565b6105fb8a8a8a610645565b50505050505050505050565b61060f610860565b6001600160a01b03811661063957604051631e4fbdf760e01b8152600060048201526024016104e8565b6106428161088d565b50565b6106528383836001610994565b505050565b6001600160a01b038381166000908152600160209081526040808320938616835292905220546000198110156106d057818110156106c157604051637dc7a0d960e11b81526001600160a01b038416600482015260248101829052604481018390526064016104e8565b6106d084848484036000610994565b50505050565b6001600160a01b03831661070057604051634b637e8f60e11b8152600060048201526024016104e8565b6001600160a01b03821661072a5760405163ec442f0560e01b8152600060048201526024016104e8565b610652838383610a69565b6000306001600160a01b037f00000000000000000000000000000000000000000000000000000000000000001614801561078e57507f000000000000000000000000000000000000000000000000000000000000000046145b156107b857507f000000000000000000000000000000000000000000000000000000000000000090565b610378604080517f8b73c3c69bb8fe3d512ecc4cf759cc79239f7b179b0ffacaa9a75d522b39400f60208201527f0000000000000000000000000000000000000000000000000000000000000000918101919091527f000000000000000000000000000000000000000000000000000000000000000060608201524660808201523060a082015260009060c00160405160208183030381529060405280519060200120905090565b6008546001600160a01b031633146103b75760405163118cdaa760e01b81523360048201526024016104e8565b600880546001600160a01b038381166001600160a01b0319831681179093556040519116919082907f8be0079c531659141344cd1fd0a4f28419497f9722a3daafe3b4186f6b6457e090600090a35050565b60606103787f00000000000000000000000000000000000000000000000000000000000000006005610b93565b60606103787f00000000000000000000000000000000000000000000000000000000000000006006610b93565b6000610344610946610735565b8360405161190160f01b8152600281019290925260228201526042902090565b60008060008061097888888888610c3e565b9250925092506109888282610d0d565b50909695505050505050565b6001600160a01b0384166109be5760405163e602df0560e01b8152600060048201526024016104e8565b6001600160a01b0383166109e857604051634a1406b160e11b8152600060048201526024016104e8565b6001600160a01b03808516600090815260016020908152604080832093871683529290522082905580156106d057826001600160a01b0316846001600160a01b03167f8c5be1e5ebec7d5bd14f71427d1e84f3dd0314c0f7b2291e5b200ac8c7c3b92584604051610a5b91815260200190565b60405180910390a350505050565b6001600160a01b038316610a94578060026000828254610a89919061115c565b90915550610b069050565b6001600160a01b03831660009081526020819052604090205481811015610ae75760405163391434e360e21b81526001600160a01b038516600482015260248101829052604481018390526064016104e8565b6001600160a01b03841660009081526020819052604090209082900390555b6001600160a01b038216610b2257600280548290039055610b41565b6001600160a01b03821660009081526020819052604090208054820190555b816001600160a01b0316836001600160a01b03167fddf252ad1be2c89b69c2b068fc378daa952ba7f163c4a11628f55a4df523b3ef83604051610b8691815260200190565b60405180910390a3505050565b606060ff8314610bad57610ba683610dca565b9050610344565b818054610bb99061106a565b80601f0160208091040260200160405190810160405280929190818152602001828054610be59061106a565b8015610c325780601f10610c0757610100808354040283529160200191610c32565b820191906000526020600020905b815481529060010190602001808311610c1557829003601f168201915b50505050509050610344565b600080807f7fffffffffffffffffffffffffffffff5d576e7357a4501ddfe92f46681b20a0841115610c795750600091506003905082610d03565b604080516000808252602082018084528a905260ff891692820192909252606081018790526080810186905260019060a0016020604051602081039080840390855afa158015610ccd573d6000803e3d6000fd5b5050604051601f1901519150506001600160a01b038116610cf957506000925060019150829050610d03565b9250600091508190505b9450945094915050565b6000826003811115610d2157610d2161117d565b03610d2a575050565b6001826003811115610d3e57610d3e61117d565b03610d5c5760405163f645eedf60e01b815260040160405180910390fd5b6002826003811115610d7057610d7061117d565b03610d915760405163fce698f760e01b8152600481018290526024016104e8565b6003826003811115610da557610da561117d565b03610dc6576040516335e2f38360e21b8152600481018290526024016104e8565b5050565b60606000610dd783610e09565b604080516020808252818301909252919250600091906020820181803683375050509182525060208101929092525090565b600060ff8216601f81111561034457604051632cd44ac360e21b815260040160405180910390fd5b6000815180845260005b81811015610e5757602081850181015186830182015201610e3b565b506000602082860101526020601f19601f83011685010191505092915050565b602081526000610e8a6020830184610e31565b9392505050565b80356001600160a01b0381168114610ea857600080fd5b919050565b60008060408385031215610ec057600080fd5b610ec983610e91565b946020939093013593505050565b600080600060608486031215610eec57600080fd5b610ef584610e91565b9250610f0360208501610e91565b9150604084013590509250925092565b600060208284031215610f2557600080fd5b610e8a82610e91565b60ff60f81b881681526000602060e081840152610f4e60e084018a610e31565b8381036040850152610f60818a610e31565b606085018990526001600160a01b038816608086015260a0850187905284810360c0860152855180825283870192509083019060005b81811015610fb257835183529284019291840191600101610f96565b50909c9b505050505050505050505050565b600080600080600080600060e0888a031215610fdf57600080fd5b610fe888610e91565b9650610ff660208901610e91565b95506040880135945060608801359350608088013560ff8116811461101a57600080fd5b9699959850939692959460a0840135945060c09093013592915050565b6000806040838503121561104a57600080fd5b61105383610e91565b915061106160208401610e91565b90509250929050565b600181811c9082168061107e57607f821691505b60208210810361109e57634e487b7160e01b600052602260045260246000fd5b50919050565b66697066733a2f2f60c81b8152600060076000845481600182811c9150808316806110d057607f831692505b602080841082036110ef57634e487b7160e01b86526022600452602486fd5b818015611103576001811461111c5761114d565b60ff1986168a89015284151585028a018801965061114d565b60008b81526020902060005b868110156111435781548c82018b0152908501908301611128565b505087858b010196505b50949998505050505050505050565b8082018082111561034457634e487b7160e01b600052601160045260246000fd5b634e487b7160e01b600052602160045260246000fdfea2646970667358221220360c70b11b00375decee0665a1206bf9cff285381b8d2f9f357b6d3790e9562164736f6c63430008140033",
  "linkReferences": {},
  "deployedLinkReferences": {}
}