{"contracts/MockGasService.sol":{"MockGasService":{"abi":[{"inputs":[{"internalType":"address","name":"","type":"address"},{"internalType":"string","name":"","type":"string"},{"internalType":"string","name":"","type":"string"},{"internalType":"bytes","name":"","type":"bytes"},{"internalType":"string","name":"","type":"string"},{"internalType":"uint256","name":"","type":"uint256"},{"internalType":"address","name":"","type":"address"}],"name":"payNativeGasForContractCallWithToken","outputs":[],"stateMutability":"payable","type":"function"}],"evm":{"bytecode":{"linkReferences":{},"object":"6080806040523461001657610103908161001c8239f35b600080fdfe6080604052600480361015601257600080fd5b600090813560e01c63c62c200214602857600080fd5b60e036600319011260c2576001600160a01b039080358281160360be5767ffffffffffffffff9060243582811160ba576063903690830160c6565b505060443582811160ba576079903690830160c6565b505060643582811160ba57608f903690830160c6565b505060843591821160b65760a49136910160c6565b505060c4359081160360b35780f35b80fd5b8380fd5b8480fd5b8280fd5b5080fd5b9181601f8401121560f15782359167ffffffffffffffff831160f1576020838186019501011160f157565b600080fdfea164736f6c6343000814000a","opcodes":"PUSH1 0x80 DUP1 PUSH1 0x40 MSTORE CALLVALUE PUSH2 0x16 JUMPI PUSH2 0x103 SWAP1 DUP2 PUSH2 0x1C DUP3 CODECOPY RETURN JUMPDEST PUSH1 0x0 DUP1 REVERT INVALID PUSH1 0x80 PUSH1 0x40 MSTORE PUSH1 0x4 DUP1 CALLDATASIZE LT ISZERO PUSH1 0x12 JUMPI PUSH1 0x0 DUP1 REVERT JUMPDEST PUSH1 0x0 SWAP1 DUP2 CALLDATALOAD PUSH1 0xE0 SHR PUSH4 0xC62C2002 EQ PUSH1 0x28 JUMPI PUSH1 0x0 DUP1 REVERT JUMPDEST PUSH1 0xE0 CALLDATASIZE PUSH1 0x3 NOT ADD SLT PUSH1 0xC2 JUMPI PUSH1 0x1 PUSH1 0x1 PUSH1 0xA0 SHL SUB SWAP1 DUP1 CALLDATALOAD DUP3 DUP2 AND SUB PUSH1 0xBE JUMPI PUSH8 0xFFFFFFFFFFFFFFFF SWAP1 PUSH1 0x24 CALLDATALOAD DUP3 DUP2 GT PUSH1 0xBA JUMPI PUSH1 0x63 SWAP1 CALLDATASIZE SWAP1 DUP4 ADD PUSH1 0xC6 JUMP JUMPDEST POP POP PUSH1 0x44 CALLDATALOAD DUP3 DUP2 GT PUSH1 0xBA JUMPI PUSH1 0x79 SWAP1 CALLDATASIZE SWAP1 DUP4 ADD PUSH1 0xC6 JUMP JUMPDEST POP POP PUSH1 0x64 CALLDATALOAD DUP3 DUP2 GT PUSH1 0xBA JUMPI PUSH1 0x8F SWAP1 CALLDATASIZE SWAP1 DUP4 ADD PUSH1 0xC6 JUMP JUMPDEST POP POP PUSH1 0x84 CALLDATALOAD SWAP2 DUP3 GT PUSH1 0xB6 JUMPI PUSH1 0xA4 SWAP2 CALLDATASIZE SWAP2 ADD PUSH1 0xC6 JUMP JUMPDEST POP POP PUSH1 0xC4 CALLDATALOAD SWAP1 DUP2 AND SUB PUSH1 0xB3 JUMPI DUP1 RETURN JUMPDEST DUP1 REVERT JUMPDEST DUP4 DUP1 REVERT JUMPDEST DUP5 DUP1 REVERT JUMPDEST DUP3 DUP1 REVERT JUMPDEST POP DUP1 REVERT JUMPDEST SWAP2 DUP2 PUSH1 0x1F DUP5 ADD SLT ISZERO PUSH1 0xF1 JUMPI DUP3 CALLDATALOAD SWAP2 PUSH8 0xFFFFFFFFFFFFFFFF DUP4 GT PUSH1 0xF1 JUMPI PUSH1 0x20 DUP4 DUP2 DUP7 ADD SWAP6 ADD ADD GT PUSH1 0xF1 JUMPI JUMP JUMPDEST PUSH1 0x0 DUP1 REVERT INVALID LOG1 PUSH5 0x736F6C6343 STOP ADDMOD EQ STOP EXP "},"methodIdentifiers":{"payNativeGasForContractCallWithToken(address,string,string,bytes,string,uint256,address)":"c62c2002"}}}}}