{"contracts/MockGateway.sol":{"MockGateway":{"abi":[{"inputs":[{"internalType":"string","name":"","type":"string"},{"internalType":"string","name":"","type":"string"},{"internalType":"bytes","name":"","type":"bytes"},{"internalType":"string","name":"","type":"string"},{"internalType":"uint256","name":"","type":"uint256"}],"name":"callContractWithToken","outputs":[],"stateMutability":"nonpayable","type":"function"}],"evm":{"bytecode":{"linkReferences":{},"object":"608080604052346100155760e3908161001b8239f35b600080fdfe6080604052600480361015601257600080fd5b600090813560e01c63b541708414602857600080fd5b3460a25760a036600319011260a25767ffffffffffffffff908035828111609e576054903690830160a6565b5050602435828111609e57606a903690830160a6565b5050604435828111609e576080903690830160a6565b5050606435918211609a5760959136910160a6565b505080f35b8280fd5b8380fd5b5080fd5b9181601f8401121560d15782359167ffffffffffffffff831160d1576020838186019501011160d157565b600080fdfea164736f6c6343000814000a","opcodes":"PUSH1 0x80 DUP1 PUSH1 0x40 MSTORE CALLVALUE PUSH2 0x15 JUMPI PUSH1 0xE3 SWAP1 DUP2 PUSH2 0x1B DUP3 CODECOPY RETURN JUMPDEST PUSH1 0x0 DUP1 REVERT INVALID PUSH1 0x80 PUSH1 0x40 MSTORE PUSH1 0x4 DUP1 CALLDATASIZE LT ISZERO PUSH1 0x12 JUMPI PUSH1 0x0 DUP1 REVERT JUMPDEST PUSH1 0x0 SWAP1 DUP2 CALLDATALOAD PUSH1 0xE0 SHR PUSH4 0xB5417084 EQ PUSH1 0x28 JUMPI PUSH1 0x0 DUP1 REVERT JUMPDEST CALLVALUE PUSH1 0xA2 JUMPI PUSH1 0xA0 CALLDATASIZE PUSH1 0x3 NOT ADD SLT PUSH1 0xA2 JUMPI PUSH8 0xFFFFFFFFFFFFFFFF SWAP1 DUP1 CALLDATALOAD DUP3 DUP2 GT PUSH1 0x9E JUMPI PUSH1 0x54 SWAP1 CALLDATASIZE SWAP1 DUP4 ADD PUSH1 0xA6 JUMP JUMPDEST POP POP PUSH1 0x24 CALLDATALOAD DUP3 DUP2 GT PUSH1 0x9E JUMPI PUSH1 0x6A SWAP1 CALLDATASIZE SWAP1 DUP4 ADD PUSH1 0xA6 JUMP JUMPDEST POP POP PUSH1 0x44 CALLDATALOAD DUP3 DUP2 GT PUSH1 0x9E JUMPI PUSH1 0x80 SWAP1 CALLDATASIZE SWAP1 DUP4 ADD PUSH1 0xA6 JUMP JUMPDEST POP POP PUSH1 0x64 CALLDATALOAD SWAP2 DUP3 GT PUSH1 0x9A JUMPI PUSH1 0x95 SWAP2 CALLDATASIZE SWAP2 ADD PUSH1 0xA6 JUMP JUMPDEST POP POP DUP1 RETURN JUMPDEST DUP3 DUP1 REVERT JUMPDEST DUP4 DUP1 REVERT JUMPDEST POP DUP1 REVERT JUMPDEST SWAP2 DUP2 PUSH1 0x1F DUP5 ADD SLT ISZERO PUSH1 0xD1 JUMPI DUP3 CALLDATALOAD SWAP2 PUSH8 0xFFFFFFFFFFFFFFFF DUP4 GT PUSH1 0xD1 JUMPI PUSH1 0x20 DUP4 DUP2 DUP7 ADD SWAP6 ADD ADD GT PUSH1 0xD1 JUMPI JUMP JUMPDEST PUSH1 0x0 DUP1 REVERT INVALID LOG1 PUSH5 0x736F6C6343 STOP ADDMOD EQ STOP EXP "},"methodIdentifiers":{"callContractWithToken(string,string,bytes,string,uint256)":"b5417084"}}}}}