{"contracts/MemeCoinFactory.sol":{"MemeCoinFactory":{"abi":[{"inputs":[{"internalType":"uint16","name":"_platformFeeBP","type":"uint16"},{"internalType":"uint16","name":"_referralFeeBP","type":"uint16"}],"stateMutability":"nonpayable","type":"constructor"},{"inputs":[],"name":"EnforcedPause","type":"error"},{"inputs":[],"name":"ExpectedPause","type":"error"},{"inputs":[],"name":"IncorrectETH","type":"error"},{"inputs":[],"name":"NotAuthorized","type":"error"},{"inputs":[],"name":"NotLaunched","type":"error"},{"inputs":[{"internalType":"address","name":"owner","type":"address"}],"name":"OwnableInvalidOwner","type":"error"},{"inputs":[{"internalType":"address","name":"account","type":"address"}],"name":"OwnableUnauthorizedAccount","type":"error"},{"inputs":[],"name":"PriceZero","type":"error"},{"inputs":[],"name":"ReentrancyGuardReentrantCall","type":"error"},{"inputs":[{"internalType":"address","name":"token","type":"address"}],"name":"SafeERC20FailedOperation","type":"error"},{"inputs":[],"name":"TokenPaused","type":"error"},{"inputs":[],"name":"ZeroAmount","type":"error"},{"anonymous":false,"inputs":[{"indexed":true,"internalType":"address","name":"token","type":"address"},{"indexed":true,"internalType":"address","name":"buyer","type":"address"},{"indexed":false,"internalType":"uint256","name":"amountAtomic","type":"uint256"},{"indexed":false,"internalType":"uint256","name":"costWei","type":"uint256"},{"indexed":true,"internalType":"address","name":"referrer","type":"address"},{"indexed":false,"internalType":"uint256","name":"platformShare","type":"uint256"},{"indexed":false,"internalType":"uint256","name":"referralShare","type":"uint256"},{"indexed":false,"internalType":"uint256","name":"creatorShare","type":"uint256"}],"name":"Bought","type":"event"},{"anonymous":false,"inputs":[{"indexed":true,"internalType":"address","name":"to","type":"address"},{"indexed":false,"internalType":"uint256","name":"amount","type":"uint256"}],"name":"ETHRescued","type":"event"},{"anonymous":false,"inputs":[{"indexed":false,"internalType":"uint16","name":"newPlatformFeeBP","type":"uint16"},{"indexed":false,"internalType":"uint16","name":"newReferralFeeBP","type":"uint16"}],"name":"FeesUpdated","type":"event"},{"anonymous":false,"inputs":[{"indexed":true,"internalType":"address","name":"token","type":"address"},{"indexed":false,"internalType":"string","name":"newDescription","type":"string"},{"indexed":false,"internalType":"string","name":"newIpfsHash","type":"string"}],"name":"MetadataUpdated","type":"event"},{"anonymous":false,"inputs":[{"indexed":true,"internalType":"address","name":"previousOwner","type":"address"},{"indexed":true,"internalType":"address","name":"newOwner","type":"address"}],"name":"OwnershipTransferred","type":"event"},{"anonymous":false,"inputs":[{"indexed":false,"internalType":"address","name":"account","type":"address"}],"name":"Paused","type":"event"},{"anonymous":false,"inputs":[{"indexed":true,"internalType":"address","name":"token","type":"address"},{"indexed":false,"internalType":"uint256","name":"newPriceWei","type":"uint256"}],"name":"PriceUpdated","type":"event"},{"anonymous":false,"inputs":[{"indexed":true,"internalType":"address","name":"token","type":"address"},{"indexed":true,"internalType":"address","name":"creator","type":"address"},{"indexed":false,"internalType":"uint256","name":"priceWei","type":"uint256"},{"indexed":false,"internalType":"string","name":"description","type":"string"},{"indexed":false,"internalType":"string","name":"ipfsHash","type":"string"}],"name":"TokenCreated","type":"event"},{"anonymous":false,"inputs":[{"indexed":true,"internalType":"address","name":"token","type":"address"}],"name":"TokenPausedEvent","type":"event"},{"anonymous":false,"inputs":[{"indexed":true,"internalType":"address","name":"token","type":"address"},{"indexed":false,"internalType":"uint256","name":"amount","type":"uint256"}],"name":"TokenRescued","type":"event"},{"anonymous":false,"inputs":[{"indexed":true,"internalType":"address","name":"token","type":"address"}],"name":"TokenUnpausedEvent","type":"event"},{"anonymous":false,"inputs":[{"indexed":false,"internalType":"address","name":"account","type":"address"}],"name":"Unpaused","type":"event"},{"anonymous":false,"inputs":[{"indexed":true,"internalType":"address","name":"token","type":"address"},{"indexed":false,"internalType":"uint256","name":"amount","type":"uint256"}],"name":"UnsoldReclaimed","type":"event"},{"stateMutability":"payable","type":"fallback"},{"inputs":[{"internalType":"uint256","name":"","type":"uint256"}],"name":"allTokens","outputs":[{"internalType":"address","name":"token","type":"address"},{"internalType":"address","name":"creator","type":"address"},{"internalType":"uint256","name":"priceWei","type":"uint256"},{"internalType":"string","name":"description","type":"string"},{"internalType":"string","name":"ipfsHash","type":"string"}],"stateMutability":"view","type":"function"},{"inputs":[{"internalType":"address","name":"token_","type":"address"},{"internalType":"uint256","name":"amountAtomic","type":"uint256"},{"internalType":"address","name":"referrer","type":"address"}],"name":"buyToken","outputs":[],"stateMutability":"payable","type":"function"},{"inputs":[{"internalType":"string","name":"name_","type":"string"},{"internalType":"string","name":"symbol_","type":"string"},{"internalType":"string","name":"description_","type":"string"},{"internalType":"uint256","name":"totalSupply_","type":"uint256"},{"internalType":"uint256","name":"priceWei_","type":"uint256"},{"internalType":"string","name":"ipfsHash_","type":"string"}],"name":"createMemeCoin","outputs":[{"internalType":"address","name":"tokenAddress","type":"address"}],"stateMutability":"nonpayable","type":"function"},{"inputs":[{"internalType":"uint256","name":"index","type":"uint256"}],"name":"getTokenDetails","outputs":[{"internalType":"address","name":"token","type":"address"},{"internalType":"string","name":"name_","type":"string"},{"internalType":"string","name":"symbol_","type":"string"},{"internalType":"string","name":"description_","type":"string"},{"internalType":"string","name":"ipfsHash_","type":"string"},{"internalType":"uint256","name":"priceWei_","type":"uint256"},{"internalType":"address","name":"creator_","type":"address"}],"stateMutability":"view","type":"function"},{"inputs":[{"internalType":"address","name":"token_","type":"address"}],"name":"getTokenDetailsByAddress","outputs":[{"internalType":"address","name":"token","type":"address"},{"internalType":"string","name":"name_","type":"string"},{"internalType":"string","name":"symbol_","type":"string"},{"internalType":"string","name":"description_","type":"string"},{"internalType":"string","name":"ipfsHash_","type":"string"},{"internalType":"uint256","name":"priceWei_","type":"uint256"},{"internalType":"address","name":"creator_","type":"address"}],"stateMutability":"view","type":"function"},{"inputs":[{"internalType":"address","name":"token_","type":"address"}],"name":"getTokenIndex","outputs":[{"internalType":"uint256","name":"","type":"uint256"}],"stateMutability":"view","type":"function"},{"inputs":[{"internalType":"uint256","name":"start","type":"uint256"},{"internalType":"uint256","name":"count","type":"uint256"}],"name":"getTokens","outputs":[{"components":[{"internalType":"address","name":"token","type":"address"},{"internalType":"address","name":"creator","type":"address"},{"internalType":"uint256","name":"priceWei","type":"uint256"},{"internalType":"string","name":"description","type":"string"},{"internalType":"string","name":"ipfsHash","type":"string"}],"internalType":"struct MemeCoinFactory.TokenInfo[]","name":"page","type":"tuple[]"}],"stateMutability":"view","type":"function"},{"inputs":[{"internalType":"address","name":"creator_","type":"address"}],"name":"getTokensByCreator","outputs":[{"components":[{"internalType":"address","name":"token","type":"address"},{"internalType":"address","name":"creator","type":"address"},{"internalType":"uint256","name":"priceWei","type":"uint256"},{"internalType":"string","name":"description","type":"string"},{"internalType":"string","name":"ipfsHash","type":"string"}],"internalType":"struct MemeCoinFactory.TokenInfo[]","name":"","type":"tuple[]"}],"stateMutability":"view","type":"function"},{"inputs":[],"name":"owner","outputs":[{"internalType":"address","name":"","type":"address"}],"stateMutability":"view","type":"function"},{"inputs":[],"name":"pause","outputs":[],"stateMutability":"nonpayable","type":"function"},{"inputs":[{"internalType":"address","name":"token_","type":"address"}],"name":"pauseToken","outputs":[],"stateMutability":"nonpayable","type":"function"},{"inputs":[],"name":"paused","outputs":[{"internalType":"bool","name":"","type":"bool"}],"stateMutability":"view","type":"function"},{"inputs":[],"name":"platformFeeBP","outputs":[{"internalType":"uint16","name":"","type":"uint16"}],"stateMutability":"view","type":"function"},{"inputs":[{"internalType":"address","name":"token_","type":"address"}],"name":"priceOf","outputs":[{"internalType":"uint256","name":"","type":"uint256"}],"stateMutability":"view","type":"function"},{"inputs":[{"internalType":"address","name":"token_","type":"address"},{"internalType":"uint256","name":"amount","type":"uint256"}],"name":"reclaimUnsold","outputs":[],"stateMutability":"nonpayable","type":"function"},{"inputs":[],"name":"referralFeeBP","outputs":[{"internalType":"uint16","name":"","type":"uint16"}],"stateMutability":"view","type":"function"},{"inputs":[],"name":"renounceOwnership","outputs":[],"stateMutability":"nonpayable","type":"function"},{"inputs":[{"internalType":"address","name":"token_","type":"address"},{"internalType":"uint256","name":"amount","type":"uint256"}],"name":"rescueERC20","outputs":[],"stateMutability":"nonpayable","type":"function"},{"inputs":[{"internalType":"address","name":"","type":"address"}],"name":"tokenIndexPlusOne","outputs":[{"internalType":"uint256","name":"","type":"uint256"}],"stateMutability":"view","type":"function"},{"inputs":[{"internalType":"address","name":"","type":"address"}],"name":"tokenPaused","outputs":[{"internalType":"bool","name":"","type":"bool"}],"stateMutability":"view","type":"function"},{"inputs":[],"name":"totalTokens","outputs":[{"internalType":"uint256","name":"","type":"uint256"}],"stateMutability":"view","type":"function"},{"inputs":[{"internalType":"address","name":"newOwner","type":"address"}],"name":"transferOwnership","outputs":[],"stateMutability":"nonpayable","type":"function"},{"inputs":[],"name":"unpause","outputs":[],"stateMutability":"nonpayable","type":"function"},{"inputs":[{"internalType":"address","name":"token_","type":"address"}],"name":"unpauseToken","outputs":[],"stateMutability":"nonpayable","type":"function"},{"inputs":[{"internalType":"address","name":"token_","type":"address"}],"name":"unsoldSupply","outputs":[{"internalType":"uint256","name":"","type":"uint256"}],"stateMutability":"view","type":"function"},{"inputs":[{"internalType":"uint16","name":"_pf","type":"uint16"},{"internalType":"uint16","name":"_rf","type":"uint16"}],"name":"updateFees","outputs":[],"stateMutability":"nonpayable","type":"function"},{"inputs":[{"internalType":"address","name":"token_","type":"address"},{"internalType":"string","name":"newDescription","type":"string"},{"internalType":"string","name":"newIpfsHash","type":"string"}],"name":"updateMetadata","outputs":[],"stateMutability":"nonpayable","type":"function"},{"inputs":[{"internalType":"address","name":"token_","type":"address"},{"internalType":"uint256","name":"newPriceWei","type":"uint256"}],"name":"updatePrice","outputs":[],"stateMutability":"nonpayable","type":"function"},{"inputs":[{"internalType":"uint256","name":"amount","type":"uint256"}],"name":"withdrawETH","outputs":[],"stateMutability":"nonpayable","type":"function"},{"stateMutability":"payable","type":"receive"}],"evm":{"bytecode":{"linkReferences":{},"object":"60806040523480156200001157600080fd5b506040516200488d3803806200488d833981016040819052620000349162000152565b33806200005c57604051631e4fbdf760e01b8152600060048201526024015b60405180910390fd5b6200006781620000ea565b50600180556127106200007b82846200018a565b61ffff1610620000be5760405162461bcd60e51b815260206004820152600d60248201526c08ccacae640e8dede40d0d2ced609b1b604482015260640162000053565b6006805461ffff928316620100000263ffffffff199091169290931691909117919091179055620001bb565b600080546001600160a01b038381166001600160a01b0319831681178455604051919092169283917f8be0079c531659141344cd1fd0a4f28419497f9722a3daafe3b4186f6b6457e09190a35050565b805161ffff811681146200014d57600080fd5b919050565b600080604083850312156200016657600080fd5b62000171836200013a565b915062000181602084016200013a565b90509250929050565b61ffff818116838216019080821115620001b457634e487b7160e01b600052601160045260246000fd5b5092915050565b6146c280620001cb6000396000f3fe608060405260043610620001f35760003560e01c80637c41ad2c116200010f578063c1e0372811620000a3578063f14210a6116200006d578063f14210a61462000655578063f2fde38b146200067a578063f3d2350e146200069f578063ff96092a14620006c45762000235565b8063c1e0372814620005af578063d5c7127514620005d4578063d634b41914620005f9578063dc4ec9be146200061e5762000235565b80638995881d11620000e55780638995881d14620004fd5780638cd4426d14620005315780638da5cb5b1462000556578063b95ed06f146200058a5762000235565b80637c41ad2c14620004a95780637e1c0c0914620004ce5780638456cb5914620004e55762000235565b8063494cfc6c1162000187578063634282af116200015d578063634282af146200041d57806366c0bd241462000455578063692bf4a8146200047a578063715018a614620004915762000235565b8063494cfc6c146200039e5780635c975abb14620003d25780635e62bf9414620003f85762000235565b806335a62e6811620001c957806335a62e68146200030b5780633b3bff0f146200033c5780633f4ba83a1462000361578063457972de14620003795762000235565b80630e3f0cfc146200026d5780633338c5b6146200029457806333f3f07814620002d75762000235565b36620002355760405162461bcd60e51b815260206004820152600c60248201526b2ab9b290313abcaa37b5b2b760a11b60448201526064015b60405180910390fd5b60405162461bcd60e51b815260206004820152600c60248201526b2ab9b290313abcaa37b5b2b760a11b60448201526064016200022c565b3480156200027a57600080fd5b50620002926200028c3660046200215f565b620006e1565b005b348015620002a157600080fd5b50620002b9620002b33660046200218e565b620007fd565b604051620002ce979695949392919062002202565b60405180910390f35b348015620002e457600080fd5b50620002fc620002f63660046200218e565b620008d7565b604051908152602001620002ce565b3480156200031857600080fd5b50620002fc6200032a3660046200218e565b60046020526000908152604090205481565b3480156200034957600080fd5b50620002926200035b3660046200218e565b6200094b565b3480156200036e57600080fd5b50620002926200099e565b3480156200038657600080fd5b5062000292620003983660046200215f565b620009b4565b348015620003ab57600080fd5b50620003c3620003bd36600462002283565b62000ae5565b604051620002ce9190620022a6565b348015620003df57600080fd5b5060025460ff165b6040519015158152602001620002ce565b3480156200040557600080fd5b506200029262000417366004620023ae565b62000d68565b3480156200042a57600080fd5b50620004426200043c3660046200243a565b62000e9d565b604051620002ce95949392919062002454565b3480156200046257600080fd5b50620002fc620004743660046200218e565b62001010565b620002926200048b366004620024a9565b6200105f565b3480156200049e57600080fd5b506200029262001362565b348015620004b657600080fd5b5062000292620004c83660046200218e565b62001378565b348015620004db57600080fd5b50600354620002fc565b348015620004f257600080fd5b5062000292620013ce565b3480156200050a57600080fd5b50620003e76200051c3660046200218e565b60056020526000908152604090205460ff1681565b3480156200053e57600080fd5b5062000292620005503660046200215f565b620013e2565b3480156200056357600080fd5b506000546001600160a01b03165b6040516001600160a01b039091168152602001620002ce565b3480156200059757600080fd5b50620002fc620005a93660046200218e565b6200145d565b348015620005bc57600080fd5b50620002b9620005ce3660046200243a565b620014d4565b348015620005e157600080fd5b50620003c3620005f33660046200218e565b62001788565b3480156200060657600080fd5b506200057162000618366004620024f0565b62001a95565b3480156200062b57600080fd5b50600654620006419062010000900461ffff1681565b60405161ffff9091168152602001620002ce565b3480156200066257600080fd5b5062000292620006743660046200243a565b62001cc6565b3480156200068757600080fd5b5062000292620006993660046200218e565b62001da2565b348015620006ac57600080fd5b5062000292620006be366004620025ef565b62001de6565b348015620006d157600080fd5b50600654620006419061ffff1681565b620006eb62001ea3565b6001600160a01b038216600090815260046020526040812054908190036200072657604051638dda39df60e01b815260040160405180910390fd5b60006003620007376001846200263d565b815481106200074a576200074a62002653565b6000918252602090912060059091020160018101549091506001600160a01b031633146200078b5760405163ea8e4eb560e01b815260040160405180910390fd5b6001810154620007a9906001600160a01b0386811691168562001ece565b836001600160a01b03167fb42c9fecfb68f9bf84886f05b85865be2fda69a3ec869651d1320d8f528be6bb84604051620007e591815260200190565b60405180910390a25050620007f960018055565b5050565b6001600160a01b03811660009081526004602052604081205460609081908190819085908190808203620008455760405162461bcd60e51b81526004016200022c9062002669565b3063c1e03728620008586001846200263d565b6040518263ffffffff1660e01b81526004016200087791815260200190565b600060405180830381865afa15801562000895573d6000803e3d6000fd5b505050506040513d6000823e601f3d908101601f19168201604052620008bf919081019062002744565b959f949e50929c50909a509850965090945092505050565b6040516370a0823160e01b81523060048201526000906001600160a01b038316906370a0823190602401602060405180830381865afa1580156200091f573d6000803e3d6000fd5b505050506040513d601f19601f820116820180604052508101906200094591906200282d565b92915050565b6200095562001f22565b6001600160a01b038116600081815260056020526040808220805460ff19169055517f7236530905f7db97a79e0d447edb198efa7cc11d321386a4bc4f01c9dcaef73d9190a250565b620009a862001f22565b620009b262001f51565b565b620009be62001fa5565b80600003620009e057604051637294708f60e11b815260040160405180910390fd5b6001600160a01b0382166000908152600460205260408120549081900362000a1b57604051638dda39df60e01b815260040160405180910390fd5b6000600362000a2c6001846200263d565b8154811062000a3f5762000a3f62002653565b6000918252602090912060059091020160018101549091506001600160a01b0316331480159062000a7b57506000546001600160a01b03163314155b1562000a9a5760405163ea8e4eb560e01b815260040160405180910390fd5b600281018390556040518381526001600160a01b038516907f0d86730737b142fc160892fa8a0f2db687a92a0e294d1ad70624cf5acef03b849060200160405180910390a250505050565b60035460609060008162000afa858762002847565b1162000b125762000b0c848662002847565b62000b14565b815b905062000b2285826200263d565b67ffffffffffffffff81111562000b3d5762000b3d6200269c565b60405190808252806020026020018201604052801562000b7a57816020015b62000b66620020fa565b81526020019060019003908162000b5c5790505b509250845b8181101562000d5f576003818154811062000b9e5762000b9e62002653565b60009182526020918290206040805160a081018252600590930290910180546001600160a01b0390811684526001820154169383019390935260028301549082015260038201805491929160608401919062000bfa906200285d565b80601f016020809104026020016040519081016040528092919081815260200182805462000c28906200285d565b801562000c795780601f1062000c4d5761010080835404028352916020019162000c79565b820191906000526020600020905b81548152906001019060200180831162000c5b57829003601f168201915b5050505050815260200160048201805462000c94906200285d565b80601f016020809104026020016040519081016040528092919081815260200182805462000cc2906200285d565b801562000d135780601f1062000ce75761010080835404028352916020019162000d13565b820191906000526020600020905b81548152906001019060200180831162000cf557829003601f168201915b50505050508152505084878362000d2b91906200263d565b8151811062000d3e5762000d3e62002653565b6020026020010181905250808062000d569062002899565b91505062000b7f565b50505092915050565b6001600160a01b0385166000908152600460205260408120549081900362000da45760405162461bcd60e51b81526004016200022c9062002669565b6000600362000db56001846200263d565b8154811062000dc85762000dc862002653565b6000918252602090912060059091020160018101549091506001600160a01b0316331462000e275760405162461bcd60e51b815260206004820152600b60248201526a2737ba1031b932b0ba37b960a91b60448201526064016200022c565b6003810162000e3886888362002907565b506004810162000e4a84868362002907565b50866001600160a01b03167f6c1850fce35387a891e82ca88e975790ab6f0709e9ed6842e01397f296012a7e8787878760405162000e8c9493929190620029fe565b60405180910390a250505050505050565b6003818154811062000eae57600080fd5b600091825260209091206005909102018054600182015460028301546003840180546001600160a01b03948516965092909316939092909162000ef1906200285d565b80601f016020809104026020016040519081016040528092919081815260200182805462000f1f906200285d565b801562000f705780601f1062000f445761010080835404028352916020019162000f70565b820191906000526020600020905b81548152906001019060200180831162000f5257829003601f168201915b50505050509080600401805462000f87906200285d565b80601f016020809104026020016040519081016040528092919081815260200182805462000fb5906200285d565b8015620010065780601f1062000fda5761010080835404028352916020019162001006565b820191906000526020600020905b81548152906001019060200180831162000fe857829003601f168201915b5050505050905085565b6001600160a01b0381166000908152600460205260408120548082036200104b5760405162461bcd60e51b81526004016200022c9062002669565b620010586001826200263d565b9392505050565b6200106962001ea3565b6200107362001fa5565b816000036200109557604051631f2a200560e01b815260040160405180910390fd5b6001600160a01b03831660009081526005602052604090205460ff1615620010d05760405163e779249560e01b815260040160405180910390fd5b6001600160a01b038316600090815260046020526040812054908190036200110b57604051638dda39df60e01b815260040160405180910390fd5b600060036200111c6001846200263d565b815481106200112f576200112f62002653565b906000526020600020906005020190506000670de0b6b3a76400008583600201546200115c919062002a34565b62001168919062002a4e565b90508034146200118b5760405163d183fe4360e01b815260040160405180910390fd5b60065460009061271090620011a59061ffff168462002a34565b620011b1919062002a4e565b905060006001600160a01b03861615620011f45760065461271090620011e29062010000900461ffff168562002a34565b620011ee919062002a4e565b620011f7565b60005b90506000816200120884866200263d565b6200121491906200263d565b905082156200125957600080546040516001600160a01b039091169185156108fc02918691818181858888f1935050505015801562001257573d6000803e3d6000fd5b505b811562001299576040516001600160a01b0388169083156108fc029084906000818181858888f1935050505015801562001297573d6000803e3d6000fd5b505b60018501546040516001600160a01b039091169082156108fc029083906000818181858888f19350505050158015620012d6573d6000803e3d6000fd5b50620012ed6001600160a01b038a16338a62001ece565b604080518981526020810186905290810184905260608101839052608081018290526001600160a01b038089169133918c16907fa4d1d47447ad64a0c581f05071df4ce987ba94440d913925dc004a21f28f42269060a00160405180910390a45050505050506200135d60018055565b505050565b6200136c62001f22565b620009b2600062001fca565b6200138262001f22565b6001600160a01b038116600081815260056020526040808220805460ff19166001179055517f32a6dcd04455c92a601afd4a2aa0ee840ddab8a4383114e4f00ecf91324329339190a250565b620013d862001f22565b620009b26200201a565b620013ec62001f22565b62001415620014036000546001600160a01b031690565b6001600160a01b038416908362001ece565b816001600160a01b03167fe82be315ba1a0d0362d09d5cf59781f214b53a74eb978c35b76ad687099c670c826040516200145191815260200190565b60405180910390a25050565b6001600160a01b038116600090815260046020526040812054808203620014985760405162461bcd60e51b81526004016200022c9062002669565b6003620014a76001836200263d565b81548110620014ba57620014ba62002653565b906000526020600020906005020160020154915050919050565b600060608060608060008060038054905088106200152b5760405162461bcd60e51b8152602060048201526013602482015272496e646578206f7574206f6620626f756e647360681b60448201526064016200022c565b60006003898154811062001543576200154362002653565b6000918252602082206005909102018054604080516306fdde0360e01b815290516001600160a01b039092169b509193508a926306fdde0392600480820193918290030181865afa1580156200159d573d6000803e3d6000fd5b505050506040513d6000823e601f3d908101601f19168201604052620015c7919081019062002a71565b9650876001600160a01b03166395d89b416040518163ffffffff1660e01b8152600401600060405180830381865afa15801562001608573d6000803e3d6000fd5b505050506040513d6000823e601f3d908101601f1916820160405262001632919081019062002a71565b955080600301805462001645906200285d565b80601f016020809104026020016040519081016040528092919081815260200182805462001673906200285d565b8015620016c45780601f106200169857610100808354040283529160200191620016c4565b820191906000526020600020905b815481529060010190602001808311620016a657829003601f168201915b50505050509450806004018054620016dc906200285d565b80601f01602080910402602001604051908101604052809291908181526020018280546200170a906200285d565b80156200175b5780601f106200172f576101008083540402835291602001916200175b565b820191906000526020600020905b8154815290600101906020018083116200173d57829003601f168201915b50505060028401546001909401549a9c999b509799969891975091956001600160a01b0316945092505050565b6003546060906000805b828110156200180357846001600160a01b031660038281548110620017bb57620017bb62002653565b60009182526020909120600160059092020101546001600160a01b031603620017ee5781620017ea8162002899565b9250505b80620017fa8162002899565b91505062001792565b5060008167ffffffffffffffff8111156200182257620018226200269c565b6040519080825280602002602001820160405280156200185f57816020015b6200184b620020fa565b815260200190600190039081620018415790505b5090506000805b8481101562001a8a57866001600160a01b0316600382815481106200188f576200188f62002653565b60009182526020909120600160059092020101546001600160a01b03160362001a755760038181548110620018c857620018c862002653565b60009182526020918290206040805160a081018252600590930290910180546001600160a01b0390811684526001820154169383019390935260028301549082015260038201805491929160608401919062001924906200285d565b80601f016020809104026020016040519081016040528092919081815260200182805462001952906200285d565b8015620019a35780601f106200197757610100808354040283529160200191620019a3565b820191906000526020600020905b8154815290600101906020018083116200198557829003601f168201915b50505050508152602001600482018054620019be906200285d565b80601f0160208091040260200160405190810160405280929190818152602001828054620019ec906200285d565b801562001a3d5780601f1062001a115761010080835404028352916020019162001a3d565b820191906000526020600020905b81548152906001019060200180831162001a1f57829003601f168201915b50505050508152505083838062001a549062002899565b94508151811062001a695762001a6962002653565b60200260200101819052505b8062001a818162002899565b91505062001866565b509095945050505050565b600062001aa162001ea3565b62001aab62001fa5565b8360000362001acd57604051637294708f60e11b815260040160405180910390fd5b60008b8b8b8b8933898960405162001ae5906200213b565b62001af898979695949392919062002ab2565b604051809103906000f08015801562001b15573d6000803e3d6000fd5b50905080915060036040518060a00160405280846001600160a01b03168152602001336001600160a01b031681526020018781526020018a8a8080601f016020809104026020016040519081016040528093929190818152602001838380828437600092019190915250505090825250604080516020601f8901819004810282018101909252878152918101919088908890819084018382808284376000920182905250939094525050835460018082018655948252602091829020845160059092020180546001600160a01b03199081166001600160a01b039384161782559285015195810180549093169590911694909417905550604081015160028301556060810151909190600382019062001c2f908262002b19565b506080820151600482019062001c46908262002b19565b50506003546001600160a01b038416600081815260046020526040908190209290925590513392507f75c1f35492cd2bcb2820d5ff2434b9dc6d19432975f20761140109f0844a7b8a9062001ca59089908d908d908b908b9062002be6565b60405180910390a35062001cb860018055565b9a9950505050505050505050565b62001cd062001f22565b8047101562001d155760405162461bcd60e51b815260206004820152601060248201526f092dce6eaccccd2c6d2cadce8408aa8960831b60448201526064016200022c565b600080546040516001600160a01b039091169183156108fc02918491818181858888f1935050505015801562001d4f573d6000803e3d6000fd5b506000546001600160a01b03166001600160a01b03167fb3579861130e4da8bb7b87c54d2d139937f23bcd6e4ebed9e75d0f78ab1cc1188260405162001d9791815260200190565b60405180910390a250565b62001dac62001f22565b6001600160a01b03811662001dd857604051631e4fbdf760e01b8152600060048201526024016200022c565b62001de38162001fca565b50565b62001df062001f22565b61271062001dff828462002c17565b61ffff161062001e425760405162461bcd60e51b815260206004820152600d60248201526c08ccacae640e8dede40d0d2ced609b1b60448201526064016200022c565b6006805461ffff84811663ffffffff19909216821762010000918516918202179092556040805191825260208201929092527f2ac80c14c28700f7b5e36f947d572149fe2e3947bac32c3a8c098f3e03722c11910160405180910390a15050565b60026001540362001ec757604051633ee5aeb560e01b815260040160405180910390fd5b6002600155565b604080516001600160a01b038416602482015260448082018490528251808303909101815260649091019091526020810180516001600160e01b031663a9059cbb60e01b1790526200135d9084906200205a565b6000546001600160a01b03163314620009b25760405163118cdaa760e01b81523360048201526024016200022c565b62001f5b620020d6565b6002805460ff191690557f5db9ee0a495bf2e6ff9c91a7834c1ba4fdd244a5e8aa4e537bd38aeae4b073aa335b6040516001600160a01b03909116815260200160405180910390a1565b60025460ff1615620009b25760405163d93c066560e01b815260040160405180910390fd5b600080546001600160a01b038381166001600160a01b0319831681178455604051919092169283917f8be0079c531659141344cd1fd0a4f28419497f9722a3daafe3b4186f6b6457e09190a35050565b6200202462001fa5565b6002805460ff191660011790557f62e78cea01bee320cd4e420270b5ea74000d11b0c9f74754ebdbfc544b05a25862001f883390565b600080602060008451602086016000885af1806200207e576040513d6000823e3d81fd5b50506000513d9150811562002098578060011415620020a5565b6001600160a01b0384163b155b15620020d057604051635274afe760e01b81526001600160a01b03851660048201526024016200022c565b50505050565b60025460ff16620009b257604051638dfc202b60e01b815260040160405180910390fd5b6040518060a0016040528060006001600160a01b0316815260200160006001600160a01b031681526020016000815260200160608152602001606081525090565b611a508062002c3d83390190565b6001600160a01b038116811462001de357600080fd5b600080604083850312156200217357600080fd5b8235620021808162002149565b946020939093013593505050565b600060208284031215620021a157600080fd5b8135620010588162002149565b60005b83811015620021cb578181015183820152602001620021b1565b50506000910152565b60008151808452620021ee816020860160208601620021ae565b601f01601f19169290920160200192915050565b600060018060a01b03808a16835260e060208401526200222660e084018a620021d4565b83810360408501526200223a818a620021d4565b90508381036060850152620022508189620021d4565b90508381036080850152620022668188620021d4565b60a0850196909652509290921660c0909101525095945050505050565b600080604083850312156200229757600080fd5b50508035926020909101359150565b60006020808301818452808551808352604092508286019150828160051b87010184880160005b838110156200235457888303603f19018552815180516001600160a01b039081168552888201511688850152868101518785015260608082015160a082870181905291906200231f83880182620021d4565b92505050608080830151925085820381870152506200233f8183620021d4565b968901969450505090860190600101620022cd565b509098975050505050505050565b60008083601f8401126200237557600080fd5b50813567ffffffffffffffff8111156200238e57600080fd5b602083019150836020828501011115620023a757600080fd5b9250929050565b600080600080600060608688031215620023c757600080fd5b8535620023d48162002149565b9450602086013567ffffffffffffffff80821115620023f257600080fd5b6200240089838a0162002362565b909650945060408801359150808211156200241a57600080fd5b50620024298882890162002362565b969995985093965092949392505050565b6000602082840312156200244d57600080fd5b5035919050565b6001600160a01b038681168252851660208201526040810184905260a0606082018190526000906200248990830185620021d4565b82810360808401526200249d8185620021d4565b98975050505050505050565b600080600060608486031215620024bf57600080fd5b8335620024cc8162002149565b9250602084013591506040840135620024e58162002149565b809150509250925092565b60008060008060008060008060008060c08b8d0312156200251057600080fd5b8a3567ffffffffffffffff808211156200252957600080fd5b620025378e838f0162002362565b909c509a5060208d01359150808211156200255157600080fd5b6200255f8e838f0162002362565b909a50985060408d01359150808211156200257957600080fd5b620025878e838f0162002362565b909850965060608d0135955060808d0135945060a08d0135915080821115620025af57600080fd5b50620025be8d828e0162002362565b915080935050809150509295989b9194979a5092959850565b803561ffff81168114620025ea57600080fd5b919050565b600080604083850312156200260357600080fd5b6200260e83620025d7565b91506200261e60208401620025d7565b90509250929050565b634e487b7160e01b600052601160045260246000fd5b8181038181111562000945576200094562002627565b634e487b7160e01b600052603260045260246000fd5b6020808252600c908201526b139bdd081b185d5b98da195960a21b604082015260600190565b8051620025ea8162002149565b634e487b7160e01b600052604160045260246000fd5b600082601f830112620026c457600080fd5b815167ffffffffffffffff80821115620026e257620026e26200269c565b604051601f8301601f19908116603f011681019082821181831017156200270d576200270d6200269c565b816040528381528660208588010111156200272757600080fd5b6200273a846020830160208901620021ae565b9695505050505050565b600080600080600080600060e0888a0312156200276057600080fd5b6200276b886200268f565b9650602088015167ffffffffffffffff808211156200278957600080fd5b620027978b838c01620026b2565b975060408a0151915080821115620027ae57600080fd5b620027bc8b838c01620026b2565b965060608a0151915080821115620027d357600080fd5b620027e18b838c01620026b2565b955060808a0151915080821115620027f857600080fd5b50620028078a828b01620026b2565b93505060a088015191506200281f60c089016200268f565b905092959891949750929550565b6000602082840312156200284057600080fd5b5051919050565b8082018082111562000945576200094562002627565b600181811c908216806200287257607f821691505b6020821081036200289357634e487b7160e01b600052602260045260246000fd5b50919050565b600060018201620028ae57620028ae62002627565b5060010190565b601f8211156200135d57600081815260208120601f850160051c81016020861015620028de5750805b601f850160051c820191505b81811015620028ff57828155600101620028ea565b505050505050565b67ffffffffffffffff8311156200292257620029226200269c565b6200293a836200293383546200285d565b83620028b5565b6000601f841160018114620029715760008515620029585750838201355b600019600387901b1c1916600186901b178355620029ce565b600083815260209020601f19861690835b82811015620029a4578685013582556020948501946001909201910162002982565b5086821015620029c25760001960f88860031b161c19848701351681555b505060018560011b0183555b5050505050565b81835281816020850137506000828201602090810191909152601f909101601f19169091010190565b60408152600062002a14604083018688620029d5565b828103602084015262002a29818587620029d5565b979650505050505050565b808202811582820484141762000945576200094562002627565b60008262002a6c57634e487b7160e01b600052601260045260246000fd5b500490565b60006020828403121562002a8457600080fd5b815167ffffffffffffffff81111562002a9c57600080fd5b62002aaa84828501620026b2565b949350505050565b60a08152600062002ac860a083018a8c620029d5565b828103602084015262002add81898b620029d5565b604084018890526001600160a01b03871660608501528381036080850152905062002b0a818587620029d5565b9b9a5050505050505050505050565b815167ffffffffffffffff81111562002b365762002b366200269c565b62002b4e8162002b4784546200285d565b84620028b5565b602080601f83116001811462002b86576000841562002b6d5750858301515b600019600386901b1c1916600185901b178555620028ff565b600085815260208120601f198616915b8281101562002bb75788860151825594840194600190910190840162002b96565b508582101562002bd65787850151600019600388901b60f8161c191681555b5050505050600190811b01905550565b85815260606020820152600062002c02606083018688620029d5565b82810360408401526200249d818587620029d5565b61ffff81811683821601908082111562002c355762002c3562002627565b509291505056fe6101606040523480156200001257600080fd5b5060405162001a5038038062001a50833981016040819052620000359162000598565b338580604051806040016040528060018152602001603160f81b81525088888160039081620000659190620006e4565b506004620000748282620006e4565b50620000869150839050600562000217565b610120526200009781600662000217565b61014052815160208084019190912060e052815190820120610100524660a0526200012560e05161010051604080517f8b73c3c69bb8fe3d512ecc4cf759cc79239f7b179b0ffacaa9a75d522b39400f60208201529081019290925260608201524660808201523060a082015260009060c00160405160208183030381529060405280519060200120905090565b60805250503060c052506001600160a01b0381166200015f57604051631e4fbdf760e01b8152600060048201526024015b60405180910390fd5b6200016a8162000250565b506001600160a01b038216620001935760405163d92e233d60e01b815260040160405180910390fd5b600385511080620001a5575060038451105b15620001c457604051639432241960e01b815260040160405180910390fd5b82600003620001e65760405163c16f3a9360e01b815260040160405180910390fd5b6009620001f48282620006e4565b50620002013384620002a2565b6200020c82620002e0565b50505050506200082c565b600060208351101562000237576200022f8362000324565b90506200024a565b81620002448482620006e4565b5060ff90505b92915050565b600880546001600160a01b038381166001600160a01b0319831681179093556040519116919082907f8be0079c531659141344cd1fd0a4f28419497f9722a3daafe3b4186f6b6457e090600090a35050565b6001600160a01b038216620002ce5760405163ec442f0560e01b81526000600482015260240162000156565b620002dc6000838362000367565b5050565b620002ea6200049a565b6001600160a01b0381166200031657604051631e4fbdf760e01b81526000600482015260240162000156565b620003218162000250565b50565b600080829050601f8151111562000352578260405163305a27a960e01b8152600401620001569190620007b0565b80516200035f82620007e5565b179392505050565b6001600160a01b038316620003965780600260008282546200038a91906200080a565b909155506200040a9050565b6001600160a01b03831660009081526020819052604090205481811015620003eb5760405163391434e360e21b81526001600160a01b0385166004820152602481018290526044810183905260640162000156565b6001600160a01b03841660009081526020819052604090209082900390555b6001600160a01b038216620004285760028054829003905562000447565b6001600160a01b03821660009081526020819052604090208054820190555b816001600160a01b0316836001600160a01b03167fddf252ad1be2c89b69c2b068fc378daa952ba7f163c4a11628f55a4df523b3ef836040516200048d91815260200190565b60405180910390a3505050565b6008546001600160a01b03163314620004c95760405163118cdaa760e01b815233600482015260240162000156565b565b634e487b7160e01b600052604160045260246000fd5b60005b83811015620004fe578181015183820152602001620004e4565b50506000910152565b600082601f8301126200051957600080fd5b81516001600160401b0380821115620005365762000536620004cb565b604051601f8301601f19908116603f01168101908282118183101715620005615762000561620004cb565b816040528381528660208588010111156200057b57600080fd5b6200058e846020830160208901620004e1565b9695505050505050565b600080600080600060a08688031215620005b157600080fd5b85516001600160401b0380821115620005c957600080fd5b620005d789838a0162000507565b96506020880151915080821115620005ee57600080fd5b620005fc89838a0162000507565b604089015160608a0151919750955091506001600160a01b03821682146200062357600080fd5b6080880151919350808211156200063957600080fd5b50620006488882890162000507565b9150509295509295909350565b600181811c908216806200066a57607f821691505b6020821081036200068b57634e487b7160e01b600052602260045260246000fd5b50919050565b601f821115620006df57600081815260208120601f850160051c81016020861015620006ba5750805b601f850160051c820191505b81811015620006db57828155600101620006c6565b5050505b505050565b81516001600160401b03811115620007005762000700620004cb565b620007188162000711845462000655565b8462000691565b602080601f831160018114620007505760008415620007375750858301515b600019600386901b1c1916600185901b178555620006db565b600085815260208120601f198616915b82811015620007815788860151825594840194600190910190840162000760565b5085821015620007a05787850151600019600388901b60f8161c191681555b5050505050600190811b01905550565b6020815260008251806020840152620007d1816040850160208701620004e1565b601f01601f19169190910160400192915050565b805160208083015191908110156200068b5760001960209190910360031b1b16919050565b808201808211156200024a57634e487b7160e01b600052601160045260246000fd5b60805160a05160c05160e0516101005161012051610140516111c9620008876000396000610913015260006108e60152600061080f015260006107e7015260006107420152600061076c0152600061079601526111c96000f3fe608060405234801561001057600080fd5b50600436106101165760003560e01c80637ecebe00116100a2578063a9059cbb11610071578063a9059cbb14610224578063c623674f14610237578063d505accf1461023f578063dd62ed3e14610252578063f2fde38b1461028b57600080fd5b80637ecebe00146101d357806384b0196e146101e65780638da5cb5b1461020157806395d89b411461021c57600080fd5b8063313ce567116100e9578063313ce567146101815780633644e515146101905780633c130d901461019857806370a08231146101a0578063715018a6146101c957600080fd5b806306fdde031461011b578063095ea7b31461013957806318160ddd1461015c57806323b872dd1461016e575b600080fd5b61012361029e565b6040516101309190610e77565b60405180910390f35b61014c610147366004610ead565b610330565b6040519015158152602001610130565b6002545b604051908152602001610130565b61014c61017c366004610ed7565b61034a565b60405160128152602001610130565b61016061036e565b61012361037d565b6101606101ae366004610f13565b6001600160a01b031660009081526020819052604090205490565b6101d16103a5565b005b6101606101e1366004610f13565b6103b9565b6101ee6103d7565b6040516101309796959493929190610f2e565b6008546040516001600160a01b039091168152602001610130565b61012361041d565b61014c610232366004610ead565b61042c565b61012361043a565b6101d161024d366004610fc4565b6104c8565b610160610260366004611037565b6001600160a01b03918216600090815260016020908152604080832093909416825291909152205490565b6101d1610299366004610f13565b610607565b6060600380546102ad9061106a565b80601f01602080910402602001604051908101604052809291908181526020018280546102d99061106a565b80156103265780601f106102fb57610100808354040283529160200191610326565b820191906000526020600020905b81548152906001019060200180831161030957829003601f168201915b5050505050905090565b60003361033e818585610645565b60019150505b92915050565b600033610358858285610657565b6103638585856106d6565b506001949350505050565b6000610378610735565b905090565b6060600960405160200161039191906110a4565b604051602081830303815290604052905090565b6103ad610860565b6103b7600061088d565b565b6001600160a01b038116600090815260076020526040812054610344565b6000606080600080600060606103eb6108df565b6103f361090c565b60408051600080825260208201909252600f60f81b9b939a50919850469750309650945092509050565b6060600480546102ad9061106a565b60003361033e8185856106d6565b600980546104479061106a565b80601f01602080910402602001604051908101604052809291908181526020018280546104739061106a565b80156104c05780601f10610495576101008083540402835291602001916104c0565b820191906000526020600020905b8154815290600101906020018083116104a357829003601f168201915b505050505081565b834211156104f15760405163313c898160e11b8152600481018590526024015b60405180910390fd5b60007f6e71edae12b1b97f4d1f60370fef10105fa2faae0126114a169c64845d6126c988888861053e8c6001600160a01b0316600090815260076020526040902080546001810190915590565b6040805160208101969096526001600160a01b0394851690860152929091166060840152608083015260a082015260c0810186905260e001604051602081830303815290604052805190602001209050600061059982610939565b905060006105a982878787610966565b9050896001600160a01b0316816001600160a01b0316146105f0576040516325c0072360e11b81526001600160a01b0380831660048301528b1660248201526044016104e8565b6105fb8a8a8a610645565b50505050505050505050565b61060f610860565b6001600160a01b03811661063957604051631e4fbdf760e01b8152600060048201526024016104e8565b6106428161088d565b50565b6106528383836001610994565b505050565b6001600160a01b038381166000908152600160209081526040808320938616835292905220546000198110156106d057818110156106c157604051637dc7a0d960e11b81526001600160a01b038416600482015260248101829052604481018390526064016104e8565b6106d084848484036000610994565b50505050565b6001600160a01b03831661070057604051634b637e8f60e11b8152600060048201526024016104e8565b6001600160a01b03821661072a5760405163ec442f0560e01b8152600060048201526024016104e8565b610652838383610a69565b6000306001600160a01b037f00000000000000000000000000000000000000000000000000000000000000001614801561078e57507f000000000000000000000000000000000000000000000000000000000000000046145b156107b857507f000000000000000000000000000000000000000000000000000000000000000090565b610378604080517f8b73c3c69bb8fe3d512ecc4cf759cc79239f7b179b0ffacaa9a75d522b39400f60208201527f0000000000000000000000000000000000000000000000000000000000000000918101919091527f000000000000000000000000000000000000000000000000000000000000000060608201524660808201523060a082015260009060c00160405160208183030381529060405280519060200120905090565b6008546001600160a01b031633146103b75760405163118cdaa760e01b81523360048201526024016104e8565b600880546001600160a01b038381166001600160a01b0319831681179093556040519116919082907f8be0079c531659141344cd1fd0a4f28419497f9722a3daafe3b4186f6b6457e090600090a35050565b60606103787f00000000000000000000000000000000000000000000000000000000000000006005610b93565b60606103787f00000000000000000000000000000000000000000000000000000000000000006006610b93565b6000610344610946610735565b8360405161190160f01b8152600281019290925260228201526042902090565b60008060008061097888888888610c3e565b9250925092506109888282610d0d565b50909695505050505050565b6001600160a01b0384166109be5760405163e602df0560e01b8152600060048201526024016104e8565b6001600160a01b0383166109e857604051634a1406b160e11b8152600060048201526024016104e8565b6001600160a01b03808516600090815260016020908152604080832093871683529290522082905580156106d057826001600160a01b0316846001600160a01b03167f8c5be1e5ebec7d5bd14f71427d1e84f3dd0314c0f7b2291e5b200ac8c7c3b92584604051610a5b91815260200190565b60405180910390a350505050565b6001600160a01b038316610a94578060026000828254610a89919061115c565b90915550610b069050565b6001600160a01b03831660009081526020819052604090205481811015610ae75760405163391434e360e21b81526001600160a01b038516600482015260248101829052604481018390526064016104e8565b6001600160a01b03841660009081526020819052604090209082900390555b6001600160a01b038216610b2257600280548290039055610b41565b6001600160a01b03821660009081526020819052604090208054820190555b816001600160a01b0316836001600160a01b03167fddf252ad1be2c89b69c2b068fc378daa952ba7f163c4a11628f55a4df523b3ef83604051610b8691815260200190565b60405180910390a3505050565b606060ff8314610bad57610ba683610dca565b9050610344565b818054610bb99061106a565b80601f0160208091040260200160405190810160405280929190818152602001828054610be59061106a565b8015610c325780601f10610c0757610100808354040283529160200191610c32565b820191906000526020600020905b815481529060010190602001808311610c1557829003601f168201915b50505050509050610344565b600080807f7fffffffffffffffffffffffffffffff5d576e7357a4501ddfe92f46681b20a0841115610c795750600091506003905082610d03565b604080516000808252602082018084528a905260ff891692820192909252606081018790526080810186905260019060a0016020604051602081039080840390855afa158015610ccd573d6000803e3d6000fd5b5050604051601f1901519150506001600160a01b038116610cf957506000925060019150829050610d03565b9250600091508190505b9450945094915050565b6000826003811115610d2157610d2161117d565b03610d2a575050565b6001826003811115610d3e57610d3e61117d565b03610d5c5760405163f645eedf60e01b815260040160405180910390fd5b6002826003811115610d7057610d7061117d565b03610d915760405163fce698f760e01b8152600481018290526024016104e8565b6003826003811115610da557610da561117d565b03610dc6576040516335e2f38360e21b8152600481018290526024016104e8565b5050565b60606000610dd783610e09565b604080516020808252818301909252919250600091906020820181803683375050509182525060208101929092525090565b600060ff8216601f81111561034457604051632cd44ac360e21b815260040160405180910390fd5b6000815180845260005b81811015610e5757602081850181015186830182015201610e3b565b506000602082860101526020601f19601f83011685010191505092915050565b602081526000610e8a6020830184610e31565b9392505050565b80356001600160a01b0381168114610ea857600080fd5b919050565b60008060408385031215610ec057600080fd5b610ec983610e91565b946020939093013593505050565b600080600060608486031215610eec57600080fd5b610ef584610e91565b9250610f0360208501610e91565b9150604084013590509250925092565b600060208284031215610f2557600080fd5b610e8a82610e91565b60ff60f81b881681526000602060e081840152610f4e60e084018a610e31565b8381036040850152610f60818a610e31565b606085018990526001600160a01b038816608086015260a0850187905284810360c0860152855180825283870192509083019060005b81811015610fb257835183529284019291840191600101610f96565b50909c9b505050505050505050505050565b600080600080600080600060e0888a031215610fdf57600080fd5b610fe888610e91565b9650610ff660208901610e91565b95506040880135945060608801359350608088013560ff8116811461101a57600080fd5b9699959850939692959460a0840135945060c09093013592915050565b6000806040838503121561104a57600080fd5b61105383610e91565b915061106160208401610e91565b90509250929050565b600181811c9082168061107e57607f821691505b60208210810361109e57634e487b7160e01b600052602260045260246000fd5b50919050565b66697066733a2f2f60c81b8152600060076000845481600182811c9150808316806110d057607f831692505b602080841082036110ef57634e487b7160e01b86526022600452602486fd5b818015611103576001811461111c5761114d565b60ff1986168a89015284151585028a018801965061114d565b60008b81526020902060005b868110156111435781548c82018b0152908501908301611128565b505087858b010196505b50949998505050505050505050565b8082018082111561034457634e487b7160e01b600052601160045260246000fd5b634e487b7160e01b600052602160045260246000fdfea2646970667358221220360c70b11b00375decee0665a1206bf9cff285381b8d2f9f357b6d3790e9562164736f6c63430008140033a2646970667358221220230b73b969e8ff00a5ec063235bd7a427c8ddc948bb2da718383f0ef1a822f3d64736f6c63430008140033","opcodes":"PUSH1 0x80 PUSH1 0x40 MSTORE CALLVALUE DUP1 ISZERO PUSH3 0x11 JUMPI PUSH1 0x0 DUP1 REVERT JUMPDEST POP PUSH1 0x40 MLOAD PUSH3 0x488D CODESIZE SUB DUP1 PUSH3 0x488D DUP4 CODECOPY DUP2 ADD PUSH1 0x40 DUP2 SWAP1 MSTORE PUSH3 0x34 SWAP2 PUSH3 0x152 JUMP JUMPDEST CALLER DUP1 PUSH3 0x5C JUMPI PUSH1 0x40 MLOAD PUSH4 0x1E4FBDF7 PUSH1 0xE0 SHL DUP2 MSTORE PUSH1 0x0 PUSH1 0x4 DUP3 ADD MSTORE PUSH1 0x24 ADD JUMPDEST PUSH1 0x40 MLOAD DUP1 SWAP2 SUB SWAP1 REVERT JUMPDEST PUSH3 0x67 DUP2 PUSH3 0xEA JUMP JUMPDEST POP PUSH1 0x1 DUP1 SSTORE PUSH2 0x2710 PUSH3 0x7B DUP3 DUP5 PUSH3 0x18A JUMP JUMPDEST PUSH2 0xFFFF AND LT PUSH3 0xBE JUMPI PUSH1 0x40 MLOAD PUSH3 0x461BCD PUSH1 0xE5 SHL DUP2 MSTORE PUSH1 0x20 PUSH1 0x4 DUP3 ADD MSTORE PUSH1 0xD PUSH1 0x24 DUP3 ADD MSTORE PUSH13 0x8CCACAE640E8DEDE40D0D2CED PUSH1 0x9B SHL PUSH1 0x44 DUP3 ADD MSTORE PUSH1 0x64 ADD PUSH3 0x53 JUMP JUMPDEST PUSH1 0x6 DUP1 SLOAD PUSH2 0xFFFF SWAP3 DUP4 AND PUSH3 0x10000 MUL PUSH4 0xFFFFFFFF NOT SWAP1 SWAP2 AND SWAP3 SWAP1 SWAP4 AND SWAP2 SWAP1 SWAP2 OR SWAP2 SWAP1 SWAP2 OR SWAP1 SSTORE PUSH3 0x1BB JUMP JUMPDEST PUSH1 0x0 DUP1 SLOAD PUSH1 0x1 PUSH1 0x1 PUSH1 0xA0 SHL SUB DUP4 DUP2 AND PUSH1 0x1 PUSH1 0x1 PUSH1 0xA0 SHL SUB NOT DUP4 AND DUP2 OR DUP5 SSTORE PUSH1 0x40 MLOAD SWAP2 SWAP1 SWAP3 AND SWAP3 DUP4 SWAP2 PUSH32 0x8BE0079C531659141344CD1FD0A4F28419497F9722A3DAAFE3B4186F6B6457E0 SWAP2 SWAP1 LOG3 POP POP JUMP JUMPDEST DUP1 MLOAD PUSH2 0xFFFF DUP2 AND DUP2 EQ PUSH3 0x14D JUMPI PUSH1 0x0 DUP1 REVERT JUMPDEST SWAP2 SWAP1 POP JUMP JUMPDEST PUSH1 0x0 DUP1 PUSH1 0x40 DUP4 DUP6 SUB SLT ISZERO PUSH3 0x166 JUMPI PUSH1 0x0 DUP1 REVERT JUMPDEST PUSH3 0x171 DUP4 PUSH3 0x13A JUMP JUMPDEST SWAP2 POP PUSH3 0x181 PUSH1 0x20 DUP5 ADD PUSH3 0x13A JUMP JUMPDEST SWAP1 POP SWAP3 POP SWAP3 SWAP1 POP JUMP JUMPDEST PUSH2 0xFFFF DUP2 DUP2 AND DUP4 DUP3 AND ADD SWAP1 DUP1 DUP3 GT ISZERO PUSH3 0x1B4 JUMPI PUSH4 0x4E487B71 PUSH1 0xE0 SHL PUSH1 0x0 MSTORE PUSH1 0x11 PUSH1 0x4 MSTORE PUSH1 0x24 PUSH1 0x0 REVERT JUMPDEST POP SWAP3 SWAP2 POP POP JUMP JUMPDEST PUSH2 0x46C2 DUP1 PUSH3 0x1CB PUSH1 0x0 CODECOPY PUSH1 0x0 RETURN INVALID PUSH1 0x80 PUSH1 0x40 MSTORE PUSH1 0x4 CALLDATASIZE LT PUSH3 0x1F3 JUMPI PUSH1 0x0 CALLDATALOAD PUSH1 0xE0 SHR DUP1 PUSH4 0x7C41AD2C GT PUSH3 0x10F JUMPI DUP1 PUSH4 0xC1E03728 GT PUSH3 0xA3 JUMPI DUP1 PUSH4 0xF14210A6 GT PUSH3 0x6D JUMPI DUP1 PUSH4 0xF14210A6 EQ PUSH3 0x655 JUMPI DUP1 PUSH4 0xF2FDE38B EQ PUSH3 0x67A JUMPI DUP1 PUSH4 0xF3D2350E EQ PUSH3 0x69F JUMPI DUP1 PUSH4 0xFF96092A EQ PUSH3 0x6C4 JUMPI PUSH3 0x235 JUMP JUMPDEST DUP1 PUSH4 0xC1E03728 EQ PUSH3 0x5AF JUMPI DUP1 PUSH4 0xD5C71275 EQ PUSH3 0x5D4 JUMPI DUP1 PUSH4 0xD634B419 EQ PUSH3 0x5F9 JUMPI DUP1 PUSH4 0xDC4EC9BE EQ PUSH3 0x61E JUMPI PUSH3 0x235 JUMP JUMPDEST DUP1 PUSH4 0x8995881D GT PUSH3 0xE5 JUMPI DUP1 PUSH4 0x8995881D EQ PUSH3 0x4FD JUMPI DUP1 PUSH4 0x8CD4426D EQ PUSH3 0x531 JUMPI DUP1 PUSH4 0x8DA5CB5B EQ PUSH3 0x556 JUMPI DUP1 PUSH4 0xB95ED06F EQ PUSH3 0x58A JUMPI PUSH3 0x235 JUMP JUMPDEST DUP1 PUSH4 0x7C41AD2C EQ PUSH3 0x4A9 JUMPI DUP1 PUSH4 0x7E1C0C09 EQ PUSH3 0x4CE JUMPI DUP1 PUSH4 0x8456CB59 EQ PUSH3 0x4E5 JUMPI PUSH3 0x235 JUMP JUMPDEST DUP1 PUSH4 0x494CFC6C GT PUSH3 0x187 JUMPI DUP1 PUSH4 0x634282AF GT PUSH3 0x15D JUMPI DUP1 PUSH4 0x634282AF EQ PUSH3 0x41D JUMPI DUP1 PUSH4 0x66C0BD24 EQ PUSH3 0x455 JUMPI DUP1 PUSH4 0x692BF4A8 EQ PUSH3 0x47A JUMPI DUP1 PUSH4 0x715018A6 EQ PUSH3 0x491 JUMPI PUSH3 0x235 JUMP JUMPDEST DUP1 PUSH4 0x494CFC6C EQ PUSH3 0x39E JUMPI DUP1 PUSH4 0x5C975ABB EQ PUSH3 0x3D2 JUMPI DUP1 PUSH4 0x5E62BF94 EQ PUSH3 0x3F8 JUMPI PUSH3 0x235 JUMP JUMPDEST DUP1 PUSH4 0x35A62E68 GT PUSH3 0x1C9 JUMPI DUP1 PUSH4 0x35A62E68 EQ PUSH3 0x30B JUMPI DUP1 PUSH4 0x3B3BFF0F EQ PUSH3 0x33C JUMPI DUP1 PUSH4 0x3F4BA83A EQ PUSH3 0x361 JUMPI DUP1 PUSH4 0x457972DE EQ PUSH3 0x379 JUMPI PUSH3 0x235 JUMP JUMPDEST DUP1 PUSH4 0xE3F0CFC EQ PUSH3 0x26D JUMPI DUP1 PUSH4 0x3338C5B6 EQ PUSH3 0x294 JUMPI DUP1 PUSH4 0x33F3F078 EQ PUSH3 0x2D7 JUMPI PUSH3 0x235 JUMP JUMPDEST CALLDATASIZE PUSH3 0x235 JUMPI PUSH1 0x40 MLOAD PUSH3 0x461BCD PUSH1 0xE5 SHL DUP2 MSTORE PUSH1 0x20 PUSH1 0x4 DUP3 ADD MSTORE PUSH1 0xC PUSH1 0x24 DUP3 ADD MSTORE PUSH12 0x2AB9B290313ABCAA37B5B2B7 PUSH1 0xA1 SHL PUSH1 0x44 DUP3 ADD MSTORE PUSH1 0x64 ADD JUMPDEST PUSH1 0x40 MLOAD DUP1 SWAP2 SUB SWAP1 REVERT JUMPDEST PUSH1 0x40 MLOAD PUSH3 0x461BCD PUSH1 0xE5 SHL DUP2 MSTORE PUSH1 0x20 PUSH1 0x4 DUP3 ADD MSTORE PUSH1 0xC PUSH1 0x24 DUP3 ADD MSTORE PUSH12 0x2AB9B290313ABCAA37B5B2B7 PUSH1 0xA1 SHL PUSH1 0x44 DUP3 ADD MSTORE PUSH1 0x64 ADD PUSH3 0x22C JUMP JUMPDEST CALLVALUE DUP1 ISZERO PUSH3 0x27A JUMPI PUSH1 0x0 DUP1 REVERT JUMPDEST POP PUSH3 0x292 PUSH3 0x28C CALLDATASIZE PUSH1 0x4 PUSH3 0x215F JUMP JUMPDEST PUSH3 0x6E1 JUMP JUMPDEST STOP JUMPDEST CALLVALUE DUP1 ISZERO PUSH3 0x2A1 JUMPI PUSH1 0x0 DUP1 REVERT JUMPDEST POP PUSH3 0x2B9 PUSH3 0x2B3 CALLDATASIZE PUSH1 0x4 PUSH3 0x218E JUMP JUMPDEST PUSH3 0x7FD JUMP JUMPDEST PUSH1 0x40 MLOAD PUSH3 0x2CE SWAP8 SWAP7 SWAP6 SWAP5 SWAP4 SWAP3 SWAP2 SWAP1 PUSH3 0x2202 JUMP JUMPDEST PUSH1 0x40 MLOAD DUP1 SWAP2 SUB SWAP1 RETURN JUMPDEST CALLVALUE DUP1 ISZERO PUSH3 0x2E4 JUMPI PUSH1 0x0 DUP1 REVERT JUMPDEST POP PUSH3 0x2FC PUSH3 0x2F6 CALLDATASIZE PUSH1 0x4 PUSH3 0x218E JUMP JUMPDEST PUSH3 0x8D7 JUMP JUMPDEST PUSH1 0x40 MLOAD SWAP1 DUP2 MSTORE PUSH1 0x20 ADD PUSH3 0x2CE JUMP JUMPDEST CALLVALUE DUP1 ISZERO PUSH3 0x318 JUMPI PUSH1 0x0 DUP1 REVERT JUMPDEST POP PUSH3 0x2FC PUSH3 0x32A CALLDATASIZE PUSH1 0x4 PUSH3 0x218E JUMP JUMPDEST PUSH1 0x4 PUSH1 0x20 MSTORE PUSH1 0x0 SWAP1 DUP2 MSTORE PUSH1 0x40 SWAP1 KECCAK256 SLOAD DUP2 JUMP JUMPDEST CALLVALUE DUP1 ISZERO PUSH3 0x349 JUMPI PUSH1 0x0 DUP1 REVERT JUMPDEST POP PUSH3 0x292 PUSH3 0x35B CALLDATASIZE PUSH1 0x4 PUSH3 0x218E JUMP JUMPDEST PUSH3 0x94B JUMP JUMPDEST CALLVALUE DUP1 ISZERO PUSH3 0x36E JUMPI PUSH1 0x0 DUP1 REVERT JUMPDEST POP PUSH3 0x292 PUSH3 0x99E JUMP JUMPDEST CALLVALUE DUP1 ISZERO PUSH3 0x386 JUMPI PUSH1 0x0 DUP1 REVERT JUMPDEST POP PUSH3 0x292 PUSH3 0x398 CALLDATASIZE PUSH1 0x4 PUSH3 0x215F JUMP JUMPDEST PUSH3 0x9B4 JUMP JUMPDEST CALLVALUE DUP1 ISZERO PUSH3 0x3AB JUMPI PUSH1 0x0 DUP1 REVERT JUMPDEST POP PUSH3 0x3C3 PUSH3 0x3BD CALLDATASIZE PUSH1 0x4 PUSH3 0x2283 JUMP JUMPDEST PUSH3 0xAE5 JUMP JUMPDEST PUSH1 0x40 MLOAD PUSH3 0x2CE SWAP2 SWAP1 PUSH3 0x22A6 JUMP JUMPDEST CALLVALUE DUP1 ISZERO PUSH3 0x3DF JUMPI PUSH1 0x0 DUP1 REVERT JUMPDEST POP PUSH1 0x2 SLOAD PUSH1 0xFF AND JUMPDEST PUSH1 0x40 MLOAD SWAP1 ISZERO ISZERO DUP2 MSTORE PUSH1 0x20 ADD PUSH3 0x2CE JUMP JUMPDEST CALLVALUE DUP1 ISZERO PUSH3 0x405 JUMPI PUSH1 0x0 DUP1 REVERT JUMPDEST POP PUSH3 0x292 PUSH3 0x417 CALLDATASIZE PUSH1 0x4 PUSH3 0x23AE JUMP JUMPDEST PUSH3 0xD68 JUMP JUMPDEST CALLVALUE DUP1 ISZERO PUSH3 0x42A JUMPI PUSH1 0x0 DUP1 REVERT JUMPDEST POP PUSH3 0x442 PUSH3 0x43C CALLDATASIZE PUSH1 0x4 PUSH3 0x243A JUMP JUMPDEST PUSH3 0xE9D JUMP JUMPDEST PUSH1 0x40 MLOAD PUSH3 0x2CE SWAP6 SWAP5 SWAP4 SWAP3 SWAP2 SWAP1 PUSH3 0x2454 JUMP JUMPDEST CALLVALUE DUP1 ISZERO PUSH3 0x462 JUMPI PUSH1 0x0 DUP1 REVERT JUMPDEST POP PUSH3 0x2FC PUSH3 0x474 CALLDATASIZE PUSH1 0x4 PUSH3 0x218E JUMP JUMPDEST PUSH3 0x1010 JUMP JUMPDEST PUSH3 0x292 PUSH3 0x48B CALLDATASIZE PUSH1 0x4 PUSH3 0x24A9 JUMP JUMPDEST PUSH3 0x105F JUMP JUMPDEST CALLVALUE DUP1 ISZERO PUSH3 0x49E JUMPI PUSH1 0x0 DUP1 REVERT JUMPDEST POP PUSH3 0x292 PUSH3 0x1362 JUMP JUMPDEST CALLVALUE DUP1 ISZERO PUSH3 0x4B6 JUMPI PUSH1 0x0 DUP1 REVERT JUMPDEST POP PUSH3 0x292 PUSH3 0x4C8 CALLDATASIZE PUSH1 0x4 PUSH3 0x218E JUMP JUMPDEST PUSH3 0x1378 JUMP JUMPDEST CALLVALUE DUP1 ISZERO PUSH3 0x4DB JUMPI PUSH1 0x0 DUP1 REVERT JUMPDEST POP PUSH1 0x3 SLOAD PUSH3 0x2FC JUMP JUMPDEST CALLVALUE DUP1 ISZERO PUSH3 0x4F2 JUMPI PUSH1 0x0 DUP1 REVERT JUMPDEST POP PUSH3 0x292 PUSH3 0x13CE JUMP JUMPDEST CALLVALUE DUP1 ISZERO PUSH3 0x50A JUMPI PUSH1 0x0 DUP1 REVERT JUMPDEST POP PUSH3 0x3E7 PUSH3 0x51C CALLDATASIZE PUSH1 0x4 PUSH3 0x218E JUMP JUMPDEST PUSH1 0x5 PUSH1 0x20 MSTORE PUSH1 0x0 SWAP1 DUP2 MSTORE PUSH1 0x40 SWAP1 KECCAK256 SLOAD PUSH1 0xFF AND DUP2 JUMP JUMPDEST CALLVALUE DUP1 ISZERO PUSH3 0x53E JUMPI PUSH1 0x0 DUP1 REVERT JUMPDEST POP PUSH3 0x292 PUSH3 0x550 CALLDATASIZE PUSH1 0x4 PUSH3 0x215F JUMP JUMPDEST PUSH3 0x13E2 JUMP JUMPDEST CALLVALUE DUP1 ISZERO PUSH3 0x563 JUMPI PUSH1 0x0 DUP1 REVERT JUMPDEST POP PUSH1 0x0 SLOAD PUSH1 0x1 PUSH1 0x1 PUSH1 0xA0 SHL SUB AND JUMPDEST PUSH1 0x40 MLOAD PUSH1 0x1 PUSH1 0x1 PUSH1 0xA0 SHL SUB SWAP1 SWAP2 AND DUP2 MSTORE PUSH1 0x20 ADD PUSH3 0x2CE JUMP JUMPDEST CALLVALUE DUP1 ISZERO PUSH3 0x597 JUMPI PUSH1 0x0 DUP1 REVERT JUMPDEST POP PUSH3 0x2FC PUSH3 0x5A9 CALLDATASIZE PUSH1 0x4 PUSH3 0x218E JUMP JUMPDEST PUSH3 0x145D JUMP JUMPDEST CALLVALUE DUP1 ISZERO PUSH3 0x5BC JUMPI PUSH1 0x0 DUP1 REVERT JUMPDEST POP PUSH3 0x2B9 PUSH3 0x5CE CALLDATASIZE PUSH1 0x4 PUSH3 0x243A JUMP JUMPDEST PUSH3 0x14D4 JUMP JUMPDEST CALLVALUE DUP1 ISZERO PUSH3 0x5E1 JUMPI PUSH1 0x0 DUP1 REVERT JUMPDEST POP PUSH3 0x3C3 PUSH3 0x5F3 CALLDATASIZE PUSH1 0x4 PUSH3 0x218E JUMP JUMPDEST PUSH3 0x1788 JUMP JUMPDEST CALLVALUE DUP1 ISZERO PUSH3 0x606 JUMPI PUSH1 0x0 DUP1 REVERT JUMPDEST POP PUSH3 0x571 PUSH3 0x618 CALLDATASIZE PUSH1 0x4 PUSH3 0x24F0 JUMP JUMPDEST PUSH3 0x1A95 JUMP JUMPDEST CALLVALUE DUP1 ISZERO PUSH3 0x62B JUMPI PUSH1 0x0 DUP1 REVERT JUMPDEST POP PUSH1 0x6 SLOAD PUSH3 0x641 SWAP1 PUSH3 0x10000 SWAP1 DIV PUSH2 0xFFFF AND DUP2 JUMP JUMPDEST PUSH1 0x40 MLOAD PUSH2 0xFFFF SWAP1 SWAP2 AND DUP2 MSTORE PUSH1 0x20 ADD PUSH3 0x2CE JUMP JUMPDEST CALLVALUE DUP1 ISZERO PUSH3 0x662 JUMPI PUSH1 0x0 DUP1 REVERT JUMPDEST POP PUSH3 0x292 PUSH3 0x674 CALLDATASIZE PUSH1 0x4 PUSH3 0x243A JUMP JUMPDEST PUSH3 0x1CC6 JUMP JUMPDEST CALLVALUE DUP1 ISZERO PUSH3 0x687 JUMPI PUSH1 0x0 DUP1 REVERT JUMPDEST POP PUSH3 0x292 PUSH3 0x699 CALLDATASIZE PUSH1 0x4 PUSH3 0x218E JUMP JUMPDEST PUSH3 0x1DA2 JUMP JUMPDEST CALLVALUE DUP1 ISZERO PUSH3 0x6AC JUMPI PUSH1 0x0 DUP1 REVERT JUMPDEST POP PUSH3 0x292 PUSH3 0x6BE CALLDATASIZE PUSH1 0x4 PUSH3 0x25EF JUMP JUMPDEST PUSH3 0x1DE6 JUMP JUMPDEST CALLVALUE DUP1 ISZERO PUSH3 0x6D1 JUMPI PUSH1 0x0 DUP1 REVERT JUMPDEST POP PUSH1 0x6 SLOAD PUSH3 0x641 SWAP1 PUSH2 0xFFFF AND DUP2 JUMP JUMPDEST PUSH3 0x6EB PUSH3 0x1EA3 JUMP JUMPDEST PUSH1 0x1 PUSH1 0x1 PUSH1 0xA0 SHL SUB DUP3 AND PUSH1 0x0 SWAP1 DUP2 MSTORE PUSH1 0x4 PUSH1 0x20 MSTORE PUSH1 0x40 DUP2 KECCAK256 SLOAD SWAP1 DUP2 SWAP1 SUB PUSH3 0x726 JUMPI PUSH1 0x40 MLOAD PUSH4 0x8DDA39DF PUSH1 0xE0 SHL DUP2 MSTORE PUSH1 0x4 ADD PUSH1 0x40 MLOAD DUP1 SWAP2 SUB SWAP1 REVERT JUMPDEST PUSH1 0x0 PUSH1 0x3 PUSH3 0x737 PUSH1 0x1 DUP5 PUSH3 0x263D JUMP JUMPDEST DUP2 SLOAD DUP2 LT PUSH3 0x74A JUMPI PUSH3 0x74A PUSH3 0x2653 JUMP JUMPDEST PUSH1 0x0 SWAP2 DUP3 MSTORE PUSH1 0x20 SWAP1 SWAP2 KECCAK256 PUSH1 0x5 SWAP1 SWAP2 MUL ADD PUSH1 0x1 DUP2 ADD SLOAD SWAP1 SWAP2 POP PUSH1 0x1 PUSH1 0x1 PUSH1 0xA0 SHL SUB AND CALLER EQ PUSH3 0x78B JUMPI PUSH1 0x40 MLOAD PUSH4 0xEA8E4EB5 PUSH1 0xE0 SHL DUP2 MSTORE PUSH1 0x4 ADD PUSH1 0x40 MLOAD DUP1 SWAP2 SUB SWAP1 REVERT JUMPDEST PUSH1 0x1 DUP2 ADD SLOAD PUSH3 0x7A9 SWAP1 PUSH1 0x1 PUSH1 0x1 PUSH1 0xA0 SHL SUB DUP7 DUP2 AND SWAP2 AND DUP6 PUSH3 0x1ECE JUMP JUMPDEST DUP4 PUSH1 0x1 PUSH1 0x1 PUSH1 0xA0 SHL SUB AND PUSH32 0xB42C9FECFB68F9BF84886F05B85865BE2FDA69A3EC869651D1320D8F528BE6BB DUP5 PUSH1 0x40 MLOAD PUSH3 0x7E5 SWAP2 DUP2 MSTORE PUSH1 0x20 ADD SWAP1 JUMP JUMPDEST PUSH1 0x40 MLOAD DUP1 SWAP2 SUB SWAP1 LOG2 POP POP PUSH3 0x7F9 PUSH1 0x1 DUP1 SSTORE JUMP JUMPDEST POP POP JUMP JUMPDEST PUSH1 0x1 PUSH1 0x1 PUSH1 0xA0 SHL SUB DUP2 AND PUSH1 0x0 SWAP1 DUP2 MSTORE PUSH1 0x4 PUSH1 0x20 MSTORE PUSH1 0x40 DUP2 KECCAK256 SLOAD PUSH1 0x60 SWAP1 DUP2 SWAP1 DUP2 SWAP1 DUP2 SWAP1 DUP6 SWAP1 DUP2 SWAP1 DUP1 DUP3 SUB PUSH3 0x845 JUMPI PUSH1 0x40 MLOAD PUSH3 0x461BCD PUSH1 0xE5 SHL DUP2 MSTORE PUSH1 0x4 ADD PUSH3 0x22C SWAP1 PUSH3 0x2669 JUMP JUMPDEST ADDRESS PUSH4 0xC1E03728 PUSH3 0x858 PUSH1 0x1 DUP5 PUSH3 0x263D JUMP JUMPDEST PUSH1 0x40 MLOAD DUP3 PUSH4 0xFFFFFFFF AND PUSH1 0xE0 SHL DUP2 MSTORE PUSH1 0x4 ADD PUSH3 0x877 SWAP2 DUP2 MSTORE PUSH1 0x20 ADD SWAP1 JUMP JUMPDEST PUSH1 0x0 PUSH1 0x40 MLOAD DUP1 DUP4 SUB DUP2 DUP7 GAS STATICCALL ISZERO DUP1 ISZERO PUSH3 0x895 JUMPI RETURNDATASIZE PUSH1 0x0 DUP1 RETURNDATACOPY RETURNDATASIZE PUSH1 0x0 REVERT JUMPDEST POP POP POP POP PUSH1 0x40 MLOAD RETURNDATASIZE PUSH1 0x0 DUP3 RETURNDATACOPY PUSH1 0x1F RETURNDATASIZE SWAP1 DUP2 ADD PUSH1 0x1F NOT AND DUP3 ADD PUSH1 0x40 MSTORE PUSH3 0x8BF SWAP2 SWAP1 DUP2 ADD SWAP1 PUSH3 0x2744 JUMP JUMPDEST SWAP6 SWAP16 SWAP5 SWAP15 POP SWAP3 SWAP13 POP SWAP1 SWAP11 POP SWAP9 POP SWAP7 POP SWAP1 SWAP5 POP SWAP3 POP POP POP JUMP JUMPDEST PUSH1 0x40 MLOAD PUSH4 0x70A08231 PUSH1 0xE0 SHL DUP2 MSTORE ADDRESS PUSH1 0x4 DUP3 ADD MSTORE PUSH1 0x0 SWAP1 PUSH1 0x1 PUSH1 0x1 PUSH1 0xA0 SHL SUB DUP4 AND SWAP1 PUSH4 0x70A08231 SWAP1 PUSH1 0x24 ADD PUSH1 0x20 PUSH1 0x40 MLOAD DUP1 DUP4 SUB DUP2 DUP7 GAS STATICCALL ISZERO DUP1 ISZERO PUSH3 0x91F JUMPI RETURNDATASIZE PUSH1 0x0 DUP1 RETURNDATACOPY RETURNDATASIZE PUSH1 0x0 REVERT JUMPDEST POP POP POP POP PUSH1 0x40 MLOAD RETURNDATASIZE PUSH1 0x1F NOT PUSH1 0x1F DUP3 ADD AND DUP3 ADD DUP1 PUSH1 0x40 MSTORE POP DUP2 ADD SWAP1 PUSH3 0x945 SWAP2 SWAP1 PUSH3 0x282D JUMP JUMPDEST SWAP3 SWAP2 POP POP JUMP JUMPDEST PUSH3 0x955 PUSH3 0x1F22 JUMP JUMPDEST PUSH1 0x1 PUSH1 0x1 PUSH1 0xA0 SHL SUB DUP2 AND PUSH1 0x0 DUP2 DUP2 MSTORE PUSH1 0x5 PUSH1 0x20 MSTORE PUSH1 0x40 DUP1 DUP3 KECCAK256 DUP1 SLOAD PUSH1 0xFF NOT AND SWAP1 SSTORE MLOAD PUSH32 0x7236530905F7DB97A79E0D447EDB198EFA7CC11D321386A4BC4F01C9DCAEF73D SWAP2 SWAP1 LOG2 POP JUMP JUMPDEST PUSH3 0x9A8 PUSH3 0x1F22 JUMP JUMPDEST PUSH3 0x9B2 PUSH3 0x1F51 JUMP JUMPDEST JUMP JUMPDEST PUSH3 0x9BE PUSH3 0x1FA5 JUMP JUMPDEST DUP1 PUSH1 0x0 SUB PUSH3 0x9E0 JUMPI PUSH1 0x40 MLOAD PUSH4 0x7294708F PUSH1 0xE1 SHL DUP2 MSTORE PUSH1 0x4 ADD PUSH1 0x40 MLOAD DUP1 SWAP2 SUB SWAP1 REVERT JUMPDEST PUSH1 0x1 PUSH1 0x1 PUSH1 0xA0 SHL SUB DUP3 AND PUSH1 0x0 SWAP1 DUP2 MSTORE PUSH1 0x4 PUSH1 0x20 MSTORE PUSH1 0x40 DUP2 KECCAK256 SLOAD SWAP1 DUP2 SWAP1 SUB PUSH3 0xA1B JUMPI PUSH1 0x40 MLOAD PUSH4 0x8DDA39DF PUSH1 0xE0 SHL DUP2 MSTORE PUSH1 0x4 ADD PUSH1 0x40 MLOAD DUP1 SWAP2 SUB SWAP1 REVERT JUMPDEST PUSH1 0x0 PUSH1 0x3 PUSH3 0xA2C PUSH1 0x1 DUP5 PUSH3 0x263D JUMP JUMPDEST DUP2 SLOAD DUP2 LT PUSH3 0xA3F JUMPI PUSH3 0xA3F PUSH3 0x2653 JUMP JUMPDEST PUSH1 0x0 SWAP2 DUP3 MSTORE PUSH1 0x20 SWAP1 SWAP2 KECCAK256 PUSH1 0x5 SWAP1 SWAP2 MUL ADD PUSH1 0x1 DUP2 ADD SLOAD SWAP1 SWAP2 POP PUSH1 0x1 PUSH1 0x1 PUSH1 0xA0 SHL SUB AND CALLER EQ DUP1 ISZERO SWAP1 PUSH3 0xA7B JUMPI POP PUSH1 0x0 SLOAD PUSH1 0x1 PUSH1 0x1 PUSH1 0xA0 SHL SUB AND CALLER EQ ISZERO JUMPDEST ISZERO PUSH3 0xA9A JUMPI PUSH1 0x40 MLOAD PUSH4 0xEA8E4EB5 PUSH1 0xE0 SHL DUP2 MSTORE PUSH1 0x4 ADD PUSH1 0x40 MLOAD DUP1 SWAP2 SUB SWAP1 REVERT JUMPDEST PUSH1 0x2 DUP2 ADD DUP4 SWAP1 SSTORE PUSH1 0x40 MLOAD DUP4 DUP2 MSTORE PUSH1 0x1 PUSH1 0x1 PUSH1 0xA0 SHL SUB DUP6 AND SWAP1 PUSH32 0xD86730737B142FC160892FA8A0F2DB687A92A0E294D1AD70624CF5ACEF03B84 SWAP1 PUSH1 0x20 ADD PUSH1 0x40 MLOAD DUP1 SWAP2 SUB SWAP1 LOG2 POP POP POP POP JUMP JUMPDEST PUSH1 0x3 SLOAD PUSH1 0x60 SWAP1 PUSH1 0x0 DUP2 PUSH3 0xAFA DUP6 DUP8 PUSH3 0x2847 JUMP JUMPDEST GT PUSH3 0xB12 JUMPI PUSH3 0xB0C DUP5 DUP7 PUSH3 0x2847 JUMP JUMPDEST PUSH3 0xB14 JUMP JUMPDEST DUP2 JUMPDEST SWAP1 POP PUSH3 0xB22 DUP6 DUP3 PUSH3 0x263D JUMP JUMPDEST PUSH8 0xFFFFFFFFFFFFFFFF DUP2 GT ISZERO PUSH3 0xB3D JUMPI PUSH3 0xB3D PUSH3 0x269C JUMP JUMPDEST PUSH1 0x40 MLOAD SWAP1 DUP1 DUP3 MSTORE DUP1 PUSH1 0x20 MUL PUSH1 0x20 ADD DUP3 ADD PUSH1 0x40 MSTORE DUP1 ISZERO PUSH3 0xB7A JUMPI DUP2 PUSH1 0x20 ADD JUMPDEST PUSH3 0xB66 PUSH3 0x20FA JUMP JUMPDEST DUP2 MSTORE PUSH1 0x20 ADD SWAP1 PUSH1 0x1 SWAP1 SUB SWAP1 DUP2 PUSH3 0xB5C JUMPI SWAP1 POP JUMPDEST POP SWAP3 POP DUP5 JUMPDEST DUP2 DUP2 LT ISZERO PUSH3 0xD5F JUMPI PUSH1 0x3 DUP2 DUP2 SLOAD DUP2 LT PUSH3 0xB9E JUMPI PUSH3 0xB9E PUSH3 0x2653 JUMP JUMPDEST PUSH1 0x0 SWAP2 DUP3 MSTORE PUSH1 0x20 SWAP2 DUP3 SWAP1 KECCAK256 PUSH1 0x40 DUP1 MLOAD PUSH1 0xA0 DUP2 ADD DUP3 MSTORE PUSH1 0x5 SWAP1 SWAP4 MUL SWAP1 SWAP2 ADD DUP1 SLOAD PUSH1 0x1 PUSH1 0x1 PUSH1 0xA0 SHL SUB SWAP1 DUP2 AND DUP5 MSTORE PUSH1 0x1 DUP3 ADD SLOAD AND SWAP4 DUP4 ADD SWAP4 SWAP1 SWAP4 MSTORE PUSH1 0x2 DUP4 ADD SLOAD SWAP1 DUP3 ADD MSTORE PUSH1 0x3 DUP3 ADD DUP1 SLOAD SWAP2 SWAP3 SWAP2 PUSH1 0x60 DUP5 ADD SWAP2 SWAP1 PUSH3 0xBFA SWAP1 PUSH3 0x285D JUMP JUMPDEST DUP1 PUSH1 0x1F ADD PUSH1 0x20 DUP1 SWAP2 DIV MUL PUSH1 0x20 ADD PUSH1 0x40 MLOAD SWAP1 DUP2 ADD PUSH1 0x40 MSTORE DUP1 SWAP3 SWAP2 SWAP1 DUP2 DUP2 MSTORE PUSH1 0x20 ADD DUP3 DUP1 SLOAD PUSH3 0xC28 SWAP1 PUSH3 0x285D JUMP JUMPDEST DUP1 ISZERO PUSH3 0xC79 JUMPI DUP1 PUSH1 0x1F LT PUSH3 0xC4D JUMPI PUSH2 0x100 DUP1 DUP4 SLOAD DIV MUL DUP4 MSTORE SWAP2 PUSH1 0x20 ADD SWAP2 PUSH3 0xC79 JUMP JUMPDEST DUP3 ADD SWAP2 SWAP1 PUSH1 0x0 MSTORE PUSH1 0x20 PUSH1 0x0 KECCAK256 SWAP1 JUMPDEST DUP2 SLOAD DUP2 MSTORE SWAP1 PUSH1 0x1 ADD SWAP1 PUSH1 0x20 ADD DUP1 DUP4 GT PUSH3 0xC5B JUMPI DUP3 SWAP1 SUB PUSH1 0x1F AND DUP3 ADD SWAP2 JUMPDEST POP POP POP POP POP DUP2 MSTORE PUSH1 0x20 ADD PUSH1 0x4 DUP3 ADD DUP1 SLOAD PUSH3 0xC94 SWAP1 PUSH3 0x285D JUMP JUMPDEST DUP1 PUSH1 0x1F ADD PUSH1 0x20 DUP1 SWAP2 DIV MUL PUSH1 0x20 ADD PUSH1 0x40 MLOAD SWAP1 DUP2 ADD PUSH1 0x40 MSTORE DUP1 SWAP3 SWAP2 SWAP1 DUP2 DUP2 MSTORE PUSH1 0x20 ADD DUP3 DUP1 SLOAD PUSH3 0xCC2 SWAP1 PUSH3 0x285D JUMP JUMPDEST DUP1 ISZERO PUSH3 0xD13 JUMPI DUP1 PUSH1 0x1F LT PUSH3 0xCE7 JUMPI PUSH2 0x100 DUP1 DUP4 SLOAD DIV MUL DUP4 MSTORE SWAP2 PUSH1 0x20 ADD SWAP2 PUSH3 0xD13 JUMP JUMPDEST DUP3 ADD SWAP2 SWAP1 PUSH1 0x0 MSTORE PUSH1 0x20 PUSH1 0x0 KECCAK256 SWAP1 JUMPDEST DUP2 SLOAD DUP2 MSTORE SWAP1 PUSH1 0x1 ADD SWAP1 PUSH1 0x20 ADD DUP1 DUP4 GT PUSH3 0xCF5 JUMPI DUP3 SWAP1 SUB PUSH1 0x1F AND DUP3 ADD SWAP2 JUMPDEST POP POP POP POP POP DUP2 MSTORE POP POP DUP5 DUP8 DUP4 PUSH3 0xD2B SWAP2 SWAP1 PUSH3 0x263D JUMP JUMPDEST DUP2 MLOAD DUP2 LT PUSH3 0xD3E JUMPI PUSH3 0xD3E PUSH3 0x2653 JUMP JUMPDEST PUSH1 0x20 MUL PUSH1 0x20 ADD ADD DUP2 SWAP1 MSTORE POP DUP1 DUP1 PUSH3 0xD56 SWAP1 PUSH3 0x2899 JUMP JUMPDEST SWAP2 POP POP PUSH3 0xB7F JUMP JUMPDEST POP POP POP SWAP3 SWAP2 POP POP JUMP JUMPDEST PUSH1 0x1 PUSH1 0x1 PUSH1 0xA0 SHL SUB DUP6 AND PUSH1 0x0 SWAP1 DUP2 MSTORE PUSH1 0x4 PUSH1 0x20 MSTORE PUSH1 0x40 DUP2 KECCAK256 SLOAD SWAP1 DUP2 SWAP1 SUB PUSH3 0xDA4 JUMPI PUSH1 0x40 MLOAD PUSH3 0x461BCD PUSH1 0xE5 SHL DUP2 MSTORE PUSH1 0x4 ADD PUSH3 0x22C SWAP1 PUSH3 0x2669 JUMP JUMPDEST PUSH1 0x0 PUSH1 0x3 PUSH3 0xDB5 PUSH1 0x1 DUP5 PUSH3 0x263D JUMP JUMPDEST DUP2 SLOAD DUP2 LT PUSH3 0xDC8 JUMPI PUSH3 0xDC8 PUSH3 0x2653 JUMP JUMPDEST PUSH1 0x0 SWAP2 DUP3 MSTORE PUSH1 0x20 SWAP1 SWAP2 KECCAK256 PUSH1 0x5 SWAP1 SWAP2 MUL ADD PUSH1 0x1 DUP2 ADD SLOAD SWAP1 SWAP2 POP PUSH1 0x1 PUSH1 0x1 PUSH1 0xA0 SHL SUB AND CALLER EQ PUSH3 0xE27 JUMPI PUSH1 0x40 MLOAD PUSH3 0x461BCD PUSH1 0xE5 SHL DUP2 MSTORE PUSH1 0x20 PUSH1 0x4 DUP3 ADD MSTORE PUSH1 0xB PUSH1 0x24 DUP3 ADD MSTORE PUSH11 0x2737BA1031B932B0BA37B9 PUSH1 0xA9 SHL PUSH1 0x44 DUP3 ADD MSTORE PUSH1 0x64 ADD PUSH3 0x22C JUMP JUMPDEST PUSH1 0x3 DUP2 ADD PUSH3 0xE38 DUP7 DUP9 DUP4 PUSH3 0x2907 JUMP JUMPDEST POP PUSH1 0x4 DUP2 ADD PUSH3 0xE4A DUP5 DUP7 DUP4 PUSH3 0x2907 JUMP JUMPDEST POP DUP7 PUSH1 0x1 PUSH1 0x1 PUSH1 0xA0 SHL SUB AND PUSH32 0x6C1850FCE35387A891E82CA88E975790AB6F0709E9ED6842E01397F296012A7E DUP8 DUP8 DUP8 DUP8 PUSH1 0x40 MLOAD PUSH3 0xE8C SWAP5 SWAP4 SWAP3 SWAP2 SWAP1 PUSH3 0x29FE JUMP JUMPDEST PUSH1 0x40 MLOAD DUP1 SWAP2 SUB SWAP1 LOG2 POP POP POP POP POP POP POP JUMP JUMPDEST PUSH1 0x3 DUP2 DUP2 SLOAD DUP2 LT PUSH3 0xEAE JUMPI PUSH1 0x0 DUP1 REVERT JUMPDEST PUSH1 0x0 SWAP2 DUP3 MSTORE PUSH1 0x20 SWAP1 SWAP2 KECCAK256 PUSH1 0x5 SWAP1 SWAP2 MUL ADD DUP1 SLOAD PUSH1 0x1 DUP3 ADD SLOAD PUSH1 0x2 DUP4 ADD SLOAD PUSH1 0x3 DUP5 ADD DUP1 SLOAD PUSH1 0x1 PUSH1 0x1 PUSH1 0xA0 SHL SUB SWAP5 DUP6 AND SWAP7 POP SWAP3 SWAP1 SWAP4 AND SWAP4 SWAP1 SWAP3 SWAP1 SWAP2 PUSH3 0xEF1 SWAP1 PUSH3 0x285D JUMP JUMPDEST DUP1 PUSH1 0x1F ADD PUSH1 0x20 DUP1 SWAP2 DIV MUL PUSH1 0x20 ADD PUSH1 0x40 MLOAD SWAP1 DUP2 ADD PUSH1 0x40 MSTORE DUP1 SWAP3 SWAP2 SWAP1 DUP2 DUP2 MSTORE PUSH1 0x20 ADD DUP3 DUP1 SLOAD PUSH3 0xF1F SWAP1 PUSH3 0x285D JUMP JUMPDEST DUP1 ISZERO PUSH3 0xF70 JUMPI DUP1 PUSH1 0x1F LT PUSH3 0xF44 JUMPI PUSH2 0x100 DUP1 DUP4 SLOAD DIV MUL DUP4 MSTORE SWAP2 PUSH1 0x20 ADD SWAP2 PUSH3 0xF70 JUMP JUMPDEST DUP3 ADD SWAP2 SWAP1 PUSH1 0x0 MSTORE PUSH1 0x20 PUSH1 0x0 KECCAK256 SWAP1 JUMPDEST DUP2 SLOAD DUP2 MSTORE SWAP1 PUSH1 0x1 ADD SWAP1 PUSH1 0x20 ADD DUP1 DUP4 GT PUSH3 0xF52 JUMPI DUP3 SWAP1 SUB PUSH1 0x1F AND DUP3 ADD SWAP2 JUMPDEST POP POP POP POP POP SWAP1 DUP1 PUSH1 0x4 ADD DUP1 SLOAD PUSH3 0xF87 SWAP1 PUSH3 0x285D JUMP JUMPDEST DUP1 PUSH1 0x1F ADD PUSH1 0x20 DUP1 SWAP2 DIV MUL PUSH1 0x20 ADD PUSH1 0x40 MLOAD SWAP1 DUP2 ADD PUSH1 0x40 MSTORE DUP1 SWAP3 SWAP2 SWAP1 DUP2 DUP2 MSTORE PUSH1 0x20 ADD DUP3 DUP1 SLOAD PUSH3 0xFB5 SWAP1 PUSH3 0x285D JUMP JUMPDEST DUP1 ISZERO PUSH3 0x1006 JUMPI DUP1 PUSH1 0x1F LT PUSH3 0xFDA JUMPI PUSH2 0x100 DUP1 DUP4 SLOAD DIV MUL DUP4 MSTORE SWAP2 PUSH1 0x20 ADD SWAP2 PUSH3 0x1006 JUMP JUMPDEST DUP3 ADD SWAP2 SWAP1 PUSH1 0x0 MSTORE PUSH1 0x20 PUSH1 0x0 KECCAK256 SWAP1 JUMPDEST DUP2 SLOAD DUP2 MSTORE SWAP1 PUSH1 0x1 ADD SWAP1 PUSH1 0x20 ADD DUP1 DUP4 GT PUSH3 0xFE8 JUMPI DUP3 SWAP1 SUB PUSH1 0x1F AND DUP3 ADD SWAP2 JUMPDEST POP POP POP POP POP SWAP1 POP DUP6 JUMP JUMPDEST PUSH1 0x1 PUSH1 0x1 PUSH1 0xA0 SHL SUB DUP2 AND PUSH1 0x0 SWAP1 DUP2 MSTORE PUSH1 0x4 PUSH1 0x20 MSTORE PUSH1 0x40 DUP2 KECCAK256 SLOAD DUP1 DUP3 SUB PUSH3 0x104B JUMPI PUSH1 0x40 MLOAD PUSH3 0x461BCD PUSH1 0xE5 SHL DUP2 MSTORE PUSH1 0x4 ADD PUSH3 0x22C SWAP1 PUSH3 0x2669 JUMP JUMPDEST PUSH3 0x1058 PUSH1 0x1 DUP3 PUSH3 0x263D JUMP JUMPDEST SWAP4 SWAP3 POP POP POP JUMP JUMPDEST PUSH3 0x1069 PUSH3 0x1EA3 JUMP JUMPDEST PUSH3 0x1073 PUSH3 0x1FA5 JUMP JUMPDEST DUP2 PUSH1 0x0 SUB PUSH3 0x1095 JUMPI PUSH1 0x40 MLOAD PUSH4 0x1F2A2005 PUSH1 0xE0 SHL DUP2 MSTORE PUSH1 0x4 ADD PUSH1 0x40 MLOAD DUP1 SWAP2 SUB SWAP1 REVERT JUMPDEST PUSH1 0x1 PUSH1 0x1 PUSH1 0xA0 SHL SUB DUP4 AND PUSH1 0x0 SWAP1 DUP2 MSTORE PUSH1 0x5 PUSH1 0x20 MSTORE PUSH1 0x40 SWAP1 KECCAK256 SLOAD PUSH1 0xFF AND ISZERO PUSH3 0x10D0 JUMPI PUSH1 0x40 MLOAD PUSH4 0xE7792495 PUSH1 0xE0 SHL DUP2 MSTORE PUSH1 0x4 ADD PUSH1 0x40 MLOAD DUP1 SWAP2 SUB SWAP1 REVERT JUMPDEST PUSH1 0x1 PUSH1 0x1 PUSH1 0xA0 SHL SUB DUP4 AND PUSH1 0x0 SWAP1 DUP2 MSTORE PUSH1 0x4 PUSH1 0x20 MSTORE PUSH1 0x40 DUP2 KECCAK256 SLOAD SWAP1 DUP2 SWAP1 SUB PUSH3 0x110B JUMPI PUSH1 0x40 MLOAD PUSH4 0x8DDA39DF PUSH1 0xE0 SHL DUP2 MSTORE PUSH1 0x4 ADD PUSH1 0x40 MLOAD DUP1 SWAP2 SUB SWAP1 REVERT JUMPDEST PUSH1 0x0 PUSH1 0x3 PUSH3 0x111C PUSH1 0x1 DUP5 PUSH3 0x263D JUMP JUMPDEST DUP2 SLOAD DUP2 LT PUSH3 0x112F JUMPI PUSH3 0x112F PUSH3 0x2653 JUMP JUMPDEST SWAP1 PUSH1 0x0 MSTORE PUSH1 0x20 PUSH1 0x0 KECCAK256 SWAP1 PUSH1 0x5 MUL ADD SWAP1 POP PUSH1 0x0 PUSH8 0xDE0B6B3A7640000 DUP6 DUP4 PUSH1 0x2 ADD SLOAD PUSH3 0x115C SWAP2 SWAP1 PUSH3 0x2A34 JUMP JUMPDEST PUSH3 0x1168 SWAP2 SWAP1 PUSH3 0x2A4E JUMP JUMPDEST SWAP1 POP DUP1 CALLVALUE EQ PUSH3 0x118B JUMPI PUSH1 0x40 MLOAD PUSH4 0xD183FE43 PUSH1 0xE0 SHL DUP2 MSTORE PUSH1 0x4 ADD PUSH1 0x40 MLOAD DUP1 SWAP2 SUB SWAP1 REVERT JUMPDEST PUSH1 0x6 SLOAD PUSH1 0x0 SWAP1 PUSH2 0x2710 SWAP1 PUSH3 0x11A5 SWAP1 PUSH2 0xFFFF AND DUP5 PUSH3 0x2A34 JUMP JUMPDEST PUSH3 0x11B1 SWAP2 SWAP1 PUSH3 0x2A4E JUMP JUMPDEST SWAP1 POP PUSH1 0x0 PUSH1 0x1 PUSH1 0x1 PUSH1 0xA0 SHL SUB DUP7 AND ISZERO PUSH3 0x11F4 JUMPI PUSH1 0x6 SLOAD PUSH2 0x2710 SWAP1 PUSH3 0x11E2 SWAP1 PUSH3 0x10000 SWAP1 DIV PUSH2 0xFFFF AND DUP6 PUSH3 0x2A34 JUMP JUMPDEST PUSH3 0x11EE SWAP2 SWAP1 PUSH3 0x2A4E JUMP JUMPDEST PUSH3 0x11F7 JUMP JUMPDEST PUSH1 0x0 JUMPDEST SWAP1 POP PUSH1 0x0 DUP2 PUSH3 0x1208 DUP5 DUP7 PUSH3 0x263D JUMP JUMPDEST PUSH3 0x1214 SWAP2 SWAP1 PUSH3 0x263D JUMP JUMPDEST SWAP1 POP DUP3 ISZERO PUSH3 0x1259 JUMPI PUSH1 0x0 DUP1 SLOAD PUSH1 0x40 MLOAD PUSH1 0x1 PUSH1 0x1 PUSH1 0xA0 SHL SUB SWAP1 SWAP2 AND SWAP2 DUP6 ISZERO PUSH2 0x8FC MUL SWAP2 DUP7 SWAP2 DUP2 DUP2 DUP2 DUP6 DUP9 DUP9 CALL SWAP4 POP POP POP POP ISZERO DUP1 ISZERO PUSH3 0x1257 JUMPI RETURNDATASIZE PUSH1 0x0 DUP1 RETURNDATACOPY RETURNDATASIZE PUSH1 0x0 REVERT JUMPDEST POP JUMPDEST DUP2 ISZERO PUSH3 0x1299 JUMPI PUSH1 0x40 MLOAD PUSH1 0x1 PUSH1 0x1 PUSH1 0xA0 SHL SUB DUP9 AND SWAP1 DUP4 ISZERO PUSH2 0x8FC MUL SWAP1 DUP5 SWAP1 PUSH1 0x0 DUP2 DUP2 DUP2 DUP6 DUP9 DUP9 CALL SWAP4 POP POP POP POP ISZERO DUP1 ISZERO PUSH3 0x1297 JUMPI RETURNDATASIZE PUSH1 0x0 DUP1 RETURNDATACOPY RETURNDATASIZE PUSH1 0x0 REVERT JUMPDEST POP JUMPDEST PUSH1 0x1 DUP6 ADD SLOAD PUSH1 0x40 MLOAD PUSH1 0x1 PUSH1 0x1 PUSH1 0xA0 SHL SUB SWAP1 SWAP2 AND SWAP1 DUP3 ISZERO PUSH2 0x8FC MUL SWAP1 DUP4 SWAP1 PUSH1 0x0 DUP2 DUP2 DUP2 DUP6 DUP9 DUP9 CALL SWAP4 POP POP POP POP ISZERO DUP1 ISZERO PUSH3 0x12D6 JUMPI RETURNDATASIZE PUSH1 0x0 DUP1 RETURNDATACOPY RETURNDATASIZE PUSH1 0x0 REVERT JUMPDEST POP PUSH3 0x12ED PUSH1 0x1 PUSH1 0x1 PUSH1 0xA0 SHL SUB DUP11 AND CALLER DUP11 PUSH3 0x1ECE JUMP JUMPDEST PUSH1 0x40 DUP1 MLOAD DUP10 DUP2 MSTORE PUSH1 0x20 DUP2 ADD DUP7 SWAP1 MSTORE SWAP1 DUP2 ADD DUP5 SWAP1 MSTORE PUSH1 0x60 DUP2 ADD DUP4 SWAP1 MSTORE PUSH1 0x80 DUP2 ADD DUP3 SWAP1 MSTORE PUSH1 0x1 PUSH1 0x1 PUSH1 0xA0 SHL SUB DUP1 DUP10 AND SWAP2 CALLER SWAP2 DUP13 AND SWAP1 PUSH32 0xA4D1D47447AD64A0C581F05071DF4CE987BA94440D913925DC004A21F28F4226 SWAP1 PUSH1 0xA0 ADD PUSH1 0x40 MLOAD DUP1 SWAP2 SUB SWAP1 LOG4 POP POP POP POP POP POP PUSH3 0x135D PUSH1 0x1 DUP1 SSTORE JUMP JUMPDEST POP POP POP JUMP JUMPDEST PUSH3 0x136C PUSH3 0x1F22 JUMP JUMPDEST PUSH3 0x9B2 PUSH1 0x0 PUSH3 0x1FCA JUMP JUMPDEST PUSH3 0x1382 PUSH3 0x1F22 JUMP JUMPDEST PUSH1 0x1 PUSH1 0x1 PUSH1 0xA0 SHL SUB DUP2 AND PUSH1 0x0 DUP2 DUP2 MSTORE PUSH1 0x5 PUSH1 0x20 MSTORE PUSH1 0x40 DUP1 DUP3 KECCAK256 DUP1 SLOAD PUSH1 0xFF NOT AND PUSH1 0x1 OR SWAP1 SSTORE MLOAD PUSH32 0x32A6DCD04455C92A601AFD4A2AA0EE840DDAB8A4383114E4F00ECF9132432933 SWAP2 SWAP1 LOG2 POP JUMP JUMPDEST PUSH3 0x13D8 PUSH3 0x1F22 JUMP JUMPDEST PUSH3 0x9B2 PUSH3 0x201A JUMP JUMPDEST PUSH3 0x13EC PUSH3 0x1F22 JUMP JUMPDEST PUSH3 0x1415 PUSH3 0x1403 PUSH1 0x0 SLOAD PUSH1 0x1 PUSH1 0x1 PUSH1 0xA0 SHL SUB AND SWAP1 JUMP JUMPDEST PUSH1 0x1 PUSH1 0x1 PUSH1 0xA0 SHL SUB DUP5 AND SWAP1 DUP4 PUSH3 0x1ECE JUMP JUMPDEST DUP2 PUSH1 0x1 PUSH1 0x1 PUSH1 0xA0 SHL SUB AND PUSH32 0xE82BE315BA1A0D0362D09D5CF59781F214B53A74EB978C35B76AD687099C670C DUP3 PUSH1 0x40 MLOAD PUSH3 0x1451 SWAP2 DUP2 MSTORE PUSH1 0x20 ADD SWAP1 JUMP JUMPDEST PUSH1 0x40 MLOAD DUP1 SWAP2 SUB SWAP1 LOG2 POP POP JUMP JUMPDEST PUSH1 0x1 PUSH1 0x1 PUSH1 0xA0 SHL SUB DUP2 AND PUSH1 0x0 SWAP1 DUP2 MSTORE PUSH1 0x4 PUSH1 0x20 MSTORE PUSH1 0x40 DUP2 KECCAK256 SLOAD DUP1 DUP3 SUB PUSH3 0x1498 JUMPI PUSH1 0x40 MLOAD PUSH3 0x461BCD PUSH1 0xE5 SHL DUP2 MSTORE PUSH1 0x4 ADD PUSH3 0x22C SWAP1 PUSH3 0x2669 JUMP JUMPDEST PUSH1 0x3 PUSH3 0x14A7 PUSH1 0x1 DUP4 PUSH3 0x263D JUMP JUMPDEST DUP2 SLOAD DUP2 LT PUSH3 0x14BA JUMPI PUSH3 0x14BA PUSH3 0x2653 JUMP JUMPDEST SWAP1 PUSH1 0x0 MSTORE PUSH1 0x20 PUSH1 0x0 KECCAK256 SWAP1 PUSH1 0x5 MUL ADD PUSH1 0x2 ADD SLOAD SWAP2 POP POP SWAP2 SWAP1 POP JUMP JUMPDEST PUSH1 0x0 PUSH1 0x60 DUP1 PUSH1 0x60 DUP1 PUSH1 0x0 DUP1 PUSH1 0x3 DUP1 SLOAD SWAP1 POP DUP9 LT PUSH3 0x152B JUMPI PUSH1 0x40 MLOAD PUSH3 0x461BCD PUSH1 0xE5 SHL DUP2 MSTORE PUSH1 0x20 PUSH1 0x4 DUP3 ADD MSTORE PUSH1 0x13 PUSH1 0x24 DUP3 ADD MSTORE PUSH19 0x496E646578206F7574206F6620626F756E6473 PUSH1 0x68 SHL PUSH1 0x44 DUP3 ADD MSTORE PUSH1 0x64 ADD PUSH3 0x22C JUMP JUMPDEST PUSH1 0x0 PUSH1 0x3 DUP10 DUP2 SLOAD DUP2 LT PUSH3 0x1543 JUMPI PUSH3 0x1543 PUSH3 0x2653 JUMP JUMPDEST PUSH1 0x0 SWAP2 DUP3 MSTORE PUSH1 0x20 DUP3 KECCAK256 PUSH1 0x5 SWAP1 SWAP2 MUL ADD DUP1 SLOAD PUSH1 0x40 DUP1 MLOAD PUSH4 0x6FDDE03 PUSH1 0xE0 SHL DUP2 MSTORE SWAP1 MLOAD PUSH1 0x1 PUSH1 0x1 PUSH1 0xA0 SHL SUB SWAP1 SWAP3 AND SWAP12 POP SWAP2 SWAP4 POP DUP11 SWAP3 PUSH4 0x6FDDE03 SWAP3 PUSH1 0x4 DUP1 DUP3 ADD SWAP4 SWAP2 DUP3 SWAP1 SUB ADD DUP2 DUP7 GAS STATICCALL ISZERO DUP1 ISZERO PUSH3 0x159D JUMPI RETURNDATASIZE PUSH1 0x0 DUP1 RETURNDATACOPY RETURNDATASIZE PUSH1 0x0 REVERT JUMPDEST POP POP POP POP PUSH1 0x40 MLOAD RETURNDATASIZE PUSH1 0x0 DUP3 RETURNDATACOPY PUSH1 0x1F RETURNDATASIZE SWAP1 DUP2 ADD PUSH1 0x1F NOT AND DUP3 ADD PUSH1 0x40 MSTORE PUSH3 0x15C7 SWAP2 SWAP1 DUP2 ADD SWAP1 PUSH3 0x2A71 JUMP JUMPDEST SWAP7 POP DUP8 PUSH1 0x1 PUSH1 0x1 PUSH1 0xA0 SHL SUB AND PUSH4 0x95D89B41 PUSH1 0x40 MLOAD DUP2 PUSH4 0xFFFFFFFF AND PUSH1 0xE0 SHL DUP2 MSTORE PUSH1 0x4 ADD PUSH1 0x0 PUSH1 0x40 MLOAD DUP1 DUP4 SUB DUP2 DUP7 GAS STATICCALL ISZERO DUP1 ISZERO PUSH3 0x1608 JUMPI RETURNDATASIZE PUSH1 0x0 DUP1 RETURNDATACOPY RETURNDATASIZE PUSH1 0x0 REVERT JUMPDEST POP POP POP POP PUSH1 0x40 MLOAD RETURNDATASIZE PUSH1 0x0 DUP3 RETURNDATACOPY PUSH1 0x1F RETURNDATASIZE SWAP1 DUP2 ADD PUSH1 0x1F NOT AND DUP3 ADD PUSH1 0x40 MSTORE PUSH3 0x1632 SWAP2 SWAP1 DUP2 ADD SWAP1 PUSH3 0x2A71 JUMP JUMPDEST SWAP6 POP DUP1 PUSH1 0x3 ADD DUP1 SLOAD PUSH3 0x1645 SWAP1 PUSH3 0x285D JUMP JUMPDEST DUP1 PUSH1 0x1F ADD PUSH1 0x20 DUP1 SWAP2 DIV MUL PUSH1 0x20 ADD PUSH1 0x40 MLOAD SWAP1 DUP2 ADD PUSH1 0x40 MSTORE DUP1 SWAP3 SWAP2 SWAP1 DUP2 DUP2 MSTORE PUSH1 0x20 ADD DUP3 DUP1 SLOAD PUSH3 0x1673 SWAP1 PUSH3 0x285D JUMP JUMPDEST DUP1 ISZERO PUSH3 0x16C4 JUMPI DUP1 PUSH1 0x1F LT PUSH3 0x1698 JUMPI PUSH2 0x100 DUP1 DUP4 SLOAD DIV MUL DUP4 MSTORE SWAP2 PUSH1 0x20 ADD SWAP2 PUSH3 0x16C4 JUMP JUMPDEST DUP3 ADD SWAP2 SWAP1 PUSH1 0x0 MSTORE PUSH1 0x20 PUSH1 0x0 KECCAK256 SWAP1 JUMPDEST DUP2 SLOAD DUP2 MSTORE SWAP1 PUSH1 0x1 ADD SWAP1 PUSH1 0x20 ADD DUP1 DUP4 GT PUSH3 0x16A6 JUMPI DUP3 SWAP1 SUB PUSH1 0x1F AND DUP3 ADD SWAP2 JUMPDEST POP POP POP POP POP SWAP5 POP DUP1 PUSH1 0x4 ADD DUP1 SLOAD PUSH3 0x16DC SWAP1 PUSH3 0x285D JUMP JUMPDEST DUP1 PUSH1 0x1F ADD PUSH1 0x20 DUP1 SWAP2 DIV MUL PUSH1 0x20 ADD PUSH1 0x40 MLOAD SWAP1 DUP2 ADD PUSH1 0x40 MSTORE DUP1 SWAP3 SWAP2 SWAP1 DUP2 DUP2 MSTORE PUSH1 0x20 ADD DUP3 DUP1 SLOAD PUSH3 0x170A SWAP1 PUSH3 0x285D JUMP JUMPDEST DUP1 ISZERO PUSH3 0x175B JUMPI DUP1 PUSH1 0x1F LT PUSH3 0x172F JUMPI PUSH2 0x100 DUP1 DUP4 SLOAD DIV MUL DUP4 MSTORE SWAP2 PUSH1 0x20 ADD SWAP2 PUSH3 0x175B JUMP JUMPDEST DUP3 ADD SWAP2 SWAP1 PUSH1 0x0 MSTORE PUSH1 0x20 PUSH1 0x0 KECCAK256 SWAP1 JUMPDEST DUP2 SLOAD DUP2 MSTORE SWAP1 PUSH1 0x1 ADD SWAP1 PUSH1 0x20 ADD DUP1 DUP4 GT PUSH3 0x173D JUMPI DUP3 SWAP1 SUB PUSH1 0x1F AND DUP3 ADD SWAP2 JUMPDEST POP POP POP PUSH1 0x2 DUP5 ADD SLOAD PUSH1 0x1 SWAP1 SWAP5 ADD SLOAD SWAP11 SWAP13 SWAP10 SWAP12 POP SWAP8 SWAP10 SWAP7 SWAP9 SWAP2 SWAP8 POP SWAP2 SWAP6 PUSH1 0x1 PUSH1 0x1 PUSH1 0xA0 SHL SUB AND SWAP5 POP SWAP3 POP POP POP JUMP JUMPDEST PUSH1 0x3 SLOAD PUSH1 0x60 SWAP1 PUSH1 0x0 DUP1 JUMPDEST DUP3 DUP2 LT ISZERO PUSH3 0x1803 JUMPI DUP5 PUSH1 0x1 PUSH1 0x1 PUSH1 0xA0 SHL SUB AND PUSH1 0x3 DUP3 DUP2 SLOAD DUP2 LT PUSH3 0x17BB JUMPI PUSH3 0x17BB PUSH3 0x2653 JUMP JUMPDEST PUSH1 0x0 SWAP2 DUP3 MSTORE PUSH1 0x20 SWAP1 SWAP2 KECCAK256 PUSH1 0x1 PUSH1 0x5 SWAP1 SWAP3 MUL ADD ADD SLOAD PUSH1 0x1 PUSH1 0x1 PUSH1 0xA0 SHL SUB AND SUB PUSH3 0x17EE JUMPI DUP2 PUSH3 0x17EA DUP2 PUSH3 0x2899 JUMP JUMPDEST SWAP3 POP POP JUMPDEST DUP1 PUSH3 0x17FA DUP2 PUSH3 0x2899 JUMP JUMPDEST SWAP2 POP POP PUSH3 0x1792 JUMP JUMPDEST POP PUSH1 0x0 DUP2 PUSH8 0xFFFFFFFFFFFFFFFF DUP2 GT ISZERO PUSH3 0x1822 JUMPI PUSH3 0x1822 PUSH3 0x269C JUMP JUMPDEST PUSH1 0x40 MLOAD SWAP1 DUP1 DUP3 MSTORE DUP1 PUSH1 0x20 MUL PUSH1 0x20 ADD DUP3 ADD PUSH1 0x40 MSTORE DUP1 ISZERO PUSH3 0x185F JUMPI DUP2 PUSH1 0x20 ADD JUMPDEST PUSH3 0x184B PUSH3 0x20FA JUMP JUMPDEST DUP2 MSTORE PUSH1 0x20 ADD SWAP1 PUSH1 0x1 SWAP1 SUB SWAP1 DUP2 PUSH3 0x1841 JUMPI SWAP1 POP JUMPDEST POP SWAP1 POP PUSH1 0x0 DUP1 JUMPDEST DUP5 DUP2 LT ISZERO PUSH3 0x1A8A JUMPI DUP7 PUSH1 0x1 PUSH1 0x1 PUSH1 0xA0 SHL SUB AND PUSH1 0x3 DUP3 DUP2 SLOAD DUP2 LT PUSH3 0x188F JUMPI PUSH3 0x188F PUSH3 0x2653 JUMP JUMPDEST PUSH1 0x0 SWAP2 DUP3 MSTORE PUSH1 0x20 SWAP1 SWAP2 KECCAK256 PUSH1 0x1 PUSH1 0x5 SWAP1 SWAP3 MUL ADD ADD SLOAD PUSH1 0x1 PUSH1 0x1 PUSH1 0xA0 SHL SUB AND SUB PUSH3 0x1A75 JUMPI PUSH1 0x3 DUP2 DUP2 SLOAD DUP2 LT PUSH3 0x18C8 JUMPI PUSH3 0x18C8 PUSH3 0x2653 JUMP JUMPDEST PUSH1 0x0 SWAP2 DUP3 MSTORE PUSH1 0x20 SWAP2 DUP3 SWAP1 KECCAK256 PUSH1 0x40 DUP1 MLOAD PUSH1 0xA0 DUP2 ADD DUP3 MSTORE PUSH1 0x5 SWAP1 SWAP4 MUL SWAP1 SWAP2 ADD DUP1 SLOAD PUSH1 0x1 PUSH1 0x1 PUSH1 0xA0 SHL SUB SWAP1 DUP2 AND DUP5 MSTORE PUSH1 0x1 DUP3 ADD SLOAD AND SWAP4 DUP4 ADD SWAP4 SWAP1 SWAP4 MSTORE PUSH1 0x2 DUP4 ADD SLOAD SWAP1 DUP3 ADD MSTORE PUSH1 0x3 DUP3 ADD DUP1 SLOAD SWAP2 SWAP3 SWAP2 PUSH1 0x60 DUP5 ADD SWAP2 SWAP1 PUSH3 0x1924 SWAP1 PUSH3 0x285D JUMP JUMPDEST DUP1 PUSH1 0x1F ADD PUSH1 0x20 DUP1 SWAP2 DIV MUL PUSH1 0x20 ADD PUSH1 0x40 MLOAD SWAP1 DUP2 ADD PUSH1 0x40 MSTORE DUP1 SWAP3 SWAP2 SWAP1 DUP2 DUP2 MSTORE PUSH1 0x20 ADD DUP3 DUP1 SLOAD PUSH3 0x1952 SWAP1 PUSH3 0x285D JUMP JUMPDEST DUP1 ISZERO PUSH3 0x19A3 JUMPI DUP1 PUSH1 0x1F LT PUSH3 0x1977 JUMPI PUSH2 0x100 DUP1 DUP4 SLOAD DIV MUL DUP4 MSTORE SWAP2 PUSH1 0x20 ADD SWAP2 PUSH3 0x19A3 JUMP JUMPDEST DUP3 ADD SWAP2 SWAP1 PUSH1 0x0 MSTORE PUSH1 0x20 PUSH1 0x0 KECCAK256 SWAP1 JUMPDEST DUP2 SLOAD DUP2 MSTORE SWAP1 PUSH1 0x1 ADD SWAP1 PUSH1 0x20 ADD DUP1 DUP4 GT PUSH3 0x1985 JUMPI DUP3 SWAP1 SUB PUSH1 0x1F AND DUP3 ADD SWAP2 JUMPDEST POP POP POP POP POP DUP2 MSTORE PUSH1 0x20 ADD PUSH1 0x4 DUP3 ADD DUP1 SLOAD PUSH3 0x19BE SWAP1 PUSH3 0x285D JUMP JUMPDEST DUP1 PUSH1 0x1F ADD PUSH1 0x20 DUP1 SWAP2 DIV MUL PUSH1 0x20 ADD PUSH1 0x40 MLOAD SWAP1 DUP2 ADD PUSH1 0x40 MSTORE DUP1 SWAP3 SWAP2 SWAP1 DUP2 DUP2 MSTORE PUSH1 0x20 ADD DUP3 DUP1 SLOAD PUSH3 0x19EC SWAP1 PUSH3 0x285D JUMP JUMPDEST DUP1 ISZERO PUSH3 0x1A3D JUMPI DUP1 PUSH1 0x1F LT PUSH3 0x1A11 JUMPI PUSH2 0x100 DUP1 DUP4 SLOAD DIV MUL DUP4 MSTORE SWAP2 PUSH1 0x20 ADD SWAP2 PUSH3 0x1A3D JUMP JUMPDEST DUP3 ADD SWAP2 SWAP1 PUSH1 0x0 MSTORE PUSH1 0x20 PUSH1 0x0 KECCAK256 SWAP1 JUMPDEST DUP2 SLOAD DUP2 MSTORE SWAP1 PUSH1 0x1 ADD SWAP1 PUSH1 0x20 ADD DUP1 DUP4 GT PUSH3 0x1A1F JUMPI DUP3 SWAP1 SUB PUSH1 0x1F AND DUP3 ADD SWAP2 JUMPDEST POP POP POP POP POP DUP2 MSTORE POP POP DUP4 DUP4 DUP1 PUSH3 0x1A54 SWAP1 PUSH3 0x2899 JUMP JUMPDEST SWAP5 POP DUP2 MLOAD DUP2 LT PUSH3 0x1A69 JUMPI PUSH3 0x1A69 PUSH3 0x2653 JUMP JUMPDEST PUSH1 0x20 MUL PUSH1 0x20 ADD ADD DUP2 SWAP1 MSTORE POP JUMPDEST DUP1 PUSH3 0x1A81 DUP2 PUSH3 0x2899 JUMP JUMPDEST SWAP2 POP POP PUSH3 0x1866 JUMP JUMPDEST POP SWAP1 SWAP6 SWAP5 POP POP POP POP POP JUMP JUMPDEST PUSH1 0x0 PUSH3 0x1AA1 PUSH3 0x1EA3 JUMP JUMPDEST PUSH3 0x1AAB PUSH3 0x1FA5 JUMP JUMPDEST DUP4 PUSH1 0x0 SUB PUSH3 0x1ACD JUMPI PUSH1 0x40 MLOAD PUSH4 0x7294708F PUSH1 0xE1 SHL DUP2 MSTORE PUSH1 0x4 ADD PUSH1 0x40 MLOAD DUP1 SWAP2 SUB SWAP1 REVERT JUMPDEST PUSH1 0x0 DUP12 DUP12 DUP12 DUP12 DUP10 CALLER DUP10 DUP10 PUSH1 0x40 MLOAD PUSH3 0x1AE5 SWAP1 PUSH3 0x213B JUMP JUMPDEST PUSH3 0x1AF8 SWAP9 SWAP8 SWAP7 SWAP6 SWAP5 SWAP4 SWAP3 SWAP2 SWAP1 PUSH3 0x2AB2 JUMP JUMPDEST PUSH1 0x40 MLOAD DUP1 SWAP2 SUB SWAP1 PUSH1 0x0 CREATE DUP1 ISZERO DUP1 ISZERO PUSH3 0x1B15 JUMPI RETURNDATASIZE PUSH1 0x0 DUP1 RETURNDATACOPY RETURNDATASIZE PUSH1 0x0 REVERT JUMPDEST POP SWAP1 POP DUP1 SWAP2 POP PUSH1 0x3 PUSH1 0x40 MLOAD DUP1 PUSH1 0xA0 ADD PUSH1 0x40 MSTORE DUP1 DUP5 PUSH1 0x1 PUSH1 0x1 PUSH1 0xA0 SHL SUB AND DUP2 MSTORE PUSH1 0x20 ADD CALLER PUSH1 0x1 PUSH1 0x1 PUSH1 0xA0 SHL SUB AND DUP2 MSTORE PUSH1 0x20 ADD DUP8 DUP2 MSTORE PUSH1 0x20 ADD DUP11 DUP11 DUP1 DUP1 PUSH1 0x1F ADD PUSH1 0x20 DUP1 SWAP2 DIV MUL PUSH1 0x20 ADD PUSH1 0x40 MLOAD SWAP1 DUP2 ADD PUSH1 0x40 MSTORE DUP1 SWAP4 SWAP3 SWAP2 SWAP1 DUP2 DUP2 MSTORE PUSH1 0x20 ADD DUP4 DUP4 DUP1 DUP3 DUP5 CALLDATACOPY PUSH1 0x0 SWAP3 ADD SWAP2 SWAP1 SWAP2 MSTORE POP POP POP SWAP1 DUP3 MSTORE POP PUSH1 0x40 DUP1 MLOAD PUSH1 0x20 PUSH1 0x1F DUP10 ADD DUP2 SWAP1 DIV DUP2 MUL DUP3 ADD DUP2 ADD SWAP1 SWAP3 MSTORE DUP8 DUP2 MSTORE SWAP2 DUP2 ADD SWAP2 SWAP1 DUP9 SWAP1 DUP9 SWAP1 DUP2 SWAP1 DUP5 ADD DUP4 DUP3 DUP1 DUP3 DUP5 CALLDATACOPY PUSH1 0x0 SWAP3 ADD DUP3 SWAP1 MSTORE POP SWAP4 SWAP1 SWAP5 MSTORE POP POP DUP4 SLOAD PUSH1 0x1 DUP1 DUP3 ADD DUP7 SSTORE SWAP5 DUP3 MSTORE PUSH1 0x20 SWAP2 DUP3 SWAP1 KECCAK256 DUP5 MLOAD PUSH1 0x5 SWAP1 SWAP3 MUL ADD DUP1 SLOAD PUSH1 0x1 PUSH1 0x1 PUSH1 0xA0 SHL SUB NOT SWAP1 DUP2 AND PUSH1 0x1 PUSH1 0x1 PUSH1 0xA0 SHL SUB SWAP4 DUP5 AND OR DUP3 SSTORE SWAP3 DUP6 ADD MLOAD SWAP6 DUP2 ADD DUP1 SLOAD SWAP1 SWAP4 AND SWAP6 SWAP1 SWAP2 AND SWAP5 SWAP1 SWAP5 OR SWAP1 SSTORE POP PUSH1 0x40 DUP2 ADD MLOAD PUSH1 0x2 DUP4 ADD SSTORE PUSH1 0x60 DUP2 ADD MLOAD SWAP1 SWAP2 SWAP1 PUSH1 0x3 DUP3 ADD SWAP1 PUSH3 0x1C2F SWAP1 DUP3 PUSH3 0x2B19 JUMP JUMPDEST POP PUSH1 0x80 DUP3 ADD MLOAD PUSH1 0x4 DUP3 ADD SWAP1 PUSH3 0x1C46 SWAP1 DUP3 PUSH3 0x2B19 JUMP JUMPDEST POP POP PUSH1 0x3 SLOAD PUSH1 0x1 PUSH1 0x1 PUSH1 0xA0 SHL SUB DUP5 AND PUSH1 0x0 DUP2 DUP2 MSTORE PUSH1 0x4 PUSH1 0x20 MSTORE PUSH1 0x40 SWAP1 DUP2 SWAP1 KECCAK256 SWAP3 SWAP1 SWAP3 SSTORE SWAP1 MLOAD CALLER SWAP3 POP PUSH32 0x75C1F35492CD2BCB2820D5FF2434B9DC6D19432975F20761140109F0844A7B8A SWAP1 PUSH3 0x1CA5 SWAP1 DUP10 SWAP1 DUP14 SWAP1 DUP14 SWAP1 DUP12 SWAP1 DUP12 SWAP1 PUSH3 0x2BE6 JUMP JUMPDEST PUSH1 0x40 MLOAD DUP1 SWAP2 SUB SWAP1 LOG3 POP PUSH3 0x1CB8 PUSH1 0x1 DUP1 SSTORE JUMP JUMPDEST SWAP11 SWAP10 POP POP POP POP POP POP POP POP POP POP JUMP JUMPDEST PUSH3 0x1CD0 PUSH3 0x1F22 JUMP JUMPDEST DUP1 SELFBALANCE LT ISZERO PUSH3 0x1D15 JUMPI PUSH1 0x40 MLOAD PUSH3 0x461BCD PUSH1 0xE5 SHL DUP2 MSTORE PUSH1 0x20 PUSH1 0x4 DUP3 ADD MSTORE PUSH1 0x10 PUSH1 0x24 DUP3 ADD MSTORE PUSH16 0x92DCE6EACCCCD2C6D2CADCE8408AA89 PUSH1 0x83 SHL PUSH1 0x44 DUP3 ADD MSTORE PUSH1 0x64 ADD PUSH3 0x22C JUMP JUMPDEST PUSH1 0x0 DUP1 SLOAD PUSH1 0x40 MLOAD PUSH1 0x1 PUSH1 0x1 PUSH1 0xA0 SHL SUB SWAP1 SWAP2 AND SWAP2 DUP4 ISZERO PUSH2 0x8FC MUL SWAP2 DUP5 SWAP2 DUP2 DUP2 DUP2 DUP6 DUP9 DUP9 CALL SWAP4 POP POP POP POP ISZERO DUP1 ISZERO PUSH3 0x1D4F JUMPI RETURNDATASIZE PUSH1 0x0 DUP1 RETURNDATACOPY RETURNDATASIZE PUSH1 0x0 REVERT JUMPDEST POP PUSH1 0x0 SLOAD PUSH1 0x1 PUSH1 0x1 PUSH1 0xA0 SHL SUB AND PUSH1 0x1 PUSH1 0x1 PUSH1 0xA0 SHL SUB AND PUSH32 0xB3579861130E4DA8BB7B87C54D2D139937F23BCD6E4EBED9E75D0F78AB1CC118 DUP3 PUSH1 0x40 MLOAD PUSH3 0x1D97 SWAP2 DUP2 MSTORE PUSH1 0x20 ADD SWAP1 JUMP JUMPDEST PUSH1 0x40 MLOAD DUP1 SWAP2 SUB SWAP1 LOG2 POP JUMP JUMPDEST PUSH3 0x1DAC PUSH3 0x1F22 JUMP JUMPDEST PUSH1 0x1 PUSH1 0x1 PUSH1 0xA0 SHL SUB DUP2 AND PUSH3 0x1DD8 JUMPI PUSH1 0x40 MLOAD PUSH4 0x1E4FBDF7 PUSH1 0xE0 SHL DUP2 MSTORE PUSH1 0x0 PUSH1 0x4 DUP3 ADD MSTORE PUSH1 0x24 ADD PUSH3 0x22C JUMP JUMPDEST PUSH3 0x1DE3 DUP2 PUSH3 0x1FCA JUMP JUMPDEST POP JUMP JUMPDEST PUSH3 0x1DF0 PUSH3 0x1F22 JUMP JUMPDEST PUSH2 0x2710 PUSH3 0x1DFF DUP3 DUP5 PUSH3 0x2C17 JUMP JUMPDEST PUSH2 0xFFFF AND LT PUSH3 0x1E42 JUMPI PUSH1 0x40 MLOAD PUSH3 0x461BCD PUSH1 0xE5 SHL DUP2 MSTORE PUSH1 0x20 PUSH1 0x4 DUP3 ADD MSTORE PUSH1 0xD PUSH1 0x24 DUP3 ADD MSTORE PUSH13 0x8CCACAE640E8DEDE40D0D2CED PUSH1 0x9B SHL PUSH1 0x44 DUP3 ADD MSTORE PUSH1 0x64 ADD PUSH3 0x22C JUMP JUMPDEST PUSH1 0x6 DUP1 SLOAD PUSH2 0xFFFF DUP5 DUP2 AND PUSH4 0xFFFFFFFF NOT SWAP1 SWAP3 AND DUP3 OR PUSH3 0x10000 SWAP2 DUP6 AND SWAP2 DUP3 MUL OR SWAP1 SWAP3 SSTORE PUSH1 0x40 DUP1 MLOAD SWAP2 DUP3 MSTORE PUSH1 0x20 DUP3 ADD SWAP3 SWAP1 SWAP3 MSTORE PUSH32 0x2AC80C14C28700F7B5E36F947D572149FE2E3947BAC32C3A8C098F3E03722C11 SWAP2 ADD PUSH1 0x40 MLOAD DUP1 SWAP2 SUB SWAP1 LOG1 POP POP JUMP JUMPDEST PUSH1 0x2 PUSH1 0x1 SLOAD SUB PUSH3 0x1EC7 JUMPI PUSH1 0x40 MLOAD PUSH4 0x3EE5AEB5 PUSH1 0xE0 SHL DUP2 MSTORE PUSH1 0x4 ADD PUSH1 0x40 MLOAD DUP1 SWAP2 SUB SWAP1 REVERT JUMPDEST PUSH1 0x2 PUSH1 0x1 SSTORE JUMP JUMPDEST PUSH1 0x40 DUP1 MLOAD PUSH1 0x1 PUSH1 0x1 PUSH1 0xA0 SHL SUB DUP5 AND PUSH1 0x24 DUP3 ADD MSTORE PUSH1 0x44 DUP1 DUP3 ADD DUP5 SWAP1 MSTORE DUP3 MLOAD DUP1 DUP4 SUB SWAP1 SWAP2 ADD DUP2 MSTORE PUSH1 0x64 SWAP1 SWAP2 ADD SWAP1 SWAP2 MSTORE PUSH1 0x20 DUP2 ADD DUP1 MLOAD PUSH1 0x1 PUSH1 0x1 PUSH1 0xE0 SHL SUB AND PUSH4 0xA9059CBB PUSH1 0xE0 SHL OR SWAP1 MSTORE PUSH3 0x135D SWAP1 DUP5 SWAP1 PUSH3 0x205A JUMP JUMPDEST PUSH1 0x0 SLOAD PUSH1 0x1 PUSH1 0x1 PUSH1 0xA0 SHL SUB AND CALLER EQ PUSH3 0x9B2 JUMPI PUSH1 0x40 MLOAD PUSH4 0x118CDAA7 PUSH1 0xE0 SHL DUP2 MSTORE CALLER PUSH1 0x4 DUP3 ADD MSTORE PUSH1 0x24 ADD PUSH3 0x22C JUMP JUMPDEST PUSH3 0x1F5B PUSH3 0x20D6 JUMP JUMPDEST PUSH1 0x2 DUP1 SLOAD PUSH1 0xFF NOT AND SWAP1 SSTORE PUSH32 0x5DB9EE0A495BF2E6FF9C91A7834C1BA4FDD244A5E8AA4E537BD38AEAE4B073AA CALLER JUMPDEST PUSH1 0x40 MLOAD PUSH1 0x1 PUSH1 0x1 PUSH1 0xA0 SHL SUB SWAP1 SWAP2 AND DUP2 MSTORE PUSH1 0x20 ADD PUSH1 0x40 MLOAD DUP1 SWAP2 SUB SWAP1 LOG1 JUMP JUMPDEST PUSH1 0x2 SLOAD PUSH1 0xFF AND ISZERO PUSH3 0x9B2 JUMPI PUSH1 0x40 MLOAD PUSH4 0xD93C0665 PUSH1 0xE0 SHL DUP2 MSTORE PUSH1 0x4 ADD PUSH1 0x40 MLOAD DUP1 SWAP2 SUB SWAP1 REVERT JUMPDEST PUSH1 0x0 DUP1 SLOAD PUSH1 0x1 PUSH1 0x1 PUSH1 0xA0 SHL SUB DUP4 DUP2 AND PUSH1 0x1 PUSH1 0x1 PUSH1 0xA0 SHL SUB NOT DUP4 AND DUP2 OR DUP5 SSTORE PUSH1 0x40 MLOAD SWAP2 SWAP1 SWAP3 AND SWAP3 DUP4 SWAP2 PUSH32 0x8BE0079C531659141344CD1FD0A4F28419497F9722A3DAAFE3B4186F6B6457E0 SWAP2 SWAP1 LOG3 POP POP JUMP JUMPDEST PUSH3 0x2024 PUSH3 0x1FA5 JUMP JUMPDEST PUSH1 0x2 DUP1 SLOAD PUSH1 0xFF NOT AND PUSH1 0x1 OR SWAP1 SSTORE PUSH32 0x62E78CEA01BEE320CD4E420270B5EA74000D11B0C9F74754EBDBFC544B05A258 PUSH3 0x1F88 CALLER SWAP1 JUMP JUMPDEST PUSH1 0x0 DUP1 PUSH1 0x20 PUSH1 0x0 DUP5 MLOAD PUSH1 0x20 DUP7 ADD PUSH1 0x0 DUP9 GAS CALL DUP1 PUSH3 0x207E JUMPI PUSH1 0x40 MLOAD RETURNDATASIZE PUSH1 0x0 DUP3 RETURNDATACOPY RETURNDATASIZE DUP2 REVERT JUMPDEST POP POP PUSH1 0x0 MLOAD RETURNDATASIZE SWAP2 POP DUP2 ISZERO PUSH3 0x2098 JUMPI DUP1 PUSH1 0x1 EQ ISZERO PUSH3 0x20A5 JUMP JUMPDEST PUSH1 0x1 PUSH1 0x1 PUSH1 0xA0 SHL SUB DUP5 AND EXTCODESIZE ISZERO JUMPDEST ISZERO PUSH3 0x20D0 JUMPI PUSH1 0x40 MLOAD PUSH4 0x5274AFE7 PUSH1 0xE0 SHL DUP2 MSTORE PUSH1 0x1 PUSH1 0x1 PUSH1 0xA0 SHL SUB DUP6 AND PUSH1 0x4 DUP3 ADD MSTORE PUSH1 0x24 ADD PUSH3 0x22C JUMP JUMPDEST POP POP POP POP JUMP JUMPDEST PUSH1 0x2 SLOAD PUSH1 0xFF AND PUSH3 0x9B2 JUMPI PUSH1 0x40 MLOAD PUSH4 0x8DFC202B PUSH1 0xE0 SHL DUP2 MSTORE PUSH1 0x4 ADD PUSH1 0x40 MLOAD DUP1 SWAP2 SUB SWAP1 REVERT JUMPDEST PUSH1 0x40 MLOAD DUP1 PUSH1 0xA0 ADD PUSH1 0x40 MSTORE DUP1 PUSH1 0x0 PUSH1 0x1 PUSH1 0x1 PUSH1 0xA0 SHL SUB AND DUP2 MSTORE PUSH1 0x20 ADD PUSH1 0x0 PUSH1 0x1 PUSH1 0x1 PUSH1 0xA0 SHL SUB AND DUP2 MSTORE PUSH1 0x20 ADD PUSH1 0x0 DUP2 MSTORE PUSH1 0x20 ADD PUSH1 0x60 DUP2 MSTORE PUSH1 0x20 ADD PUSH1 0x60 DUP2 MSTORE POP SWAP1 JUMP JUMPDEST PUSH2 0x1A50 DUP1 PUSH3 0x2C3D DUP4 CODECOPY ADD SWAP1 JUMP JUMPDEST PUSH1 0x1 PUSH1 0x1 PUSH1 0xA0 SHL SUB DUP2 AND DUP2 EQ PUSH3 0x1DE3 JUMPI PUSH1 0x0 DUP1 REVERT JUMPDEST PUSH1 0x0 DUP1 PUSH1 0x40 DUP4 DUP6 SUB SLT ISZERO PUSH3 0x2173 JUMPI PUSH1 0x0 DUP1 REVERT JUMPDEST DUP3 CALLDATALOAD PUSH3 0x2180 DUP2 PUSH3 0x2149 JUMP JUMPDEST SWAP5 PUSH1 0x20 SWAP4 SWAP1 SWAP4 ADD CALLDATALOAD SWAP4 POP POP POP JUMP JUMPDEST PUSH1 0x0 PUSH1 0x20 DUP3 DUP5 SUB SLT ISZERO PUSH3 0x21A1 JUMPI PUSH1 0x0 DUP1 REVERT JUMPDEST DUP2 CALLDATALOAD PUSH3 0x1058 DUP2 PUSH3 0x2149 JUMP JUMPDEST PUSH1 0x0 JUMPDEST DUP4 DUP2 LT ISZERO PUSH3 0x21CB JUMPI DUP2 DUP2 ADD MLOAD DUP4 DUP3 ADD MSTORE PUSH1 0x20 ADD PUSH3 0x21B1 JUMP JUMPDEST POP POP PUSH1 0x0 SWAP2 ADD MSTORE JUMP JUMPDEST PUSH1 0x0 DUP2 MLOAD DUP1 DUP5 MSTORE PUSH3 0x21EE DUP2 PUSH1 0x20 DUP7 ADD PUSH1 0x20 DUP7 ADD PUSH3 0x21AE JUMP JUMPDEST PUSH1 0x1F ADD PUSH1 0x1F NOT AND SWAP3 SWAP1 SWAP3 ADD PUSH1 0x20 ADD SWAP3 SWAP2 POP POP JUMP JUMPDEST PUSH1 0x0 PUSH1 0x1 DUP1 PUSH1 0xA0 SHL SUB DUP1 DUP11 AND DUP4 MSTORE PUSH1 0xE0 PUSH1 0x20 DUP5 ADD MSTORE PUSH3 0x2226 PUSH1 0xE0 DUP5 ADD DUP11 PUSH3 0x21D4 JUMP JUMPDEST DUP4 DUP2 SUB PUSH1 0x40 DUP6 ADD MSTORE PUSH3 0x223A DUP2 DUP11 PUSH3 0x21D4 JUMP JUMPDEST SWAP1 POP DUP4 DUP2 SUB PUSH1 0x60 DUP6 ADD MSTORE PUSH3 0x2250 DUP2 DUP10 PUSH3 0x21D4 JUMP JUMPDEST SWAP1 POP DUP4 DUP2 SUB PUSH1 0x80 DUP6 ADD MSTORE PUSH3 0x2266 DUP2 DUP9 PUSH3 0x21D4 JUMP JUMPDEST PUSH1 0xA0 DUP6 ADD SWAP7 SWAP1 SWAP7 MSTORE POP SWAP3 SWAP1 SWAP3 AND PUSH1 0xC0 SWAP1 SWAP2 ADD MSTORE POP SWAP6 SWAP5 POP POP POP POP POP JUMP JUMPDEST PUSH1 0x0 DUP1 PUSH1 0x40 DUP4 DUP6 SUB SLT ISZERO PUSH3 0x2297 JUMPI PUSH1 0x0 DUP1 REVERT JUMPDEST POP POP DUP1 CALLDATALOAD SWAP3 PUSH1 0x20 SWAP1 SWAP2 ADD CALLDATALOAD SWAP2 POP JUMP JUMPDEST PUSH1 0x0 PUSH1 0x20 DUP1 DUP4 ADD DUP2 DUP5 MSTORE DUP1 DUP6 MLOAD DUP1 DUP4 MSTORE PUSH1 0x40 SWAP3 POP DUP3 DUP7 ADD SWAP2 POP DUP3 DUP2 PUSH1 0x5 SHL DUP8 ADD ADD DUP5 DUP9 ADD PUSH1 0x0 JUMPDEST DUP4 DUP2 LT ISZERO PUSH3 0x2354 JUMPI DUP9 DUP4 SUB PUSH1 0x3F NOT ADD DUP6 MSTORE DUP2 MLOAD DUP1 MLOAD PUSH1 0x1 PUSH1 0x1 PUSH1 0xA0 SHL SUB SWAP1 DUP2 AND DUP6 MSTORE DUP9 DUP3 ADD MLOAD AND DUP9 DUP6 ADD MSTORE DUP7 DUP2 ADD MLOAD DUP8 DUP6 ADD MSTORE PUSH1 0x60 DUP1 DUP3 ADD MLOAD PUSH1 0xA0 DUP3 DUP8 ADD DUP2 SWAP1 MSTORE SWAP2 SWAP1 PUSH3 0x231F DUP4 DUP9 ADD DUP3 PUSH3 0x21D4 JUMP JUMPDEST SWAP3 POP POP POP PUSH1 0x80 DUP1 DUP4 ADD MLOAD SWAP3 POP DUP6 DUP3 SUB DUP2 DUP8 ADD MSTORE POP PUSH3 0x233F DUP2 DUP4 PUSH3 0x21D4 JUMP JUMPDEST SWAP7 DUP10 ADD SWAP7 SWAP5 POP POP POP SWAP1 DUP7 ADD SWAP1 PUSH1 0x1 ADD PUSH3 0x22CD JUMP JUMPDEST POP SWAP1 SWAP9 SWAP8 POP POP POP POP POP POP POP POP JUMP JUMPDEST PUSH1 0x0 DUP1 DUP4 PUSH1 0x1F DUP5 ADD SLT PUSH3 0x2375 JUMPI PUSH1 0x0 DUP1 REVERT JUMPDEST POP DUP2 CALLDATALOAD PUSH8 0xFFFFFFFFFFFFFFFF DUP2 GT ISZERO PUSH3 0x238E JUMPI PUSH1 0x0 DUP1 REVERT JUMPDEST PUSH1 0x20 DUP4 ADD SWAP2 POP DUP4 PUSH1 0x20 DUP3 DUP6 ADD ADD GT ISZERO PUSH3 0x23A7 JUMPI PUSH1 0x0 DUP1 REVERT JUMPDEST SWAP3 POP SWAP3 SWAP1 POP JUMP JUMPDEST PUSH1 0x0 DUP1 PUSH1 0x0 DUP1 PUSH1 0x0 PUSH1 0x60 DUP7 DUP9 SUB SLT ISZERO PUSH3 0x23C7 JUMPI PUSH1 0x0 DUP1 REVERT JUMPDEST DUP6 CALLDATALOAD PUSH3 0x23D4 DUP2 PUSH3 0x2149 JUMP JUMPDEST SWAP5 POP PUSH1 0x20 DUP7 ADD CALLDATALOAD PUSH8 0xFFFFFFFFFFFFFFFF DUP1 DUP3 GT ISZERO PUSH3 0x23F2 JUMPI PUSH1 0x0 DUP1 REVERT JUMPDEST PUSH3 0x2400 DUP10 DUP4 DUP11 ADD PUSH3 0x2362 JUMP JUMPDEST SWAP1 SWAP7 POP SWAP5 POP PUSH1 0x40 DUP9 ADD CALLDATALOAD SWAP2 POP DUP1 DUP3 GT ISZERO PUSH3 0x241A JUMPI PUSH1 0x0 DUP1 REVERT JUMPDEST POP PUSH3 0x2429 DUP9 DUP3 DUP10 ADD PUSH3 0x2362 JUMP JUMPDEST SWAP7 SWAP10 SWAP6 SWAP9 POP SWAP4 SWAP7 POP SWAP3 SWAP5 SWAP4 SWAP3 POP POP POP JUMP JUMPDEST PUSH1 0x0 PUSH1 0x20 DUP3 DUP5 SUB SLT ISZERO PUSH3 0x244D JUMPI PUSH1 0x0 DUP1 REVERT JUMPDEST POP CALLDATALOAD SWAP2 SWAP1 POP JUMP JUMPDEST PUSH1 0x1 PUSH1 0x1 PUSH1 0xA0 SHL SUB DUP7 DUP2 AND DUP3 MSTORE DUP6 AND PUSH1 0x20 DUP3 ADD MSTORE PUSH1 0x40 DUP2 ADD DUP5 SWAP1 MSTORE PUSH1 0xA0 PUSH1 0x60 DUP3 ADD DUP2 SWAP1 MSTORE PUSH1 0x0 SWAP1 PUSH3 0x2489 SWAP1 DUP4 ADD DUP6 PUSH3 0x21D4 JUMP JUMPDEST DUP3 DUP2 SUB PUSH1 0x80 DUP5 ADD MSTORE PUSH3 0x249D DUP2 DUP6 PUSH3 0x21D4 JUMP JUMPDEST SWAP9 SWAP8 POP POP POP POP POP POP POP POP JUMP JUMPDEST PUSH1 0x0 DUP1 PUSH1 0x0 PUSH1 0x60 DUP5 DUP7 SUB SLT ISZERO PUSH3 0x24BF JUMPI PUSH1 0x0 DUP1 REVERT JUMPDEST DUP4 CALLDATALOAD PUSH3 0x24CC DUP2 PUSH3 0x2149 JUMP JUMPDEST SWAP3 POP PUSH1 0x20 DUP5 ADD CALLDATALOAD SWAP2 POP PUSH1 0x40 DUP5 ADD CALLDATALOAD PUSH3 0x24E5 DUP2 PUSH3 0x2149 JUMP JUMPDEST DUP1 SWAP2 POP POP SWAP3 POP SWAP3 POP SWAP3 JUMP JUMPDEST PUSH1 0x0 DUP1 PUSH1 0x0 DUP1 PUSH1 0x0 DUP1 PUSH1 0x0 DUP1 PUSH1 0x0 DUP1 PUSH1 0xC0 DUP12 DUP14 SUB SLT ISZERO PUSH3 0x2510 JUMPI PUSH1 0x0 DUP1 REVERT JUMPDEST DUP11 CALLDATALOAD PUSH8 0xFFFFFFFFFFFFFFFF DUP1 DUP3 GT ISZERO PUSH3 0x2529 JUMPI PUSH1 0x0 DUP1 REVERT JUMPDEST PUSH3 0x2537 DUP15 DUP4 DUP16 ADD PUSH3 0x2362 JUMP JUMPDEST SWAP1 SWAP13 POP SWAP11 POP PUSH1 0x20 DUP14 ADD CALLDATALOAD SWAP2 POP DUP1 DUP3 GT ISZERO PUSH3 0x2551 JUMPI PUSH1 0x0 DUP1 REVERT JUMPDEST PUSH3 0x255F DUP15 DUP4 DUP16 ADD PUSH3 0x2362 JUMP JUMPDEST SWAP1 SWAP11 POP SWAP9 POP PUSH1 0x40 DUP14 ADD CALLDATALOAD SWAP2 POP DUP1 DUP3 GT ISZERO PUSH3 0x2579 JUMPI PUSH1 0x0 DUP1 REVERT JUMPDEST PUSH3 0x2587 DUP15 DUP4 DUP16 ADD PUSH3 0x2362 JUMP JUMPDEST SWAP1 SWAP9 POP SWAP7 POP PUSH1 0x60 DUP14 ADD CALLDATALOAD SWAP6 POP PUSH1 0x80 DUP14 ADD CALLDATALOAD SWAP5 POP PUSH1 0xA0 DUP14 ADD CALLDATALOAD SWAP2 POP DUP1 DUP3 GT ISZERO PUSH3 0x25AF JUMPI PUSH1 0x0 DUP1 REVERT JUMPDEST POP PUSH3 0x25BE DUP14 DUP3 DUP15 ADD PUSH3 0x2362 JUMP JUMPDEST SWAP2 POP DUP1 SWAP4 POP POP DUP1 SWAP2 POP POP SWAP3 SWAP6 SWAP9 SWAP12 SWAP2 SWAP5 SWAP8 SWAP11 POP SWAP3 SWAP6 SWAP9 POP JUMP JUMPDEST DUP1 CALLDATALOAD PUSH2 0xFFFF DUP2 AND DUP2 EQ PUSH3 0x25EA JUMPI PUSH1 0x0 DUP1 REVERT JUMPDEST SWAP2 SWAP1 POP JUMP JUMPDEST PUSH1 0x0 DUP1 PUSH1 0x40 DUP4 DUP6 SUB SLT ISZERO PUSH3 0x2603 JUMPI PUSH1 0x0 DUP1 REVERT JUMPDEST PUSH3 0x260E DUP4 PUSH3 0x25D7 JUMP JUMPDEST SWAP2 POP PUSH3 0x261E PUSH1 0x20 DUP5 ADD PUSH3 0x25D7 JUMP JUMPDEST SWAP1 POP SWAP3 POP SWAP3 SWAP1 POP JUMP JUMPDEST PUSH4 0x4E487B71 PUSH1 0xE0 SHL PUSH1 0x0 MSTORE PUSH1 0x11 PUSH1 0x4 MSTORE PUSH1 0x24 PUSH1 0x0 REVERT JUMPDEST DUP2 DUP2 SUB DUP2 DUP2 GT ISZERO PUSH3 0x945 JUMPI PUSH3 0x945 PUSH3 0x2627 JUMP JUMPDEST PUSH4 0x4E487B71 PUSH1 0xE0 SHL PUSH1 0x0 MSTORE PUSH1 0x32 PUSH1 0x4 MSTORE PUSH1 0x24 PUSH1 0x0 REVERT JUMPDEST PUSH1 0x20 DUP1 DUP3 MSTORE PUSH1 0xC SWAP1 DUP3 ADD MSTORE PUSH12 0x139BDD081B185D5B98DA1959 PUSH1 0xA2 SHL PUSH1 0x40 DUP3 ADD MSTORE PUSH1 0x60 ADD SWAP1 JUMP JUMPDEST DUP1 MLOAD PUSH3 0x25EA DUP2 PUSH3 0x2149 JUMP JUMPDEST PUSH4 0x4E487B71 PUSH1 0xE0 SHL PUSH1 0x0 MSTORE PUSH1 0x41 PUSH1 0x4 MSTORE PUSH1 0x24 PUSH1 0x0 REVERT JUMPDEST PUSH1 0x0 DUP3 PUSH1 0x1F DUP4 ADD SLT PUSH3 0x26C4 JUMPI PUSH1 0x0 DUP1 REVERT JUMPDEST DUP2 MLOAD PUSH8 0xFFFFFFFFFFFFFFFF DUP1 DUP3 GT ISZERO PUSH3 0x26E2 JUMPI PUSH3 0x26E2 PUSH3 0x269C JUMP JUMPDEST PUSH1 0x40 MLOAD PUSH1 0x1F DUP4 ADD PUSH1 0x1F NOT SWAP1 DUP2 AND PUSH1 0x3F ADD AND DUP2 ADD SWAP1 DUP3 DUP3 GT DUP2 DUP4 LT OR ISZERO PUSH3 0x270D JUMPI PUSH3 0x270D PUSH3 0x269C JUMP JUMPDEST DUP2 PUSH1 0x40 MSTORE DUP4 DUP2 MSTORE DUP7 PUSH1 0x20 DUP6 DUP9 ADD ADD GT ISZERO PUSH3 0x2727 JUMPI PUSH1 0x0 DUP1 REVERT JUMPDEST PUSH3 0x273A DUP5 PUSH1 0x20 DUP4 ADD PUSH1 0x20 DUP10 ADD PUSH3 0x21AE JUMP JUMPDEST SWAP7 SWAP6 POP POP POP POP POP POP JUMP JUMPDEST PUSH1 0x0 DUP1 PUSH1 0x0 DUP1 PUSH1 0x0 DUP1 PUSH1 0x0 PUSH1 0xE0 DUP9 DUP11 SUB SLT ISZERO PUSH3 0x2760 JUMPI PUSH1 0x0 DUP1 REVERT JUMPDEST PUSH3 0x276B DUP9 PUSH3 0x268F JUMP JUMPDEST SWAP7 POP PUSH1 0x20 DUP9 ADD MLOAD PUSH8 0xFFFFFFFFFFFFFFFF DUP1 DUP3 GT ISZERO PUSH3 0x2789 JUMPI PUSH1 0x0 DUP1 REVERT JUMPDEST PUSH3 0x2797 DUP12 DUP4 DUP13 ADD PUSH3 0x26B2 JUMP JUMPDEST SWAP8 POP PUSH1 0x40 DUP11 ADD MLOAD SWAP2 POP DUP1 DUP3 GT ISZERO PUSH3 0x27AE JUMPI PUSH1 0x0 DUP1 REVERT JUMPDEST PUSH3 0x27BC DUP12 DUP4 DUP13 ADD PUSH3 0x26B2 JUMP JUMPDEST SWAP7 POP PUSH1 0x60 DUP11 ADD MLOAD SWAP2 POP DUP1 DUP3 GT ISZERO PUSH3 0x27D3 JUMPI PUSH1 0x0 DUP1 REVERT JUMPDEST PUSH3 0x27E1 DUP12 DUP4 DUP13 ADD PUSH3 0x26B2 JUMP JUMPDEST SWAP6 POP PUSH1 0x80 DUP11 ADD MLOAD SWAP2 POP DUP1 DUP3 GT ISZERO PUSH3 0x27F8 JUMPI PUSH1 0x0 DUP1 REVERT JUMPDEST POP PUSH3 0x2807 DUP11 DUP3 DUP12 ADD PUSH3 0x26B2 JUMP JUMPDEST SWAP4 POP POP PUSH1 0xA0 DUP9 ADD MLOAD SWAP2 POP PUSH3 0x281F PUSH1 0xC0 DUP10 ADD PUSH3 0x268F JUMP JUMPDEST SWAP1 POP SWAP3 SWAP6 SWAP9 SWAP2 SWAP5 SWAP8 POP SWAP3 SWAP6 POP JUMP JUMPDEST PUSH1 0x0 PUSH1 0x20 DUP3 DUP5 SUB SLT ISZERO PUSH3 0x2840 JUMPI PUSH1 0x0 DUP1 REVERT JUMPDEST POP MLOAD SWAP2 SWAP1 POP JUMP JUMPDEST DUP1 DUP3 ADD DUP1 DUP3 GT ISZERO PUSH3 0x945 JUMPI PUSH3 0x945 PUSH3 0x2627 JUMP JUMPDEST PUSH1 0x1 DUP2 DUP2 SHR SWAP1 DUP3 AND DUP1 PUSH3 0x2872 JUMPI PUSH1 0x7F DUP3 AND SWAP2 POP JUMPDEST PUSH1 0x20 DUP3 LT DUP2 SUB PUSH3 0x2893 JUMPI PUSH4 0x4E487B71 PUSH1 0xE0 SHL PUSH1 0x0 MSTORE PUSH1 0x22 PUSH1 0x4 MSTORE PUSH1 0x24 PUSH1 0x0 REVERT JUMPDEST POP SWAP2 SWAP1 POP JUMP JUMPDEST PUSH1 0x0 PUSH1 0x1 DUP3 ADD PUSH3 0x28AE JUMPI PUSH3 0x28AE PUSH3 0x2627 JUMP JUMPDEST POP PUSH1 0x1 ADD SWAP1 JUMP JUMPDEST PUSH1 0x1F DUP3 GT ISZERO PUSH3 0x135D JUMPI PUSH1 0x0 DUP2 DUP2 MSTORE PUSH1 0x20 DUP2 KECCAK256 PUSH1 0x1F DUP6 ADD PUSH1 0x5 SHR DUP2 ADD PUSH1 0x20 DUP7 LT ISZERO PUSH3 0x28DE JUMPI POP DUP1 JUMPDEST PUSH1 0x1F DUP6 ADD PUSH1 0x5 SHR DUP3 ADD SWAP2 POP JUMPDEST DUP2 DUP2 LT ISZERO PUSH3 0x28FF JUMPI DUP3 DUP2 SSTORE PUSH1 0x1 ADD PUSH3 0x28EA JUMP JUMPDEST POP POP POP POP POP POP JUMP JUMPDEST PUSH8 0xFFFFFFFFFFFFFFFF DUP4 GT ISZERO PUSH3 0x2922 JUMPI PUSH3 0x2922 PUSH3 0x269C JUMP JUMPDEST PUSH3 0x293A DUP4 PUSH3 0x2933 DUP4 SLOAD PUSH3 0x285D JUMP JUMPDEST DUP4 PUSH3 0x28B5 JUMP JUMPDEST PUSH1 0x0 PUSH1 0x1F DUP5 GT PUSH1 0x1 DUP2 EQ PUSH3 0x2971 JUMPI PUSH1 0x0 DUP6 ISZERO PUSH3 0x2958 JUMPI POP DUP4 DUP3 ADD CALLDATALOAD JUMPDEST PUSH1 0x0 NOT PUSH1 0x3 DUP8 SWAP1 SHL SHR NOT AND PUSH1 0x1 DUP7 SWAP1 SHL OR DUP4 SSTORE PUSH3 0x29CE JUMP JUMPDEST PUSH1 0x0 DUP4 DUP2 MSTORE PUSH1 0x20 SWAP1 KECCAK256 PUSH1 0x1F NOT DUP7 AND SWAP1 DUP4 JUMPDEST DUP3 DUP2 LT ISZERO PUSH3 0x29A4 JUMPI DUP7 DUP6 ADD CALLDATALOAD DUP3 SSTORE PUSH1 0x20 SWAP5 DUP6 ADD SWAP5 PUSH1 0x1 SWAP1 SWAP3 ADD SWAP2 ADD PUSH3 0x2982 JUMP JUMPDEST POP DUP7 DUP3 LT ISZERO PUSH3 0x29C2 JUMPI PUSH1 0x0 NOT PUSH1 0xF8 DUP9 PUSH1 0x3 SHL AND SHR NOT DUP5 DUP8 ADD CALLDATALOAD AND DUP2 SSTORE JUMPDEST POP POP PUSH1 0x1 DUP6 PUSH1 0x1 SHL ADD DUP4 SSTORE JUMPDEST POP POP POP POP POP JUMP JUMPDEST DUP2 DUP4 MSTORE DUP2 DUP2 PUSH1 0x20 DUP6 ADD CALLDATACOPY POP PUSH1 0x0 DUP3 DUP3 ADD PUSH1 0x20 SWAP1 DUP2 ADD SWAP2 SWAP1 SWAP2 MSTORE PUSH1 0x1F SWAP1 SWAP2 ADD PUSH1 0x1F NOT AND SWAP1 SWAP2 ADD ADD SWAP1 JUMP JUMPDEST PUSH1 0x40 DUP2 MSTORE PUSH1 0x0 PUSH3 0x2A14 PUSH1 0x40 DUP4 ADD DUP7 DUP9 PUSH3 0x29D5 JUMP JUMPDEST DUP3 DUP2 SUB PUSH1 0x20 DUP5 ADD MSTORE PUSH3 0x2A29 DUP2 DUP6 DUP8 PUSH3 0x29D5 JUMP JUMPDEST SWAP8 SWAP7 POP POP POP POP POP POP POP JUMP JUMPDEST DUP1 DUP3 MUL DUP2 ISZERO DUP3 DUP3 DIV DUP5 EQ OR PUSH3 0x945 JUMPI PUSH3 0x945 PUSH3 0x2627 JUMP JUMPDEST PUSH1 0x0 DUP3 PUSH3 0x2A6C JUMPI PUSH4 0x4E487B71 PUSH1 0xE0 SHL PUSH1 0x0 MSTORE PUSH1 0x12 PUSH1 0x4 MSTORE PUSH1 0x24 PUSH1 0x0 REVERT JUMPDEST POP DIV SWAP1 JUMP JUMPDEST PUSH1 0x0 PUSH1 0x20 DUP3 DUP5 SUB SLT ISZERO PUSH3 0x2A84 JUMPI PUSH1 0x0 DUP1 REVERT JUMPDEST DUP2 MLOAD PUSH8 0xFFFFFFFFFFFFFFFF DUP2 GT ISZERO PUSH3 0x2A9C JUMPI PUSH1 0x0 DUP1 REVERT JUMPDEST PUSH3 0x2AAA DUP5 DUP3 DUP6 ADD PUSH3 0x26B2 JUMP JUMPDEST SWAP5 SWAP4 POP POP POP POP JUMP JUMPDEST PUSH1 0xA0 DUP2 MSTORE PUSH1 0x0 PUSH3 0x2AC8 PUSH1 0xA0 DUP4 ADD DUP11 DUP13 PUSH3 0x29D5 JUMP JUMPDEST DUP3 DUP2 SUB PUSH1 0x20 DUP5 ADD MSTORE PUSH3 0x2ADD DUP2 DUP10 DUP12 PUSH3 0x29D5 JUMP JUMPDEST PUSH1 0x40 DUP5 ADD DUP9 SWAP1 MSTORE PUSH1 0x1 PUSH1 0x1 PUSH1 0xA0 SHL SUB DUP8 AND PUSH1 0x60 DUP6 ADD MSTORE DUP4 DUP2 SUB PUSH1 0x80 DUP6 ADD MSTORE SWAP1 POP PUSH3 0x2B0A DUP2 DUP6 DUP8 PUSH3 0x29D5 JUMP JUMPDEST SWAP12 SWAP11 POP POP POP POP POP POP POP POP POP POP POP JUMP JUMPDEST DUP2 MLOAD PUSH8 0xFFFFFFFFFFFFFFFF DUP2 GT ISZERO PUSH3 0x2B36 JUMPI PUSH3 0x2B36 PUSH3 0x269C JUMP JUMPDEST PUSH3 0x2B4E DUP2 PUSH3 0x2B47 DUP5 SLOAD PUSH3 0x285D JUMP JUMPDEST DUP5 PUSH3 0x28B5 JUMP JUMPDEST PUSH1 0x20 DUP1 PUSH1 0x1F DUP4 GT PUSH1 0x1 DUP2 EQ PUSH3 0x2B86 JUMPI PUSH1 0x0 DUP5 ISZERO PUSH3 0x2B6D JUMPI POP DUP6 DUP4 ADD MLOAD JUMPDEST PUSH1 0x0 NOT PUSH1 0x3 DUP7 SWAP1 SHL SHR NOT AND PUSH1 0x1 DUP6 SWAP1 SHL OR DUP6 SSTORE PUSH3 0x28FF JUMP JUMPDEST PUSH1 0x0 DUP6 DUP2 MSTORE PUSH1 0x20 DUP2 KECCAK256 PUSH1 0x1F NOT DUP7 AND SWAP2 JUMPDEST DUP3 DUP2 LT ISZERO PUSH3 0x2BB7 JUMPI DUP9 DUP7 ADD MLOAD DUP3 SSTORE SWAP5 DUP5 ADD SWAP5 PUSH1 0x1 SWAP1 SWAP2 ADD SWAP1 DUP5 ADD PUSH3 0x2B96 JUMP JUMPDEST POP DUP6 DUP3 LT ISZERO PUSH3 0x2BD6 JUMPI DUP8 DUP6 ADD MLOAD PUSH1 0x0 NOT PUSH1 0x3 DUP9 SWAP1 SHL PUSH1 0xF8 AND SHR NOT AND DUP2 SSTORE JUMPDEST POP POP POP POP POP PUSH1 0x1 SWAP1 DUP2 SHL ADD SWAP1 SSTORE POP JUMP JUMPDEST DUP6 DUP2 MSTORE PUSH1 0x60 PUSH1 0x20 DUP3 ADD MSTORE PUSH1 0x0 PUSH3 0x2C02 PUSH1 0x60 DUP4 ADD DUP7 DUP9 PUSH3 0x29D5 JUMP JUMPDEST DUP3 DUP2 SUB PUSH1 0x40 DUP5 ADD MSTORE PUSH3 0x249D DUP2 DUP6 DUP8 PUSH3 0x29D5 JUMP JUMPDEST PUSH2 0xFFFF DUP2 DUP2 AND DUP4 DUP3 AND ADD SWAP1 DUP1 DUP3 GT ISZERO PUSH3 0x2C35 JUMPI PUSH3 0x2C35 PUSH3 0x2627 JUMP JUMPDEST POP SWAP3 SWAP2 POP POP JUMP INVALID PUSH2 0x160 PUSH1 0x40 MSTORE CALLVALUE DUP1 ISZERO PUSH3 0x12 JUMPI PUSH1 0x0 DUP1 REVERT JUMPDEST POP PUSH1 0x40 MLOAD PUSH3 0x1A50 CODESIZE SUB DUP1 PUSH3 0x1A50 DUP4 CODECOPY DUP2 ADD PUSH1 0x40 DUP2 SWAP1 MSTORE PUSH3 0x35 SWAP2 PUSH3 0x598 JUMP JUMPDEST CALLER DUP6 DUP1 PUSH1 0x40 MLOAD DUP1 PUSH1 0x40 ADD PUSH1 0x40 MSTORE DUP1 PUSH1 0x1 DUP2 MSTORE PUSH1 0x20 ADD PUSH1 0x31 PUSH1 0xF8 SHL DUP2 MSTORE POP DUP9 DUP9 DUP2 PUSH1 0x3 SWAP1 DUP2 PUSH3 0x65 SWAP2 SWAP1 PUSH3 0x6E4 JUMP JUMPDEST POP PUSH1 0x4 PUSH3 0x74 DUP3 DUP3 PUSH3 0x6E4 JUMP JUMPDEST POP PUSH3 0x86 SWAP2 POP DUP4 SWAP1 POP PUSH1 0x5 PUSH3 0x217 JUMP JUMPDEST PUSH2 0x120 MSTORE PUSH3 0x97 DUP2 PUSH1 0x6 PUSH3 0x217 JUMP JUMPDEST PUSH2 0x140 MSTORE DUP2 MLOAD PUSH1 0x20 DUP1 DUP5 ADD SWAP2 SWAP1 SWAP2 KECCAK256 PUSH1 0xE0 MSTORE DUP2 MLOAD SWAP1 DUP3 ADD KECCAK256 PUSH2 0x100 MSTORE CHAINID PUSH1 0xA0 MSTORE PUSH3 0x125 PUSH1 0xE0 MLOAD PUSH2 0x100 MLOAD PUSH1 0x40 DUP1 MLOAD PUSH32 0x8B73C3C69BB8FE3D512ECC4CF759CC79239F7B179B0FFACAA9A75D522B39400F PUSH1 0x20 DUP3 ADD MSTORE SWAP1 DUP2 ADD SWAP3 SWAP1 SWAP3 MSTORE PUSH1 0x60 DUP3 ADD MSTORE CHAINID PUSH1 0x80 DUP3 ADD MSTORE ADDRESS PUSH1 0xA0 DUP3 ADD MSTORE PUSH1 0x0 SWAP1 PUSH1 0xC0 ADD PUSH1 0x40 MLOAD PUSH1 0x20 DUP2 DUP4 SUB SUB DUP2 MSTORE SWAP1 PUSH1 0x40 MSTORE DUP1 MLOAD SWAP1 PUSH1 0x20 ADD KECCAK256 SWAP1 POP SWAP1 JUMP JUMPDEST PUSH1 0x80 MSTORE POP POP ADDRESS PUSH1 0xC0 MSTORE POP PUSH1 0x1 PUSH1 0x1 PUSH1 0xA0 SHL SUB DUP2 AND PUSH3 0x15F JUMPI PUSH1 0x40 MLOAD PUSH4 0x1E4FBDF7 PUSH1 0xE0 SHL DUP2 MSTORE PUSH1 0x0 PUSH1 0x4 DUP3 ADD MSTORE PUSH1 0x24 ADD JUMPDEST PUSH1 0x40 MLOAD DUP1 SWAP2 SUB SWAP1 REVERT JUMPDEST PUSH3 0x16A DUP2 PUSH3 0x250 JUMP JUMPDEST POP PUSH1 0x1 PUSH1 0x1 PUSH1 0xA0 SHL SUB DUP3 AND PUSH3 0x193 JUMPI PUSH1 0x40 MLOAD PUSH4 0xD92E233D PUSH1 0xE0 SHL DUP2 MSTORE PUSH1 0x4 ADD PUSH1 0x40 MLOAD DUP1 SWAP2 SUB SWAP1 REVERT JUMPDEST PUSH1 0x3 DUP6 MLOAD LT DUP1 PUSH3 0x1A5 JUMPI POP PUSH1 0x3 DUP5 MLOAD LT JUMPDEST ISZERO PUSH3 0x1C4 JUMPI PUSH1 0x40 MLOAD PUSH4 0x94322419 PUSH1 0xE0 SHL DUP2 MSTORE PUSH1 0x4 ADD PUSH1 0x40 MLOAD DUP1 SWAP2 SUB SWAP1 REVERT JUMPDEST DUP3 PUSH1 0x0 SUB PUSH3 0x1E6 JUMPI PUSH1 0x40 MLOAD PUSH4 0xC16F3A93 PUSH1 0xE0 SHL DUP2 MSTORE PUSH1 0x4 ADD PUSH1 0x40 MLOAD DUP1 SWAP2 SUB SWAP1 REVERT JUMPDEST PUSH1 0x9 PUSH3 0x1F4 DUP3 DUP3 PUSH3 0x6E4 JUMP JUMPDEST POP PUSH3 0x201 CALLER DUP5 PUSH3 0x2A2 JUMP JUMPDEST PUSH3 0x20C DUP3 PUSH3 0x2E0 JUMP JUMPDEST POP POP POP POP POP PUSH3 0x82C JUMP JUMPDEST PUSH1 0x0 PUSH1 0x20 DUP4 MLOAD LT ISZERO PUSH3 0x237 JUMPI PUSH3 0x22F DUP4 PUSH3 0x324 JUMP JUMPDEST SWAP1 POP PUSH3 0x24A JUMP JUMPDEST DUP2 PUSH3 0x244 DUP5 DUP3 PUSH3 0x6E4 JUMP JUMPDEST POP PUSH1 0xFF SWAP1 POP JUMPDEST SWAP3 SWAP2 POP POP JUMP JUMPDEST PUSH1 0x8 DUP1 SLOAD PUSH1 0x1 PUSH1 0x1 PUSH1 0xA0 SHL SUB DUP4 DUP2 AND PUSH1 0x1 PUSH1 0x1 PUSH1 0xA0 SHL SUB NOT DUP4 AND DUP2 OR SWAP1 SWAP4 SSTORE PUSH1 0x40 MLOAD SWAP2 AND SWAP2 SWAP1 DUP3 SWAP1 PUSH32 0x8BE0079C531659141344CD1FD0A4F28419497F9722A3DAAFE3B4186F6B6457E0 SWAP1 PUSH1 0x0 SWAP1 LOG3 POP POP JUMP JUMPDEST PUSH1 0x1 PUSH1 0x1 PUSH1 0xA0 SHL SUB DUP3 AND PUSH3 0x2CE JUMPI PUSH1 0x40 MLOAD PUSH4 0xEC442F05 PUSH1 0xE0 SHL DUP2 MSTORE PUSH1 0x0 PUSH1 0x4 DUP3 ADD MSTORE PUSH1 0x24 ADD PUSH3 0x156 JUMP JUMPDEST PUSH3 0x2DC PUSH1 0x0 DUP4 DUP4 PUSH3 0x367 JUMP JUMPDEST POP POP JUMP JUMPDEST PUSH3 0x2EA PUSH3 0x49A JUMP JUMPDEST PUSH1 0x1 PUSH1 0x1 PUSH1 0xA0 SHL SUB DUP2 AND PUSH3 0x316 JUMPI PUSH1 0x40 MLOAD PUSH4 0x1E4FBDF7 PUSH1 0xE0 SHL DUP2 MSTORE PUSH1 0x0 PUSH1 0x4 DUP3 ADD MSTORE PUSH1 0x24 ADD PUSH3 0x156 JUMP JUMPDEST PUSH3 0x321 DUP2 PUSH3 0x250 JUMP JUMPDEST POP JUMP JUMPDEST PUSH1 0x0 DUP1 DUP3 SWAP1 POP PUSH1 0x1F DUP2 MLOAD GT ISZERO PUSH3 0x352 JUMPI DUP3 PUSH1 0x40 MLOAD PUSH4 0x305A27A9 PUSH1 0xE0 SHL DUP2 MSTORE PUSH1 0x4 ADD PUSH3 0x156 SWAP2 SWAP1 PUSH3 0x7B0 JUMP JUMPDEST DUP1 MLOAD PUSH3 0x35F DUP3 PUSH3 0x7E5 JUMP JUMPDEST OR SWAP4 SWAP3 POP POP POP JUMP JUMPDEST PUSH1 0x1 PUSH1 0x1 PUSH1 0xA0 SHL SUB DUP4 AND PUSH3 0x396 JUMPI DUP1 PUSH1 0x2 PUSH1 0x0 DUP3 DUP3 SLOAD PUSH3 0x38A SWAP2 SWAP1 PUSH3 0x80A JUMP JUMPDEST SWAP1 SWAP2 SSTORE POP PUSH3 0x40A SWAP1 POP JUMP JUMPDEST PUSH1 0x1 PUSH1 0x1 PUSH1 0xA0 SHL SUB DUP4 AND PUSH1 0x0 SWAP1 DUP2 MSTORE PUSH1 0x20 DUP2 SWAP1 MSTORE PUSH1 0x40 SWAP1 KECCAK256 SLOAD DUP2 DUP2 LT ISZERO PUSH3 0x3EB JUMPI PUSH1 0x40 MLOAD PUSH4 0x391434E3 PUSH1 0xE2 SHL DUP2 MSTORE PUSH1 0x1 PUSH1 0x1 PUSH1 0xA0 SHL SUB DUP6 AND PUSH1 0x4 DUP3 ADD MSTORE PUSH1 0x24 DUP2 ADD DUP3 SWAP1 MSTORE PUSH1 0x44 DUP2 ADD DUP4 SWAP1 MSTORE PUSH1 0x64 ADD PUSH3 0x156 JUMP JUMPDEST PUSH1 0x1 PUSH1 0x1 PUSH1 0xA0 SHL SUB DUP5 AND PUSH1 0x0 SWAP1 DUP2 MSTORE PUSH1 0x20 DUP2 SWAP1 MSTORE PUSH1 0x40 SWAP1 KECCAK256 SWAP1 DUP3 SWAP1 SUB SWAP1 SSTORE JUMPDEST PUSH1 0x1 PUSH1 0x1 PUSH1 0xA0 SHL SUB DUP3 AND PUSH3 0x428 JUMPI PUSH1 0x2 DUP1 SLOAD DUP3 SWAP1 SUB SWAP1 SSTORE PUSH3 0x447 JUMP JUMPDEST PUSH1 0x1 PUSH1 0x1 PUSH1 0xA0 SHL SUB DUP3 AND PUSH1 0x0 SWAP1 DUP2 MSTORE PUSH1 0x20 DUP2 SWAP1 MSTORE PUSH1 0x40 SWAP1 KECCAK256 DUP1 SLOAD DUP3 ADD SWAP1 SSTORE JUMPDEST DUP2 PUSH1 0x1 PUSH1 0x1 PUSH1 0xA0 SHL SUB AND DUP4 PUSH1 0x1 PUSH1 0x1 PUSH1 0xA0 SHL SUB AND PUSH32 0xDDF252AD1BE2C89B69C2B068FC378DAA952BA7F163C4A11628F55A4DF523B3EF DUP4 PUSH1 0x40 MLOAD PUSH3 0x48D SWAP2 DUP2 MSTORE PUSH1 0x20 ADD SWAP1 JUMP JUMPDEST PUSH1 0x40 MLOAD DUP1 SWAP2 SUB SWAP1 LOG3 POP POP POP JUMP JUMPDEST PUSH1 0x8 SLOAD PUSH1 0x1 PUSH1 0x1 PUSH1 0xA0 SHL SUB AND CALLER EQ PUSH3 0x4C9 JUMPI PUSH1 0x40 MLOAD PUSH4 0x118CDAA7 PUSH1 0xE0 SHL DUP2 MSTORE CALLER PUSH1 0x4 DUP3 ADD MSTORE PUSH1 0x24 ADD PUSH3 0x156 JUMP JUMPDEST JUMP JUMPDEST PUSH4 0x4E487B71 PUSH1 0xE0 SHL PUSH1 0x0 MSTORE PUSH1 0x41 PUSH1 0x4 MSTORE PUSH1 0x24 PUSH1 0x0 REVERT JUMPDEST PUSH1 0x0 JUMPDEST DUP4 DUP2 LT ISZERO PUSH3 0x4FE JUMPI DUP2 DUP2 ADD MLOAD DUP4 DUP3 ADD MSTORE PUSH1 0x20 ADD PUSH3 0x4E4 JUMP JUMPDEST POP POP PUSH1 0x0 SWAP2 ADD MSTORE JUMP JUMPDEST PUSH1 0x0 DUP3 PUSH1 0x1F DUP4 ADD SLT PUSH3 0x519 JUMPI PUSH1 0x0 DUP1 REVERT JUMPDEST DUP2 MLOAD PUSH1 0x1 PUSH1 0x1 PUSH1 0x40 SHL SUB DUP1 DUP3 GT ISZERO PUSH3 0x536 JUMPI PUSH3 0x536 PUSH3 0x4CB JUMP JUMPDEST PUSH1 0x40 MLOAD PUSH1 0x1F DUP4 ADD PUSH1 0x1F NOT SWAP1 DUP2 AND PUSH1 0x3F ADD AND DUP2 ADD SWAP1 DUP3 DUP3 GT DUP2 DUP4 LT OR ISZERO PUSH3 0x561 JUMPI PUSH3 0x561 PUSH3 0x4CB JUMP JUMPDEST DUP2 PUSH1 0x40 MSTORE DUP4 DUP2 MSTORE DUP7 PUSH1 0x20 DUP6 DUP9 ADD ADD GT ISZERO PUSH3 0x57B JUMPI PUSH1 0x0 DUP1 REVERT JUMPDEST PUSH3 0x58E DUP5 PUSH1 0x20 DUP4 ADD PUSH1 0x20 DUP10 ADD PUSH3 0x4E1 JUMP JUMPDEST SWAP7 SWAP6 POP POP POP POP POP POP JUMP JUMPDEST PUSH1 0x0 DUP1 PUSH1 0x0 DUP1 PUSH1 0x0 PUSH1 0xA0 DUP7 DUP9 SUB SLT ISZERO PUSH3 0x5B1 JUMPI PUSH1 0x0 DUP1 REVERT JUMPDEST DUP6 MLOAD PUSH1 0x1 PUSH1 0x1 PUSH1 0x40 SHL SUB DUP1 DUP3 GT ISZERO PUSH3 0x5C9 JUMPI PUSH1 0x0 DUP1 REVERT JUMPDEST PUSH3 0x5D7 DUP10 DUP4 DUP11 ADD PUSH3 0x507 JUMP JUMPDEST SWAP7 POP PUSH1 0x20 DUP9 ADD MLOAD SWAP2 POP DUP1 DUP3 GT ISZERO PUSH3 0x5EE JUMPI PUSH1 0x0 DUP1 REVERT JUMPDEST PUSH3 0x5FC DUP10 DUP4 DUP11 ADD PUSH3 0x507 JUMP JUMPDEST PUSH1 0x40 DUP10 ADD MLOAD PUSH1 0x60 DUP11 ADD MLOAD SWAP2 SWAP8 POP SWAP6 POP SWAP2 POP PUSH1 0x1 PUSH1 0x1 PUSH1 0xA0 SHL SUB DUP3 AND DUP3 EQ PUSH3 0x623 JUMPI PUSH1 0x0 DUP1 REVERT JUMPDEST PUSH1 0x80 DUP9 ADD MLOAD SWAP2 SWAP4 POP DUP1 DUP3 GT ISZERO PUSH3 0x639 JUMPI PUSH1 0x0 DUP1 REVERT JUMPDEST POP PUSH3 0x648 DUP9 DUP3 DUP10 ADD PUSH3 0x507 JUMP JUMPDEST SWAP2 POP POP SWAP3 SWAP6 POP SWAP3 SWAP6 SWAP1 SWAP4 POP JUMP JUMPDEST PUSH1 0x1 DUP2 DUP2 SHR SWAP1 DUP3 AND DUP1 PUSH3 0x66A JUMPI PUSH1 0x7F DUP3 AND SWAP2 POP JUMPDEST PUSH1 0x20 DUP3 LT DUP2 SUB PUSH3 0x68B JUMPI PUSH4 0x4E487B71 PUSH1 0xE0 SHL PUSH1 0x0 MSTORE PUSH1 0x22 PUSH1 0x4 MSTORE PUSH1 0x24 PUSH1 0x0 REVERT JUMPDEST POP SWAP2 SWAP1 POP JUMP JUMPDEST PUSH1 0x1F DUP3 GT ISZERO PUSH3 0x6DF JUMPI PUSH1 0x0 DUP2 DUP2 MSTORE PUSH1 0x20 DUP2 KECCAK256 PUSH1 0x1F DUP6 ADD PUSH1 0x5 SHR DUP2 ADD PUSH1 0x20 DUP7 LT ISZERO PUSH3 0x6BA JUMPI POP DUP1 JUMPDEST PUSH1 0x1F DUP6 ADD PUSH1 0x5 SHR DUP3 ADD SWAP2 POP JUMPDEST DUP2 DUP2 LT ISZERO PUSH3 0x6DB JUMPI DUP3 DUP2 SSTORE PUSH1 0x1 ADD PUSH3 0x6C6 JUMP JUMPDEST POP POP POP JUMPDEST POP POP POP JUMP JUMPDEST DUP2 MLOAD PUSH1 0x1 PUSH1 0x1 PUSH1 0x40 SHL SUB DUP2 GT ISZERO PUSH3 0x700 JUMPI PUSH3 0x700 PUSH3 0x4CB JUMP JUMPDEST PUSH3 0x718 DUP2 PUSH3 0x711 DUP5 SLOAD PUSH3 0x655 JUMP JUMPDEST DUP5 PUSH3 0x691 JUMP JUMPDEST PUSH1 0x20 DUP1 PUSH1 0x1F DUP4 GT PUSH1 0x1 DUP2 EQ PUSH3 0x750 JUMPI PUSH1 0x0 DUP5 ISZERO PUSH3 0x737 JUMPI POP DUP6 DUP4 ADD MLOAD JUMPDEST PUSH1 0x0 NOT PUSH1 0x3 DUP7 SWAP1 SHL SHR NOT AND PUSH1 0x1 DUP6 SWAP1 SHL OR DUP6 SSTORE PUSH3 0x6DB JUMP JUMPDEST PUSH1 0x0 DUP6 DUP2 MSTORE PUSH1 0x20 DUP2 KECCAK256 PUSH1 0x1F NOT DUP7 AND SWAP2 JUMPDEST DUP3 DUP2 LT ISZERO PUSH3 0x781 JUMPI DUP9 DUP7 ADD MLOAD DUP3 SSTORE SWAP5 DUP5 ADD SWAP5 PUSH1 0x1 SWAP1 SWAP2 ADD SWAP1 DUP5 ADD PUSH3 0x760 JUMP JUMPDEST POP DUP6 DUP3 LT ISZERO PUSH3 0x7A0 JUMPI DUP8 DUP6 ADD MLOAD PUSH1 0x0 NOT PUSH1 0x3 DUP9 SWAP1 SHL PUSH1 0xF8 AND SHR NOT AND DUP2 SSTORE JUMPDEST POP POP POP POP POP PUSH1 0x1 SWAP1 DUP2 SHL ADD SWAP1 SSTORE POP JUMP JUMPDEST PUSH1 0x20 DUP2 MSTORE PUSH1 0x0 DUP3 MLOAD DUP1 PUSH1 0x20 DUP5 ADD MSTORE PUSH3 0x7D1 DUP2 PUSH1 0x40 DUP6 ADD PUSH1 0x20 DUP8 ADD PUSH3 0x4E1 JUMP JUMPDEST PUSH1 0x1F ADD PUSH1 0x1F NOT AND SWAP2 SWAP1 SWAP2 ADD PUSH1 0x40 ADD SWAP3 SWAP2 POP POP JUMP JUMPDEST DUP1 MLOAD PUSH1 0x20 DUP1 DUP4 ADD MLOAD SWAP2 SWAP1 DUP2 LT ISZERO PUSH3 0x68B JUMPI PUSH1 0x0 NOT PUSH1 0x20 SWAP2 SWAP1 SWAP2 SUB PUSH1 0x3 SHL SHL AND SWAP2 SWAP1 POP JUMP JUMPDEST DUP1 DUP3 ADD DUP1 DUP3 GT ISZERO PUSH3 0x24A JUMPI PUSH4 0x4E487B71 PUSH1 0xE0 SHL PUSH1 0x0 MSTORE PUSH1 0x11 PUSH1 0x4 MSTORE PUSH1 0x24 PUSH1 0x0 REVERT JUMPDEST PUSH1 0x80 MLOAD PUSH1 0xA0 MLOAD PUSH1 0xC0 MLOAD PUSH1 0xE0 MLOAD PUSH2 0x100 MLOAD PUSH2 0x120 MLOAD PUSH2 0x140 MLOAD PUSH2 0x11C9 PUSH3 0x887 PUSH1 0x0 CODECOPY PUSH1 0x0 PUSH2 0x913 ADD MSTORE PUSH1 0x0 PUSH2 0x8E6 ADD MSTORE PUSH1 0x0 PUSH2 0x80F ADD MSTORE PUSH1 0x0 PUSH2 0x7E7 ADD MSTORE PUSH1 0x0 PUSH2 0x742 ADD MSTORE PUSH1 0x0 PUSH2 0x76C ADD MSTORE PUSH1 0x0 PUSH2 0x796 ADD MSTORE PUSH2 0x11C9 PUSH1 0x0 RETURN INVALID PUSH1 0x80 PUSH1 0x40 MSTORE CALLVALUE DUP1 ISZERO PUSH2 0x10 JUMPI PUSH1 0x0 DUP1 REVERT JUMPDEST POP PUSH1 0x4 CALLDATASIZE LT PUSH2 0x116 JUMPI PUSH1 0x0 CALLDATALOAD PUSH1 0xE0 SHR DUP1 PUSH4 0x7ECEBE00 GT PUSH2 0xA2 JUMPI DUP1 PUSH4 0xA9059CBB GT PUSH2 0x71 JUMPI DUP1 PUSH4 0xA9059CBB EQ PUSH2 0x224 JUMPI DUP1 PUSH4 0xC623674F EQ PUSH2 0x237 JUMPI DUP1 PUSH4 0xD505ACCF EQ PUSH2 0x23F JUMPI DUP1 PUSH4 0xDD62ED3E EQ PUSH2 0x252 JUMPI DUP1 PUSH4 0xF2FDE38B EQ PUSH2 0x28B JUMPI PUSH1 0x0 DUP1 REVERT JUMPDEST DUP1 PUSH4 0x7ECEBE00 EQ PUSH2 0x1D3 JUMPI DUP1 PUSH4 0x84B0196E EQ PUSH2 0x1E6 JUMPI DUP1 PUSH4 0x8DA5CB5B EQ PUSH2 0x201 JUMPI DUP1 PUSH4 0x95D89B41 EQ PUSH2 0x21C JUMPI PUSH1 0x0 DUP1 REVERT JUMPDEST DUP1 PUSH4 0x313CE567 GT PUSH2 0xE9 JUMPI DUP1 PUSH4 0x313CE567 EQ PUSH2 0x181 JUMPI DUP1 PUSH4 0x3644E515 EQ PUSH2 0x190 JUMPI DUP1 PUSH4 0x3C130D90 EQ PUSH2 0x198 JUMPI DUP1 PUSH4 0x70A08231 EQ PUSH2 0x1A0 JUMPI DUP1 PUSH4 0x715018A6 EQ PUSH2 0x1C9 JUMPI PUSH1 0x0 DUP1 REVERT JUMPDEST DUP1 PUSH4 0x6FDDE03 EQ PUSH2 0x11B JUMPI DUP1 PUSH4 0x95EA7B3 EQ PUSH2 0x139 JUMPI DUP1 PUSH4 0x18160DDD EQ PUSH2 0x15C JUMPI DUP1 PUSH4 0x23B872DD EQ PUSH2 0x16E JUMPI JUMPDEST PUSH1 0x0 DUP1 REVERT JUMPDEST PUSH2 0x123 PUSH2 0x29E JUMP JUMPDEST PUSH1 0x40 MLOAD PUSH2 0x130 SWAP2 SWAP1 PUSH2 0xE77 JUMP JUMPDEST PUSH1 0x40 MLOAD DUP1 SWAP2 SUB SWAP1 RETURN JUMPDEST PUSH2 0x14C PUSH2 0x147 CALLDATASIZE PUSH1 0x4 PUSH2 0xEAD JUMP JUMPDEST PUSH2 0x330 JUMP JUMPDEST PUSH1 0x40 MLOAD SWAP1 ISZERO ISZERO DUP2 MSTORE PUSH1 0x20 ADD PUSH2 0x130 JUMP JUMPDEST PUSH1 0x2 SLOAD JUMPDEST PUSH1 0x40 MLOAD SWAP1 DUP2 MSTORE PUSH1 0x20 ADD PUSH2 0x130 JUMP JUMPDEST PUSH2 0x14C PUSH2 0x17C CALLDATASIZE PUSH1 0x4 PUSH2 0xED7 JUMP JUMPDEST PUSH2 0x34A JUMP JUMPDEST PUSH1 0x40 MLOAD PUSH1 0x12 DUP2 MSTORE PUSH1 0x20 ADD PUSH2 0x130 JUMP JUMPDEST PUSH2 0x160 PUSH2 0x36E JUMP JUMPDEST PUSH2 0x123 PUSH2 0x37D JUMP JUMPDEST PUSH2 0x160 PUSH2 0x1AE CALLDATASIZE PUSH1 0x4 PUSH2 0xF13 JUMP JUMPDEST PUSH1 0x1 PUSH1 0x1 PUSH1 0xA0 SHL SUB AND PUSH1 0x0 SWAP1 DUP2 MSTORE PUSH1 0x20 DUP2 SWAP1 MSTORE PUSH1 0x40 SWAP1 KECCAK256 SLOAD SWAP1 JUMP JUMPDEST PUSH2 0x1D1 PUSH2 0x3A5 JUMP JUMPDEST STOP JUMPDEST PUSH2 0x160 PUSH2 0x1E1 CALLDATASIZE PUSH1 0x4 PUSH2 0xF13 JUMP JUMPDEST PUSH2 0x3B9 JUMP JUMPDEST PUSH2 0x1EE PUSH2 0x3D7 JUMP JUMPDEST PUSH1 0x40 MLOAD PUSH2 0x130 SWAP8 SWAP7 SWAP6 SWAP5 SWAP4 SWAP3 SWAP2 SWAP1 PUSH2 0xF2E JUMP JUMPDEST PUSH1 0x8 SLOAD PUSH1 0x40 MLOAD PUSH1 0x1 PUSH1 0x1 PUSH1 0xA0 SHL SUB SWAP1 SWAP2 AND DUP2 MSTORE PUSH1 0x20 ADD PUSH2 0x130 JUMP JUMPDEST PUSH2 0x123 PUSH2 0x41D JUMP JUMPDEST PUSH2 0x14C PUSH2 0x232 CALLDATASIZE PUSH1 0x4 PUSH2 0xEAD JUMP JUMPDEST PUSH2 0x42C JUMP JUMPDEST PUSH2 0x123 PUSH2 0x43A JUMP JUMPDEST PUSH2 0x1D1 PUSH2 0x24D CALLDATASIZE PUSH1 0x4 PUSH2 0xFC4 JUMP JUMPDEST PUSH2 0x4C8 JUMP JUMPDEST PUSH2 0x160 PUSH2 0x260 CALLDATASIZE PUSH1 0x4 PUSH2 0x1037 JUMP JUMPDEST PUSH1 0x1 PUSH1 0x1 PUSH1 0xA0 SHL SUB SWAP2 DUP3 AND PUSH1 0x0 SWAP1 DUP2 MSTORE PUSH1 0x1 PUSH1 0x20 SWAP1 DUP2 MSTORE PUSH1 0x40 DUP1 DUP4 KECCAK256 SWAP4 SWAP1 SWAP5 AND DUP3 MSTORE SWAP2 SWAP1 SWAP2 MSTORE KECCAK256 SLOAD SWAP1 JUMP JUMPDEST PUSH2 0x1D1 PUSH2 0x299 CALLDATASIZE PUSH1 0x4 PUSH2 0xF13 JUMP JUMPDEST PUSH2 0x607 JUMP JUMPDEST PUSH1 0x60 PUSH1 0x3 DUP1 SLOAD PUSH2 0x2AD SWAP1 PUSH2 0x106A JUMP JUMPDEST DUP1 PUSH1 0x1F ADD PUSH1 0x20 DUP1 SWAP2 DIV MUL PUSH1 0x20 ADD PUSH1 0x40 MLOAD SWAP1 DUP2 ADD PUSH1 0x40 MSTORE DUP1 SWAP3 SWAP2 SWAP1 DUP2 DUP2 MSTORE PUSH1 0x20 ADD DUP3 DUP1 SLOAD PUSH2 0x2D9 SWAP1 PUSH2 0x106A JUMP JUMPDEST DUP1 ISZERO PUSH2 0x326 JUMPI DUP1 PUSH1 0x1F LT PUSH2 0x2FB JUMPI PUSH2 0x100 DUP1 DUP4 SLOAD DIV MUL DUP4 MSTORE SWAP2 PUSH1 0x20 ADD SWAP2 PUSH2 0x326 JUMP JUMPDEST DUP3 ADD SWAP2 SWAP1 PUSH1 0x0 MSTORE PUSH1 0x20 PUSH1 0x0 KECCAK256 SWAP1 JUMPDEST DUP2 SLOAD DUP2 MSTORE SWAP1 PUSH1 0x1 ADD SWAP1 PUSH1 0x20 ADD DUP1 DUP4 GT PUSH2 0x309 JUMPI DUP3 SWAP1 SUB PUSH1 0x1F AND DUP3 ADD SWAP2 JUMPDEST POP POP POP POP POP SWAP1 POP SWAP1 JUMP JUMPDEST PUSH1 0x0 CALLER PUSH2 0x33E DUP2 DUP6 DUP6 PUSH2 0x645 JUMP JUMPDEST PUSH1 0x1 SWAP2 POP POP JUMPDEST SWAP3 SWAP2 POP POP JUMP JUMPDEST PUSH1 0x0 CALLER PUSH2 0x358 DUP6 DUP3 DUP6 PUSH2 0x657 JUMP JUMPDEST PUSH2 0x363 DUP6 DUP6 DUP6 PUSH2 0x6D6 JUMP JUMPDEST POP PUSH1 0x1 SWAP5 SWAP4 POP POP POP POP JUMP JUMPDEST PUSH1 0x0 PUSH2 0x378 PUSH2 0x735 JUMP JUMPDEST SWAP1 POP SWAP1 JUMP JUMPDEST PUSH1 0x60 PUSH1 0x9 PUSH1 0x40 MLOAD PUSH1 0x20 ADD PUSH2 0x391 SWAP2 SWAP1 PUSH2 0x10A4 JUMP JUMPDEST PUSH1 0x40 MLOAD PUSH1 0x20 DUP2 DUP4 SUB SUB DUP2 MSTORE SWAP1 PUSH1 0x40 MSTORE SWAP1 POP SWAP1 JUMP JUMPDEST PUSH2 0x3AD PUSH2 0x860 JUMP JUMPDEST PUSH2 0x3B7 PUSH1 0x0 PUSH2 0x88D JUMP JUMPDEST JUMP JUMPDEST PUSH1 0x1 PUSH1 0x1 PUSH1 0xA0 SHL SUB DUP2 AND PUSH1 0x0 SWAP1 DUP2 MSTORE PUSH1 0x7 PUSH1 0x20 MSTORE PUSH1 0x40 DUP2 KECCAK256 SLOAD PUSH2 0x344 JUMP JUMPDEST PUSH1 0x0 PUSH1 0x60 DUP1 PUSH1 0x0 DUP1 PUSH1 0x0 PUSH1 0x60 PUSH2 0x3EB PUSH2 0x8DF JUMP JUMPDEST PUSH2 0x3F3 PUSH2 0x90C JUMP JUMPDEST PUSH1 0x40 DUP1 MLOAD PUSH1 0x0 DUP1 DUP3 MSTORE PUSH1 0x20 DUP3 ADD SWAP1 SWAP3 MSTORE PUSH1 0xF PUSH1 0xF8 SHL SWAP12 SWAP4 SWAP11 POP SWAP2 SWAP9 POP CHAINID SWAP8 POP ADDRESS SWAP7 POP SWAP5 POP SWAP3 POP SWAP1 POP JUMP JUMPDEST PUSH1 0x60 PUSH1 0x4 DUP1 SLOAD PUSH2 0x2AD SWAP1 PUSH2 0x106A JUMP JUMPDEST PUSH1 0x0 CALLER PUSH2 0x33E DUP2 DUP6 DUP6 PUSH2 0x6D6 JUMP JUMPDEST PUSH1 0x9 DUP1 SLOAD PUSH2 0x447 SWAP1 PUSH2 0x106A JUMP JUMPDEST DUP1 PUSH1 0x1F ADD PUSH1 0x20 DUP1 SWAP2 DIV MUL PUSH1 0x20 ADD PUSH1 0x40 MLOAD SWAP1 DUP2 ADD PUSH1 0x40 MSTORE DUP1 SWAP3 SWAP2 SWAP1 DUP2 DUP2 MSTORE PUSH1 0x20 ADD DUP3 DUP1 SLOAD PUSH2 0x473 SWAP1 PUSH2 0x106A JUMP JUMPDEST DUP1 ISZERO PUSH2 0x4C0 JUMPI DUP1 PUSH1 0x1F LT PUSH2 0x495 JUMPI PUSH2 0x100 DUP1 DUP4 SLOAD DIV MUL DUP4 MSTORE SWAP2 PUSH1 0x20 ADD SWAP2 PUSH2 0x4C0 JUMP JUMPDEST DUP3 ADD SWAP2 SWAP1 PUSH1 0x0 MSTORE PUSH1 0x20 PUSH1 0x0 KECCAK256 SWAP1 JUMPDEST DUP2 SLOAD DUP2 MSTORE SWAP1 PUSH1 0x1 ADD SWAP1 PUSH1 0x20 ADD DUP1 DUP4 GT PUSH2 0x4A3 JUMPI DUP3 SWAP1 SUB PUSH1 0x1F AND DUP3 ADD SWAP2 JUMPDEST POP POP POP POP POP DUP2 JUMP JUMPDEST DUP4 TIMESTAMP GT ISZERO PUSH2 0x4F1 JUMPI PUSH1 0x40 MLOAD PUSH4 0x313C8981 PUSH1 0xE1 SHL DUP2 MSTORE PUSH1 0x4 DUP2 ADD DUP6 SWAP1 MSTORE PUSH1 0x24 ADD JUMPDEST PUSH1 0x40 MLOAD DUP1 SWAP2 SUB SWAP1 REVERT JUMPDEST PUSH1 0x0 PUSH32 0x6E71EDAE12B1B97F4D1F60370FEF10105FA2FAAE0126114A169C64845D6126C9 DUP9 DUP9 DUP9 PUSH2 0x53E DUP13 PUSH1 0x1 PUSH1 0x1 PUSH1 0xA0 SHL SUB AND PUSH1 0x0 SWAP1 DUP2 MSTORE PUSH1 0x7 PUSH1 0x20 MSTORE PUSH1 0x40 SWAP1 KECCAK256 DUP1 SLOAD PUSH1 0x1 DUP2 ADD SWAP1 SWAP2 SSTORE SWAP1 JUMP JUMPDEST PUSH1 0x40 DUP1 MLOAD PUSH1 0x20 DUP2 ADD SWAP7 SWAP1 SWAP7 MSTORE PUSH1 0x1 PUSH1 0x1 PUSH1 0xA0 SHL SUB SWAP5 DUP6 AND SWAP1 DUP7 ADD MSTORE SWAP3 SWAP1 SWAP2 AND PUSH1 0x60 DUP5 ADD MSTORE PUSH1 0x80 DUP4 ADD MSTORE PUSH1 0xA0 DUP3 ADD MSTORE PUSH1 0xC0 DUP2 ADD DUP7 SWAP1 MSTORE PUSH1 0xE0 ADD PUSH1 0x40 MLOAD PUSH1 0x20 DUP2 DUP4 SUB SUB DUP2 MSTORE SWAP1 PUSH1 0x40 MSTORE DUP1 MLOAD SWAP1 PUSH1 0x20 ADD KECCAK256 SWAP1 POP PUSH1 0x0 PUSH2 0x599 DUP3 PUSH2 0x939 JUMP JUMPDEST SWAP1 POP PUSH1 0x0 PUSH2 0x5A9 DUP3 DUP8 DUP8 DUP8 PUSH2 0x966 JUMP JUMPDEST SWAP1 POP DUP10 PUSH1 0x1 PUSH1 0x1 PUSH1 0xA0 SHL SUB AND DUP2 PUSH1 0x1 PUSH1 0x1 PUSH1 0xA0 SHL SUB AND EQ PUSH2 0x5F0 JUMPI PUSH1 0x40 MLOAD PUSH4 0x25C00723 PUSH1 0xE1 SHL DUP2 MSTORE PUSH1 0x1 PUSH1 0x1 PUSH1 0xA0 SHL SUB DUP1 DUP4 AND PUSH1 0x4 DUP4 ADD MSTORE DUP12 AND PUSH1 0x24 DUP3 ADD MSTORE PUSH1 0x44 ADD PUSH2 0x4E8 JUMP JUMPDEST PUSH2 0x5FB DUP11 DUP11 DUP11 PUSH2 0x645 JUMP JUMPDEST POP POP POP POP POP POP POP POP POP POP JUMP JUMPDEST PUSH2 0x60F PUSH2 0x860 JUMP JUMPDEST PUSH1 0x1 PUSH1 0x1 PUSH1 0xA0 SHL SUB DUP2 AND PUSH2 0x639 JUMPI PUSH1 0x40 MLOAD PUSH4 0x1E4FBDF7 PUSH1 0xE0 SHL DUP2 MSTORE PUSH1 0x0 PUSH1 0x4 DUP3 ADD MSTORE PUSH1 0x24 ADD PUSH2 0x4E8 JUMP JUMPDEST PUSH2 0x642 DUP2 PUSH2 0x88D JUMP JUMPDEST POP JUMP JUMPDEST PUSH2 0x652 DUP4 DUP4 DUP4 PUSH1 0x1 PUSH2 0x994 JUMP JUMPDEST POP POP POP JUMP JUMPDEST PUSH1 0x1 PUSH1 0x1 PUSH1 0xA0 SHL SUB DUP4 DUP2 AND PUSH1 0x0 SWAP1 DUP2 MSTORE PUSH1 0x1 PUSH1 0x20 SWAP1 DUP2 MSTORE PUSH1 0x40 DUP1 DUP4 KECCAK256 SWAP4 DUP7 AND DUP4 MSTORE SWAP3 SWAP1 MSTORE KECCAK256 SLOAD PUSH1 0x0 NOT DUP2 LT ISZERO PUSH2 0x6D0 JUMPI DUP2 DUP2 LT ISZERO PUSH2 0x6C1 JUMPI PUSH1 0x40 MLOAD PUSH4 0x7DC7A0D9 PUSH1 0xE1 SHL DUP2 MSTORE PUSH1 0x1 PUSH1 0x1 PUSH1 0xA0 SHL SUB DUP5 AND PUSH1 0x4 DUP3 ADD MSTORE PUSH1 0x24 DUP2 ADD DUP3 SWAP1 MSTORE PUSH1 0x44 DUP2 ADD DUP4 SWAP1 MSTORE PUSH1 0x64 ADD PUSH2 0x4E8 JUMP JUMPDEST PUSH2 0x6D0 DUP5 DUP5 DUP5 DUP5 SUB PUSH1 0x0 PUSH2 0x994 JUMP JUMPDEST POP POP POP POP JUMP JUMPDEST PUSH1 0x1 PUSH1 0x1 PUSH1 0xA0 SHL SUB DUP4 AND PUSH2 0x700 JUMPI PUSH1 0x40 MLOAD PUSH4 0x4B637E8F PUSH1 0xE1 SHL DUP2 MSTORE PUSH1 0x0 PUSH1 0x4 DUP3 ADD MSTORE PUSH1 0x24 ADD PUSH2 0x4E8 JUMP JUMPDEST PUSH1 0x1 PUSH1 0x1 PUSH1 0xA0 SHL SUB DUP3 AND PUSH2 0x72A JUMPI PUSH1 0x40 MLOAD PUSH4 0xEC442F05 PUSH1 0xE0 SHL DUP2 MSTORE PUSH1 0x0 PUSH1 0x4 DUP3 ADD MSTORE PUSH1 0x24 ADD PUSH2 0x4E8 JUMP JUMPDEST PUSH2 0x652 DUP4 DUP4 DUP4 PUSH2 0xA69 JUMP JUMPDEST PUSH1 0x0 ADDRESS PUSH1 0x1 PUSH1 0x1 PUSH1 0xA0 SHL SUB PUSH32 0x0 AND EQ DUP1 ISZERO PUSH2 0x78E JUMPI POP PUSH32 0x0 CHAINID EQ JUMPDEST ISZERO PUSH2 0x7B8 JUMPI POP PUSH32 0x0 SWAP1 JUMP JUMPDEST PUSH2 0x378 PUSH1 0x40 DUP1 MLOAD PUSH32 0x8B73C3C69BB8FE3D512ECC4CF759CC79239F7B179B0FFACAA9A75D522B39400F PUSH1 0x20 DUP3 ADD MSTORE PUSH32 0x0 SWAP2 DUP2 ADD SWAP2 SWAP1 SWAP2 MSTORE PUSH32 0x0 PUSH1 0x60 DUP3 ADD MSTORE CHAINID PUSH1 0x80 DUP3 ADD MSTORE ADDRESS PUSH1 0xA0 DUP3 ADD MSTORE PUSH1 0x0 SWAP1 PUSH1 0xC0 ADD PUSH1 0x40 MLOAD PUSH1 0x20 DUP2 DUP4 SUB SUB DUP2 MSTORE SWAP1 PUSH1 0x40 MSTORE DUP1 MLOAD SWAP1 PUSH1 0x20 ADD KECCAK256 SWAP1 POP SWAP1 JUMP JUMPDEST PUSH1 0x8 SLOAD PUSH1 0x1 PUSH1 0x1 PUSH1 0xA0 SHL SUB AND CALLER EQ PUSH2 0x3B7 JUMPI PUSH1 0x40 MLOAD PUSH4 0x118CDAA7 PUSH1 0xE0 SHL DUP2 MSTORE CALLER PUSH1 0x4 DUP3 ADD MSTORE PUSH1 0x24 ADD PUSH2 0x4E8 JUMP JUMPDEST PUSH1 0x8 DUP1 SLOAD PUSH1 0x1 PUSH1 0x1 PUSH1 0xA0 SHL SUB DUP4 DUP2 AND PUSH1 0x1 PUSH1 0x1 PUSH1 0xA0 SHL SUB NOT DUP4 AND DUP2 OR SWAP1 SWAP4 SSTORE PUSH1 0x40 MLOAD SWAP2 AND SWAP2 SWAP1 DUP3 SWAP1 PUSH32 0x8BE0079C531659141344CD1FD0A4F28419497F9722A3DAAFE3B4186F6B6457E0 SWAP1 PUSH1 0x0 SWAP1 LOG3 POP POP JUMP JUMPDEST PUSH1 0x60 PUSH2 0x378 PUSH32 0x0 PUSH1 0x5 PUSH2 0xB93 JUMP JUMPDEST PUSH1 0x60 PUSH2 0x378 PUSH32 0x0 PUSH1 0x6 PUSH2 0xB93 JUMP JUMPDEST PUSH1 0x0 PUSH2 0x344 PUSH2 0x946 PUSH2 0x735 JUMP JUMPDEST DUP4 PUSH1 0x40 MLOAD PUSH2 0x1901 PUSH1 0xF0 SHL DUP2 MSTORE PUSH1 0x2 DUP2 ADD SWAP3 SWAP1 SWAP3 MSTORE PUSH1 0x22 DUP3 ADD MSTORE PUSH1 0x42 SWAP1 KECCAK256 SWAP1 JUMP JUMPDEST PUSH1 0x0 DUP1 PUSH1 0x0 DUP1 PUSH2 0x978 DUP9 DUP9 DUP9 DUP9 PUSH2 0xC3E JUMP JUMPDEST SWAP3 POP SWAP3 POP SWAP3 POP PUSH2 0x988 DUP3 DUP3 PUSH2 0xD0D JUMP JUMPDEST POP SWAP1 SWAP7 SWAP6 POP POP POP POP POP POP JUMP JUMPDEST PUSH1 0x1 PUSH1 0x1 PUSH1 0xA0 SHL SUB DUP5 AND PUSH2 0x9BE JUMPI PUSH1 0x40 MLOAD PUSH4 0xE602DF05 PUSH1 0xE0 SHL DUP2 MSTORE PUSH1 0x0 PUSH1 0x4 DUP3 ADD MSTORE PUSH1 0x24 ADD PUSH2 0x4E8 JUMP JUMPDEST PUSH1 0x1 PUSH1 0x1 PUSH1 0xA0 SHL SUB DUP4 AND PUSH2 0x9E8 JUMPI PUSH1 0x40 MLOAD PUSH4 0x4A1406B1 PUSH1 0xE1 SHL DUP2 MSTORE PUSH1 0x0 PUSH1 0x4 DUP3 ADD MSTORE PUSH1 0x24 ADD PUSH2 0x4E8 JUMP JUMPDEST PUSH1 0x1 PUSH1 0x1 PUSH1 0xA0 SHL SUB DUP1 DUP6 AND PUSH1 0x0 SWAP1 DUP2 MSTORE PUSH1 0x1 PUSH1 0x20 SWAP1 DUP2 MSTORE PUSH1 0x40 DUP1 DUP4 KECCAK256 SWAP4 DUP8 AND DUP4 MSTORE SWAP3 SWAP1 MSTORE KECCAK256 DUP3 SWAP1 SSTORE DUP1 ISZERO PUSH2 0x6D0 JUMPI DUP3 PUSH1 0x1 PUSH1 0x1 PUSH1 0xA0 SHL SUB AND DUP5 PUSH1 0x1 PUSH1 0x1 PUSH1 0xA0 SHL SUB AND PUSH32 0x8C5BE1E5EBEC7D5BD14F71427D1E84F3DD0314C0F7B2291E5B200AC8C7C3B925 DUP5 PUSH1 0x40 MLOAD PUSH2 0xA5B SWAP2 DUP2 MSTORE PUSH1 0x20 ADD SWAP1 JUMP JUMPDEST PUSH1 0x40 MLOAD DUP1 SWAP2 SUB SWAP1 LOG3 POP POP POP POP JUMP JUMPDEST PUSH1 0x1 PUSH1 0x1 PUSH1 0xA0 SHL SUB DUP4 AND PUSH2 0xA94 JUMPI DUP1 PUSH1 0x2 PUSH1 0x0 DUP3 DUP3 SLOAD PUSH2 0xA89 SWAP2 SWAP1 PUSH2 0x115C JUMP JUMPDEST SWAP1 SWAP2 SSTORE POP PUSH2 0xB06 SWAP1 POP JUMP JUMPDEST PUSH1 0x1 PUSH1 0x1 PUSH1 0xA0 SHL SUB DUP4 AND PUSH1 0x0 SWAP1 DUP2 MSTORE PUSH1 0x20 DUP2 SWAP1 MSTORE PUSH1 0x40 SWAP1 KECCAK256 SLOAD DUP2 DUP2 LT ISZERO PUSH2 0xAE7 JUMPI PUSH1 0x40 MLOAD PUSH4 0x391434E3 PUSH1 0xE2 SHL DUP2 MSTORE PUSH1 0x1 PUSH1 0x1 PUSH1 0xA0 SHL SUB DUP6 AND PUSH1 0x4 DUP3 ADD MSTORE PUSH1 0x24 DUP2 ADD DUP3 SWAP1 MSTORE PUSH1 0x44 DUP2 ADD DUP4 SWAP1 MSTORE PUSH1 0x64 ADD PUSH2 0x4E8 JUMP JUMPDEST PUSH1 0x1 PUSH1 0x1 PUSH1 0xA0 SHL SUB DUP5 AND PUSH1 0x0 SWAP1 DUP2 MSTORE PUSH1 0x20 DUP2 SWAP1 MSTORE PUSH1 0x40 SWAP1 KECCAK256 SWAP1 DUP3 SWAP1 SUB SWAP1 SSTORE JUMPDEST PUSH1 0x1 PUSH1 0x1 PUSH1 0xA0 SHL SUB DUP3 AND PUSH2 0xB22 JUMPI PUSH1 0x2 DUP1 SLOAD DUP3 SWAP1 SUB SWAP1 SSTORE PUSH2 0xB41 JUMP JUMPDEST PUSH1 0x1 PUSH1 0x1 PUSH1 0xA0 SHL SUB DUP3 AND PUSH1 0x0 SWAP1 DUP2 MSTORE PUSH1 0x20 DUP2 SWAP1 MSTORE PUSH1 0x40 SWAP1 KECCAK256 DUP1 SLOAD DUP3 ADD SWAP1 SSTORE JUMPDEST DUP2 PUSH1 0x1 PUSH1 0x1 PUSH1 0xA0 SHL SUB AND DUP4 PUSH1 0x1 PUSH1 0x1 PUSH1 0xA0 SHL SUB AND PUSH32 0xDDF252AD1BE2C89B69C2B068FC378DAA952BA7F163C4A11628F55A4DF523B3EF DUP4 PUSH1 0x40 MLOAD PUSH2 0xB86 SWAP2 DUP2 MSTORE PUSH1 0x20 ADD SWAP1 JUMP JUMPDEST PUSH1 0x40 MLOAD DUP1 SWAP2 SUB SWAP1 LOG3 POP POP POP JUMP JUMPDEST PUSH1 0x60 PUSH1 0xFF DUP4 EQ PUSH2 0xBAD JUMPI PUSH2 0xBA6 DUP4 PUSH2 0xDCA JUMP JUMPDEST SWAP1 POP PUSH2 0x344 JUMP JUMPDEST DUP2 DUP1 SLOAD PUSH2 0xBB9 SWAP1 PUSH2 0x106A JUMP JUMPDEST DUP1 PUSH1 0x1F ADD PUSH1 0x20 DUP1 SWAP2 DIV MUL PUSH1 0x20 ADD PUSH1 0x40 MLOAD SWAP1 DUP2 ADD PUSH1 0x40 MSTORE DUP1 SWAP3 SWAP2 SWAP1 DUP2 DUP2 MSTORE PUSH1 0x20 ADD DUP3 DUP1 SLOAD PUSH2 0xBE5 SWAP1 PUSH2 0x106A JUMP JUMPDEST DUP1 ISZERO PUSH2 0xC32 JUMPI DUP1 PUSH1 0x1F LT PUSH2 0xC07 JUMPI PUSH2 0x100 DUP1 DUP4 SLOAD DIV MUL DUP4 MSTORE SWAP2 PUSH1 0x20 ADD SWAP2 PUSH2 0xC32 JUMP JUMPDEST DUP3 ADD SWAP2 SWAP1 PUSH1 0x0 MSTORE PUSH1 0x20 PUSH1 0x0 KECCAK256 SWAP1 JUMPDEST DUP2 SLOAD DUP2 MSTORE SWAP1 PUSH1 0x1 ADD SWAP1 PUSH1 0x20 ADD DUP1 DUP4 GT PUSH2 0xC15 JUMPI DUP3 SWAP1 SUB PUSH1 0x1F AND DUP3 ADD SWAP2 JUMPDEST POP POP POP POP POP SWAP1 POP PUSH2 0x344 JUMP JUMPDEST PUSH1 0x0 DUP1 DUP1 PUSH32 0x7FFFFFFFFFFFFFFFFFFFFFFFFFFFFFFF5D576E7357A4501DDFE92F46681B20A0 DUP5 GT ISZERO PUSH2 0xC79 JUMPI POP PUSH1 0x0 SWAP2 POP PUSH1 0x3 SWAP1 POP DUP3 PUSH2 0xD03 JUMP JUMPDEST PUSH1 0x40 DUP1 MLOAD PUSH1 0x0 DUP1 DUP3 MSTORE PUSH1 0x20 DUP3 ADD DUP1 DUP5 MSTORE DUP11 SWAP1 MSTORE PUSH1 0xFF DUP10 AND SWAP3 DUP3 ADD SWAP3 SWAP1 SWAP3 MSTORE PUSH1 0x60 DUP2 ADD DUP8 SWAP1 MSTORE PUSH1 0x80 DUP2 ADD DUP7 SWAP1 MSTORE PUSH1 0x1 SWAP1 PUSH1 0xA0 ADD PUSH1 0x20 PUSH1 0x40 MLOAD PUSH1 0x20 DUP2 SUB SWAP1 DUP1 DUP5 SUB SWAP1 DUP6 GAS STATICCALL ISZERO DUP1 ISZERO PUSH2 0xCCD JUMPI RETURNDATASIZE PUSH1 0x0 DUP1 RETURNDATACOPY RETURNDATASIZE PUSH1 0x0 REVERT JUMPDEST POP POP PUSH1 0x40 MLOAD PUSH1 0x1F NOT ADD MLOAD SWAP2 POP POP PUSH1 0x1 PUSH1 0x1 PUSH1 0xA0 SHL SUB DUP2 AND PUSH2 0xCF9 JUMPI POP PUSH1 0x0 SWAP3 POP PUSH1 0x1 SWAP2 POP DUP3 SWAP1 POP PUSH2 0xD03 JUMP JUMPDEST SWAP3 POP PUSH1 0x0 SWAP2 POP DUP2 SWAP1 POP JUMPDEST SWAP5 POP SWAP5 POP SWAP5 SWAP2 POP POP JUMP JUMPDEST PUSH1 0x0 DUP3 PUSH1 0x3 DUP2 GT ISZERO PUSH2 0xD21 JUMPI PUSH2 0xD21 PUSH2 0x117D JUMP JUMPDEST SUB PUSH2 0xD2A JUMPI POP POP JUMP JUMPDEST PUSH1 0x1 DUP3 PUSH1 0x3 DUP2 GT ISZERO PUSH2 0xD3E JUMPI PUSH2 0xD3E PUSH2 0x117D JUMP JUMPDEST SUB PUSH2 0xD5C JUMPI PUSH1 0x40 MLOAD PUSH4 0xF645EEDF PUSH1 0xE0 SHL DUP2 MSTORE PUSH1 0x4 ADD PUSH1 0x40 MLOAD DUP1 SWAP2 SUB SWAP1 REVERT JUMPDEST PUSH1 0x2 DUP3 PUSH1 0x3 DUP2 GT ISZERO PUSH2 0xD70 JUMPI PUSH2 0xD70 PUSH2 0x117D JUMP JUMPDEST SUB PUSH2 0xD91 JUMPI PUSH1 0x40 MLOAD PUSH4 0xFCE698F7 PUSH1 0xE0 SHL DUP2 MSTORE PUSH1 0x4 DUP2 ADD DUP3 SWAP1 MSTORE PUSH1 0x24 ADD PUSH2 0x4E8 JUMP JUMPDEST PUSH1 0x3 DUP3 PUSH1 0x3 DUP2 GT ISZERO PUSH2 0xDA5 JUMPI PUSH2 0xDA5 PUSH2 0x117D JUMP JUMPDEST SUB PUSH2 0xDC6 JUMPI PUSH1 0x40 MLOAD PUSH4 0x35E2F383 PUSH1 0xE2 SHL DUP2 MSTORE PUSH1 0x4 DUP2 ADD DUP3 SWAP1 MSTORE PUSH1 0x24 ADD PUSH2 0x4E8 JUMP JUMPDEST POP POP JUMP JUMPDEST PUSH1 0x60 PUSH1 0x0 PUSH2 0xDD7 DUP4 PUSH2 0xE09 JUMP JUMPDEST PUSH1 0x40 DUP1 MLOAD PUSH1 0x20 DUP1 DUP3 MSTORE DUP2 DUP4 ADD SWAP1 SWAP3 MSTORE SWAP2 SWAP3 POP PUSH1 0x0 SWAP2 SWAP1 PUSH1 0x20 DUP3 ADD DUP2 DUP1 CALLDATASIZE DUP4 CALLDATACOPY POP POP POP SWAP2 DUP3 MSTORE POP PUSH1 0x20 DUP2 ADD SWAP3 SWAP1 SWAP3 MSTORE POP SWAP1 JUMP JUMPDEST PUSH1 0x0 PUSH1 0xFF DUP3 AND PUSH1 0x1F DUP2 GT ISZERO PUSH2 0x344 JUMPI PUSH1 0x40 MLOAD PUSH4 0x2CD44AC3 PUSH1 0xE2 SHL DUP2 MSTORE PUSH1 0x4 ADD PUSH1 0x40 MLOAD DUP1 SWAP2 SUB SWAP1 REVERT JUMPDEST PUSH1 0x0 DUP2 MLOAD DUP1 DUP5 MSTORE PUSH1 0x0 JUMPDEST DUP2 DUP2 LT ISZERO PUSH2 0xE57 JUMPI PUSH1 0x20 DUP2 DUP6 ADD DUP2 ADD MLOAD DUP7 DUP4 ADD DUP3 ADD MSTORE ADD PUSH2 0xE3B JUMP JUMPDEST POP PUSH1 0x0 PUSH1 0x20 DUP3 DUP7 ADD ADD MSTORE PUSH1 0x20 PUSH1 0x1F NOT PUSH1 0x1F DUP4 ADD AND DUP6 ADD ADD SWAP2 POP POP SWAP3 SWAP2 POP POP JUMP JUMPDEST PUSH1 0x20 DUP2 MSTORE PUSH1 0x0 PUSH2 0xE8A PUSH1 0x20 DUP4 ADD DUP5 PUSH2 0xE31 JUMP JUMPDEST SWAP4 SWAP3 POP POP POP JUMP JUMPDEST DUP1 CALLDATALOAD PUSH1 0x1 PUSH1 0x1 PUSH1 0xA0 SHL SUB DUP2 AND DUP2 EQ PUSH2 0xEA8 JUMPI PUSH1 0x0 DUP1 REVERT JUMPDEST SWAP2 SWAP1 POP JUMP JUMPDEST PUSH1 0x0 DUP1 PUSH1 0x40 DUP4 DUP6 SUB SLT ISZERO PUSH2 0xEC0 JUMPI PUSH1 0x0 DUP1 REVERT JUMPDEST PUSH2 0xEC9 DUP4 PUSH2 0xE91 JUMP JUMPDEST SWAP5 PUSH1 0x20 SWAP4 SWAP1 SWAP4 ADD CALLDATALOAD SWAP4 POP POP POP JUMP JUMPDEST PUSH1 0x0 DUP1 PUSH1 0x0 PUSH1 0x60 DUP5 DUP7 SUB SLT ISZERO PUSH2 0xEEC JUMPI PUSH1 0x0 DUP1 REVERT JUMPDEST PUSH2 0xEF5 DUP5 PUSH2 0xE91 JUMP JUMPDEST SWAP3 POP PUSH2 0xF03 PUSH1 0x20 DUP6 ADD PUSH2 0xE91 JUMP JUMPDEST SWAP2 POP PUSH1 0x40 DUP5 ADD CALLDATALOAD SWAP1 POP SWAP3 POP SWAP3 POP SWAP3 JUMP JUMPDEST PUSH1 0x0 PUSH1 0x20 DUP3 DUP5 SUB SLT ISZERO PUSH2 0xF25 JUMPI PUSH1 0x0 DUP1 REVERT JUMPDEST PUSH2 0xE8A DUP3 PUSH2 0xE91 JUMP JUMPDEST PUSH1 0xFF PUSH1 0xF8 SHL DUP9 AND DUP2 MSTORE PUSH1 0x0 PUSH1 0x20 PUSH1 0xE0 DUP2 DUP5 ADD MSTORE PUSH2 0xF4E PUSH1 0xE0 DUP5 ADD DUP11 PUSH2 0xE31 JUMP JUMPDEST DUP4 DUP2 SUB PUSH1 0x40 DUP6 ADD MSTORE PUSH2 0xF60 DUP2 DUP11 PUSH2 0xE31 JUMP JUMPDEST PUSH1 0x60 DUP6 ADD DUP10 SWAP1 MSTORE PUSH1 0x1 PUSH1 0x1 PUSH1 0xA0 SHL SUB DUP9 AND PUSH1 0x80 DUP7 ADD MSTORE PUSH1 0xA0 DUP6 ADD DUP8 SWAP1 MSTORE DUP5 DUP2 SUB PUSH1 0xC0 DUP7 ADD MSTORE DUP6 MLOAD DUP1 DUP3 MSTORE DUP4 DUP8 ADD SWAP3 POP SWAP1 DUP4 ADD SWAP1 PUSH1 0x0 JUMPDEST DUP2 DUP2 LT ISZERO PUSH2 0xFB2 JUMPI DUP4 MLOAD DUP4 MSTORE SWAP3 DUP5 ADD SWAP3 SWAP2 DUP5 ADD SWAP2 PUSH1 0x1 ADD PUSH2 0xF96 JUMP JUMPDEST POP SWAP1 SWAP13 SWAP12 POP POP POP POP POP POP POP POP POP POP POP POP JUMP JUMPDEST PUSH1 0x0 DUP1 PUSH1 0x0 DUP1 PUSH1 0x0 DUP1 PUSH1 0x0 PUSH1 0xE0 DUP9 DUP11 SUB SLT ISZERO PUSH2 0xFDF JUMPI PUSH1 0x0 DUP1 REVERT JUMPDEST PUSH2 0xFE8 DUP9 PUSH2 0xE91 JUMP JUMPDEST SWAP7 POP PUSH2 0xFF6 PUSH1 0x20 DUP10 ADD PUSH2 0xE91 JUMP JUMPDEST SWAP6 POP PUSH1 0x40 DUP9 ADD CALLDATALOAD SWAP5 POP PUSH1 0x60 DUP9 ADD CALLDATALOAD SWAP4 POP PUSH1 0x80 DUP9 ADD CALLDATALOAD PUSH1 0xFF DUP2 AND DUP2 EQ PUSH2 0x101A JUMPI PUSH1 0x0 DUP1 REVERT JUMPDEST SWAP7 SWAP10 SWAP6 SWAP9 POP SWAP4 SWAP7 SWAP3 SWAP6 SWAP5 PUSH1 0xA0 DUP5 ADD CALLDATALOAD SWAP5 POP PUSH1 0xC0 SWAP1 SWAP4 ADD CALLDATALOAD SWAP3 SWAP2 POP POP JUMP JUMPDEST PUSH1 0x0 DUP1 PUSH1 0x40 DUP4 DUP6 SUB SLT ISZERO PUSH2 0x104A JUMPI PUSH1 0x0 DUP1 REVERT JUMPDEST PUSH2 0x1053 DUP4 PUSH2 0xE91 JUMP JUMPDEST SWAP2 POP PUSH2 0x1061 PUSH1 0x20 DUP5 ADD PUSH2 0xE91 JUMP JUMPDEST SWAP1 POP SWAP3 POP SWAP3 SWAP1 POP JUMP JUMPDEST PUSH1 0x1 DUP2 DUP2 SHR SWAP1 DUP3 AND DUP1 PUSH2 0x107E JUMPI PUSH1 0x7F DUP3 AND SWAP2 POP JUMPDEST PUSH1 0x20 DUP3 LT DUP2 SUB PUSH2 0x109E JUMPI PUSH4 0x4E487B71 PUSH1 0xE0 SHL PUSH1 0x0 MSTORE PUSH1 0x22 PUSH1 0x4 MSTORE PUSH1 0x24 PUSH1 0x0 REVERT JUMPDEST POP SWAP2 SWAP1 POP JUMP JUMPDEST PUSH7 0x697066733A2F2F PUSH1 0xC8 SHL DUP2 MSTORE PUSH1 0x0 PUSH1 0x7 PUSH1 0x0 DUP5 SLOAD DUP2 PUSH1 0x1 DUP3 DUP2 SHR SWAP2 POP DUP1 DUP4 AND DUP1 PUSH2 0x10D0 JUMPI PUSH1 0x7F DUP4 AND SWAP3 POP JUMPDEST PUSH1 0x20 DUP1 DUP5 LT DUP3 SUB PUSH2 0x10EF JUMPI PUSH4 0x4E487B71 PUSH1 0xE0 SHL DUP7 MSTORE PUSH1 0x22 PUSH1 0x4 MSTORE PUSH1 0x24 DUP7 REVERT JUMPDEST DUP2 DUP1 ISZERO PUSH2 0x1103 JUMPI PUSH1 0x1 DUP2 EQ PUSH2 0x111C JUMPI PUSH2 0x114D JUMP JUMPDEST PUSH1 0xFF NOT DUP7 AND DUP11 DUP10 ADD MSTORE DUP5 ISZERO ISZERO DUP6 MUL DUP11 ADD DUP9 ADD SWAP7 POP PUSH2 0x114D JUMP JUMPDEST PUSH1 0x0 DUP12 DUP2 MSTORE PUSH1 0x20 SWAP1 KECCAK256 PUSH1 0x0 JUMPDEST DUP7 DUP2 LT ISZERO PUSH2 0x1143 JUMPI DUP2 SLOAD DUP13 DUP3 ADD DUP12 ADD MSTORE SWAP1 DUP6 ADD SWAP1 DUP4 ADD PUSH2 0x1128 JUMP JUMPDEST POP POP DUP8 DUP6 DUP12 ADD ADD SWAP7 POP JUMPDEST POP SWAP5 SWAP10 SWAP9 POP POP POP POP POP POP POP POP POP JUMP JUMPDEST DUP1 DUP3 ADD DUP1 DUP3 GT ISZERO PUSH2 0x344 JUMPI PUSH4 0x4E487B71 PUSH1 0xE0 SHL PUSH1 0x0 MSTORE PUSH1 0x11 PUSH1 0x4 MSTORE PUSH1 0x24 PUSH1 0x0 REVERT JUMPDEST PUSH4 0x4E487B71 PUSH1 0xE0 SHL PUSH1 0x0 MSTORE PUSH1 0x21 PUSH1 0x4 MSTORE PUSH1 0x24 PUSH1 0x0 REVERT INVALID LOG2 PUSH5 0x6970667358 0x22 SLT KECCAK256 CALLDATASIZE 0xC PUSH17 0xB11B00375DECEE0665A1206BF9CFF28538 SHL DUP14 0x2F SWAP16 CALLDATALOAD PUSH28 0x6D3790E9562164736F6C63430008140033A264697066735822122023 SIGNEXTEND PUSH20 0xB969E8FF00A5EC063235BD7A427C8DDC948BB2DA PUSH18 0x8383F0EF1A822F3D64736F6C634300081400 CALLER "},"methodIdentifiers":{"allTokens(uint256)":"634282af","buyToken(address,uint256,address)":"692bf4a8","createMemeCoin(string,string,string,uint256,uint256,string)":"d634b419","getTokenDetails(uint256)":"c1e03728","getTokenDetailsByAddress(address)":"3338c5b6","getTokenIndex(address)":"66c0bd24","getTokens(uint256,uint256)":"494cfc6c","getTokensByCreator(address)":"d5c71275","owner()":"8da5cb5b","pause()":"8456cb59","pauseToken(address)":"7c41ad2c","paused()":"5c975abb","platformFeeBP()":"ff96092a","priceOf(address)":"b95ed06f","reclaimUnsold(address,uint256)":"0e3f0cfc","referralFeeBP()":"dc4ec9be","renounceOwnership()":"715018a6","rescueERC20(address,uint256)":"8cd4426d","tokenIndexPlusOne(address)":"35a62e68","tokenPaused(address)":"8995881d","totalTokens()":"7e1c0c09","transferOwnership(address)":"f2fde38b","unpause()":"3f4ba83a","unpauseToken(address)":"3b3bff0f","unsoldSupply(address)":"33f3f078","updateFees(uint16,uint16)":"f3d2350e","updateMetadata(address,string,string)":"5e62bf94","updatePrice(address,uint256)":"457972de","withdrawETH(uint256)":"f14210a6"}}}}}