{"contracts/MemeCoinFactory.sol":{"MemeCoinFactory":{"abi":[{"inputs":[{"internalType":"uint16","name":"_platformFeeBP","type":"uint16"},{"internalType":"uint16","name":"_referralFeeBP","type":"uint16"},{"internalType":"address","name":"_v2Factory","type":"address"},{"internalType":"address","name":"_router","type":"address"}],"stateMutability":"nonpayable","type":"constructor"},{"anonymous":false,"inputs":[{"indexed":false,"internalType":"string","name":"uri","type":"string"}],"name":"AuditReportUpdated","type":"event"},{"anonymous":false,"inputs":[{"indexed":true,"internalType":"address","name":"token","type":"address"},{"indexed":true,"internalType":"address","name":"buyer","type":"address"},{"indexed":false,"internalType":"uint256","name":"amount","type":"uint256"},{"indexed":false,"internalType":"uint256","name":"cost","type":"uint256"}],"name":"Bought","type":"event"},{"anonymous":false,"inputs":[{"indexed":true,"internalType":"address","name":"token","type":"address"},{"indexed":true,"internalType":"address","name":"buyer","type":"address"},{"indexed":false,"internalType":"uint256","name":"amountAtomic","type":"uint256"},{"indexed":false,"internalType":"uint256","name":"cost","type":"uint256"},{"indexed":false,"internalType":"bytes32","name":"referralCode","type":"bytes32"}],"name":"BuyExecuted","type":"event"},{"anonymous":false,"inputs":[{"indexed":true,"internalType":"address","name":"token","type":"address"},{"indexed":true,"internalType":"address","name":"payer","type":"address"},{"indexed":false,"internalType":"uint256","name":"platformFee","type":"uint256"},{"indexed":false,"internalType":"uint256","name":"creatorFee","type":"uint256"},{"indexed":false,"internalType":"uint256","name":"referralFee","type":"uint256"}],"name":"FeeDistributed","type":"event"},{"anonymous":false,"inputs":[{"indexed":true,"internalType":"address","name":"token","type":"address"},{"indexed":false,"internalType":"uint256","name":"nextPrice","type":"uint256"},{"indexed":false,"internalType":"uint256","name":"timestamp","type":"uint256"}],"name":"NextPrice","type":"event"},{"anonymous":false,"inputs":[{"indexed":false,"internalType":"address","name":"account","type":"address"}],"name":"Paused","type":"event"},{"anonymous":false,"inputs":[{"indexed":true,"internalType":"address","name":"token","type":"address"},{"indexed":true,"internalType":"address","name":"pair","type":"address"}],"name":"PoolCreated","type":"event"},{"anonymous":false,"inputs":[{"indexed":true,"internalType":"address","name":"token","type":"address"},{"indexed":true,"internalType":"address","name":"buyer","type":"address"},{"indexed":false,"internalType":"uint256","name":"amount","type":"uint256"},{"indexed":false,"internalType":"uint256","name":"cost","type":"uint256"},{"indexed":false,"internalType":"address","name":"referrer","type":"address"}],"name":"PresalePurchased","type":"event"},{"anonymous":false,"inputs":[{"indexed":false,"internalType":"bytes32","name":"code","type":"bytes32"},{"indexed":true,"internalType":"address","name":"creator","type":"address"}],"name":"ReferralCodeRegistered","type":"event"},{"anonymous":false,"inputs":[{"indexed":true,"internalType":"bytes32","name":"role","type":"bytes32"},{"indexed":true,"internalType":"bytes32","name":"previousAdminRole","type":"bytes32"},{"indexed":true,"internalType":"bytes32","name":"newAdminRole","type":"bytes32"}],"name":"RoleAdminChanged","type":"event"},{"anonymous":false,"inputs":[{"indexed":true,"internalType":"bytes32","name":"role","type":"bytes32"},{"indexed":true,"internalType":"address","name":"account","type":"address"},{"indexed":true,"internalType":"address","name":"sender","type":"address"}],"name":"RoleGranted","type":"event"},{"anonymous":false,"inputs":[{"indexed":true,"internalType":"bytes32","name":"role","type":"bytes32"},{"indexed":true,"internalType":"address","name":"account","type":"address"},{"indexed":true,"internalType":"address","name":"sender","type":"address"}],"name":"RoleRevoked","type":"event"},{"anonymous":false,"inputs":[{"indexed":true,"internalType":"address","name":"token","type":"address"},{"indexed":true,"internalType":"address","name":"seller","type":"address"},{"indexed":false,"internalType":"uint256","name":"amount","type":"uint256"},{"indexed":false,"internalType":"uint256","name":"refund","type":"uint256"}],"name":"Sold","type":"event"},{"anonymous":false,"inputs":[{"indexed":true,"internalType":"address","name":"token","type":"address"},{"indexed":true,"internalType":"address","name":"creator","type":"address"}],"name":"TokenCreated","type":"event"},{"anonymous":false,"inputs":[{"indexed":false,"internalType":"address","name":"account","type":"address"}],"name":"Unpaused","type":"event"},{"anonymous":false,"inputs":[{"indexed":true,"internalType":"address","name":"token","type":"address"},{"indexed":true,"internalType":"address","name":"user","type":"address"},{"indexed":false,"internalType":"uint256","name":"amount","type":"uint256"}],"name":"VaultClaimed","type":"event"},{"anonymous":false,"inputs":[{"indexed":true,"internalType":"address","name":"token","type":"address"},{"indexed":true,"internalType":"address","name":"user","type":"address"},{"indexed":false,"internalType":"uint256","name":"amount","type":"uint256"}],"name":"VaultDeposited","type":"event"},{"anonymous":false,"inputs":[{"indexed":true,"internalType":"address","name":"token","type":"address"},{"indexed":false,"internalType":"uint256","name":"timestamp","type":"uint256"}],"name":"VaultReleasedManual","type":"event"},{"anonymous":false,"inputs":[{"indexed":true,"internalType":"address","name":"token","type":"address"},{"indexed":false,"internalType":"address","name":"vestingContract","type":"address"}],"name":"VestingCreated","type":"event"},{"stateMutability":"payable","type":"fallback"},{"inputs":[],"name":"DEFAULT_ADMIN_ROLE","outputs":[{"internalType":"bytes32","name":"","type":"bytes32"}],"stateMutability":"view","type":"function"},{"inputs":[],"name":"OPERATOR_ROLE","outputs":[{"internalType":"bytes32","name":"","type":"bytes32"}],"stateMutability":"view","type":"function"},{"inputs":[],"name":"PAUSER_ROLE","outputs":[{"internalType":"bytes32","name":"","type":"bytes32"}],"stateMutability":"view","type":"function"},{"inputs":[],"name":"POOL_CREATION_FEE","outputs":[{"internalType":"uint256","name":"","type":"uint256"}],"stateMutability":"view","type":"function"},{"inputs":[],"name":"WETH","outputs":[{"internalType":"address","name":"","type":"address"}],"stateMutability":"view","type":"function"},{"inputs":[],"name":"airdropModule","outputs":[{"internalType":"contract AirdropMerkle","name":"","type":"address"}],"stateMutability":"view","type":"function"},{"inputs":[{"internalType":"uint256","name":"","type":"uint256"}],"name":"allTokens","outputs":[{"internalType":"address","name":"token","type":"address"},{"internalType":"address","name":"creator","type":"address"},{"internalType":"enum MemeCoinFactory.LaunchMode","name":"launchMode","type":"uint8"},{"internalType":"uint256","name":"preMintCap","type":"uint256"},{"internalType":"bool","name":"active","type":"bool"},{"internalType":"uint256","name":"vaultEnd","type":"uint256"}],"stateMutability":"view","type":"function"},{"inputs":[],"name":"auditReportURI","outputs":[{"internalType":"string","name":"","type":"string"}],"stateMutability":"view","type":"function"},{"inputs":[{"internalType":"address","name":"t","type":"address"},{"internalType":"uint256","name":"a","type":"uint256"},{"internalType":"uint256","name":"","type":"uint256"},{"internalType":"address","name":"r","type":"address"},{"internalType":"bytes32[]","name":"p","type":"bytes32[]"}],"name":"buyPresale","outputs":[],"stateMutability":"payable","type":"function"},{"inputs":[{"internalType":"address","name":"token_","type":"address"},{"internalType":"uint256","name":"amountAtomic","type":"uint256"},{"internalType":"bytes32","name":"referralCode","type":"bytes32"},{"internalType":"uint256","name":"minCost","type":"uint256"}],"name":"buyToken","outputs":[],"stateMutability":"payable","type":"function"},{"inputs":[{"internalType":"uint256","name":"a","type":"uint256"},{"internalType":"bytes32[]","name":"p","type":"bytes32[]"}],"name":"claimAirdrop","outputs":[],"stateMutability":"nonpayable","type":"function"},{"inputs":[],"name":"claimStakeReward","outputs":[],"stateMutability":"nonpayable","type":"function"},{"inputs":[{"internalType":"address","name":"token_","type":"address"}],"name":"claimVault","outputs":[],"stateMutability":"nonpayable","type":"function"},{"inputs":[{"internalType":"address","name":"token_","type":"address"},{"internalType":"uint256","name":"amountAtomic","type":"uint256"}],"name":"costToBuy","outputs":[{"internalType":"uint256","name":"","type":"uint256"}],"stateMutability":"view","type":"function"},{"inputs":[{"internalType":"string","name":"name_","type":"string"},{"internalType":"string","name":"symbol_","type":"string"},{"internalType":"enum MemeCoinFactory.LaunchMode","name":"launchMode_","type":"uint8"},{"internalType":"uint256","name":"preMintCap_","type":"uint256"},{"internalType":"enum MemeCoinFactory.CurveType","name":"curveType_","type":"uint8"},{"internalType":"uint256","name":"basePrice_","type":"uint256"},{"internalType":"uint256","name":"slope_","type":"uint256"},{"internalType":"uint256","name":"exponent_","type":"uint256"},{"internalType":"uint256","name":"stepSize_","type":"uint256"},{"internalType":"uint256","name":"fundingGoal_","type":"uint256"},{"internalType":"uint16","name":"startFeeBP_","type":"uint16"},{"internalType":"uint16","name":"endFeeBP_","type":"uint16"},{"internalType":"uint256","name":"feeChangeStart_","type":"uint256"},{"internalType":"uint256","name":"feeChangeEnd_","type":"uint256"},{"internalType":"uint256","name":"vaultEnd_","type":"uint256"},{"internalType":"uint256","name":"vestAmount_","type":"uint256"},{"internalType":"uint256","name":"vestStart_","type":"uint256"},{"internalType":"uint256","name":"vestDuration_","type":"uint256"},{"internalType":"uint256","name":"totalSupply_","type":"uint256"},{"internalType":"string","name":"ipfsHash_","type":"string"}],"name":"createMemeCoin","outputs":[{"internalType":"address","name":"tokenAddr","type":"address"}],"stateMutability":"nonpayable","type":"function"},{"inputs":[{"internalType":"address","name":"a","type":"address"},{"internalType":"address","name":"b","type":"address"}],"name":"createV2Pool","outputs":[{"internalType":"address","name":"pair","type":"address"}],"stateMutability":"payable","type":"function"},{"inputs":[{"internalType":"address","name":"","type":"address"}],"name":"creatorFeesAccrued","outputs":[{"internalType":"uint256","name":"","type":"uint256"}],"stateMutability":"view","type":"function"},{"inputs":[{"internalType":"address","name":"token_","type":"address"}],"name":"currentPrice","outputs":[{"internalType":"uint256","name":"","type":"uint256"}],"stateMutability":"view","type":"function"},{"inputs":[{"internalType":"address","name":"","type":"address"}],"name":"curves","outputs":[{"internalType":"enum MemeCoinFactory.CurveType","name":"curveType","type":"uint8"},{"internalType":"uint256","name":"basePrice","type":"uint256"},{"internalType":"uint256","name":"slope","type":"uint256"},{"internalType":"uint256","name":"exponent","type":"uint256"},{"internalType":"uint256","name":"stepSize","type":"uint256"},{"internalType":"uint256","name":"totalSold","type":"uint256"},{"internalType":"uint256","name":"fundingGoal","type":"uint256"},{"internalType":"bool","name":"poolCreated","type":"bool"},{"internalType":"uint16","name":"startFeeBP","type":"uint16"},{"internalType":"uint16","name":"endFeeBP","type":"uint16"},{"internalType":"uint256","name":"feeChangeStart","type":"uint256"},{"internalType":"uint256","name":"feeChangeEnd","type":"uint256"}],"stateMutability":"view","type":"function"},{"inputs":[{"internalType":"address","name":"token_","type":"address"}],"name":"depositVault","outputs":[],"stateMutability":"payable","type":"function"},{"inputs":[{"internalType":"bytes32","name":"role","type":"bytes32"}],"name":"getRoleAdmin","outputs":[{"internalType":"bytes32","name":"","type":"bytes32"}],"stateMutability":"view","type":"function"},{"inputs":[{"internalType":"bytes32","name":"role","type":"bytes32"},{"internalType":"address","name":"account","type":"address"}],"name":"grantRole","outputs":[],"stateMutability":"nonpayable","type":"function"},{"inputs":[{"internalType":"bytes32","name":"role","type":"bytes32"},{"internalType":"address","name":"account","type":"address"}],"name":"hasRole","outputs":[{"internalType":"bool","name":"","type":"bool"}],"stateMutability":"view","type":"function"},{"inputs":[],"name":"pause","outputs":[],"stateMutability":"nonpayable","type":"function"},{"inputs":[],"name":"paused","outputs":[{"internalType":"bool","name":"","type":"bool"}],"stateMutability":"view","type":"function"},{"inputs":[],"name":"platformFeeBP","outputs":[{"internalType":"uint16","name":"","type":"uint16"}],"stateMutability":"view","type":"function"},{"inputs":[],"name":"platformFeesAccrued","outputs":[{"internalType":"uint256","name":"","type":"uint256"}],"stateMutability":"view","type":"function"},{"inputs":[{"internalType":"bytes32","name":"","type":"bytes32"}],"name":"referralCodes","outputs":[{"internalType":"address","name":"","type":"address"}],"stateMutability":"view","type":"function"},{"inputs":[],"name":"referralFeeBP","outputs":[{"internalType":"uint16","name":"","type":"uint16"}],"stateMutability":"view","type":"function"},{"inputs":[{"internalType":"bytes32","name":"code","type":"bytes32"}],"name":"registerReferralCode","outputs":[],"stateMutability":"nonpayable","type":"function"},{"inputs":[{"internalType":"address","name":"token_","type":"address"}],"name":"releaseVault","outputs":[],"stateMutability":"nonpayable","type":"function"},{"inputs":[{"internalType":"bytes32","name":"role","type":"bytes32"},{"internalType":"address","name":"account","type":"address"}],"name":"renounceRole","outputs":[],"stateMutability":"nonpayable","type":"function"},{"inputs":[{"internalType":"bytes32","name":"role","type":"bytes32"},{"internalType":"address","name":"account","type":"address"}],"name":"revokeRole","outputs":[],"stateMutability":"nonpayable","type":"function"},{"inputs":[],"name":"router","outputs":[{"internalType":"contract IUniswapV2Router02","name":"","type":"address"}],"stateMutability":"view","type":"function"},{"inputs":[{"internalType":"address","name":"token_","type":"address"},{"internalType":"uint256","name":"amountAtomic","type":"uint256"},{"internalType":"uint256","name":"minRefund","type":"uint256"}],"name":"sellToken","outputs":[],"stateMutability":"nonpayable","type":"function"},{"inputs":[{"internalType":"address","name":"a","type":"address"}],"name":"setAirdropModule","outputs":[],"stateMutability":"nonpayable","type":"function"},{"inputs":[{"internalType":"address","name":"a","type":"address"}],"name":"setStakingModule","outputs":[],"stateMutability":"nonpayable","type":"function"},{"inputs":[{"internalType":"address","name":"a","type":"address"}],"name":"setWhitelistModule","outputs":[],"stateMutability":"nonpayable","type":"function"},{"inputs":[{"internalType":"uint256","name":"amt","type":"uint256"}],"name":"stakeTokens","outputs":[],"stateMutability":"nonpayable","type":"function"},{"inputs":[],"name":"stakingModule","outputs":[{"internalType":"contract StakingRewards","name":"","type":"address"}],"stateMutability":"view","type":"function"},{"inputs":[{"internalType":"bytes4","name":"interfaceId","type":"bytes4"}],"name":"supportsInterface","outputs":[{"internalType":"bool","name":"","type":"bool"}],"stateMutability":"view","type":"function"},{"inputs":[{"internalType":"address","name":"","type":"address"}],"name":"tokenIndexPlusOne","outputs":[{"internalType":"uint256","name":"","type":"uint256"}],"stateMutability":"view","type":"function"},{"inputs":[],"name":"unpause","outputs":[],"stateMutability":"nonpayable","type":"function"},{"inputs":[{"internalType":"string","name":"uri","type":"string"}],"name":"updateAuditReport","outputs":[],"stateMutability":"nonpayable","type":"function"},{"inputs":[],"name":"v2Factory","outputs":[{"internalType":"contract IUniswapV2Factory","name":"","type":"address"}],"stateMutability":"view","type":"function"},{"inputs":[{"internalType":"address","name":"","type":"address"},{"internalType":"address","name":"","type":"address"}],"name":"vaultDeposits","outputs":[{"internalType":"uint256","name":"","type":"uint256"}],"stateMutability":"view","type":"function"},{"inputs":[{"internalType":"address","name":"","type":"address"}],"name":"vaultReleased","outputs":[{"internalType":"bool","name":"","type":"bool"}],"stateMutability":"view","type":"function"},{"inputs":[{"internalType":"address","name":"","type":"address"}],"name":"vaultTotal","outputs":[{"internalType":"uint256","name":"","type":"uint256"}],"stateMutability":"view","type":"function"},{"inputs":[],"name":"whitelistModule","outputs":[{"internalType":"contract WhitelistPresale","name":"","type":"address"}],"stateMutability":"view","type":"function"},{"inputs":[],"name":"withdrawCreatorFees","outputs":[],"stateMutability":"nonpayable","type":"function"},{"inputs":[{"internalType":"address","name":"to","type":"address"}],"name":"withdrawPlatformFees","outputs":[],"stateMutability":"nonpayable","type":"function"},{"inputs":[{"internalType":"uint256","name":"amt","type":"uint256"}],"name":"withdrawStake","outputs":[],"stateMutability":"nonpayable","type":"function"},{"stateMutability":"payable","type":"receive"}],"evm":{"bytecode":{"linkReferences":{},"object":"6080604090808252346200030d57608081620070ff803803809162000025828562000312565b8339810103126200030d576200003b816200034c565b906020916200004c8383016200034c565b91620000686060620000608784016200035c565b92016200035c565b60ff19936001938585541685558460025561ffff80911690808316820190808211620002f75761271091161015620002c55763ffff00006003549260101b169163ffffffff1916171760035560048560018060a01b0380938160018060a01b0319961686600654161760065516808560075416176007558851928380926315ab88c960e31b82525afa908115620002ba576000916200027a575b501690600854161760085560008052600083528360002033600052835260ff846000205416156200023f575b7f65d7a28e3265b37a6474929f336521b332c1681b933f6cb9f3376673440d862a80600052600084528460002033600052845260ff8560002054161562000202575b507f97667070c54ef182b0f5858b034beac1b6f3089aa2d3188bb1e8929f4fa9b9299283600052600081528460002033600052815260ff85600020541615620001c3575b8451616d6d9081620003728239f35b836000526000815284600020903360005252836000209182541617905533903390600080516020620070df833981519152600080a438808080620001b4565b80600052600084528460002033600052845284600020828482541617905533903390600080516020620070df833981519152600080a43862000170565b60008052600083528360002033600052835283600020818382541617905533336000600080516020620070df8339815191528180a46200012e565b908682813d8311620002b2575b62000293818362000312565b81010312620002af5750620002a8906200035c565b3862000102565b80fd5b503d62000287565b87513d6000823e3d90fd5b875162461bcd60e51b815260048101889052600b60248201526a08ccacae6a8dede90d2ced60ab1b6044820152606490fd5b634e487b7160e01b600052601160045260246000fd5b600080fd5b601f909101601f19168101906001600160401b038211908210176200033657604052565b634e487b7160e01b600052604160045260246000fd5b519061ffff821682036200030d57565b51906001600160a01b03821682036200030d5756fe60808060405260043610156200001f575b5036156200001d57600080fd5b005b600090813560e01c90816301ffc9a714620026ca575080630bcae1ac146200262957806322163b861462002609578063248a9ca314620025db57806324bf2f1e14620024e957806325d5971f14620024905780632cc3dc6e14620023c05780632f2ff15d146200230957806335a62e6814620022cc57806336568abe14620022325780633e11741f14620020c75780633f4ba83a146200202d57806349933e131462001b75578063504b82bf1462001b4a57806352ce0fb01462001b075780635c975abb1462001ae25780635e81e3641462001aa55780635f6501ab1462001a50578063606c9187146200184c578063634282af14620017bf5780637547c7a314620016fb578063768c044214620016d05780637b573c5414620016ac5780637e644547146200167757806382522bc01462000f4a57806383f26f381462000f045780638456cb591462000ea45780638943b28e1462000e765780638fea31b01462000e4b57806391d148541462000dfc57806392223cea1462000d095780639fd3af8b1462000ca3578063a0429de61462000c5d578063a217fddf1462000c3f578063ace03a0c1462000b8e578063ad5c46481462000b63578063b4b57c391462000b38578063c4f3e9d71462000967578063c60b494f1462000921578063c748713e14620008e4578063cd30f0381462000825578063d547741f14620007dd578063d9d0a5be146200069e578063dc4ec9be1462000677578063e1cd04b414620005ed578063e5a8a1231462000438578063e63ab1e914620003fb578063e9833c2f14620003c9578063ec3889b51462000326578063f5b541a614620002e9578063f887ea4014620002be5763ff96092a03620000105734620002bb5780600319360112620002bb57602061ffff60035416604051908152f35b80fd5b5034620002bb5780600319360112620002bb576007546040516001600160a01b039091168152602090f35b5034620002bb5780600319360112620002bb5760206040517f97667070c54ef182b0f5858b034beac1b6f3089aa2d3188bb1e8929f4fa9b9298152f35b5034620002bb576020366003190112620002bb576200034462002757565b6200034e62002c58565b6200035862004158565b6004548015620003935782808080936200038b958260045560018060a01b03165af162000384620042f5565b506200444f565b600160025580f35b60405162461bcd60e51b815260206004820152600e60248201526d4e6f506c6174666f726d4665657360901b6044820152606490fd5b5034620002bb576020366003190112620002bb576020620003f3620003ed62002757565b6200338a565b604051908152f35b5034620002bb5780600319360112620002bb5760206040517f65d7a28e3265b37a6474929f336521b332c1681b933f6cb9f3376673440d862a8152f35b5034620002bb57602080600319360112620005e9576200045762002757565b6200046162004158565b6001600160a01b031680835260108252604083205460ff1615620005b657808352600e82526040832033600052825260406000205480156200058557818452600e83526040842033600052835283604060002055818452600c835260408420546000198101908111620005715790620004fb6002620004e46200050194620027b5565b50015491848752600f865260408720549262002f20565b620030a3565b91670de0b6b3a7640000928381029381850414901517156200055d577fb1fd09750e7241fd2b620d8648c4b64ad833cb7d5966c13a8a09a81467681b5c906200054c843385620041ad565b6040519384523393a3600160025580f35b634e487b7160e01b84526011600452602484fd5b634e487b7160e01b85526011600452602485fd5b60405162461bcd60e51b8152600481018490526009602482015268139bd1195c1bdcda5d60ba1b6044820152606490fd5b60405162461bcd60e51b815260048101839052600b60248201526a139bdd14995b19585cd95960aa1b6044820152606490fd5b5080fd5b5034620002bb5780600319360112620002bb576200060a62004158565b3381526005602052604081205480156200064257818080806200038b943382526005602052816040812055335af162000384620042f5565b60405162461bcd60e51b815260206004820152600d60248201526c4e6f43726561746f724665657360981b6044820152606490fd5b5034620002bb5780600319360112620002bb57602061ffff60035460101c16604051908152f35b5060a0366003190112620002bb57620006b662002757565b602435906064356001600160a01b0381811691829003620007d85784906084356001600160401b038111620007d457620006f590369060040162002724565b94906200070162004158565b8260115416803b15620007d0576200075593859360405195869485938493636ce852df60e11b8552169a8b60048501528c60248501528760448501528a606485015260a0608485015260a48401916200442a565b039134905af18015620007c557620007a9575b505060405192835234602084015260408301527f43599fa4170a5a66483c3879de7c1549f90d4990dbe05e13daaf74a7031b863160603393a3600160025580f35b620007b4906200282e565b620007c157833862000768565b8380fd5b6040513d84823e3d90fd5b8480fd5b8280fd5b600080fd5b5034620002bb576040366003190112620002bb5762000822600435620008026200276e565b90808452836020526200081c600160408620015462002d8f565b62002eab565b80f35b5034620002bb576020366003190112620002bb576200084362002757565b6200084d62002aff565b6001600160a01b0316808252600c60205260408220546000198101908111620008d0576004620008816200088c92620027b5565b50015442116200409d565b808252601060205260408220600160ff198254161790557fcb87b7d9f91bab86bc1853ddeb30b507bdf5e886a0784bb2f188b8c5887a31116020604051428152a280f35b634e487b7160e01b83526011600452602483fd5b5034620002bb576020366003190112620002bb576020906040906001600160a01b036200091062002757565b168152600583522054604051908152f35b5034620002bb576020366003190112620002bb576200093f62002757565b6200094962002c58565b60018060a01b03166001600160601b0360a01b601254161760125580f35b506040366003190112620002bb576200097f62002757565b906200098a6200276e565b916200099562002aff565b66071afd498d0000340362000b08576001600160a01b038181169184821683101562000b0257935b60065460405163e6a4390560e01b81526001600160a01b038781166004830152831660248201526020969092918416908784604481855afa93841562000af7579088939291889562000ad3575b508585161562000a47575b505050501680917f4f2ce4e40f623ca765fc0167a25cb7842ceaafb8d82d3dec26ca0d0e0d2d48966040519480a38152f35b6040516364e329cb60e11b81526001600160a01b039182166004820152921660248301529092508290604490829088905af190811562000ac857849162000a94575b508438808062000a15565b62000ab99150853d871162000ac0575b62000ab081836200285e565b810190620040d8565b3862000a89565b503d62000aa4565b6040513d86823e3d90fd5b62000aef919550843d861162000ac05762000ab081836200285e565b933862000a0a565b6040513d89823e3d90fd5b620009bd565b60405162461bcd60e51b815260206004820152600860248201526757726f6e6746656560c01b6044820152606490fd5b5034620002bb5780600319360112620002bb576006546040516001600160a01b039091168152602090f35b5034620002bb5780600319360112620002bb576008546040516001600160a01b039091168152602090f35b5034620002bb576020366003190112620002bb57600435808252600a60205260408220546001600160a01b031662000c0d57808252600a60205260408220336001600160601b0360a01b8254161790556040519081527fbdd9868ce7c59bf465fd8f76e3e3d5b11bba4902126c46a31ed357e70582e02860203392a280f35b60405162461bcd60e51b815260206004820152600a602482015269436f646545786973747360b01b6044820152606490fd5b5034620002bb5780600319360112620002bb57602090604051908152f35b5034620002bb576020366003190112620002bb5762000c7b62002757565b62000c8562002c58565b60018060a01b03166001600160601b0360a01b601354161760135580f35b5034620002bb5780600319360112620002bb5760125481906001600160a01b0316803b1562000d0657818091600460405180948193631e8c5c8960e11b83525af18015620007c55762000cf35750f35b62000cfe906200282e565b620002bb5780f35b50fd5b5034620002bb5780600319360112620002bb57604051908060095462000d2f81620027f1565b8085529160019180831690811562000dcf575060011462000d6f575b62000d6b8562000d5e818703826200285e565b60405191829182620028a5565b0390f35b9250600983527f6e1540171b6c0c960b71a7020d9f60077f6af931a8bbf590da0223dacf75c7af5b82841062000db657505050810160200162000d5e8262000d6b62000d4b565b8054602085870181019190915290930192810162000d97565b86955062000d6b9693506020925062000d5e94915060ff191682840152151560051b820101929362000d4b565b5034620002bb576040366003190112620002bb57604062000e1c6200276e565b91600435815280602052209060018060a01b0316600052602052602060ff604060002054166040519015158152f35b5034620002bb5780600319360112620002bb576011546040516001600160a01b039091168152602090f35b5034620002bb576040366003190112620002bb576020620003f362000e9a62002757565b60243590620030d2565b5034620002bb5780600319360112620002bb5762000ec1620028d3565b62000ecb62004113565b600160ff19815416176001557f62e78cea01bee320cd4e420270b5ea74000d11b0c9f74754ebdbfc544b05a2586020604051338152a180f35b5034620002bb576020366003190112620002bb5762000f2262002757565b62000f2c62002c58565b60018060a01b03166001600160601b0360a01b601154161760115580f35b506080366003190112620002bb5762000f6262002757565b62000f6c62004113565b62000f7662004158565b62000f8460243582620030d2565b62000f946064358210156200405d565b80341062001640578262000fa98234620030c4565b801590811562001616575b5050506001600160a01b0382168352600c602052604083205460001981019081116200055d5762000fe590620027b5565b506001600160a01b0383168452600d60205260408420600482015490929190620010119042116200409d565b60ff600182015460a01c16600281101562001602576001146200159d575b506200104c670de0b6b3a764000060243504600584015462002f4a565b60058301556044358452600a60205260018060a01b036040852054169160018060a01b0384168552600d6020526127109261ffff93806200109d866200109560408b2062004492565b168662002f20565b0494826200158257505085905b620010c182620010bb8787620030c4565b620030c4565b90620010d08660045462002f4a565b6004556001600160a01b0387168852600c6020526040882054600019810181106200156e579062001106899260001901620027b5565b50600101546001600160a01b0316825260056020526040822080546200112e90859062002f4a565b9055838062001545575b5050506040519485526020850152604084015260609233907f5f3016edbdc7fdd9337fbde58cfd0b91bdc732c2c67cead807bc4302ccadb8008560018060a01b03881692a362001195602435336001600160a01b038716620041ad565b6040805160243581526020810184905233916001600160a01b038716917fbf77fd13a39d14dc0da779342c14105c38d9a5d0c60f2caa22f5fd1d5525416d9190a36040516024358152826020820152604435604082015233907f34c0fec97a6c52302fc3c015eb481637e81bcb84a35aea58bd692cf83a03c77a8560018060a01b03881692a362001226846200338a565b604080519182524260208301526001600160a01b038616917ffbcd82ed9d16e1204c8698f6c31409250e7a91d35f141fe4ab721148052f70f09190a2600781019081549060ff821615908162001504575b5062001287575b85600160025580f35b60ff1916600117905560065460085460405163e6a4390560e01b81526001600160a01b0386811660048301529182166024820181905290949287921690602086604481855afa958615620014f9578396620014d3575b506001600160a01b0386161562001454575b505060075460405163095ea7b360e01b81526001600160a01b0390911660048201526024803590820152905060208180604481010381896001600160a01b038a165af18015620014495762001413575b5060075460405163f305d71960e01b81526001600160a01b038681166004830152602480359083015260448201889052606482018890523060848301524260a483015290938392859260c49284929091165af19182620013e4575b5050620013ab575b8080806200127e565b6001600160a01b0390811691167f4f2ce4e40f623ca765fc0167a25cb7842ceaafb8d82d3dec26ca0d0e0d2d48968380a33880620013a2565b813d83116200140b575b620013fa81836200285e565b81010312620007c15738806200139a565b503d620013ee565b620014399060203d60201162001441575b6200143081836200285e565b810190620040f9565b50386200133f565b503d62001424565b6040513d88823e3d90fd5b6040516364e329cb60e11b81526001600160a01b038881166004830152919091166024820152929450602091839160449183915af1908115620014c8578591620014a4575b5091843880620012ef565b620014c1915060203d60201162000ac05762000ab081836200285e565b3862001499565b6040513d87823e3d90fd5b620014f191965060203d60201162000ac05762000ab081836200285e565b9438620012dd565b6040513d85823e3d90fd5b6005810154670de0b6b3a76400008082029350811591840414171562001531576006015411153862001277565b634e487b7160e01b88526011600452602488fd5b82809291819282821562001564575bf115620014495786388362001138565b506108fc62001554565b634e487b7160e01b89526011600452602489fd5b620015959060035460101c168562002f20565b0490620010aa565b6002620015bb670de0b6b3a764000060243504600586015462002f4a565b91015410620015cb57386200102f565b60405162461bcd60e51b815260206004820152600f60248201526e149d5cda10d85c115e18d959591959608a1b6044820152606490fd5b634e487b7160e01b86526021600452602486fd5b828092918192829062001636575b3390f115620007c55782388062000fb4565b506108fc62001624565b60405162461bcd60e51b815260206004820152600f60248201526e092dce6eaccccd2c6d2cadce88aa89608b1b6044820152606490fd5b5034620002bb576020366003190112620002bb576020906004358152600a8252604060018060a01b0391205416604051908152f35b5034620002bb5780600319360112620002bb57602060405166071afd498d00008152f35b5034620002bb5780600319360112620002bb576013546040516001600160a01b039091168152602090f35b5034620002bb576020366003190112620002bb576004356200171c62004113565b600b5415620017a9578190600b60005260018060a01b036200176a82827f0175b7a638427703f0dbe7bb9bbf987a2551717b34e79f33b5b1008d1fa01db954168360125416903390620043cf565b6012541690813b15620017a557829160248392604051948593849263534a7e1d60e11b845260048401525af18015620007c55762000cf35750f35b5050fd5b634e487b7160e01b600052603260045260246000fd5b5034620002bb576020366003190112620002bb57600435600b54811015620005e957620017ec90620027b5565b5060018060a01b03808254169160018101549160ff8360a01c16600283015491600460ff600386015416940154946040519687521660208601526002811015620016025760c09550604085015260608401521515608083015260a0820152f35b5034620002bb5760209081600319360112620002bb576001600160401b0391600435838111620007d4576200188690369060040162002785565b9190936200189362002c58565b821162001a3c57620018a7600954620027f1565b601f8111620019d5575b508293601f83116001146200192a5762001918908385967f6b86e5116747421b9a6543ee4017d9ed593c996144b1233306664721253598bb96916200191e575b508460011b906000198660031b1c1916176009555b60405193838594855284019162003082565b0390a180f35b905081013538620018f1565b600984527f6e1540171b6c0c960b71a7020d9f60077f6af931a8bbf590da0223dacf75c7af601f198416855b818110620019bd5750907f6b86e5116747421b9a6543ee4017d9ed593c996144b1233306664721253598bb95968562001918949310620019a2575b5050600184811b0160095562001906565b820135600019600387901b60f8161c19169055388062001991565b83880135835596840196600190920191840162001956565b600984527f6e1540171b6c0c960b71a7020d9f60077f6af931a8bbf590da0223dacf75c7af601f840160051c81019183851062001a31575b601f0160051c01905b81811062001a255750620018b1565b84815560010162001a16565b909150819062001a0d565b634e487b7160e01b83526041600452602483fd5b5034620002bb576040366003190112620002bb5762001a6e62002757565b604062001a7a6200276e565b9260018060a01b038093168152600e6020522091166000526020526020604060002054604051908152f35b5034620002bb576020366003190112620002bb576020906040906001600160a01b0362001ad162002757565b168152600f83522054604051908152f35b5034620002bb5780600319360112620002bb57602060ff600154166040519015158152f35b5034620002bb576020366003190112620002bb5760209060ff906040906001600160a01b0362001b3662002757565b168152601084522054166040519015158152f35b5034620002bb5780600319360112620002bb576012546040516001600160a01b039091168152602090f35b5034620002bb57610280366003190112620002bb576001600160401b0390600435828111620005e95762001bae90369060040162002785565b602435848111620007c15762001bc990369060040162002785565b90946044359360028510156200202957600460843510156200202957610144359361ffff93848616809603620007d85761016435948516809503620007d85761026435848111620020255762001c2490369060040162002785565b9162001c2f62004113565b62001c3962004158565b62001c4362002aff565b6040519461201c94858701958787108988111762001ffd579262001c848897959362001c969362001cb49896620045b78b3960a0885260a088019162003082565b9060209e8f8784039088015262003082565b92610244356040820152306060820152608081850391015262003082565b039086f0928315620014c8576040519461078e9586810196818810858911176200201157620065d382396001600160a01b038681168852338a890152610204356040890152610224356060890152968190036080019088f0801562000af757861662001d276101e43582898916620041ad565b6040519081527f2ee44d821b06c9aa990927d787f4adf9d8d3eb9bf798ef5c80415cd7a39656028988881692a26040519060c082018281108582111762001fbf5760405286861682528882013381526040830191825260608301606435815260808401916001835260a08501936101c4358552600b546801000000000000000081101562001ffd5780600162001dc19201600b55620027b5565b96909662001fe9578b9051166001600160601b0360a01b8754161786558a6001870192511682549151600281101562001fd5576001600160a81b03199092161760a09190911b60ff60a01b161790555160028401555160038301805491151560ff1660ff199290921691909117905560049051910155600b548585168752600c88526040872055604051916101808301908382109082111762001fbf5760405260843582528682019260a43584526040830160c43581526060840160e4358152608085019161010435835260a08601938a855260c08701956101243587528b60e0890152610100880152610120870152610184356101408701526101a4356101608701528888168a52600d8b5260408a20968651600481101562001fab57885460ff91821660ff19918216178a55915160018a0155915160028901559151600388015591516004870155915160058601559151600685015560e0830151600785018054911515909316911617815560099161016091610100820151815462ffff0064ffff00000061012086015160181b169260081b169064ffffffff00191617179055610140810151600885015501519101556040519233907fd5f9bdf12adf29dab0248c349842c3822d53ae2bb4f36352f301630d018c81398484169180a36001600255168152f35b634e487b7160e01b8c52602160045260248cfd5b634e487b7160e01b600052604160045260246000fd5b634e487b7160e01b8e52602160045260248efd5b634e487b7160e01b8d5260048d905260248dfd5b634e487b7160e01b8d52604160045260248dfd5b634e487b7160e01b89526041600452602489fd5b8880fd5b8580fd5b5034620002bb5780600319360112620002bb576200204a620028d3565b60015460ff8116156200208b5760ff19166001557f5db9ee0a495bf2e6ff9c91a7834c1ba4fdd244a5e8aa4e537bd38aeae4b073aa6020604051338152a180f35b60405162461bcd60e51b815260206004820152601460248201527314185d5cd8589b194e881b9bdd081c185d5cd95960621b6044820152606490fd5b5034620002bb576060366003190112620002bb57620020e562002757565b60243590620020f362004113565b620020fd62004158565b6001600160a01b038116808452600d6020526040842060058101805492949291670de0b6b3a76400008404808410620021fa576200214081620021519362004524565b93620010bb6044358610156200405d565b90556200216182303387620043cf565b8480828015620021ef575b8280929181923390f11562000ac8577ffbcd82ed9d16e1204c8698f6c31409250e7a91d35f141fe4ab721148052f70f092604092620021db9284519182526020820152857f16dd16959a056953a63cf14bf427881e762e54f03d86b864efea8238dd3b822f853393a36200338a565b8151908152426020820152a2600160025580f35b6108fc91506200216c565b60405162461bcd60e51b815260206004820152601060248201526f125b9cdd59999a58da595b9d14dbdb1960821b6044820152606490fd5b5034620002bb576040366003190112620002bb57620022506200276e565b336001600160a01b038216036200226f57620008229060043562002eab565b60405162461bcd60e51b815260206004820152602f60248201527f416363657373436f6e74726f6c3a2063616e206f6e6c792072656e6f756e636560448201526e103937b632b9903337b91039b2b63360891b6064820152608490fd5b5034620002bb576020366003190112620002bb576020906040906001600160a01b03620022f862002757565b168152600c83522054604051908152f35b5034620002bb576040366003190112620002bb576004356200232a6200276e565b8183528260205262002343600160408520015462002d8f565b81835282602052604083209060018060a01b0316908160005260205260ff604060002054161562002372578280f35b8183528260205260408320816000526020526040600020600160ff1982541617905533917f2f8788117e7eff1d82e926ec794901d17c78024a50270940304540a733656f0d8480a438808280f35b5034620002bb576020366003190112620002bb576001600160a01b03620023e662002757565b168152600d6020526040812060ff81541690600181015490600281015460038201546004830154600584015490600685015492600786015494600960088801549701549760405199600481101562001fab576101809b508a5260208a015260408901526060880152608087015260a086015260c085015260ff8116151560e085015261ffff90818160081c1661010086015260181c16610120840152610140830152610160820152f35b5034620002bb576020366003190112620002bb5760125481906001600160a01b0316803b1562000d0657818091602460405180948193632e1a7d4d60e01b835260043560048401525af18015620007c55762000cf35750f35b50602080600319360112620005e9576001600160a01b036200250a62002757565b16808352600c8252604083205460001981019081116200055d5762002531600491620027b5565b5001544211620025a857808352600e82526040832033600052825260406000206200255e34825462002f4a565b9055808352600f8252604083206200257834825462002f4a565b90557f2df8a6513637b00c16fac19a51061303422765fbadb402cc90d7b42acee9cf7d604051923484523393a380f35b60405162461bcd60e51b815260048101839052600b60248201526a15985d5b1d10db1bdcd95960aa1b6044820152606490fd5b5034620002bb576020366003190112620002bb57600160406020926004358152808452200154604051908152f35b5034620002bb5780600319360112620002bb576020600454604051908152f35b5034620002bb576040366003190112620002bb57806024356001600160401b03811162000d06576200266090369060040162002724565b601354909291906001600160a01b0316803b15620007d457620026ab9383604051809681958294632f52ebb760e01b845260043560048501526040602485015260448401916200442a565b03925af18015620007c557620026bf575080f35b62000822906200282e565b905034620005e9576020366003190112620005e95760043563ffffffff60e01b8116809103620007d45760209250637965db0b60e01b811490811562002712575b5015158152f35b6301ffc9a760e01b149050386200270b565b9181601f84011215620007d8578235916001600160401b038311620007d8576020808501948460051b010111620007d857565b600435906001600160a01b0382168203620007d857565b602435906001600160a01b0382168203620007d857565b9181601f84011215620007d8578235916001600160401b038311620007d85760208381860195010111620007d857565b600b54811015620017a957600590600b600052027f0175b7a638427703f0dbe7bb9bbf987a2551717b34e79f33b5b1008d1fa01db90190600090565b90600182811c9216801562002823575b60208310146200280d57565b634e487b7160e01b600052602260045260246000fd5b91607f169162002801565b6001600160401b03811162001fbf57604052565b608081019081106001600160401b0382111762001fbf57604052565b90601f801991011681019081106001600160401b0382111762001fbf57604052565b60005b838110620028945750506000910152565b818101518382015260200162002883565b60409160208252620028c7815180928160208601526020868601910162002880565b601f01601f1916010190565b3360009081527ff7c9542c591017a21c74b6f3fab6263c7952fc0aaf9db4c22a2a04ddc7f8674f60209081526040808320549092907f65d7a28e3265b37a6474929f336521b332c1681b933f6cb9f3376673440d862a9060ff1615620029395750505050565b620029443362002f6a565b845191620029528362002842565b6042835284830193606036863783511562002aeb576030855383519060019182101562002aeb5790607860218601536041915b81831162002a785750505062002a3657620029e193859362002a1b9362002a0b60489462002a329951988576020b1b1b2b9b9a1b7b73a3937b61d1030b1b1b7bab73a1604d1b8b97880152825192839160378901910162002880565b8401917001034b99036b4b9b9b4b733903937b6329607d1b60378401525180938684019062002880565b010360288101855201836200285e565b5162461bcd60e51b815291829160048301620028a5565b0390fd5b60648486519062461bcd60e51b825280600483015260248201527f537472696e67733a20686578206c656e67746820696e73756666696369656e746044820152fd5b909192600f8116601081101562002ad7576f181899199a1a9b1b9c1cb0b131b232b360811b901a62002aab858862002f58565b5360041c92801562002ac35760001901919062002985565b634e487b7160e01b82526011600452602482fd5b634e487b7160e01b83526032600452602483fd5b634e487b7160e01b81526032600452602490fd5b3360009081527fee57cd81e84075558e8fcc182a1f4393f91fc97f963a136e66b7f949a62f319f60209081526040808320549092907f97667070c54ef182b0f5858b034beac1b6f3089aa2d3188bb1e8929f4fa9b9299060ff161562002b655750505050565b62002b703362002f6a565b84519162002b7e8362002842565b6042835284830193606036863783511562002aeb576030855383519060019182101562002aeb5790607860218601536041915b81831162002c0d5750505062002a3657620029e193859362002a1b9362002a0b60489462002a329951988576020b1b1b2b9b9a1b7b73a3937b61d1030b1b1b7bab73a1604d1b8b97880152825192839160378901910162002880565b909192600f8116601081101562002ad7576f181899199a1a9b1b9c1cb0b131b232b360811b901a62002c40858862002f58565b5360041c92801562002ac35760001901919062002bb1565b3360009081527fad3228b676f7d3cd4284a5443f17f1962b36e491b30a40b2405849e597ba5fb5602090815260408083205490929060ff161562002c9b57505050565b62002ca63362002f6a565b8351908262002cb58362002842565b6042835284830193606036863783511562002aeb576030855383519060019182101562002aeb5790607860218601536041915b81831162002d445750505062002a3657620029e193859362002a1b9362002a0b60489462002a329951988576020b1b1b2b9b9a1b7b73a3937b61d1030b1b1b7bab73a1604d1b8b97880152825192839160378901910162002880565b909192600f8116601081101562002ad7576f181899199a1a9b1b9c1cb0b131b232b360811b901a62002d77858862002f58565b5360041c92801562002ac35760001901919062002ce8565b6000818152602090808252604092838220338352835260ff84832054161562002db85750505050565b62002dc33362002f6a565b84519162002dd18362002842565b6042835284830193606036863783511562002aeb576030855383519060019182101562002aeb5790607860218601536041915b81831162002e605750505062002a3657620029e193859362002a1b9362002a0b60489462002a329951988576020b1b1b2b9b9a1b7b73a3937b61d1030b1b1b7bab73a1604d1b8b97880152825192839160378901910162002880565b909192600f8116601081101562002ad7576f181899199a1a9b1b9c1cb0b131b232b360811b901a62002e93858862002f58565b5360041c92801562002ac35760001901919062002e04565b9060009180835282602052604083209160018060a01b03169182845260205260ff60408420541662002edc57505050565b80835282602052604083208284526020526040832060ff1981541690557ff6391f5c32d9c69d2a47ea670b442974b53935d1edc7fd64eb21e047a839171b339380a4565b8181029291811591840414171562002f3457565b634e487b7160e01b600052601160045260246000fd5b9190820180921162002f3457565b908151811015620017a9570160200190565b60405190606082018281106001600160401b0382111762001fbf57604052602a8252602082016040368237825115620017a957603090538151600190811015620017a957607860218401536029905b8082116200300f57505062002fcb5790565b606460405162461bcd60e51b815260206004820152602060248201527f537472696e67733a20686578206c656e67746820696e73756666696369656e746044820152fd5b9091600f811660108110156200306d576f181899199a1a9b1b9c1cb0b131b232b360811b901a62003041848662002f58565b5360041c9180156200305857600019019062002fb9565b60246000634e487b7160e01b81526011600452fd5b60246000634e487b7160e01b81526032600452fd5b908060209392818452848401376000828201840152601f01601f1916010190565b8115620030ae570490565b634e487b7160e01b600052601260045260246000fd5b9190820391821162002f3457565b90670de0b6b3a76400009004908115620031c0576001600160a01b0381166000908152600d60205260408120805490919060ff166004811015620031ac57156200313257505090620031286200312f926200338a565b9062002f20565b90565b9150916005830154916200315c8260026200315260018801548362002f20565b9601549462002f20565b916000198101918183116200319857506200319192620031876200312f969593620031289362002f20565b60011c9062002f4a565b9062002f4a565b634e487b7160e01b81526011600452602490fd5b634e487b7160e01b82526021600452602482fd5b5050600090565b9080156200326c578115620031c05781806001146200326457600214620032525760208110610133831016604e8210600b841016176200324d57600190815b808211620032205750508160001904811162002f34570290565b90928060001904811162002f345781841662003243575b800292811c9062003206565b8092029162003237565b900a90565b905060ff811162002f34576001901b90565b505050600190565b5050600190565b6000808052600d602052604081209060ff8254166004811015620031ac5780620032b9575050806200319160016200312f93015491600560028201549101549062002f20565b60018103620033255750620032d8600283015460058401549062002f20565b91677fffffffffffffff8311620005e9576001620032ff9101549260401b600f0b620033db565b600f0b90808212620002bb5750906001600160401b036200312f9260401d169062002f20565b6002141590506200335a57806200319160016200312f93015491620031286002820154916003600582015491015490620031c7565b806200319160016200312f930154916002620033806005830154600484015490620030a3565b9101549062002f20565b6001600160a01b03166000908152600d60205260408120805490919060ff166004811015620031ac5780620032b9575050806200319160016200312f93015491600560028201549101549062002f20565b600f0b600160461b811215620007d857683fffffffffffffffff1981126200342157700171547652b82fe1777d0ffda0d23a7d126200312f910260801d600f0b62003427565b50600090565b600f81810b600160461b811215620007d857683fffffffffffffffff19811262004055576001607f1b90600093846780000000000000008216850b136200403c575b846740000000000000008216850b136200401e575b846720000000000000008216850b1362004000575b846710000000000000008216850b1362003fe2575b846708000000000000008216850b1362003fc4575b846704000000000000008216850b1362003fa6575b846702000000000000008216850b1362003f88575b846701000000000000008216850b1362003f6a575b8466800000000000008216850b1362003f4c575b8466400000000000008216850b1362003f2e575b8466200000000000008216850b1362003f10575b8466100000000000008216850b1362003ef2575b8466080000000000008216850b1362003ed4575b8466040000000000008216850b1362003eb6575b8466020000000000008216850b1362003e98575b8466010000000000008216850b1362003e7a575b84658000000000008216850b1362003e5c575b84654000000000008216850b1362003e3e575b84652000000000008216850b1362003e20575b84651000000000008216850b1362003e02575b84650800000000008216850b1362003de4575b84650400000000008216850b1362003dc6575b84650200000000008216850b1362003da8575b84650100000000008216850b1362003d8a575b846480000000008216850b1362003d6c575b846440000000008216850b1362003d4e575b846420000000008216850b1362003d30575b846410000000008216850b1362003d12575b846408000000008216850b1362003cf4575b846404000000008216850b1362003cd6575b846402000000008216850b1362003cb8575b846401000000008216850b1362003c9a575b8463800000008216850b1362003c7c575b8463400000008216850b1362003c5e575b8463200000008216850b1362003c40575b8463100000008216850b1362003c22575b8463080000008216850b1362003c04575b8463040000008216850b1362003be6575b8463020000008216850b1362003bc8575b8463010000008216850b1362003baa575b84628000008216850b1362003b8c575b84624000008216850b1362003b6e575b84622000008216850b1362003b50575b84621000008216850b1362003b32575b84620800008216850b1362003b14575b84620400008216850b1362003af6575b84620200008216850b1362003ad8575b84620100008216850b1362003aba575b846180008216850b1362003a9c575b846140008216850b1362003a7e575b846120008216850b1362003a60575b846110008216850b1362003a42575b846108008216850b1362003a24575b846104008216850b1362003a06575b846102008216850b13620039e8575b846101008216850b13620039ca575b8460809181838216870b13620039ad575b8160408216870b1362003990575b8160208216870b1362003973575b8160108216870b1362003956575b8160088216870b1362003939575b8160048216870b136200391c575b8160028216870b13620038fe575b600116850b13620038df575b5060401d820b603f03820b1c916f7fffffffffffffffffffffffffffffff8311620002bb57500b90565b909170010000000000000000b17217f7d1cf79ab02901c9038620038b5565b7001000000000000000162e42fefa39ef358909402821c93620038a9565b9370010000000000000002c5c85fdf473de6b202821c936200389b565b93700100000000000000058b90bfbe8e7bcd6d02821c936200388d565b937001000000000000000b17217f7d1cf79afa02821c936200387f565b93700100000000000000162e42fefa39ef366f02821c9362003871565b937001000000000000002c5c85fdf473de6eca02821c9362003863565b9370010000000000000058b90bfbe8e7bce54402821c9362003855565b91700100000000000000b17217f7d1cf79e9490260801c9162003844565b9170010000000000000162e42fefa39ef44d910260801c9162003835565b91700100000000000002c5c85fdf473dea871f0260801c9162003826565b917001000000000000058b90bfbe8e7bdcbe2e0260801c9162003817565b9170010000000000000b17217f7d1cf7d83c1a0260801c9162003808565b917001000000000000162e42fefa39f02b772c0260801c91620037f9565b9170010000000000002c5c85fdf473e242ea380260801c91620037ea565b91700100000000000058b90bfbe8e7cc35c3f00260801c91620037db565b917001000000000000b17217f7d1cfb72b45e10260801c91620037cc565b91700100000000000162e42fefa39fe95583c20260801c91620037bc565b917001000000000002c5c85fdf4741bea6e77e0260801c91620037ac565b9170010000000000058b90bfbe8e8b2d3d4ede0260801c916200379c565b91700100000000000b17217f7d1d351a389d400260801c916200378c565b9170010000000000162e42fefa3ae53369388c0260801c916200377c565b91700100000000002c5c85fdf477b662b269450260801c916200376c565b917001000000000058b90bfbe8f71cb4e4b33d0260801c916200375c565b9170010000000000b17217f7d20cf927c8e94c0260801c916200374c565b917001000000000162e42fefa494f1478fde050260801c916200373b565b9170010000000002c5c85fdf4b15de6f17eb0d0260801c916200372a565b91700100000000058b90bfbe9ddbac5e109cce0260801c9162003719565b917001000000000b17217f7d5a7716bba4a9ae0260801c9162003708565b91700100000000162e42fefb2fed257559bdaa0260801c91620036f7565b917001000000002c5c85fdf84bd62ae30a74cc0260801c91620036e6565b9170010000000058b90bfbf8479bd5a81b51ad0260801c91620036d5565b91700100000000b17217f80f4ef5aadda455540260801c91620036c4565b9170010000000162e42ff0999ce3541b9fffcf0260801c91620036b2565b91700100000002c5c85fe31f35a6a30da1be500260801c91620036a0565b917001000000058b90bfcdee5acd3c1cedc8230260801c916200368e565b9170010000000b17217fba9c739aa5819f44f90260801c916200367c565b917001000000162e42fff037df38aa2b219f060260801c916200366a565b9170010000002c5c8601cc6b9e94213c72737a0260801c9162003658565b91700100000058b90c0b48c6be5df846c5b2ef0260801c9162003646565b917001000000b1721835514b86e6d96efd1bfe0260801c9162003634565b91700100000162e430e5a18f6119e3c02282a50260801c9162003621565b917001000002c5c863b73f016468f6bac5ca2b0260801c916200360e565b9170010000058b90cf1e6d97f9ca14dbcc16280260801c91620035fb565b91700100000b1721bcfc99d9f890ea069117630260801c91620035e8565b9170010000162e43f4f831060e02d839a9d16d0260801c91620035d5565b91700100002c5c89d5ec6ca4d7c8acc017b7c90260801c91620035c2565b917001000058b91b5bc9ae2eed81e9b7d4cfab0260801c91620035af565b9170010000b17255775c040618bf4a4ade83fc0260801c916200359c565b917001000162e525ee054754457d59952920260260801c9162003588565b9170010002c5cc37da9491d0985c348c68e7b30260801c9162003574565b91700100058ba01fb9f96d6cacd4b180917c3d0260801c9162003560565b917001000b175effdc76ba38e31671ca9397250260801c916200354c565b91700100162f3904051fa128bca9c55c31e5df0260801c9162003538565b917001002c605e2e8cec506d21bfc89a23a00f0260801c9162003524565b9170010058c86da1c09ea1ff19d294cf2f679b0260801c9162003510565b91700100b1afa5abcbed6129ab13ec11dc95430260801c91620034fc565b9170010163da9fb33356d84a66ae336dcdfa3f0260801c91620034e7565b91700102c9a3e778060ee6f7caca4f7a29bde80260801c91620034d2565b917001059b0d31585743ae7c548eb68ca417fd0260801c91620034bd565b9170010b5586cf9890f6298b92b71842a983630260801c91620034a8565b917001172b83c7d517adcdf7c8c50eb14a791f0260801c9162003493565b917001306fe0a31b7152de8d5a46305c85edec0260801c916200347e565b6fb504f333f9de6484597d89b3754abe9f925062003469565b505050600090565b156200406557565b60405162461bcd60e51b815260206004820152601060248201526f14db1a5c1c1859d9515e18d95959195960821b6044820152606490fd5b15620040a557565b60405162461bcd60e51b815260206004820152600b60248201526a5661756c7441637469766560a81b6044820152606490fd5b90816020910312620007d857516001600160a01b0381168103620007d85790565b90816020910312620007d857518015158103620007d85790565b60ff600154166200412057565b60405162461bcd60e51b815260206004820152601060248201526f14185d5cd8589b194e881c185d5cd95960821b6044820152606490fd5b6002805414620041685760028055565b60405162461bcd60e51b815260206004820152601f60248201527f5265656e7472616e637947756172643a207265656e7472616e742063616c6c006044820152606490fd5b60405163a9059cbb60e01b60208201526001600160a01b03929092166024830152604480830193909352918152620041f291620041ec6064836200285e565b620041f4565b565b60408051908101916001600160a01b03166001600160401b0383118284101762001fbf5762004268926040526000806020958685527f5361666545524332303a206c6f772d6c6576656c2063616c6c206661696c656487860152868151910182855af162004261620042f5565b9162004338565b805190828215928315620042da575b50505015620042835750565b6084906040519062461bcd60e51b82526004820152602a60248201527f5361666545524332303a204552433230206f7065726174696f6e20646964206e6044820152691bdd081cdd58d8d9595960b21b6064820152fd5b620042ec9350820181019101620040f9565b38828162004277565b3d1562004333573d906001600160401b03821162001fbf576040519162004327601f8201601f1916602001846200285e565b82523d6000602084013e565b606090565b919290156200439d57508151156200434e575090565b3b15620043585790565b60405162461bcd60e51b815260206004820152601d60248201527f416464726573733a2063616c6c20746f206e6f6e2d636f6e74726163740000006044820152606490fd5b825190915015620043b15750805190602001fd5b60405162461bcd60e51b815290819062002a329060048301620028a5565b6040516323b872dd60e01b60208201526001600160a01b03928316602482015292909116604483015260648083019390935291815260a08101918183106001600160401b0384111762001fbf57620041f292604052620041f4565b81835290916001600160fb1b038311620007d85760209260051b809284830137010190565b156200445757565b60405162461bcd60e51b815260206004820152601360248201527211551217d514905394d1915497d19052531151606a1b6044820152606490fd5b6008810154908142106200451457600981015491824210156200450357620044c981620044c260079342620030c4565b94620030c4565b91015461ffff928184809360081c1692839160181c16039284841162002f3457620004fb620031919286620044ff961662002f20565b1690565b5061ffff91506007015460181c1690565b61ffff91506007015460081c1690565b60ff8154166004811015620045a057156200454957506200312f906200312862003273565b600581015491620045708160026200456660018601548362002f20565b9401549462002f20565b926001820180831162002f34576200312f94620045966200312892620031919562002f20565b60011c90620030c4565b634e487b7160e01b600052602160045260246000fdfe6101608060405234620007cd576200201c8038038091620000218285620007d2565b8339810160a082820312620007cd5781516001600160401b038111620007cd57816200004f9184016200081b565b60208301519092906001600160401b038111620007cd5782620000749183016200081b565b60408201516060830151939092906001600160a01b0385168503620007cd5760808201516001600160401b038111620007cd57620000b392016200081b565b604080519195919081016001600160401b03811182821017620005605760405260018152603160f81b602082015281516001600160401b0381116200056057600354600181811c91168015620007c2575b60208210146200053f57601f81116200075c575b50806020601f8211600114620006d257600091620006c6575b508160011b916000199060031b1c1916176003555b82516001600160401b0381116200056057600454600181811c91168015620006bb575b60208210146200053f57601f811162000651575b50806020601f8211600114620005c757600091620005bb575b508160011b916000199060031b1c1916176004555b620001b682620008bf565b61012052620001c58162000a64565b6101405281516020830120908160e0526020815191012080610100524660a052604051917f8b73c3c69bb8fe3d512ecc4cf759cc79239f7b179b0ffacaa9a75d522b39400f6020840152604083015260608201524660808201523060a082015260a081528060c081011060018060401b0360c083011117620005605760c08101604052805160208201206080523060c052620002613362000876565b6001600160a01b03851615620005a7575060039051109081156200059a575b5062000588578015620005765782516001600160401b0381116200056057600a54600181811c9116801562000555575b60208210146200053f57601f8111620004e6575b506020601f82116001146200046d578192939460009262000461575b50508160011b916000199060031b1c191617600a555b33156200041c576002548181018091116200040657600255336000526000602052604060002081815401905560405190815260007fddf252ad1be2c89b69c2b068fc378daa952ba7f163c4a11628f55a4df523b3ef60203393a3600954336001600160a01b0390911603620003c257620003709062000876565b604051611440908162000bbc82396080518161118b015260a05181611257015260c05181611155015260e051816111da01526101005181611200015261012051816106a8015261014051816106d20152f35b606460405162461bcd60e51b815260206004820152602060248201527f4f776e61626c653a2063616c6c6572206973206e6f7420746865206f776e65726044820152fd5b634e487b7160e01b600052601160045260246000fd5b60405162461bcd60e51b815260206004820152601f60248201527f45524332303a206d696e7420746f20746865207a65726f2061646472657373006044820152606490fd5b015190503880620002e0565b600a600090815260008051602062001ffc8339815191529190601f198416905b818110620004cd57509583600195969710620004b3575b505050811b01600a55620002f6565b015160001960f88460031b161c19169055388080620004a4565b9192602060018192868b0151815501940192016200048d565b600a60005260008051602062001ffc833981519152601f830160051c8101916020841062000534575b601f0160051c01905b818110620005275750620002c4565b6000815560010162000518565b90915081906200050f565b634e487b7160e01b600052602260045260246000fd5b90607f1690620002b0565b634e487b7160e01b600052604160045260246000fd5b60405163c16f3a9360e01b8152600490fd5b604051639432241960e01b8152600490fd5b6003915051103862000280565b60c060049163d92e233d60e01b8282015201fd5b90508401513862000196565b6004600090815292507f8a35acfbc15ff81a39ae7d344fd709f28e8600b4aa8c65c6b64bfe7fe36bd19b905b601f198316841062000638576001935082601f198116106200061e575b5050811b01600455620001ab565b86015160001960f88460031b161c19169055388062000610565b86810151825560209384019360019092019101620005f3565b60046000527f8a35acfbc15ff81a39ae7d344fd709f28e8600b4aa8c65c6b64bfe7fe36bd19b601f830160051c81019160208410620006b0575b601f0160051c01905b818110620006a357506200017d565b6000815560010162000694565b90915081906200068b565b90607f169062000169565b90508301513862000131565b6003600090815292507fc2575a0e9e593c00f959f8c92f12db2869c3395a3b0502d05e2516446f71f85b905b601f198316841062000743576001935082601f1981161062000729575b5050811b0160035562000146565b85015160001960f88460031b161c1916905538806200071b565b85810151825560209384019360019092019101620006fe565b60036000527fc2575a0e9e593c00f959f8c92f12db2869c3395a3b0502d05e2516446f71f85b601f830160051c810160208410620007ba575b601f830160051c82018110620007ad57505062000118565b6000815560010162000795565b508062000795565b90607f169062000104565b600080fd5b601f909101601f19168101906001600160401b038211908210176200056057604052565b60005b8381106200080a5750506000910152565b8181015183820152602001620007f9565b81601f82011215620007cd5780516001600160401b03811162000560576040519262000852601f8301601f191660200185620007d2565b81845260208284010111620007cd57620008739160208085019101620007f6565b90565b600980546001600160a01b039283166001600160a01b0319821681179092559091167f8be0079c531659141344cd1fd0a4f28419497f9722a3daafe3b4186f6b6457e0600080a3565b805160209190828110156200093f575090601f825111620008fd5780825192015190808310620008ee57501790565b82600019910360031b1b161790565b604490620009319260405193849263305a27a960e01b845280600485015282519283918260248701528686019101620007f6565b601f01601f19168101030190fd5b6001600160401b03811162000560576005928354926001938481811c9116801562000a59575b838210146200053f57601f811162000a22575b5081601f8411600114620009b85750928293918392600094620009ac575b50501b916000199060031b1c191617905560ff90565b01519250388062000996565b919083601f1981168760005284600020946000905b8883831062000a075750505010620009ed575b505050811b01905560ff90565b015160001960f88460031b161c19169055388080620009e0565b858701518855909601959485019487935090810190620009cd565b8560005284601f846000209201871c820191601f8601881c015b82811062000a4c57505062000978565b6000815501859062000a3c565b90607f169062000965565b80516020908181101562000a915750601f825111620008fd5780825192015190808310620008ee57501790565b906001600160401b0382116200056057600654926001938481811c9116801562000bb0575b838210146200053f57601f811162000b76575b5081601f841160011462000b0a575092829391839260009462000afe575b50501b916000199060031b1c19161760065560ff90565b01519250388062000ae7565b919083601f198116600660005284600020946000905b8883831062000b5b575050501062000b41575b505050811b0160065560ff90565b015160001960f88460031b161c1916905538808062000b33565b85870151885590960195948501948793509081019062000b20565b600660005284601f84600020920160051c820191601f860160051c015b82811062000ba357505062000ac9565b6000815501859062000b93565b90607f169062000ab656fe6080604081815260048036101561001557600080fd5b600092833560e01c90816306fdde0314610b3a57508063095ea7b314610b1057806318160ddd14610af157806323b872dd14610a27578063313ce56714610a0b5780633644e515146109e757806339509351146109805780633c130d901461087a57806370a0823114610843578063715018a6146107e65780637ecebe00146107ae57806384b0196e146106915780638da5cb5b1461066857806395d89b4114610594578063a457c2d7146104ed578063a9059cbb146104bc578063c623674f146103d3578063d505accf1461021a578063dd62ed3e146101cd5763f2fde38b146100ff57600080fd5b346101c95760203660031901126101c957610118610c22565b90610121610ce1565b6001600160a01b03918216928315610177575050600954826bffffffffffffffffffffffff60a01b821617600955167f8be0079c531659141344cd1fd0a4f28419497f9722a3daafe3b4186f6b6457e08380a380f35b906020608492519162461bcd60e51b8352820152602660248201527f4f776e61626c653a206e6577206f776e657220697320746865207a65726f206160448201526564647265737360d01b6064820152fd5b8280fd5b505034610216578060031936011261021657806020926101eb610c22565b6101f3610c3d565b6001600160a01b0391821683526001865283832091168252845220549051908152f35b5080fd5b508290346102165760e036600319011261021657610236610c22565b61023e610c3d565b906044359260643560843560ff811681036103cf5781421161038c5760018060a01b0390818516928389526007602052898920908154916001830190558a519060208201927f6e71edae12b1b97f4d1f60370fef10105fa2faae0126114a169c64845d6126c98452868d840152858a1660608401528a608084015260a083015260c082015260c0815260e0810181811067ffffffffffffffff821117610379578b5251902061032191610319916102f3611152565b908c519161190160f01b83526002830152602282015260c43591604260a43592206110c3565b919091610fa9565b16036103365750610333939450610ea7565b80f35b606490602087519162461bcd60e51b8352820152601e60248201527f45524332305065726d69743a20696e76616c6964207369676e617475726500006044820152fd5b634e487b7160e01b8b526041875260248bfd5b875162461bcd60e51b8152602081850152601d60248201527f45524332305065726d69743a206578706972656420646561646c696e650000006044820152606490fd5b8680fd5b50503461021657816003193601126102165780519082600a546103f581610c53565b808552916001918083169081156104945750600114610437575b50505061042182610433940383610cbf565b51918291602083526020830190610be2565b0390f35b9450600a85527fc65a7bb8d6351c1cf70c95a316cc6a92839c986682d98bc35f958f4883f9d2a85b82861061047c57505050610421826020610433958201019461040f565b8054602087870181019190915290950194810161045f565b61043397508693506020925061042194915060ff191682840152151560051b8201019461040f565b5050346102165780600319360112610216576020906104e66104dc610c22565b6024359033610d39565b5160018152f35b508234610591578260031936011261059157610507610c22565b918360243592338152600160205281812060018060a01b0386168252602052205490828210610540576020856104e68585038733610ea7565b608490602086519162461bcd60e51b8352820152602560248201527f45524332303a2064656372656173656420616c6c6f77616e63652062656c6f77604482015264207a65726f60d81b6064820152fd5b80fd5b5090346101c957826003193601126101c957805191838154906105b682610c53565b8086529260019280841690811561063d57506001146105e1575b6104338686610421828b0383610cbf565b815294507f8a35acfbc15ff81a39ae7d344fd709f28e8600b4aa8c65c6b64bfe7fe36bd19b5b828610610625575050506104218260206104339582010194386105d0565b80546020878701810191909152909501948101610607565b905061043397508693506020925061042194915060ff191682840152151560051b82010194386105d0565b50503461021657816003193601126102165760095490516001600160a01b039091168152602090f35b5090346101c957826003193601126101c9576106cc7f000000000000000000000000000000000000000000000000000000000000000061127d565b926106f67f0000000000000000000000000000000000000000000000000000000000000000611379565b908251926020928385019585871067ffffffffffffffff88111761079b57509280610751838896610744998b9996528686528151998a99600f60f81b8b5260e0868c015260e08b0190610be2565b91898303908a0152610be2565b924660608801523060808801528460a088015286840360c088015251928381520193925b82811061078457505050500390f35b835185528695509381019392810192600101610775565b634e487b7160e01b845260419052602483fd5b5050346102165760203660031901126102165760209181906001600160a01b036107d6610c22565b1681526007845220549051908152f35b83346105915780600319360112610591576107ff610ce1565b600980546001600160a01b0319811690915581906001600160a01b03167f8be0079c531659141344cd1fd0a4f28419497f9722a3daafe3b4186f6b6457e08280a380f35b5050346102165760203660031901126102165760209181906001600160a01b0361086b610c22565b16815280845220549051908152f35b8284346105915780600319360112610591578151918260209266697066733a2f2f60c81b8483015280600a54906108b082610c53565b9160019081811690811561095557506001146108f0575b50505061043392916108e19103601f198101865285610cbf565b51928284938452830190610be2565b8695949350600a82527fc65a7bb8d6351c1cf70c95a316cc6a92839c986682d98bc35f958f4883f9d2a85b83831061093c575093945091925082016027019050816108e16104336108c7565b80546027848b010152879689955090920191810161091b565b90506108e1945060279250610433969593915060ff19168284015280151502820101918193946108c7565b50913461059157816003193601126105915761099a610c22565b338252600160209081528383206001600160a01b03831684529052828220546024358101929083106109d4576020846104e6858533610ea7565b634e487b7160e01b815260118552602490fd5b505034610216578160031936011261021657602090610a04611152565b9051908152f35b5050346102165781600319360112610216576020905160128152f35b5082903461021657606036600319011261021657610a43610c22565b610a4b610c3d565b91846044359460018060a01b038416815260016020528181203382526020522054906000198203610a85575b6020866104e6878787610d39565b848210610aae5750918391610aa3602096956104e695033383610ea7565b919394819350610a77565b606490602087519162461bcd60e51b8352820152601d60248201527f45524332303a20696e73756666696369656e7420616c6c6f77616e63650000006044820152fd5b5050346102165781600319360112610216576020906002549051908152f35b5050346102165780600319360112610216576020906104e6610b30610c22565b6024359033610ea7565b849084346101c957826003193601126101c95782600354610b5a81610c53565b808552916001918083169081156104945750600114610b855750505061042182610433940383610cbf565b9450600385527fc2575a0e9e593c00f959f8c92f12db2869c3395a3b0502d05e2516446f71f85b5b828610610bca57505050610421826020610433958201019461040f565b80546020878701810191909152909501948101610bad565b919082519283825260005b848110610c0e575050826000602080949584010152601f8019910116010190565b602081830181015184830182015201610bed565b600435906001600160a01b0382168203610c3857565b600080fd5b602435906001600160a01b0382168203610c3857565b90600182811c92168015610c83575b6020831014610c6d57565b634e487b7160e01b600052602260045260246000fd5b91607f1691610c62565b6040810190811067ffffffffffffffff821117610ca957604052565b634e487b7160e01b600052604160045260246000fd5b90601f8019910116810190811067ffffffffffffffff821117610ca957604052565b6009546001600160a01b03163303610cf557565b606460405162461bcd60e51b815260206004820152602060248201527f4f776e61626c653a2063616c6c6572206973206e6f7420746865206f776e65726044820152fd5b6001600160a01b03908116918215610e545716918215610e0357600082815280602052604081205491808310610daf57604082827fddf252ad1be2c89b69c2b068fc378daa952ba7f163c4a11628f55a4df523b3ef958760209652828652038282205586815220818154019055604051908152a3565b60405162461bcd60e51b815260206004820152602660248201527f45524332303a207472616e7366657220616d6f756e7420657863656564732062604482015265616c616e636560d01b6064820152608490fd5b60405162461bcd60e51b815260206004820152602360248201527f45524332303a207472616e7366657220746f20746865207a65726f206164647260448201526265737360e81b6064820152608490fd5b60405162461bcd60e51b815260206004820152602560248201527f45524332303a207472616e736665722066726f6d20746865207a65726f206164604482015264647265737360d81b6064820152608490fd5b6001600160a01b03908116918215610f585716918215610f085760207f8c5be1e5ebec7d5bd14f71427d1e84f3dd0314c0f7b2291e5b200ac8c7c3b925918360005260018252604060002085600052825280604060002055604051908152a3565b60405162461bcd60e51b815260206004820152602260248201527f45524332303a20617070726f766520746f20746865207a65726f206164647265604482015261737360f01b6064820152608490fd5b60405162461bcd60e51b8152602060048201526024808201527f45524332303a20617070726f76652066726f6d20746865207a65726f206164646044820152637265737360e01b6064820152608490fd5b60058110156110ad5780610fba5750565b600181036110075760405162461bcd60e51b815260206004820152601860248201527f45434453413a20696e76616c6964207369676e617475726500000000000000006044820152606490fd5b600281036110545760405162461bcd60e51b815260206004820152601f60248201527f45434453413a20696e76616c6964207369676e6174757265206c656e677468006044820152606490fd5b60031461105d57565b60405162461bcd60e51b815260206004820152602260248201527f45434453413a20696e76616c6964207369676e6174757265202773272076616c604482015261756560f01b6064820152608490fd5b634e487b7160e01b600052602160045260246000fd5b9291907f7fffffffffffffffffffffffffffffff5d576e7357a4501ddfe92f46681b20a083116111465791608094939160ff602094604051948552168484015260408301526060820152600093849182805260015afa156111395781516001600160a01b03811615611133579190565b50600190565b50604051903d90823e3d90fd5b50505050600090600390565b307f00000000000000000000000000000000000000000000000000000000000000006001600160a01b03161480611254575b156111ad577f000000000000000000000000000000000000000000000000000000000000000090565b60405160208101907f8b73c3c69bb8fe3d512ecc4cf759cc79239f7b179b0ffacaa9a75d522b39400f82527f000000000000000000000000000000000000000000000000000000000000000060408201527f000000000000000000000000000000000000000000000000000000000000000060608201524660808201523060a082015260a0815260c0810181811067ffffffffffffffff821117610ca95760405251902090565b507f00000000000000000000000000000000000000000000000000000000000000004614611184565b60ff81146112bb5760ff811690601f82116112a9576040519161129f83610c8d565b8252602082015290565b604051632cd44ac360e21b8152600490fd5b506040516005548160006112ce83610c53565b8083529260019081811690811561135757506001146112f8575b506112f592500382610cbf565b90565b6005600090815291507f036b6384b5eca791c62761152d0c79bb0604c104a5fb6f4eb0703f3154bb3db05b84831061133c57506112f59350508101602001386112e8565b81935090816020925483858901015201910190918492611323565b9050602092506112f594915060ff191682840152151560051b820101386112e8565b60ff811461139b5760ff811690601f82116112a9576040519161129f83610c8d565b506040516006548160006113ae83610c53565b8083529260019081811690811561135757506001146113d457506112f592500382610cbf565b6006600090815291507ff652222313e28459528d920b65115c16c04f3efc82aaedc97be59f3f377c0d3f5b84831061141857506112f59350508101602001386112e8565b819350908160209254838589010152019101909184926113ff56fea164736f6c6343000814000ac65a7bb8d6351c1cf70c95a316cc6a92839c986682d98bc35f958f4883f9d2a8610100346100cc57601f61078e38819003918201601f19168301916001600160401b038311848410176100d1578084926080946040528339810103126100cc578051906001600160a01b0380831683036100cc57602082015190811681036100cc57606060408301519201519260805260a05260c05260e0526040516106a690816100e882396080518181816085015281816101a9015261057c015260a05181818161015a01526103bc015260c05181818160cf01526105e6015260e05181818161040201526105c40152f35b600080fd5b634e487b7160e01b600052604160045260246000fdfe608060408181526004918236101561001657600080fd5b600092833560e01c9182630fb5a6b4146103eb5750816338af3eed146103a757816344b1231f1461038357816386d1a69f1461010e5750806396132521146100f2578063be9a6555146100b85763fc0c546a1461007257600080fd5b346100b457816003193601126100b457517f00000000000000000000000000000000000000000000000000000000000000006001600160a01b03168152602090f35b5080fd5b50346100b457816003193601126100b457602090517f00000000000000000000000000000000000000000000000000000000000000008152f35b50346100b457816003193601126100b457602091549051908152f35b9190503461037f578260031936011261037f57610129610561565b91610135845484610425565b928315610351578455815163a9059cbb60e01b60208083019182526001600160a01b037f00000000000000000000000000000000000000000000000000000000000000008116602485015260448085018890528452909392608081019267ffffffffffffffff928285108486111761033e577f0000000000000000000000000000000000000000000000000000000000000000169160c081018581108582111761032b5788528685527f5361666545524332303a206c6f772d6c6576656c2063616c6c206661696c656460a082015251899182919082855af1903d1561031c573d928311610309579061024793929187519261023a88601f19601f8401160185610448565b83523d8a8885013e610480565b80518381159182156102e5575b50509050156102915750907fc35bc0b152cc4084b62942d2235605f7e5db6fc6217bc7ef532ba71acf7a58ce91815193845242908401523092a280f35b915162461bcd60e51b815291820152602a60248201527f5361666545524332303a204552433230206f7065726174696f6e20646964206e6044820152691bdd081cdd58d8d9595960b21b6064820152608490fd5b838092935001031261030557820151801515810361030557808338610254565b8580fd5b634e487b7160e01b895260418552602489fd5b90610247939250606091610480565b634e487b7160e01b8b526041875260248bfd5b634e487b7160e01b8a526041865260248afd5b506020606492519162461bcd60e51b835282015260086024820152674e6f546f6b656e7360c01b6044820152fd5b8280fd5b5050346100b457816003193601126100b4576020906103a0610561565b9051908152f35b5050346100b457816003193601126100b457517f00000000000000000000000000000000000000000000000000000000000000006001600160a01b03168152602090f35b8490346100b457816003193601126100b4576020907f00000000000000000000000000000000000000000000000000000000000000008152f35b9190820391821161043257565b634e487b7160e01b600052601160045260246000fd5b90601f8019910116810190811067ffffffffffffffff82111761046a57604052565b634e487b7160e01b600052604160045260246000fd5b919290156104e25750815115610494575090565b3b1561049d5790565b60405162461bcd60e51b815260206004820152601d60248201527f416464726573733a2063616c6c20746f206e6f6e2d636f6e74726163740000006044820152606490fd5b8251909150156104f55750805190602001fd5b6040519062461bcd60e51b82528160208060048301528251908160248401526000935b82851061053b575050604492506000838284010152601f80199101168101030190fd5b8481018201518686016044015293810193859350610518565b9190820180921161043257565b6040516370a0823160e01b81523060048201526020816024817f00000000000000000000000000000000000000000000000000000000000000006001600160a01b03165afa801561068d57600090610657575b6105c2915060005490610554565b7f0000000000000000000000000000000000000000000000000000000000000000907f000000000000000000000000000000000000000000000000000000000000000061060f8382610554565b421015610651576106209042610425565b9081810291818304149015171561043257811561063b570490565b634e487b7160e01b600052601260045260246000fd5b50905090565b6020823d8211610685575b8161066f60209383610448565b8101031261068257506105c290516105b4565b80fd5b3d9150610662565b6040513d6000823e3d90fdfea164736f6c6343000814000aa164736f6c6343000814000a2f8788117e7eff1d82e926ec794901d17c78024a50270940304540a733656f0d","opcodes":"PUSH1 0x80 PUSH1 0x40 SWAP1 DUP1 DUP3 MSTORE CALLVALUE PUSH3 0x30D JUMPI PUSH1 0x80 DUP2 PUSH3 0x70FF DUP1 CODESIZE SUB DUP1 SWAP2 PUSH3 0x25 DUP3 DUP6 PUSH3 0x312 JUMP JUMPDEST DUP4 CODECOPY DUP2 ADD SUB SLT PUSH3 0x30D JUMPI PUSH3 0x3B DUP2 PUSH3 0x34C JUMP JUMPDEST SWAP1 PUSH1 0x20 SWAP2 PUSH3 0x4C DUP4 DUP4 ADD PUSH3 0x34C JUMP JUMPDEST SWAP2 PUSH3 0x68 PUSH1 0x60 PUSH3 0x60 DUP8 DUP5 ADD PUSH3 0x35C JUMP JUMPDEST SWAP3 ADD PUSH3 0x35C JUMP JUMPDEST PUSH1 0xFF NOT SWAP4 PUSH1 0x1 SWAP4 DUP6 DUP6 SLOAD AND DUP6 SSTORE DUP5 PUSH1 0x2 SSTORE PUSH2 0xFFFF DUP1 SWAP2 AND SWAP1 DUP1 DUP4 AND DUP3 ADD SWAP1 DUP1 DUP3 GT PUSH3 0x2F7 JUMPI PUSH2 0x2710 SWAP2 AND LT ISZERO PUSH3 0x2C5 JUMPI PUSH4 0xFFFF0000 PUSH1 0x3 SLOAD SWAP3 PUSH1 0x10 SHL AND SWAP2 PUSH4 0xFFFFFFFF NOT AND OR OR PUSH1 0x3 SSTORE PUSH1 0x4 DUP6 PUSH1 0x1 DUP1 PUSH1 0xA0 SHL SUB DUP1 SWAP4 DUP2 PUSH1 0x1 DUP1 PUSH1 0xA0 SHL SUB NOT SWAP7 AND DUP7 PUSH1 0x6 SLOAD AND OR PUSH1 0x6 SSTORE AND DUP1 DUP6 PUSH1 0x7 SLOAD AND OR PUSH1 0x7 SSTORE DUP9 MLOAD SWAP3 DUP4 DUP1 SWAP3 PUSH4 0x15AB88C9 PUSH1 0xE3 SHL DUP3 MSTORE GAS STATICCALL SWAP1 DUP2 ISZERO PUSH3 0x2BA JUMPI PUSH1 0x0 SWAP2 PUSH3 0x27A JUMPI JUMPDEST POP AND SWAP1 PUSH1 0x8 SLOAD AND OR PUSH1 0x8 SSTORE PUSH1 0x0 DUP1 MSTORE PUSH1 0x0 DUP4 MSTORE DUP4 PUSH1 0x0 KECCAK256 CALLER PUSH1 0x0 MSTORE DUP4 MSTORE PUSH1 0xFF DUP5 PUSH1 0x0 KECCAK256 SLOAD AND ISZERO PUSH3 0x23F JUMPI JUMPDEST PUSH32 0x65D7A28E3265B37A6474929F336521B332C1681B933F6CB9F3376673440D862A DUP1 PUSH1 0x0 MSTORE PUSH1 0x0 DUP5 MSTORE DUP5 PUSH1 0x0 KECCAK256 CALLER PUSH1 0x0 MSTORE DUP5 MSTORE PUSH1 0xFF DUP6 PUSH1 0x0 KECCAK256 SLOAD AND ISZERO PUSH3 0x202 JUMPI JUMPDEST POP PUSH32 0x97667070C54EF182B0F5858B034BEAC1B6F3089AA2D3188BB1E8929F4FA9B929 SWAP3 DUP4 PUSH1 0x0 MSTORE PUSH1 0x0 DUP2 MSTORE DUP5 PUSH1 0x0 KECCAK256 CALLER PUSH1 0x0 MSTORE DUP2 MSTORE PUSH1 0xFF DUP6 PUSH1 0x0 KECCAK256 SLOAD AND ISZERO PUSH3 0x1C3 JUMPI JUMPDEST DUP5 MLOAD PUSH2 0x6D6D SWAP1 DUP2 PUSH3 0x372 DUP3 CODECOPY RETURN JUMPDEST DUP4 PUSH1 0x0 MSTORE PUSH1 0x0 DUP2 MSTORE DUP5 PUSH1 0x0 KECCAK256 SWAP1 CALLER PUSH1 0x0 MSTORE MSTORE DUP4 PUSH1 0x0 KECCAK256 SWAP2 DUP3 SLOAD AND OR SWAP1 SSTORE CALLER SWAP1 CALLER SWAP1 PUSH1 0x0 DUP1 MLOAD PUSH1 0x20 PUSH3 0x70DF DUP4 CODECOPY DUP2 MLOAD SWAP2 MSTORE PUSH1 0x0 DUP1 LOG4 CODESIZE DUP1 DUP1 DUP1 PUSH3 0x1B4 JUMP JUMPDEST DUP1 PUSH1 0x0 MSTORE PUSH1 0x0 DUP5 MSTORE DUP5 PUSH1 0x0 KECCAK256 CALLER PUSH1 0x0 MSTORE DUP5 MSTORE DUP5 PUSH1 0x0 KECCAK256 DUP3 DUP5 DUP3 SLOAD AND OR SWAP1 SSTORE CALLER SWAP1 CALLER SWAP1 PUSH1 0x0 DUP1 MLOAD PUSH1 0x20 PUSH3 0x70DF DUP4 CODECOPY DUP2 MLOAD SWAP2 MSTORE PUSH1 0x0 DUP1 LOG4 CODESIZE PUSH3 0x170 JUMP JUMPDEST PUSH1 0x0 DUP1 MSTORE PUSH1 0x0 DUP4 MSTORE DUP4 PUSH1 0x0 KECCAK256 CALLER PUSH1 0x0 MSTORE DUP4 MSTORE DUP4 PUSH1 0x0 KECCAK256 DUP2 DUP4 DUP3 SLOAD AND OR SWAP1 SSTORE CALLER CALLER PUSH1 0x0 PUSH1 0x0 DUP1 MLOAD PUSH1 0x20 PUSH3 0x70DF DUP4 CODECOPY DUP2 MLOAD SWAP2 MSTORE DUP2 DUP1 LOG4 PUSH3 0x12E JUMP JUMPDEST SWAP1 DUP7 DUP3 DUP2 RETURNDATASIZE DUP4 GT PUSH3 0x2B2 JUMPI JUMPDEST PUSH3 0x293 DUP2 DUP4 PUSH3 0x312 JUMP JUMPDEST DUP2 ADD SUB SLT PUSH3 0x2AF JUMPI POP PUSH3 0x2A8 SWAP1 PUSH3 0x35C JUMP JUMPDEST CODESIZE PUSH3 0x102 JUMP JUMPDEST DUP1 REVERT JUMPDEST POP RETURNDATASIZE PUSH3 0x287 JUMP JUMPDEST DUP8 MLOAD RETURNDATASIZE PUSH1 0x0 DUP3 RETURNDATACOPY RETURNDATASIZE SWAP1 REVERT JUMPDEST DUP8 MLOAD PUSH3 0x461BCD PUSH1 0xE5 SHL DUP2 MSTORE PUSH1 0x4 DUP2 ADD DUP9 SWAP1 MSTORE PUSH1 0xB PUSH1 0x24 DUP3 ADD MSTORE PUSH11 0x8CCACAE6A8DEDE90D2CED PUSH1 0xAB SHL PUSH1 0x44 DUP3 ADD MSTORE PUSH1 0x64 SWAP1 REVERT JUMPDEST PUSH4 0x4E487B71 PUSH1 0xE0 SHL PUSH1 0x0 MSTORE PUSH1 0x11 PUSH1 0x4 MSTORE PUSH1 0x24 PUSH1 0x0 REVERT JUMPDEST PUSH1 0x0 DUP1 REVERT JUMPDEST PUSH1 0x1F SWAP1 SWAP2 ADD PUSH1 0x1F NOT AND DUP2 ADD SWAP1 PUSH1 0x1 PUSH1 0x1 PUSH1 0x40 SHL SUB DUP3 GT SWAP1 DUP3 LT OR PUSH3 0x336 JUMPI PUSH1 0x40 MSTORE JUMP JUMPDEST PUSH4 0x4E487B71 PUSH1 0xE0 SHL PUSH1 0x0 MSTORE PUSH1 0x41 PUSH1 0x4 MSTORE PUSH1 0x24 PUSH1 0x0 REVERT JUMPDEST MLOAD SWAP1 PUSH2 0xFFFF DUP3 AND DUP3 SUB PUSH3 0x30D JUMPI JUMP JUMPDEST MLOAD SWAP1 PUSH1 0x1 PUSH1 0x1 PUSH1 0xA0 SHL SUB DUP3 AND DUP3 SUB PUSH3 0x30D JUMPI JUMP INVALID PUSH1 0x80 DUP1 PUSH1 0x40 MSTORE PUSH1 0x4 CALLDATASIZE LT ISZERO PUSH3 0x1F JUMPI JUMPDEST POP CALLDATASIZE ISZERO PUSH3 0x1D JUMPI PUSH1 0x0 DUP1 REVERT JUMPDEST STOP JUMPDEST PUSH1 0x0 SWAP1 DUP2 CALLDATALOAD PUSH1 0xE0 SHR SWAP1 DUP2 PUSH4 0x1FFC9A7 EQ PUSH3 0x26CA JUMPI POP DUP1 PUSH4 0xBCAE1AC EQ PUSH3 0x2629 JUMPI DUP1 PUSH4 0x22163B86 EQ PUSH3 0x2609 JUMPI DUP1 PUSH4 0x248A9CA3 EQ PUSH3 0x25DB JUMPI DUP1 PUSH4 0x24BF2F1E EQ PUSH3 0x24E9 JUMPI DUP1 PUSH4 0x25D5971F EQ PUSH3 0x2490 JUMPI DUP1 PUSH4 0x2CC3DC6E EQ PUSH3 0x23C0 JUMPI DUP1 PUSH4 0x2F2FF15D EQ PUSH3 0x2309 JUMPI DUP1 PUSH4 0x35A62E68 EQ PUSH3 0x22CC JUMPI DUP1 PUSH4 0x36568ABE EQ PUSH3 0x2232 JUMPI DUP1 PUSH4 0x3E11741F EQ PUSH3 0x20C7 JUMPI DUP1 PUSH4 0x3F4BA83A EQ PUSH3 0x202D JUMPI DUP1 PUSH4 0x49933E13 EQ PUSH3 0x1B75 JUMPI DUP1 PUSH4 0x504B82BF EQ PUSH3 0x1B4A JUMPI DUP1 PUSH4 0x52CE0FB0 EQ PUSH3 0x1B07 JUMPI DUP1 PUSH4 0x5C975ABB EQ PUSH3 0x1AE2 JUMPI DUP1 PUSH4 0x5E81E364 EQ PUSH3 0x1AA5 JUMPI DUP1 PUSH4 0x5F6501AB EQ PUSH3 0x1A50 JUMPI DUP1 PUSH4 0x606C9187 EQ PUSH3 0x184C JUMPI DUP1 PUSH4 0x634282AF EQ PUSH3 0x17BF JUMPI DUP1 PUSH4 0x7547C7A3 EQ PUSH3 0x16FB JUMPI DUP1 PUSH4 0x768C0442 EQ PUSH3 0x16D0 JUMPI DUP1 PUSH4 0x7B573C54 EQ PUSH3 0x16AC JUMPI DUP1 PUSH4 0x7E644547 EQ PUSH3 0x1677 JUMPI DUP1 PUSH4 0x82522BC0 EQ PUSH3 0xF4A JUMPI DUP1 PUSH4 0x83F26F38 EQ PUSH3 0xF04 JUMPI DUP1 PUSH4 0x8456CB59 EQ PUSH3 0xEA4 JUMPI DUP1 PUSH4 0x8943B28E EQ PUSH3 0xE76 JUMPI DUP1 PUSH4 0x8FEA31B0 EQ PUSH3 0xE4B JUMPI DUP1 PUSH4 0x91D14854 EQ PUSH3 0xDFC JUMPI DUP1 PUSH4 0x92223CEA EQ PUSH3 0xD09 JUMPI DUP1 PUSH4 0x9FD3AF8B EQ PUSH3 0xCA3 JUMPI DUP1 PUSH4 0xA0429DE6 EQ PUSH3 0xC5D JUMPI DUP1 PUSH4 0xA217FDDF EQ PUSH3 0xC3F JUMPI DUP1 PUSH4 0xACE03A0C EQ PUSH3 0xB8E JUMPI DUP1 PUSH4 0xAD5C4648 EQ PUSH3 0xB63 JUMPI DUP1 PUSH4 0xB4B57C39 EQ PUSH3 0xB38 JUMPI DUP1 PUSH4 0xC4F3E9D7 EQ PUSH3 0x967 JUMPI DUP1 PUSH4 0xC60B494F EQ PUSH3 0x921 JUMPI DUP1 PUSH4 0xC748713E EQ PUSH3 0x8E4 JUMPI DUP1 PUSH4 0xCD30F038 EQ PUSH3 0x825 JUMPI DUP1 PUSH4 0xD547741F EQ PUSH3 0x7DD JUMPI DUP1 PUSH4 0xD9D0A5BE EQ PUSH3 0x69E JUMPI DUP1 PUSH4 0xDC4EC9BE EQ PUSH3 0x677 JUMPI DUP1 PUSH4 0xE1CD04B4 EQ PUSH3 0x5ED JUMPI DUP1 PUSH4 0xE5A8A123 EQ PUSH3 0x438 JUMPI DUP1 PUSH4 0xE63AB1E9 EQ PUSH3 0x3FB JUMPI DUP1 PUSH4 0xE9833C2F EQ PUSH3 0x3C9 JUMPI DUP1 PUSH4 0xEC3889B5 EQ PUSH3 0x326 JUMPI DUP1 PUSH4 0xF5B541A6 EQ PUSH3 0x2E9 JUMPI DUP1 PUSH4 0xF887EA40 EQ PUSH3 0x2BE JUMPI PUSH4 0xFF96092A SUB PUSH3 0x10 JUMPI CALLVALUE PUSH3 0x2BB JUMPI DUP1 PUSH1 0x3 NOT CALLDATASIZE ADD SLT PUSH3 0x2BB JUMPI PUSH1 0x20 PUSH2 0xFFFF PUSH1 0x3 SLOAD AND PUSH1 0x40 MLOAD SWAP1 DUP2 MSTORE RETURN JUMPDEST DUP1 REVERT JUMPDEST POP CALLVALUE PUSH3 0x2BB JUMPI DUP1 PUSH1 0x3 NOT CALLDATASIZE ADD SLT PUSH3 0x2BB JUMPI PUSH1 0x7 SLOAD PUSH1 0x40 MLOAD PUSH1 0x1 PUSH1 0x1 PUSH1 0xA0 SHL SUB SWAP1 SWAP2 AND DUP2 MSTORE PUSH1 0x20 SWAP1 RETURN JUMPDEST POP CALLVALUE PUSH3 0x2BB JUMPI DUP1 PUSH1 0x3 NOT CALLDATASIZE ADD SLT PUSH3 0x2BB JUMPI PUSH1 0x20 PUSH1 0x40 MLOAD PUSH32 0x97667070C54EF182B0F5858B034BEAC1B6F3089AA2D3188BB1E8929F4FA9B929 DUP2 MSTORE RETURN JUMPDEST POP CALLVALUE PUSH3 0x2BB JUMPI PUSH1 0x20 CALLDATASIZE PUSH1 0x3 NOT ADD SLT PUSH3 0x2BB JUMPI PUSH3 0x344 PUSH3 0x2757 JUMP JUMPDEST PUSH3 0x34E PUSH3 0x2C58 JUMP JUMPDEST PUSH3 0x358 PUSH3 0x4158 JUMP JUMPDEST PUSH1 0x4 SLOAD DUP1 ISZERO PUSH3 0x393 JUMPI DUP3 DUP1 DUP1 DUP1 SWAP4 PUSH3 0x38B SWAP6 DUP3 PUSH1 0x4 SSTORE PUSH1 0x1 DUP1 PUSH1 0xA0 SHL SUB AND GAS CALL PUSH3 0x384 PUSH3 0x42F5 JUMP JUMPDEST POP PUSH3 0x444F JUMP JUMPDEST PUSH1 0x1 PUSH1 0x2 SSTORE DUP1 RETURN JUMPDEST PUSH1 0x40 MLOAD PUSH3 0x461BCD PUSH1 0xE5 SHL DUP2 MSTORE PUSH1 0x20 PUSH1 0x4 DUP3 ADD MSTORE PUSH1 0xE PUSH1 0x24 DUP3 ADD MSTORE PUSH14 0x4E6F506C6174666F726D46656573 PUSH1 0x90 SHL PUSH1 0x44 DUP3 ADD MSTORE PUSH1 0x64 SWAP1 REVERT JUMPDEST POP CALLVALUE PUSH3 0x2BB JUMPI PUSH1 0x20 CALLDATASIZE PUSH1 0x3 NOT ADD SLT PUSH3 0x2BB JUMPI PUSH1 0x20 PUSH3 0x3F3 PUSH3 0x3ED PUSH3 0x2757 JUMP JUMPDEST PUSH3 0x338A JUMP JUMPDEST PUSH1 0x40 MLOAD SWAP1 DUP2 MSTORE RETURN JUMPDEST POP CALLVALUE PUSH3 0x2BB JUMPI DUP1 PUSH1 0x3 NOT CALLDATASIZE ADD SLT PUSH3 0x2BB JUMPI PUSH1 0x20 PUSH1 0x40 MLOAD PUSH32 0x65D7A28E3265B37A6474929F336521B332C1681B933F6CB9F3376673440D862A DUP2 MSTORE RETURN JUMPDEST POP CALLVALUE PUSH3 0x2BB JUMPI PUSH1 0x20 DUP1 PUSH1 0x3 NOT CALLDATASIZE ADD SLT PUSH3 0x5E9 JUMPI PUSH3 0x457 PUSH3 0x2757 JUMP JUMPDEST PUSH3 0x461 PUSH3 0x4158 JUMP JUMPDEST PUSH1 0x1 PUSH1 0x1 PUSH1 0xA0 SHL SUB AND DUP1 DUP4 MSTORE PUSH1 0x10 DUP3 MSTORE PUSH1 0x40 DUP4 KECCAK256 SLOAD PUSH1 0xFF AND ISZERO PUSH3 0x5B6 JUMPI DUP1 DUP4 MSTORE PUSH1 0xE DUP3 MSTORE PUSH1 0x40 DUP4 KECCAK256 CALLER PUSH1 0x0 MSTORE DUP3 MSTORE PUSH1 0x40 PUSH1 0x0 KECCAK256 SLOAD DUP1 ISZERO PUSH3 0x585 JUMPI DUP2 DUP5 MSTORE PUSH1 0xE DUP4 MSTORE PUSH1 0x40 DUP5 KECCAK256 CALLER PUSH1 0x0 MSTORE DUP4 MSTORE DUP4 PUSH1 0x40 PUSH1 0x0 KECCAK256 SSTORE DUP2 DUP5 MSTORE PUSH1 0xC DUP4 MSTORE PUSH1 0x40 DUP5 KECCAK256 SLOAD PUSH1 0x0 NOT DUP2 ADD SWAP1 DUP2 GT PUSH3 0x571 JUMPI SWAP1 PUSH3 0x4FB PUSH1 0x2 PUSH3 0x4E4 PUSH3 0x501 SWAP5 PUSH3 0x27B5 JUMP JUMPDEST POP ADD SLOAD SWAP2 DUP5 DUP8 MSTORE PUSH1 0xF DUP7 MSTORE PUSH1 0x40 DUP8 KECCAK256 SLOAD SWAP3 PUSH3 0x2F20 JUMP JUMPDEST PUSH3 0x30A3 JUMP JUMPDEST SWAP2 PUSH8 0xDE0B6B3A7640000 SWAP3 DUP4 DUP2 MUL SWAP4 DUP2 DUP6 DIV EQ SWAP1 ISZERO OR ISZERO PUSH3 0x55D JUMPI PUSH32 0xB1FD09750E7241FD2B620D8648C4B64AD833CB7D5966C13A8A09A81467681B5C SWAP1 PUSH3 0x54C DUP5 CALLER DUP6 PUSH3 0x41AD JUMP JUMPDEST PUSH1 0x40 MLOAD SWAP4 DUP5 MSTORE CALLER SWAP4 LOG3 PUSH1 0x1 PUSH1 0x2 SSTORE DUP1 RETURN JUMPDEST PUSH4 0x4E487B71 PUSH1 0xE0 SHL DUP5 MSTORE PUSH1 0x11 PUSH1 0x4 MSTORE PUSH1 0x24 DUP5 REVERT JUMPDEST PUSH4 0x4E487B71 PUSH1 0xE0 SHL DUP6 MSTORE PUSH1 0x11 PUSH1 0x4 MSTORE PUSH1 0x24 DUP6 REVERT JUMPDEST PUSH1 0x40 MLOAD PUSH3 0x461BCD PUSH1 0xE5 SHL DUP2 MSTORE PUSH1 0x4 DUP2 ADD DUP5 SWAP1 MSTORE PUSH1 0x9 PUSH1 0x24 DUP3 ADD MSTORE PUSH9 0x139BD1195C1BDCDA5D PUSH1 0xBA SHL PUSH1 0x44 DUP3 ADD MSTORE PUSH1 0x64 SWAP1 REVERT JUMPDEST PUSH1 0x40 MLOAD PUSH3 0x461BCD PUSH1 0xE5 SHL DUP2 MSTORE PUSH1 0x4 DUP2 ADD DUP4 SWAP1 MSTORE PUSH1 0xB PUSH1 0x24 DUP3 ADD MSTORE PUSH11 0x139BDD14995B19585CD959 PUSH1 0xAA SHL PUSH1 0x44 DUP3 ADD MSTORE PUSH1 0x64 SWAP1 REVERT JUMPDEST POP DUP1 REVERT JUMPDEST POP CALLVALUE PUSH3 0x2BB JUMPI DUP1 PUSH1 0x3 NOT CALLDATASIZE ADD SLT PUSH3 0x2BB JUMPI PUSH3 0x60A PUSH3 0x4158 JUMP JUMPDEST CALLER DUP2 MSTORE PUSH1 0x5 PUSH1 0x20 MSTORE PUSH1 0x40 DUP2 KECCAK256 SLOAD DUP1 ISZERO PUSH3 0x642 JUMPI DUP2 DUP1 DUP1 DUP1 PUSH3 0x38B SWAP5 CALLER DUP3 MSTORE PUSH1 0x5 PUSH1 0x20 MSTORE DUP2 PUSH1 0x40 DUP2 KECCAK256 SSTORE CALLER GAS CALL PUSH3 0x384 PUSH3 0x42F5 JUMP JUMPDEST PUSH1 0x40 MLOAD PUSH3 0x461BCD PUSH1 0xE5 SHL DUP2 MSTORE PUSH1 0x20 PUSH1 0x4 DUP3 ADD MSTORE PUSH1 0xD PUSH1 0x24 DUP3 ADD MSTORE PUSH13 0x4E6F43726561746F7246656573 PUSH1 0x98 SHL PUSH1 0x44 DUP3 ADD MSTORE PUSH1 0x64 SWAP1 REVERT JUMPDEST POP CALLVALUE PUSH3 0x2BB JUMPI DUP1 PUSH1 0x3 NOT CALLDATASIZE ADD SLT PUSH3 0x2BB JUMPI PUSH1 0x20 PUSH2 0xFFFF PUSH1 0x3 SLOAD PUSH1 0x10 SHR AND PUSH1 0x40 MLOAD SWAP1 DUP2 MSTORE RETURN JUMPDEST POP PUSH1 0xA0 CALLDATASIZE PUSH1 0x3 NOT ADD SLT PUSH3 0x2BB JUMPI PUSH3 0x6B6 PUSH3 0x2757 JUMP JUMPDEST PUSH1 0x24 CALLDATALOAD SWAP1 PUSH1 0x64 CALLDATALOAD PUSH1 0x1 PUSH1 0x1 PUSH1 0xA0 SHL SUB DUP2 DUP2 AND SWAP2 DUP3 SWAP1 SUB PUSH3 0x7D8 JUMPI DUP5 SWAP1 PUSH1 0x84 CALLDATALOAD PUSH1 0x1 PUSH1 0x1 PUSH1 0x40 SHL SUB DUP2 GT PUSH3 0x7D4 JUMPI PUSH3 0x6F5 SWAP1 CALLDATASIZE SWAP1 PUSH1 0x4 ADD PUSH3 0x2724 JUMP JUMPDEST SWAP5 SWAP1 PUSH3 0x701 PUSH3 0x4158 JUMP JUMPDEST DUP3 PUSH1 0x11 SLOAD AND DUP1 EXTCODESIZE ISZERO PUSH3 0x7D0 JUMPI PUSH3 0x755 SWAP4 DUP6 SWAP4 PUSH1 0x40 MLOAD SWAP6 DUP7 SWAP5 DUP6 SWAP4 DUP5 SWAP4 PUSH4 0x6CE852DF PUSH1 0xE1 SHL DUP6 MSTORE AND SWAP11 DUP12 PUSH1 0x4 DUP6 ADD MSTORE DUP13 PUSH1 0x24 DUP6 ADD MSTORE DUP8 PUSH1 0x44 DUP6 ADD MSTORE DUP11 PUSH1 0x64 DUP6 ADD MSTORE PUSH1 0xA0 PUSH1 0x84 DUP6 ADD MSTORE PUSH1 0xA4 DUP5 ADD SWAP2 PUSH3 0x442A JUMP JUMPDEST SUB SWAP2 CALLVALUE SWAP1 GAS CALL DUP1 ISZERO PUSH3 0x7C5 JUMPI PUSH3 0x7A9 JUMPI JUMPDEST POP POP PUSH1 0x40 MLOAD SWAP3 DUP4 MSTORE CALLVALUE PUSH1 0x20 DUP5 ADD MSTORE PUSH1 0x40 DUP4 ADD MSTORE PUSH32 0x43599FA4170A5A66483C3879DE7C1549F90D4990DBE05E13DAAF74A7031B8631 PUSH1 0x60 CALLER SWAP4 LOG3 PUSH1 0x1 PUSH1 0x2 SSTORE DUP1 RETURN JUMPDEST PUSH3 0x7B4 SWAP1 PUSH3 0x282E JUMP JUMPDEST PUSH3 0x7C1 JUMPI DUP4 CODESIZE PUSH3 0x768 JUMP JUMPDEST DUP4 DUP1 REVERT JUMPDEST PUSH1 0x40 MLOAD RETURNDATASIZE DUP5 DUP3 RETURNDATACOPY RETURNDATASIZE SWAP1 REVERT JUMPDEST DUP5 DUP1 REVERT JUMPDEST DUP3 DUP1 REVERT JUMPDEST PUSH1 0x0 DUP1 REVERT JUMPDEST POP CALLVALUE PUSH3 0x2BB JUMPI PUSH1 0x40 CALLDATASIZE PUSH1 0x3 NOT ADD SLT PUSH3 0x2BB JUMPI PUSH3 0x822 PUSH1 0x4 CALLDATALOAD PUSH3 0x802 PUSH3 0x276E JUMP JUMPDEST SWAP1 DUP1 DUP5 MSTORE DUP4 PUSH1 0x20 MSTORE PUSH3 0x81C PUSH1 0x1 PUSH1 0x40 DUP7 KECCAK256 ADD SLOAD PUSH3 0x2D8F JUMP JUMPDEST PUSH3 0x2EAB JUMP JUMPDEST DUP1 RETURN JUMPDEST POP CALLVALUE PUSH3 0x2BB JUMPI PUSH1 0x20 CALLDATASIZE PUSH1 0x3 NOT ADD SLT PUSH3 0x2BB JUMPI PUSH3 0x843 PUSH3 0x2757 JUMP JUMPDEST PUSH3 0x84D PUSH3 0x2AFF JUMP JUMPDEST PUSH1 0x1 PUSH1 0x1 PUSH1 0xA0 SHL SUB AND DUP1 DUP3 MSTORE PUSH1 0xC PUSH1 0x20 MSTORE PUSH1 0x40 DUP3 KECCAK256 SLOAD PUSH1 0x0 NOT DUP2 ADD SWAP1 DUP2 GT PUSH3 0x8D0 JUMPI PUSH1 0x4 PUSH3 0x881 PUSH3 0x88C SWAP3 PUSH3 0x27B5 JUMP JUMPDEST POP ADD SLOAD TIMESTAMP GT PUSH3 0x409D JUMP JUMPDEST DUP1 DUP3 MSTORE PUSH1 0x10 PUSH1 0x20 MSTORE PUSH1 0x40 DUP3 KECCAK256 PUSH1 0x1 PUSH1 0xFF NOT DUP3 SLOAD AND OR SWAP1 SSTORE PUSH32 0xCB87B7D9F91BAB86BC1853DDEB30B507BDF5E886A0784BB2F188B8C5887A3111 PUSH1 0x20 PUSH1 0x40 MLOAD TIMESTAMP DUP2 MSTORE LOG2 DUP1 RETURN JUMPDEST PUSH4 0x4E487B71 PUSH1 0xE0 SHL DUP4 MSTORE PUSH1 0x11 PUSH1 0x4 MSTORE PUSH1 0x24 DUP4 REVERT JUMPDEST POP CALLVALUE PUSH3 0x2BB JUMPI PUSH1 0x20 CALLDATASIZE PUSH1 0x3 NOT ADD SLT PUSH3 0x2BB JUMPI PUSH1 0x20 SWAP1 PUSH1 0x40 SWAP1 PUSH1 0x1 PUSH1 0x1 PUSH1 0xA0 SHL SUB PUSH3 0x910 PUSH3 0x2757 JUMP JUMPDEST AND DUP2 MSTORE PUSH1 0x5 DUP4 MSTORE KECCAK256 SLOAD PUSH1 0x40 MLOAD SWAP1 DUP2 MSTORE RETURN JUMPDEST POP CALLVALUE PUSH3 0x2BB JUMPI PUSH1 0x20 CALLDATASIZE PUSH1 0x3 NOT ADD SLT PUSH3 0x2BB JUMPI PUSH3 0x93F PUSH3 0x2757 JUMP JUMPDEST PUSH3 0x949 PUSH3 0x2C58 JUMP JUMPDEST PUSH1 0x1 DUP1 PUSH1 0xA0 SHL SUB AND PUSH1 0x1 PUSH1 0x1 PUSH1 0x60 SHL SUB PUSH1 0xA0 SHL PUSH1 0x12 SLOAD AND OR PUSH1 0x12 SSTORE DUP1 RETURN JUMPDEST POP PUSH1 0x40 CALLDATASIZE PUSH1 0x3 NOT ADD SLT PUSH3 0x2BB JUMPI PUSH3 0x97F PUSH3 0x2757 JUMP JUMPDEST SWAP1 PUSH3 0x98A PUSH3 0x276E JUMP JUMPDEST SWAP2 PUSH3 0x995 PUSH3 0x2AFF JUMP JUMPDEST PUSH7 0x71AFD498D0000 CALLVALUE SUB PUSH3 0xB08 JUMPI PUSH1 0x1 PUSH1 0x1 PUSH1 0xA0 SHL SUB DUP2 DUP2 AND SWAP2 DUP5 DUP3 AND DUP4 LT ISZERO PUSH3 0xB02 JUMPI SWAP4 JUMPDEST PUSH1 0x6 SLOAD PUSH1 0x40 MLOAD PUSH4 0xE6A43905 PUSH1 0xE0 SHL DUP2 MSTORE PUSH1 0x1 PUSH1 0x1 PUSH1 0xA0 SHL SUB DUP8 DUP2 AND PUSH1 0x4 DUP4 ADD MSTORE DUP4 AND PUSH1 0x24 DUP3 ADD MSTORE PUSH1 0x20 SWAP7 SWAP1 SWAP3 SWAP2 DUP5 AND SWAP1 DUP8 DUP5 PUSH1 0x44 DUP2 DUP6 GAS STATICCALL SWAP4 DUP5 ISZERO PUSH3 0xAF7 JUMPI SWAP1 DUP9 SWAP4 SWAP3 SWAP2 DUP9 SWAP6 PUSH3 0xAD3 JUMPI JUMPDEST POP DUP6 DUP6 AND ISZERO PUSH3 0xA47 JUMPI JUMPDEST POP POP POP POP AND DUP1 SWAP2 PUSH32 0x4F2CE4E40F623CA765FC0167A25CB7842CEAAFB8D82D3DEC26CA0D0E0D2D4896 PUSH1 0x40 MLOAD SWAP5 DUP1 LOG3 DUP2 MSTORE RETURN JUMPDEST PUSH1 0x40 MLOAD PUSH4 0x64E329CB PUSH1 0xE1 SHL DUP2 MSTORE PUSH1 0x1 PUSH1 0x1 PUSH1 0xA0 SHL SUB SWAP2 DUP3 AND PUSH1 0x4 DUP3 ADD MSTORE SWAP3 AND PUSH1 0x24 DUP4 ADD MSTORE SWAP1 SWAP3 POP DUP3 SWAP1 PUSH1 0x44 SWAP1 DUP3 SWAP1 DUP9 SWAP1 GAS CALL SWAP1 DUP2 ISZERO PUSH3 0xAC8 JUMPI DUP5 SWAP2 PUSH3 0xA94 JUMPI JUMPDEST POP DUP5 CODESIZE DUP1 DUP1 PUSH3 0xA15 JUMP JUMPDEST PUSH3 0xAB9 SWAP2 POP DUP6 RETURNDATASIZE DUP8 GT PUSH3 0xAC0 JUMPI JUMPDEST PUSH3 0xAB0 DUP2 DUP4 PUSH3 0x285E JUMP JUMPDEST DUP2 ADD SWAP1 PUSH3 0x40D8 JUMP JUMPDEST CODESIZE PUSH3 0xA89 JUMP JUMPDEST POP RETURNDATASIZE PUSH3 0xAA4 JUMP JUMPDEST PUSH1 0x40 MLOAD RETURNDATASIZE DUP7 DUP3 RETURNDATACOPY RETURNDATASIZE SWAP1 REVERT JUMPDEST PUSH3 0xAEF SWAP2 SWAP6 POP DUP5 RETURNDATASIZE DUP7 GT PUSH3 0xAC0 JUMPI PUSH3 0xAB0 DUP2 DUP4 PUSH3 0x285E JUMP JUMPDEST SWAP4 CODESIZE PUSH3 0xA0A JUMP JUMPDEST PUSH1 0x40 MLOAD RETURNDATASIZE DUP10 DUP3 RETURNDATACOPY RETURNDATASIZE SWAP1 REVERT JUMPDEST PUSH3 0x9BD JUMP JUMPDEST PUSH1 0x40 MLOAD PUSH3 0x461BCD PUSH1 0xE5 SHL DUP2 MSTORE PUSH1 0x20 PUSH1 0x4 DUP3 ADD MSTORE PUSH1 0x8 PUSH1 0x24 DUP3 ADD MSTORE PUSH8 0x57726F6E67466565 PUSH1 0xC0 SHL PUSH1 0x44 DUP3 ADD MSTORE PUSH1 0x64 SWAP1 REVERT JUMPDEST POP CALLVALUE PUSH3 0x2BB JUMPI DUP1 PUSH1 0x3 NOT CALLDATASIZE ADD SLT PUSH3 0x2BB JUMPI PUSH1 0x6 SLOAD PUSH1 0x40 MLOAD PUSH1 0x1 PUSH1 0x1 PUSH1 0xA0 SHL SUB SWAP1 SWAP2 AND DUP2 MSTORE PUSH1 0x20 SWAP1 RETURN JUMPDEST POP CALLVALUE PUSH3 0x2BB JUMPI DUP1 PUSH1 0x3 NOT CALLDATASIZE ADD SLT PUSH3 0x2BB JUMPI PUSH1 0x8 SLOAD PUSH1 0x40 MLOAD PUSH1 0x1 PUSH1 0x1 PUSH1 0xA0 SHL SUB SWAP1 SWAP2 AND DUP2 MSTORE PUSH1 0x20 SWAP1 RETURN JUMPDEST POP CALLVALUE PUSH3 0x2BB JUMPI PUSH1 0x20 CALLDATASIZE PUSH1 0x3 NOT ADD SLT PUSH3 0x2BB JUMPI PUSH1 0x4 CALLDATALOAD DUP1 DUP3 MSTORE PUSH1 0xA PUSH1 0x20 MSTORE PUSH1 0x40 DUP3 KECCAK256 SLOAD PUSH1 0x1 PUSH1 0x1 PUSH1 0xA0 SHL SUB AND PUSH3 0xC0D JUMPI DUP1 DUP3 MSTORE PUSH1 0xA PUSH1 0x20 MSTORE PUSH1 0x40 DUP3 KECCAK256 CALLER PUSH1 0x1 PUSH1 0x1 PUSH1 0x60 SHL SUB PUSH1 0xA0 SHL DUP3 SLOAD AND OR SWAP1 SSTORE PUSH1 0x40 MLOAD SWAP1 DUP2 MSTORE PUSH32 0xBDD9868CE7C59BF465FD8F76E3E3D5B11BBA4902126C46A31ED357E70582E028 PUSH1 0x20 CALLER SWAP3 LOG2 DUP1 RETURN JUMPDEST PUSH1 0x40 MLOAD PUSH3 0x461BCD PUSH1 0xE5 SHL DUP2 MSTORE PUSH1 0x20 PUSH1 0x4 DUP3 ADD MSTORE PUSH1 0xA PUSH1 0x24 DUP3 ADD MSTORE PUSH10 0x436F6465457869737473 PUSH1 0xB0 SHL PUSH1 0x44 DUP3 ADD MSTORE PUSH1 0x64 SWAP1 REVERT JUMPDEST POP CALLVALUE PUSH3 0x2BB JUMPI DUP1 PUSH1 0x3 NOT CALLDATASIZE ADD SLT PUSH3 0x2BB JUMPI PUSH1 0x20 SWAP1 PUSH1 0x40 MLOAD SWAP1 DUP2 MSTORE RETURN JUMPDEST POP CALLVALUE PUSH3 0x2BB JUMPI PUSH1 0x20 CALLDATASIZE PUSH1 0x3 NOT ADD SLT PUSH3 0x2BB JUMPI PUSH3 0xC7B PUSH3 0x2757 JUMP JUMPDEST PUSH3 0xC85 PUSH3 0x2C58 JUMP JUMPDEST PUSH1 0x1 DUP1 PUSH1 0xA0 SHL SUB AND PUSH1 0x1 PUSH1 0x1 PUSH1 0x60 SHL SUB PUSH1 0xA0 SHL PUSH1 0x13 SLOAD AND OR PUSH1 0x13 SSTORE DUP1 RETURN JUMPDEST POP CALLVALUE PUSH3 0x2BB JUMPI DUP1 PUSH1 0x3 NOT CALLDATASIZE ADD SLT PUSH3 0x2BB JUMPI PUSH1 0x12 SLOAD DUP2 SWAP1 PUSH1 0x1 PUSH1 0x1 PUSH1 0xA0 SHL SUB AND DUP1 EXTCODESIZE ISZERO PUSH3 0xD06 JUMPI DUP2 DUP1 SWAP2 PUSH1 0x4 PUSH1 0x40 MLOAD DUP1 SWAP5 DUP2 SWAP4 PUSH4 0x1E8C5C89 PUSH1 0xE1 SHL DUP4 MSTORE GAS CALL DUP1 ISZERO PUSH3 0x7C5 JUMPI PUSH3 0xCF3 JUMPI POP RETURN JUMPDEST PUSH3 0xCFE SWAP1 PUSH3 0x282E JUMP JUMPDEST PUSH3 0x2BB JUMPI DUP1 RETURN JUMPDEST POP REVERT JUMPDEST POP CALLVALUE PUSH3 0x2BB JUMPI DUP1 PUSH1 0x3 NOT CALLDATASIZE ADD SLT PUSH3 0x2BB JUMPI PUSH1 0x40 MLOAD SWAP1 DUP1 PUSH1 0x9 SLOAD PUSH3 0xD2F DUP2 PUSH3 0x27F1 JUMP JUMPDEST DUP1 DUP6 MSTORE SWAP2 PUSH1 0x1 SWAP2 DUP1 DUP4 AND SWAP1 DUP2 ISZERO PUSH3 0xDCF JUMPI POP PUSH1 0x1 EQ PUSH3 0xD6F JUMPI JUMPDEST PUSH3 0xD6B DUP6 PUSH3 0xD5E DUP2 DUP8 SUB DUP3 PUSH3 0x285E JUMP JUMPDEST PUSH1 0x40 MLOAD SWAP2 DUP3 SWAP2 DUP3 PUSH3 0x28A5 JUMP JUMPDEST SUB SWAP1 RETURN JUMPDEST SWAP3 POP PUSH1 0x9 DUP4 MSTORE PUSH32 0x6E1540171B6C0C960B71A7020D9F60077F6AF931A8BBF590DA0223DACF75C7AF JUMPDEST DUP3 DUP5 LT PUSH3 0xDB6 JUMPI POP POP POP DUP2 ADD PUSH1 0x20 ADD PUSH3 0xD5E DUP3 PUSH3 0xD6B PUSH3 0xD4B JUMP JUMPDEST DUP1 SLOAD PUSH1 0x20 DUP6 DUP8 ADD DUP2 ADD SWAP2 SWAP1 SWAP2 MSTORE SWAP1 SWAP4 ADD SWAP3 DUP2 ADD PUSH3 0xD97 JUMP JUMPDEST DUP7 SWAP6 POP PUSH3 0xD6B SWAP7 SWAP4 POP PUSH1 0x20 SWAP3 POP PUSH3 0xD5E SWAP5 SWAP2 POP PUSH1 0xFF NOT AND DUP3 DUP5 ADD MSTORE ISZERO ISZERO PUSH1 0x5 SHL DUP3 ADD ADD SWAP3 SWAP4 PUSH3 0xD4B JUMP JUMPDEST POP CALLVALUE PUSH3 0x2BB JUMPI PUSH1 0x40 CALLDATASIZE PUSH1 0x3 NOT ADD SLT PUSH3 0x2BB JUMPI PUSH1 0x40 PUSH3 0xE1C PUSH3 0x276E JUMP JUMPDEST SWAP2 PUSH1 0x4 CALLDATALOAD DUP2 MSTORE DUP1 PUSH1 0x20 MSTORE KECCAK256 SWAP1 PUSH1 0x1 DUP1 PUSH1 0xA0 SHL SUB AND PUSH1 0x0 MSTORE PUSH1 0x20 MSTORE PUSH1 0x20 PUSH1 0xFF PUSH1 0x40 PUSH1 0x0 KECCAK256 SLOAD AND PUSH1 0x40 MLOAD SWAP1 ISZERO ISZERO DUP2 MSTORE RETURN JUMPDEST POP CALLVALUE PUSH3 0x2BB JUMPI DUP1 PUSH1 0x3 NOT CALLDATASIZE ADD SLT PUSH3 0x2BB JUMPI PUSH1 0x11 SLOAD PUSH1 0x40 MLOAD PUSH1 0x1 PUSH1 0x1 PUSH1 0xA0 SHL SUB SWAP1 SWAP2 AND DUP2 MSTORE PUSH1 0x20 SWAP1 RETURN JUMPDEST POP CALLVALUE PUSH3 0x2BB JUMPI PUSH1 0x40 CALLDATASIZE PUSH1 0x3 NOT ADD SLT PUSH3 0x2BB JUMPI PUSH1 0x20 PUSH3 0x3F3 PUSH3 0xE9A PUSH3 0x2757 JUMP JUMPDEST PUSH1 0x24 CALLDATALOAD SWAP1 PUSH3 0x30D2 JUMP JUMPDEST POP CALLVALUE PUSH3 0x2BB JUMPI DUP1 PUSH1 0x3 NOT CALLDATASIZE ADD SLT PUSH3 0x2BB JUMPI PUSH3 0xEC1 PUSH3 0x28D3 JUMP JUMPDEST PUSH3 0xECB PUSH3 0x4113 JUMP JUMPDEST PUSH1 0x1 PUSH1 0xFF NOT DUP2 SLOAD AND OR PUSH1 0x1 SSTORE PUSH32 0x62E78CEA01BEE320CD4E420270B5EA74000D11B0C9F74754EBDBFC544B05A258 PUSH1 0x20 PUSH1 0x40 MLOAD CALLER DUP2 MSTORE LOG1 DUP1 RETURN JUMPDEST POP CALLVALUE PUSH3 0x2BB JUMPI PUSH1 0x20 CALLDATASIZE PUSH1 0x3 NOT ADD SLT PUSH3 0x2BB JUMPI PUSH3 0xF22 PUSH3 0x2757 JUMP JUMPDEST PUSH3 0xF2C PUSH3 0x2C58 JUMP JUMPDEST PUSH1 0x1 DUP1 PUSH1 0xA0 SHL SUB AND PUSH1 0x1 PUSH1 0x1 PUSH1 0x60 SHL SUB PUSH1 0xA0 SHL PUSH1 0x11 SLOAD AND OR PUSH1 0x11 SSTORE DUP1 RETURN JUMPDEST POP PUSH1 0x80 CALLDATASIZE PUSH1 0x3 NOT ADD SLT PUSH3 0x2BB JUMPI PUSH3 0xF62 PUSH3 0x2757 JUMP JUMPDEST PUSH3 0xF6C PUSH3 0x4113 JUMP JUMPDEST PUSH3 0xF76 PUSH3 0x4158 JUMP JUMPDEST PUSH3 0xF84 PUSH1 0x24 CALLDATALOAD DUP3 PUSH3 0x30D2 JUMP JUMPDEST PUSH3 0xF94 PUSH1 0x64 CALLDATALOAD DUP3 LT ISZERO PUSH3 0x405D JUMP JUMPDEST DUP1 CALLVALUE LT PUSH3 0x1640 JUMPI DUP3 PUSH3 0xFA9 DUP3 CALLVALUE PUSH3 0x30C4 JUMP JUMPDEST DUP1 ISZERO SWAP1 DUP2 ISZERO PUSH3 0x1616 JUMPI JUMPDEST POP POP POP PUSH1 0x1 PUSH1 0x1 PUSH1 0xA0 SHL SUB DUP3 AND DUP4 MSTORE PUSH1 0xC PUSH1 0x20 MSTORE PUSH1 0x40 DUP4 KECCAK256 SLOAD PUSH1 0x0 NOT DUP2 ADD SWAP1 DUP2 GT PUSH3 0x55D JUMPI PUSH3 0xFE5 SWAP1 PUSH3 0x27B5 JUMP JUMPDEST POP PUSH1 0x1 PUSH1 0x1 PUSH1 0xA0 SHL SUB DUP4 AND DUP5 MSTORE PUSH1 0xD PUSH1 0x20 MSTORE PUSH1 0x40 DUP5 KECCAK256 PUSH1 0x4 DUP3 ADD SLOAD SWAP1 SWAP3 SWAP2 SWAP1 PUSH3 0x1011 SWAP1 TIMESTAMP GT PUSH3 0x409D JUMP JUMPDEST PUSH1 0xFF PUSH1 0x1 DUP3 ADD SLOAD PUSH1 0xA0 SHR AND PUSH1 0x2 DUP2 LT ISZERO PUSH3 0x1602 JUMPI PUSH1 0x1 EQ PUSH3 0x159D JUMPI JUMPDEST POP PUSH3 0x104C PUSH8 0xDE0B6B3A7640000 PUSH1 0x24 CALLDATALOAD DIV PUSH1 0x5 DUP5 ADD SLOAD PUSH3 0x2F4A JUMP JUMPDEST PUSH1 0x5 DUP4 ADD SSTORE PUSH1 0x44 CALLDATALOAD DUP5 MSTORE PUSH1 0xA PUSH1 0x20 MSTORE PUSH1 0x1 DUP1 PUSH1 0xA0 SHL SUB PUSH1 0x40 DUP6 KECCAK256 SLOAD AND SWAP2 PUSH1 0x1 DUP1 PUSH1 0xA0 SHL SUB DUP5 AND DUP6 MSTORE PUSH1 0xD PUSH1 0x20 MSTORE PUSH2 0x2710 SWAP3 PUSH2 0xFFFF SWAP4 DUP1 PUSH3 0x109D DUP7 PUSH3 0x1095 PUSH1 0x40 DUP12 KECCAK256 PUSH3 0x4492 JUMP JUMPDEST AND DUP7 PUSH3 0x2F20 JUMP JUMPDEST DIV SWAP5 DUP3 PUSH3 0x1582 JUMPI POP POP DUP6 SWAP1 JUMPDEST PUSH3 0x10C1 DUP3 PUSH3 0x10BB DUP8 DUP8 PUSH3 0x30C4 JUMP JUMPDEST PUSH3 0x30C4 JUMP JUMPDEST SWAP1 PUSH3 0x10D0 DUP7 PUSH1 0x4 SLOAD PUSH3 0x2F4A JUMP JUMPDEST PUSH1 0x4 SSTORE PUSH1 0x1 PUSH1 0x1 PUSH1 0xA0 SHL SUB DUP8 AND DUP9 MSTORE PUSH1 0xC PUSH1 0x20 MSTORE PUSH1 0x40 DUP9 KECCAK256 SLOAD PUSH1 0x0 NOT DUP2 ADD DUP2 LT PUSH3 0x156E JUMPI SWAP1 PUSH3 0x1106 DUP10 SWAP3 PUSH1 0x0 NOT ADD PUSH3 0x27B5 JUMP JUMPDEST POP PUSH1 0x1 ADD SLOAD PUSH1 0x1 PUSH1 0x1 PUSH1 0xA0 SHL SUB AND DUP3 MSTORE PUSH1 0x5 PUSH1 0x20 MSTORE PUSH1 0x40 DUP3 KECCAK256 DUP1 SLOAD PUSH3 0x112E SWAP1 DUP6 SWAP1 PUSH3 0x2F4A JUMP JUMPDEST SWAP1 SSTORE DUP4 DUP1 PUSH3 0x1545 JUMPI JUMPDEST POP POP POP PUSH1 0x40 MLOAD SWAP5 DUP6 MSTORE PUSH1 0x20 DUP6 ADD MSTORE PUSH1 0x40 DUP5 ADD MSTORE PUSH1 0x60 SWAP3 CALLER SWAP1 PUSH32 0x5F3016EDBDC7FDD9337FBDE58CFD0B91BDC732C2C67CEAD807BC4302CCADB800 DUP6 PUSH1 0x1 DUP1 PUSH1 0xA0 SHL SUB DUP9 AND SWAP3 LOG3 PUSH3 0x1195 PUSH1 0x24 CALLDATALOAD CALLER PUSH1 0x1 PUSH1 0x1 PUSH1 0xA0 SHL SUB DUP8 AND PUSH3 0x41AD JUMP JUMPDEST PUSH1 0x40 DUP1 MLOAD PUSH1 0x24 CALLDATALOAD DUP2 MSTORE PUSH1 0x20 DUP2 ADD DUP5 SWAP1 MSTORE CALLER SWAP2 PUSH1 0x1 PUSH1 0x1 PUSH1 0xA0 SHL SUB DUP8 AND SWAP2 PUSH32 0xBF77FD13A39D14DC0DA779342C14105C38D9A5D0C60F2CAA22F5FD1D5525416D SWAP2 SWAP1 LOG3 PUSH1 0x40 MLOAD PUSH1 0x24 CALLDATALOAD DUP2 MSTORE DUP3 PUSH1 0x20 DUP3 ADD MSTORE PUSH1 0x44 CALLDATALOAD PUSH1 0x40 DUP3 ADD MSTORE CALLER SWAP1 PUSH32 0x34C0FEC97A6C52302FC3C015EB481637E81BCB84A35AEA58BD692CF83A03C77A DUP6 PUSH1 0x1 DUP1 PUSH1 0xA0 SHL SUB DUP9 AND SWAP3 LOG3 PUSH3 0x1226 DUP5 PUSH3 0x338A JUMP JUMPDEST PUSH1 0x40 DUP1 MLOAD SWAP2 DUP3 MSTORE TIMESTAMP PUSH1 0x20 DUP4 ADD MSTORE PUSH1 0x1 PUSH1 0x1 PUSH1 0xA0 SHL SUB DUP7 AND SWAP2 PUSH32 0xFBCD82ED9D16E1204C8698F6C31409250E7A91D35F141FE4AB721148052F70F0 SWAP2 SWAP1 LOG2 PUSH1 0x7 DUP2 ADD SWAP1 DUP2 SLOAD SWAP1 PUSH1 0xFF DUP3 AND ISZERO SWAP1 DUP2 PUSH3 0x1504 JUMPI JUMPDEST POP PUSH3 0x1287 JUMPI JUMPDEST DUP6 PUSH1 0x1 PUSH1 0x2 SSTORE DUP1 RETURN JUMPDEST PUSH1 0xFF NOT AND PUSH1 0x1 OR SWAP1 SSTORE PUSH1 0x6 SLOAD PUSH1 0x8 SLOAD PUSH1 0x40 MLOAD PUSH4 0xE6A43905 PUSH1 0xE0 SHL DUP2 MSTORE PUSH1 0x1 PUSH1 0x1 PUSH1 0xA0 SHL SUB DUP7 DUP2 AND PUSH1 0x4 DUP4 ADD MSTORE SWAP2 DUP3 AND PUSH1 0x24 DUP3 ADD DUP2 SWAP1 MSTORE SWAP1 SWAP5 SWAP3 DUP8 SWAP3 AND SWAP1 PUSH1 0x20 DUP7 PUSH1 0x44 DUP2 DUP6 GAS STATICCALL SWAP6 DUP7 ISZERO PUSH3 0x14F9 JUMPI DUP4 SWAP7 PUSH3 0x14D3 JUMPI JUMPDEST POP PUSH1 0x1 PUSH1 0x1 PUSH1 0xA0 SHL SUB DUP7 AND ISZERO PUSH3 0x1454 JUMPI JUMPDEST POP POP PUSH1 0x7 SLOAD PUSH1 0x40 MLOAD PUSH4 0x95EA7B3 PUSH1 0xE0 SHL DUP2 MSTORE PUSH1 0x1 PUSH1 0x1 PUSH1 0xA0 SHL SUB SWAP1 SWAP2 AND PUSH1 0x4 DUP3 ADD MSTORE PUSH1 0x24 DUP1 CALLDATALOAD SWAP1 DUP3 ADD MSTORE SWAP1 POP PUSH1 0x20 DUP2 DUP1 PUSH1 0x44 DUP2 ADD SUB DUP2 DUP10 PUSH1 0x1 PUSH1 0x1 PUSH1 0xA0 SHL SUB DUP11 AND GAS CALL DUP1 ISZERO PUSH3 0x1449 JUMPI PUSH3 0x1413 JUMPI JUMPDEST POP PUSH1 0x7 SLOAD PUSH1 0x40 MLOAD PUSH4 0xF305D719 PUSH1 0xE0 SHL DUP2 MSTORE PUSH1 0x1 PUSH1 0x1 PUSH1 0xA0 SHL SUB DUP7 DUP2 AND PUSH1 0x4 DUP4 ADD MSTORE PUSH1 0x24 DUP1 CALLDATALOAD SWAP1 DUP4 ADD MSTORE PUSH1 0x44 DUP3 ADD DUP9 SWAP1 MSTORE PUSH1 0x64 DUP3 ADD DUP9 SWAP1 MSTORE ADDRESS PUSH1 0x84 DUP4 ADD MSTORE TIMESTAMP PUSH1 0xA4 DUP4 ADD MSTORE SWAP1 SWAP4 DUP4 SWAP3 DUP6 SWAP3 PUSH1 0xC4 SWAP3 DUP5 SWAP3 SWAP1 SWAP2 AND GAS CALL SWAP2 DUP3 PUSH3 0x13E4 JUMPI JUMPDEST POP POP PUSH3 0x13AB JUMPI JUMPDEST DUP1 DUP1 DUP1 PUSH3 0x127E JUMP JUMPDEST PUSH1 0x1 PUSH1 0x1 PUSH1 0xA0 SHL SUB SWAP1 DUP2 AND SWAP2 AND PUSH32 0x4F2CE4E40F623CA765FC0167A25CB7842CEAAFB8D82D3DEC26CA0D0E0D2D4896 DUP4 DUP1 LOG3 CODESIZE DUP1 PUSH3 0x13A2 JUMP JUMPDEST DUP2 RETURNDATASIZE DUP4 GT PUSH3 0x140B JUMPI JUMPDEST PUSH3 0x13FA DUP2 DUP4 PUSH3 0x285E JUMP JUMPDEST DUP2 ADD SUB SLT PUSH3 0x7C1 JUMPI CODESIZE DUP1 PUSH3 0x139A JUMP JUMPDEST POP RETURNDATASIZE PUSH3 0x13EE JUMP JUMPDEST PUSH3 0x1439 SWAP1 PUSH1 0x20 RETURNDATASIZE PUSH1 0x20 GT PUSH3 0x1441 JUMPI JUMPDEST PUSH3 0x1430 DUP2 DUP4 PUSH3 0x285E JUMP JUMPDEST DUP2 ADD SWAP1 PUSH3 0x40F9 JUMP JUMPDEST POP CODESIZE PUSH3 0x133F JUMP JUMPDEST POP RETURNDATASIZE PUSH3 0x1424 JUMP JUMPDEST PUSH1 0x40 MLOAD RETURNDATASIZE DUP9 DUP3 RETURNDATACOPY RETURNDATASIZE SWAP1 REVERT JUMPDEST PUSH1 0x40 MLOAD PUSH4 0x64E329CB PUSH1 0xE1 SHL DUP2 MSTORE PUSH1 0x1 PUSH1 0x1 PUSH1 0xA0 SHL SUB DUP9 DUP2 AND PUSH1 0x4 DUP4 ADD MSTORE SWAP2 SWAP1 SWAP2 AND PUSH1 0x24 DUP3 ADD MSTORE SWAP3 SWAP5 POP PUSH1 0x20 SWAP2 DUP4 SWAP2 PUSH1 0x44 SWAP2 DUP4 SWAP2 GAS CALL SWAP1 DUP2 ISZERO PUSH3 0x14C8 JUMPI DUP6 SWAP2 PUSH3 0x14A4 JUMPI JUMPDEST POP SWAP2 DUP5 CODESIZE DUP1 PUSH3 0x12EF JUMP JUMPDEST PUSH3 0x14C1 SWAP2 POP PUSH1 0x20 RETURNDATASIZE PUSH1 0x20 GT PUSH3 0xAC0 JUMPI PUSH3 0xAB0 DUP2 DUP4 PUSH3 0x285E JUMP JUMPDEST CODESIZE PUSH3 0x1499 JUMP JUMPDEST PUSH1 0x40 MLOAD RETURNDATASIZE DUP8 DUP3 RETURNDATACOPY RETURNDATASIZE SWAP1 REVERT JUMPDEST PUSH3 0x14F1 SWAP2 SWAP7 POP PUSH1 0x20 RETURNDATASIZE PUSH1 0x20 GT PUSH3 0xAC0 JUMPI PUSH3 0xAB0 DUP2 DUP4 PUSH3 0x285E JUMP JUMPDEST SWAP5 CODESIZE PUSH3 0x12DD JUMP JUMPDEST PUSH1 0x40 MLOAD RETURNDATASIZE DUP6 DUP3 RETURNDATACOPY RETURNDATASIZE SWAP1 REVERT JUMPDEST PUSH1 0x5 DUP2 ADD SLOAD PUSH8 0xDE0B6B3A7640000 DUP1 DUP3 MUL SWAP4 POP DUP2 ISZERO SWAP2 DUP5 DIV EQ OR ISZERO PUSH3 0x1531 JUMPI PUSH1 0x6 ADD SLOAD GT ISZERO CODESIZE PUSH3 0x1277 JUMP JUMPDEST PUSH4 0x4E487B71 PUSH1 0xE0 SHL DUP9 MSTORE PUSH1 0x11 PUSH1 0x4 MSTORE PUSH1 0x24 DUP9 REVERT JUMPDEST DUP3 DUP1 SWAP3 SWAP2 DUP2 SWAP3 DUP3 DUP3 ISZERO PUSH3 0x1564 JUMPI JUMPDEST CALL ISZERO PUSH3 0x1449 JUMPI DUP7 CODESIZE DUP4 PUSH3 0x1138 JUMP JUMPDEST POP PUSH2 0x8FC PUSH3 0x1554 JUMP JUMPDEST PUSH4 0x4E487B71 PUSH1 0xE0 SHL DUP10 MSTORE PUSH1 0x11 PUSH1 0x4 MSTORE PUSH1 0x24 DUP10 REVERT JUMPDEST PUSH3 0x1595 SWAP1 PUSH1 0x3 SLOAD PUSH1 0x10 SHR AND DUP6 PUSH3 0x2F20 JUMP JUMPDEST DIV SWAP1 PUSH3 0x10AA JUMP JUMPDEST PUSH1 0x2 PUSH3 0x15BB PUSH8 0xDE0B6B3A7640000 PUSH1 0x24 CALLDATALOAD DIV PUSH1 0x5 DUP7 ADD SLOAD PUSH3 0x2F4A JUMP JUMPDEST SWAP2 ADD SLOAD LT PUSH3 0x15CB JUMPI CODESIZE PUSH3 0x102F JUMP JUMPDEST PUSH1 0x40 MLOAD PUSH3 0x461BCD PUSH1 0xE5 SHL DUP2 MSTORE PUSH1 0x20 PUSH1 0x4 DUP3 ADD MSTORE PUSH1 0xF PUSH1 0x24 DUP3 ADD MSTORE PUSH15 0x149D5CDA10D85C115E18D959591959 PUSH1 0x8A SHL PUSH1 0x44 DUP3 ADD MSTORE PUSH1 0x64 SWAP1 REVERT JUMPDEST PUSH4 0x4E487B71 PUSH1 0xE0 SHL DUP7 MSTORE PUSH1 0x21 PUSH1 0x4 MSTORE PUSH1 0x24 DUP7 REVERT JUMPDEST DUP3 DUP1 SWAP3 SWAP2 DUP2 SWAP3 DUP3 SWAP1 PUSH3 0x1636 JUMPI JUMPDEST CALLER SWAP1 CALL ISZERO PUSH3 0x7C5 JUMPI DUP3 CODESIZE DUP1 PUSH3 0xFB4 JUMP JUMPDEST POP PUSH2 0x8FC PUSH3 0x1624 JUMP JUMPDEST PUSH1 0x40 MLOAD PUSH3 0x461BCD PUSH1 0xE5 SHL DUP2 MSTORE PUSH1 0x20 PUSH1 0x4 DUP3 ADD MSTORE PUSH1 0xF PUSH1 0x24 DUP3 ADD MSTORE PUSH15 0x92DCE6EACCCCD2C6D2CADCE88AA89 PUSH1 0x8B SHL PUSH1 0x44 DUP3 ADD MSTORE PUSH1 0x64 SWAP1 REVERT JUMPDEST POP CALLVALUE PUSH3 0x2BB JUMPI PUSH1 0x20 CALLDATASIZE PUSH1 0x3 NOT ADD SLT PUSH3 0x2BB JUMPI PUSH1 0x20 SWAP1 PUSH1 0x4 CALLDATALOAD DUP2 MSTORE PUSH1 0xA DUP3 MSTORE PUSH1 0x40 PUSH1 0x1 DUP1 PUSH1 0xA0 SHL SUB SWAP2 KECCAK256 SLOAD AND PUSH1 0x40 MLOAD SWAP1 DUP2 MSTORE RETURN JUMPDEST POP CALLVALUE PUSH3 0x2BB JUMPI DUP1 PUSH1 0x3 NOT CALLDATASIZE ADD SLT PUSH3 0x2BB JUMPI PUSH1 0x20 PUSH1 0x40 MLOAD PUSH7 0x71AFD498D0000 DUP2 MSTORE RETURN JUMPDEST POP CALLVALUE PUSH3 0x2BB JUMPI DUP1 PUSH1 0x3 NOT CALLDATASIZE ADD SLT PUSH3 0x2BB JUMPI PUSH1 0x13 SLOAD PUSH1 0x40 MLOAD PUSH1 0x1 PUSH1 0x1 PUSH1 0xA0 SHL SUB SWAP1 SWAP2 AND DUP2 MSTORE PUSH1 0x20 SWAP1 RETURN JUMPDEST POP CALLVALUE PUSH3 0x2BB JUMPI PUSH1 0x20 CALLDATASIZE PUSH1 0x3 NOT ADD SLT PUSH3 0x2BB JUMPI PUSH1 0x4 CALLDATALOAD PUSH3 0x171C PUSH3 0x4113 JUMP JUMPDEST PUSH1 0xB SLOAD ISZERO PUSH3 0x17A9 JUMPI DUP2 SWAP1 PUSH1 0xB PUSH1 0x0 MSTORE PUSH1 0x1 DUP1 PUSH1 0xA0 SHL SUB PUSH3 0x176A DUP3 DUP3 PUSH32 0x175B7A638427703F0DBE7BB9BBF987A2551717B34E79F33B5B1008D1FA01DB9 SLOAD AND DUP4 PUSH1 0x12 SLOAD AND SWAP1 CALLER SWAP1 PUSH3 0x43CF JUMP JUMPDEST PUSH1 0x12 SLOAD AND SWAP1 DUP2 EXTCODESIZE ISZERO PUSH3 0x17A5 JUMPI DUP3 SWAP2 PUSH1 0x24 DUP4 SWAP3 PUSH1 0x40 MLOAD SWAP5 DUP6 SWAP4 DUP5 SWAP3 PUSH4 0x534A7E1D PUSH1 0xE1 SHL DUP5 MSTORE PUSH1 0x4 DUP5 ADD MSTORE GAS CALL DUP1 ISZERO PUSH3 0x7C5 JUMPI PUSH3 0xCF3 JUMPI POP RETURN JUMPDEST POP POP REVERT JUMPDEST PUSH4 0x4E487B71 PUSH1 0xE0 SHL PUSH1 0x0 MSTORE PUSH1 0x32 PUSH1 0x4 MSTORE PUSH1 0x24 PUSH1 0x0 REVERT JUMPDEST POP CALLVALUE PUSH3 0x2BB JUMPI PUSH1 0x20 CALLDATASIZE PUSH1 0x3 NOT ADD SLT PUSH3 0x2BB JUMPI PUSH1 0x4 CALLDATALOAD PUSH1 0xB SLOAD DUP2 LT ISZERO PUSH3 0x5E9 JUMPI PUSH3 0x17EC SWAP1 PUSH3 0x27B5 JUMP JUMPDEST POP PUSH1 0x1 DUP1 PUSH1 0xA0 SHL SUB DUP1 DUP3 SLOAD AND SWAP2 PUSH1 0x1 DUP2 ADD SLOAD SWAP2 PUSH1 0xFF DUP4 PUSH1 0xA0 SHR AND PUSH1 0x2 DUP4 ADD SLOAD SWAP2 PUSH1 0x4 PUSH1 0xFF PUSH1 0x3 DUP7 ADD SLOAD AND SWAP5 ADD SLOAD SWAP5 PUSH1 0x40 MLOAD SWAP7 DUP8 MSTORE AND PUSH1 0x20 DUP7 ADD MSTORE PUSH1 0x2 DUP2 LT ISZERO PUSH3 0x1602 JUMPI PUSH1 0xC0 SWAP6 POP PUSH1 0x40 DUP6 ADD MSTORE PUSH1 0x60 DUP5 ADD MSTORE ISZERO ISZERO PUSH1 0x80 DUP4 ADD MSTORE PUSH1 0xA0 DUP3 ADD MSTORE RETURN JUMPDEST POP CALLVALUE PUSH3 0x2BB JUMPI PUSH1 0x20 SWAP1 DUP2 PUSH1 0x3 NOT CALLDATASIZE ADD SLT PUSH3 0x2BB JUMPI PUSH1 0x1 PUSH1 0x1 PUSH1 0x40 SHL SUB SWAP2 PUSH1 0x4 CALLDATALOAD DUP4 DUP2 GT PUSH3 0x7D4 JUMPI PUSH3 0x1886 SWAP1 CALLDATASIZE SWAP1 PUSH1 0x4 ADD PUSH3 0x2785 JUMP JUMPDEST SWAP2 SWAP1 SWAP4 PUSH3 0x1893 PUSH3 0x2C58 JUMP JUMPDEST DUP3 GT PUSH3 0x1A3C JUMPI PUSH3 0x18A7 PUSH1 0x9 SLOAD PUSH3 0x27F1 JUMP JUMPDEST PUSH1 0x1F DUP2 GT PUSH3 0x19D5 JUMPI JUMPDEST POP DUP3 SWAP4 PUSH1 0x1F DUP4 GT PUSH1 0x1 EQ PUSH3 0x192A JUMPI PUSH3 0x1918 SWAP1 DUP4 DUP6 SWAP7 PUSH32 0x6B86E5116747421B9A6543EE4017D9ED593C996144B1233306664721253598BB SWAP7 SWAP2 PUSH3 0x191E JUMPI JUMPDEST POP DUP5 PUSH1 0x1 SHL SWAP1 PUSH1 0x0 NOT DUP7 PUSH1 0x3 SHL SHR NOT AND OR PUSH1 0x9 SSTORE JUMPDEST PUSH1 0x40 MLOAD SWAP4 DUP4 DUP6 SWAP5 DUP6 MSTORE DUP5 ADD SWAP2 PUSH3 0x3082 JUMP JUMPDEST SUB SWAP1 LOG1 DUP1 RETURN JUMPDEST SWAP1 POP DUP2 ADD CALLDATALOAD CODESIZE PUSH3 0x18F1 JUMP JUMPDEST PUSH1 0x9 DUP5 MSTORE PUSH32 0x6E1540171B6C0C960B71A7020D9F60077F6AF931A8BBF590DA0223DACF75C7AF PUSH1 0x1F NOT DUP5 AND DUP6 JUMPDEST DUP2 DUP2 LT PUSH3 0x19BD JUMPI POP SWAP1 PUSH32 0x6B86E5116747421B9A6543EE4017D9ED593C996144B1233306664721253598BB SWAP6 SWAP7 DUP6 PUSH3 0x1918 SWAP5 SWAP4 LT PUSH3 0x19A2 JUMPI JUMPDEST POP POP PUSH1 0x1 DUP5 DUP2 SHL ADD PUSH1 0x9 SSTORE PUSH3 0x1906 JUMP JUMPDEST DUP3 ADD CALLDATALOAD PUSH1 0x0 NOT PUSH1 0x3 DUP8 SWAP1 SHL PUSH1 0xF8 AND SHR NOT AND SWAP1 SSTORE CODESIZE DUP1 PUSH3 0x1991 JUMP JUMPDEST DUP4 DUP9 ADD CALLDATALOAD DUP4 SSTORE SWAP7 DUP5 ADD SWAP7 PUSH1 0x1 SWAP1 SWAP3 ADD SWAP2 DUP5 ADD PUSH3 0x1956 JUMP JUMPDEST PUSH1 0x9 DUP5 MSTORE PUSH32 0x6E1540171B6C0C960B71A7020D9F60077F6AF931A8BBF590DA0223DACF75C7AF PUSH1 0x1F DUP5 ADD PUSH1 0x5 SHR DUP2 ADD SWAP2 DUP4 DUP6 LT PUSH3 0x1A31 JUMPI JUMPDEST PUSH1 0x1F ADD PUSH1 0x5 SHR ADD SWAP1 JUMPDEST DUP2 DUP2 LT PUSH3 0x1A25 JUMPI POP PUSH3 0x18B1 JUMP JUMPDEST DUP5 DUP2 SSTORE PUSH1 0x1 ADD PUSH3 0x1A16 JUMP JUMPDEST SWAP1 SWAP2 POP DUP2 SWAP1 PUSH3 0x1A0D JUMP JUMPDEST PUSH4 0x4E487B71 PUSH1 0xE0 SHL DUP4 MSTORE PUSH1 0x41 PUSH1 0x4 MSTORE PUSH1 0x24 DUP4 REVERT JUMPDEST POP CALLVALUE PUSH3 0x2BB JUMPI PUSH1 0x40 CALLDATASIZE PUSH1 0x3 NOT ADD SLT PUSH3 0x2BB JUMPI PUSH3 0x1A6E PUSH3 0x2757 JUMP JUMPDEST PUSH1 0x40 PUSH3 0x1A7A PUSH3 0x276E JUMP JUMPDEST SWAP3 PUSH1 0x1 DUP1 PUSH1 0xA0 SHL SUB DUP1 SWAP4 AND DUP2 MSTORE PUSH1 0xE PUSH1 0x20 MSTORE KECCAK256 SWAP2 AND PUSH1 0x0 MSTORE PUSH1 0x20 MSTORE PUSH1 0x20 PUSH1 0x40 PUSH1 0x0 KECCAK256 SLOAD PUSH1 0x40 MLOAD SWAP1 DUP2 MSTORE RETURN JUMPDEST POP CALLVALUE PUSH3 0x2BB JUMPI PUSH1 0x20 CALLDATASIZE PUSH1 0x3 NOT ADD SLT PUSH3 0x2BB JUMPI PUSH1 0x20 SWAP1 PUSH1 0x40 SWAP1 PUSH1 0x1 PUSH1 0x1 PUSH1 0xA0 SHL SUB PUSH3 0x1AD1 PUSH3 0x2757 JUMP JUMPDEST AND DUP2 MSTORE PUSH1 0xF DUP4 MSTORE KECCAK256 SLOAD PUSH1 0x40 MLOAD SWAP1 DUP2 MSTORE RETURN JUMPDEST POP CALLVALUE PUSH3 0x2BB JUMPI DUP1 PUSH1 0x3 NOT CALLDATASIZE ADD SLT PUSH3 0x2BB JUMPI PUSH1 0x20 PUSH1 0xFF PUSH1 0x1 SLOAD AND PUSH1 0x40 MLOAD SWAP1 ISZERO ISZERO DUP2 MSTORE RETURN JUMPDEST POP CALLVALUE PUSH3 0x2BB JUMPI PUSH1 0x20 CALLDATASIZE PUSH1 0x3 NOT ADD SLT PUSH3 0x2BB JUMPI PUSH1 0x20 SWAP1 PUSH1 0xFF SWAP1 PUSH1 0x40 SWAP1 PUSH1 0x1 PUSH1 0x1 PUSH1 0xA0 SHL SUB PUSH3 0x1B36 PUSH3 0x2757 JUMP JUMPDEST AND DUP2 MSTORE PUSH1 0x10 DUP5 MSTORE KECCAK256 SLOAD AND PUSH1 0x40 MLOAD SWAP1 ISZERO ISZERO DUP2 MSTORE RETURN JUMPDEST POP CALLVALUE PUSH3 0x2BB JUMPI DUP1 PUSH1 0x3 NOT CALLDATASIZE ADD SLT PUSH3 0x2BB JUMPI PUSH1 0x12 SLOAD PUSH1 0x40 MLOAD PUSH1 0x1 PUSH1 0x1 PUSH1 0xA0 SHL SUB SWAP1 SWAP2 AND DUP2 MSTORE PUSH1 0x20 SWAP1 RETURN JUMPDEST POP CALLVALUE PUSH3 0x2BB JUMPI PUSH2 0x280 CALLDATASIZE PUSH1 0x3 NOT ADD SLT PUSH3 0x2BB JUMPI PUSH1 0x1 PUSH1 0x1 PUSH1 0x40 SHL SUB SWAP1 PUSH1 0x4 CALLDATALOAD DUP3 DUP2 GT PUSH3 0x5E9 JUMPI PUSH3 0x1BAE SWAP1 CALLDATASIZE SWAP1 PUSH1 0x4 ADD PUSH3 0x2785 JUMP JUMPDEST PUSH1 0x24 CALLDATALOAD DUP5 DUP2 GT PUSH3 0x7C1 JUMPI PUSH3 0x1BC9 SWAP1 CALLDATASIZE SWAP1 PUSH1 0x4 ADD PUSH3 0x2785 JUMP JUMPDEST SWAP1 SWAP5 PUSH1 0x44 CALLDATALOAD SWAP4 PUSH1 0x2 DUP6 LT ISZERO PUSH3 0x2029 JUMPI PUSH1 0x4 PUSH1 0x84 CALLDATALOAD LT ISZERO PUSH3 0x2029 JUMPI PUSH2 0x144 CALLDATALOAD SWAP4 PUSH2 0xFFFF SWAP4 DUP5 DUP7 AND DUP1 SWAP7 SUB PUSH3 0x7D8 JUMPI PUSH2 0x164 CALLDATALOAD SWAP5 DUP6 AND DUP1 SWAP6 SUB PUSH3 0x7D8 JUMPI PUSH2 0x264 CALLDATALOAD DUP5 DUP2 GT PUSH3 0x2025 JUMPI PUSH3 0x1C24 SWAP1 CALLDATASIZE SWAP1 PUSH1 0x4 ADD PUSH3 0x2785 JUMP JUMPDEST SWAP2 PUSH3 0x1C2F PUSH3 0x4113 JUMP JUMPDEST PUSH3 0x1C39 PUSH3 0x4158 JUMP JUMPDEST PUSH3 0x1C43 PUSH3 0x2AFF JUMP JUMPDEST PUSH1 0x40 MLOAD SWAP5 PUSH2 0x201C SWAP5 DUP6 DUP8 ADD SWAP6 DUP8 DUP8 LT DUP10 DUP9 GT OR PUSH3 0x1FFD JUMPI SWAP3 PUSH3 0x1C84 DUP9 SWAP8 SWAP6 SWAP4 PUSH3 0x1C96 SWAP4 PUSH3 0x1CB4 SWAP9 SWAP7 PUSH3 0x45B7 DUP12 CODECOPY PUSH1 0xA0 DUP9 MSTORE PUSH1 0xA0 DUP9 ADD SWAP2 PUSH3 0x3082 JUMP JUMPDEST SWAP1 PUSH1 0x20 SWAP15 DUP16 DUP8 DUP5 SUB SWAP1 DUP9 ADD MSTORE PUSH3 0x3082 JUMP JUMPDEST SWAP3 PUSH2 0x244 CALLDATALOAD PUSH1 0x40 DUP3 ADD MSTORE ADDRESS PUSH1 0x60 DUP3 ADD MSTORE PUSH1 0x80 DUP2 DUP6 SUB SWAP2 ADD MSTORE PUSH3 0x3082 JUMP JUMPDEST SUB SWAP1 DUP7 CREATE SWAP3 DUP4 ISZERO PUSH3 0x14C8 JUMPI PUSH1 0x40 MLOAD SWAP5 PUSH2 0x78E SWAP6 DUP7 DUP2 ADD SWAP7 DUP2 DUP9 LT DUP6 DUP10 GT OR PUSH3 0x2011 JUMPI PUSH3 0x65D3 DUP3 CODECOPY PUSH1 0x1 PUSH1 0x1 PUSH1 0xA0 SHL SUB DUP7 DUP2 AND DUP9 MSTORE CALLER DUP11 DUP10 ADD MSTORE PUSH2 0x204 CALLDATALOAD PUSH1 0x40 DUP10 ADD MSTORE PUSH2 0x224 CALLDATALOAD PUSH1 0x60 DUP10 ADD MSTORE SWAP7 DUP2 SWAP1 SUB PUSH1 0x80 ADD SWAP1 DUP9 CREATE DUP1 ISZERO PUSH3 0xAF7 JUMPI DUP7 AND PUSH3 0x1D27 PUSH2 0x1E4 CALLDATALOAD DUP3 DUP10 DUP10 AND PUSH3 0x41AD JUMP JUMPDEST PUSH1 0x40 MLOAD SWAP1 DUP2 MSTORE PUSH32 0x2EE44D821B06C9AA990927D787F4ADF9D8D3EB9BF798EF5C80415CD7A3965602 DUP10 DUP9 DUP9 AND SWAP3 LOG2 PUSH1 0x40 MLOAD SWAP1 PUSH1 0xC0 DUP3 ADD DUP3 DUP2 LT DUP6 DUP3 GT OR PUSH3 0x1FBF JUMPI PUSH1 0x40 MSTORE DUP7 DUP7 AND DUP3 MSTORE DUP9 DUP3 ADD CALLER DUP2 MSTORE PUSH1 0x40 DUP4 ADD SWAP2 DUP3 MSTORE PUSH1 0x60 DUP4 ADD PUSH1 0x64 CALLDATALOAD DUP2 MSTORE PUSH1 0x80 DUP5 ADD SWAP2 PUSH1 0x1 DUP4 MSTORE PUSH1 0xA0 DUP6 ADD SWAP4 PUSH2 0x1C4 CALLDATALOAD DUP6 MSTORE PUSH1 0xB SLOAD PUSH9 0x10000000000000000 DUP2 LT ISZERO PUSH3 0x1FFD JUMPI DUP1 PUSH1 0x1 PUSH3 0x1DC1 SWAP3 ADD PUSH1 0xB SSTORE PUSH3 0x27B5 JUMP JUMPDEST SWAP7 SWAP1 SWAP7 PUSH3 0x1FE9 JUMPI DUP12 SWAP1 MLOAD AND PUSH1 0x1 PUSH1 0x1 PUSH1 0x60 SHL SUB PUSH1 0xA0 SHL DUP8 SLOAD AND OR DUP7 SSTORE DUP11 PUSH1 0x1 DUP8 ADD SWAP3 MLOAD AND DUP3 SLOAD SWAP2 MLOAD PUSH1 0x2 DUP2 LT ISZERO PUSH3 0x1FD5 JUMPI PUSH1 0x1 PUSH1 0x1 PUSH1 0xA8 SHL SUB NOT SWAP1 SWAP3 AND OR PUSH1 0xA0 SWAP2 SWAP1 SWAP2 SHL PUSH1 0xFF PUSH1 0xA0 SHL AND OR SWAP1 SSTORE MLOAD PUSH1 0x2 DUP5 ADD SSTORE MLOAD PUSH1 0x3 DUP4 ADD DUP1 SLOAD SWAP2 ISZERO ISZERO PUSH1 0xFF AND PUSH1 0xFF NOT SWAP3 SWAP1 SWAP3 AND SWAP2 SWAP1 SWAP2 OR SWAP1 SSTORE PUSH1 0x4 SWAP1 MLOAD SWAP2 ADD SSTORE PUSH1 0xB SLOAD DUP6 DUP6 AND DUP8 MSTORE PUSH1 0xC DUP9 MSTORE PUSH1 0x40 DUP8 KECCAK256 SSTORE PUSH1 0x40 MLOAD SWAP2 PUSH2 0x180 DUP4 ADD SWAP1 DUP4 DUP3 LT SWAP1 DUP3 GT OR PUSH3 0x1FBF JUMPI PUSH1 0x40 MSTORE PUSH1 0x84 CALLDATALOAD DUP3 MSTORE DUP7 DUP3 ADD SWAP3 PUSH1 0xA4 CALLDATALOAD DUP5 MSTORE PUSH1 0x40 DUP4 ADD PUSH1 0xC4 CALLDATALOAD DUP2 MSTORE PUSH1 0x60 DUP5 ADD PUSH1 0xE4 CALLDATALOAD DUP2 MSTORE PUSH1 0x80 DUP6 ADD SWAP2 PUSH2 0x104 CALLDATALOAD DUP4 MSTORE PUSH1 0xA0 DUP7 ADD SWAP4 DUP11 DUP6 MSTORE PUSH1 0xC0 DUP8 ADD SWAP6 PUSH2 0x124 CALLDATALOAD DUP8 MSTORE DUP12 PUSH1 0xE0 DUP10 ADD MSTORE PUSH2 0x100 DUP9 ADD MSTORE PUSH2 0x120 DUP8 ADD MSTORE PUSH2 0x184 CALLDATALOAD PUSH2 0x140 DUP8 ADD MSTORE PUSH2 0x1A4 CALLDATALOAD PUSH2 0x160 DUP8 ADD MSTORE DUP9 DUP9 AND DUP11 MSTORE PUSH1 0xD DUP12 MSTORE PUSH1 0x40 DUP11 KECCAK256 SWAP7 DUP7 MLOAD PUSH1 0x4 DUP2 LT ISZERO PUSH3 0x1FAB JUMPI DUP9 SLOAD PUSH1 0xFF SWAP2 DUP3 AND PUSH1 0xFF NOT SWAP2 DUP3 AND OR DUP11 SSTORE SWAP2 MLOAD PUSH1 0x1 DUP11 ADD SSTORE SWAP2 MLOAD PUSH1 0x2 DUP10 ADD SSTORE SWAP2 MLOAD PUSH1 0x3 DUP9 ADD SSTORE SWAP2 MLOAD PUSH1 0x4 DUP8 ADD SSTORE SWAP2 MLOAD PUSH1 0x5 DUP7 ADD SSTORE SWAP2 MLOAD PUSH1 0x6 DUP6 ADD SSTORE PUSH1 0xE0 DUP4 ADD MLOAD PUSH1 0x7 DUP6 ADD DUP1 SLOAD SWAP2 ISZERO ISZERO SWAP1 SWAP4 AND SWAP2 AND OR DUP2 SSTORE PUSH1 0x9 SWAP2 PUSH2 0x160 SWAP2 PUSH2 0x100 DUP3 ADD MLOAD DUP2 SLOAD PUSH3 0xFFFF00 PUSH5 0xFFFF000000 PUSH2 0x120 DUP7 ADD MLOAD PUSH1 0x18 SHL AND SWAP3 PUSH1 0x8 SHL AND SWAP1 PUSH5 0xFFFFFFFF00 NOT AND OR OR SWAP1 SSTORE PUSH2 0x140 DUP2 ADD MLOAD PUSH1 0x8 DUP6 ADD SSTORE ADD MLOAD SWAP2 ADD SSTORE PUSH1 0x40 MLOAD SWAP3 CALLER SWAP1 PUSH32 0xD5F9BDF12ADF29DAB0248C349842C3822D53AE2BB4F36352F301630D018C8139 DUP5 DUP5 AND SWAP2 DUP1 LOG3 PUSH1 0x1 PUSH1 0x2 SSTORE AND DUP2 MSTORE RETURN JUMPDEST PUSH4 0x4E487B71 PUSH1 0xE0 SHL DUP13 MSTORE PUSH1 0x21 PUSH1 0x4 MSTORE PUSH1 0x24 DUP13 REVERT JUMPDEST PUSH4 0x4E487B71 PUSH1 0xE0 SHL PUSH1 0x0 MSTORE PUSH1 0x41 PUSH1 0x4 MSTORE PUSH1 0x24 PUSH1 0x0 REVERT JUMPDEST PUSH4 0x4E487B71 PUSH1 0xE0 SHL DUP15 MSTORE PUSH1 0x21 PUSH1 0x4 MSTORE PUSH1 0x24 DUP15 REVERT JUMPDEST PUSH4 0x4E487B71 PUSH1 0xE0 SHL DUP14 MSTORE PUSH1 0x4 DUP14 SWAP1 MSTORE PUSH1 0x24 DUP14 REVERT JUMPDEST PUSH4 0x4E487B71 PUSH1 0xE0 SHL DUP14 MSTORE PUSH1 0x41 PUSH1 0x4 MSTORE PUSH1 0x24 DUP14 REVERT JUMPDEST PUSH4 0x4E487B71 PUSH1 0xE0 SHL DUP10 MSTORE PUSH1 0x41 PUSH1 0x4 MSTORE PUSH1 0x24 DUP10 REVERT JUMPDEST DUP9 DUP1 REVERT JUMPDEST DUP6 DUP1 REVERT JUMPDEST POP CALLVALUE PUSH3 0x2BB JUMPI DUP1 PUSH1 0x3 NOT CALLDATASIZE ADD SLT PUSH3 0x2BB JUMPI PUSH3 0x204A PUSH3 0x28D3 JUMP JUMPDEST PUSH1 0x1 SLOAD PUSH1 0xFF DUP2 AND ISZERO PUSH3 0x208B JUMPI PUSH1 0xFF NOT AND PUSH1 0x1 SSTORE PUSH32 0x5DB9EE0A495BF2E6FF9C91A7834C1BA4FDD244A5E8AA4E537BD38AEAE4B073AA PUSH1 0x20 PUSH1 0x40 MLOAD CALLER DUP2 MSTORE LOG1 DUP1 RETURN JUMPDEST PUSH1 0x40 MLOAD PUSH3 0x461BCD PUSH1 0xE5 SHL DUP2 MSTORE PUSH1 0x20 PUSH1 0x4 DUP3 ADD MSTORE PUSH1 0x14 PUSH1 0x24 DUP3 ADD MSTORE PUSH20 0x14185D5CD8589B194E881B9BDD081C185D5CD959 PUSH1 0x62 SHL PUSH1 0x44 DUP3 ADD MSTORE PUSH1 0x64 SWAP1 REVERT JUMPDEST POP CALLVALUE PUSH3 0x2BB JUMPI PUSH1 0x60 CALLDATASIZE PUSH1 0x3 NOT ADD SLT PUSH3 0x2BB JUMPI PUSH3 0x20E5 PUSH3 0x2757 JUMP JUMPDEST PUSH1 0x24 CALLDATALOAD SWAP1 PUSH3 0x20F3 PUSH3 0x4113 JUMP JUMPDEST PUSH3 0x20FD PUSH3 0x4158 JUMP JUMPDEST PUSH1 0x1 PUSH1 0x1 PUSH1 0xA0 SHL SUB DUP2 AND DUP1 DUP5 MSTORE PUSH1 0xD PUSH1 0x20 MSTORE PUSH1 0x40 DUP5 KECCAK256 PUSH1 0x5 DUP2 ADD DUP1 SLOAD SWAP3 SWAP5 SWAP3 SWAP2 PUSH8 0xDE0B6B3A7640000 DUP5 DIV DUP1 DUP5 LT PUSH3 0x21FA JUMPI PUSH3 0x2140 DUP2 PUSH3 0x2151 SWAP4 PUSH3 0x4524 JUMP JUMPDEST SWAP4 PUSH3 0x10BB PUSH1 0x44 CALLDATALOAD DUP7 LT ISZERO PUSH3 0x405D JUMP JUMPDEST SWAP1 SSTORE PUSH3 0x2161 DUP3 ADDRESS CALLER DUP8 PUSH3 0x43CF JUMP JUMPDEST DUP5 DUP1 DUP3 DUP1 ISZERO PUSH3 0x21EF JUMPI JUMPDEST DUP3 DUP1 SWAP3 SWAP2 DUP2 SWAP3 CALLER SWAP1 CALL ISZERO PUSH3 0xAC8 JUMPI PUSH32 0xFBCD82ED9D16E1204C8698F6C31409250E7A91D35F141FE4AB721148052F70F0 SWAP3 PUSH1 0x40 SWAP3 PUSH3 0x21DB SWAP3 DUP5 MLOAD SWAP2 DUP3 MSTORE PUSH1 0x20 DUP3 ADD MSTORE DUP6 PUSH32 0x16DD16959A056953A63CF14BF427881E762E54F03D86B864EFEA8238DD3B822F DUP6 CALLER SWAP4 LOG3 PUSH3 0x338A JUMP JUMPDEST DUP2 MLOAD SWAP1 DUP2 MSTORE TIMESTAMP PUSH1 0x20 DUP3 ADD MSTORE LOG2 PUSH1 0x1 PUSH1 0x2 SSTORE DUP1 RETURN JUMPDEST PUSH2 0x8FC SWAP2 POP PUSH3 0x216C JUMP JUMPDEST PUSH1 0x40 MLOAD PUSH3 0x461BCD PUSH1 0xE5 SHL DUP2 MSTORE PUSH1 0x20 PUSH1 0x4 DUP3 ADD MSTORE PUSH1 0x10 PUSH1 0x24 DUP3 ADD MSTORE PUSH16 0x125B9CDD59999A58DA595B9D14DBDB19 PUSH1 0x82 SHL PUSH1 0x44 DUP3 ADD MSTORE PUSH1 0x64 SWAP1 REVERT JUMPDEST POP CALLVALUE PUSH3 0x2BB JUMPI PUSH1 0x40 CALLDATASIZE PUSH1 0x3 NOT ADD SLT PUSH3 0x2BB JUMPI PUSH3 0x2250 PUSH3 0x276E JUMP JUMPDEST CALLER PUSH1 0x1 PUSH1 0x1 PUSH1 0xA0 SHL SUB DUP3 AND SUB PUSH3 0x226F JUMPI PUSH3 0x822 SWAP1 PUSH1 0x4 CALLDATALOAD PUSH3 0x2EAB JUMP JUMPDEST PUSH1 0x40 MLOAD PUSH3 0x461BCD PUSH1 0xE5 SHL DUP2 MSTORE PUSH1 0x20 PUSH1 0x4 DUP3 ADD MSTORE PUSH1 0x2F PUSH1 0x24 DUP3 ADD MSTORE PUSH32 0x416363657373436F6E74726F6C3A2063616E206F6E6C792072656E6F756E6365 PUSH1 0x44 DUP3 ADD MSTORE PUSH15 0x103937B632B9903337B91039B2B633 PUSH1 0x89 SHL PUSH1 0x64 DUP3 ADD MSTORE PUSH1 0x84 SWAP1 REVERT JUMPDEST POP CALLVALUE PUSH3 0x2BB JUMPI PUSH1 0x20 CALLDATASIZE PUSH1 0x3 NOT ADD SLT PUSH3 0x2BB JUMPI PUSH1 0x20 SWAP1 PUSH1 0x40 SWAP1 PUSH1 0x1 PUSH1 0x1 PUSH1 0xA0 SHL SUB PUSH3 0x22F8 PUSH3 0x2757 JUMP JUMPDEST AND DUP2 MSTORE PUSH1 0xC DUP4 MSTORE KECCAK256 SLOAD PUSH1 0x40 MLOAD SWAP1 DUP2 MSTORE RETURN JUMPDEST POP CALLVALUE PUSH3 0x2BB JUMPI PUSH1 0x40 CALLDATASIZE PUSH1 0x3 NOT ADD SLT PUSH3 0x2BB JUMPI PUSH1 0x4 CALLDATALOAD PUSH3 0x232A PUSH3 0x276E JUMP JUMPDEST DUP2 DUP4 MSTORE DUP3 PUSH1 0x20 MSTORE PUSH3 0x2343 PUSH1 0x1 PUSH1 0x40 DUP6 KECCAK256 ADD SLOAD PUSH3 0x2D8F JUMP JUMPDEST DUP2 DUP4 MSTORE DUP3 PUSH1 0x20 MSTORE PUSH1 0x40 DUP4 KECCAK256 SWAP1 PUSH1 0x1 DUP1 PUSH1 0xA0 SHL SUB AND SWAP1 DUP2 PUSH1 0x0 MSTORE PUSH1 0x20 MSTORE PUSH1 0xFF PUSH1 0x40 PUSH1 0x0 KECCAK256 SLOAD AND ISZERO PUSH3 0x2372 JUMPI DUP3 DUP1 RETURN JUMPDEST DUP2 DUP4 MSTORE DUP3 PUSH1 0x20 MSTORE PUSH1 0x40 DUP4 KECCAK256 DUP2 PUSH1 0x0 MSTORE PUSH1 0x20 MSTORE PUSH1 0x40 PUSH1 0x0 KECCAK256 PUSH1 0x1 PUSH1 0xFF NOT DUP3 SLOAD AND OR SWAP1 SSTORE CALLER SWAP2 PUSH32 0x2F8788117E7EFF1D82E926EC794901D17C78024A50270940304540A733656F0D DUP5 DUP1 LOG4 CODESIZE DUP1 DUP3 DUP1 RETURN JUMPDEST POP CALLVALUE PUSH3 0x2BB JUMPI PUSH1 0x20 CALLDATASIZE PUSH1 0x3 NOT ADD SLT PUSH3 0x2BB JUMPI PUSH1 0x1 PUSH1 0x1 PUSH1 0xA0 SHL SUB PUSH3 0x23E6 PUSH3 0x2757 JUMP JUMPDEST AND DUP2 MSTORE PUSH1 0xD PUSH1 0x20 MSTORE PUSH1 0x40 DUP2 KECCAK256 PUSH1 0xFF DUP2 SLOAD AND SWAP1 PUSH1 0x1 DUP2 ADD SLOAD SWAP1 PUSH1 0x2 DUP2 ADD SLOAD PUSH1 0x3 DUP3 ADD SLOAD PUSH1 0x4 DUP4 ADD SLOAD PUSH1 0x5 DUP5 ADD SLOAD SWAP1 PUSH1 0x6 DUP6 ADD SLOAD SWAP3 PUSH1 0x7 DUP7 ADD SLOAD SWAP5 PUSH1 0x9 PUSH1 0x8 DUP9 ADD SLOAD SWAP8 ADD SLOAD SWAP8 PUSH1 0x40 MLOAD SWAP10 PUSH1 0x4 DUP2 LT ISZERO PUSH3 0x1FAB JUMPI PUSH2 0x180 SWAP12 POP DUP11 MSTORE PUSH1 0x20 DUP11 ADD MSTORE PUSH1 0x40 DUP10 ADD MSTORE PUSH1 0x60 DUP9 ADD MSTORE PUSH1 0x80 DUP8 ADD MSTORE PUSH1 0xA0 DUP7 ADD MSTORE PUSH1 0xC0 DUP6 ADD MSTORE PUSH1 0xFF DUP2 AND ISZERO ISZERO PUSH1 0xE0 DUP6 ADD MSTORE PUSH2 0xFFFF SWAP1 DUP2 DUP2 PUSH1 0x8 SHR AND PUSH2 0x100 DUP7 ADD MSTORE PUSH1 0x18 SHR AND PUSH2 0x120 DUP5 ADD MSTORE PUSH2 0x140 DUP4 ADD MSTORE PUSH2 0x160 DUP3 ADD MSTORE RETURN JUMPDEST POP CALLVALUE PUSH3 0x2BB JUMPI PUSH1 0x20 CALLDATASIZE PUSH1 0x3 NOT ADD SLT PUSH3 0x2BB JUMPI PUSH1 0x12 SLOAD DUP2 SWAP1 PUSH1 0x1 PUSH1 0x1 PUSH1 0xA0 SHL SUB AND DUP1 EXTCODESIZE ISZERO PUSH3 0xD06 JUMPI DUP2 DUP1 SWAP2 PUSH1 0x24 PUSH1 0x40 MLOAD DUP1 SWAP5 DUP2 SWAP4 PUSH4 0x2E1A7D4D PUSH1 0xE0 SHL DUP4 MSTORE PUSH1 0x4 CALLDATALOAD PUSH1 0x4 DUP5 ADD MSTORE GAS CALL DUP1 ISZERO PUSH3 0x7C5 JUMPI PUSH3 0xCF3 JUMPI POP RETURN JUMPDEST POP PUSH1 0x20 DUP1 PUSH1 0x3 NOT CALLDATASIZE ADD SLT PUSH3 0x5E9 JUMPI PUSH1 0x1 PUSH1 0x1 PUSH1 0xA0 SHL SUB PUSH3 0x250A PUSH3 0x2757 JUMP JUMPDEST AND DUP1 DUP4 MSTORE PUSH1 0xC DUP3 MSTORE PUSH1 0x40 DUP4 KECCAK256 SLOAD PUSH1 0x0 NOT DUP2 ADD SWAP1 DUP2 GT PUSH3 0x55D JUMPI PUSH3 0x2531 PUSH1 0x4 SWAP2 PUSH3 0x27B5 JUMP JUMPDEST POP ADD SLOAD TIMESTAMP GT PUSH3 0x25A8 JUMPI DUP1 DUP4 MSTORE PUSH1 0xE DUP3 MSTORE PUSH1 0x40 DUP4 KECCAK256 CALLER PUSH1 0x0 MSTORE DUP3 MSTORE PUSH1 0x40 PUSH1 0x0 KECCAK256 PUSH3 0x255E CALLVALUE DUP3 SLOAD PUSH3 0x2F4A JUMP JUMPDEST SWAP1 SSTORE DUP1 DUP4 MSTORE PUSH1 0xF DUP3 MSTORE PUSH1 0x40 DUP4 KECCAK256 PUSH3 0x2578 CALLVALUE DUP3 SLOAD PUSH3 0x2F4A JUMP JUMPDEST SWAP1 SSTORE PUSH32 0x2DF8A6513637B00C16FAC19A51061303422765FBADB402CC90D7B42ACEE9CF7D PUSH1 0x40 MLOAD SWAP3 CALLVALUE DUP5 MSTORE CALLER SWAP4 LOG3 DUP1 RETURN JUMPDEST PUSH1 0x40 MLOAD PUSH3 0x461BCD PUSH1 0xE5 SHL DUP2 MSTORE PUSH1 0x4 DUP2 ADD DUP4 SWAP1 MSTORE PUSH1 0xB PUSH1 0x24 DUP3 ADD MSTORE PUSH11 0x15985D5B1D10DB1BDCD959 PUSH1 0xAA SHL PUSH1 0x44 DUP3 ADD MSTORE PUSH1 0x64 SWAP1 REVERT JUMPDEST POP CALLVALUE PUSH3 0x2BB JUMPI PUSH1 0x20 CALLDATASIZE PUSH1 0x3 NOT ADD SLT PUSH3 0x2BB JUMPI PUSH1 0x1 PUSH1 0x40 PUSH1 0x20 SWAP3 PUSH1 0x4 CALLDATALOAD DUP2 MSTORE DUP1 DUP5 MSTORE KECCAK256 ADD SLOAD PUSH1 0x40 MLOAD SWAP1 DUP2 MSTORE RETURN JUMPDEST POP CALLVALUE PUSH3 0x2BB JUMPI DUP1 PUSH1 0x3 NOT CALLDATASIZE ADD SLT PUSH3 0x2BB JUMPI PUSH1 0x20 PUSH1 0x4 SLOAD PUSH1 0x40 MLOAD SWAP1 DUP2 MSTORE RETURN JUMPDEST POP CALLVALUE PUSH3 0x2BB JUMPI PUSH1 0x40 CALLDATASIZE PUSH1 0x3 NOT ADD SLT PUSH3 0x2BB JUMPI DUP1 PUSH1 0x24 CALLDATALOAD PUSH1 0x1 PUSH1 0x1 PUSH1 0x40 SHL SUB DUP2 GT PUSH3 0xD06 JUMPI PUSH3 0x2660 SWAP1 CALLDATASIZE SWAP1 PUSH1 0x4 ADD PUSH3 0x2724 JUMP JUMPDEST PUSH1 0x13 SLOAD SWAP1 SWAP3 SWAP2 SWAP1 PUSH1 0x1 PUSH1 0x1 PUSH1 0xA0 SHL SUB AND DUP1 EXTCODESIZE ISZERO PUSH3 0x7D4 JUMPI PUSH3 0x26AB SWAP4 DUP4 PUSH1 0x40 MLOAD DUP1 SWAP7 DUP2 SWAP6 DUP3 SWAP5 PUSH4 0x2F52EBB7 PUSH1 0xE0 SHL DUP5 MSTORE PUSH1 0x4 CALLDATALOAD PUSH1 0x4 DUP6 ADD MSTORE PUSH1 0x40 PUSH1 0x24 DUP6 ADD MSTORE PUSH1 0x44 DUP5 ADD SWAP2 PUSH3 0x442A JUMP JUMPDEST SUB SWAP3 GAS CALL DUP1 ISZERO PUSH3 0x7C5 JUMPI PUSH3 0x26BF JUMPI POP DUP1 RETURN JUMPDEST PUSH3 0x822 SWAP1 PUSH3 0x282E JUMP JUMPDEST SWAP1 POP CALLVALUE PUSH3 0x5E9 JUMPI PUSH1 0x20 CALLDATASIZE PUSH1 0x3 NOT ADD SLT PUSH3 0x5E9 JUMPI PUSH1 0x4 CALLDATALOAD PUSH4 0xFFFFFFFF PUSH1 0xE0 SHL DUP2 AND DUP1 SWAP2 SUB PUSH3 0x7D4 JUMPI PUSH1 0x20 SWAP3 POP PUSH4 0x7965DB0B PUSH1 0xE0 SHL DUP2 EQ SWAP1 DUP2 ISZERO PUSH3 0x2712 JUMPI JUMPDEST POP ISZERO ISZERO DUP2 MSTORE RETURN JUMPDEST PUSH4 0x1FFC9A7 PUSH1 0xE0 SHL EQ SWAP1 POP CODESIZE PUSH3 0x270B JUMP JUMPDEST SWAP2 DUP2 PUSH1 0x1F DUP5 ADD SLT ISZERO PUSH3 0x7D8 JUMPI DUP3 CALLDATALOAD SWAP2 PUSH1 0x1 PUSH1 0x1 PUSH1 0x40 SHL SUB DUP4 GT PUSH3 0x7D8 JUMPI PUSH1 0x20 DUP1 DUP6 ADD SWAP5 DUP5 PUSH1 0x5 SHL ADD ADD GT PUSH3 0x7D8 JUMPI JUMP JUMPDEST PUSH1 0x4 CALLDATALOAD SWAP1 PUSH1 0x1 PUSH1 0x1 PUSH1 0xA0 SHL SUB DUP3 AND DUP3 SUB PUSH3 0x7D8 JUMPI JUMP JUMPDEST PUSH1 0x24 CALLDATALOAD SWAP1 PUSH1 0x1 PUSH1 0x1 PUSH1 0xA0 SHL SUB DUP3 AND DUP3 SUB PUSH3 0x7D8 JUMPI JUMP JUMPDEST SWAP2 DUP2 PUSH1 0x1F DUP5 ADD SLT ISZERO PUSH3 0x7D8 JUMPI DUP3 CALLDATALOAD SWAP2 PUSH1 0x1 PUSH1 0x1 PUSH1 0x40 SHL SUB DUP4 GT PUSH3 0x7D8 JUMPI PUSH1 0x20 DUP4 DUP2 DUP7 ADD SWAP6 ADD ADD GT PUSH3 0x7D8 JUMPI JUMP JUMPDEST PUSH1 0xB SLOAD DUP2 LT ISZERO PUSH3 0x17A9 JUMPI PUSH1 0x5 SWAP1 PUSH1 0xB PUSH1 0x0 MSTORE MUL PUSH32 0x175B7A638427703F0DBE7BB9BBF987A2551717B34E79F33B5B1008D1FA01DB9 ADD SWAP1 PUSH1 0x0 SWAP1 JUMP JUMPDEST SWAP1 PUSH1 0x1 DUP3 DUP2 SHR SWAP3 AND DUP1 ISZERO PUSH3 0x2823 JUMPI JUMPDEST PUSH1 0x20 DUP4 LT EQ PUSH3 0x280D JUMPI JUMP JUMPDEST PUSH4 0x4E487B71 PUSH1 0xE0 SHL PUSH1 0x0 MSTORE PUSH1 0x22 PUSH1 0x4 MSTORE PUSH1 0x24 PUSH1 0x0 REVERT JUMPDEST SWAP2 PUSH1 0x7F AND SWAP2 PUSH3 0x2801 JUMP JUMPDEST PUSH1 0x1 PUSH1 0x1 PUSH1 0x40 SHL SUB DUP2 GT PUSH3 0x1FBF JUMPI PUSH1 0x40 MSTORE JUMP JUMPDEST PUSH1 0x80 DUP2 ADD SWAP1 DUP2 LT PUSH1 0x1 PUSH1 0x1 PUSH1 0x40 SHL SUB DUP3 GT OR PUSH3 0x1FBF JUMPI PUSH1 0x40 MSTORE JUMP JUMPDEST SWAP1 PUSH1 0x1F DUP1 NOT SWAP2 ADD AND DUP2 ADD SWAP1 DUP2 LT PUSH1 0x1 PUSH1 0x1 PUSH1 0x40 SHL SUB DUP3 GT OR PUSH3 0x1FBF JUMPI PUSH1 0x40 MSTORE JUMP JUMPDEST PUSH1 0x0 JUMPDEST DUP4 DUP2 LT PUSH3 0x2894 JUMPI POP POP PUSH1 0x0 SWAP2 ADD MSTORE JUMP JUMPDEST DUP2 DUP2 ADD MLOAD DUP4 DUP3 ADD MSTORE PUSH1 0x20 ADD PUSH3 0x2883 JUMP JUMPDEST PUSH1 0x40 SWAP2 PUSH1 0x20 DUP3 MSTORE PUSH3 0x28C7 DUP2 MLOAD DUP1 SWAP3 DUP2 PUSH1 0x20 DUP7 ADD MSTORE PUSH1 0x20 DUP7 DUP7 ADD SWAP2 ADD PUSH3 0x2880 JUMP JUMPDEST PUSH1 0x1F ADD PUSH1 0x1F NOT AND ADD ADD SWAP1 JUMP JUMPDEST CALLER PUSH1 0x0 SWAP1 DUP2 MSTORE PUSH32 0xF7C9542C591017A21C74B6F3FAB6263C7952FC0AAF9DB4C22A2A04DDC7F8674F PUSH1 0x20 SWAP1 DUP2 MSTORE PUSH1 0x40 DUP1 DUP4 KECCAK256 SLOAD SWAP1 SWAP3 SWAP1 PUSH32 0x65D7A28E3265B37A6474929F336521B332C1681B933F6CB9F3376673440D862A SWAP1 PUSH1 0xFF AND ISZERO PUSH3 0x2939 JUMPI POP POP POP POP JUMP JUMPDEST PUSH3 0x2944 CALLER PUSH3 0x2F6A JUMP JUMPDEST DUP5 MLOAD SWAP2 PUSH3 0x2952 DUP4 PUSH3 0x2842 JUMP JUMPDEST PUSH1 0x42 DUP4 MSTORE DUP5 DUP4 ADD SWAP4 PUSH1 0x60 CALLDATASIZE DUP7 CALLDATACOPY DUP4 MLOAD ISZERO PUSH3 0x2AEB JUMPI PUSH1 0x30 DUP6 MSTORE8 DUP4 MLOAD SWAP1 PUSH1 0x1 SWAP2 DUP3 LT ISZERO PUSH3 0x2AEB JUMPI SWAP1 PUSH1 0x78 PUSH1 0x21 DUP7 ADD MSTORE8 PUSH1 0x41 SWAP2 JUMPDEST DUP2 DUP4 GT PUSH3 0x2A78 JUMPI POP POP POP PUSH3 0x2A36 JUMPI PUSH3 0x29E1 SWAP4 DUP6 SWAP4 PUSH3 0x2A1B SWAP4 PUSH3 0x2A0B PUSH1 0x48 SWAP5 PUSH3 0x2A32 SWAP10 MLOAD SWAP9 DUP6 PUSH23 0x20B1B1B2B9B9A1B7B73A3937B61D1030B1B1B7BAB73A1 PUSH1 0x4D SHL DUP12 SWAP8 DUP9 ADD MSTORE DUP3 MLOAD SWAP3 DUP4 SWAP2 PUSH1 0x37 DUP10 ADD SWAP2 ADD PUSH3 0x2880 JUMP JUMPDEST DUP5 ADD SWAP2 PUSH17 0x1034B99036B4B9B9B4B733903937B6329 PUSH1 0x7D SHL PUSH1 0x37 DUP5 ADD MSTORE MLOAD DUP1 SWAP4 DUP7 DUP5 ADD SWAP1 PUSH3 0x2880 JUMP JUMPDEST ADD SUB PUSH1 0x28 DUP2 ADD DUP6 MSTORE ADD DUP4 PUSH3 0x285E JUMP JUMPDEST MLOAD PUSH3 0x461BCD PUSH1 0xE5 SHL DUP2 MSTORE SWAP2 DUP3 SWAP2 PUSH1 0x4 DUP4 ADD PUSH3 0x28A5 JUMP JUMPDEST SUB SWAP1 REVERT JUMPDEST PUSH1 0x64 DUP5 DUP7 MLOAD SWAP1 PUSH3 0x461BCD PUSH1 0xE5 SHL DUP3 MSTORE DUP1 PUSH1 0x4 DUP4 ADD MSTORE PUSH1 0x24 DUP3 ADD MSTORE PUSH32 0x537472696E67733A20686578206C656E67746820696E73756666696369656E74 PUSH1 0x44 DUP3 ADD MSTORE REVERT JUMPDEST SWAP1 SWAP2 SWAP3 PUSH1 0xF DUP2 AND PUSH1 0x10 DUP2 LT ISZERO PUSH3 0x2AD7 JUMPI PUSH16 0x181899199A1A9B1B9C1CB0B131B232B3 PUSH1 0x81 SHL SWAP1 BYTE PUSH3 0x2AAB DUP6 DUP9 PUSH3 0x2F58 JUMP JUMPDEST MSTORE8 PUSH1 0x4 SHR SWAP3 DUP1 ISZERO PUSH3 0x2AC3 JUMPI PUSH1 0x0 NOT ADD SWAP2 SWAP1 PUSH3 0x2985 JUMP JUMPDEST PUSH4 0x4E487B71 PUSH1 0xE0 SHL DUP3 MSTORE PUSH1 0x11 PUSH1 0x4 MSTORE PUSH1 0x24 DUP3 REVERT JUMPDEST PUSH4 0x4E487B71 PUSH1 0xE0 SHL DUP4 MSTORE PUSH1 0x32 PUSH1 0x4 MSTORE PUSH1 0x24 DUP4 REVERT JUMPDEST PUSH4 0x4E487B71 PUSH1 0xE0 SHL DUP2 MSTORE PUSH1 0x32 PUSH1 0x4 MSTORE PUSH1 0x24 SWAP1 REVERT JUMPDEST CALLER PUSH1 0x0 SWAP1 DUP2 MSTORE PUSH32 0xEE57CD81E84075558E8FCC182A1F4393F91FC97F963A136E66B7F949A62F319F PUSH1 0x20 SWAP1 DUP2 MSTORE PUSH1 0x40 DUP1 DUP4 KECCAK256 SLOAD SWAP1 SWAP3 SWAP1 PUSH32 0x97667070C54EF182B0F5858B034BEAC1B6F3089AA2D3188BB1E8929F4FA9B929 SWAP1 PUSH1 0xFF AND ISZERO PUSH3 0x2B65 JUMPI POP POP POP POP JUMP JUMPDEST PUSH3 0x2B70 CALLER PUSH3 0x2F6A JUMP JUMPDEST DUP5 MLOAD SWAP2 PUSH3 0x2B7E DUP4 PUSH3 0x2842 JUMP JUMPDEST PUSH1 0x42 DUP4 MSTORE DUP5 DUP4 ADD SWAP4 PUSH1 0x60 CALLDATASIZE DUP7 CALLDATACOPY DUP4 MLOAD ISZERO PUSH3 0x2AEB JUMPI PUSH1 0x30 DUP6 MSTORE8 DUP4 MLOAD SWAP1 PUSH1 0x1 SWAP2 DUP3 LT ISZERO PUSH3 0x2AEB JUMPI SWAP1 PUSH1 0x78 PUSH1 0x21 DUP7 ADD MSTORE8 PUSH1 0x41 SWAP2 JUMPDEST DUP2 DUP4 GT PUSH3 0x2C0D JUMPI POP POP POP PUSH3 0x2A36 JUMPI PUSH3 0x29E1 SWAP4 DUP6 SWAP4 PUSH3 0x2A1B SWAP4 PUSH3 0x2A0B PUSH1 0x48 SWAP5 PUSH3 0x2A32 SWAP10 MLOAD SWAP9 DUP6 PUSH23 0x20B1B1B2B9B9A1B7B73A3937B61D1030B1B1B7BAB73A1 PUSH1 0x4D SHL DUP12 SWAP8 DUP9 ADD MSTORE DUP3 MLOAD SWAP3 DUP4 SWAP2 PUSH1 0x37 DUP10 ADD SWAP2 ADD PUSH3 0x2880 JUMP JUMPDEST SWAP1 SWAP2 SWAP3 PUSH1 0xF DUP2 AND PUSH1 0x10 DUP2 LT ISZERO PUSH3 0x2AD7 JUMPI PUSH16 0x181899199A1A9B1B9C1CB0B131B232B3 PUSH1 0x81 SHL SWAP1 BYTE PUSH3 0x2C40 DUP6 DUP9 PUSH3 0x2F58 JUMP JUMPDEST MSTORE8 PUSH1 0x4 SHR SWAP3 DUP1 ISZERO PUSH3 0x2AC3 JUMPI PUSH1 0x0 NOT ADD SWAP2 SWAP1 PUSH3 0x2BB1 JUMP JUMPDEST CALLER PUSH1 0x0 SWAP1 DUP2 MSTORE PUSH32 0xAD3228B676F7D3CD4284A5443F17F1962B36E491B30A40B2405849E597BA5FB5 PUSH1 0x20 SWAP1 DUP2 MSTORE PUSH1 0x40 DUP1 DUP4 KECCAK256 SLOAD SWAP1 SWAP3 SWAP1 PUSH1 0xFF AND ISZERO PUSH3 0x2C9B JUMPI POP POP POP JUMP JUMPDEST PUSH3 0x2CA6 CALLER PUSH3 0x2F6A JUMP JUMPDEST DUP4 MLOAD SWAP1 DUP3 PUSH3 0x2CB5 DUP4 PUSH3 0x2842 JUMP JUMPDEST PUSH1 0x42 DUP4 MSTORE DUP5 DUP4 ADD SWAP4 PUSH1 0x60 CALLDATASIZE DUP7 CALLDATACOPY DUP4 MLOAD ISZERO PUSH3 0x2AEB JUMPI PUSH1 0x30 DUP6 MSTORE8 DUP4 MLOAD SWAP1 PUSH1 0x1 SWAP2 DUP3 LT ISZERO PUSH3 0x2AEB JUMPI SWAP1 PUSH1 0x78 PUSH1 0x21 DUP7 ADD MSTORE8 PUSH1 0x41 SWAP2 JUMPDEST DUP2 DUP4 GT PUSH3 0x2D44 JUMPI POP POP POP PUSH3 0x2A36 JUMPI PUSH3 0x29E1 SWAP4 DUP6 SWAP4 PUSH3 0x2A1B SWAP4 PUSH3 0x2A0B PUSH1 0x48 SWAP5 PUSH3 0x2A32 SWAP10 MLOAD SWAP9 DUP6 PUSH23 0x20B1B1B2B9B9A1B7B73A3937B61D1030B1B1B7BAB73A1 PUSH1 0x4D SHL DUP12 SWAP8 DUP9 ADD MSTORE DUP3 MLOAD SWAP3 DUP4 SWAP2 PUSH1 0x37 DUP10 ADD SWAP2 ADD PUSH3 0x2880 JUMP JUMPDEST SWAP1 SWAP2 SWAP3 PUSH1 0xF DUP2 AND PUSH1 0x10 DUP2 LT ISZERO PUSH3 0x2AD7 JUMPI PUSH16 0x181899199A1A9B1B9C1CB0B131B232B3 PUSH1 0x81 SHL SWAP1 BYTE PUSH3 0x2D77 DUP6 DUP9 PUSH3 0x2F58 JUMP JUMPDEST MSTORE8 PUSH1 0x4 SHR SWAP3 DUP1 ISZERO PUSH3 0x2AC3 JUMPI PUSH1 0x0 NOT ADD SWAP2 SWAP1 PUSH3 0x2CE8 JUMP JUMPDEST PUSH1 0x0 DUP2 DUP2 MSTORE PUSH1 0x20 SWAP1 DUP1 DUP3 MSTORE PUSH1 0x40 SWAP3 DUP4 DUP3 KECCAK256 CALLER DUP4 MSTORE DUP4 MSTORE PUSH1 0xFF DUP5 DUP4 KECCAK256 SLOAD AND ISZERO PUSH3 0x2DB8 JUMPI POP POP POP POP JUMP JUMPDEST PUSH3 0x2DC3 CALLER PUSH3 0x2F6A JUMP JUMPDEST DUP5 MLOAD SWAP2 PUSH3 0x2DD1 DUP4 PUSH3 0x2842 JUMP JUMPDEST PUSH1 0x42 DUP4 MSTORE DUP5 DUP4 ADD SWAP4 PUSH1 0x60 CALLDATASIZE DUP7 CALLDATACOPY DUP4 MLOAD ISZERO PUSH3 0x2AEB JUMPI PUSH1 0x30 DUP6 MSTORE8 DUP4 MLOAD SWAP1 PUSH1 0x1 SWAP2 DUP3 LT ISZERO PUSH3 0x2AEB JUMPI SWAP1 PUSH1 0x78 PUSH1 0x21 DUP7 ADD MSTORE8 PUSH1 0x41 SWAP2 JUMPDEST DUP2 DUP4 GT PUSH3 0x2E60 JUMPI POP POP POP PUSH3 0x2A36 JUMPI PUSH3 0x29E1 SWAP4 DUP6 SWAP4 PUSH3 0x2A1B SWAP4 PUSH3 0x2A0B PUSH1 0x48 SWAP5 PUSH3 0x2A32 SWAP10 MLOAD SWAP9 DUP6 PUSH23 0x20B1B1B2B9B9A1B7B73A3937B61D1030B1B1B7BAB73A1 PUSH1 0x4D SHL DUP12 SWAP8 DUP9 ADD MSTORE DUP3 MLOAD SWAP3 DUP4 SWAP2 PUSH1 0x37 DUP10 ADD SWAP2 ADD PUSH3 0x2880 JUMP JUMPDEST SWAP1 SWAP2 SWAP3 PUSH1 0xF DUP2 AND PUSH1 0x10 DUP2 LT ISZERO PUSH3 0x2AD7 JUMPI PUSH16 0x181899199A1A9B1B9C1CB0B131B232B3 PUSH1 0x81 SHL SWAP1 BYTE PUSH3 0x2E93 DUP6 DUP9 PUSH3 0x2F58 JUMP JUMPDEST MSTORE8 PUSH1 0x4 SHR SWAP3 DUP1 ISZERO PUSH3 0x2AC3 JUMPI PUSH1 0x0 NOT ADD SWAP2 SWAP1 PUSH3 0x2E04 JUMP JUMPDEST SWAP1 PUSH1 0x0 SWAP2 DUP1 DUP4 MSTORE DUP3 PUSH1 0x20 MSTORE PUSH1 0x40 DUP4 KECCAK256 SWAP2 PUSH1 0x1 DUP1 PUSH1 0xA0 SHL SUB AND SWAP2 DUP3 DUP5 MSTORE PUSH1 0x20 MSTORE PUSH1 0xFF PUSH1 0x40 DUP5 KECCAK256 SLOAD AND PUSH3 0x2EDC JUMPI POP POP POP JUMP JUMPDEST DUP1 DUP4 MSTORE DUP3 PUSH1 0x20 MSTORE PUSH1 0x40 DUP4 KECCAK256 DUP3 DUP5 MSTORE PUSH1 0x20 MSTORE PUSH1 0x40 DUP4 KECCAK256 PUSH1 0xFF NOT DUP2 SLOAD AND SWAP1 SSTORE PUSH32 0xF6391F5C32D9C69D2A47EA670B442974B53935D1EDC7FD64EB21E047A839171B CALLER SWAP4 DUP1 LOG4 JUMP JUMPDEST DUP2 DUP2 MUL SWAP3 SWAP2 DUP2 ISZERO SWAP2 DUP5 DIV EQ OR ISZERO PUSH3 0x2F34 JUMPI JUMP JUMPDEST PUSH4 0x4E487B71 PUSH1 0xE0 SHL PUSH1 0x0 MSTORE PUSH1 0x11 PUSH1 0x4 MSTORE PUSH1 0x24 PUSH1 0x0 REVERT JUMPDEST SWAP2 SWAP1 DUP3 ADD DUP1 SWAP3 GT PUSH3 0x2F34 JUMPI JUMP JUMPDEST SWAP1 DUP2 MLOAD DUP2 LT ISZERO PUSH3 0x17A9 JUMPI ADD PUSH1 0x20 ADD SWAP1 JUMP JUMPDEST PUSH1 0x40 MLOAD SWAP1 PUSH1 0x60 DUP3 ADD DUP3 DUP2 LT PUSH1 0x1 PUSH1 0x1 PUSH1 0x40 SHL SUB DUP3 GT OR PUSH3 0x1FBF JUMPI PUSH1 0x40 MSTORE PUSH1 0x2A DUP3 MSTORE PUSH1 0x20 DUP3 ADD PUSH1 0x40 CALLDATASIZE DUP3 CALLDATACOPY DUP3 MLOAD ISZERO PUSH3 0x17A9 JUMPI PUSH1 0x30 SWAP1 MSTORE8 DUP2 MLOAD PUSH1 0x1 SWAP1 DUP2 LT ISZERO PUSH3 0x17A9 JUMPI PUSH1 0x78 PUSH1 0x21 DUP5 ADD MSTORE8 PUSH1 0x29 SWAP1 JUMPDEST DUP1 DUP3 GT PUSH3 0x300F JUMPI POP POP PUSH3 0x2FCB JUMPI SWAP1 JUMP JUMPDEST PUSH1 0x64 PUSH1 0x40 MLOAD PUSH3 0x461BCD PUSH1 0xE5 SHL DUP2 MSTORE PUSH1 0x20 PUSH1 0x4 DUP3 ADD MSTORE PUSH1 0x20 PUSH1 0x24 DUP3 ADD MSTORE PUSH32 0x537472696E67733A20686578206C656E67746820696E73756666696369656E74 PUSH1 0x44 DUP3 ADD MSTORE REVERT JUMPDEST SWAP1 SWAP2 PUSH1 0xF DUP2 AND PUSH1 0x10 DUP2 LT ISZERO PUSH3 0x306D JUMPI PUSH16 0x181899199A1A9B1B9C1CB0B131B232B3 PUSH1 0x81 SHL SWAP1 BYTE PUSH3 0x3041 DUP5 DUP7 PUSH3 0x2F58 JUMP JUMPDEST MSTORE8 PUSH1 0x4 SHR SWAP2 DUP1 ISZERO PUSH3 0x3058 JUMPI PUSH1 0x0 NOT ADD SWAP1 PUSH3 0x2FB9 JUMP JUMPDEST PUSH1 0x24 PUSH1 0x0 PUSH4 0x4E487B71 PUSH1 0xE0 SHL DUP2 MSTORE PUSH1 0x11 PUSH1 0x4 MSTORE REVERT JUMPDEST PUSH1 0x24 PUSH1 0x0 PUSH4 0x4E487B71 PUSH1 0xE0 SHL DUP2 MSTORE PUSH1 0x32 PUSH1 0x4 MSTORE REVERT JUMPDEST SWAP1 DUP1 PUSH1 0x20 SWAP4 SWAP3 DUP2 DUP5 MSTORE DUP5 DUP5 ADD CALLDATACOPY PUSH1 0x0 DUP3 DUP3 ADD DUP5 ADD MSTORE PUSH1 0x1F ADD PUSH1 0x1F NOT AND ADD ADD SWAP1 JUMP JUMPDEST DUP2 ISZERO PUSH3 0x30AE JUMPI DIV SWAP1 JUMP JUMPDEST PUSH4 0x4E487B71 PUSH1 0xE0 SHL PUSH1 0x0 MSTORE PUSH1 0x12 PUSH1 0x4 MSTORE PUSH1 0x24 PUSH1 0x0 REVERT JUMPDEST SWAP2 SWAP1 DUP3 SUB SWAP2 DUP3 GT PUSH3 0x2F34 JUMPI JUMP JUMPDEST SWAP1 PUSH8 0xDE0B6B3A7640000 SWAP1 DIV SWAP1 DUP2 ISZERO PUSH3 0x31C0 JUMPI PUSH1 0x1 PUSH1 0x1 PUSH1 0xA0 SHL SUB DUP2 AND PUSH1 0x0 SWAP1 DUP2 MSTORE PUSH1 0xD PUSH1 0x20 MSTORE PUSH1 0x40 DUP2 KECCAK256 DUP1 SLOAD SWAP1 SWAP2 SWAP1 PUSH1 0xFF AND PUSH1 0x4 DUP2 LT ISZERO PUSH3 0x31AC JUMPI ISZERO PUSH3 0x3132 JUMPI POP POP SWAP1 PUSH3 0x3128 PUSH3 0x312F SWAP3 PUSH3 0x338A JUMP JUMPDEST SWAP1 PUSH3 0x2F20 JUMP JUMPDEST SWAP1 JUMP JUMPDEST SWAP2 POP SWAP2 PUSH1 0x5 DUP4 ADD SLOAD SWAP2 PUSH3 0x315C DUP3 PUSH1 0x2 PUSH3 0x3152 PUSH1 0x1 DUP9 ADD SLOAD DUP4 PUSH3 0x2F20 JUMP JUMPDEST SWAP7 ADD SLOAD SWAP5 PUSH3 0x2F20 JUMP JUMPDEST SWAP2 PUSH1 0x0 NOT DUP2 ADD SWAP2 DUP2 DUP4 GT PUSH3 0x3198 JUMPI POP PUSH3 0x3191 SWAP3 PUSH3 0x3187 PUSH3 0x312F SWAP7 SWAP6 SWAP4 PUSH3 0x3128 SWAP4 PUSH3 0x2F20 JUMP JUMPDEST PUSH1 0x1 SHR SWAP1 PUSH3 0x2F4A JUMP JUMPDEST SWAP1 PUSH3 0x2F4A JUMP JUMPDEST PUSH4 0x4E487B71 PUSH1 0xE0 SHL DUP2 MSTORE PUSH1 0x11 PUSH1 0x4 MSTORE PUSH1 0x24 SWAP1 REVERT JUMPDEST PUSH4 0x4E487B71 PUSH1 0xE0 SHL DUP3 MSTORE PUSH1 0x21 PUSH1 0x4 MSTORE PUSH1 0x24 DUP3 REVERT JUMPDEST POP POP PUSH1 0x0 SWAP1 JUMP JUMPDEST SWAP1 DUP1 ISZERO PUSH3 0x326C JUMPI DUP2 ISZERO PUSH3 0x31C0 JUMPI DUP2 DUP1 PUSH1 0x1 EQ PUSH3 0x3264 JUMPI PUSH1 0x2 EQ PUSH3 0x3252 JUMPI PUSH1 0x20 DUP2 LT PUSH2 0x133 DUP4 LT AND PUSH1 0x4E DUP3 LT PUSH1 0xB DUP5 LT AND OR PUSH3 0x324D JUMPI PUSH1 0x1 SWAP1 DUP2 JUMPDEST DUP1 DUP3 GT PUSH3 0x3220 JUMPI POP POP DUP2 PUSH1 0x0 NOT DIV DUP2 GT PUSH3 0x2F34 JUMPI MUL SWAP1 JUMP JUMPDEST SWAP1 SWAP3 DUP1 PUSH1 0x0 NOT DIV DUP2 GT PUSH3 0x2F34 JUMPI DUP2 DUP5 AND PUSH3 0x3243 JUMPI JUMPDEST DUP1 MUL SWAP3 DUP2 SHR SWAP1 PUSH3 0x3206 JUMP JUMPDEST DUP1 SWAP3 MUL SWAP2 PUSH3 0x3237 JUMP JUMPDEST SWAP1 EXP SWAP1 JUMP JUMPDEST SWAP1 POP PUSH1 0xFF DUP2 GT PUSH3 0x2F34 JUMPI PUSH1 0x1 SWAP1 SHL SWAP1 JUMP JUMPDEST POP POP POP PUSH1 0x1 SWAP1 JUMP JUMPDEST POP POP PUSH1 0x1 SWAP1 JUMP JUMPDEST PUSH1 0x0 DUP1 DUP1 MSTORE PUSH1 0xD PUSH1 0x20 MSTORE PUSH1 0x40 DUP2 KECCAK256 SWAP1 PUSH1 0xFF DUP3 SLOAD AND PUSH1 0x4 DUP2 LT ISZERO PUSH3 0x31AC JUMPI DUP1 PUSH3 0x32B9 JUMPI POP POP DUP1 PUSH3 0x3191 PUSH1 0x1 PUSH3 0x312F SWAP4 ADD SLOAD SWAP2 PUSH1 0x5 PUSH1 0x2 DUP3 ADD SLOAD SWAP2 ADD SLOAD SWAP1 PUSH3 0x2F20 JUMP JUMPDEST PUSH1 0x1 DUP2 SUB PUSH3 0x3325 JUMPI POP PUSH3 0x32D8 PUSH1 0x2 DUP4 ADD SLOAD PUSH1 0x5 DUP5 ADD SLOAD SWAP1 PUSH3 0x2F20 JUMP JUMPDEST SWAP2 PUSH8 0x7FFFFFFFFFFFFFFF DUP4 GT PUSH3 0x5E9 JUMPI PUSH1 0x1 PUSH3 0x32FF SWAP2 ADD SLOAD SWAP3 PUSH1 0x40 SHL PUSH1 0xF SIGNEXTEND PUSH3 0x33DB JUMP JUMPDEST PUSH1 0xF SIGNEXTEND SWAP1 DUP1 DUP3 SLT PUSH3 0x2BB JUMPI POP SWAP1 PUSH1 0x1 PUSH1 0x1 PUSH1 0x40 SHL SUB PUSH3 0x312F SWAP3 PUSH1 0x40 SAR AND SWAP1 PUSH3 0x2F20 JUMP JUMPDEST PUSH1 0x2 EQ ISZERO SWAP1 POP PUSH3 0x335A JUMPI DUP1 PUSH3 0x3191 PUSH1 0x1 PUSH3 0x312F SWAP4 ADD SLOAD SWAP2 PUSH3 0x3128 PUSH1 0x2 DUP3 ADD SLOAD SWAP2 PUSH1 0x3 PUSH1 0x5 DUP3 ADD SLOAD SWAP2 ADD SLOAD SWAP1 PUSH3 0x31C7 JUMP JUMPDEST DUP1 PUSH3 0x3191 PUSH1 0x1 PUSH3 0x312F SWAP4 ADD SLOAD SWAP2 PUSH1 0x2 PUSH3 0x3380 PUSH1 0x5 DUP4 ADD SLOAD PUSH1 0x4 DUP5 ADD SLOAD SWAP1 PUSH3 0x30A3 JUMP JUMPDEST SWAP2 ADD SLOAD SWAP1 PUSH3 0x2F20 JUMP JUMPDEST PUSH1 0x1 PUSH1 0x1 PUSH1 0xA0 SHL SUB AND PUSH1 0x0 SWAP1 DUP2 MSTORE PUSH1 0xD PUSH1 0x20 MSTORE PUSH1 0x40 DUP2 KECCAK256 DUP1 SLOAD SWAP1 SWAP2 SWAP1 PUSH1 0xFF AND PUSH1 0x4 DUP2 LT ISZERO PUSH3 0x31AC JUMPI DUP1 PUSH3 0x32B9 JUMPI POP POP DUP1 PUSH3 0x3191 PUSH1 0x1 PUSH3 0x312F SWAP4 ADD SLOAD SWAP2 PUSH1 0x5 PUSH1 0x2 DUP3 ADD SLOAD SWAP2 ADD SLOAD SWAP1 PUSH3 0x2F20 JUMP JUMPDEST PUSH1 0xF SIGNEXTEND PUSH1 0x1 PUSH1 0x46 SHL DUP2 SLT ISZERO PUSH3 0x7D8 JUMPI PUSH9 0x3FFFFFFFFFFFFFFFFF NOT DUP2 SLT PUSH3 0x3421 JUMPI PUSH17 0x171547652B82FE1777D0FFDA0D23A7D12 PUSH3 0x312F SWAP2 MUL PUSH1 0x80 SAR PUSH1 0xF SIGNEXTEND PUSH3 0x3427 JUMP JUMPDEST POP PUSH1 0x0 SWAP1 JUMP JUMPDEST PUSH1 0xF DUP2 DUP2 SIGNEXTEND PUSH1 0x1 PUSH1 0x46 SHL DUP2 SLT ISZERO PUSH3 0x7D8 JUMPI PUSH9 0x3FFFFFFFFFFFFFFFFF NOT DUP2 SLT PUSH3 0x4055 JUMPI PUSH1 0x1 PUSH1 0x7F SHL SWAP1 PUSH1 0x0 SWAP4 DUP5 PUSH8 0x8000000000000000 DUP3 AND DUP6 SIGNEXTEND SGT PUSH3 0x403C JUMPI JUMPDEST DUP5 PUSH8 0x4000000000000000 DUP3 AND DUP6 SIGNEXTEND SGT PUSH3 0x401E JUMPI JUMPDEST DUP5 PUSH8 0x2000000000000000 DUP3 AND DUP6 SIGNEXTEND SGT PUSH3 0x4000 JUMPI JUMPDEST DUP5 PUSH8 0x1000000000000000 DUP3 AND DUP6 SIGNEXTEND SGT PUSH3 0x3FE2 JUMPI JUMPDEST DUP5 PUSH8 0x800000000000000 DUP3 AND DUP6 SIGNEXTEND SGT PUSH3 0x3FC4 JUMPI JUMPDEST DUP5 PUSH8 0x400000000000000 DUP3 AND DUP6 SIGNEXTEND SGT PUSH3 0x3FA6 JUMPI JUMPDEST DUP5 PUSH8 0x200000000000000 DUP3 AND DUP6 SIGNEXTEND SGT PUSH3 0x3F88 JUMPI JUMPDEST DUP5 PUSH8 0x100000000000000 DUP3 AND DUP6 SIGNEXTEND SGT PUSH3 0x3F6A JUMPI JUMPDEST DUP5 PUSH7 0x80000000000000 DUP3 AND DUP6 SIGNEXTEND SGT PUSH3 0x3F4C JUMPI JUMPDEST DUP5 PUSH7 0x40000000000000 DUP3 AND DUP6 SIGNEXTEND SGT PUSH3 0x3F2E JUMPI JUMPDEST DUP5 PUSH7 0x20000000000000 DUP3 AND DUP6 SIGNEXTEND SGT PUSH3 0x3F10 JUMPI JUMPDEST DUP5 PUSH7 0x10000000000000 DUP3 AND DUP6 SIGNEXTEND SGT PUSH3 0x3EF2 JUMPI JUMPDEST DUP5 PUSH7 0x8000000000000 DUP3 AND DUP6 SIGNEXTEND SGT PUSH3 0x3ED4 JUMPI JUMPDEST DUP5 PUSH7 0x4000000000000 DUP3 AND DUP6 SIGNEXTEND SGT PUSH3 0x3EB6 JUMPI JUMPDEST DUP5 PUSH7 0x2000000000000 DUP3 AND DUP6 SIGNEXTEND SGT PUSH3 0x3E98 JUMPI JUMPDEST DUP5 PUSH7 0x1000000000000 DUP3 AND DUP6 SIGNEXTEND SGT PUSH3 0x3E7A JUMPI JUMPDEST DUP5 PUSH6 0x800000000000 DUP3 AND DUP6 SIGNEXTEND SGT PUSH3 0x3E5C JUMPI JUMPDEST DUP5 PUSH6 0x400000000000 DUP3 AND DUP6 SIGNEXTEND SGT PUSH3 0x3E3E JUMPI JUMPDEST DUP5 PUSH6 0x200000000000 DUP3 AND DUP6 SIGNEXTEND SGT PUSH3 0x3E20 JUMPI JUMPDEST DUP5 PUSH6 0x100000000000 DUP3 AND DUP6 SIGNEXTEND SGT PUSH3 0x3E02 JUMPI JUMPDEST DUP5 PUSH6 0x80000000000 DUP3 AND DUP6 SIGNEXTEND SGT PUSH3 0x3DE4 JUMPI JUMPDEST DUP5 PUSH6 0x40000000000 DUP3 AND DUP6 SIGNEXTEND SGT PUSH3 0x3DC6 JUMPI JUMPDEST DUP5 PUSH6 0x20000000000 DUP3 AND DUP6 SIGNEXTEND SGT PUSH3 0x3DA8 JUMPI JUMPDEST DUP5 PUSH6 0x10000000000 DUP3 AND DUP6 SIGNEXTEND SGT PUSH3 0x3D8A JUMPI JUMPDEST DUP5 PUSH5 0x8000000000 DUP3 AND DUP6 SIGNEXTEND SGT PUSH3 0x3D6C JUMPI JUMPDEST DUP5 PUSH5 0x4000000000 DUP3 AND DUP6 SIGNEXTEND SGT PUSH3 0x3D4E JUMPI JUMPDEST DUP5 PUSH5 0x2000000000 DUP3 AND DUP6 SIGNEXTEND SGT PUSH3 0x3D30 JUMPI JUMPDEST DUP5 PUSH5 0x1000000000 DUP3 AND DUP6 SIGNEXTEND SGT PUSH3 0x3D12 JUMPI JUMPDEST DUP5 PUSH5 0x800000000 DUP3 AND DUP6 SIGNEXTEND SGT PUSH3 0x3CF4 JUMPI JUMPDEST DUP5 PUSH5 0x400000000 DUP3 AND DUP6 SIGNEXTEND SGT PUSH3 0x3CD6 JUMPI JUMPDEST DUP5 PUSH5 0x200000000 DUP3 AND DUP6 SIGNEXTEND SGT PUSH3 0x3CB8 JUMPI JUMPDEST DUP5 PUSH5 0x100000000 DUP3 AND DUP6 SIGNEXTEND SGT PUSH3 0x3C9A JUMPI JUMPDEST DUP5 PUSH4 0x80000000 DUP3 AND DUP6 SIGNEXTEND SGT PUSH3 0x3C7C JUMPI JUMPDEST DUP5 PUSH4 0x40000000 DUP3 AND DUP6 SIGNEXTEND SGT PUSH3 0x3C5E JUMPI JUMPDEST DUP5 PUSH4 0x20000000 DUP3 AND DUP6 SIGNEXTEND SGT PUSH3 0x3C40 JUMPI JUMPDEST DUP5 PUSH4 0x10000000 DUP3 AND DUP6 SIGNEXTEND SGT PUSH3 0x3C22 JUMPI JUMPDEST DUP5 PUSH4 0x8000000 DUP3 AND DUP6 SIGNEXTEND SGT PUSH3 0x3C04 JUMPI JUMPDEST DUP5 PUSH4 0x4000000 DUP3 AND DUP6 SIGNEXTEND SGT PUSH3 0x3BE6 JUMPI JUMPDEST DUP5 PUSH4 0x2000000 DUP3 AND DUP6 SIGNEXTEND SGT PUSH3 0x3BC8 JUMPI JUMPDEST DUP5 PUSH4 0x1000000 DUP3 AND DUP6 SIGNEXTEND SGT PUSH3 0x3BAA JUMPI JUMPDEST DUP5 PUSH3 0x800000 DUP3 AND DUP6 SIGNEXTEND SGT PUSH3 0x3B8C JUMPI JUMPDEST DUP5 PUSH3 0x400000 DUP3 AND DUP6 SIGNEXTEND SGT PUSH3 0x3B6E JUMPI JUMPDEST DUP5 PUSH3 0x200000 DUP3 AND DUP6 SIGNEXTEND SGT PUSH3 0x3B50 JUMPI JUMPDEST DUP5 PUSH3 0x100000 DUP3 AND DUP6 SIGNEXTEND SGT PUSH3 0x3B32 JUMPI JUMPDEST DUP5 PUSH3 0x80000 DUP3 AND DUP6 SIGNEXTEND SGT PUSH3 0x3B14 JUMPI JUMPDEST DUP5 PUSH3 0x40000 DUP3 AND DUP6 SIGNEXTEND SGT PUSH3 0x3AF6 JUMPI JUMPDEST DUP5 PUSH3 0x20000 DUP3 AND DUP6 SIGNEXTEND SGT PUSH3 0x3AD8 JUMPI JUMPDEST DUP5 PUSH3 0x10000 DUP3 AND DUP6 SIGNEXTEND SGT PUSH3 0x3ABA JUMPI JUMPDEST DUP5 PUSH2 0x8000 DUP3 AND DUP6 SIGNEXTEND SGT PUSH3 0x3A9C JUMPI JUMPDEST DUP5 PUSH2 0x4000 DUP3 AND DUP6 SIGNEXTEND SGT PUSH3 0x3A7E JUMPI JUMPDEST DUP5 PUSH2 0x2000 DUP3 AND DUP6 SIGNEXTEND SGT PUSH3 0x3A60 JUMPI JUMPDEST DUP5 PUSH2 0x1000 DUP3 AND DUP6 SIGNEXTEND SGT PUSH3 0x3A42 JUMPI JUMPDEST DUP5 PUSH2 0x800 DUP3 AND DUP6 SIGNEXTEND SGT PUSH3 0x3A24 JUMPI JUMPDEST DUP5 PUSH2 0x400 DUP3 AND DUP6 SIGNEXTEND SGT PUSH3 0x3A06 JUMPI JUMPDEST DUP5 PUSH2 0x200 DUP3 AND DUP6 SIGNEXTEND SGT PUSH3 0x39E8 JUMPI JUMPDEST DUP5 PUSH2 0x100 DUP3 AND DUP6 SIGNEXTEND SGT PUSH3 0x39CA JUMPI JUMPDEST DUP5 PUSH1 0x80 SWAP2 DUP2 DUP4 DUP3 AND DUP8 SIGNEXTEND SGT PUSH3 0x39AD JUMPI JUMPDEST DUP2 PUSH1 0x40 DUP3 AND DUP8 SIGNEXTEND SGT PUSH3 0x3990 JUMPI JUMPDEST DUP2 PUSH1 0x20 DUP3 AND DUP8 SIGNEXTEND SGT PUSH3 0x3973 JUMPI JUMPDEST DUP2 PUSH1 0x10 DUP3 AND DUP8 SIGNEXTEND SGT PUSH3 0x3956 JUMPI JUMPDEST DUP2 PUSH1 0x8 DUP3 AND DUP8 SIGNEXTEND SGT PUSH3 0x3939 JUMPI JUMPDEST DUP2 PUSH1 0x4 DUP3 AND DUP8 SIGNEXTEND SGT PUSH3 0x391C JUMPI JUMPDEST DUP2 PUSH1 0x2 DUP3 AND DUP8 SIGNEXTEND SGT PUSH3 0x38FE JUMPI JUMPDEST PUSH1 0x1 AND DUP6 SIGNEXTEND SGT PUSH3 0x38DF JUMPI JUMPDEST POP PUSH1 0x40 SAR DUP3 SIGNEXTEND PUSH1 0x3F SUB DUP3 SIGNEXTEND SHR SWAP2 PUSH16 0x7FFFFFFFFFFFFFFFFFFFFFFFFFFFFFFF DUP4 GT PUSH3 0x2BB JUMPI POP SIGNEXTEND SWAP1 JUMP JUMPDEST SWAP1 SWAP2 PUSH17 0x10000000000000000B17217F7D1CF79AB MUL SWAP1 SHR SWAP1 CODESIZE PUSH3 0x38B5 JUMP JUMPDEST PUSH17 0x1000000000000000162E42FEFA39EF358 SWAP1 SWAP5 MUL DUP3 SHR SWAP4 PUSH3 0x38A9 JUMP JUMPDEST SWAP4 PUSH17 0x10000000000000002C5C85FDF473DE6B2 MUL DUP3 SHR SWAP4 PUSH3 0x389B JUMP JUMPDEST SWAP4 PUSH17 0x100000000000000058B90BFBE8E7BCD6D MUL DUP3 SHR SWAP4 PUSH3 0x388D JUMP JUMPDEST SWAP4 PUSH17 0x1000000000000000B17217F7D1CF79AFA MUL DUP3 SHR SWAP4 PUSH3 0x387F JUMP JUMPDEST SWAP4 PUSH17 0x100000000000000162E42FEFA39EF366F MUL DUP3 SHR SWAP4 PUSH3 0x3871 JUMP JUMPDEST SWAP4 PUSH17 0x1000000000000002C5C85FDF473DE6ECA MUL DUP3 SHR SWAP4 PUSH3 0x3863 JUMP JUMPDEST SWAP4 PUSH17 0x10000000000000058B90BFBE8E7BCE544 MUL DUP3 SHR SWAP4 PUSH3 0x3855 JUMP JUMPDEST SWAP2 PUSH17 0x100000000000000B17217F7D1CF79E949 MUL PUSH1 0x80 SHR SWAP2 PUSH3 0x3844 JUMP JUMPDEST SWAP2 PUSH17 0x10000000000000162E42FEFA39EF44D91 MUL PUSH1 0x80 SHR SWAP2 PUSH3 0x3835 JUMP JUMPDEST SWAP2 PUSH17 0x100000000000002C5C85FDF473DEA871F MUL PUSH1 0x80 SHR SWAP2 PUSH3 0x3826 JUMP JUMPDEST SWAP2 PUSH17 0x1000000000000058B90BFBE8E7BDCBE2E MUL PUSH1 0x80 SHR SWAP2 PUSH3 0x3817 JUMP JUMPDEST SWAP2 PUSH17 0x10000000000000B17217F7D1CF7D83C1A MUL PUSH1 0x80 SHR SWAP2 PUSH3 0x3808 JUMP JUMPDEST SWAP2 PUSH17 0x1000000000000162E42FEFA39F02B772C MUL PUSH1 0x80 SHR SWAP2 PUSH3 0x37F9 JUMP JUMPDEST SWAP2 PUSH17 0x10000000000002C5C85FDF473E242EA38 MUL PUSH1 0x80 SHR SWAP2 PUSH3 0x37EA JUMP JUMPDEST SWAP2 PUSH17 0x100000000000058B90BFBE8E7CC35C3F0 MUL PUSH1 0x80 SHR SWAP2 PUSH3 0x37DB JUMP JUMPDEST SWAP2 PUSH17 0x1000000000000B17217F7D1CFB72B45E1 MUL PUSH1 0x80 SHR SWAP2 PUSH3 0x37CC JUMP JUMPDEST SWAP2 PUSH17 0x100000000000162E42FEFA39FE95583C2 MUL PUSH1 0x80 SHR SWAP2 PUSH3 0x37BC JUMP JUMPDEST SWAP2 PUSH17 0x1000000000002C5C85FDF4741BEA6E77E MUL PUSH1 0x80 SHR SWAP2 PUSH3 0x37AC JUMP JUMPDEST SWAP2 PUSH17 0x10000000000058B90BFBE8E8B2D3D4EDE MUL PUSH1 0x80 SHR SWAP2 PUSH3 0x379C JUMP JUMPDEST SWAP2 PUSH17 0x100000000000B17217F7D1D351A389D40 MUL PUSH1 0x80 SHR SWAP2 PUSH3 0x378C JUMP JUMPDEST SWAP2 PUSH17 0x10000000000162E42FEFA3AE53369388C MUL PUSH1 0x80 SHR SWAP2 PUSH3 0x377C JUMP JUMPDEST SWAP2 PUSH17 0x100000000002C5C85FDF477B662B26945 MUL PUSH1 0x80 SHR SWAP2 PUSH3 0x376C JUMP JUMPDEST SWAP2 PUSH17 0x1000000000058B90BFBE8F71CB4E4B33D MUL PUSH1 0x80 SHR SWAP2 PUSH3 0x375C JUMP JUMPDEST SWAP2 PUSH17 0x10000000000B17217F7D20CF927C8E94C MUL PUSH1 0x80 SHR SWAP2 PUSH3 0x374C JUMP JUMPDEST SWAP2 PUSH17 0x1000000000162E42FEFA494F1478FDE05 MUL PUSH1 0x80 SHR SWAP2 PUSH3 0x373B JUMP JUMPDEST SWAP2 PUSH17 0x10000000002C5C85FDF4B15DE6F17EB0D MUL PUSH1 0x80 SHR SWAP2 PUSH3 0x372A JUMP JUMPDEST SWAP2 PUSH17 0x100000000058B90BFBE9DDBAC5E109CCE MUL PUSH1 0x80 SHR SWAP2 PUSH3 0x3719 JUMP JUMPDEST SWAP2 PUSH17 0x1000000000B17217F7D5A7716BBA4A9AE MUL PUSH1 0x80 SHR SWAP2 PUSH3 0x3708 JUMP JUMPDEST SWAP2 PUSH17 0x100000000162E42FEFB2FED257559BDAA MUL PUSH1 0x80 SHR SWAP2 PUSH3 0x36F7 JUMP JUMPDEST SWAP2 PUSH17 0x1000000002C5C85FDF84BD62AE30A74CC MUL PUSH1 0x80 SHR SWAP2 PUSH3 0x36E6 JUMP JUMPDEST SWAP2 PUSH17 0x10000000058B90BFBF8479BD5A81B51AD MUL PUSH1 0x80 SHR SWAP2 PUSH3 0x36D5 JUMP JUMPDEST SWAP2 PUSH17 0x100000000B17217F80F4EF5AADDA45554 MUL PUSH1 0x80 SHR SWAP2 PUSH3 0x36C4 JUMP JUMPDEST SWAP2 PUSH17 0x10000000162E42FF0999CE3541B9FFFCF MUL PUSH1 0x80 SHR SWAP2 PUSH3 0x36B2 JUMP JUMPDEST SWAP2 PUSH17 0x100000002C5C85FE31F35A6A30DA1BE50 MUL PUSH1 0x80 SHR SWAP2 PUSH3 0x36A0 JUMP JUMPDEST SWAP2 PUSH17 0x1000000058B90BFCDEE5ACD3C1CEDC823 MUL PUSH1 0x80 SHR SWAP2 PUSH3 0x368E JUMP JUMPDEST SWAP2 PUSH17 0x10000000B17217FBA9C739AA5819F44F9 MUL PUSH1 0x80 SHR SWAP2 PUSH3 0x367C JUMP JUMPDEST SWAP2 PUSH17 0x1000000162E42FFF037DF38AA2B219F06 MUL PUSH1 0x80 SHR SWAP2 PUSH3 0x366A JUMP JUMPDEST SWAP2 PUSH17 0x10000002C5C8601CC6B9E94213C72737A MUL PUSH1 0x80 SHR SWAP2 PUSH3 0x3658 JUMP JUMPDEST SWAP2 PUSH17 0x100000058B90C0B48C6BE5DF846C5B2EF MUL PUSH1 0x80 SHR SWAP2 PUSH3 0x3646 JUMP JUMPDEST SWAP2 PUSH17 0x1000000B1721835514B86E6D96EFD1BFE MUL PUSH1 0x80 SHR SWAP2 PUSH3 0x3634 JUMP JUMPDEST SWAP2 PUSH17 0x100000162E430E5A18F6119E3C02282A5 MUL PUSH1 0x80 SHR SWAP2 PUSH3 0x3621 JUMP JUMPDEST SWAP2 PUSH17 0x1000002C5C863B73F016468F6BAC5CA2B MUL PUSH1 0x80 SHR SWAP2 PUSH3 0x360E JUMP JUMPDEST SWAP2 PUSH17 0x10000058B90CF1E6D97F9CA14DBCC1628 MUL PUSH1 0x80 SHR SWAP2 PUSH3 0x35FB JUMP JUMPDEST SWAP2 PUSH17 0x100000B1721BCFC99D9F890EA06911763 MUL PUSH1 0x80 SHR SWAP2 PUSH3 0x35E8 JUMP JUMPDEST SWAP2 PUSH17 0x10000162E43F4F831060E02D839A9D16D MUL PUSH1 0x80 SHR SWAP2 PUSH3 0x35D5 JUMP JUMPDEST SWAP2 PUSH17 0x100002C5C89D5EC6CA4D7C8ACC017B7C9 MUL PUSH1 0x80 SHR SWAP2 PUSH3 0x35C2 JUMP JUMPDEST SWAP2 PUSH17 0x1000058B91B5BC9AE2EED81E9B7D4CFAB MUL PUSH1 0x80 SHR SWAP2 PUSH3 0x35AF JUMP JUMPDEST SWAP2 PUSH17 0x10000B17255775C040618BF4A4ADE83FC MUL PUSH1 0x80 SHR SWAP2 PUSH3 0x359C JUMP JUMPDEST SWAP2 PUSH17 0x1000162E525EE054754457D5995292026 MUL PUSH1 0x80 SHR SWAP2 PUSH3 0x3588 JUMP JUMPDEST SWAP2 PUSH17 0x10002C5CC37DA9491D0985C348C68E7B3 MUL PUSH1 0x80 SHR SWAP2 PUSH3 0x3574 JUMP JUMPDEST SWAP2 PUSH17 0x100058BA01FB9F96D6CACD4B180917C3D MUL PUSH1 0x80 SHR SWAP2 PUSH3 0x3560 JUMP JUMPDEST SWAP2 PUSH17 0x1000B175EFFDC76BA38E31671CA939725 MUL PUSH1 0x80 SHR SWAP2 PUSH3 0x354C JUMP JUMPDEST SWAP2 PUSH17 0x100162F3904051FA128BCA9C55C31E5DF MUL PUSH1 0x80 SHR SWAP2 PUSH3 0x3538 JUMP JUMPDEST SWAP2 PUSH17 0x1002C605E2E8CEC506D21BFC89A23A00F MUL PUSH1 0x80 SHR SWAP2 PUSH3 0x3524 JUMP JUMPDEST SWAP2 PUSH17 0x10058C86DA1C09EA1FF19D294CF2F679B MUL PUSH1 0x80 SHR SWAP2 PUSH3 0x3510 JUMP JUMPDEST SWAP2 PUSH17 0x100B1AFA5ABCBED6129AB13EC11DC9543 MUL PUSH1 0x80 SHR SWAP2 PUSH3 0x34FC JUMP JUMPDEST SWAP2 PUSH17 0x10163DA9FB33356D84A66AE336DCDFA3F MUL PUSH1 0x80 SHR SWAP2 PUSH3 0x34E7 JUMP JUMPDEST SWAP2 PUSH17 0x102C9A3E778060EE6F7CACA4F7A29BDE8 MUL PUSH1 0x80 SHR SWAP2 PUSH3 0x34D2 JUMP JUMPDEST SWAP2 PUSH17 0x1059B0D31585743AE7C548EB68CA417FD MUL PUSH1 0x80 SHR SWAP2 PUSH3 0x34BD JUMP JUMPDEST SWAP2 PUSH17 0x10B5586CF9890F6298B92B71842A98363 MUL PUSH1 0x80 SHR SWAP2 PUSH3 0x34A8 JUMP JUMPDEST SWAP2 PUSH17 0x1172B83C7D517ADCDF7C8C50EB14A791F MUL PUSH1 0x80 SHR SWAP2 PUSH3 0x3493 JUMP JUMPDEST SWAP2 PUSH17 0x1306FE0A31B7152DE8D5A46305C85EDEC MUL PUSH1 0x80 SHR SWAP2 PUSH3 0x347E JUMP JUMPDEST PUSH16 0xB504F333F9DE6484597D89B3754ABE9F SWAP3 POP PUSH3 0x3469 JUMP JUMPDEST POP POP POP PUSH1 0x0 SWAP1 JUMP JUMPDEST ISZERO PUSH3 0x4065 JUMPI JUMP JUMPDEST PUSH1 0x40 MLOAD PUSH3 0x461BCD PUSH1 0xE5 SHL DUP2 MSTORE PUSH1 0x20 PUSH1 0x4 DUP3 ADD MSTORE PUSH1 0x10 PUSH1 0x24 DUP3 ADD MSTORE PUSH16 0x14DB1A5C1C1859D9515E18D959591959 PUSH1 0x82 SHL PUSH1 0x44 DUP3 ADD MSTORE PUSH1 0x64 SWAP1 REVERT JUMPDEST ISZERO PUSH3 0x40A5 JUMPI JUMP JUMPDEST PUSH1 0x40 MLOAD PUSH3 0x461BCD PUSH1 0xE5 SHL DUP2 MSTORE PUSH1 0x20 PUSH1 0x4 DUP3 ADD MSTORE PUSH1 0xB PUSH1 0x24 DUP3 ADD MSTORE PUSH11 0x5661756C74416374697665 PUSH1 0xA8 SHL PUSH1 0x44 DUP3 ADD MSTORE PUSH1 0x64 SWAP1 REVERT JUMPDEST SWAP1 DUP2 PUSH1 0x20 SWAP2 SUB SLT PUSH3 0x7D8 JUMPI MLOAD PUSH1 0x1 PUSH1 0x1 PUSH1 0xA0 SHL SUB DUP2 AND DUP2 SUB PUSH3 0x7D8 JUMPI SWAP1 JUMP JUMPDEST SWAP1 DUP2 PUSH1 0x20 SWAP2 SUB SLT PUSH3 0x7D8 JUMPI MLOAD DUP1 ISZERO ISZERO DUP2 SUB PUSH3 0x7D8 JUMPI SWAP1 JUMP JUMPDEST PUSH1 0xFF PUSH1 0x1 SLOAD AND PUSH3 0x4120 JUMPI JUMP JUMPDEST PUSH1 0x40 MLOAD PUSH3 0x461BCD PUSH1 0xE5 SHL DUP2 MSTORE PUSH1 0x20 PUSH1 0x4 DUP3 ADD MSTORE PUSH1 0x10 PUSH1 0x24 DUP3 ADD MSTORE PUSH16 0x14185D5CD8589B194E881C185D5CD959 PUSH1 0x82 SHL PUSH1 0x44 DUP3 ADD MSTORE PUSH1 0x64 SWAP1 REVERT JUMPDEST PUSH1 0x2 DUP1 SLOAD EQ PUSH3 0x4168 JUMPI PUSH1 0x2 DUP1 SSTORE JUMP JUMPDEST PUSH1 0x40 MLOAD PUSH3 0x461BCD PUSH1 0xE5 SHL DUP2 MSTORE PUSH1 0x20 PUSH1 0x4 DUP3 ADD MSTORE PUSH1 0x1F PUSH1 0x24 DUP3 ADD MSTORE PUSH32 0x5265656E7472616E637947756172643A207265656E7472616E742063616C6C00 PUSH1 0x44 DUP3 ADD MSTORE PUSH1 0x64 SWAP1 REVERT JUMPDEST PUSH1 0x40 MLOAD PUSH4 0xA9059CBB PUSH1 0xE0 SHL PUSH1 0x20 DUP3 ADD MSTORE PUSH1 0x1 PUSH1 0x1 PUSH1 0xA0 SHL SUB SWAP3 SWAP1 SWAP3 AND PUSH1 0x24 DUP4 ADD MSTORE PUSH1 0x44 DUP1 DUP4 ADD SWAP4 SWAP1 SWAP4 MSTORE SWAP2 DUP2 MSTORE PUSH3 0x41F2 SWAP2 PUSH3 0x41EC PUSH1 0x64 DUP4 PUSH3 0x285E JUMP JUMPDEST PUSH3 0x41F4 JUMP JUMPDEST JUMP JUMPDEST PUSH1 0x40 DUP1 MLOAD SWAP1 DUP2 ADD SWAP2 PUSH1 0x1 PUSH1 0x1 PUSH1 0xA0 SHL SUB AND PUSH1 0x1 PUSH1 0x1 PUSH1 0x40 SHL SUB DUP4 GT DUP3 DUP5 LT OR PUSH3 0x1FBF JUMPI PUSH3 0x4268 SWAP3 PUSH1 0x40 MSTORE PUSH1 0x0 DUP1 PUSH1 0x20 SWAP6 DUP7 DUP6 MSTORE PUSH32 0x5361666545524332303A206C6F772D6C6576656C2063616C6C206661696C6564 DUP8 DUP7 ADD MSTORE DUP7 DUP2 MLOAD SWAP2 ADD DUP3 DUP6 GAS CALL PUSH3 0x4261 PUSH3 0x42F5 JUMP JUMPDEST SWAP2 PUSH3 0x4338 JUMP JUMPDEST DUP1 MLOAD SWAP1 DUP3 DUP3 ISZERO SWAP3 DUP4 ISZERO PUSH3 0x42DA JUMPI JUMPDEST POP POP POP ISZERO PUSH3 0x4283 JUMPI POP JUMP JUMPDEST PUSH1 0x84 SWAP1 PUSH1 0x40 MLOAD SWAP1 PUSH3 0x461BCD PUSH1 0xE5 SHL DUP3 MSTORE PUSH1 0x4 DUP3 ADD MSTORE PUSH1 0x2A PUSH1 0x24 DUP3 ADD MSTORE PUSH32 0x5361666545524332303A204552433230206F7065726174696F6E20646964206E PUSH1 0x44 DUP3 ADD MSTORE PUSH10 0x1BDD081CDD58D8D95959 PUSH1 0xB2 SHL PUSH1 0x64 DUP3 ADD MSTORE REVERT JUMPDEST PUSH3 0x42EC SWAP4 POP DUP3 ADD DUP2 ADD SWAP2 ADD PUSH3 0x40F9 JUMP JUMPDEST CODESIZE DUP3 DUP2 PUSH3 0x4277 JUMP JUMPDEST RETURNDATASIZE ISZERO PUSH3 0x4333 JUMPI RETURNDATASIZE SWAP1 PUSH1 0x1 PUSH1 0x1 PUSH1 0x40 SHL SUB DUP3 GT PUSH3 0x1FBF JUMPI PUSH1 0x40 MLOAD SWAP2 PUSH3 0x4327 PUSH1 0x1F DUP3 ADD PUSH1 0x1F NOT AND PUSH1 0x20 ADD DUP5 PUSH3 0x285E JUMP JUMPDEST DUP3 MSTORE RETURNDATASIZE PUSH1 0x0 PUSH1 0x20 DUP5 ADD RETURNDATACOPY JUMP JUMPDEST PUSH1 0x60 SWAP1 JUMP JUMPDEST SWAP2 SWAP3 SWAP1 ISZERO PUSH3 0x439D JUMPI POP DUP2 MLOAD ISZERO PUSH3 0x434E JUMPI POP SWAP1 JUMP JUMPDEST EXTCODESIZE ISZERO PUSH3 0x4358 JUMPI SWAP1 JUMP JUMPDEST PUSH1 0x40 MLOAD PUSH3 0x461BCD PUSH1 0xE5 SHL DUP2 MSTORE PUSH1 0x20 PUSH1 0x4 DUP3 ADD MSTORE PUSH1 0x1D PUSH1 0x24 DUP3 ADD MSTORE PUSH32 0x416464726573733A2063616C6C20746F206E6F6E2D636F6E7472616374000000 PUSH1 0x44 DUP3 ADD MSTORE PUSH1 0x64 SWAP1 REVERT JUMPDEST DUP3 MLOAD SWAP1 SWAP2 POP ISZERO PUSH3 0x43B1 JUMPI POP DUP1 MLOAD SWAP1 PUSH1 0x20 ADD REVERT JUMPDEST PUSH1 0x40 MLOAD PUSH3 0x461BCD PUSH1 0xE5 SHL DUP2 MSTORE SWAP1 DUP2 SWAP1 PUSH3 0x2A32 SWAP1 PUSH1 0x4 DUP4 ADD PUSH3 0x28A5 JUMP JUMPDEST PUSH1 0x40 MLOAD PUSH4 0x23B872DD PUSH1 0xE0 SHL PUSH1 0x20 DUP3 ADD MSTORE PUSH1 0x1 PUSH1 0x1 PUSH1 0xA0 SHL SUB SWAP3 DUP4 AND PUSH1 0x24 DUP3 ADD MSTORE SWAP3 SWAP1 SWAP2 AND PUSH1 0x44 DUP4 ADD MSTORE PUSH1 0x64 DUP1 DUP4 ADD SWAP4 SWAP1 SWAP4 MSTORE SWAP2 DUP2 MSTORE PUSH1 0xA0 DUP2 ADD SWAP2 DUP2 DUP4 LT PUSH1 0x1 PUSH1 0x1 PUSH1 0x40 SHL SUB DUP5 GT OR PUSH3 0x1FBF JUMPI PUSH3 0x41F2 SWAP3 PUSH1 0x40 MSTORE PUSH3 0x41F4 JUMP JUMPDEST DUP2 DUP4 MSTORE SWAP1 SWAP2 PUSH1 0x1 PUSH1 0x1 PUSH1 0xFB SHL SUB DUP4 GT PUSH3 0x7D8 JUMPI PUSH1 0x20 SWAP3 PUSH1 0x5 SHL DUP1 SWAP3 DUP5 DUP4 ADD CALLDATACOPY ADD ADD SWAP1 JUMP JUMPDEST ISZERO PUSH3 0x4457 JUMPI JUMP JUMPDEST PUSH1 0x40 MLOAD PUSH3 0x461BCD PUSH1 0xE5 SHL DUP2 MSTORE PUSH1 0x20 PUSH1 0x4 DUP3 ADD MSTORE PUSH1 0x13 PUSH1 0x24 DUP3 ADD MSTORE PUSH19 0x11551217D514905394D1915497D19052531151 PUSH1 0x6A SHL PUSH1 0x44 DUP3 ADD MSTORE PUSH1 0x64 SWAP1 REVERT JUMPDEST PUSH1 0x8 DUP2 ADD SLOAD SWAP1 DUP2 TIMESTAMP LT PUSH3 0x4514 JUMPI PUSH1 0x9 DUP2 ADD SLOAD SWAP2 DUP3 TIMESTAMP LT ISZERO PUSH3 0x4503 JUMPI PUSH3 0x44C9 DUP2 PUSH3 0x44C2 PUSH1 0x7 SWAP4 TIMESTAMP PUSH3 0x30C4 JUMP JUMPDEST SWAP5 PUSH3 0x30C4 JUMP JUMPDEST SWAP2 ADD SLOAD PUSH2 0xFFFF SWAP3 DUP2 DUP5 DUP1 SWAP4 PUSH1 0x8 SHR AND SWAP3 DUP4 SWAP2 PUSH1 0x18 SHR AND SUB SWAP3 DUP5 DUP5 GT PUSH3 0x2F34 JUMPI PUSH3 0x4FB PUSH3 0x3191 SWAP3 DUP7 PUSH3 0x44FF SWAP7 AND PUSH3 0x2F20 JUMP JUMPDEST AND SWAP1 JUMP JUMPDEST POP PUSH2 0xFFFF SWAP2 POP PUSH1 0x7 ADD SLOAD PUSH1 0x18 SHR AND SWAP1 JUMP JUMPDEST PUSH2 0xFFFF SWAP2 POP PUSH1 0x7 ADD SLOAD PUSH1 0x8 SHR AND SWAP1 JUMP JUMPDEST PUSH1 0xFF DUP2 SLOAD AND PUSH1 0x4 DUP2 LT ISZERO PUSH3 0x45A0 JUMPI ISZERO PUSH3 0x4549 JUMPI POP PUSH3 0x312F SWAP1 PUSH3 0x3128 PUSH3 0x3273 JUMP JUMPDEST PUSH1 0x5 DUP2 ADD SLOAD SWAP2 PUSH3 0x4570 DUP2 PUSH1 0x2 PUSH3 0x4566 PUSH1 0x1 DUP7 ADD SLOAD DUP4 PUSH3 0x2F20 JUMP JUMPDEST SWAP5 ADD SLOAD SWAP5 PUSH3 0x2F20 JUMP JUMPDEST SWAP3 PUSH1 0x1 DUP3 ADD DUP1 DUP4 GT PUSH3 0x2F34 JUMPI PUSH3 0x312F SWAP5 PUSH3 0x4596 PUSH3 0x3128 SWAP3 PUSH3 0x3191 SWAP6 PUSH3 0x2F20 JUMP JUMPDEST PUSH1 0x1 SHR SWAP1 PUSH3 0x30C4 JUMP JUMPDEST PUSH4 0x4E487B71 PUSH1 0xE0 SHL PUSH1 0x0 MSTORE PUSH1 0x21 PUSH1 0x4 MSTORE PUSH1 0x24 PUSH1 0x0 REVERT INVALID PUSH2 0x160 DUP1 PUSH1 0x40 MSTORE CALLVALUE PUSH3 0x7CD JUMPI PUSH3 0x201C DUP1 CODESIZE SUB DUP1 SWAP2 PUSH3 0x21 DUP3 DUP6 PUSH3 0x7D2 JUMP JUMPDEST DUP4 CODECOPY DUP2 ADD PUSH1 0xA0 DUP3 DUP3 SUB SLT PUSH3 0x7CD JUMPI DUP2 MLOAD PUSH1 0x1 PUSH1 0x1 PUSH1 0x40 SHL SUB DUP2 GT PUSH3 0x7CD JUMPI DUP2 PUSH3 0x4F SWAP2 DUP5 ADD PUSH3 0x81B JUMP JUMPDEST PUSH1 0x20 DUP4 ADD MLOAD SWAP1 SWAP3 SWAP1 PUSH1 0x1 PUSH1 0x1 PUSH1 0x40 SHL SUB DUP2 GT PUSH3 0x7CD JUMPI DUP3 PUSH3 0x74 SWAP2 DUP4 ADD PUSH3 0x81B JUMP JUMPDEST PUSH1 0x40 DUP3 ADD MLOAD PUSH1 0x60 DUP4 ADD MLOAD SWAP4 SWAP1 SWAP3 SWAP1 PUSH1 0x1 PUSH1 0x1 PUSH1 0xA0 SHL SUB DUP6 AND DUP6 SUB PUSH3 0x7CD JUMPI PUSH1 0x80 DUP3 ADD MLOAD PUSH1 0x1 PUSH1 0x1 PUSH1 0x40 SHL SUB DUP2 GT PUSH3 0x7CD JUMPI PUSH3 0xB3 SWAP3 ADD PUSH3 0x81B JUMP JUMPDEST PUSH1 0x40 DUP1 MLOAD SWAP2 SWAP6 SWAP2 SWAP1 DUP2 ADD PUSH1 0x1 PUSH1 0x1 PUSH1 0x40 SHL SUB DUP2 GT DUP3 DUP3 LT OR PUSH3 0x560 JUMPI PUSH1 0x40 MSTORE PUSH1 0x1 DUP2 MSTORE PUSH1 0x31 PUSH1 0xF8 SHL PUSH1 0x20 DUP3 ADD MSTORE DUP2 MLOAD PUSH1 0x1 PUSH1 0x1 PUSH1 0x40 SHL SUB DUP2 GT PUSH3 0x560 JUMPI PUSH1 0x3 SLOAD PUSH1 0x1 DUP2 DUP2 SHR SWAP2 AND DUP1 ISZERO PUSH3 0x7C2 JUMPI JUMPDEST PUSH1 0x20 DUP3 LT EQ PUSH3 0x53F JUMPI PUSH1 0x1F DUP2 GT PUSH3 0x75C JUMPI JUMPDEST POP DUP1 PUSH1 0x20 PUSH1 0x1F DUP3 GT PUSH1 0x1 EQ PUSH3 0x6D2 JUMPI PUSH1 0x0 SWAP2 PUSH3 0x6C6 JUMPI JUMPDEST POP DUP2 PUSH1 0x1 SHL SWAP2 PUSH1 0x0 NOT SWAP1 PUSH1 0x3 SHL SHR NOT AND OR PUSH1 0x3 SSTORE JUMPDEST DUP3 MLOAD PUSH1 0x1 PUSH1 0x1 PUSH1 0x40 SHL SUB DUP2 GT PUSH3 0x560 JUMPI PUSH1 0x4 SLOAD PUSH1 0x1 DUP2 DUP2 SHR SWAP2 AND DUP1 ISZERO PUSH3 0x6BB JUMPI JUMPDEST PUSH1 0x20 DUP3 LT EQ PUSH3 0x53F JUMPI PUSH1 0x1F DUP2 GT PUSH3 0x651 JUMPI JUMPDEST POP DUP1 PUSH1 0x20 PUSH1 0x1F DUP3 GT PUSH1 0x1 EQ PUSH3 0x5C7 JUMPI PUSH1 0x0 SWAP2 PUSH3 0x5BB JUMPI JUMPDEST POP DUP2 PUSH1 0x1 SHL SWAP2 PUSH1 0x0 NOT SWAP1 PUSH1 0x3 SHL SHR NOT AND OR PUSH1 0x4 SSTORE JUMPDEST PUSH3 0x1B6 DUP3 PUSH3 0x8BF JUMP JUMPDEST PUSH2 0x120 MSTORE PUSH3 0x1C5 DUP2 PUSH3 0xA64 JUMP JUMPDEST PUSH2 0x140 MSTORE DUP2 MLOAD PUSH1 0x20 DUP4 ADD KECCAK256 SWAP1 DUP2 PUSH1 0xE0 MSTORE PUSH1 0x20 DUP2 MLOAD SWAP2 ADD KECCAK256 DUP1 PUSH2 0x100 MSTORE CHAINID PUSH1 0xA0 MSTORE PUSH1 0x40 MLOAD SWAP2 PUSH32 0x8B73C3C69BB8FE3D512ECC4CF759CC79239F7B179B0FFACAA9A75D522B39400F PUSH1 0x20 DUP5 ADD MSTORE PUSH1 0x40 DUP4 ADD MSTORE PUSH1 0x60 DUP3 ADD MSTORE CHAINID PUSH1 0x80 DUP3 ADD MSTORE ADDRESS PUSH1 0xA0 DUP3 ADD MSTORE PUSH1 0xA0 DUP2 MSTORE DUP1 PUSH1 0xC0 DUP2 ADD LT PUSH1 0x1 DUP1 PUSH1 0x40 SHL SUB PUSH1 0xC0 DUP4 ADD GT OR PUSH3 0x560 JUMPI PUSH1 0xC0 DUP2 ADD PUSH1 0x40 MSTORE DUP1 MLOAD PUSH1 0x20 DUP3 ADD KECCAK256 PUSH1 0x80 MSTORE ADDRESS PUSH1 0xC0 MSTORE PUSH3 0x261 CALLER PUSH3 0x876 JUMP JUMPDEST PUSH1 0x1 PUSH1 0x1 PUSH1 0xA0 SHL SUB DUP6 AND ISZERO PUSH3 0x5A7 JUMPI POP PUSH1 0x3 SWAP1 MLOAD LT SWAP1 DUP2 ISZERO PUSH3 0x59A JUMPI JUMPDEST POP PUSH3 0x588 JUMPI DUP1 ISZERO PUSH3 0x576 JUMPI DUP3 MLOAD PUSH1 0x1 PUSH1 0x1 PUSH1 0x40 SHL SUB DUP2 GT PUSH3 0x560 JUMPI PUSH1 0xA SLOAD PUSH1 0x1 DUP2 DUP2 SHR SWAP2 AND DUP1 ISZERO PUSH3 0x555 JUMPI JUMPDEST PUSH1 0x20 DUP3 LT EQ PUSH3 0x53F JUMPI PUSH1 0x1F DUP2 GT PUSH3 0x4E6 JUMPI JUMPDEST POP PUSH1 0x20 PUSH1 0x1F DUP3 GT PUSH1 0x1 EQ PUSH3 0x46D JUMPI DUP2 SWAP3 SWAP4 SWAP5 PUSH1 0x0 SWAP3 PUSH3 0x461 JUMPI JUMPDEST POP POP DUP2 PUSH1 0x1 SHL SWAP2 PUSH1 0x0 NOT SWAP1 PUSH1 0x3 SHL SHR NOT AND OR PUSH1 0xA SSTORE JUMPDEST CALLER ISZERO PUSH3 0x41C JUMPI PUSH1 0x2 SLOAD DUP2 DUP2 ADD DUP1 SWAP2 GT PUSH3 0x406 JUMPI PUSH1 0x2 SSTORE CALLER PUSH1 0x0 MSTORE PUSH1 0x0 PUSH1 0x20 MSTORE PUSH1 0x40 PUSH1 0x0 KECCAK256 DUP2 DUP2 SLOAD ADD SWAP1 SSTORE PUSH1 0x40 MLOAD SWAP1 DUP2 MSTORE PUSH1 0x0 PUSH32 0xDDF252AD1BE2C89B69C2B068FC378DAA952BA7F163C4A11628F55A4DF523B3EF PUSH1 0x20 CALLER SWAP4 LOG3 PUSH1 0x9 SLOAD CALLER PUSH1 0x1 PUSH1 0x1 PUSH1 0xA0 SHL SUB SWAP1 SWAP2 AND SUB PUSH3 0x3C2 JUMPI PUSH3 0x370 SWAP1 PUSH3 0x876 JUMP JUMPDEST PUSH1 0x40 MLOAD PUSH2 0x1440 SWAP1 DUP2 PUSH3 0xBBC DUP3 CODECOPY PUSH1 0x80 MLOAD DUP2 PUSH2 0x118B ADD MSTORE PUSH1 0xA0 MLOAD DUP2 PUSH2 0x1257 ADD MSTORE PUSH1 0xC0 MLOAD DUP2 PUSH2 0x1155 ADD MSTORE PUSH1 0xE0 MLOAD DUP2 PUSH2 0x11DA ADD MSTORE PUSH2 0x100 MLOAD DUP2 PUSH2 0x1200 ADD MSTORE PUSH2 0x120 MLOAD DUP2 PUSH2 0x6A8 ADD MSTORE PUSH2 0x140 MLOAD DUP2 PUSH2 0x6D2 ADD MSTORE RETURN JUMPDEST PUSH1 0x64 PUSH1 0x40 MLOAD PUSH3 0x461BCD PUSH1 0xE5 SHL DUP2 MSTORE PUSH1 0x20 PUSH1 0x4 DUP3 ADD MSTORE PUSH1 0x20 PUSH1 0x24 DUP3 ADD MSTORE PUSH32 0x4F776E61626C653A2063616C6C6572206973206E6F7420746865206F776E6572 PUSH1 0x44 DUP3 ADD MSTORE REVERT JUMPDEST PUSH4 0x4E487B71 PUSH1 0xE0 SHL PUSH1 0x0 MSTORE PUSH1 0x11 PUSH1 0x4 MSTORE PUSH1 0x24 PUSH1 0x0 REVERT JUMPDEST PUSH1 0x40 MLOAD PUSH3 0x461BCD PUSH1 0xE5 SHL DUP2 MSTORE PUSH1 0x20 PUSH1 0x4 DUP3 ADD MSTORE PUSH1 0x1F PUSH1 0x24 DUP3 ADD MSTORE PUSH32 0x45524332303A206D696E7420746F20746865207A65726F206164647265737300 PUSH1 0x44 DUP3 ADD MSTORE PUSH1 0x64 SWAP1 REVERT JUMPDEST ADD MLOAD SWAP1 POP CODESIZE DUP1 PUSH3 0x2E0 JUMP JUMPDEST PUSH1 0xA PUSH1 0x0 SWAP1 DUP2 MSTORE PUSH1 0x0 DUP1 MLOAD PUSH1 0x20 PUSH3 0x1FFC DUP4 CODECOPY DUP2 MLOAD SWAP2 MSTORE SWAP2 SWAP1 PUSH1 0x1F NOT DUP5 AND SWAP1 JUMPDEST DUP2 DUP2 LT PUSH3 0x4CD JUMPI POP SWAP6 DUP4 PUSH1 0x1 SWAP6 SWAP7 SWAP8 LT PUSH3 0x4B3 JUMPI JUMPDEST POP POP POP DUP2 SHL ADD PUSH1 0xA SSTORE PUSH3 0x2F6 JUMP JUMPDEST ADD MLOAD PUSH1 0x0 NOT PUSH1 0xF8 DUP5 PUSH1 0x3 SHL AND SHR NOT AND SWAP1 SSTORE CODESIZE DUP1 DUP1 PUSH3 0x4A4 JUMP JUMPDEST SWAP2 SWAP3 PUSH1 0x20 PUSH1 0x1 DUP2 SWAP3 DUP7 DUP12 ADD MLOAD DUP2 SSTORE ADD SWAP5 ADD SWAP3 ADD PUSH3 0x48D JUMP JUMPDEST PUSH1 0xA PUSH1 0x0 MSTORE PUSH1 0x0 DUP1 MLOAD PUSH1 0x20 PUSH3 0x1FFC DUP4 CODECOPY DUP2 MLOAD SWAP2 MSTORE PUSH1 0x1F DUP4 ADD PUSH1 0x5 SHR DUP2 ADD SWAP2 PUSH1 0x20 DUP5 LT PUSH3 0x534 JUMPI JUMPDEST PUSH1 0x1F ADD PUSH1 0x5 SHR ADD SWAP1 JUMPDEST DUP2 DUP2 LT PUSH3 0x527 JUMPI POP PUSH3 0x2C4 JUMP JUMPDEST PUSH1 0x0 DUP2 SSTORE PUSH1 0x1 ADD PUSH3 0x518 JUMP JUMPDEST SWAP1 SWAP2 POP DUP2 SWAP1 PUSH3 0x50F JUMP JUMPDEST PUSH4 0x4E487B71 PUSH1 0xE0 SHL PUSH1 0x0 MSTORE PUSH1 0x22 PUSH1 0x4 MSTORE PUSH1 0x24 PUSH1 0x0 REVERT JUMPDEST SWAP1 PUSH1 0x7F AND SWAP1 PUSH3 0x2B0 JUMP JUMPDEST PUSH4 0x4E487B71 PUSH1 0xE0 SHL PUSH1 0x0 MSTORE PUSH1 0x41 PUSH1 0x4 MSTORE PUSH1 0x24 PUSH1 0x0 REVERT JUMPDEST PUSH1 0x40 MLOAD PUSH4 0xC16F3A93 PUSH1 0xE0 SHL DUP2 MSTORE PUSH1 0x4 SWAP1 REVERT JUMPDEST PUSH1 0x40 MLOAD PUSH4 0x94322419 PUSH1 0xE0 SHL DUP2 MSTORE PUSH1 0x4 SWAP1 REVERT JUMPDEST PUSH1 0x3 SWAP2 POP MLOAD LT CODESIZE PUSH3 0x280 JUMP JUMPDEST PUSH1 0xC0 PUSH1 0x4 SWAP2 PUSH4 0xD92E233D PUSH1 0xE0 SHL DUP3 DUP3 ADD MSTORE ADD REVERT JUMPDEST SWAP1 POP DUP5 ADD MLOAD CODESIZE PUSH3 0x196 JUMP JUMPDEST PUSH1 0x4 PUSH1 0x0 SWAP1 DUP2 MSTORE SWAP3 POP PUSH32 0x8A35ACFBC15FF81A39AE7D344FD709F28E8600B4AA8C65C6B64BFE7FE36BD19B SWAP1 JUMPDEST PUSH1 0x1F NOT DUP4 AND DUP5 LT PUSH3 0x638 JUMPI PUSH1 0x1 SWAP4 POP DUP3 PUSH1 0x1F NOT DUP2 AND LT PUSH3 0x61E JUMPI JUMPDEST POP POP DUP2 SHL ADD PUSH1 0x4 SSTORE PUSH3 0x1AB JUMP JUMPDEST DUP7 ADD MLOAD PUSH1 0x0 NOT PUSH1 0xF8 DUP5 PUSH1 0x3 SHL AND SHR NOT AND SWAP1 SSTORE CODESIZE DUP1 PUSH3 0x610 JUMP JUMPDEST DUP7 DUP2 ADD MLOAD DUP3 SSTORE PUSH1 0x20 SWAP4 DUP5 ADD SWAP4 PUSH1 0x1 SWAP1 SWAP3 ADD SWAP2 ADD PUSH3 0x5F3 JUMP JUMPDEST PUSH1 0x4 PUSH1 0x0 MSTORE PUSH32 0x8A35ACFBC15FF81A39AE7D344FD709F28E8600B4AA8C65C6B64BFE7FE36BD19B PUSH1 0x1F DUP4 ADD PUSH1 0x5 SHR DUP2 ADD SWAP2 PUSH1 0x20 DUP5 LT PUSH3 0x6B0 JUMPI JUMPDEST PUSH1 0x1F ADD PUSH1 0x5 SHR ADD SWAP1 JUMPDEST DUP2 DUP2 LT PUSH3 0x6A3 JUMPI POP PUSH3 0x17D JUMP JUMPDEST PUSH1 0x0 DUP2 SSTORE PUSH1 0x1 ADD PUSH3 0x694 JUMP JUMPDEST SWAP1 SWAP2 POP DUP2 SWAP1 PUSH3 0x68B JUMP JUMPDEST SWAP1 PUSH1 0x7F AND SWAP1 PUSH3 0x169 JUMP JUMPDEST SWAP1 POP DUP4 ADD MLOAD CODESIZE PUSH3 0x131 JUMP JUMPDEST PUSH1 0x3 PUSH1 0x0 SWAP1 DUP2 MSTORE SWAP3 POP PUSH32 0xC2575A0E9E593C00F959F8C92F12DB2869C3395A3B0502D05E2516446F71F85B SWAP1 JUMPDEST PUSH1 0x1F NOT DUP4 AND DUP5 LT PUSH3 0x743 JUMPI PUSH1 0x1 SWAP4 POP DUP3 PUSH1 0x1F NOT DUP2 AND LT PUSH3 0x729 JUMPI JUMPDEST POP POP DUP2 SHL ADD PUSH1 0x3 SSTORE PUSH3 0x146 JUMP JUMPDEST DUP6 ADD MLOAD PUSH1 0x0 NOT PUSH1 0xF8 DUP5 PUSH1 0x3 SHL AND SHR NOT AND SWAP1 SSTORE CODESIZE DUP1 PUSH3 0x71B JUMP JUMPDEST DUP6 DUP2 ADD MLOAD DUP3 SSTORE PUSH1 0x20 SWAP4 DUP5 ADD SWAP4 PUSH1 0x1 SWAP1 SWAP3 ADD SWAP2 ADD PUSH3 0x6FE JUMP JUMPDEST PUSH1 0x3 PUSH1 0x0 MSTORE PUSH32 0xC2575A0E9E593C00F959F8C92F12DB2869C3395A3B0502D05E2516446F71F85B PUSH1 0x1F DUP4 ADD PUSH1 0x5 SHR DUP2 ADD PUSH1 0x20 DUP5 LT PUSH3 0x7BA JUMPI JUMPDEST PUSH1 0x1F DUP4 ADD PUSH1 0x5 SHR DUP3 ADD DUP2 LT PUSH3 0x7AD JUMPI POP POP PUSH3 0x118 JUMP JUMPDEST PUSH1 0x0 DUP2 SSTORE PUSH1 0x1 ADD PUSH3 0x795 JUMP JUMPDEST POP DUP1 PUSH3 0x795 JUMP JUMPDEST SWAP1 PUSH1 0x7F AND SWAP1 PUSH3 0x104 JUMP JUMPDEST PUSH1 0x0 DUP1 REVERT JUMPDEST PUSH1 0x1F SWAP1 SWAP2 ADD PUSH1 0x1F NOT AND DUP2 ADD SWAP1 PUSH1 0x1 PUSH1 0x1 PUSH1 0x40 SHL SUB DUP3 GT SWAP1 DUP3 LT OR PUSH3 0x560 JUMPI PUSH1 0x40 MSTORE JUMP JUMPDEST PUSH1 0x0 JUMPDEST DUP4 DUP2 LT PUSH3 0x80A JUMPI POP POP PUSH1 0x0 SWAP2 ADD MSTORE JUMP JUMPDEST DUP2 DUP2 ADD MLOAD DUP4 DUP3 ADD MSTORE PUSH1 0x20 ADD PUSH3 0x7F9 JUMP JUMPDEST DUP2 PUSH1 0x1F DUP3 ADD SLT ISZERO PUSH3 0x7CD JUMPI DUP1 MLOAD PUSH1 0x1 PUSH1 0x1 PUSH1 0x40 SHL SUB DUP2 GT PUSH3 0x560 JUMPI PUSH1 0x40 MLOAD SWAP3 PUSH3 0x852 PUSH1 0x1F DUP4 ADD PUSH1 0x1F NOT AND PUSH1 0x20 ADD DUP6 PUSH3 0x7D2 JUMP JUMPDEST DUP2 DUP5 MSTORE PUSH1 0x20 DUP3 DUP5 ADD ADD GT PUSH3 0x7CD JUMPI PUSH3 0x873 SWAP2 PUSH1 0x20 DUP1 DUP6 ADD SWAP2 ADD PUSH3 0x7F6 JUMP JUMPDEST SWAP1 JUMP JUMPDEST PUSH1 0x9 DUP1 SLOAD PUSH1 0x1 PUSH1 0x1 PUSH1 0xA0 SHL SUB SWAP3 DUP4 AND PUSH1 0x1 PUSH1 0x1 PUSH1 0xA0 SHL SUB NOT DUP3 AND DUP2 OR SWAP1 SWAP3 SSTORE SWAP1 SWAP2 AND PUSH32 0x8BE0079C531659141344CD1FD0A4F28419497F9722A3DAAFE3B4186F6B6457E0 PUSH1 0x0 DUP1 LOG3 JUMP JUMPDEST DUP1 MLOAD PUSH1 0x20 SWAP2 SWAP1 DUP3 DUP2 LT ISZERO PUSH3 0x93F JUMPI POP SWAP1 PUSH1 0x1F DUP3 MLOAD GT PUSH3 0x8FD JUMPI DUP1 DUP3 MLOAD SWAP3 ADD MLOAD SWAP1 DUP1 DUP4 LT PUSH3 0x8EE JUMPI POP OR SWAP1 JUMP JUMPDEST DUP3 PUSH1 0x0 NOT SWAP2 SUB PUSH1 0x3 SHL SHL AND OR SWAP1 JUMP JUMPDEST PUSH1 0x44 SWAP1 PUSH3 0x931 SWAP3 PUSH1 0x40 MLOAD SWAP4 DUP5 SWAP3 PUSH4 0x305A27A9 PUSH1 0xE0 SHL DUP5 MSTORE DUP1 PUSH1 0x4 DUP6 ADD MSTORE DUP3 MLOAD SWAP3 DUP4 SWAP2 DUP3 PUSH1 0x24 DUP8 ADD MSTORE DUP7 DUP7 ADD SWAP2 ADD PUSH3 0x7F6 JUMP JUMPDEST PUSH1 0x1F ADD PUSH1 0x1F NOT AND DUP2 ADD SUB ADD SWAP1 REVERT JUMPDEST PUSH1 0x1 PUSH1 0x1 PUSH1 0x40 SHL SUB DUP2 GT PUSH3 0x560 JUMPI PUSH1 0x5 SWAP3 DUP4 SLOAD SWAP3 PUSH1 0x1 SWAP4 DUP5 DUP2 DUP2 SHR SWAP2 AND DUP1 ISZERO PUSH3 0xA59 JUMPI JUMPDEST DUP4 DUP3 LT EQ PUSH3 0x53F JUMPI PUSH1 0x1F DUP2 GT PUSH3 0xA22 JUMPI JUMPDEST POP DUP2 PUSH1 0x1F DUP5 GT PUSH1 0x1 EQ PUSH3 0x9B8 JUMPI POP SWAP3 DUP3 SWAP4 SWAP2 DUP4 SWAP3 PUSH1 0x0 SWAP5 PUSH3 0x9AC JUMPI JUMPDEST POP POP SHL SWAP2 PUSH1 0x0 NOT SWAP1 PUSH1 0x3 SHL SHR NOT AND OR SWAP1 SSTORE PUSH1 0xFF SWAP1 JUMP JUMPDEST ADD MLOAD SWAP3 POP CODESIZE DUP1 PUSH3 0x996 JUMP JUMPDEST SWAP2 SWAP1 DUP4 PUSH1 0x1F NOT DUP2 AND DUP8 PUSH1 0x0 MSTORE DUP5 PUSH1 0x0 KECCAK256 SWAP5 PUSH1 0x0 SWAP1 JUMPDEST DUP9 DUP4 DUP4 LT PUSH3 0xA07 JUMPI POP POP POP LT PUSH3 0x9ED JUMPI JUMPDEST POP POP POP DUP2 SHL ADD SWAP1 SSTORE PUSH1 0xFF SWAP1 JUMP JUMPDEST ADD MLOAD PUSH1 0x0 NOT PUSH1 0xF8 DUP5 PUSH1 0x3 SHL AND SHR NOT AND SWAP1 SSTORE CODESIZE DUP1 DUP1 PUSH3 0x9E0 JUMP JUMPDEST DUP6 DUP8 ADD MLOAD DUP9 SSTORE SWAP1 SWAP7 ADD SWAP6 SWAP5 DUP6 ADD SWAP5 DUP8 SWAP4 POP SWAP1 DUP2 ADD SWAP1 PUSH3 0x9CD JUMP JUMPDEST DUP6 PUSH1 0x0 MSTORE DUP5 PUSH1 0x1F DUP5 PUSH1 0x0 KECCAK256 SWAP3 ADD DUP8 SHR DUP3 ADD SWAP2 PUSH1 0x1F DUP7 ADD DUP9 SHR ADD JUMPDEST DUP3 DUP2 LT PUSH3 0xA4C JUMPI POP POP PUSH3 0x978 JUMP JUMPDEST PUSH1 0x0 DUP2 SSTORE ADD DUP6 SWAP1 PUSH3 0xA3C JUMP JUMPDEST SWAP1 PUSH1 0x7F AND SWAP1 PUSH3 0x965 JUMP JUMPDEST DUP1 MLOAD PUSH1 0x20 SWAP1 DUP2 DUP2 LT ISZERO PUSH3 0xA91 JUMPI POP PUSH1 0x1F DUP3 MLOAD GT PUSH3 0x8FD JUMPI DUP1 DUP3 MLOAD SWAP3 ADD MLOAD SWAP1 DUP1 DUP4 LT PUSH3 0x8EE JUMPI POP OR SWAP1 JUMP JUMPDEST SWAP1 PUSH1 0x1 PUSH1 0x1 PUSH1 0x40 SHL SUB DUP3 GT PUSH3 0x560 JUMPI PUSH1 0x6 SLOAD SWAP3 PUSH1 0x1 SWAP4 DUP5 DUP2 DUP2 SHR SWAP2 AND DUP1 ISZERO PUSH3 0xBB0 JUMPI JUMPDEST DUP4 DUP3 LT EQ PUSH3 0x53F JUMPI PUSH1 0x1F DUP2 GT PUSH3 0xB76 JUMPI JUMPDEST POP DUP2 PUSH1 0x1F DUP5 GT PUSH1 0x1 EQ PUSH3 0xB0A JUMPI POP SWAP3 DUP3 SWAP4 SWAP2 DUP4 SWAP3 PUSH1 0x0 SWAP5 PUSH3 0xAFE JUMPI JUMPDEST POP POP SHL SWAP2 PUSH1 0x0 NOT SWAP1 PUSH1 0x3 SHL SHR NOT AND OR PUSH1 0x6 SSTORE PUSH1 0xFF SWAP1 JUMP JUMPDEST ADD MLOAD SWAP3 POP CODESIZE DUP1 PUSH3 0xAE7 JUMP JUMPDEST SWAP2 SWAP1 DUP4 PUSH1 0x1F NOT DUP2 AND PUSH1 0x6 PUSH1 0x0 MSTORE DUP5 PUSH1 0x0 KECCAK256 SWAP5 PUSH1 0x0 SWAP1 JUMPDEST DUP9 DUP4 DUP4 LT PUSH3 0xB5B JUMPI POP POP POP LT PUSH3 0xB41 JUMPI JUMPDEST POP POP POP DUP2 SHL ADD PUSH1 0x6 SSTORE PUSH1 0xFF SWAP1 JUMP JUMPDEST ADD MLOAD PUSH1 0x0 NOT PUSH1 0xF8 DUP5 PUSH1 0x3 SHL AND SHR NOT AND SWAP1 SSTORE CODESIZE DUP1 DUP1 PUSH3 0xB33 JUMP JUMPDEST DUP6 DUP8 ADD MLOAD DUP9 SSTORE SWAP1 SWAP7 ADD SWAP6 SWAP5 DUP6 ADD SWAP5 DUP8 SWAP4 POP SWAP1 DUP2 ADD SWAP1 PUSH3 0xB20 JUMP JUMPDEST PUSH1 0x6 PUSH1 0x0 MSTORE DUP5 PUSH1 0x1F DUP5 PUSH1 0x0 KECCAK256 SWAP3 ADD PUSH1 0x5 SHR DUP3 ADD SWAP2 PUSH1 0x1F DUP7 ADD PUSH1 0x5 SHR ADD JUMPDEST DUP3 DUP2 LT PUSH3 0xBA3 JUMPI POP POP PUSH3 0xAC9 JUMP JUMPDEST PUSH1 0x0 DUP2 SSTORE ADD DUP6 SWAP1 PUSH3 0xB93 JUMP JUMPDEST SWAP1 PUSH1 0x7F AND SWAP1 PUSH3 0xAB6 JUMP INVALID PUSH1 0x80 PUSH1 0x40 DUP2 DUP2 MSTORE PUSH1 0x4 DUP1 CALLDATASIZE LT ISZERO PUSH2 0x15 JUMPI PUSH1 0x0 DUP1 REVERT JUMPDEST PUSH1 0x0 SWAP3 DUP4 CALLDATALOAD PUSH1 0xE0 SHR SWAP1 DUP2 PUSH4 0x6FDDE03 EQ PUSH2 0xB3A JUMPI POP DUP1 PUSH4 0x95EA7B3 EQ PUSH2 0xB10 JUMPI DUP1 PUSH4 0x18160DDD EQ PUSH2 0xAF1 JUMPI DUP1 PUSH4 0x23B872DD EQ PUSH2 0xA27 JUMPI DUP1 PUSH4 0x313CE567 EQ PUSH2 0xA0B JUMPI DUP1 PUSH4 0x3644E515 EQ PUSH2 0x9E7 JUMPI DUP1 PUSH4 0x39509351 EQ PUSH2 0x980 JUMPI DUP1 PUSH4 0x3C130D90 EQ PUSH2 0x87A JUMPI DUP1 PUSH4 0x70A08231 EQ PUSH2 0x843 JUMPI DUP1 PUSH4 0x715018A6 EQ PUSH2 0x7E6 JUMPI DUP1 PUSH4 0x7ECEBE00 EQ PUSH2 0x7AE JUMPI DUP1 PUSH4 0x84B0196E EQ PUSH2 0x691 JUMPI DUP1 PUSH4 0x8DA5CB5B EQ PUSH2 0x668 JUMPI DUP1 PUSH4 0x95D89B41 EQ PUSH2 0x594 JUMPI DUP1 PUSH4 0xA457C2D7 EQ PUSH2 0x4ED JUMPI DUP1 PUSH4 0xA9059CBB EQ PUSH2 0x4BC JUMPI DUP1 PUSH4 0xC623674F EQ PUSH2 0x3D3 JUMPI DUP1 PUSH4 0xD505ACCF EQ PUSH2 0x21A JUMPI DUP1 PUSH4 0xDD62ED3E EQ PUSH2 0x1CD JUMPI PUSH4 0xF2FDE38B EQ PUSH2 0xFF JUMPI PUSH1 0x0 DUP1 REVERT JUMPDEST CALLVALUE PUSH2 0x1C9 JUMPI PUSH1 0x20 CALLDATASIZE PUSH1 0x3 NOT ADD SLT PUSH2 0x1C9 JUMPI PUSH2 0x118 PUSH2 0xC22 JUMP JUMPDEST SWAP1 PUSH2 0x121 PUSH2 0xCE1 JUMP JUMPDEST PUSH1 0x1 PUSH1 0x1 PUSH1 0xA0 SHL SUB SWAP2 DUP3 AND SWAP3 DUP4 ISZERO PUSH2 0x177 JUMPI POP POP PUSH1 0x9 SLOAD DUP3 PUSH12 0xFFFFFFFFFFFFFFFFFFFFFFFF PUSH1 0xA0 SHL DUP3 AND OR PUSH1 0x9 SSTORE AND PUSH32 0x8BE0079C531659141344CD1FD0A4F28419497F9722A3DAAFE3B4186F6B6457E0 DUP4 DUP1 LOG3 DUP1 RETURN JUMPDEST SWAP1 PUSH1 0x20 PUSH1 0x84 SWAP3 MLOAD SWAP2 PUSH3 0x461BCD PUSH1 0xE5 SHL DUP4 MSTORE DUP3 ADD MSTORE PUSH1 0x26 PUSH1 0x24 DUP3 ADD MSTORE PUSH32 0x4F776E61626C653A206E6577206F776E657220697320746865207A65726F2061 PUSH1 0x44 DUP3 ADD MSTORE PUSH6 0x646472657373 PUSH1 0xD0 SHL PUSH1 0x64 DUP3 ADD MSTORE REVERT JUMPDEST DUP3 DUP1 REVERT JUMPDEST POP POP CALLVALUE PUSH2 0x216 JUMPI DUP1 PUSH1 0x3 NOT CALLDATASIZE ADD SLT PUSH2 0x216 JUMPI DUP1 PUSH1 0x20 SWAP3 PUSH2 0x1EB PUSH2 0xC22 JUMP JUMPDEST PUSH2 0x1F3 PUSH2 0xC3D JUMP JUMPDEST PUSH1 0x1 PUSH1 0x1 PUSH1 0xA0 SHL SUB SWAP2 DUP3 AND DUP4 MSTORE PUSH1 0x1 DUP7 MSTORE DUP4 DUP4 KECCAK256 SWAP2 AND DUP3 MSTORE DUP5 MSTORE KECCAK256 SLOAD SWAP1 MLOAD SWAP1 DUP2 MSTORE RETURN JUMPDEST POP DUP1 REVERT JUMPDEST POP DUP3 SWAP1 CALLVALUE PUSH2 0x216 JUMPI PUSH1 0xE0 CALLDATASIZE PUSH1 0x3 NOT ADD SLT PUSH2 0x216 JUMPI PUSH2 0x236 PUSH2 0xC22 JUMP JUMPDEST PUSH2 0x23E PUSH2 0xC3D JUMP JUMPDEST SWAP1 PUSH1 0x44 CALLDATALOAD SWAP3 PUSH1 0x64 CALLDATALOAD PUSH1 0x84 CALLDATALOAD PUSH1 0xFF DUP2 AND DUP2 SUB PUSH2 0x3CF JUMPI DUP2 TIMESTAMP GT PUSH2 0x38C JUMPI PUSH1 0x1 DUP1 PUSH1 0xA0 SHL SUB SWAP1 DUP2 DUP6 AND SWAP3 DUP4 DUP10 MSTORE PUSH1 0x7 PUSH1 0x20 MSTORE DUP10 DUP10 KECCAK256 SWAP1 DUP2 SLOAD SWAP2 PUSH1 0x1 DUP4 ADD SWAP1 SSTORE DUP11 MLOAD SWAP1 PUSH1 0x20 DUP3 ADD SWAP3 PUSH32 0x6E71EDAE12B1B97F4D1F60370FEF10105FA2FAAE0126114A169C64845D6126C9 DUP5 MSTORE DUP7 DUP14 DUP5 ADD MSTORE DUP6 DUP11 AND PUSH1 0x60 DUP5 ADD MSTORE DUP11 PUSH1 0x80 DUP5 ADD MSTORE PUSH1 0xA0 DUP4 ADD MSTORE PUSH1 0xC0 DUP3 ADD MSTORE PUSH1 0xC0 DUP2 MSTORE PUSH1 0xE0 DUP2 ADD DUP2 DUP2 LT PUSH8 0xFFFFFFFFFFFFFFFF DUP3 GT OR PUSH2 0x379 JUMPI DUP12 MSTORE MLOAD SWAP1 KECCAK256 PUSH2 0x321 SWAP2 PUSH2 0x319 SWAP2 PUSH2 0x2F3 PUSH2 0x1152 JUMP JUMPDEST SWAP1 DUP13 MLOAD SWAP2 PUSH2 0x1901 PUSH1 0xF0 SHL DUP4 MSTORE PUSH1 0x2 DUP4 ADD MSTORE PUSH1 0x22 DUP3 ADD MSTORE PUSH1 0xC4 CALLDATALOAD SWAP2 PUSH1 0x42 PUSH1 0xA4 CALLDATALOAD SWAP3 KECCAK256 PUSH2 0x10C3 JUMP JUMPDEST SWAP2 SWAP1 SWAP2 PUSH2 0xFA9 JUMP JUMPDEST AND SUB PUSH2 0x336 JUMPI POP PUSH2 0x333 SWAP4 SWAP5 POP PUSH2 0xEA7 JUMP JUMPDEST DUP1 RETURN JUMPDEST PUSH1 0x64 SWAP1 PUSH1 0x20 DUP8 MLOAD SWAP2 PUSH3 0x461BCD PUSH1 0xE5 SHL DUP4 MSTORE DUP3 ADD MSTORE PUSH1 0x1E PUSH1 0x24 DUP3 ADD MSTORE PUSH32 0x45524332305065726D69743A20696E76616C6964207369676E61747572650000 PUSH1 0x44 DUP3 ADD MSTORE REVERT JUMPDEST PUSH4 0x4E487B71 PUSH1 0xE0 SHL DUP12 MSTORE PUSH1 0x41 DUP8 MSTORE PUSH1 0x24 DUP12 REVERT JUMPDEST DUP8 MLOAD PUSH3 0x461BCD PUSH1 0xE5 SHL DUP2 MSTORE PUSH1 0x20 DUP2 DUP6 ADD MSTORE PUSH1 0x1D PUSH1 0x24 DUP3 ADD MSTORE PUSH32 0x45524332305065726D69743A206578706972656420646561646C696E65000000 PUSH1 0x44 DUP3 ADD MSTORE PUSH1 0x64 SWAP1 REVERT JUMPDEST DUP7 DUP1 REVERT JUMPDEST POP POP CALLVALUE PUSH2 0x216 JUMPI DUP2 PUSH1 0x3 NOT CALLDATASIZE ADD SLT PUSH2 0x216 JUMPI DUP1 MLOAD SWAP1 DUP3 PUSH1 0xA SLOAD PUSH2 0x3F5 DUP2 PUSH2 0xC53 JUMP JUMPDEST DUP1 DUP6 MSTORE SWAP2 PUSH1 0x1 SWAP2 DUP1 DUP4 AND SWAP1 DUP2 ISZERO PUSH2 0x494 JUMPI POP PUSH1 0x1 EQ PUSH2 0x437 JUMPI JUMPDEST POP POP POP PUSH2 0x421 DUP3 PUSH2 0x433 SWAP5 SUB DUP4 PUSH2 0xCBF JUMP JUMPDEST MLOAD SWAP2 DUP3 SWAP2 PUSH1 0x20 DUP4 MSTORE PUSH1 0x20 DUP4 ADD SWAP1 PUSH2 0xBE2 JUMP JUMPDEST SUB SWAP1 RETURN JUMPDEST SWAP5 POP PUSH1 0xA DUP6 MSTORE PUSH32 0xC65A7BB8D6351C1CF70C95A316CC6A92839C986682D98BC35F958F4883F9D2A8 JUMPDEST DUP3 DUP7 LT PUSH2 0x47C JUMPI POP POP POP PUSH2 0x421 DUP3 PUSH1 0x20 PUSH2 0x433 SWAP6 DUP3 ADD ADD SWAP5 PUSH2 0x40F JUMP JUMPDEST DUP1 SLOAD PUSH1 0x20 DUP8 DUP8 ADD DUP2 ADD SWAP2 SWAP1 SWAP2 MSTORE SWAP1 SWAP6 ADD SWAP5 DUP2 ADD PUSH2 0x45F JUMP JUMPDEST PUSH2 0x433 SWAP8 POP DUP7 SWAP4 POP PUSH1 0x20 SWAP3 POP PUSH2 0x421 SWAP5 SWAP2 POP PUSH1 0xFF NOT AND DUP3 DUP5 ADD MSTORE ISZERO ISZERO PUSH1 0x5 SHL DUP3 ADD ADD SWAP5 PUSH2 0x40F JUMP JUMPDEST POP POP CALLVALUE PUSH2 0x216 JUMPI DUP1 PUSH1 0x3 NOT CALLDATASIZE ADD SLT PUSH2 0x216 JUMPI PUSH1 0x20 SWAP1 PUSH2 0x4E6 PUSH2 0x4DC PUSH2 0xC22 JUMP JUMPDEST PUSH1 0x24 CALLDATALOAD SWAP1 CALLER PUSH2 0xD39 JUMP JUMPDEST MLOAD PUSH1 0x1 DUP2 MSTORE RETURN JUMPDEST POP DUP3 CALLVALUE PUSH2 0x591 JUMPI DUP3 PUSH1 0x3 NOT CALLDATASIZE ADD SLT PUSH2 0x591 JUMPI PUSH2 0x507 PUSH2 0xC22 JUMP JUMPDEST SWAP2 DUP4 PUSH1 0x24 CALLDATALOAD SWAP3 CALLER DUP2 MSTORE PUSH1 0x1 PUSH1 0x20 MSTORE DUP2 DUP2 KECCAK256 PUSH1 0x1 DUP1 PUSH1 0xA0 SHL SUB DUP7 AND DUP3 MSTORE PUSH1 0x20 MSTORE KECCAK256 SLOAD SWAP1 DUP3 DUP3 LT PUSH2 0x540 JUMPI PUSH1 0x20 DUP6 PUSH2 0x4E6 DUP6 DUP6 SUB DUP8 CALLER PUSH2 0xEA7 JUMP JUMPDEST PUSH1 0x84 SWAP1 PUSH1 0x20 DUP7 MLOAD SWAP2 PUSH3 0x461BCD PUSH1 0xE5 SHL DUP4 MSTORE DUP3 ADD MSTORE PUSH1 0x25 PUSH1 0x24 DUP3 ADD MSTORE PUSH32 0x45524332303A2064656372656173656420616C6C6F77616E63652062656C6F77 PUSH1 0x44 DUP3 ADD MSTORE PUSH5 0x207A65726F PUSH1 0xD8 SHL PUSH1 0x64 DUP3 ADD MSTORE REVERT JUMPDEST DUP1 REVERT JUMPDEST POP SWAP1 CALLVALUE PUSH2 0x1C9 JUMPI DUP3 PUSH1 0x3 NOT CALLDATASIZE ADD SLT PUSH2 0x1C9 JUMPI DUP1 MLOAD SWAP2 DUP4 DUP2 SLOAD SWAP1 PUSH2 0x5B6 DUP3 PUSH2 0xC53 JUMP JUMPDEST DUP1 DUP7 MSTORE SWAP3 PUSH1 0x1 SWAP3 DUP1 DUP5 AND SWAP1 DUP2 ISZERO PUSH2 0x63D JUMPI POP PUSH1 0x1 EQ PUSH2 0x5E1 JUMPI JUMPDEST PUSH2 0x433 DUP7 DUP7 PUSH2 0x421 DUP3 DUP12 SUB DUP4 PUSH2 0xCBF JUMP JUMPDEST DUP2 MSTORE SWAP5 POP PUSH32 0x8A35ACFBC15FF81A39AE7D344FD709F28E8600B4AA8C65C6B64BFE7FE36BD19B JUMPDEST DUP3 DUP7 LT PUSH2 0x625 JUMPI POP POP POP PUSH2 0x421 DUP3 PUSH1 0x20 PUSH2 0x433 SWAP6 DUP3 ADD ADD SWAP5 CODESIZE PUSH2 0x5D0 JUMP JUMPDEST DUP1 SLOAD PUSH1 0x20 DUP8 DUP8 ADD DUP2 ADD SWAP2 SWAP1 SWAP2 MSTORE SWAP1 SWAP6 ADD SWAP5 DUP2 ADD PUSH2 0x607 JUMP JUMPDEST SWAP1 POP PUSH2 0x433 SWAP8 POP DUP7 SWAP4 POP PUSH1 0x20 SWAP3 POP PUSH2 0x421 SWAP5 SWAP2 POP PUSH1 0xFF NOT AND DUP3 DUP5 ADD MSTORE ISZERO ISZERO PUSH1 0x5 SHL DUP3 ADD ADD SWAP5 CODESIZE PUSH2 0x5D0 JUMP JUMPDEST POP POP CALLVALUE PUSH2 0x216 JUMPI DUP2 PUSH1 0x3 NOT CALLDATASIZE ADD SLT PUSH2 0x216 JUMPI PUSH1 0x9 SLOAD SWAP1 MLOAD PUSH1 0x1 PUSH1 0x1 PUSH1 0xA0 SHL SUB SWAP1 SWAP2 AND DUP2 MSTORE PUSH1 0x20 SWAP1 RETURN JUMPDEST POP SWAP1 CALLVALUE PUSH2 0x1C9 JUMPI DUP3 PUSH1 0x3 NOT CALLDATASIZE ADD SLT PUSH2 0x1C9 JUMPI PUSH2 0x6CC PUSH32 0x0 PUSH2 0x127D JUMP JUMPDEST SWAP3 PUSH2 0x6F6 PUSH32 0x0 PUSH2 0x1379 JUMP JUMPDEST SWAP1 DUP3 MLOAD SWAP3 PUSH1 0x20 SWAP3 DUP4 DUP6 ADD SWAP6 DUP6 DUP8 LT PUSH8 0xFFFFFFFFFFFFFFFF DUP9 GT OR PUSH2 0x79B JUMPI POP SWAP3 DUP1 PUSH2 0x751 DUP4 DUP9 SWAP7 PUSH2 0x744 SWAP10 DUP12 SWAP10 SWAP7 MSTORE DUP7 DUP7 MSTORE DUP2 MLOAD SWAP10 DUP11 SWAP10 PUSH1 0xF PUSH1 0xF8 SHL DUP12 MSTORE PUSH1 0xE0 DUP7 DUP13 ADD MSTORE PUSH1 0xE0 DUP12 ADD SWAP1 PUSH2 0xBE2 JUMP JUMPDEST SWAP2 DUP10 DUP4 SUB SWAP1 DUP11 ADD MSTORE PUSH2 0xBE2 JUMP JUMPDEST SWAP3 CHAINID PUSH1 0x60 DUP9 ADD MSTORE ADDRESS PUSH1 0x80 DUP9 ADD MSTORE DUP5 PUSH1 0xA0 DUP9 ADD MSTORE DUP7 DUP5 SUB PUSH1 0xC0 DUP9 ADD MSTORE MLOAD SWAP3 DUP4 DUP2 MSTORE ADD SWAP4 SWAP3 JUMPDEST DUP3 DUP2 LT PUSH2 0x784 JUMPI POP POP POP POP SUB SWAP1 RETURN JUMPDEST DUP4 MLOAD DUP6 MSTORE DUP7 SWAP6 POP SWAP4 DUP2 ADD SWAP4 SWAP3 DUP2 ADD SWAP3 PUSH1 0x1 ADD PUSH2 0x775 JUMP JUMPDEST PUSH4 0x4E487B71 PUSH1 0xE0 SHL DUP5 MSTORE PUSH1 0x41 SWAP1 MSTORE PUSH1 0x24 DUP4 REVERT JUMPDEST POP POP CALLVALUE PUSH2 0x216 JUMPI PUSH1 0x20 CALLDATASIZE PUSH1 0x3 NOT ADD SLT PUSH2 0x216 JUMPI PUSH1 0x20 SWAP2 DUP2 SWAP1 PUSH1 0x1 PUSH1 0x1 PUSH1 0xA0 SHL SUB PUSH2 0x7D6 PUSH2 0xC22 JUMP JUMPDEST AND DUP2 MSTORE PUSH1 0x7 DUP5 MSTORE KECCAK256 SLOAD SWAP1 MLOAD SWAP1 DUP2 MSTORE RETURN JUMPDEST DUP4 CALLVALUE PUSH2 0x591 JUMPI DUP1 PUSH1 0x3 NOT CALLDATASIZE ADD SLT PUSH2 0x591 JUMPI PUSH2 0x7FF PUSH2 0xCE1 JUMP JUMPDEST PUSH1 0x9 DUP1 SLOAD PUSH1 0x1 PUSH1 0x1 PUSH1 0xA0 SHL SUB NOT DUP2 AND SWAP1 SWAP2 SSTORE DUP2 SWAP1 PUSH1 0x1 PUSH1 0x1 PUSH1 0xA0 SHL SUB AND PUSH32 0x8BE0079C531659141344CD1FD0A4F28419497F9722A3DAAFE3B4186F6B6457E0 DUP3 DUP1 LOG3 DUP1 RETURN JUMPDEST POP POP CALLVALUE PUSH2 0x216 JUMPI PUSH1 0x20 CALLDATASIZE PUSH1 0x3 NOT ADD SLT PUSH2 0x216 JUMPI PUSH1 0x20 SWAP2 DUP2 SWAP1 PUSH1 0x1 PUSH1 0x1 PUSH1 0xA0 SHL SUB PUSH2 0x86B PUSH2 0xC22 JUMP JUMPDEST AND DUP2 MSTORE DUP1 DUP5 MSTORE KECCAK256 SLOAD SWAP1 MLOAD SWAP1 DUP2 MSTORE RETURN JUMPDEST DUP3 DUP5 CALLVALUE PUSH2 0x591 JUMPI DUP1 PUSH1 0x3 NOT CALLDATASIZE ADD SLT PUSH2 0x591 JUMPI DUP2 MLOAD SWAP2 DUP3 PUSH1 0x20 SWAP3 PUSH7 0x697066733A2F2F PUSH1 0xC8 SHL DUP5 DUP4 ADD MSTORE DUP1 PUSH1 0xA SLOAD SWAP1 PUSH2 0x8B0 DUP3 PUSH2 0xC53 JUMP JUMPDEST SWAP2 PUSH1 0x1 SWAP1 DUP2 DUP2 AND SWAP1 DUP2 ISZERO PUSH2 0x955 JUMPI POP PUSH1 0x1 EQ PUSH2 0x8F0 JUMPI JUMPDEST POP POP POP PUSH2 0x433 SWAP3 SWAP2 PUSH2 0x8E1 SWAP2 SUB PUSH1 0x1F NOT DUP2 ADD DUP7 MSTORE DUP6 PUSH2 0xCBF JUMP JUMPDEST MLOAD SWAP3 DUP3 DUP5 SWAP4 DUP5 MSTORE DUP4 ADD SWAP1 PUSH2 0xBE2 JUMP JUMPDEST DUP7 SWAP6 SWAP5 SWAP4 POP PUSH1 0xA DUP3 MSTORE PUSH32 0xC65A7BB8D6351C1CF70C95A316CC6A92839C986682D98BC35F958F4883F9D2A8 JUMPDEST DUP4 DUP4 LT PUSH2 0x93C JUMPI POP SWAP4 SWAP5 POP SWAP2 SWAP3 POP DUP3 ADD PUSH1 0x27 ADD SWAP1 POP DUP2 PUSH2 0x8E1 PUSH2 0x433 PUSH2 0x8C7 JUMP JUMPDEST DUP1 SLOAD PUSH1 0x27 DUP5 DUP12 ADD ADD MSTORE DUP8 SWAP7 DUP10 SWAP6 POP SWAP1 SWAP3 ADD SWAP2 DUP2 ADD PUSH2 0x91B JUMP JUMPDEST SWAP1 POP PUSH2 0x8E1 SWAP5 POP PUSH1 0x27 SWAP3 POP PUSH2 0x433 SWAP7 SWAP6 SWAP4 SWAP2 POP PUSH1 0xFF NOT AND DUP3 DUP5 ADD MSTORE DUP1 ISZERO ISZERO MUL DUP3 ADD ADD SWAP2 DUP2 SWAP4 SWAP5 PUSH2 0x8C7 JUMP JUMPDEST POP SWAP2 CALLVALUE PUSH2 0x591 JUMPI DUP2 PUSH1 0x3 NOT CALLDATASIZE ADD SLT PUSH2 0x591 JUMPI PUSH2 0x99A PUSH2 0xC22 JUMP JUMPDEST CALLER DUP3 MSTORE PUSH1 0x1 PUSH1 0x20 SWAP1 DUP2 MSTORE DUP4 DUP4 KECCAK256 PUSH1 0x1 PUSH1 0x1 PUSH1 0xA0 SHL SUB DUP4 AND DUP5 MSTORE SWAP1 MSTORE DUP3 DUP3 KECCAK256 SLOAD PUSH1 0x24 CALLDATALOAD DUP2 ADD SWAP3 SWAP1 DUP4 LT PUSH2 0x9D4 JUMPI PUSH1 0x20 DUP5 PUSH2 0x4E6 DUP6 DUP6 CALLER PUSH2 0xEA7 JUMP JUMPDEST PUSH4 0x4E487B71 PUSH1 0xE0 SHL DUP2 MSTORE PUSH1 0x11 DUP6 MSTORE PUSH1 0x24 SWAP1 REVERT JUMPDEST POP POP CALLVALUE PUSH2 0x216 JUMPI DUP2 PUSH1 0x3 NOT CALLDATASIZE ADD SLT PUSH2 0x216 JUMPI PUSH1 0x20 SWAP1 PUSH2 0xA04 PUSH2 0x1152 JUMP JUMPDEST SWAP1 MLOAD SWAP1 DUP2 MSTORE RETURN JUMPDEST POP POP CALLVALUE PUSH2 0x216 JUMPI DUP2 PUSH1 0x3 NOT CALLDATASIZE ADD SLT PUSH2 0x216 JUMPI PUSH1 0x20 SWAP1 MLOAD PUSH1 0x12 DUP2 MSTORE RETURN JUMPDEST POP DUP3 SWAP1 CALLVALUE PUSH2 0x216 JUMPI PUSH1 0x60 CALLDATASIZE PUSH1 0x3 NOT ADD SLT PUSH2 0x216 JUMPI PUSH2 0xA43 PUSH2 0xC22 JUMP JUMPDEST PUSH2 0xA4B PUSH2 0xC3D JUMP JUMPDEST SWAP2 DUP5 PUSH1 0x44 CALLDATALOAD SWAP5 PUSH1 0x1 DUP1 PUSH1 0xA0 SHL SUB DUP5 AND DUP2 MSTORE PUSH1 0x1 PUSH1 0x20 MSTORE DUP2 DUP2 KECCAK256 CALLER DUP3 MSTORE PUSH1 0x20 MSTORE KECCAK256 SLOAD SWAP1 PUSH1 0x0 NOT DUP3 SUB PUSH2 0xA85 JUMPI JUMPDEST PUSH1 0x20 DUP7 PUSH2 0x4E6 DUP8 DUP8 DUP8 PUSH2 0xD39 JUMP JUMPDEST DUP5 DUP3 LT PUSH2 0xAAE JUMPI POP SWAP2 DUP4 SWAP2 PUSH2 0xAA3 PUSH1 0x20 SWAP7 SWAP6 PUSH2 0x4E6 SWAP6 SUB CALLER DUP4 PUSH2 0xEA7 JUMP JUMPDEST SWAP2 SWAP4 SWAP5 DUP2 SWAP4 POP PUSH2 0xA77 JUMP JUMPDEST PUSH1 0x64 SWAP1 PUSH1 0x20 DUP8 MLOAD SWAP2 PUSH3 0x461BCD PUSH1 0xE5 SHL DUP4 MSTORE DUP3 ADD MSTORE PUSH1 0x1D PUSH1 0x24 DUP3 ADD MSTORE PUSH32 0x45524332303A20696E73756666696369656E7420616C6C6F77616E6365000000 PUSH1 0x44 DUP3 ADD MSTORE REVERT JUMPDEST POP POP CALLVALUE PUSH2 0x216 JUMPI DUP2 PUSH1 0x3 NOT CALLDATASIZE ADD SLT PUSH2 0x216 JUMPI PUSH1 0x20 SWAP1 PUSH1 0x2 SLOAD SWAP1 MLOAD SWAP1 DUP2 MSTORE RETURN JUMPDEST POP POP CALLVALUE PUSH2 0x216 JUMPI DUP1 PUSH1 0x3 NOT CALLDATASIZE ADD SLT PUSH2 0x216 JUMPI PUSH1 0x20 SWAP1 PUSH2 0x4E6 PUSH2 0xB30 PUSH2 0xC22 JUMP JUMPDEST PUSH1 0x24 CALLDATALOAD SWAP1 CALLER PUSH2 0xEA7 JUMP JUMPDEST DUP5 SWAP1 DUP5 CALLVALUE PUSH2 0x1C9 JUMPI DUP3 PUSH1 0x3 NOT CALLDATASIZE ADD SLT PUSH2 0x1C9 JUMPI DUP3 PUSH1 0x3 SLOAD PUSH2 0xB5A DUP2 PUSH2 0xC53 JUMP JUMPDEST DUP1 DUP6 MSTORE SWAP2 PUSH1 0x1 SWAP2 DUP1 DUP4 AND SWAP1 DUP2 ISZERO PUSH2 0x494 JUMPI POP PUSH1 0x1 EQ PUSH2 0xB85 JUMPI POP POP POP PUSH2 0x421 DUP3 PUSH2 0x433 SWAP5 SUB DUP4 PUSH2 0xCBF JUMP JUMPDEST SWAP5 POP PUSH1 0x3 DUP6 MSTORE PUSH32 0xC2575A0E9E593C00F959F8C92F12DB2869C3395A3B0502D05E2516446F71F85B JUMPDEST DUP3 DUP7 LT PUSH2 0xBCA JUMPI POP POP POP PUSH2 0x421 DUP3 PUSH1 0x20 PUSH2 0x433 SWAP6 DUP3 ADD ADD SWAP5 PUSH2 0x40F JUMP JUMPDEST DUP1 SLOAD PUSH1 0x20 DUP8 DUP8 ADD DUP2 ADD SWAP2 SWAP1 SWAP2 MSTORE SWAP1 SWAP6 ADD SWAP5 DUP2 ADD PUSH2 0xBAD JUMP JUMPDEST SWAP2 SWAP1 DUP3 MLOAD SWAP3 DUP4 DUP3 MSTORE PUSH1 0x0 JUMPDEST DUP5 DUP2 LT PUSH2 0xC0E JUMPI POP POP DUP3 PUSH1 0x0 PUSH1 0x20 DUP1 SWAP5 SWAP6 DUP5 ADD ADD MSTORE PUSH1 0x1F DUP1 NOT SWAP2 ADD AND ADD ADD SWAP1 JUMP JUMPDEST PUSH1 0x20 DUP2 DUP4 ADD DUP2 ADD MLOAD DUP5 DUP4 ADD DUP3 ADD MSTORE ADD PUSH2 0xBED JUMP JUMPDEST PUSH1 0x4 CALLDATALOAD SWAP1 PUSH1 0x1 PUSH1 0x1 PUSH1 0xA0 SHL SUB DUP3 AND DUP3 SUB PUSH2 0xC38 JUMPI JUMP JUMPDEST PUSH1 0x0 DUP1 REVERT JUMPDEST PUSH1 0x24 CALLDATALOAD SWAP1 PUSH1 0x1 PUSH1 0x1 PUSH1 0xA0 SHL SUB DUP3 AND DUP3 SUB PUSH2 0xC38 JUMPI JUMP JUMPDEST SWAP1 PUSH1 0x1 DUP3 DUP2 SHR SWAP3 AND DUP1 ISZERO PUSH2 0xC83 JUMPI JUMPDEST PUSH1 0x20 DUP4 LT EQ PUSH2 0xC6D JUMPI JUMP JUMPDEST PUSH4 0x4E487B71 PUSH1 0xE0 SHL PUSH1 0x0 MSTORE PUSH1 0x22 PUSH1 0x4 MSTORE PUSH1 0x24 PUSH1 0x0 REVERT JUMPDEST SWAP2 PUSH1 0x7F AND SWAP2 PUSH2 0xC62 JUMP JUMPDEST PUSH1 0x40 DUP2 ADD SWAP1 DUP2 LT PUSH8 0xFFFFFFFFFFFFFFFF DUP3 GT OR PUSH2 0xCA9 JUMPI PUSH1 0x40 MSTORE JUMP JUMPDEST PUSH4 0x4E487B71 PUSH1 0xE0 SHL PUSH1 0x0 MSTORE PUSH1 0x41 PUSH1 0x4 MSTORE PUSH1 0x24 PUSH1 0x0 REVERT JUMPDEST SWAP1 PUSH1 0x1F DUP1 NOT SWAP2 ADD AND DUP2 ADD SWAP1 DUP2 LT PUSH8 0xFFFFFFFFFFFFFFFF DUP3 GT OR PUSH2 0xCA9 JUMPI PUSH1 0x40 MSTORE JUMP JUMPDEST PUSH1 0x9 SLOAD PUSH1 0x1 PUSH1 0x1 PUSH1 0xA0 SHL SUB AND CALLER SUB PUSH2 0xCF5 JUMPI JUMP JUMPDEST PUSH1 0x64 PUSH1 0x40 MLOAD PUSH3 0x461BCD PUSH1 0xE5 SHL DUP2 MSTORE PUSH1 0x20 PUSH1 0x4 DUP3 ADD MSTORE PUSH1 0x20 PUSH1 0x24 DUP3 ADD MSTORE PUSH32 0x4F776E61626C653A2063616C6C6572206973206E6F7420746865206F776E6572 PUSH1 0x44 DUP3 ADD MSTORE REVERT JUMPDEST PUSH1 0x1 PUSH1 0x1 PUSH1 0xA0 SHL SUB SWAP1 DUP2 AND SWAP2 DUP3 ISZERO PUSH2 0xE54 JUMPI AND SWAP2 DUP3 ISZERO PUSH2 0xE03 JUMPI PUSH1 0x0 DUP3 DUP2 MSTORE DUP1 PUSH1 0x20 MSTORE PUSH1 0x40 DUP2 KECCAK256 SLOAD SWAP2 DUP1 DUP4 LT PUSH2 0xDAF JUMPI PUSH1 0x40 DUP3 DUP3 PUSH32 0xDDF252AD1BE2C89B69C2B068FC378DAA952BA7F163C4A11628F55A4DF523B3EF SWAP6 DUP8 PUSH1 0x20 SWAP7 MSTORE DUP3 DUP7 MSTORE SUB DUP3 DUP3 KECCAK256 SSTORE DUP7 DUP2 MSTORE KECCAK256 DUP2 DUP2 SLOAD ADD SWAP1 SSTORE PUSH1 0x40 MLOAD SWAP1 DUP2 MSTORE LOG3 JUMP JUMPDEST PUSH1 0x40 MLOAD PUSH3 0x461BCD PUSH1 0xE5 SHL DUP2 MSTORE PUSH1 0x20 PUSH1 0x4 DUP3 ADD MSTORE PUSH1 0x26 PUSH1 0x24 DUP3 ADD MSTORE PUSH32 0x45524332303A207472616E7366657220616D6F756E7420657863656564732062 PUSH1 0x44 DUP3 ADD MSTORE PUSH6 0x616C616E6365 PUSH1 0xD0 SHL PUSH1 0x64 DUP3 ADD MSTORE PUSH1 0x84 SWAP1 REVERT JUMPDEST PUSH1 0x40 MLOAD PUSH3 0x461BCD PUSH1 0xE5 SHL DUP2 MSTORE PUSH1 0x20 PUSH1 0x4 DUP3 ADD MSTORE PUSH1 0x23 PUSH1 0x24 DUP3 ADD MSTORE PUSH32 0x45524332303A207472616E7366657220746F20746865207A65726F2061646472 PUSH1 0x44 DUP3 ADD MSTORE PUSH3 0x657373 PUSH1 0xE8 SHL PUSH1 0x64 DUP3 ADD MSTORE PUSH1 0x84 SWAP1 REVERT JUMPDEST PUSH1 0x40 MLOAD PUSH3 0x461BCD PUSH1 0xE5 SHL DUP2 MSTORE PUSH1 0x20 PUSH1 0x4 DUP3 ADD MSTORE PUSH1 0x25 PUSH1 0x24 DUP3 ADD MSTORE PUSH32 0x45524332303A207472616E736665722066726F6D20746865207A65726F206164 PUSH1 0x44 DUP3 ADD MSTORE PUSH5 0x6472657373 PUSH1 0xD8 SHL PUSH1 0x64 DUP3 ADD MSTORE PUSH1 0x84 SWAP1 REVERT JUMPDEST PUSH1 0x1 PUSH1 0x1 PUSH1 0xA0 SHL SUB SWAP1 DUP2 AND SWAP2 DUP3 ISZERO PUSH2 0xF58 JUMPI AND SWAP2 DUP3 ISZERO PUSH2 0xF08 JUMPI PUSH1 0x20 PUSH32 0x8C5BE1E5EBEC7D5BD14F71427D1E84F3DD0314C0F7B2291E5B200AC8C7C3B925 SWAP2 DUP4 PUSH1 0x0 MSTORE PUSH1 0x1 DUP3 MSTORE PUSH1 0x40 PUSH1 0x0 KECCAK256 DUP6 PUSH1 0x0 MSTORE DUP3 MSTORE DUP1 PUSH1 0x40 PUSH1 0x0 KECCAK256 SSTORE PUSH1 0x40 MLOAD SWAP1 DUP2 MSTORE LOG3 JUMP JUMPDEST PUSH1 0x40 MLOAD PUSH3 0x461BCD PUSH1 0xE5 SHL DUP2 MSTORE PUSH1 0x20 PUSH1 0x4 DUP3 ADD MSTORE PUSH1 0x22 PUSH1 0x24 DUP3 ADD MSTORE PUSH32 0x45524332303A20617070726F766520746F20746865207A65726F206164647265 PUSH1 0x44 DUP3 ADD MSTORE PUSH2 0x7373 PUSH1 0xF0 SHL PUSH1 0x64 DUP3 ADD MSTORE PUSH1 0x84 SWAP1 REVERT JUMPDEST PUSH1 0x40 MLOAD PUSH3 0x461BCD PUSH1 0xE5 SHL DUP2 MSTORE PUSH1 0x20 PUSH1 0x4 DUP3 ADD MSTORE PUSH1 0x24 DUP1 DUP3 ADD MSTORE PUSH32 0x45524332303A20617070726F76652066726F6D20746865207A65726F20616464 PUSH1 0x44 DUP3 ADD MSTORE PUSH4 0x72657373 PUSH1 0xE0 SHL PUSH1 0x64 DUP3 ADD MSTORE PUSH1 0x84 SWAP1 REVERT JUMPDEST PUSH1 0x5 DUP2 LT ISZERO PUSH2 0x10AD JUMPI DUP1 PUSH2 0xFBA JUMPI POP JUMP JUMPDEST PUSH1 0x1 DUP2 SUB PUSH2 0x1007 JUMPI PUSH1 0x40 MLOAD PUSH3 0x461BCD PUSH1 0xE5 SHL DUP2 MSTORE PUSH1 0x20 PUSH1 0x4 DUP3 ADD MSTORE PUSH1 0x18 PUSH1 0x24 DUP3 ADD MSTORE PUSH32 0x45434453413A20696E76616C6964207369676E61747572650000000000000000 PUSH1 0x44 DUP3 ADD MSTORE PUSH1 0x64 SWAP1 REVERT JUMPDEST PUSH1 0x2 DUP2 SUB PUSH2 0x1054 JUMPI PUSH1 0x40 MLOAD PUSH3 0x461BCD PUSH1 0xE5 SHL DUP2 MSTORE PUSH1 0x20 PUSH1 0x4 DUP3 ADD MSTORE PUSH1 0x1F PUSH1 0x24 DUP3 ADD MSTORE PUSH32 0x45434453413A20696E76616C6964207369676E6174757265206C656E67746800 PUSH1 0x44 DUP3 ADD MSTORE PUSH1 0x64 SWAP1 REVERT JUMPDEST PUSH1 0x3 EQ PUSH2 0x105D JUMPI JUMP JUMPDEST PUSH1 0x40 MLOAD PUSH3 0x461BCD PUSH1 0xE5 SHL DUP2 MSTORE PUSH1 0x20 PUSH1 0x4 DUP3 ADD MSTORE PUSH1 0x22 PUSH1 0x24 DUP3 ADD MSTORE PUSH32 0x45434453413A20696E76616C6964207369676E6174757265202773272076616C PUSH1 0x44 DUP3 ADD MSTORE PUSH2 0x7565 PUSH1 0xF0 SHL PUSH1 0x64 DUP3 ADD MSTORE PUSH1 0x84 SWAP1 REVERT JUMPDEST PUSH4 0x4E487B71 PUSH1 0xE0 SHL PUSH1 0x0 MSTORE PUSH1 0x21 PUSH1 0x4 MSTORE PUSH1 0x24 PUSH1 0x0 REVERT JUMPDEST SWAP3 SWAP2 SWAP1 PUSH32 0x7FFFFFFFFFFFFFFFFFFFFFFFFFFFFFFF5D576E7357A4501DDFE92F46681B20A0 DUP4 GT PUSH2 0x1146 JUMPI SWAP2 PUSH1 0x80 SWAP5 SWAP4 SWAP2 PUSH1 0xFF PUSH1 0x20 SWAP5 PUSH1 0x40 MLOAD SWAP5 DUP6 MSTORE AND DUP5 DUP5 ADD MSTORE PUSH1 0x40 DUP4 ADD MSTORE PUSH1 0x60 DUP3 ADD MSTORE PUSH1 0x0 SWAP4 DUP5 SWAP2 DUP3 DUP1 MSTORE PUSH1 0x1 GAS STATICCALL ISZERO PUSH2 0x1139 JUMPI DUP2 MLOAD PUSH1 0x1 PUSH1 0x1 PUSH1 0xA0 SHL SUB DUP2 AND ISZERO PUSH2 0x1133 JUMPI SWAP2 SWAP1 JUMP JUMPDEST POP PUSH1 0x1 SWAP1 JUMP JUMPDEST POP PUSH1 0x40 MLOAD SWAP1 RETURNDATASIZE SWAP1 DUP3 RETURNDATACOPY RETURNDATASIZE SWAP1 REVERT JUMPDEST POP POP POP POP PUSH1 0x0 SWAP1 PUSH1 0x3 SWAP1 JUMP JUMPDEST ADDRESS PUSH32 0x0 PUSH1 0x1 PUSH1 0x1 PUSH1 0xA0 SHL SUB AND EQ DUP1 PUSH2 0x1254 JUMPI JUMPDEST ISZERO PUSH2 0x11AD JUMPI PUSH32 0x0 SWAP1 JUMP JUMPDEST PUSH1 0x40 MLOAD PUSH1 0x20 DUP2 ADD SWAP1 PUSH32 0x8B73C3C69BB8FE3D512ECC4CF759CC79239F7B179B0FFACAA9A75D522B39400F DUP3 MSTORE PUSH32 0x0 PUSH1 0x40 DUP3 ADD MSTORE PUSH32 0x0 PUSH1 0x60 DUP3 ADD MSTORE CHAINID PUSH1 0x80 DUP3 ADD MSTORE ADDRESS PUSH1 0xA0 DUP3 ADD MSTORE PUSH1 0xA0 DUP2 MSTORE PUSH1 0xC0 DUP2 ADD DUP2 DUP2 LT PUSH8 0xFFFFFFFFFFFFFFFF DUP3 GT OR PUSH2 0xCA9 JUMPI PUSH1 0x40 MSTORE MLOAD SWAP1 KECCAK256 SWAP1 JUMP JUMPDEST POP PUSH32 0x0 CHAINID EQ PUSH2 0x1184 JUMP JUMPDEST PUSH1 0xFF DUP2 EQ PUSH2 0x12BB JUMPI PUSH1 0xFF DUP2 AND SWAP1 PUSH1 0x1F DUP3 GT PUSH2 0x12A9 JUMPI PUSH1 0x40 MLOAD SWAP2 PUSH2 0x129F DUP4 PUSH2 0xC8D JUMP JUMPDEST DUP3 MSTORE PUSH1 0x20 DUP3 ADD MSTORE SWAP1 JUMP JUMPDEST PUSH1 0x40 MLOAD PUSH4 0x2CD44AC3 PUSH1 0xE2 SHL DUP2 MSTORE PUSH1 0x4 SWAP1 REVERT JUMPDEST POP PUSH1 0x40 MLOAD PUSH1 0x5 SLOAD DUP2 PUSH1 0x0 PUSH2 0x12CE DUP4 PUSH2 0xC53 JUMP JUMPDEST DUP1 DUP4 MSTORE SWAP3 PUSH1 0x1 SWAP1 DUP2 DUP2 AND SWAP1 DUP2 ISZERO PUSH2 0x1357 JUMPI POP PUSH1 0x1 EQ PUSH2 0x12F8 JUMPI JUMPDEST POP PUSH2 0x12F5 SWAP3 POP SUB DUP3 PUSH2 0xCBF JUMP JUMPDEST SWAP1 JUMP JUMPDEST PUSH1 0x5 PUSH1 0x0 SWAP1 DUP2 MSTORE SWAP2 POP PUSH32 0x36B6384B5ECA791C62761152D0C79BB0604C104A5FB6F4EB0703F3154BB3DB0 JUMPDEST DUP5 DUP4 LT PUSH2 0x133C JUMPI POP PUSH2 0x12F5 SWAP4 POP POP DUP2 ADD PUSH1 0x20 ADD CODESIZE PUSH2 0x12E8 JUMP JUMPDEST DUP2 SWAP4 POP SWAP1 DUP2 PUSH1 0x20 SWAP3 SLOAD DUP4 DUP6 DUP10 ADD ADD MSTORE ADD SWAP2 ADD SWAP1 SWAP2 DUP5 SWAP3 PUSH2 0x1323 JUMP JUMPDEST SWAP1 POP PUSH1 0x20 SWAP3 POP PUSH2 0x12F5 SWAP5 SWAP2 POP PUSH1 0xFF NOT AND DUP3 DUP5 ADD MSTORE ISZERO ISZERO PUSH1 0x5 SHL DUP3 ADD ADD CODESIZE PUSH2 0x12E8 JUMP JUMPDEST PUSH1 0xFF DUP2 EQ PUSH2 0x139B JUMPI PUSH1 0xFF DUP2 AND SWAP1 PUSH1 0x1F DUP3 GT PUSH2 0x12A9 JUMPI PUSH1 0x40 MLOAD SWAP2 PUSH2 0x129F DUP4 PUSH2 0xC8D JUMP JUMPDEST POP PUSH1 0x40 MLOAD PUSH1 0x6 SLOAD DUP2 PUSH1 0x0 PUSH2 0x13AE DUP4 PUSH2 0xC53 JUMP JUMPDEST DUP1 DUP4 MSTORE SWAP3 PUSH1 0x1 SWAP1 DUP2 DUP2 AND SWAP1 DUP2 ISZERO PUSH2 0x1357 JUMPI POP PUSH1 0x1 EQ PUSH2 0x13D4 JUMPI POP PUSH2 0x12F5 SWAP3 POP SUB DUP3 PUSH2 0xCBF JUMP JUMPDEST PUSH1 0x6 PUSH1 0x0 SWAP1 DUP2 MSTORE SWAP2 POP PUSH32 0xF652222313E28459528D920B65115C16C04F3EFC82AAEDC97BE59F3F377C0D3F JUMPDEST DUP5 DUP4 LT PUSH2 0x1418 JUMPI POP PUSH2 0x12F5 SWAP4 POP POP DUP2 ADD PUSH1 0x20 ADD CODESIZE PUSH2 0x12E8 JUMP JUMPDEST DUP2 SWAP4 POP SWAP1 DUP2 PUSH1 0x20 SWAP3 SLOAD DUP4 DUP6 DUP10 ADD ADD MSTORE ADD SWAP2 ADD SWAP1 SWAP2 DUP5 SWAP3 PUSH2 0x13FF JUMP INVALID LOG1 PUSH5 0x736F6C6343 STOP ADDMOD EQ STOP EXP 0xC6 GAS PUSH28 0xB8D6351C1CF70C95A316CC6A92839C986682D98BC35F958F4883F9D2 0xA8 PUSH2 0x100 CALLVALUE PUSH2 0xCC JUMPI PUSH1 0x1F PUSH2 0x78E CODESIZE DUP2 SWAP1 SUB SWAP2 DUP3 ADD PUSH1 0x1F NOT AND DUP4 ADD SWAP2 PUSH1 0x1 PUSH1 0x1 PUSH1 0x40 SHL SUB DUP4 GT DUP5 DUP5 LT OR PUSH2 0xD1 JUMPI DUP1 DUP5 SWAP3 PUSH1 0x80 SWAP5 PUSH1 0x40 MSTORE DUP4 CODECOPY DUP2 ADD SUB SLT PUSH2 0xCC JUMPI DUP1 MLOAD SWAP1 PUSH1 0x1 PUSH1 0x1 PUSH1 0xA0 SHL SUB DUP1 DUP4 AND DUP4 SUB PUSH2 0xCC JUMPI PUSH1 0x20 DUP3 ADD MLOAD SWAP1 DUP2 AND DUP2 SUB PUSH2 0xCC JUMPI PUSH1 0x60 PUSH1 0x40 DUP4 ADD MLOAD SWAP3 ADD MLOAD SWAP3 PUSH1 0x80 MSTORE PUSH1 0xA0 MSTORE PUSH1 0xC0 MSTORE PUSH1 0xE0 MSTORE PUSH1 0x40 MLOAD PUSH2 0x6A6 SWAP1 DUP2 PUSH2 0xE8 DUP3 CODECOPY PUSH1 0x80 MLOAD DUP2 DUP2 DUP2 PUSH1 0x85 ADD MSTORE DUP2 DUP2 PUSH2 0x1A9 ADD MSTORE PUSH2 0x57C ADD MSTORE PUSH1 0xA0 MLOAD DUP2 DUP2 DUP2 PUSH2 0x15A ADD MSTORE PUSH2 0x3BC ADD MSTORE PUSH1 0xC0 MLOAD DUP2 DUP2 DUP2 PUSH1 0xCF ADD MSTORE PUSH2 0x5E6 ADD MSTORE PUSH1 0xE0 MLOAD DUP2 DUP2 DUP2 PUSH2 0x402 ADD MSTORE PUSH2 0x5C4 ADD MSTORE RETURN JUMPDEST PUSH1 0x0 DUP1 REVERT JUMPDEST PUSH4 0x4E487B71 PUSH1 0xE0 SHL PUSH1 0x0 MSTORE PUSH1 0x41 PUSH1 0x4 MSTORE PUSH1 0x24 PUSH1 0x0 REVERT INVALID PUSH1 0x80 PUSH1 0x40 DUP2 DUP2 MSTORE PUSH1 0x4 SWAP2 DUP3 CALLDATASIZE LT ISZERO PUSH2 0x16 JUMPI PUSH1 0x0 DUP1 REVERT JUMPDEST PUSH1 0x0 SWAP3 DUP4 CALLDATALOAD PUSH1 0xE0 SHR SWAP2 DUP3 PUSH4 0xFB5A6B4 EQ PUSH2 0x3EB JUMPI POP DUP2 PUSH4 0x38AF3EED EQ PUSH2 0x3A7 JUMPI DUP2 PUSH4 0x44B1231F EQ PUSH2 0x383 JUMPI DUP2 PUSH4 0x86D1A69F EQ PUSH2 0x10E JUMPI POP DUP1 PUSH4 0x96132521 EQ PUSH2 0xF2 JUMPI DUP1 PUSH4 0xBE9A6555 EQ PUSH2 0xB8 JUMPI PUSH4 0xFC0C546A EQ PUSH2 0x72 JUMPI PUSH1 0x0 DUP1 REVERT JUMPDEST CALLVALUE PUSH2 0xB4 JUMPI DUP2 PUSH1 0x3 NOT CALLDATASIZE ADD SLT PUSH2 0xB4 JUMPI MLOAD PUSH32 0x0 PUSH1 0x1 PUSH1 0x1 PUSH1 0xA0 SHL SUB AND DUP2 MSTORE PUSH1 0x20 SWAP1 RETURN JUMPDEST POP DUP1 REVERT JUMPDEST POP CALLVALUE PUSH2 0xB4 JUMPI DUP2 PUSH1 0x3 NOT CALLDATASIZE ADD SLT PUSH2 0xB4 JUMPI PUSH1 0x20 SWAP1 MLOAD PUSH32 0x0 DUP2 MSTORE RETURN JUMPDEST POP CALLVALUE PUSH2 0xB4 JUMPI DUP2 PUSH1 0x3 NOT CALLDATASIZE ADD SLT PUSH2 0xB4 JUMPI PUSH1 0x20 SWAP2 SLOAD SWAP1 MLOAD SWAP1 DUP2 MSTORE RETURN JUMPDEST SWAP2 SWAP1 POP CALLVALUE PUSH2 0x37F JUMPI DUP3 PUSH1 0x3 NOT CALLDATASIZE ADD SLT PUSH2 0x37F JUMPI PUSH2 0x129 PUSH2 0x561 JUMP JUMPDEST SWAP2 PUSH2 0x135 DUP5 SLOAD DUP5 PUSH2 0x425 JUMP JUMPDEST SWAP3 DUP4 ISZERO PUSH2 0x351 JUMPI DUP5 SSTORE DUP2 MLOAD PUSH4 0xA9059CBB PUSH1 0xE0 SHL PUSH1 0x20 DUP1 DUP4 ADD SWAP2 DUP3 MSTORE PUSH1 0x1 PUSH1 0x1 PUSH1 0xA0 SHL SUB PUSH32 0x0 DUP2 AND PUSH1 0x24 DUP6 ADD MSTORE PUSH1 0x44 DUP1 DUP6 ADD DUP9 SWAP1 MSTORE DUP5 MSTORE SWAP1 SWAP4 SWAP3 PUSH1 0x80 DUP2 ADD SWAP3 PUSH8 0xFFFFFFFFFFFFFFFF SWAP3 DUP3 DUP6 LT DUP5 DUP7 GT OR PUSH2 0x33E JUMPI PUSH32 0x0 AND SWAP2 PUSH1 0xC0 DUP2 ADD DUP6 DUP2 LT DUP6 DUP3 GT OR PUSH2 0x32B JUMPI DUP9 MSTORE DUP7 DUP6 MSTORE PUSH32 0x5361666545524332303A206C6F772D6C6576656C2063616C6C206661696C6564 PUSH1 0xA0 DUP3 ADD MSTORE MLOAD DUP10 SWAP2 DUP3 SWAP2 SWAP1 DUP3 DUP6 GAS CALL SWAP1 RETURNDATASIZE ISZERO PUSH2 0x31C JUMPI RETURNDATASIZE SWAP3 DUP4 GT PUSH2 0x309 JUMPI SWAP1 PUSH2 0x247 SWAP4 SWAP3 SWAP2 DUP8 MLOAD SWAP3 PUSH2 0x23A DUP9 PUSH1 0x1F NOT PUSH1 0x1F DUP5 ADD AND ADD DUP6 PUSH2 0x448 JUMP JUMPDEST DUP4 MSTORE RETURNDATASIZE DUP11 DUP9 DUP6 ADD RETURNDATACOPY PUSH2 0x480 JUMP JUMPDEST DUP1 MLOAD DUP4 DUP2 ISZERO SWAP2 DUP3 ISZERO PUSH2 0x2E5 JUMPI JUMPDEST POP POP SWAP1 POP ISZERO PUSH2 0x291 JUMPI POP SWAP1 PUSH32 0xC35BC0B152CC4084B62942D2235605F7E5DB6FC6217BC7EF532BA71ACF7A58CE SWAP2 DUP2 MLOAD SWAP4 DUP5 MSTORE TIMESTAMP SWAP1 DUP5 ADD MSTORE ADDRESS SWAP3 LOG2 DUP1 RETURN JUMPDEST SWAP2 MLOAD PUSH3 0x461BCD PUSH1 0xE5 SHL DUP2 MSTORE SWAP2 DUP3 ADD MSTORE PUSH1 0x2A PUSH1 0x24 DUP3 ADD MSTORE PUSH32 0x5361666545524332303A204552433230206F7065726174696F6E20646964206E PUSH1 0x44 DUP3 ADD MSTORE PUSH10 0x1BDD081CDD58D8D95959 PUSH1 0xB2 SHL PUSH1 0x64 DUP3 ADD MSTORE PUSH1 0x84 SWAP1 REVERT JUMPDEST DUP4 DUP1 SWAP3 SWAP4 POP ADD SUB SLT PUSH2 0x305 JUMPI DUP3 ADD MLOAD DUP1 ISZERO ISZERO DUP2 SUB PUSH2 0x305 JUMPI DUP1 DUP4 CODESIZE PUSH2 0x254 JUMP JUMPDEST DUP6 DUP1 REVERT JUMPDEST PUSH4 0x4E487B71 PUSH1 0xE0 SHL DUP10 MSTORE PUSH1 0x41 DUP6 MSTORE PUSH1 0x24 DUP10 REVERT JUMPDEST SWAP1 PUSH2 0x247 SWAP4 SWAP3 POP PUSH1 0x60 SWAP2 PUSH2 0x480 JUMP JUMPDEST PUSH4 0x4E487B71 PUSH1 0xE0 SHL DUP12 MSTORE PUSH1 0x41 DUP8 MSTORE PUSH1 0x24 DUP12 REVERT JUMPDEST PUSH4 0x4E487B71 PUSH1 0xE0 SHL DUP11 MSTORE PUSH1 0x41 DUP7 MSTORE PUSH1 0x24 DUP11 REVERT JUMPDEST POP PUSH1 0x20 PUSH1 0x64 SWAP3 MLOAD SWAP2 PUSH3 0x461BCD PUSH1 0xE5 SHL DUP4 MSTORE DUP3 ADD MSTORE PUSH1 0x8 PUSH1 0x24 DUP3 ADD MSTORE PUSH8 0x4E6F546F6B656E73 PUSH1 0xC0 SHL PUSH1 0x44 DUP3 ADD MSTORE REVERT JUMPDEST DUP3 DUP1 REVERT JUMPDEST POP POP CALLVALUE PUSH2 0xB4 JUMPI DUP2 PUSH1 0x3 NOT CALLDATASIZE ADD SLT PUSH2 0xB4 JUMPI PUSH1 0x20 SWAP1 PUSH2 0x3A0 PUSH2 0x561 JUMP JUMPDEST SWAP1 MLOAD SWAP1 DUP2 MSTORE RETURN JUMPDEST POP POP CALLVALUE PUSH2 0xB4 JUMPI DUP2 PUSH1 0x3 NOT CALLDATASIZE ADD SLT PUSH2 0xB4 JUMPI MLOAD PUSH32 0x0 PUSH1 0x1 PUSH1 0x1 PUSH1 0xA0 SHL SUB AND DUP2 MSTORE PUSH1 0x20 SWAP1 RETURN JUMPDEST DUP5 SWAP1 CALLVALUE PUSH2 0xB4 JUMPI DUP2 PUSH1 0x3 NOT CALLDATASIZE ADD SLT PUSH2 0xB4 JUMPI PUSH1 0x20 SWAP1 PUSH32 0x0 DUP2 MSTORE RETURN JUMPDEST SWAP2 SWAP1 DUP3 SUB SWAP2 DUP3 GT PUSH2 0x432 JUMPI JUMP JUMPDEST PUSH4 0x4E487B71 PUSH1 0xE0 SHL PUSH1 0x0 MSTORE PUSH1 0x11 PUSH1 0x4 MSTORE PUSH1 0x24 PUSH1 0x0 REVERT JUMPDEST SWAP1 PUSH1 0x1F DUP1 NOT SWAP2 ADD AND DUP2 ADD SWAP1 DUP2 LT PUSH8 0xFFFFFFFFFFFFFFFF DUP3 GT OR PUSH2 0x46A JUMPI PUSH1 0x40 MSTORE JUMP JUMPDEST PUSH4 0x4E487B71 PUSH1 0xE0 SHL PUSH1 0x0 MSTORE PUSH1 0x41 PUSH1 0x4 MSTORE PUSH1 0x24 PUSH1 0x0 REVERT JUMPDEST SWAP2 SWAP3 SWAP1 ISZERO PUSH2 0x4E2 JUMPI POP DUP2 MLOAD ISZERO PUSH2 0x494 JUMPI POP SWAP1 JUMP JUMPDEST EXTCODESIZE ISZERO PUSH2 0x49D JUMPI SWAP1 JUMP JUMPDEST PUSH1 0x40 MLOAD PUSH3 0x461BCD PUSH1 0xE5 SHL DUP2 MSTORE PUSH1 0x20 PUSH1 0x4 DUP3 ADD MSTORE PUSH1 0x1D PUSH1 0x24 DUP3 ADD MSTORE PUSH32 0x416464726573733A2063616C6C20746F206E6F6E2D636F6E7472616374000000 PUSH1 0x44 DUP3 ADD MSTORE PUSH1 0x64 SWAP1 REVERT JUMPDEST DUP3 MLOAD SWAP1 SWAP2 POP ISZERO PUSH2 0x4F5 JUMPI POP DUP1 MLOAD SWAP1 PUSH1 0x20 ADD REVERT JUMPDEST PUSH1 0x40 MLOAD SWAP1 PUSH3 0x461BCD PUSH1 0xE5 SHL DUP3 MSTORE DUP2 PUSH1 0x20 DUP1 PUSH1 0x4 DUP4 ADD MSTORE DUP3 MLOAD SWAP1 DUP2 PUSH1 0x24 DUP5 ADD MSTORE PUSH1 0x0 SWAP4 JUMPDEST DUP3 DUP6 LT PUSH2 0x53B JUMPI POP POP PUSH1 0x44 SWAP3 POP PUSH1 0x0 DUP4 DUP3 DUP5 ADD ADD MSTORE PUSH1 0x1F DUP1 NOT SWAP2 ADD AND DUP2 ADD SUB ADD SWAP1 REVERT JUMPDEST DUP5 DUP2 ADD DUP3 ADD MLOAD DUP7 DUP7 ADD PUSH1 0x44 ADD MSTORE SWAP4 DUP2 ADD SWAP4 DUP6 SWAP4 POP PUSH2 0x518 JUMP JUMPDEST SWAP2 SWAP1 DUP3 ADD DUP1 SWAP3 GT PUSH2 0x432 JUMPI JUMP JUMPDEST PUSH1 0x40 MLOAD PUSH4 0x70A08231 PUSH1 0xE0 SHL DUP2 MSTORE ADDRESS PUSH1 0x4 DUP3 ADD MSTORE PUSH1 0x20 DUP2 PUSH1 0x24 DUP2 PUSH32 0x0 PUSH1 0x1 PUSH1 0x1 PUSH1 0xA0 SHL SUB AND GAS STATICCALL DUP1 ISZERO PUSH2 0x68D JUMPI PUSH1 0x0 SWAP1 PUSH2 0x657 JUMPI JUMPDEST PUSH2 0x5C2 SWAP2 POP PUSH1 0x0 SLOAD SWAP1 PUSH2 0x554 JUMP JUMPDEST PUSH32 0x0 SWAP1 PUSH32 0x0 PUSH2 0x60F DUP4 DUP3 PUSH2 0x554 JUMP JUMPDEST TIMESTAMP LT ISZERO PUSH2 0x651 JUMPI PUSH2 0x620 SWAP1 TIMESTAMP PUSH2 0x425 JUMP JUMPDEST SWAP1 DUP2 DUP2 MUL SWAP2 DUP2 DUP4 DIV EQ SWAP1 ISZERO OR ISZERO PUSH2 0x432 JUMPI DUP2 ISZERO PUSH2 0x63B JUMPI DIV SWAP1 JUMP JUMPDEST PUSH4 0x4E487B71 PUSH1 0xE0 SHL PUSH1 0x0 MSTORE PUSH1 0x12 PUSH1 0x4 MSTORE PUSH1 0x24 PUSH1 0x0 REVERT JUMPDEST POP SWAP1 POP SWAP1 JUMP JUMPDEST PUSH1 0x20 DUP3 RETURNDATASIZE DUP3 GT PUSH2 0x685 JUMPI JUMPDEST DUP2 PUSH2 0x66F PUSH1 0x20 SWAP4 DUP4 PUSH2 0x448 JUMP JUMPDEST DUP2 ADD SUB SLT PUSH2 0x682 JUMPI POP PUSH2 0x5C2 SWAP1 MLOAD PUSH2 0x5B4 JUMP JUMPDEST DUP1 REVERT JUMPDEST RETURNDATASIZE SWAP2 POP PUSH2 0x662 JUMP JUMPDEST PUSH1 0x40 MLOAD RETURNDATASIZE PUSH1 0x0 DUP3 RETURNDATACOPY RETURNDATASIZE SWAP1 REVERT INVALID LOG1 PUSH5 0x736F6C6343 STOP ADDMOD EQ STOP EXP LOG1 PUSH5 0x736F6C6343 STOP ADDMOD EQ STOP EXP 0x2F DUP8 DUP9 GT PUSH31 0x7EFF1D82E926EC794901D17C78024A50270940304540A733656F0D00000000 "},"methodIdentifiers":{"DEFAULT_ADMIN_ROLE()":"a217fddf","OPERATOR_ROLE()":"f5b541a6","PAUSER_ROLE()":"e63ab1e9","POOL_CREATION_FEE()":"7b573c54","WETH()":"ad5c4648","airdropModule()":"768c0442","allTokens(uint256)":"634282af","auditReportURI()":"92223cea","buyPresale(address,uint256,uint256,address,bytes32[])":"d9d0a5be","buyToken(address,uint256,bytes32,uint256)":"82522bc0","claimAirdrop(uint256,bytes32[])":"0bcae1ac","claimStakeReward()":"9fd3af8b","claimVault(address)":"e5a8a123","costToBuy(address,uint256)":"8943b28e","createMemeCoin(string,string,uint8,uint256,uint8,uint256,uint256,uint256,uint256,uint256,uint16,uint16,uint256,uint256,uint256,uint256,uint256,uint256,uint256,string)":"49933e13","createV2Pool(address,address)":"c4f3e9d7","creatorFeesAccrued(address)":"c748713e","currentPrice(address)":"e9833c2f","curves(address)":"2cc3dc6e","depositVault(address)":"24bf2f1e","getRoleAdmin(bytes32)":"248a9ca3","grantRole(bytes32,address)":"2f2ff15d","hasRole(bytes32,address)":"91d14854","pause()":"8456cb59","paused()":"5c975abb","platformFeeBP()":"ff96092a","platformFeesAccrued()":"22163b86","referralCodes(bytes32)":"7e644547","referralFeeBP()":"dc4ec9be","registerReferralCode(bytes32)":"ace03a0c","releaseVault(address)":"cd30f038","renounceRole(bytes32,address)":"36568abe","revokeRole(bytes32,address)":"d547741f","router()":"f887ea40","sellToken(address,uint256,uint256)":"3e11741f","setAirdropModule(address)":"a0429de6","setStakingModule(address)":"c60b494f","setWhitelistModule(address)":"83f26f38","stakeTokens(uint256)":"7547c7a3","stakingModule()":"504b82bf","supportsInterface(bytes4)":"01ffc9a7","tokenIndexPlusOne(address)":"35a62e68","unpause()":"3f4ba83a","updateAuditReport(string)":"606c9187","v2Factory()":"b4b57c39","vaultDeposits(address,address)":"5f6501ab","vaultReleased(address)":"52ce0fb0","vaultTotal(address)":"5e81e364","whitelistModule()":"8fea31b0","withdrawCreatorFees()":"e1cd04b4","withdrawPlatformFees(address)":"ec3889b5","withdrawStake(uint256)":"25d5971f"}}}}}