{"contracts/MockRouter.sol":{"MockRouter":{"abi":[{"inputs":[{"internalType":"address","name":"weth_","type":"address"}],"stateMutability":"nonpayable","type":"constructor"},{"inputs":[],"name":"WETH","outputs":[{"internalType":"address","name":"","type":"address"}],"stateMutability":"view","type":"function"},{"inputs":[],"name":"WETH_ADDRESS","outputs":[{"internalType":"address","name":"","type":"address"}],"stateMutability":"view","type":"function"},{"inputs":[{"internalType":"uint256","name":"","type":"uint256"},{"internalType":"address[]","name":"path","type":"address[]"},{"internalType":"address","name":"to","type":"address"},{"internalType":"uint256","name":"","type":"uint256"}],"name":"swapExactETHForTokensSupportingFeeOnTransferTokens","outputs":[],"stateMutability":"payable","type":"function"}],"evm":{"bytecode":{"linkReferences":{},"object":"60a0346100a157601f61030238819003918201601f19168301916001600160401b038311848410176100a6578084926020946040528339810103126100a157516001600160a01b0381168082036100a157156100705760805260405161024590816100bd8239608051816102040152f35b60405162461bcd60e51b81526020600482015260096024820152680b4cae4de40ae8aa8960bb1b6044820152606490fd5b600080fd5b634e487b7160e01b600052604160045260246000fdfe608060405260048036101561001357600080fd5b600090813560e01c8063040141e5146101ee578063ad5c4648146101ee5763b6f9de951461004057600080fd5b60803660031901126101535760249081359167ffffffffffffffff908184116101ea57366023850112156101ea57838301359382851161018d5736828660051b8301011161018d576001600160a01b03946044358681169291908390036101e65734156101b5576000198101908082116101a3578110156101915760051b018201359485169485900361018d57606434029034820460640361017b5790604460209288604051988994859363a9059cbb60e01b85528a850152878401525af180156101705761010d578480f35b6020923d8411610168575b601f8401601f191685019283118584101761015757505060209183916040528101031261015357518015150361015057388080808480f35b80fd5b5080fd5b634e487b7160e01b86526041905284fd5b3d9350610118565b6040513d87823e3d90fd5b634e487b7160e01b8752601185528287fd5b8580fd5b634e487b7160e01b8852603286528388fd5b634e487b7160e01b8952601187528489fd5b60405162461bcd60e51b8152602081880152600b818601526a139bc8115512081cd95b9d60aa1b6044820152606490fd5b8780fd5b8480fd5b34610233576000366003190112610233576040517f00000000000000000000000000000000000000000000000000000000000000006001600160a01b03168152602090f35b600080fdfea164736f6c6343000814000a","opcodes":"PUSH1 0xA0 CALLVALUE PUSH2 0xA1 JUMPI PUSH1 0x1F PUSH2 0x302 CODESIZE DUP2 SWAP1 SUB SWAP2 DUP3 ADD PUSH1 0x1F NOT AND DUP4 ADD SWAP2 PUSH1 0x1 PUSH1 0x1 PUSH1 0x40 SHL SUB DUP4 GT DUP5 DUP5 LT OR PUSH2 0xA6 JUMPI DUP1 DUP5 SWAP3 PUSH1 0x20 SWAP5 PUSH1 0x40 MSTORE DUP4 CODECOPY DUP2 ADD SUB SLT PUSH2 0xA1 JUMPI MLOAD PUSH1 0x1 PUSH1 0x1 PUSH1 0xA0 SHL SUB DUP2 AND DUP1 DUP3 SUB PUSH2 0xA1 JUMPI ISZERO PUSH2 0x70 JUMPI PUSH1 0x80 MSTORE PUSH1 0x40 MLOAD PUSH2 0x245 SWAP1 DUP2 PUSH2 0xBD DUP3 CODECOPY PUSH1 0x80 MLOAD DUP2 PUSH2 0x204 ADD MSTORE RETURN JUMPDEST PUSH1 0x40 MLOAD PUSH3 0x461BCD PUSH1 0xE5 SHL DUP2 MSTORE PUSH1 0x20 PUSH1 0x4 DUP3 ADD MSTORE PUSH1 0x9 PUSH1 0x24 DUP3 ADD MSTORE PUSH9 0xB4CAE4DE40AE8AA89 PUSH1 0xBB SHL PUSH1 0x44 DUP3 ADD MSTORE PUSH1 0x64 SWAP1 REVERT JUMPDEST PUSH1 0x0 DUP1 REVERT JUMPDEST PUSH4 0x4E487B71 PUSH1 0xE0 SHL PUSH1 0x0 MSTORE PUSH1 0x41 PUSH1 0x4 MSTORE PUSH1 0x24 PUSH1 0x0 REVERT INVALID PUSH1 0x80 PUSH1 0x40 MSTORE PUSH1 0x4 DUP1 CALLDATASIZE LT ISZERO PUSH2 0x13 JUMPI PUSH1 0x0 DUP1 REVERT JUMPDEST PUSH1 0x0 SWAP1 DUP2 CALLDATALOAD PUSH1 0xE0 SHR DUP1 PUSH4 0x40141E5 EQ PUSH2 0x1EE JUMPI DUP1 PUSH4 0xAD5C4648 EQ PUSH2 0x1EE JUMPI PUSH4 0xB6F9DE95 EQ PUSH2 0x40 JUMPI PUSH1 0x0 DUP1 REVERT JUMPDEST PUSH1 0x80 CALLDATASIZE PUSH1 0x3 NOT ADD SLT PUSH2 0x153 JUMPI PUSH1 0x24 SWAP1 DUP2 CALLDATALOAD SWAP2 PUSH8 0xFFFFFFFFFFFFFFFF SWAP1 DUP2 DUP5 GT PUSH2 0x1EA JUMPI CALLDATASIZE PUSH1 0x23 DUP6 ADD SLT ISZERO PUSH2 0x1EA JUMPI DUP4 DUP4 ADD CALLDATALOAD SWAP4 DUP3 DUP6 GT PUSH2 0x18D JUMPI CALLDATASIZE DUP3 DUP7 PUSH1 0x5 SHL DUP4 ADD ADD GT PUSH2 0x18D JUMPI PUSH1 0x1 PUSH1 0x1 PUSH1 0xA0 SHL SUB SWAP5 PUSH1 0x44 CALLDATALOAD DUP7 DUP2 AND SWAP3 SWAP2 SWAP1 DUP4 SWAP1 SUB PUSH2 0x1E6 JUMPI CALLVALUE ISZERO PUSH2 0x1B5 JUMPI PUSH1 0x0 NOT DUP2 ADD SWAP1 DUP1 DUP3 GT PUSH2 0x1A3 JUMPI DUP2 LT ISZERO PUSH2 0x191 JUMPI PUSH1 0x5 SHL ADD DUP3 ADD CALLDATALOAD SWAP5 DUP6 AND SWAP5 DUP6 SWAP1 SUB PUSH2 0x18D JUMPI PUSH1 0x64 CALLVALUE MUL SWAP1 CALLVALUE DUP3 DIV PUSH1 0x64 SUB PUSH2 0x17B JUMPI SWAP1 PUSH1 0x44 PUSH1 0x20 SWAP3 DUP9 PUSH1 0x40 MLOAD SWAP9 DUP10 SWAP5 DUP6 SWAP4 PUSH4 0xA9059CBB PUSH1 0xE0 SHL DUP6 MSTORE DUP11 DUP6 ADD MSTORE DUP8 DUP5 ADD MSTORE GAS CALL DUP1 ISZERO PUSH2 0x170 JUMPI PUSH2 0x10D JUMPI DUP5 DUP1 RETURN JUMPDEST PUSH1 0x20 SWAP3 RETURNDATASIZE DUP5 GT PUSH2 0x168 JUMPI JUMPDEST PUSH1 0x1F DUP5 ADD PUSH1 0x1F NOT AND DUP6 ADD SWAP3 DUP4 GT DUP6 DUP5 LT OR PUSH2 0x157 JUMPI POP POP PUSH1 0x20 SWAP2 DUP4 SWAP2 PUSH1 0x40 MSTORE DUP2 ADD SUB SLT PUSH2 0x153 JUMPI MLOAD DUP1 ISZERO ISZERO SUB PUSH2 0x150 JUMPI CODESIZE DUP1 DUP1 DUP1 DUP5 DUP1 RETURN JUMPDEST DUP1 REVERT JUMPDEST POP DUP1 REVERT JUMPDEST PUSH4 0x4E487B71 PUSH1 0xE0 SHL DUP7 MSTORE PUSH1 0x41 SWAP1 MSTORE DUP5 REVERT JUMPDEST RETURNDATASIZE SWAP4 POP PUSH2 0x118 JUMP JUMPDEST PUSH1 0x40 MLOAD RETURNDATASIZE DUP8 DUP3 RETURNDATACOPY RETURNDATASIZE SWAP1 REVERT JUMPDEST PUSH4 0x4E487B71 PUSH1 0xE0 SHL DUP8 MSTORE PUSH1 0x11 DUP6 MSTORE DUP3 DUP8 REVERT JUMPDEST DUP6 DUP1 REVERT JUMPDEST PUSH4 0x4E487B71 PUSH1 0xE0 SHL DUP9 MSTORE PUSH1 0x32 DUP7 MSTORE DUP4 DUP9 REVERT JUMPDEST PUSH4 0x4E487B71 PUSH1 0xE0 SHL DUP10 MSTORE PUSH1 0x11 DUP8 MSTORE DUP5 DUP10 REVERT JUMPDEST PUSH1 0x40 MLOAD PUSH3 0x461BCD PUSH1 0xE5 SHL DUP2 MSTORE PUSH1 0x20 DUP2 DUP9 ADD MSTORE PUSH1 0xB DUP2 DUP7 ADD MSTORE PUSH11 0x139BC8115512081CD95B9D PUSH1 0xAA SHL PUSH1 0x44 DUP3 ADD MSTORE PUSH1 0x64 SWAP1 REVERT JUMPDEST DUP8 DUP1 REVERT JUMPDEST DUP5 DUP1 REVERT JUMPDEST CALLVALUE PUSH2 0x233 JUMPI PUSH1 0x0 CALLDATASIZE PUSH1 0x3 NOT ADD SLT PUSH2 0x233 JUMPI PUSH1 0x40 MLOAD PUSH32 0x0 PUSH1 0x1 PUSH1 0x1 PUSH1 0xA0 SHL SUB AND DUP2 MSTORE PUSH1 0x20 SWAP1 RETURN JUMPDEST PUSH1 0x0 DUP1 REVERT INVALID LOG1 PUSH5 0x736F6C6343 STOP ADDMOD EQ STOP EXP "},"methodIdentifiers":{"WETH()":"ad5c4648","WETH_ADDRESS()":"040141e5","swapExactETHForTokensSupportingFeeOnTransferTokens(uint256,address[],address,uint256)":"b6f9de95"}}}}}