{"contracts/MemeCoinDEXHelper.sol":{"MemeCoinDEXHelper":{"abi":[{"inputs":[{"internalType":"address","name":"_factory","type":"address"}],"stateMutability":"nonpayable","type":"constructor"},{"anonymous":false,"inputs":[{"indexed":true,"internalType":"address","name":"factory_","type":"address"},{"indexed":true,"internalType":"address","name":"router_","type":"address"}],"name":"DexConfigured","type":"event"},{"anonymous":false,"inputs":[{"indexed":true,"internalType":"address","name":"token","type":"address"},{"indexed":true,"internalType":"address","name":"to","type":"address"},{"indexed":false,"internalType":"uint256","name":"amount","type":"uint256"}],"name":"DustSwept","type":"event"},{"anonymous":false,"inputs":[{"indexed":true,"internalType":"address","name":"token","type":"address"},{"indexed":false,"internalType":"uint256","name":"amountToken","type":"uint256"},{"indexed":false,"internalType":"uint256","name":"amountETH","type":"uint256"},{"indexed":false,"internalType":"uint256","name":"liquidity","type":"uint256"}],"name":"LiquidityAdded","type":"event"},{"anonymous":false,"inputs":[{"indexed":true,"internalType":"address","name":"token","type":"address"},{"indexed":true,"internalType":"address","name":"pair","type":"address"}],"name":"LiquidityPairCreated","type":"event"},{"anonymous":false,"inputs":[{"indexed":true,"internalType":"address","name":"token","type":"address"},{"indexed":false,"internalType":"uint256","name":"liquidity","type":"uint256"},{"indexed":false,"internalType":"uint256","name":"amountToken","type":"uint256"},{"indexed":false,"internalType":"uint256","name":"amountETH","type":"uint256"}],"name":"LiquidityRemoved","type":"event"},{"stateMutability":"payable","type":"fallback"},{"inputs":[{"internalType":"address","name":"token","type":"address"},{"internalType":"uint256","name":"amountToken","type":"uint256"}],"name":"addLiquidity","outputs":[{"internalType":"uint256","name":"amountTokenAdded","type":"uint256"},{"internalType":"uint256","name":"amountETHAdded","type":"uint256"},{"internalType":"uint256","name":"liquidity","type":"uint256"}],"stateMutability":"payable","type":"function"},{"inputs":[{"internalType":"address","name":"token","type":"address"}],"name":"createLiquidityPair","outputs":[{"internalType":"address","name":"pair","type":"address"}],"stateMutability":"nonpayable","type":"function"},{"inputs":[],"name":"dexFactory","outputs":[{"internalType":"address","name":"","type":"address"}],"stateMutability":"view","type":"function"},{"inputs":[],"name":"dexRouter","outputs":[{"internalType":"address","name":"","type":"address"}],"stateMutability":"view","type":"function"},{"inputs":[],"name":"factory","outputs":[{"internalType":"address","name":"","type":"address"}],"stateMutability":"view","type":"function"},{"inputs":[{"internalType":"address","name":"token","type":"address"},{"internalType":"uint256","name":"liquidity","type":"uint256"}],"name":"removeLiquidity","outputs":[{"internalType":"uint256","name":"amountTokenReturned","type":"uint256"},{"internalType":"uint256","name":"amountETHReturned","type":"uint256"}],"stateMutability":"nonpayable","type":"function"},{"inputs":[{"internalType":"address","name":"_dexFactory","type":"address"},{"internalType":"address","name":"_dexRouter","type":"address"}],"name":"setDexAddresses","outputs":[],"stateMutability":"nonpayable","type":"function"},{"inputs":[{"internalType":"address","name":"token","type":"address"},{"internalType":"address","name":"to","type":"address"}],"name":"sweepDust","outputs":[],"stateMutability":"nonpayable","type":"function"},{"stateMutability":"payable","type":"receive"}],"evm":{"bytecode":{"linkReferences":{},"object":"60a0346100c657601f610fbe38819003918201601f19168301916001600160401b038311848410176100cb578084926020946040528339810103126100c657516001600160a01b0381168082036100c6571561009257608052604051610edc90816100e28239608051818181609a0152818161012601528181610328015281816105e00152818161081801526109b80152f35b60405162461bcd60e51b815260206004820152600c60248201526b5a65726f20666163746f727960a01b6044820152606490fd5b600080fd5b634e487b7160e01b600052604160045260246000fdfe608060408181526004918236101561001f575b505050361561001d57005b005b600092833560e01c9182630758d92414610a7e5750816309cccaac1461098357816356688700146107f357816398e122fd146105b2578163a201ccf61461030b578163a9fb82d6146100f457508063b8d8fbb4146100cd5763c45a0155146100875780610012565b346100c957816003193601126100c957517f00000000000000000000000000000000000000000000000000000000000000006001600160a01b03168152602090f35b5080fd5b50346100c957816003193601126100c957905490516001600160a01b039091168152602090f35b90503461030757816003193601126103075761010e610aa3565b91610117610abe565b916001600160a01b0361014d337f0000000000000000000000000000000000000000000000000000000000000000831614610ad4565b8084169485156102d3571692836101ce575050479084848315801561019e575b5050507f3981c3c93633524805c93b00b61aa75cc59cd423c30c502354a7c347b0b22524916020915b51908152a380f35b90849183906101c5575b839283928392f1156101bc5784843861016d565b513d85823e3d90fd5b506108fc6101a8565b8251916370a0823160e01b83523090830152602082602481875afa9182156102c9578692610272575b50907f3981c3c93633524805c93b00b61aa75cc59cd423c30c502354a7c347b0b2252492602092828061022c575b5050610196565b825163a9059cbb60e01b868201526001600160a01b03929092166024830152604480830191909152815261026b90610265606482610b0f565b86610cab565b3880610225565b91506020823d82116102c1575b8161028c60209383610b0f565b810103126102bd579051907f3981c3c93633524805c93b00b61aa75cc59cd423c30c502354a7c347b0b225246101f7565b8580fd5b3d915061027f565b83513d88823e3d90fd5b835162461bcd60e51b8152602081850152600e60248201526d16995c9bc81c9958da5c1a595b9d60921b6044820152606490fd5b8280fd5b839150346100c957826003193601126100c957610326610aa3565b7f000000000000000000000000000000000000000000000000000000000000000091602435916001600160a01b03916103623384871614610ad4565b826001541694875180966315ab88c960e31b825281846020998a935afa90811561058b576103cb9188918a91610595575b5089548b5163e6a4390560e01b81526001600160a01b0380891688830190815293166020840152938492918916918391829160400190565b03915afa90811561058b57908591899161055e575b501680156105255791889161040e87809796956104036104669b9a308684610b66565b876001541690610bc1565b6001548351629d473b60e21b81526001600160a01b0380871694820194855260208501899052600060408601819052606086015290921660808401524260a0840152909788929186169183918b91839160c090910190565b03925af194851561051b578680966104c0575b50508651928352602083018690526040830185905216907f1dc8bb69df2b8e91fbdcbfcf93d951b3f0000f085a95fe3f7946d6161439245d90606090a28351928352820152f35b91955095508686813d8311610514575b6104da8183610b0f565b810103126105115750845194830151937f1dc8bb69df2b8e91fbdcbfcf93d951b3f0000f085a95fe3f7946d6161439245d88610479565b80fd5b503d6104d0565b87513d88823e3d90fd5b885162461bcd60e51b8152808401889052601360248201527214185a5c88191bd95cc81b9bdd08195e1a5cdd606a1b6044820152606490fd5b61057e9150883d8a11610584575b6105768183610b0f565b810190610b47565b8a6103e0565b503d61056c565b89513d8a823e3d90fd5b6105ac9150823d8411610584576105768183610b0f565b8b610393565b839150346100c95760209283600319360112610307576105d0610aa3565b926001600160a01b0392610607337f0000000000000000000000000000000000000000000000000000000000000000861614610ad4565b8382541684600154169184516315ab88c960e31b9081815289818481885afa90811561051b5761066f949392918b9188916107d6575b50885163e6a4390560e01b81526001600160a01b03808d16868301908152921660208301529586918291604090910190565b0381865afa93841561051b5788949392918b9188956107b7575b50858516156106c8575b505050507f46a64aef27261dae4a1a2eae3f60f92162166d881f6eb9814adc755791cf53d69250169384935195169180a38152f35b9193509193508287518096819382525afa9283156107ad5791878561072795938b95829561078e575b5088516364e329cb60e11b81526001600160a01b0393841691810191825292909416602085015290948593849291839160400190565b03925af1908115610784577f46a64aef27261dae4a1a2eae3f60f92162166d881f6eb9814adc755791cf53d69185918491610767575b5088808981610693565b61077e9150883d8a11610584576105768183610b0f565b8861075d565b83513d84823e3d90fd5b6107a6919550863d8811610584576105768183610b0f565b938c6106f1565b85513d86823e3d90fd5b6107cf919550823d8411610584576105768183610b0f565b938c610689565b6107ed9150823d8411610584576105768183610b0f565b8c61063d565b9180915060031936011261030757610809610aa3565b6001600160a01b0391906060907f0000000000000000000000000000000000000000000000000000000000000000906024356108483387851614610ad4565b858216956108588230868a610b66565b61086782826001541689610bc1565b600154865163f305d71960e01b81526001600160a01b03948516998101998a5260208a0193909352600060408a0181905260608a01529390921660808801524260a08801529586929083900360c0019183913491165af1918215610979578493858094610930575b50508151848152602081018690526040810184905261092c939291907f64b83944e79c3ce8d4c297411de637c3e102d064677aac0c163976ebdcd6f50e90606090a251938493846040919493926060820195825260208201520152565b0390f35b929550935091506060833d8211610971575b8161094f60609383610b0f565b8101031261051157508151602083015192840151929390929161092c386108cf565b3d9150610942565b81513d86823e3d90fd5b9190503461030757806003193601126103075761099e610aa3565b6109a6610abe565b926001600160a01b039182906109df337f0000000000000000000000000000000000000000000000000000000000000000841614610ad4565b169283151580610a73575b15610a3c5750506bffffffffffffffffffffffff60a01b92828486541617855516809260015416176001557fbd1f56340e71693e2714ef366858f586d668634bbaa3720ebf8b0faf0b1aa82c8380a380f35b906020606492519162461bcd60e51b83528201526011602482015270496e76616c69642061646472657373657360781b6044820152fd5b5082851615156109ea565b8490346100c957816003193601126100c9576001546001600160a01b03168152602090f35b600435906001600160a01b0382168203610ab957565b600080fd5b602435906001600160a01b0382168203610ab957565b15610adb57565b60405162461bcd60e51b815260206004820152600c60248201526b4f6e6c7920666163746f727960a01b6044820152606490fd5b90601f8019910116810190811067ffffffffffffffff821117610b3157604052565b634e487b7160e01b600052604160045260246000fd5b90816020910312610ab957516001600160a01b0381168103610ab95790565b6040516323b872dd60e01b60208201526001600160a01b03928316602482015292909116604483015260648083019390935291815260a081019181831067ffffffffffffffff841117610b3157610bbf92604052610cab565b565b604051636eb1769f60e11b81523060048201526001600160a01b03831660248201529192602083806044810103816001600160a01b0386165afa928315610c9f57600093610c6c575b508201809211610c565760405163095ea7b360e01b60208201526001600160a01b03939093166024840152604480840192909252908252610bbf9190610c51606483610b0f565b610cab565b634e487b7160e01b600052601160045260246000fd5b90926020823d8211610c97575b81610c8660209383610b0f565b810103126105115750519138610c0a565b3d9150610c79565b6040513d6000823e3d90fd5b60018060a01b0316906040516040810167ffffffffffffffff9082811082821117610b31576040526020938483527f5361666545524332303a206c6f772d6c6576656c2063616c6c206661696c6564858401526000808587829751910182855af1903d15610df0573d928311610ddc5790610d4693929160405192610d3988601f19601f8401160185610b0f565b83523d868885013e610dfb565b805191821591848315610db8575b505050905015610d615750565b6084906040519062461bcd60e51b82526004820152602a60248201527f5361666545524332303a204552433230206f7065726174696f6e20646964206e6044820152691bdd081cdd58d8d9595960b21b6064820152fd5b9193818094500103126100c957820151908115158203610511575080388084610d54565b634e487b7160e01b85526041600452602485fd5b90610d469392506060915b91929015610e5d5750815115610e0f575090565b3b15610e185790565b60405162461bcd60e51b815260206004820152601d60248201527f416464726573733a2063616c6c20746f206e6f6e2d636f6e74726163740000006044820152606490fd5b825190915015610e705750805190602001fd5b6040519062461bcd60e51b82528160208060048301528251908160248401526000935b828510610eb6575050604492506000838284010152601f80199101168101030190fd5b8481018201518686016044015293810193859350610e9356fea164736f6c6343000814000a","opcodes":"PUSH1 0xA0 CALLVALUE PUSH2 0xC6 JUMPI PUSH1 0x1F PUSH2 0xFBE CODESIZE DUP2 SWAP1 SUB SWAP2 DUP3 ADD PUSH1 0x1F NOT AND DUP4 ADD SWAP2 PUSH1 0x1 PUSH1 0x1 PUSH1 0x40 SHL SUB DUP4 GT DUP5 DUP5 LT OR PUSH2 0xCB JUMPI DUP1 DUP5 SWAP3 PUSH1 0x20 SWAP5 PUSH1 0x40 MSTORE DUP4 CODECOPY DUP2 ADD SUB SLT PUSH2 0xC6 JUMPI MLOAD PUSH1 0x1 PUSH1 0x1 PUSH1 0xA0 SHL SUB DUP2 AND DUP1 DUP3 SUB PUSH2 0xC6 JUMPI ISZERO PUSH2 0x92 JUMPI PUSH1 0x80 MSTORE PUSH1 0x40 MLOAD PUSH2 0xEDC SWAP1 DUP2 PUSH2 0xE2 DUP3 CODECOPY PUSH1 0x80 MLOAD DUP2 DUP2 DUP2 PUSH1 0x9A ADD MSTORE DUP2 DUP2 PUSH2 0x126 ADD MSTORE DUP2 DUP2 PUSH2 0x328 ADD MSTORE DUP2 DUP2 PUSH2 0x5E0 ADD MSTORE DUP2 DUP2 PUSH2 0x818 ADD MSTORE PUSH2 0x9B8 ADD MSTORE RETURN JUMPDEST PUSH1 0x40 MLOAD PUSH3 0x461BCD PUSH1 0xE5 SHL DUP2 MSTORE PUSH1 0x20 PUSH1 0x4 DUP3 ADD MSTORE PUSH1 0xC PUSH1 0x24 DUP3 ADD MSTORE PUSH12 0x5A65726F20666163746F7279 PUSH1 0xA0 SHL PUSH1 0x44 DUP3 ADD MSTORE PUSH1 0x64 SWAP1 REVERT JUMPDEST PUSH1 0x0 DUP1 REVERT JUMPDEST PUSH4 0x4E487B71 PUSH1 0xE0 SHL PUSH1 0x0 MSTORE PUSH1 0x41 PUSH1 0x4 MSTORE PUSH1 0x24 PUSH1 0x0 REVERT INVALID PUSH1 0x80 PUSH1 0x40 DUP2 DUP2 MSTORE PUSH1 0x4 SWAP2 DUP3 CALLDATASIZE LT ISZERO PUSH2 0x1F JUMPI JUMPDEST POP POP POP CALLDATASIZE ISZERO PUSH2 0x1D JUMPI STOP JUMPDEST STOP JUMPDEST PUSH1 0x0 SWAP3 DUP4 CALLDATALOAD PUSH1 0xE0 SHR SWAP2 DUP3 PUSH4 0x758D924 EQ PUSH2 0xA7E JUMPI POP DUP2 PUSH4 0x9CCCAAC EQ PUSH2 0x983 JUMPI DUP2 PUSH4 0x56688700 EQ PUSH2 0x7F3 JUMPI DUP2 PUSH4 0x98E122FD EQ PUSH2 0x5B2 JUMPI DUP2 PUSH4 0xA201CCF6 EQ PUSH2 0x30B JUMPI DUP2 PUSH4 0xA9FB82D6 EQ PUSH2 0xF4 JUMPI POP DUP1 PUSH4 0xB8D8FBB4 EQ PUSH2 0xCD JUMPI PUSH4 0xC45A0155 EQ PUSH2 0x87 JUMPI DUP1 PUSH2 0x12 JUMP JUMPDEST CALLVALUE PUSH2 0xC9 JUMPI DUP2 PUSH1 0x3 NOT CALLDATASIZE ADD SLT PUSH2 0xC9 JUMPI MLOAD PUSH32 0x0 PUSH1 0x1 PUSH1 0x1 PUSH1 0xA0 SHL SUB AND DUP2 MSTORE PUSH1 0x20 SWAP1 RETURN JUMPDEST POP DUP1 REVERT JUMPDEST POP CALLVALUE PUSH2 0xC9 JUMPI DUP2 PUSH1 0x3 NOT CALLDATASIZE ADD SLT PUSH2 0xC9 JUMPI SWAP1 SLOAD SWAP1 MLOAD PUSH1 0x1 PUSH1 0x1 PUSH1 0xA0 SHL SUB SWAP1 SWAP2 AND DUP2 MSTORE PUSH1 0x20 SWAP1 RETURN JUMPDEST SWAP1 POP CALLVALUE PUSH2 0x307 JUMPI DUP2 PUSH1 0x3 NOT CALLDATASIZE ADD SLT PUSH2 0x307 JUMPI PUSH2 0x10E PUSH2 0xAA3 JUMP JUMPDEST SWAP2 PUSH2 0x117 PUSH2 0xABE JUMP JUMPDEST SWAP2 PUSH1 0x1 PUSH1 0x1 PUSH1 0xA0 SHL SUB PUSH2 0x14D CALLER PUSH32 0x0 DUP4 AND EQ PUSH2 0xAD4 JUMP JUMPDEST DUP1 DUP5 AND SWAP5 DUP6 ISZERO PUSH2 0x2D3 JUMPI AND SWAP3 DUP4 PUSH2 0x1CE JUMPI POP POP SELFBALANCE SWAP1 DUP5 DUP5 DUP4 ISZERO DUP1 ISZERO PUSH2 0x19E JUMPI JUMPDEST POP POP POP PUSH32 0x3981C3C93633524805C93B00B61AA75CC59CD423C30C502354A7C347B0B22524 SWAP2 PUSH1 0x20 SWAP2 JUMPDEST MLOAD SWAP1 DUP2 MSTORE LOG3 DUP1 RETURN JUMPDEST SWAP1 DUP5 SWAP2 DUP4 SWAP1 PUSH2 0x1C5 JUMPI JUMPDEST DUP4 SWAP3 DUP4 SWAP3 DUP4 SWAP3 CALL ISZERO PUSH2 0x1BC JUMPI DUP5 DUP5 CODESIZE PUSH2 0x16D JUMP JUMPDEST MLOAD RETURNDATASIZE DUP6 DUP3 RETURNDATACOPY RETURNDATASIZE SWAP1 REVERT JUMPDEST POP PUSH2 0x8FC PUSH2 0x1A8 JUMP JUMPDEST DUP3 MLOAD SWAP2 PUSH4 0x70A08231 PUSH1 0xE0 SHL DUP4 MSTORE ADDRESS SWAP1 DUP4 ADD MSTORE PUSH1 0x20 DUP3 PUSH1 0x24 DUP2 DUP8 GAS STATICCALL SWAP2 DUP3 ISZERO PUSH2 0x2C9 JUMPI DUP7 SWAP3 PUSH2 0x272 JUMPI JUMPDEST POP SWAP1 PUSH32 0x3981C3C93633524805C93B00B61AA75CC59CD423C30C502354A7C347B0B22524 SWAP3 PUSH1 0x20 SWAP3 DUP3 DUP1 PUSH2 0x22C JUMPI JUMPDEST POP POP PUSH2 0x196 JUMP JUMPDEST DUP3 MLOAD PUSH4 0xA9059CBB PUSH1 0xE0 SHL DUP7 DUP3 ADD MSTORE PUSH1 0x1 PUSH1 0x1 PUSH1 0xA0 SHL SUB SWAP3 SWAP1 SWAP3 AND PUSH1 0x24 DUP4 ADD MSTORE PUSH1 0x44 DUP1 DUP4 ADD SWAP2 SWAP1 SWAP2 MSTORE DUP2 MSTORE PUSH2 0x26B SWAP1 PUSH2 0x265 PUSH1 0x64 DUP3 PUSH2 0xB0F JUMP JUMPDEST DUP7 PUSH2 0xCAB JUMP JUMPDEST CODESIZE DUP1 PUSH2 0x225 JUMP JUMPDEST SWAP2 POP PUSH1 0x20 DUP3 RETURNDATASIZE DUP3 GT PUSH2 0x2C1 JUMPI JUMPDEST DUP2 PUSH2 0x28C PUSH1 0x20 SWAP4 DUP4 PUSH2 0xB0F JUMP JUMPDEST DUP2 ADD SUB SLT PUSH2 0x2BD JUMPI SWAP1 MLOAD SWAP1 PUSH32 0x3981C3C93633524805C93B00B61AA75CC59CD423C30C502354A7C347B0B22524 PUSH2 0x1F7 JUMP JUMPDEST DUP6 DUP1 REVERT JUMPDEST RETURNDATASIZE SWAP2 POP PUSH2 0x27F JUMP JUMPDEST DUP4 MLOAD RETURNDATASIZE DUP9 DUP3 RETURNDATACOPY RETURNDATASIZE SWAP1 REVERT JUMPDEST DUP4 MLOAD PUSH3 0x461BCD PUSH1 0xE5 SHL DUP2 MSTORE PUSH1 0x20 DUP2 DUP6 ADD MSTORE PUSH1 0xE PUSH1 0x24 DUP3 ADD MSTORE PUSH14 0x16995C9BC81C9958DA5C1A595B9D PUSH1 0x92 SHL PUSH1 0x44 DUP3 ADD MSTORE PUSH1 0x64 SWAP1 REVERT JUMPDEST DUP3 DUP1 REVERT JUMPDEST DUP4 SWAP2 POP CALLVALUE PUSH2 0xC9 JUMPI DUP3 PUSH1 0x3 NOT CALLDATASIZE ADD SLT PUSH2 0xC9 JUMPI PUSH2 0x326 PUSH2 0xAA3 JUMP JUMPDEST PUSH32 0x0 SWAP2 PUSH1 0x24 CALLDATALOAD SWAP2 PUSH1 0x1 PUSH1 0x1 PUSH1 0xA0 SHL SUB SWAP2 PUSH2 0x362 CALLER DUP5 DUP8 AND EQ PUSH2 0xAD4 JUMP JUMPDEST DUP3 PUSH1 0x1 SLOAD AND SWAP5 DUP8 MLOAD DUP1 SWAP7 PUSH4 0x15AB88C9 PUSH1 0xE3 SHL DUP3 MSTORE DUP2 DUP5 PUSH1 0x20 SWAP10 DUP11 SWAP4 GAS STATICCALL SWAP1 DUP2 ISZERO PUSH2 0x58B JUMPI PUSH2 0x3CB SWAP2 DUP9 SWAP2 DUP11 SWAP2 PUSH2 0x595 JUMPI JUMPDEST POP DUP10 SLOAD DUP12 MLOAD PUSH4 0xE6A43905 PUSH1 0xE0 SHL DUP2 MSTORE PUSH1 0x1 PUSH1 0x1 PUSH1 0xA0 SHL SUB DUP1 DUP10 AND DUP9 DUP4 ADD SWAP1 DUP2 MSTORE SWAP4 AND PUSH1 0x20 DUP5 ADD MSTORE SWAP4 DUP5 SWAP3 SWAP2 DUP10 AND SWAP2 DUP4 SWAP2 DUP3 SWAP2 PUSH1 0x40 ADD SWAP1 JUMP JUMPDEST SUB SWAP2 GAS STATICCALL SWAP1 DUP2 ISZERO PUSH2 0x58B JUMPI SWAP1 DUP6 SWAP2 DUP10 SWAP2 PUSH2 0x55E JUMPI JUMPDEST POP AND DUP1 ISZERO PUSH2 0x525 JUMPI SWAP2 DUP9 SWAP2 PUSH2 0x40E DUP8 DUP1 SWAP8 SWAP7 SWAP6 PUSH2 0x403 PUSH2 0x466 SWAP12 SWAP11 ADDRESS DUP7 DUP5 PUSH2 0xB66 JUMP JUMPDEST DUP8 PUSH1 0x1 SLOAD AND SWAP1 PUSH2 0xBC1 JUMP JUMPDEST PUSH1 0x1 SLOAD DUP4 MLOAD PUSH3 0x9D473B PUSH1 0xE2 SHL DUP2 MSTORE PUSH1 0x1 PUSH1 0x1 PUSH1 0xA0 SHL SUB DUP1 DUP8 AND SWAP5 DUP3 ADD SWAP5 DUP6 MSTORE PUSH1 0x20 DUP6 ADD DUP10 SWAP1 MSTORE PUSH1 0x0 PUSH1 0x40 DUP7 ADD DUP2 SWAP1 MSTORE PUSH1 0x60 DUP7 ADD MSTORE SWAP1 SWAP3 AND PUSH1 0x80 DUP5 ADD MSTORE TIMESTAMP PUSH1 0xA0 DUP5 ADD MSTORE SWAP1 SWAP8 DUP9 SWAP3 SWAP2 DUP7 AND SWAP2 DUP4 SWAP2 DUP12 SWAP2 DUP4 SWAP2 PUSH1 0xC0 SWAP1 SWAP2 ADD SWAP1 JUMP JUMPDEST SUB SWAP3 GAS CALL SWAP5 DUP6 ISZERO PUSH2 0x51B JUMPI DUP7 DUP1 SWAP7 PUSH2 0x4C0 JUMPI JUMPDEST POP POP DUP7 MLOAD SWAP3 DUP4 MSTORE PUSH1 0x20 DUP4 ADD DUP7 SWAP1 MSTORE PUSH1 0x40 DUP4 ADD DUP6 SWAP1 MSTORE AND SWAP1 PUSH32 0x1DC8BB69DF2B8E91FBDCBFCF93D951B3F0000F085A95FE3F7946D6161439245D SWAP1 PUSH1 0x60 SWAP1 LOG2 DUP4 MLOAD SWAP3 DUP4 MSTORE DUP3 ADD MSTORE RETURN JUMPDEST SWAP2 SWAP6 POP SWAP6 POP DUP7 DUP7 DUP2 RETURNDATASIZE DUP4 GT PUSH2 0x514 JUMPI JUMPDEST PUSH2 0x4DA DUP2 DUP4 PUSH2 0xB0F JUMP JUMPDEST DUP2 ADD SUB SLT PUSH2 0x511 JUMPI POP DUP5 MLOAD SWAP5 DUP4 ADD MLOAD SWAP4 PUSH32 0x1DC8BB69DF2B8E91FBDCBFCF93D951B3F0000F085A95FE3F7946D6161439245D DUP9 PUSH2 0x479 JUMP JUMPDEST DUP1 REVERT JUMPDEST POP RETURNDATASIZE PUSH2 0x4D0 JUMP JUMPDEST DUP8 MLOAD RETURNDATASIZE DUP9 DUP3 RETURNDATACOPY RETURNDATASIZE SWAP1 REVERT JUMPDEST DUP9 MLOAD PUSH3 0x461BCD PUSH1 0xE5 SHL DUP2 MSTORE DUP1 DUP5 ADD DUP9 SWAP1 MSTORE PUSH1 0x13 PUSH1 0x24 DUP3 ADD MSTORE PUSH19 0x14185A5C88191BD95CC81B9BDD08195E1A5CDD PUSH1 0x6A SHL PUSH1 0x44 DUP3 ADD MSTORE PUSH1 0x64 SWAP1 REVERT JUMPDEST PUSH2 0x57E SWAP2 POP DUP9 RETURNDATASIZE DUP11 GT PUSH2 0x584 JUMPI JUMPDEST PUSH2 0x576 DUP2 DUP4 PUSH2 0xB0F JUMP JUMPDEST DUP2 ADD SWAP1 PUSH2 0xB47 JUMP JUMPDEST DUP11 PUSH2 0x3E0 JUMP JUMPDEST POP RETURNDATASIZE PUSH2 0x56C JUMP JUMPDEST DUP10 MLOAD RETURNDATASIZE DUP11 DUP3 RETURNDATACOPY RETURNDATASIZE SWAP1 REVERT JUMPDEST PUSH2 0x5AC SWAP2 POP DUP3 RETURNDATASIZE DUP5 GT PUSH2 0x584 JUMPI PUSH2 0x576 DUP2 DUP4 PUSH2 0xB0F JUMP JUMPDEST DUP12 PUSH2 0x393 JUMP JUMPDEST DUP4 SWAP2 POP CALLVALUE PUSH2 0xC9 JUMPI PUSH1 0x20 SWAP3 DUP4 PUSH1 0x3 NOT CALLDATASIZE ADD SLT PUSH2 0x307 JUMPI PUSH2 0x5D0 PUSH2 0xAA3 JUMP JUMPDEST SWAP3 PUSH1 0x1 PUSH1 0x1 PUSH1 0xA0 SHL SUB SWAP3 PUSH2 0x607 CALLER PUSH32 0x0 DUP7 AND EQ PUSH2 0xAD4 JUMP JUMPDEST DUP4 DUP3 SLOAD AND DUP5 PUSH1 0x1 SLOAD AND SWAP2 DUP5 MLOAD PUSH4 0x15AB88C9 PUSH1 0xE3 SHL SWAP1 DUP2 DUP2 MSTORE DUP10 DUP2 DUP5 DUP2 DUP9 GAS STATICCALL SWAP1 DUP2 ISZERO PUSH2 0x51B JUMPI PUSH2 0x66F SWAP5 SWAP4 SWAP3 SWAP2 DUP12 SWAP2 DUP9 SWAP2 PUSH2 0x7D6 JUMPI JUMPDEST POP DUP9 MLOAD PUSH4 0xE6A43905 PUSH1 0xE0 SHL DUP2 MSTORE PUSH1 0x1 PUSH1 0x1 PUSH1 0xA0 SHL SUB DUP1 DUP14 AND DUP7 DUP4 ADD SWAP1 DUP2 MSTORE SWAP3 AND PUSH1 0x20 DUP4 ADD MSTORE SWAP6 DUP7 SWAP2 DUP3 SWAP2 PUSH1 0x40 SWAP1 SWAP2 ADD SWAP1 JUMP JUMPDEST SUB DUP2 DUP7 GAS STATICCALL SWAP4 DUP5 ISZERO PUSH2 0x51B JUMPI DUP9 SWAP5 SWAP4 SWAP3 SWAP2 DUP12 SWAP2 DUP9 SWAP6 PUSH2 0x7B7 JUMPI JUMPDEST POP DUP6 DUP6 AND ISZERO PUSH2 0x6C8 JUMPI JUMPDEST POP POP POP POP PUSH32 0x46A64AEF27261DAE4A1A2EAE3F60F92162166D881F6EB9814ADC755791CF53D6 SWAP3 POP AND SWAP4 DUP5 SWAP4 MLOAD SWAP6 AND SWAP2 DUP1 LOG3 DUP2 MSTORE RETURN JUMPDEST SWAP2 SWAP4 POP SWAP2 SWAP4 POP DUP3 DUP8 MLOAD DUP1 SWAP7 DUP2 SWAP4 DUP3 MSTORE GAS STATICCALL SWAP3 DUP4 ISZERO PUSH2 0x7AD JUMPI SWAP2 DUP8 DUP6 PUSH2 0x727 SWAP6 SWAP4 DUP12 SWAP6 DUP3 SWAP6 PUSH2 0x78E JUMPI JUMPDEST POP DUP9 MLOAD PUSH4 0x64E329CB PUSH1 0xE1 SHL DUP2 MSTORE PUSH1 0x1 PUSH1 0x1 PUSH1 0xA0 SHL SUB SWAP4 DUP5 AND SWAP2 DUP2 ADD SWAP2 DUP3 MSTORE SWAP3 SWAP1 SWAP5 AND PUSH1 0x20 DUP6 ADD MSTORE SWAP1 SWAP5 DUP6 SWAP4 DUP5 SWAP3 SWAP2 DUP4 SWAP2 PUSH1 0x40 ADD SWAP1 JUMP JUMPDEST SUB SWAP3 GAS CALL SWAP1 DUP2 ISZERO PUSH2 0x784 JUMPI PUSH32 0x46A64AEF27261DAE4A1A2EAE3F60F92162166D881F6EB9814ADC755791CF53D6 SWAP2 DUP6 SWAP2 DUP5 SWAP2 PUSH2 0x767 JUMPI JUMPDEST POP DUP9 DUP1 DUP10 DUP2 PUSH2 0x693 JUMP JUMPDEST PUSH2 0x77E SWAP2 POP DUP9 RETURNDATASIZE DUP11 GT PUSH2 0x584 JUMPI PUSH2 0x576 DUP2 DUP4 PUSH2 0xB0F JUMP JUMPDEST DUP9 PUSH2 0x75D JUMP JUMPDEST DUP4 MLOAD RETURNDATASIZE DUP5 DUP3 RETURNDATACOPY RETURNDATASIZE SWAP1 REVERT JUMPDEST PUSH2 0x7A6 SWAP2 SWAP6 POP DUP7 RETURNDATASIZE DUP9 GT PUSH2 0x584 JUMPI PUSH2 0x576 DUP2 DUP4 PUSH2 0xB0F JUMP JUMPDEST SWAP4 DUP13 PUSH2 0x6F1 JUMP JUMPDEST DUP6 MLOAD RETURNDATASIZE DUP7 DUP3 RETURNDATACOPY RETURNDATASIZE SWAP1 REVERT JUMPDEST PUSH2 0x7CF SWAP2 SWAP6 POP DUP3 RETURNDATASIZE DUP5 GT PUSH2 0x584 JUMPI PUSH2 0x576 DUP2 DUP4 PUSH2 0xB0F JUMP JUMPDEST SWAP4 DUP13 PUSH2 0x689 JUMP JUMPDEST PUSH2 0x7ED SWAP2 POP DUP3 RETURNDATASIZE DUP5 GT PUSH2 0x584 JUMPI PUSH2 0x576 DUP2 DUP4 PUSH2 0xB0F JUMP JUMPDEST DUP13 PUSH2 0x63D JUMP JUMPDEST SWAP2 DUP1 SWAP2 POP PUSH1 0x3 NOT CALLDATASIZE ADD SLT PUSH2 0x307 JUMPI PUSH2 0x809 PUSH2 0xAA3 JUMP JUMPDEST PUSH1 0x1 PUSH1 0x1 PUSH1 0xA0 SHL SUB SWAP2 SWAP1 PUSH1 0x60 SWAP1 PUSH32 0x0 SWAP1 PUSH1 0x24 CALLDATALOAD PUSH2 0x848 CALLER DUP8 DUP6 AND EQ PUSH2 0xAD4 JUMP JUMPDEST DUP6 DUP3 AND SWAP6 PUSH2 0x858 DUP3 ADDRESS DUP7 DUP11 PUSH2 0xB66 JUMP JUMPDEST PUSH2 0x867 DUP3 DUP3 PUSH1 0x1 SLOAD AND DUP10 PUSH2 0xBC1 JUMP JUMPDEST PUSH1 0x1 SLOAD DUP7 MLOAD PUSH4 0xF305D719 PUSH1 0xE0 SHL DUP2 MSTORE PUSH1 0x1 PUSH1 0x1 PUSH1 0xA0 SHL SUB SWAP5 DUP6 AND SWAP10 DUP2 ADD SWAP10 DUP11 MSTORE PUSH1 0x20 DUP11 ADD SWAP4 SWAP1 SWAP4 MSTORE PUSH1 0x0 PUSH1 0x40 DUP11 ADD DUP2 SWAP1 MSTORE PUSH1 0x60 DUP11 ADD MSTORE SWAP4 SWAP1 SWAP3 AND PUSH1 0x80 DUP9 ADD MSTORE TIMESTAMP PUSH1 0xA0 DUP9 ADD MSTORE SWAP6 DUP7 SWAP3 SWAP1 DUP4 SWAP1 SUB PUSH1 0xC0 ADD SWAP2 DUP4 SWAP2 CALLVALUE SWAP2 AND GAS CALL SWAP2 DUP3 ISZERO PUSH2 0x979 JUMPI DUP5 SWAP4 DUP6 DUP1 SWAP5 PUSH2 0x930 JUMPI JUMPDEST POP POP DUP2 MLOAD DUP5 DUP2 MSTORE PUSH1 0x20 DUP2 ADD DUP7 SWAP1 MSTORE PUSH1 0x40 DUP2 ADD DUP5 SWAP1 MSTORE PUSH2 0x92C SWAP4 SWAP3 SWAP2 SWAP1 PUSH32 0x64B83944E79C3CE8D4C297411DE637C3E102D064677AAC0C163976EBDCD6F50E SWAP1 PUSH1 0x60 SWAP1 LOG2 MLOAD SWAP4 DUP5 SWAP4 DUP5 PUSH1 0x40 SWAP2 SWAP5 SWAP4 SWAP3 PUSH1 0x60 DUP3 ADD SWAP6 DUP3 MSTORE PUSH1 0x20 DUP3 ADD MSTORE ADD MSTORE JUMP JUMPDEST SUB SWAP1 RETURN JUMPDEST SWAP3 SWAP6 POP SWAP4 POP SWAP2 POP PUSH1 0x60 DUP4 RETURNDATASIZE DUP3 GT PUSH2 0x971 JUMPI JUMPDEST DUP2 PUSH2 0x94F PUSH1 0x60 SWAP4 DUP4 PUSH2 0xB0F JUMP JUMPDEST DUP2 ADD SUB SLT PUSH2 0x511 JUMPI POP DUP2 MLOAD PUSH1 0x20 DUP4 ADD MLOAD SWAP3 DUP5 ADD MLOAD SWAP3 SWAP4 SWAP1 SWAP3 SWAP2 PUSH2 0x92C CODESIZE PUSH2 0x8CF JUMP JUMPDEST RETURNDATASIZE SWAP2 POP PUSH2 0x942 JUMP JUMPDEST DUP2 MLOAD RETURNDATASIZE DUP7 DUP3 RETURNDATACOPY RETURNDATASIZE SWAP1 REVERT JUMPDEST SWAP2 SWAP1 POP CALLVALUE PUSH2 0x307 JUMPI DUP1 PUSH1 0x3 NOT CALLDATASIZE ADD SLT PUSH2 0x307 JUMPI PUSH2 0x99E PUSH2 0xAA3 JUMP JUMPDEST PUSH2 0x9A6 PUSH2 0xABE JUMP JUMPDEST SWAP3 PUSH1 0x1 PUSH1 0x1 PUSH1 0xA0 SHL SUB SWAP2 DUP3 SWAP1 PUSH2 0x9DF CALLER PUSH32 0x0 DUP5 AND EQ PUSH2 0xAD4 JUMP JUMPDEST AND SWAP3 DUP4 ISZERO ISZERO DUP1 PUSH2 0xA73 JUMPI JUMPDEST ISZERO PUSH2 0xA3C JUMPI POP POP PUSH12 0xFFFFFFFFFFFFFFFFFFFFFFFF PUSH1 0xA0 SHL SWAP3 DUP3 DUP5 DUP7 SLOAD AND OR DUP6 SSTORE AND DUP1 SWAP3 PUSH1 0x1 SLOAD AND OR PUSH1 0x1 SSTORE PUSH32 0xBD1F56340E71693E2714EF366858F586D668634BBAA3720EBF8B0FAF0B1AA82C DUP4 DUP1 LOG3 DUP1 RETURN JUMPDEST SWAP1 PUSH1 0x20 PUSH1 0x64 SWAP3 MLOAD SWAP2 PUSH3 0x461BCD PUSH1 0xE5 SHL DUP4 MSTORE DUP3 ADD MSTORE PUSH1 0x11 PUSH1 0x24 DUP3 ADD MSTORE PUSH17 0x496E76616C696420616464726573736573 PUSH1 0x78 SHL PUSH1 0x44 DUP3 ADD MSTORE REVERT JUMPDEST POP DUP3 DUP6 AND ISZERO ISZERO PUSH2 0x9EA JUMP JUMPDEST DUP5 SWAP1 CALLVALUE PUSH2 0xC9 JUMPI DUP2 PUSH1 0x3 NOT CALLDATASIZE ADD SLT PUSH2 0xC9 JUMPI PUSH1 0x1 SLOAD PUSH1 0x1 PUSH1 0x1 PUSH1 0xA0 SHL SUB AND DUP2 MSTORE PUSH1 0x20 SWAP1 RETURN JUMPDEST PUSH1 0x4 CALLDATALOAD SWAP1 PUSH1 0x1 PUSH1 0x1 PUSH1 0xA0 SHL SUB DUP3 AND DUP3 SUB PUSH2 0xAB9 JUMPI JUMP JUMPDEST PUSH1 0x0 DUP1 REVERT JUMPDEST PUSH1 0x24 CALLDATALOAD SWAP1 PUSH1 0x1 PUSH1 0x1 PUSH1 0xA0 SHL SUB DUP3 AND DUP3 SUB PUSH2 0xAB9 JUMPI JUMP JUMPDEST ISZERO PUSH2 0xADB JUMPI JUMP JUMPDEST PUSH1 0x40 MLOAD PUSH3 0x461BCD PUSH1 0xE5 SHL DUP2 MSTORE PUSH1 0x20 PUSH1 0x4 DUP3 ADD MSTORE PUSH1 0xC PUSH1 0x24 DUP3 ADD MSTORE PUSH12 0x4F6E6C7920666163746F7279 PUSH1 0xA0 SHL PUSH1 0x44 DUP3 ADD MSTORE PUSH1 0x64 SWAP1 REVERT JUMPDEST SWAP1 PUSH1 0x1F DUP1 NOT SWAP2 ADD AND DUP2 ADD SWAP1 DUP2 LT PUSH8 0xFFFFFFFFFFFFFFFF DUP3 GT OR PUSH2 0xB31 JUMPI PUSH1 0x40 MSTORE JUMP JUMPDEST PUSH4 0x4E487B71 PUSH1 0xE0 SHL PUSH1 0x0 MSTORE PUSH1 0x41 PUSH1 0x4 MSTORE PUSH1 0x24 PUSH1 0x0 REVERT JUMPDEST SWAP1 DUP2 PUSH1 0x20 SWAP2 SUB SLT PUSH2 0xAB9 JUMPI MLOAD PUSH1 0x1 PUSH1 0x1 PUSH1 0xA0 SHL SUB DUP2 AND DUP2 SUB PUSH2 0xAB9 JUMPI SWAP1 JUMP JUMPDEST PUSH1 0x40 MLOAD PUSH4 0x23B872DD PUSH1 0xE0 SHL PUSH1 0x20 DUP3 ADD MSTORE PUSH1 0x1 PUSH1 0x1 PUSH1 0xA0 SHL SUB SWAP3 DUP4 AND PUSH1 0x24 DUP3 ADD MSTORE SWAP3 SWAP1 SWAP2 AND PUSH1 0x44 DUP4 ADD MSTORE PUSH1 0x64 DUP1 DUP4 ADD SWAP4 SWAP1 SWAP4 MSTORE SWAP2 DUP2 MSTORE PUSH1 0xA0 DUP2 ADD SWAP2 DUP2 DUP4 LT PUSH8 0xFFFFFFFFFFFFFFFF DUP5 GT OR PUSH2 0xB31 JUMPI PUSH2 0xBBF SWAP3 PUSH1 0x40 MSTORE PUSH2 0xCAB JUMP JUMPDEST JUMP JUMPDEST PUSH1 0x40 MLOAD PUSH4 0x6EB1769F PUSH1 0xE1 SHL DUP2 MSTORE ADDRESS PUSH1 0x4 DUP3 ADD MSTORE PUSH1 0x1 PUSH1 0x1 PUSH1 0xA0 SHL SUB DUP4 AND PUSH1 0x24 DUP3 ADD MSTORE SWAP2 SWAP3 PUSH1 0x20 DUP4 DUP1 PUSH1 0x44 DUP2 ADD SUB DUP2 PUSH1 0x1 PUSH1 0x1 PUSH1 0xA0 SHL SUB DUP7 AND GAS STATICCALL SWAP3 DUP4 ISZERO PUSH2 0xC9F JUMPI PUSH1 0x0 SWAP4 PUSH2 0xC6C JUMPI JUMPDEST POP DUP3 ADD DUP1 SWAP3 GT PUSH2 0xC56 JUMPI PUSH1 0x40 MLOAD PUSH4 0x95EA7B3 PUSH1 0xE0 SHL PUSH1 0x20 DUP3 ADD MSTORE PUSH1 0x1 PUSH1 0x1 PUSH1 0xA0 SHL SUB SWAP4 SWAP1 SWAP4 AND PUSH1 0x24 DUP5 ADD MSTORE PUSH1 0x44 DUP1 DUP5 ADD SWAP3 SWAP1 SWAP3 MSTORE SWAP1 DUP3 MSTORE PUSH2 0xBBF SWAP2 SWAP1 PUSH2 0xC51 PUSH1 0x64 DUP4 PUSH2 0xB0F JUMP JUMPDEST PUSH2 0xCAB JUMP JUMPDEST PUSH4 0x4E487B71 PUSH1 0xE0 SHL PUSH1 0x0 MSTORE PUSH1 0x11 PUSH1 0x4 MSTORE PUSH1 0x24 PUSH1 0x0 REVERT JUMPDEST SWAP1 SWAP3 PUSH1 0x20 DUP3 RETURNDATASIZE DUP3 GT PUSH2 0xC97 JUMPI JUMPDEST DUP2 PUSH2 0xC86 PUSH1 0x20 SWAP4 DUP4 PUSH2 0xB0F JUMP JUMPDEST DUP2 ADD SUB SLT PUSH2 0x511 JUMPI POP MLOAD SWAP2 CODESIZE PUSH2 0xC0A JUMP JUMPDEST RETURNDATASIZE SWAP2 POP PUSH2 0xC79 JUMP JUMPDEST PUSH1 0x40 MLOAD RETURNDATASIZE PUSH1 0x0 DUP3 RETURNDATACOPY RETURNDATASIZE SWAP1 REVERT JUMPDEST PUSH1 0x1 DUP1 PUSH1 0xA0 SHL SUB AND SWAP1 PUSH1 0x40 MLOAD PUSH1 0x40 DUP2 ADD PUSH8 0xFFFFFFFFFFFFFFFF SWAP1 DUP3 DUP2 LT DUP3 DUP3 GT OR PUSH2 0xB31 JUMPI PUSH1 0x40 MSTORE PUSH1 0x20 SWAP4 DUP5 DUP4 MSTORE PUSH32 0x5361666545524332303A206C6F772D6C6576656C2063616C6C206661696C6564 DUP6 DUP5 ADD MSTORE PUSH1 0x0 DUP1 DUP6 DUP8 DUP3 SWAP8 MLOAD SWAP2 ADD DUP3 DUP6 GAS CALL SWAP1 RETURNDATASIZE ISZERO PUSH2 0xDF0 JUMPI RETURNDATASIZE SWAP3 DUP4 GT PUSH2 0xDDC JUMPI SWAP1 PUSH2 0xD46 SWAP4 SWAP3 SWAP2 PUSH1 0x40 MLOAD SWAP3 PUSH2 0xD39 DUP9 PUSH1 0x1F NOT PUSH1 0x1F DUP5 ADD AND ADD DUP6 PUSH2 0xB0F JUMP JUMPDEST DUP4 MSTORE RETURNDATASIZE DUP7 DUP9 DUP6 ADD RETURNDATACOPY PUSH2 0xDFB JUMP JUMPDEST DUP1 MLOAD SWAP2 DUP3 ISZERO SWAP2 DUP5 DUP4 ISZERO PUSH2 0xDB8 JUMPI JUMPDEST POP POP POP SWAP1 POP ISZERO PUSH2 0xD61 JUMPI POP JUMP JUMPDEST PUSH1 0x84 SWAP1 PUSH1 0x40 MLOAD SWAP1 PUSH3 0x461BCD PUSH1 0xE5 SHL DUP3 MSTORE PUSH1 0x4 DUP3 ADD MSTORE PUSH1 0x2A PUSH1 0x24 DUP3 ADD MSTORE PUSH32 0x5361666545524332303A204552433230206F7065726174696F6E20646964206E PUSH1 0x44 DUP3 ADD MSTORE PUSH10 0x1BDD081CDD58D8D95959 PUSH1 0xB2 SHL PUSH1 0x64 DUP3 ADD MSTORE REVERT JUMPDEST SWAP2 SWAP4 DUP2 DUP1 SWAP5 POP ADD SUB SLT PUSH2 0xC9 JUMPI DUP3 ADD MLOAD SWAP1 DUP2 ISZERO ISZERO DUP3 SUB PUSH2 0x511 JUMPI POP DUP1 CODESIZE DUP1 DUP5 PUSH2 0xD54 JUMP JUMPDEST PUSH4 0x4E487B71 PUSH1 0xE0 SHL DUP6 MSTORE PUSH1 0x41 PUSH1 0x4 MSTORE PUSH1 0x24 DUP6 REVERT JUMPDEST SWAP1 PUSH2 0xD46 SWAP4 SWAP3 POP PUSH1 0x60 SWAP2 JUMPDEST SWAP2 SWAP3 SWAP1 ISZERO PUSH2 0xE5D JUMPI POP DUP2 MLOAD ISZERO PUSH2 0xE0F JUMPI POP SWAP1 JUMP JUMPDEST EXTCODESIZE ISZERO PUSH2 0xE18 JUMPI SWAP1 JUMP JUMPDEST PUSH1 0x40 MLOAD PUSH3 0x461BCD PUSH1 0xE5 SHL DUP2 MSTORE PUSH1 0x20 PUSH1 0x4 DUP3 ADD MSTORE PUSH1 0x1D PUSH1 0x24 DUP3 ADD MSTORE PUSH32 0x416464726573733A2063616C6C20746F206E6F6E2D636F6E7472616374000000 PUSH1 0x44 DUP3 ADD MSTORE PUSH1 0x64 SWAP1 REVERT JUMPDEST DUP3 MLOAD SWAP1 SWAP2 POP ISZERO PUSH2 0xE70 JUMPI POP DUP1 MLOAD SWAP1 PUSH1 0x20 ADD REVERT JUMPDEST PUSH1 0x40 MLOAD SWAP1 PUSH3 0x461BCD PUSH1 0xE5 SHL DUP3 MSTORE DUP2 PUSH1 0x20 DUP1 PUSH1 0x4 DUP4 ADD MSTORE DUP3 MLOAD SWAP1 DUP2 PUSH1 0x24 DUP5 ADD MSTORE PUSH1 0x0 SWAP4 JUMPDEST DUP3 DUP6 LT PUSH2 0xEB6 JUMPI POP POP PUSH1 0x44 SWAP3 POP PUSH1 0x0 DUP4 DUP3 DUP5 ADD ADD MSTORE PUSH1 0x1F DUP1 NOT SWAP2 ADD AND DUP2 ADD SUB ADD SWAP1 REVERT JUMPDEST DUP5 DUP2 ADD DUP3 ADD MLOAD DUP7 DUP7 ADD PUSH1 0x44 ADD MSTORE SWAP4 DUP2 ADD SWAP4 DUP6 SWAP4 POP PUSH2 0xE93 JUMP INVALID LOG1 PUSH5 0x736F6C6343 STOP ADDMOD EQ STOP EXP "},"methodIdentifiers":{"addLiquidity(address,uint256)":"56688700","createLiquidityPair(address)":"98e122fd","dexFactory()":"b8d8fbb4","dexRouter()":"0758d924","factory()":"c45a0155","removeLiquidity(address,uint256)":"a201ccf6","setDexAddresses(address,address)":"09cccaac","sweepDust(address,address)":"a9fb82d6"}}}}}