{"contracts/MemeCoinFactory.sol":{"MemeCoinFactory":{"abi":[{"inputs":[{"internalType":"uint16","name":"_platformFeeBP","type":"uint16"},{"internalType":"uint16","name":"_referralFeeBP","type":"uint16"}],"stateMutability":"nonpayable","type":"constructor"},{"inputs":[],"name":"BadParams","type":"error"},{"inputs":[],"name":"ExceedsCap","type":"error"},{"inputs":[],"name":"FeesTooHigh","type":"error"},{"inputs":[],"name":"IncorrectETH","type":"error"},{"inputs":[],"name":"InsufficientFactoryBalance","type":"error"},{"inputs":[],"name":"InvalidHelper","type":"error"},{"inputs":[],"name":"NoCreatorFees","type":"error"},{"inputs":[],"name":"NoETH","type":"error"},{"inputs":[],"name":"NoFees","type":"error"},{"inputs":[],"name":"NotAuthorized","type":"error"},{"inputs":[],"name":"NotForSale","type":"error"},{"inputs":[],"name":"NotInPresale","type":"error"},{"inputs":[],"name":"NotLaunched","type":"error"},{"inputs":[],"name":"NotWhitelisted","type":"error"},{"inputs":[],"name":"NothingToClaim","type":"error"},{"inputs":[],"name":"PriceZero","type":"error"},{"inputs":[],"name":"ReferralFailed","type":"error"},{"inputs":[{"internalType":"address","name":"token","type":"address"}],"name":"TokenSalePaused","type":"error"},{"inputs":[],"name":"ZeroAmount","type":"error"},{"anonymous":false,"inputs":[{"indexed":true,"internalType":"address","name":"token","type":"address"},{"indexed":true,"internalType":"address","name":"buyer","type":"address"},{"indexed":false,"internalType":"uint256","name":"amountAtomic","type":"uint256"},{"indexed":false,"internalType":"uint256","name":"costWei","type":"uint256"},{"indexed":true,"internalType":"address","name":"referrer","type":"address"},{"indexed":false,"internalType":"uint256","name":"platformShare","type":"uint256"},{"indexed":false,"internalType":"uint256","name":"referralShare","type":"uint256"},{"indexed":false,"internalType":"uint256","name":"creatorShare","type":"uint256"}],"name":"Bought","type":"event"},{"anonymous":false,"inputs":[{"indexed":true,"internalType":"address","name":"creator","type":"address"},{"indexed":false,"internalType":"uint256","name":"amount","type":"uint256"}],"name":"CreatorFeesWithdrawn","type":"event"},{"anonymous":false,"inputs":[{"indexed":true,"internalType":"address","name":"helper","type":"address"}],"name":"DexHelperSet","type":"event"},{"anonymous":false,"inputs":[{"indexed":true,"internalType":"address","name":"to","type":"address"},{"indexed":false,"internalType":"uint256","name":"amount","type":"uint256"}],"name":"ETHRescued","type":"event"},{"anonymous":false,"inputs":[{"indexed":false,"internalType":"uint16","name":"newPlatformBP","type":"uint16"},{"indexed":false,"internalType":"uint16","name":"newReferralBP","type":"uint16"}],"name":"FeesUpdated","type":"event"},{"anonymous":false,"inputs":[{"indexed":true,"internalType":"address","name":"token","type":"address"},{"indexed":false,"internalType":"bool","name":"active","type":"bool"}],"name":"ListingActiveToggled","type":"event"},{"anonymous":false,"inputs":[{"indexed":false,"internalType":"address","name":"account","type":"address"}],"name":"Paused","type":"event"},{"anonymous":false,"inputs":[{"indexed":false,"internalType":"bytes32","name":"newRoot","type":"bytes32"}],"name":"PresaleRootUpdated","type":"event"},{"anonymous":false,"inputs":[{"indexed":true,"internalType":"bytes32","name":"role","type":"bytes32"},{"indexed":true,"internalType":"bytes32","name":"previousAdminRole","type":"bytes32"},{"indexed":true,"internalType":"bytes32","name":"newAdminRole","type":"bytes32"}],"name":"RoleAdminChanged","type":"event"},{"anonymous":false,"inputs":[{"indexed":true,"internalType":"bytes32","name":"role","type":"bytes32"},{"indexed":true,"internalType":"address","name":"account","type":"address"},{"indexed":true,"internalType":"address","name":"sender","type":"address"}],"name":"RoleGranted","type":"event"},{"anonymous":false,"inputs":[{"indexed":true,"internalType":"bytes32","name":"role","type":"bytes32"},{"indexed":true,"internalType":"address","name":"account","type":"address"},{"indexed":true,"internalType":"address","name":"sender","type":"address"}],"name":"RoleRevoked","type":"event"},{"anonymous":false,"inputs":[{"indexed":true,"internalType":"address","name":"token","type":"address"}],"name":"SaleEnded","type":"event"},{"anonymous":false,"inputs":[{"indexed":true,"internalType":"address","name":"token","type":"address"},{"indexed":true,"internalType":"address","name":"creator","type":"address"},{"indexed":false,"internalType":"uint256","name":"priceWei","type":"uint256"},{"indexed":false,"internalType":"string","name":"description","type":"string"},{"indexed":false,"internalType":"string","name":"ipfsHash","type":"string"}],"name":"TokenCreated","type":"event"},{"anonymous":false,"inputs":[{"indexed":true,"internalType":"address","name":"token","type":"address"}],"name":"TokenPaused","type":"event"},{"anonymous":false,"inputs":[{"indexed":true,"internalType":"address","name":"token","type":"address"},{"indexed":false,"internalType":"uint256","name":"amount","type":"uint256"}],"name":"TokenRescued","type":"event"},{"anonymous":false,"inputs":[{"indexed":true,"internalType":"address","name":"token","type":"address"}],"name":"TokenUnpaused","type":"event"},{"anonymous":false,"inputs":[{"indexed":false,"internalType":"address","name":"account","type":"address"}],"name":"Unpaused","type":"event"},{"anonymous":false,"inputs":[{"indexed":true,"internalType":"address","name":"token","type":"address"},{"indexed":false,"internalType":"uint256","name":"amount","type":"uint256"}],"name":"UnsoldReclaimed","type":"event"},{"anonymous":false,"inputs":[{"indexed":true,"internalType":"address","name":"token","type":"address"},{"indexed":true,"internalType":"address","name":"user","type":"address"}],"name":"UserWhitelisted","type":"event"},{"anonymous":false,"inputs":[{"indexed":true,"internalType":"address","name":"beneficiary","type":"address"},{"indexed":true,"internalType":"address","name":"token","type":"address"},{"indexed":false,"internalType":"uint256","name":"amountClaimed","type":"uint256"}],"name":"VestedClaimed","type":"event"},{"anonymous":false,"inputs":[{"indexed":true,"internalType":"address","name":"beneficiary","type":"address"},{"indexed":true,"internalType":"address","name":"token","type":"address"},{"indexed":false,"internalType":"uint256","name":"total","type":"uint256"},{"indexed":false,"internalType":"uint256","name":"start","type":"uint256"},{"indexed":false,"internalType":"uint256","name":"cliff","type":"uint256"},{"indexed":false,"internalType":"uint256","name":"duration","type":"uint256"}],"name":"VestingScheduleSet","type":"event"},{"stateMutability":"payable","type":"fallback"},{"inputs":[],"name":"DEFAULT_ADMIN_ROLE","outputs":[{"internalType":"bytes32","name":"","type":"bytes32"}],"stateMutability":"view","type":"function"},{"inputs":[],"name":"OPERATOR_ROLE","outputs":[{"internalType":"bytes32","name":"","type":"bytes32"}],"stateMutability":"view","type":"function"},{"inputs":[],"name":"PAUSER_ROLE","outputs":[{"internalType":"bytes32","name":"","type":"bytes32"}],"stateMutability":"view","type":"function"},{"inputs":[{"internalType":"address","name":"token_","type":"address"},{"internalType":"address[]","name":"users","type":"address[]"}],"name":"addToWhitelist","outputs":[],"stateMutability":"nonpayable","type":"function"},{"inputs":[{"internalType":"address","name":"token_","type":"address"},{"internalType":"uint256","name":"amountToken_","type":"uint256"}],"name":"addTokenLiquidity","outputs":[],"stateMutability":"payable","type":"function"},{"inputs":[{"internalType":"uint256","name":"","type":"uint256"}],"name":"allTokens","outputs":[{"internalType":"address","name":"token","type":"address"},{"internalType":"address","name":"creator","type":"address"},{"internalType":"uint256","name":"priceWei","type":"uint256"},{"internalType":"string","name":"description","type":"string"},{"internalType":"string","name":"ipfsHash","type":"string"},{"internalType":"bool","name":"active","type":"bool"}],"stateMutability":"view","type":"function"},{"inputs":[{"internalType":"address","name":"token_","type":"address"},{"internalType":"uint256","name":"amountAtomic","type":"uint256"},{"internalType":"uint256","name":"maxAmount","type":"uint256"},{"internalType":"address","name":"ref","type":"address"},{"internalType":"bytes32[]","name":"proof","type":"bytes32[]"}],"name":"buyPresale","outputs":[],"stateMutability":"payable","type":"function"},{"inputs":[{"internalType":"address","name":"token_","type":"address"},{"internalType":"uint256","name":"amountAtomic","type":"uint256"},{"internalType":"address","name":"referrer","type":"address"}],"name":"buyToken","outputs":[],"stateMutability":"payable","type":"function"},{"inputs":[],"name":"claimVested","outputs":[],"stateMutability":"nonpayable","type":"function"},{"inputs":[{"internalType":"address","name":"factory_","type":"address"},{"internalType":"address","name":"router_","type":"address"}],"name":"configureDex","outputs":[],"stateMutability":"nonpayable","type":"function"},{"inputs":[{"internalType":"string","name":"name_","type":"string"},{"internalType":"string","name":"symbol_","type":"string"},{"internalType":"string","name":"description_","type":"string"},{"internalType":"uint256","name":"totalSupply_","type":"uint256"},{"internalType":"uint256","name":"priceWei_","type":"uint256"},{"internalType":"string","name":"ipfsHash_","type":"string"}],"name":"createMemeCoin","outputs":[{"internalType":"address","name":"a","type":"address"}],"stateMutability":"nonpayable","type":"function"},{"inputs":[{"internalType":"address","name":"token_","type":"address"}],"name":"createPair","outputs":[],"stateMutability":"nonpayable","type":"function"},{"inputs":[{"internalType":"address","name":"","type":"address"}],"name":"creatorFeesAccrued","outputs":[{"internalType":"uint256","name":"","type":"uint256"}],"stateMutability":"view","type":"function"},{"inputs":[],"name":"dexHelper","outputs":[{"internalType":"contract IMemeCoinDEXHelper","name":"","type":"address"}],"stateMutability":"view","type":"function"},{"inputs":[],"name":"emergencyWithdrawETH","outputs":[],"stateMutability":"nonpayable","type":"function"},{"inputs":[{"internalType":"address","name":"token_","type":"address"}],"name":"endSale","outputs":[],"stateMutability":"nonpayable","type":"function"},{"inputs":[],"name":"getAllTokenInfo","outputs":[{"internalType":"address[]","name":"tokens","type":"address[]"},{"internalType":"address[]","name":"creators","type":"address[]"},{"internalType":"uint256[]","name":"priceWeis","type":"uint256[]"},{"internalType":"string[]","name":"descriptions","type":"string[]"},{"internalType":"string[]","name":"ipfsHashes","type":"string[]"},{"internalType":"bool[]","name":"actives","type":"bool[]"},{"internalType":"uint256[]","name":"totalSupplies","type":"uint256[]"},{"internalType":"uint256[]","name":"unsoldSupplies","type":"uint256[]"}],"stateMutability":"view","type":"function"},{"inputs":[{"internalType":"bytes32","name":"role","type":"bytes32"}],"name":"getRoleAdmin","outputs":[{"internalType":"bytes32","name":"","type":"bytes32"}],"stateMutability":"view","type":"function"},{"inputs":[{"internalType":"address","name":"token_","type":"address"}],"name":"getTokenInfoByAddress","outputs":[{"internalType":"address","name":"creator","type":"address"},{"internalType":"uint256","name":"priceWei","type":"uint256"},{"internalType":"string","name":"description","type":"string"},{"internalType":"string","name":"ipfsHash","type":"string"},{"internalType":"bool","name":"active","type":"bool"},{"internalType":"uint256","name":"totalSupply","type":"uint256"},{"internalType":"uint256","name":"unsoldSupply","type":"uint256"}],"stateMutability":"view","type":"function"},{"inputs":[{"internalType":"uint256","name":"start","type":"uint256"},{"internalType":"uint256","name":"count","type":"uint256"}],"name":"getTokens","outputs":[{"components":[{"internalType":"address","name":"token","type":"address"},{"internalType":"address","name":"creator","type":"address"},{"internalType":"uint256","name":"priceWei","type":"uint256"},{"internalType":"string","name":"description","type":"string"},{"internalType":"string","name":"ipfsHash","type":"string"},{"internalType":"bool","name":"active","type":"bool"}],"internalType":"struct MemeCoinFactory.TokenInfo[]","name":"slice","type":"tuple[]"}],"stateMutability":"view","type":"function"},{"inputs":[{"internalType":"address","name":"user","type":"address"}],"name":"getUserHoldings","outputs":[{"internalType":"address[]","name":"tokens","type":"address[]"},{"internalType":"uint256[]","name":"balances","type":"uint256[]"}],"stateMutability":"view","type":"function"},{"inputs":[{"internalType":"address","name":"beneficiary","type":"address"},{"internalType":"uint256","name":"i","type":"uint256"}],"name":"getVestingSchedule","outputs":[{"internalType":"address","name":"token","type":"address"},{"internalType":"uint256","name":"total","type":"uint256"},{"internalType":"uint256","name":"claimed","type":"uint256"},{"internalType":"uint256","name":"start","type":"uint256"},{"internalType":"uint256","name":"cliff","type":"uint256"},{"internalType":"uint256","name":"duration","type":"uint256"}],"stateMutability":"view","type":"function"},{"inputs":[{"internalType":"bytes32","name":"role","type":"bytes32"},{"internalType":"address","name":"account","type":"address"}],"name":"grantRole","outputs":[],"stateMutability":"nonpayable","type":"function"},{"inputs":[{"internalType":"bytes32","name":"role","type":"bytes32"},{"internalType":"address","name":"account","type":"address"}],"name":"hasRole","outputs":[{"internalType":"bool","name":"","type":"bool"}],"stateMutability":"view","type":"function"},{"inputs":[],"name":"pause","outputs":[],"stateMutability":"nonpayable","type":"function"},{"inputs":[{"internalType":"address","name":"token_","type":"address"}],"name":"pauseTokenSales","outputs":[],"stateMutability":"nonpayable","type":"function"},{"inputs":[],"name":"paused","outputs":[{"internalType":"bool","name":"","type":"bool"}],"stateMutability":"view","type":"function"},{"inputs":[],"name":"platformFeeBP","outputs":[{"internalType":"uint16","name":"","type":"uint16"}],"stateMutability":"view","type":"function"},{"inputs":[],"name":"platformFeesAccrued","outputs":[{"internalType":"uint256","name":"","type":"uint256"}],"stateMutability":"view","type":"function"},{"inputs":[{"internalType":"address","name":"","type":"address"},{"internalType":"address","name":"","type":"address"}],"name":"presaleClaimed","outputs":[{"internalType":"uint256","name":"","type":"uint256"}],"stateMutability":"view","type":"function"},{"inputs":[],"name":"presaleMerkleRoot","outputs":[{"internalType":"bytes32","name":"","type":"bytes32"}],"stateMutability":"view","type":"function"},{"inputs":[{"internalType":"address","name":"token_","type":"address"},{"internalType":"uint256","name":"amount","type":"uint256"}],"name":"reclaimUnsold","outputs":[],"stateMutability":"nonpayable","type":"function"},{"inputs":[],"name":"referralFeeBP","outputs":[{"internalType":"uint16","name":"","type":"uint16"}],"stateMutability":"view","type":"function"},{"inputs":[{"internalType":"address","name":"token_","type":"address"},{"internalType":"address[]","name":"users","type":"address[]"}],"name":"removeFromWhitelist","outputs":[],"stateMutability":"nonpayable","type":"function"},{"inputs":[{"internalType":"address","name":"token_","type":"address"},{"internalType":"uint256","name":"liq_","type":"uint256"}],"name":"removeTokenLiquidity","outputs":[],"stateMutability":"nonpayable","type":"function"},{"inputs":[{"internalType":"bytes32","name":"role","type":"bytes32"},{"internalType":"address","name":"account","type":"address"}],"name":"renounceRole","outputs":[],"stateMutability":"nonpayable","type":"function"},{"inputs":[{"internalType":"address","name":"token_","type":"address"},{"internalType":"uint256","name":"amount","type":"uint256"}],"name":"rescueERC20","outputs":[],"stateMutability":"nonpayable","type":"function"},{"inputs":[{"internalType":"bytes32","name":"role","type":"bytes32"},{"internalType":"address","name":"account","type":"address"}],"name":"revokeRole","outputs":[],"stateMutability":"nonpayable","type":"function"},{"inputs":[{"internalType":"address","name":"helper_","type":"address"}],"name":"setDexHelper","outputs":[],"stateMutability":"nonpayable","type":"function"},{"inputs":[{"internalType":"bytes32","name":"root_","type":"bytes32"}],"name":"setPresaleMerkleRoot","outputs":[],"stateMutability":"nonpayable","type":"function"},{"inputs":[{"internalType":"address","name":"beneficiary","type":"address"},{"internalType":"address","name":"token_","type":"address"},{"internalType":"uint256","name":"total","type":"uint256"},{"internalType":"uint256","name":"cliff","type":"uint256"},{"internalType":"uint256","name":"duration","type":"uint256"}],"name":"setVestingSchedule","outputs":[],"stateMutability":"nonpayable","type":"function"},{"inputs":[{"internalType":"bytes4","name":"interfaceId","type":"bytes4"}],"name":"supportsInterface","outputs":[{"internalType":"bool","name":"","type":"bool"}],"stateMutability":"view","type":"function"},{"inputs":[{"internalType":"address","name":"token","type":"address"},{"internalType":"address","name":"to","type":"address"}],"name":"sweepHelperDust","outputs":[],"stateMutability":"nonpayable","type":"function"},{"inputs":[{"internalType":"address","name":"token_","type":"address"},{"internalType":"bool","name":"active","type":"bool"}],"name":"toggleListingActive","outputs":[],"stateMutability":"nonpayable","type":"function"},{"inputs":[{"internalType":"address","name":"token_","type":"address"},{"internalType":"bool","name":"on","type":"bool"}],"name":"toggleWhitelist","outputs":[],"stateMutability":"nonpayable","type":"function"},{"inputs":[{"internalType":"address","name":"","type":"address"}],"name":"tokenIndexPlusOne","outputs":[{"internalType":"uint256","name":"","type":"uint256"}],"stateMutability":"view","type":"function"},{"inputs":[{"internalType":"address","name":"","type":"address"}],"name":"tokenPaused","outputs":[{"internalType":"bool","name":"","type":"bool"}],"stateMutability":"view","type":"function"},{"inputs":[],"name":"totalTokens","outputs":[{"internalType":"uint256","name":"","type":"uint256"}],"stateMutability":"view","type":"function"},{"inputs":[],"name":"unpause","outputs":[],"stateMutability":"nonpayable","type":"function"},{"inputs":[{"internalType":"address","name":"token_","type":"address"}],"name":"unpauseTokenSales","outputs":[],"stateMutability":"nonpayable","type":"function"},{"inputs":[{"internalType":"uint16","name":"newPlatformBP","type":"uint16"},{"internalType":"uint16","name":"newReferralBP","type":"uint16"}],"name":"updateFees","outputs":[],"stateMutability":"nonpayable","type":"function"},{"inputs":[{"internalType":"address","name":"beneficiary","type":"address"}],"name":"vestingScheduleCount","outputs":[{"internalType":"uint256","name":"","type":"uint256"}],"stateMutability":"view","type":"function"},{"inputs":[{"internalType":"address","name":"","type":"address"},{"internalType":"uint256","name":"","type":"uint256"}],"name":"vestingSchedules","outputs":[{"internalType":"address","name":"token","type":"address"},{"internalType":"uint256","name":"total","type":"uint256"},{"internalType":"uint256","name":"claimed","type":"uint256"},{"internalType":"uint256","name":"start","type":"uint256"},{"internalType":"uint256","name":"cliff","type":"uint256"},{"internalType":"uint256","name":"duration","type":"uint256"}],"stateMutability":"view","type":"function"},{"inputs":[{"internalType":"address","name":"","type":"address"}],"name":"whitelistEnabled","outputs":[{"internalType":"bool","name":"","type":"bool"}],"stateMutability":"view","type":"function"},{"inputs":[{"internalType":"address","name":"","type":"address"},{"internalType":"address","name":"","type":"address"}],"name":"whitelisted","outputs":[{"internalType":"bool","name":"","type":"bool"}],"stateMutability":"view","type":"function"},{"inputs":[{"internalType":"address[]","name":"creators","type":"address[]"}],"name":"withdrawCreatorFeesBatch","outputs":[],"stateMutability":"nonpayable","type":"function"},{"inputs":[],"name":"withdrawMyCreatorFees","outputs":[],"stateMutability":"nonpayable","type":"function"},{"inputs":[{"internalType":"address payable","name":"to","type":"address"}],"name":"withdrawPlatformFees","outputs":[],"stateMutability":"nonpayable","type":"function"},{"stateMutability":"payable","type":"receive"}],"evm":{"bytecode":{"linkReferences":{},"object":"60803462000220576200631b90601f38839003908101601f19168201906001600160401b0382118383101762000225578083916040958694855283398101031262000220576200004f816200023b565b6200005e60208093016200023b565b60ff19906001928284541684558360025561ffff809116908083168201908082116200020a5761271091161015620001f95763ffff00006003549260101b169163ffffffff19161717600355600091828052828452848320338452845260ff858420541615620001c4575b7f65d7a28e3265b37a6474929f336521b332c1681b933f6cb9f3376673440d862a808452838552858420338552855260ff8685205416156200018d575b507f97667070c54ef182b0f5858b034beac1b6f3089aa2d3188bb1e8929f4fa9b92993848452838152858420338552815260ff86852054161562000154575b85516160af90816200024c8239f35b8484528381528584209033855252848320918254161790553391600080516020620062fb833981519152339280a4388080808062000145565b8084528385528584203385528552858420828482541617905533903390600080516020620062fb8339815191528680a43862000106565b82805282845284832033845284528483208183825416179055333384600080516020620062fb8339815191528180a4620000c9565b855163192069c360e31b8152600490fd5b634e487b7160e01b600052601160045260246000fd5b600080fd5b634e487b7160e01b600052604160045260246000fd5b519061ffff82168203620002205756fe608080604052600436101562000022575b5036156200001d57600080fd5b600080fd5b600090813560e01c90816301ffc9a7146200305c575080630e3f0cfc1462002f7a57806314fe72aa1462002ee157806315a1603b1462002e5e57806322163b861462002e3e57806322212e2b1462002e1e578063248a9ca31462002df057806328d7b2761462002d9e5780632f2ff15d1462002ce9578063336322d21462002c56578063349123d11462002c1157806335a62e681462002bd457806336568abe1462002b3a5780633d94bdbb14620029315780633df9a72014620027795780633f4ba83a14620026df57806345626bd61462002690578063494cfc6c146200246e5780635c975abb1462002449578063634282af146200239657806366c5b06c1462002327578063692bf4a814620020c657806379c8ffd614620020835780637e1c0c0914620020635780638231f4f01462001f49578063845360171462001eb95780638456cb591462001e5957806384d936121462001da55780638995881d1462001d625780638c9f7b391462001cbe5780638cd4426d1462001c4457806391d148541462001bf8578063943711ea1462001b4d57806395abc09114620018145780639ccb07441462001759578063a217fddf146200173b578063a9bb5c4c14620016fe578063a9e3929e1462001639578063ac76d08414620015e4578063ad3e080a1462001576578063bc120fe7146200151c578063bed9757e1462001480578063c748713e1462001443578063d01c44cd1462001299578063d547741f1462001251578063d634b4191462000c94578063d9d0a5be146200080e578063dc4ec9be14620007e7578063dc97ecf61462000730578063e4c608f11462000705578063e559afd91462000653578063e5f8af9f146200053f578063e63ab1e91462000502578063ec3889b5146200047d578063f0b6374b1462000411578063f3d2350e1462000346578063f5b541a614620003095763ff96092a036200001057346200030657806003193601126200030657602061ffff60035416604051908152f35b80fd5b5034620003065780600319360112620003065760206040517f97667070c54ef182b0f5858b034beac1b6f3089aa2d3188bb1e8929f4fa9b9298152f35b503462000306576040366003190112620003065760043561ffff908181168091036200001d5760243590828216928383036200001d5762000386620036e1565b838201818111620003fd5761271091161015620003eb577f2ac80c14c28700f7b5e36f947d572149fe2e3947bac32c3a8c098f3e03722c11926040928263ffff00006003549260101b169163ffffffff1916171760035582519182526020820152a180f35b60405163192069c360e31b8152600490fd5b634e487b7160e01b86526011600452602486fd5b50346200030657602036600319011262000306576200042f620030b6565b62000439620034c4565b6001600160a01b0316808252600c60205260408220805460ff191690557ff38578ed892ce2ce655ca8ae03c73464ad74915a1331a9b4085e637534daeedf8280a280f35b50346200030657602036600319011262000306576004356001600160a01b03811690819003620004fe57620004b1620036e1565b620004bb62003d22565b600454908115620004ec578280809381938260045582f115620004e057600160025580f35b604051903d90823e3d90fd5b6040516303fbecdf60e51b8152600490fd5b5080fd5b5034620003065780600319360112620003065760206040517f65d7a28e3265b37a6474929f336521b332c1681b933f6cb9f3376673440d862a8152f35b50346200030657602080600319360112620004fe576004356001600160401b0381116200064f576200057690369060040162003419565b9062000581620036e1565b6200058b62003d22565b835b8281106200059e5784600160025580f35b6001600160a01b03620005bd620005b783868662003fa9565b62003fba565b1690818652600585526040862091868354938415908115620005e9575b5050505060019150016200058d565b859183859255839062000645575b839283928392f1156200063a577f7f0b212761a7abe7ec4d2adea5a7fa1fea58234aabf0c01c0e63403fe62013ff86600194604051908152a238868180620005da565b6040513d88823e3d90fd5b506108fc620005f7565b8280fd5b5034620003065762000665366200344c565b62000672929192620034c4565b835b81811062000680578480f35b6001600160a01b0383811680875260086020908152604088209293929084620006af620005b786898c62003fa9565b16600052526040600020926001938460ff19825416179055620006d8620005b784878a62003fa9565b16907f4bc18aa4b0095c9a3b5cdf42d2322d5a145591b04045988a995a5da4260754578880a30162000674565b50346200030657806003193601126200030657600e546040516001600160a01b039091168152602090f35b5034620003065760403660031901126200030657806200074f620030b6565b62000759620030cd565b9062000764620036e1565b6200076e62003cdd565b600e546001600160a01b031691823b15620007e25760405163027332ab60e21b81526001600160a01b039283166004820152911660248201529082908290604490829084905af18015620007d757620007c45750f35b620007cf9062003240565b620003065780f35b6040513d84823e3d90fd5b505050fd5b50346200030657806003193601126200030657602061ffff60035460101c16604051908152f35b5060a0366003190112620003065762000826620030b6565b602491604435916064356001600160a01b03818116918635918382036200001d576001600160401b039360843585811162000c90576200086b90369060040162003419565b9490986200087862003cdd565b6200088262003d22565b6006549960405197602098898101913360601b83528460348301526034825260608201908282109082111762000c7b5760405251902090620008c48862003fcf565b97620008d4604051998a62003270565b8089528989019060051b82019136831162000c77578a90915b83831062000c6657505050509789985b87518a10156200095e57620009138a8962003fe7565b5190818110156200094f578b52885260408a205b9860001981146200093c5760010198620008fd565b634e487b7160e01b8b5260116004528c8bfd5b908b52885260408a2062000927565b8a989750908b8d920362000c545785169182895260098852604089203360005288526040600020549062000993858362003b2c565b1162000c425783620009a59162003b2c565b8289526009885260408920336000528852604060002055620009c662003cdd565b620009d062003d22565b821562000c3057818852600c875260ff60408920541662000c1a57818852600b87526040882054908115801562000bdf575b62000bcd578289526007885260ff60408a2054168062000bae575b62000b9c57600019820191821162000b8a575062000a3b9062003162565b50670de0b6b3a764000062000a5584600284015462003b02565b049687340362000b785788976003549161271061ffff938162000a7b8683168662003b02565b04948962000b605750505089975b600162000aa28a62000a9c878762003d77565b62003d77565b9562000ab18660045462003b2c565b6004550154168a526005815260408a2062000ace85825462003b2c565b905562000add86338762003dba565b604051958652850152604084015284606084015260808301527fa4d1d47447ad64a0c581f05071df4ce987ba94440d913925dc004a21f28f422660a03393a48062000b2c575b82600160025580f35b8280929181925af162000b3e62003d85565b501562000b4e5780828062000b23565b604051639a2c56ab60e01b8152600490fd5b62000b709160101c168462003b02565b049762000a89565b60405163d183fe4360e01b8152600490fd5b634e487b7160e01b8952601160045288fd5b604051630b094f2760e31b8152600490fd5b50600888526040892033600052885260ff604060002054161562000a1d565b604051631d99ddbf60e01b8152600490fd5b50600019820182811162000c0757600562000bfc60ff9262003162565b500154161562000a02565b50634e487b7160e01b8952601160045288fd5b9060405190635404753160e11b82526004820152fd5b604051631f2a200560e01b8152600490fd5b604051632edaff4360e01b8152600490fd5b604051631cde096960e01b8152600490fd5b82358152918101918b9101620008ed565b8c80fd5b8e634e487b7160e01b60005260416004526000fd5b8780fd5b5034620003065760c036600319011262000306576004356001600160401b038111620004fe5762000cca90369060040162003494565b6024356001600160401b0381116200124d5762000cec90369060040162003494565b90916044356001600160401b038111620012495762000d1090369060040162003494565b94909160a4356001600160401b03811162000c905762000d3590369060040162003494565b95909462000d42620034c4565b62000d4c62003cdd565b62000d5662003d22565b6084351562001237576040519361201c93848601948686106001600160401b0387111762001223579262000da662000db59362000dd49693899896620040878a3960a0875260a087019162003c80565b91848303602086015262003c80565b9060643560408201523360608201526080818303910152868662003c80565b039086f093841562001218576040519562000def876200320e565b6001600160a01b0386168752336020880152608435604088015262000e1636838562003ca1565b606088015262000e2836868662003ca1565b6080880152600160a0880152600a54600160401b811015620012045780600162000e569201600a5562003162565b620011f057875181546001600160a01b039182166001600160a01b031991821617835560208a01516001840180549190931691161790556040880151600282015560608801518051906001600160401b0382116200110757819062000ebf6003850154620031d1565b601f81116200119b575b50602090601f8311600114620011275785926200111b575b50508160011b916000199060031b1c19161760038201555b60808801519788516001600160401b038111620011075762000f1f6004840154620031d1565b601f8111620010be575b506020998a90601f8311600114620010205762000fa4938387969460059460a0947f75c1f35492cd2bcb2820d5ff2434b9dc6d19432975f20761140109f0844a7b8a9c9b9a9262001014575b50508160011b916000199060031b1c19161760048501555b0151151591019060ff801983541691151516179055565b6040600a549160018060a01b0389168152600b8a52205562000ffa62000fdf604051938493608435855260608b860152606085019162003c80565b828103604084015233966001600160a01b0389169662003c80565b0390a360016002556040516001600160a01b039091168152f35b01519050388062000f75565b906004850186528b862091865b601f1985168110620010a657509360018460059460a09462000fa4987f75c1f35492cd2bcb2820d5ff2434b9dc6d19432975f20761140109f0844a7b8a9d9c9b9a98601f198116106200108c575b505050811b01600485015562000f8d565b015160001960f88460031b161c191690553880806200107b565b91928d6001819286850151815501940192016200102d565b60048401855260208520601f830160051c810160208410620010ff575b601f830160051c82018110620010f357505062000f29565b868155600101620010db565b5080620010db565b634e487b7160e01b84526041600452602484fd5b01519050388062000ee1565b9250600384018552602085209085935b601f19841685106200117f576001945083601f1981161062001165575b505050811b01600382015562000ef9565b015160001960f88460031b161c1916905538808062001154565b8181015183556020948501946001909301929091019062001137565b90915060038401855260208520601f840160051c810160208510620011e8575b90849392915b601f830160051c82018110620011d957505062000ec9565b878155859450600101620011c1565b5080620011bb565b634e487b7160e01b82526004829052602482fd5b634e487b7160e01b82526041600452602482fd5b6040513d87823e3d90fd5b634e487b7160e01b8c52604160045260248cfd5b604051637294708f60e11b8152600490fd5b8580fd5b8380fd5b50346200030657604036600319011262000306576200129660043562001276620030cd565b908084528360205262001290600160408620015462003970565b62003a8d565b80f35b50346200030657806003193601126200030657620012b662003cdd565b620012c062003d22565b3381526020600d8152604082209082835b83548110156200142157620012e78185620031b4565b509060028201918254600193848301548083106200130b575b5050505001620012d1565b826200131c60038601544262003d77565b916004860154808410600014620013b35750506200133c91508a62003d77565b918215620013005795829396916200135a8462001362959462003b2c565b905562003b2c565b9360018060a01b03906200137b83338484541662003dba565b5416906040519081527f3dea86ee53588906162d63de35783619d0db9b5d981641af560779a1e32940ec863392a33880808062001300565b600587015493848110620013cf5750506200133c925062003d77565b620013f5935091620013e782620013ee939462003d77565b9062003b02565b9262003d77565b9081156200140b576200133c9184910462003d77565b634e487b7160e01b600052601260045260246000fd5b8482156200143157600160025580f35b6040516312d37ee560e31b8152600490fd5b50346200030657602036600319011262000306576020906040906001600160a01b036200146f620030b6565b168152600583522054604051908152f35b50346200030657604036600319011262000306576001600160a01b0390620014c29082620014ad620030b6565b168152600d60205260406024359120620031b4565b508054600182015460028301546003840154600485015460059095015460408051979095166001600160a01b031687526020870193909352928501526060840191909152608083019190915260a082015260c090f35b0390f35b50346200030657604036600319011262000306576200153a620030b6565b604062001546620030cd565b9260018060a01b0380931681526008602052209116600052602052602060ff604060002054166040519015158152f35b5034620003065762001588366200344c565b9162001593620034c4565b835b838110620015a1578480f35b600190818060a01b0380841687526020600881526040882091620015cb620005b7858a8a62003fa9565b1660005252604060002060ff1981541690550162001595565b503462000306576040366003190112620003065762001602620030b6565b60406200160e620030cd565b9260018060a01b03809316815260096020522091166000526020526020604060002054604051908152f35b503462000306576200164b36620030e4565b9062001656620034c4565b6001600160a01b0316808352600b60205260408320549091908015620016ec576000198101908111620016d85781620016cc7fb6c0b1eccbea10b66e1977f66ce16560ea82d88b327f904435080e4da040208b936005620016b960209562003162565b50019060ff801983541691151516179055565b6040519015158152a280f35b634e487b7160e01b84526011600452602484fd5b604051638dda39df60e01b8152600490fd5b50346200030657602036600319011262000306576020906040906001600160a01b036200172a620030b6565b168152600d83522054604051908152f35b50346200030657806003193601126200030657602090604051908152f35b503462000306576020366003190112620003065762001777620030b6565b62001781620034c4565b6200178b62003cdd565b600e546040516398e122fd60e01b81526001600160a01b0392831660048201529060209082906024908290879087165af180156200180957620017cc578280f35b6020813d821162001800575b81620017e76020938362003270565b810103126200064f575190811603620003065738808280f35b3d9150620017d8565b6040513d85823e3d90fd5b50346200030657806003193601126200030657600a54620018358162003ffc565b90620018418162003ffc565b6200184c8262003ffc565b93620018588362004034565b94620018648462004034565b90620018708562003fcf565b9162001880604051938462003270565b8583526200188e8662003fcf565b9760209283850199601f1901368b37620018a88862003ffc565b96620018b48962003ffc565b988a885b828110620019855750505090849392916040519a610100808d528c01620018df9162003344565b8b8103868d0152620018f19162003344565b8a810360408c0152620019049162003383565b89810360608b01526200191791620033b9565b88810360808a01526200192a91620033b9565b9287840360a089015251928381520196925b8281106200196e57868062001518886200195f8c8a85820360c087015262003383565b9083820360e085015262003383565b83511515885296810196928101926001016200193c565b8060ff600562001999839d9b9c9d62003162565b5080546001600160a01b0396908716948591620019b7919062003fe7565b526001958682015416620019cc868a62003fe7565b526002810154620019de868b62003fe7565b52620019ed6003820162003292565b620019f9868c62003fe7565b5262001a06858b62003fe7565b5062001a156004820162003292565b62001a21868d62003fe7565b5262001a2e858c62003fe7565b5001541662001a3e838d62003fe7565b90151590526040516318160ddd60e01b81528a81600481855afa90811562001b4257918b918e85948d9262001b06575b5060249462001a7d9162003fe7565b526040516370a0823160e01b815230600482015292839182905afa801562001afb57828e8b9262001ac4575b62001ab692935062003fe7565b52018b9098979698620018b8565b5050508981813d831162001af3575b62001adf818362003270565b810103126200001d57518c90828262001aa9565b503d62001ad3565b6040513d8b823e3d90fd5b93929450505081813d831162001b3a575b62001b23818362003270565b810103126200001d575182918b918e602462001a6e565b503d62001b17565b6040513d8c823e3d90fd5b503462000306576040366003190112620003065762001b6b620030b6565b8162001b76620030cd565b62001b80620034c4565b62001b8a62003d22565b600e546001600160a01b0316803b156200064f576040516354fdc16b60e11b81526001600160a01b039485166004820152919093166024820152918290604490829084905af18015620007d75762001be6575b50600160025580f35b62001bf19062003240565b3862001bdd565b503462000306576040366003190112620003065760ff604060209262001c1d620030cd565b60043582528185528282206001600160a01b03909116825284522054604051911615158152f35b503462000306576040366003190112620003065762001c62620030b6565b7fe82be315ba1a0d0362d09d5cf59781f214b53a74eb978c35b76ad687099c670c60206024359262001c93620036e1565b62001c9d62003cdd565b6001600160a01b03169262001cb481338662003dba565b604051908152a280f35b503462000306576020366003190112620003065762001cdc620030b6565b62001ce6620034c4565b6001600160a01b0316808252600b60205260408220548015620016ec57600019810190811162001d4e5762001d1d60059162003162565b5001805460ff191690557f3bf74796fb125ab3c0f1c7c4419d72af7311e2d12f7d55b6fe62f4dfdcc8f0338280a280f35b634e487b7160e01b83526011600452602483fd5b503462000306576020366003190112620003065760209060ff906040906001600160a01b0362001d91620030b6565b168152600c84522054166040519015158152f35b503462000306576040366003190112620003065780604062001e1862001dca620030b6565b62001dd4620034c4565b62001dde62003cdd565b600e548351635100e67b60e11b81526001600160a01b03928316600482015260248035908201529485939190921691839182906044820190565b03925af18015620007d75762001e2c575080f35b604090813d831162001e51575b62001e45818362003270565b81010312620003065780f35b503d62001e39565b5034620003065780600319360112620003065762001e7662003818565b62001e8062003cdd565b600160ff19815416176001557f62e78cea01bee320cd4e420270b5ea74000d11b0c9f74754ebdbfc544b05a2586020604051338152a180f35b5034620003065780600319360112620003065762001ed6620036e1565b62001ee062003d22565b47801562001f375781808080843382f11562001f2a576040519081527fb3579861130e4da8bb7b87c54d2d139937f23bcd6e4ebed9e75d0f78ab1cc11860203392a2600160025580f35b50604051903d90823e3d90fd5b60405163b66458d760e01b8152600490fd5b5034620003065760209081600319360112620003065762001f69620030b6565b600a5462001f778162003ffc565b9262001f838262003ffc565b926001600160a01b0390811690825b84811062001fc85762001fba87620015188a8960405194859460408652604086019062003344565b918483039085015262003383565b80888362001fd860249462003162565b5054168062001fe8848c62003fe7565b52604051938480926370a0823160e01b82528860048301525afa80156200121857859062002029575b6001925062002021828962003fe7565b520162001f92565b50908881813d83116200205b575b62002043818362003270565b810103126200205757906001915162002011565b8480fd5b503d62002037565b503462000306578060031936011262000306576020600a54604051908152f35b503462000306576020366003190112620003065760209060ff906040906001600160a01b03620020b2620030b6565b168152600784522054166040519015158152f35b5060603660031901126200030657620020de620030b6565b60243590604435906001600160a01b03908183169081840362001249576200210562003cdd565b6200210f62003d22565b841562000c3057821693848652602094600c865260ff6040882054166200230f57808752600b8652604087205480158015620022d3575b62000bcd578188526007875260ff60408920541680620022b6575b62000b9c576000198101908111620022a2576200217e9062003162565b50670de0b6b3a76400006200219884600284015462003b02565b049687340362000b785788976003549161271061ffff9381620021be8683168662003b02565b0494896200228a5750505089975b6001620021df8a62000a9c878762003d77565b95620021ee8660045462003b2c565b6004550154168a526005815260408a206200220b85825462003b2c565b90556200221a86338762003dba565b604051958652850152604084015284606084015260808301527fa4d1d47447ad64a0c581f05071df4ce987ba94440d913925dc004a21f28f422660a03393a480620022685782600160025580f35b8280929181925af16200227a62003d85565b501562000b4e5780388062000b23565b6200229a9160101c168462003b02565b0497620021cc565b634e487b7160e01b88526011600452602488fd5b506008875260408820338952875260ff6040892054161562002161565b506000198101818111620022fb576005620022f060ff9262003162565b500154161562002146565b634e487b7160e01b89526011600452602489fd5b60249060405190635404753160e11b82526004820152fd5b503462000306576020366003190112620003065762002345620030b6565b6200234f620034c4565b6001600160a01b0316808252600c60205260408220805460ff191660011790557ff017c0de579727a3cd3ee18077ee8b4c43bf21892985952d1d5a0d52f983502d8280a280f35b5034620003065760203660031901126200030657600435600a54811015620004fe57620023c39062003162565b5060018060a01b038082541690600183015416916200243d6002820154916200242e620023f36003830162003292565b60ff6005620024056004860162003292565b940154169460405197889788526020880152604087015260c0606087015260c08601906200313b565b9084820360808601526200313b565b90151560a08301520390f35b50346200030657806003193601126200030657602060ff600154166040519015158152f35b503462000306576040366003190112620003065760043590620024ac82620024996024358262003b2c565b600a5480821162002687575b5062003d77565b91620024b88362003fcf565b92620024c8604051948562003270565b808452620024d9601f199162003fcf565b01825b81811062002649575050815b835181101562002592576200250862002502828462003b2c565b62003162565b509060405162002518816200320e565b60ff600560018060a01b039485815416845260019586820154166020850152600281015460408501526200254f6003820162003292565b6060850152620025626004820162003292565b6080850152015416151560a08201526200257d828762003fe7565b526200258a818662003fe7565b5001620024e8565b60408051602080825286518183018190528693600582901b8401810192808a01929185015b828710620025c55785850386f35b909192938280600192603f19898203018552875190848060a01b03808351168252838301511683820152604082015160408201526200262c620026186060808501519060c080918601528401906200313b565b60808085015190848303908501526200313b565b9160a08091015115159101529601920196019592919092620025b7565b6020906040516200265a816200320e565b8581528286818301528660408301526060808084015260808301528660a0830152828801015201620024dc565b905038620024a5565b5034620003065760403660031901126200030657620026ae620030b6565b6001600160a01b039081168252600d60205260408220805460243591908210156200124d5790620014c291620031b4565b50346200030657806003193601126200030657620026fc62003818565b60015460ff8116156200273d5760ff19166001557f5db9ee0a495bf2e6ff9c91a7834c1ba4fdd244a5e8aa4e537bd38aeae4b073aa6020604051338152a180f35b60405162461bcd60e51b815260206004820152601460248201527314185d5cd8589b194e881b9bdd081c185d5cd95960621b6044820152606490fd5b503462000306576020908160031936011262000306576001600160a01b0380620027a2620030b6565b1691828152600b845260408120548015620016ec5760001981019081116200291d57620027cf9062003162565b509160018301541692600283015492620027ec6003820162003292565b60ff6005620027fe6004850162003292565b9301541694604051936318160ddd60e01b85528885600481845afa9485156200063a579089918796620028e5575b506040516370a0823160e01b81523060048201529190829060249082905afa958615620004e0578096620028aa575b50506200289492916200288591604051998a998a5289015260e0604089015260e08801906200313b565b9086820360608801526200313b565b921515608085015260a084015260c08301520390f35b909195508882813d8311620028dd575b620028c6818362003270565b81010312620003065750519381620028856200285b565b503d620028ba565b8281939297503d831162002915575b62002900818362003270565b8101031262001249575193889060246200282c565b503d620028f4565b634e487b7160e01b82526011600452602482fd5b5034620003065760a036600319011262000306576200294f620030b6565b62002959620030cd565b6044356084356064356200296c620034c4565b6200297662003cdd565b8215801562002b2f575b62002b1d576040516370a0823160e01b81523060048201526001600160a01b039485169560209182816024818b5afa801562001afb5786918a9162002ae2575b501062002ad057851694858852600d82526040882060405191620029e4836200320e565b888352838301878152604084018b81526060850191428352608086019388855260a08701958a8752805490600160401b82101562002abb579062002a2e91600182018155620031b4565b97909762002aa7575187546001600160a01b03191691161786555160018601555160028501555160038401555160048301555160059091015560408051948552429185019190915283015260608201527f85ea0818780c5d304e8bfc41cc38a02f61338ca0966c8bbb0b883de4cce660fd90608090a380f35b634e487b7160e01b8f5260048f905260248ffd5b50634e487b7160e01b8f52604160045260248ffd5b60405163e4d75dc160e01b8152600490fd5b809250848092503d831162002b15575b62002afe818362003270565b8101031262002b115785905138620029c0565b8880fd5b503d62002af2565b60405163019af63760e01b8152600490fd5b508082111562002980565b503462000306576040366003190112620003065762002b58620030cd565b336001600160a01b0382160362002b7757620012969060043562003a8d565b60405162461bcd60e51b815260206004820152602f60248201527f416363657373436f6e74726f6c3a2063616e206f6e6c792072656e6f756e636560448201526e103937b632b9903337b91039b2b63360891b6064820152608490fd5b50346200030657602036600319011262000306576020906040906001600160a01b0362002c00620030b6565b168152600b83522054604051908152f35b503462000306576200129662002c2736620030e4565b9062002c32620034c4565b60018060a01b031683526007602052604083209060ff801983541691151516179055565b5034620003065780600319360112620003065762002c7362003d22565b33815260056020526040812054801562002cd757338252600560205281604081205581808080843382f11562001f2a576040519081527f7f0b212761a7abe7ec4d2adea5a7fa1fea58234aabf0c01c0e63403fe62013ff60203392a2600160025580f35b6040516321c8563b60e01b8152600490fd5b503462000306576040366003190112620003065760043562002d0a620030cd565b8183528260205262002d23600160408520015462003970565b818352602083815260408085206001600160a01b039093168086529290915283205460ff161562002d52578280f35b818352826020526040832081845260205260408320600160ff1982541617905533917f2f8788117e7eff1d82e926ec794901d17c78024a50270940304540a733656f0d8480a438808280f35b50346200030657602036600319011262000306577f27f971fd4accb41a60bcef5477f2a70aa17efca3a2c33b138e3aa62a3d891c6d602060043562002de2620034c4565b80600655604051908152a180f35b5034620003065760203660031901126200030657600160406020926004358152808452200154604051908152f35b503462000306578060031936011262000306576020600654604051908152f35b503462000306578060031936011262000306576020600454604051908152f35b503462000306576020366003190112620003065762002e7c620030b6565b62002e86620036e1565b6001600160a01b0316801562002ecf57600e80546001600160a01b031916821790557fc420e02f8f25bc483d2d29b2f718e07c863d3e50c4775cb9e4d3c16984c13a4d8280a280f35b604051634c5678e160e11b8152600490fd5b506040366003190112620003065762002f4c606062002eff620030b6565b62002f09620034c4565b62002f1362003cdd565b600e546040516256688760e81b81526001600160a01b039283166004820152602480359082015293849290911690829081906044820190565b039134905af18015620007d75762002f62575080f35b606090813d811162001e515762001e45818362003270565b503462000306576040366003190112620003065762002f98620030b6565b60243562002fa562003cdd565b62002faf62003d22565b6001600160a01b03918216808452600b60205260408420549092908015620016ec576000198101908111620030485762002feb60019162003162565b5001541633036200303657602081620030277fb42c9fecfb68f9bf84886f05b85865be2fda69a3ec869651d1320d8f528be6bb93338662003dba565b604051908152a2600160025580f35b60405163ea8e4eb560e01b8152600490fd5b634e487b7160e01b85526011600452602485fd5b905034620004fe576020366003190112620004fe5760043563ffffffff60e01b81168091036200064f5760209250637965db0b60e01b8114908115620030a4575b5015158152f35b6301ffc9a760e01b149050386200309d565b600435906001600160a01b03821682036200001d57565b602435906001600160a01b03821682036200001d57565b60409060031901126200001d576004356001600160a01b03811681036200001d579060243580151581036200001d5790565b60005b8381106200312a5750506000910152565b818101518382015260200162003119565b90602091620031568151809281855285808601910162003116565b601f01601f1916010190565b600a548110156200319e57600690600a600052027fc65a7bb8d6351c1cf70c95a316cc6a92839c986682d98bc35f958f4883f9d2a80190600090565b634e487b7160e01b600052603260045260246000fd5b80548210156200319e576000526006602060002091020190600090565b90600182811c9216801562003203575b6020831014620031ed57565b634e487b7160e01b600052602260045260246000fd5b91607f1691620031e1565b60c081019081106001600160401b038211176200322a57604052565b634e487b7160e01b600052604160045260246000fd5b6001600160401b0381116200322a57604052565b608081019081106001600160401b038211176200322a57604052565b90601f801991011681019081106001600160401b038211176200322a57604052565b9060405191826000825492620032a884620031d1565b9081845260019485811690816000146200331f5750600114620032d8575b5050620032d69250038362003270565b565b9093915060005260209081600020936000915b81831062003306575050620032d693508201013880620032c6565b85548884018501529485019487945091830191620032eb565b915050620032d694506020925060ff191682840152151560051b8201013880620032c6565b90815180825260208080930193019160005b82811062003365575050505090565b83516001600160a01b03168552938101939281019260010162003356565b90815180825260208080930193019160005b828110620033a4575050505090565b83518552938101939281019260010162003395565b908082519081815260208091019281808460051b8301019501936000915b848310620033e85750505050505090565b909192939495848062003408600193601f198682030187528a516200313b565b9801930193019194939290620033d7565b9181601f840112156200001d578235916001600160401b0383116200001d576020808501948460051b0101116200001d57565b9060406003198301126200001d576004356001600160a01b03811681036200001d5791602435906001600160401b0382116200001d57620034909160040162003419565b9091565b9181601f840112156200001d578235916001600160401b0383116200001d57602083818601950101116200001d57565b3360009081527fee57cd81e84075558e8fcc182a1f4393f91fc97f963a136e66b7f949a62f319f602090815260408083205490927f97667070c54ef182b0f5858b034beac1b6f3089aa2d3188bb1e8929f4fa9b9299160ff1615620035295750505050565b620035343362003b68565b91845190620035438262003254565b60428252848201926060368537825115620036cd5760308453825190600191821015620036cd5790607860218501536041915b8183116200366e575050506200362c576048620036289386936200360b93620035fb985198899376020b1b1b2b9b9a1b7b73a3937b61d1030b1b1b7bab73a1604d1b8a860152620035d1815180928c60378901910162003116565b8401917001034b99036b4b9b9b4b733903937b6329607d1b60378401525180938684019062003116565b0103602881018752018562003270565b5192839262461bcd60e51b8452600484015260248301906200313b565b0390fd5b60648486519062461bcd60e51b825280600483015260248201527f537472696e67733a20686578206c656e67746820696e73756666696369656e746044820152fd5b909192600f81166010811015620036b9576f181899199a1a9b1b9c1cb0b131b232b360811b901a620036a1858762003b56565b5360041c9280156200291d5760001901919062003576565b634e487b7160e01b83526032600452602483fd5b634e487b7160e01b81526032600452602490fd5b3360009081527fad3228b676f7d3cd4284a5443f17f1962b36e491b30a40b2405849e597ba5fb5602090815260408083205490929060ff16156200372457505050565b6200372f3362003b68565b90808451906200373f8262003254565b60428252848201926060368537825115620036cd5760308453825190600191821015620036cd5790607860218501536041915b818311620037cd575050506200362c576048620036289386936200360b93620035fb985198899376020b1b1b2b9b9a1b7b73a3937b61d1030b1b1b7bab73a1604d1b8a860152620035d1815180928c60378901910162003116565b909192600f81166010811015620036b9576f181899199a1a9b1b9c1cb0b131b232b360811b901a62003800858762003b56565b5360041c9280156200291d5760001901919062003772565b3360009081527ff7c9542c591017a21c74b6f3fab6263c7952fc0aaf9db4c22a2a04ddc7f8674f602090815260408083205490927f65d7a28e3265b37a6474929f336521b332c1681b933f6cb9f3376673440d862a9160ff16156200387d5750505050565b620038883362003b68565b91845190620038978262003254565b60428252848201926060368537825115620036cd5760308453825190600191821015620036cd5790607860218501536041915b81831162003925575050506200362c576048620036289386936200360b93620035fb985198899376020b1b1b2b9b9a1b7b73a3937b61d1030b1b1b7bab73a1604d1b8a860152620035d1815180928c60378901910162003116565b909192600f81166010811015620036b9576f181899199a1a9b1b9c1cb0b131b232b360811b901a62003958858762003b56565b5360041c9280156200291d57600019019190620038ca565b600090808252602090828252604092838120338252835260ff8482205416156200399a5750505050565b620039a53362003b68565b91845190620039b48262003254565b60428252848201926060368537825115620036cd5760308453825190600191821015620036cd5790607860218501536041915b81831162003a42575050506200362c576048620036289386936200360b93620035fb985198899376020b1b1b2b9b9a1b7b73a3937b61d1030b1b1b7bab73a1604d1b8a860152620035d1815180928c60378901910162003116565b909192600f81166010811015620036b9576f181899199a1a9b1b9c1cb0b131b232b360811b901a62003a75858762003b56565b5360041c9280156200291d57600019019190620039e7565b9060009180835282602052604083209160018060a01b03169182845260205260ff60408420541662003abe57505050565b80835282602052604083208284526020526040832060ff1981541690557ff6391f5c32d9c69d2a47ea670b442974b53935d1edc7fd64eb21e047a839171b339380a4565b8181029291811591840414171562003b1657565b634e487b7160e01b600052601160045260246000fd5b9190820180921162003b1657565b6001600160401b0381116200322a57601f01601f191660200190565b9081518110156200319e570160200190565b60405190606082018281106001600160401b038211176200322a57604052602a82526020820160403682378251156200319e576030905381516001908110156200319e57607860218401536029905b80821162003c0d57505062003bc95790565b606460405162461bcd60e51b815260206004820152602060248201527f537472696e67733a20686578206c656e67746820696e73756666696369656e746044820152fd5b9091600f8116601081101562003c6b576f181899199a1a9b1b9c1cb0b131b232b360811b901a62003c3f848662003b56565b5360041c91801562003c5657600019019062003bb7565b60246000634e487b7160e01b81526011600452fd5b60246000634e487b7160e01b81526032600452fd5b908060209392818452848401376000828201840152601f01601f1916010190565b92919262003caf8262003b3a565b9162003cbf604051938462003270565b8294818452818301116200001d578281602093846000960137010152565b60ff6001541662003cea57565b60405162461bcd60e51b815260206004820152601060248201526f14185d5cd8589b194e881c185d5cd95960821b6044820152606490fd5b600280541462003d325760028055565b60405162461bcd60e51b815260206004820152601f60248201527f5265656e7472616e637947756172643a207265656e7472616e742063616c6c006044820152606490fd5b9190820391821162003b1657565b3d1562003db5573d9062003d998262003b3a565b9162003da9604051938462003270565b82523d6000602084013e565b606090565b60405163a9059cbb60e01b60208083019182526001600160a01b039490941660248301526044808301959095529381529192919062003dfb60648362003270565b604080519081019290916001600160a01b0316906001600160401b038411838510176200322a5762003e6f936040528583527f5361666545524332303a206c6f772d6c6576656c2063616c6c206661696c656486840152600080958192519082855af162003e6862003d85565b9162003f0a565b80519182159184831562003ee3575b50505090501562003e8c5750565b6084906040519062461bcd60e51b82526004820152602a60248201527f5361666545524332303a204552433230206f7065726174696f6e20646964206e6044820152691bdd081cdd58d8d9595960b21b6064820152fd5b919381809450010312620004fe578201519081151582036200030657508038808462003e7e565b9192901562003f6f575081511562003f20575090565b3b1562003f2a5790565b60405162461bcd60e51b815260206004820152601d60248201527f416464726573733a2063616c6c20746f206e6f6e2d636f6e74726163740000006044820152606490fd5b82519091501562003f835750805190602001fd5b60405162461bcd60e51b815260206004820152908190620036289060248301906200313b565b91908110156200319e5760051b0190565b356001600160a01b03811681036200001d5790565b6001600160401b0381116200322a5760051b60200190565b80518210156200319e5760209160051b010190565b90620040088262003fcf565b62004017604051918262003270565b82815280926200402a601f199162003fcf565b0190602036910137565b90620040408262003fcf565b6200404f604051918262003270565b828152809262004062601f199162003fcf565b019060005b8281106200407457505050565b8060606020809385010152016200406756fe6101608060405234620007cd576200201c8038038091620000218285620007d2565b8339810160a082820312620007cd5781516001600160401b038111620007cd57816200004f9184016200081b565b60208301519092906001600160401b038111620007cd5782620000749183016200081b565b60408201516060830151939092906001600160a01b0385168503620007cd5760808201516001600160401b038111620007cd57620000b392016200081b565b604080519195919081016001600160401b03811182821017620005605760405260018152603160f81b602082015281516001600160401b0381116200056057600354600181811c91168015620007c2575b60208210146200053f57601f81116200075c575b50806020601f8211600114620006d257600091620006c6575b508160011b916000199060031b1c1916176003555b82516001600160401b0381116200056057600454600181811c91168015620006bb575b60208210146200053f57601f811162000651575b50806020601f8211600114620005c757600091620005bb575b508160011b916000199060031b1c1916176004555b620001b682620008bf565b61012052620001c58162000a64565b6101405281516020830120908160e0526020815191012080610100524660a052604051917f8b73c3c69bb8fe3d512ecc4cf759cc79239f7b179b0ffacaa9a75d522b39400f6020840152604083015260608201524660808201523060a082015260a081528060c081011060018060401b0360c083011117620005605760c08101604052805160208201206080523060c052620002613362000876565b6001600160a01b03851615620005a7575060039051109081156200059a575b5062000588578015620005765782516001600160401b0381116200056057600a54600181811c9116801562000555575b60208210146200053f57601f8111620004e6575b506020601f82116001146200046d578192939460009262000461575b50508160011b916000199060031b1c191617600a555b33156200041c576002548181018091116200040657600255336000526000602052604060002081815401905560405190815260007fddf252ad1be2c89b69c2b068fc378daa952ba7f163c4a11628f55a4df523b3ef60203393a3600954336001600160a01b0390911603620003c257620003709062000876565b604051611440908162000bbc82396080518161118b015260a05181611257015260c05181611155015260e051816111da01526101005181611200015261012051816106a8015261014051816106d20152f35b606460405162461bcd60e51b815260206004820152602060248201527f4f776e61626c653a2063616c6c6572206973206e6f7420746865206f776e65726044820152fd5b634e487b7160e01b600052601160045260246000fd5b60405162461bcd60e51b815260206004820152601f60248201527f45524332303a206d696e7420746f20746865207a65726f2061646472657373006044820152606490fd5b015190503880620002e0565b600a600090815260008051602062001ffc8339815191529190601f198416905b818110620004cd57509583600195969710620004b3575b505050811b01600a55620002f6565b015160001960f88460031b161c19169055388080620004a4565b9192602060018192868b0151815501940192016200048d565b600a60005260008051602062001ffc833981519152601f830160051c8101916020841062000534575b601f0160051c01905b818110620005275750620002c4565b6000815560010162000518565b90915081906200050f565b634e487b7160e01b600052602260045260246000fd5b90607f1690620002b0565b634e487b7160e01b600052604160045260246000fd5b60405163c16f3a9360e01b8152600490fd5b604051639432241960e01b8152600490fd5b6003915051103862000280565b60c060049163d92e233d60e01b8282015201fd5b90508401513862000196565b6004600090815292507f8a35acfbc15ff81a39ae7d344fd709f28e8600b4aa8c65c6b64bfe7fe36bd19b905b601f198316841062000638576001935082601f198116106200061e575b5050811b01600455620001ab565b86015160001960f88460031b161c19169055388062000610565b86810151825560209384019360019092019101620005f3565b60046000527f8a35acfbc15ff81a39ae7d344fd709f28e8600b4aa8c65c6b64bfe7fe36bd19b601f830160051c81019160208410620006b0575b601f0160051c01905b818110620006a357506200017d565b6000815560010162000694565b90915081906200068b565b90607f169062000169565b90508301513862000131565b6003600090815292507fc2575a0e9e593c00f959f8c92f12db2869c3395a3b0502d05e2516446f71f85b905b601f198316841062000743576001935082601f1981161062000729575b5050811b0160035562000146565b85015160001960f88460031b161c1916905538806200071b565b85810151825560209384019360019092019101620006fe565b60036000527fc2575a0e9e593c00f959f8c92f12db2869c3395a3b0502d05e2516446f71f85b601f830160051c810160208410620007ba575b601f830160051c82018110620007ad57505062000118565b6000815560010162000795565b508062000795565b90607f169062000104565b600080fd5b601f909101601f19168101906001600160401b038211908210176200056057604052565b60005b8381106200080a5750506000910152565b8181015183820152602001620007f9565b81601f82011215620007cd5780516001600160401b03811162000560576040519262000852601f8301601f191660200185620007d2565b81845260208284010111620007cd57620008739160208085019101620007f6565b90565b600980546001600160a01b039283166001600160a01b0319821681179092559091167f8be0079c531659141344cd1fd0a4f28419497f9722a3daafe3b4186f6b6457e0600080a3565b805160209190828110156200093f575090601f825111620008fd5780825192015190808310620008ee57501790565b82600019910360031b1b161790565b604490620009319260405193849263305a27a960e01b845280600485015282519283918260248701528686019101620007f6565b601f01601f19168101030190fd5b6001600160401b03811162000560576005928354926001938481811c9116801562000a59575b838210146200053f57601f811162000a22575b5081601f8411600114620009b85750928293918392600094620009ac575b50501b916000199060031b1c191617905560ff90565b01519250388062000996565b919083601f1981168760005284600020946000905b8883831062000a075750505010620009ed575b505050811b01905560ff90565b015160001960f88460031b161c19169055388080620009e0565b858701518855909601959485019487935090810190620009cd565b8560005284601f846000209201871c820191601f8601881c015b82811062000a4c57505062000978565b6000815501859062000a3c565b90607f169062000965565b80516020908181101562000a915750601f825111620008fd5780825192015190808310620008ee57501790565b906001600160401b0382116200056057600654926001938481811c9116801562000bb0575b838210146200053f57601f811162000b76575b5081601f841160011462000b0a575092829391839260009462000afe575b50501b916000199060031b1c19161760065560ff90565b01519250388062000ae7565b919083601f198116600660005284600020946000905b8883831062000b5b575050501062000b41575b505050811b0160065560ff90565b015160001960f88460031b161c1916905538808062000b33565b85870151885590960195948501948793509081019062000b20565b600660005284601f84600020920160051c820191601f860160051c015b82811062000ba357505062000ac9565b6000815501859062000b93565b90607f169062000ab656fe6080604081815260048036101561001557600080fd5b600092833560e01c90816306fdde0314610b3a57508063095ea7b314610b1057806318160ddd14610af157806323b872dd14610a27578063313ce56714610a0b5780633644e515146109e757806339509351146109805780633c130d901461087a57806370a0823114610843578063715018a6146107e65780637ecebe00146107ae57806384b0196e146106915780638da5cb5b1461066857806395d89b4114610594578063a457c2d7146104ed578063a9059cbb146104bc578063c623674f146103d3578063d505accf1461021a578063dd62ed3e146101cd5763f2fde38b146100ff57600080fd5b346101c95760203660031901126101c957610118610c22565b90610121610ce1565b6001600160a01b03918216928315610177575050600954826bffffffffffffffffffffffff60a01b821617600955167f8be0079c531659141344cd1fd0a4f28419497f9722a3daafe3b4186f6b6457e08380a380f35b906020608492519162461bcd60e51b8352820152602660248201527f4f776e61626c653a206e6577206f776e657220697320746865207a65726f206160448201526564647265737360d01b6064820152fd5b8280fd5b505034610216578060031936011261021657806020926101eb610c22565b6101f3610c3d565b6001600160a01b0391821683526001865283832091168252845220549051908152f35b5080fd5b508290346102165760e036600319011261021657610236610c22565b61023e610c3d565b906044359260643560843560ff811681036103cf5781421161038c5760018060a01b0390818516928389526007602052898920908154916001830190558a519060208201927f6e71edae12b1b97f4d1f60370fef10105fa2faae0126114a169c64845d6126c98452868d840152858a1660608401528a608084015260a083015260c082015260c0815260e0810181811067ffffffffffffffff821117610379578b5251902061032191610319916102f3611152565b908c519161190160f01b83526002830152602282015260c43591604260a43592206110c3565b919091610fa9565b16036103365750610333939450610ea7565b80f35b606490602087519162461bcd60e51b8352820152601e60248201527f45524332305065726d69743a20696e76616c6964207369676e617475726500006044820152fd5b634e487b7160e01b8b526041875260248bfd5b875162461bcd60e51b8152602081850152601d60248201527f45524332305065726d69743a206578706972656420646561646c696e650000006044820152606490fd5b8680fd5b50503461021657816003193601126102165780519082600a546103f581610c53565b808552916001918083169081156104945750600114610437575b50505061042182610433940383610cbf565b51918291602083526020830190610be2565b0390f35b9450600a85527fc65a7bb8d6351c1cf70c95a316cc6a92839c986682d98bc35f958f4883f9d2a85b82861061047c57505050610421826020610433958201019461040f565b8054602087870181019190915290950194810161045f565b61043397508693506020925061042194915060ff191682840152151560051b8201019461040f565b5050346102165780600319360112610216576020906104e66104dc610c22565b6024359033610d39565b5160018152f35b508234610591578260031936011261059157610507610c22565b918360243592338152600160205281812060018060a01b0386168252602052205490828210610540576020856104e68585038733610ea7565b608490602086519162461bcd60e51b8352820152602560248201527f45524332303a2064656372656173656420616c6c6f77616e63652062656c6f77604482015264207a65726f60d81b6064820152fd5b80fd5b5090346101c957826003193601126101c957805191838154906105b682610c53565b8086529260019280841690811561063d57506001146105e1575b6104338686610421828b0383610cbf565b815294507f8a35acfbc15ff81a39ae7d344fd709f28e8600b4aa8c65c6b64bfe7fe36bd19b5b828610610625575050506104218260206104339582010194386105d0565b80546020878701810191909152909501948101610607565b905061043397508693506020925061042194915060ff191682840152151560051b82010194386105d0565b50503461021657816003193601126102165760095490516001600160a01b039091168152602090f35b5090346101c957826003193601126101c9576106cc7f000000000000000000000000000000000000000000000000000000000000000061127d565b926106f67f0000000000000000000000000000000000000000000000000000000000000000611379565b908251926020928385019585871067ffffffffffffffff88111761079b57509280610751838896610744998b9996528686528151998a99600f60f81b8b5260e0868c015260e08b0190610be2565b91898303908a0152610be2565b924660608801523060808801528460a088015286840360c088015251928381520193925b82811061078457505050500390f35b835185528695509381019392810192600101610775565b634e487b7160e01b845260419052602483fd5b5050346102165760203660031901126102165760209181906001600160a01b036107d6610c22565b1681526007845220549051908152f35b83346105915780600319360112610591576107ff610ce1565b600980546001600160a01b0319811690915581906001600160a01b03167f8be0079c531659141344cd1fd0a4f28419497f9722a3daafe3b4186f6b6457e08280a380f35b5050346102165760203660031901126102165760209181906001600160a01b0361086b610c22565b16815280845220549051908152f35b8284346105915780600319360112610591578151918260209266697066733a2f2f60c81b8483015280600a54906108b082610c53565b9160019081811690811561095557506001146108f0575b50505061043392916108e19103601f198101865285610cbf565b51928284938452830190610be2565b8695949350600a82527fc65a7bb8d6351c1cf70c95a316cc6a92839c986682d98bc35f958f4883f9d2a85b83831061093c575093945091925082016027019050816108e16104336108c7565b80546027848b010152879689955090920191810161091b565b90506108e1945060279250610433969593915060ff19168284015280151502820101918193946108c7565b50913461059157816003193601126105915761099a610c22565b338252600160209081528383206001600160a01b03831684529052828220546024358101929083106109d4576020846104e6858533610ea7565b634e487b7160e01b815260118552602490fd5b505034610216578160031936011261021657602090610a04611152565b9051908152f35b5050346102165781600319360112610216576020905160128152f35b5082903461021657606036600319011261021657610a43610c22565b610a4b610c3d565b91846044359460018060a01b038416815260016020528181203382526020522054906000198203610a85575b6020866104e6878787610d39565b848210610aae5750918391610aa3602096956104e695033383610ea7565b919394819350610a77565b606490602087519162461bcd60e51b8352820152601d60248201527f45524332303a20696e73756666696369656e7420616c6c6f77616e63650000006044820152fd5b5050346102165781600319360112610216576020906002549051908152f35b5050346102165780600319360112610216576020906104e6610b30610c22565b6024359033610ea7565b849084346101c957826003193601126101c95782600354610b5a81610c53565b808552916001918083169081156104945750600114610b855750505061042182610433940383610cbf565b9450600385527fc2575a0e9e593c00f959f8c92f12db2869c3395a3b0502d05e2516446f71f85b5b828610610bca57505050610421826020610433958201019461040f565b80546020878701810191909152909501948101610bad565b919082519283825260005b848110610c0e575050826000602080949584010152601f8019910116010190565b602081830181015184830182015201610bed565b600435906001600160a01b0382168203610c3857565b600080fd5b602435906001600160a01b0382168203610c3857565b90600182811c92168015610c83575b6020831014610c6d57565b634e487b7160e01b600052602260045260246000fd5b91607f1691610c62565b6040810190811067ffffffffffffffff821117610ca957604052565b634e487b7160e01b600052604160045260246000fd5b90601f8019910116810190811067ffffffffffffffff821117610ca957604052565b6009546001600160a01b03163303610cf557565b606460405162461bcd60e51b815260206004820152602060248201527f4f776e61626c653a2063616c6c6572206973206e6f7420746865206f776e65726044820152fd5b6001600160a01b03908116918215610e545716918215610e0357600082815280602052604081205491808310610daf57604082827fddf252ad1be2c89b69c2b068fc378daa952ba7f163c4a11628f55a4df523b3ef958760209652828652038282205586815220818154019055604051908152a3565b60405162461bcd60e51b815260206004820152602660248201527f45524332303a207472616e7366657220616d6f756e7420657863656564732062604482015265616c616e636560d01b6064820152608490fd5b60405162461bcd60e51b815260206004820152602360248201527f45524332303a207472616e7366657220746f20746865207a65726f206164647260448201526265737360e81b6064820152608490fd5b60405162461bcd60e51b815260206004820152602560248201527f45524332303a207472616e736665722066726f6d20746865207a65726f206164604482015264647265737360d81b6064820152608490fd5b6001600160a01b03908116918215610f585716918215610f085760207f8c5be1e5ebec7d5bd14f71427d1e84f3dd0314c0f7b2291e5b200ac8c7c3b925918360005260018252604060002085600052825280604060002055604051908152a3565b60405162461bcd60e51b815260206004820152602260248201527f45524332303a20617070726f766520746f20746865207a65726f206164647265604482015261737360f01b6064820152608490fd5b60405162461bcd60e51b8152602060048201526024808201527f45524332303a20617070726f76652066726f6d20746865207a65726f206164646044820152637265737360e01b6064820152608490fd5b60058110156110ad5780610fba5750565b600181036110075760405162461bcd60e51b815260206004820152601860248201527f45434453413a20696e76616c6964207369676e617475726500000000000000006044820152606490fd5b600281036110545760405162461bcd60e51b815260206004820152601f60248201527f45434453413a20696e76616c6964207369676e6174757265206c656e677468006044820152606490fd5b60031461105d57565b60405162461bcd60e51b815260206004820152602260248201527f45434453413a20696e76616c6964207369676e6174757265202773272076616c604482015261756560f01b6064820152608490fd5b634e487b7160e01b600052602160045260246000fd5b9291907f7fffffffffffffffffffffffffffffff5d576e7357a4501ddfe92f46681b20a083116111465791608094939160ff602094604051948552168484015260408301526060820152600093849182805260015afa156111395781516001600160a01b03811615611133579190565b50600190565b50604051903d90823e3d90fd5b50505050600090600390565b307f00000000000000000000000000000000000000000000000000000000000000006001600160a01b03161480611254575b156111ad577f000000000000000000000000000000000000000000000000000000000000000090565b60405160208101907f8b73c3c69bb8fe3d512ecc4cf759cc79239f7b179b0ffacaa9a75d522b39400f82527f000000000000000000000000000000000000000000000000000000000000000060408201527f000000000000000000000000000000000000000000000000000000000000000060608201524660808201523060a082015260a0815260c0810181811067ffffffffffffffff821117610ca95760405251902090565b507f00000000000000000000000000000000000000000000000000000000000000004614611184565b60ff81146112bb5760ff811690601f82116112a9576040519161129f83610c8d565b8252602082015290565b604051632cd44ac360e21b8152600490fd5b506040516005548160006112ce83610c53565b8083529260019081811690811561135757506001146112f8575b506112f592500382610cbf565b90565b6005600090815291507f036b6384b5eca791c62761152d0c79bb0604c104a5fb6f4eb0703f3154bb3db05b84831061133c57506112f59350508101602001386112e8565b81935090816020925483858901015201910190918492611323565b9050602092506112f594915060ff191682840152151560051b820101386112e8565b60ff811461139b5760ff811690601f82116112a9576040519161129f83610c8d565b506040516006548160006113ae83610c53565b8083529260019081811690811561135757506001146113d457506112f592500382610cbf565b6006600090815291507ff652222313e28459528d920b65115c16c04f3efc82aaedc97be59f3f377c0d3f5b84831061141857506112f59350508101602001386112e8565b819350908160209254838589010152019101909184926113ff56fea164736f6c6343000814000ac65a7bb8d6351c1cf70c95a316cc6a92839c986682d98bc35f958f4883f9d2a8a164736f6c6343000814000a2f8788117e7eff1d82e926ec794901d17c78024a50270940304540a733656f0d","opcodes":"PUSH1 0x80 CALLVALUE PUSH3 0x220 JUMPI PUSH3 0x631B SWAP1 PUSH1 0x1F CODESIZE DUP4 SWAP1 SUB SWAP1 DUP2 ADD PUSH1 0x1F NOT AND DUP3 ADD SWAP1 PUSH1 0x1 PUSH1 0x1 PUSH1 0x40 SHL SUB DUP3 GT DUP4 DUP4 LT OR PUSH3 0x225 JUMPI DUP1 DUP4 SWAP2 PUSH1 0x40 SWAP6 DUP7 SWAP5 DUP6 MSTORE DUP4 CODECOPY DUP2 ADD SUB SLT PUSH3 0x220 JUMPI PUSH3 0x4F DUP2 PUSH3 0x23B JUMP JUMPDEST PUSH3 0x5E PUSH1 0x20 DUP1 SWAP4 ADD PUSH3 0x23B JUMP JUMPDEST PUSH1 0xFF NOT SWAP1 PUSH1 0x1 SWAP3 DUP3 DUP5 SLOAD AND DUP5 SSTORE DUP4 PUSH1 0x2 SSTORE PUSH2 0xFFFF DUP1 SWAP2 AND SWAP1 DUP1 DUP4 AND DUP3 ADD SWAP1 DUP1 DUP3 GT PUSH3 0x20A JUMPI PUSH2 0x2710 SWAP2 AND LT ISZERO PUSH3 0x1F9 JUMPI PUSH4 0xFFFF0000 PUSH1 0x3 SLOAD SWAP3 PUSH1 0x10 SHL AND SWAP2 PUSH4 0xFFFFFFFF NOT AND OR OR PUSH1 0x3 SSTORE PUSH1 0x0 SWAP2 DUP3 DUP1 MSTORE DUP3 DUP5 MSTORE DUP5 DUP4 KECCAK256 CALLER DUP5 MSTORE DUP5 MSTORE PUSH1 0xFF DUP6 DUP5 KECCAK256 SLOAD AND ISZERO PUSH3 0x1C4 JUMPI JUMPDEST PUSH32 0x65D7A28E3265B37A6474929F336521B332C1681B933F6CB9F3376673440D862A DUP1 DUP5 MSTORE DUP4 DUP6 MSTORE DUP6 DUP5 KECCAK256 CALLER DUP6 MSTORE DUP6 MSTORE PUSH1 0xFF DUP7 DUP6 KECCAK256 SLOAD AND ISZERO PUSH3 0x18D JUMPI JUMPDEST POP PUSH32 0x97667070C54EF182B0F5858B034BEAC1B6F3089AA2D3188BB1E8929F4FA9B929 SWAP4 DUP5 DUP5 MSTORE DUP4 DUP2 MSTORE DUP6 DUP5 KECCAK256 CALLER DUP6 MSTORE DUP2 MSTORE PUSH1 0xFF DUP7 DUP6 KECCAK256 SLOAD AND ISZERO PUSH3 0x154 JUMPI JUMPDEST DUP6 MLOAD PUSH2 0x60AF SWAP1 DUP2 PUSH3 0x24C DUP3 CODECOPY RETURN JUMPDEST DUP5 DUP5 MSTORE DUP4 DUP2 MSTORE DUP6 DUP5 KECCAK256 SWAP1 CALLER DUP6 MSTORE MSTORE DUP5 DUP4 KECCAK256 SWAP2 DUP3 SLOAD AND OR SWAP1 SSTORE CALLER SWAP2 PUSH1 0x0 DUP1 MLOAD PUSH1 0x20 PUSH3 0x62FB DUP4 CODECOPY DUP2 MLOAD SWAP2 MSTORE CALLER SWAP3 DUP1 LOG4 CODESIZE DUP1 DUP1 DUP1 DUP1 PUSH3 0x145 JUMP JUMPDEST DUP1 DUP5 MSTORE DUP4 DUP6 MSTORE DUP6 DUP5 KECCAK256 CALLER DUP6 MSTORE DUP6 MSTORE DUP6 DUP5 KECCAK256 DUP3 DUP5 DUP3 SLOAD AND OR SWAP1 SSTORE CALLER SWAP1 CALLER SWAP1 PUSH1 0x0 DUP1 MLOAD PUSH1 0x20 PUSH3 0x62FB DUP4 CODECOPY DUP2 MLOAD SWAP2 MSTORE DUP7 DUP1 LOG4 CODESIZE PUSH3 0x106 JUMP JUMPDEST DUP3 DUP1 MSTORE DUP3 DUP5 MSTORE DUP5 DUP4 KECCAK256 CALLER DUP5 MSTORE DUP5 MSTORE DUP5 DUP4 KECCAK256 DUP2 DUP4 DUP3 SLOAD AND OR SWAP1 SSTORE CALLER CALLER DUP5 PUSH1 0x0 DUP1 MLOAD PUSH1 0x20 PUSH3 0x62FB DUP4 CODECOPY DUP2 MLOAD SWAP2 MSTORE DUP2 DUP1 LOG4 PUSH3 0xC9 JUMP JUMPDEST DUP6 MLOAD PUSH4 0x192069C3 PUSH1 0xE3 SHL DUP2 MSTORE PUSH1 0x4 SWAP1 REVERT JUMPDEST PUSH4 0x4E487B71 PUSH1 0xE0 SHL PUSH1 0x0 MSTORE PUSH1 0x11 PUSH1 0x4 MSTORE PUSH1 0x24 PUSH1 0x0 REVERT JUMPDEST PUSH1 0x0 DUP1 REVERT JUMPDEST PUSH4 0x4E487B71 PUSH1 0xE0 SHL PUSH1 0x0 MSTORE PUSH1 0x41 PUSH1 0x4 MSTORE PUSH1 0x24 PUSH1 0x0 REVERT JUMPDEST MLOAD SWAP1 PUSH2 0xFFFF DUP3 AND DUP3 SUB PUSH3 0x220 JUMPI JUMP INVALID PUSH1 0x80 DUP1 PUSH1 0x40 MSTORE PUSH1 0x4 CALLDATASIZE LT ISZERO PUSH3 0x22 JUMPI JUMPDEST POP CALLDATASIZE ISZERO PUSH3 0x1D JUMPI PUSH1 0x0 DUP1 REVERT JUMPDEST PUSH1 0x0 DUP1 REVERT JUMPDEST PUSH1 0x0 SWAP1 DUP2 CALLDATALOAD PUSH1 0xE0 SHR SWAP1 DUP2 PUSH4 0x1FFC9A7 EQ PUSH3 0x305C JUMPI POP DUP1 PUSH4 0xE3F0CFC EQ PUSH3 0x2F7A JUMPI DUP1 PUSH4 0x14FE72AA EQ PUSH3 0x2EE1 JUMPI DUP1 PUSH4 0x15A1603B EQ PUSH3 0x2E5E JUMPI DUP1 PUSH4 0x22163B86 EQ PUSH3 0x2E3E JUMPI DUP1 PUSH4 0x22212E2B EQ PUSH3 0x2E1E JUMPI DUP1 PUSH4 0x248A9CA3 EQ PUSH3 0x2DF0 JUMPI DUP1 PUSH4 0x28D7B276 EQ PUSH3 0x2D9E JUMPI DUP1 PUSH4 0x2F2FF15D EQ PUSH3 0x2CE9 JUMPI DUP1 PUSH4 0x336322D2 EQ PUSH3 0x2C56 JUMPI DUP1 PUSH4 0x349123D1 EQ PUSH3 0x2C11 JUMPI DUP1 PUSH4 0x35A62E68 EQ PUSH3 0x2BD4 JUMPI DUP1 PUSH4 0x36568ABE EQ PUSH3 0x2B3A JUMPI DUP1 PUSH4 0x3D94BDBB EQ PUSH3 0x2931 JUMPI DUP1 PUSH4 0x3DF9A720 EQ PUSH3 0x2779 JUMPI DUP1 PUSH4 0x3F4BA83A EQ PUSH3 0x26DF JUMPI DUP1 PUSH4 0x45626BD6 EQ PUSH3 0x2690 JUMPI DUP1 PUSH4 0x494CFC6C EQ PUSH3 0x246E JUMPI DUP1 PUSH4 0x5C975ABB EQ PUSH3 0x2449 JUMPI DUP1 PUSH4 0x634282AF EQ PUSH3 0x2396 JUMPI DUP1 PUSH4 0x66C5B06C EQ PUSH3 0x2327 JUMPI DUP1 PUSH4 0x692BF4A8 EQ PUSH3 0x20C6 JUMPI DUP1 PUSH4 0x79C8FFD6 EQ PUSH3 0x2083 JUMPI DUP1 PUSH4 0x7E1C0C09 EQ PUSH3 0x2063 JUMPI DUP1 PUSH4 0x8231F4F0 EQ PUSH3 0x1F49 JUMPI DUP1 PUSH4 0x84536017 EQ PUSH3 0x1EB9 JUMPI DUP1 PUSH4 0x8456CB59 EQ PUSH3 0x1E59 JUMPI DUP1 PUSH4 0x84D93612 EQ PUSH3 0x1DA5 JUMPI DUP1 PUSH4 0x8995881D EQ PUSH3 0x1D62 JUMPI DUP1 PUSH4 0x8C9F7B39 EQ PUSH3 0x1CBE JUMPI DUP1 PUSH4 0x8CD4426D EQ PUSH3 0x1C44 JUMPI DUP1 PUSH4 0x91D14854 EQ PUSH3 0x1BF8 JUMPI DUP1 PUSH4 0x943711EA EQ PUSH3 0x1B4D JUMPI DUP1 PUSH4 0x95ABC091 EQ PUSH3 0x1814 JUMPI DUP1 PUSH4 0x9CCB0744 EQ PUSH3 0x1759 JUMPI DUP1 PUSH4 0xA217FDDF EQ PUSH3 0x173B JUMPI DUP1 PUSH4 0xA9BB5C4C EQ PUSH3 0x16FE JUMPI DUP1 PUSH4 0xA9E3929E EQ PUSH3 0x1639 JUMPI DUP1 PUSH4 0xAC76D084 EQ PUSH3 0x15E4 JUMPI DUP1 PUSH4 0xAD3E080A EQ PUSH3 0x1576 JUMPI DUP1 PUSH4 0xBC120FE7 EQ PUSH3 0x151C JUMPI DUP1 PUSH4 0xBED9757E EQ PUSH3 0x1480 JUMPI DUP1 PUSH4 0xC748713E EQ PUSH3 0x1443 JUMPI DUP1 PUSH4 0xD01C44CD EQ PUSH3 0x1299 JUMPI DUP1 PUSH4 0xD547741F EQ PUSH3 0x1251 JUMPI DUP1 PUSH4 0xD634B419 EQ PUSH3 0xC94 JUMPI DUP1 PUSH4 0xD9D0A5BE EQ PUSH3 0x80E JUMPI DUP1 PUSH4 0xDC4EC9BE EQ PUSH3 0x7E7 JUMPI DUP1 PUSH4 0xDC97ECF6 EQ PUSH3 0x730 JUMPI DUP1 PUSH4 0xE4C608F1 EQ PUSH3 0x705 JUMPI DUP1 PUSH4 0xE559AFD9 EQ PUSH3 0x653 JUMPI DUP1 PUSH4 0xE5F8AF9F EQ PUSH3 0x53F JUMPI DUP1 PUSH4 0xE63AB1E9 EQ PUSH3 0x502 JUMPI DUP1 PUSH4 0xEC3889B5 EQ PUSH3 0x47D JUMPI DUP1 PUSH4 0xF0B6374B EQ PUSH3 0x411 JUMPI DUP1 PUSH4 0xF3D2350E EQ PUSH3 0x346 JUMPI DUP1 PUSH4 0xF5B541A6 EQ PUSH3 0x309 JUMPI PUSH4 0xFF96092A SUB PUSH3 0x10 JUMPI CALLVALUE PUSH3 0x306 JUMPI DUP1 PUSH1 0x3 NOT CALLDATASIZE ADD SLT PUSH3 0x306 JUMPI PUSH1 0x20 PUSH2 0xFFFF PUSH1 0x3 SLOAD AND PUSH1 0x40 MLOAD SWAP1 DUP2 MSTORE RETURN JUMPDEST DUP1 REVERT JUMPDEST POP CALLVALUE PUSH3 0x306 JUMPI DUP1 PUSH1 0x3 NOT CALLDATASIZE ADD SLT PUSH3 0x306 JUMPI PUSH1 0x20 PUSH1 0x40 MLOAD PUSH32 0x97667070C54EF182B0F5858B034BEAC1B6F3089AA2D3188BB1E8929F4FA9B929 DUP2 MSTORE RETURN JUMPDEST POP CALLVALUE PUSH3 0x306 JUMPI PUSH1 0x40 CALLDATASIZE PUSH1 0x3 NOT ADD SLT PUSH3 0x306 JUMPI PUSH1 0x4 CALLDATALOAD PUSH2 0xFFFF SWAP1 DUP2 DUP2 AND DUP1 SWAP2 SUB PUSH3 0x1D JUMPI PUSH1 0x24 CALLDATALOAD SWAP1 DUP3 DUP3 AND SWAP3 DUP4 DUP4 SUB PUSH3 0x1D JUMPI PUSH3 0x386 PUSH3 0x36E1 JUMP JUMPDEST DUP4 DUP3 ADD DUP2 DUP2 GT PUSH3 0x3FD JUMPI PUSH2 0x2710 SWAP2 AND LT ISZERO PUSH3 0x3EB JUMPI PUSH32 0x2AC80C14C28700F7B5E36F947D572149FE2E3947BAC32C3A8C098F3E03722C11 SWAP3 PUSH1 0x40 SWAP3 DUP3 PUSH4 0xFFFF0000 PUSH1 0x3 SLOAD SWAP3 PUSH1 0x10 SHL AND SWAP2 PUSH4 0xFFFFFFFF NOT AND OR OR PUSH1 0x3 SSTORE DUP3 MLOAD SWAP2 DUP3 MSTORE PUSH1 0x20 DUP3 ADD MSTORE LOG1 DUP1 RETURN JUMPDEST PUSH1 0x40 MLOAD PUSH4 0x192069C3 PUSH1 0xE3 SHL DUP2 MSTORE PUSH1 0x4 SWAP1 REVERT JUMPDEST PUSH4 0x4E487B71 PUSH1 0xE0 SHL DUP7 MSTORE PUSH1 0x11 PUSH1 0x4 MSTORE PUSH1 0x24 DUP7 REVERT JUMPDEST POP CALLVALUE PUSH3 0x306 JUMPI PUSH1 0x20 CALLDATASIZE PUSH1 0x3 NOT ADD SLT PUSH3 0x306 JUMPI PUSH3 0x42F PUSH3 0x30B6 JUMP JUMPDEST PUSH3 0x439 PUSH3 0x34C4 JUMP JUMPDEST PUSH1 0x1 PUSH1 0x1 PUSH1 0xA0 SHL SUB AND DUP1 DUP3 MSTORE PUSH1 0xC PUSH1 0x20 MSTORE PUSH1 0x40 DUP3 KECCAK256 DUP1 SLOAD PUSH1 0xFF NOT AND SWAP1 SSTORE PUSH32 0xF38578ED892CE2CE655CA8AE03C73464AD74915A1331A9B4085E637534DAEEDF DUP3 DUP1 LOG2 DUP1 RETURN JUMPDEST POP CALLVALUE PUSH3 0x306 JUMPI PUSH1 0x20 CALLDATASIZE PUSH1 0x3 NOT ADD SLT PUSH3 0x306 JUMPI PUSH1 0x4 CALLDATALOAD PUSH1 0x1 PUSH1 0x1 PUSH1 0xA0 SHL SUB DUP2 AND SWAP1 DUP2 SWAP1 SUB PUSH3 0x4FE JUMPI PUSH3 0x4B1 PUSH3 0x36E1 JUMP JUMPDEST PUSH3 0x4BB PUSH3 0x3D22 JUMP JUMPDEST PUSH1 0x4 SLOAD SWAP1 DUP2 ISZERO PUSH3 0x4EC JUMPI DUP3 DUP1 DUP1 SWAP4 DUP2 SWAP4 DUP3 PUSH1 0x4 SSTORE DUP3 CALL ISZERO PUSH3 0x4E0 JUMPI PUSH1 0x1 PUSH1 0x2 SSTORE DUP1 RETURN JUMPDEST PUSH1 0x40 MLOAD SWAP1 RETURNDATASIZE SWAP1 DUP3 RETURNDATACOPY RETURNDATASIZE SWAP1 REVERT JUMPDEST PUSH1 0x40 MLOAD PUSH4 0x3FBECDF PUSH1 0xE5 SHL DUP2 MSTORE PUSH1 0x4 SWAP1 REVERT JUMPDEST POP DUP1 REVERT JUMPDEST POP CALLVALUE PUSH3 0x306 JUMPI DUP1 PUSH1 0x3 NOT CALLDATASIZE ADD SLT PUSH3 0x306 JUMPI PUSH1 0x20 PUSH1 0x40 MLOAD PUSH32 0x65D7A28E3265B37A6474929F336521B332C1681B933F6CB9F3376673440D862A DUP2 MSTORE RETURN JUMPDEST POP CALLVALUE PUSH3 0x306 JUMPI PUSH1 0x20 DUP1 PUSH1 0x3 NOT CALLDATASIZE ADD SLT PUSH3 0x4FE JUMPI PUSH1 0x4 CALLDATALOAD PUSH1 0x1 PUSH1 0x1 PUSH1 0x40 SHL SUB DUP2 GT PUSH3 0x64F JUMPI PUSH3 0x576 SWAP1 CALLDATASIZE SWAP1 PUSH1 0x4 ADD PUSH3 0x3419 JUMP JUMPDEST SWAP1 PUSH3 0x581 PUSH3 0x36E1 JUMP JUMPDEST PUSH3 0x58B PUSH3 0x3D22 JUMP JUMPDEST DUP4 JUMPDEST DUP3 DUP2 LT PUSH3 0x59E JUMPI DUP5 PUSH1 0x1 PUSH1 0x2 SSTORE DUP1 RETURN JUMPDEST PUSH1 0x1 PUSH1 0x1 PUSH1 0xA0 SHL SUB PUSH3 0x5BD PUSH3 0x5B7 DUP4 DUP7 DUP7 PUSH3 0x3FA9 JUMP JUMPDEST PUSH3 0x3FBA JUMP JUMPDEST AND SWAP1 DUP2 DUP7 MSTORE PUSH1 0x5 DUP6 MSTORE PUSH1 0x40 DUP7 KECCAK256 SWAP2 DUP7 DUP4 SLOAD SWAP4 DUP5 ISZERO SWAP1 DUP2 ISZERO PUSH3 0x5E9 JUMPI JUMPDEST POP POP POP POP PUSH1 0x1 SWAP2 POP ADD PUSH3 0x58D JUMP JUMPDEST DUP6 SWAP2 DUP4 DUP6 SWAP3 SSTORE DUP4 SWAP1 PUSH3 0x645 JUMPI JUMPDEST DUP4 SWAP3 DUP4 SWAP3 DUP4 SWAP3 CALL ISZERO PUSH3 0x63A JUMPI PUSH32 0x7F0B212761A7ABE7EC4D2ADEA5A7FA1FEA58234AABF0C01C0E63403FE62013FF DUP7 PUSH1 0x1 SWAP5 PUSH1 0x40 MLOAD SWAP1 DUP2 MSTORE LOG2 CODESIZE DUP7 DUP2 DUP1 PUSH3 0x5DA JUMP JUMPDEST PUSH1 0x40 MLOAD RETURNDATASIZE DUP9 DUP3 RETURNDATACOPY RETURNDATASIZE SWAP1 REVERT JUMPDEST POP PUSH2 0x8FC PUSH3 0x5F7 JUMP JUMPDEST DUP3 DUP1 REVERT JUMPDEST POP CALLVALUE PUSH3 0x306 JUMPI PUSH3 0x665 CALLDATASIZE PUSH3 0x344C JUMP JUMPDEST PUSH3 0x672 SWAP3 SWAP2 SWAP3 PUSH3 0x34C4 JUMP JUMPDEST DUP4 JUMPDEST DUP2 DUP2 LT PUSH3 0x680 JUMPI DUP5 DUP1 RETURN JUMPDEST PUSH1 0x1 PUSH1 0x1 PUSH1 0xA0 SHL SUB DUP4 DUP2 AND DUP1 DUP8 MSTORE PUSH1 0x8 PUSH1 0x20 SWAP1 DUP2 MSTORE PUSH1 0x40 DUP9 KECCAK256 SWAP3 SWAP4 SWAP3 SWAP1 DUP5 PUSH3 0x6AF PUSH3 0x5B7 DUP7 DUP10 DUP13 PUSH3 0x3FA9 JUMP JUMPDEST AND PUSH1 0x0 MSTORE MSTORE PUSH1 0x40 PUSH1 0x0 KECCAK256 SWAP3 PUSH1 0x1 SWAP4 DUP5 PUSH1 0xFF NOT DUP3 SLOAD AND OR SWAP1 SSTORE PUSH3 0x6D8 PUSH3 0x5B7 DUP5 DUP8 DUP11 PUSH3 0x3FA9 JUMP JUMPDEST AND SWAP1 PUSH32 0x4BC18AA4B0095C9A3B5CDF42D2322D5A145591B04045988A995A5DA426075457 DUP9 DUP1 LOG3 ADD PUSH3 0x674 JUMP JUMPDEST POP CALLVALUE PUSH3 0x306 JUMPI DUP1 PUSH1 0x3 NOT CALLDATASIZE ADD SLT PUSH3 0x306 JUMPI PUSH1 0xE SLOAD PUSH1 0x40 MLOAD PUSH1 0x1 PUSH1 0x1 PUSH1 0xA0 SHL SUB SWAP1 SWAP2 AND DUP2 MSTORE PUSH1 0x20 SWAP1 RETURN JUMPDEST POP CALLVALUE PUSH3 0x306 JUMPI PUSH1 0x40 CALLDATASIZE PUSH1 0x3 NOT ADD SLT PUSH3 0x306 JUMPI DUP1 PUSH3 0x74F PUSH3 0x30B6 JUMP JUMPDEST PUSH3 0x759 PUSH3 0x30CD JUMP JUMPDEST SWAP1 PUSH3 0x764 PUSH3 0x36E1 JUMP JUMPDEST PUSH3 0x76E PUSH3 0x3CDD JUMP JUMPDEST PUSH1 0xE SLOAD PUSH1 0x1 PUSH1 0x1 PUSH1 0xA0 SHL SUB AND SWAP2 DUP3 EXTCODESIZE ISZERO PUSH3 0x7E2 JUMPI PUSH1 0x40 MLOAD PUSH4 0x27332AB PUSH1 0xE2 SHL DUP2 MSTORE PUSH1 0x1 PUSH1 0x1 PUSH1 0xA0 SHL SUB SWAP3 DUP4 AND PUSH1 0x4 DUP3 ADD MSTORE SWAP2 AND PUSH1 0x24 DUP3 ADD MSTORE SWAP1 DUP3 SWAP1 DUP3 SWAP1 PUSH1 0x44 SWAP1 DUP3 SWAP1 DUP5 SWAP1 GAS CALL DUP1 ISZERO PUSH3 0x7D7 JUMPI PUSH3 0x7C4 JUMPI POP RETURN JUMPDEST PUSH3 0x7CF SWAP1 PUSH3 0x3240 JUMP JUMPDEST PUSH3 0x306 JUMPI DUP1 RETURN JUMPDEST PUSH1 0x40 MLOAD RETURNDATASIZE DUP5 DUP3 RETURNDATACOPY RETURNDATASIZE SWAP1 REVERT JUMPDEST POP POP POP REVERT JUMPDEST POP CALLVALUE PUSH3 0x306 JUMPI DUP1 PUSH1 0x3 NOT CALLDATASIZE ADD SLT PUSH3 0x306 JUMPI PUSH1 0x20 PUSH2 0xFFFF PUSH1 0x3 SLOAD PUSH1 0x10 SHR AND PUSH1 0x40 MLOAD SWAP1 DUP2 MSTORE RETURN JUMPDEST POP PUSH1 0xA0 CALLDATASIZE PUSH1 0x3 NOT ADD SLT PUSH3 0x306 JUMPI PUSH3 0x826 PUSH3 0x30B6 JUMP JUMPDEST PUSH1 0x24 SWAP2 PUSH1 0x44 CALLDATALOAD SWAP2 PUSH1 0x64 CALLDATALOAD PUSH1 0x1 PUSH1 0x1 PUSH1 0xA0 SHL SUB DUP2 DUP2 AND SWAP2 DUP7 CALLDATALOAD SWAP2 DUP4 DUP3 SUB PUSH3 0x1D JUMPI PUSH1 0x1 PUSH1 0x1 PUSH1 0x40 SHL SUB SWAP4 PUSH1 0x84 CALLDATALOAD DUP6 DUP2 GT PUSH3 0xC90 JUMPI PUSH3 0x86B SWAP1 CALLDATASIZE SWAP1 PUSH1 0x4 ADD PUSH3 0x3419 JUMP JUMPDEST SWAP5 SWAP1 SWAP9 PUSH3 0x878 PUSH3 0x3CDD JUMP JUMPDEST PUSH3 0x882 PUSH3 0x3D22 JUMP JUMPDEST PUSH1 0x6 SLOAD SWAP10 PUSH1 0x40 MLOAD SWAP8 PUSH1 0x20 SWAP9 DUP10 DUP2 ADD SWAP2 CALLER PUSH1 0x60 SHL DUP4 MSTORE DUP5 PUSH1 0x34 DUP4 ADD MSTORE PUSH1 0x34 DUP3 MSTORE PUSH1 0x60 DUP3 ADD SWAP1 DUP3 DUP3 LT SWAP1 DUP3 GT OR PUSH3 0xC7B JUMPI PUSH1 0x40 MSTORE MLOAD SWAP1 KECCAK256 SWAP1 PUSH3 0x8C4 DUP9 PUSH3 0x3FCF JUMP JUMPDEST SWAP8 PUSH3 0x8D4 PUSH1 0x40 MLOAD SWAP10 DUP11 PUSH3 0x3270 JUMP JUMPDEST DUP1 DUP10 MSTORE DUP10 DUP10 ADD SWAP1 PUSH1 0x5 SHL DUP3 ADD SWAP2 CALLDATASIZE DUP4 GT PUSH3 0xC77 JUMPI DUP11 SWAP1 SWAP2 JUMPDEST DUP4 DUP4 LT PUSH3 0xC66 JUMPI POP POP POP POP SWAP8 DUP10 SWAP9 JUMPDEST DUP8 MLOAD DUP11 LT ISZERO PUSH3 0x95E JUMPI PUSH3 0x913 DUP11 DUP10 PUSH3 0x3FE7 JUMP JUMPDEST MLOAD SWAP1 DUP2 DUP2 LT ISZERO PUSH3 0x94F JUMPI DUP12 MSTORE DUP9 MSTORE PUSH1 0x40 DUP11 KECCAK256 JUMPDEST SWAP9 PUSH1 0x0 NOT DUP2 EQ PUSH3 0x93C JUMPI PUSH1 0x1 ADD SWAP9 PUSH3 0x8FD JUMP JUMPDEST PUSH4 0x4E487B71 PUSH1 0xE0 SHL DUP12 MSTORE PUSH1 0x11 PUSH1 0x4 MSTORE DUP13 DUP12 REVERT JUMPDEST SWAP1 DUP12 MSTORE DUP9 MSTORE PUSH1 0x40 DUP11 KECCAK256 PUSH3 0x927 JUMP JUMPDEST DUP11 SWAP9 SWAP8 POP SWAP1 DUP12 DUP14 SWAP3 SUB PUSH3 0xC54 JUMPI DUP6 AND SWAP2 DUP3 DUP10 MSTORE PUSH1 0x9 DUP9 MSTORE PUSH1 0x40 DUP10 KECCAK256 CALLER PUSH1 0x0 MSTORE DUP9 MSTORE PUSH1 0x40 PUSH1 0x0 KECCAK256 SLOAD SWAP1 PUSH3 0x993 DUP6 DUP4 PUSH3 0x3B2C JUMP JUMPDEST GT PUSH3 0xC42 JUMPI DUP4 PUSH3 0x9A5 SWAP2 PUSH3 0x3B2C JUMP JUMPDEST DUP3 DUP10 MSTORE PUSH1 0x9 DUP9 MSTORE PUSH1 0x40 DUP10 KECCAK256 CALLER PUSH1 0x0 MSTORE DUP9 MSTORE PUSH1 0x40 PUSH1 0x0 KECCAK256 SSTORE PUSH3 0x9C6 PUSH3 0x3CDD JUMP JUMPDEST PUSH3 0x9D0 PUSH3 0x3D22 JUMP JUMPDEST DUP3 ISZERO PUSH3 0xC30 JUMPI DUP2 DUP9 MSTORE PUSH1 0xC DUP8 MSTORE PUSH1 0xFF PUSH1 0x40 DUP10 KECCAK256 SLOAD AND PUSH3 0xC1A JUMPI DUP2 DUP9 MSTORE PUSH1 0xB DUP8 MSTORE PUSH1 0x40 DUP9 KECCAK256 SLOAD SWAP1 DUP2 ISZERO DUP1 ISZERO PUSH3 0xBDF JUMPI JUMPDEST PUSH3 0xBCD JUMPI DUP3 DUP10 MSTORE PUSH1 0x7 DUP9 MSTORE PUSH1 0xFF PUSH1 0x40 DUP11 KECCAK256 SLOAD AND DUP1 PUSH3 0xBAE JUMPI JUMPDEST PUSH3 0xB9C JUMPI PUSH1 0x0 NOT DUP3 ADD SWAP2 DUP3 GT PUSH3 0xB8A JUMPI POP PUSH3 0xA3B SWAP1 PUSH3 0x3162 JUMP JUMPDEST POP PUSH8 0xDE0B6B3A7640000 PUSH3 0xA55 DUP5 PUSH1 0x2 DUP5 ADD SLOAD PUSH3 0x3B02 JUMP JUMPDEST DIV SWAP7 DUP8 CALLVALUE SUB PUSH3 0xB78 JUMPI DUP9 SWAP8 PUSH1 0x3 SLOAD SWAP2 PUSH2 0x2710 PUSH2 0xFFFF SWAP4 DUP2 PUSH3 0xA7B DUP7 DUP4 AND DUP7 PUSH3 0x3B02 JUMP JUMPDEST DIV SWAP5 DUP10 PUSH3 0xB60 JUMPI POP POP POP DUP10 SWAP8 JUMPDEST PUSH1 0x1 PUSH3 0xAA2 DUP11 PUSH3 0xA9C DUP8 DUP8 PUSH3 0x3D77 JUMP JUMPDEST PUSH3 0x3D77 JUMP JUMPDEST SWAP6 PUSH3 0xAB1 DUP7 PUSH1 0x4 SLOAD PUSH3 0x3B2C JUMP JUMPDEST PUSH1 0x4 SSTORE ADD SLOAD AND DUP11 MSTORE PUSH1 0x5 DUP2 MSTORE PUSH1 0x40 DUP11 KECCAK256 PUSH3 0xACE DUP6 DUP3 SLOAD PUSH3 0x3B2C JUMP JUMPDEST SWAP1 SSTORE PUSH3 0xADD DUP7 CALLER DUP8 PUSH3 0x3DBA JUMP JUMPDEST PUSH1 0x40 MLOAD SWAP6 DUP7 MSTORE DUP6 ADD MSTORE PUSH1 0x40 DUP5 ADD MSTORE DUP5 PUSH1 0x60 DUP5 ADD MSTORE PUSH1 0x80 DUP4 ADD MSTORE PUSH32 0xA4D1D47447AD64A0C581F05071DF4CE987BA94440D913925DC004A21F28F4226 PUSH1 0xA0 CALLER SWAP4 LOG4 DUP1 PUSH3 0xB2C JUMPI JUMPDEST DUP3 PUSH1 0x1 PUSH1 0x2 SSTORE DUP1 RETURN JUMPDEST DUP3 DUP1 SWAP3 SWAP2 DUP2 SWAP3 GAS CALL PUSH3 0xB3E PUSH3 0x3D85 JUMP JUMPDEST POP ISZERO PUSH3 0xB4E JUMPI DUP1 DUP3 DUP1 PUSH3 0xB23 JUMP JUMPDEST PUSH1 0x40 MLOAD PUSH4 0x9A2C56AB PUSH1 0xE0 SHL DUP2 MSTORE PUSH1 0x4 SWAP1 REVERT JUMPDEST PUSH3 0xB70 SWAP2 PUSH1 0x10 SHR AND DUP5 PUSH3 0x3B02 JUMP JUMPDEST DIV SWAP8 PUSH3 0xA89 JUMP JUMPDEST PUSH1 0x40 MLOAD PUSH4 0xD183FE43 PUSH1 0xE0 SHL DUP2 MSTORE PUSH1 0x4 SWAP1 REVERT JUMPDEST PUSH4 0x4E487B71 PUSH1 0xE0 SHL DUP10 MSTORE PUSH1 0x11 PUSH1 0x4 MSTORE DUP9 REVERT JUMPDEST PUSH1 0x40 MLOAD PUSH4 0xB094F27 PUSH1 0xE3 SHL DUP2 MSTORE PUSH1 0x4 SWAP1 REVERT JUMPDEST POP PUSH1 0x8 DUP9 MSTORE PUSH1 0x40 DUP10 KECCAK256 CALLER PUSH1 0x0 MSTORE DUP9 MSTORE PUSH1 0xFF PUSH1 0x40 PUSH1 0x0 KECCAK256 SLOAD AND ISZERO PUSH3 0xA1D JUMP JUMPDEST PUSH1 0x40 MLOAD PUSH4 0x1D99DDBF PUSH1 0xE0 SHL DUP2 MSTORE PUSH1 0x4 SWAP1 REVERT JUMPDEST POP PUSH1 0x0 NOT DUP3 ADD DUP3 DUP2 GT PUSH3 0xC07 JUMPI PUSH1 0x5 PUSH3 0xBFC PUSH1 0xFF SWAP3 PUSH3 0x3162 JUMP JUMPDEST POP ADD SLOAD AND ISZERO PUSH3 0xA02 JUMP JUMPDEST POP PUSH4 0x4E487B71 PUSH1 0xE0 SHL DUP10 MSTORE PUSH1 0x11 PUSH1 0x4 MSTORE DUP9 REVERT JUMPDEST SWAP1 PUSH1 0x40 MLOAD SWAP1 PUSH4 0x54047531 PUSH1 0xE1 SHL DUP3 MSTORE PUSH1 0x4 DUP3 ADD MSTORE REVERT JUMPDEST PUSH1 0x40 MLOAD PUSH4 0x1F2A2005 PUSH1 0xE0 SHL DUP2 MSTORE PUSH1 0x4 SWAP1 REVERT JUMPDEST PUSH1 0x40 MLOAD PUSH4 0x2EDAFF43 PUSH1 0xE0 SHL DUP2 MSTORE PUSH1 0x4 SWAP1 REVERT JUMPDEST PUSH1 0x40 MLOAD PUSH4 0x1CDE0969 PUSH1 0xE0 SHL DUP2 MSTORE PUSH1 0x4 SWAP1 REVERT JUMPDEST DUP3 CALLDATALOAD DUP2 MSTORE SWAP2 DUP2 ADD SWAP2 DUP12 SWAP2 ADD PUSH3 0x8ED JUMP JUMPDEST DUP13 DUP1 REVERT JUMPDEST DUP15 PUSH4 0x4E487B71 PUSH1 0xE0 SHL PUSH1 0x0 MSTORE PUSH1 0x41 PUSH1 0x4 MSTORE PUSH1 0x0 REVERT JUMPDEST DUP8 DUP1 REVERT JUMPDEST POP CALLVALUE PUSH3 0x306 JUMPI PUSH1 0xC0 CALLDATASIZE PUSH1 0x3 NOT ADD SLT PUSH3 0x306 JUMPI PUSH1 0x4 CALLDATALOAD PUSH1 0x1 PUSH1 0x1 PUSH1 0x40 SHL SUB DUP2 GT PUSH3 0x4FE JUMPI PUSH3 0xCCA SWAP1 CALLDATASIZE SWAP1 PUSH1 0x4 ADD PUSH3 0x3494 JUMP JUMPDEST PUSH1 0x24 CALLDATALOAD PUSH1 0x1 PUSH1 0x1 PUSH1 0x40 SHL SUB DUP2 GT PUSH3 0x124D JUMPI PUSH3 0xCEC SWAP1 CALLDATASIZE SWAP1 PUSH1 0x4 ADD PUSH3 0x3494 JUMP JUMPDEST SWAP1 SWAP2 PUSH1 0x44 CALLDATALOAD PUSH1 0x1 PUSH1 0x1 PUSH1 0x40 SHL SUB DUP2 GT PUSH3 0x1249 JUMPI PUSH3 0xD10 SWAP1 CALLDATASIZE SWAP1 PUSH1 0x4 ADD PUSH3 0x3494 JUMP JUMPDEST SWAP5 SWAP1 SWAP2 PUSH1 0xA4 CALLDATALOAD PUSH1 0x1 PUSH1 0x1 PUSH1 0x40 SHL SUB DUP2 GT PUSH3 0xC90 JUMPI PUSH3 0xD35 SWAP1 CALLDATASIZE SWAP1 PUSH1 0x4 ADD PUSH3 0x3494 JUMP JUMPDEST SWAP6 SWAP1 SWAP5 PUSH3 0xD42 PUSH3 0x34C4 JUMP JUMPDEST PUSH3 0xD4C PUSH3 0x3CDD JUMP JUMPDEST PUSH3 0xD56 PUSH3 0x3D22 JUMP JUMPDEST PUSH1 0x84 CALLDATALOAD ISZERO PUSH3 0x1237 JUMPI PUSH1 0x40 MLOAD SWAP4 PUSH2 0x201C SWAP4 DUP5 DUP7 ADD SWAP5 DUP7 DUP7 LT PUSH1 0x1 PUSH1 0x1 PUSH1 0x40 SHL SUB DUP8 GT OR PUSH3 0x1223 JUMPI SWAP3 PUSH3 0xDA6 PUSH3 0xDB5 SWAP4 PUSH3 0xDD4 SWAP7 SWAP4 DUP10 SWAP9 SWAP7 PUSH3 0x4087 DUP11 CODECOPY PUSH1 0xA0 DUP8 MSTORE PUSH1 0xA0 DUP8 ADD SWAP2 PUSH3 0x3C80 JUMP JUMPDEST SWAP2 DUP5 DUP4 SUB PUSH1 0x20 DUP7 ADD MSTORE PUSH3 0x3C80 JUMP JUMPDEST SWAP1 PUSH1 0x64 CALLDATALOAD PUSH1 0x40 DUP3 ADD MSTORE CALLER PUSH1 0x60 DUP3 ADD MSTORE PUSH1 0x80 DUP2 DUP4 SUB SWAP2 ADD MSTORE DUP7 DUP7 PUSH3 0x3C80 JUMP JUMPDEST SUB SWAP1 DUP7 CREATE SWAP4 DUP5 ISZERO PUSH3 0x1218 JUMPI PUSH1 0x40 MLOAD SWAP6 PUSH3 0xDEF DUP8 PUSH3 0x320E JUMP JUMPDEST PUSH1 0x1 PUSH1 0x1 PUSH1 0xA0 SHL SUB DUP7 AND DUP8 MSTORE CALLER PUSH1 0x20 DUP9 ADD MSTORE PUSH1 0x84 CALLDATALOAD PUSH1 0x40 DUP9 ADD MSTORE PUSH3 0xE16 CALLDATASIZE DUP4 DUP6 PUSH3 0x3CA1 JUMP JUMPDEST PUSH1 0x60 DUP9 ADD MSTORE PUSH3 0xE28 CALLDATASIZE DUP7 DUP7 PUSH3 0x3CA1 JUMP JUMPDEST PUSH1 0x80 DUP9 ADD MSTORE PUSH1 0x1 PUSH1 0xA0 DUP9 ADD MSTORE PUSH1 0xA SLOAD PUSH1 0x1 PUSH1 0x40 SHL DUP2 LT ISZERO PUSH3 0x1204 JUMPI DUP1 PUSH1 0x1 PUSH3 0xE56 SWAP3 ADD PUSH1 0xA SSTORE PUSH3 0x3162 JUMP JUMPDEST PUSH3 0x11F0 JUMPI DUP8 MLOAD DUP2 SLOAD PUSH1 0x1 PUSH1 0x1 PUSH1 0xA0 SHL SUB SWAP2 DUP3 AND PUSH1 0x1 PUSH1 0x1 PUSH1 0xA0 SHL SUB NOT SWAP2 DUP3 AND OR DUP4 SSTORE PUSH1 0x20 DUP11 ADD MLOAD PUSH1 0x1 DUP5 ADD DUP1 SLOAD SWAP2 SWAP1 SWAP4 AND SWAP2 AND OR SWAP1 SSTORE PUSH1 0x40 DUP9 ADD MLOAD PUSH1 0x2 DUP3 ADD SSTORE PUSH1 0x60 DUP9 ADD MLOAD DUP1 MLOAD SWAP1 PUSH1 0x1 PUSH1 0x1 PUSH1 0x40 SHL SUB DUP3 GT PUSH3 0x1107 JUMPI DUP2 SWAP1 PUSH3 0xEBF PUSH1 0x3 DUP6 ADD SLOAD PUSH3 0x31D1 JUMP JUMPDEST PUSH1 0x1F DUP2 GT PUSH3 0x119B JUMPI JUMPDEST POP PUSH1 0x20 SWAP1 PUSH1 0x1F DUP4 GT PUSH1 0x1 EQ PUSH3 0x1127 JUMPI DUP6 SWAP3 PUSH3 0x111B JUMPI JUMPDEST POP POP DUP2 PUSH1 0x1 SHL SWAP2 PUSH1 0x0 NOT SWAP1 PUSH1 0x3 SHL SHR NOT AND OR PUSH1 0x3 DUP3 ADD SSTORE JUMPDEST PUSH1 0x80 DUP9 ADD MLOAD SWAP8 DUP9 MLOAD PUSH1 0x1 PUSH1 0x1 PUSH1 0x40 SHL SUB DUP2 GT PUSH3 0x1107 JUMPI PUSH3 0xF1F PUSH1 0x4 DUP5 ADD SLOAD PUSH3 0x31D1 JUMP JUMPDEST PUSH1 0x1F DUP2 GT PUSH3 0x10BE JUMPI JUMPDEST POP PUSH1 0x20 SWAP10 DUP11 SWAP1 PUSH1 0x1F DUP4 GT PUSH1 0x1 EQ PUSH3 0x1020 JUMPI PUSH3 0xFA4 SWAP4 DUP4 DUP8 SWAP7 SWAP5 PUSH1 0x5 SWAP5 PUSH1 0xA0 SWAP5 PUSH32 0x75C1F35492CD2BCB2820D5FF2434B9DC6D19432975F20761140109F0844A7B8A SWAP13 SWAP12 SWAP11 SWAP3 PUSH3 0x1014 JUMPI JUMPDEST POP POP DUP2 PUSH1 0x1 SHL SWAP2 PUSH1 0x0 NOT SWAP1 PUSH1 0x3 SHL SHR NOT AND OR PUSH1 0x4 DUP6 ADD SSTORE JUMPDEST ADD MLOAD ISZERO ISZERO SWAP2 ADD SWAP1 PUSH1 0xFF DUP1 NOT DUP4 SLOAD AND SWAP2 ISZERO ISZERO AND OR SWAP1 SSTORE JUMP JUMPDEST PUSH1 0x40 PUSH1 0xA SLOAD SWAP2 PUSH1 0x1 DUP1 PUSH1 0xA0 SHL SUB DUP10 AND DUP2 MSTORE PUSH1 0xB DUP11 MSTORE KECCAK256 SSTORE PUSH3 0xFFA PUSH3 0xFDF PUSH1 0x40 MLOAD SWAP4 DUP5 SWAP4 PUSH1 0x84 CALLDATALOAD DUP6 MSTORE PUSH1 0x60 DUP12 DUP7 ADD MSTORE PUSH1 0x60 DUP6 ADD SWAP2 PUSH3 0x3C80 JUMP JUMPDEST DUP3 DUP2 SUB PUSH1 0x40 DUP5 ADD MSTORE CALLER SWAP7 PUSH1 0x1 PUSH1 0x1 PUSH1 0xA0 SHL SUB DUP10 AND SWAP7 PUSH3 0x3C80 JUMP JUMPDEST SUB SWAP1 LOG3 PUSH1 0x1 PUSH1 0x2 SSTORE PUSH1 0x40 MLOAD PUSH1 0x1 PUSH1 0x1 PUSH1 0xA0 SHL SUB SWAP1 SWAP2 AND DUP2 MSTORE RETURN JUMPDEST ADD MLOAD SWAP1 POP CODESIZE DUP1 PUSH3 0xF75 JUMP JUMPDEST SWAP1 PUSH1 0x4 DUP6 ADD DUP7 MSTORE DUP12 DUP7 KECCAK256 SWAP2 DUP7 JUMPDEST PUSH1 0x1F NOT DUP6 AND DUP2 LT PUSH3 0x10A6 JUMPI POP SWAP4 PUSH1 0x1 DUP5 PUSH1 0x5 SWAP5 PUSH1 0xA0 SWAP5 PUSH3 0xFA4 SWAP9 PUSH32 0x75C1F35492CD2BCB2820D5FF2434B9DC6D19432975F20761140109F0844A7B8A SWAP14 SWAP13 SWAP12 SWAP11 SWAP9 PUSH1 0x1F NOT DUP2 AND LT PUSH3 0x108C JUMPI JUMPDEST POP POP POP DUP2 SHL ADD PUSH1 0x4 DUP6 ADD SSTORE PUSH3 0xF8D JUMP JUMPDEST ADD MLOAD PUSH1 0x0 NOT PUSH1 0xF8 DUP5 PUSH1 0x3 SHL AND SHR NOT AND SWAP1 SSTORE CODESIZE DUP1 DUP1 PUSH3 0x107B JUMP JUMPDEST SWAP2 SWAP3 DUP14 PUSH1 0x1 DUP2 SWAP3 DUP7 DUP6 ADD MLOAD DUP2 SSTORE ADD SWAP5 ADD SWAP3 ADD PUSH3 0x102D JUMP JUMPDEST PUSH1 0x4 DUP5 ADD DUP6 MSTORE PUSH1 0x20 DUP6 KECCAK256 PUSH1 0x1F DUP4 ADD PUSH1 0x5 SHR DUP2 ADD PUSH1 0x20 DUP5 LT PUSH3 0x10FF JUMPI JUMPDEST PUSH1 0x1F DUP4 ADD PUSH1 0x5 SHR DUP3 ADD DUP2 LT PUSH3 0x10F3 JUMPI POP POP PUSH3 0xF29 JUMP JUMPDEST DUP7 DUP2 SSTORE PUSH1 0x1 ADD PUSH3 0x10DB JUMP JUMPDEST POP DUP1 PUSH3 0x10DB JUMP JUMPDEST PUSH4 0x4E487B71 PUSH1 0xE0 SHL DUP5 MSTORE PUSH1 0x41 PUSH1 0x4 MSTORE PUSH1 0x24 DUP5 REVERT JUMPDEST ADD MLOAD SWAP1 POP CODESIZE DUP1 PUSH3 0xEE1 JUMP JUMPDEST SWAP3 POP PUSH1 0x3 DUP5 ADD DUP6 MSTORE PUSH1 0x20 DUP6 KECCAK256 SWAP1 DUP6 SWAP4 JUMPDEST PUSH1 0x1F NOT DUP5 AND DUP6 LT PUSH3 0x117F JUMPI PUSH1 0x1 SWAP5 POP DUP4 PUSH1 0x1F NOT DUP2 AND LT PUSH3 0x1165 JUMPI JUMPDEST POP POP POP DUP2 SHL ADD PUSH1 0x3 DUP3 ADD SSTORE PUSH3 0xEF9 JUMP JUMPDEST ADD MLOAD PUSH1 0x0 NOT PUSH1 0xF8 DUP5 PUSH1 0x3 SHL AND SHR NOT AND SWAP1 SSTORE CODESIZE DUP1 DUP1 PUSH3 0x1154 JUMP JUMPDEST DUP2 DUP2 ADD MLOAD DUP4 SSTORE PUSH1 0x20 SWAP5 DUP6 ADD SWAP5 PUSH1 0x1 SWAP1 SWAP4 ADD SWAP3 SWAP1 SWAP2 ADD SWAP1 PUSH3 0x1137 JUMP JUMPDEST SWAP1 SWAP2 POP PUSH1 0x3 DUP5 ADD DUP6 MSTORE PUSH1 0x20 DUP6 KECCAK256 PUSH1 0x1F DUP5 ADD PUSH1 0x5 SHR DUP2 ADD PUSH1 0x20 DUP6 LT PUSH3 0x11E8 JUMPI JUMPDEST SWAP1 DUP5 SWAP4 SWAP3 SWAP2 JUMPDEST PUSH1 0x1F DUP4 ADD PUSH1 0x5 SHR DUP3 ADD DUP2 LT PUSH3 0x11D9 JUMPI POP POP PUSH3 0xEC9 JUMP JUMPDEST DUP8 DUP2 SSTORE DUP6 SWAP5 POP PUSH1 0x1 ADD PUSH3 0x11C1 JUMP JUMPDEST POP DUP1 PUSH3 0x11BB JUMP JUMPDEST PUSH4 0x4E487B71 PUSH1 0xE0 SHL DUP3 MSTORE PUSH1 0x4 DUP3 SWAP1 MSTORE PUSH1 0x24 DUP3 REVERT JUMPDEST PUSH4 0x4E487B71 PUSH1 0xE0 SHL DUP3 MSTORE PUSH1 0x41 PUSH1 0x4 MSTORE PUSH1 0x24 DUP3 REVERT JUMPDEST PUSH1 0x40 MLOAD RETURNDATASIZE DUP8 DUP3 RETURNDATACOPY RETURNDATASIZE SWAP1 REVERT JUMPDEST PUSH4 0x4E487B71 PUSH1 0xE0 SHL DUP13 MSTORE PUSH1 0x41 PUSH1 0x4 MSTORE PUSH1 0x24 DUP13 REVERT JUMPDEST PUSH1 0x40 MLOAD PUSH4 0x7294708F PUSH1 0xE1 SHL DUP2 MSTORE PUSH1 0x4 SWAP1 REVERT JUMPDEST DUP6 DUP1 REVERT JUMPDEST DUP4 DUP1 REVERT JUMPDEST POP CALLVALUE PUSH3 0x306 JUMPI PUSH1 0x40 CALLDATASIZE PUSH1 0x3 NOT ADD SLT PUSH3 0x306 JUMPI PUSH3 0x1296 PUSH1 0x4 CALLDATALOAD PUSH3 0x1276 PUSH3 0x30CD JUMP JUMPDEST SWAP1 DUP1 DUP5 MSTORE DUP4 PUSH1 0x20 MSTORE PUSH3 0x1290 PUSH1 0x1 PUSH1 0x40 DUP7 KECCAK256 ADD SLOAD PUSH3 0x3970 JUMP JUMPDEST PUSH3 0x3A8D JUMP JUMPDEST DUP1 RETURN JUMPDEST POP CALLVALUE PUSH3 0x306 JUMPI DUP1 PUSH1 0x3 NOT CALLDATASIZE ADD SLT PUSH3 0x306 JUMPI PUSH3 0x12B6 PUSH3 0x3CDD JUMP JUMPDEST PUSH3 0x12C0 PUSH3 0x3D22 JUMP JUMPDEST CALLER DUP2 MSTORE PUSH1 0x20 PUSH1 0xD DUP2 MSTORE PUSH1 0x40 DUP3 KECCAK256 SWAP1 DUP3 DUP4 JUMPDEST DUP4 SLOAD DUP2 LT ISZERO PUSH3 0x1421 JUMPI PUSH3 0x12E7 DUP2 DUP6 PUSH3 0x31B4 JUMP JUMPDEST POP SWAP1 PUSH1 0x2 DUP3 ADD SWAP2 DUP3 SLOAD PUSH1 0x1 SWAP4 DUP5 DUP4 ADD SLOAD DUP1 DUP4 LT PUSH3 0x130B JUMPI JUMPDEST POP POP POP POP ADD PUSH3 0x12D1 JUMP JUMPDEST DUP3 PUSH3 0x131C PUSH1 0x3 DUP7 ADD SLOAD TIMESTAMP PUSH3 0x3D77 JUMP JUMPDEST SWAP2 PUSH1 0x4 DUP7 ADD SLOAD DUP1 DUP5 LT PUSH1 0x0 EQ PUSH3 0x13B3 JUMPI POP POP PUSH3 0x133C SWAP2 POP DUP11 PUSH3 0x3D77 JUMP JUMPDEST SWAP2 DUP3 ISZERO PUSH3 0x1300 JUMPI SWAP6 DUP3 SWAP4 SWAP7 SWAP2 PUSH3 0x135A DUP5 PUSH3 0x1362 SWAP6 SWAP5 PUSH3 0x3B2C JUMP JUMPDEST SWAP1 SSTORE PUSH3 0x3B2C JUMP JUMPDEST SWAP4 PUSH1 0x1 DUP1 PUSH1 0xA0 SHL SUB SWAP1 PUSH3 0x137B DUP4 CALLER DUP5 DUP5 SLOAD AND PUSH3 0x3DBA JUMP JUMPDEST SLOAD AND SWAP1 PUSH1 0x40 MLOAD SWAP1 DUP2 MSTORE PUSH32 0x3DEA86EE53588906162D63DE35783619D0DB9B5D981641AF560779A1E32940EC DUP7 CALLER SWAP3 LOG3 CODESIZE DUP1 DUP1 DUP1 PUSH3 0x1300 JUMP JUMPDEST PUSH1 0x5 DUP8 ADD SLOAD SWAP4 DUP5 DUP2 LT PUSH3 0x13CF JUMPI POP POP PUSH3 0x133C SWAP3 POP PUSH3 0x3D77 JUMP JUMPDEST PUSH3 0x13F5 SWAP4 POP SWAP2 PUSH3 0x13E7 DUP3 PUSH3 0x13EE SWAP4 SWAP5 PUSH3 0x3D77 JUMP JUMPDEST SWAP1 PUSH3 0x3B02 JUMP JUMPDEST SWAP3 PUSH3 0x3D77 JUMP JUMPDEST SWAP1 DUP2 ISZERO PUSH3 0x140B JUMPI PUSH3 0x133C SWAP2 DUP5 SWAP2 DIV PUSH3 0x3D77 JUMP JUMPDEST PUSH4 0x4E487B71 PUSH1 0xE0 SHL PUSH1 0x0 MSTORE PUSH1 0x12 PUSH1 0x4 MSTORE PUSH1 0x24 PUSH1 0x0 REVERT JUMPDEST DUP5 DUP3 ISZERO PUSH3 0x1431 JUMPI PUSH1 0x1 PUSH1 0x2 SSTORE DUP1 RETURN JUMPDEST PUSH1 0x40 MLOAD PUSH4 0x12D37EE5 PUSH1 0xE3 SHL DUP2 MSTORE PUSH1 0x4 SWAP1 REVERT JUMPDEST POP CALLVALUE PUSH3 0x306 JUMPI PUSH1 0x20 CALLDATASIZE PUSH1 0x3 NOT ADD SLT PUSH3 0x306 JUMPI PUSH1 0x20 SWAP1 PUSH1 0x40 SWAP1 PUSH1 0x1 PUSH1 0x1 PUSH1 0xA0 SHL SUB PUSH3 0x146F PUSH3 0x30B6 JUMP JUMPDEST AND DUP2 MSTORE PUSH1 0x5 DUP4 MSTORE KECCAK256 SLOAD PUSH1 0x40 MLOAD SWAP1 DUP2 MSTORE RETURN JUMPDEST POP CALLVALUE PUSH3 0x306 JUMPI PUSH1 0x40 CALLDATASIZE PUSH1 0x3 NOT ADD SLT PUSH3 0x306 JUMPI PUSH1 0x1 PUSH1 0x1 PUSH1 0xA0 SHL SUB SWAP1 PUSH3 0x14C2 SWAP1 DUP3 PUSH3 0x14AD PUSH3 0x30B6 JUMP JUMPDEST AND DUP2 MSTORE PUSH1 0xD PUSH1 0x20 MSTORE PUSH1 0x40 PUSH1 0x24 CALLDATALOAD SWAP2 KECCAK256 PUSH3 0x31B4 JUMP JUMPDEST POP DUP1 SLOAD PUSH1 0x1 DUP3 ADD SLOAD PUSH1 0x2 DUP4 ADD SLOAD PUSH1 0x3 DUP5 ADD SLOAD PUSH1 0x4 DUP6 ADD SLOAD PUSH1 0x5 SWAP1 SWAP6 ADD SLOAD PUSH1 0x40 DUP1 MLOAD SWAP8 SWAP1 SWAP6 AND PUSH1 0x1 PUSH1 0x1 PUSH1 0xA0 SHL SUB AND DUP8 MSTORE PUSH1 0x20 DUP8 ADD SWAP4 SWAP1 SWAP4 MSTORE SWAP3 DUP6 ADD MSTORE PUSH1 0x60 DUP5 ADD SWAP2 SWAP1 SWAP2 MSTORE PUSH1 0x80 DUP4 ADD SWAP2 SWAP1 SWAP2 MSTORE PUSH1 0xA0 DUP3 ADD MSTORE PUSH1 0xC0 SWAP1 RETURN JUMPDEST SUB SWAP1 RETURN JUMPDEST POP CALLVALUE PUSH3 0x306 JUMPI PUSH1 0x40 CALLDATASIZE PUSH1 0x3 NOT ADD SLT PUSH3 0x306 JUMPI PUSH3 0x153A PUSH3 0x30B6 JUMP JUMPDEST PUSH1 0x40 PUSH3 0x1546 PUSH3 0x30CD JUMP JUMPDEST SWAP3 PUSH1 0x1 DUP1 PUSH1 0xA0 SHL SUB DUP1 SWAP4 AND DUP2 MSTORE PUSH1 0x8 PUSH1 0x20 MSTORE KECCAK256 SWAP2 AND PUSH1 0x0 MSTORE PUSH1 0x20 MSTORE PUSH1 0x20 PUSH1 0xFF PUSH1 0x40 PUSH1 0x0 KECCAK256 SLOAD AND PUSH1 0x40 MLOAD SWAP1 ISZERO ISZERO DUP2 MSTORE RETURN JUMPDEST POP CALLVALUE PUSH3 0x306 JUMPI PUSH3 0x1588 CALLDATASIZE PUSH3 0x344C JUMP JUMPDEST SWAP2 PUSH3 0x1593 PUSH3 0x34C4 JUMP JUMPDEST DUP4 JUMPDEST DUP4 DUP2 LT PUSH3 0x15A1 JUMPI DUP5 DUP1 RETURN JUMPDEST PUSH1 0x1 SWAP1 DUP2 DUP1 PUSH1 0xA0 SHL SUB DUP1 DUP5 AND DUP8 MSTORE PUSH1 0x20 PUSH1 0x8 DUP2 MSTORE PUSH1 0x40 DUP9 KECCAK256 SWAP2 PUSH3 0x15CB PUSH3 0x5B7 DUP6 DUP11 DUP11 PUSH3 0x3FA9 JUMP JUMPDEST AND PUSH1 0x0 MSTORE MSTORE PUSH1 0x40 PUSH1 0x0 KECCAK256 PUSH1 0xFF NOT DUP2 SLOAD AND SWAP1 SSTORE ADD PUSH3 0x1595 JUMP JUMPDEST POP CALLVALUE PUSH3 0x306 JUMPI PUSH1 0x40 CALLDATASIZE PUSH1 0x3 NOT ADD SLT PUSH3 0x306 JUMPI PUSH3 0x1602 PUSH3 0x30B6 JUMP JUMPDEST PUSH1 0x40 PUSH3 0x160E PUSH3 0x30CD JUMP JUMPDEST SWAP3 PUSH1 0x1 DUP1 PUSH1 0xA0 SHL SUB DUP1 SWAP4 AND DUP2 MSTORE PUSH1 0x9 PUSH1 0x20 MSTORE KECCAK256 SWAP2 AND PUSH1 0x0 MSTORE PUSH1 0x20 MSTORE PUSH1 0x20 PUSH1 0x40 PUSH1 0x0 KECCAK256 SLOAD PUSH1 0x40 MLOAD SWAP1 DUP2 MSTORE RETURN JUMPDEST POP CALLVALUE PUSH3 0x306 JUMPI PUSH3 0x164B CALLDATASIZE PUSH3 0x30E4 JUMP JUMPDEST SWAP1 PUSH3 0x1656 PUSH3 0x34C4 JUMP JUMPDEST PUSH1 0x1 PUSH1 0x1 PUSH1 0xA0 SHL SUB AND DUP1 DUP4 MSTORE PUSH1 0xB PUSH1 0x20 MSTORE PUSH1 0x40 DUP4 KECCAK256 SLOAD SWAP1 SWAP2 SWAP1 DUP1 ISZERO PUSH3 0x16EC JUMPI PUSH1 0x0 NOT DUP2 ADD SWAP1 DUP2 GT PUSH3 0x16D8 JUMPI DUP2 PUSH3 0x16CC PUSH32 0xB6C0B1ECCBEA10B66E1977F66CE16560EA82D88B327F904435080E4DA040208B SWAP4 PUSH1 0x5 PUSH3 0x16B9 PUSH1 0x20 SWAP6 PUSH3 0x3162 JUMP JUMPDEST POP ADD SWAP1 PUSH1 0xFF DUP1 NOT DUP4 SLOAD AND SWAP2 ISZERO ISZERO AND OR SWAP1 SSTORE JUMP JUMPDEST PUSH1 0x40 MLOAD SWAP1 ISZERO ISZERO DUP2 MSTORE LOG2 DUP1 RETURN JUMPDEST PUSH4 0x4E487B71 PUSH1 0xE0 SHL DUP5 MSTORE PUSH1 0x11 PUSH1 0x4 MSTORE PUSH1 0x24 DUP5 REVERT JUMPDEST PUSH1 0x40 MLOAD PUSH4 0x8DDA39DF PUSH1 0xE0 SHL DUP2 MSTORE PUSH1 0x4 SWAP1 REVERT JUMPDEST POP CALLVALUE PUSH3 0x306 JUMPI PUSH1 0x20 CALLDATASIZE PUSH1 0x3 NOT ADD SLT PUSH3 0x306 JUMPI PUSH1 0x20 SWAP1 PUSH1 0x40 SWAP1 PUSH1 0x1 PUSH1 0x1 PUSH1 0xA0 SHL SUB PUSH3 0x172A PUSH3 0x30B6 JUMP JUMPDEST AND DUP2 MSTORE PUSH1 0xD DUP4 MSTORE KECCAK256 SLOAD PUSH1 0x40 MLOAD SWAP1 DUP2 MSTORE RETURN JUMPDEST POP CALLVALUE PUSH3 0x306 JUMPI DUP1 PUSH1 0x3 NOT CALLDATASIZE ADD SLT PUSH3 0x306 JUMPI PUSH1 0x20 SWAP1 PUSH1 0x40 MLOAD SWAP1 DUP2 MSTORE RETURN JUMPDEST POP CALLVALUE PUSH3 0x306 JUMPI PUSH1 0x20 CALLDATASIZE PUSH1 0x3 NOT ADD SLT PUSH3 0x306 JUMPI PUSH3 0x1777 PUSH3 0x30B6 JUMP JUMPDEST PUSH3 0x1781 PUSH3 0x34C4 JUMP JUMPDEST PUSH3 0x178B PUSH3 0x3CDD JUMP JUMPDEST PUSH1 0xE SLOAD PUSH1 0x40 MLOAD PUSH4 0x98E122FD PUSH1 0xE0 SHL DUP2 MSTORE PUSH1 0x1 PUSH1 0x1 PUSH1 0xA0 SHL SUB SWAP3 DUP4 AND PUSH1 0x4 DUP3 ADD MSTORE SWAP1 PUSH1 0x20 SWAP1 DUP3 SWAP1 PUSH1 0x24 SWAP1 DUP3 SWAP1 DUP8 SWAP1 DUP8 AND GAS CALL DUP1 ISZERO PUSH3 0x1809 JUMPI PUSH3 0x17CC JUMPI DUP3 DUP1 RETURN JUMPDEST PUSH1 0x20 DUP2 RETURNDATASIZE DUP3 GT PUSH3 0x1800 JUMPI JUMPDEST DUP2 PUSH3 0x17E7 PUSH1 0x20 SWAP4 DUP4 PUSH3 0x3270 JUMP JUMPDEST DUP2 ADD SUB SLT PUSH3 0x64F JUMPI MLOAD SWAP1 DUP2 AND SUB PUSH3 0x306 JUMPI CODESIZE DUP1 DUP3 DUP1 RETURN JUMPDEST RETURNDATASIZE SWAP2 POP PUSH3 0x17D8 JUMP JUMPDEST PUSH1 0x40 MLOAD RETURNDATASIZE DUP6 DUP3 RETURNDATACOPY RETURNDATASIZE SWAP1 REVERT JUMPDEST POP CALLVALUE PUSH3 0x306 JUMPI DUP1 PUSH1 0x3 NOT CALLDATASIZE ADD SLT PUSH3 0x306 JUMPI PUSH1 0xA SLOAD PUSH3 0x1835 DUP2 PUSH3 0x3FFC JUMP JUMPDEST SWAP1 PUSH3 0x1841 DUP2 PUSH3 0x3FFC JUMP JUMPDEST PUSH3 0x184C DUP3 PUSH3 0x3FFC JUMP JUMPDEST SWAP4 PUSH3 0x1858 DUP4 PUSH3 0x4034 JUMP JUMPDEST SWAP5 PUSH3 0x1864 DUP5 PUSH3 0x4034 JUMP JUMPDEST SWAP1 PUSH3 0x1870 DUP6 PUSH3 0x3FCF JUMP JUMPDEST SWAP2 PUSH3 0x1880 PUSH1 0x40 MLOAD SWAP4 DUP5 PUSH3 0x3270 JUMP JUMPDEST DUP6 DUP4 MSTORE PUSH3 0x188E DUP7 PUSH3 0x3FCF JUMP JUMPDEST SWAP8 PUSH1 0x20 SWAP3 DUP4 DUP6 ADD SWAP10 PUSH1 0x1F NOT ADD CALLDATASIZE DUP12 CALLDATACOPY PUSH3 0x18A8 DUP9 PUSH3 0x3FFC JUMP JUMPDEST SWAP7 PUSH3 0x18B4 DUP10 PUSH3 0x3FFC JUMP JUMPDEST SWAP9 DUP11 DUP9 JUMPDEST DUP3 DUP2 LT PUSH3 0x1985 JUMPI POP POP POP SWAP1 DUP5 SWAP4 SWAP3 SWAP2 PUSH1 0x40 MLOAD SWAP11 PUSH2 0x100 DUP1 DUP14 MSTORE DUP13 ADD PUSH3 0x18DF SWAP2 PUSH3 0x3344 JUMP JUMPDEST DUP12 DUP2 SUB DUP7 DUP14 ADD MSTORE PUSH3 0x18F1 SWAP2 PUSH3 0x3344 JUMP JUMPDEST DUP11 DUP2 SUB PUSH1 0x40 DUP13 ADD MSTORE PUSH3 0x1904 SWAP2 PUSH3 0x3383 JUMP JUMPDEST DUP10 DUP2 SUB PUSH1 0x60 DUP12 ADD MSTORE PUSH3 0x1917 SWAP2 PUSH3 0x33B9 JUMP JUMPDEST DUP9 DUP2 SUB PUSH1 0x80 DUP11 ADD MSTORE PUSH3 0x192A SWAP2 PUSH3 0x33B9 JUMP JUMPDEST SWAP3 DUP8 DUP5 SUB PUSH1 0xA0 DUP10 ADD MSTORE MLOAD SWAP3 DUP4 DUP2 MSTORE ADD SWAP7 SWAP3 JUMPDEST DUP3 DUP2 LT PUSH3 0x196E JUMPI DUP7 DUP1 PUSH3 0x1518 DUP9 PUSH3 0x195F DUP13 DUP11 DUP6 DUP3 SUB PUSH1 0xC0 DUP8 ADD MSTORE PUSH3 0x3383 JUMP JUMPDEST SWAP1 DUP4 DUP3 SUB PUSH1 0xE0 DUP6 ADD MSTORE PUSH3 0x3383 JUMP JUMPDEST DUP4 MLOAD ISZERO ISZERO DUP9 MSTORE SWAP7 DUP2 ADD SWAP7 SWAP3 DUP2 ADD SWAP3 PUSH1 0x1 ADD PUSH3 0x193C JUMP JUMPDEST DUP1 PUSH1 0xFF PUSH1 0x5 PUSH3 0x1999 DUP4 SWAP14 SWAP12 SWAP13 SWAP14 PUSH3 0x3162 JUMP JUMPDEST POP DUP1 SLOAD PUSH1 0x1 PUSH1 0x1 PUSH1 0xA0 SHL SUB SWAP7 SWAP1 DUP8 AND SWAP5 DUP6 SWAP2 PUSH3 0x19B7 SWAP2 SWAP1 PUSH3 0x3FE7 JUMP JUMPDEST MSTORE PUSH1 0x1 SWAP6 DUP7 DUP3 ADD SLOAD AND PUSH3 0x19CC DUP7 DUP11 PUSH3 0x3FE7 JUMP JUMPDEST MSTORE PUSH1 0x2 DUP2 ADD SLOAD PUSH3 0x19DE DUP7 DUP12 PUSH3 0x3FE7 JUMP JUMPDEST MSTORE PUSH3 0x19ED PUSH1 0x3 DUP3 ADD PUSH3 0x3292 JUMP JUMPDEST PUSH3 0x19F9 DUP7 DUP13 PUSH3 0x3FE7 JUMP JUMPDEST MSTORE PUSH3 0x1A06 DUP6 DUP12 PUSH3 0x3FE7 JUMP JUMPDEST POP PUSH3 0x1A15 PUSH1 0x4 DUP3 ADD PUSH3 0x3292 JUMP JUMPDEST PUSH3 0x1A21 DUP7 DUP14 PUSH3 0x3FE7 JUMP JUMPDEST MSTORE PUSH3 0x1A2E DUP6 DUP13 PUSH3 0x3FE7 JUMP JUMPDEST POP ADD SLOAD AND PUSH3 0x1A3E DUP4 DUP14 PUSH3 0x3FE7 JUMP JUMPDEST SWAP1 ISZERO ISZERO SWAP1 MSTORE PUSH1 0x40 MLOAD PUSH4 0x18160DDD PUSH1 0xE0 SHL DUP2 MSTORE DUP11 DUP2 PUSH1 0x4 DUP2 DUP6 GAS STATICCALL SWAP1 DUP2 ISZERO PUSH3 0x1B42 JUMPI SWAP2 DUP12 SWAP2 DUP15 DUP6 SWAP5 DUP14 SWAP3 PUSH3 0x1B06 JUMPI JUMPDEST POP PUSH1 0x24 SWAP5 PUSH3 0x1A7D SWAP2 PUSH3 0x3FE7 JUMP JUMPDEST MSTORE PUSH1 0x40 MLOAD PUSH4 0x70A08231 PUSH1 0xE0 SHL DUP2 MSTORE ADDRESS PUSH1 0x4 DUP3 ADD MSTORE SWAP3 DUP4 SWAP2 DUP3 SWAP1 GAS STATICCALL DUP1 ISZERO PUSH3 0x1AFB JUMPI DUP3 DUP15 DUP12 SWAP3 PUSH3 0x1AC4 JUMPI JUMPDEST PUSH3 0x1AB6 SWAP3 SWAP4 POP PUSH3 0x3FE7 JUMP JUMPDEST MSTORE ADD DUP12 SWAP1 SWAP9 SWAP8 SWAP7 SWAP9 PUSH3 0x18B8 JUMP JUMPDEST POP POP POP DUP10 DUP2 DUP2 RETURNDATASIZE DUP4 GT PUSH3 0x1AF3 JUMPI JUMPDEST PUSH3 0x1ADF DUP2 DUP4 PUSH3 0x3270 JUMP JUMPDEST DUP2 ADD SUB SLT PUSH3 0x1D JUMPI MLOAD DUP13 SWAP1 DUP3 DUP3 PUSH3 0x1AA9 JUMP JUMPDEST POP RETURNDATASIZE PUSH3 0x1AD3 JUMP JUMPDEST PUSH1 0x40 MLOAD RETURNDATASIZE DUP12 DUP3 RETURNDATACOPY RETURNDATASIZE SWAP1 REVERT JUMPDEST SWAP4 SWAP3 SWAP5 POP POP POP DUP2 DUP2 RETURNDATASIZE DUP4 GT PUSH3 0x1B3A JUMPI JUMPDEST PUSH3 0x1B23 DUP2 DUP4 PUSH3 0x3270 JUMP JUMPDEST DUP2 ADD SUB SLT PUSH3 0x1D JUMPI MLOAD DUP3 SWAP2 DUP12 SWAP2 DUP15 PUSH1 0x24 PUSH3 0x1A6E JUMP JUMPDEST POP RETURNDATASIZE PUSH3 0x1B17 JUMP JUMPDEST PUSH1 0x40 MLOAD RETURNDATASIZE DUP13 DUP3 RETURNDATACOPY RETURNDATASIZE SWAP1 REVERT JUMPDEST POP CALLVALUE PUSH3 0x306 JUMPI PUSH1 0x40 CALLDATASIZE PUSH1 0x3 NOT ADD SLT PUSH3 0x306 JUMPI PUSH3 0x1B6B PUSH3 0x30B6 JUMP JUMPDEST DUP2 PUSH3 0x1B76 PUSH3 0x30CD JUMP JUMPDEST PUSH3 0x1B80 PUSH3 0x34C4 JUMP JUMPDEST PUSH3 0x1B8A PUSH3 0x3D22 JUMP JUMPDEST PUSH1 0xE SLOAD PUSH1 0x1 PUSH1 0x1 PUSH1 0xA0 SHL SUB AND DUP1 EXTCODESIZE ISZERO PUSH3 0x64F JUMPI PUSH1 0x40 MLOAD PUSH4 0x54FDC16B PUSH1 0xE1 SHL DUP2 MSTORE PUSH1 0x1 PUSH1 0x1 PUSH1 0xA0 SHL SUB SWAP5 DUP6 AND PUSH1 0x4 DUP3 ADD MSTORE SWAP2 SWAP1 SWAP4 AND PUSH1 0x24 DUP3 ADD MSTORE SWAP2 DUP3 SWAP1 PUSH1 0x44 SWAP1 DUP3 SWAP1 DUP5 SWAP1 GAS CALL DUP1 ISZERO PUSH3 0x7D7 JUMPI PUSH3 0x1BE6 JUMPI JUMPDEST POP PUSH1 0x1 PUSH1 0x2 SSTORE DUP1 RETURN JUMPDEST PUSH3 0x1BF1 SWAP1 PUSH3 0x3240 JUMP JUMPDEST CODESIZE PUSH3 0x1BDD JUMP JUMPDEST POP CALLVALUE PUSH3 0x306 JUMPI PUSH1 0x40 CALLDATASIZE PUSH1 0x3 NOT ADD SLT PUSH3 0x306 JUMPI PUSH1 0xFF PUSH1 0x40 PUSH1 0x20 SWAP3 PUSH3 0x1C1D PUSH3 0x30CD JUMP JUMPDEST PUSH1 0x4 CALLDATALOAD DUP3 MSTORE DUP2 DUP6 MSTORE DUP3 DUP3 KECCAK256 PUSH1 0x1 PUSH1 0x1 PUSH1 0xA0 SHL SUB SWAP1 SWAP2 AND DUP3 MSTORE DUP5 MSTORE KECCAK256 SLOAD PUSH1 0x40 MLOAD SWAP2 AND ISZERO ISZERO DUP2 MSTORE RETURN JUMPDEST POP CALLVALUE PUSH3 0x306 JUMPI PUSH1 0x40 CALLDATASIZE PUSH1 0x3 NOT ADD SLT PUSH3 0x306 JUMPI PUSH3 0x1C62 PUSH3 0x30B6 JUMP JUMPDEST PUSH32 0xE82BE315BA1A0D0362D09D5CF59781F214B53A74EB978C35B76AD687099C670C PUSH1 0x20 PUSH1 0x24 CALLDATALOAD SWAP3 PUSH3 0x1C93 PUSH3 0x36E1 JUMP JUMPDEST PUSH3 0x1C9D PUSH3 0x3CDD JUMP JUMPDEST PUSH1 0x1 PUSH1 0x1 PUSH1 0xA0 SHL SUB AND SWAP3 PUSH3 0x1CB4 DUP2 CALLER DUP7 PUSH3 0x3DBA JUMP JUMPDEST PUSH1 0x40 MLOAD SWAP1 DUP2 MSTORE LOG2 DUP1 RETURN JUMPDEST POP CALLVALUE PUSH3 0x306 JUMPI PUSH1 0x20 CALLDATASIZE PUSH1 0x3 NOT ADD SLT PUSH3 0x306 JUMPI PUSH3 0x1CDC PUSH3 0x30B6 JUMP JUMPDEST PUSH3 0x1CE6 PUSH3 0x34C4 JUMP JUMPDEST PUSH1 0x1 PUSH1 0x1 PUSH1 0xA0 SHL SUB AND DUP1 DUP3 MSTORE PUSH1 0xB PUSH1 0x20 MSTORE PUSH1 0x40 DUP3 KECCAK256 SLOAD DUP1 ISZERO PUSH3 0x16EC JUMPI PUSH1 0x0 NOT DUP2 ADD SWAP1 DUP2 GT PUSH3 0x1D4E JUMPI PUSH3 0x1D1D PUSH1 0x5 SWAP2 PUSH3 0x3162 JUMP JUMPDEST POP ADD DUP1 SLOAD PUSH1 0xFF NOT AND SWAP1 SSTORE PUSH32 0x3BF74796FB125AB3C0F1C7C4419D72AF7311E2D12F7D55B6FE62F4DFDCC8F033 DUP3 DUP1 LOG2 DUP1 RETURN JUMPDEST PUSH4 0x4E487B71 PUSH1 0xE0 SHL DUP4 MSTORE PUSH1 0x11 PUSH1 0x4 MSTORE PUSH1 0x24 DUP4 REVERT JUMPDEST POP CALLVALUE PUSH3 0x306 JUMPI PUSH1 0x20 CALLDATASIZE PUSH1 0x3 NOT ADD SLT PUSH3 0x306 JUMPI PUSH1 0x20 SWAP1 PUSH1 0xFF SWAP1 PUSH1 0x40 SWAP1 PUSH1 0x1 PUSH1 0x1 PUSH1 0xA0 SHL SUB PUSH3 0x1D91 PUSH3 0x30B6 JUMP JUMPDEST AND DUP2 MSTORE PUSH1 0xC DUP5 MSTORE KECCAK256 SLOAD AND PUSH1 0x40 MLOAD SWAP1 ISZERO ISZERO DUP2 MSTORE RETURN JUMPDEST POP CALLVALUE PUSH3 0x306 JUMPI PUSH1 0x40 CALLDATASIZE PUSH1 0x3 NOT ADD SLT PUSH3 0x306 JUMPI DUP1 PUSH1 0x40 PUSH3 0x1E18 PUSH3 0x1DCA PUSH3 0x30B6 JUMP JUMPDEST PUSH3 0x1DD4 PUSH3 0x34C4 JUMP JUMPDEST PUSH3 0x1DDE PUSH3 0x3CDD JUMP JUMPDEST PUSH1 0xE SLOAD DUP4 MLOAD PUSH4 0x5100E67B PUSH1 0xE1 SHL DUP2 MSTORE PUSH1 0x1 PUSH1 0x1 PUSH1 0xA0 SHL SUB SWAP3 DUP4 AND PUSH1 0x4 DUP3 ADD MSTORE PUSH1 0x24 DUP1 CALLDATALOAD SWAP1 DUP3 ADD MSTORE SWAP5 DUP6 SWAP4 SWAP2 SWAP1 SWAP3 AND SWAP2 DUP4 SWAP2 DUP3 SWAP1 PUSH1 0x44 DUP3 ADD SWAP1 JUMP JUMPDEST SUB SWAP3 GAS CALL DUP1 ISZERO PUSH3 0x7D7 JUMPI PUSH3 0x1E2C JUMPI POP DUP1 RETURN JUMPDEST PUSH1 0x40 SWAP1 DUP2 RETURNDATASIZE DUP4 GT PUSH3 0x1E51 JUMPI JUMPDEST PUSH3 0x1E45 DUP2 DUP4 PUSH3 0x3270 JUMP JUMPDEST DUP2 ADD SUB SLT PUSH3 0x306 JUMPI DUP1 RETURN JUMPDEST POP RETURNDATASIZE PUSH3 0x1E39 JUMP JUMPDEST POP CALLVALUE PUSH3 0x306 JUMPI DUP1 PUSH1 0x3 NOT CALLDATASIZE ADD SLT PUSH3 0x306 JUMPI PUSH3 0x1E76 PUSH3 0x3818 JUMP JUMPDEST PUSH3 0x1E80 PUSH3 0x3CDD JUMP JUMPDEST PUSH1 0x1 PUSH1 0xFF NOT DUP2 SLOAD AND OR PUSH1 0x1 SSTORE PUSH32 0x62E78CEA01BEE320CD4E420270B5EA74000D11B0C9F74754EBDBFC544B05A258 PUSH1 0x20 PUSH1 0x40 MLOAD CALLER DUP2 MSTORE LOG1 DUP1 RETURN JUMPDEST POP CALLVALUE PUSH3 0x306 JUMPI DUP1 PUSH1 0x3 NOT CALLDATASIZE ADD SLT PUSH3 0x306 JUMPI PUSH3 0x1ED6 PUSH3 0x36E1 JUMP JUMPDEST PUSH3 0x1EE0 PUSH3 0x3D22 JUMP JUMPDEST SELFBALANCE DUP1 ISZERO PUSH3 0x1F37 JUMPI DUP2 DUP1 DUP1 DUP1 DUP5 CALLER DUP3 CALL ISZERO PUSH3 0x1F2A JUMPI PUSH1 0x40 MLOAD SWAP1 DUP2 MSTORE PUSH32 0xB3579861130E4DA8BB7B87C54D2D139937F23BCD6E4EBED9E75D0F78AB1CC118 PUSH1 0x20 CALLER SWAP3 LOG2 PUSH1 0x1 PUSH1 0x2 SSTORE DUP1 RETURN JUMPDEST POP PUSH1 0x40 MLOAD SWAP1 RETURNDATASIZE SWAP1 DUP3 RETURNDATACOPY RETURNDATASIZE SWAP1 REVERT JUMPDEST PUSH1 0x40 MLOAD PUSH4 0xB66458D7 PUSH1 0xE0 SHL DUP2 MSTORE PUSH1 0x4 SWAP1 REVERT JUMPDEST POP CALLVALUE PUSH3 0x306 JUMPI PUSH1 0x20 SWAP1 DUP2 PUSH1 0x3 NOT CALLDATASIZE ADD SLT PUSH3 0x306 JUMPI PUSH3 0x1F69 PUSH3 0x30B6 JUMP JUMPDEST PUSH1 0xA SLOAD PUSH3 0x1F77 DUP2 PUSH3 0x3FFC JUMP JUMPDEST SWAP3 PUSH3 0x1F83 DUP3 PUSH3 0x3FFC JUMP JUMPDEST SWAP3 PUSH1 0x1 PUSH1 0x1 PUSH1 0xA0 SHL SUB SWAP1 DUP2 AND SWAP1 DUP3 JUMPDEST DUP5 DUP2 LT PUSH3 0x1FC8 JUMPI PUSH3 0x1FBA DUP8 PUSH3 0x1518 DUP11 DUP10 PUSH1 0x40 MLOAD SWAP5 DUP6 SWAP5 PUSH1 0x40 DUP7 MSTORE PUSH1 0x40 DUP7 ADD SWAP1 PUSH3 0x3344 JUMP JUMPDEST SWAP2 DUP5 DUP4 SUB SWAP1 DUP6 ADD MSTORE PUSH3 0x3383 JUMP JUMPDEST DUP1 DUP9 DUP4 PUSH3 0x1FD8 PUSH1 0x24 SWAP5 PUSH3 0x3162 JUMP JUMPDEST POP SLOAD AND DUP1 PUSH3 0x1FE8 DUP5 DUP13 PUSH3 0x3FE7 JUMP JUMPDEST MSTORE PUSH1 0x40 MLOAD SWAP4 DUP5 DUP1 SWAP3 PUSH4 0x70A08231 PUSH1 0xE0 SHL DUP3 MSTORE DUP9 PUSH1 0x4 DUP4 ADD MSTORE GAS STATICCALL DUP1 ISZERO PUSH3 0x1218 JUMPI DUP6 SWAP1 PUSH3 0x2029 JUMPI JUMPDEST PUSH1 0x1 SWAP3 POP PUSH3 0x2021 DUP3 DUP10 PUSH3 0x3FE7 JUMP JUMPDEST MSTORE ADD PUSH3 0x1F92 JUMP JUMPDEST POP SWAP1 DUP9 DUP2 DUP2 RETURNDATASIZE DUP4 GT PUSH3 0x205B JUMPI JUMPDEST PUSH3 0x2043 DUP2 DUP4 PUSH3 0x3270 JUMP JUMPDEST DUP2 ADD SUB SLT PUSH3 0x2057 JUMPI SWAP1 PUSH1 0x1 SWAP2 MLOAD PUSH3 0x2011 JUMP JUMPDEST DUP5 DUP1 REVERT JUMPDEST POP RETURNDATASIZE PUSH3 0x2037 JUMP JUMPDEST POP CALLVALUE PUSH3 0x306 JUMPI DUP1 PUSH1 0x3 NOT CALLDATASIZE ADD SLT PUSH3 0x306 JUMPI PUSH1 0x20 PUSH1 0xA SLOAD PUSH1 0x40 MLOAD SWAP1 DUP2 MSTORE RETURN JUMPDEST POP CALLVALUE PUSH3 0x306 JUMPI PUSH1 0x20 CALLDATASIZE PUSH1 0x3 NOT ADD SLT PUSH3 0x306 JUMPI PUSH1 0x20 SWAP1 PUSH1 0xFF SWAP1 PUSH1 0x40 SWAP1 PUSH1 0x1 PUSH1 0x1 PUSH1 0xA0 SHL SUB PUSH3 0x20B2 PUSH3 0x30B6 JUMP JUMPDEST AND DUP2 MSTORE PUSH1 0x7 DUP5 MSTORE KECCAK256 SLOAD AND PUSH1 0x40 MLOAD SWAP1 ISZERO ISZERO DUP2 MSTORE RETURN JUMPDEST POP PUSH1 0x60 CALLDATASIZE PUSH1 0x3 NOT ADD SLT PUSH3 0x306 JUMPI PUSH3 0x20DE PUSH3 0x30B6 JUMP JUMPDEST PUSH1 0x24 CALLDATALOAD SWAP1 PUSH1 0x44 CALLDATALOAD SWAP1 PUSH1 0x1 PUSH1 0x1 PUSH1 0xA0 SHL SUB SWAP1 DUP2 DUP4 AND SWAP1 DUP2 DUP5 SUB PUSH3 0x1249 JUMPI PUSH3 0x2105 PUSH3 0x3CDD JUMP JUMPDEST PUSH3 0x210F PUSH3 0x3D22 JUMP JUMPDEST DUP5 ISZERO PUSH3 0xC30 JUMPI DUP3 AND SWAP4 DUP5 DUP7 MSTORE PUSH1 0x20 SWAP5 PUSH1 0xC DUP7 MSTORE PUSH1 0xFF PUSH1 0x40 DUP9 KECCAK256 SLOAD AND PUSH3 0x230F JUMPI DUP1 DUP8 MSTORE PUSH1 0xB DUP7 MSTORE PUSH1 0x40 DUP8 KECCAK256 SLOAD DUP1 ISZERO DUP1 ISZERO PUSH3 0x22D3 JUMPI JUMPDEST PUSH3 0xBCD JUMPI DUP2 DUP9 MSTORE PUSH1 0x7 DUP8 MSTORE PUSH1 0xFF PUSH1 0x40 DUP10 KECCAK256 SLOAD AND DUP1 PUSH3 0x22B6 JUMPI JUMPDEST PUSH3 0xB9C JUMPI PUSH1 0x0 NOT DUP2 ADD SWAP1 DUP2 GT PUSH3 0x22A2 JUMPI PUSH3 0x217E SWAP1 PUSH3 0x3162 JUMP JUMPDEST POP PUSH8 0xDE0B6B3A7640000 PUSH3 0x2198 DUP5 PUSH1 0x2 DUP5 ADD SLOAD PUSH3 0x3B02 JUMP JUMPDEST DIV SWAP7 DUP8 CALLVALUE SUB PUSH3 0xB78 JUMPI DUP9 SWAP8 PUSH1 0x3 SLOAD SWAP2 PUSH2 0x2710 PUSH2 0xFFFF SWAP4 DUP2 PUSH3 0x21BE DUP7 DUP4 AND DUP7 PUSH3 0x3B02 JUMP JUMPDEST DIV SWAP5 DUP10 PUSH3 0x228A JUMPI POP POP POP DUP10 SWAP8 JUMPDEST PUSH1 0x1 PUSH3 0x21DF DUP11 PUSH3 0xA9C DUP8 DUP8 PUSH3 0x3D77 JUMP JUMPDEST SWAP6 PUSH3 0x21EE DUP7 PUSH1 0x4 SLOAD PUSH3 0x3B2C JUMP JUMPDEST PUSH1 0x4 SSTORE ADD SLOAD AND DUP11 MSTORE PUSH1 0x5 DUP2 MSTORE PUSH1 0x40 DUP11 KECCAK256 PUSH3 0x220B DUP6 DUP3 SLOAD PUSH3 0x3B2C JUMP JUMPDEST SWAP1 SSTORE PUSH3 0x221A DUP7 CALLER DUP8 PUSH3 0x3DBA JUMP JUMPDEST PUSH1 0x40 MLOAD SWAP6 DUP7 MSTORE DUP6 ADD MSTORE PUSH1 0x40 DUP5 ADD MSTORE DUP5 PUSH1 0x60 DUP5 ADD MSTORE PUSH1 0x80 DUP4 ADD MSTORE PUSH32 0xA4D1D47447AD64A0C581F05071DF4CE987BA94440D913925DC004A21F28F4226 PUSH1 0xA0 CALLER SWAP4 LOG4 DUP1 PUSH3 0x2268 JUMPI DUP3 PUSH1 0x1 PUSH1 0x2 SSTORE DUP1 RETURN JUMPDEST DUP3 DUP1 SWAP3 SWAP2 DUP2 SWAP3 GAS CALL PUSH3 0x227A PUSH3 0x3D85 JUMP JUMPDEST POP ISZERO PUSH3 0xB4E JUMPI DUP1 CODESIZE DUP1 PUSH3 0xB23 JUMP JUMPDEST PUSH3 0x229A SWAP2 PUSH1 0x10 SHR AND DUP5 PUSH3 0x3B02 JUMP JUMPDEST DIV SWAP8 PUSH3 0x21CC JUMP JUMPDEST PUSH4 0x4E487B71 PUSH1 0xE0 SHL DUP9 MSTORE PUSH1 0x11 PUSH1 0x4 MSTORE PUSH1 0x24 DUP9 REVERT JUMPDEST POP PUSH1 0x8 DUP8 MSTORE PUSH1 0x40 DUP9 KECCAK256 CALLER DUP10 MSTORE DUP8 MSTORE PUSH1 0xFF PUSH1 0x40 DUP10 KECCAK256 SLOAD AND ISZERO PUSH3 0x2161 JUMP JUMPDEST POP PUSH1 0x0 NOT DUP2 ADD DUP2 DUP2 GT PUSH3 0x22FB JUMPI PUSH1 0x5 PUSH3 0x22F0 PUSH1 0xFF SWAP3 PUSH3 0x3162 JUMP JUMPDEST POP ADD SLOAD AND ISZERO PUSH3 0x2146 JUMP JUMPDEST PUSH4 0x4E487B71 PUSH1 0xE0 SHL DUP10 MSTORE PUSH1 0x11 PUSH1 0x4 MSTORE PUSH1 0x24 DUP10 REVERT JUMPDEST PUSH1 0x24 SWAP1 PUSH1 0x40 MLOAD SWAP1 PUSH4 0x54047531 PUSH1 0xE1 SHL DUP3 MSTORE PUSH1 0x4 DUP3 ADD MSTORE REVERT JUMPDEST POP CALLVALUE PUSH3 0x306 JUMPI PUSH1 0x20 CALLDATASIZE PUSH1 0x3 NOT ADD SLT PUSH3 0x306 JUMPI PUSH3 0x2345 PUSH3 0x30B6 JUMP JUMPDEST PUSH3 0x234F PUSH3 0x34C4 JUMP JUMPDEST PUSH1 0x1 PUSH1 0x1 PUSH1 0xA0 SHL SUB AND DUP1 DUP3 MSTORE PUSH1 0xC PUSH1 0x20 MSTORE PUSH1 0x40 DUP3 KECCAK256 DUP1 SLOAD PUSH1 0xFF NOT AND PUSH1 0x1 OR SWAP1 SSTORE PUSH32 0xF017C0DE579727A3CD3EE18077EE8B4C43BF21892985952D1D5A0D52F983502D DUP3 DUP1 LOG2 DUP1 RETURN JUMPDEST POP CALLVALUE PUSH3 0x306 JUMPI PUSH1 0x20 CALLDATASIZE PUSH1 0x3 NOT ADD SLT PUSH3 0x306 JUMPI PUSH1 0x4 CALLDATALOAD PUSH1 0xA SLOAD DUP2 LT ISZERO PUSH3 0x4FE JUMPI PUSH3 0x23C3 SWAP1 PUSH3 0x3162 JUMP JUMPDEST POP PUSH1 0x1 DUP1 PUSH1 0xA0 SHL SUB DUP1 DUP3 SLOAD AND SWAP1 PUSH1 0x1 DUP4 ADD SLOAD AND SWAP2 PUSH3 0x243D PUSH1 0x2 DUP3 ADD SLOAD SWAP2 PUSH3 0x242E PUSH3 0x23F3 PUSH1 0x3 DUP4 ADD PUSH3 0x3292 JUMP JUMPDEST PUSH1 0xFF PUSH1 0x5 PUSH3 0x2405 PUSH1 0x4 DUP7 ADD PUSH3 0x3292 JUMP JUMPDEST SWAP5 ADD SLOAD AND SWAP5 PUSH1 0x40 MLOAD SWAP8 DUP9 SWAP8 DUP9 MSTORE PUSH1 0x20 DUP9 ADD MSTORE PUSH1 0x40 DUP8 ADD MSTORE PUSH1 0xC0 PUSH1 0x60 DUP8 ADD MSTORE PUSH1 0xC0 DUP7 ADD SWAP1 PUSH3 0x313B JUMP JUMPDEST SWAP1 DUP5 DUP3 SUB PUSH1 0x80 DUP7 ADD MSTORE PUSH3 0x313B JUMP JUMPDEST SWAP1 ISZERO ISZERO PUSH1 0xA0 DUP4 ADD MSTORE SUB SWAP1 RETURN JUMPDEST POP CALLVALUE PUSH3 0x306 JUMPI DUP1 PUSH1 0x3 NOT CALLDATASIZE ADD SLT PUSH3 0x306 JUMPI PUSH1 0x20 PUSH1 0xFF PUSH1 0x1 SLOAD AND PUSH1 0x40 MLOAD SWAP1 ISZERO ISZERO DUP2 MSTORE RETURN JUMPDEST POP CALLVALUE PUSH3 0x306 JUMPI PUSH1 0x40 CALLDATASIZE PUSH1 0x3 NOT ADD SLT PUSH3 0x306 JUMPI PUSH1 0x4 CALLDATALOAD SWAP1 PUSH3 0x24AC DUP3 PUSH3 0x2499 PUSH1 0x24 CALLDATALOAD DUP3 PUSH3 0x3B2C JUMP JUMPDEST PUSH1 0xA SLOAD DUP1 DUP3 GT PUSH3 0x2687 JUMPI JUMPDEST POP PUSH3 0x3D77 JUMP JUMPDEST SWAP2 PUSH3 0x24B8 DUP4 PUSH3 0x3FCF JUMP JUMPDEST SWAP3 PUSH3 0x24C8 PUSH1 0x40 MLOAD SWAP5 DUP6 PUSH3 0x3270 JUMP JUMPDEST DUP1 DUP5 MSTORE PUSH3 0x24D9 PUSH1 0x1F NOT SWAP2 PUSH3 0x3FCF JUMP JUMPDEST ADD DUP3 JUMPDEST DUP2 DUP2 LT PUSH3 0x2649 JUMPI POP POP DUP2 JUMPDEST DUP4 MLOAD DUP2 LT ISZERO PUSH3 0x2592 JUMPI PUSH3 0x2508 PUSH3 0x2502 DUP3 DUP5 PUSH3 0x3B2C JUMP JUMPDEST PUSH3 0x3162 JUMP JUMPDEST POP SWAP1 PUSH1 0x40 MLOAD PUSH3 0x2518 DUP2 PUSH3 0x320E JUMP JUMPDEST PUSH1 0xFF PUSH1 0x5 PUSH1 0x1 DUP1 PUSH1 0xA0 SHL SUB SWAP5 DUP6 DUP2 SLOAD AND DUP5 MSTORE PUSH1 0x1 SWAP6 DUP7 DUP3 ADD SLOAD AND PUSH1 0x20 DUP6 ADD MSTORE PUSH1 0x2 DUP2 ADD SLOAD PUSH1 0x40 DUP6 ADD MSTORE PUSH3 0x254F PUSH1 0x3 DUP3 ADD PUSH3 0x3292 JUMP JUMPDEST PUSH1 0x60 DUP6 ADD MSTORE PUSH3 0x2562 PUSH1 0x4 DUP3 ADD PUSH3 0x3292 JUMP JUMPDEST PUSH1 0x80 DUP6 ADD MSTORE ADD SLOAD AND ISZERO ISZERO PUSH1 0xA0 DUP3 ADD MSTORE PUSH3 0x257D DUP3 DUP8 PUSH3 0x3FE7 JUMP JUMPDEST MSTORE PUSH3 0x258A DUP2 DUP7 PUSH3 0x3FE7 JUMP JUMPDEST POP ADD PUSH3 0x24E8 JUMP JUMPDEST PUSH1 0x40 DUP1 MLOAD PUSH1 0x20 DUP1 DUP3 MSTORE DUP7 MLOAD DUP2 DUP4 ADD DUP2 SWAP1 MSTORE DUP7 SWAP4 PUSH1 0x5 DUP3 SWAP1 SHL DUP5 ADD DUP2 ADD SWAP3 DUP1 DUP11 ADD SWAP3 SWAP2 DUP6 ADD JUMPDEST DUP3 DUP8 LT PUSH3 0x25C5 JUMPI DUP6 DUP6 SUB DUP7 RETURN JUMPDEST SWAP1 SWAP2 SWAP3 SWAP4 DUP3 DUP1 PUSH1 0x1 SWAP3 PUSH1 0x3F NOT DUP10 DUP3 SUB ADD DUP6 MSTORE DUP8 MLOAD SWAP1 DUP5 DUP1 PUSH1 0xA0 SHL SUB DUP1 DUP4 MLOAD AND DUP3 MSTORE DUP4 DUP4 ADD MLOAD AND DUP4 DUP3 ADD MSTORE PUSH1 0x40 DUP3 ADD MLOAD PUSH1 0x40 DUP3 ADD MSTORE PUSH3 0x262C PUSH3 0x2618 PUSH1 0x60 DUP1 DUP6 ADD MLOAD SWAP1 PUSH1 0xC0 DUP1 SWAP2 DUP7 ADD MSTORE DUP5 ADD SWAP1 PUSH3 0x313B JUMP JUMPDEST PUSH1 0x80 DUP1 DUP6 ADD MLOAD SWAP1 DUP5 DUP4 SUB SWAP1 DUP6 ADD MSTORE PUSH3 0x313B JUMP JUMPDEST SWAP2 PUSH1 0xA0 DUP1 SWAP2 ADD MLOAD ISZERO ISZERO SWAP2 ADD MSTORE SWAP7 ADD SWAP3 ADD SWAP7 ADD SWAP6 SWAP3 SWAP2 SWAP1 SWAP3 PUSH3 0x25B7 JUMP JUMPDEST PUSH1 0x20 SWAP1 PUSH1 0x40 MLOAD PUSH3 0x265A DUP2 PUSH3 0x320E JUMP JUMPDEST DUP6 DUP2 MSTORE DUP3 DUP7 DUP2 DUP4 ADD MSTORE DUP7 PUSH1 0x40 DUP4 ADD MSTORE PUSH1 0x60 DUP1 DUP1 DUP5 ADD MSTORE PUSH1 0x80 DUP4 ADD MSTORE DUP7 PUSH1 0xA0 DUP4 ADD MSTORE DUP3 DUP9 ADD ADD MSTORE ADD PUSH3 0x24DC JUMP JUMPDEST SWAP1 POP CODESIZE PUSH3 0x24A5 JUMP JUMPDEST POP CALLVALUE PUSH3 0x306 JUMPI PUSH1 0x40 CALLDATASIZE PUSH1 0x3 NOT ADD SLT PUSH3 0x306 JUMPI PUSH3 0x26AE PUSH3 0x30B6 JUMP JUMPDEST PUSH1 0x1 PUSH1 0x1 PUSH1 0xA0 SHL SUB SWAP1 DUP2 AND DUP3 MSTORE PUSH1 0xD PUSH1 0x20 MSTORE PUSH1 0x40 DUP3 KECCAK256 DUP1 SLOAD PUSH1 0x24 CALLDATALOAD SWAP2 SWAP1 DUP3 LT ISZERO PUSH3 0x124D JUMPI SWAP1 PUSH3 0x14C2 SWAP2 PUSH3 0x31B4 JUMP JUMPDEST POP CALLVALUE PUSH3 0x306 JUMPI DUP1 PUSH1 0x3 NOT CALLDATASIZE ADD SLT PUSH3 0x306 JUMPI PUSH3 0x26FC PUSH3 0x3818 JUMP JUMPDEST PUSH1 0x1 SLOAD PUSH1 0xFF DUP2 AND ISZERO PUSH3 0x273D JUMPI PUSH1 0xFF NOT AND PUSH1 0x1 SSTORE PUSH32 0x5DB9EE0A495BF2E6FF9C91A7834C1BA4FDD244A5E8AA4E537BD38AEAE4B073AA PUSH1 0x20 PUSH1 0x40 MLOAD CALLER DUP2 MSTORE LOG1 DUP1 RETURN JUMPDEST PUSH1 0x40 MLOAD PUSH3 0x461BCD PUSH1 0xE5 SHL DUP2 MSTORE PUSH1 0x20 PUSH1 0x4 DUP3 ADD MSTORE PUSH1 0x14 PUSH1 0x24 DUP3 ADD MSTORE PUSH20 0x14185D5CD8589B194E881B9BDD081C185D5CD959 PUSH1 0x62 SHL PUSH1 0x44 DUP3 ADD MSTORE PUSH1 0x64 SWAP1 REVERT JUMPDEST POP CALLVALUE PUSH3 0x306 JUMPI PUSH1 0x20 SWAP1 DUP2 PUSH1 0x3 NOT CALLDATASIZE ADD SLT PUSH3 0x306 JUMPI PUSH1 0x1 PUSH1 0x1 PUSH1 0xA0 SHL SUB DUP1 PUSH3 0x27A2 PUSH3 0x30B6 JUMP JUMPDEST AND SWAP2 DUP3 DUP2 MSTORE PUSH1 0xB DUP5 MSTORE PUSH1 0x40 DUP2 KECCAK256 SLOAD DUP1 ISZERO PUSH3 0x16EC JUMPI PUSH1 0x0 NOT DUP2 ADD SWAP1 DUP2 GT PUSH3 0x291D JUMPI PUSH3 0x27CF SWAP1 PUSH3 0x3162 JUMP JUMPDEST POP SWAP2 PUSH1 0x1 DUP4 ADD SLOAD AND SWAP3 PUSH1 0x2 DUP4 ADD SLOAD SWAP3 PUSH3 0x27EC PUSH1 0x3 DUP3 ADD PUSH3 0x3292 JUMP JUMPDEST PUSH1 0xFF PUSH1 0x5 PUSH3 0x27FE PUSH1 0x4 DUP6 ADD PUSH3 0x3292 JUMP JUMPDEST SWAP4 ADD SLOAD AND SWAP5 PUSH1 0x40 MLOAD SWAP4 PUSH4 0x18160DDD PUSH1 0xE0 SHL DUP6 MSTORE DUP9 DUP6 PUSH1 0x4 DUP2 DUP5 GAS STATICCALL SWAP5 DUP6 ISZERO PUSH3 0x63A JUMPI SWAP1 DUP10 SWAP2 DUP8 SWAP7 PUSH3 0x28E5 JUMPI JUMPDEST POP PUSH1 0x40 MLOAD PUSH4 0x70A08231 PUSH1 0xE0 SHL DUP2 MSTORE ADDRESS PUSH1 0x4 DUP3 ADD MSTORE SWAP2 SWAP1 DUP3 SWAP1 PUSH1 0x24 SWAP1 DUP3 SWAP1 GAS STATICCALL SWAP6 DUP7 ISZERO PUSH3 0x4E0 JUMPI DUP1 SWAP7 PUSH3 0x28AA JUMPI JUMPDEST POP POP PUSH3 0x2894 SWAP3 SWAP2 PUSH3 0x2885 SWAP2 PUSH1 0x40 MLOAD SWAP10 DUP11 SWAP10 DUP11 MSTORE DUP10 ADD MSTORE PUSH1 0xE0 PUSH1 0x40 DUP10 ADD MSTORE PUSH1 0xE0 DUP9 ADD SWAP1 PUSH3 0x313B JUMP JUMPDEST SWAP1 DUP7 DUP3 SUB PUSH1 0x60 DUP9 ADD MSTORE PUSH3 0x313B JUMP JUMPDEST SWAP3 ISZERO ISZERO PUSH1 0x80 DUP6 ADD MSTORE PUSH1 0xA0 DUP5 ADD MSTORE PUSH1 0xC0 DUP4 ADD MSTORE SUB SWAP1 RETURN JUMPDEST SWAP1 SWAP2 SWAP6 POP DUP9 DUP3 DUP2 RETURNDATASIZE DUP4 GT PUSH3 0x28DD JUMPI JUMPDEST PUSH3 0x28C6 DUP2 DUP4 PUSH3 0x3270 JUMP JUMPDEST DUP2 ADD SUB SLT PUSH3 0x306 JUMPI POP MLOAD SWAP4 DUP2 PUSH3 0x2885 PUSH3 0x285B JUMP JUMPDEST POP RETURNDATASIZE PUSH3 0x28BA JUMP JUMPDEST DUP3 DUP2 SWAP4 SWAP3 SWAP8 POP RETURNDATASIZE DUP4 GT PUSH3 0x2915 JUMPI JUMPDEST PUSH3 0x2900 DUP2 DUP4 PUSH3 0x3270 JUMP JUMPDEST DUP2 ADD SUB SLT PUSH3 0x1249 JUMPI MLOAD SWAP4 DUP9 SWAP1 PUSH1 0x24 PUSH3 0x282C JUMP JUMPDEST POP RETURNDATASIZE PUSH3 0x28F4 JUMP JUMPDEST PUSH4 0x4E487B71 PUSH1 0xE0 SHL DUP3 MSTORE PUSH1 0x11 PUSH1 0x4 MSTORE PUSH1 0x24 DUP3 REVERT JUMPDEST POP CALLVALUE PUSH3 0x306 JUMPI PUSH1 0xA0 CALLDATASIZE PUSH1 0x3 NOT ADD SLT PUSH3 0x306 JUMPI PUSH3 0x294F PUSH3 0x30B6 JUMP JUMPDEST PUSH3 0x2959 PUSH3 0x30CD JUMP JUMPDEST PUSH1 0x44 CALLDATALOAD PUSH1 0x84 CALLDATALOAD PUSH1 0x64 CALLDATALOAD PUSH3 0x296C PUSH3 0x34C4 JUMP JUMPDEST PUSH3 0x2976 PUSH3 0x3CDD JUMP JUMPDEST DUP3 ISZERO DUP1 ISZERO PUSH3 0x2B2F JUMPI JUMPDEST PUSH3 0x2B1D JUMPI PUSH1 0x40 MLOAD PUSH4 0x70A08231 PUSH1 0xE0 SHL DUP2 MSTORE ADDRESS PUSH1 0x4 DUP3 ADD MSTORE PUSH1 0x1 PUSH1 0x1 PUSH1 0xA0 SHL SUB SWAP5 DUP6 AND SWAP6 PUSH1 0x20 SWAP2 DUP3 DUP2 PUSH1 0x24 DUP2 DUP12 GAS STATICCALL DUP1 ISZERO PUSH3 0x1AFB JUMPI DUP7 SWAP2 DUP11 SWAP2 PUSH3 0x2AE2 JUMPI JUMPDEST POP LT PUSH3 0x2AD0 JUMPI DUP6 AND SWAP5 DUP6 DUP9 MSTORE PUSH1 0xD DUP3 MSTORE PUSH1 0x40 DUP9 KECCAK256 PUSH1 0x40 MLOAD SWAP2 PUSH3 0x29E4 DUP4 PUSH3 0x320E JUMP JUMPDEST DUP9 DUP4 MSTORE DUP4 DUP4 ADD DUP8 DUP2 MSTORE PUSH1 0x40 DUP5 ADD DUP12 DUP2 MSTORE PUSH1 0x60 DUP6 ADD SWAP2 TIMESTAMP DUP4 MSTORE PUSH1 0x80 DUP7 ADD SWAP4 DUP9 DUP6 MSTORE PUSH1 0xA0 DUP8 ADD SWAP6 DUP11 DUP8 MSTORE DUP1 SLOAD SWAP1 PUSH1 0x1 PUSH1 0x40 SHL DUP3 LT ISZERO PUSH3 0x2ABB JUMPI SWAP1 PUSH3 0x2A2E SWAP2 PUSH1 0x1 DUP3 ADD DUP2 SSTORE PUSH3 0x31B4 JUMP JUMPDEST SWAP8 SWAP1 SWAP8 PUSH3 0x2AA7 JUMPI MLOAD DUP8 SLOAD PUSH1 0x1 PUSH1 0x1 PUSH1 0xA0 SHL SUB NOT AND SWAP2 AND OR DUP7 SSTORE MLOAD PUSH1 0x1 DUP7 ADD SSTORE MLOAD PUSH1 0x2 DUP6 ADD SSTORE MLOAD PUSH1 0x3 DUP5 ADD SSTORE MLOAD PUSH1 0x4 DUP4 ADD SSTORE MLOAD PUSH1 0x5 SWAP1 SWAP2 ADD SSTORE PUSH1 0x40 DUP1 MLOAD SWAP5 DUP6 MSTORE TIMESTAMP SWAP2 DUP6 ADD SWAP2 SWAP1 SWAP2 MSTORE DUP4 ADD MSTORE PUSH1 0x60 DUP3 ADD MSTORE PUSH32 0x85EA0818780C5D304E8BFC41CC38A02F61338CA0966C8BBB0B883DE4CCE660FD SWAP1 PUSH1 0x80 SWAP1 LOG3 DUP1 RETURN JUMPDEST PUSH4 0x4E487B71 PUSH1 0xE0 SHL DUP16 MSTORE PUSH1 0x4 DUP16 SWAP1 MSTORE PUSH1 0x24 DUP16 REVERT JUMPDEST POP PUSH4 0x4E487B71 PUSH1 0xE0 SHL DUP16 MSTORE PUSH1 0x41 PUSH1 0x4 MSTORE PUSH1 0x24 DUP16 REVERT JUMPDEST PUSH1 0x40 MLOAD PUSH4 0xE4D75DC1 PUSH1 0xE0 SHL DUP2 MSTORE PUSH1 0x4 SWAP1 REVERT JUMPDEST DUP1 SWAP3 POP DUP5 DUP1 SWAP3 POP RETURNDATASIZE DUP4 GT PUSH3 0x2B15 JUMPI JUMPDEST PUSH3 0x2AFE DUP2 DUP4 PUSH3 0x3270 JUMP JUMPDEST DUP2 ADD SUB SLT PUSH3 0x2B11 JUMPI DUP6 SWAP1 MLOAD CODESIZE PUSH3 0x29C0 JUMP JUMPDEST DUP9 DUP1 REVERT JUMPDEST POP RETURNDATASIZE PUSH3 0x2AF2 JUMP JUMPDEST PUSH1 0x40 MLOAD PUSH4 0x19AF637 PUSH1 0xE0 SHL DUP2 MSTORE PUSH1 0x4 SWAP1 REVERT JUMPDEST POP DUP1 DUP3 GT ISZERO PUSH3 0x2980 JUMP JUMPDEST POP CALLVALUE PUSH3 0x306 JUMPI PUSH1 0x40 CALLDATASIZE PUSH1 0x3 NOT ADD SLT PUSH3 0x306 JUMPI PUSH3 0x2B58 PUSH3 0x30CD JUMP JUMPDEST CALLER PUSH1 0x1 PUSH1 0x1 PUSH1 0xA0 SHL SUB DUP3 AND SUB PUSH3 0x2B77 JUMPI PUSH3 0x1296 SWAP1 PUSH1 0x4 CALLDATALOAD PUSH3 0x3A8D JUMP JUMPDEST PUSH1 0x40 MLOAD PUSH3 0x461BCD PUSH1 0xE5 SHL DUP2 MSTORE PUSH1 0x20 PUSH1 0x4 DUP3 ADD MSTORE PUSH1 0x2F PUSH1 0x24 DUP3 ADD MSTORE PUSH32 0x416363657373436F6E74726F6C3A2063616E206F6E6C792072656E6F756E6365 PUSH1 0x44 DUP3 ADD MSTORE PUSH15 0x103937B632B9903337B91039B2B633 PUSH1 0x89 SHL PUSH1 0x64 DUP3 ADD MSTORE PUSH1 0x84 SWAP1 REVERT JUMPDEST POP CALLVALUE PUSH3 0x306 JUMPI PUSH1 0x20 CALLDATASIZE PUSH1 0x3 NOT ADD SLT PUSH3 0x306 JUMPI PUSH1 0x20 SWAP1 PUSH1 0x40 SWAP1 PUSH1 0x1 PUSH1 0x1 PUSH1 0xA0 SHL SUB PUSH3 0x2C00 PUSH3 0x30B6 JUMP JUMPDEST AND DUP2 MSTORE PUSH1 0xB DUP4 MSTORE KECCAK256 SLOAD PUSH1 0x40 MLOAD SWAP1 DUP2 MSTORE RETURN JUMPDEST POP CALLVALUE PUSH3 0x306 JUMPI PUSH3 0x1296 PUSH3 0x2C27 CALLDATASIZE PUSH3 0x30E4 JUMP JUMPDEST SWAP1 PUSH3 0x2C32 PUSH3 0x34C4 JUMP JUMPDEST PUSH1 0x1 DUP1 PUSH1 0xA0 SHL SUB AND DUP4 MSTORE PUSH1 0x7 PUSH1 0x20 MSTORE PUSH1 0x40 DUP4 KECCAK256 SWAP1 PUSH1 0xFF DUP1 NOT DUP4 SLOAD AND SWAP2 ISZERO ISZERO AND OR SWAP1 SSTORE JUMP JUMPDEST POP CALLVALUE PUSH3 0x306 JUMPI DUP1 PUSH1 0x3 NOT CALLDATASIZE ADD SLT PUSH3 0x306 JUMPI PUSH3 0x2C73 PUSH3 0x3D22 JUMP JUMPDEST CALLER DUP2 MSTORE PUSH1 0x5 PUSH1 0x20 MSTORE PUSH1 0x40 DUP2 KECCAK256 SLOAD DUP1 ISZERO PUSH3 0x2CD7 JUMPI CALLER DUP3 MSTORE PUSH1 0x5 PUSH1 0x20 MSTORE DUP2 PUSH1 0x40 DUP2 KECCAK256 SSTORE DUP2 DUP1 DUP1 DUP1 DUP5 CALLER DUP3 CALL ISZERO PUSH3 0x1F2A JUMPI PUSH1 0x40 MLOAD SWAP1 DUP2 MSTORE PUSH32 0x7F0B212761A7ABE7EC4D2ADEA5A7FA1FEA58234AABF0C01C0E63403FE62013FF PUSH1 0x20 CALLER SWAP3 LOG2 PUSH1 0x1 PUSH1 0x2 SSTORE DUP1 RETURN JUMPDEST PUSH1 0x40 MLOAD PUSH4 0x21C8563B PUSH1 0xE0 SHL DUP2 MSTORE PUSH1 0x4 SWAP1 REVERT JUMPDEST POP CALLVALUE PUSH3 0x306 JUMPI PUSH1 0x40 CALLDATASIZE PUSH1 0x3 NOT ADD SLT PUSH3 0x306 JUMPI PUSH1 0x4 CALLDATALOAD PUSH3 0x2D0A PUSH3 0x30CD JUMP JUMPDEST DUP2 DUP4 MSTORE DUP3 PUSH1 0x20 MSTORE PUSH3 0x2D23 PUSH1 0x1 PUSH1 0x40 DUP6 KECCAK256 ADD SLOAD PUSH3 0x3970 JUMP JUMPDEST DUP2 DUP4 MSTORE PUSH1 0x20 DUP4 DUP2 MSTORE PUSH1 0x40 DUP1 DUP6 KECCAK256 PUSH1 0x1 PUSH1 0x1 PUSH1 0xA0 SHL SUB SWAP1 SWAP4 AND DUP1 DUP7 MSTORE SWAP3 SWAP1 SWAP2 MSTORE DUP4 KECCAK256 SLOAD PUSH1 0xFF AND ISZERO PUSH3 0x2D52 JUMPI DUP3 DUP1 RETURN JUMPDEST DUP2 DUP4 MSTORE DUP3 PUSH1 0x20 MSTORE PUSH1 0x40 DUP4 KECCAK256 DUP2 DUP5 MSTORE PUSH1 0x20 MSTORE PUSH1 0x40 DUP4 KECCAK256 PUSH1 0x1 PUSH1 0xFF NOT DUP3 SLOAD AND OR SWAP1 SSTORE CALLER SWAP2 PUSH32 0x2F8788117E7EFF1D82E926EC794901D17C78024A50270940304540A733656F0D DUP5 DUP1 LOG4 CODESIZE DUP1 DUP3 DUP1 RETURN JUMPDEST POP CALLVALUE PUSH3 0x306 JUMPI PUSH1 0x20 CALLDATASIZE PUSH1 0x3 NOT ADD SLT PUSH3 0x306 JUMPI PUSH32 0x27F971FD4ACCB41A60BCEF5477F2A70AA17EFCA3A2C33B138E3AA62A3D891C6D PUSH1 0x20 PUSH1 0x4 CALLDATALOAD PUSH3 0x2DE2 PUSH3 0x34C4 JUMP JUMPDEST DUP1 PUSH1 0x6 SSTORE PUSH1 0x40 MLOAD SWAP1 DUP2 MSTORE LOG1 DUP1 RETURN JUMPDEST POP CALLVALUE PUSH3 0x306 JUMPI PUSH1 0x20 CALLDATASIZE PUSH1 0x3 NOT ADD SLT PUSH3 0x306 JUMPI PUSH1 0x1 PUSH1 0x40 PUSH1 0x20 SWAP3 PUSH1 0x4 CALLDATALOAD DUP2 MSTORE DUP1 DUP5 MSTORE KECCAK256 ADD SLOAD PUSH1 0x40 MLOAD SWAP1 DUP2 MSTORE RETURN JUMPDEST POP CALLVALUE PUSH3 0x306 JUMPI DUP1 PUSH1 0x3 NOT CALLDATASIZE ADD SLT PUSH3 0x306 JUMPI PUSH1 0x20 PUSH1 0x6 SLOAD PUSH1 0x40 MLOAD SWAP1 DUP2 MSTORE RETURN JUMPDEST POP CALLVALUE PUSH3 0x306 JUMPI DUP1 PUSH1 0x3 NOT CALLDATASIZE ADD SLT PUSH3 0x306 JUMPI PUSH1 0x20 PUSH1 0x4 SLOAD PUSH1 0x40 MLOAD SWAP1 DUP2 MSTORE RETURN JUMPDEST POP CALLVALUE PUSH3 0x306 JUMPI PUSH1 0x20 CALLDATASIZE PUSH1 0x3 NOT ADD SLT PUSH3 0x306 JUMPI PUSH3 0x2E7C PUSH3 0x30B6 JUMP JUMPDEST PUSH3 0x2E86 PUSH3 0x36E1 JUMP JUMPDEST PUSH1 0x1 PUSH1 0x1 PUSH1 0xA0 SHL SUB AND DUP1 ISZERO PUSH3 0x2ECF JUMPI PUSH1 0xE DUP1 SLOAD PUSH1 0x1 PUSH1 0x1 PUSH1 0xA0 SHL SUB NOT AND DUP3 OR SWAP1 SSTORE PUSH32 0xC420E02F8F25BC483D2D29B2F718E07C863D3E50C4775CB9E4D3C16984C13A4D DUP3 DUP1 LOG2 DUP1 RETURN JUMPDEST PUSH1 0x40 MLOAD PUSH4 0x4C5678E1 PUSH1 0xE1 SHL DUP2 MSTORE PUSH1 0x4 SWAP1 REVERT JUMPDEST POP PUSH1 0x40 CALLDATASIZE PUSH1 0x3 NOT ADD SLT PUSH3 0x306 JUMPI PUSH3 0x2F4C PUSH1 0x60 PUSH3 0x2EFF PUSH3 0x30B6 JUMP JUMPDEST PUSH3 0x2F09 PUSH3 0x34C4 JUMP JUMPDEST PUSH3 0x2F13 PUSH3 0x3CDD JUMP JUMPDEST PUSH1 0xE SLOAD PUSH1 0x40 MLOAD PUSH3 0x566887 PUSH1 0xE8 SHL DUP2 MSTORE PUSH1 0x1 PUSH1 0x1 PUSH1 0xA0 SHL SUB SWAP3 DUP4 AND PUSH1 0x4 DUP3 ADD MSTORE PUSH1 0x24 DUP1 CALLDATALOAD SWAP1 DUP3 ADD MSTORE SWAP4 DUP5 SWAP3 SWAP1 SWAP2 AND SWAP1 DUP3 SWAP1 DUP2 SWAP1 PUSH1 0x44 DUP3 ADD SWAP1 JUMP JUMPDEST SUB SWAP2 CALLVALUE SWAP1 GAS CALL DUP1 ISZERO PUSH3 0x7D7 JUMPI PUSH3 0x2F62 JUMPI POP DUP1 RETURN JUMPDEST PUSH1 0x60 SWAP1 DUP2 RETURNDATASIZE DUP2 GT PUSH3 0x1E51 JUMPI PUSH3 0x1E45 DUP2 DUP4 PUSH3 0x3270 JUMP JUMPDEST POP CALLVALUE PUSH3 0x306 JUMPI PUSH1 0x40 CALLDATASIZE PUSH1 0x3 NOT ADD SLT PUSH3 0x306 JUMPI PUSH3 0x2F98 PUSH3 0x30B6 JUMP JUMPDEST PUSH1 0x24 CALLDATALOAD PUSH3 0x2FA5 PUSH3 0x3CDD JUMP JUMPDEST PUSH3 0x2FAF PUSH3 0x3D22 JUMP JUMPDEST PUSH1 0x1 PUSH1 0x1 PUSH1 0xA0 SHL SUB SWAP2 DUP3 AND DUP1 DUP5 MSTORE PUSH1 0xB PUSH1 0x20 MSTORE PUSH1 0x40 DUP5 KECCAK256 SLOAD SWAP1 SWAP3 SWAP1 DUP1 ISZERO PUSH3 0x16EC JUMPI PUSH1 0x0 NOT DUP2 ADD SWAP1 DUP2 GT PUSH3 0x3048 JUMPI PUSH3 0x2FEB PUSH1 0x1 SWAP2 PUSH3 0x3162 JUMP JUMPDEST POP ADD SLOAD AND CALLER SUB PUSH3 0x3036 JUMPI PUSH1 0x20 DUP2 PUSH3 0x3027 PUSH32 0xB42C9FECFB68F9BF84886F05B85865BE2FDA69A3EC869651D1320D8F528BE6BB SWAP4 CALLER DUP7 PUSH3 0x3DBA JUMP JUMPDEST PUSH1 0x40 MLOAD SWAP1 DUP2 MSTORE LOG2 PUSH1 0x1 PUSH1 0x2 SSTORE DUP1 RETURN JUMPDEST PUSH1 0x40 MLOAD PUSH4 0xEA8E4EB5 PUSH1 0xE0 SHL DUP2 MSTORE PUSH1 0x4 SWAP1 REVERT JUMPDEST PUSH4 0x4E487B71 PUSH1 0xE0 SHL DUP6 MSTORE PUSH1 0x11 PUSH1 0x4 MSTORE PUSH1 0x24 DUP6 REVERT JUMPDEST SWAP1 POP CALLVALUE PUSH3 0x4FE JUMPI PUSH1 0x20 CALLDATASIZE PUSH1 0x3 NOT ADD SLT PUSH3 0x4FE JUMPI PUSH1 0x4 CALLDATALOAD PUSH4 0xFFFFFFFF PUSH1 0xE0 SHL DUP2 AND DUP1 SWAP2 SUB PUSH3 0x64F JUMPI PUSH1 0x20 SWAP3 POP PUSH4 0x7965DB0B PUSH1 0xE0 SHL DUP2 EQ SWAP1 DUP2 ISZERO PUSH3 0x30A4 JUMPI JUMPDEST POP ISZERO ISZERO DUP2 MSTORE RETURN JUMPDEST PUSH4 0x1FFC9A7 PUSH1 0xE0 SHL EQ SWAP1 POP CODESIZE PUSH3 0x309D JUMP JUMPDEST PUSH1 0x4 CALLDATALOAD SWAP1 PUSH1 0x1 PUSH1 0x1 PUSH1 0xA0 SHL SUB DUP3 AND DUP3 SUB PUSH3 0x1D JUMPI JUMP JUMPDEST PUSH1 0x24 CALLDATALOAD SWAP1 PUSH1 0x1 PUSH1 0x1 PUSH1 0xA0 SHL SUB DUP3 AND DUP3 SUB PUSH3 0x1D JUMPI JUMP JUMPDEST PUSH1 0x40 SWAP1 PUSH1 0x3 NOT ADD SLT PUSH3 0x1D JUMPI PUSH1 0x4 CALLDATALOAD PUSH1 0x1 PUSH1 0x1 PUSH1 0xA0 SHL SUB DUP2 AND DUP2 SUB PUSH3 0x1D JUMPI SWAP1 PUSH1 0x24 CALLDATALOAD DUP1 ISZERO ISZERO DUP2 SUB PUSH3 0x1D JUMPI SWAP1 JUMP JUMPDEST PUSH1 0x0 JUMPDEST DUP4 DUP2 LT PUSH3 0x312A JUMPI POP POP PUSH1 0x0 SWAP2 ADD MSTORE JUMP JUMPDEST DUP2 DUP2 ADD MLOAD DUP4 DUP3 ADD MSTORE PUSH1 0x20 ADD PUSH3 0x3119 JUMP JUMPDEST SWAP1 PUSH1 0x20 SWAP2 PUSH3 0x3156 DUP2 MLOAD DUP1 SWAP3 DUP2 DUP6 MSTORE DUP6 DUP1 DUP7 ADD SWAP2 ADD PUSH3 0x3116 JUMP JUMPDEST PUSH1 0x1F ADD PUSH1 0x1F NOT AND ADD ADD SWAP1 JUMP JUMPDEST PUSH1 0xA SLOAD DUP2 LT ISZERO PUSH3 0x319E JUMPI PUSH1 0x6 SWAP1 PUSH1 0xA PUSH1 0x0 MSTORE MUL PUSH32 0xC65A7BB8D6351C1CF70C95A316CC6A92839C986682D98BC35F958F4883F9D2A8 ADD SWAP1 PUSH1 0x0 SWAP1 JUMP JUMPDEST PUSH4 0x4E487B71 PUSH1 0xE0 SHL PUSH1 0x0 MSTORE PUSH1 0x32 PUSH1 0x4 MSTORE PUSH1 0x24 PUSH1 0x0 REVERT JUMPDEST DUP1 SLOAD DUP3 LT ISZERO PUSH3 0x319E JUMPI PUSH1 0x0 MSTORE PUSH1 0x6 PUSH1 0x20 PUSH1 0x0 KECCAK256 SWAP2 MUL ADD SWAP1 PUSH1 0x0 SWAP1 JUMP JUMPDEST SWAP1 PUSH1 0x1 DUP3 DUP2 SHR SWAP3 AND DUP1 ISZERO PUSH3 0x3203 JUMPI JUMPDEST PUSH1 0x20 DUP4 LT EQ PUSH3 0x31ED JUMPI JUMP JUMPDEST PUSH4 0x4E487B71 PUSH1 0xE0 SHL PUSH1 0x0 MSTORE PUSH1 0x22 PUSH1 0x4 MSTORE PUSH1 0x24 PUSH1 0x0 REVERT JUMPDEST SWAP2 PUSH1 0x7F AND SWAP2 PUSH3 0x31E1 JUMP JUMPDEST PUSH1 0xC0 DUP2 ADD SWAP1 DUP2 LT PUSH1 0x1 PUSH1 0x1 PUSH1 0x40 SHL SUB DUP3 GT OR PUSH3 0x322A JUMPI PUSH1 0x40 MSTORE JUMP JUMPDEST PUSH4 0x4E487B71 PUSH1 0xE0 SHL PUSH1 0x0 MSTORE PUSH1 0x41 PUSH1 0x4 MSTORE PUSH1 0x24 PUSH1 0x0 REVERT JUMPDEST PUSH1 0x1 PUSH1 0x1 PUSH1 0x40 SHL SUB DUP2 GT PUSH3 0x322A JUMPI PUSH1 0x40 MSTORE JUMP JUMPDEST PUSH1 0x80 DUP2 ADD SWAP1 DUP2 LT PUSH1 0x1 PUSH1 0x1 PUSH1 0x40 SHL SUB DUP3 GT OR PUSH3 0x322A JUMPI PUSH1 0x40 MSTORE JUMP JUMPDEST SWAP1 PUSH1 0x1F DUP1 NOT SWAP2 ADD AND DUP2 ADD SWAP1 DUP2 LT PUSH1 0x1 PUSH1 0x1 PUSH1 0x40 SHL SUB DUP3 GT OR PUSH3 0x322A JUMPI PUSH1 0x40 MSTORE JUMP JUMPDEST SWAP1 PUSH1 0x40 MLOAD SWAP2 DUP3 PUSH1 0x0 DUP3 SLOAD SWAP3 PUSH3 0x32A8 DUP5 PUSH3 0x31D1 JUMP JUMPDEST SWAP1 DUP2 DUP5 MSTORE PUSH1 0x1 SWAP5 DUP6 DUP2 AND SWAP1 DUP2 PUSH1 0x0 EQ PUSH3 0x331F JUMPI POP PUSH1 0x1 EQ PUSH3 0x32D8 JUMPI JUMPDEST POP POP PUSH3 0x32D6 SWAP3 POP SUB DUP4 PUSH3 0x3270 JUMP JUMPDEST JUMP JUMPDEST SWAP1 SWAP4 SWAP2 POP PUSH1 0x0 MSTORE PUSH1 0x20 SWAP1 DUP2 PUSH1 0x0 KECCAK256 SWAP4 PUSH1 0x0 SWAP2 JUMPDEST DUP2 DUP4 LT PUSH3 0x3306 JUMPI POP POP PUSH3 0x32D6 SWAP4 POP DUP3 ADD ADD CODESIZE DUP1 PUSH3 0x32C6 JUMP JUMPDEST DUP6 SLOAD DUP9 DUP5 ADD DUP6 ADD MSTORE SWAP5 DUP6 ADD SWAP5 DUP8 SWAP5 POP SWAP2 DUP4 ADD SWAP2 PUSH3 0x32EB JUMP JUMPDEST SWAP2 POP POP PUSH3 0x32D6 SWAP5 POP PUSH1 0x20 SWAP3 POP PUSH1 0xFF NOT AND DUP3 DUP5 ADD MSTORE ISZERO ISZERO PUSH1 0x5 SHL DUP3 ADD ADD CODESIZE DUP1 PUSH3 0x32C6 JUMP JUMPDEST SWAP1 DUP2 MLOAD DUP1 DUP3 MSTORE PUSH1 0x20 DUP1 DUP1 SWAP4 ADD SWAP4 ADD SWAP2 PUSH1 0x0 JUMPDEST DUP3 DUP2 LT PUSH3 0x3365 JUMPI POP POP POP POP SWAP1 JUMP JUMPDEST DUP4 MLOAD PUSH1 0x1 PUSH1 0x1 PUSH1 0xA0 SHL SUB AND DUP6 MSTORE SWAP4 DUP2 ADD SWAP4 SWAP3 DUP2 ADD SWAP3 PUSH1 0x1 ADD PUSH3 0x3356 JUMP JUMPDEST SWAP1 DUP2 MLOAD DUP1 DUP3 MSTORE PUSH1 0x20 DUP1 DUP1 SWAP4 ADD SWAP4 ADD SWAP2 PUSH1 0x0 JUMPDEST DUP3 DUP2 LT PUSH3 0x33A4 JUMPI POP POP POP POP SWAP1 JUMP JUMPDEST DUP4 MLOAD DUP6 MSTORE SWAP4 DUP2 ADD SWAP4 SWAP3 DUP2 ADD SWAP3 PUSH1 0x1 ADD PUSH3 0x3395 JUMP JUMPDEST SWAP1 DUP1 DUP3 MLOAD SWAP1 DUP2 DUP2 MSTORE PUSH1 0x20 DUP1 SWAP2 ADD SWAP3 DUP2 DUP1 DUP5 PUSH1 0x5 SHL DUP4 ADD ADD SWAP6 ADD SWAP4 PUSH1 0x0 SWAP2 JUMPDEST DUP5 DUP4 LT PUSH3 0x33E8 JUMPI POP POP POP POP POP POP SWAP1 JUMP JUMPDEST SWAP1 SWAP2 SWAP3 SWAP4 SWAP5 SWAP6 DUP5 DUP1 PUSH3 0x3408 PUSH1 0x1 SWAP4 PUSH1 0x1F NOT DUP7 DUP3 SUB ADD DUP8 MSTORE DUP11 MLOAD PUSH3 0x313B JUMP JUMPDEST SWAP9 ADD SWAP4 ADD SWAP4 ADD SWAP2 SWAP5 SWAP4 SWAP3 SWAP1 PUSH3 0x33D7 JUMP JUMPDEST SWAP2 DUP2 PUSH1 0x1F DUP5 ADD SLT ISZERO PUSH3 0x1D JUMPI DUP3 CALLDATALOAD SWAP2 PUSH1 0x1 PUSH1 0x1 PUSH1 0x40 SHL SUB DUP4 GT PUSH3 0x1D JUMPI PUSH1 0x20 DUP1 DUP6 ADD SWAP5 DUP5 PUSH1 0x5 SHL ADD ADD GT PUSH3 0x1D JUMPI JUMP JUMPDEST SWAP1 PUSH1 0x40 PUSH1 0x3 NOT DUP4 ADD SLT PUSH3 0x1D JUMPI PUSH1 0x4 CALLDATALOAD PUSH1 0x1 PUSH1 0x1 PUSH1 0xA0 SHL SUB DUP2 AND DUP2 SUB PUSH3 0x1D JUMPI SWAP2 PUSH1 0x24 CALLDATALOAD SWAP1 PUSH1 0x1 PUSH1 0x1 PUSH1 0x40 SHL SUB DUP3 GT PUSH3 0x1D JUMPI PUSH3 0x3490 SWAP2 PUSH1 0x4 ADD PUSH3 0x3419 JUMP JUMPDEST SWAP1 SWAP2 JUMP JUMPDEST SWAP2 DUP2 PUSH1 0x1F DUP5 ADD SLT ISZERO PUSH3 0x1D JUMPI DUP3 CALLDATALOAD SWAP2 PUSH1 0x1 PUSH1 0x1 PUSH1 0x40 SHL SUB DUP4 GT PUSH3 0x1D JUMPI PUSH1 0x20 DUP4 DUP2 DUP7 ADD SWAP6 ADD ADD GT PUSH3 0x1D JUMPI JUMP JUMPDEST CALLER PUSH1 0x0 SWAP1 DUP2 MSTORE PUSH32 0xEE57CD81E84075558E8FCC182A1F4393F91FC97F963A136E66B7F949A62F319F PUSH1 0x20 SWAP1 DUP2 MSTORE PUSH1 0x40 DUP1 DUP4 KECCAK256 SLOAD SWAP1 SWAP3 PUSH32 0x97667070C54EF182B0F5858B034BEAC1B6F3089AA2D3188BB1E8929F4FA9B929 SWAP2 PUSH1 0xFF AND ISZERO PUSH3 0x3529 JUMPI POP POP POP POP JUMP JUMPDEST PUSH3 0x3534 CALLER PUSH3 0x3B68 JUMP JUMPDEST SWAP2 DUP5 MLOAD SWAP1 PUSH3 0x3543 DUP3 PUSH3 0x3254 JUMP JUMPDEST PUSH1 0x42 DUP3 MSTORE DUP5 DUP3 ADD SWAP3 PUSH1 0x60 CALLDATASIZE DUP6 CALLDATACOPY DUP3 MLOAD ISZERO PUSH3 0x36CD JUMPI PUSH1 0x30 DUP5 MSTORE8 DUP3 MLOAD SWAP1 PUSH1 0x1 SWAP2 DUP3 LT ISZERO PUSH3 0x36CD JUMPI SWAP1 PUSH1 0x78 PUSH1 0x21 DUP6 ADD MSTORE8 PUSH1 0x41 SWAP2 JUMPDEST DUP2 DUP4 GT PUSH3 0x366E JUMPI POP POP POP PUSH3 0x362C JUMPI PUSH1 0x48 PUSH3 0x3628 SWAP4 DUP7 SWAP4 PUSH3 0x360B SWAP4 PUSH3 0x35FB SWAP9 MLOAD SWAP9 DUP10 SWAP4 PUSH23 0x20B1B1B2B9B9A1B7B73A3937B61D1030B1B1B7BAB73A1 PUSH1 0x4D SHL DUP11 DUP7 ADD MSTORE PUSH3 0x35D1 DUP2 MLOAD DUP1 SWAP3 DUP13 PUSH1 0x37 DUP10 ADD SWAP2 ADD PUSH3 0x3116 JUMP JUMPDEST DUP5 ADD SWAP2 PUSH17 0x1034B99036B4B9B9B4B733903937B6329 PUSH1 0x7D SHL PUSH1 0x37 DUP5 ADD MSTORE MLOAD DUP1 SWAP4 DUP7 DUP5 ADD SWAP1 PUSH3 0x3116 JUMP JUMPDEST ADD SUB PUSH1 0x28 DUP2 ADD DUP8 MSTORE ADD DUP6 PUSH3 0x3270 JUMP JUMPDEST MLOAD SWAP3 DUP4 SWAP3 PUSH3 0x461BCD PUSH1 0xE5 SHL DUP5 MSTORE PUSH1 0x4 DUP5 ADD MSTORE PUSH1 0x24 DUP4 ADD SWAP1 PUSH3 0x313B JUMP JUMPDEST SUB SWAP1 REVERT JUMPDEST PUSH1 0x64 DUP5 DUP7 MLOAD SWAP1 PUSH3 0x461BCD PUSH1 0xE5 SHL DUP3 MSTORE DUP1 PUSH1 0x4 DUP4 ADD MSTORE PUSH1 0x24 DUP3 ADD MSTORE PUSH32 0x537472696E67733A20686578206C656E67746820696E73756666696369656E74 PUSH1 0x44 DUP3 ADD MSTORE REVERT JUMPDEST SWAP1 SWAP2 SWAP3 PUSH1 0xF DUP2 AND PUSH1 0x10 DUP2 LT ISZERO PUSH3 0x36B9 JUMPI PUSH16 0x181899199A1A9B1B9C1CB0B131B232B3 PUSH1 0x81 SHL SWAP1 BYTE PUSH3 0x36A1 DUP6 DUP8 PUSH3 0x3B56 JUMP JUMPDEST MSTORE8 PUSH1 0x4 SHR SWAP3 DUP1 ISZERO PUSH3 0x291D JUMPI PUSH1 0x0 NOT ADD SWAP2 SWAP1 PUSH3 0x3576 JUMP JUMPDEST PUSH4 0x4E487B71 PUSH1 0xE0 SHL DUP4 MSTORE PUSH1 0x32 PUSH1 0x4 MSTORE PUSH1 0x24 DUP4 REVERT JUMPDEST PUSH4 0x4E487B71 PUSH1 0xE0 SHL DUP2 MSTORE PUSH1 0x32 PUSH1 0x4 MSTORE PUSH1 0x24 SWAP1 REVERT JUMPDEST CALLER PUSH1 0x0 SWAP1 DUP2 MSTORE PUSH32 0xAD3228B676F7D3CD4284A5443F17F1962B36E491B30A40B2405849E597BA5FB5 PUSH1 0x20 SWAP1 DUP2 MSTORE PUSH1 0x40 DUP1 DUP4 KECCAK256 SLOAD SWAP1 SWAP3 SWAP1 PUSH1 0xFF AND ISZERO PUSH3 0x3724 JUMPI POP POP POP JUMP JUMPDEST PUSH3 0x372F CALLER PUSH3 0x3B68 JUMP JUMPDEST SWAP1 DUP1 DUP5 MLOAD SWAP1 PUSH3 0x373F DUP3 PUSH3 0x3254 JUMP JUMPDEST PUSH1 0x42 DUP3 MSTORE DUP5 DUP3 ADD SWAP3 PUSH1 0x60 CALLDATASIZE DUP6 CALLDATACOPY DUP3 MLOAD ISZERO PUSH3 0x36CD JUMPI PUSH1 0x30 DUP5 MSTORE8 DUP3 MLOAD SWAP1 PUSH1 0x1 SWAP2 DUP3 LT ISZERO PUSH3 0x36CD JUMPI SWAP1 PUSH1 0x78 PUSH1 0x21 DUP6 ADD MSTORE8 PUSH1 0x41 SWAP2 JUMPDEST DUP2 DUP4 GT PUSH3 0x37CD JUMPI POP POP POP PUSH3 0x362C JUMPI PUSH1 0x48 PUSH3 0x3628 SWAP4 DUP7 SWAP4 PUSH3 0x360B SWAP4 PUSH3 0x35FB SWAP9 MLOAD SWAP9 DUP10 SWAP4 PUSH23 0x20B1B1B2B9B9A1B7B73A3937B61D1030B1B1B7BAB73A1 PUSH1 0x4D SHL DUP11 DUP7 ADD MSTORE PUSH3 0x35D1 DUP2 MLOAD DUP1 SWAP3 DUP13 PUSH1 0x37 DUP10 ADD SWAP2 ADD PUSH3 0x3116 JUMP JUMPDEST SWAP1 SWAP2 SWAP3 PUSH1 0xF DUP2 AND PUSH1 0x10 DUP2 LT ISZERO PUSH3 0x36B9 JUMPI PUSH16 0x181899199A1A9B1B9C1CB0B131B232B3 PUSH1 0x81 SHL SWAP1 BYTE PUSH3 0x3800 DUP6 DUP8 PUSH3 0x3B56 JUMP JUMPDEST MSTORE8 PUSH1 0x4 SHR SWAP3 DUP1 ISZERO PUSH3 0x291D JUMPI PUSH1 0x0 NOT ADD SWAP2 SWAP1 PUSH3 0x3772 JUMP JUMPDEST CALLER PUSH1 0x0 SWAP1 DUP2 MSTORE PUSH32 0xF7C9542C591017A21C74B6F3FAB6263C7952FC0AAF9DB4C22A2A04DDC7F8674F PUSH1 0x20 SWAP1 DUP2 MSTORE PUSH1 0x40 DUP1 DUP4 KECCAK256 SLOAD SWAP1 SWAP3 PUSH32 0x65D7A28E3265B37A6474929F336521B332C1681B933F6CB9F3376673440D862A SWAP2 PUSH1 0xFF AND ISZERO PUSH3 0x387D JUMPI POP POP POP POP JUMP JUMPDEST PUSH3 0x3888 CALLER PUSH3 0x3B68 JUMP JUMPDEST SWAP2 DUP5 MLOAD SWAP1 PUSH3 0x3897 DUP3 PUSH3 0x3254 JUMP JUMPDEST PUSH1 0x42 DUP3 MSTORE DUP5 DUP3 ADD SWAP3 PUSH1 0x60 CALLDATASIZE DUP6 CALLDATACOPY DUP3 MLOAD ISZERO PUSH3 0x36CD JUMPI PUSH1 0x30 DUP5 MSTORE8 DUP3 MLOAD SWAP1 PUSH1 0x1 SWAP2 DUP3 LT ISZERO PUSH3 0x36CD JUMPI SWAP1 PUSH1 0x78 PUSH1 0x21 DUP6 ADD MSTORE8 PUSH1 0x41 SWAP2 JUMPDEST DUP2 DUP4 GT PUSH3 0x3925 JUMPI POP POP POP PUSH3 0x362C JUMPI PUSH1 0x48 PUSH3 0x3628 SWAP4 DUP7 SWAP4 PUSH3 0x360B SWAP4 PUSH3 0x35FB SWAP9 MLOAD SWAP9 DUP10 SWAP4 PUSH23 0x20B1B1B2B9B9A1B7B73A3937B61D1030B1B1B7BAB73A1 PUSH1 0x4D SHL DUP11 DUP7 ADD MSTORE PUSH3 0x35D1 DUP2 MLOAD DUP1 SWAP3 DUP13 PUSH1 0x37 DUP10 ADD SWAP2 ADD PUSH3 0x3116 JUMP JUMPDEST SWAP1 SWAP2 SWAP3 PUSH1 0xF DUP2 AND PUSH1 0x10 DUP2 LT ISZERO PUSH3 0x36B9 JUMPI PUSH16 0x181899199A1A9B1B9C1CB0B131B232B3 PUSH1 0x81 SHL SWAP1 BYTE PUSH3 0x3958 DUP6 DUP8 PUSH3 0x3B56 JUMP JUMPDEST MSTORE8 PUSH1 0x4 SHR SWAP3 DUP1 ISZERO PUSH3 0x291D JUMPI PUSH1 0x0 NOT ADD SWAP2 SWAP1 PUSH3 0x38CA JUMP JUMPDEST PUSH1 0x0 SWAP1 DUP1 DUP3 MSTORE PUSH1 0x20 SWAP1 DUP3 DUP3 MSTORE PUSH1 0x40 SWAP3 DUP4 DUP2 KECCAK256 CALLER DUP3 MSTORE DUP4 MSTORE PUSH1 0xFF DUP5 DUP3 KECCAK256 SLOAD AND ISZERO PUSH3 0x399A JUMPI POP POP POP POP JUMP JUMPDEST PUSH3 0x39A5 CALLER PUSH3 0x3B68 JUMP JUMPDEST SWAP2 DUP5 MLOAD SWAP1 PUSH3 0x39B4 DUP3 PUSH3 0x3254 JUMP JUMPDEST PUSH1 0x42 DUP3 MSTORE DUP5 DUP3 ADD SWAP3 PUSH1 0x60 CALLDATASIZE DUP6 CALLDATACOPY DUP3 MLOAD ISZERO PUSH3 0x36CD JUMPI PUSH1 0x30 DUP5 MSTORE8 DUP3 MLOAD SWAP1 PUSH1 0x1 SWAP2 DUP3 LT ISZERO PUSH3 0x36CD JUMPI SWAP1 PUSH1 0x78 PUSH1 0x21 DUP6 ADD MSTORE8 PUSH1 0x41 SWAP2 JUMPDEST DUP2 DUP4 GT PUSH3 0x3A42 JUMPI POP POP POP PUSH3 0x362C JUMPI PUSH1 0x48 PUSH3 0x3628 SWAP4 DUP7 SWAP4 PUSH3 0x360B SWAP4 PUSH3 0x35FB SWAP9 MLOAD SWAP9 DUP10 SWAP4 PUSH23 0x20B1B1B2B9B9A1B7B73A3937B61D1030B1B1B7BAB73A1 PUSH1 0x4D SHL DUP11 DUP7 ADD MSTORE PUSH3 0x35D1 DUP2 MLOAD DUP1 SWAP3 DUP13 PUSH1 0x37 DUP10 ADD SWAP2 ADD PUSH3 0x3116 JUMP JUMPDEST SWAP1 SWAP2 SWAP3 PUSH1 0xF DUP2 AND PUSH1 0x10 DUP2 LT ISZERO PUSH3 0x36B9 JUMPI PUSH16 0x181899199A1A9B1B9C1CB0B131B232B3 PUSH1 0x81 SHL SWAP1 BYTE PUSH3 0x3A75 DUP6 DUP8 PUSH3 0x3B56 JUMP JUMPDEST MSTORE8 PUSH1 0x4 SHR SWAP3 DUP1 ISZERO PUSH3 0x291D JUMPI PUSH1 0x0 NOT ADD SWAP2 SWAP1 PUSH3 0x39E7 JUMP JUMPDEST SWAP1 PUSH1 0x0 SWAP2 DUP1 DUP4 MSTORE DUP3 PUSH1 0x20 MSTORE PUSH1 0x40 DUP4 KECCAK256 SWAP2 PUSH1 0x1 DUP1 PUSH1 0xA0 SHL SUB AND SWAP2 DUP3 DUP5 MSTORE PUSH1 0x20 MSTORE PUSH1 0xFF PUSH1 0x40 DUP5 KECCAK256 SLOAD AND PUSH3 0x3ABE JUMPI POP POP POP JUMP JUMPDEST DUP1 DUP4 MSTORE DUP3 PUSH1 0x20 MSTORE PUSH1 0x40 DUP4 KECCAK256 DUP3 DUP5 MSTORE PUSH1 0x20 MSTORE PUSH1 0x40 DUP4 KECCAK256 PUSH1 0xFF NOT DUP2 SLOAD AND SWAP1 SSTORE PUSH32 0xF6391F5C32D9C69D2A47EA670B442974B53935D1EDC7FD64EB21E047A839171B CALLER SWAP4 DUP1 LOG4 JUMP JUMPDEST DUP2 DUP2 MUL SWAP3 SWAP2 DUP2 ISZERO SWAP2 DUP5 DIV EQ OR ISZERO PUSH3 0x3B16 JUMPI JUMP JUMPDEST PUSH4 0x4E487B71 PUSH1 0xE0 SHL PUSH1 0x0 MSTORE PUSH1 0x11 PUSH1 0x4 MSTORE PUSH1 0x24 PUSH1 0x0 REVERT JUMPDEST SWAP2 SWAP1 DUP3 ADD DUP1 SWAP3 GT PUSH3 0x3B16 JUMPI JUMP JUMPDEST PUSH1 0x1 PUSH1 0x1 PUSH1 0x40 SHL SUB DUP2 GT PUSH3 0x322A JUMPI PUSH1 0x1F ADD PUSH1 0x1F NOT AND PUSH1 0x20 ADD SWAP1 JUMP JUMPDEST SWAP1 DUP2 MLOAD DUP2 LT ISZERO PUSH3 0x319E JUMPI ADD PUSH1 0x20 ADD SWAP1 JUMP JUMPDEST PUSH1 0x40 MLOAD SWAP1 PUSH1 0x60 DUP3 ADD DUP3 DUP2 LT PUSH1 0x1 PUSH1 0x1 PUSH1 0x40 SHL SUB DUP3 GT OR PUSH3 0x322A JUMPI PUSH1 0x40 MSTORE PUSH1 0x2A DUP3 MSTORE PUSH1 0x20 DUP3 ADD PUSH1 0x40 CALLDATASIZE DUP3 CALLDATACOPY DUP3 MLOAD ISZERO PUSH3 0x319E JUMPI PUSH1 0x30 SWAP1 MSTORE8 DUP2 MLOAD PUSH1 0x1 SWAP1 DUP2 LT ISZERO PUSH3 0x319E JUMPI PUSH1 0x78 PUSH1 0x21 DUP5 ADD MSTORE8 PUSH1 0x29 SWAP1 JUMPDEST DUP1 DUP3 GT PUSH3 0x3C0D JUMPI POP POP PUSH3 0x3BC9 JUMPI SWAP1 JUMP JUMPDEST PUSH1 0x64 PUSH1 0x40 MLOAD PUSH3 0x461BCD PUSH1 0xE5 SHL DUP2 MSTORE PUSH1 0x20 PUSH1 0x4 DUP3 ADD MSTORE PUSH1 0x20 PUSH1 0x24 DUP3 ADD MSTORE PUSH32 0x537472696E67733A20686578206C656E67746820696E73756666696369656E74 PUSH1 0x44 DUP3 ADD MSTORE REVERT JUMPDEST SWAP1 SWAP2 PUSH1 0xF DUP2 AND PUSH1 0x10 DUP2 LT ISZERO PUSH3 0x3C6B JUMPI PUSH16 0x181899199A1A9B1B9C1CB0B131B232B3 PUSH1 0x81 SHL SWAP1 BYTE PUSH3 0x3C3F DUP5 DUP7 PUSH3 0x3B56 JUMP JUMPDEST MSTORE8 PUSH1 0x4 SHR SWAP2 DUP1 ISZERO PUSH3 0x3C56 JUMPI PUSH1 0x0 NOT ADD SWAP1 PUSH3 0x3BB7 JUMP JUMPDEST PUSH1 0x24 PUSH1 0x0 PUSH4 0x4E487B71 PUSH1 0xE0 SHL DUP2 MSTORE PUSH1 0x11 PUSH1 0x4 MSTORE REVERT JUMPDEST PUSH1 0x24 PUSH1 0x0 PUSH4 0x4E487B71 PUSH1 0xE0 SHL DUP2 MSTORE PUSH1 0x32 PUSH1 0x4 MSTORE REVERT JUMPDEST SWAP1 DUP1 PUSH1 0x20 SWAP4 SWAP3 DUP2 DUP5 MSTORE DUP5 DUP5 ADD CALLDATACOPY PUSH1 0x0 DUP3 DUP3 ADD DUP5 ADD MSTORE PUSH1 0x1F ADD PUSH1 0x1F NOT AND ADD ADD SWAP1 JUMP JUMPDEST SWAP3 SWAP2 SWAP3 PUSH3 0x3CAF DUP3 PUSH3 0x3B3A JUMP JUMPDEST SWAP2 PUSH3 0x3CBF PUSH1 0x40 MLOAD SWAP4 DUP5 PUSH3 0x3270 JUMP JUMPDEST DUP3 SWAP5 DUP2 DUP5 MSTORE DUP2 DUP4 ADD GT PUSH3 0x1D JUMPI DUP3 DUP2 PUSH1 0x20 SWAP4 DUP5 PUSH1 0x0 SWAP7 ADD CALLDATACOPY ADD ADD MSTORE JUMP JUMPDEST PUSH1 0xFF PUSH1 0x1 SLOAD AND PUSH3 0x3CEA JUMPI JUMP JUMPDEST PUSH1 0x40 MLOAD PUSH3 0x461BCD PUSH1 0xE5 SHL DUP2 MSTORE PUSH1 0x20 PUSH1 0x4 DUP3 ADD MSTORE PUSH1 0x10 PUSH1 0x24 DUP3 ADD MSTORE PUSH16 0x14185D5CD8589B194E881C185D5CD959 PUSH1 0x82 SHL PUSH1 0x44 DUP3 ADD MSTORE PUSH1 0x64 SWAP1 REVERT JUMPDEST PUSH1 0x2 DUP1 SLOAD EQ PUSH3 0x3D32 JUMPI PUSH1 0x2 DUP1 SSTORE JUMP JUMPDEST PUSH1 0x40 MLOAD PUSH3 0x461BCD PUSH1 0xE5 SHL DUP2 MSTORE PUSH1 0x20 PUSH1 0x4 DUP3 ADD MSTORE PUSH1 0x1F PUSH1 0x24 DUP3 ADD MSTORE PUSH32 0x5265656E7472616E637947756172643A207265656E7472616E742063616C6C00 PUSH1 0x44 DUP3 ADD MSTORE PUSH1 0x64 SWAP1 REVERT JUMPDEST SWAP2 SWAP1 DUP3 SUB SWAP2 DUP3 GT PUSH3 0x3B16 JUMPI JUMP JUMPDEST RETURNDATASIZE ISZERO PUSH3 0x3DB5 JUMPI RETURNDATASIZE SWAP1 PUSH3 0x3D99 DUP3 PUSH3 0x3B3A JUMP JUMPDEST SWAP2 PUSH3 0x3DA9 PUSH1 0x40 MLOAD SWAP4 DUP5 PUSH3 0x3270 JUMP JUMPDEST DUP3 MSTORE RETURNDATASIZE PUSH1 0x0 PUSH1 0x20 DUP5 ADD RETURNDATACOPY JUMP JUMPDEST PUSH1 0x60 SWAP1 JUMP JUMPDEST PUSH1 0x40 MLOAD PUSH4 0xA9059CBB PUSH1 0xE0 SHL PUSH1 0x20 DUP1 DUP4 ADD SWAP2 DUP3 MSTORE PUSH1 0x1 PUSH1 0x1 PUSH1 0xA0 SHL SUB SWAP5 SWAP1 SWAP5 AND PUSH1 0x24 DUP4 ADD MSTORE PUSH1 0x44 DUP1 DUP4 ADD SWAP6 SWAP1 SWAP6 MSTORE SWAP4 DUP2 MSTORE SWAP2 SWAP3 SWAP2 SWAP1 PUSH3 0x3DFB PUSH1 0x64 DUP4 PUSH3 0x3270 JUMP JUMPDEST PUSH1 0x40 DUP1 MLOAD SWAP1 DUP2 ADD SWAP3 SWAP1 SWAP2 PUSH1 0x1 PUSH1 0x1 PUSH1 0xA0 SHL SUB AND SWAP1 PUSH1 0x1 PUSH1 0x1 PUSH1 0x40 SHL SUB DUP5 GT DUP4 DUP6 LT OR PUSH3 0x322A JUMPI PUSH3 0x3E6F SWAP4 PUSH1 0x40 MSTORE DUP6 DUP4 MSTORE PUSH32 0x5361666545524332303A206C6F772D6C6576656C2063616C6C206661696C6564 DUP7 DUP5 ADD MSTORE PUSH1 0x0 DUP1 SWAP6 DUP2 SWAP3 MLOAD SWAP1 DUP3 DUP6 GAS CALL PUSH3 0x3E68 PUSH3 0x3D85 JUMP JUMPDEST SWAP2 PUSH3 0x3F0A JUMP JUMPDEST DUP1 MLOAD SWAP2 DUP3 ISZERO SWAP2 DUP5 DUP4 ISZERO PUSH3 0x3EE3 JUMPI JUMPDEST POP POP POP SWAP1 POP ISZERO PUSH3 0x3E8C JUMPI POP JUMP JUMPDEST PUSH1 0x84 SWAP1 PUSH1 0x40 MLOAD SWAP1 PUSH3 0x461BCD PUSH1 0xE5 SHL DUP3 MSTORE PUSH1 0x4 DUP3 ADD MSTORE PUSH1 0x2A PUSH1 0x24 DUP3 ADD MSTORE PUSH32 0x5361666545524332303A204552433230206F7065726174696F6E20646964206E PUSH1 0x44 DUP3 ADD MSTORE PUSH10 0x1BDD081CDD58D8D95959 PUSH1 0xB2 SHL PUSH1 0x64 DUP3 ADD MSTORE REVERT JUMPDEST SWAP2 SWAP4 DUP2 DUP1 SWAP5 POP ADD SUB SLT PUSH3 0x4FE JUMPI DUP3 ADD MLOAD SWAP1 DUP2 ISZERO ISZERO DUP3 SUB PUSH3 0x306 JUMPI POP DUP1 CODESIZE DUP1 DUP5 PUSH3 0x3E7E JUMP JUMPDEST SWAP2 SWAP3 SWAP1 ISZERO PUSH3 0x3F6F JUMPI POP DUP2 MLOAD ISZERO PUSH3 0x3F20 JUMPI POP SWAP1 JUMP JUMPDEST EXTCODESIZE ISZERO PUSH3 0x3F2A JUMPI SWAP1 JUMP JUMPDEST PUSH1 0x40 MLOAD PUSH3 0x461BCD PUSH1 0xE5 SHL DUP2 MSTORE PUSH1 0x20 PUSH1 0x4 DUP3 ADD MSTORE PUSH1 0x1D PUSH1 0x24 DUP3 ADD MSTORE PUSH32 0x416464726573733A2063616C6C20746F206E6F6E2D636F6E7472616374000000 PUSH1 0x44 DUP3 ADD MSTORE PUSH1 0x64 SWAP1 REVERT JUMPDEST DUP3 MLOAD SWAP1 SWAP2 POP ISZERO PUSH3 0x3F83 JUMPI POP DUP1 MLOAD SWAP1 PUSH1 0x20 ADD REVERT JUMPDEST PUSH1 0x40 MLOAD PUSH3 0x461BCD PUSH1 0xE5 SHL DUP2 MSTORE PUSH1 0x20 PUSH1 0x4 DUP3 ADD MSTORE SWAP1 DUP2 SWAP1 PUSH3 0x3628 SWAP1 PUSH1 0x24 DUP4 ADD SWAP1 PUSH3 0x313B JUMP JUMPDEST SWAP2 SWAP1 DUP2 LT ISZERO PUSH3 0x319E JUMPI PUSH1 0x5 SHL ADD SWAP1 JUMP JUMPDEST CALLDATALOAD PUSH1 0x1 PUSH1 0x1 PUSH1 0xA0 SHL SUB DUP2 AND DUP2 SUB PUSH3 0x1D JUMPI SWAP1 JUMP JUMPDEST PUSH1 0x1 PUSH1 0x1 PUSH1 0x40 SHL SUB DUP2 GT PUSH3 0x322A JUMPI PUSH1 0x5 SHL PUSH1 0x20 ADD SWAP1 JUMP JUMPDEST DUP1 MLOAD DUP3 LT ISZERO PUSH3 0x319E JUMPI PUSH1 0x20 SWAP2 PUSH1 0x5 SHL ADD ADD SWAP1 JUMP JUMPDEST SWAP1 PUSH3 0x4008 DUP3 PUSH3 0x3FCF JUMP JUMPDEST PUSH3 0x4017 PUSH1 0x40 MLOAD SWAP2 DUP3 PUSH3 0x3270 JUMP JUMPDEST DUP3 DUP2 MSTORE DUP1 SWAP3 PUSH3 0x402A PUSH1 0x1F NOT SWAP2 PUSH3 0x3FCF JUMP JUMPDEST ADD SWAP1 PUSH1 0x20 CALLDATASIZE SWAP2 ADD CALLDATACOPY JUMP JUMPDEST SWAP1 PUSH3 0x4040 DUP3 PUSH3 0x3FCF JUMP JUMPDEST PUSH3 0x404F PUSH1 0x40 MLOAD SWAP2 DUP3 PUSH3 0x3270 JUMP JUMPDEST DUP3 DUP2 MSTORE DUP1 SWAP3 PUSH3 0x4062 PUSH1 0x1F NOT SWAP2 PUSH3 0x3FCF JUMP JUMPDEST ADD SWAP1 PUSH1 0x0 JUMPDEST DUP3 DUP2 LT PUSH3 0x4074 JUMPI POP POP POP JUMP JUMPDEST DUP1 PUSH1 0x60 PUSH1 0x20 DUP1 SWAP4 DUP6 ADD ADD MSTORE ADD PUSH3 0x4067 JUMP INVALID PUSH2 0x160 DUP1 PUSH1 0x40 MSTORE CALLVALUE PUSH3 0x7CD JUMPI PUSH3 0x201C DUP1 CODESIZE SUB DUP1 SWAP2 PUSH3 0x21 DUP3 DUP6 PUSH3 0x7D2 JUMP JUMPDEST DUP4 CODECOPY DUP2 ADD PUSH1 0xA0 DUP3 DUP3 SUB SLT PUSH3 0x7CD JUMPI DUP2 MLOAD PUSH1 0x1 PUSH1 0x1 PUSH1 0x40 SHL SUB DUP2 GT PUSH3 0x7CD JUMPI DUP2 PUSH3 0x4F SWAP2 DUP5 ADD PUSH3 0x81B JUMP JUMPDEST PUSH1 0x20 DUP4 ADD MLOAD SWAP1 SWAP3 SWAP1 PUSH1 0x1 PUSH1 0x1 PUSH1 0x40 SHL SUB DUP2 GT PUSH3 0x7CD JUMPI DUP3 PUSH3 0x74 SWAP2 DUP4 ADD PUSH3 0x81B JUMP JUMPDEST PUSH1 0x40 DUP3 ADD MLOAD PUSH1 0x60 DUP4 ADD MLOAD SWAP4 SWAP1 SWAP3 SWAP1 PUSH1 0x1 PUSH1 0x1 PUSH1 0xA0 SHL SUB DUP6 AND DUP6 SUB PUSH3 0x7CD JUMPI PUSH1 0x80 DUP3 ADD MLOAD PUSH1 0x1 PUSH1 0x1 PUSH1 0x40 SHL SUB DUP2 GT PUSH3 0x7CD JUMPI PUSH3 0xB3 SWAP3 ADD PUSH3 0x81B JUMP JUMPDEST PUSH1 0x40 DUP1 MLOAD SWAP2 SWAP6 SWAP2 SWAP1 DUP2 ADD PUSH1 0x1 PUSH1 0x1 PUSH1 0x40 SHL SUB DUP2 GT DUP3 DUP3 LT OR PUSH3 0x560 JUMPI PUSH1 0x40 MSTORE PUSH1 0x1 DUP2 MSTORE PUSH1 0x31 PUSH1 0xF8 SHL PUSH1 0x20 DUP3 ADD MSTORE DUP2 MLOAD PUSH1 0x1 PUSH1 0x1 PUSH1 0x40 SHL SUB DUP2 GT PUSH3 0x560 JUMPI PUSH1 0x3 SLOAD PUSH1 0x1 DUP2 DUP2 SHR SWAP2 AND DUP1 ISZERO PUSH3 0x7C2 JUMPI JUMPDEST PUSH1 0x20 DUP3 LT EQ PUSH3 0x53F JUMPI PUSH1 0x1F DUP2 GT PUSH3 0x75C JUMPI JUMPDEST POP DUP1 PUSH1 0x20 PUSH1 0x1F DUP3 GT PUSH1 0x1 EQ PUSH3 0x6D2 JUMPI PUSH1 0x0 SWAP2 PUSH3 0x6C6 JUMPI JUMPDEST POP DUP2 PUSH1 0x1 SHL SWAP2 PUSH1 0x0 NOT SWAP1 PUSH1 0x3 SHL SHR NOT AND OR PUSH1 0x3 SSTORE JUMPDEST DUP3 MLOAD PUSH1 0x1 PUSH1 0x1 PUSH1 0x40 SHL SUB DUP2 GT PUSH3 0x560 JUMPI PUSH1 0x4 SLOAD PUSH1 0x1 DUP2 DUP2 SHR SWAP2 AND DUP1 ISZERO PUSH3 0x6BB JUMPI JUMPDEST PUSH1 0x20 DUP3 LT EQ PUSH3 0x53F JUMPI PUSH1 0x1F DUP2 GT PUSH3 0x651 JUMPI JUMPDEST POP DUP1 PUSH1 0x20 PUSH1 0x1F DUP3 GT PUSH1 0x1 EQ PUSH3 0x5C7 JUMPI PUSH1 0x0 SWAP2 PUSH3 0x5BB JUMPI JUMPDEST POP DUP2 PUSH1 0x1 SHL SWAP2 PUSH1 0x0 NOT SWAP1 PUSH1 0x3 SHL SHR NOT AND OR PUSH1 0x4 SSTORE JUMPDEST PUSH3 0x1B6 DUP3 PUSH3 0x8BF JUMP JUMPDEST PUSH2 0x120 MSTORE PUSH3 0x1C5 DUP2 PUSH3 0xA64 JUMP JUMPDEST PUSH2 0x140 MSTORE DUP2 MLOAD PUSH1 0x20 DUP4 ADD KECCAK256 SWAP1 DUP2 PUSH1 0xE0 MSTORE PUSH1 0x20 DUP2 MLOAD SWAP2 ADD KECCAK256 DUP1 PUSH2 0x100 MSTORE CHAINID PUSH1 0xA0 MSTORE PUSH1 0x40 MLOAD SWAP2 PUSH32 0x8B73C3C69BB8FE3D512ECC4CF759CC79239F7B179B0FFACAA9A75D522B39400F PUSH1 0x20 DUP5 ADD MSTORE PUSH1 0x40 DUP4 ADD MSTORE PUSH1 0x60 DUP3 ADD MSTORE CHAINID PUSH1 0x80 DUP3 ADD MSTORE ADDRESS PUSH1 0xA0 DUP3 ADD MSTORE PUSH1 0xA0 DUP2 MSTORE DUP1 PUSH1 0xC0 DUP2 ADD LT PUSH1 0x1 DUP1 PUSH1 0x40 SHL SUB PUSH1 0xC0 DUP4 ADD GT OR PUSH3 0x560 JUMPI PUSH1 0xC0 DUP2 ADD PUSH1 0x40 MSTORE DUP1 MLOAD PUSH1 0x20 DUP3 ADD KECCAK256 PUSH1 0x80 MSTORE ADDRESS PUSH1 0xC0 MSTORE PUSH3 0x261 CALLER PUSH3 0x876 JUMP JUMPDEST PUSH1 0x1 PUSH1 0x1 PUSH1 0xA0 SHL SUB DUP6 AND ISZERO PUSH3 0x5A7 JUMPI POP PUSH1 0x3 SWAP1 MLOAD LT SWAP1 DUP2 ISZERO PUSH3 0x59A JUMPI JUMPDEST POP PUSH3 0x588 JUMPI DUP1 ISZERO PUSH3 0x576 JUMPI DUP3 MLOAD PUSH1 0x1 PUSH1 0x1 PUSH1 0x40 SHL SUB DUP2 GT PUSH3 0x560 JUMPI PUSH1 0xA SLOAD PUSH1 0x1 DUP2 DUP2 SHR SWAP2 AND DUP1 ISZERO PUSH3 0x555 JUMPI JUMPDEST PUSH1 0x20 DUP3 LT EQ PUSH3 0x53F JUMPI PUSH1 0x1F DUP2 GT PUSH3 0x4E6 JUMPI JUMPDEST POP PUSH1 0x20 PUSH1 0x1F DUP3 GT PUSH1 0x1 EQ PUSH3 0x46D JUMPI DUP2 SWAP3 SWAP4 SWAP5 PUSH1 0x0 SWAP3 PUSH3 0x461 JUMPI JUMPDEST POP POP DUP2 PUSH1 0x1 SHL SWAP2 PUSH1 0x0 NOT SWAP1 PUSH1 0x3 SHL SHR NOT AND OR PUSH1 0xA SSTORE JUMPDEST CALLER ISZERO PUSH3 0x41C JUMPI PUSH1 0x2 SLOAD DUP2 DUP2 ADD DUP1 SWAP2 GT PUSH3 0x406 JUMPI PUSH1 0x2 SSTORE CALLER PUSH1 0x0 MSTORE PUSH1 0x0 PUSH1 0x20 MSTORE PUSH1 0x40 PUSH1 0x0 KECCAK256 DUP2 DUP2 SLOAD ADD SWAP1 SSTORE PUSH1 0x40 MLOAD SWAP1 DUP2 MSTORE PUSH1 0x0 PUSH32 0xDDF252AD1BE2C89B69C2B068FC378DAA952BA7F163C4A11628F55A4DF523B3EF PUSH1 0x20 CALLER SWAP4 LOG3 PUSH1 0x9 SLOAD CALLER PUSH1 0x1 PUSH1 0x1 PUSH1 0xA0 SHL SUB SWAP1 SWAP2 AND SUB PUSH3 0x3C2 JUMPI PUSH3 0x370 SWAP1 PUSH3 0x876 JUMP JUMPDEST PUSH1 0x40 MLOAD PUSH2 0x1440 SWAP1 DUP2 PUSH3 0xBBC DUP3 CODECOPY PUSH1 0x80 MLOAD DUP2 PUSH2 0x118B ADD MSTORE PUSH1 0xA0 MLOAD DUP2 PUSH2 0x1257 ADD MSTORE PUSH1 0xC0 MLOAD DUP2 PUSH2 0x1155 ADD MSTORE PUSH1 0xE0 MLOAD DUP2 PUSH2 0x11DA ADD MSTORE PUSH2 0x100 MLOAD DUP2 PUSH2 0x1200 ADD MSTORE PUSH2 0x120 MLOAD DUP2 PUSH2 0x6A8 ADD MSTORE PUSH2 0x140 MLOAD DUP2 PUSH2 0x6D2 ADD MSTORE RETURN JUMPDEST PUSH1 0x64 PUSH1 0x40 MLOAD PUSH3 0x461BCD PUSH1 0xE5 SHL DUP2 MSTORE PUSH1 0x20 PUSH1 0x4 DUP3 ADD MSTORE PUSH1 0x20 PUSH1 0x24 DUP3 ADD MSTORE PUSH32 0x4F776E61626C653A2063616C6C6572206973206E6F7420746865206F776E6572 PUSH1 0x44 DUP3 ADD MSTORE REVERT JUMPDEST PUSH4 0x4E487B71 PUSH1 0xE0 SHL PUSH1 0x0 MSTORE PUSH1 0x11 PUSH1 0x4 MSTORE PUSH1 0x24 PUSH1 0x0 REVERT JUMPDEST PUSH1 0x40 MLOAD PUSH3 0x461BCD PUSH1 0xE5 SHL DUP2 MSTORE PUSH1 0x20 PUSH1 0x4 DUP3 ADD MSTORE PUSH1 0x1F PUSH1 0x24 DUP3 ADD MSTORE PUSH32 0x45524332303A206D696E7420746F20746865207A65726F206164647265737300 PUSH1 0x44 DUP3 ADD MSTORE PUSH1 0x64 SWAP1 REVERT JUMPDEST ADD MLOAD SWAP1 POP CODESIZE DUP1 PUSH3 0x2E0 JUMP JUMPDEST PUSH1 0xA PUSH1 0x0 SWAP1 DUP2 MSTORE PUSH1 0x0 DUP1 MLOAD PUSH1 0x20 PUSH3 0x1FFC DUP4 CODECOPY DUP2 MLOAD SWAP2 MSTORE SWAP2 SWAP1 PUSH1 0x1F NOT DUP5 AND SWAP1 JUMPDEST DUP2 DUP2 LT PUSH3 0x4CD JUMPI POP SWAP6 DUP4 PUSH1 0x1 SWAP6 SWAP7 SWAP8 LT PUSH3 0x4B3 JUMPI JUMPDEST POP POP POP DUP2 SHL ADD PUSH1 0xA SSTORE PUSH3 0x2F6 JUMP JUMPDEST ADD MLOAD PUSH1 0x0 NOT PUSH1 0xF8 DUP5 PUSH1 0x3 SHL AND SHR NOT AND SWAP1 SSTORE CODESIZE DUP1 DUP1 PUSH3 0x4A4 JUMP JUMPDEST SWAP2 SWAP3 PUSH1 0x20 PUSH1 0x1 DUP2 SWAP3 DUP7 DUP12 ADD MLOAD DUP2 SSTORE ADD SWAP5 ADD SWAP3 ADD PUSH3 0x48D JUMP JUMPDEST PUSH1 0xA PUSH1 0x0 MSTORE PUSH1 0x0 DUP1 MLOAD PUSH1 0x20 PUSH3 0x1FFC DUP4 CODECOPY DUP2 MLOAD SWAP2 MSTORE PUSH1 0x1F DUP4 ADD PUSH1 0x5 SHR DUP2 ADD SWAP2 PUSH1 0x20 DUP5 LT PUSH3 0x534 JUMPI JUMPDEST PUSH1 0x1F ADD PUSH1 0x5 SHR ADD SWAP1 JUMPDEST DUP2 DUP2 LT PUSH3 0x527 JUMPI POP PUSH3 0x2C4 JUMP JUMPDEST PUSH1 0x0 DUP2 SSTORE PUSH1 0x1 ADD PUSH3 0x518 JUMP JUMPDEST SWAP1 SWAP2 POP DUP2 SWAP1 PUSH3 0x50F JUMP JUMPDEST PUSH4 0x4E487B71 PUSH1 0xE0 SHL PUSH1 0x0 MSTORE PUSH1 0x22 PUSH1 0x4 MSTORE PUSH1 0x24 PUSH1 0x0 REVERT JUMPDEST SWAP1 PUSH1 0x7F AND SWAP1 PUSH3 0x2B0 JUMP JUMPDEST PUSH4 0x4E487B71 PUSH1 0xE0 SHL PUSH1 0x0 MSTORE PUSH1 0x41 PUSH1 0x4 MSTORE PUSH1 0x24 PUSH1 0x0 REVERT JUMPDEST PUSH1 0x40 MLOAD PUSH4 0xC16F3A93 PUSH1 0xE0 SHL DUP2 MSTORE PUSH1 0x4 SWAP1 REVERT JUMPDEST PUSH1 0x40 MLOAD PUSH4 0x94322419 PUSH1 0xE0 SHL DUP2 MSTORE PUSH1 0x4 SWAP1 REVERT JUMPDEST PUSH1 0x3 SWAP2 POP MLOAD LT CODESIZE PUSH3 0x280 JUMP JUMPDEST PUSH1 0xC0 PUSH1 0x4 SWAP2 PUSH4 0xD92E233D PUSH1 0xE0 SHL DUP3 DUP3 ADD MSTORE ADD REVERT JUMPDEST SWAP1 POP DUP5 ADD MLOAD CODESIZE PUSH3 0x196 JUMP JUMPDEST PUSH1 0x4 PUSH1 0x0 SWAP1 DUP2 MSTORE SWAP3 POP PUSH32 0x8A35ACFBC15FF81A39AE7D344FD709F28E8600B4AA8C65C6B64BFE7FE36BD19B SWAP1 JUMPDEST PUSH1 0x1F NOT DUP4 AND DUP5 LT PUSH3 0x638 JUMPI PUSH1 0x1 SWAP4 POP DUP3 PUSH1 0x1F NOT DUP2 AND LT PUSH3 0x61E JUMPI JUMPDEST POP POP DUP2 SHL ADD PUSH1 0x4 SSTORE PUSH3 0x1AB JUMP JUMPDEST DUP7 ADD MLOAD PUSH1 0x0 NOT PUSH1 0xF8 DUP5 PUSH1 0x3 SHL AND SHR NOT AND SWAP1 SSTORE CODESIZE DUP1 PUSH3 0x610 JUMP JUMPDEST DUP7 DUP2 ADD MLOAD DUP3 SSTORE PUSH1 0x20 SWAP4 DUP5 ADD SWAP4 PUSH1 0x1 SWAP1 SWAP3 ADD SWAP2 ADD PUSH3 0x5F3 JUMP JUMPDEST PUSH1 0x4 PUSH1 0x0 MSTORE PUSH32 0x8A35ACFBC15FF81A39AE7D344FD709F28E8600B4AA8C65C6B64BFE7FE36BD19B PUSH1 0x1F DUP4 ADD PUSH1 0x5 SHR DUP2 ADD SWAP2 PUSH1 0x20 DUP5 LT PUSH3 0x6B0 JUMPI JUMPDEST PUSH1 0x1F ADD PUSH1 0x5 SHR ADD SWAP1 JUMPDEST DUP2 DUP2 LT PUSH3 0x6A3 JUMPI POP PUSH3 0x17D JUMP JUMPDEST PUSH1 0x0 DUP2 SSTORE PUSH1 0x1 ADD PUSH3 0x694 JUMP JUMPDEST SWAP1 SWAP2 POP DUP2 SWAP1 PUSH3 0x68B JUMP JUMPDEST SWAP1 PUSH1 0x7F AND SWAP1 PUSH3 0x169 JUMP JUMPDEST SWAP1 POP DUP4 ADD MLOAD CODESIZE PUSH3 0x131 JUMP JUMPDEST PUSH1 0x3 PUSH1 0x0 SWAP1 DUP2 MSTORE SWAP3 POP PUSH32 0xC2575A0E9E593C00F959F8C92F12DB2869C3395A3B0502D05E2516446F71F85B SWAP1 JUMPDEST PUSH1 0x1F NOT DUP4 AND DUP5 LT PUSH3 0x743 JUMPI PUSH1 0x1 SWAP4 POP DUP3 PUSH1 0x1F NOT DUP2 AND LT PUSH3 0x729 JUMPI JUMPDEST POP POP DUP2 SHL ADD PUSH1 0x3 SSTORE PUSH3 0x146 JUMP JUMPDEST DUP6 ADD MLOAD PUSH1 0x0 NOT PUSH1 0xF8 DUP5 PUSH1 0x3 SHL AND SHR NOT AND SWAP1 SSTORE CODESIZE DUP1 PUSH3 0x71B JUMP JUMPDEST DUP6 DUP2 ADD MLOAD DUP3 SSTORE PUSH1 0x20 SWAP4 DUP5 ADD SWAP4 PUSH1 0x1 SWAP1 SWAP3 ADD SWAP2 ADD PUSH3 0x6FE JUMP JUMPDEST PUSH1 0x3 PUSH1 0x0 MSTORE PUSH32 0xC2575A0E9E593C00F959F8C92F12DB2869C3395A3B0502D05E2516446F71F85B PUSH1 0x1F DUP4 ADD PUSH1 0x5 SHR DUP2 ADD PUSH1 0x20 DUP5 LT PUSH3 0x7BA JUMPI JUMPDEST PUSH1 0x1F DUP4 ADD PUSH1 0x5 SHR DUP3 ADD DUP2 LT PUSH3 0x7AD JUMPI POP POP PUSH3 0x118 JUMP JUMPDEST PUSH1 0x0 DUP2 SSTORE PUSH1 0x1 ADD PUSH3 0x795 JUMP JUMPDEST POP DUP1 PUSH3 0x795 JUMP JUMPDEST SWAP1 PUSH1 0x7F AND SWAP1 PUSH3 0x104 JUMP JUMPDEST PUSH1 0x0 DUP1 REVERT JUMPDEST PUSH1 0x1F SWAP1 SWAP2 ADD PUSH1 0x1F NOT AND DUP2 ADD SWAP1 PUSH1 0x1 PUSH1 0x1 PUSH1 0x40 SHL SUB DUP3 GT SWAP1 DUP3 LT OR PUSH3 0x560 JUMPI PUSH1 0x40 MSTORE JUMP JUMPDEST PUSH1 0x0 JUMPDEST DUP4 DUP2 LT PUSH3 0x80A JUMPI POP POP PUSH1 0x0 SWAP2 ADD MSTORE JUMP JUMPDEST DUP2 DUP2 ADD MLOAD DUP4 DUP3 ADD MSTORE PUSH1 0x20 ADD PUSH3 0x7F9 JUMP JUMPDEST DUP2 PUSH1 0x1F DUP3 ADD SLT ISZERO PUSH3 0x7CD JUMPI DUP1 MLOAD PUSH1 0x1 PUSH1 0x1 PUSH1 0x40 SHL SUB DUP2 GT PUSH3 0x560 JUMPI PUSH1 0x40 MLOAD SWAP3 PUSH3 0x852 PUSH1 0x1F DUP4 ADD PUSH1 0x1F NOT AND PUSH1 0x20 ADD DUP6 PUSH3 0x7D2 JUMP JUMPDEST DUP2 DUP5 MSTORE PUSH1 0x20 DUP3 DUP5 ADD ADD GT PUSH3 0x7CD JUMPI PUSH3 0x873 SWAP2 PUSH1 0x20 DUP1 DUP6 ADD SWAP2 ADD PUSH3 0x7F6 JUMP JUMPDEST SWAP1 JUMP JUMPDEST PUSH1 0x9 DUP1 SLOAD PUSH1 0x1 PUSH1 0x1 PUSH1 0xA0 SHL SUB SWAP3 DUP4 AND PUSH1 0x1 PUSH1 0x1 PUSH1 0xA0 SHL SUB NOT DUP3 AND DUP2 OR SWAP1 SWAP3 SSTORE SWAP1 SWAP2 AND PUSH32 0x8BE0079C531659141344CD1FD0A4F28419497F9722A3DAAFE3B4186F6B6457E0 PUSH1 0x0 DUP1 LOG3 JUMP JUMPDEST DUP1 MLOAD PUSH1 0x20 SWAP2 SWAP1 DUP3 DUP2 LT ISZERO PUSH3 0x93F JUMPI POP SWAP1 PUSH1 0x1F DUP3 MLOAD GT PUSH3 0x8FD JUMPI DUP1 DUP3 MLOAD SWAP3 ADD MLOAD SWAP1 DUP1 DUP4 LT PUSH3 0x8EE JUMPI POP OR SWAP1 JUMP JUMPDEST DUP3 PUSH1 0x0 NOT SWAP2 SUB PUSH1 0x3 SHL SHL AND OR SWAP1 JUMP JUMPDEST PUSH1 0x44 SWAP1 PUSH3 0x931 SWAP3 PUSH1 0x40 MLOAD SWAP4 DUP5 SWAP3 PUSH4 0x305A27A9 PUSH1 0xE0 SHL DUP5 MSTORE DUP1 PUSH1 0x4 DUP6 ADD MSTORE DUP3 MLOAD SWAP3 DUP4 SWAP2 DUP3 PUSH1 0x24 DUP8 ADD MSTORE DUP7 DUP7 ADD SWAP2 ADD PUSH3 0x7F6 JUMP JUMPDEST PUSH1 0x1F ADD PUSH1 0x1F NOT AND DUP2 ADD SUB ADD SWAP1 REVERT JUMPDEST PUSH1 0x1 PUSH1 0x1 PUSH1 0x40 SHL SUB DUP2 GT PUSH3 0x560 JUMPI PUSH1 0x5 SWAP3 DUP4 SLOAD SWAP3 PUSH1 0x1 SWAP4 DUP5 DUP2 DUP2 SHR SWAP2 AND DUP1 ISZERO PUSH3 0xA59 JUMPI JUMPDEST DUP4 DUP3 LT EQ PUSH3 0x53F JUMPI PUSH1 0x1F DUP2 GT PUSH3 0xA22 JUMPI JUMPDEST POP DUP2 PUSH1 0x1F DUP5 GT PUSH1 0x1 EQ PUSH3 0x9B8 JUMPI POP SWAP3 DUP3 SWAP4 SWAP2 DUP4 SWAP3 PUSH1 0x0 SWAP5 PUSH3 0x9AC JUMPI JUMPDEST POP POP SHL SWAP2 PUSH1 0x0 NOT SWAP1 PUSH1 0x3 SHL SHR NOT AND OR SWAP1 SSTORE PUSH1 0xFF SWAP1 JUMP JUMPDEST ADD MLOAD SWAP3 POP CODESIZE DUP1 PUSH3 0x996 JUMP JUMPDEST SWAP2 SWAP1 DUP4 PUSH1 0x1F NOT DUP2 AND DUP8 PUSH1 0x0 MSTORE DUP5 PUSH1 0x0 KECCAK256 SWAP5 PUSH1 0x0 SWAP1 JUMPDEST DUP9 DUP4 DUP4 LT PUSH3 0xA07 JUMPI POP POP POP LT PUSH3 0x9ED JUMPI JUMPDEST POP POP POP DUP2 SHL ADD SWAP1 SSTORE PUSH1 0xFF SWAP1 JUMP JUMPDEST ADD MLOAD PUSH1 0x0 NOT PUSH1 0xF8 DUP5 PUSH1 0x3 SHL AND SHR NOT AND SWAP1 SSTORE CODESIZE DUP1 DUP1 PUSH3 0x9E0 JUMP JUMPDEST DUP6 DUP8 ADD MLOAD DUP9 SSTORE SWAP1 SWAP7 ADD SWAP6 SWAP5 DUP6 ADD SWAP5 DUP8 SWAP4 POP SWAP1 DUP2 ADD SWAP1 PUSH3 0x9CD JUMP JUMPDEST DUP6 PUSH1 0x0 MSTORE DUP5 PUSH1 0x1F DUP5 PUSH1 0x0 KECCAK256 SWAP3 ADD DUP8 SHR DUP3 ADD SWAP2 PUSH1 0x1F DUP7 ADD DUP9 SHR ADD JUMPDEST DUP3 DUP2 LT PUSH3 0xA4C JUMPI POP POP PUSH3 0x978 JUMP JUMPDEST PUSH1 0x0 DUP2 SSTORE ADD DUP6 SWAP1 PUSH3 0xA3C JUMP JUMPDEST SWAP1 PUSH1 0x7F AND SWAP1 PUSH3 0x965 JUMP JUMPDEST DUP1 MLOAD PUSH1 0x20 SWAP1 DUP2 DUP2 LT ISZERO PUSH3 0xA91 JUMPI POP PUSH1 0x1F DUP3 MLOAD GT PUSH3 0x8FD JUMPI DUP1 DUP3 MLOAD SWAP3 ADD MLOAD SWAP1 DUP1 DUP4 LT PUSH3 0x8EE JUMPI POP OR SWAP1 JUMP JUMPDEST SWAP1 PUSH1 0x1 PUSH1 0x1 PUSH1 0x40 SHL SUB DUP3 GT PUSH3 0x560 JUMPI PUSH1 0x6 SLOAD SWAP3 PUSH1 0x1 SWAP4 DUP5 DUP2 DUP2 SHR SWAP2 AND DUP1 ISZERO PUSH3 0xBB0 JUMPI JUMPDEST DUP4 DUP3 LT EQ PUSH3 0x53F JUMPI PUSH1 0x1F DUP2 GT PUSH3 0xB76 JUMPI JUMPDEST POP DUP2 PUSH1 0x1F DUP5 GT PUSH1 0x1 EQ PUSH3 0xB0A JUMPI POP SWAP3 DUP3 SWAP4 SWAP2 DUP4 SWAP3 PUSH1 0x0 SWAP5 PUSH3 0xAFE JUMPI JUMPDEST POP POP SHL SWAP2 PUSH1 0x0 NOT SWAP1 PUSH1 0x3 SHL SHR NOT AND OR PUSH1 0x6 SSTORE PUSH1 0xFF SWAP1 JUMP JUMPDEST ADD MLOAD SWAP3 POP CODESIZE DUP1 PUSH3 0xAE7 JUMP JUMPDEST SWAP2 SWAP1 DUP4 PUSH1 0x1F NOT DUP2 AND PUSH1 0x6 PUSH1 0x0 MSTORE DUP5 PUSH1 0x0 KECCAK256 SWAP5 PUSH1 0x0 SWAP1 JUMPDEST DUP9 DUP4 DUP4 LT PUSH3 0xB5B JUMPI POP POP POP LT PUSH3 0xB41 JUMPI JUMPDEST POP POP POP DUP2 SHL ADD PUSH1 0x6 SSTORE PUSH1 0xFF SWAP1 JUMP JUMPDEST ADD MLOAD PUSH1 0x0 NOT PUSH1 0xF8 DUP5 PUSH1 0x3 SHL AND SHR NOT AND SWAP1 SSTORE CODESIZE DUP1 DUP1 PUSH3 0xB33 JUMP JUMPDEST DUP6 DUP8 ADD MLOAD DUP9 SSTORE SWAP1 SWAP7 ADD SWAP6 SWAP5 DUP6 ADD SWAP5 DUP8 SWAP4 POP SWAP1 DUP2 ADD SWAP1 PUSH3 0xB20 JUMP JUMPDEST PUSH1 0x6 PUSH1 0x0 MSTORE DUP5 PUSH1 0x1F DUP5 PUSH1 0x0 KECCAK256 SWAP3 ADD PUSH1 0x5 SHR DUP3 ADD SWAP2 PUSH1 0x1F DUP7 ADD PUSH1 0x5 SHR ADD JUMPDEST DUP3 DUP2 LT PUSH3 0xBA3 JUMPI POP POP PUSH3 0xAC9 JUMP JUMPDEST PUSH1 0x0 DUP2 SSTORE ADD DUP6 SWAP1 PUSH3 0xB93 JUMP JUMPDEST SWAP1 PUSH1 0x7F AND SWAP1 PUSH3 0xAB6 JUMP INVALID PUSH1 0x80 PUSH1 0x40 DUP2 DUP2 MSTORE PUSH1 0x4 DUP1 CALLDATASIZE LT ISZERO PUSH2 0x15 JUMPI PUSH1 0x0 DUP1 REVERT JUMPDEST PUSH1 0x0 SWAP3 DUP4 CALLDATALOAD PUSH1 0xE0 SHR SWAP1 DUP2 PUSH4 0x6FDDE03 EQ PUSH2 0xB3A JUMPI POP DUP1 PUSH4 0x95EA7B3 EQ PUSH2 0xB10 JUMPI DUP1 PUSH4 0x18160DDD EQ PUSH2 0xAF1 JUMPI DUP1 PUSH4 0x23B872DD EQ PUSH2 0xA27 JUMPI DUP1 PUSH4 0x313CE567 EQ PUSH2 0xA0B JUMPI DUP1 PUSH4 0x3644E515 EQ PUSH2 0x9E7 JUMPI DUP1 PUSH4 0x39509351 EQ PUSH2 0x980 JUMPI DUP1 PUSH4 0x3C130D90 EQ PUSH2 0x87A JUMPI DUP1 PUSH4 0x70A08231 EQ PUSH2 0x843 JUMPI DUP1 PUSH4 0x715018A6 EQ PUSH2 0x7E6 JUMPI DUP1 PUSH4 0x7ECEBE00 EQ PUSH2 0x7AE JUMPI DUP1 PUSH4 0x84B0196E EQ PUSH2 0x691 JUMPI DUP1 PUSH4 0x8DA5CB5B EQ PUSH2 0x668 JUMPI DUP1 PUSH4 0x95D89B41 EQ PUSH2 0x594 JUMPI DUP1 PUSH4 0xA457C2D7 EQ PUSH2 0x4ED JUMPI DUP1 PUSH4 0xA9059CBB EQ PUSH2 0x4BC JUMPI DUP1 PUSH4 0xC623674F EQ PUSH2 0x3D3 JUMPI DUP1 PUSH4 0xD505ACCF EQ PUSH2 0x21A JUMPI DUP1 PUSH4 0xDD62ED3E EQ PUSH2 0x1CD JUMPI PUSH4 0xF2FDE38B EQ PUSH2 0xFF JUMPI PUSH1 0x0 DUP1 REVERT JUMPDEST CALLVALUE PUSH2 0x1C9 JUMPI PUSH1 0x20 CALLDATASIZE PUSH1 0x3 NOT ADD SLT PUSH2 0x1C9 JUMPI PUSH2 0x118 PUSH2 0xC22 JUMP JUMPDEST SWAP1 PUSH2 0x121 PUSH2 0xCE1 JUMP JUMPDEST PUSH1 0x1 PUSH1 0x1 PUSH1 0xA0 SHL SUB SWAP2 DUP3 AND SWAP3 DUP4 ISZERO PUSH2 0x177 JUMPI POP POP PUSH1 0x9 SLOAD DUP3 PUSH12 0xFFFFFFFFFFFFFFFFFFFFFFFF PUSH1 0xA0 SHL DUP3 AND OR PUSH1 0x9 SSTORE AND PUSH32 0x8BE0079C531659141344CD1FD0A4F28419497F9722A3DAAFE3B4186F6B6457E0 DUP4 DUP1 LOG3 DUP1 RETURN JUMPDEST SWAP1 PUSH1 0x20 PUSH1 0x84 SWAP3 MLOAD SWAP2 PUSH3 0x461BCD PUSH1 0xE5 SHL DUP4 MSTORE DUP3 ADD MSTORE PUSH1 0x26 PUSH1 0x24 DUP3 ADD MSTORE PUSH32 0x4F776E61626C653A206E6577206F776E657220697320746865207A65726F2061 PUSH1 0x44 DUP3 ADD MSTORE PUSH6 0x646472657373 PUSH1 0xD0 SHL PUSH1 0x64 DUP3 ADD MSTORE REVERT JUMPDEST DUP3 DUP1 REVERT JUMPDEST POP POP CALLVALUE PUSH2 0x216 JUMPI DUP1 PUSH1 0x3 NOT CALLDATASIZE ADD SLT PUSH2 0x216 JUMPI DUP1 PUSH1 0x20 SWAP3 PUSH2 0x1EB PUSH2 0xC22 JUMP JUMPDEST PUSH2 0x1F3 PUSH2 0xC3D JUMP JUMPDEST PUSH1 0x1 PUSH1 0x1 PUSH1 0xA0 SHL SUB SWAP2 DUP3 AND DUP4 MSTORE PUSH1 0x1 DUP7 MSTORE DUP4 DUP4 KECCAK256 SWAP2 AND DUP3 MSTORE DUP5 MSTORE KECCAK256 SLOAD SWAP1 MLOAD SWAP1 DUP2 MSTORE RETURN JUMPDEST POP DUP1 REVERT JUMPDEST POP DUP3 SWAP1 CALLVALUE PUSH2 0x216 JUMPI PUSH1 0xE0 CALLDATASIZE PUSH1 0x3 NOT ADD SLT PUSH2 0x216 JUMPI PUSH2 0x236 PUSH2 0xC22 JUMP JUMPDEST PUSH2 0x23E PUSH2 0xC3D JUMP JUMPDEST SWAP1 PUSH1 0x44 CALLDATALOAD SWAP3 PUSH1 0x64 CALLDATALOAD PUSH1 0x84 CALLDATALOAD PUSH1 0xFF DUP2 AND DUP2 SUB PUSH2 0x3CF JUMPI DUP2 TIMESTAMP GT PUSH2 0x38C JUMPI PUSH1 0x1 DUP1 PUSH1 0xA0 SHL SUB SWAP1 DUP2 DUP6 AND SWAP3 DUP4 DUP10 MSTORE PUSH1 0x7 PUSH1 0x20 MSTORE DUP10 DUP10 KECCAK256 SWAP1 DUP2 SLOAD SWAP2 PUSH1 0x1 DUP4 ADD SWAP1 SSTORE DUP11 MLOAD SWAP1 PUSH1 0x20 DUP3 ADD SWAP3 PUSH32 0x6E71EDAE12B1B97F4D1F60370FEF10105FA2FAAE0126114A169C64845D6126C9 DUP5 MSTORE DUP7 DUP14 DUP5 ADD MSTORE DUP6 DUP11 AND PUSH1 0x60 DUP5 ADD MSTORE DUP11 PUSH1 0x80 DUP5 ADD MSTORE PUSH1 0xA0 DUP4 ADD MSTORE PUSH1 0xC0 DUP3 ADD MSTORE PUSH1 0xC0 DUP2 MSTORE PUSH1 0xE0 DUP2 ADD DUP2 DUP2 LT PUSH8 0xFFFFFFFFFFFFFFFF DUP3 GT OR PUSH2 0x379 JUMPI DUP12 MSTORE MLOAD SWAP1 KECCAK256 PUSH2 0x321 SWAP2 PUSH2 0x319 SWAP2 PUSH2 0x2F3 PUSH2 0x1152 JUMP JUMPDEST SWAP1 DUP13 MLOAD SWAP2 PUSH2 0x1901 PUSH1 0xF0 SHL DUP4 MSTORE PUSH1 0x2 DUP4 ADD MSTORE PUSH1 0x22 DUP3 ADD MSTORE PUSH1 0xC4 CALLDATALOAD SWAP2 PUSH1 0x42 PUSH1 0xA4 CALLDATALOAD SWAP3 KECCAK256 PUSH2 0x10C3 JUMP JUMPDEST SWAP2 SWAP1 SWAP2 PUSH2 0xFA9 JUMP JUMPDEST AND SUB PUSH2 0x336 JUMPI POP PUSH2 0x333 SWAP4 SWAP5 POP PUSH2 0xEA7 JUMP JUMPDEST DUP1 RETURN JUMPDEST PUSH1 0x64 SWAP1 PUSH1 0x20 DUP8 MLOAD SWAP2 PUSH3 0x461BCD PUSH1 0xE5 SHL DUP4 MSTORE DUP3 ADD MSTORE PUSH1 0x1E PUSH1 0x24 DUP3 ADD MSTORE PUSH32 0x45524332305065726D69743A20696E76616C6964207369676E61747572650000 PUSH1 0x44 DUP3 ADD MSTORE REVERT JUMPDEST PUSH4 0x4E487B71 PUSH1 0xE0 SHL DUP12 MSTORE PUSH1 0x41 DUP8 MSTORE PUSH1 0x24 DUP12 REVERT JUMPDEST DUP8 MLOAD PUSH3 0x461BCD PUSH1 0xE5 SHL DUP2 MSTORE PUSH1 0x20 DUP2 DUP6 ADD MSTORE PUSH1 0x1D PUSH1 0x24 DUP3 ADD MSTORE PUSH32 0x45524332305065726D69743A206578706972656420646561646C696E65000000 PUSH1 0x44 DUP3 ADD MSTORE PUSH1 0x64 SWAP1 REVERT JUMPDEST DUP7 DUP1 REVERT JUMPDEST POP POP CALLVALUE PUSH2 0x216 JUMPI DUP2 PUSH1 0x3 NOT CALLDATASIZE ADD SLT PUSH2 0x216 JUMPI DUP1 MLOAD SWAP1 DUP3 PUSH1 0xA SLOAD PUSH2 0x3F5 DUP2 PUSH2 0xC53 JUMP JUMPDEST DUP1 DUP6 MSTORE SWAP2 PUSH1 0x1 SWAP2 DUP1 DUP4 AND SWAP1 DUP2 ISZERO PUSH2 0x494 JUMPI POP PUSH1 0x1 EQ PUSH2 0x437 JUMPI JUMPDEST POP POP POP PUSH2 0x421 DUP3 PUSH2 0x433 SWAP5 SUB DUP4 PUSH2 0xCBF JUMP JUMPDEST MLOAD SWAP2 DUP3 SWAP2 PUSH1 0x20 DUP4 MSTORE PUSH1 0x20 DUP4 ADD SWAP1 PUSH2 0xBE2 JUMP JUMPDEST SUB SWAP1 RETURN JUMPDEST SWAP5 POP PUSH1 0xA DUP6 MSTORE PUSH32 0xC65A7BB8D6351C1CF70C95A316CC6A92839C986682D98BC35F958F4883F9D2A8 JUMPDEST DUP3 DUP7 LT PUSH2 0x47C JUMPI POP POP POP PUSH2 0x421 DUP3 PUSH1 0x20 PUSH2 0x433 SWAP6 DUP3 ADD ADD SWAP5 PUSH2 0x40F JUMP JUMPDEST DUP1 SLOAD PUSH1 0x20 DUP8 DUP8 ADD DUP2 ADD SWAP2 SWAP1 SWAP2 MSTORE SWAP1 SWAP6 ADD SWAP5 DUP2 ADD PUSH2 0x45F JUMP JUMPDEST PUSH2 0x433 SWAP8 POP DUP7 SWAP4 POP PUSH1 0x20 SWAP3 POP PUSH2 0x421 SWAP5 SWAP2 POP PUSH1 0xFF NOT AND DUP3 DUP5 ADD MSTORE ISZERO ISZERO PUSH1 0x5 SHL DUP3 ADD ADD SWAP5 PUSH2 0x40F JUMP JUMPDEST POP POP CALLVALUE PUSH2 0x216 JUMPI DUP1 PUSH1 0x3 NOT CALLDATASIZE ADD SLT PUSH2 0x216 JUMPI PUSH1 0x20 SWAP1 PUSH2 0x4E6 PUSH2 0x4DC PUSH2 0xC22 JUMP JUMPDEST PUSH1 0x24 CALLDATALOAD SWAP1 CALLER PUSH2 0xD39 JUMP JUMPDEST MLOAD PUSH1 0x1 DUP2 MSTORE RETURN JUMPDEST POP DUP3 CALLVALUE PUSH2 0x591 JUMPI DUP3 PUSH1 0x3 NOT CALLDATASIZE ADD SLT PUSH2 0x591 JUMPI PUSH2 0x507 PUSH2 0xC22 JUMP JUMPDEST SWAP2 DUP4 PUSH1 0x24 CALLDATALOAD SWAP3 CALLER DUP2 MSTORE PUSH1 0x1 PUSH1 0x20 MSTORE DUP2 DUP2 KECCAK256 PUSH1 0x1 DUP1 PUSH1 0xA0 SHL SUB DUP7 AND DUP3 MSTORE PUSH1 0x20 MSTORE KECCAK256 SLOAD SWAP1 DUP3 DUP3 LT PUSH2 0x540 JUMPI PUSH1 0x20 DUP6 PUSH2 0x4E6 DUP6 DUP6 SUB DUP8 CALLER PUSH2 0xEA7 JUMP JUMPDEST PUSH1 0x84 SWAP1 PUSH1 0x20 DUP7 MLOAD SWAP2 PUSH3 0x461BCD PUSH1 0xE5 SHL DUP4 MSTORE DUP3 ADD MSTORE PUSH1 0x25 PUSH1 0x24 DUP3 ADD MSTORE PUSH32 0x45524332303A2064656372656173656420616C6C6F77616E63652062656C6F77 PUSH1 0x44 DUP3 ADD MSTORE PUSH5 0x207A65726F PUSH1 0xD8 SHL PUSH1 0x64 DUP3 ADD MSTORE REVERT JUMPDEST DUP1 REVERT JUMPDEST POP SWAP1 CALLVALUE PUSH2 0x1C9 JUMPI DUP3 PUSH1 0x3 NOT CALLDATASIZE ADD SLT PUSH2 0x1C9 JUMPI DUP1 MLOAD SWAP2 DUP4 DUP2 SLOAD SWAP1 PUSH2 0x5B6 DUP3 PUSH2 0xC53 JUMP JUMPDEST DUP1 DUP7 MSTORE SWAP3 PUSH1 0x1 SWAP3 DUP1 DUP5 AND SWAP1 DUP2 ISZERO PUSH2 0x63D JUMPI POP PUSH1 0x1 EQ PUSH2 0x5E1 JUMPI JUMPDEST PUSH2 0x433 DUP7 DUP7 PUSH2 0x421 DUP3 DUP12 SUB DUP4 PUSH2 0xCBF JUMP JUMPDEST DUP2 MSTORE SWAP5 POP PUSH32 0x8A35ACFBC15FF81A39AE7D344FD709F28E8600B4AA8C65C6B64BFE7FE36BD19B JUMPDEST DUP3 DUP7 LT PUSH2 0x625 JUMPI POP POP POP PUSH2 0x421 DUP3 PUSH1 0x20 PUSH2 0x433 SWAP6 DUP3 ADD ADD SWAP5 CODESIZE PUSH2 0x5D0 JUMP JUMPDEST DUP1 SLOAD PUSH1 0x20 DUP8 DUP8 ADD DUP2 ADD SWAP2 SWAP1 SWAP2 MSTORE SWAP1 SWAP6 ADD SWAP5 DUP2 ADD PUSH2 0x607 JUMP JUMPDEST SWAP1 POP PUSH2 0x433 SWAP8 POP DUP7 SWAP4 POP PUSH1 0x20 SWAP3 POP PUSH2 0x421 SWAP5 SWAP2 POP PUSH1 0xFF NOT AND DUP3 DUP5 ADD MSTORE ISZERO ISZERO PUSH1 0x5 SHL DUP3 ADD ADD SWAP5 CODESIZE PUSH2 0x5D0 JUMP JUMPDEST POP POP CALLVALUE PUSH2 0x216 JUMPI DUP2 PUSH1 0x3 NOT CALLDATASIZE ADD SLT PUSH2 0x216 JUMPI PUSH1 0x9 SLOAD SWAP1 MLOAD PUSH1 0x1 PUSH1 0x1 PUSH1 0xA0 SHL SUB SWAP1 SWAP2 AND DUP2 MSTORE PUSH1 0x20 SWAP1 RETURN JUMPDEST POP SWAP1 CALLVALUE PUSH2 0x1C9 JUMPI DUP3 PUSH1 0x3 NOT CALLDATASIZE ADD SLT PUSH2 0x1C9 JUMPI PUSH2 0x6CC PUSH32 0x0 PUSH2 0x127D JUMP JUMPDEST SWAP3 PUSH2 0x6F6 PUSH32 0x0 PUSH2 0x1379 JUMP JUMPDEST SWAP1 DUP3 MLOAD SWAP3 PUSH1 0x20 SWAP3 DUP4 DUP6 ADD SWAP6 DUP6 DUP8 LT PUSH8 0xFFFFFFFFFFFFFFFF DUP9 GT OR PUSH2 0x79B JUMPI POP SWAP3 DUP1 PUSH2 0x751 DUP4 DUP9 SWAP7 PUSH2 0x744 SWAP10 DUP12 SWAP10 SWAP7 MSTORE DUP7 DUP7 MSTORE DUP2 MLOAD SWAP10 DUP11 SWAP10 PUSH1 0xF PUSH1 0xF8 SHL DUP12 MSTORE PUSH1 0xE0 DUP7 DUP13 ADD MSTORE PUSH1 0xE0 DUP12 ADD SWAP1 PUSH2 0xBE2 JUMP JUMPDEST SWAP2 DUP10 DUP4 SUB SWAP1 DUP11 ADD MSTORE PUSH2 0xBE2 JUMP JUMPDEST SWAP3 CHAINID PUSH1 0x60 DUP9 ADD MSTORE ADDRESS PUSH1 0x80 DUP9 ADD MSTORE DUP5 PUSH1 0xA0 DUP9 ADD MSTORE DUP7 DUP5 SUB PUSH1 0xC0 DUP9 ADD MSTORE MLOAD SWAP3 DUP4 DUP2 MSTORE ADD SWAP4 SWAP3 JUMPDEST DUP3 DUP2 LT PUSH2 0x784 JUMPI POP POP POP POP SUB SWAP1 RETURN JUMPDEST DUP4 MLOAD DUP6 MSTORE DUP7 SWAP6 POP SWAP4 DUP2 ADD SWAP4 SWAP3 DUP2 ADD SWAP3 PUSH1 0x1 ADD PUSH2 0x775 JUMP JUMPDEST PUSH4 0x4E487B71 PUSH1 0xE0 SHL DUP5 MSTORE PUSH1 0x41 SWAP1 MSTORE PUSH1 0x24 DUP4 REVERT JUMPDEST POP POP CALLVALUE PUSH2 0x216 JUMPI PUSH1 0x20 CALLDATASIZE PUSH1 0x3 NOT ADD SLT PUSH2 0x216 JUMPI PUSH1 0x20 SWAP2 DUP2 SWAP1 PUSH1 0x1 PUSH1 0x1 PUSH1 0xA0 SHL SUB PUSH2 0x7D6 PUSH2 0xC22 JUMP JUMPDEST AND DUP2 MSTORE PUSH1 0x7 DUP5 MSTORE KECCAK256 SLOAD SWAP1 MLOAD SWAP1 DUP2 MSTORE RETURN JUMPDEST DUP4 CALLVALUE PUSH2 0x591 JUMPI DUP1 PUSH1 0x3 NOT CALLDATASIZE ADD SLT PUSH2 0x591 JUMPI PUSH2 0x7FF PUSH2 0xCE1 JUMP JUMPDEST PUSH1 0x9 DUP1 SLOAD PUSH1 0x1 PUSH1 0x1 PUSH1 0xA0 SHL SUB NOT DUP2 AND SWAP1 SWAP2 SSTORE DUP2 SWAP1 PUSH1 0x1 PUSH1 0x1 PUSH1 0xA0 SHL SUB AND PUSH32 0x8BE0079C531659141344CD1FD0A4F28419497F9722A3DAAFE3B4186F6B6457E0 DUP3 DUP1 LOG3 DUP1 RETURN JUMPDEST POP POP CALLVALUE PUSH2 0x216 JUMPI PUSH1 0x20 CALLDATASIZE PUSH1 0x3 NOT ADD SLT PUSH2 0x216 JUMPI PUSH1 0x20 SWAP2 DUP2 SWAP1 PUSH1 0x1 PUSH1 0x1 PUSH1 0xA0 SHL SUB PUSH2 0x86B PUSH2 0xC22 JUMP JUMPDEST AND DUP2 MSTORE DUP1 DUP5 MSTORE KECCAK256 SLOAD SWAP1 MLOAD SWAP1 DUP2 MSTORE RETURN JUMPDEST DUP3 DUP5 CALLVALUE PUSH2 0x591 JUMPI DUP1 PUSH1 0x3 NOT CALLDATASIZE ADD SLT PUSH2 0x591 JUMPI DUP2 MLOAD SWAP2 DUP3 PUSH1 0x20 SWAP3 PUSH7 0x697066733A2F2F PUSH1 0xC8 SHL DUP5 DUP4 ADD MSTORE DUP1 PUSH1 0xA SLOAD SWAP1 PUSH2 0x8B0 DUP3 PUSH2 0xC53 JUMP JUMPDEST SWAP2 PUSH1 0x1 SWAP1 DUP2 DUP2 AND SWAP1 DUP2 ISZERO PUSH2 0x955 JUMPI POP PUSH1 0x1 EQ PUSH2 0x8F0 JUMPI JUMPDEST POP POP POP PUSH2 0x433 SWAP3 SWAP2 PUSH2 0x8E1 SWAP2 SUB PUSH1 0x1F NOT DUP2 ADD DUP7 MSTORE DUP6 PUSH2 0xCBF JUMP JUMPDEST MLOAD SWAP3 DUP3 DUP5 SWAP4 DUP5 MSTORE DUP4 ADD SWAP1 PUSH2 0xBE2 JUMP JUMPDEST DUP7 SWAP6 SWAP5 SWAP4 POP PUSH1 0xA DUP3 MSTORE PUSH32 0xC65A7BB8D6351C1CF70C95A316CC6A92839C986682D98BC35F958F4883F9D2A8 JUMPDEST DUP4 DUP4 LT PUSH2 0x93C JUMPI POP SWAP4 SWAP5 POP SWAP2 SWAP3 POP DUP3 ADD PUSH1 0x27 ADD SWAP1 POP DUP2 PUSH2 0x8E1 PUSH2 0x433 PUSH2 0x8C7 JUMP JUMPDEST DUP1 SLOAD PUSH1 0x27 DUP5 DUP12 ADD ADD MSTORE DUP8 SWAP7 DUP10 SWAP6 POP SWAP1 SWAP3 ADD SWAP2 DUP2 ADD PUSH2 0x91B JUMP JUMPDEST SWAP1 POP PUSH2 0x8E1 SWAP5 POP PUSH1 0x27 SWAP3 POP PUSH2 0x433 SWAP7 SWAP6 SWAP4 SWAP2 POP PUSH1 0xFF NOT AND DUP3 DUP5 ADD MSTORE DUP1 ISZERO ISZERO MUL DUP3 ADD ADD SWAP2 DUP2 SWAP4 SWAP5 PUSH2 0x8C7 JUMP JUMPDEST POP SWAP2 CALLVALUE PUSH2 0x591 JUMPI DUP2 PUSH1 0x3 NOT CALLDATASIZE ADD SLT PUSH2 0x591 JUMPI PUSH2 0x99A PUSH2 0xC22 JUMP JUMPDEST CALLER DUP3 MSTORE PUSH1 0x1 PUSH1 0x20 SWAP1 DUP2 MSTORE DUP4 DUP4 KECCAK256 PUSH1 0x1 PUSH1 0x1 PUSH1 0xA0 SHL SUB DUP4 AND DUP5 MSTORE SWAP1 MSTORE DUP3 DUP3 KECCAK256 SLOAD PUSH1 0x24 CALLDATALOAD DUP2 ADD SWAP3 SWAP1 DUP4 LT PUSH2 0x9D4 JUMPI PUSH1 0x20 DUP5 PUSH2 0x4E6 DUP6 DUP6 CALLER PUSH2 0xEA7 JUMP JUMPDEST PUSH4 0x4E487B71 PUSH1 0xE0 SHL DUP2 MSTORE PUSH1 0x11 DUP6 MSTORE PUSH1 0x24 SWAP1 REVERT JUMPDEST POP POP CALLVALUE PUSH2 0x216 JUMPI DUP2 PUSH1 0x3 NOT CALLDATASIZE ADD SLT PUSH2 0x216 JUMPI PUSH1 0x20 SWAP1 PUSH2 0xA04 PUSH2 0x1152 JUMP JUMPDEST SWAP1 MLOAD SWAP1 DUP2 MSTORE RETURN JUMPDEST POP POP CALLVALUE PUSH2 0x216 JUMPI DUP2 PUSH1 0x3 NOT CALLDATASIZE ADD SLT PUSH2 0x216 JUMPI PUSH1 0x20 SWAP1 MLOAD PUSH1 0x12 DUP2 MSTORE RETURN JUMPDEST POP DUP3 SWAP1 CALLVALUE PUSH2 0x216 JUMPI PUSH1 0x60 CALLDATASIZE PUSH1 0x3 NOT ADD SLT PUSH2 0x216 JUMPI PUSH2 0xA43 PUSH2 0xC22 JUMP JUMPDEST PUSH2 0xA4B PUSH2 0xC3D JUMP JUMPDEST SWAP2 DUP5 PUSH1 0x44 CALLDATALOAD SWAP5 PUSH1 0x1 DUP1 PUSH1 0xA0 SHL SUB DUP5 AND DUP2 MSTORE PUSH1 0x1 PUSH1 0x20 MSTORE DUP2 DUP2 KECCAK256 CALLER DUP3 MSTORE PUSH1 0x20 MSTORE KECCAK256 SLOAD SWAP1 PUSH1 0x0 NOT DUP3 SUB PUSH2 0xA85 JUMPI JUMPDEST PUSH1 0x20 DUP7 PUSH2 0x4E6 DUP8 DUP8 DUP8 PUSH2 0xD39 JUMP JUMPDEST DUP5 DUP3 LT PUSH2 0xAAE JUMPI POP SWAP2 DUP4 SWAP2 PUSH2 0xAA3 PUSH1 0x20 SWAP7 SWAP6 PUSH2 0x4E6 SWAP6 SUB CALLER DUP4 PUSH2 0xEA7 JUMP JUMPDEST SWAP2 SWAP4 SWAP5 DUP2 SWAP4 POP PUSH2 0xA77 JUMP JUMPDEST PUSH1 0x64 SWAP1 PUSH1 0x20 DUP8 MLOAD SWAP2 PUSH3 0x461BCD PUSH1 0xE5 SHL DUP4 MSTORE DUP3 ADD MSTORE PUSH1 0x1D PUSH1 0x24 DUP3 ADD MSTORE PUSH32 0x45524332303A20696E73756666696369656E7420616C6C6F77616E6365000000 PUSH1 0x44 DUP3 ADD MSTORE REVERT JUMPDEST POP POP CALLVALUE PUSH2 0x216 JUMPI DUP2 PUSH1 0x3 NOT CALLDATASIZE ADD SLT PUSH2 0x216 JUMPI PUSH1 0x20 SWAP1 PUSH1 0x2 SLOAD SWAP1 MLOAD SWAP1 DUP2 MSTORE RETURN JUMPDEST POP POP CALLVALUE PUSH2 0x216 JUMPI DUP1 PUSH1 0x3 NOT CALLDATASIZE ADD SLT PUSH2 0x216 JUMPI PUSH1 0x20 SWAP1 PUSH2 0x4E6 PUSH2 0xB30 PUSH2 0xC22 JUMP JUMPDEST PUSH1 0x24 CALLDATALOAD SWAP1 CALLER PUSH2 0xEA7 JUMP JUMPDEST DUP5 SWAP1 DUP5 CALLVALUE PUSH2 0x1C9 JUMPI DUP3 PUSH1 0x3 NOT CALLDATASIZE ADD SLT PUSH2 0x1C9 JUMPI DUP3 PUSH1 0x3 SLOAD PUSH2 0xB5A DUP2 PUSH2 0xC53 JUMP JUMPDEST DUP1 DUP6 MSTORE SWAP2 PUSH1 0x1 SWAP2 DUP1 DUP4 AND SWAP1 DUP2 ISZERO PUSH2 0x494 JUMPI POP PUSH1 0x1 EQ PUSH2 0xB85 JUMPI POP POP POP PUSH2 0x421 DUP3 PUSH2 0x433 SWAP5 SUB DUP4 PUSH2 0xCBF JUMP JUMPDEST SWAP5 POP PUSH1 0x3 DUP6 MSTORE PUSH32 0xC2575A0E9E593C00F959F8C92F12DB2869C3395A3B0502D05E2516446F71F85B JUMPDEST DUP3 DUP7 LT PUSH2 0xBCA JUMPI POP POP POP PUSH2 0x421 DUP3 PUSH1 0x20 PUSH2 0x433 SWAP6 DUP3 ADD ADD SWAP5 PUSH2 0x40F JUMP JUMPDEST DUP1 SLOAD PUSH1 0x20 DUP8 DUP8 ADD DUP2 ADD SWAP2 SWAP1 SWAP2 MSTORE SWAP1 SWAP6 ADD SWAP5 DUP2 ADD PUSH2 0xBAD JUMP JUMPDEST SWAP2 SWAP1 DUP3 MLOAD SWAP3 DUP4 DUP3 MSTORE PUSH1 0x0 JUMPDEST DUP5 DUP2 LT PUSH2 0xC0E JUMPI POP POP DUP3 PUSH1 0x0 PUSH1 0x20 DUP1 SWAP5 SWAP6 DUP5 ADD ADD MSTORE PUSH1 0x1F DUP1 NOT SWAP2 ADD AND ADD ADD SWAP1 JUMP JUMPDEST PUSH1 0x20 DUP2 DUP4 ADD DUP2 ADD MLOAD DUP5 DUP4 ADD DUP3 ADD MSTORE ADD PUSH2 0xBED JUMP JUMPDEST PUSH1 0x4 CALLDATALOAD SWAP1 PUSH1 0x1 PUSH1 0x1 PUSH1 0xA0 SHL SUB DUP3 AND DUP3 SUB PUSH2 0xC38 JUMPI JUMP JUMPDEST PUSH1 0x0 DUP1 REVERT JUMPDEST PUSH1 0x24 CALLDATALOAD SWAP1 PUSH1 0x1 PUSH1 0x1 PUSH1 0xA0 SHL SUB DUP3 AND DUP3 SUB PUSH2 0xC38 JUMPI JUMP JUMPDEST SWAP1 PUSH1 0x1 DUP3 DUP2 SHR SWAP3 AND DUP1 ISZERO PUSH2 0xC83 JUMPI JUMPDEST PUSH1 0x20 DUP4 LT EQ PUSH2 0xC6D JUMPI JUMP JUMPDEST PUSH4 0x4E487B71 PUSH1 0xE0 SHL PUSH1 0x0 MSTORE PUSH1 0x22 PUSH1 0x4 MSTORE PUSH1 0x24 PUSH1 0x0 REVERT JUMPDEST SWAP2 PUSH1 0x7F AND SWAP2 PUSH2 0xC62 JUMP JUMPDEST PUSH1 0x40 DUP2 ADD SWAP1 DUP2 LT PUSH8 0xFFFFFFFFFFFFFFFF DUP3 GT OR PUSH2 0xCA9 JUMPI PUSH1 0x40 MSTORE JUMP JUMPDEST PUSH4 0x4E487B71 PUSH1 0xE0 SHL PUSH1 0x0 MSTORE PUSH1 0x41 PUSH1 0x4 MSTORE PUSH1 0x24 PUSH1 0x0 REVERT JUMPDEST SWAP1 PUSH1 0x1F DUP1 NOT SWAP2 ADD AND DUP2 ADD SWAP1 DUP2 LT PUSH8 0xFFFFFFFFFFFFFFFF DUP3 GT OR PUSH2 0xCA9 JUMPI PUSH1 0x40 MSTORE JUMP JUMPDEST PUSH1 0x9 SLOAD PUSH1 0x1 PUSH1 0x1 PUSH1 0xA0 SHL SUB AND CALLER SUB PUSH2 0xCF5 JUMPI JUMP JUMPDEST PUSH1 0x64 PUSH1 0x40 MLOAD PUSH3 0x461BCD PUSH1 0xE5 SHL DUP2 MSTORE PUSH1 0x20 PUSH1 0x4 DUP3 ADD MSTORE PUSH1 0x20 PUSH1 0x24 DUP3 ADD MSTORE PUSH32 0x4F776E61626C653A2063616C6C6572206973206E6F7420746865206F776E6572 PUSH1 0x44 DUP3 ADD MSTORE REVERT JUMPDEST PUSH1 0x1 PUSH1 0x1 PUSH1 0xA0 SHL SUB SWAP1 DUP2 AND SWAP2 DUP3 ISZERO PUSH2 0xE54 JUMPI AND SWAP2 DUP3 ISZERO PUSH2 0xE03 JUMPI PUSH1 0x0 DUP3 DUP2 MSTORE DUP1 PUSH1 0x20 MSTORE PUSH1 0x40 DUP2 KECCAK256 SLOAD SWAP2 DUP1 DUP4 LT PUSH2 0xDAF JUMPI PUSH1 0x40 DUP3 DUP3 PUSH32 0xDDF252AD1BE2C89B69C2B068FC378DAA952BA7F163C4A11628F55A4DF523B3EF SWAP6 DUP8 PUSH1 0x20 SWAP7 MSTORE DUP3 DUP7 MSTORE SUB DUP3 DUP3 KECCAK256 SSTORE DUP7 DUP2 MSTORE KECCAK256 DUP2 DUP2 SLOAD ADD SWAP1 SSTORE PUSH1 0x40 MLOAD SWAP1 DUP2 MSTORE LOG3 JUMP JUMPDEST PUSH1 0x40 MLOAD PUSH3 0x461BCD PUSH1 0xE5 SHL DUP2 MSTORE PUSH1 0x20 PUSH1 0x4 DUP3 ADD MSTORE PUSH1 0x26 PUSH1 0x24 DUP3 ADD MSTORE PUSH32 0x45524332303A207472616E7366657220616D6F756E7420657863656564732062 PUSH1 0x44 DUP3 ADD MSTORE PUSH6 0x616C616E6365 PUSH1 0xD0 SHL PUSH1 0x64 DUP3 ADD MSTORE PUSH1 0x84 SWAP1 REVERT JUMPDEST PUSH1 0x40 MLOAD PUSH3 0x461BCD PUSH1 0xE5 SHL DUP2 MSTORE PUSH1 0x20 PUSH1 0x4 DUP3 ADD MSTORE PUSH1 0x23 PUSH1 0x24 DUP3 ADD MSTORE PUSH32 0x45524332303A207472616E7366657220746F20746865207A65726F2061646472 PUSH1 0x44 DUP3 ADD MSTORE PUSH3 0x657373 PUSH1 0xE8 SHL PUSH1 0x64 DUP3 ADD MSTORE PUSH1 0x84 SWAP1 REVERT JUMPDEST PUSH1 0x40 MLOAD PUSH3 0x461BCD PUSH1 0xE5 SHL DUP2 MSTORE PUSH1 0x20 PUSH1 0x4 DUP3 ADD MSTORE PUSH1 0x25 PUSH1 0x24 DUP3 ADD MSTORE PUSH32 0x45524332303A207472616E736665722066726F6D20746865207A65726F206164 PUSH1 0x44 DUP3 ADD MSTORE PUSH5 0x6472657373 PUSH1 0xD8 SHL PUSH1 0x64 DUP3 ADD MSTORE PUSH1 0x84 SWAP1 REVERT JUMPDEST PUSH1 0x1 PUSH1 0x1 PUSH1 0xA0 SHL SUB SWAP1 DUP2 AND SWAP2 DUP3 ISZERO PUSH2 0xF58 JUMPI AND SWAP2 DUP3 ISZERO PUSH2 0xF08 JUMPI PUSH1 0x20 PUSH32 0x8C5BE1E5EBEC7D5BD14F71427D1E84F3DD0314C0F7B2291E5B200AC8C7C3B925 SWAP2 DUP4 PUSH1 0x0 MSTORE PUSH1 0x1 DUP3 MSTORE PUSH1 0x40 PUSH1 0x0 KECCAK256 DUP6 PUSH1 0x0 MSTORE DUP3 MSTORE DUP1 PUSH1 0x40 PUSH1 0x0 KECCAK256 SSTORE PUSH1 0x40 MLOAD SWAP1 DUP2 MSTORE LOG3 JUMP JUMPDEST PUSH1 0x40 MLOAD PUSH3 0x461BCD PUSH1 0xE5 SHL DUP2 MSTORE PUSH1 0x20 PUSH1 0x4 DUP3 ADD MSTORE PUSH1 0x22 PUSH1 0x24 DUP3 ADD MSTORE PUSH32 0x45524332303A20617070726F766520746F20746865207A65726F206164647265 PUSH1 0x44 DUP3 ADD MSTORE PUSH2 0x7373 PUSH1 0xF0 SHL PUSH1 0x64 DUP3 ADD MSTORE PUSH1 0x84 SWAP1 REVERT JUMPDEST PUSH1 0x40 MLOAD PUSH3 0x461BCD PUSH1 0xE5 SHL DUP2 MSTORE PUSH1 0x20 PUSH1 0x4 DUP3 ADD MSTORE PUSH1 0x24 DUP1 DUP3 ADD MSTORE PUSH32 0x45524332303A20617070726F76652066726F6D20746865207A65726F20616464 PUSH1 0x44 DUP3 ADD MSTORE PUSH4 0x72657373 PUSH1 0xE0 SHL PUSH1 0x64 DUP3 ADD MSTORE PUSH1 0x84 SWAP1 REVERT JUMPDEST PUSH1 0x5 DUP2 LT ISZERO PUSH2 0x10AD JUMPI DUP1 PUSH2 0xFBA JUMPI POP JUMP JUMPDEST PUSH1 0x1 DUP2 SUB PUSH2 0x1007 JUMPI PUSH1 0x40 MLOAD PUSH3 0x461BCD PUSH1 0xE5 SHL DUP2 MSTORE PUSH1 0x20 PUSH1 0x4 DUP3 ADD MSTORE PUSH1 0x18 PUSH1 0x24 DUP3 ADD MSTORE PUSH32 0x45434453413A20696E76616C6964207369676E61747572650000000000000000 PUSH1 0x44 DUP3 ADD MSTORE PUSH1 0x64 SWAP1 REVERT JUMPDEST PUSH1 0x2 DUP2 SUB PUSH2 0x1054 JUMPI PUSH1 0x40 MLOAD PUSH3 0x461BCD PUSH1 0xE5 SHL DUP2 MSTORE PUSH1 0x20 PUSH1 0x4 DUP3 ADD MSTORE PUSH1 0x1F PUSH1 0x24 DUP3 ADD MSTORE PUSH32 0x45434453413A20696E76616C6964207369676E6174757265206C656E67746800 PUSH1 0x44 DUP3 ADD MSTORE PUSH1 0x64 SWAP1 REVERT JUMPDEST PUSH1 0x3 EQ PUSH2 0x105D JUMPI JUMP JUMPDEST PUSH1 0x40 MLOAD PUSH3 0x461BCD PUSH1 0xE5 SHL DUP2 MSTORE PUSH1 0x20 PUSH1 0x4 DUP3 ADD MSTORE PUSH1 0x22 PUSH1 0x24 DUP3 ADD MSTORE PUSH32 0x45434453413A20696E76616C6964207369676E6174757265202773272076616C PUSH1 0x44 DUP3 ADD MSTORE PUSH2 0x7565 PUSH1 0xF0 SHL PUSH1 0x64 DUP3 ADD MSTORE PUSH1 0x84 SWAP1 REVERT JUMPDEST PUSH4 0x4E487B71 PUSH1 0xE0 SHL PUSH1 0x0 MSTORE PUSH1 0x21 PUSH1 0x4 MSTORE PUSH1 0x24 PUSH1 0x0 REVERT JUMPDEST SWAP3 SWAP2 SWAP1 PUSH32 0x7FFFFFFFFFFFFFFFFFFFFFFFFFFFFFFF5D576E7357A4501DDFE92F46681B20A0 DUP4 GT PUSH2 0x1146 JUMPI SWAP2 PUSH1 0x80 SWAP5 SWAP4 SWAP2 PUSH1 0xFF PUSH1 0x20 SWAP5 PUSH1 0x40 MLOAD SWAP5 DUP6 MSTORE AND DUP5 DUP5 ADD MSTORE PUSH1 0x40 DUP4 ADD MSTORE PUSH1 0x60 DUP3 ADD MSTORE PUSH1 0x0 SWAP4 DUP5 SWAP2 DUP3 DUP1 MSTORE PUSH1 0x1 GAS STATICCALL ISZERO PUSH2 0x1139 JUMPI DUP2 MLOAD PUSH1 0x1 PUSH1 0x1 PUSH1 0xA0 SHL SUB DUP2 AND ISZERO PUSH2 0x1133 JUMPI SWAP2 SWAP1 JUMP JUMPDEST POP PUSH1 0x1 SWAP1 JUMP JUMPDEST POP PUSH1 0x40 MLOAD SWAP1 RETURNDATASIZE SWAP1 DUP3 RETURNDATACOPY RETURNDATASIZE SWAP1 REVERT JUMPDEST POP POP POP POP PUSH1 0x0 SWAP1 PUSH1 0x3 SWAP1 JUMP JUMPDEST ADDRESS PUSH32 0x0 PUSH1 0x1 PUSH1 0x1 PUSH1 0xA0 SHL SUB AND EQ DUP1 PUSH2 0x1254 JUMPI JUMPDEST ISZERO PUSH2 0x11AD JUMPI PUSH32 0x0 SWAP1 JUMP JUMPDEST PUSH1 0x40 MLOAD PUSH1 0x20 DUP2 ADD SWAP1 PUSH32 0x8B73C3C69BB8FE3D512ECC4CF759CC79239F7B179B0FFACAA9A75D522B39400F DUP3 MSTORE PUSH32 0x0 PUSH1 0x40 DUP3 ADD MSTORE PUSH32 0x0 PUSH1 0x60 DUP3 ADD MSTORE CHAINID PUSH1 0x80 DUP3 ADD MSTORE ADDRESS PUSH1 0xA0 DUP3 ADD MSTORE PUSH1 0xA0 DUP2 MSTORE PUSH1 0xC0 DUP2 ADD DUP2 DUP2 LT PUSH8 0xFFFFFFFFFFFFFFFF DUP3 GT OR PUSH2 0xCA9 JUMPI PUSH1 0x40 MSTORE MLOAD SWAP1 KECCAK256 SWAP1 JUMP JUMPDEST POP PUSH32 0x0 CHAINID EQ PUSH2 0x1184 JUMP JUMPDEST PUSH1 0xFF DUP2 EQ PUSH2 0x12BB JUMPI PUSH1 0xFF DUP2 AND SWAP1 PUSH1 0x1F DUP3 GT PUSH2 0x12A9 JUMPI PUSH1 0x40 MLOAD SWAP2 PUSH2 0x129F DUP4 PUSH2 0xC8D JUMP JUMPDEST DUP3 MSTORE PUSH1 0x20 DUP3 ADD MSTORE SWAP1 JUMP JUMPDEST PUSH1 0x40 MLOAD PUSH4 0x2CD44AC3 PUSH1 0xE2 SHL DUP2 MSTORE PUSH1 0x4 SWAP1 REVERT JUMPDEST POP PUSH1 0x40 MLOAD PUSH1 0x5 SLOAD DUP2 PUSH1 0x0 PUSH2 0x12CE DUP4 PUSH2 0xC53 JUMP JUMPDEST DUP1 DUP4 MSTORE SWAP3 PUSH1 0x1 SWAP1 DUP2 DUP2 AND SWAP1 DUP2 ISZERO PUSH2 0x1357 JUMPI POP PUSH1 0x1 EQ PUSH2 0x12F8 JUMPI JUMPDEST POP PUSH2 0x12F5 SWAP3 POP SUB DUP3 PUSH2 0xCBF JUMP JUMPDEST SWAP1 JUMP JUMPDEST PUSH1 0x5 PUSH1 0x0 SWAP1 DUP2 MSTORE SWAP2 POP PUSH32 0x36B6384B5ECA791C62761152D0C79BB0604C104A5FB6F4EB0703F3154BB3DB0 JUMPDEST DUP5 DUP4 LT PUSH2 0x133C JUMPI POP PUSH2 0x12F5 SWAP4 POP POP DUP2 ADD PUSH1 0x20 ADD CODESIZE PUSH2 0x12E8 JUMP JUMPDEST DUP2 SWAP4 POP SWAP1 DUP2 PUSH1 0x20 SWAP3 SLOAD DUP4 DUP6 DUP10 ADD ADD MSTORE ADD SWAP2 ADD SWAP1 SWAP2 DUP5 SWAP3 PUSH2 0x1323 JUMP JUMPDEST SWAP1 POP PUSH1 0x20 SWAP3 POP PUSH2 0x12F5 SWAP5 SWAP2 POP PUSH1 0xFF NOT AND DUP3 DUP5 ADD MSTORE ISZERO ISZERO PUSH1 0x5 SHL DUP3 ADD ADD CODESIZE PUSH2 0x12E8 JUMP JUMPDEST PUSH1 0xFF DUP2 EQ PUSH2 0x139B JUMPI PUSH1 0xFF DUP2 AND SWAP1 PUSH1 0x1F DUP3 GT PUSH2 0x12A9 JUMPI PUSH1 0x40 MLOAD SWAP2 PUSH2 0x129F DUP4 PUSH2 0xC8D JUMP JUMPDEST POP PUSH1 0x40 MLOAD PUSH1 0x6 SLOAD DUP2 PUSH1 0x0 PUSH2 0x13AE DUP4 PUSH2 0xC53 JUMP JUMPDEST DUP1 DUP4 MSTORE SWAP3 PUSH1 0x1 SWAP1 DUP2 DUP2 AND SWAP1 DUP2 ISZERO PUSH2 0x1357 JUMPI POP PUSH1 0x1 EQ PUSH2 0x13D4 JUMPI POP PUSH2 0x12F5 SWAP3 POP SUB DUP3 PUSH2 0xCBF JUMP JUMPDEST PUSH1 0x6 PUSH1 0x0 SWAP1 DUP2 MSTORE SWAP2 POP PUSH32 0xF652222313E28459528D920B65115C16C04F3EFC82AAEDC97BE59F3F377C0D3F JUMPDEST DUP5 DUP4 LT PUSH2 0x1418 JUMPI POP PUSH2 0x12F5 SWAP4 POP POP DUP2 ADD PUSH1 0x20 ADD CODESIZE PUSH2 0x12E8 JUMP JUMPDEST DUP2 SWAP4 POP SWAP1 DUP2 PUSH1 0x20 SWAP3 SLOAD DUP4 DUP6 DUP10 ADD ADD MSTORE ADD SWAP2 ADD SWAP1 SWAP2 DUP5 SWAP3 PUSH2 0x13FF JUMP INVALID LOG1 PUSH5 0x736F6C6343 STOP ADDMOD EQ STOP EXP 0xC6 GAS PUSH28 0xB8D6351C1CF70C95A316CC6A92839C986682D98BC35F958F4883F9D2 0xA8 LOG1 PUSH5 0x736F6C6343 STOP ADDMOD EQ STOP EXP 0x2F DUP8 DUP9 GT PUSH31 0x7EFF1D82E926EC794901D17C78024A50270940304540A733656F0D00000000 "},"methodIdentifiers":{"DEFAULT_ADMIN_ROLE()":"a217fddf","OPERATOR_ROLE()":"f5b541a6","PAUSER_ROLE()":"e63ab1e9","addToWhitelist(address,address[])":"e559afd9","addTokenLiquidity(address,uint256)":"14fe72aa","allTokens(uint256)":"634282af","buyPresale(address,uint256,uint256,address,bytes32[])":"d9d0a5be","buyToken(address,uint256,address)":"692bf4a8","claimVested()":"d01c44cd","configureDex(address,address)":"dc97ecf6","createMemeCoin(string,string,string,uint256,uint256,string)":"d634b419","createPair(address)":"9ccb0744","creatorFeesAccrued(address)":"c748713e","dexHelper()":"e4c608f1","emergencyWithdrawETH()":"84536017","endSale(address)":"8c9f7b39","getAllTokenInfo()":"95abc091","getRoleAdmin(bytes32)":"248a9ca3","getTokenInfoByAddress(address)":"3df9a720","getTokens(uint256,uint256)":"494cfc6c","getUserHoldings(address)":"8231f4f0","getVestingSchedule(address,uint256)":"bed9757e","grantRole(bytes32,address)":"2f2ff15d","hasRole(bytes32,address)":"91d14854","pause()":"8456cb59","pauseTokenSales(address)":"66c5b06c","paused()":"5c975abb","platformFeeBP()":"ff96092a","platformFeesAccrued()":"22163b86","presaleClaimed(address,address)":"ac76d084","presaleMerkleRoot()":"22212e2b","reclaimUnsold(address,uint256)":"0e3f0cfc","referralFeeBP()":"dc4ec9be","removeFromWhitelist(address,address[])":"ad3e080a","removeTokenLiquidity(address,uint256)":"84d93612","renounceRole(bytes32,address)":"36568abe","rescueERC20(address,uint256)":"8cd4426d","revokeRole(bytes32,address)":"d547741f","setDexHelper(address)":"15a1603b","setPresaleMerkleRoot(bytes32)":"28d7b276","setVestingSchedule(address,address,uint256,uint256,uint256)":"3d94bdbb","supportsInterface(bytes4)":"01ffc9a7","sweepHelperDust(address,address)":"943711ea","toggleListingActive(address,bool)":"a9e3929e","toggleWhitelist(address,bool)":"349123d1","tokenIndexPlusOne(address)":"35a62e68","tokenPaused(address)":"8995881d","totalTokens()":"7e1c0c09","unpause()":"3f4ba83a","unpauseTokenSales(address)":"f0b6374b","updateFees(uint16,uint16)":"f3d2350e","vestingScheduleCount(address)":"a9bb5c4c","vestingSchedules(address,uint256)":"45626bd6","whitelistEnabled(address)":"79c8ffd6","whitelisted(address,address)":"bc120fe7","withdrawCreatorFeesBatch(address[])":"e5f8af9f","withdrawMyCreatorFees()":"336322d2","withdrawPlatformFees(address)":"ec3889b5"}}}}}