{"contracts/MemeCoinFactory.sol":{"MemeCoinFactory":{"abi":[{"inputs":[{"internalType":"uint16","name":"_platformFeeBP","type":"uint16"},{"internalType":"uint16","name":"_referralFeeBP","type":"uint16"}],"stateMutability":"nonpayable","type":"constructor"},{"inputs":[],"name":"BuysPaused","type":"error"},{"inputs":[],"name":"IncorrectETH","type":"error"},{"inputs":[],"name":"NoVesting","type":"error"},{"inputs":[],"name":"NotAuthorized","type":"error"},{"inputs":[],"name":"NotLaunched","type":"error"},{"inputs":[],"name":"NotWhitelisted","type":"error"},{"inputs":[],"name":"NothingToClaim","type":"error"},{"inputs":[],"name":"PriceZero","type":"error"},{"inputs":[],"name":"TokenPaused","type":"error"},{"inputs":[],"name":"ZeroAmount","type":"error"},{"anonymous":false,"inputs":[{"indexed":true,"internalType":"address","name":"token","type":"address"},{"indexed":true,"internalType":"address","name":"buyer","type":"address"},{"indexed":false,"internalType":"uint256","name":"amountAtomic","type":"uint256"},{"indexed":false,"internalType":"uint256","name":"costWei","type":"uint256"},{"indexed":true,"internalType":"address","name":"referrer","type":"address"},{"indexed":false,"internalType":"uint256","name":"platformShare","type":"uint256"},{"indexed":false,"internalType":"uint256","name":"referralShare","type":"uint256"},{"indexed":false,"internalType":"uint256","name":"creatorShare","type":"uint256"}],"name":"Bought","type":"event"},{"anonymous":false,"inputs":[],"name":"BuysPausedEvent","type":"event"},{"anonymous":false,"inputs":[],"name":"BuysUnpausedEvent","type":"event"},{"anonymous":false,"inputs":[{"indexed":false,"internalType":"address","name":"factory","type":"address"},{"indexed":false,"internalType":"address","name":"router","type":"address"}],"name":"DexConfigured","type":"event"},{"anonymous":false,"inputs":[{"indexed":true,"internalType":"address","name":"to","type":"address"},{"indexed":false,"internalType":"uint256","name":"amount","type":"uint256"}],"name":"ETHRescued","type":"event"},{"anonymous":false,"inputs":[{"indexed":false,"internalType":"uint16","name":"newPlatformBP","type":"uint16"},{"indexed":false,"internalType":"uint16","name":"newReferralBP","type":"uint16"}],"name":"FeesUpdated","type":"event"},{"anonymous":false,"inputs":[{"indexed":true,"internalType":"address","name":"token","type":"address"},{"indexed":false,"internalType":"string","name":"newDescription","type":"string"},{"indexed":false,"internalType":"string","name":"newIpfsHash","type":"string"}],"name":"MetadataUpdated","type":"event"},{"anonymous":false,"inputs":[{"indexed":true,"internalType":"address","name":"previousOwner","type":"address"},{"indexed":true,"internalType":"address","name":"newOwner","type":"address"}],"name":"OwnershipTransferred","type":"event"},{"anonymous":false,"inputs":[{"indexed":false,"internalType":"address","name":"account","type":"address"}],"name":"Paused","type":"event"},{"anonymous":false,"inputs":[{"indexed":false,"internalType":"bytes32","name":"newRoot","type":"bytes32"}],"name":"PresaleRootUpdated","type":"event"},{"anonymous":false,"inputs":[{"indexed":true,"internalType":"address","name":"token","type":"address"},{"indexed":false,"internalType":"uint256","name":"newPriceWei","type":"uint256"}],"name":"PriceUpdated","type":"event"},{"anonymous":false,"inputs":[{"indexed":true,"internalType":"address","name":"token","type":"address"},{"indexed":true,"internalType":"address","name":"creator","type":"address"},{"indexed":false,"internalType":"uint256","name":"priceWei","type":"uint256"},{"indexed":false,"internalType":"string","name":"description","type":"string"},{"indexed":false,"internalType":"string","name":"ipfsHash","type":"string"}],"name":"TokenCreated","type":"event"},{"anonymous":false,"inputs":[{"indexed":true,"internalType":"address","name":"token","type":"address"}],"name":"TokenPausedEvent","type":"event"},{"anonymous":false,"inputs":[{"indexed":true,"internalType":"address","name":"token","type":"address"},{"indexed":false,"internalType":"uint256","name":"amount","type":"uint256"}],"name":"TokenRescued","type":"event"},{"anonymous":false,"inputs":[{"indexed":true,"internalType":"address","name":"token","type":"address"}],"name":"TokenUnpausedEvent","type":"event"},{"anonymous":false,"inputs":[{"indexed":false,"internalType":"address","name":"account","type":"address"}],"name":"Unpaused","type":"event"},{"anonymous":false,"inputs":[{"indexed":true,"internalType":"address","name":"token","type":"address"},{"indexed":false,"internalType":"uint256","name":"amount","type":"uint256"}],"name":"UnsoldReclaimed","type":"event"},{"anonymous":false,"inputs":[{"indexed":true,"internalType":"address","name":"beneficiary","type":"address"},{"indexed":false,"internalType":"uint256","name":"amountClaimed","type":"uint256"}],"name":"VestedClaimed","type":"event"},{"anonymous":false,"inputs":[{"indexed":true,"internalType":"address","name":"beneficiary","type":"address"},{"indexed":false,"internalType":"uint256","name":"total","type":"uint256"},{"indexed":false,"internalType":"uint256","name":"start","type":"uint256"},{"indexed":false,"internalType":"uint256","name":"cliff","type":"uint256"},{"indexed":false,"internalType":"uint256","name":"duration","type":"uint256"}],"name":"VestingScheduleSet","type":"event"},{"stateMutability":"payable","type":"fallback"},{"inputs":[{"internalType":"address","name":"token_","type":"address"},{"internalType":"uint256","name":"amt","type":"uint256"}],"name":"addLiquidity","outputs":[{"internalType":"uint256","name":"","type":"uint256"},{"internalType":"uint256","name":"","type":"uint256"},{"internalType":"uint256","name":"","type":"uint256"}],"stateMutability":"payable","type":"function"},{"inputs":[{"internalType":"address","name":"token_","type":"address"},{"internalType":"address[]","name":"users","type":"address[]"}],"name":"addToWhitelist","outputs":[],"stateMutability":"nonpayable","type":"function"},{"inputs":[{"internalType":"uint256","name":"","type":"uint256"}],"name":"allTokens","outputs":[{"internalType":"address","name":"token","type":"address"},{"internalType":"address","name":"creator","type":"address"},{"internalType":"uint256","name":"priceWei","type":"uint256"},{"internalType":"string","name":"description","type":"string"},{"internalType":"string","name":"ipfsHash","type":"string"}],"stateMutability":"view","type":"function"},{"inputs":[{"internalType":"address","name":"token_","type":"address"},{"internalType":"uint256","name":"amt","type":"uint256"},{"internalType":"address","name":"ref","type":"address"},{"internalType":"bytes32[]","name":"proof","type":"bytes32[]"}],"name":"buyPresale","outputs":[],"stateMutability":"payable","type":"function"},{"inputs":[{"internalType":"address","name":"token_","type":"address"},{"internalType":"uint256","name":"amountAtomic","type":"uint256"},{"internalType":"address","name":"referrer","type":"address"}],"name":"buyToken","outputs":[],"stateMutability":"payable","type":"function"},{"inputs":[],"name":"buysPaused","outputs":[{"internalType":"bool","name":"","type":"bool"}],"stateMutability":"view","type":"function"},{"inputs":[],"name":"claimVested","outputs":[],"stateMutability":"nonpayable","type":"function"},{"inputs":[{"internalType":"address","name":"token_","type":"address"}],"name":"createLiquidityPair","outputs":[{"internalType":"address","name":"pair","type":"address"}],"stateMutability":"nonpayable","type":"function"},{"inputs":[{"internalType":"string","name":"name_","type":"string"},{"internalType":"string","name":"symbol_","type":"string"},{"internalType":"string","name":"description_","type":"string"},{"internalType":"uint256","name":"totalSupply_","type":"uint256"},{"internalType":"uint256","name":"priceWei_","type":"uint256"},{"internalType":"string","name":"ipfsHash_","type":"string"}],"name":"createMemeCoin","outputs":[{"internalType":"address","name":"tokenAddress","type":"address"}],"stateMutability":"nonpayable","type":"function"},{"inputs":[{"internalType":"address","name":"","type":"address"}],"name":"creatorFeesAccrued","outputs":[{"internalType":"uint256","name":"","type":"uint256"}],"stateMutability":"view","type":"function"},{"inputs":[],"name":"dexFactory","outputs":[{"internalType":"address","name":"","type":"address"}],"stateMutability":"view","type":"function"},{"inputs":[],"name":"dexRouter","outputs":[{"internalType":"address","name":"","type":"address"}],"stateMutability":"view","type":"function"},{"inputs":[],"name":"emergencyWithdrawETH","outputs":[],"stateMutability":"nonpayable","type":"function"},{"inputs":[{"internalType":"address","name":"t","type":"address"}],"name":"emergencyWithdrawToken","outputs":[],"stateMutability":"nonpayable","type":"function"},{"inputs":[{"internalType":"address","name":"token_","type":"address"}],"name":"getPoolAddress","outputs":[{"internalType":"address","name":"","type":"address"}],"stateMutability":"view","type":"function"},{"inputs":[{"internalType":"uint256","name":"amt","type":"uint256"}],"name":"getRevenueSplit","outputs":[{"internalType":"uint256","name":"pf","type":"uint256"},{"internalType":"uint256","name":"rf","type":"uint256"},{"internalType":"uint256","name":"cf","type":"uint256"}],"stateMutability":"view","type":"function"},{"inputs":[{"internalType":"address","name":"token_","type":"address"}],"name":"getSalesStats","outputs":[{"internalType":"uint256","name":"sold_","type":"uint256"},{"internalType":"uint256","name":"raised_","type":"uint256"}],"stateMutability":"view","type":"function"},{"inputs":[{"internalType":"uint256","name":"start","type":"uint256"},{"internalType":"uint256","name":"count","type":"uint256"}],"name":"getTokens","outputs":[{"components":[{"internalType":"address","name":"token","type":"address"},{"internalType":"address","name":"creator","type":"address"},{"internalType":"uint256","name":"priceWei","type":"uint256"},{"internalType":"string","name":"description","type":"string"},{"internalType":"string","name":"ipfsHash","type":"string"}],"internalType":"struct MemeCoinFactory.TokenInfo[]","name":"page","type":"tuple[]"}],"stateMutability":"view","type":"function"},{"inputs":[{"internalType":"address","name":"token_","type":"address"}],"name":"isListed","outputs":[{"internalType":"bool","name":"","type":"bool"}],"stateMutability":"view","type":"function"},{"inputs":[{"internalType":"uint256","name":"s","type":"uint256"},{"internalType":"uint256","name":"c","type":"uint256"}],"name":"listTokensPaginated","outputs":[{"components":[{"internalType":"address","name":"token","type":"address"},{"internalType":"address","name":"creator","type":"address"},{"internalType":"uint256","name":"priceWei","type":"uint256"},{"internalType":"string","name":"description","type":"string"},{"internalType":"string","name":"ipfsHash","type":"string"}],"internalType":"struct MemeCoinFactory.TokenInfo[]","name":"page","type":"tuple[]"},{"internalType":"uint256","name":"total","type":"uint256"}],"stateMutability":"view","type":"function"},{"inputs":[],"name":"owner","outputs":[{"internalType":"address","name":"","type":"address"}],"stateMutability":"view","type":"function"},{"inputs":[],"name":"pauseBuys","outputs":[],"stateMutability":"nonpayable","type":"function"},{"inputs":[{"internalType":"address","name":"t","type":"address"}],"name":"pauseTokenSales","outputs":[],"stateMutability":"nonpayable","type":"function"},{"inputs":[],"name":"paused","outputs":[{"internalType":"bool","name":"","type":"bool"}],"stateMutability":"view","type":"function"},{"inputs":[],"name":"platformFeeBP","outputs":[{"internalType":"uint16","name":"","type":"uint16"}],"stateMutability":"view","type":"function"},{"inputs":[],"name":"platformFeesAccrued","outputs":[{"internalType":"uint256","name":"","type":"uint256"}],"stateMutability":"view","type":"function"},{"inputs":[],"name":"platformFeesAccumulated","outputs":[{"internalType":"uint256","name":"","type":"uint256"}],"stateMutability":"view","type":"function"},{"inputs":[],"name":"presaleMerkleRoot","outputs":[{"internalType":"bytes32","name":"","type":"bytes32"}],"stateMutability":"view","type":"function"},{"inputs":[{"internalType":"address","name":"token_","type":"address"}],"name":"priceOf","outputs":[{"internalType":"uint256","name":"","type":"uint256"}],"stateMutability":"view","type":"function"},{"inputs":[{"internalType":"address","name":"token_","type":"address"},{"internalType":"uint256","name":"amount","type":"uint256"}],"name":"reclaimUnsold","outputs":[],"stateMutability":"nonpayable","type":"function"},{"inputs":[{"internalType":"address[]","name":"toks","type":"address[]"},{"internalType":"uint256[]","name":"amts","type":"uint256[]"}],"name":"reclaimUnsoldBatch","outputs":[],"stateMutability":"nonpayable","type":"function"},{"inputs":[],"name":"referralFeeBP","outputs":[{"internalType":"uint16","name":"","type":"uint16"}],"stateMutability":"view","type":"function"},{"inputs":[{"internalType":"address","name":"who","type":"address"}],"name":"referralFees","outputs":[{"internalType":"uint256","name":"","type":"uint256"}],"stateMutability":"view","type":"function"},{"inputs":[{"internalType":"address","name":"","type":"address"}],"name":"referralFeesAccrued","outputs":[{"internalType":"uint256","name":"","type":"uint256"}],"stateMutability":"view","type":"function"},{"inputs":[{"internalType":"address","name":"token_","type":"address"},{"internalType":"uint256","name":"liq","type":"uint256"}],"name":"removeLiquidity","outputs":[{"internalType":"uint256","name":"","type":"uint256"},{"internalType":"uint256","name":"","type":"uint256"}],"stateMutability":"nonpayable","type":"function"},{"inputs":[],"name":"renounceOwnership","outputs":[],"stateMutability":"nonpayable","type":"function"},{"inputs":[{"internalType":"address","name":"token_","type":"address"},{"internalType":"uint256","name":"amount","type":"uint256"}],"name":"rescueERC20","outputs":[],"stateMutability":"nonpayable","type":"function"},{"inputs":[{"internalType":"address","name":"f","type":"address"},{"internalType":"address","name":"r","type":"address"}],"name":"setDexAddresses","outputs":[],"stateMutability":"nonpayable","type":"function"},{"inputs":[{"internalType":"bytes32","name":"root_","type":"bytes32"}],"name":"setPresaleMerkleRoot","outputs":[],"stateMutability":"nonpayable","type":"function"},{"inputs":[{"internalType":"address","name":"b","type":"address"},{"internalType":"uint256","name":"tot","type":"uint256"},{"internalType":"uint256","name":"cliff_","type":"uint256"},{"internalType":"uint256","name":"dur","type":"uint256"}],"name":"setVestingSchedule","outputs":[],"stateMutability":"nonpayable","type":"function"},{"inputs":[{"internalType":"address","name":"token_","type":"address"},{"internalType":"bool","name":"on","type":"bool"}],"name":"setWhitelistEnabled","outputs":[],"stateMutability":"nonpayable","type":"function"},{"inputs":[{"internalType":"address","name":"","type":"address"}],"name":"tokenIndexPlusOne","outputs":[{"internalType":"uint256","name":"","type":"uint256"}],"stateMutability":"view","type":"function"},{"inputs":[{"internalType":"address","name":"","type":"address"}],"name":"tokenPaused","outputs":[{"internalType":"bool","name":"","type":"bool"}],"stateMutability":"view","type":"function"},{"inputs":[],"name":"totalTokens","outputs":[{"internalType":"uint256","name":"","type":"uint256"}],"stateMutability":"view","type":"function"},{"inputs":[{"internalType":"address","name":"newOwner","type":"address"}],"name":"transferOwnership","outputs":[],"stateMutability":"nonpayable","type":"function"},{"inputs":[],"name":"unpauseBuys","outputs":[],"stateMutability":"nonpayable","type":"function"},{"inputs":[{"internalType":"address","name":"t","type":"address"}],"name":"unpauseTokenSales","outputs":[],"stateMutability":"nonpayable","type":"function"},{"inputs":[{"internalType":"address[]","name":"toks","type":"address[]"}],"name":"unsoldForAll","outputs":[{"internalType":"uint256[]","name":"out","type":"uint256[]"}],"stateMutability":"view","type":"function"},{"inputs":[{"internalType":"uint16","name":"_pf","type":"uint16"},{"internalType":"uint16","name":"_rf","type":"uint16"}],"name":"updateFees","outputs":[],"stateMutability":"nonpayable","type":"function"},{"inputs":[{"internalType":"address","name":"token_","type":"address"},{"internalType":"string","name":"d","type":"string"},{"internalType":"string","name":"h","type":"string"}],"name":"updateMetadata","outputs":[],"stateMutability":"nonpayable","type":"function"},{"inputs":[{"internalType":"address","name":"token_","type":"address"},{"internalType":"uint256","name":"newPriceWei","type":"uint256"}],"name":"updatePrice","outputs":[],"stateMutability":"nonpayable","type":"function"},{"inputs":[{"internalType":"address","name":"","type":"address"}],"name":"vestingSchedules","outputs":[{"internalType":"uint256","name":"total","type":"uint256"},{"internalType":"uint256","name":"claimed","type":"uint256"},{"internalType":"uint256","name":"start","type":"uint256"},{"internalType":"uint256","name":"cliff","type":"uint256"},{"internalType":"uint256","name":"duration","type":"uint256"}],"stateMutability":"view","type":"function"},{"inputs":[{"internalType":"address","name":"","type":"address"}],"name":"whitelistEnabled","outputs":[{"internalType":"bool","name":"","type":"bool"}],"stateMutability":"view","type":"function"},{"inputs":[{"internalType":"address","name":"","type":"address"},{"internalType":"address","name":"","type":"address"}],"name":"whitelisted","outputs":[{"internalType":"bool","name":"","type":"bool"}],"stateMutability":"view","type":"function"},{"inputs":[{"internalType":"address","name":"token_","type":"address"}],"name":"withdrawCreatorFees","outputs":[],"stateMutability":"nonpayable","type":"function"},{"inputs":[],"name":"withdrawPlatformFees","outputs":[],"stateMutability":"nonpayable","type":"function"},{"inputs":[],"name":"withdrawReferralFees","outputs":[],"stateMutability":"nonpayable","type":"function"},{"stateMutability":"payable","type":"receive"}],"evm":{"bytecode":{"linkReferences":{},"object":"60806040523480156200001157600080fd5b50604051620063e9380380620063e9833981016040819052620000349162000136565b6200003f33620000ce565b600180556002805460ff191690556127106200005c82846200016e565b61ffff1610620000a25760405162461bcd60e51b815260206004820152600d60248201526c08ccacae640e8dede40d0d2ced609b1b604482015260640160405180910390fd5b6006805461ffff928316620100000263ffffffff1990911692909316919091179190911790556200019f565b600080546001600160a01b038381166001600160a01b0319831681178455604051919092169283917f8be0079c531659141344cd1fd0a4f28419497f9722a3daafe3b4186f6b6457e09190a35050565b805161ffff811681146200013157600080fd5b919050565b600080604083850312156200014a57600080fd5b62000155836200011e565b915062000165602084016200011e565b90509250929050565b61ffff8181168382160190808211156200019857634e487b7160e01b600052601160045260246000fd5b5092915050565b61623a80620001af6000396000f3fe608060405260043610620002c55760003560e01c80630758d924146200030857806309cccaac14620003425780630e3f0cfc14620003695780631228cbee146200038e578063173608e714620003b35780631af0320314620003cb57806322163b8614620003f057806322212e2b14620004175780632319835c146200042f57806328d7b276146200046357806335a62e681462000488578063457972de14620004b9578063494cfc6c14620004de57806356688700146200051257806359f3a97d14620005455780635c975abb146200056a5780635e62bf941462000584578063620bfa7b14620005a9578063634282af14620005c157806364618cf914620005f957806366c5b06c1462000610578063692bf4a81462000635578063715018a6146200064c57806375780f42146200066457806379c8ffd6146200069e5780637a86279b14620006d25780637e1c0c0914620006f75780637e8def1d146200070e5780638453601714620007495780638604cfef14620007615780638995881d14620007795780638cd4426d14620007ad5780638da5cb5b14620007d257806398e122fd14620007ea5780639b53a7f5146200080f578063a201ccf61462000844578063b8d8fbb41462000869578063b95ed06f146200088b578063bc120fe714620008b0578063c748713e14620008ef578063d01c44cd1462000920578063d0b7830b1462000938578063d260be7c1462000950578063d634b4191462000984578063dad4412c14620009a9578063dc4ec9be14620009ce578063e559afd91462000a05578063f0b6374b1462000a2a578063f2fde38b1462000a4f578063f37ef78c1462000a74578063f3d2350e1462000aa5578063f4c5cdca1462000aca578063f641fe391462000aef578063f6e4b62b1462000b06578063f794062e1462000b2b578063fdb20ccb1462000b50578063ff96092a1462000bb157620002ee565b36620002ee5760405162461bcd60e51b8152600401620002e590620038ab565b60405180910390fd5b60405162461bcd60e51b8152600401620002e590620038ab565b3480156200031557600080fd5b50600b546200032a906001600160a01b031681565b604051620003399190620038d1565b60405180910390f35b3480156200034f57600080fd5b506200036762000361366004620038fb565b62000bce565b005b3480156200037657600080fd5b50620003676200038836600462003939565b62000caa565b3480156200039b57600080fd5b506200032a620003ad36600462003968565b62000db5565b348015620003c057600080fd5b506200036762000eb2565b348015620003d857600080fd5b5062000367620003ea36600462003968565b62000f5d565b348015620003fd57600080fd5b506200040860075481565b60405190815260200162000339565b3480156200042457600080fd5b5062000408600c5481565b3480156200043c57600080fd5b50600b546200045290600160a01b900460ff1681565b604051901515815260200162000339565b3480156200047057600080fd5b50620003676200048236600462003988565b62001087565b3480156200049557600080fd5b5062000408620004a736600462003968565b60046020526000908152604090205481565b348015620004c657600080fd5b5062000367620004d836600462003939565b620010cc565b348015620004eb57600080fd5b5062000503620004fd366004620039a2565b6200120e565b60405162000339919062003acc565b620005296200052336600462003939565b62001490565b6040805193845260208401929092529082015260600162000339565b3480156200055257600080fd5b50620003676200056436600462003ae1565b6200156e565b3480156200057757600080fd5b5060025460ff1662000452565b3480156200059157600080fd5b5062000367620005a336600462003b63565b62001668565b348015620005b657600080fd5b5062000367620017bb565b348015620005ce57600080fd5b50620005e6620005e036600462003988565b620017fd565b6040516200033995949392919062003bee565b620003676200060a36600462003c8a565b62001970565b3480156200061d57600080fd5b50620003676200062f36600462003968565b62001a28565b620003676200064636600462003cf3565b62001a7e565b3480156200065957600080fd5b506200036762001ddb565b3480156200067157600080fd5b50620004086200068336600462003968565b6001600160a01b031660009081526008602052604090205490565b348015620006ab57600080fd5b5062000452620006bd36600462003968565b600d6020526000908152604090205460ff1681565b348015620006df57600080fd5b5062000367620006f136600462003d3a565b62001df1565b3480156200070457600080fd5b5060035462000408565b3480156200071b57600080fd5b50620007336200072d36600462003968565b62001fba565b6040805192835260208301919091520162000339565b3480156200075657600080fd5b5062000367620020a9565b3480156200076e57600080fd5b50620003676200216e565b3480156200078657600080fd5b50620004526200079836600462003968565b60056020526000908152604090205460ff1681565b348015620007ba57600080fd5b5062000367620007cc36600462003939565b620021b6565b348015620007df57600080fd5b506200032a62002215565b348015620007f757600080fd5b506200032a6200080936600462003968565b62002224565b3480156200081c57600080fd5b50620008346200082e366004620039a2565b620023b0565b6040516200033992919062003dac565b3480156200085157600080fd5b50620007336200086336600462003939565b62002632565b3480156200087657600080fd5b50600a546200032a906001600160a01b031681565b3480156200089857600080fd5b5062000408620008aa36600462003968565b620027fb565b348015620008bd57600080fd5b5062000452620008cf366004620038fb565b600e60209081526000928352604080842090915290825290205460ff1681565b348015620008fc57600080fd5b50620004086200090e36600462003968565b60096020526000908152604090205481565b3480156200092d57600080fd5b506200036762002871565b3480156200094557600080fd5b5062000367620029c1565b3480156200095d57600080fd5b50620009756200096f36600462003dd0565b62002a0a565b60405162000339919062003e15565b3480156200099157600080fd5b506200032a620009a336600462003e5b565b62002b39565b348015620009b657600080fd5b5062000529620009c836600462003988565b62002d6a565b348015620009db57600080fd5b50600654620009f19062010000900461ffff1681565b60405161ffff909116815260200162000339565b34801562000a1257600080fd5b506200036762000a2436600462003f41565b62002de3565b34801562000a3757600080fd5b506200036762000a4936600462003968565b62002e7d565b34801562000a5c57600080fd5b506200036762000a6e36600462003968565b62002ed0565b34801562000a8157600080fd5b506200040862000a9336600462003968565b60086020526000908152604090205481565b34801562000ab257600080fd5b506200036762000ac436600462003fb3565b62002f4c565b34801562000ad757600080fd5b506200036762000ae936600462003968565b62003003565b34801562000afc57600080fd5b5060075462000408565b34801562000b1357600080fd5b506200036762000b2536600462003ffa565b6200316d565b34801562000b3857600080fd5b506200045262000b4a36600462003968565b620031a2565b34801562000b5d57600080fd5b5062000b9e62000b6f36600462003968565b600f60205260009081526040902080546001820154600283015460038401546004909401549293919290919085565b604051620003399594939291906200402d565b34801562000bbe57600080fd5b50600654620009f19061ffff1681565b62000bd8620032af565b6001600160a01b0382161580159062000bf957506001600160a01b03811615155b62000c3a5760405162461bcd60e51b815260206004820152601060248201526f24b73b30b634b2102222ac1030b2323960811b6044820152606401620002e5565b600a80546001600160a01b038085166001600160a01b031992831617909255600b8054928416929091169190911790556040517fbd1f56340e71693e2714ef366858f586d668634bbaa3720ebf8b0faf0b1aa82c9062000c9e908490849062004050565b60405180910390a15050565b62000cb462003312565b6001600160a01b0382166000908152600460205260408120549081900362000cef57604051638dda39df60e01b815260040160405180910390fd5b6000600362000d0060018462004080565b8154811062000d135762000d1362004096565b6000918252602090912060059091020160018101549091506001600160a01b0316331462000d545760405163ea8e4eb560e01b815260040160405180910390fd5b600181015462000d72906001600160a01b038681169116856200336d565b836001600160a01b0316600080516020620061a58339815191528460405162000d9d91815260200190565b60405180910390a2505062000db160018055565b5050565b600080600b60009054906101000a90046001600160a01b03166001600160a01b031663ad5c46486040518163ffffffff1660e01b8152600401602060405180830381865afa15801562000e0c573d6000803e3d6000fd5b505050506040513d601f19601f8201168201806040525081019062000e329190620040ac565b600a5460405163e6a4390560e01b81529192506001600160a01b03169063e6a439059062000e67908690859060040162004050565b602060405180830381865afa15801562000e85573d6000803e3d6000fd5b505050506040513d601f19601f8201168201806040525081019062000eab9190620040ac565b9392505050565b62000ebc62003312565b336000908152600860205260408120549081900362000eee5760405163d183fe4360e01b815260040160405180910390fd5b336000818152600860205260408082208290555183156108fc0291849190818181858888f1935050505015801562000f2a573d6000803e3d6000fd5b506040518181523390600080516020620061e5833981519152906020015b60405180910390a25062000f5b60018055565b565b62000f67620032af565b62000f7162003312565b6040516370a0823160e01b81526000906001600160a01b038316906370a082319062000fa2903090600401620038d1565b602060405180830381865afa15801562000fc0573d6000803e3d6000fd5b505050506040513d601f19601f8201168201806040525081019062000fe69190620040cc565b905060008111620010265760405162461bcd60e51b81526020600482015260096024820152684e6f20746f6b656e7360b81b6044820152606401620002e5565b620010466200103462002215565b6001600160a01b03841690836200336d565b816001600160a01b0316600080516020620061c5833981519152826040516200107191815260200190565b60405180910390a2506200108460018055565b50565b62001091620032af565b600c8190556040518181527f27f971fd4accb41a60bcef5477f2a70aa17efca3a2c33b138e3aa62a3d891c6d9060200160405180910390a150565b620010d6620033c7565b80600003620010f857604051637294708f60e11b815260040160405180910390fd5b6001600160a01b038216600090815260046020526040812054908190036200113357604051638dda39df60e01b815260040160405180910390fd5b600060036200114460018462004080565b8154811062001157576200115762004096565b6000918252602090912060059091020160018101549091506001600160a01b03163314801590620011a357506200118d62002215565b6001600160a01b0316336001600160a01b031614155b15620011c25760405163ea8e4eb560e01b815260040160405180910390fd5b600281018390556040518381526001600160a01b038516907f0d86730737b142fc160892fa8a0f2db687a92a0e294d1ad70624cf5acef03b84906020015b60405180910390a250505050565b600354606090600081620012238587620040e6565b116200123b57620012358486620040e6565b6200123d565b815b90506200124b858262004080565b6001600160401b03811115620012655762001265620040fc565b604051908082528060200260200182016040528015620012a257816020015b6200128e6200385c565b815260200190600190039081620012845790505b509250845b81811015620014875760038181548110620012c657620012c662004096565b60009182526020918290206040805160a081018252600590930290910180546001600160a01b03908116845260018201541693830193909352600283015490820152600382018054919291606084019190620013229062004112565b80601f0160208091040260200160405190810160405280929190818152602001828054620013509062004112565b8015620013a15780601f106200137557610100808354040283529160200191620013a1565b820191906000526020600020905b8154815290600101906020018083116200138357829003601f168201915b50505050508152602001600482018054620013bc9062004112565b80601f0160208091040260200160405190810160405280929190818152602001828054620013ea9062004112565b80156200143b5780601f106200140f576101008083540402835291602001916200143b565b820191906000526020600020905b8154815290600101906020018083116200141d57829003601f168201915b50505050508152505084878362001453919062004080565b8151811062001466576200146662004096565b602002602001018190525080806200147e906200414e565b915050620012a7565b50505092915050565b60008060006200149f62003312565b620014b66001600160a01b0386163330876200340f565b600b54620014d2906001600160a01b0387811691168662003449565b600b5460405163f305d71960e01b81526001600160a01b039091169063f305d7199034906200151190899089906000908190339042906004016200416a565b60606040518083038185885af115801562001530573d6000803e3d6000fd5b50505050506040513d601f19601f82011682018060405250810190620015579190620041a5565b9250925092506200156760018055565b9250925092565b62001578620032af565b6000831180156200158857508181115b620015c35760405162461bcd60e51b815260206004820152600a60248201526942616420706172616d7360b01b6044820152606401620002e5565b6040805160a081018252848152600060208083018281524284860181815260608087018a815260808089018b81526001600160a01b038f16808a52600f8952988b902099518a55955160018a0155925160028901555160038801559251600490960195909555855189815292830152938101869052928301849052917fd866979bd0fd6a601e699d26906fc9bcf80527e2bc1b9a2cc05afffb1691785f910162001200565b6001600160a01b03851660009081526004602052604081205490819003620016c25760405162461bcd60e51b815260206004820152600c60248201526b139bdd081b185d5b98da195960a21b6044820152606401620002e5565b60006003620016d360018462004080565b81548110620016e657620016e662004096565b6000918252602090912060059091020160018101549091506001600160a01b03163314620017455760405162461bcd60e51b815260206004820152600b60248201526a2737ba1031b932b0ba37b960a91b6044820152606401620002e5565b60038101620017568688836200423b565b5060048101620017688486836200423b565b50866001600160a01b03167f6c1850fce35387a891e82ca88e975790ab6f0709e9ed6842e01397f296012a7e87878787604051620017aa94939291906200432c565b60405180910390a250505050505050565b620017c5620032af565b600b805460ff60a01b191690556040517ffaee94fdb90e4c47971dcc61a8c020c8bd768eb0e6326218ca262cdd66e20a2e90600090a1565b600381815481106200180e57600080fd5b600091825260209091206005909102018054600182015460028301546003840180546001600160a01b039485169650929093169390929091620018519062004112565b80601f01602080910402602001604051908101604052809291908181526020018280546200187f9062004112565b8015620018d05780601f10620018a457610100808354040283529160200191620018d0565b820191906000526020600020905b815481529060010190602001808311620018b257829003601f168201915b505050505090806004018054620018e79062004112565b80601f0160208091040260200160405190810160405280929190818152602001828054620019159062004112565b8015620019665780601f106200193a5761010080835404028352916020019162001966565b820191906000526020600020905b8154815290600101906020018083116200194857829003601f168201915b5050505050905085565b6200197a62003312565b620019ec82828080602002602001604051908101604052809392919081815260200183836020028082843760009201919091525050600c546040516001600160601b03193360601b166020820152909250603401905060405160208183030381529060405280519060200120620034ef565b62001a0a57604051630b094f2760e31b815260040160405180910390fd5b62001a1785858562001a7e565b62001a2160018055565b5050505050565b62001a32620032af565b6001600160a01b038116600081815260056020526040808220805460ff19166001179055517f32a6dcd04455c92a601afd4a2aa0ee840ddab8a4383114e4f00ecf91324329339190a250565b62001a8862003312565b62001a92620033c7565b600b54600160a01b900460ff161562001abe57604051631ef9b76b60e31b815260040160405180910390fd5b8160000362001ae057604051631f2a200560e01b815260040160405180910390fd5b6001600160a01b03831660009081526005602052604090205460ff161562001b1b5760405163e779249560e01b815260040160405180910390fd5b6001600160a01b0383166000908152600460205260408120549081900362001b5657604051638dda39df60e01b815260040160405180910390fd5b6001600160a01b0384166000908152600d602052604090205460ff16801562001ba357506001600160a01b0384166000908152600e6020908152604080832033845290915290205460ff16155b1562001bc257604051630b094f2760e31b815260040160405180910390fd5b6000600362001bd360018462004080565b8154811062001be65762001be662004096565b906000526020600020906005020190506000670de0b6b3a764000085836002015462001c13919062004357565b62001c1f919062004371565b905080341462001c425760405163d183fe4360e01b815260040160405180910390fd5b6006546000906127109062001c5c9061ffff168462004357565b62001c68919062004371565b905060006001600160a01b0386161562001cab576006546127109062001c999062010000900461ffff168562004357565b62001ca5919062004371565b62001cae565b60005b905060008162001cbf848662004080565b62001ccb919062004080565b9050826007600082825462001ce19190620040e6565b9091555050811562001d1d576001600160a01b0387166000908152600860205260408120805484929062001d17908490620040e6565b90915550505b60018501546001600160a01b03166000908152600960205260408120805483929062001d4b908490620040e6565b9091555062001d6790506001600160a01b038a16338a6200336d565b866001600160a01b0316336001600160a01b03168a6001600160a01b03167fa4d1d47447ad64a0c581f05071df4ce987ba94440d913925dc004a21f28f42268b8888888860405162001dbe9594939291906200402d565b60405180910390a450505050505062001dd660018055565b505050565b62001de5620032af565b62000f5b600062003507565b62001dfb62003312565b82811462001e3e5760405162461bcd60e51b815260206004820152600f60248201526e098cadccee8d040dad2e6dac2e8c6d608b1b6044820152606401620002e5565b60005b8381101562001fa957600085858381811062001e615762001e6162004096565b905060200201602081019062001e78919062003968565b9050600084848481811062001e915762001e9162004096565b6001600160a01b038516600090815260046020908152604082205492029390930135935091829003905062001ed957604051638dda39df60e01b815260040160405180910390fd5b6000600362001eea60018462004080565b8154811062001efd5762001efd62004096565b6000918252602090912060059091020160018101549091506001600160a01b0316331462001f3e5760405163ea8e4eb560e01b815260040160405180910390fd5b600181015462001f5c906001600160a01b038681169116856200336d565b836001600160a01b0316600080516020620061a58339815191528460405162001f8791815260200190565b60405180910390a250505050808062001fa0906200414e565b91505062001e41565b5062001fb460018055565b50505050565b600080826001600160a01b03166370a08231306040518263ffffffff1660e01b815260040162001feb9190620038d1565b602060405180830381865afa15801562002009573d6000803e3d6000fd5b505050506040513d601f19601f820116820180604052508101906200202f9190620040cc565b836001600160a01b03166318160ddd6040518163ffffffff1660e01b8152600401602060405180830381865afa1580156200206e573d6000803e3d6000fd5b505050506040513d601f19601f82011682018060405250810190620020949190620040cc565b620020a0919062004080565b93479350915050565b620020b3620032af565b620020bd62003312565b4780620020f65760405162461bcd60e51b815260206004820152600660248201526509cde408aa8960d31b6044820152606401620002e5565b6200210062002215565b6001600160a01b03166108fc829081150290604051600060405180830381858888f1935050505015801562002139573d6000803e3d6000fd5b506200214462002215565b6001600160a01b0316600080516020620061e58339815191528260405162000f4891815260200190565b62002178620032af565b600b805460ff60a01b1916600160a01b1790556040517fd9dbf0a31ba3fb34c2c7dab69690eb663f5bdeca5006139e71338cfa84c7c53790600090a1565b620021c0620032af565b620021ca62003312565b620021d86200103462002215565b816001600160a01b0316600080516020620061c5833981519152826040516200220391815260200190565b60405180910390a262000db160018055565b6000546001600160a01b031690565b600062002230620032af565b600a54600b54604080516315ab88c960e31b815290516001600160a01b0393841693600093169163ad5c46489160048083019260209291908290030181865afa15801562002282573d6000803e3d6000fd5b505050506040513d601f19601f82011682018060405250810190620022a89190620040ac565b60405163e6a4390560e01b81529091506001600160a01b0383169063e6a4390590620022db908790859060040162004050565b602060405180830381865afa158015620022f9573d6000803e3d6000fd5b505050506040513d601f19601f820116820180604052508101906200231f9190620040ac565b92506001600160a01b038316620023a9576040516364e329cb60e11b81526001600160a01b0383169063c9c653969062002360908790859060040162004050565b6020604051808303816000875af115801562002380573d6000803e3d6000fd5b505050506040513d601f19601f82011682018060405250810190620023a69190620040ac565b92505b5050919050565b600354606090600081620023c58587620040e6565b11620023dd57620023d78486620040e6565b620023df565b815b9050620023ed858262004080565b6001600160401b03811115620024075762002407620040fc565b6040519080825280602002602001820160405280156200244457816020015b620024306200385c565b815260200190600190039081620024265790505b509250845b8181101562002629576003818154811062002468576200246862004096565b60009182526020918290206040805160a081018252600590930290910180546001600160a01b03908116845260018201541693830193909352600283015490820152600382018054919291606084019190620024c49062004112565b80601f0160208091040260200160405190810160405280929190818152602001828054620024f29062004112565b8015620025435780601f10620025175761010080835404028352916020019162002543565b820191906000526020600020905b8154815290600101906020018083116200252557829003601f168201915b505050505081526020016004820180546200255e9062004112565b80601f01602080910402602001604051908101604052809291908181526020018280546200258c9062004112565b8015620025dd5780601f10620025b157610100808354040283529160200191620025dd565b820191906000526020600020905b815481529060010190602001808311620025bf57829003601f168201915b505050505081525050848783620025f5919062004080565b8151811062002608576200260862004096565b6020026020010181905250808062002620906200414e565b91505062002449565b50509250929050565b6000806200263f62003312565b600b54604080516315ab88c960e31b815290516000926001600160a01b03169163ad5c46489160048083019260209291908290030181865afa1580156200268a573d6000803e3d6000fd5b505050506040513d601f19601f82011682018060405250810190620026b09190620040ac565b600a5460405163e6a4390560e01b81529192506000916001600160a01b039091169063e6a4390590620026ea908990869060040162004050565b602060405180830381865afa15801562002708573d6000803e3d6000fd5b505050506040513d601f19601f820116820180604052508101906200272e9190620040ac565b9050620027476001600160a01b0382163330886200340f565b600b5462002763906001600160a01b0383811691168762003449565b600b54604051629d473b60e21b81526001600160a01b03909116906302751cec906200279f90899089906000908190339042906004016200416a565b60408051808303816000875af1158015620027be573d6000803e3d6000fd5b505050506040513d601f19601f82011682018060405250810190620027e4919062004394565b935093505050620027f460018055565b9250929050565b6001600160a01b0381166000908152600460205260408120548082036200283557604051638dda39df60e01b815260040160405180910390fd5b60036200284460018362004080565b8154811062002857576200285762004096565b906000526020600020906005020160020154915050919050565b6200287b62003312565b336000908152600f602052604081208054909103620028ad576040516301715d7960e21b815260040160405180910390fd5b6000816002015442620028c1919062004080565b90506000826003015482106200292d578260040154821015620029255782600301548360040154620028f4919062004080565b600384015462002905908462004080565b845462002913919062004357565b6200291f919062004371565b62002930565b825462002930565b60005b9050600083600101548262002946919062004080565b9050806000036200296a576040516312d37ee560e31b815260040160405180910390fd5b600184018290556200297e3033836200336d565b60405181815233907fc15eb22beb780252072bdeec94b7fce7b15822d73417b8a4f92640577eb6fceb9060200160405180910390a25050505062000f5b60018055565b620029cb620032af565b620029d562003312565b6007546000819003620029fb5760405163d183fe4360e01b815260040160405180910390fd5b60006007556200210062002215565b6060816001600160401b0381111562002a275762002a27620040fc565b60405190808252806020026020018201604052801562002a51578160200160208202803683370190505b50905060005b8281101562002b325783838281811062002a755762002a7562004096565b905060200201602081019062002a8c919062003968565b6001600160a01b03166370a08231306040518263ffffffff1660e01b815260040162002ab99190620038d1565b602060405180830381865afa15801562002ad7573d6000803e3d6000fd5b505050506040513d601f19601f8201168201806040525081019062002afd9190620040cc565b82828151811062002b125762002b1262004096565b60209081029190910101528062002b29816200414e565b91505062002a57565b5092915050565b600062002b4562003312565b62002b4f620033c7565b8360000362002b7157604051637294708f60e11b815260040160405180910390fd5b60008b8b8b8b8933898960405162002b89906200389d565b62002b9c989796959493929190620043b9565b604051809103906000f08015801562002bb9573d6000803e3d6000fd5b50905080915060036040518060a00160405280846001600160a01b03168152602001336001600160a01b031681526020018781526020018a8a8080601f016020809104026020016040519081016040528093929190818152602001838380828437600092019190915250505090825250604080516020601f8901819004810282018101909252878152918101919088908890819084018382808284376000920182905250939094525050835460018082018655948252602091829020845160059092020180546001600160a01b03199081166001600160a01b039384161782559285015195810180549093169590911694909417905550604081015160028301556060810151909190600382019062002cd3908262004420565b506080820151600482019062002cea908262004420565b50506003546001600160a01b038416600081815260046020526040908190209290925590513392507f75c1f35492cd2bcb2820d5ff2434b9dc6d19432975f20761140109f0844a7b8a9062002d499089908d908d908b908b90620044e8565b60405180910390a35062002d5c60018055565b9a9950505050505050505050565b600654600090819081906127109062002d889061ffff168662004357565b62002d94919062004371565b6006549093506127109062002db49062010000900461ffff168662004357565b62002dc0919062004371565b91508162002dcf848662004080565b62002ddb919062004080565b929491935050565b62002ded620032af565b60005b8181101562001fb4576001600160a01b0384166000908152600e6020526040812060019185858581811062002e295762002e2962004096565b905060200201602081019062002e40919062003968565b6001600160a01b031681526020810191909152604001600020805460ff19169115159190911790558062002e74816200414e565b91505062002df0565b62002e87620032af565b6001600160a01b038116600081815260056020526040808220805460ff19169055517f7236530905f7db97a79e0d447edb198efa7cc11d321386a4bc4f01c9dcaef73d9190a250565b62002eda620032af565b6001600160a01b03811662002f415760405162461bcd60e51b815260206004820152602660248201527f4f776e61626c653a206e6577206f776e657220697320746865207a65726f206160448201526564647265737360d01b6064820152608401620002e5565b620010848162003507565b62002f56620032af565b61271062002f65828462004519565b61ffff161062002fa85760405162461bcd60e51b815260206004820152600d60248201526c08ccacae640e8dede40d0d2ced609b1b6044820152606401620002e5565b6006805461ffff84811663ffffffff19909216821762010000918516918202179092556040805191825260208201929092527f2ac80c14c28700f7b5e36f947d572149fe2e3947bac32c3a8c098f3e03722c11910162000c9e565b6200300d62003312565b6001600160a01b038116600090815260046020526040812054908190036200304857604051638dda39df60e01b815260040160405180910390fd5b600060036200305960018462004080565b815481106200306c576200306c62004096565b60009182526020909120600160059092020101546001600160a01b03169050338114620030ac5760405163ea8e4eb560e01b815260040160405180910390fd5b6001600160a01b03811660009081526009602052604081205490819003620030e75760405163d183fe4360e01b815260040160405180910390fd5b6001600160a01b0382166000818152600960205260408082208290555183156108fc0291849190818181858888f193505050501580156200312c573d6000803e3d6000fd5b50816001600160a01b0316600080516020620061e5833981519152826040516200315891815260200190565b60405180910390a25050506200108460018055565b62003177620032af565b6001600160a01b03919091166000908152600d60205260409020805460ff1916911515919091179055565b600080600b60009054906101000a90046001600160a01b03166001600160a01b031663ad5c46486040518163ffffffff1660e01b8152600401602060405180830381865afa158015620031f9573d6000803e3d6000fd5b505050506040513d601f19601f820116820180604052508101906200321f9190620040ac565b600a5460405163e6a4390560e01b81529192506000916001600160a01b039091169063e6a439059062003259908790869060040162004050565b602060405180830381865afa15801562003277573d6000803e3d6000fd5b505050506040513d601f19601f820116820180604052508101906200329d9190620040ac565b6001600160a01b031614159392505050565b33620032ba62002215565b6001600160a01b03161462000f5b5760405162461bcd60e51b815260206004820181905260248201527f4f776e61626c653a2063616c6c6572206973206e6f7420746865206f776e65726044820152606401620002e5565b600260015403620033665760405162461bcd60e51b815260206004820152601f60248201527f5265656e7472616e637947756172643a207265656e7472616e742063616c6c006044820152606401620002e5565b6002600155565b62001dd68363a9059cbb60e01b84846040516024016200338f92919062004537565b60408051601f198184030181529190526020810180516001600160e01b03166001600160e01b03199093169290921790915262003557565b60025460ff161562000f5b5760405162461bcd60e51b815260206004820152601060248201526f14185d5cd8589b194e881c185d5cd95960821b6044820152606401620002e5565b6040516001600160a01b038085166024830152831660448201526064810182905262001fb49085906323b872dd60e01b906084016200338f565b604051636eb1769f60e11b81526000906001600160a01b0385169063dd62ed3e906200347c903090879060040162004050565b602060405180830381865afa1580156200349a573d6000803e3d6000fd5b505050506040513d601f19601f82011682018060405250810190620034c09190620040cc565b905062001fb48463095ea7b360e01b85620034dc8686620040e6565b6040516024016200338f92919062004537565b600082620034fe858462003633565b14949350505050565b600080546001600160a01b038381166001600160a01b0319831681178455604051919092169283917f8be0079c531659141344cd1fd0a4f28419497f9722a3daafe3b4186f6b6457e09190a35050565b6000620035ae826040518060400160405280602081526020017f5361666545524332303a206c6f772d6c6576656c2063616c6c206661696c6564815250856001600160a01b03166200368b9092919063ffffffff16565b9050805160001480620035d2575080806020019051810190620035d2919062004550565b62001dd65760405162461bcd60e51b815260206004820152602a60248201527f5361666545524332303a204552433230206f7065726174696f6e20646964206e6044820152691bdd081cdd58d8d9595960b21b6064820152608401620002e5565b600081815b845181101562003681576200366a828683815181106200365c576200365c62004096565b6020026020010151620036a4565b91508062003678816200414e565b91505062003638565b5090505b92915050565b60606200369c8484600085620036d2565b949350505050565b6000818310620036c257600082815260208490526040902062000eab565b5060009182526020526040902090565b606082471015620037355760405162461bcd60e51b815260206004820152602660248201527f416464726573733a20696e73756666696369656e742062616c616e636520666f6044820152651c8818d85b1b60d21b6064820152608401620002e5565b600080866001600160a01b0316858760405162003753919062004570565b60006040518083038185875af1925050503d806000811462003792576040519150601f19603f3d011682016040523d82523d6000602084013e62003797565b606091505b5091509150620037aa87838387620037b5565b979650505050505050565b606083156200382957825160000362003821576001600160a01b0385163b620038215760405162461bcd60e51b815260206004820152601d60248201527f416464726573733a2063616c6c20746f206e6f6e2d636f6e74726163740000006044820152606401620002e5565b50816200369c565b6200369c8383815115620038405781518083602001fd5b8060405162461bcd60e51b8152600401620002e591906200458e565b6040518060a0016040528060006001600160a01b0316815260200160006001600160a01b031681526020016000815260200160608152602001606081525090565b611c0180620045a483390190565b6020808252600c908201526b2ab9b290313abcaa37b5b2b760a11b604082015260600190565b6001600160a01b0391909116815260200190565b6001600160a01b03811681146200108457600080fd5b600080604083850312156200390f57600080fd5b82356200391c81620038e5565b915060208301356200392e81620038e5565b809150509250929050565b600080604083850312156200394d57600080fd5b82356200395a81620038e5565b946020939093013593505050565b6000602082840312156200397b57600080fd5b813562000eab81620038e5565b6000602082840312156200399b57600080fd5b5035919050565b60008060408385031215620039b657600080fd5b50508035926020909101359150565b60005b83811015620039e2578181015183820152602001620039c8565b50506000910152565b6000815180845262003a05816020860160208601620039c5565b601f01601f19169290920160200192915050565b600082825180855260208086019550808260051b84010181860160005b8481101562003abf57858303601f19018952815180516001600160a01b0390811685528582015116858501526040808201519085015260608082015160a0828701819052919062003a8a83880182620039eb565b925050506080808301519250858203818701525062003aaa8183620039eb565b9a86019a945050509083019060010162003a36565b5090979650505050505050565b60208152600062000eab602083018462003a19565b6000806000806080858703121562003af857600080fd5b843562003b0581620038e5565b966020860135965060408601359560600135945092505050565b60008083601f84011262003b3257600080fd5b5081356001600160401b0381111562003b4a57600080fd5b602083019150836020828501011115620027f457600080fd5b60008060008060006060868803121562003b7c57600080fd5b853562003b8981620038e5565b945060208601356001600160401b038082111562003ba657600080fd5b62003bb489838a0162003b1f565b9096509450604088013591508082111562003bce57600080fd5b5062003bdd8882890162003b1f565b969995985093965092949392505050565b6001600160a01b038681168252851660208201526040810184905260a06060820181905260009062003c2390830185620039eb565b828103608084015262003c378185620039eb565b98975050505050505050565b60008083601f84011262003c5657600080fd5b5081356001600160401b0381111562003c6e57600080fd5b6020830191508360208260051b8501011115620027f457600080fd5b60008060008060006080868803121562003ca357600080fd5b853562003cb081620038e5565b945060208601359350604086013562003cc981620038e5565b925060608601356001600160401b0381111562003ce557600080fd5b62003bdd8882890162003c43565b60008060006060848603121562003d0957600080fd5b833562003d1681620038e5565b925060208401359150604084013562003d2f81620038e5565b809150509250925092565b6000806000806040858703121562003d5157600080fd5b84356001600160401b038082111562003d6957600080fd5b62003d778883890162003c43565b9096509450602087013591508082111562003d9157600080fd5b5062003da08782880162003c43565b95989497509550505050565b60408152600062003dc1604083018562003a19565b90508260208301529392505050565b6000806020838503121562003de457600080fd5b82356001600160401b0381111562003dfb57600080fd5b62003e098582860162003c43565b90969095509350505050565b6020808252825182820181905260009190848201906040850190845b8181101562003e4f5783518352928401929184019160010162003e31565b50909695505050505050565b60008060008060008060008060008060c08b8d03121562003e7b57600080fd5b8a356001600160401b038082111562003e9357600080fd5b62003ea18e838f0162003b1f565b909c509a5060208d013591508082111562003ebb57600080fd5b62003ec98e838f0162003b1f565b909a50985060408d013591508082111562003ee357600080fd5b62003ef18e838f0162003b1f565b909850965060608d0135955060808d0135945060a08d013591508082111562003f1957600080fd5b5062003f288d828e0162003b1f565b915080935050809150509295989b9194979a5092959850565b60008060006040848603121562003f5757600080fd5b833562003f6481620038e5565b925060208401356001600160401b0381111562003f8057600080fd5b62003f8e8682870162003c43565b9497909650939450505050565b803561ffff8116811462003fae57600080fd5b919050565b6000806040838503121562003fc757600080fd5b62003fd28362003f9b565b915062003fe26020840162003f9b565b90509250929050565b80151581146200108457600080fd5b600080604083850312156200400e57600080fd5b82356200401b81620038e5565b915060208301356200392e8162003feb565b948552602085019390935260408401919091526060830152608082015260a00190565b6001600160a01b0392831681529116602082015260400190565b634e487b7160e01b600052601160045260246000fd5b818103818111156200368557620036856200406a565b634e487b7160e01b600052603260045260246000fd5b600060208284031215620040bf57600080fd5b815162000eab81620038e5565b600060208284031215620040df57600080fd5b5051919050565b808201808211156200368557620036856200406a565b634e487b7160e01b600052604160045260246000fd5b600181811c908216806200412757607f821691505b6020821081036200414857634e487b7160e01b600052602260045260246000fd5b50919050565b6000600182016200416357620041636200406a565b5060010190565b6001600160a01b039687168152602081019590955260408501939093526060840191909152909216608082015260a081019190915260c00190565b600080600060608486031215620041bb57600080fd5b8351925060208401519150604084015190509250925092565b601f82111562001dd657600081815260208120601f850160051c81016020861015620041fd5750805b601f850160051c820191505b818110156200421e5782815560010162004209565b505050505050565b600019600383901b1c191660019190911b1790565b6001600160401b03831115620042555762004255620040fc565b6200426d8362004266835462004112565b83620041d4565b6000601f841160018114620042a057600085156200428b5750838201355b62004297868262004226565b84555062001a21565b600083815260209020601f19861690835b82811015620042d35786850135825560209485019460019092019101620042b1565b5086821015620042f15760001960f88860031b161c19848701351681555b505060018560011b0183555050505050565b81835281816020850137506000828201602090810191909152601f909101601f19169091010190565b6040815260006200434260408301868862004303565b8281036020840152620037aa81858762004303565b80820281158282048414176200368557620036856200406a565b6000826200438f57634e487b7160e01b600052601260045260246000fd5b500490565b60008060408385031215620043a857600080fd5b505080516020909101519092909150565b60a081526000620043cf60a083018a8c62004303565b8281036020840152620043e481898b62004303565b604084018890526001600160a01b0387166060850152838103608085015290506200441181858762004303565b9b9a5050505050505050505050565b81516001600160401b038111156200443c576200443c620040fc565b62004454816200444d845462004112565b84620041d4565b602080601f831160018114620044885760008415620044735750858301515b6200447f858262004226565b8655506200421e565b600085815260208120601f198616915b82811015620044b95788860151825594840194600190910190840162004498565b5085821015620044d85787850151600019600388901b60f8161c191681555b5050505050600190811b01905550565b8581526060602082015260006200450460608301868862004303565b828103604084015262003c3781858762004303565b61ffff81811683821601908082111562002b325762002b326200406a565b6001600160a01b03929092168252602082015260400190565b6000602082840312156200456357600080fd5b815162000eab8162003feb565b6000825162004584818460208701620039c5565b9190910192915050565b60208152600062000eab6020830184620039eb56fe6101606040523480156200001257600080fd5b5060405162001c0138038062001c01833981016040819052620000359162000526565b6040805180820190915260018152603160f81b6020820152859081908187600362000061838262000671565b50600462000070828262000671565b506200008291508390506005620001e2565b6101205262000093816006620001e2565b61014052815160208084019190912060e052815190820120610100524660a0526200012160e05161010051604080517f8b73c3c69bb8fe3d512ecc4cf759cc79239f7b179b0ffacaa9a75d522b39400f60208201529081019290925260608201524660808201523060a082015260009060c00160405160208183030381529060405280519060200120905090565b60805250503060c0525062000136336200021b565b6001600160a01b0382166200015e5760405163d92e233d60e01b815260040160405180910390fd5b60038551108062000170575060038451105b156200018f57604051639432241960e01b815260040160405180910390fd5b82600003620001b15760405163c16f3a9360e01b815260040160405180910390fd5b600a620001bf828262000671565b50620001cc33846200026d565b620001d78262000334565b5050505050620007b9565b60006020835110156200020257620001fa83620003b3565b905062000215565b816200020f848262000671565b5060ff90505b92915050565b600980546001600160a01b038381166001600160a01b0319831681179093556040519116919082907f8be0079c531659141344cd1fd0a4f28419497f9722a3daafe3b4186f6b6457e090600090a35050565b6001600160a01b038216620002c95760405162461bcd60e51b815260206004820152601f60248201527f45524332303a206d696e7420746f20746865207a65726f20616464726573730060448201526064015b60405180910390fd5b8060026000828254620002dd91906200073d565b90915550506001600160a01b038216600081815260208181526040808320805486019055518481527fddf252ad1be2c89b69c2b068fc378daa952ba7f163c4a11628f55a4df523b3ef910160405180910390a35050565b6200033e620003fb565b6001600160a01b038116620003a55760405162461bcd60e51b815260206004820152602660248201527f4f776e61626c653a206e6577206f776e657220697320746865207a65726f206160448201526564647265737360d01b6064820152608401620002c0565b620003b0816200021b565b50565b600080829050601f81511115620003e1578260405163305a27a960e01b8152600401620002c091906200075f565b8051620003ee8262000794565b179392505050565b505050565b6009546001600160a01b03163314620004575760405162461bcd60e51b815260206004820181905260248201527f4f776e61626c653a2063616c6c6572206973206e6f7420746865206f776e65726044820152606401620002c0565b565b634e487b7160e01b600052604160045260246000fd5b60005b838110156200048c57818101518382015260200162000472565b50506000910152565b600082601f830112620004a757600080fd5b81516001600160401b0380821115620004c457620004c462000459565b604051601f8301601f19908116603f01168101908282118183101715620004ef57620004ef62000459565b816040528381528660208588010111156200050957600080fd5b6200051c8460208301602089016200046f565b9695505050505050565b600080600080600060a086880312156200053f57600080fd5b85516001600160401b03808211156200055757600080fd5b6200056589838a0162000495565b965060208801519150808211156200057c57600080fd5b6200058a89838a0162000495565b604089015160608a0151919750955091506001600160a01b0382168214620005b157600080fd5b608088015191935080821115620005c757600080fd5b50620005d68882890162000495565b9150509295509295909350565b600181811c90821680620005f857607f821691505b6020821081036200061957634e487b7160e01b600052602260045260246000fd5b50919050565b601f821115620003f657600081815260208120601f850160051c81016020861015620006485750805b601f850160051c820191505b81811015620006695782815560010162000654565b505050505050565b81516001600160401b038111156200068d576200068d62000459565b620006a5816200069e8454620005e3565b846200061f565b602080601f831160018114620006dd5760008415620006c45750858301515b600019600386901b1c1916600185901b17855562000669565b600085815260208120601f198616915b828110156200070e57888601518255948401946001909101908401620006ed565b50858210156200072d5787850151600019600388901b60f8161c191681555b5050505050600190811b01905550565b808201808211156200021557634e487b7160e01b600052601160045260246000fd5b6020815260008251806020840152620007808160408501602087016200046f565b601f01601f19169190910160400192915050565b80516020808301519190811015620006195760001960209190910360031b1b16919050565b60805160a05160c05160e0516101005161012051610140516113ed62000814600039600061041d015260006103f201526000610bcb01526000610ba301526000610afe01526000610b2801526000610b5201526113ed6000f3fe608060405234801561001057600080fd5b50600436106100fc5760003560e01c806306fdde0314610101578063095ea7b31461011f57806318160ddd1461014257806323b872dd14610154578063313ce567146101675780633644e51514610176578063395093511461017e5780633c130d901461019157806370a0823114610199578063715018a6146101c25780637ecebe00146101cc57806384b0196e146101df5780638da5cb5b146101fa57806395d89b411461021a578063a457c2d714610222578063a9059cbb14610235578063c623674f14610248578063d505accf14610250578063dd62ed3e14610263578063f2fde38b14610276575b600080fd5b610109610289565b60405161011691906110a1565b60405180910390f35b61013261012d3660046110d7565b61031b565b6040519015158152602001610116565b6002545b604051908152602001610116565b610132610162366004611101565b610335565b60405160128152602001610116565b610146610359565b61013261018c3660046110d7565b610368565b61010961038a565b6101466101a736600461113d565b6001600160a01b031660009081526020819052604090205490565b6101ca6103b2565b005b6101466101da36600461113d565b6103c6565b6101e76103e4565b6040516101169796959493929190611158565b61020261046d565b6040516001600160a01b039091168152602001610116565b61010961047c565b6101326102303660046110d7565b61048b565b6101326102433660046110d7565b61050b565b610109610519565b6101ca61025e3660046111ee565b6105a7565b610146610271366004611261565b61070b565b6101ca61028436600461113d565b610736565b60606003805461029890611294565b80601f01602080910402602001604051908101604052809291908181526020018280546102c490611294565b80156103115780601f106102e657610100808354040283529160200191610311565b820191906000526020600020905b8154815290600101906020018083116102f457829003601f168201915b5050505050905090565b6000336103298185856107af565b60019150505b92915050565b6000336103438582856108d3565b61034e85858561094d565b506001949350505050565b6000610363610af1565b905090565b60003361032981858561037b838361070b565b61038591906112c8565b6107af565b6060600a60405160200161039e91906112e9565b604051602081830303815290604052905090565b6103ba610c1c565b6103c46000610c7b565b565b6001600160a01b03811660009081526007602052604081205461032f565b6000606080828080836104187f00000000000000000000000000000000000000000000000000000000000000006005610ccd565b6104437f00000000000000000000000000000000000000000000000000000000000000006006610ccd565b60408051600080825260208201909252600f60f81b9b939a50919850469750309650945092509050565b6009546001600160a01b031690565b60606004805461029890611294565b60003381610499828661070b565b9050838110156104fe5760405162461bcd60e51b815260206004820152602560248201527f45524332303a2064656372656173656420616c6c6f77616e63652062656c6f77604482015264207a65726f60d81b60648201526084015b60405180910390fd5b61034e82868684036107af565b60003361032981858561094d565b600a805461052690611294565b80601f016020809104026020016040519081016040528092919081815260200182805461055290611294565b801561059f5780601f106105745761010080835404028352916020019161059f565b820191906000526020600020905b81548152906001019060200180831161058257829003601f168201915b505050505081565b834211156105f75760405162461bcd60e51b815260206004820152601d60248201527f45524332305065726d69743a206578706972656420646561646c696e6500000060448201526064016104f5565b60007f6e71edae12b1b97f4d1f60370fef10105fa2faae0126114a169c64845d6126c98888886106268c610d78565b6040805160208101969096526001600160a01b0394851690860152929091166060840152608083015260a082015260c0810186905260e001604051602081830303815290604052805190602001209050600061068182610da0565b9050600061069182878787610dcd565b9050896001600160a01b0316816001600160a01b0316146106f45760405162461bcd60e51b815260206004820152601e60248201527f45524332305065726d69743a20696e76616c6964207369676e6174757265000060448201526064016104f5565b6106ff8a8a8a6107af565b50505050505050505050565b6001600160a01b03918216600090815260016020908152604080832093909416825291909152205490565b61073e610c1c565b6001600160a01b0381166107a35760405162461bcd60e51b815260206004820152602660248201527f4f776e61626c653a206e6577206f776e657220697320746865207a65726f206160448201526564647265737360d01b60648201526084016104f5565b6107ac81610c7b565b50565b6001600160a01b0383166108115760405162461bcd60e51b8152602060048201526024808201527f45524332303a20617070726f76652066726f6d20746865207a65726f206164646044820152637265737360e01b60648201526084016104f5565b6001600160a01b0382166108725760405162461bcd60e51b815260206004820152602260248201527f45524332303a20617070726f766520746f20746865207a65726f206164647265604482015261737360f01b60648201526084016104f5565b6001600160a01b0383811660008181526001602090815260408083209487168084529482529182902085905590518481527f8c5be1e5ebec7d5bd14f71427d1e84f3dd0314c0f7b2291e5b200ac8c7c3b925910160405180910390a3505050565b60006108df848461070b565b90506000198114610947578181101561093a5760405162461bcd60e51b815260206004820152601d60248201527f45524332303a20696e73756666696369656e7420616c6c6f77616e636500000060448201526064016104f5565b61094784848484036107af565b50505050565b6001600160a01b0383166109b15760405162461bcd60e51b815260206004820152602560248201527f45524332303a207472616e736665722066726f6d20746865207a65726f206164604482015264647265737360d81b60648201526084016104f5565b6001600160a01b038216610a135760405162461bcd60e51b815260206004820152602360248201527f45524332303a207472616e7366657220746f20746865207a65726f206164647260448201526265737360e81b60648201526084016104f5565b6001600160a01b03831660009081526020819052604090205481811015610a8b5760405162461bcd60e51b815260206004820152602660248201527f45524332303a207472616e7366657220616d6f756e7420657863656564732062604482015265616c616e636560d01b60648201526084016104f5565b6001600160a01b03848116600081815260208181526040808320878703905593871680835291849020805487019055925185815290927fddf252ad1be2c89b69c2b068fc378daa952ba7f163c4a11628f55a4df523b3ef910160405180910390a3610947565b6000306001600160a01b037f000000000000000000000000000000000000000000000000000000000000000016148015610b4a57507f000000000000000000000000000000000000000000000000000000000000000046145b15610b7457507f000000000000000000000000000000000000000000000000000000000000000090565b610363604080517f8b73c3c69bb8fe3d512ecc4cf759cc79239f7b179b0ffacaa9a75d522b39400f60208201527f0000000000000000000000000000000000000000000000000000000000000000918101919091527f000000000000000000000000000000000000000000000000000000000000000060608201524660808201523060a082015260009060c00160405160208183030381529060405280519060200120905090565b33610c2561046d565b6001600160a01b0316146103c45760405162461bcd60e51b815260206004820181905260248201527f4f776e61626c653a2063616c6c6572206973206e6f7420746865206f776e657260448201526064016104f5565b600980546001600160a01b038381166001600160a01b0319831681179093556040519116919082907f8be0079c531659141344cd1fd0a4f28419497f9722a3daafe3b4186f6b6457e090600090a35050565b606060ff8314610ce757610ce083610df5565b905061032f565b818054610cf390611294565b80601f0160208091040260200160405190810160405280929190818152602001828054610d1f90611294565b8015610d6c5780601f10610d4157610100808354040283529160200191610d6c565b820191906000526020600020905b815481529060010190602001808311610d4f57829003601f168201915b5050505050905061032f565b6001600160a01b03811660009081526007602052604090208054600181018255905b50919050565b600061032f610dad610af1565b8360405161190160f01b8152600281019290925260228201526042902090565b6000806000610dde87878787610e34565b91509150610deb81610eee565b5095945050505050565b60606000610e0283611033565b604080516020808252818301909252919250600091906020820181803683375050509182525060208101929092525090565b6000806fa2a8918ca85bafe22016d0b997e4df60600160ff1b03831115610e615750600090506003610ee5565b6040805160008082526020820180845289905260ff881692820192909252606081018690526080810185905260019060a0016020604051602081039080840390855afa158015610eb5573d6000803e3d6000fd5b5050604051601f1901519150506001600160a01b038116610ede57600060019250925050610ee5565b9150600090505b94509492505050565b6000816004811115610f0257610f026113a1565b03610f0a5750565b6001816004811115610f1e57610f1e6113a1565b03610f665760405162461bcd60e51b815260206004820152601860248201527745434453413a20696e76616c6964207369676e617475726560401b60448201526064016104f5565b6002816004811115610f7a57610f7a6113a1565b03610fc75760405162461bcd60e51b815260206004820152601f60248201527f45434453413a20696e76616c6964207369676e6174757265206c656e6774680060448201526064016104f5565b6003816004811115610fdb57610fdb6113a1565b036107ac5760405162461bcd60e51b815260206004820152602260248201527f45434453413a20696e76616c6964207369676e6174757265202773272076616c604482015261756560f01b60648201526084016104f5565b600060ff8216601f81111561032f57604051632cd44ac360e21b815260040160405180910390fd5b6000815180845260005b8181101561108157602081850181015186830182015201611065565b506000602082860101526020601f19601f83011685010191505092915050565b6020815260006110b4602083018461105b565b9392505050565b80356001600160a01b03811681146110d257600080fd5b919050565b600080604083850312156110ea57600080fd5b6110f3836110bb565b946020939093013593505050565b60008060006060848603121561111657600080fd5b61111f846110bb565b925061112d602085016110bb565b9150604084013590509250925092565b60006020828403121561114f57600080fd5b6110b4826110bb565b60ff60f81b881681526000602060e08184015261117860e084018a61105b565b838103604085015261118a818a61105b565b606085018990526001600160a01b038816608086015260a0850187905284810360c0860152855180825283870192509083019060005b818110156111dc578351835292840192918401916001016111c0565b50909c9b505050505050505050505050565b600080600080600080600060e0888a03121561120957600080fd5b611212886110bb565b9650611220602089016110bb565b95506040880135945060608801359350608088013560ff8116811461124457600080fd5b9699959850939692959460a0840135945060c09093013592915050565b6000806040838503121561127457600080fd5b61127d836110bb565b915061128b602084016110bb565b90509250929050565b600181811c908216806112a857607f821691505b602082108103610d9a57634e487b7160e01b600052602260045260246000fd5b8082018082111561032f57634e487b7160e01b600052601160045260246000fd5b66697066733a2f2f60c81b8152600060076000845481600182811c91508083168061131557607f831692505b6020808410820361133457634e487b7160e01b86526022600452602486fd5b818015611348576001811461136157611392565b60ff1986168a89015284151585028a0188019650611392565b60008b81526020902060005b868110156113885781548c82018b015290850190830161136d565b505087858b010196505b50949998505050505050505050565b634e487b7160e01b600052602160045260246000fdfea2646970667358221220f1f0e77efd43c1ed3129e9422c1f778ad458cfbd181e98219bdec1839a3a2a2b64736f6c63430008140033b42c9fecfb68f9bf84886f05b85865be2fda69a3ec869651d1320d8f528be6bbe82be315ba1a0d0362d09d5cf59781f214b53a74eb978c35b76ad687099c670cb3579861130e4da8bb7b87c54d2d139937f23bcd6e4ebed9e75d0f78ab1cc118a2646970667358221220b9045a4971a72c76edb9aa61cb9883d7c2c0628b6081fa372222a8a3cc8d049a64736f6c63430008140033","opcodes":"PUSH1 0x80 PUSH1 0x40 MSTORE CALLVALUE DUP1 ISZERO PUSH3 0x11 JUMPI PUSH1 0x0 DUP1 REVERT JUMPDEST POP PUSH1 0x40 MLOAD PUSH3 0x63E9 CODESIZE SUB DUP1 PUSH3 0x63E9 DUP4 CODECOPY DUP2 ADD PUSH1 0x40 DUP2 SWAP1 MSTORE PUSH3 0x34 SWAP2 PUSH3 0x136 JUMP JUMPDEST PUSH3 0x3F CALLER PUSH3 0xCE JUMP JUMPDEST PUSH1 0x1 DUP1 SSTORE PUSH1 0x2 DUP1 SLOAD PUSH1 0xFF NOT AND SWAP1 SSTORE PUSH2 0x2710 PUSH3 0x5C DUP3 DUP5 PUSH3 0x16E JUMP JUMPDEST PUSH2 0xFFFF AND LT PUSH3 0xA2 JUMPI PUSH1 0x40 MLOAD PUSH3 0x461BCD PUSH1 0xE5 SHL DUP2 MSTORE PUSH1 0x20 PUSH1 0x4 DUP3 ADD MSTORE PUSH1 0xD PUSH1 0x24 DUP3 ADD MSTORE PUSH13 0x8CCACAE640E8DEDE40D0D2CED PUSH1 0x9B SHL PUSH1 0x44 DUP3 ADD MSTORE PUSH1 0x64 ADD PUSH1 0x40 MLOAD DUP1 SWAP2 SUB SWAP1 REVERT JUMPDEST PUSH1 0x6 DUP1 SLOAD PUSH2 0xFFFF SWAP3 DUP4 AND PUSH3 0x10000 MUL PUSH4 0xFFFFFFFF NOT SWAP1 SWAP2 AND SWAP3 SWAP1 SWAP4 AND SWAP2 SWAP1 SWAP2 OR SWAP2 SWAP1 SWAP2 OR SWAP1 SSTORE PUSH3 0x19F JUMP JUMPDEST PUSH1 0x0 DUP1 SLOAD PUSH1 0x1 PUSH1 0x1 PUSH1 0xA0 SHL SUB DUP4 DUP2 AND PUSH1 0x1 PUSH1 0x1 PUSH1 0xA0 SHL SUB NOT DUP4 AND DUP2 OR DUP5 SSTORE PUSH1 0x40 MLOAD SWAP2 SWAP1 SWAP3 AND SWAP3 DUP4 SWAP2 PUSH32 0x8BE0079C531659141344CD1FD0A4F28419497F9722A3DAAFE3B4186F6B6457E0 SWAP2 SWAP1 LOG3 POP POP JUMP JUMPDEST DUP1 MLOAD PUSH2 0xFFFF DUP2 AND DUP2 EQ PUSH3 0x131 JUMPI PUSH1 0x0 DUP1 REVERT JUMPDEST SWAP2 SWAP1 POP JUMP JUMPDEST PUSH1 0x0 DUP1 PUSH1 0x40 DUP4 DUP6 SUB SLT ISZERO PUSH3 0x14A JUMPI PUSH1 0x0 DUP1 REVERT JUMPDEST PUSH3 0x155 DUP4 PUSH3 0x11E JUMP JUMPDEST SWAP2 POP PUSH3 0x165 PUSH1 0x20 DUP5 ADD PUSH3 0x11E JUMP JUMPDEST SWAP1 POP SWAP3 POP SWAP3 SWAP1 POP JUMP JUMPDEST PUSH2 0xFFFF DUP2 DUP2 AND DUP4 DUP3 AND ADD SWAP1 DUP1 DUP3 GT ISZERO PUSH3 0x198 JUMPI PUSH4 0x4E487B71 PUSH1 0xE0 SHL PUSH1 0x0 MSTORE PUSH1 0x11 PUSH1 0x4 MSTORE PUSH1 0x24 PUSH1 0x0 REVERT JUMPDEST POP SWAP3 SWAP2 POP POP JUMP JUMPDEST PUSH2 0x623A DUP1 PUSH3 0x1AF PUSH1 0x0 CODECOPY PUSH1 0x0 RETURN INVALID PUSH1 0x80 PUSH1 0x40 MSTORE PUSH1 0x4 CALLDATASIZE LT PUSH3 0x2C5 JUMPI PUSH1 0x0 CALLDATALOAD PUSH1 0xE0 SHR DUP1 PUSH4 0x758D924 EQ PUSH3 0x308 JUMPI DUP1 PUSH4 0x9CCCAAC EQ PUSH3 0x342 JUMPI DUP1 PUSH4 0xE3F0CFC EQ PUSH3 0x369 JUMPI DUP1 PUSH4 0x1228CBEE EQ PUSH3 0x38E JUMPI DUP1 PUSH4 0x173608E7 EQ PUSH3 0x3B3 JUMPI DUP1 PUSH4 0x1AF03203 EQ PUSH3 0x3CB JUMPI DUP1 PUSH4 0x22163B86 EQ PUSH3 0x3F0 JUMPI DUP1 PUSH4 0x22212E2B EQ PUSH3 0x417 JUMPI DUP1 PUSH4 0x2319835C EQ PUSH3 0x42F JUMPI DUP1 PUSH4 0x28D7B276 EQ PUSH3 0x463 JUMPI DUP1 PUSH4 0x35A62E68 EQ PUSH3 0x488 JUMPI DUP1 PUSH4 0x457972DE EQ PUSH3 0x4B9 JUMPI DUP1 PUSH4 0x494CFC6C EQ PUSH3 0x4DE JUMPI DUP1 PUSH4 0x56688700 EQ PUSH3 0x512 JUMPI DUP1 PUSH4 0x59F3A97D EQ PUSH3 0x545 JUMPI DUP1 PUSH4 0x5C975ABB EQ PUSH3 0x56A JUMPI DUP1 PUSH4 0x5E62BF94 EQ PUSH3 0x584 JUMPI DUP1 PUSH4 0x620BFA7B EQ PUSH3 0x5A9 JUMPI DUP1 PUSH4 0x634282AF EQ PUSH3 0x5C1 JUMPI DUP1 PUSH4 0x64618CF9 EQ PUSH3 0x5F9 JUMPI DUP1 PUSH4 0x66C5B06C EQ PUSH3 0x610 JUMPI DUP1 PUSH4 0x692BF4A8 EQ PUSH3 0x635 JUMPI DUP1 PUSH4 0x715018A6 EQ PUSH3 0x64C JUMPI DUP1 PUSH4 0x75780F42 EQ PUSH3 0x664 JUMPI DUP1 PUSH4 0x79C8FFD6 EQ PUSH3 0x69E JUMPI DUP1 PUSH4 0x7A86279B EQ PUSH3 0x6D2 JUMPI DUP1 PUSH4 0x7E1C0C09 EQ PUSH3 0x6F7 JUMPI DUP1 PUSH4 0x7E8DEF1D EQ PUSH3 0x70E JUMPI DUP1 PUSH4 0x84536017 EQ PUSH3 0x749 JUMPI DUP1 PUSH4 0x8604CFEF EQ PUSH3 0x761 JUMPI DUP1 PUSH4 0x8995881D EQ PUSH3 0x779 JUMPI DUP1 PUSH4 0x8CD4426D EQ PUSH3 0x7AD JUMPI DUP1 PUSH4 0x8DA5CB5B EQ PUSH3 0x7D2 JUMPI DUP1 PUSH4 0x98E122FD EQ PUSH3 0x7EA JUMPI DUP1 PUSH4 0x9B53A7F5 EQ PUSH3 0x80F JUMPI DUP1 PUSH4 0xA201CCF6 EQ PUSH3 0x844 JUMPI DUP1 PUSH4 0xB8D8FBB4 EQ PUSH3 0x869 JUMPI DUP1 PUSH4 0xB95ED06F EQ PUSH3 0x88B JUMPI DUP1 PUSH4 0xBC120FE7 EQ PUSH3 0x8B0 JUMPI DUP1 PUSH4 0xC748713E EQ PUSH3 0x8EF JUMPI DUP1 PUSH4 0xD01C44CD EQ PUSH3 0x920 JUMPI DUP1 PUSH4 0xD0B7830B EQ PUSH3 0x938 JUMPI DUP1 PUSH4 0xD260BE7C EQ PUSH3 0x950 JUMPI DUP1 PUSH4 0xD634B419 EQ PUSH3 0x984 JUMPI DUP1 PUSH4 0xDAD4412C EQ PUSH3 0x9A9 JUMPI DUP1 PUSH4 0xDC4EC9BE EQ PUSH3 0x9CE JUMPI DUP1 PUSH4 0xE559AFD9 EQ PUSH3 0xA05 JUMPI DUP1 PUSH4 0xF0B6374B EQ PUSH3 0xA2A JUMPI DUP1 PUSH4 0xF2FDE38B EQ PUSH3 0xA4F JUMPI DUP1 PUSH4 0xF37EF78C EQ PUSH3 0xA74 JUMPI DUP1 PUSH4 0xF3D2350E EQ PUSH3 0xAA5 JUMPI DUP1 PUSH4 0xF4C5CDCA EQ PUSH3 0xACA JUMPI DUP1 PUSH4 0xF641FE39 EQ PUSH3 0xAEF JUMPI DUP1 PUSH4 0xF6E4B62B EQ PUSH3 0xB06 JUMPI DUP1 PUSH4 0xF794062E EQ PUSH3 0xB2B JUMPI DUP1 PUSH4 0xFDB20CCB EQ PUSH3 0xB50 JUMPI DUP1 PUSH4 0xFF96092A EQ PUSH3 0xBB1 JUMPI PUSH3 0x2EE JUMP JUMPDEST CALLDATASIZE PUSH3 0x2EE JUMPI PUSH1 0x40 MLOAD PUSH3 0x461BCD PUSH1 0xE5 SHL DUP2 MSTORE PUSH1 0x4 ADD PUSH3 0x2E5 SWAP1 PUSH3 0x38AB JUMP JUMPDEST PUSH1 0x40 MLOAD DUP1 SWAP2 SUB SWAP1 REVERT JUMPDEST PUSH1 0x40 MLOAD PUSH3 0x461BCD PUSH1 0xE5 SHL DUP2 MSTORE PUSH1 0x4 ADD PUSH3 0x2E5 SWAP1 PUSH3 0x38AB JUMP JUMPDEST CALLVALUE DUP1 ISZERO PUSH3 0x315 JUMPI PUSH1 0x0 DUP1 REVERT JUMPDEST POP PUSH1 0xB SLOAD PUSH3 0x32A SWAP1 PUSH1 0x1 PUSH1 0x1 PUSH1 0xA0 SHL SUB AND DUP2 JUMP JUMPDEST PUSH1 0x40 MLOAD PUSH3 0x339 SWAP2 SWAP1 PUSH3 0x38D1 JUMP JUMPDEST PUSH1 0x40 MLOAD DUP1 SWAP2 SUB SWAP1 RETURN JUMPDEST CALLVALUE DUP1 ISZERO PUSH3 0x34F JUMPI PUSH1 0x0 DUP1 REVERT JUMPDEST POP PUSH3 0x367 PUSH3 0x361 CALLDATASIZE PUSH1 0x4 PUSH3 0x38FB JUMP JUMPDEST PUSH3 0xBCE JUMP JUMPDEST STOP JUMPDEST CALLVALUE DUP1 ISZERO PUSH3 0x376 JUMPI PUSH1 0x0 DUP1 REVERT JUMPDEST POP PUSH3 0x367 PUSH3 0x388 CALLDATASIZE PUSH1 0x4 PUSH3 0x3939 JUMP JUMPDEST PUSH3 0xCAA JUMP JUMPDEST CALLVALUE DUP1 ISZERO PUSH3 0x39B JUMPI PUSH1 0x0 DUP1 REVERT JUMPDEST POP PUSH3 0x32A PUSH3 0x3AD CALLDATASIZE PUSH1 0x4 PUSH3 0x3968 JUMP JUMPDEST PUSH3 0xDB5 JUMP JUMPDEST CALLVALUE DUP1 ISZERO PUSH3 0x3C0 JUMPI PUSH1 0x0 DUP1 REVERT JUMPDEST POP PUSH3 0x367 PUSH3 0xEB2 JUMP JUMPDEST CALLVALUE DUP1 ISZERO PUSH3 0x3D8 JUMPI PUSH1 0x0 DUP1 REVERT JUMPDEST POP PUSH3 0x367 PUSH3 0x3EA CALLDATASIZE PUSH1 0x4 PUSH3 0x3968 JUMP JUMPDEST PUSH3 0xF5D JUMP JUMPDEST CALLVALUE DUP1 ISZERO PUSH3 0x3FD JUMPI PUSH1 0x0 DUP1 REVERT JUMPDEST POP PUSH3 0x408 PUSH1 0x7 SLOAD DUP2 JUMP JUMPDEST PUSH1 0x40 MLOAD SWAP1 DUP2 MSTORE PUSH1 0x20 ADD PUSH3 0x339 JUMP JUMPDEST CALLVALUE DUP1 ISZERO PUSH3 0x424 JUMPI PUSH1 0x0 DUP1 REVERT JUMPDEST POP PUSH3 0x408 PUSH1 0xC SLOAD DUP2 JUMP JUMPDEST CALLVALUE DUP1 ISZERO PUSH3 0x43C JUMPI PUSH1 0x0 DUP1 REVERT JUMPDEST POP PUSH1 0xB SLOAD PUSH3 0x452 SWAP1 PUSH1 0x1 PUSH1 0xA0 SHL SWAP1 DIV PUSH1 0xFF AND DUP2 JUMP JUMPDEST PUSH1 0x40 MLOAD SWAP1 ISZERO ISZERO DUP2 MSTORE PUSH1 0x20 ADD PUSH3 0x339 JUMP JUMPDEST CALLVALUE DUP1 ISZERO PUSH3 0x470 JUMPI PUSH1 0x0 DUP1 REVERT JUMPDEST POP PUSH3 0x367 PUSH3 0x482 CALLDATASIZE PUSH1 0x4 PUSH3 0x3988 JUMP JUMPDEST PUSH3 0x1087 JUMP JUMPDEST CALLVALUE DUP1 ISZERO PUSH3 0x495 JUMPI PUSH1 0x0 DUP1 REVERT JUMPDEST POP PUSH3 0x408 PUSH3 0x4A7 CALLDATASIZE PUSH1 0x4 PUSH3 0x3968 JUMP JUMPDEST PUSH1 0x4 PUSH1 0x20 MSTORE PUSH1 0x0 SWAP1 DUP2 MSTORE PUSH1 0x40 SWAP1 KECCAK256 SLOAD DUP2 JUMP JUMPDEST CALLVALUE DUP1 ISZERO PUSH3 0x4C6 JUMPI PUSH1 0x0 DUP1 REVERT JUMPDEST POP PUSH3 0x367 PUSH3 0x4D8 CALLDATASIZE PUSH1 0x4 PUSH3 0x3939 JUMP JUMPDEST PUSH3 0x10CC JUMP JUMPDEST CALLVALUE DUP1 ISZERO PUSH3 0x4EB JUMPI PUSH1 0x0 DUP1 REVERT JUMPDEST POP PUSH3 0x503 PUSH3 0x4FD CALLDATASIZE PUSH1 0x4 PUSH3 0x39A2 JUMP JUMPDEST PUSH3 0x120E JUMP JUMPDEST PUSH1 0x40 MLOAD PUSH3 0x339 SWAP2 SWAP1 PUSH3 0x3ACC JUMP JUMPDEST PUSH3 0x529 PUSH3 0x523 CALLDATASIZE PUSH1 0x4 PUSH3 0x3939 JUMP JUMPDEST PUSH3 0x1490 JUMP JUMPDEST PUSH1 0x40 DUP1 MLOAD SWAP4 DUP5 MSTORE PUSH1 0x20 DUP5 ADD SWAP3 SWAP1 SWAP3 MSTORE SWAP1 DUP3 ADD MSTORE PUSH1 0x60 ADD PUSH3 0x339 JUMP JUMPDEST CALLVALUE DUP1 ISZERO PUSH3 0x552 JUMPI PUSH1 0x0 DUP1 REVERT JUMPDEST POP PUSH3 0x367 PUSH3 0x564 CALLDATASIZE PUSH1 0x4 PUSH3 0x3AE1 JUMP JUMPDEST PUSH3 0x156E JUMP JUMPDEST CALLVALUE DUP1 ISZERO PUSH3 0x577 JUMPI PUSH1 0x0 DUP1 REVERT JUMPDEST POP PUSH1 0x2 SLOAD PUSH1 0xFF AND PUSH3 0x452 JUMP JUMPDEST CALLVALUE DUP1 ISZERO PUSH3 0x591 JUMPI PUSH1 0x0 DUP1 REVERT JUMPDEST POP PUSH3 0x367 PUSH3 0x5A3 CALLDATASIZE PUSH1 0x4 PUSH3 0x3B63 JUMP JUMPDEST PUSH3 0x1668 JUMP JUMPDEST CALLVALUE DUP1 ISZERO PUSH3 0x5B6 JUMPI PUSH1 0x0 DUP1 REVERT JUMPDEST POP PUSH3 0x367 PUSH3 0x17BB JUMP JUMPDEST CALLVALUE DUP1 ISZERO PUSH3 0x5CE JUMPI PUSH1 0x0 DUP1 REVERT JUMPDEST POP PUSH3 0x5E6 PUSH3 0x5E0 CALLDATASIZE PUSH1 0x4 PUSH3 0x3988 JUMP JUMPDEST PUSH3 0x17FD JUMP JUMPDEST PUSH1 0x40 MLOAD PUSH3 0x339 SWAP6 SWAP5 SWAP4 SWAP3 SWAP2 SWAP1 PUSH3 0x3BEE JUMP JUMPDEST PUSH3 0x367 PUSH3 0x60A CALLDATASIZE PUSH1 0x4 PUSH3 0x3C8A JUMP JUMPDEST PUSH3 0x1970 JUMP JUMPDEST CALLVALUE DUP1 ISZERO PUSH3 0x61D JUMPI PUSH1 0x0 DUP1 REVERT JUMPDEST POP PUSH3 0x367 PUSH3 0x62F CALLDATASIZE PUSH1 0x4 PUSH3 0x3968 JUMP JUMPDEST PUSH3 0x1A28 JUMP JUMPDEST PUSH3 0x367 PUSH3 0x646 CALLDATASIZE PUSH1 0x4 PUSH3 0x3CF3 JUMP JUMPDEST PUSH3 0x1A7E JUMP JUMPDEST CALLVALUE DUP1 ISZERO PUSH3 0x659 JUMPI PUSH1 0x0 DUP1 REVERT JUMPDEST POP PUSH3 0x367 PUSH3 0x1DDB JUMP JUMPDEST CALLVALUE DUP1 ISZERO PUSH3 0x671 JUMPI PUSH1 0x0 DUP1 REVERT JUMPDEST POP PUSH3 0x408 PUSH3 0x683 CALLDATASIZE PUSH1 0x4 PUSH3 0x3968 JUMP JUMPDEST PUSH1 0x1 PUSH1 0x1 PUSH1 0xA0 SHL SUB AND PUSH1 0x0 SWAP1 DUP2 MSTORE PUSH1 0x8 PUSH1 0x20 MSTORE PUSH1 0x40 SWAP1 KECCAK256 SLOAD SWAP1 JUMP JUMPDEST CALLVALUE DUP1 ISZERO PUSH3 0x6AB JUMPI PUSH1 0x0 DUP1 REVERT JUMPDEST POP PUSH3 0x452 PUSH3 0x6BD CALLDATASIZE PUSH1 0x4 PUSH3 0x3968 JUMP JUMPDEST PUSH1 0xD PUSH1 0x20 MSTORE PUSH1 0x0 SWAP1 DUP2 MSTORE PUSH1 0x40 SWAP1 KECCAK256 SLOAD PUSH1 0xFF AND DUP2 JUMP JUMPDEST CALLVALUE DUP1 ISZERO PUSH3 0x6DF JUMPI PUSH1 0x0 DUP1 REVERT JUMPDEST POP PUSH3 0x367 PUSH3 0x6F1 CALLDATASIZE PUSH1 0x4 PUSH3 0x3D3A JUMP JUMPDEST PUSH3 0x1DF1 JUMP JUMPDEST CALLVALUE DUP1 ISZERO PUSH3 0x704 JUMPI PUSH1 0x0 DUP1 REVERT JUMPDEST POP PUSH1 0x3 SLOAD PUSH3 0x408 JUMP JUMPDEST CALLVALUE DUP1 ISZERO PUSH3 0x71B JUMPI PUSH1 0x0 DUP1 REVERT JUMPDEST POP PUSH3 0x733 PUSH3 0x72D CALLDATASIZE PUSH1 0x4 PUSH3 0x3968 JUMP JUMPDEST PUSH3 0x1FBA JUMP JUMPDEST PUSH1 0x40 DUP1 MLOAD SWAP3 DUP4 MSTORE PUSH1 0x20 DUP4 ADD SWAP2 SWAP1 SWAP2 MSTORE ADD PUSH3 0x339 JUMP JUMPDEST CALLVALUE DUP1 ISZERO PUSH3 0x756 JUMPI PUSH1 0x0 DUP1 REVERT JUMPDEST POP PUSH3 0x367 PUSH3 0x20A9 JUMP JUMPDEST CALLVALUE DUP1 ISZERO PUSH3 0x76E JUMPI PUSH1 0x0 DUP1 REVERT JUMPDEST POP PUSH3 0x367 PUSH3 0x216E JUMP JUMPDEST CALLVALUE DUP1 ISZERO PUSH3 0x786 JUMPI PUSH1 0x0 DUP1 REVERT JUMPDEST POP PUSH3 0x452 PUSH3 0x798 CALLDATASIZE PUSH1 0x4 PUSH3 0x3968 JUMP JUMPDEST PUSH1 0x5 PUSH1 0x20 MSTORE PUSH1 0x0 SWAP1 DUP2 MSTORE PUSH1 0x40 SWAP1 KECCAK256 SLOAD PUSH1 0xFF AND DUP2 JUMP JUMPDEST CALLVALUE DUP1 ISZERO PUSH3 0x7BA JUMPI PUSH1 0x0 DUP1 REVERT JUMPDEST POP PUSH3 0x367 PUSH3 0x7CC CALLDATASIZE PUSH1 0x4 PUSH3 0x3939 JUMP JUMPDEST PUSH3 0x21B6 JUMP JUMPDEST CALLVALUE DUP1 ISZERO PUSH3 0x7DF JUMPI PUSH1 0x0 DUP1 REVERT JUMPDEST POP PUSH3 0x32A PUSH3 0x2215 JUMP JUMPDEST CALLVALUE DUP1 ISZERO PUSH3 0x7F7 JUMPI PUSH1 0x0 DUP1 REVERT JUMPDEST POP PUSH3 0x32A PUSH3 0x809 CALLDATASIZE PUSH1 0x4 PUSH3 0x3968 JUMP JUMPDEST PUSH3 0x2224 JUMP JUMPDEST CALLVALUE DUP1 ISZERO PUSH3 0x81C JUMPI PUSH1 0x0 DUP1 REVERT JUMPDEST POP PUSH3 0x834 PUSH3 0x82E CALLDATASIZE PUSH1 0x4 PUSH3 0x39A2 JUMP JUMPDEST PUSH3 0x23B0 JUMP JUMPDEST PUSH1 0x40 MLOAD PUSH3 0x339 SWAP3 SWAP2 SWAP1 PUSH3 0x3DAC JUMP JUMPDEST CALLVALUE DUP1 ISZERO PUSH3 0x851 JUMPI PUSH1 0x0 DUP1 REVERT JUMPDEST POP PUSH3 0x733 PUSH3 0x863 CALLDATASIZE PUSH1 0x4 PUSH3 0x3939 JUMP JUMPDEST PUSH3 0x2632 JUMP JUMPDEST CALLVALUE DUP1 ISZERO PUSH3 0x876 JUMPI PUSH1 0x0 DUP1 REVERT JUMPDEST POP PUSH1 0xA SLOAD PUSH3 0x32A SWAP1 PUSH1 0x1 PUSH1 0x1 PUSH1 0xA0 SHL SUB AND DUP2 JUMP JUMPDEST CALLVALUE DUP1 ISZERO PUSH3 0x898 JUMPI PUSH1 0x0 DUP1 REVERT JUMPDEST POP PUSH3 0x408 PUSH3 0x8AA CALLDATASIZE PUSH1 0x4 PUSH3 0x3968 JUMP JUMPDEST PUSH3 0x27FB JUMP JUMPDEST CALLVALUE DUP1 ISZERO PUSH3 0x8BD JUMPI PUSH1 0x0 DUP1 REVERT JUMPDEST POP PUSH3 0x452 PUSH3 0x8CF CALLDATASIZE PUSH1 0x4 PUSH3 0x38FB JUMP JUMPDEST PUSH1 0xE PUSH1 0x20 SWAP1 DUP2 MSTORE PUSH1 0x0 SWAP3 DUP4 MSTORE PUSH1 0x40 DUP1 DUP5 KECCAK256 SWAP1 SWAP2 MSTORE SWAP1 DUP3 MSTORE SWAP1 KECCAK256 SLOAD PUSH1 0xFF AND DUP2 JUMP JUMPDEST CALLVALUE DUP1 ISZERO PUSH3 0x8FC JUMPI PUSH1 0x0 DUP1 REVERT JUMPDEST POP PUSH3 0x408 PUSH3 0x90E CALLDATASIZE PUSH1 0x4 PUSH3 0x3968 JUMP JUMPDEST PUSH1 0x9 PUSH1 0x20 MSTORE PUSH1 0x0 SWAP1 DUP2 MSTORE PUSH1 0x40 SWAP1 KECCAK256 SLOAD DUP2 JUMP JUMPDEST CALLVALUE DUP1 ISZERO PUSH3 0x92D JUMPI PUSH1 0x0 DUP1 REVERT JUMPDEST POP PUSH3 0x367 PUSH3 0x2871 JUMP JUMPDEST CALLVALUE DUP1 ISZERO PUSH3 0x945 JUMPI PUSH1 0x0 DUP1 REVERT JUMPDEST POP PUSH3 0x367 PUSH3 0x29C1 JUMP JUMPDEST CALLVALUE DUP1 ISZERO PUSH3 0x95D JUMPI PUSH1 0x0 DUP1 REVERT JUMPDEST POP PUSH3 0x975 PUSH3 0x96F CALLDATASIZE PUSH1 0x4 PUSH3 0x3DD0 JUMP JUMPDEST PUSH3 0x2A0A JUMP JUMPDEST PUSH1 0x40 MLOAD PUSH3 0x339 SWAP2 SWAP1 PUSH3 0x3E15 JUMP JUMPDEST CALLVALUE DUP1 ISZERO PUSH3 0x991 JUMPI PUSH1 0x0 DUP1 REVERT JUMPDEST POP PUSH3 0x32A PUSH3 0x9A3 CALLDATASIZE PUSH1 0x4 PUSH3 0x3E5B JUMP JUMPDEST PUSH3 0x2B39 JUMP JUMPDEST CALLVALUE DUP1 ISZERO PUSH3 0x9B6 JUMPI PUSH1 0x0 DUP1 REVERT JUMPDEST POP PUSH3 0x529 PUSH3 0x9C8 CALLDATASIZE PUSH1 0x4 PUSH3 0x3988 JUMP JUMPDEST PUSH3 0x2D6A JUMP JUMPDEST CALLVALUE DUP1 ISZERO PUSH3 0x9DB JUMPI PUSH1 0x0 DUP1 REVERT JUMPDEST POP PUSH1 0x6 SLOAD PUSH3 0x9F1 SWAP1 PUSH3 0x10000 SWAP1 DIV PUSH2 0xFFFF AND DUP2 JUMP JUMPDEST PUSH1 0x40 MLOAD PUSH2 0xFFFF SWAP1 SWAP2 AND DUP2 MSTORE PUSH1 0x20 ADD PUSH3 0x339 JUMP JUMPDEST CALLVALUE DUP1 ISZERO PUSH3 0xA12 JUMPI PUSH1 0x0 DUP1 REVERT JUMPDEST POP PUSH3 0x367 PUSH3 0xA24 CALLDATASIZE PUSH1 0x4 PUSH3 0x3F41 JUMP JUMPDEST PUSH3 0x2DE3 JUMP JUMPDEST CALLVALUE DUP1 ISZERO PUSH3 0xA37 JUMPI PUSH1 0x0 DUP1 REVERT JUMPDEST POP PUSH3 0x367 PUSH3 0xA49 CALLDATASIZE PUSH1 0x4 PUSH3 0x3968 JUMP JUMPDEST PUSH3 0x2E7D JUMP JUMPDEST CALLVALUE DUP1 ISZERO PUSH3 0xA5C JUMPI PUSH1 0x0 DUP1 REVERT JUMPDEST POP PUSH3 0x367 PUSH3 0xA6E CALLDATASIZE PUSH1 0x4 PUSH3 0x3968 JUMP JUMPDEST PUSH3 0x2ED0 JUMP JUMPDEST CALLVALUE DUP1 ISZERO PUSH3 0xA81 JUMPI PUSH1 0x0 DUP1 REVERT JUMPDEST POP PUSH3 0x408 PUSH3 0xA93 CALLDATASIZE PUSH1 0x4 PUSH3 0x3968 JUMP JUMPDEST PUSH1 0x8 PUSH1 0x20 MSTORE PUSH1 0x0 SWAP1 DUP2 MSTORE PUSH1 0x40 SWAP1 KECCAK256 SLOAD DUP2 JUMP JUMPDEST CALLVALUE DUP1 ISZERO PUSH3 0xAB2 JUMPI PUSH1 0x0 DUP1 REVERT JUMPDEST POP PUSH3 0x367 PUSH3 0xAC4 CALLDATASIZE PUSH1 0x4 PUSH3 0x3FB3 JUMP JUMPDEST PUSH3 0x2F4C JUMP JUMPDEST CALLVALUE DUP1 ISZERO PUSH3 0xAD7 JUMPI PUSH1 0x0 DUP1 REVERT JUMPDEST POP PUSH3 0x367 PUSH3 0xAE9 CALLDATASIZE PUSH1 0x4 PUSH3 0x3968 JUMP JUMPDEST PUSH3 0x3003 JUMP JUMPDEST CALLVALUE DUP1 ISZERO PUSH3 0xAFC JUMPI PUSH1 0x0 DUP1 REVERT JUMPDEST POP PUSH1 0x7 SLOAD PUSH3 0x408 JUMP JUMPDEST CALLVALUE DUP1 ISZERO PUSH3 0xB13 JUMPI PUSH1 0x0 DUP1 REVERT JUMPDEST POP PUSH3 0x367 PUSH3 0xB25 CALLDATASIZE PUSH1 0x4 PUSH3 0x3FFA JUMP JUMPDEST PUSH3 0x316D JUMP JUMPDEST CALLVALUE DUP1 ISZERO PUSH3 0xB38 JUMPI PUSH1 0x0 DUP1 REVERT JUMPDEST POP PUSH3 0x452 PUSH3 0xB4A CALLDATASIZE PUSH1 0x4 PUSH3 0x3968 JUMP JUMPDEST PUSH3 0x31A2 JUMP JUMPDEST CALLVALUE DUP1 ISZERO PUSH3 0xB5D JUMPI PUSH1 0x0 DUP1 REVERT JUMPDEST POP PUSH3 0xB9E PUSH3 0xB6F CALLDATASIZE PUSH1 0x4 PUSH3 0x3968 JUMP JUMPDEST PUSH1 0xF PUSH1 0x20 MSTORE PUSH1 0x0 SWAP1 DUP2 MSTORE PUSH1 0x40 SWAP1 KECCAK256 DUP1 SLOAD PUSH1 0x1 DUP3 ADD SLOAD PUSH1 0x2 DUP4 ADD SLOAD PUSH1 0x3 DUP5 ADD SLOAD PUSH1 0x4 SWAP1 SWAP5 ADD SLOAD SWAP3 SWAP4 SWAP2 SWAP3 SWAP1 SWAP2 SWAP1 DUP6 JUMP JUMPDEST PUSH1 0x40 MLOAD PUSH3 0x339 SWAP6 SWAP5 SWAP4 SWAP3 SWAP2 SWAP1 PUSH3 0x402D JUMP JUMPDEST CALLVALUE DUP1 ISZERO PUSH3 0xBBE JUMPI PUSH1 0x0 DUP1 REVERT JUMPDEST POP PUSH1 0x6 SLOAD PUSH3 0x9F1 SWAP1 PUSH2 0xFFFF AND DUP2 JUMP JUMPDEST PUSH3 0xBD8 PUSH3 0x32AF JUMP JUMPDEST PUSH1 0x1 PUSH1 0x1 PUSH1 0xA0 SHL SUB DUP3 AND ISZERO DUP1 ISZERO SWAP1 PUSH3 0xBF9 JUMPI POP PUSH1 0x1 PUSH1 0x1 PUSH1 0xA0 SHL SUB DUP2 AND ISZERO ISZERO JUMPDEST PUSH3 0xC3A JUMPI PUSH1 0x40 MLOAD PUSH3 0x461BCD PUSH1 0xE5 SHL DUP2 MSTORE PUSH1 0x20 PUSH1 0x4 DUP3 ADD MSTORE PUSH1 0x10 PUSH1 0x24 DUP3 ADD MSTORE PUSH16 0x24B73B30B634B2102222AC1030B23239 PUSH1 0x81 SHL PUSH1 0x44 DUP3 ADD MSTORE PUSH1 0x64 ADD PUSH3 0x2E5 JUMP JUMPDEST PUSH1 0xA DUP1 SLOAD PUSH1 0x1 PUSH1 0x1 PUSH1 0xA0 SHL SUB DUP1 DUP6 AND PUSH1 0x1 PUSH1 0x1 PUSH1 0xA0 SHL SUB NOT SWAP3 DUP4 AND OR SWAP1 SWAP3 SSTORE PUSH1 0xB DUP1 SLOAD SWAP3 DUP5 AND SWAP3 SWAP1 SWAP2 AND SWAP2 SWAP1 SWAP2 OR SWAP1 SSTORE PUSH1 0x40 MLOAD PUSH32 0xBD1F56340E71693E2714EF366858F586D668634BBAA3720EBF8B0FAF0B1AA82C SWAP1 PUSH3 0xC9E SWAP1 DUP5 SWAP1 DUP5 SWAP1 PUSH3 0x4050 JUMP JUMPDEST PUSH1 0x40 MLOAD DUP1 SWAP2 SUB SWAP1 LOG1 POP POP JUMP JUMPDEST PUSH3 0xCB4 PUSH3 0x3312 JUMP JUMPDEST PUSH1 0x1 PUSH1 0x1 PUSH1 0xA0 SHL SUB DUP3 AND PUSH1 0x0 SWAP1 DUP2 MSTORE PUSH1 0x4 PUSH1 0x20 MSTORE PUSH1 0x40 DUP2 KECCAK256 SLOAD SWAP1 DUP2 SWAP1 SUB PUSH3 0xCEF JUMPI PUSH1 0x40 MLOAD PUSH4 0x8DDA39DF PUSH1 0xE0 SHL DUP2 MSTORE PUSH1 0x4 ADD PUSH1 0x40 MLOAD DUP1 SWAP2 SUB SWAP1 REVERT JUMPDEST PUSH1 0x0 PUSH1 0x3 PUSH3 0xD00 PUSH1 0x1 DUP5 PUSH3 0x4080 JUMP JUMPDEST DUP2 SLOAD DUP2 LT PUSH3 0xD13 JUMPI PUSH3 0xD13 PUSH3 0x4096 JUMP JUMPDEST PUSH1 0x0 SWAP2 DUP3 MSTORE PUSH1 0x20 SWAP1 SWAP2 KECCAK256 PUSH1 0x5 SWAP1 SWAP2 MUL ADD PUSH1 0x1 DUP2 ADD SLOAD SWAP1 SWAP2 POP PUSH1 0x1 PUSH1 0x1 PUSH1 0xA0 SHL SUB AND CALLER EQ PUSH3 0xD54 JUMPI PUSH1 0x40 MLOAD PUSH4 0xEA8E4EB5 PUSH1 0xE0 SHL DUP2 MSTORE PUSH1 0x4 ADD PUSH1 0x40 MLOAD DUP1 SWAP2 SUB SWAP1 REVERT JUMPDEST PUSH1 0x1 DUP2 ADD SLOAD PUSH3 0xD72 SWAP1 PUSH1 0x1 PUSH1 0x1 PUSH1 0xA0 SHL SUB DUP7 DUP2 AND SWAP2 AND DUP6 PUSH3 0x336D JUMP JUMPDEST DUP4 PUSH1 0x1 PUSH1 0x1 PUSH1 0xA0 SHL SUB AND PUSH1 0x0 DUP1 MLOAD PUSH1 0x20 PUSH3 0x61A5 DUP4 CODECOPY DUP2 MLOAD SWAP2 MSTORE DUP5 PUSH1 0x40 MLOAD PUSH3 0xD9D SWAP2 DUP2 MSTORE PUSH1 0x20 ADD SWAP1 JUMP JUMPDEST PUSH1 0x40 MLOAD DUP1 SWAP2 SUB SWAP1 LOG2 POP POP PUSH3 0xDB1 PUSH1 0x1 DUP1 SSTORE JUMP JUMPDEST POP POP JUMP JUMPDEST PUSH1 0x0 DUP1 PUSH1 0xB PUSH1 0x0 SWAP1 SLOAD SWAP1 PUSH2 0x100 EXP SWAP1 DIV PUSH1 0x1 PUSH1 0x1 PUSH1 0xA0 SHL SUB AND PUSH1 0x1 PUSH1 0x1 PUSH1 0xA0 SHL SUB AND PUSH4 0xAD5C4648 PUSH1 0x40 MLOAD DUP2 PUSH4 0xFFFFFFFF AND PUSH1 0xE0 SHL DUP2 MSTORE PUSH1 0x4 ADD PUSH1 0x20 PUSH1 0x40 MLOAD DUP1 DUP4 SUB DUP2 DUP7 GAS STATICCALL ISZERO DUP1 ISZERO PUSH3 0xE0C JUMPI RETURNDATASIZE PUSH1 0x0 DUP1 RETURNDATACOPY RETURNDATASIZE PUSH1 0x0 REVERT JUMPDEST POP POP POP POP PUSH1 0x40 MLOAD RETURNDATASIZE PUSH1 0x1F NOT PUSH1 0x1F DUP3 ADD AND DUP3 ADD DUP1 PUSH1 0x40 MSTORE POP DUP2 ADD SWAP1 PUSH3 0xE32 SWAP2 SWAP1 PUSH3 0x40AC JUMP JUMPDEST PUSH1 0xA SLOAD PUSH1 0x40 MLOAD PUSH4 0xE6A43905 PUSH1 0xE0 SHL DUP2 MSTORE SWAP2 SWAP3 POP PUSH1 0x1 PUSH1 0x1 PUSH1 0xA0 SHL SUB AND SWAP1 PUSH4 0xE6A43905 SWAP1 PUSH3 0xE67 SWAP1 DUP7 SWAP1 DUP6 SWAP1 PUSH1 0x4 ADD PUSH3 0x4050 JUMP JUMPDEST PUSH1 0x20 PUSH1 0x40 MLOAD DUP1 DUP4 SUB DUP2 DUP7 GAS STATICCALL ISZERO DUP1 ISZERO PUSH3 0xE85 JUMPI RETURNDATASIZE PUSH1 0x0 DUP1 RETURNDATACOPY RETURNDATASIZE PUSH1 0x0 REVERT JUMPDEST POP POP POP POP PUSH1 0x40 MLOAD RETURNDATASIZE PUSH1 0x1F NOT PUSH1 0x1F DUP3 ADD AND DUP3 ADD DUP1 PUSH1 0x40 MSTORE POP DUP2 ADD SWAP1 PUSH3 0xEAB SWAP2 SWAP1 PUSH3 0x40AC JUMP JUMPDEST SWAP4 SWAP3 POP POP POP JUMP JUMPDEST PUSH3 0xEBC PUSH3 0x3312 JUMP JUMPDEST CALLER PUSH1 0x0 SWAP1 DUP2 MSTORE PUSH1 0x8 PUSH1 0x20 MSTORE PUSH1 0x40 DUP2 KECCAK256 SLOAD SWAP1 DUP2 SWAP1 SUB PUSH3 0xEEE JUMPI PUSH1 0x40 MLOAD PUSH4 0xD183FE43 PUSH1 0xE0 SHL DUP2 MSTORE PUSH1 0x4 ADD PUSH1 0x40 MLOAD DUP1 SWAP2 SUB SWAP1 REVERT JUMPDEST CALLER PUSH1 0x0 DUP2 DUP2 MSTORE PUSH1 0x8 PUSH1 0x20 MSTORE PUSH1 0x40 DUP1 DUP3 KECCAK256 DUP3 SWAP1 SSTORE MLOAD DUP4 ISZERO PUSH2 0x8FC MUL SWAP2 DUP5 SWAP2 SWAP1 DUP2 DUP2 DUP2 DUP6 DUP9 DUP9 CALL SWAP4 POP POP POP POP ISZERO DUP1 ISZERO PUSH3 0xF2A JUMPI RETURNDATASIZE PUSH1 0x0 DUP1 RETURNDATACOPY RETURNDATASIZE PUSH1 0x0 REVERT JUMPDEST POP PUSH1 0x40 MLOAD DUP2 DUP2 MSTORE CALLER SWAP1 PUSH1 0x0 DUP1 MLOAD PUSH1 0x20 PUSH3 0x61E5 DUP4 CODECOPY DUP2 MLOAD SWAP2 MSTORE SWAP1 PUSH1 0x20 ADD JUMPDEST PUSH1 0x40 MLOAD DUP1 SWAP2 SUB SWAP1 LOG2 POP PUSH3 0xF5B PUSH1 0x1 DUP1 SSTORE JUMP JUMPDEST JUMP JUMPDEST PUSH3 0xF67 PUSH3 0x32AF JUMP JUMPDEST PUSH3 0xF71 PUSH3 0x3312 JUMP JUMPDEST PUSH1 0x40 MLOAD PUSH4 0x70A08231 PUSH1 0xE0 SHL DUP2 MSTORE PUSH1 0x0 SWAP1 PUSH1 0x1 PUSH1 0x1 PUSH1 0xA0 SHL SUB DUP4 AND SWAP1 PUSH4 0x70A08231 SWAP1 PUSH3 0xFA2 SWAP1 ADDRESS SWAP1 PUSH1 0x4 ADD PUSH3 0x38D1 JUMP JUMPDEST PUSH1 0x20 PUSH1 0x40 MLOAD DUP1 DUP4 SUB DUP2 DUP7 GAS STATICCALL ISZERO DUP1 ISZERO PUSH3 0xFC0 JUMPI RETURNDATASIZE PUSH1 0x0 DUP1 RETURNDATACOPY RETURNDATASIZE PUSH1 0x0 REVERT JUMPDEST POP POP POP POP PUSH1 0x40 MLOAD RETURNDATASIZE PUSH1 0x1F NOT PUSH1 0x1F DUP3 ADD AND DUP3 ADD DUP1 PUSH1 0x40 MSTORE POP DUP2 ADD SWAP1 PUSH3 0xFE6 SWAP2 SWAP1 PUSH3 0x40CC JUMP JUMPDEST SWAP1 POP PUSH1 0x0 DUP2 GT PUSH3 0x1026 JUMPI PUSH1 0x40 MLOAD PUSH3 0x461BCD PUSH1 0xE5 SHL DUP2 MSTORE PUSH1 0x20 PUSH1 0x4 DUP3 ADD MSTORE PUSH1 0x9 PUSH1 0x24 DUP3 ADD MSTORE PUSH9 0x4E6F20746F6B656E73 PUSH1 0xB8 SHL PUSH1 0x44 DUP3 ADD MSTORE PUSH1 0x64 ADD PUSH3 0x2E5 JUMP JUMPDEST PUSH3 0x1046 PUSH3 0x1034 PUSH3 0x2215 JUMP JUMPDEST PUSH1 0x1 PUSH1 0x1 PUSH1 0xA0 SHL SUB DUP5 AND SWAP1 DUP4 PUSH3 0x336D JUMP JUMPDEST DUP2 PUSH1 0x1 PUSH1 0x1 PUSH1 0xA0 SHL SUB AND PUSH1 0x0 DUP1 MLOAD PUSH1 0x20 PUSH3 0x61C5 DUP4 CODECOPY DUP2 MLOAD SWAP2 MSTORE DUP3 PUSH1 0x40 MLOAD PUSH3 0x1071 SWAP2 DUP2 MSTORE PUSH1 0x20 ADD SWAP1 JUMP JUMPDEST PUSH1 0x40 MLOAD DUP1 SWAP2 SUB SWAP1 LOG2 POP PUSH3 0x1084 PUSH1 0x1 DUP1 SSTORE JUMP JUMPDEST POP JUMP JUMPDEST PUSH3 0x1091 PUSH3 0x32AF JUMP JUMPDEST PUSH1 0xC DUP2 SWAP1 SSTORE PUSH1 0x40 MLOAD DUP2 DUP2 MSTORE PUSH32 0x27F971FD4ACCB41A60BCEF5477F2A70AA17EFCA3A2C33B138E3AA62A3D891C6D SWAP1 PUSH1 0x20 ADD PUSH1 0x40 MLOAD DUP1 SWAP2 SUB SWAP1 LOG1 POP JUMP JUMPDEST PUSH3 0x10D6 PUSH3 0x33C7 JUMP JUMPDEST DUP1 PUSH1 0x0 SUB PUSH3 0x10F8 JUMPI PUSH1 0x40 MLOAD PUSH4 0x7294708F PUSH1 0xE1 SHL DUP2 MSTORE PUSH1 0x4 ADD PUSH1 0x40 MLOAD DUP1 SWAP2 SUB SWAP1 REVERT JUMPDEST PUSH1 0x1 PUSH1 0x1 PUSH1 0xA0 SHL SUB DUP3 AND PUSH1 0x0 SWAP1 DUP2 MSTORE PUSH1 0x4 PUSH1 0x20 MSTORE PUSH1 0x40 DUP2 KECCAK256 SLOAD SWAP1 DUP2 SWAP1 SUB PUSH3 0x1133 JUMPI PUSH1 0x40 MLOAD PUSH4 0x8DDA39DF PUSH1 0xE0 SHL DUP2 MSTORE PUSH1 0x4 ADD PUSH1 0x40 MLOAD DUP1 SWAP2 SUB SWAP1 REVERT JUMPDEST PUSH1 0x0 PUSH1 0x3 PUSH3 0x1144 PUSH1 0x1 DUP5 PUSH3 0x4080 JUMP JUMPDEST DUP2 SLOAD DUP2 LT PUSH3 0x1157 JUMPI PUSH3 0x1157 PUSH3 0x4096 JUMP JUMPDEST PUSH1 0x0 SWAP2 DUP3 MSTORE PUSH1 0x20 SWAP1 SWAP2 KECCAK256 PUSH1 0x5 SWAP1 SWAP2 MUL ADD PUSH1 0x1 DUP2 ADD SLOAD SWAP1 SWAP2 POP PUSH1 0x1 PUSH1 0x1 PUSH1 0xA0 SHL SUB AND CALLER EQ DUP1 ISZERO SWAP1 PUSH3 0x11A3 JUMPI POP PUSH3 0x118D PUSH3 0x2215 JUMP JUMPDEST PUSH1 0x1 PUSH1 0x1 PUSH1 0xA0 SHL SUB AND CALLER PUSH1 0x1 PUSH1 0x1 PUSH1 0xA0 SHL SUB AND EQ ISZERO JUMPDEST ISZERO PUSH3 0x11C2 JUMPI PUSH1 0x40 MLOAD PUSH4 0xEA8E4EB5 PUSH1 0xE0 SHL DUP2 MSTORE PUSH1 0x4 ADD PUSH1 0x40 MLOAD DUP1 SWAP2 SUB SWAP1 REVERT JUMPDEST PUSH1 0x2 DUP2 ADD DUP4 SWAP1 SSTORE PUSH1 0x40 MLOAD DUP4 DUP2 MSTORE PUSH1 0x1 PUSH1 0x1 PUSH1 0xA0 SHL SUB DUP6 AND SWAP1 PUSH32 0xD86730737B142FC160892FA8A0F2DB687A92A0E294D1AD70624CF5ACEF03B84 SWAP1 PUSH1 0x20 ADD JUMPDEST PUSH1 0x40 MLOAD DUP1 SWAP2 SUB SWAP1 LOG2 POP POP POP POP JUMP JUMPDEST PUSH1 0x3 SLOAD PUSH1 0x60 SWAP1 PUSH1 0x0 DUP2 PUSH3 0x1223 DUP6 DUP8 PUSH3 0x40E6 JUMP JUMPDEST GT PUSH3 0x123B JUMPI PUSH3 0x1235 DUP5 DUP7 PUSH3 0x40E6 JUMP JUMPDEST PUSH3 0x123D JUMP JUMPDEST DUP2 JUMPDEST SWAP1 POP PUSH3 0x124B DUP6 DUP3 PUSH3 0x4080 JUMP JUMPDEST PUSH1 0x1 PUSH1 0x1 PUSH1 0x40 SHL SUB DUP2 GT ISZERO PUSH3 0x1265 JUMPI PUSH3 0x1265 PUSH3 0x40FC JUMP JUMPDEST PUSH1 0x40 MLOAD SWAP1 DUP1 DUP3 MSTORE DUP1 PUSH1 0x20 MUL PUSH1 0x20 ADD DUP3 ADD PUSH1 0x40 MSTORE DUP1 ISZERO PUSH3 0x12A2 JUMPI DUP2 PUSH1 0x20 ADD JUMPDEST PUSH3 0x128E PUSH3 0x385C JUMP JUMPDEST DUP2 MSTORE PUSH1 0x20 ADD SWAP1 PUSH1 0x1 SWAP1 SUB SWAP1 DUP2 PUSH3 0x1284 JUMPI SWAP1 POP JUMPDEST POP SWAP3 POP DUP5 JUMPDEST DUP2 DUP2 LT ISZERO PUSH3 0x1487 JUMPI PUSH1 0x3 DUP2 DUP2 SLOAD DUP2 LT PUSH3 0x12C6 JUMPI PUSH3 0x12C6 PUSH3 0x4096 JUMP JUMPDEST PUSH1 0x0 SWAP2 DUP3 MSTORE PUSH1 0x20 SWAP2 DUP3 SWAP1 KECCAK256 PUSH1 0x40 DUP1 MLOAD PUSH1 0xA0 DUP2 ADD DUP3 MSTORE PUSH1 0x5 SWAP1 SWAP4 MUL SWAP1 SWAP2 ADD DUP1 SLOAD PUSH1 0x1 PUSH1 0x1 PUSH1 0xA0 SHL SUB SWAP1 DUP2 AND DUP5 MSTORE PUSH1 0x1 DUP3 ADD SLOAD AND SWAP4 DUP4 ADD SWAP4 SWAP1 SWAP4 MSTORE PUSH1 0x2 DUP4 ADD SLOAD SWAP1 DUP3 ADD MSTORE PUSH1 0x3 DUP3 ADD DUP1 SLOAD SWAP2 SWAP3 SWAP2 PUSH1 0x60 DUP5 ADD SWAP2 SWAP1 PUSH3 0x1322 SWAP1 PUSH3 0x4112 JUMP JUMPDEST DUP1 PUSH1 0x1F ADD PUSH1 0x20 DUP1 SWAP2 DIV MUL PUSH1 0x20 ADD PUSH1 0x40 MLOAD SWAP1 DUP2 ADD PUSH1 0x40 MSTORE DUP1 SWAP3 SWAP2 SWAP1 DUP2 DUP2 MSTORE PUSH1 0x20 ADD DUP3 DUP1 SLOAD PUSH3 0x1350 SWAP1 PUSH3 0x4112 JUMP JUMPDEST DUP1 ISZERO PUSH3 0x13A1 JUMPI DUP1 PUSH1 0x1F LT PUSH3 0x1375 JUMPI PUSH2 0x100 DUP1 DUP4 SLOAD DIV MUL DUP4 MSTORE SWAP2 PUSH1 0x20 ADD SWAP2 PUSH3 0x13A1 JUMP JUMPDEST DUP3 ADD SWAP2 SWAP1 PUSH1 0x0 MSTORE PUSH1 0x20 PUSH1 0x0 KECCAK256 SWAP1 JUMPDEST DUP2 SLOAD DUP2 MSTORE SWAP1 PUSH1 0x1 ADD SWAP1 PUSH1 0x20 ADD DUP1 DUP4 GT PUSH3 0x1383 JUMPI DUP3 SWAP1 SUB PUSH1 0x1F AND DUP3 ADD SWAP2 JUMPDEST POP POP POP POP POP DUP2 MSTORE PUSH1 0x20 ADD PUSH1 0x4 DUP3 ADD DUP1 SLOAD PUSH3 0x13BC SWAP1 PUSH3 0x4112 JUMP JUMPDEST DUP1 PUSH1 0x1F ADD PUSH1 0x20 DUP1 SWAP2 DIV MUL PUSH1 0x20 ADD PUSH1 0x40 MLOAD SWAP1 DUP2 ADD PUSH1 0x40 MSTORE DUP1 SWAP3 SWAP2 SWAP1 DUP2 DUP2 MSTORE PUSH1 0x20 ADD DUP3 DUP1 SLOAD PUSH3 0x13EA SWAP1 PUSH3 0x4112 JUMP JUMPDEST DUP1 ISZERO PUSH3 0x143B JUMPI DUP1 PUSH1 0x1F LT PUSH3 0x140F JUMPI PUSH2 0x100 DUP1 DUP4 SLOAD DIV MUL DUP4 MSTORE SWAP2 PUSH1 0x20 ADD SWAP2 PUSH3 0x143B JUMP JUMPDEST DUP3 ADD SWAP2 SWAP1 PUSH1 0x0 MSTORE PUSH1 0x20 PUSH1 0x0 KECCAK256 SWAP1 JUMPDEST DUP2 SLOAD DUP2 MSTORE SWAP1 PUSH1 0x1 ADD SWAP1 PUSH1 0x20 ADD DUP1 DUP4 GT PUSH3 0x141D JUMPI DUP3 SWAP1 SUB PUSH1 0x1F AND DUP3 ADD SWAP2 JUMPDEST POP POP POP POP POP DUP2 MSTORE POP POP DUP5 DUP8 DUP4 PUSH3 0x1453 SWAP2 SWAP1 PUSH3 0x4080 JUMP JUMPDEST DUP2 MLOAD DUP2 LT PUSH3 0x1466 JUMPI PUSH3 0x1466 PUSH3 0x4096 JUMP JUMPDEST PUSH1 0x20 MUL PUSH1 0x20 ADD ADD DUP2 SWAP1 MSTORE POP DUP1 DUP1 PUSH3 0x147E SWAP1 PUSH3 0x414E JUMP JUMPDEST SWAP2 POP POP PUSH3 0x12A7 JUMP JUMPDEST POP POP POP SWAP3 SWAP2 POP POP JUMP JUMPDEST PUSH1 0x0 DUP1 PUSH1 0x0 PUSH3 0x149F PUSH3 0x3312 JUMP JUMPDEST PUSH3 0x14B6 PUSH1 0x1 PUSH1 0x1 PUSH1 0xA0 SHL SUB DUP7 AND CALLER ADDRESS DUP8 PUSH3 0x340F JUMP JUMPDEST PUSH1 0xB SLOAD PUSH3 0x14D2 SWAP1 PUSH1 0x1 PUSH1 0x1 PUSH1 0xA0 SHL SUB DUP8 DUP2 AND SWAP2 AND DUP7 PUSH3 0x3449 JUMP JUMPDEST PUSH1 0xB SLOAD PUSH1 0x40 MLOAD PUSH4 0xF305D719 PUSH1 0xE0 SHL DUP2 MSTORE PUSH1 0x1 PUSH1 0x1 PUSH1 0xA0 SHL SUB SWAP1 SWAP2 AND SWAP1 PUSH4 0xF305D719 SWAP1 CALLVALUE SWAP1 PUSH3 0x1511 SWAP1 DUP10 SWAP1 DUP10 SWAP1 PUSH1 0x0 SWAP1 DUP2 SWAP1 CALLER SWAP1 TIMESTAMP SWAP1 PUSH1 0x4 ADD PUSH3 0x416A JUMP JUMPDEST PUSH1 0x60 PUSH1 0x40 MLOAD DUP1 DUP4 SUB DUP2 DUP6 DUP9 GAS CALL ISZERO DUP1 ISZERO PUSH3 0x1530 JUMPI RETURNDATASIZE PUSH1 0x0 DUP1 RETURNDATACOPY RETURNDATASIZE PUSH1 0x0 REVERT JUMPDEST POP POP POP POP POP PUSH1 0x40 MLOAD RETURNDATASIZE PUSH1 0x1F NOT PUSH1 0x1F DUP3 ADD AND DUP3 ADD DUP1 PUSH1 0x40 MSTORE POP DUP2 ADD SWAP1 PUSH3 0x1557 SWAP2 SWAP1 PUSH3 0x41A5 JUMP JUMPDEST SWAP3 POP SWAP3 POP SWAP3 POP PUSH3 0x1567 PUSH1 0x1 DUP1 SSTORE JUMP JUMPDEST SWAP3 POP SWAP3 POP SWAP3 JUMP JUMPDEST PUSH3 0x1578 PUSH3 0x32AF JUMP JUMPDEST PUSH1 0x0 DUP4 GT DUP1 ISZERO PUSH3 0x1588 JUMPI POP DUP2 DUP2 GT JUMPDEST PUSH3 0x15C3 JUMPI PUSH1 0x40 MLOAD PUSH3 0x461BCD PUSH1 0xE5 SHL DUP2 MSTORE PUSH1 0x20 PUSH1 0x4 DUP3 ADD MSTORE PUSH1 0xA PUSH1 0x24 DUP3 ADD MSTORE PUSH10 0x42616420706172616D73 PUSH1 0xB0 SHL PUSH1 0x44 DUP3 ADD MSTORE PUSH1 0x64 ADD PUSH3 0x2E5 JUMP JUMPDEST PUSH1 0x40 DUP1 MLOAD PUSH1 0xA0 DUP2 ADD DUP3 MSTORE DUP5 DUP2 MSTORE PUSH1 0x0 PUSH1 0x20 DUP1 DUP4 ADD DUP3 DUP2 MSTORE TIMESTAMP DUP5 DUP7 ADD DUP2 DUP2 MSTORE PUSH1 0x60 DUP1 DUP8 ADD DUP11 DUP2 MSTORE PUSH1 0x80 DUP1 DUP10 ADD DUP12 DUP2 MSTORE PUSH1 0x1 PUSH1 0x1 PUSH1 0xA0 SHL SUB DUP16 AND DUP1 DUP11 MSTORE PUSH1 0xF DUP10 MSTORE SWAP9 DUP12 SWAP1 KECCAK256 SWAP10 MLOAD DUP11 SSTORE SWAP6 MLOAD PUSH1 0x1 DUP11 ADD SSTORE SWAP3 MLOAD PUSH1 0x2 DUP10 ADD SSTORE MLOAD PUSH1 0x3 DUP9 ADD SSTORE SWAP3 MLOAD PUSH1 0x4 SWAP1 SWAP7 ADD SWAP6 SWAP1 SWAP6 SSTORE DUP6 MLOAD DUP10 DUP2 MSTORE SWAP3 DUP4 ADD MSTORE SWAP4 DUP2 ADD DUP7 SWAP1 MSTORE SWAP3 DUP4 ADD DUP5 SWAP1 MSTORE SWAP2 PUSH32 0xD866979BD0FD6A601E699D26906FC9BCF80527E2BC1B9A2CC05AFFFB1691785F SWAP2 ADD PUSH3 0x1200 JUMP JUMPDEST PUSH1 0x1 PUSH1 0x1 PUSH1 0xA0 SHL SUB DUP6 AND PUSH1 0x0 SWAP1 DUP2 MSTORE PUSH1 0x4 PUSH1 0x20 MSTORE PUSH1 0x40 DUP2 KECCAK256 SLOAD SWAP1 DUP2 SWAP1 SUB PUSH3 0x16C2 JUMPI PUSH1 0x40 MLOAD PUSH3 0x461BCD PUSH1 0xE5 SHL DUP2 MSTORE PUSH1 0x20 PUSH1 0x4 DUP3 ADD MSTORE PUSH1 0xC PUSH1 0x24 DUP3 ADD MSTORE PUSH12 0x139BDD081B185D5B98DA1959 PUSH1 0xA2 SHL PUSH1 0x44 DUP3 ADD MSTORE PUSH1 0x64 ADD PUSH3 0x2E5 JUMP JUMPDEST PUSH1 0x0 PUSH1 0x3 PUSH3 0x16D3 PUSH1 0x1 DUP5 PUSH3 0x4080 JUMP JUMPDEST DUP2 SLOAD DUP2 LT PUSH3 0x16E6 JUMPI PUSH3 0x16E6 PUSH3 0x4096 JUMP JUMPDEST PUSH1 0x0 SWAP2 DUP3 MSTORE PUSH1 0x20 SWAP1 SWAP2 KECCAK256 PUSH1 0x5 SWAP1 SWAP2 MUL ADD PUSH1 0x1 DUP2 ADD SLOAD SWAP1 SWAP2 POP PUSH1 0x1 PUSH1 0x1 PUSH1 0xA0 SHL SUB AND CALLER EQ PUSH3 0x1745 JUMPI PUSH1 0x40 MLOAD PUSH3 0x461BCD PUSH1 0xE5 SHL DUP2 MSTORE PUSH1 0x20 PUSH1 0x4 DUP3 ADD MSTORE PUSH1 0xB PUSH1 0x24 DUP3 ADD MSTORE PUSH11 0x2737BA1031B932B0BA37B9 PUSH1 0xA9 SHL PUSH1 0x44 DUP3 ADD MSTORE PUSH1 0x64 ADD PUSH3 0x2E5 JUMP JUMPDEST PUSH1 0x3 DUP2 ADD PUSH3 0x1756 DUP7 DUP9 DUP4 PUSH3 0x423B JUMP JUMPDEST POP PUSH1 0x4 DUP2 ADD PUSH3 0x1768 DUP5 DUP7 DUP4 PUSH3 0x423B JUMP JUMPDEST POP DUP7 PUSH1 0x1 PUSH1 0x1 PUSH1 0xA0 SHL SUB AND PUSH32 0x6C1850FCE35387A891E82CA88E975790AB6F0709E9ED6842E01397F296012A7E DUP8 DUP8 DUP8 DUP8 PUSH1 0x40 MLOAD PUSH3 0x17AA SWAP5 SWAP4 SWAP3 SWAP2 SWAP1 PUSH3 0x432C JUMP JUMPDEST PUSH1 0x40 MLOAD DUP1 SWAP2 SUB SWAP1 LOG2 POP POP POP POP POP POP POP JUMP JUMPDEST PUSH3 0x17C5 PUSH3 0x32AF JUMP JUMPDEST PUSH1 0xB DUP1 SLOAD PUSH1 0xFF PUSH1 0xA0 SHL NOT AND SWAP1 SSTORE PUSH1 0x40 MLOAD PUSH32 0xFAEE94FDB90E4C47971DCC61A8C020C8BD768EB0E6326218CA262CDD66E20A2E SWAP1 PUSH1 0x0 SWAP1 LOG1 JUMP JUMPDEST PUSH1 0x3 DUP2 DUP2 SLOAD DUP2 LT PUSH3 0x180E JUMPI PUSH1 0x0 DUP1 REVERT JUMPDEST PUSH1 0x0 SWAP2 DUP3 MSTORE PUSH1 0x20 SWAP1 SWAP2 KECCAK256 PUSH1 0x5 SWAP1 SWAP2 MUL ADD DUP1 SLOAD PUSH1 0x1 DUP3 ADD SLOAD PUSH1 0x2 DUP4 ADD SLOAD PUSH1 0x3 DUP5 ADD DUP1 SLOAD PUSH1 0x1 PUSH1 0x1 PUSH1 0xA0 SHL SUB SWAP5 DUP6 AND SWAP7 POP SWAP3 SWAP1 SWAP4 AND SWAP4 SWAP1 SWAP3 SWAP1 SWAP2 PUSH3 0x1851 SWAP1 PUSH3 0x4112 JUMP JUMPDEST DUP1 PUSH1 0x1F ADD PUSH1 0x20 DUP1 SWAP2 DIV MUL PUSH1 0x20 ADD PUSH1 0x40 MLOAD SWAP1 DUP2 ADD PUSH1 0x40 MSTORE DUP1 SWAP3 SWAP2 SWAP1 DUP2 DUP2 MSTORE PUSH1 0x20 ADD DUP3 DUP1 SLOAD PUSH3 0x187F SWAP1 PUSH3 0x4112 JUMP JUMPDEST DUP1 ISZERO PUSH3 0x18D0 JUMPI DUP1 PUSH1 0x1F LT PUSH3 0x18A4 JUMPI PUSH2 0x100 DUP1 DUP4 SLOAD DIV MUL DUP4 MSTORE SWAP2 PUSH1 0x20 ADD SWAP2 PUSH3 0x18D0 JUMP JUMPDEST DUP3 ADD SWAP2 SWAP1 PUSH1 0x0 MSTORE PUSH1 0x20 PUSH1 0x0 KECCAK256 SWAP1 JUMPDEST DUP2 SLOAD DUP2 MSTORE SWAP1 PUSH1 0x1 ADD SWAP1 PUSH1 0x20 ADD DUP1 DUP4 GT PUSH3 0x18B2 JUMPI DUP3 SWAP1 SUB PUSH1 0x1F AND DUP3 ADD SWAP2 JUMPDEST POP POP POP POP POP SWAP1 DUP1 PUSH1 0x4 ADD DUP1 SLOAD PUSH3 0x18E7 SWAP1 PUSH3 0x4112 JUMP JUMPDEST DUP1 PUSH1 0x1F ADD PUSH1 0x20 DUP1 SWAP2 DIV MUL PUSH1 0x20 ADD PUSH1 0x40 MLOAD SWAP1 DUP2 ADD PUSH1 0x40 MSTORE DUP1 SWAP3 SWAP2 SWAP1 DUP2 DUP2 MSTORE PUSH1 0x20 ADD DUP3 DUP1 SLOAD PUSH3 0x1915 SWAP1 PUSH3 0x4112 JUMP JUMPDEST DUP1 ISZERO PUSH3 0x1966 JUMPI DUP1 PUSH1 0x1F LT PUSH3 0x193A JUMPI PUSH2 0x100 DUP1 DUP4 SLOAD DIV MUL DUP4 MSTORE SWAP2 PUSH1 0x20 ADD SWAP2 PUSH3 0x1966 JUMP JUMPDEST DUP3 ADD SWAP2 SWAP1 PUSH1 0x0 MSTORE PUSH1 0x20 PUSH1 0x0 KECCAK256 SWAP1 JUMPDEST DUP2 SLOAD DUP2 MSTORE SWAP1 PUSH1 0x1 ADD SWAP1 PUSH1 0x20 ADD DUP1 DUP4 GT PUSH3 0x1948 JUMPI DUP3 SWAP1 SUB PUSH1 0x1F AND DUP3 ADD SWAP2 JUMPDEST POP POP POP POP POP SWAP1 POP DUP6 JUMP JUMPDEST PUSH3 0x197A PUSH3 0x3312 JUMP JUMPDEST PUSH3 0x19EC DUP3 DUP3 DUP1 DUP1 PUSH1 0x20 MUL PUSH1 0x20 ADD PUSH1 0x40 MLOAD SWAP1 DUP2 ADD PUSH1 0x40 MSTORE DUP1 SWAP4 SWAP3 SWAP2 SWAP1 DUP2 DUP2 MSTORE PUSH1 0x20 ADD DUP4 DUP4 PUSH1 0x20 MUL DUP1 DUP3 DUP5 CALLDATACOPY PUSH1 0x0 SWAP3 ADD SWAP2 SWAP1 SWAP2 MSTORE POP POP PUSH1 0xC SLOAD PUSH1 0x40 MLOAD PUSH1 0x1 PUSH1 0x1 PUSH1 0x60 SHL SUB NOT CALLER PUSH1 0x60 SHL AND PUSH1 0x20 DUP3 ADD MSTORE SWAP1 SWAP3 POP PUSH1 0x34 ADD SWAP1 POP PUSH1 0x40 MLOAD PUSH1 0x20 DUP2 DUP4 SUB SUB DUP2 MSTORE SWAP1 PUSH1 0x40 MSTORE DUP1 MLOAD SWAP1 PUSH1 0x20 ADD KECCAK256 PUSH3 0x34EF JUMP JUMPDEST PUSH3 0x1A0A JUMPI PUSH1 0x40 MLOAD PUSH4 0xB094F27 PUSH1 0xE3 SHL DUP2 MSTORE PUSH1 0x4 ADD PUSH1 0x40 MLOAD DUP1 SWAP2 SUB SWAP1 REVERT JUMPDEST PUSH3 0x1A17 DUP6 DUP6 DUP6 PUSH3 0x1A7E JUMP JUMPDEST PUSH3 0x1A21 PUSH1 0x1 DUP1 SSTORE JUMP JUMPDEST POP POP POP POP POP JUMP JUMPDEST PUSH3 0x1A32 PUSH3 0x32AF JUMP JUMPDEST PUSH1 0x1 PUSH1 0x1 PUSH1 0xA0 SHL SUB DUP2 AND PUSH1 0x0 DUP2 DUP2 MSTORE PUSH1 0x5 PUSH1 0x20 MSTORE PUSH1 0x40 DUP1 DUP3 KECCAK256 DUP1 SLOAD PUSH1 0xFF NOT AND PUSH1 0x1 OR SWAP1 SSTORE MLOAD PUSH32 0x32A6DCD04455C92A601AFD4A2AA0EE840DDAB8A4383114E4F00ECF9132432933 SWAP2 SWAP1 LOG2 POP JUMP JUMPDEST PUSH3 0x1A88 PUSH3 0x3312 JUMP JUMPDEST PUSH3 0x1A92 PUSH3 0x33C7 JUMP JUMPDEST PUSH1 0xB SLOAD PUSH1 0x1 PUSH1 0xA0 SHL SWAP1 DIV PUSH1 0xFF AND ISZERO PUSH3 0x1ABE JUMPI PUSH1 0x40 MLOAD PUSH4 0x1EF9B76B PUSH1 0xE3 SHL DUP2 MSTORE PUSH1 0x4 ADD PUSH1 0x40 MLOAD DUP1 SWAP2 SUB SWAP1 REVERT JUMPDEST DUP2 PUSH1 0x0 SUB PUSH3 0x1AE0 JUMPI PUSH1 0x40 MLOAD PUSH4 0x1F2A2005 PUSH1 0xE0 SHL DUP2 MSTORE PUSH1 0x4 ADD PUSH1 0x40 MLOAD DUP1 SWAP2 SUB SWAP1 REVERT JUMPDEST PUSH1 0x1 PUSH1 0x1 PUSH1 0xA0 SHL SUB DUP4 AND PUSH1 0x0 SWAP1 DUP2 MSTORE PUSH1 0x5 PUSH1 0x20 MSTORE PUSH1 0x40 SWAP1 KECCAK256 SLOAD PUSH1 0xFF AND ISZERO PUSH3 0x1B1B JUMPI PUSH1 0x40 MLOAD PUSH4 0xE7792495 PUSH1 0xE0 SHL DUP2 MSTORE PUSH1 0x4 ADD PUSH1 0x40 MLOAD DUP1 SWAP2 SUB SWAP1 REVERT JUMPDEST PUSH1 0x1 PUSH1 0x1 PUSH1 0xA0 SHL SUB DUP4 AND PUSH1 0x0 SWAP1 DUP2 MSTORE PUSH1 0x4 PUSH1 0x20 MSTORE PUSH1 0x40 DUP2 KECCAK256 SLOAD SWAP1 DUP2 SWAP1 SUB PUSH3 0x1B56 JUMPI PUSH1 0x40 MLOAD PUSH4 0x8DDA39DF PUSH1 0xE0 SHL DUP2 MSTORE PUSH1 0x4 ADD PUSH1 0x40 MLOAD DUP1 SWAP2 SUB SWAP1 REVERT JUMPDEST PUSH1 0x1 PUSH1 0x1 PUSH1 0xA0 SHL SUB DUP5 AND PUSH1 0x0 SWAP1 DUP2 MSTORE PUSH1 0xD PUSH1 0x20 MSTORE PUSH1 0x40 SWAP1 KECCAK256 SLOAD PUSH1 0xFF AND DUP1 ISZERO PUSH3 0x1BA3 JUMPI POP PUSH1 0x1 PUSH1 0x1 PUSH1 0xA0 SHL SUB DUP5 AND PUSH1 0x0 SWAP1 DUP2 MSTORE PUSH1 0xE PUSH1 0x20 SWAP1 DUP2 MSTORE PUSH1 0x40 DUP1 DUP4 KECCAK256 CALLER DUP5 MSTORE SWAP1 SWAP2 MSTORE SWAP1 KECCAK256 SLOAD PUSH1 0xFF AND ISZERO JUMPDEST ISZERO PUSH3 0x1BC2 JUMPI PUSH1 0x40 MLOAD PUSH4 0xB094F27 PUSH1 0xE3 SHL DUP2 MSTORE PUSH1 0x4 ADD PUSH1 0x40 MLOAD DUP1 SWAP2 SUB SWAP1 REVERT JUMPDEST PUSH1 0x0 PUSH1 0x3 PUSH3 0x1BD3 PUSH1 0x1 DUP5 PUSH3 0x4080 JUMP JUMPDEST DUP2 SLOAD DUP2 LT PUSH3 0x1BE6 JUMPI PUSH3 0x1BE6 PUSH3 0x4096 JUMP JUMPDEST SWAP1 PUSH1 0x0 MSTORE PUSH1 0x20 PUSH1 0x0 KECCAK256 SWAP1 PUSH1 0x5 MUL ADD SWAP1 POP PUSH1 0x0 PUSH8 0xDE0B6B3A7640000 DUP6 DUP4 PUSH1 0x2 ADD SLOAD PUSH3 0x1C13 SWAP2 SWAP1 PUSH3 0x4357 JUMP JUMPDEST PUSH3 0x1C1F SWAP2 SWAP1 PUSH3 0x4371 JUMP JUMPDEST SWAP1 POP DUP1 CALLVALUE EQ PUSH3 0x1C42 JUMPI PUSH1 0x40 MLOAD PUSH4 0xD183FE43 PUSH1 0xE0 SHL DUP2 MSTORE PUSH1 0x4 ADD PUSH1 0x40 MLOAD DUP1 SWAP2 SUB SWAP1 REVERT JUMPDEST PUSH1 0x6 SLOAD PUSH1 0x0 SWAP1 PUSH2 0x2710 SWAP1 PUSH3 0x1C5C SWAP1 PUSH2 0xFFFF AND DUP5 PUSH3 0x4357 JUMP JUMPDEST PUSH3 0x1C68 SWAP2 SWAP1 PUSH3 0x4371 JUMP JUMPDEST SWAP1 POP PUSH1 0x0 PUSH1 0x1 PUSH1 0x1 PUSH1 0xA0 SHL SUB DUP7 AND ISZERO PUSH3 0x1CAB JUMPI PUSH1 0x6 SLOAD PUSH2 0x2710 SWAP1 PUSH3 0x1C99 SWAP1 PUSH3 0x10000 SWAP1 DIV PUSH2 0xFFFF AND DUP6 PUSH3 0x4357 JUMP JUMPDEST PUSH3 0x1CA5 SWAP2 SWAP1 PUSH3 0x4371 JUMP JUMPDEST PUSH3 0x1CAE JUMP JUMPDEST PUSH1 0x0 JUMPDEST SWAP1 POP PUSH1 0x0 DUP2 PUSH3 0x1CBF DUP5 DUP7 PUSH3 0x4080 JUMP JUMPDEST PUSH3 0x1CCB SWAP2 SWAP1 PUSH3 0x4080 JUMP JUMPDEST SWAP1 POP DUP3 PUSH1 0x7 PUSH1 0x0 DUP3 DUP3 SLOAD PUSH3 0x1CE1 SWAP2 SWAP1 PUSH3 0x40E6 JUMP JUMPDEST SWAP1 SWAP2 SSTORE POP POP DUP2 ISZERO PUSH3 0x1D1D JUMPI PUSH1 0x1 PUSH1 0x1 PUSH1 0xA0 SHL SUB DUP8 AND PUSH1 0x0 SWAP1 DUP2 MSTORE PUSH1 0x8 PUSH1 0x20 MSTORE PUSH1 0x40 DUP2 KECCAK256 DUP1 SLOAD DUP5 SWAP3 SWAP1 PUSH3 0x1D17 SWAP1 DUP5 SWAP1 PUSH3 0x40E6 JUMP JUMPDEST SWAP1 SWAP2 SSTORE POP POP JUMPDEST PUSH1 0x1 DUP6 ADD SLOAD PUSH1 0x1 PUSH1 0x1 PUSH1 0xA0 SHL SUB AND PUSH1 0x0 SWAP1 DUP2 MSTORE PUSH1 0x9 PUSH1 0x20 MSTORE PUSH1 0x40 DUP2 KECCAK256 DUP1 SLOAD DUP4 SWAP3 SWAP1 PUSH3 0x1D4B SWAP1 DUP5 SWAP1 PUSH3 0x40E6 JUMP JUMPDEST SWAP1 SWAP2 SSTORE POP PUSH3 0x1D67 SWAP1 POP PUSH1 0x1 PUSH1 0x1 PUSH1 0xA0 SHL SUB DUP11 AND CALLER DUP11 PUSH3 0x336D JUMP JUMPDEST DUP7 PUSH1 0x1 PUSH1 0x1 PUSH1 0xA0 SHL SUB AND CALLER PUSH1 0x1 PUSH1 0x1 PUSH1 0xA0 SHL SUB AND DUP11 PUSH1 0x1 PUSH1 0x1 PUSH1 0xA0 SHL SUB AND PUSH32 0xA4D1D47447AD64A0C581F05071DF4CE987BA94440D913925DC004A21F28F4226 DUP12 DUP9 DUP9 DUP9 DUP9 PUSH1 0x40 MLOAD PUSH3 0x1DBE SWAP6 SWAP5 SWAP4 SWAP3 SWAP2 SWAP1 PUSH3 0x402D JUMP JUMPDEST PUSH1 0x40 MLOAD DUP1 SWAP2 SUB SWAP1 LOG4 POP POP POP POP POP POP PUSH3 0x1DD6 PUSH1 0x1 DUP1 SSTORE JUMP JUMPDEST POP POP POP JUMP JUMPDEST PUSH3 0x1DE5 PUSH3 0x32AF JUMP JUMPDEST PUSH3 0xF5B PUSH1 0x0 PUSH3 0x3507 JUMP JUMPDEST PUSH3 0x1DFB PUSH3 0x3312 JUMP JUMPDEST DUP3 DUP2 EQ PUSH3 0x1E3E JUMPI PUSH1 0x40 MLOAD PUSH3 0x461BCD PUSH1 0xE5 SHL DUP2 MSTORE PUSH1 0x20 PUSH1 0x4 DUP3 ADD MSTORE PUSH1 0xF PUSH1 0x24 DUP3 ADD MSTORE PUSH15 0x98CADCCEE8D040DAD2E6DAC2E8C6D PUSH1 0x8B SHL PUSH1 0x44 DUP3 ADD MSTORE PUSH1 0x64 ADD PUSH3 0x2E5 JUMP JUMPDEST PUSH1 0x0 JUMPDEST DUP4 DUP2 LT ISZERO PUSH3 0x1FA9 JUMPI PUSH1 0x0 DUP6 DUP6 DUP4 DUP2 DUP2 LT PUSH3 0x1E61 JUMPI PUSH3 0x1E61 PUSH3 0x4096 JUMP JUMPDEST SWAP1 POP PUSH1 0x20 MUL ADD PUSH1 0x20 DUP2 ADD SWAP1 PUSH3 0x1E78 SWAP2 SWAP1 PUSH3 0x3968 JUMP JUMPDEST SWAP1 POP PUSH1 0x0 DUP5 DUP5 DUP5 DUP2 DUP2 LT PUSH3 0x1E91 JUMPI PUSH3 0x1E91 PUSH3 0x4096 JUMP JUMPDEST PUSH1 0x1 PUSH1 0x1 PUSH1 0xA0 SHL SUB DUP6 AND PUSH1 0x0 SWAP1 DUP2 MSTORE PUSH1 0x4 PUSH1 0x20 SWAP1 DUP2 MSTORE PUSH1 0x40 DUP3 KECCAK256 SLOAD SWAP3 MUL SWAP4 SWAP1 SWAP4 ADD CALLDATALOAD SWAP4 POP SWAP2 DUP3 SWAP1 SUB SWAP1 POP PUSH3 0x1ED9 JUMPI PUSH1 0x40 MLOAD PUSH4 0x8DDA39DF PUSH1 0xE0 SHL DUP2 MSTORE PUSH1 0x4 ADD PUSH1 0x40 MLOAD DUP1 SWAP2 SUB SWAP1 REVERT JUMPDEST PUSH1 0x0 PUSH1 0x3 PUSH3 0x1EEA PUSH1 0x1 DUP5 PUSH3 0x4080 JUMP JUMPDEST DUP2 SLOAD DUP2 LT PUSH3 0x1EFD JUMPI PUSH3 0x1EFD PUSH3 0x4096 JUMP JUMPDEST PUSH1 0x0 SWAP2 DUP3 MSTORE PUSH1 0x20 SWAP1 SWAP2 KECCAK256 PUSH1 0x5 SWAP1 SWAP2 MUL ADD PUSH1 0x1 DUP2 ADD SLOAD SWAP1 SWAP2 POP PUSH1 0x1 PUSH1 0x1 PUSH1 0xA0 SHL SUB AND CALLER EQ PUSH3 0x1F3E JUMPI PUSH1 0x40 MLOAD PUSH4 0xEA8E4EB5 PUSH1 0xE0 SHL DUP2 MSTORE PUSH1 0x4 ADD PUSH1 0x40 MLOAD DUP1 SWAP2 SUB SWAP1 REVERT JUMPDEST PUSH1 0x1 DUP2 ADD SLOAD PUSH3 0x1F5C SWAP1 PUSH1 0x1 PUSH1 0x1 PUSH1 0xA0 SHL SUB DUP7 DUP2 AND SWAP2 AND DUP6 PUSH3 0x336D JUMP JUMPDEST DUP4 PUSH1 0x1 PUSH1 0x1 PUSH1 0xA0 SHL SUB AND PUSH1 0x0 DUP1 MLOAD PUSH1 0x20 PUSH3 0x61A5 DUP4 CODECOPY DUP2 MLOAD SWAP2 MSTORE DUP5 PUSH1 0x40 MLOAD PUSH3 0x1F87 SWAP2 DUP2 MSTORE PUSH1 0x20 ADD SWAP1 JUMP JUMPDEST PUSH1 0x40 MLOAD DUP1 SWAP2 SUB SWAP1 LOG2 POP POP POP POP DUP1 DUP1 PUSH3 0x1FA0 SWAP1 PUSH3 0x414E JUMP JUMPDEST SWAP2 POP POP PUSH3 0x1E41 JUMP JUMPDEST POP PUSH3 0x1FB4 PUSH1 0x1 DUP1 SSTORE JUMP JUMPDEST POP POP POP POP JUMP JUMPDEST PUSH1 0x0 DUP1 DUP3 PUSH1 0x1 PUSH1 0x1 PUSH1 0xA0 SHL SUB AND PUSH4 0x70A08231 ADDRESS PUSH1 0x40 MLOAD DUP3 PUSH4 0xFFFFFFFF AND PUSH1 0xE0 SHL DUP2 MSTORE PUSH1 0x4 ADD PUSH3 0x1FEB SWAP2 SWAP1 PUSH3 0x38D1 JUMP JUMPDEST PUSH1 0x20 PUSH1 0x40 MLOAD DUP1 DUP4 SUB DUP2 DUP7 GAS STATICCALL ISZERO DUP1 ISZERO PUSH3 0x2009 JUMPI RETURNDATASIZE PUSH1 0x0 DUP1 RETURNDATACOPY RETURNDATASIZE PUSH1 0x0 REVERT JUMPDEST POP POP POP POP PUSH1 0x40 MLOAD RETURNDATASIZE PUSH1 0x1F NOT PUSH1 0x1F DUP3 ADD AND DUP3 ADD DUP1 PUSH1 0x40 MSTORE POP DUP2 ADD SWAP1 PUSH3 0x202F SWAP2 SWAP1 PUSH3 0x40CC JUMP JUMPDEST DUP4 PUSH1 0x1 PUSH1 0x1 PUSH1 0xA0 SHL SUB AND PUSH4 0x18160DDD PUSH1 0x40 MLOAD DUP2 PUSH4 0xFFFFFFFF AND PUSH1 0xE0 SHL DUP2 MSTORE PUSH1 0x4 ADD PUSH1 0x20 PUSH1 0x40 MLOAD DUP1 DUP4 SUB DUP2 DUP7 GAS STATICCALL ISZERO DUP1 ISZERO PUSH3 0x206E JUMPI RETURNDATASIZE PUSH1 0x0 DUP1 RETURNDATACOPY RETURNDATASIZE PUSH1 0x0 REVERT JUMPDEST POP POP POP POP PUSH1 0x40 MLOAD RETURNDATASIZE PUSH1 0x1F NOT PUSH1 0x1F DUP3 ADD AND DUP3 ADD DUP1 PUSH1 0x40 MSTORE POP DUP2 ADD SWAP1 PUSH3 0x2094 SWAP2 SWAP1 PUSH3 0x40CC JUMP JUMPDEST PUSH3 0x20A0 SWAP2 SWAP1 PUSH3 0x4080 JUMP JUMPDEST SWAP4 SELFBALANCE SWAP4 POP SWAP2 POP POP JUMP JUMPDEST PUSH3 0x20B3 PUSH3 0x32AF JUMP JUMPDEST PUSH3 0x20BD PUSH3 0x3312 JUMP JUMPDEST SELFBALANCE DUP1 PUSH3 0x20F6 JUMPI PUSH1 0x40 MLOAD PUSH3 0x461BCD PUSH1 0xE5 SHL DUP2 MSTORE PUSH1 0x20 PUSH1 0x4 DUP3 ADD MSTORE PUSH1 0x6 PUSH1 0x24 DUP3 ADD MSTORE PUSH6 0x9CDE408AA89 PUSH1 0xD3 SHL PUSH1 0x44 DUP3 ADD MSTORE PUSH1 0x64 ADD PUSH3 0x2E5 JUMP JUMPDEST PUSH3 0x2100 PUSH3 0x2215 JUMP JUMPDEST PUSH1 0x1 PUSH1 0x1 PUSH1 0xA0 SHL SUB AND PUSH2 0x8FC DUP3 SWAP1 DUP2 ISZERO MUL SWAP1 PUSH1 0x40 MLOAD PUSH1 0x0 PUSH1 0x40 MLOAD DUP1 DUP4 SUB DUP2 DUP6 DUP9 DUP9 CALL SWAP4 POP POP POP POP ISZERO DUP1 ISZERO PUSH3 0x2139 JUMPI RETURNDATASIZE PUSH1 0x0 DUP1 RETURNDATACOPY RETURNDATASIZE PUSH1 0x0 REVERT JUMPDEST POP PUSH3 0x2144 PUSH3 0x2215 JUMP JUMPDEST PUSH1 0x1 PUSH1 0x1 PUSH1 0xA0 SHL SUB AND PUSH1 0x0 DUP1 MLOAD PUSH1 0x20 PUSH3 0x61E5 DUP4 CODECOPY DUP2 MLOAD SWAP2 MSTORE DUP3 PUSH1 0x40 MLOAD PUSH3 0xF48 SWAP2 DUP2 MSTORE PUSH1 0x20 ADD SWAP1 JUMP JUMPDEST PUSH3 0x2178 PUSH3 0x32AF JUMP JUMPDEST PUSH1 0xB DUP1 SLOAD PUSH1 0xFF PUSH1 0xA0 SHL NOT AND PUSH1 0x1 PUSH1 0xA0 SHL OR SWAP1 SSTORE PUSH1 0x40 MLOAD PUSH32 0xD9DBF0A31BA3FB34C2C7DAB69690EB663F5BDECA5006139E71338CFA84C7C537 SWAP1 PUSH1 0x0 SWAP1 LOG1 JUMP JUMPDEST PUSH3 0x21C0 PUSH3 0x32AF JUMP JUMPDEST PUSH3 0x21CA PUSH3 0x3312 JUMP JUMPDEST PUSH3 0x21D8 PUSH3 0x1034 PUSH3 0x2215 JUMP JUMPDEST DUP2 PUSH1 0x1 PUSH1 0x1 PUSH1 0xA0 SHL SUB AND PUSH1 0x0 DUP1 MLOAD PUSH1 0x20 PUSH3 0x61C5 DUP4 CODECOPY DUP2 MLOAD SWAP2 MSTORE DUP3 PUSH1 0x40 MLOAD PUSH3 0x2203 SWAP2 DUP2 MSTORE PUSH1 0x20 ADD SWAP1 JUMP JUMPDEST PUSH1 0x40 MLOAD DUP1 SWAP2 SUB SWAP1 LOG2 PUSH3 0xDB1 PUSH1 0x1 DUP1 SSTORE JUMP JUMPDEST PUSH1 0x0 SLOAD PUSH1 0x1 PUSH1 0x1 PUSH1 0xA0 SHL SUB AND SWAP1 JUMP JUMPDEST PUSH1 0x0 PUSH3 0x2230 PUSH3 0x32AF JUMP JUMPDEST PUSH1 0xA SLOAD PUSH1 0xB SLOAD PUSH1 0x40 DUP1 MLOAD PUSH4 0x15AB88C9 PUSH1 0xE3 SHL DUP2 MSTORE SWAP1 MLOAD PUSH1 0x1 PUSH1 0x1 PUSH1 0xA0 SHL SUB SWAP4 DUP5 AND SWAP4 PUSH1 0x0 SWAP4 AND SWAP2 PUSH4 0xAD5C4648 SWAP2 PUSH1 0x4 DUP1 DUP4 ADD SWAP3 PUSH1 0x20 SWAP3 SWAP2 SWAP1 DUP3 SWAP1 SUB ADD DUP2 DUP7 GAS STATICCALL ISZERO DUP1 ISZERO PUSH3 0x2282 JUMPI RETURNDATASIZE PUSH1 0x0 DUP1 RETURNDATACOPY RETURNDATASIZE PUSH1 0x0 REVERT JUMPDEST POP POP POP POP PUSH1 0x40 MLOAD RETURNDATASIZE PUSH1 0x1F NOT PUSH1 0x1F DUP3 ADD AND DUP3 ADD DUP1 PUSH1 0x40 MSTORE POP DUP2 ADD SWAP1 PUSH3 0x22A8 SWAP2 SWAP1 PUSH3 0x40AC JUMP JUMPDEST PUSH1 0x40 MLOAD PUSH4 0xE6A43905 PUSH1 0xE0 SHL DUP2 MSTORE SWAP1 SWAP2 POP PUSH1 0x1 PUSH1 0x1 PUSH1 0xA0 SHL SUB DUP4 AND SWAP1 PUSH4 0xE6A43905 SWAP1 PUSH3 0x22DB SWAP1 DUP8 SWAP1 DUP6 SWAP1 PUSH1 0x4 ADD PUSH3 0x4050 JUMP JUMPDEST PUSH1 0x20 PUSH1 0x40 MLOAD DUP1 DUP4 SUB DUP2 DUP7 GAS STATICCALL ISZERO DUP1 ISZERO PUSH3 0x22F9 JUMPI RETURNDATASIZE PUSH1 0x0 DUP1 RETURNDATACOPY RETURNDATASIZE PUSH1 0x0 REVERT JUMPDEST POP POP POP POP PUSH1 0x40 MLOAD RETURNDATASIZE PUSH1 0x1F NOT PUSH1 0x1F DUP3 ADD AND DUP3 ADD DUP1 PUSH1 0x40 MSTORE POP DUP2 ADD SWAP1 PUSH3 0x231F SWAP2 SWAP1 PUSH3 0x40AC JUMP JUMPDEST SWAP3 POP PUSH1 0x1 PUSH1 0x1 PUSH1 0xA0 SHL SUB DUP4 AND PUSH3 0x23A9 JUMPI PUSH1 0x40 MLOAD PUSH4 0x64E329CB PUSH1 0xE1 SHL DUP2 MSTORE PUSH1 0x1 PUSH1 0x1 PUSH1 0xA0 SHL SUB DUP4 AND SWAP1 PUSH4 0xC9C65396 SWAP1 PUSH3 0x2360 SWAP1 DUP8 SWAP1 DUP6 SWAP1 PUSH1 0x4 ADD PUSH3 0x4050 JUMP JUMPDEST PUSH1 0x20 PUSH1 0x40 MLOAD DUP1 DUP4 SUB DUP2 PUSH1 0x0 DUP8 GAS CALL ISZERO DUP1 ISZERO PUSH3 0x2380 JUMPI RETURNDATASIZE PUSH1 0x0 DUP1 RETURNDATACOPY RETURNDATASIZE PUSH1 0x0 REVERT JUMPDEST POP POP POP POP PUSH1 0x40 MLOAD RETURNDATASIZE PUSH1 0x1F NOT PUSH1 0x1F DUP3 ADD AND DUP3 ADD DUP1 PUSH1 0x40 MSTORE POP DUP2 ADD SWAP1 PUSH3 0x23A6 SWAP2 SWAP1 PUSH3 0x40AC JUMP JUMPDEST SWAP3 POP JUMPDEST POP POP SWAP2 SWAP1 POP JUMP JUMPDEST PUSH1 0x3 SLOAD PUSH1 0x60 SWAP1 PUSH1 0x0 DUP2 PUSH3 0x23C5 DUP6 DUP8 PUSH3 0x40E6 JUMP JUMPDEST GT PUSH3 0x23DD JUMPI PUSH3 0x23D7 DUP5 DUP7 PUSH3 0x40E6 JUMP JUMPDEST PUSH3 0x23DF JUMP JUMPDEST DUP2 JUMPDEST SWAP1 POP PUSH3 0x23ED DUP6 DUP3 PUSH3 0x4080 JUMP JUMPDEST PUSH1 0x1 PUSH1 0x1 PUSH1 0x40 SHL SUB DUP2 GT ISZERO PUSH3 0x2407 JUMPI PUSH3 0x2407 PUSH3 0x40FC JUMP JUMPDEST PUSH1 0x40 MLOAD SWAP1 DUP1 DUP3 MSTORE DUP1 PUSH1 0x20 MUL PUSH1 0x20 ADD DUP3 ADD PUSH1 0x40 MSTORE DUP1 ISZERO PUSH3 0x2444 JUMPI DUP2 PUSH1 0x20 ADD JUMPDEST PUSH3 0x2430 PUSH3 0x385C JUMP JUMPDEST DUP2 MSTORE PUSH1 0x20 ADD SWAP1 PUSH1 0x1 SWAP1 SUB SWAP1 DUP2 PUSH3 0x2426 JUMPI SWAP1 POP JUMPDEST POP SWAP3 POP DUP5 JUMPDEST DUP2 DUP2 LT ISZERO PUSH3 0x2629 JUMPI PUSH1 0x3 DUP2 DUP2 SLOAD DUP2 LT PUSH3 0x2468 JUMPI PUSH3 0x2468 PUSH3 0x4096 JUMP JUMPDEST PUSH1 0x0 SWAP2 DUP3 MSTORE PUSH1 0x20 SWAP2 DUP3 SWAP1 KECCAK256 PUSH1 0x40 DUP1 MLOAD PUSH1 0xA0 DUP2 ADD DUP3 MSTORE PUSH1 0x5 SWAP1 SWAP4 MUL SWAP1 SWAP2 ADD DUP1 SLOAD PUSH1 0x1 PUSH1 0x1 PUSH1 0xA0 SHL SUB SWAP1 DUP2 AND DUP5 MSTORE PUSH1 0x1 DUP3 ADD SLOAD AND SWAP4 DUP4 ADD SWAP4 SWAP1 SWAP4 MSTORE PUSH1 0x2 DUP4 ADD SLOAD SWAP1 DUP3 ADD MSTORE PUSH1 0x3 DUP3 ADD DUP1 SLOAD SWAP2 SWAP3 SWAP2 PUSH1 0x60 DUP5 ADD SWAP2 SWAP1 PUSH3 0x24C4 SWAP1 PUSH3 0x4112 JUMP JUMPDEST DUP1 PUSH1 0x1F ADD PUSH1 0x20 DUP1 SWAP2 DIV MUL PUSH1 0x20 ADD PUSH1 0x40 MLOAD SWAP1 DUP2 ADD PUSH1 0x40 MSTORE DUP1 SWAP3 SWAP2 SWAP1 DUP2 DUP2 MSTORE PUSH1 0x20 ADD DUP3 DUP1 SLOAD PUSH3 0x24F2 SWAP1 PUSH3 0x4112 JUMP JUMPDEST DUP1 ISZERO PUSH3 0x2543 JUMPI DUP1 PUSH1 0x1F LT PUSH3 0x2517 JUMPI PUSH2 0x100 DUP1 DUP4 SLOAD DIV MUL DUP4 MSTORE SWAP2 PUSH1 0x20 ADD SWAP2 PUSH3 0x2543 JUMP JUMPDEST DUP3 ADD SWAP2 SWAP1 PUSH1 0x0 MSTORE PUSH1 0x20 PUSH1 0x0 KECCAK256 SWAP1 JUMPDEST DUP2 SLOAD DUP2 MSTORE SWAP1 PUSH1 0x1 ADD SWAP1 PUSH1 0x20 ADD DUP1 DUP4 GT PUSH3 0x2525 JUMPI DUP3 SWAP1 SUB PUSH1 0x1F AND DUP3 ADD SWAP2 JUMPDEST POP POP POP POP POP DUP2 MSTORE PUSH1 0x20 ADD PUSH1 0x4 DUP3 ADD DUP1 SLOAD PUSH3 0x255E SWAP1 PUSH3 0x4112 JUMP JUMPDEST DUP1 PUSH1 0x1F ADD PUSH1 0x20 DUP1 SWAP2 DIV MUL PUSH1 0x20 ADD PUSH1 0x40 MLOAD SWAP1 DUP2 ADD PUSH1 0x40 MSTORE DUP1 SWAP3 SWAP2 SWAP1 DUP2 DUP2 MSTORE PUSH1 0x20 ADD DUP3 DUP1 SLOAD PUSH3 0x258C SWAP1 PUSH3 0x4112 JUMP JUMPDEST DUP1 ISZERO PUSH3 0x25DD JUMPI DUP1 PUSH1 0x1F LT PUSH3 0x25B1 JUMPI PUSH2 0x100 DUP1 DUP4 SLOAD DIV MUL DUP4 MSTORE SWAP2 PUSH1 0x20 ADD SWAP2 PUSH3 0x25DD JUMP JUMPDEST DUP3 ADD SWAP2 SWAP1 PUSH1 0x0 MSTORE PUSH1 0x20 PUSH1 0x0 KECCAK256 SWAP1 JUMPDEST DUP2 SLOAD DUP2 MSTORE SWAP1 PUSH1 0x1 ADD SWAP1 PUSH1 0x20 ADD DUP1 DUP4 GT PUSH3 0x25BF JUMPI DUP3 SWAP1 SUB PUSH1 0x1F AND DUP3 ADD SWAP2 JUMPDEST POP POP POP POP POP DUP2 MSTORE POP POP DUP5 DUP8 DUP4 PUSH3 0x25F5 SWAP2 SWAP1 PUSH3 0x4080 JUMP JUMPDEST DUP2 MLOAD DUP2 LT PUSH3 0x2608 JUMPI PUSH3 0x2608 PUSH3 0x4096 JUMP JUMPDEST PUSH1 0x20 MUL PUSH1 0x20 ADD ADD DUP2 SWAP1 MSTORE POP DUP1 DUP1 PUSH3 0x2620 SWAP1 PUSH3 0x414E JUMP JUMPDEST SWAP2 POP POP PUSH3 0x2449 JUMP JUMPDEST POP POP SWAP3 POP SWAP3 SWAP1 POP JUMP JUMPDEST PUSH1 0x0 DUP1 PUSH3 0x263F PUSH3 0x3312 JUMP JUMPDEST PUSH1 0xB SLOAD PUSH1 0x40 DUP1 MLOAD PUSH4 0x15AB88C9 PUSH1 0xE3 SHL DUP2 MSTORE SWAP1 MLOAD PUSH1 0x0 SWAP3 PUSH1 0x1 PUSH1 0x1 PUSH1 0xA0 SHL SUB AND SWAP2 PUSH4 0xAD5C4648 SWAP2 PUSH1 0x4 DUP1 DUP4 ADD SWAP3 PUSH1 0x20 SWAP3 SWAP2 SWAP1 DUP3 SWAP1 SUB ADD DUP2 DUP7 GAS STATICCALL ISZERO DUP1 ISZERO PUSH3 0x268A JUMPI RETURNDATASIZE PUSH1 0x0 DUP1 RETURNDATACOPY RETURNDATASIZE PUSH1 0x0 REVERT JUMPDEST POP POP POP POP PUSH1 0x40 MLOAD RETURNDATASIZE PUSH1 0x1F NOT PUSH1 0x1F DUP3 ADD AND DUP3 ADD DUP1 PUSH1 0x40 MSTORE POP DUP2 ADD SWAP1 PUSH3 0x26B0 SWAP2 SWAP1 PUSH3 0x40AC JUMP JUMPDEST PUSH1 0xA SLOAD PUSH1 0x40 MLOAD PUSH4 0xE6A43905 PUSH1 0xE0 SHL DUP2 MSTORE SWAP2 SWAP3 POP PUSH1 0x0 SWAP2 PUSH1 0x1 PUSH1 0x1 PUSH1 0xA0 SHL SUB SWAP1 SWAP2 AND SWAP1 PUSH4 0xE6A43905 SWAP1 PUSH3 0x26EA SWAP1 DUP10 SWAP1 DUP7 SWAP1 PUSH1 0x4 ADD PUSH3 0x4050 JUMP JUMPDEST PUSH1 0x20 PUSH1 0x40 MLOAD DUP1 DUP4 SUB DUP2 DUP7 GAS STATICCALL ISZERO DUP1 ISZERO PUSH3 0x2708 JUMPI RETURNDATASIZE PUSH1 0x0 DUP1 RETURNDATACOPY RETURNDATASIZE PUSH1 0x0 REVERT JUMPDEST POP POP POP POP PUSH1 0x40 MLOAD RETURNDATASIZE PUSH1 0x1F NOT PUSH1 0x1F DUP3 ADD AND DUP3 ADD DUP1 PUSH1 0x40 MSTORE POP DUP2 ADD SWAP1 PUSH3 0x272E SWAP2 SWAP1 PUSH3 0x40AC JUMP JUMPDEST SWAP1 POP PUSH3 0x2747 PUSH1 0x1 PUSH1 0x1 PUSH1 0xA0 SHL SUB DUP3 AND CALLER ADDRESS DUP9 PUSH3 0x340F JUMP JUMPDEST PUSH1 0xB SLOAD PUSH3 0x2763 SWAP1 PUSH1 0x1 PUSH1 0x1 PUSH1 0xA0 SHL SUB DUP4 DUP2 AND SWAP2 AND DUP8 PUSH3 0x3449 JUMP JUMPDEST PUSH1 0xB SLOAD PUSH1 0x40 MLOAD PUSH3 0x9D473B PUSH1 0xE2 SHL DUP2 MSTORE PUSH1 0x1 PUSH1 0x1 PUSH1 0xA0 SHL SUB SWAP1 SWAP2 AND SWAP1 PUSH4 0x2751CEC SWAP1 PUSH3 0x279F SWAP1 DUP10 SWAP1 DUP10 SWAP1 PUSH1 0x0 SWAP1 DUP2 SWAP1 CALLER SWAP1 TIMESTAMP SWAP1 PUSH1 0x4 ADD PUSH3 0x416A JUMP JUMPDEST PUSH1 0x40 DUP1 MLOAD DUP1 DUP4 SUB DUP2 PUSH1 0x0 DUP8 GAS CALL ISZERO DUP1 ISZERO PUSH3 0x27BE JUMPI RETURNDATASIZE PUSH1 0x0 DUP1 RETURNDATACOPY RETURNDATASIZE PUSH1 0x0 REVERT JUMPDEST POP POP POP POP PUSH1 0x40 MLOAD RETURNDATASIZE PUSH1 0x1F NOT PUSH1 0x1F DUP3 ADD AND DUP3 ADD DUP1 PUSH1 0x40 MSTORE POP DUP2 ADD SWAP1 PUSH3 0x27E4 SWAP2 SWAP1 PUSH3 0x4394 JUMP JUMPDEST SWAP4 POP SWAP4 POP POP POP PUSH3 0x27F4 PUSH1 0x1 DUP1 SSTORE JUMP JUMPDEST SWAP3 POP SWAP3 SWAP1 POP JUMP JUMPDEST PUSH1 0x1 PUSH1 0x1 PUSH1 0xA0 SHL SUB DUP2 AND PUSH1 0x0 SWAP1 DUP2 MSTORE PUSH1 0x4 PUSH1 0x20 MSTORE PUSH1 0x40 DUP2 KECCAK256 SLOAD DUP1 DUP3 SUB PUSH3 0x2835 JUMPI PUSH1 0x40 MLOAD PUSH4 0x8DDA39DF PUSH1 0xE0 SHL DUP2 MSTORE PUSH1 0x4 ADD PUSH1 0x40 MLOAD DUP1 SWAP2 SUB SWAP1 REVERT JUMPDEST PUSH1 0x3 PUSH3 0x2844 PUSH1 0x1 DUP4 PUSH3 0x4080 JUMP JUMPDEST DUP2 SLOAD DUP2 LT PUSH3 0x2857 JUMPI PUSH3 0x2857 PUSH3 0x4096 JUMP JUMPDEST SWAP1 PUSH1 0x0 MSTORE PUSH1 0x20 PUSH1 0x0 KECCAK256 SWAP1 PUSH1 0x5 MUL ADD PUSH1 0x2 ADD SLOAD SWAP2 POP POP SWAP2 SWAP1 POP JUMP JUMPDEST PUSH3 0x287B PUSH3 0x3312 JUMP JUMPDEST CALLER PUSH1 0x0 SWAP1 DUP2 MSTORE PUSH1 0xF PUSH1 0x20 MSTORE PUSH1 0x40 DUP2 KECCAK256 DUP1 SLOAD SWAP1 SWAP2 SUB PUSH3 0x28AD JUMPI PUSH1 0x40 MLOAD PUSH4 0x1715D79 PUSH1 0xE2 SHL DUP2 MSTORE PUSH1 0x4 ADD PUSH1 0x40 MLOAD DUP1 SWAP2 SUB SWAP1 REVERT JUMPDEST PUSH1 0x0 DUP2 PUSH1 0x2 ADD SLOAD TIMESTAMP PUSH3 0x28C1 SWAP2 SWAP1 PUSH3 0x4080 JUMP JUMPDEST SWAP1 POP PUSH1 0x0 DUP3 PUSH1 0x3 ADD SLOAD DUP3 LT PUSH3 0x292D JUMPI DUP3 PUSH1 0x4 ADD SLOAD DUP3 LT ISZERO PUSH3 0x2925 JUMPI DUP3 PUSH1 0x3 ADD SLOAD DUP4 PUSH1 0x4 ADD SLOAD PUSH3 0x28F4 SWAP2 SWAP1 PUSH3 0x4080 JUMP JUMPDEST PUSH1 0x3 DUP5 ADD SLOAD PUSH3 0x2905 SWAP1 DUP5 PUSH3 0x4080 JUMP JUMPDEST DUP5 SLOAD PUSH3 0x2913 SWAP2 SWAP1 PUSH3 0x4357 JUMP JUMPDEST PUSH3 0x291F SWAP2 SWAP1 PUSH3 0x4371 JUMP JUMPDEST PUSH3 0x2930 JUMP JUMPDEST DUP3 SLOAD PUSH3 0x2930 JUMP JUMPDEST PUSH1 0x0 JUMPDEST SWAP1 POP PUSH1 0x0 DUP4 PUSH1 0x1 ADD SLOAD DUP3 PUSH3 0x2946 SWAP2 SWAP1 PUSH3 0x4080 JUMP JUMPDEST SWAP1 POP DUP1 PUSH1 0x0 SUB PUSH3 0x296A JUMPI PUSH1 0x40 MLOAD PUSH4 0x12D37EE5 PUSH1 0xE3 SHL DUP2 MSTORE PUSH1 0x4 ADD PUSH1 0x40 MLOAD DUP1 SWAP2 SUB SWAP1 REVERT JUMPDEST PUSH1 0x1 DUP5 ADD DUP3 SWAP1 SSTORE PUSH3 0x297E ADDRESS CALLER DUP4 PUSH3 0x336D JUMP JUMPDEST PUSH1 0x40 MLOAD DUP2 DUP2 MSTORE CALLER SWAP1 PUSH32 0xC15EB22BEB780252072BDEEC94B7FCE7B15822D73417B8A4F92640577EB6FCEB SWAP1 PUSH1 0x20 ADD PUSH1 0x40 MLOAD DUP1 SWAP2 SUB SWAP1 LOG2 POP POP POP POP PUSH3 0xF5B PUSH1 0x1 DUP1 SSTORE JUMP JUMPDEST PUSH3 0x29CB PUSH3 0x32AF JUMP JUMPDEST PUSH3 0x29D5 PUSH3 0x3312 JUMP JUMPDEST PUSH1 0x7 SLOAD PUSH1 0x0 DUP2 SWAP1 SUB PUSH3 0x29FB JUMPI PUSH1 0x40 MLOAD PUSH4 0xD183FE43 PUSH1 0xE0 SHL DUP2 MSTORE PUSH1 0x4 ADD PUSH1 0x40 MLOAD DUP1 SWAP2 SUB SWAP1 REVERT JUMPDEST PUSH1 0x0 PUSH1 0x7 SSTORE PUSH3 0x2100 PUSH3 0x2215 JUMP JUMPDEST PUSH1 0x60 DUP2 PUSH1 0x1 PUSH1 0x1 PUSH1 0x40 SHL SUB DUP2 GT ISZERO PUSH3 0x2A27 JUMPI PUSH3 0x2A27 PUSH3 0x40FC JUMP JUMPDEST PUSH1 0x40 MLOAD SWAP1 DUP1 DUP3 MSTORE DUP1 PUSH1 0x20 MUL PUSH1 0x20 ADD DUP3 ADD PUSH1 0x40 MSTORE DUP1 ISZERO PUSH3 0x2A51 JUMPI DUP2 PUSH1 0x20 ADD PUSH1 0x20 DUP3 MUL DUP1 CALLDATASIZE DUP4 CALLDATACOPY ADD SWAP1 POP JUMPDEST POP SWAP1 POP PUSH1 0x0 JUMPDEST DUP3 DUP2 LT ISZERO PUSH3 0x2B32 JUMPI DUP4 DUP4 DUP3 DUP2 DUP2 LT PUSH3 0x2A75 JUMPI PUSH3 0x2A75 PUSH3 0x4096 JUMP JUMPDEST SWAP1 POP PUSH1 0x20 MUL ADD PUSH1 0x20 DUP2 ADD SWAP1 PUSH3 0x2A8C SWAP2 SWAP1 PUSH3 0x3968 JUMP JUMPDEST PUSH1 0x1 PUSH1 0x1 PUSH1 0xA0 SHL SUB AND PUSH4 0x70A08231 ADDRESS PUSH1 0x40 MLOAD DUP3 PUSH4 0xFFFFFFFF AND PUSH1 0xE0 SHL DUP2 MSTORE PUSH1 0x4 ADD PUSH3 0x2AB9 SWAP2 SWAP1 PUSH3 0x38D1 JUMP JUMPDEST PUSH1 0x20 PUSH1 0x40 MLOAD DUP1 DUP4 SUB DUP2 DUP7 GAS STATICCALL ISZERO DUP1 ISZERO PUSH3 0x2AD7 JUMPI RETURNDATASIZE PUSH1 0x0 DUP1 RETURNDATACOPY RETURNDATASIZE PUSH1 0x0 REVERT JUMPDEST POP POP POP POP PUSH1 0x40 MLOAD RETURNDATASIZE PUSH1 0x1F NOT PUSH1 0x1F DUP3 ADD AND DUP3 ADD DUP1 PUSH1 0x40 MSTORE POP DUP2 ADD SWAP1 PUSH3 0x2AFD SWAP2 SWAP1 PUSH3 0x40CC JUMP JUMPDEST DUP3 DUP3 DUP2 MLOAD DUP2 LT PUSH3 0x2B12 JUMPI PUSH3 0x2B12 PUSH3 0x4096 JUMP JUMPDEST PUSH1 0x20 SWAP1 DUP2 MUL SWAP2 SWAP1 SWAP2 ADD ADD MSTORE DUP1 PUSH3 0x2B29 DUP2 PUSH3 0x414E JUMP JUMPDEST SWAP2 POP POP PUSH3 0x2A57 JUMP JUMPDEST POP SWAP3 SWAP2 POP POP JUMP JUMPDEST PUSH1 0x0 PUSH3 0x2B45 PUSH3 0x3312 JUMP JUMPDEST PUSH3 0x2B4F PUSH3 0x33C7 JUMP JUMPDEST DUP4 PUSH1 0x0 SUB PUSH3 0x2B71 JUMPI PUSH1 0x40 MLOAD PUSH4 0x7294708F PUSH1 0xE1 SHL DUP2 MSTORE PUSH1 0x4 ADD PUSH1 0x40 MLOAD DUP1 SWAP2 SUB SWAP1 REVERT JUMPDEST PUSH1 0x0 DUP12 DUP12 DUP12 DUP12 DUP10 CALLER DUP10 DUP10 PUSH1 0x40 MLOAD PUSH3 0x2B89 SWAP1 PUSH3 0x389D JUMP JUMPDEST PUSH3 0x2B9C SWAP9 SWAP8 SWAP7 SWAP6 SWAP5 SWAP4 SWAP3 SWAP2 SWAP1 PUSH3 0x43B9 JUMP JUMPDEST PUSH1 0x40 MLOAD DUP1 SWAP2 SUB SWAP1 PUSH1 0x0 CREATE DUP1 ISZERO DUP1 ISZERO PUSH3 0x2BB9 JUMPI RETURNDATASIZE PUSH1 0x0 DUP1 RETURNDATACOPY RETURNDATASIZE PUSH1 0x0 REVERT JUMPDEST POP SWAP1 POP DUP1 SWAP2 POP PUSH1 0x3 PUSH1 0x40 MLOAD DUP1 PUSH1 0xA0 ADD PUSH1 0x40 MSTORE DUP1 DUP5 PUSH1 0x1 PUSH1 0x1 PUSH1 0xA0 SHL SUB AND DUP2 MSTORE PUSH1 0x20 ADD CALLER PUSH1 0x1 PUSH1 0x1 PUSH1 0xA0 SHL SUB AND DUP2 MSTORE PUSH1 0x20 ADD DUP8 DUP2 MSTORE PUSH1 0x20 ADD DUP11 DUP11 DUP1 DUP1 PUSH1 0x1F ADD PUSH1 0x20 DUP1 SWAP2 DIV MUL PUSH1 0x20 ADD PUSH1 0x40 MLOAD SWAP1 DUP2 ADD PUSH1 0x40 MSTORE DUP1 SWAP4 SWAP3 SWAP2 SWAP1 DUP2 DUP2 MSTORE PUSH1 0x20 ADD DUP4 DUP4 DUP1 DUP3 DUP5 CALLDATACOPY PUSH1 0x0 SWAP3 ADD SWAP2 SWAP1 SWAP2 MSTORE POP POP POP SWAP1 DUP3 MSTORE POP PUSH1 0x40 DUP1 MLOAD PUSH1 0x20 PUSH1 0x1F DUP10 ADD DUP2 SWAP1 DIV DUP2 MUL DUP3 ADD DUP2 ADD SWAP1 SWAP3 MSTORE DUP8 DUP2 MSTORE SWAP2 DUP2 ADD SWAP2 SWAP1 DUP9 SWAP1 DUP9 SWAP1 DUP2 SWAP1 DUP5 ADD DUP4 DUP3 DUP1 DUP3 DUP5 CALLDATACOPY PUSH1 0x0 SWAP3 ADD DUP3 SWAP1 MSTORE POP SWAP4 SWAP1 SWAP5 MSTORE POP POP DUP4 SLOAD PUSH1 0x1 DUP1 DUP3 ADD DUP7 SSTORE SWAP5 DUP3 MSTORE PUSH1 0x20 SWAP2 DUP3 SWAP1 KECCAK256 DUP5 MLOAD PUSH1 0x5 SWAP1 SWAP3 MUL ADD DUP1 SLOAD PUSH1 0x1 PUSH1 0x1 PUSH1 0xA0 SHL SUB NOT SWAP1 DUP2 AND PUSH1 0x1 PUSH1 0x1 PUSH1 0xA0 SHL SUB SWAP4 DUP5 AND OR DUP3 SSTORE SWAP3 DUP6 ADD MLOAD SWAP6 DUP2 ADD DUP1 SLOAD SWAP1 SWAP4 AND SWAP6 SWAP1 SWAP2 AND SWAP5 SWAP1 SWAP5 OR SWAP1 SSTORE POP PUSH1 0x40 DUP2 ADD MLOAD PUSH1 0x2 DUP4 ADD SSTORE PUSH1 0x60 DUP2 ADD MLOAD SWAP1 SWAP2 SWAP1 PUSH1 0x3 DUP3 ADD SWAP1 PUSH3 0x2CD3 SWAP1 DUP3 PUSH3 0x4420 JUMP JUMPDEST POP PUSH1 0x80 DUP3 ADD MLOAD PUSH1 0x4 DUP3 ADD SWAP1 PUSH3 0x2CEA SWAP1 DUP3 PUSH3 0x4420 JUMP JUMPDEST POP POP PUSH1 0x3 SLOAD PUSH1 0x1 PUSH1 0x1 PUSH1 0xA0 SHL SUB DUP5 AND PUSH1 0x0 DUP2 DUP2 MSTORE PUSH1 0x4 PUSH1 0x20 MSTORE PUSH1 0x40 SWAP1 DUP2 SWAP1 KECCAK256 SWAP3 SWAP1 SWAP3 SSTORE SWAP1 MLOAD CALLER SWAP3 POP PUSH32 0x75C1F35492CD2BCB2820D5FF2434B9DC6D19432975F20761140109F0844A7B8A SWAP1 PUSH3 0x2D49 SWAP1 DUP10 SWAP1 DUP14 SWAP1 DUP14 SWAP1 DUP12 SWAP1 DUP12 SWAP1 PUSH3 0x44E8 JUMP JUMPDEST PUSH1 0x40 MLOAD DUP1 SWAP2 SUB SWAP1 LOG3 POP PUSH3 0x2D5C PUSH1 0x1 DUP1 SSTORE JUMP JUMPDEST SWAP11 SWAP10 POP POP POP POP POP POP POP POP POP POP JUMP JUMPDEST PUSH1 0x6 SLOAD PUSH1 0x0 SWAP1 DUP2 SWAP1 DUP2 SWAP1 PUSH2 0x2710 SWAP1 PUSH3 0x2D88 SWAP1 PUSH2 0xFFFF AND DUP7 PUSH3 0x4357 JUMP JUMPDEST PUSH3 0x2D94 SWAP2 SWAP1 PUSH3 0x4371 JUMP JUMPDEST PUSH1 0x6 SLOAD SWAP1 SWAP4 POP PUSH2 0x2710 SWAP1 PUSH3 0x2DB4 SWAP1 PUSH3 0x10000 SWAP1 DIV PUSH2 0xFFFF AND DUP7 PUSH3 0x4357 JUMP JUMPDEST PUSH3 0x2DC0 SWAP2 SWAP1 PUSH3 0x4371 JUMP JUMPDEST SWAP2 POP DUP2 PUSH3 0x2DCF DUP5 DUP7 PUSH3 0x4080 JUMP JUMPDEST PUSH3 0x2DDB SWAP2 SWAP1 PUSH3 0x4080 JUMP JUMPDEST SWAP3 SWAP5 SWAP2 SWAP4 POP POP JUMP JUMPDEST PUSH3 0x2DED PUSH3 0x32AF JUMP JUMPDEST PUSH1 0x0 JUMPDEST DUP2 DUP2 LT ISZERO PUSH3 0x1FB4 JUMPI PUSH1 0x1 PUSH1 0x1 PUSH1 0xA0 SHL SUB DUP5 AND PUSH1 0x0 SWAP1 DUP2 MSTORE PUSH1 0xE PUSH1 0x20 MSTORE PUSH1 0x40 DUP2 KECCAK256 PUSH1 0x1 SWAP2 DUP6 DUP6 DUP6 DUP2 DUP2 LT PUSH3 0x2E29 JUMPI PUSH3 0x2E29 PUSH3 0x4096 JUMP JUMPDEST SWAP1 POP PUSH1 0x20 MUL ADD PUSH1 0x20 DUP2 ADD SWAP1 PUSH3 0x2E40 SWAP2 SWAP1 PUSH3 0x3968 JUMP JUMPDEST PUSH1 0x1 PUSH1 0x1 PUSH1 0xA0 SHL SUB AND DUP2 MSTORE PUSH1 0x20 DUP2 ADD SWAP2 SWAP1 SWAP2 MSTORE PUSH1 0x40 ADD PUSH1 0x0 KECCAK256 DUP1 SLOAD PUSH1 0xFF NOT AND SWAP2 ISZERO ISZERO SWAP2 SWAP1 SWAP2 OR SWAP1 SSTORE DUP1 PUSH3 0x2E74 DUP2 PUSH3 0x414E JUMP JUMPDEST SWAP2 POP POP PUSH3 0x2DF0 JUMP JUMPDEST PUSH3 0x2E87 PUSH3 0x32AF JUMP JUMPDEST PUSH1 0x1 PUSH1 0x1 PUSH1 0xA0 SHL SUB DUP2 AND PUSH1 0x0 DUP2 DUP2 MSTORE PUSH1 0x5 PUSH1 0x20 MSTORE PUSH1 0x40 DUP1 DUP3 KECCAK256 DUP1 SLOAD PUSH1 0xFF NOT AND SWAP1 SSTORE MLOAD PUSH32 0x7236530905F7DB97A79E0D447EDB198EFA7CC11D321386A4BC4F01C9DCAEF73D SWAP2 SWAP1 LOG2 POP JUMP JUMPDEST PUSH3 0x2EDA PUSH3 0x32AF JUMP JUMPDEST PUSH1 0x1 PUSH1 0x1 PUSH1 0xA0 SHL SUB DUP2 AND PUSH3 0x2F41 JUMPI PUSH1 0x40 MLOAD PUSH3 0x461BCD PUSH1 0xE5 SHL DUP2 MSTORE PUSH1 0x20 PUSH1 0x4 DUP3 ADD MSTORE PUSH1 0x26 PUSH1 0x24 DUP3 ADD MSTORE PUSH32 0x4F776E61626C653A206E6577206F776E657220697320746865207A65726F2061 PUSH1 0x44 DUP3 ADD MSTORE PUSH6 0x646472657373 PUSH1 0xD0 SHL PUSH1 0x64 DUP3 ADD MSTORE PUSH1 0x84 ADD PUSH3 0x2E5 JUMP JUMPDEST PUSH3 0x1084 DUP2 PUSH3 0x3507 JUMP JUMPDEST PUSH3 0x2F56 PUSH3 0x32AF JUMP JUMPDEST PUSH2 0x2710 PUSH3 0x2F65 DUP3 DUP5 PUSH3 0x4519 JUMP JUMPDEST PUSH2 0xFFFF AND LT PUSH3 0x2FA8 JUMPI PUSH1 0x40 MLOAD PUSH3 0x461BCD PUSH1 0xE5 SHL DUP2 MSTORE PUSH1 0x20 PUSH1 0x4 DUP3 ADD MSTORE PUSH1 0xD PUSH1 0x24 DUP3 ADD MSTORE PUSH13 0x8CCACAE640E8DEDE40D0D2CED PUSH1 0x9B SHL PUSH1 0x44 DUP3 ADD MSTORE PUSH1 0x64 ADD PUSH3 0x2E5 JUMP JUMPDEST PUSH1 0x6 DUP1 SLOAD PUSH2 0xFFFF DUP5 DUP2 AND PUSH4 0xFFFFFFFF NOT SWAP1 SWAP3 AND DUP3 OR PUSH3 0x10000 SWAP2 DUP6 AND SWAP2 DUP3 MUL OR SWAP1 SWAP3 SSTORE PUSH1 0x40 DUP1 MLOAD SWAP2 DUP3 MSTORE PUSH1 0x20 DUP3 ADD SWAP3 SWAP1 SWAP3 MSTORE PUSH32 0x2AC80C14C28700F7B5E36F947D572149FE2E3947BAC32C3A8C098F3E03722C11 SWAP2 ADD PUSH3 0xC9E JUMP JUMPDEST PUSH3 0x300D PUSH3 0x3312 JUMP JUMPDEST PUSH1 0x1 PUSH1 0x1 PUSH1 0xA0 SHL SUB DUP2 AND PUSH1 0x0 SWAP1 DUP2 MSTORE PUSH1 0x4 PUSH1 0x20 MSTORE PUSH1 0x40 DUP2 KECCAK256 SLOAD SWAP1 DUP2 SWAP1 SUB PUSH3 0x3048 JUMPI PUSH1 0x40 MLOAD PUSH4 0x8DDA39DF PUSH1 0xE0 SHL DUP2 MSTORE PUSH1 0x4 ADD PUSH1 0x40 MLOAD DUP1 SWAP2 SUB SWAP1 REVERT JUMPDEST PUSH1 0x0 PUSH1 0x3 PUSH3 0x3059 PUSH1 0x1 DUP5 PUSH3 0x4080 JUMP JUMPDEST DUP2 SLOAD DUP2 LT PUSH3 0x306C JUMPI PUSH3 0x306C PUSH3 0x4096 JUMP JUMPDEST PUSH1 0x0 SWAP2 DUP3 MSTORE PUSH1 0x20 SWAP1 SWAP2 KECCAK256 PUSH1 0x1 PUSH1 0x5 SWAP1 SWAP3 MUL ADD ADD SLOAD PUSH1 0x1 PUSH1 0x1 PUSH1 0xA0 SHL SUB AND SWAP1 POP CALLER DUP2 EQ PUSH3 0x30AC JUMPI PUSH1 0x40 MLOAD PUSH4 0xEA8E4EB5 PUSH1 0xE0 SHL DUP2 MSTORE PUSH1 0x4 ADD PUSH1 0x40 MLOAD DUP1 SWAP2 SUB SWAP1 REVERT JUMPDEST PUSH1 0x1 PUSH1 0x1 PUSH1 0xA0 SHL SUB DUP2 AND PUSH1 0x0 SWAP1 DUP2 MSTORE PUSH1 0x9 PUSH1 0x20 MSTORE PUSH1 0x40 DUP2 KECCAK256 SLOAD SWAP1 DUP2 SWAP1 SUB PUSH3 0x30E7 JUMPI PUSH1 0x40 MLOAD PUSH4 0xD183FE43 PUSH1 0xE0 SHL DUP2 MSTORE PUSH1 0x4 ADD PUSH1 0x40 MLOAD DUP1 SWAP2 SUB SWAP1 REVERT JUMPDEST PUSH1 0x1 PUSH1 0x1 PUSH1 0xA0 SHL SUB DUP3 AND PUSH1 0x0 DUP2 DUP2 MSTORE PUSH1 0x9 PUSH1 0x20 MSTORE PUSH1 0x40 DUP1 DUP3 KECCAK256 DUP3 SWAP1 SSTORE MLOAD DUP4 ISZERO PUSH2 0x8FC MUL SWAP2 DUP5 SWAP2 SWAP1 DUP2 DUP2 DUP2 DUP6 DUP9 DUP9 CALL SWAP4 POP POP POP POP ISZERO DUP1 ISZERO PUSH3 0x312C JUMPI RETURNDATASIZE PUSH1 0x0 DUP1 RETURNDATACOPY RETURNDATASIZE PUSH1 0x0 REVERT JUMPDEST POP DUP2 PUSH1 0x1 PUSH1 0x1 PUSH1 0xA0 SHL SUB AND PUSH1 0x0 DUP1 MLOAD PUSH1 0x20 PUSH3 0x61E5 DUP4 CODECOPY DUP2 MLOAD SWAP2 MSTORE DUP3 PUSH1 0x40 MLOAD PUSH3 0x3158 SWAP2 DUP2 MSTORE PUSH1 0x20 ADD SWAP1 JUMP JUMPDEST PUSH1 0x40 MLOAD DUP1 SWAP2 SUB SWAP1 LOG2 POP POP POP PUSH3 0x1084 PUSH1 0x1 DUP1 SSTORE JUMP JUMPDEST PUSH3 0x3177 PUSH3 0x32AF JUMP JUMPDEST PUSH1 0x1 PUSH1 0x1 PUSH1 0xA0 SHL SUB SWAP2 SWAP1 SWAP2 AND PUSH1 0x0 SWAP1 DUP2 MSTORE PUSH1 0xD PUSH1 0x20 MSTORE PUSH1 0x40 SWAP1 KECCAK256 DUP1 SLOAD PUSH1 0xFF NOT AND SWAP2 ISZERO ISZERO SWAP2 SWAP1 SWAP2 OR SWAP1 SSTORE JUMP JUMPDEST PUSH1 0x0 DUP1 PUSH1 0xB PUSH1 0x0 SWAP1 SLOAD SWAP1 PUSH2 0x100 EXP SWAP1 DIV PUSH1 0x1 PUSH1 0x1 PUSH1 0xA0 SHL SUB AND PUSH1 0x1 PUSH1 0x1 PUSH1 0xA0 SHL SUB AND PUSH4 0xAD5C4648 PUSH1 0x40 MLOAD DUP2 PUSH4 0xFFFFFFFF AND PUSH1 0xE0 SHL DUP2 MSTORE PUSH1 0x4 ADD PUSH1 0x20 PUSH1 0x40 MLOAD DUP1 DUP4 SUB DUP2 DUP7 GAS STATICCALL ISZERO DUP1 ISZERO PUSH3 0x31F9 JUMPI RETURNDATASIZE PUSH1 0x0 DUP1 RETURNDATACOPY RETURNDATASIZE PUSH1 0x0 REVERT JUMPDEST POP POP POP POP PUSH1 0x40 MLOAD RETURNDATASIZE PUSH1 0x1F NOT PUSH1 0x1F DUP3 ADD AND DUP3 ADD DUP1 PUSH1 0x40 MSTORE POP DUP2 ADD SWAP1 PUSH3 0x321F SWAP2 SWAP1 PUSH3 0x40AC JUMP JUMPDEST PUSH1 0xA SLOAD PUSH1 0x40 MLOAD PUSH4 0xE6A43905 PUSH1 0xE0 SHL DUP2 MSTORE SWAP2 SWAP3 POP PUSH1 0x0 SWAP2 PUSH1 0x1 PUSH1 0x1 PUSH1 0xA0 SHL SUB SWAP1 SWAP2 AND SWAP1 PUSH4 0xE6A43905 SWAP1 PUSH3 0x3259 SWAP1 DUP8 SWAP1 DUP7 SWAP1 PUSH1 0x4 ADD PUSH3 0x4050 JUMP JUMPDEST PUSH1 0x20 PUSH1 0x40 MLOAD DUP1 DUP4 SUB DUP2 DUP7 GAS STATICCALL ISZERO DUP1 ISZERO PUSH3 0x3277 JUMPI RETURNDATASIZE PUSH1 0x0 DUP1 RETURNDATACOPY RETURNDATASIZE PUSH1 0x0 REVERT JUMPDEST POP POP POP POP PUSH1 0x40 MLOAD RETURNDATASIZE PUSH1 0x1F NOT PUSH1 0x1F DUP3 ADD AND DUP3 ADD DUP1 PUSH1 0x40 MSTORE POP DUP2 ADD SWAP1 PUSH3 0x329D SWAP2 SWAP1 PUSH3 0x40AC JUMP JUMPDEST PUSH1 0x1 PUSH1 0x1 PUSH1 0xA0 SHL SUB AND EQ ISZERO SWAP4 SWAP3 POP POP POP JUMP JUMPDEST CALLER PUSH3 0x32BA PUSH3 0x2215 JUMP JUMPDEST PUSH1 0x1 PUSH1 0x1 PUSH1 0xA0 SHL SUB AND EQ PUSH3 0xF5B JUMPI PUSH1 0x40 MLOAD PUSH3 0x461BCD PUSH1 0xE5 SHL DUP2 MSTORE PUSH1 0x20 PUSH1 0x4 DUP3 ADD DUP2 SWAP1 MSTORE PUSH1 0x24 DUP3 ADD MSTORE PUSH32 0x4F776E61626C653A2063616C6C6572206973206E6F7420746865206F776E6572 PUSH1 0x44 DUP3 ADD MSTORE PUSH1 0x64 ADD PUSH3 0x2E5 JUMP JUMPDEST PUSH1 0x2 PUSH1 0x1 SLOAD SUB PUSH3 0x3366 JUMPI PUSH1 0x40 MLOAD PUSH3 0x461BCD PUSH1 0xE5 SHL DUP2 MSTORE PUSH1 0x20 PUSH1 0x4 DUP3 ADD MSTORE PUSH1 0x1F PUSH1 0x24 DUP3 ADD MSTORE PUSH32 0x5265656E7472616E637947756172643A207265656E7472616E742063616C6C00 PUSH1 0x44 DUP3 ADD MSTORE PUSH1 0x64 ADD PUSH3 0x2E5 JUMP JUMPDEST PUSH1 0x2 PUSH1 0x1 SSTORE JUMP JUMPDEST PUSH3 0x1DD6 DUP4 PUSH4 0xA9059CBB PUSH1 0xE0 SHL DUP5 DUP5 PUSH1 0x40 MLOAD PUSH1 0x24 ADD PUSH3 0x338F SWAP3 SWAP2 SWAP1 PUSH3 0x4537 JUMP JUMPDEST PUSH1 0x40 DUP1 MLOAD PUSH1 0x1F NOT DUP2 DUP5 SUB ADD DUP2 MSTORE SWAP2 SWAP1 MSTORE PUSH1 0x20 DUP2 ADD DUP1 MLOAD PUSH1 0x1 PUSH1 0x1 PUSH1 0xE0 SHL SUB AND PUSH1 0x1 PUSH1 0x1 PUSH1 0xE0 SHL SUB NOT SWAP1 SWAP4 AND SWAP3 SWAP1 SWAP3 OR SWAP1 SWAP2 MSTORE PUSH3 0x3557 JUMP JUMPDEST PUSH1 0x2 SLOAD PUSH1 0xFF AND ISZERO PUSH3 0xF5B JUMPI PUSH1 0x40 MLOAD PUSH3 0x461BCD PUSH1 0xE5 SHL DUP2 MSTORE PUSH1 0x20 PUSH1 0x4 DUP3 ADD MSTORE PUSH1 0x10 PUSH1 0x24 DUP3 ADD MSTORE PUSH16 0x14185D5CD8589B194E881C185D5CD959 PUSH1 0x82 SHL PUSH1 0x44 DUP3 ADD MSTORE PUSH1 0x64 ADD PUSH3 0x2E5 JUMP JUMPDEST PUSH1 0x40 MLOAD PUSH1 0x1 PUSH1 0x1 PUSH1 0xA0 SHL SUB DUP1 DUP6 AND PUSH1 0x24 DUP4 ADD MSTORE DUP4 AND PUSH1 0x44 DUP3 ADD MSTORE PUSH1 0x64 DUP2 ADD DUP3 SWAP1 MSTORE PUSH3 0x1FB4 SWAP1 DUP6 SWAP1 PUSH4 0x23B872DD PUSH1 0xE0 SHL SWAP1 PUSH1 0x84 ADD PUSH3 0x338F JUMP JUMPDEST PUSH1 0x40 MLOAD PUSH4 0x6EB1769F PUSH1 0xE1 SHL DUP2 MSTORE PUSH1 0x0 SWAP1 PUSH1 0x1 PUSH1 0x1 PUSH1 0xA0 SHL SUB DUP6 AND SWAP1 PUSH4 0xDD62ED3E SWAP1 PUSH3 0x347C SWAP1 ADDRESS SWAP1 DUP8 SWAP1 PUSH1 0x4 ADD PUSH3 0x4050 JUMP JUMPDEST PUSH1 0x20 PUSH1 0x40 MLOAD DUP1 DUP4 SUB DUP2 DUP7 GAS STATICCALL ISZERO DUP1 ISZERO PUSH3 0x349A JUMPI RETURNDATASIZE PUSH1 0x0 DUP1 RETURNDATACOPY RETURNDATASIZE PUSH1 0x0 REVERT JUMPDEST POP POP POP POP PUSH1 0x40 MLOAD RETURNDATASIZE PUSH1 0x1F NOT PUSH1 0x1F DUP3 ADD AND DUP3 ADD DUP1 PUSH1 0x40 MSTORE POP DUP2 ADD SWAP1 PUSH3 0x34C0 SWAP2 SWAP1 PUSH3 0x40CC JUMP JUMPDEST SWAP1 POP PUSH3 0x1FB4 DUP5 PUSH4 0x95EA7B3 PUSH1 0xE0 SHL DUP6 PUSH3 0x34DC DUP7 DUP7 PUSH3 0x40E6 JUMP JUMPDEST PUSH1 0x40 MLOAD PUSH1 0x24 ADD PUSH3 0x338F SWAP3 SWAP2 SWAP1 PUSH3 0x4537 JUMP JUMPDEST PUSH1 0x0 DUP3 PUSH3 0x34FE DUP6 DUP5 PUSH3 0x3633 JUMP JUMPDEST EQ SWAP5 SWAP4 POP POP POP POP JUMP JUMPDEST PUSH1 0x0 DUP1 SLOAD PUSH1 0x1 PUSH1 0x1 PUSH1 0xA0 SHL SUB DUP4 DUP2 AND PUSH1 0x1 PUSH1 0x1 PUSH1 0xA0 SHL SUB NOT DUP4 AND DUP2 OR DUP5 SSTORE PUSH1 0x40 MLOAD SWAP2 SWAP1 SWAP3 AND SWAP3 DUP4 SWAP2 PUSH32 0x8BE0079C531659141344CD1FD0A4F28419497F9722A3DAAFE3B4186F6B6457E0 SWAP2 SWAP1 LOG3 POP POP JUMP JUMPDEST PUSH1 0x0 PUSH3 0x35AE DUP3 PUSH1 0x40 MLOAD DUP1 PUSH1 0x40 ADD PUSH1 0x40 MSTORE DUP1 PUSH1 0x20 DUP2 MSTORE PUSH1 0x20 ADD PUSH32 0x5361666545524332303A206C6F772D6C6576656C2063616C6C206661696C6564 DUP2 MSTORE POP DUP6 PUSH1 0x1 PUSH1 0x1 PUSH1 0xA0 SHL SUB AND PUSH3 0x368B SWAP1 SWAP3 SWAP2 SWAP1 PUSH4 0xFFFFFFFF AND JUMP JUMPDEST SWAP1 POP DUP1 MLOAD PUSH1 0x0 EQ DUP1 PUSH3 0x35D2 JUMPI POP DUP1 DUP1 PUSH1 0x20 ADD SWAP1 MLOAD DUP2 ADD SWAP1 PUSH3 0x35D2 SWAP2 SWAP1 PUSH3 0x4550 JUMP JUMPDEST PUSH3 0x1DD6 JUMPI PUSH1 0x40 MLOAD PUSH3 0x461BCD PUSH1 0xE5 SHL DUP2 MSTORE PUSH1 0x20 PUSH1 0x4 DUP3 ADD MSTORE PUSH1 0x2A PUSH1 0x24 DUP3 ADD MSTORE PUSH32 0x5361666545524332303A204552433230206F7065726174696F6E20646964206E PUSH1 0x44 DUP3 ADD MSTORE PUSH10 0x1BDD081CDD58D8D95959 PUSH1 0xB2 SHL PUSH1 0x64 DUP3 ADD MSTORE PUSH1 0x84 ADD PUSH3 0x2E5 JUMP JUMPDEST PUSH1 0x0 DUP2 DUP2 JUMPDEST DUP5 MLOAD DUP2 LT ISZERO PUSH3 0x3681 JUMPI PUSH3 0x366A DUP3 DUP7 DUP4 DUP2 MLOAD DUP2 LT PUSH3 0x365C JUMPI PUSH3 0x365C PUSH3 0x4096 JUMP JUMPDEST PUSH1 0x20 MUL PUSH1 0x20 ADD ADD MLOAD PUSH3 0x36A4 JUMP JUMPDEST SWAP2 POP DUP1 PUSH3 0x3678 DUP2 PUSH3 0x414E JUMP JUMPDEST SWAP2 POP POP PUSH3 0x3638 JUMP JUMPDEST POP SWAP1 POP JUMPDEST SWAP3 SWAP2 POP POP JUMP JUMPDEST PUSH1 0x60 PUSH3 0x369C DUP5 DUP5 PUSH1 0x0 DUP6 PUSH3 0x36D2 JUMP JUMPDEST SWAP5 SWAP4 POP POP POP POP JUMP JUMPDEST PUSH1 0x0 DUP2 DUP4 LT PUSH3 0x36C2 JUMPI PUSH1 0x0 DUP3 DUP2 MSTORE PUSH1 0x20 DUP5 SWAP1 MSTORE PUSH1 0x40 SWAP1 KECCAK256 PUSH3 0xEAB JUMP JUMPDEST POP PUSH1 0x0 SWAP2 DUP3 MSTORE PUSH1 0x20 MSTORE PUSH1 0x40 SWAP1 KECCAK256 SWAP1 JUMP JUMPDEST PUSH1 0x60 DUP3 SELFBALANCE LT ISZERO PUSH3 0x3735 JUMPI PUSH1 0x40 MLOAD PUSH3 0x461BCD PUSH1 0xE5 SHL DUP2 MSTORE PUSH1 0x20 PUSH1 0x4 DUP3 ADD MSTORE PUSH1 0x26 PUSH1 0x24 DUP3 ADD MSTORE PUSH32 0x416464726573733A20696E73756666696369656E742062616C616E636520666F PUSH1 0x44 DUP3 ADD MSTORE PUSH6 0x1C8818D85B1B PUSH1 0xD2 SHL PUSH1 0x64 DUP3 ADD MSTORE PUSH1 0x84 ADD PUSH3 0x2E5 JUMP JUMPDEST PUSH1 0x0 DUP1 DUP7 PUSH1 0x1 PUSH1 0x1 PUSH1 0xA0 SHL SUB AND DUP6 DUP8 PUSH1 0x40 MLOAD PUSH3 0x3753 SWAP2 SWAP1 PUSH3 0x4570 JUMP JUMPDEST PUSH1 0x0 PUSH1 0x40 MLOAD DUP1 DUP4 SUB DUP2 DUP6 DUP8 GAS CALL SWAP3 POP POP POP RETURNDATASIZE DUP1 PUSH1 0x0 DUP2 EQ PUSH3 0x3792 JUMPI PUSH1 0x40 MLOAD SWAP2 POP PUSH1 0x1F NOT PUSH1 0x3F RETURNDATASIZE ADD AND DUP3 ADD PUSH1 0x40 MSTORE RETURNDATASIZE DUP3 MSTORE RETURNDATASIZE PUSH1 0x0 PUSH1 0x20 DUP5 ADD RETURNDATACOPY PUSH3 0x3797 JUMP JUMPDEST PUSH1 0x60 SWAP2 POP JUMPDEST POP SWAP2 POP SWAP2 POP PUSH3 0x37AA DUP8 DUP4 DUP4 DUP8 PUSH3 0x37B5 JUMP JUMPDEST SWAP8 SWAP7 POP POP POP POP POP POP POP JUMP JUMPDEST PUSH1 0x60 DUP4 ISZERO PUSH3 0x3829 JUMPI DUP3 MLOAD PUSH1 0x0 SUB PUSH3 0x3821 JUMPI PUSH1 0x1 PUSH1 0x1 PUSH1 0xA0 SHL SUB DUP6 AND EXTCODESIZE PUSH3 0x3821 JUMPI PUSH1 0x40 MLOAD PUSH3 0x461BCD PUSH1 0xE5 SHL DUP2 MSTORE PUSH1 0x20 PUSH1 0x4 DUP3 ADD MSTORE PUSH1 0x1D PUSH1 0x24 DUP3 ADD MSTORE PUSH32 0x416464726573733A2063616C6C20746F206E6F6E2D636F6E7472616374000000 PUSH1 0x44 DUP3 ADD MSTORE PUSH1 0x64 ADD PUSH3 0x2E5 JUMP JUMPDEST POP DUP2 PUSH3 0x369C JUMP JUMPDEST PUSH3 0x369C DUP4 DUP4 DUP2 MLOAD ISZERO PUSH3 0x3840 JUMPI DUP2 MLOAD DUP1 DUP4 PUSH1 0x20 ADD REVERT JUMPDEST DUP1 PUSH1 0x40 MLOAD PUSH3 0x461BCD PUSH1 0xE5 SHL DUP2 MSTORE PUSH1 0x4 ADD PUSH3 0x2E5 SWAP2 SWAP1 PUSH3 0x458E JUMP JUMPDEST PUSH1 0x40 MLOAD DUP1 PUSH1 0xA0 ADD PUSH1 0x40 MSTORE DUP1 PUSH1 0x0 PUSH1 0x1 PUSH1 0x1 PUSH1 0xA0 SHL SUB AND DUP2 MSTORE PUSH1 0x20 ADD PUSH1 0x0 PUSH1 0x1 PUSH1 0x1 PUSH1 0xA0 SHL SUB AND DUP2 MSTORE PUSH1 0x20 ADD PUSH1 0x0 DUP2 MSTORE PUSH1 0x20 ADD PUSH1 0x60 DUP2 MSTORE PUSH1 0x20 ADD PUSH1 0x60 DUP2 MSTORE POP SWAP1 JUMP JUMPDEST PUSH2 0x1C01 DUP1 PUSH3 0x45A4 DUP4 CODECOPY ADD SWAP1 JUMP JUMPDEST PUSH1 0x20 DUP1 DUP3 MSTORE PUSH1 0xC SWAP1 DUP3 ADD MSTORE PUSH12 0x2AB9B290313ABCAA37B5B2B7 PUSH1 0xA1 SHL PUSH1 0x40 DUP3 ADD MSTORE PUSH1 0x60 ADD SWAP1 JUMP JUMPDEST PUSH1 0x1 PUSH1 0x1 PUSH1 0xA0 SHL SUB SWAP2 SWAP1 SWAP2 AND DUP2 MSTORE PUSH1 0x20 ADD SWAP1 JUMP JUMPDEST PUSH1 0x1 PUSH1 0x1 PUSH1 0xA0 SHL SUB DUP2 AND DUP2 EQ PUSH3 0x1084 JUMPI PUSH1 0x0 DUP1 REVERT JUMPDEST PUSH1 0x0 DUP1 PUSH1 0x40 DUP4 DUP6 SUB SLT ISZERO PUSH3 0x390F JUMPI PUSH1 0x0 DUP1 REVERT JUMPDEST DUP3 CALLDATALOAD PUSH3 0x391C DUP2 PUSH3 0x38E5 JUMP JUMPDEST SWAP2 POP PUSH1 0x20 DUP4 ADD CALLDATALOAD PUSH3 0x392E DUP2 PUSH3 0x38E5 JUMP JUMPDEST DUP1 SWAP2 POP POP SWAP3 POP SWAP3 SWAP1 POP JUMP JUMPDEST PUSH1 0x0 DUP1 PUSH1 0x40 DUP4 DUP6 SUB SLT ISZERO PUSH3 0x394D JUMPI PUSH1 0x0 DUP1 REVERT JUMPDEST DUP3 CALLDATALOAD PUSH3 0x395A DUP2 PUSH3 0x38E5 JUMP JUMPDEST SWAP5 PUSH1 0x20 SWAP4 SWAP1 SWAP4 ADD CALLDATALOAD SWAP4 POP POP POP JUMP JUMPDEST PUSH1 0x0 PUSH1 0x20 DUP3 DUP5 SUB SLT ISZERO PUSH3 0x397B JUMPI PUSH1 0x0 DUP1 REVERT JUMPDEST DUP2 CALLDATALOAD PUSH3 0xEAB DUP2 PUSH3 0x38E5 JUMP JUMPDEST PUSH1 0x0 PUSH1 0x20 DUP3 DUP5 SUB SLT ISZERO PUSH3 0x399B JUMPI PUSH1 0x0 DUP1 REVERT JUMPDEST POP CALLDATALOAD SWAP2 SWAP1 POP JUMP JUMPDEST PUSH1 0x0 DUP1 PUSH1 0x40 DUP4 DUP6 SUB SLT ISZERO PUSH3 0x39B6 JUMPI PUSH1 0x0 DUP1 REVERT JUMPDEST POP POP DUP1 CALLDATALOAD SWAP3 PUSH1 0x20 SWAP1 SWAP2 ADD CALLDATALOAD SWAP2 POP JUMP JUMPDEST PUSH1 0x0 JUMPDEST DUP4 DUP2 LT ISZERO PUSH3 0x39E2 JUMPI DUP2 DUP2 ADD MLOAD DUP4 DUP3 ADD MSTORE PUSH1 0x20 ADD PUSH3 0x39C8 JUMP JUMPDEST POP POP PUSH1 0x0 SWAP2 ADD MSTORE JUMP JUMPDEST PUSH1 0x0 DUP2 MLOAD DUP1 DUP5 MSTORE PUSH3 0x3A05 DUP2 PUSH1 0x20 DUP7 ADD PUSH1 0x20 DUP7 ADD PUSH3 0x39C5 JUMP JUMPDEST PUSH1 0x1F ADD PUSH1 0x1F NOT AND SWAP3 SWAP1 SWAP3 ADD PUSH1 0x20 ADD SWAP3 SWAP2 POP POP JUMP JUMPDEST PUSH1 0x0 DUP3 DUP3 MLOAD DUP1 DUP6 MSTORE PUSH1 0x20 DUP1 DUP7 ADD SWAP6 POP DUP1 DUP3 PUSH1 0x5 SHL DUP5 ADD ADD DUP2 DUP7 ADD PUSH1 0x0 JUMPDEST DUP5 DUP2 LT ISZERO PUSH3 0x3ABF JUMPI DUP6 DUP4 SUB PUSH1 0x1F NOT ADD DUP10 MSTORE DUP2 MLOAD DUP1 MLOAD PUSH1 0x1 PUSH1 0x1 PUSH1 0xA0 SHL SUB SWAP1 DUP2 AND DUP6 MSTORE DUP6 DUP3 ADD MLOAD AND DUP6 DUP6 ADD MSTORE PUSH1 0x40 DUP1 DUP3 ADD MLOAD SWAP1 DUP6 ADD MSTORE PUSH1 0x60 DUP1 DUP3 ADD MLOAD PUSH1 0xA0 DUP3 DUP8 ADD DUP2 SWAP1 MSTORE SWAP2 SWAP1 PUSH3 0x3A8A DUP4 DUP9 ADD DUP3 PUSH3 0x39EB JUMP JUMPDEST SWAP3 POP POP POP PUSH1 0x80 DUP1 DUP4 ADD MLOAD SWAP3 POP DUP6 DUP3 SUB DUP2 DUP8 ADD MSTORE POP PUSH3 0x3AAA DUP2 DUP4 PUSH3 0x39EB JUMP JUMPDEST SWAP11 DUP7 ADD SWAP11 SWAP5 POP POP POP SWAP1 DUP4 ADD SWAP1 PUSH1 0x1 ADD PUSH3 0x3A36 JUMP JUMPDEST POP SWAP1 SWAP8 SWAP7 POP POP POP POP POP POP POP JUMP JUMPDEST PUSH1 0x20 DUP2 MSTORE PUSH1 0x0 PUSH3 0xEAB PUSH1 0x20 DUP4 ADD DUP5 PUSH3 0x3A19 JUMP JUMPDEST PUSH1 0x0 DUP1 PUSH1 0x0 DUP1 PUSH1 0x80 DUP6 DUP8 SUB SLT ISZERO PUSH3 0x3AF8 JUMPI PUSH1 0x0 DUP1 REVERT JUMPDEST DUP5 CALLDATALOAD PUSH3 0x3B05 DUP2 PUSH3 0x38E5 JUMP JUMPDEST SWAP7 PUSH1 0x20 DUP7 ADD CALLDATALOAD SWAP7 POP PUSH1 0x40 DUP7 ADD CALLDATALOAD SWAP6 PUSH1 0x60 ADD CALLDATALOAD SWAP5 POP SWAP3 POP POP POP JUMP JUMPDEST PUSH1 0x0 DUP1 DUP4 PUSH1 0x1F DUP5 ADD SLT PUSH3 0x3B32 JUMPI PUSH1 0x0 DUP1 REVERT JUMPDEST POP DUP2 CALLDATALOAD PUSH1 0x1 PUSH1 0x1 PUSH1 0x40 SHL SUB DUP2 GT ISZERO PUSH3 0x3B4A JUMPI PUSH1 0x0 DUP1 REVERT JUMPDEST PUSH1 0x20 DUP4 ADD SWAP2 POP DUP4 PUSH1 0x20 DUP3 DUP6 ADD ADD GT ISZERO PUSH3 0x27F4 JUMPI PUSH1 0x0 DUP1 REVERT JUMPDEST PUSH1 0x0 DUP1 PUSH1 0x0 DUP1 PUSH1 0x0 PUSH1 0x60 DUP7 DUP9 SUB SLT ISZERO PUSH3 0x3B7C JUMPI PUSH1 0x0 DUP1 REVERT JUMPDEST DUP6 CALLDATALOAD PUSH3 0x3B89 DUP2 PUSH3 0x38E5 JUMP JUMPDEST SWAP5 POP PUSH1 0x20 DUP7 ADD CALLDATALOAD PUSH1 0x1 PUSH1 0x1 PUSH1 0x40 SHL SUB DUP1 DUP3 GT ISZERO PUSH3 0x3BA6 JUMPI PUSH1 0x0 DUP1 REVERT JUMPDEST PUSH3 0x3BB4 DUP10 DUP4 DUP11 ADD PUSH3 0x3B1F JUMP JUMPDEST SWAP1 SWAP7 POP SWAP5 POP PUSH1 0x40 DUP9 ADD CALLDATALOAD SWAP2 POP DUP1 DUP3 GT ISZERO PUSH3 0x3BCE JUMPI PUSH1 0x0 DUP1 REVERT JUMPDEST POP PUSH3 0x3BDD DUP9 DUP3 DUP10 ADD PUSH3 0x3B1F JUMP JUMPDEST SWAP7 SWAP10 SWAP6 SWAP9 POP SWAP4 SWAP7 POP SWAP3 SWAP5 SWAP4 SWAP3 POP POP POP JUMP JUMPDEST PUSH1 0x1 PUSH1 0x1 PUSH1 0xA0 SHL SUB DUP7 DUP2 AND DUP3 MSTORE DUP6 AND PUSH1 0x20 DUP3 ADD MSTORE PUSH1 0x40 DUP2 ADD DUP5 SWAP1 MSTORE PUSH1 0xA0 PUSH1 0x60 DUP3 ADD DUP2 SWAP1 MSTORE PUSH1 0x0 SWAP1 PUSH3 0x3C23 SWAP1 DUP4 ADD DUP6 PUSH3 0x39EB JUMP JUMPDEST DUP3 DUP2 SUB PUSH1 0x80 DUP5 ADD MSTORE PUSH3 0x3C37 DUP2 DUP6 PUSH3 0x39EB JUMP JUMPDEST SWAP9 SWAP8 POP POP POP POP POP POP POP POP JUMP JUMPDEST PUSH1 0x0 DUP1 DUP4 PUSH1 0x1F DUP5 ADD SLT PUSH3 0x3C56 JUMPI PUSH1 0x0 DUP1 REVERT JUMPDEST POP DUP2 CALLDATALOAD PUSH1 0x1 PUSH1 0x1 PUSH1 0x40 SHL SUB DUP2 GT ISZERO PUSH3 0x3C6E JUMPI PUSH1 0x0 DUP1 REVERT JUMPDEST PUSH1 0x20 DUP4 ADD SWAP2 POP DUP4 PUSH1 0x20 DUP3 PUSH1 0x5 SHL DUP6 ADD ADD GT ISZERO PUSH3 0x27F4 JUMPI PUSH1 0x0 DUP1 REVERT JUMPDEST PUSH1 0x0 DUP1 PUSH1 0x0 DUP1 PUSH1 0x0 PUSH1 0x80 DUP7 DUP9 SUB SLT ISZERO PUSH3 0x3CA3 JUMPI PUSH1 0x0 DUP1 REVERT JUMPDEST DUP6 CALLDATALOAD PUSH3 0x3CB0 DUP2 PUSH3 0x38E5 JUMP JUMPDEST SWAP5 POP PUSH1 0x20 DUP7 ADD CALLDATALOAD SWAP4 POP PUSH1 0x40 DUP7 ADD CALLDATALOAD PUSH3 0x3CC9 DUP2 PUSH3 0x38E5 JUMP JUMPDEST SWAP3 POP PUSH1 0x60 DUP7 ADD CALLDATALOAD PUSH1 0x1 PUSH1 0x1 PUSH1 0x40 SHL SUB DUP2 GT ISZERO PUSH3 0x3CE5 JUMPI PUSH1 0x0 DUP1 REVERT JUMPDEST PUSH3 0x3BDD DUP9 DUP3 DUP10 ADD PUSH3 0x3C43 JUMP JUMPDEST PUSH1 0x0 DUP1 PUSH1 0x0 PUSH1 0x60 DUP5 DUP7 SUB SLT ISZERO PUSH3 0x3D09 JUMPI PUSH1 0x0 DUP1 REVERT JUMPDEST DUP4 CALLDATALOAD PUSH3 0x3D16 DUP2 PUSH3 0x38E5 JUMP JUMPDEST SWAP3 POP PUSH1 0x20 DUP5 ADD CALLDATALOAD SWAP2 POP PUSH1 0x40 DUP5 ADD CALLDATALOAD PUSH3 0x3D2F DUP2 PUSH3 0x38E5 JUMP JUMPDEST DUP1 SWAP2 POP POP SWAP3 POP SWAP3 POP SWAP3 JUMP JUMPDEST PUSH1 0x0 DUP1 PUSH1 0x0 DUP1 PUSH1 0x40 DUP6 DUP8 SUB SLT ISZERO PUSH3 0x3D51 JUMPI PUSH1 0x0 DUP1 REVERT JUMPDEST DUP5 CALLDATALOAD PUSH1 0x1 PUSH1 0x1 PUSH1 0x40 SHL SUB DUP1 DUP3 GT ISZERO PUSH3 0x3D69 JUMPI PUSH1 0x0 DUP1 REVERT JUMPDEST PUSH3 0x3D77 DUP9 DUP4 DUP10 ADD PUSH3 0x3C43 JUMP JUMPDEST SWAP1 SWAP7 POP SWAP5 POP PUSH1 0x20 DUP8 ADD CALLDATALOAD SWAP2 POP DUP1 DUP3 GT ISZERO PUSH3 0x3D91 JUMPI PUSH1 0x0 DUP1 REVERT JUMPDEST POP PUSH3 0x3DA0 DUP8 DUP3 DUP9 ADD PUSH3 0x3C43 JUMP JUMPDEST SWAP6 SWAP9 SWAP5 SWAP8 POP SWAP6 POP POP POP POP JUMP JUMPDEST PUSH1 0x40 DUP2 MSTORE PUSH1 0x0 PUSH3 0x3DC1 PUSH1 0x40 DUP4 ADD DUP6 PUSH3 0x3A19 JUMP JUMPDEST SWAP1 POP DUP3 PUSH1 0x20 DUP4 ADD MSTORE SWAP4 SWAP3 POP POP POP JUMP JUMPDEST PUSH1 0x0 DUP1 PUSH1 0x20 DUP4 DUP6 SUB SLT ISZERO PUSH3 0x3DE4 JUMPI PUSH1 0x0 DUP1 REVERT JUMPDEST DUP3 CALLDATALOAD PUSH1 0x1 PUSH1 0x1 PUSH1 0x40 SHL SUB DUP2 GT ISZERO PUSH3 0x3DFB JUMPI PUSH1 0x0 DUP1 REVERT JUMPDEST PUSH3 0x3E09 DUP6 DUP3 DUP7 ADD PUSH3 0x3C43 JUMP JUMPDEST SWAP1 SWAP7 SWAP1 SWAP6 POP SWAP4 POP POP POP POP JUMP JUMPDEST PUSH1 0x20 DUP1 DUP3 MSTORE DUP3 MLOAD DUP3 DUP3 ADD DUP2 SWAP1 MSTORE PUSH1 0x0 SWAP2 SWAP1 DUP5 DUP3 ADD SWAP1 PUSH1 0x40 DUP6 ADD SWAP1 DUP5 JUMPDEST DUP2 DUP2 LT ISZERO PUSH3 0x3E4F JUMPI DUP4 MLOAD DUP4 MSTORE SWAP3 DUP5 ADD SWAP3 SWAP2 DUP5 ADD SWAP2 PUSH1 0x1 ADD PUSH3 0x3E31 JUMP JUMPDEST POP SWAP1 SWAP7 SWAP6 POP POP POP POP POP POP JUMP JUMPDEST PUSH1 0x0 DUP1 PUSH1 0x0 DUP1 PUSH1 0x0 DUP1 PUSH1 0x0 DUP1 PUSH1 0x0 DUP1 PUSH1 0xC0 DUP12 DUP14 SUB SLT ISZERO PUSH3 0x3E7B JUMPI PUSH1 0x0 DUP1 REVERT JUMPDEST DUP11 CALLDATALOAD PUSH1 0x1 PUSH1 0x1 PUSH1 0x40 SHL SUB DUP1 DUP3 GT ISZERO PUSH3 0x3E93 JUMPI PUSH1 0x0 DUP1 REVERT JUMPDEST PUSH3 0x3EA1 DUP15 DUP4 DUP16 ADD PUSH3 0x3B1F JUMP JUMPDEST SWAP1 SWAP13 POP SWAP11 POP PUSH1 0x20 DUP14 ADD CALLDATALOAD SWAP2 POP DUP1 DUP3 GT ISZERO PUSH3 0x3EBB JUMPI PUSH1 0x0 DUP1 REVERT JUMPDEST PUSH3 0x3EC9 DUP15 DUP4 DUP16 ADD PUSH3 0x3B1F JUMP JUMPDEST SWAP1 SWAP11 POP SWAP9 POP PUSH1 0x40 DUP14 ADD CALLDATALOAD SWAP2 POP DUP1 DUP3 GT ISZERO PUSH3 0x3EE3 JUMPI PUSH1 0x0 DUP1 REVERT JUMPDEST PUSH3 0x3EF1 DUP15 DUP4 DUP16 ADD PUSH3 0x3B1F JUMP JUMPDEST SWAP1 SWAP9 POP SWAP7 POP PUSH1 0x60 DUP14 ADD CALLDATALOAD SWAP6 POP PUSH1 0x80 DUP14 ADD CALLDATALOAD SWAP5 POP PUSH1 0xA0 DUP14 ADD CALLDATALOAD SWAP2 POP DUP1 DUP3 GT ISZERO PUSH3 0x3F19 JUMPI PUSH1 0x0 DUP1 REVERT JUMPDEST POP PUSH3 0x3F28 DUP14 DUP3 DUP15 ADD PUSH3 0x3B1F JUMP JUMPDEST SWAP2 POP DUP1 SWAP4 POP POP DUP1 SWAP2 POP POP SWAP3 SWAP6 SWAP9 SWAP12 SWAP2 SWAP5 SWAP8 SWAP11 POP SWAP3 SWAP6 SWAP9 POP JUMP JUMPDEST PUSH1 0x0 DUP1 PUSH1 0x0 PUSH1 0x40 DUP5 DUP7 SUB SLT ISZERO PUSH3 0x3F57 JUMPI PUSH1 0x0 DUP1 REVERT JUMPDEST DUP4 CALLDATALOAD PUSH3 0x3F64 DUP2 PUSH3 0x38E5 JUMP JUMPDEST SWAP3 POP PUSH1 0x20 DUP5 ADD CALLDATALOAD PUSH1 0x1 PUSH1 0x1 PUSH1 0x40 SHL SUB DUP2 GT ISZERO PUSH3 0x3F80 JUMPI PUSH1 0x0 DUP1 REVERT JUMPDEST PUSH3 0x3F8E DUP7 DUP3 DUP8 ADD PUSH3 0x3C43 JUMP JUMPDEST SWAP5 SWAP8 SWAP1 SWAP7 POP SWAP4 SWAP5 POP POP POP POP JUMP JUMPDEST DUP1 CALLDATALOAD PUSH2 0xFFFF DUP2 AND DUP2 EQ PUSH3 0x3FAE JUMPI PUSH1 0x0 DUP1 REVERT JUMPDEST SWAP2 SWAP1 POP JUMP JUMPDEST PUSH1 0x0 DUP1 PUSH1 0x40 DUP4 DUP6 SUB SLT ISZERO PUSH3 0x3FC7 JUMPI PUSH1 0x0 DUP1 REVERT JUMPDEST PUSH3 0x3FD2 DUP4 PUSH3 0x3F9B JUMP JUMPDEST SWAP2 POP PUSH3 0x3FE2 PUSH1 0x20 DUP5 ADD PUSH3 0x3F9B JUMP JUMPDEST SWAP1 POP SWAP3 POP SWAP3 SWAP1 POP JUMP JUMPDEST DUP1 ISZERO ISZERO DUP2 EQ PUSH3 0x1084 JUMPI PUSH1 0x0 DUP1 REVERT JUMPDEST PUSH1 0x0 DUP1 PUSH1 0x40 DUP4 DUP6 SUB SLT ISZERO PUSH3 0x400E JUMPI PUSH1 0x0 DUP1 REVERT JUMPDEST DUP3 CALLDATALOAD PUSH3 0x401B DUP2 PUSH3 0x38E5 JUMP JUMPDEST SWAP2 POP PUSH1 0x20 DUP4 ADD CALLDATALOAD PUSH3 0x392E DUP2 PUSH3 0x3FEB JUMP JUMPDEST SWAP5 DUP6 MSTORE PUSH1 0x20 DUP6 ADD SWAP4 SWAP1 SWAP4 MSTORE PUSH1 0x40 DUP5 ADD SWAP2 SWAP1 SWAP2 MSTORE PUSH1 0x60 DUP4 ADD MSTORE PUSH1 0x80 DUP3 ADD MSTORE PUSH1 0xA0 ADD SWAP1 JUMP JUMPDEST PUSH1 0x1 PUSH1 0x1 PUSH1 0xA0 SHL SUB SWAP3 DUP4 AND DUP2 MSTORE SWAP2 AND PUSH1 0x20 DUP3 ADD MSTORE PUSH1 0x40 ADD SWAP1 JUMP JUMPDEST PUSH4 0x4E487B71 PUSH1 0xE0 SHL PUSH1 0x0 MSTORE PUSH1 0x11 PUSH1 0x4 MSTORE PUSH1 0x24 PUSH1 0x0 REVERT JUMPDEST DUP2 DUP2 SUB DUP2 DUP2 GT ISZERO PUSH3 0x3685 JUMPI PUSH3 0x3685 PUSH3 0x406A JUMP JUMPDEST PUSH4 0x4E487B71 PUSH1 0xE0 SHL PUSH1 0x0 MSTORE PUSH1 0x32 PUSH1 0x4 MSTORE PUSH1 0x24 PUSH1 0x0 REVERT JUMPDEST PUSH1 0x0 PUSH1 0x20 DUP3 DUP5 SUB SLT ISZERO PUSH3 0x40BF JUMPI PUSH1 0x0 DUP1 REVERT JUMPDEST DUP2 MLOAD PUSH3 0xEAB DUP2 PUSH3 0x38E5 JUMP JUMPDEST PUSH1 0x0 PUSH1 0x20 DUP3 DUP5 SUB SLT ISZERO PUSH3 0x40DF JUMPI PUSH1 0x0 DUP1 REVERT JUMPDEST POP MLOAD SWAP2 SWAP1 POP JUMP JUMPDEST DUP1 DUP3 ADD DUP1 DUP3 GT ISZERO PUSH3 0x3685 JUMPI PUSH3 0x3685 PUSH3 0x406A JUMP JUMPDEST PUSH4 0x4E487B71 PUSH1 0xE0 SHL PUSH1 0x0 MSTORE PUSH1 0x41 PUSH1 0x4 MSTORE PUSH1 0x24 PUSH1 0x0 REVERT JUMPDEST PUSH1 0x1 DUP2 DUP2 SHR SWAP1 DUP3 AND DUP1 PUSH3 0x4127 JUMPI PUSH1 0x7F DUP3 AND SWAP2 POP JUMPDEST PUSH1 0x20 DUP3 LT DUP2 SUB PUSH3 0x4148 JUMPI PUSH4 0x4E487B71 PUSH1 0xE0 SHL PUSH1 0x0 MSTORE PUSH1 0x22 PUSH1 0x4 MSTORE PUSH1 0x24 PUSH1 0x0 REVERT JUMPDEST POP SWAP2 SWAP1 POP JUMP JUMPDEST PUSH1 0x0 PUSH1 0x1 DUP3 ADD PUSH3 0x4163 JUMPI PUSH3 0x4163 PUSH3 0x406A JUMP JUMPDEST POP PUSH1 0x1 ADD SWAP1 JUMP JUMPDEST PUSH1 0x1 PUSH1 0x1 PUSH1 0xA0 SHL SUB SWAP7 DUP8 AND DUP2 MSTORE PUSH1 0x20 DUP2 ADD SWAP6 SWAP1 SWAP6 MSTORE PUSH1 0x40 DUP6 ADD SWAP4 SWAP1 SWAP4 MSTORE PUSH1 0x60 DUP5 ADD SWAP2 SWAP1 SWAP2 MSTORE SWAP1 SWAP3 AND PUSH1 0x80 DUP3 ADD MSTORE PUSH1 0xA0 DUP2 ADD SWAP2 SWAP1 SWAP2 MSTORE PUSH1 0xC0 ADD SWAP1 JUMP JUMPDEST PUSH1 0x0 DUP1 PUSH1 0x0 PUSH1 0x60 DUP5 DUP7 SUB SLT ISZERO PUSH3 0x41BB JUMPI PUSH1 0x0 DUP1 REVERT JUMPDEST DUP4 MLOAD SWAP3 POP PUSH1 0x20 DUP5 ADD MLOAD SWAP2 POP PUSH1 0x40 DUP5 ADD MLOAD SWAP1 POP SWAP3 POP SWAP3 POP SWAP3 JUMP JUMPDEST PUSH1 0x1F DUP3 GT ISZERO PUSH3 0x1DD6 JUMPI PUSH1 0x0 DUP2 DUP2 MSTORE PUSH1 0x20 DUP2 KECCAK256 PUSH1 0x1F DUP6 ADD PUSH1 0x5 SHR DUP2 ADD PUSH1 0x20 DUP7 LT ISZERO PUSH3 0x41FD JUMPI POP DUP1 JUMPDEST PUSH1 0x1F DUP6 ADD PUSH1 0x5 SHR DUP3 ADD SWAP2 POP JUMPDEST DUP2 DUP2 LT ISZERO PUSH3 0x421E JUMPI DUP3 DUP2 SSTORE PUSH1 0x1 ADD PUSH3 0x4209 JUMP JUMPDEST POP POP POP POP POP POP JUMP JUMPDEST PUSH1 0x0 NOT PUSH1 0x3 DUP4 SWAP1 SHL SHR NOT AND PUSH1 0x1 SWAP2 SWAP1 SWAP2 SHL OR SWAP1 JUMP JUMPDEST PUSH1 0x1 PUSH1 0x1 PUSH1 0x40 SHL SUB DUP4 GT ISZERO PUSH3 0x4255 JUMPI PUSH3 0x4255 PUSH3 0x40FC JUMP JUMPDEST PUSH3 0x426D DUP4 PUSH3 0x4266 DUP4 SLOAD PUSH3 0x4112 JUMP JUMPDEST DUP4 PUSH3 0x41D4 JUMP JUMPDEST PUSH1 0x0 PUSH1 0x1F DUP5 GT PUSH1 0x1 DUP2 EQ PUSH3 0x42A0 JUMPI PUSH1 0x0 DUP6 ISZERO PUSH3 0x428B JUMPI POP DUP4 DUP3 ADD CALLDATALOAD JUMPDEST PUSH3 0x4297 DUP7 DUP3 PUSH3 0x4226 JUMP JUMPDEST DUP5 SSTORE POP PUSH3 0x1A21 JUMP JUMPDEST PUSH1 0x0 DUP4 DUP2 MSTORE PUSH1 0x20 SWAP1 KECCAK256 PUSH1 0x1F NOT DUP7 AND SWAP1 DUP4 JUMPDEST DUP3 DUP2 LT ISZERO PUSH3 0x42D3 JUMPI DUP7 DUP6 ADD CALLDATALOAD DUP3 SSTORE PUSH1 0x20 SWAP5 DUP6 ADD SWAP5 PUSH1 0x1 SWAP1 SWAP3 ADD SWAP2 ADD PUSH3 0x42B1 JUMP JUMPDEST POP DUP7 DUP3 LT ISZERO PUSH3 0x42F1 JUMPI PUSH1 0x0 NOT PUSH1 0xF8 DUP9 PUSH1 0x3 SHL AND SHR NOT DUP5 DUP8 ADD CALLDATALOAD AND DUP2 SSTORE JUMPDEST POP POP PUSH1 0x1 DUP6 PUSH1 0x1 SHL ADD DUP4 SSTORE POP POP POP POP POP JUMP JUMPDEST DUP2 DUP4 MSTORE DUP2 DUP2 PUSH1 0x20 DUP6 ADD CALLDATACOPY POP PUSH1 0x0 DUP3 DUP3 ADD PUSH1 0x20 SWAP1 DUP2 ADD SWAP2 SWAP1 SWAP2 MSTORE PUSH1 0x1F SWAP1 SWAP2 ADD PUSH1 0x1F NOT AND SWAP1 SWAP2 ADD ADD SWAP1 JUMP JUMPDEST PUSH1 0x40 DUP2 MSTORE PUSH1 0x0 PUSH3 0x4342 PUSH1 0x40 DUP4 ADD DUP7 DUP9 PUSH3 0x4303 JUMP JUMPDEST DUP3 DUP2 SUB PUSH1 0x20 DUP5 ADD MSTORE PUSH3 0x37AA DUP2 DUP6 DUP8 PUSH3 0x4303 JUMP JUMPDEST DUP1 DUP3 MUL DUP2 ISZERO DUP3 DUP3 DIV DUP5 EQ OR PUSH3 0x3685 JUMPI PUSH3 0x3685 PUSH3 0x406A JUMP JUMPDEST PUSH1 0x0 DUP3 PUSH3 0x438F JUMPI PUSH4 0x4E487B71 PUSH1 0xE0 SHL PUSH1 0x0 MSTORE PUSH1 0x12 PUSH1 0x4 MSTORE PUSH1 0x24 PUSH1 0x0 REVERT JUMPDEST POP DIV SWAP1 JUMP JUMPDEST PUSH1 0x0 DUP1 PUSH1 0x40 DUP4 DUP6 SUB SLT ISZERO PUSH3 0x43A8 JUMPI PUSH1 0x0 DUP1 REVERT JUMPDEST POP POP DUP1 MLOAD PUSH1 0x20 SWAP1 SWAP2 ADD MLOAD SWAP1 SWAP3 SWAP1 SWAP2 POP JUMP JUMPDEST PUSH1 0xA0 DUP2 MSTORE PUSH1 0x0 PUSH3 0x43CF PUSH1 0xA0 DUP4 ADD DUP11 DUP13 PUSH3 0x4303 JUMP JUMPDEST DUP3 DUP2 SUB PUSH1 0x20 DUP5 ADD MSTORE PUSH3 0x43E4 DUP2 DUP10 DUP12 PUSH3 0x4303 JUMP JUMPDEST PUSH1 0x40 DUP5 ADD DUP9 SWAP1 MSTORE PUSH1 0x1 PUSH1 0x1 PUSH1 0xA0 SHL SUB DUP8 AND PUSH1 0x60 DUP6 ADD MSTORE DUP4 DUP2 SUB PUSH1 0x80 DUP6 ADD MSTORE SWAP1 POP PUSH3 0x4411 DUP2 DUP6 DUP8 PUSH3 0x4303 JUMP JUMPDEST SWAP12 SWAP11 POP POP POP POP POP POP POP POP POP POP POP JUMP JUMPDEST DUP2 MLOAD PUSH1 0x1 PUSH1 0x1 PUSH1 0x40 SHL SUB DUP2 GT ISZERO PUSH3 0x443C JUMPI PUSH3 0x443C PUSH3 0x40FC JUMP JUMPDEST PUSH3 0x4454 DUP2 PUSH3 0x444D DUP5 SLOAD PUSH3 0x4112 JUMP JUMPDEST DUP5 PUSH3 0x41D4 JUMP JUMPDEST PUSH1 0x20 DUP1 PUSH1 0x1F DUP4 GT PUSH1 0x1 DUP2 EQ PUSH3 0x4488 JUMPI PUSH1 0x0 DUP5 ISZERO PUSH3 0x4473 JUMPI POP DUP6 DUP4 ADD MLOAD JUMPDEST PUSH3 0x447F DUP6 DUP3 PUSH3 0x4226 JUMP JUMPDEST DUP7 SSTORE POP PUSH3 0x421E JUMP JUMPDEST PUSH1 0x0 DUP6 DUP2 MSTORE PUSH1 0x20 DUP2 KECCAK256 PUSH1 0x1F NOT DUP7 AND SWAP2 JUMPDEST DUP3 DUP2 LT ISZERO PUSH3 0x44B9 JUMPI DUP9 DUP7 ADD MLOAD DUP3 SSTORE SWAP5 DUP5 ADD SWAP5 PUSH1 0x1 SWAP1 SWAP2 ADD SWAP1 DUP5 ADD PUSH3 0x4498 JUMP JUMPDEST POP DUP6 DUP3 LT ISZERO PUSH3 0x44D8 JUMPI DUP8 DUP6 ADD MLOAD PUSH1 0x0 NOT PUSH1 0x3 DUP9 SWAP1 SHL PUSH1 0xF8 AND SHR NOT AND DUP2 SSTORE JUMPDEST POP POP POP POP POP PUSH1 0x1 SWAP1 DUP2 SHL ADD SWAP1 SSTORE POP JUMP JUMPDEST DUP6 DUP2 MSTORE PUSH1 0x60 PUSH1 0x20 DUP3 ADD MSTORE PUSH1 0x0 PUSH3 0x4504 PUSH1 0x60 DUP4 ADD DUP7 DUP9 PUSH3 0x4303 JUMP JUMPDEST DUP3 DUP2 SUB PUSH1 0x40 DUP5 ADD MSTORE PUSH3 0x3C37 DUP2 DUP6 DUP8 PUSH3 0x4303 JUMP JUMPDEST PUSH2 0xFFFF DUP2 DUP2 AND DUP4 DUP3 AND ADD SWAP1 DUP1 DUP3 GT ISZERO PUSH3 0x2B32 JUMPI PUSH3 0x2B32 PUSH3 0x406A JUMP JUMPDEST PUSH1 0x1 PUSH1 0x1 PUSH1 0xA0 SHL SUB SWAP3 SWAP1 SWAP3 AND DUP3 MSTORE PUSH1 0x20 DUP3 ADD MSTORE PUSH1 0x40 ADD SWAP1 JUMP JUMPDEST PUSH1 0x0 PUSH1 0x20 DUP3 DUP5 SUB SLT ISZERO PUSH3 0x4563 JUMPI PUSH1 0x0 DUP1 REVERT JUMPDEST DUP2 MLOAD PUSH3 0xEAB DUP2 PUSH3 0x3FEB JUMP JUMPDEST PUSH1 0x0 DUP3 MLOAD PUSH3 0x4584 DUP2 DUP5 PUSH1 0x20 DUP8 ADD PUSH3 0x39C5 JUMP JUMPDEST SWAP2 SWAP1 SWAP2 ADD SWAP3 SWAP2 POP POP JUMP JUMPDEST PUSH1 0x20 DUP2 MSTORE PUSH1 0x0 PUSH3 0xEAB PUSH1 0x20 DUP4 ADD DUP5 PUSH3 0x39EB JUMP INVALID PUSH2 0x160 PUSH1 0x40 MSTORE CALLVALUE DUP1 ISZERO PUSH3 0x12 JUMPI PUSH1 0x0 DUP1 REVERT JUMPDEST POP PUSH1 0x40 MLOAD PUSH3 0x1C01 CODESIZE SUB DUP1 PUSH3 0x1C01 DUP4 CODECOPY DUP2 ADD PUSH1 0x40 DUP2 SWAP1 MSTORE PUSH3 0x35 SWAP2 PUSH3 0x526 JUMP JUMPDEST PUSH1 0x40 DUP1 MLOAD DUP1 DUP3 ADD SWAP1 SWAP2 MSTORE PUSH1 0x1 DUP2 MSTORE PUSH1 0x31 PUSH1 0xF8 SHL PUSH1 0x20 DUP3 ADD MSTORE DUP6 SWAP1 DUP2 SWAP1 DUP2 DUP8 PUSH1 0x3 PUSH3 0x61 DUP4 DUP3 PUSH3 0x671 JUMP JUMPDEST POP PUSH1 0x4 PUSH3 0x70 DUP3 DUP3 PUSH3 0x671 JUMP JUMPDEST POP PUSH3 0x82 SWAP2 POP DUP4 SWAP1 POP PUSH1 0x5 PUSH3 0x1E2 JUMP JUMPDEST PUSH2 0x120 MSTORE PUSH3 0x93 DUP2 PUSH1 0x6 PUSH3 0x1E2 JUMP JUMPDEST PUSH2 0x140 MSTORE DUP2 MLOAD PUSH1 0x20 DUP1 DUP5 ADD SWAP2 SWAP1 SWAP2 KECCAK256 PUSH1 0xE0 MSTORE DUP2 MLOAD SWAP1 DUP3 ADD KECCAK256 PUSH2 0x100 MSTORE CHAINID PUSH1 0xA0 MSTORE PUSH3 0x121 PUSH1 0xE0 MLOAD PUSH2 0x100 MLOAD PUSH1 0x40 DUP1 MLOAD PUSH32 0x8B73C3C69BB8FE3D512ECC4CF759CC79239F7B179B0FFACAA9A75D522B39400F PUSH1 0x20 DUP3 ADD MSTORE SWAP1 DUP2 ADD SWAP3 SWAP1 SWAP3 MSTORE PUSH1 0x60 DUP3 ADD MSTORE CHAINID PUSH1 0x80 DUP3 ADD MSTORE ADDRESS PUSH1 0xA0 DUP3 ADD MSTORE PUSH1 0x0 SWAP1 PUSH1 0xC0 ADD PUSH1 0x40 MLOAD PUSH1 0x20 DUP2 DUP4 SUB SUB DUP2 MSTORE SWAP1 PUSH1 0x40 MSTORE DUP1 MLOAD SWAP1 PUSH1 0x20 ADD KECCAK256 SWAP1 POP SWAP1 JUMP JUMPDEST PUSH1 0x80 MSTORE POP POP ADDRESS PUSH1 0xC0 MSTORE POP PUSH3 0x136 CALLER PUSH3 0x21B JUMP JUMPDEST PUSH1 0x1 PUSH1 0x1 PUSH1 0xA0 SHL SUB DUP3 AND PUSH3 0x15E JUMPI PUSH1 0x40 MLOAD PUSH4 0xD92E233D PUSH1 0xE0 SHL DUP2 MSTORE PUSH1 0x4 ADD PUSH1 0x40 MLOAD DUP1 SWAP2 SUB SWAP1 REVERT JUMPDEST PUSH1 0x3 DUP6 MLOAD LT DUP1 PUSH3 0x170 JUMPI POP PUSH1 0x3 DUP5 MLOAD LT JUMPDEST ISZERO PUSH3 0x18F JUMPI PUSH1 0x40 MLOAD PUSH4 0x94322419 PUSH1 0xE0 SHL DUP2 MSTORE PUSH1 0x4 ADD PUSH1 0x40 MLOAD DUP1 SWAP2 SUB SWAP1 REVERT JUMPDEST DUP3 PUSH1 0x0 SUB PUSH3 0x1B1 JUMPI PUSH1 0x40 MLOAD PUSH4 0xC16F3A93 PUSH1 0xE0 SHL DUP2 MSTORE PUSH1 0x4 ADD PUSH1 0x40 MLOAD DUP1 SWAP2 SUB SWAP1 REVERT JUMPDEST PUSH1 0xA PUSH3 0x1BF DUP3 DUP3 PUSH3 0x671 JUMP JUMPDEST POP PUSH3 0x1CC CALLER DUP5 PUSH3 0x26D JUMP JUMPDEST PUSH3 0x1D7 DUP3 PUSH3 0x334 JUMP JUMPDEST POP POP POP POP POP PUSH3 0x7B9 JUMP JUMPDEST PUSH1 0x0 PUSH1 0x20 DUP4 MLOAD LT ISZERO PUSH3 0x202 JUMPI PUSH3 0x1FA DUP4 PUSH3 0x3B3 JUMP JUMPDEST SWAP1 POP PUSH3 0x215 JUMP JUMPDEST DUP2 PUSH3 0x20F DUP5 DUP3 PUSH3 0x671 JUMP JUMPDEST POP PUSH1 0xFF SWAP1 POP JUMPDEST SWAP3 SWAP2 POP POP JUMP JUMPDEST PUSH1 0x9 DUP1 SLOAD PUSH1 0x1 PUSH1 0x1 PUSH1 0xA0 SHL SUB DUP4 DUP2 AND PUSH1 0x1 PUSH1 0x1 PUSH1 0xA0 SHL SUB NOT DUP4 AND DUP2 OR SWAP1 SWAP4 SSTORE PUSH1 0x40 MLOAD SWAP2 AND SWAP2 SWAP1 DUP3 SWAP1 PUSH32 0x8BE0079C531659141344CD1FD0A4F28419497F9722A3DAAFE3B4186F6B6457E0 SWAP1 PUSH1 0x0 SWAP1 LOG3 POP POP JUMP JUMPDEST PUSH1 0x1 PUSH1 0x1 PUSH1 0xA0 SHL SUB DUP3 AND PUSH3 0x2C9 JUMPI PUSH1 0x40 MLOAD PUSH3 0x461BCD PUSH1 0xE5 SHL DUP2 MSTORE PUSH1 0x20 PUSH1 0x4 DUP3 ADD MSTORE PUSH1 0x1F PUSH1 0x24 DUP3 ADD MSTORE PUSH32 0x45524332303A206D696E7420746F20746865207A65726F206164647265737300 PUSH1 0x44 DUP3 ADD MSTORE PUSH1 0x64 ADD JUMPDEST PUSH1 0x40 MLOAD DUP1 SWAP2 SUB SWAP1 REVERT JUMPDEST DUP1 PUSH1 0x2 PUSH1 0x0 DUP3 DUP3 SLOAD PUSH3 0x2DD SWAP2 SWAP1 PUSH3 0x73D JUMP JUMPDEST SWAP1 SWAP2 SSTORE POP POP PUSH1 0x1 PUSH1 0x1 PUSH1 0xA0 SHL SUB DUP3 AND PUSH1 0x0 DUP2 DUP2 MSTORE PUSH1 0x20 DUP2 DUP2 MSTORE PUSH1 0x40 DUP1 DUP4 KECCAK256 DUP1 SLOAD DUP7 ADD SWAP1 SSTORE MLOAD DUP5 DUP2 MSTORE PUSH32 0xDDF252AD1BE2C89B69C2B068FC378DAA952BA7F163C4A11628F55A4DF523B3EF SWAP2 ADD PUSH1 0x40 MLOAD DUP1 SWAP2 SUB SWAP1 LOG3 POP POP JUMP JUMPDEST PUSH3 0x33E PUSH3 0x3FB JUMP JUMPDEST PUSH1 0x1 PUSH1 0x1 PUSH1 0xA0 SHL SUB DUP2 AND PUSH3 0x3A5 JUMPI PUSH1 0x40 MLOAD PUSH3 0x461BCD PUSH1 0xE5 SHL DUP2 MSTORE PUSH1 0x20 PUSH1 0x4 DUP3 ADD MSTORE PUSH1 0x26 PUSH1 0x24 DUP3 ADD MSTORE PUSH32 0x4F776E61626C653A206E6577206F776E657220697320746865207A65726F2061 PUSH1 0x44 DUP3 ADD MSTORE PUSH6 0x646472657373 PUSH1 0xD0 SHL PUSH1 0x64 DUP3 ADD MSTORE PUSH1 0x84 ADD PUSH3 0x2C0 JUMP JUMPDEST PUSH3 0x3B0 DUP2 PUSH3 0x21B JUMP JUMPDEST POP JUMP JUMPDEST PUSH1 0x0 DUP1 DUP3 SWAP1 POP PUSH1 0x1F DUP2 MLOAD GT ISZERO PUSH3 0x3E1 JUMPI DUP3 PUSH1 0x40 MLOAD PUSH4 0x305A27A9 PUSH1 0xE0 SHL DUP2 MSTORE PUSH1 0x4 ADD PUSH3 0x2C0 SWAP2 SWAP1 PUSH3 0x75F JUMP JUMPDEST DUP1 MLOAD PUSH3 0x3EE DUP3 PUSH3 0x794 JUMP JUMPDEST OR SWAP4 SWAP3 POP POP POP JUMP JUMPDEST POP POP POP JUMP JUMPDEST PUSH1 0x9 SLOAD PUSH1 0x1 PUSH1 0x1 PUSH1 0xA0 SHL SUB AND CALLER EQ PUSH3 0x457 JUMPI PUSH1 0x40 MLOAD PUSH3 0x461BCD PUSH1 0xE5 SHL DUP2 MSTORE PUSH1 0x20 PUSH1 0x4 DUP3 ADD DUP2 SWAP1 MSTORE PUSH1 0x24 DUP3 ADD MSTORE PUSH32 0x4F776E61626C653A2063616C6C6572206973206E6F7420746865206F776E6572 PUSH1 0x44 DUP3 ADD MSTORE PUSH1 0x64 ADD PUSH3 0x2C0 JUMP JUMPDEST JUMP JUMPDEST PUSH4 0x4E487B71 PUSH1 0xE0 SHL PUSH1 0x0 MSTORE PUSH1 0x41 PUSH1 0x4 MSTORE PUSH1 0x24 PUSH1 0x0 REVERT JUMPDEST PUSH1 0x0 JUMPDEST DUP4 DUP2 LT ISZERO PUSH3 0x48C JUMPI DUP2 DUP2 ADD MLOAD DUP4 DUP3 ADD MSTORE PUSH1 0x20 ADD PUSH3 0x472 JUMP JUMPDEST POP POP PUSH1 0x0 SWAP2 ADD MSTORE JUMP JUMPDEST PUSH1 0x0 DUP3 PUSH1 0x1F DUP4 ADD SLT PUSH3 0x4A7 JUMPI PUSH1 0x0 DUP1 REVERT JUMPDEST DUP2 MLOAD PUSH1 0x1 PUSH1 0x1 PUSH1 0x40 SHL SUB DUP1 DUP3 GT ISZERO PUSH3 0x4C4 JUMPI PUSH3 0x4C4 PUSH3 0x459 JUMP JUMPDEST PUSH1 0x40 MLOAD PUSH1 0x1F DUP4 ADD PUSH1 0x1F NOT SWAP1 DUP2 AND PUSH1 0x3F ADD AND DUP2 ADD SWAP1 DUP3 DUP3 GT DUP2 DUP4 LT OR ISZERO PUSH3 0x4EF JUMPI PUSH3 0x4EF PUSH3 0x459 JUMP JUMPDEST DUP2 PUSH1 0x40 MSTORE DUP4 DUP2 MSTORE DUP7 PUSH1 0x20 DUP6 DUP9 ADD ADD GT ISZERO PUSH3 0x509 JUMPI PUSH1 0x0 DUP1 REVERT JUMPDEST PUSH3 0x51C DUP5 PUSH1 0x20 DUP4 ADD PUSH1 0x20 DUP10 ADD PUSH3 0x46F JUMP JUMPDEST SWAP7 SWAP6 POP POP POP POP POP POP JUMP JUMPDEST PUSH1 0x0 DUP1 PUSH1 0x0 DUP1 PUSH1 0x0 PUSH1 0xA0 DUP7 DUP9 SUB SLT ISZERO PUSH3 0x53F JUMPI PUSH1 0x0 DUP1 REVERT JUMPDEST DUP6 MLOAD PUSH1 0x1 PUSH1 0x1 PUSH1 0x40 SHL SUB DUP1 DUP3 GT ISZERO PUSH3 0x557 JUMPI PUSH1 0x0 DUP1 REVERT JUMPDEST PUSH3 0x565 DUP10 DUP4 DUP11 ADD PUSH3 0x495 JUMP JUMPDEST SWAP7 POP PUSH1 0x20 DUP9 ADD MLOAD SWAP2 POP DUP1 DUP3 GT ISZERO PUSH3 0x57C JUMPI PUSH1 0x0 DUP1 REVERT JUMPDEST PUSH3 0x58A DUP10 DUP4 DUP11 ADD PUSH3 0x495 JUMP JUMPDEST PUSH1 0x40 DUP10 ADD MLOAD PUSH1 0x60 DUP11 ADD MLOAD SWAP2 SWAP8 POP SWAP6 POP SWAP2 POP PUSH1 0x1 PUSH1 0x1 PUSH1 0xA0 SHL SUB DUP3 AND DUP3 EQ PUSH3 0x5B1 JUMPI PUSH1 0x0 DUP1 REVERT JUMPDEST PUSH1 0x80 DUP9 ADD MLOAD SWAP2 SWAP4 POP DUP1 DUP3 GT ISZERO PUSH3 0x5C7 JUMPI PUSH1 0x0 DUP1 REVERT JUMPDEST POP PUSH3 0x5D6 DUP9 DUP3 DUP10 ADD PUSH3 0x495 JUMP JUMPDEST SWAP2 POP POP SWAP3 SWAP6 POP SWAP3 SWAP6 SWAP1 SWAP4 POP JUMP JUMPDEST PUSH1 0x1 DUP2 DUP2 SHR SWAP1 DUP3 AND DUP1 PUSH3 0x5F8 JUMPI PUSH1 0x7F DUP3 AND SWAP2 POP JUMPDEST PUSH1 0x20 DUP3 LT DUP2 SUB PUSH3 0x619 JUMPI PUSH4 0x4E487B71 PUSH1 0xE0 SHL PUSH1 0x0 MSTORE PUSH1 0x22 PUSH1 0x4 MSTORE PUSH1 0x24 PUSH1 0x0 REVERT JUMPDEST POP SWAP2 SWAP1 POP JUMP JUMPDEST PUSH1 0x1F DUP3 GT ISZERO PUSH3 0x3F6 JUMPI PUSH1 0x0 DUP2 DUP2 MSTORE PUSH1 0x20 DUP2 KECCAK256 PUSH1 0x1F DUP6 ADD PUSH1 0x5 SHR DUP2 ADD PUSH1 0x20 DUP7 LT ISZERO PUSH3 0x648 JUMPI POP DUP1 JUMPDEST PUSH1 0x1F DUP6 ADD PUSH1 0x5 SHR DUP3 ADD SWAP2 POP JUMPDEST DUP2 DUP2 LT ISZERO PUSH3 0x669 JUMPI DUP3 DUP2 SSTORE PUSH1 0x1 ADD PUSH3 0x654 JUMP JUMPDEST POP POP POP POP POP POP JUMP JUMPDEST DUP2 MLOAD PUSH1 0x1 PUSH1 0x1 PUSH1 0x40 SHL SUB DUP2 GT ISZERO PUSH3 0x68D JUMPI PUSH3 0x68D PUSH3 0x459 JUMP JUMPDEST PUSH3 0x6A5 DUP2 PUSH3 0x69E DUP5 SLOAD PUSH3 0x5E3 JUMP JUMPDEST DUP5 PUSH3 0x61F JUMP JUMPDEST PUSH1 0x20 DUP1 PUSH1 0x1F DUP4 GT PUSH1 0x1 DUP2 EQ PUSH3 0x6DD JUMPI PUSH1 0x0 DUP5 ISZERO PUSH3 0x6C4 JUMPI POP DUP6 DUP4 ADD MLOAD JUMPDEST PUSH1 0x0 NOT PUSH1 0x3 DUP7 SWAP1 SHL SHR NOT AND PUSH1 0x1 DUP6 SWAP1 SHL OR DUP6 SSTORE PUSH3 0x669 JUMP JUMPDEST PUSH1 0x0 DUP6 DUP2 MSTORE PUSH1 0x20 DUP2 KECCAK256 PUSH1 0x1F NOT DUP7 AND SWAP2 JUMPDEST DUP3 DUP2 LT ISZERO PUSH3 0x70E JUMPI DUP9 DUP7 ADD MLOAD DUP3 SSTORE SWAP5 DUP5 ADD SWAP5 PUSH1 0x1 SWAP1 SWAP2 ADD SWAP1 DUP5 ADD PUSH3 0x6ED JUMP JUMPDEST POP DUP6 DUP3 LT ISZERO PUSH3 0x72D JUMPI DUP8 DUP6 ADD MLOAD PUSH1 0x0 NOT PUSH1 0x3 DUP9 SWAP1 SHL PUSH1 0xF8 AND SHR NOT AND DUP2 SSTORE JUMPDEST POP POP POP POP POP PUSH1 0x1 SWAP1 DUP2 SHL ADD SWAP1 SSTORE POP JUMP JUMPDEST DUP1 DUP3 ADD DUP1 DUP3 GT ISZERO PUSH3 0x215 JUMPI PUSH4 0x4E487B71 PUSH1 0xE0 SHL PUSH1 0x0 MSTORE PUSH1 0x11 PUSH1 0x4 MSTORE PUSH1 0x24 PUSH1 0x0 REVERT JUMPDEST PUSH1 0x20 DUP2 MSTORE PUSH1 0x0 DUP3 MLOAD DUP1 PUSH1 0x20 DUP5 ADD MSTORE PUSH3 0x780 DUP2 PUSH1 0x40 DUP6 ADD PUSH1 0x20 DUP8 ADD PUSH3 0x46F JUMP JUMPDEST PUSH1 0x1F ADD PUSH1 0x1F NOT AND SWAP2 SWAP1 SWAP2 ADD PUSH1 0x40 ADD SWAP3 SWAP2 POP POP JUMP JUMPDEST DUP1 MLOAD PUSH1 0x20 DUP1 DUP4 ADD MLOAD SWAP2 SWAP1 DUP2 LT ISZERO PUSH3 0x619 JUMPI PUSH1 0x0 NOT PUSH1 0x20 SWAP2 SWAP1 SWAP2 SUB PUSH1 0x3 SHL SHL AND SWAP2 SWAP1 POP JUMP JUMPDEST PUSH1 0x80 MLOAD PUSH1 0xA0 MLOAD PUSH1 0xC0 MLOAD PUSH1 0xE0 MLOAD PUSH2 0x100 MLOAD PUSH2 0x120 MLOAD PUSH2 0x140 MLOAD PUSH2 0x13ED PUSH3 0x814 PUSH1 0x0 CODECOPY PUSH1 0x0 PUSH2 0x41D ADD MSTORE PUSH1 0x0 PUSH2 0x3F2 ADD MSTORE PUSH1 0x0 PUSH2 0xBCB ADD MSTORE PUSH1 0x0 PUSH2 0xBA3 ADD MSTORE PUSH1 0x0 PUSH2 0xAFE ADD MSTORE PUSH1 0x0 PUSH2 0xB28 ADD MSTORE PUSH1 0x0 PUSH2 0xB52 ADD MSTORE PUSH2 0x13ED PUSH1 0x0 RETURN INVALID PUSH1 0x80 PUSH1 0x40 MSTORE CALLVALUE DUP1 ISZERO PUSH2 0x10 JUMPI PUSH1 0x0 DUP1 REVERT JUMPDEST POP PUSH1 0x4 CALLDATASIZE LT PUSH2 0xFC JUMPI PUSH1 0x0 CALLDATALOAD PUSH1 0xE0 SHR DUP1 PUSH4 0x6FDDE03 EQ PUSH2 0x101 JUMPI DUP1 PUSH4 0x95EA7B3 EQ PUSH2 0x11F JUMPI DUP1 PUSH4 0x18160DDD EQ PUSH2 0x142 JUMPI DUP1 PUSH4 0x23B872DD EQ PUSH2 0x154 JUMPI DUP1 PUSH4 0x313CE567 EQ PUSH2 0x167 JUMPI DUP1 PUSH4 0x3644E515 EQ PUSH2 0x176 JUMPI DUP1 PUSH4 0x39509351 EQ PUSH2 0x17E JUMPI DUP1 PUSH4 0x3C130D90 EQ PUSH2 0x191 JUMPI DUP1 PUSH4 0x70A08231 EQ PUSH2 0x199 JUMPI DUP1 PUSH4 0x715018A6 EQ PUSH2 0x1C2 JUMPI DUP1 PUSH4 0x7ECEBE00 EQ PUSH2 0x1CC JUMPI DUP1 PUSH4 0x84B0196E EQ PUSH2 0x1DF JUMPI DUP1 PUSH4 0x8DA5CB5B EQ PUSH2 0x1FA JUMPI DUP1 PUSH4 0x95D89B41 EQ PUSH2 0x21A JUMPI DUP1 PUSH4 0xA457C2D7 EQ PUSH2 0x222 JUMPI DUP1 PUSH4 0xA9059CBB EQ PUSH2 0x235 JUMPI DUP1 PUSH4 0xC623674F EQ PUSH2 0x248 JUMPI DUP1 PUSH4 0xD505ACCF EQ PUSH2 0x250 JUMPI DUP1 PUSH4 0xDD62ED3E EQ PUSH2 0x263 JUMPI DUP1 PUSH4 0xF2FDE38B EQ PUSH2 0x276 JUMPI JUMPDEST PUSH1 0x0 DUP1 REVERT JUMPDEST PUSH2 0x109 PUSH2 0x289 JUMP JUMPDEST PUSH1 0x40 MLOAD PUSH2 0x116 SWAP2 SWAP1 PUSH2 0x10A1 JUMP JUMPDEST PUSH1 0x40 MLOAD DUP1 SWAP2 SUB SWAP1 RETURN JUMPDEST PUSH2 0x132 PUSH2 0x12D CALLDATASIZE PUSH1 0x4 PUSH2 0x10D7 JUMP JUMPDEST PUSH2 0x31B JUMP JUMPDEST PUSH1 0x40 MLOAD SWAP1 ISZERO ISZERO DUP2 MSTORE PUSH1 0x20 ADD PUSH2 0x116 JUMP JUMPDEST PUSH1 0x2 SLOAD JUMPDEST PUSH1 0x40 MLOAD SWAP1 DUP2 MSTORE PUSH1 0x20 ADD PUSH2 0x116 JUMP JUMPDEST PUSH2 0x132 PUSH2 0x162 CALLDATASIZE PUSH1 0x4 PUSH2 0x1101 JUMP JUMPDEST PUSH2 0x335 JUMP JUMPDEST PUSH1 0x40 MLOAD PUSH1 0x12 DUP2 MSTORE PUSH1 0x20 ADD PUSH2 0x116 JUMP JUMPDEST PUSH2 0x146 PUSH2 0x359 JUMP JUMPDEST PUSH2 0x132 PUSH2 0x18C CALLDATASIZE PUSH1 0x4 PUSH2 0x10D7 JUMP JUMPDEST PUSH2 0x368 JUMP JUMPDEST PUSH2 0x109 PUSH2 0x38A JUMP JUMPDEST PUSH2 0x146 PUSH2 0x1A7 CALLDATASIZE PUSH1 0x4 PUSH2 0x113D JUMP JUMPDEST PUSH1 0x1 PUSH1 0x1 PUSH1 0xA0 SHL SUB AND PUSH1 0x0 SWAP1 DUP2 MSTORE PUSH1 0x20 DUP2 SWAP1 MSTORE PUSH1 0x40 SWAP1 KECCAK256 SLOAD SWAP1 JUMP JUMPDEST PUSH2 0x1CA PUSH2 0x3B2 JUMP JUMPDEST STOP JUMPDEST PUSH2 0x146 PUSH2 0x1DA CALLDATASIZE PUSH1 0x4 PUSH2 0x113D JUMP JUMPDEST PUSH2 0x3C6 JUMP JUMPDEST PUSH2 0x1E7 PUSH2 0x3E4 JUMP JUMPDEST PUSH1 0x40 MLOAD PUSH2 0x116 SWAP8 SWAP7 SWAP6 SWAP5 SWAP4 SWAP3 SWAP2 SWAP1 PUSH2 0x1158 JUMP JUMPDEST PUSH2 0x202 PUSH2 0x46D JUMP JUMPDEST PUSH1 0x40 MLOAD PUSH1 0x1 PUSH1 0x1 PUSH1 0xA0 SHL SUB SWAP1 SWAP2 AND DUP2 MSTORE PUSH1 0x20 ADD PUSH2 0x116 JUMP JUMPDEST PUSH2 0x109 PUSH2 0x47C JUMP JUMPDEST PUSH2 0x132 PUSH2 0x230 CALLDATASIZE PUSH1 0x4 PUSH2 0x10D7 JUMP JUMPDEST PUSH2 0x48B JUMP JUMPDEST PUSH2 0x132 PUSH2 0x243 CALLDATASIZE PUSH1 0x4 PUSH2 0x10D7 JUMP JUMPDEST PUSH2 0x50B JUMP JUMPDEST PUSH2 0x109 PUSH2 0x519 JUMP JUMPDEST PUSH2 0x1CA PUSH2 0x25E CALLDATASIZE PUSH1 0x4 PUSH2 0x11EE JUMP JUMPDEST PUSH2 0x5A7 JUMP JUMPDEST PUSH2 0x146 PUSH2 0x271 CALLDATASIZE PUSH1 0x4 PUSH2 0x1261 JUMP JUMPDEST PUSH2 0x70B JUMP JUMPDEST PUSH2 0x1CA PUSH2 0x284 CALLDATASIZE PUSH1 0x4 PUSH2 0x113D JUMP JUMPDEST PUSH2 0x736 JUMP JUMPDEST PUSH1 0x60 PUSH1 0x3 DUP1 SLOAD PUSH2 0x298 SWAP1 PUSH2 0x1294 JUMP JUMPDEST DUP1 PUSH1 0x1F ADD PUSH1 0x20 DUP1 SWAP2 DIV MUL PUSH1 0x20 ADD PUSH1 0x40 MLOAD SWAP1 DUP2 ADD PUSH1 0x40 MSTORE DUP1 SWAP3 SWAP2 SWAP1 DUP2 DUP2 MSTORE PUSH1 0x20 ADD DUP3 DUP1 SLOAD PUSH2 0x2C4 SWAP1 PUSH2 0x1294 JUMP JUMPDEST DUP1 ISZERO PUSH2 0x311 JUMPI DUP1 PUSH1 0x1F LT PUSH2 0x2E6 JUMPI PUSH2 0x100 DUP1 DUP4 SLOAD DIV MUL DUP4 MSTORE SWAP2 PUSH1 0x20 ADD SWAP2 PUSH2 0x311 JUMP JUMPDEST DUP3 ADD SWAP2 SWAP1 PUSH1 0x0 MSTORE PUSH1 0x20 PUSH1 0x0 KECCAK256 SWAP1 JUMPDEST DUP2 SLOAD DUP2 MSTORE SWAP1 PUSH1 0x1 ADD SWAP1 PUSH1 0x20 ADD DUP1 DUP4 GT PUSH2 0x2F4 JUMPI DUP3 SWAP1 SUB PUSH1 0x1F AND DUP3 ADD SWAP2 JUMPDEST POP POP POP POP POP SWAP1 POP SWAP1 JUMP JUMPDEST PUSH1 0x0 CALLER PUSH2 0x329 DUP2 DUP6 DUP6 PUSH2 0x7AF JUMP JUMPDEST PUSH1 0x1 SWAP2 POP POP JUMPDEST SWAP3 SWAP2 POP POP JUMP JUMPDEST PUSH1 0x0 CALLER PUSH2 0x343 DUP6 DUP3 DUP6 PUSH2 0x8D3 JUMP JUMPDEST PUSH2 0x34E DUP6 DUP6 DUP6 PUSH2 0x94D JUMP JUMPDEST POP PUSH1 0x1 SWAP5 SWAP4 POP POP POP POP JUMP JUMPDEST PUSH1 0x0 PUSH2 0x363 PUSH2 0xAF1 JUMP JUMPDEST SWAP1 POP SWAP1 JUMP JUMPDEST PUSH1 0x0 CALLER PUSH2 0x329 DUP2 DUP6 DUP6 PUSH2 0x37B DUP4 DUP4 PUSH2 0x70B JUMP JUMPDEST PUSH2 0x385 SWAP2 SWAP1 PUSH2 0x12C8 JUMP JUMPDEST PUSH2 0x7AF JUMP JUMPDEST PUSH1 0x60 PUSH1 0xA PUSH1 0x40 MLOAD PUSH1 0x20 ADD PUSH2 0x39E SWAP2 SWAP1 PUSH2 0x12E9 JUMP JUMPDEST PUSH1 0x40 MLOAD PUSH1 0x20 DUP2 DUP4 SUB SUB DUP2 MSTORE SWAP1 PUSH1 0x40 MSTORE SWAP1 POP SWAP1 JUMP JUMPDEST PUSH2 0x3BA PUSH2 0xC1C JUMP JUMPDEST PUSH2 0x3C4 PUSH1 0x0 PUSH2 0xC7B JUMP JUMPDEST JUMP JUMPDEST PUSH1 0x1 PUSH1 0x1 PUSH1 0xA0 SHL SUB DUP2 AND PUSH1 0x0 SWAP1 DUP2 MSTORE PUSH1 0x7 PUSH1 0x20 MSTORE PUSH1 0x40 DUP2 KECCAK256 SLOAD PUSH2 0x32F JUMP JUMPDEST PUSH1 0x0 PUSH1 0x60 DUP1 DUP3 DUP1 DUP1 DUP4 PUSH2 0x418 PUSH32 0x0 PUSH1 0x5 PUSH2 0xCCD JUMP JUMPDEST PUSH2 0x443 PUSH32 0x0 PUSH1 0x6 PUSH2 0xCCD JUMP JUMPDEST PUSH1 0x40 DUP1 MLOAD PUSH1 0x0 DUP1 DUP3 MSTORE PUSH1 0x20 DUP3 ADD SWAP1 SWAP3 MSTORE PUSH1 0xF PUSH1 0xF8 SHL SWAP12 SWAP4 SWAP11 POP SWAP2 SWAP9 POP CHAINID SWAP8 POP ADDRESS SWAP7 POP SWAP5 POP SWAP3 POP SWAP1 POP JUMP JUMPDEST PUSH1 0x9 SLOAD PUSH1 0x1 PUSH1 0x1 PUSH1 0xA0 SHL SUB AND SWAP1 JUMP JUMPDEST PUSH1 0x60 PUSH1 0x4 DUP1 SLOAD PUSH2 0x298 SWAP1 PUSH2 0x1294 JUMP JUMPDEST PUSH1 0x0 CALLER DUP2 PUSH2 0x499 DUP3 DUP7 PUSH2 0x70B JUMP JUMPDEST SWAP1 POP DUP4 DUP2 LT ISZERO PUSH2 0x4FE JUMPI PUSH1 0x40 MLOAD PUSH3 0x461BCD PUSH1 0xE5 SHL DUP2 MSTORE PUSH1 0x20 PUSH1 0x4 DUP3 ADD MSTORE PUSH1 0x25 PUSH1 0x24 DUP3 ADD MSTORE PUSH32 0x45524332303A2064656372656173656420616C6C6F77616E63652062656C6F77 PUSH1 0x44 DUP3 ADD MSTORE PUSH5 0x207A65726F PUSH1 0xD8 SHL PUSH1 0x64 DUP3 ADD MSTORE PUSH1 0x84 ADD JUMPDEST PUSH1 0x40 MLOAD DUP1 SWAP2 SUB SWAP1 REVERT JUMPDEST PUSH2 0x34E DUP3 DUP7 DUP7 DUP5 SUB PUSH2 0x7AF JUMP JUMPDEST PUSH1 0x0 CALLER PUSH2 0x329 DUP2 DUP6 DUP6 PUSH2 0x94D JUMP JUMPDEST PUSH1 0xA DUP1 SLOAD PUSH2 0x526 SWAP1 PUSH2 0x1294 JUMP JUMPDEST DUP1 PUSH1 0x1F ADD PUSH1 0x20 DUP1 SWAP2 DIV MUL PUSH1 0x20 ADD PUSH1 0x40 MLOAD SWAP1 DUP2 ADD PUSH1 0x40 MSTORE DUP1 SWAP3 SWAP2 SWAP1 DUP2 DUP2 MSTORE PUSH1 0x20 ADD DUP3 DUP1 SLOAD PUSH2 0x552 SWAP1 PUSH2 0x1294 JUMP JUMPDEST DUP1 ISZERO PUSH2 0x59F JUMPI DUP1 PUSH1 0x1F LT PUSH2 0x574 JUMPI PUSH2 0x100 DUP1 DUP4 SLOAD DIV MUL DUP4 MSTORE SWAP2 PUSH1 0x20 ADD SWAP2 PUSH2 0x59F JUMP JUMPDEST DUP3 ADD SWAP2 SWAP1 PUSH1 0x0 MSTORE PUSH1 0x20 PUSH1 0x0 KECCAK256 SWAP1 JUMPDEST DUP2 SLOAD DUP2 MSTORE SWAP1 PUSH1 0x1 ADD SWAP1 PUSH1 0x20 ADD DUP1 DUP4 GT PUSH2 0x582 JUMPI DUP3 SWAP1 SUB PUSH1 0x1F AND DUP3 ADD SWAP2 JUMPDEST POP POP POP POP POP DUP2 JUMP JUMPDEST DUP4 TIMESTAMP GT ISZERO PUSH2 0x5F7 JUMPI PUSH1 0x40 MLOAD PUSH3 0x461BCD PUSH1 0xE5 SHL DUP2 MSTORE PUSH1 0x20 PUSH1 0x4 DUP3 ADD MSTORE PUSH1 0x1D PUSH1 0x24 DUP3 ADD MSTORE PUSH32 0x45524332305065726D69743A206578706972656420646561646C696E65000000 PUSH1 0x44 DUP3 ADD MSTORE PUSH1 0x64 ADD PUSH2 0x4F5 JUMP JUMPDEST PUSH1 0x0 PUSH32 0x6E71EDAE12B1B97F4D1F60370FEF10105FA2FAAE0126114A169C64845D6126C9 DUP9 DUP9 DUP9 PUSH2 0x626 DUP13 PUSH2 0xD78 JUMP JUMPDEST PUSH1 0x40 DUP1 MLOAD PUSH1 0x20 DUP2 ADD SWAP7 SWAP1 SWAP7 MSTORE PUSH1 0x1 PUSH1 0x1 PUSH1 0xA0 SHL SUB SWAP5 DUP6 AND SWAP1 DUP7 ADD MSTORE SWAP3 SWAP1 SWAP2 AND PUSH1 0x60 DUP5 ADD MSTORE PUSH1 0x80 DUP4 ADD MSTORE PUSH1 0xA0 DUP3 ADD MSTORE PUSH1 0xC0 DUP2 ADD DUP7 SWAP1 MSTORE PUSH1 0xE0 ADD PUSH1 0x40 MLOAD PUSH1 0x20 DUP2 DUP4 SUB SUB DUP2 MSTORE SWAP1 PUSH1 0x40 MSTORE DUP1 MLOAD SWAP1 PUSH1 0x20 ADD KECCAK256 SWAP1 POP PUSH1 0x0 PUSH2 0x681 DUP3 PUSH2 0xDA0 JUMP JUMPDEST SWAP1 POP PUSH1 0x0 PUSH2 0x691 DUP3 DUP8 DUP8 DUP8 PUSH2 0xDCD JUMP JUMPDEST SWAP1 POP DUP10 PUSH1 0x1 PUSH1 0x1 PUSH1 0xA0 SHL SUB AND DUP2 PUSH1 0x1 PUSH1 0x1 PUSH1 0xA0 SHL SUB AND EQ PUSH2 0x6F4 JUMPI PUSH1 0x40 MLOAD PUSH3 0x461BCD PUSH1 0xE5 SHL DUP2 MSTORE PUSH1 0x20 PUSH1 0x4 DUP3 ADD MSTORE PUSH1 0x1E PUSH1 0x24 DUP3 ADD MSTORE PUSH32 0x45524332305065726D69743A20696E76616C6964207369676E61747572650000 PUSH1 0x44 DUP3 ADD MSTORE PUSH1 0x64 ADD PUSH2 0x4F5 JUMP JUMPDEST PUSH2 0x6FF DUP11 DUP11 DUP11 PUSH2 0x7AF JUMP JUMPDEST POP POP POP POP POP POP POP POP POP POP JUMP JUMPDEST PUSH1 0x1 PUSH1 0x1 PUSH1 0xA0 SHL SUB SWAP2 DUP3 AND PUSH1 0x0 SWAP1 DUP2 MSTORE PUSH1 0x1 PUSH1 0x20 SWAP1 DUP2 MSTORE PUSH1 0x40 DUP1 DUP4 KECCAK256 SWAP4 SWAP1 SWAP5 AND DUP3 MSTORE SWAP2 SWAP1 SWAP2 MSTORE KECCAK256 SLOAD SWAP1 JUMP JUMPDEST PUSH2 0x73E PUSH2 0xC1C JUMP JUMPDEST PUSH1 0x1 PUSH1 0x1 PUSH1 0xA0 SHL SUB DUP2 AND PUSH2 0x7A3 JUMPI PUSH1 0x40 MLOAD PUSH3 0x461BCD PUSH1 0xE5 SHL DUP2 MSTORE PUSH1 0x20 PUSH1 0x4 DUP3 ADD MSTORE PUSH1 0x26 PUSH1 0x24 DUP3 ADD MSTORE PUSH32 0x4F776E61626C653A206E6577206F776E657220697320746865207A65726F2061 PUSH1 0x44 DUP3 ADD MSTORE PUSH6 0x646472657373 PUSH1 0xD0 SHL PUSH1 0x64 DUP3 ADD MSTORE PUSH1 0x84 ADD PUSH2 0x4F5 JUMP JUMPDEST PUSH2 0x7AC DUP2 PUSH2 0xC7B JUMP JUMPDEST POP JUMP JUMPDEST PUSH1 0x1 PUSH1 0x1 PUSH1 0xA0 SHL SUB DUP4 AND PUSH2 0x811 JUMPI PUSH1 0x40 MLOAD PUSH3 0x461BCD PUSH1 0xE5 SHL DUP2 MSTORE PUSH1 0x20 PUSH1 0x4 DUP3 ADD MSTORE PUSH1 0x24 DUP1 DUP3 ADD MSTORE PUSH32 0x45524332303A20617070726F76652066726F6D20746865207A65726F20616464 PUSH1 0x44 DUP3 ADD MSTORE PUSH4 0x72657373 PUSH1 0xE0 SHL PUSH1 0x64 DUP3 ADD MSTORE PUSH1 0x84 ADD PUSH2 0x4F5 JUMP JUMPDEST PUSH1 0x1 PUSH1 0x1 PUSH1 0xA0 SHL SUB DUP3 AND PUSH2 0x872 JUMPI PUSH1 0x40 MLOAD PUSH3 0x461BCD PUSH1 0xE5 SHL DUP2 MSTORE PUSH1 0x20 PUSH1 0x4 DUP3 ADD MSTORE PUSH1 0x22 PUSH1 0x24 DUP3 ADD MSTORE PUSH32 0x45524332303A20617070726F766520746F20746865207A65726F206164647265 PUSH1 0x44 DUP3 ADD MSTORE PUSH2 0x7373 PUSH1 0xF0 SHL PUSH1 0x64 DUP3 ADD MSTORE PUSH1 0x84 ADD PUSH2 0x4F5 JUMP JUMPDEST PUSH1 0x1 PUSH1 0x1 PUSH1 0xA0 SHL SUB DUP4 DUP2 AND PUSH1 0x0 DUP2 DUP2 MSTORE PUSH1 0x1 PUSH1 0x20 SWAP1 DUP2 MSTORE PUSH1 0x40 DUP1 DUP4 KECCAK256 SWAP5 DUP8 AND DUP1 DUP5 MSTORE SWAP5 DUP3 MSTORE SWAP2 DUP3 SWAP1 KECCAK256 DUP6 SWAP1 SSTORE SWAP1 MLOAD DUP5 DUP2 MSTORE PUSH32 0x8C5BE1E5EBEC7D5BD14F71427D1E84F3DD0314C0F7B2291E5B200AC8C7C3B925 SWAP2 ADD PUSH1 0x40 MLOAD DUP1 SWAP2 SUB SWAP1 LOG3 POP POP POP JUMP JUMPDEST PUSH1 0x0 PUSH2 0x8DF DUP5 DUP5 PUSH2 0x70B JUMP JUMPDEST SWAP1 POP PUSH1 0x0 NOT DUP2 EQ PUSH2 0x947 JUMPI DUP2 DUP2 LT ISZERO PUSH2 0x93A JUMPI PUSH1 0x40 MLOAD PUSH3 0x461BCD PUSH1 0xE5 SHL DUP2 MSTORE PUSH1 0x20 PUSH1 0x4 DUP3 ADD MSTORE PUSH1 0x1D PUSH1 0x24 DUP3 ADD MSTORE PUSH32 0x45524332303A20696E73756666696369656E7420616C6C6F77616E6365000000 PUSH1 0x44 DUP3 ADD MSTORE PUSH1 0x64 ADD PUSH2 0x4F5 JUMP JUMPDEST PUSH2 0x947 DUP5 DUP5 DUP5 DUP5 SUB PUSH2 0x7AF JUMP JUMPDEST POP POP POP POP JUMP JUMPDEST PUSH1 0x1 PUSH1 0x1 PUSH1 0xA0 SHL SUB DUP4 AND PUSH2 0x9B1 JUMPI PUSH1 0x40 MLOAD PUSH3 0x461BCD PUSH1 0xE5 SHL DUP2 MSTORE PUSH1 0x20 PUSH1 0x4 DUP3 ADD MSTORE PUSH1 0x25 PUSH1 0x24 DUP3 ADD MSTORE PUSH32 0x45524332303A207472616E736665722066726F6D20746865207A65726F206164 PUSH1 0x44 DUP3 ADD MSTORE PUSH5 0x6472657373 PUSH1 0xD8 SHL PUSH1 0x64 DUP3 ADD MSTORE PUSH1 0x84 ADD PUSH2 0x4F5 JUMP JUMPDEST PUSH1 0x1 PUSH1 0x1 PUSH1 0xA0 SHL SUB DUP3 AND PUSH2 0xA13 JUMPI PUSH1 0x40 MLOAD PUSH3 0x461BCD PUSH1 0xE5 SHL DUP2 MSTORE PUSH1 0x20 PUSH1 0x4 DUP3 ADD MSTORE PUSH1 0x23 PUSH1 0x24 DUP3 ADD MSTORE PUSH32 0x45524332303A207472616E7366657220746F20746865207A65726F2061646472 PUSH1 0x44 DUP3 ADD MSTORE PUSH3 0x657373 PUSH1 0xE8 SHL PUSH1 0x64 DUP3 ADD MSTORE PUSH1 0x84 ADD PUSH2 0x4F5 JUMP JUMPDEST PUSH1 0x1 PUSH1 0x1 PUSH1 0xA0 SHL SUB DUP4 AND PUSH1 0x0 SWAP1 DUP2 MSTORE PUSH1 0x20 DUP2 SWAP1 MSTORE PUSH1 0x40 SWAP1 KECCAK256 SLOAD DUP2 DUP2 LT ISZERO PUSH2 0xA8B JUMPI PUSH1 0x40 MLOAD PUSH3 0x461BCD PUSH1 0xE5 SHL DUP2 MSTORE PUSH1 0x20 PUSH1 0x4 DUP3 ADD MSTORE PUSH1 0x26 PUSH1 0x24 DUP3 ADD MSTORE PUSH32 0x45524332303A207472616E7366657220616D6F756E7420657863656564732062 PUSH1 0x44 DUP3 ADD MSTORE PUSH6 0x616C616E6365 PUSH1 0xD0 SHL PUSH1 0x64 DUP3 ADD MSTORE PUSH1 0x84 ADD PUSH2 0x4F5 JUMP JUMPDEST PUSH1 0x1 PUSH1 0x1 PUSH1 0xA0 SHL SUB DUP5 DUP2 AND PUSH1 0x0 DUP2 DUP2 MSTORE PUSH1 0x20 DUP2 DUP2 MSTORE PUSH1 0x40 DUP1 DUP4 KECCAK256 DUP8 DUP8 SUB SWAP1 SSTORE SWAP4 DUP8 AND DUP1 DUP4 MSTORE SWAP2 DUP5 SWAP1 KECCAK256 DUP1 SLOAD DUP8 ADD SWAP1 SSTORE SWAP3 MLOAD DUP6 DUP2 MSTORE SWAP1 SWAP3 PUSH32 0xDDF252AD1BE2C89B69C2B068FC378DAA952BA7F163C4A11628F55A4DF523B3EF SWAP2 ADD PUSH1 0x40 MLOAD DUP1 SWAP2 SUB SWAP1 LOG3 PUSH2 0x947 JUMP JUMPDEST PUSH1 0x0 ADDRESS PUSH1 0x1 PUSH1 0x1 PUSH1 0xA0 SHL SUB PUSH32 0x0 AND EQ DUP1 ISZERO PUSH2 0xB4A JUMPI POP PUSH32 0x0 CHAINID EQ JUMPDEST ISZERO PUSH2 0xB74 JUMPI POP PUSH32 0x0 SWAP1 JUMP JUMPDEST PUSH2 0x363 PUSH1 0x40 DUP1 MLOAD PUSH32 0x8B73C3C69BB8FE3D512ECC4CF759CC79239F7B179B0FFACAA9A75D522B39400F PUSH1 0x20 DUP3 ADD MSTORE PUSH32 0x0 SWAP2 DUP2 ADD SWAP2 SWAP1 SWAP2 MSTORE PUSH32 0x0 PUSH1 0x60 DUP3 ADD MSTORE CHAINID PUSH1 0x80 DUP3 ADD MSTORE ADDRESS PUSH1 0xA0 DUP3 ADD MSTORE PUSH1 0x0 SWAP1 PUSH1 0xC0 ADD PUSH1 0x40 MLOAD PUSH1 0x20 DUP2 DUP4 SUB SUB DUP2 MSTORE SWAP1 PUSH1 0x40 MSTORE DUP1 MLOAD SWAP1 PUSH1 0x20 ADD KECCAK256 SWAP1 POP SWAP1 JUMP JUMPDEST CALLER PUSH2 0xC25 PUSH2 0x46D JUMP JUMPDEST PUSH1 0x1 PUSH1 0x1 PUSH1 0xA0 SHL SUB AND EQ PUSH2 0x3C4 JUMPI PUSH1 0x40 MLOAD PUSH3 0x461BCD PUSH1 0xE5 SHL DUP2 MSTORE PUSH1 0x20 PUSH1 0x4 DUP3 ADD DUP2 SWAP1 MSTORE PUSH1 0x24 DUP3 ADD MSTORE PUSH32 0x4F776E61626C653A2063616C6C6572206973206E6F7420746865206F776E6572 PUSH1 0x44 DUP3 ADD MSTORE PUSH1 0x64 ADD PUSH2 0x4F5 JUMP JUMPDEST PUSH1 0x9 DUP1 SLOAD PUSH1 0x1 PUSH1 0x1 PUSH1 0xA0 SHL SUB DUP4 DUP2 AND PUSH1 0x1 PUSH1 0x1 PUSH1 0xA0 SHL SUB NOT DUP4 AND DUP2 OR SWAP1 SWAP4 SSTORE PUSH1 0x40 MLOAD SWAP2 AND SWAP2 SWAP1 DUP3 SWAP1 PUSH32 0x8BE0079C531659141344CD1FD0A4F28419497F9722A3DAAFE3B4186F6B6457E0 SWAP1 PUSH1 0x0 SWAP1 LOG3 POP POP JUMP JUMPDEST PUSH1 0x60 PUSH1 0xFF DUP4 EQ PUSH2 0xCE7 JUMPI PUSH2 0xCE0 DUP4 PUSH2 0xDF5 JUMP JUMPDEST SWAP1 POP PUSH2 0x32F JUMP JUMPDEST DUP2 DUP1 SLOAD PUSH2 0xCF3 SWAP1 PUSH2 0x1294 JUMP JUMPDEST DUP1 PUSH1 0x1F ADD PUSH1 0x20 DUP1 SWAP2 DIV MUL PUSH1 0x20 ADD PUSH1 0x40 MLOAD SWAP1 DUP2 ADD PUSH1 0x40 MSTORE DUP1 SWAP3 SWAP2 SWAP1 DUP2 DUP2 MSTORE PUSH1 0x20 ADD DUP3 DUP1 SLOAD PUSH2 0xD1F SWAP1 PUSH2 0x1294 JUMP JUMPDEST DUP1 ISZERO PUSH2 0xD6C JUMPI DUP1 PUSH1 0x1F LT PUSH2 0xD41 JUMPI PUSH2 0x100 DUP1 DUP4 SLOAD DIV MUL DUP4 MSTORE SWAP2 PUSH1 0x20 ADD SWAP2 PUSH2 0xD6C JUMP JUMPDEST DUP3 ADD SWAP2 SWAP1 PUSH1 0x0 MSTORE PUSH1 0x20 PUSH1 0x0 KECCAK256 SWAP1 JUMPDEST DUP2 SLOAD DUP2 MSTORE SWAP1 PUSH1 0x1 ADD SWAP1 PUSH1 0x20 ADD DUP1 DUP4 GT PUSH2 0xD4F JUMPI DUP3 SWAP1 SUB PUSH1 0x1F AND DUP3 ADD SWAP2 JUMPDEST POP POP POP POP POP SWAP1 POP PUSH2 0x32F JUMP JUMPDEST PUSH1 0x1 PUSH1 0x1 PUSH1 0xA0 SHL SUB DUP2 AND PUSH1 0x0 SWAP1 DUP2 MSTORE PUSH1 0x7 PUSH1 0x20 MSTORE PUSH1 0x40 SWAP1 KECCAK256 DUP1 SLOAD PUSH1 0x1 DUP2 ADD DUP3 SSTORE SWAP1 JUMPDEST POP SWAP2 SWAP1 POP JUMP JUMPDEST PUSH1 0x0 PUSH2 0x32F PUSH2 0xDAD PUSH2 0xAF1 JUMP JUMPDEST DUP4 PUSH1 0x40 MLOAD PUSH2 0x1901 PUSH1 0xF0 SHL DUP2 MSTORE PUSH1 0x2 DUP2 ADD SWAP3 SWAP1 SWAP3 MSTORE PUSH1 0x22 DUP3 ADD MSTORE PUSH1 0x42 SWAP1 KECCAK256 SWAP1 JUMP JUMPDEST PUSH1 0x0 DUP1 PUSH1 0x0 PUSH2 0xDDE DUP8 DUP8 DUP8 DUP8 PUSH2 0xE34 JUMP JUMPDEST SWAP2 POP SWAP2 POP PUSH2 0xDEB DUP2 PUSH2 0xEEE JUMP JUMPDEST POP SWAP6 SWAP5 POP POP POP POP POP JUMP JUMPDEST PUSH1 0x60 PUSH1 0x0 PUSH2 0xE02 DUP4 PUSH2 0x1033 JUMP JUMPDEST PUSH1 0x40 DUP1 MLOAD PUSH1 0x20 DUP1 DUP3 MSTORE DUP2 DUP4 ADD SWAP1 SWAP3 MSTORE SWAP2 SWAP3 POP PUSH1 0x0 SWAP2 SWAP1 PUSH1 0x20 DUP3 ADD DUP2 DUP1 CALLDATASIZE DUP4 CALLDATACOPY POP POP POP SWAP2 DUP3 MSTORE POP PUSH1 0x20 DUP2 ADD SWAP3 SWAP1 SWAP3 MSTORE POP SWAP1 JUMP JUMPDEST PUSH1 0x0 DUP1 PUSH16 0xA2A8918CA85BAFE22016D0B997E4DF60 PUSH1 0x1 PUSH1 0xFF SHL SUB DUP4 GT ISZERO PUSH2 0xE61 JUMPI POP PUSH1 0x0 SWAP1 POP PUSH1 0x3 PUSH2 0xEE5 JUMP JUMPDEST PUSH1 0x40 DUP1 MLOAD PUSH1 0x0 DUP1 DUP3 MSTORE PUSH1 0x20 DUP3 ADD DUP1 DUP5 MSTORE DUP10 SWAP1 MSTORE PUSH1 0xFF DUP9 AND SWAP3 DUP3 ADD SWAP3 SWAP1 SWAP3 MSTORE PUSH1 0x60 DUP2 ADD DUP7 SWAP1 MSTORE PUSH1 0x80 DUP2 ADD DUP6 SWAP1 MSTORE PUSH1 0x1 SWAP1 PUSH1 0xA0 ADD PUSH1 0x20 PUSH1 0x40 MLOAD PUSH1 0x20 DUP2 SUB SWAP1 DUP1 DUP5 SUB SWAP1 DUP6 GAS STATICCALL ISZERO DUP1 ISZERO PUSH2 0xEB5 JUMPI RETURNDATASIZE PUSH1 0x0 DUP1 RETURNDATACOPY RETURNDATASIZE PUSH1 0x0 REVERT JUMPDEST POP POP PUSH1 0x40 MLOAD PUSH1 0x1F NOT ADD MLOAD SWAP2 POP POP PUSH1 0x1 PUSH1 0x1 PUSH1 0xA0 SHL SUB DUP2 AND PUSH2 0xEDE JUMPI PUSH1 0x0 PUSH1 0x1 SWAP3 POP SWAP3 POP POP PUSH2 0xEE5 JUMP JUMPDEST SWAP2 POP PUSH1 0x0 SWAP1 POP JUMPDEST SWAP5 POP SWAP5 SWAP3 POP POP POP JUMP JUMPDEST PUSH1 0x0 DUP2 PUSH1 0x4 DUP2 GT ISZERO PUSH2 0xF02 JUMPI PUSH2 0xF02 PUSH2 0x13A1 JUMP JUMPDEST SUB PUSH2 0xF0A JUMPI POP JUMP JUMPDEST PUSH1 0x1 DUP2 PUSH1 0x4 DUP2 GT ISZERO PUSH2 0xF1E JUMPI PUSH2 0xF1E PUSH2 0x13A1 JUMP JUMPDEST SUB PUSH2 0xF66 JUMPI PUSH1 0x40 MLOAD PUSH3 0x461BCD PUSH1 0xE5 SHL DUP2 MSTORE PUSH1 0x20 PUSH1 0x4 DUP3 ADD MSTORE PUSH1 0x18 PUSH1 0x24 DUP3 ADD MSTORE PUSH24 0x45434453413A20696E76616C6964207369676E6174757265 PUSH1 0x40 SHL PUSH1 0x44 DUP3 ADD MSTORE PUSH1 0x64 ADD PUSH2 0x4F5 JUMP JUMPDEST PUSH1 0x2 DUP2 PUSH1 0x4 DUP2 GT ISZERO PUSH2 0xF7A JUMPI PUSH2 0xF7A PUSH2 0x13A1 JUMP JUMPDEST SUB PUSH2 0xFC7 JUMPI PUSH1 0x40 MLOAD PUSH3 0x461BCD PUSH1 0xE5 SHL DUP2 MSTORE PUSH1 0x20 PUSH1 0x4 DUP3 ADD MSTORE PUSH1 0x1F PUSH1 0x24 DUP3 ADD MSTORE PUSH32 0x45434453413A20696E76616C6964207369676E6174757265206C656E67746800 PUSH1 0x44 DUP3 ADD MSTORE PUSH1 0x64 ADD PUSH2 0x4F5 JUMP JUMPDEST PUSH1 0x3 DUP2 PUSH1 0x4 DUP2 GT ISZERO PUSH2 0xFDB JUMPI PUSH2 0xFDB PUSH2 0x13A1 JUMP JUMPDEST SUB PUSH2 0x7AC JUMPI PUSH1 0x40 MLOAD PUSH3 0x461BCD PUSH1 0xE5 SHL DUP2 MSTORE PUSH1 0x20 PUSH1 0x4 DUP3 ADD MSTORE PUSH1 0x22 PUSH1 0x24 DUP3 ADD MSTORE PUSH32 0x45434453413A20696E76616C6964207369676E6174757265202773272076616C PUSH1 0x44 DUP3 ADD MSTORE PUSH2 0x7565 PUSH1 0xF0 SHL PUSH1 0x64 DUP3 ADD MSTORE PUSH1 0x84 ADD PUSH2 0x4F5 JUMP JUMPDEST PUSH1 0x0 PUSH1 0xFF DUP3 AND PUSH1 0x1F DUP2 GT ISZERO PUSH2 0x32F JUMPI PUSH1 0x40 MLOAD PUSH4 0x2CD44AC3 PUSH1 0xE2 SHL DUP2 MSTORE PUSH1 0x4 ADD PUSH1 0x40 MLOAD DUP1 SWAP2 SUB SWAP1 REVERT JUMPDEST PUSH1 0x0 DUP2 MLOAD DUP1 DUP5 MSTORE PUSH1 0x0 JUMPDEST DUP2 DUP2 LT ISZERO PUSH2 0x1081 JUMPI PUSH1 0x20 DUP2 DUP6 ADD DUP2 ADD MLOAD DUP7 DUP4 ADD DUP3 ADD MSTORE ADD PUSH2 0x1065 JUMP JUMPDEST POP PUSH1 0x0 PUSH1 0x20 DUP3 DUP7 ADD ADD MSTORE PUSH1 0x20 PUSH1 0x1F NOT PUSH1 0x1F DUP4 ADD AND DUP6 ADD ADD SWAP2 POP POP SWAP3 SWAP2 POP POP JUMP JUMPDEST PUSH1 0x20 DUP2 MSTORE PUSH1 0x0 PUSH2 0x10B4 PUSH1 0x20 DUP4 ADD DUP5 PUSH2 0x105B JUMP JUMPDEST SWAP4 SWAP3 POP POP POP JUMP JUMPDEST DUP1 CALLDATALOAD PUSH1 0x1 PUSH1 0x1 PUSH1 0xA0 SHL SUB DUP2 AND DUP2 EQ PUSH2 0x10D2 JUMPI PUSH1 0x0 DUP1 REVERT JUMPDEST SWAP2 SWAP1 POP JUMP JUMPDEST PUSH1 0x0 DUP1 PUSH1 0x40 DUP4 DUP6 SUB SLT ISZERO PUSH2 0x10EA JUMPI PUSH1 0x0 DUP1 REVERT JUMPDEST PUSH2 0x10F3 DUP4 PUSH2 0x10BB JUMP JUMPDEST SWAP5 PUSH1 0x20 SWAP4 SWAP1 SWAP4 ADD CALLDATALOAD SWAP4 POP POP POP JUMP JUMPDEST PUSH1 0x0 DUP1 PUSH1 0x0 PUSH1 0x60 DUP5 DUP7 SUB SLT ISZERO PUSH2 0x1116 JUMPI PUSH1 0x0 DUP1 REVERT JUMPDEST PUSH2 0x111F DUP5 PUSH2 0x10BB JUMP JUMPDEST SWAP3 POP PUSH2 0x112D PUSH1 0x20 DUP6 ADD PUSH2 0x10BB JUMP JUMPDEST SWAP2 POP PUSH1 0x40 DUP5 ADD CALLDATALOAD SWAP1 POP SWAP3 POP SWAP3 POP SWAP3 JUMP JUMPDEST PUSH1 0x0 PUSH1 0x20 DUP3 DUP5 SUB SLT ISZERO PUSH2 0x114F JUMPI PUSH1 0x0 DUP1 REVERT JUMPDEST PUSH2 0x10B4 DUP3 PUSH2 0x10BB JUMP JUMPDEST PUSH1 0xFF PUSH1 0xF8 SHL DUP9 AND DUP2 MSTORE PUSH1 0x0 PUSH1 0x20 PUSH1 0xE0 DUP2 DUP5 ADD MSTORE PUSH2 0x1178 PUSH1 0xE0 DUP5 ADD DUP11 PUSH2 0x105B JUMP JUMPDEST DUP4 DUP2 SUB PUSH1 0x40 DUP6 ADD MSTORE PUSH2 0x118A DUP2 DUP11 PUSH2 0x105B JUMP JUMPDEST PUSH1 0x60 DUP6 ADD DUP10 SWAP1 MSTORE PUSH1 0x1 PUSH1 0x1 PUSH1 0xA0 SHL SUB DUP9 AND PUSH1 0x80 DUP7 ADD MSTORE PUSH1 0xA0 DUP6 ADD DUP8 SWAP1 MSTORE DUP5 DUP2 SUB PUSH1 0xC0 DUP7 ADD MSTORE DUP6 MLOAD DUP1 DUP3 MSTORE DUP4 DUP8 ADD SWAP3 POP SWAP1 DUP4 ADD SWAP1 PUSH1 0x0 JUMPDEST DUP2 DUP2 LT ISZERO PUSH2 0x11DC JUMPI DUP4 MLOAD DUP4 MSTORE SWAP3 DUP5 ADD SWAP3 SWAP2 DUP5 ADD SWAP2 PUSH1 0x1 ADD PUSH2 0x11C0 JUMP JUMPDEST POP SWAP1 SWAP13 SWAP12 POP POP POP POP POP POP POP POP POP POP POP POP JUMP JUMPDEST PUSH1 0x0 DUP1 PUSH1 0x0 DUP1 PUSH1 0x0 DUP1 PUSH1 0x0 PUSH1 0xE0 DUP9 DUP11 SUB SLT ISZERO PUSH2 0x1209 JUMPI PUSH1 0x0 DUP1 REVERT JUMPDEST PUSH2 0x1212 DUP9 PUSH2 0x10BB JUMP JUMPDEST SWAP7 POP PUSH2 0x1220 PUSH1 0x20 DUP10 ADD PUSH2 0x10BB JUMP JUMPDEST SWAP6 POP PUSH1 0x40 DUP9 ADD CALLDATALOAD SWAP5 POP PUSH1 0x60 DUP9 ADD CALLDATALOAD SWAP4 POP PUSH1 0x80 DUP9 ADD CALLDATALOAD PUSH1 0xFF DUP2 AND DUP2 EQ PUSH2 0x1244 JUMPI PUSH1 0x0 DUP1 REVERT JUMPDEST SWAP7 SWAP10 SWAP6 SWAP9 POP SWAP4 SWAP7 SWAP3 SWAP6 SWAP5 PUSH1 0xA0 DUP5 ADD CALLDATALOAD SWAP5 POP PUSH1 0xC0 SWAP1 SWAP4 ADD CALLDATALOAD SWAP3 SWAP2 POP POP JUMP JUMPDEST PUSH1 0x0 DUP1 PUSH1 0x40 DUP4 DUP6 SUB SLT ISZERO PUSH2 0x1274 JUMPI PUSH1 0x0 DUP1 REVERT JUMPDEST PUSH2 0x127D DUP4 PUSH2 0x10BB JUMP JUMPDEST SWAP2 POP PUSH2 0x128B PUSH1 0x20 DUP5 ADD PUSH2 0x10BB JUMP JUMPDEST SWAP1 POP SWAP3 POP SWAP3 SWAP1 POP JUMP JUMPDEST PUSH1 0x1 DUP2 DUP2 SHR SWAP1 DUP3 AND DUP1 PUSH2 0x12A8 JUMPI PUSH1 0x7F DUP3 AND SWAP2 POP JUMPDEST PUSH1 0x20 DUP3 LT DUP2 SUB PUSH2 0xD9A JUMPI PUSH4 0x4E487B71 PUSH1 0xE0 SHL PUSH1 0x0 MSTORE PUSH1 0x22 PUSH1 0x4 MSTORE PUSH1 0x24 PUSH1 0x0 REVERT JUMPDEST DUP1 DUP3 ADD DUP1 DUP3 GT ISZERO PUSH2 0x32F JUMPI PUSH4 0x4E487B71 PUSH1 0xE0 SHL PUSH1 0x0 MSTORE PUSH1 0x11 PUSH1 0x4 MSTORE PUSH1 0x24 PUSH1 0x0 REVERT JUMPDEST PUSH7 0x697066733A2F2F PUSH1 0xC8 SHL DUP2 MSTORE PUSH1 0x0 PUSH1 0x7 PUSH1 0x0 DUP5 SLOAD DUP2 PUSH1 0x1 DUP3 DUP2 SHR SWAP2 POP DUP1 DUP4 AND DUP1 PUSH2 0x1315 JUMPI PUSH1 0x7F DUP4 AND SWAP3 POP JUMPDEST PUSH1 0x20 DUP1 DUP5 LT DUP3 SUB PUSH2 0x1334 JUMPI PUSH4 0x4E487B71 PUSH1 0xE0 SHL DUP7 MSTORE PUSH1 0x22 PUSH1 0x4 MSTORE PUSH1 0x24 DUP7 REVERT JUMPDEST DUP2 DUP1 ISZERO PUSH2 0x1348 JUMPI PUSH1 0x1 DUP2 EQ PUSH2 0x1361 JUMPI PUSH2 0x1392 JUMP JUMPDEST PUSH1 0xFF NOT DUP7 AND DUP11 DUP10 ADD MSTORE DUP5 ISZERO ISZERO DUP6 MUL DUP11 ADD DUP9 ADD SWAP7 POP PUSH2 0x1392 JUMP JUMPDEST PUSH1 0x0 DUP12 DUP2 MSTORE PUSH1 0x20 SWAP1 KECCAK256 PUSH1 0x0 JUMPDEST DUP7 DUP2 LT ISZERO PUSH2 0x1388 JUMPI DUP2 SLOAD DUP13 DUP3 ADD DUP12 ADD MSTORE SWAP1 DUP6 ADD SWAP1 DUP4 ADD PUSH2 0x136D JUMP JUMPDEST POP POP DUP8 DUP6 DUP12 ADD ADD SWAP7 POP JUMPDEST POP SWAP5 SWAP10 SWAP9 POP POP POP POP POP POP POP POP POP JUMP JUMPDEST PUSH4 0x4E487B71 PUSH1 0xE0 SHL PUSH1 0x0 MSTORE PUSH1 0x21 PUSH1 0x4 MSTORE PUSH1 0x24 PUSH1 0x0 REVERT INVALID LOG2 PUSH5 0x6970667358 0x22 SLT KECCAK256 CALL CREATE 0xE7 PUSH31 0xFD43C1ED3129E9422C1F778AD458CFBD181E98219BDEC1839A3A2A2B64736F PUSH13 0x63430008140033B42C9FECFB68 0xF9 0xBF DUP5 DUP9 PUSH16 0x5B85865BE2FDA69A3EC869651D1320D DUP16 MSTORE DUP12 0xE6 0xBB 0xE8 0x2B 0xE3 ISZERO 0xBA BYTE 0xD SUB PUSH3 0xD09D5C CREATE2 SWAP8 DUP2 CALLCODE EQ 0xB5 GASPRICE PUSH21 0xEB978C35B76AD687099C670CB3579861130E4DA8BB PUSH28 0x87C54D2D139937F23BCD6E4EBED9E75D0F78AB1CC118A26469706673 PC 0x22 SLT KECCAK256 0xB9 DIV GAS 0x49 PUSH18 0xA72C76EDB9AA61CB9883D7C2C0628B6081FA CALLDATACOPY 0x22 0x22 0xA8 LOG3 0xCC DUP14 DIV SWAP11 PUSH5 0x736F6C6343 STOP ADDMOD EQ STOP CALLER "},"methodIdentifiers":{"addLiquidity(address,uint256)":"56688700","addToWhitelist(address,address[])":"e559afd9","allTokens(uint256)":"634282af","buyPresale(address,uint256,address,bytes32[])":"64618cf9","buyToken(address,uint256,address)":"692bf4a8","buysPaused()":"2319835c","claimVested()":"d01c44cd","createLiquidityPair(address)":"98e122fd","createMemeCoin(string,string,string,uint256,uint256,string)":"d634b419","creatorFeesAccrued(address)":"c748713e","dexFactory()":"b8d8fbb4","dexRouter()":"0758d924","emergencyWithdrawETH()":"84536017","emergencyWithdrawToken(address)":"1af03203","getPoolAddress(address)":"1228cbee","getRevenueSplit(uint256)":"dad4412c","getSalesStats(address)":"7e8def1d","getTokens(uint256,uint256)":"494cfc6c","isListed(address)":"f794062e","listTokensPaginated(uint256,uint256)":"9b53a7f5","owner()":"8da5cb5b","pauseBuys()":"8604cfef","pauseTokenSales(address)":"66c5b06c","paused()":"5c975abb","platformFeeBP()":"ff96092a","platformFeesAccrued()":"22163b86","platformFeesAccumulated()":"f641fe39","presaleMerkleRoot()":"22212e2b","priceOf(address)":"b95ed06f","reclaimUnsold(address,uint256)":"0e3f0cfc","reclaimUnsoldBatch(address[],uint256[])":"7a86279b","referralFeeBP()":"dc4ec9be","referralFees(address)":"75780f42","referralFeesAccrued(address)":"f37ef78c","removeLiquidity(address,uint256)":"a201ccf6","renounceOwnership()":"715018a6","rescueERC20(address,uint256)":"8cd4426d","setDexAddresses(address,address)":"09cccaac","setPresaleMerkleRoot(bytes32)":"28d7b276","setVestingSchedule(address,uint256,uint256,uint256)":"59f3a97d","setWhitelistEnabled(address,bool)":"f6e4b62b","tokenIndexPlusOne(address)":"35a62e68","tokenPaused(address)":"8995881d","totalTokens()":"7e1c0c09","transferOwnership(address)":"f2fde38b","unpauseBuys()":"620bfa7b","unpauseTokenSales(address)":"f0b6374b","unsoldForAll(address[])":"d260be7c","updateFees(uint16,uint16)":"f3d2350e","updateMetadata(address,string,string)":"5e62bf94","updatePrice(address,uint256)":"457972de","vestingSchedules(address)":"fdb20ccb","whitelistEnabled(address)":"79c8ffd6","whitelisted(address,address)":"bc120fe7","withdrawCreatorFees(address)":"f4c5cdca","withdrawPlatformFees()":"d0b7830b","withdrawReferralFees()":"173608e7"}}}}}