{"contracts/MemeCoinFactory.sol":{"MemeCoinFactory":{"abi":[{"inputs":[{"internalType":"uint16","name":"_platformFeeBP","type":"uint16"},{"internalType":"uint16","name":"_referralFeeBP","type":"uint16"}],"stateMutability":"nonpayable","type":"constructor"},{"inputs":[],"name":"EnforcedPause","type":"error"},{"inputs":[],"name":"ExpectedPause","type":"error"},{"inputs":[],"name":"IncorrectETH","type":"error"},{"inputs":[],"name":"NotAuthorized","type":"error"},{"inputs":[],"name":"NotLaunched","type":"error"},{"inputs":[{"internalType":"address","name":"owner","type":"address"}],"name":"OwnableInvalidOwner","type":"error"},{"inputs":[{"internalType":"address","name":"account","type":"address"}],"name":"OwnableUnauthorizedAccount","type":"error"},{"inputs":[],"name":"PriceZero","type":"error"},{"inputs":[],"name":"ReentrancyGuardReentrantCall","type":"error"},{"inputs":[{"internalType":"address","name":"token","type":"address"}],"name":"SafeERC20FailedOperation","type":"error"},{"inputs":[],"name":"TokenPaused","type":"error"},{"inputs":[],"name":"ZeroAmount","type":"error"},{"anonymous":false,"inputs":[{"indexed":true,"internalType":"address","name":"token","type":"address"},{"indexed":true,"internalType":"address","name":"buyer","type":"address"},{"indexed":false,"internalType":"uint256","name":"amountAtomic","type":"uint256"},{"indexed":false,"internalType":"uint256","name":"costWei","type":"uint256"},{"indexed":true,"internalType":"address","name":"referrer","type":"address"},{"indexed":false,"internalType":"uint256","name":"platformShare","type":"uint256"},{"indexed":false,"internalType":"uint256","name":"referralShare","type":"uint256"},{"indexed":false,"internalType":"uint256","name":"creatorShare","type":"uint256"}],"name":"Bought","type":"event"},{"anonymous":false,"inputs":[{"indexed":true,"internalType":"address","name":"to","type":"address"},{"indexed":false,"internalType":"uint256","name":"amount","type":"uint256"}],"name":"ETHRescued","type":"event"},{"anonymous":false,"inputs":[{"indexed":false,"internalType":"uint16","name":"newPlatformFeeBP","type":"uint16"},{"indexed":false,"internalType":"uint16","name":"newReferralFeeBP","type":"uint16"}],"name":"FeesUpdated","type":"event"},{"anonymous":false,"inputs":[{"indexed":true,"internalType":"address","name":"previousOwner","type":"address"},{"indexed":true,"internalType":"address","name":"newOwner","type":"address"}],"name":"OwnershipTransferred","type":"event"},{"anonymous":false,"inputs":[{"indexed":false,"internalType":"address","name":"account","type":"address"}],"name":"Paused","type":"event"},{"anonymous":false,"inputs":[{"indexed":true,"internalType":"address","name":"token","type":"address"},{"indexed":false,"internalType":"uint256","name":"newPriceWei","type":"uint256"}],"name":"PriceUpdated","type":"event"},{"anonymous":false,"inputs":[{"indexed":true,"internalType":"address","name":"token","type":"address"},{"indexed":true,"internalType":"address","name":"creator","type":"address"},{"indexed":false,"internalType":"uint256","name":"priceWei","type":"uint256"},{"indexed":false,"internalType":"string","name":"description","type":"string"},{"indexed":false,"internalType":"string","name":"ipfsHash","type":"string"}],"name":"TokenCreated","type":"event"},{"anonymous":false,"inputs":[{"indexed":true,"internalType":"address","name":"token","type":"address"}],"name":"TokenPausedEvent","type":"event"},{"anonymous":false,"inputs":[{"indexed":true,"internalType":"address","name":"token","type":"address"},{"indexed":false,"internalType":"uint256","name":"amount","type":"uint256"}],"name":"TokenRescued","type":"event"},{"anonymous":false,"inputs":[{"indexed":true,"internalType":"address","name":"token","type":"address"}],"name":"TokenUnpausedEvent","type":"event"},{"anonymous":false,"inputs":[{"indexed":false,"internalType":"address","name":"account","type":"address"}],"name":"Unpaused","type":"event"},{"anonymous":false,"inputs":[{"indexed":true,"internalType":"address","name":"token","type":"address"},{"indexed":false,"internalType":"uint256","name":"amount","type":"uint256"}],"name":"UnsoldReclaimed","type":"event"},{"stateMutability":"payable","type":"fallback"},{"inputs":[{"internalType":"uint256","name":"","type":"uint256"}],"name":"allTokens","outputs":[{"internalType":"address","name":"token","type":"address"},{"internalType":"address","name":"creator","type":"address"},{"internalType":"uint256","name":"priceWei","type":"uint256"},{"internalType":"string","name":"description","type":"string"},{"internalType":"string","name":"ipfsHash","type":"string"}],"stateMutability":"view","type":"function"},{"inputs":[{"internalType":"address","name":"token_","type":"address"},{"internalType":"uint256","name":"amountAtomic","type":"uint256"},{"internalType":"address","name":"referrer","type":"address"}],"name":"buyToken","outputs":[],"stateMutability":"payable","type":"function"},{"inputs":[{"internalType":"string","name":"name_","type":"string"},{"internalType":"string","name":"symbol_","type":"string"},{"internalType":"string","name":"description_","type":"string"},{"internalType":"uint256","name":"totalSupply_","type":"uint256"},{"internalType":"uint256","name":"priceWei_","type":"uint256"},{"internalType":"string","name":"ipfsHash_","type":"string"}],"name":"createMemeCoin","outputs":[{"internalType":"address","name":"tokenAddress","type":"address"}],"stateMutability":"nonpayable","type":"function"},{"inputs":[{"internalType":"uint256","name":"index","type":"uint256"}],"name":"getTokenDetails","outputs":[{"internalType":"address","name":"token","type":"address"},{"internalType":"string","name":"name_","type":"string"},{"internalType":"string","name":"symbol_","type":"string"},{"internalType":"string","name":"description_","type":"string"},{"internalType":"string","name":"ipfsHash_","type":"string"},{"internalType":"uint256","name":"priceWei_","type":"uint256"},{"internalType":"address","name":"creator_","type":"address"}],"stateMutability":"view","type":"function"},{"inputs":[{"internalType":"uint256","name":"start","type":"uint256"},{"internalType":"uint256","name":"count","type":"uint256"}],"name":"getTokens","outputs":[{"components":[{"internalType":"address","name":"token","type":"address"},{"internalType":"address","name":"creator","type":"address"},{"internalType":"uint256","name":"priceWei","type":"uint256"},{"internalType":"string","name":"description","type":"string"},{"internalType":"string","name":"ipfsHash","type":"string"}],"internalType":"struct MemeCoinFactory.TokenInfo[]","name":"page","type":"tuple[]"}],"stateMutability":"view","type":"function"},{"inputs":[],"name":"owner","outputs":[{"internalType":"address","name":"","type":"address"}],"stateMutability":"view","type":"function"},{"inputs":[],"name":"pause","outputs":[],"stateMutability":"nonpayable","type":"function"},{"inputs":[{"internalType":"address","name":"token_","type":"address"}],"name":"pauseToken","outputs":[],"stateMutability":"nonpayable","type":"function"},{"inputs":[],"name":"paused","outputs":[{"internalType":"bool","name":"","type":"bool"}],"stateMutability":"view","type":"function"},{"inputs":[],"name":"platformFeeBP","outputs":[{"internalType":"uint16","name":"","type":"uint16"}],"stateMutability":"view","type":"function"},{"inputs":[{"internalType":"address","name":"token_","type":"address"},{"internalType":"uint256","name":"amount","type":"uint256"}],"name":"reclaimUnsold","outputs":[],"stateMutability":"nonpayable","type":"function"},{"inputs":[],"name":"referralFeeBP","outputs":[{"internalType":"uint16","name":"","type":"uint16"}],"stateMutability":"view","type":"function"},{"inputs":[],"name":"renounceOwnership","outputs":[],"stateMutability":"nonpayable","type":"function"},{"inputs":[{"internalType":"address","name":"token_","type":"address"},{"internalType":"uint256","name":"amount","type":"uint256"}],"name":"rescueERC20","outputs":[],"stateMutability":"nonpayable","type":"function"},{"inputs":[{"internalType":"address","name":"","type":"address"}],"name":"tokenIndexPlusOne","outputs":[{"internalType":"uint256","name":"","type":"uint256"}],"stateMutability":"view","type":"function"},{"inputs":[{"internalType":"address","name":"","type":"address"}],"name":"tokenPaused","outputs":[{"internalType":"bool","name":"","type":"bool"}],"stateMutability":"view","type":"function"},{"inputs":[],"name":"totalTokens","outputs":[{"internalType":"uint256","name":"","type":"uint256"}],"stateMutability":"view","type":"function"},{"inputs":[{"internalType":"address","name":"newOwner","type":"address"}],"name":"transferOwnership","outputs":[],"stateMutability":"nonpayable","type":"function"},{"inputs":[],"name":"unpause","outputs":[],"stateMutability":"nonpayable","type":"function"},{"inputs":[{"internalType":"address","name":"token_","type":"address"}],"name":"unpauseToken","outputs":[],"stateMutability":"nonpayable","type":"function"},{"inputs":[{"internalType":"uint16","name":"_pf","type":"uint16"},{"internalType":"uint16","name":"_rf","type":"uint16"}],"name":"updateFees","outputs":[],"stateMutability":"nonpayable","type":"function"},{"inputs":[{"internalType":"address","name":"token_","type":"address"},{"internalType":"uint256","name":"newPriceWei","type":"uint256"}],"name":"updatePrice","outputs":[],"stateMutability":"nonpayable","type":"function"},{"inputs":[{"internalType":"uint256","name":"amount","type":"uint256"}],"name":"withdrawETH","outputs":[],"stateMutability":"nonpayable","type":"function"},{"stateMutability":"payable","type":"receive"}],"evm":{"bytecode":{"linkReferences":{},"object":"60806040523480156200001157600080fd5b5060405162003dc538038062003dc5833981016040819052620000349162000152565b33806200005c57604051631e4fbdf760e01b8152600060048201526024015b60405180910390fd5b6200006781620000ea565b50600180556127106200007b82846200018a565b61ffff1610620000be5760405162461bcd60e51b815260206004820152600d60248201526c08ccacae640e8dede40d0d2ced609b1b604482015260640162000053565b6006805461ffff928316620100000263ffffffff199091169290931691909117919091179055620001bb565b600080546001600160a01b038381166001600160a01b0319831681178455604051919092169283917f8be0079c531659141344cd1fd0a4f28419497f9722a3daafe3b4186f6b6457e09190a35050565b805161ffff811681146200014d57600080fd5b919050565b600080604083850312156200016657600080fd5b62000171836200013a565b915062000181602084016200013a565b90509250929050565b61ffff818116838216019080821115620001b457634e487b7160e01b600052601160045260246000fd5b5092915050565b613bfa80620001cb6000396000f3fe608060405260043610620001635760003560e01c80637e1c0c0911620000c7578063d634b4191162000079578063d634b4191462000486578063dc4ec9be14620004ab578063f14210a614620004e2578063f2fde38b1462000507578063f3d2350e146200052c578063ff96092a146200055157620001a5565b80637e1c0c0914620003905780638456cb5914620003a75780638995881d14620003bf5780638cd4426d14620003f35780638da5cb5b1462000418578063c1e03728146200044c57620001a5565b8063494cfc6c1162000121578063494cfc6c14620002aa5780635c975abb14620002de578063634282af1462000304578063692bf4a8146200033c578063715018a614620003535780637c41ad2c146200036b57620001a5565b80630e3f0cfc14620001dd57806335a62e6814620002045780633b3bff0f14620002485780633f4ba83a146200026d578063457972de146200028557620001a5565b36620001a55760405162461bcd60e51b815260206004820152600c60248201526b2ab9b290313abcaa37b5b2b760a11b60448201526064015b60405180910390fd5b60405162461bcd60e51b815260206004820152600c60248201526b2ab9b290313abcaa37b5b2b760a11b60448201526064016200019c565b348015620001ea57600080fd5b5062000202620001fc36600462001979565b6200056e565b005b3480156200021157600080fd5b506200023562000223366004620019a6565b60046020526000908152604090205481565b6040519081526020015b60405180910390f35b3480156200025557600080fd5b506200020262000267366004620019a6565b6200068a565b3480156200027a57600080fd5b5062000202620006dd565b3480156200029257600080fd5b5062000202620002a436600462001979565b620006f3565b348015620002b757600080fd5b50620002cf620002c9366004620019cb565b62000824565b6040516200023f919062001a42565b348015620002eb57600080fd5b5060025460ff165b60405190151581526020016200023f565b3480156200031157600080fd5b50620003296200032336600462001afe565b62000ac4565b6040516200023f95949392919062001b18565b620002026200034d36600462001b6d565b62000c37565b3480156200036057600080fd5b506200020262000f3a565b3480156200037857600080fd5b50620002026200038a366004620019a6565b62000f50565b3480156200039d57600080fd5b5060035462000235565b348015620003b457600080fd5b506200020262000fa6565b348015620003cc57600080fd5b50620002f3620003de366004620019a6565b60056020526000908152604090205460ff1681565b3480156200040057600080fd5b50620002026200041236600462001979565b62000fba565b3480156200042557600080fd5b506000546001600160a01b03165b6040516001600160a01b0390911681526020016200023f565b3480156200045957600080fd5b50620004716200046b36600462001afe565b62001035565b6040516200023f979695949392919062001bae565b3480156200049357600080fd5b5062000433620004a536600462001c7b565b620012e9565b348015620004b857600080fd5b50600654620004ce9062010000900461ffff1681565b60405161ffff90911681526020016200023f565b348015620004ef57600080fd5b50620002026200050136600462001afe565b6200151a565b3480156200051457600080fd5b506200020262000526366004620019a6565b620015f6565b3480156200053957600080fd5b50620002026200054b36600462001d75565b6200163a565b3480156200055e57600080fd5b50600654620004ce9061ffff1681565b62000578620016f7565b6001600160a01b03821660009081526004602052604081205490819003620005b357604051638dda39df60e01b815260040160405180910390fd5b60006003620005c460018462001dc3565b81548110620005d757620005d762001ddf565b6000918252602090912060059091020160018101549091506001600160a01b03163314620006185760405163ea8e4eb560e01b815260040160405180910390fd5b600181015462000636906001600160a01b0386811691168562001722565b836001600160a01b03167fb42c9fecfb68f9bf84886f05b85865be2fda69a3ec869651d1320d8f528be6bb846040516200067291815260200190565b60405180910390a250506200068660018055565b5050565b6200069462001776565b6001600160a01b038116600081815260056020526040808220805460ff19169055517f7236530905f7db97a79e0d447edb198efa7cc11d321386a4bc4f01c9dcaef73d9190a250565b620006e762001776565b620006f1620017a5565b565b620006fd620017f9565b806000036200071f57604051637294708f60e11b815260040160405180910390fd5b6001600160a01b038216600090815260046020526040812054908190036200075a57604051638dda39df60e01b815260040160405180910390fd5b600060036200076b60018462001dc3565b815481106200077e576200077e62001ddf565b6000918252602090912060059091020160018101549091506001600160a01b03163314801590620007ba57506000546001600160a01b03163314155b15620007d95760405163ea8e4eb560e01b815260040160405180910390fd5b600281018390556040518381526001600160a01b038516907f0d86730737b142fc160892fa8a0f2db687a92a0e294d1ad70624cf5acef03b849060200160405180910390a250505050565b60035460609060008162000839858762001df5565b1162000851576200084b848662001df5565b62000853565b815b905062000861858262001dc3565b67ffffffffffffffff8111156200087c576200087c62001e0b565b604051908082528060200260200182016040528015620008d657816020015b6040805160a08101825260008082526020808301829052928201526060808201819052608082015282526000199092019101816200089b5790505b509250845b8181101562000abb5760038181548110620008fa57620008fa62001ddf565b60009182526020918290206040805160a081018252600590930290910180546001600160a01b03908116845260018201541693830193909352600283015490820152600382018054919291606084019190620009569062001e21565b80601f0160208091040260200160405190810160405280929190818152602001828054620009849062001e21565b8015620009d55780601f10620009a957610100808354040283529160200191620009d5565b820191906000526020600020905b815481529060010190602001808311620009b757829003601f168201915b50505050508152602001600482018054620009f09062001e21565b80601f016020809104026020016040519081016040528092919081815260200182805462000a1e9062001e21565b801562000a6f5780601f1062000a435761010080835404028352916020019162000a6f565b820191906000526020600020905b81548152906001019060200180831162000a5157829003601f168201915b50505050508152505084878362000a87919062001dc3565b8151811062000a9a5762000a9a62001ddf565b6020026020010181905250808062000ab29062001e5d565b915050620008db565b50505092915050565b6003818154811062000ad557600080fd5b600091825260209091206005909102018054600182015460028301546003840180546001600160a01b03948516965092909316939092909162000b189062001e21565b80601f016020809104026020016040519081016040528092919081815260200182805462000b469062001e21565b801562000b975780601f1062000b6b5761010080835404028352916020019162000b97565b820191906000526020600020905b81548152906001019060200180831162000b7957829003601f168201915b50505050509080600401805462000bae9062001e21565b80601f016020809104026020016040519081016040528092919081815260200182805462000bdc9062001e21565b801562000c2d5780601f1062000c015761010080835404028352916020019162000c2d565b820191906000526020600020905b81548152906001019060200180831162000c0f57829003601f168201915b5050505050905085565b62000c41620016f7565b62000c4b620017f9565b8160000362000c6d57604051631f2a200560e01b815260040160405180910390fd5b6001600160a01b03831660009081526005602052604090205460ff161562000ca85760405163e779249560e01b815260040160405180910390fd5b6001600160a01b0383166000908152600460205260408120549081900362000ce357604051638dda39df60e01b815260040160405180910390fd5b6000600362000cf460018462001dc3565b8154811062000d075762000d0762001ddf565b906000526020600020906005020190506000670de0b6b3a764000085836002015462000d34919062001e79565b62000d40919062001e93565b905080341462000d635760405163d183fe4360e01b815260040160405180910390fd5b6006546000906127109062000d7d9061ffff168462001e79565b62000d89919062001e93565b905060006001600160a01b0386161562000dcc576006546127109062000dba9062010000900461ffff168562001e79565b62000dc6919062001e93565b62000dcf565b60005b905060008162000de0848662001dc3565b62000dec919062001dc3565b9050821562000e3157600080546040516001600160a01b039091169185156108fc02918691818181858888f1935050505015801562000e2f573d6000803e3d6000fd5b505b811562000e71576040516001600160a01b0388169083156108fc029084906000818181858888f1935050505015801562000e6f573d6000803e3d6000fd5b505b60018501546040516001600160a01b039091169082156108fc029083906000818181858888f1935050505015801562000eae573d6000803e3d6000fd5b5062000ec56001600160a01b038a16338a62001722565b604080518981526020810186905290810184905260608101839052608081018290526001600160a01b038089169133918c16907fa4d1d47447ad64a0c581f05071df4ce987ba94440d913925dc004a21f28f42269060a00160405180910390a450505050505062000f3560018055565b505050565b62000f4462001776565b620006f160006200181e565b62000f5a62001776565b6001600160a01b038116600081815260056020526040808220805460ff19166001179055517f32a6dcd04455c92a601afd4a2aa0ee840ddab8a4383114e4f00ecf91324329339190a250565b62000fb062001776565b620006f16200186e565b62000fc462001776565b62000fed62000fdb6000546001600160a01b031690565b6001600160a01b038416908362001722565b816001600160a01b03167fe82be315ba1a0d0362d09d5cf59781f214b53a74eb978c35b76ad687099c670c826040516200102991815260200190565b60405180910390a25050565b600060608060608060008060038054905088106200108c5760405162461bcd60e51b8152602060048201526013602482015272496e646578206f7574206f6620626f756e647360681b60448201526064016200019c565b600060038981548110620010a457620010a462001ddf565b6000918252602082206005909102018054604080516306fdde0360e01b815290516001600160a01b039092169b509193508a926306fdde0392600480820193918290030181865afa158015620010fe573d6000803e3d6000fd5b505050506040513d6000823e601f3d908101601f1916820160405262001128919081019062001eb6565b9650876001600160a01b03166395d89b416040518163ffffffff1660e01b8152600401600060405180830381865afa15801562001169573d6000803e3d6000fd5b505050506040513d6000823e601f3d908101601f1916820160405262001193919081019062001eb6565b9550806003018054620011a69062001e21565b80601f0160208091040260200160405190810160405280929190818152602001828054620011d49062001e21565b8015620012255780601f10620011f95761010080835404028352916020019162001225565b820191906000526020600020905b8154815290600101906020018083116200120757829003601f168201915b505050505094508060040180546200123d9062001e21565b80601f01602080910402602001604051908101604052809291908181526020018280546200126b9062001e21565b8015620012bc5780601f106200129057610100808354040283529160200191620012bc565b820191906000526020600020905b8154815290600101906020018083116200129e57829003601f168201915b50505060028401546001909401549a9c999b509799969891975091956001600160a01b0316945092505050565b6000620012f5620016f7565b620012ff620017f9565b836000036200132157604051637294708f60e11b815260040160405180910390fd5b60008b8b8b8b8933898960405162001339906200194e565b6200134c98979695949392919062001f98565b604051809103906000f08015801562001369573d6000803e3d6000fd5b50905080915060036040518060a00160405280846001600160a01b03168152602001336001600160a01b031681526020018781526020018a8a8080601f016020809104026020016040519081016040528093929190818152602001838380828437600092019190915250505090825250604080516020601f8901819004810282018101909252878152918101919088908890819084018382808284376000920182905250939094525050835460018082018655948252602091829020845160059092020180546001600160a01b03199081166001600160a01b039384161782559285015195810180549093169590911694909417905550604081015160028301556060810151909190600382019062001483908262002051565b50608082015160048201906200149a908262002051565b50506003546001600160a01b038416600081815260046020526040908190209290925590513392507f75c1f35492cd2bcb2820d5ff2434b9dc6d19432975f20761140109f0844a7b8a90620014f99089908d908d908b908b906200211e565b60405180910390a3506200150c60018055565b9a9950505050505050505050565b6200152462001776565b80471015620015695760405162461bcd60e51b815260206004820152601060248201526f092dce6eaccccd2c6d2cadce8408aa8960831b60448201526064016200019c565b600080546040516001600160a01b039091169183156108fc02918491818181858888f19350505050158015620015a3573d6000803e3d6000fd5b506000546001600160a01b03166001600160a01b03167fb3579861130e4da8bb7b87c54d2d139937f23bcd6e4ebed9e75d0f78ab1cc11882604051620015eb91815260200190565b60405180910390a250565b6200160062001776565b6001600160a01b0381166200162c57604051631e4fbdf760e01b8152600060048201526024016200019c565b62001637816200181e565b50565b6200164462001776565b6127106200165382846200214f565b61ffff1610620016965760405162461bcd60e51b815260206004820152600d60248201526c08ccacae640e8dede40d0d2ced609b1b60448201526064016200019c565b6006805461ffff84811663ffffffff19909216821762010000918516918202179092556040805191825260208201929092527f2ac80c14c28700f7b5e36f947d572149fe2e3947bac32c3a8c098f3e03722c11910160405180910390a15050565b6002600154036200171b57604051633ee5aeb560e01b815260040160405180910390fd5b6002600155565b604080516001600160a01b038416602482015260448082018490528251808303909101815260649091019091526020810180516001600160e01b031663a9059cbb60e01b17905262000f35908490620018ae565b6000546001600160a01b03163314620006f15760405163118cdaa760e01b81523360048201526024016200019c565b620017af6200192a565b6002805460ff191690557f5db9ee0a495bf2e6ff9c91a7834c1ba4fdd244a5e8aa4e537bd38aeae4b073aa335b6040516001600160a01b03909116815260200160405180910390a1565b60025460ff1615620006f15760405163d93c066560e01b815260040160405180910390fd5b600080546001600160a01b038381166001600160a01b0319831681178455604051919092169283917f8be0079c531659141344cd1fd0a4f28419497f9722a3daafe3b4186f6b6457e09190a35050565b62001878620017f9565b6002805460ff191660011790557f62e78cea01bee320cd4e420270b5ea74000d11b0c9f74754ebdbfc544b05a258620017dc3390565b600080602060008451602086016000885af180620018d2576040513d6000823e3d81fd5b50506000513d91508115620018ec578060011415620018f9565b6001600160a01b0384163b155b156200192457604051635274afe760e01b81526001600160a01b03851660048201526024016200019c565b50505050565b60025460ff16620006f157604051638dfc202b60e01b815260040160405180910390fd5b611a50806200217583390190565b80356001600160a01b03811681146200197457600080fd5b919050565b600080604083850312156200198d57600080fd5b62001998836200195c565b946020939093013593505050565b600060208284031215620019b957600080fd5b620019c4826200195c565b9392505050565b60008060408385031215620019df57600080fd5b50508035926020909101359150565b60005b8381101562001a0b578181015183820152602001620019f1565b50506000910152565b6000815180845262001a2e816020860160208601620019ee565b601f01601f19169290920160200192915050565b60006020808301818452808551808352604092508286019150828160051b87010184880160005b8381101562001af057888303603f19018552815180516001600160a01b039081168552888201511688850152868101518785015260608082015160a0828701819052919062001abb8388018262001a14565b925050506080808301519250858203818701525062001adb818362001a14565b96890196945050509086019060010162001a69565b509098975050505050505050565b60006020828403121562001b1157600080fd5b5035919050565b6001600160a01b038681168252851660208201526040810184905260a06060820181905260009062001b4d9083018562001a14565b828103608084015262001b61818562001a14565b98975050505050505050565b60008060006060848603121562001b8357600080fd5b62001b8e846200195c565b92506020840135915062001ba5604085016200195c565b90509250925092565b600060018060a01b03808a16835260e0602084015262001bd260e084018a62001a14565b838103604085015262001be6818a62001a14565b9050838103606085015262001bfc818962001a14565b9050838103608085015262001c12818862001a14565b60a0850196909652509290921660c0909101525095945050505050565b60008083601f84011262001c4257600080fd5b50813567ffffffffffffffff81111562001c5b57600080fd5b60208301915083602082850101111562001c7457600080fd5b9250929050565b60008060008060008060008060008060c08b8d03121562001c9b57600080fd5b8a3567ffffffffffffffff8082111562001cb457600080fd5b62001cc28e838f0162001c2f565b909c509a5060208d013591508082111562001cdc57600080fd5b62001cea8e838f0162001c2f565b909a50985060408d013591508082111562001d0457600080fd5b62001d128e838f0162001c2f565b909850965060608d0135955060808d0135945060a08d013591508082111562001d3a57600080fd5b5062001d498d828e0162001c2f565b915080935050809150509295989b9194979a5092959850565b803561ffff811681146200197457600080fd5b6000806040838503121562001d8957600080fd5b62001d948362001d62565b915062001da46020840162001d62565b90509250929050565b634e487b7160e01b600052601160045260246000fd5b8181038181111562001dd95762001dd962001dad565b92915050565b634e487b7160e01b600052603260045260246000fd5b8082018082111562001dd95762001dd962001dad565b634e487b7160e01b600052604160045260246000fd5b600181811c9082168062001e3657607f821691505b60208210810362001e5757634e487b7160e01b600052602260045260246000fd5b50919050565b60006001820162001e725762001e7262001dad565b5060010190565b808202811582820484141762001dd95762001dd962001dad565b60008262001eb157634e487b7160e01b600052601260045260246000fd5b500490565b60006020828403121562001ec957600080fd5b815167ffffffffffffffff8082111562001ee257600080fd5b818401915084601f83011262001ef757600080fd5b81518181111562001f0c5762001f0c62001e0b565b604051601f8201601f19908116603f0116810190838211818310171562001f375762001f3762001e0b565b8160405282815287602084870101111562001f5157600080fd5b62001f64836020830160208801620019ee565b979650505050505050565b81835281816020850137506000828201602090810191909152601f909101601f19169091010190565b60a08152600062001fae60a083018a8c62001f6f565b828103602084015262001fc381898b62001f6f565b604084018890526001600160a01b03871660608501528381036080850152905062001ff081858762001f6f565b9b9a5050505050505050505050565b601f82111562000f3557600081815260208120601f850160051c81016020861015620020285750805b601f850160051c820191505b81811015620020495782815560010162002034565b505050505050565b815167ffffffffffffffff8111156200206e576200206e62001e0b565b62002086816200207f845462001e21565b8462001fff565b602080601f831160018114620020be5760008415620020a55750858301515b600019600386901b1c1916600185901b17855562002049565b600085815260208120601f198616915b82811015620020ef57888601518255948401946001909101908401620020ce565b50858210156200210e5787850151600019600388901b60f8161c191681555b5050505050600190811b01905550565b8581526060602082015260006200213a60608301868862001f6f565b828103604084015262001b6181858762001f6f565b61ffff8181168382160190808211156200216d576200216d62001dad565b509291505056fe6101606040523480156200001257600080fd5b5060405162001a5038038062001a50833981016040819052620000359162000598565b338580604051806040016040528060018152602001603160f81b81525088888160039081620000659190620006e4565b506004620000748282620006e4565b50620000869150839050600562000217565b610120526200009781600662000217565b61014052815160208084019190912060e052815190820120610100524660a0526200012560e05161010051604080517f8b73c3c69bb8fe3d512ecc4cf759cc79239f7b179b0ffacaa9a75d522b39400f60208201529081019290925260608201524660808201523060a082015260009060c00160405160208183030381529060405280519060200120905090565b60805250503060c052506001600160a01b0381166200015f57604051631e4fbdf760e01b8152600060048201526024015b60405180910390fd5b6200016a8162000250565b506001600160a01b038216620001935760405163d92e233d60e01b815260040160405180910390fd5b600385511080620001a5575060038451105b15620001c457604051639432241960e01b815260040160405180910390fd5b82600003620001e65760405163c16f3a9360e01b815260040160405180910390fd5b6009620001f48282620006e4565b50620002013384620002a2565b6200020c82620002e0565b50505050506200082c565b600060208351101562000237576200022f8362000324565b90506200024a565b81620002448482620006e4565b5060ff90505b92915050565b600880546001600160a01b038381166001600160a01b0319831681179093556040519116919082907f8be0079c531659141344cd1fd0a4f28419497f9722a3daafe3b4186f6b6457e090600090a35050565b6001600160a01b038216620002ce5760405163ec442f0560e01b81526000600482015260240162000156565b620002dc6000838362000367565b5050565b620002ea6200049a565b6001600160a01b0381166200031657604051631e4fbdf760e01b81526000600482015260240162000156565b620003218162000250565b50565b600080829050601f8151111562000352578260405163305a27a960e01b8152600401620001569190620007b0565b80516200035f82620007e5565b179392505050565b6001600160a01b038316620003965780600260008282546200038a91906200080a565b909155506200040a9050565b6001600160a01b03831660009081526020819052604090205481811015620003eb5760405163391434e360e21b81526001600160a01b0385166004820152602481018290526044810183905260640162000156565b6001600160a01b03841660009081526020819052604090209082900390555b6001600160a01b038216620004285760028054829003905562000447565b6001600160a01b03821660009081526020819052604090208054820190555b816001600160a01b0316836001600160a01b03167fddf252ad1be2c89b69c2b068fc378daa952ba7f163c4a11628f55a4df523b3ef836040516200048d91815260200190565b60405180910390a3505050565b6008546001600160a01b03163314620004c95760405163118cdaa760e01b815233600482015260240162000156565b565b634e487b7160e01b600052604160045260246000fd5b60005b83811015620004fe578181015183820152602001620004e4565b50506000910152565b600082601f8301126200051957600080fd5b81516001600160401b0380821115620005365762000536620004cb565b604051601f8301601f19908116603f01168101908282118183101715620005615762000561620004cb565b816040528381528660208588010111156200057b57600080fd5b6200058e846020830160208901620004e1565b9695505050505050565b600080600080600060a08688031215620005b157600080fd5b85516001600160401b0380821115620005c957600080fd5b620005d789838a0162000507565b96506020880151915080821115620005ee57600080fd5b620005fc89838a0162000507565b604089015160608a0151919750955091506001600160a01b03821682146200062357600080fd5b6080880151919350808211156200063957600080fd5b50620006488882890162000507565b9150509295509295909350565b600181811c908216806200066a57607f821691505b6020821081036200068b57634e487b7160e01b600052602260045260246000fd5b50919050565b601f821115620006df57600081815260208120601f850160051c81016020861015620006ba5750805b601f850160051c820191505b81811015620006db57828155600101620006c6565b5050505b505050565b81516001600160401b03811115620007005762000700620004cb565b620007188162000711845462000655565b8462000691565b602080601f831160018114620007505760008415620007375750858301515b600019600386901b1c1916600185901b178555620006db565b600085815260208120601f198616915b82811015620007815788860151825594840194600190910190840162000760565b5085821015620007a05787850151600019600388901b60f8161c191681555b5050505050600190811b01905550565b6020815260008251806020840152620007d1816040850160208701620004e1565b601f01601f19169190910160400192915050565b805160208083015191908110156200068b5760001960209190910360031b1b16919050565b808201808211156200024a57634e487b7160e01b600052601160045260246000fd5b60805160a05160c05160e0516101005161012051610140516111c9620008876000396000610913015260006108e60152600061080f015260006107e7015260006107420152600061076c0152600061079601526111c96000f3fe608060405234801561001057600080fd5b50600436106101165760003560e01c80637ecebe00116100a2578063a9059cbb11610071578063a9059cbb14610224578063c623674f14610237578063d505accf1461023f578063dd62ed3e14610252578063f2fde38b1461028b57600080fd5b80637ecebe00146101d357806384b0196e146101e65780638da5cb5b1461020157806395d89b411461021c57600080fd5b8063313ce567116100e9578063313ce567146101815780633644e515146101905780633c130d901461019857806370a08231146101a0578063715018a6146101c957600080fd5b806306fdde031461011b578063095ea7b31461013957806318160ddd1461015c57806323b872dd1461016e575b600080fd5b61012361029e565b6040516101309190610e77565b60405180910390f35b61014c610147366004610ead565b610330565b6040519015158152602001610130565b6002545b604051908152602001610130565b61014c61017c366004610ed7565b61034a565b60405160128152602001610130565b61016061036e565b61012361037d565b6101606101ae366004610f13565b6001600160a01b031660009081526020819052604090205490565b6101d16103a5565b005b6101606101e1366004610f13565b6103b9565b6101ee6103d7565b6040516101309796959493929190610f2e565b6008546040516001600160a01b039091168152602001610130565b61012361041d565b61014c610232366004610ead565b61042c565b61012361043a565b6101d161024d366004610fc4565b6104c8565b610160610260366004611037565b6001600160a01b03918216600090815260016020908152604080832093909416825291909152205490565b6101d1610299366004610f13565b610607565b6060600380546102ad9061106a565b80601f01602080910402602001604051908101604052809291908181526020018280546102d99061106a565b80156103265780601f106102fb57610100808354040283529160200191610326565b820191906000526020600020905b81548152906001019060200180831161030957829003601f168201915b5050505050905090565b60003361033e818585610645565b60019150505b92915050565b600033610358858285610657565b6103638585856106d6565b506001949350505050565b6000610378610735565b905090565b6060600960405160200161039191906110a4565b604051602081830303815290604052905090565b6103ad610860565b6103b7600061088d565b565b6001600160a01b038116600090815260076020526040812054610344565b6000606080600080600060606103eb6108df565b6103f361090c565b60408051600080825260208201909252600f60f81b9b939a50919850469750309650945092509050565b6060600480546102ad9061106a565b60003361033e8185856106d6565b600980546104479061106a565b80601f01602080910402602001604051908101604052809291908181526020018280546104739061106a565b80156104c05780601f10610495576101008083540402835291602001916104c0565b820191906000526020600020905b8154815290600101906020018083116104a357829003601f168201915b505050505081565b834211156104f15760405163313c898160e11b8152600481018590526024015b60405180910390fd5b60007f6e71edae12b1b97f4d1f60370fef10105fa2faae0126114a169c64845d6126c988888861053e8c6001600160a01b0316600090815260076020526040902080546001810190915590565b6040805160208101969096526001600160a01b0394851690860152929091166060840152608083015260a082015260c0810186905260e001604051602081830303815290604052805190602001209050600061059982610939565b905060006105a982878787610966565b9050896001600160a01b0316816001600160a01b0316146105f0576040516325c0072360e11b81526001600160a01b0380831660048301528b1660248201526044016104e8565b6105fb8a8a8a610645565b50505050505050505050565b61060f610860565b6001600160a01b03811661063957604051631e4fbdf760e01b8152600060048201526024016104e8565b6106428161088d565b50565b6106528383836001610994565b505050565b6001600160a01b038381166000908152600160209081526040808320938616835292905220546000198110156106d057818110156106c157604051637dc7a0d960e11b81526001600160a01b038416600482015260248101829052604481018390526064016104e8565b6106d084848484036000610994565b50505050565b6001600160a01b03831661070057604051634b637e8f60e11b8152600060048201526024016104e8565b6001600160a01b03821661072a5760405163ec442f0560e01b8152600060048201526024016104e8565b610652838383610a69565b6000306001600160a01b037f00000000000000000000000000000000000000000000000000000000000000001614801561078e57507f000000000000000000000000000000000000000000000000000000000000000046145b156107b857507f000000000000000000000000000000000000000000000000000000000000000090565b610378604080517f8b73c3c69bb8fe3d512ecc4cf759cc79239f7b179b0ffacaa9a75d522b39400f60208201527f0000000000000000000000000000000000000000000000000000000000000000918101919091527f000000000000000000000000000000000000000000000000000000000000000060608201524660808201523060a082015260009060c00160405160208183030381529060405280519060200120905090565b6008546001600160a01b031633146103b75760405163118cdaa760e01b81523360048201526024016104e8565b600880546001600160a01b038381166001600160a01b0319831681179093556040519116919082907f8be0079c531659141344cd1fd0a4f28419497f9722a3daafe3b4186f6b6457e090600090a35050565b60606103787f00000000000000000000000000000000000000000000000000000000000000006005610b93565b60606103787f00000000000000000000000000000000000000000000000000000000000000006006610b93565b6000610344610946610735565b8360405161190160f01b8152600281019290925260228201526042902090565b60008060008061097888888888610c3e565b9250925092506109888282610d0d565b50909695505050505050565b6001600160a01b0384166109be5760405163e602df0560e01b8152600060048201526024016104e8565b6001600160a01b0383166109e857604051634a1406b160e11b8152600060048201526024016104e8565b6001600160a01b03808516600090815260016020908152604080832093871683529290522082905580156106d057826001600160a01b0316846001600160a01b03167f8c5be1e5ebec7d5bd14f71427d1e84f3dd0314c0f7b2291e5b200ac8c7c3b92584604051610a5b91815260200190565b60405180910390a350505050565b6001600160a01b038316610a94578060026000828254610a89919061115c565b90915550610b069050565b6001600160a01b03831660009081526020819052604090205481811015610ae75760405163391434e360e21b81526001600160a01b038516600482015260248101829052604481018390526064016104e8565b6001600160a01b03841660009081526020819052604090209082900390555b6001600160a01b038216610b2257600280548290039055610b41565b6001600160a01b03821660009081526020819052604090208054820190555b816001600160a01b0316836001600160a01b03167fddf252ad1be2c89b69c2b068fc378daa952ba7f163c4a11628f55a4df523b3ef83604051610b8691815260200190565b60405180910390a3505050565b606060ff8314610bad57610ba683610dca565b9050610344565b818054610bb99061106a565b80601f0160208091040260200160405190810160405280929190818152602001828054610be59061106a565b8015610c325780601f10610c0757610100808354040283529160200191610c32565b820191906000526020600020905b815481529060010190602001808311610c1557829003601f168201915b50505050509050610344565b600080807f7fffffffffffffffffffffffffffffff5d576e7357a4501ddfe92f46681b20a0841115610c795750600091506003905082610d03565b604080516000808252602082018084528a905260ff891692820192909252606081018790526080810186905260019060a0016020604051602081039080840390855afa158015610ccd573d6000803e3d6000fd5b5050604051601f1901519150506001600160a01b038116610cf957506000925060019150829050610d03565b9250600091508190505b9450945094915050565b6000826003811115610d2157610d2161117d565b03610d2a575050565b6001826003811115610d3e57610d3e61117d565b03610d5c5760405163f645eedf60e01b815260040160405180910390fd5b6002826003811115610d7057610d7061117d565b03610d915760405163fce698f760e01b8152600481018290526024016104e8565b6003826003811115610da557610da561117d565b03610dc6576040516335e2f38360e21b8152600481018290526024016104e8565b5050565b60606000610dd783610e09565b604080516020808252818301909252919250600091906020820181803683375050509182525060208101929092525090565b600060ff8216601f81111561034457604051632cd44ac360e21b815260040160405180910390fd5b6000815180845260005b81811015610e5757602081850181015186830182015201610e3b565b506000602082860101526020601f19601f83011685010191505092915050565b602081526000610e8a6020830184610e31565b9392505050565b80356001600160a01b0381168114610ea857600080fd5b919050565b60008060408385031215610ec057600080fd5b610ec983610e91565b946020939093013593505050565b600080600060608486031215610eec57600080fd5b610ef584610e91565b9250610f0360208501610e91565b9150604084013590509250925092565b600060208284031215610f2557600080fd5b610e8a82610e91565b60ff60f81b881681526000602060e081840152610f4e60e084018a610e31565b8381036040850152610f60818a610e31565b606085018990526001600160a01b038816608086015260a0850187905284810360c0860152855180825283870192509083019060005b81811015610fb257835183529284019291840191600101610f96565b50909c9b505050505050505050505050565b600080600080600080600060e0888a031215610fdf57600080fd5b610fe888610e91565b9650610ff660208901610e91565b95506040880135945060608801359350608088013560ff8116811461101a57600080fd5b9699959850939692959460a0840135945060c09093013592915050565b6000806040838503121561104a57600080fd5b61105383610e91565b915061106160208401610e91565b90509250929050565b600181811c9082168061107e57607f821691505b60208210810361109e57634e487b7160e01b600052602260045260246000fd5b50919050565b66697066733a2f2f60c81b8152600060076000845481600182811c9150808316806110d057607f831692505b602080841082036110ef57634e487b7160e01b86526022600452602486fd5b818015611103576001811461111c5761114d565b60ff1986168a89015284151585028a018801965061114d565b60008b81526020902060005b868110156111435781548c82018b0152908501908301611128565b505087858b010196505b50949998505050505050505050565b8082018082111561034457634e487b7160e01b600052601160045260246000fd5b634e487b7160e01b600052602160045260246000fdfea2646970667358221220360c70b11b00375decee0665a1206bf9cff285381b8d2f9f357b6d3790e9562164736f6c63430008140033a2646970667358221220eafd42fc40c3b232a8dc1edec4dc14ba173591795bb91ad43a20ac7731bfbff264736f6c63430008140033","opcodes":"PUSH1 0x80 PUSH1 0x40 MSTORE CALLVALUE DUP1 ISZERO PUSH3 0x11 JUMPI PUSH1 0x0 DUP1 REVERT JUMPDEST POP PUSH1 0x40 MLOAD PUSH3 0x3DC5 CODESIZE SUB DUP1 PUSH3 0x3DC5 DUP4 CODECOPY DUP2 ADD PUSH1 0x40 DUP2 SWAP1 MSTORE PUSH3 0x34 SWAP2 PUSH3 0x152 JUMP JUMPDEST CALLER DUP1 PUSH3 0x5C JUMPI PUSH1 0x40 MLOAD PUSH4 0x1E4FBDF7 PUSH1 0xE0 SHL DUP2 MSTORE PUSH1 0x0 PUSH1 0x4 DUP3 ADD MSTORE PUSH1 0x24 ADD JUMPDEST PUSH1 0x40 MLOAD DUP1 SWAP2 SUB SWAP1 REVERT JUMPDEST PUSH3 0x67 DUP2 PUSH3 0xEA JUMP JUMPDEST POP PUSH1 0x1 DUP1 SSTORE PUSH2 0x2710 PUSH3 0x7B DUP3 DUP5 PUSH3 0x18A JUMP JUMPDEST PUSH2 0xFFFF AND LT PUSH3 0xBE JUMPI PUSH1 0x40 MLOAD PUSH3 0x461BCD PUSH1 0xE5 SHL DUP2 MSTORE PUSH1 0x20 PUSH1 0x4 DUP3 ADD MSTORE PUSH1 0xD PUSH1 0x24 DUP3 ADD MSTORE PUSH13 0x8CCACAE640E8DEDE40D0D2CED PUSH1 0x9B SHL PUSH1 0x44 DUP3 ADD MSTORE PUSH1 0x64 ADD PUSH3 0x53 JUMP JUMPDEST PUSH1 0x6 DUP1 SLOAD PUSH2 0xFFFF SWAP3 DUP4 AND PUSH3 0x10000 MUL PUSH4 0xFFFFFFFF NOT SWAP1 SWAP2 AND SWAP3 SWAP1 SWAP4 AND SWAP2 SWAP1 SWAP2 OR SWAP2 SWAP1 SWAP2 OR SWAP1 SSTORE PUSH3 0x1BB JUMP JUMPDEST PUSH1 0x0 DUP1 SLOAD PUSH1 0x1 PUSH1 0x1 PUSH1 0xA0 SHL SUB DUP4 DUP2 AND PUSH1 0x1 PUSH1 0x1 PUSH1 0xA0 SHL SUB NOT DUP4 AND DUP2 OR DUP5 SSTORE PUSH1 0x40 MLOAD SWAP2 SWAP1 SWAP3 AND SWAP3 DUP4 SWAP2 PUSH32 0x8BE0079C531659141344CD1FD0A4F28419497F9722A3DAAFE3B4186F6B6457E0 SWAP2 SWAP1 LOG3 POP POP JUMP JUMPDEST DUP1 MLOAD PUSH2 0xFFFF DUP2 AND DUP2 EQ PUSH3 0x14D JUMPI PUSH1 0x0 DUP1 REVERT JUMPDEST SWAP2 SWAP1 POP JUMP JUMPDEST PUSH1 0x0 DUP1 PUSH1 0x40 DUP4 DUP6 SUB SLT ISZERO PUSH3 0x166 JUMPI PUSH1 0x0 DUP1 REVERT JUMPDEST PUSH3 0x171 DUP4 PUSH3 0x13A JUMP JUMPDEST SWAP2 POP PUSH3 0x181 PUSH1 0x20 DUP5 ADD PUSH3 0x13A JUMP JUMPDEST SWAP1 POP SWAP3 POP SWAP3 SWAP1 POP JUMP JUMPDEST PUSH2 0xFFFF DUP2 DUP2 AND DUP4 DUP3 AND ADD SWAP1 DUP1 DUP3 GT ISZERO PUSH3 0x1B4 JUMPI PUSH4 0x4E487B71 PUSH1 0xE0 SHL PUSH1 0x0 MSTORE PUSH1 0x11 PUSH1 0x4 MSTORE PUSH1 0x24 PUSH1 0x0 REVERT JUMPDEST POP SWAP3 SWAP2 POP POP JUMP JUMPDEST PUSH2 0x3BFA DUP1 PUSH3 0x1CB PUSH1 0x0 CODECOPY PUSH1 0x0 RETURN INVALID PUSH1 0x80 PUSH1 0x40 MSTORE PUSH1 0x4 CALLDATASIZE LT PUSH3 0x163 JUMPI PUSH1 0x0 CALLDATALOAD PUSH1 0xE0 SHR DUP1 PUSH4 0x7E1C0C09 GT PUSH3 0xC7 JUMPI DUP1 PUSH4 0xD634B419 GT PUSH3 0x79 JUMPI DUP1 PUSH4 0xD634B419 EQ PUSH3 0x486 JUMPI DUP1 PUSH4 0xDC4EC9BE EQ PUSH3 0x4AB JUMPI DUP1 PUSH4 0xF14210A6 EQ PUSH3 0x4E2 JUMPI DUP1 PUSH4 0xF2FDE38B EQ PUSH3 0x507 JUMPI DUP1 PUSH4 0xF3D2350E EQ PUSH3 0x52C JUMPI DUP1 PUSH4 0xFF96092A EQ PUSH3 0x551 JUMPI PUSH3 0x1A5 JUMP JUMPDEST DUP1 PUSH4 0x7E1C0C09 EQ PUSH3 0x390 JUMPI DUP1 PUSH4 0x8456CB59 EQ PUSH3 0x3A7 JUMPI DUP1 PUSH4 0x8995881D EQ PUSH3 0x3BF JUMPI DUP1 PUSH4 0x8CD4426D EQ PUSH3 0x3F3 JUMPI DUP1 PUSH4 0x8DA5CB5B EQ PUSH3 0x418 JUMPI DUP1 PUSH4 0xC1E03728 EQ PUSH3 0x44C JUMPI PUSH3 0x1A5 JUMP JUMPDEST DUP1 PUSH4 0x494CFC6C GT PUSH3 0x121 JUMPI DUP1 PUSH4 0x494CFC6C EQ PUSH3 0x2AA JUMPI DUP1 PUSH4 0x5C975ABB EQ PUSH3 0x2DE JUMPI DUP1 PUSH4 0x634282AF EQ PUSH3 0x304 JUMPI DUP1 PUSH4 0x692BF4A8 EQ PUSH3 0x33C JUMPI DUP1 PUSH4 0x715018A6 EQ PUSH3 0x353 JUMPI DUP1 PUSH4 0x7C41AD2C EQ PUSH3 0x36B JUMPI PUSH3 0x1A5 JUMP JUMPDEST DUP1 PUSH4 0xE3F0CFC EQ PUSH3 0x1DD JUMPI DUP1 PUSH4 0x35A62E68 EQ PUSH3 0x204 JUMPI DUP1 PUSH4 0x3B3BFF0F EQ PUSH3 0x248 JUMPI DUP1 PUSH4 0x3F4BA83A EQ PUSH3 0x26D JUMPI DUP1 PUSH4 0x457972DE EQ PUSH3 0x285 JUMPI PUSH3 0x1A5 JUMP JUMPDEST CALLDATASIZE PUSH3 0x1A5 JUMPI PUSH1 0x40 MLOAD PUSH3 0x461BCD PUSH1 0xE5 SHL DUP2 MSTORE PUSH1 0x20 PUSH1 0x4 DUP3 ADD MSTORE PUSH1 0xC PUSH1 0x24 DUP3 ADD MSTORE PUSH12 0x2AB9B290313ABCAA37B5B2B7 PUSH1 0xA1 SHL PUSH1 0x44 DUP3 ADD MSTORE PUSH1 0x64 ADD JUMPDEST PUSH1 0x40 MLOAD DUP1 SWAP2 SUB SWAP1 REVERT JUMPDEST PUSH1 0x40 MLOAD PUSH3 0x461BCD PUSH1 0xE5 SHL DUP2 MSTORE PUSH1 0x20 PUSH1 0x4 DUP3 ADD MSTORE PUSH1 0xC PUSH1 0x24 DUP3 ADD MSTORE PUSH12 0x2AB9B290313ABCAA37B5B2B7 PUSH1 0xA1 SHL PUSH1 0x44 DUP3 ADD MSTORE PUSH1 0x64 ADD PUSH3 0x19C JUMP JUMPDEST CALLVALUE DUP1 ISZERO PUSH3 0x1EA JUMPI PUSH1 0x0 DUP1 REVERT JUMPDEST POP PUSH3 0x202 PUSH3 0x1FC CALLDATASIZE PUSH1 0x4 PUSH3 0x1979 JUMP JUMPDEST PUSH3 0x56E JUMP JUMPDEST STOP JUMPDEST CALLVALUE DUP1 ISZERO PUSH3 0x211 JUMPI PUSH1 0x0 DUP1 REVERT JUMPDEST POP PUSH3 0x235 PUSH3 0x223 CALLDATASIZE PUSH1 0x4 PUSH3 0x19A6 JUMP JUMPDEST PUSH1 0x4 PUSH1 0x20 MSTORE PUSH1 0x0 SWAP1 DUP2 MSTORE PUSH1 0x40 SWAP1 KECCAK256 SLOAD DUP2 JUMP JUMPDEST PUSH1 0x40 MLOAD SWAP1 DUP2 MSTORE PUSH1 0x20 ADD JUMPDEST PUSH1 0x40 MLOAD DUP1 SWAP2 SUB SWAP1 RETURN JUMPDEST CALLVALUE DUP1 ISZERO PUSH3 0x255 JUMPI PUSH1 0x0 DUP1 REVERT JUMPDEST POP PUSH3 0x202 PUSH3 0x267 CALLDATASIZE PUSH1 0x4 PUSH3 0x19A6 JUMP JUMPDEST PUSH3 0x68A JUMP JUMPDEST CALLVALUE DUP1 ISZERO PUSH3 0x27A JUMPI PUSH1 0x0 DUP1 REVERT JUMPDEST POP PUSH3 0x202 PUSH3 0x6DD JUMP JUMPDEST CALLVALUE DUP1 ISZERO PUSH3 0x292 JUMPI PUSH1 0x0 DUP1 REVERT JUMPDEST POP PUSH3 0x202 PUSH3 0x2A4 CALLDATASIZE PUSH1 0x4 PUSH3 0x1979 JUMP JUMPDEST PUSH3 0x6F3 JUMP JUMPDEST CALLVALUE DUP1 ISZERO PUSH3 0x2B7 JUMPI PUSH1 0x0 DUP1 REVERT JUMPDEST POP PUSH3 0x2CF PUSH3 0x2C9 CALLDATASIZE PUSH1 0x4 PUSH3 0x19CB JUMP JUMPDEST PUSH3 0x824 JUMP JUMPDEST PUSH1 0x40 MLOAD PUSH3 0x23F SWAP2 SWAP1 PUSH3 0x1A42 JUMP JUMPDEST CALLVALUE DUP1 ISZERO PUSH3 0x2EB JUMPI PUSH1 0x0 DUP1 REVERT JUMPDEST POP PUSH1 0x2 SLOAD PUSH1 0xFF AND JUMPDEST PUSH1 0x40 MLOAD SWAP1 ISZERO ISZERO DUP2 MSTORE PUSH1 0x20 ADD PUSH3 0x23F JUMP JUMPDEST CALLVALUE DUP1 ISZERO PUSH3 0x311 JUMPI PUSH1 0x0 DUP1 REVERT JUMPDEST POP PUSH3 0x329 PUSH3 0x323 CALLDATASIZE PUSH1 0x4 PUSH3 0x1AFE JUMP JUMPDEST PUSH3 0xAC4 JUMP JUMPDEST PUSH1 0x40 MLOAD PUSH3 0x23F SWAP6 SWAP5 SWAP4 SWAP3 SWAP2 SWAP1 PUSH3 0x1B18 JUMP JUMPDEST PUSH3 0x202 PUSH3 0x34D CALLDATASIZE PUSH1 0x4 PUSH3 0x1B6D JUMP JUMPDEST PUSH3 0xC37 JUMP JUMPDEST CALLVALUE DUP1 ISZERO PUSH3 0x360 JUMPI PUSH1 0x0 DUP1 REVERT JUMPDEST POP PUSH3 0x202 PUSH3 0xF3A JUMP JUMPDEST CALLVALUE DUP1 ISZERO PUSH3 0x378 JUMPI PUSH1 0x0 DUP1 REVERT JUMPDEST POP PUSH3 0x202 PUSH3 0x38A CALLDATASIZE PUSH1 0x4 PUSH3 0x19A6 JUMP JUMPDEST PUSH3 0xF50 JUMP JUMPDEST CALLVALUE DUP1 ISZERO PUSH3 0x39D JUMPI PUSH1 0x0 DUP1 REVERT JUMPDEST POP PUSH1 0x3 SLOAD PUSH3 0x235 JUMP JUMPDEST CALLVALUE DUP1 ISZERO PUSH3 0x3B4 JUMPI PUSH1 0x0 DUP1 REVERT JUMPDEST POP PUSH3 0x202 PUSH3 0xFA6 JUMP JUMPDEST CALLVALUE DUP1 ISZERO PUSH3 0x3CC JUMPI PUSH1 0x0 DUP1 REVERT JUMPDEST POP PUSH3 0x2F3 PUSH3 0x3DE CALLDATASIZE PUSH1 0x4 PUSH3 0x19A6 JUMP JUMPDEST PUSH1 0x5 PUSH1 0x20 MSTORE PUSH1 0x0 SWAP1 DUP2 MSTORE PUSH1 0x40 SWAP1 KECCAK256 SLOAD PUSH1 0xFF AND DUP2 JUMP JUMPDEST CALLVALUE DUP1 ISZERO PUSH3 0x400 JUMPI PUSH1 0x0 DUP1 REVERT JUMPDEST POP PUSH3 0x202 PUSH3 0x412 CALLDATASIZE PUSH1 0x4 PUSH3 0x1979 JUMP JUMPDEST PUSH3 0xFBA JUMP JUMPDEST CALLVALUE DUP1 ISZERO PUSH3 0x425 JUMPI PUSH1 0x0 DUP1 REVERT JUMPDEST POP PUSH1 0x0 SLOAD PUSH1 0x1 PUSH1 0x1 PUSH1 0xA0 SHL SUB AND JUMPDEST PUSH1 0x40 MLOAD PUSH1 0x1 PUSH1 0x1 PUSH1 0xA0 SHL SUB SWAP1 SWAP2 AND DUP2 MSTORE PUSH1 0x20 ADD PUSH3 0x23F JUMP JUMPDEST CALLVALUE DUP1 ISZERO PUSH3 0x459 JUMPI PUSH1 0x0 DUP1 REVERT JUMPDEST POP PUSH3 0x471 PUSH3 0x46B CALLDATASIZE PUSH1 0x4 PUSH3 0x1AFE JUMP JUMPDEST PUSH3 0x1035 JUMP JUMPDEST PUSH1 0x40 MLOAD PUSH3 0x23F SWAP8 SWAP7 SWAP6 SWAP5 SWAP4 SWAP3 SWAP2 SWAP1 PUSH3 0x1BAE JUMP JUMPDEST CALLVALUE DUP1 ISZERO PUSH3 0x493 JUMPI PUSH1 0x0 DUP1 REVERT JUMPDEST POP PUSH3 0x433 PUSH3 0x4A5 CALLDATASIZE PUSH1 0x4 PUSH3 0x1C7B JUMP JUMPDEST PUSH3 0x12E9 JUMP JUMPDEST CALLVALUE DUP1 ISZERO PUSH3 0x4B8 JUMPI PUSH1 0x0 DUP1 REVERT JUMPDEST POP PUSH1 0x6 SLOAD PUSH3 0x4CE SWAP1 PUSH3 0x10000 SWAP1 DIV PUSH2 0xFFFF AND DUP2 JUMP JUMPDEST PUSH1 0x40 MLOAD PUSH2 0xFFFF SWAP1 SWAP2 AND DUP2 MSTORE PUSH1 0x20 ADD PUSH3 0x23F JUMP JUMPDEST CALLVALUE DUP1 ISZERO PUSH3 0x4EF JUMPI PUSH1 0x0 DUP1 REVERT JUMPDEST POP PUSH3 0x202 PUSH3 0x501 CALLDATASIZE PUSH1 0x4 PUSH3 0x1AFE JUMP JUMPDEST PUSH3 0x151A JUMP JUMPDEST CALLVALUE DUP1 ISZERO PUSH3 0x514 JUMPI PUSH1 0x0 DUP1 REVERT JUMPDEST POP PUSH3 0x202 PUSH3 0x526 CALLDATASIZE PUSH1 0x4 PUSH3 0x19A6 JUMP JUMPDEST PUSH3 0x15F6 JUMP JUMPDEST CALLVALUE DUP1 ISZERO PUSH3 0x539 JUMPI PUSH1 0x0 DUP1 REVERT JUMPDEST POP PUSH3 0x202 PUSH3 0x54B CALLDATASIZE PUSH1 0x4 PUSH3 0x1D75 JUMP JUMPDEST PUSH3 0x163A JUMP JUMPDEST CALLVALUE DUP1 ISZERO PUSH3 0x55E JUMPI PUSH1 0x0 DUP1 REVERT JUMPDEST POP PUSH1 0x6 SLOAD PUSH3 0x4CE SWAP1 PUSH2 0xFFFF AND DUP2 JUMP JUMPDEST PUSH3 0x578 PUSH3 0x16F7 JUMP JUMPDEST PUSH1 0x1 PUSH1 0x1 PUSH1 0xA0 SHL SUB DUP3 AND PUSH1 0x0 SWAP1 DUP2 MSTORE PUSH1 0x4 PUSH1 0x20 MSTORE PUSH1 0x40 DUP2 KECCAK256 SLOAD SWAP1 DUP2 SWAP1 SUB PUSH3 0x5B3 JUMPI PUSH1 0x40 MLOAD PUSH4 0x8DDA39DF PUSH1 0xE0 SHL DUP2 MSTORE PUSH1 0x4 ADD PUSH1 0x40 MLOAD DUP1 SWAP2 SUB SWAP1 REVERT JUMPDEST PUSH1 0x0 PUSH1 0x3 PUSH3 0x5C4 PUSH1 0x1 DUP5 PUSH3 0x1DC3 JUMP JUMPDEST DUP2 SLOAD DUP2 LT PUSH3 0x5D7 JUMPI PUSH3 0x5D7 PUSH3 0x1DDF JUMP JUMPDEST PUSH1 0x0 SWAP2 DUP3 MSTORE PUSH1 0x20 SWAP1 SWAP2 KECCAK256 PUSH1 0x5 SWAP1 SWAP2 MUL ADD PUSH1 0x1 DUP2 ADD SLOAD SWAP1 SWAP2 POP PUSH1 0x1 PUSH1 0x1 PUSH1 0xA0 SHL SUB AND CALLER EQ PUSH3 0x618 JUMPI PUSH1 0x40 MLOAD PUSH4 0xEA8E4EB5 PUSH1 0xE0 SHL DUP2 MSTORE PUSH1 0x4 ADD PUSH1 0x40 MLOAD DUP1 SWAP2 SUB SWAP1 REVERT JUMPDEST PUSH1 0x1 DUP2 ADD SLOAD PUSH3 0x636 SWAP1 PUSH1 0x1 PUSH1 0x1 PUSH1 0xA0 SHL SUB DUP7 DUP2 AND SWAP2 AND DUP6 PUSH3 0x1722 JUMP JUMPDEST DUP4 PUSH1 0x1 PUSH1 0x1 PUSH1 0xA0 SHL SUB AND PUSH32 0xB42C9FECFB68F9BF84886F05B85865BE2FDA69A3EC869651D1320D8F528BE6BB DUP5 PUSH1 0x40 MLOAD PUSH3 0x672 SWAP2 DUP2 MSTORE PUSH1 0x20 ADD SWAP1 JUMP JUMPDEST PUSH1 0x40 MLOAD DUP1 SWAP2 SUB SWAP1 LOG2 POP POP PUSH3 0x686 PUSH1 0x1 DUP1 SSTORE JUMP JUMPDEST POP POP JUMP JUMPDEST PUSH3 0x694 PUSH3 0x1776 JUMP JUMPDEST PUSH1 0x1 PUSH1 0x1 PUSH1 0xA0 SHL SUB DUP2 AND PUSH1 0x0 DUP2 DUP2 MSTORE PUSH1 0x5 PUSH1 0x20 MSTORE PUSH1 0x40 DUP1 DUP3 KECCAK256 DUP1 SLOAD PUSH1 0xFF NOT AND SWAP1 SSTORE MLOAD PUSH32 0x7236530905F7DB97A79E0D447EDB198EFA7CC11D321386A4BC4F01C9DCAEF73D SWAP2 SWAP1 LOG2 POP JUMP JUMPDEST PUSH3 0x6E7 PUSH3 0x1776 JUMP JUMPDEST PUSH3 0x6F1 PUSH3 0x17A5 JUMP JUMPDEST JUMP JUMPDEST PUSH3 0x6FD PUSH3 0x17F9 JUMP JUMPDEST DUP1 PUSH1 0x0 SUB PUSH3 0x71F JUMPI PUSH1 0x40 MLOAD PUSH4 0x7294708F PUSH1 0xE1 SHL DUP2 MSTORE PUSH1 0x4 ADD PUSH1 0x40 MLOAD DUP1 SWAP2 SUB SWAP1 REVERT JUMPDEST PUSH1 0x1 PUSH1 0x1 PUSH1 0xA0 SHL SUB DUP3 AND PUSH1 0x0 SWAP1 DUP2 MSTORE PUSH1 0x4 PUSH1 0x20 MSTORE PUSH1 0x40 DUP2 KECCAK256 SLOAD SWAP1 DUP2 SWAP1 SUB PUSH3 0x75A JUMPI PUSH1 0x40 MLOAD PUSH4 0x8DDA39DF PUSH1 0xE0 SHL DUP2 MSTORE PUSH1 0x4 ADD PUSH1 0x40 MLOAD DUP1 SWAP2 SUB SWAP1 REVERT JUMPDEST PUSH1 0x0 PUSH1 0x3 PUSH3 0x76B PUSH1 0x1 DUP5 PUSH3 0x1DC3 JUMP JUMPDEST DUP2 SLOAD DUP2 LT PUSH3 0x77E JUMPI PUSH3 0x77E PUSH3 0x1DDF JUMP JUMPDEST PUSH1 0x0 SWAP2 DUP3 MSTORE PUSH1 0x20 SWAP1 SWAP2 KECCAK256 PUSH1 0x5 SWAP1 SWAP2 MUL ADD PUSH1 0x1 DUP2 ADD SLOAD SWAP1 SWAP2 POP PUSH1 0x1 PUSH1 0x1 PUSH1 0xA0 SHL SUB AND CALLER EQ DUP1 ISZERO SWAP1 PUSH3 0x7BA JUMPI POP PUSH1 0x0 SLOAD PUSH1 0x1 PUSH1 0x1 PUSH1 0xA0 SHL SUB AND CALLER EQ ISZERO JUMPDEST ISZERO PUSH3 0x7D9 JUMPI PUSH1 0x40 MLOAD PUSH4 0xEA8E4EB5 PUSH1 0xE0 SHL DUP2 MSTORE PUSH1 0x4 ADD PUSH1 0x40 MLOAD DUP1 SWAP2 SUB SWAP1 REVERT JUMPDEST PUSH1 0x2 DUP2 ADD DUP4 SWAP1 SSTORE PUSH1 0x40 MLOAD DUP4 DUP2 MSTORE PUSH1 0x1 PUSH1 0x1 PUSH1 0xA0 SHL SUB DUP6 AND SWAP1 PUSH32 0xD86730737B142FC160892FA8A0F2DB687A92A0E294D1AD70624CF5ACEF03B84 SWAP1 PUSH1 0x20 ADD PUSH1 0x40 MLOAD DUP1 SWAP2 SUB SWAP1 LOG2 POP POP POP POP JUMP JUMPDEST PUSH1 0x3 SLOAD PUSH1 0x60 SWAP1 PUSH1 0x0 DUP2 PUSH3 0x839 DUP6 DUP8 PUSH3 0x1DF5 JUMP JUMPDEST GT PUSH3 0x851 JUMPI PUSH3 0x84B DUP5 DUP7 PUSH3 0x1DF5 JUMP JUMPDEST PUSH3 0x853 JUMP JUMPDEST DUP2 JUMPDEST SWAP1 POP PUSH3 0x861 DUP6 DUP3 PUSH3 0x1DC3 JUMP JUMPDEST PUSH8 0xFFFFFFFFFFFFFFFF DUP2 GT ISZERO PUSH3 0x87C JUMPI PUSH3 0x87C PUSH3 0x1E0B JUMP JUMPDEST PUSH1 0x40 MLOAD SWAP1 DUP1 DUP3 MSTORE DUP1 PUSH1 0x20 MUL PUSH1 0x20 ADD DUP3 ADD PUSH1 0x40 MSTORE DUP1 ISZERO PUSH3 0x8D6 JUMPI DUP2 PUSH1 0x20 ADD JUMPDEST PUSH1 0x40 DUP1 MLOAD PUSH1 0xA0 DUP2 ADD DUP3 MSTORE PUSH1 0x0 DUP1 DUP3 MSTORE PUSH1 0x20 DUP1 DUP4 ADD DUP3 SWAP1 MSTORE SWAP3 DUP3 ADD MSTORE PUSH1 0x60 DUP1 DUP3 ADD DUP2 SWAP1 MSTORE PUSH1 0x80 DUP3 ADD MSTORE DUP3 MSTORE PUSH1 0x0 NOT SWAP1 SWAP3 ADD SWAP2 ADD DUP2 PUSH3 0x89B JUMPI SWAP1 POP JUMPDEST POP SWAP3 POP DUP5 JUMPDEST DUP2 DUP2 LT ISZERO PUSH3 0xABB JUMPI PUSH1 0x3 DUP2 DUP2 SLOAD DUP2 LT PUSH3 0x8FA JUMPI PUSH3 0x8FA PUSH3 0x1DDF JUMP JUMPDEST PUSH1 0x0 SWAP2 DUP3 MSTORE PUSH1 0x20 SWAP2 DUP3 SWAP1 KECCAK256 PUSH1 0x40 DUP1 MLOAD PUSH1 0xA0 DUP2 ADD DUP3 MSTORE PUSH1 0x5 SWAP1 SWAP4 MUL SWAP1 SWAP2 ADD DUP1 SLOAD PUSH1 0x1 PUSH1 0x1 PUSH1 0xA0 SHL SUB SWAP1 DUP2 AND DUP5 MSTORE PUSH1 0x1 DUP3 ADD SLOAD AND SWAP4 DUP4 ADD SWAP4 SWAP1 SWAP4 MSTORE PUSH1 0x2 DUP4 ADD SLOAD SWAP1 DUP3 ADD MSTORE PUSH1 0x3 DUP3 ADD DUP1 SLOAD SWAP2 SWAP3 SWAP2 PUSH1 0x60 DUP5 ADD SWAP2 SWAP1 PUSH3 0x956 SWAP1 PUSH3 0x1E21 JUMP JUMPDEST DUP1 PUSH1 0x1F ADD PUSH1 0x20 DUP1 SWAP2 DIV MUL PUSH1 0x20 ADD PUSH1 0x40 MLOAD SWAP1 DUP2 ADD PUSH1 0x40 MSTORE DUP1 SWAP3 SWAP2 SWAP1 DUP2 DUP2 MSTORE PUSH1 0x20 ADD DUP3 DUP1 SLOAD PUSH3 0x984 SWAP1 PUSH3 0x1E21 JUMP JUMPDEST DUP1 ISZERO PUSH3 0x9D5 JUMPI DUP1 PUSH1 0x1F LT PUSH3 0x9A9 JUMPI PUSH2 0x100 DUP1 DUP4 SLOAD DIV MUL DUP4 MSTORE SWAP2 PUSH1 0x20 ADD SWAP2 PUSH3 0x9D5 JUMP JUMPDEST DUP3 ADD SWAP2 SWAP1 PUSH1 0x0 MSTORE PUSH1 0x20 PUSH1 0x0 KECCAK256 SWAP1 JUMPDEST DUP2 SLOAD DUP2 MSTORE SWAP1 PUSH1 0x1 ADD SWAP1 PUSH1 0x20 ADD DUP1 DUP4 GT PUSH3 0x9B7 JUMPI DUP3 SWAP1 SUB PUSH1 0x1F AND DUP3 ADD SWAP2 JUMPDEST POP POP POP POP POP DUP2 MSTORE PUSH1 0x20 ADD PUSH1 0x4 DUP3 ADD DUP1 SLOAD PUSH3 0x9F0 SWAP1 PUSH3 0x1E21 JUMP JUMPDEST DUP1 PUSH1 0x1F ADD PUSH1 0x20 DUP1 SWAP2 DIV MUL PUSH1 0x20 ADD PUSH1 0x40 MLOAD SWAP1 DUP2 ADD PUSH1 0x40 MSTORE DUP1 SWAP3 SWAP2 SWAP1 DUP2 DUP2 MSTORE PUSH1 0x20 ADD DUP3 DUP1 SLOAD PUSH3 0xA1E SWAP1 PUSH3 0x1E21 JUMP JUMPDEST DUP1 ISZERO PUSH3 0xA6F JUMPI DUP1 PUSH1 0x1F LT PUSH3 0xA43 JUMPI PUSH2 0x100 DUP1 DUP4 SLOAD DIV MUL DUP4 MSTORE SWAP2 PUSH1 0x20 ADD SWAP2 PUSH3 0xA6F JUMP JUMPDEST DUP3 ADD SWAP2 SWAP1 PUSH1 0x0 MSTORE PUSH1 0x20 PUSH1 0x0 KECCAK256 SWAP1 JUMPDEST DUP2 SLOAD DUP2 MSTORE SWAP1 PUSH1 0x1 ADD SWAP1 PUSH1 0x20 ADD DUP1 DUP4 GT PUSH3 0xA51 JUMPI DUP3 SWAP1 SUB PUSH1 0x1F AND DUP3 ADD SWAP2 JUMPDEST POP POP POP POP POP DUP2 MSTORE POP POP DUP5 DUP8 DUP4 PUSH3 0xA87 SWAP2 SWAP1 PUSH3 0x1DC3 JUMP JUMPDEST DUP2 MLOAD DUP2 LT PUSH3 0xA9A JUMPI PUSH3 0xA9A PUSH3 0x1DDF JUMP JUMPDEST PUSH1 0x20 MUL PUSH1 0x20 ADD ADD DUP2 SWAP1 MSTORE POP DUP1 DUP1 PUSH3 0xAB2 SWAP1 PUSH3 0x1E5D JUMP JUMPDEST SWAP2 POP POP PUSH3 0x8DB JUMP JUMPDEST POP POP POP SWAP3 SWAP2 POP POP JUMP JUMPDEST PUSH1 0x3 DUP2 DUP2 SLOAD DUP2 LT PUSH3 0xAD5 JUMPI PUSH1 0x0 DUP1 REVERT JUMPDEST PUSH1 0x0 SWAP2 DUP3 MSTORE PUSH1 0x20 SWAP1 SWAP2 KECCAK256 PUSH1 0x5 SWAP1 SWAP2 MUL ADD DUP1 SLOAD PUSH1 0x1 DUP3 ADD SLOAD PUSH1 0x2 DUP4 ADD SLOAD PUSH1 0x3 DUP5 ADD DUP1 SLOAD PUSH1 0x1 PUSH1 0x1 PUSH1 0xA0 SHL SUB SWAP5 DUP6 AND SWAP7 POP SWAP3 SWAP1 SWAP4 AND SWAP4 SWAP1 SWAP3 SWAP1 SWAP2 PUSH3 0xB18 SWAP1 PUSH3 0x1E21 JUMP JUMPDEST DUP1 PUSH1 0x1F ADD PUSH1 0x20 DUP1 SWAP2 DIV MUL PUSH1 0x20 ADD PUSH1 0x40 MLOAD SWAP1 DUP2 ADD PUSH1 0x40 MSTORE DUP1 SWAP3 SWAP2 SWAP1 DUP2 DUP2 MSTORE PUSH1 0x20 ADD DUP3 DUP1 SLOAD PUSH3 0xB46 SWAP1 PUSH3 0x1E21 JUMP JUMPDEST DUP1 ISZERO PUSH3 0xB97 JUMPI DUP1 PUSH1 0x1F LT PUSH3 0xB6B JUMPI PUSH2 0x100 DUP1 DUP4 SLOAD DIV MUL DUP4 MSTORE SWAP2 PUSH1 0x20 ADD SWAP2 PUSH3 0xB97 JUMP JUMPDEST DUP3 ADD SWAP2 SWAP1 PUSH1 0x0 MSTORE PUSH1 0x20 PUSH1 0x0 KECCAK256 SWAP1 JUMPDEST DUP2 SLOAD DUP2 MSTORE SWAP1 PUSH1 0x1 ADD SWAP1 PUSH1 0x20 ADD DUP1 DUP4 GT PUSH3 0xB79 JUMPI DUP3 SWAP1 SUB PUSH1 0x1F AND DUP3 ADD SWAP2 JUMPDEST POP POP POP POP POP SWAP1 DUP1 PUSH1 0x4 ADD DUP1 SLOAD PUSH3 0xBAE SWAP1 PUSH3 0x1E21 JUMP JUMPDEST DUP1 PUSH1 0x1F ADD PUSH1 0x20 DUP1 SWAP2 DIV MUL PUSH1 0x20 ADD PUSH1 0x40 MLOAD SWAP1 DUP2 ADD PUSH1 0x40 MSTORE DUP1 SWAP3 SWAP2 SWAP1 DUP2 DUP2 MSTORE PUSH1 0x20 ADD DUP3 DUP1 SLOAD PUSH3 0xBDC SWAP1 PUSH3 0x1E21 JUMP JUMPDEST DUP1 ISZERO PUSH3 0xC2D JUMPI DUP1 PUSH1 0x1F LT PUSH3 0xC01 JUMPI PUSH2 0x100 DUP1 DUP4 SLOAD DIV MUL DUP4 MSTORE SWAP2 PUSH1 0x20 ADD SWAP2 PUSH3 0xC2D JUMP JUMPDEST DUP3 ADD SWAP2 SWAP1 PUSH1 0x0 MSTORE PUSH1 0x20 PUSH1 0x0 KECCAK256 SWAP1 JUMPDEST DUP2 SLOAD DUP2 MSTORE SWAP1 PUSH1 0x1 ADD SWAP1 PUSH1 0x20 ADD DUP1 DUP4 GT PUSH3 0xC0F JUMPI DUP3 SWAP1 SUB PUSH1 0x1F AND DUP3 ADD SWAP2 JUMPDEST POP POP POP POP POP SWAP1 POP DUP6 JUMP JUMPDEST PUSH3 0xC41 PUSH3 0x16F7 JUMP JUMPDEST PUSH3 0xC4B PUSH3 0x17F9 JUMP JUMPDEST DUP2 PUSH1 0x0 SUB PUSH3 0xC6D JUMPI PUSH1 0x40 MLOAD PUSH4 0x1F2A2005 PUSH1 0xE0 SHL DUP2 MSTORE PUSH1 0x4 ADD PUSH1 0x40 MLOAD DUP1 SWAP2 SUB SWAP1 REVERT JUMPDEST PUSH1 0x1 PUSH1 0x1 PUSH1 0xA0 SHL SUB DUP4 AND PUSH1 0x0 SWAP1 DUP2 MSTORE PUSH1 0x5 PUSH1 0x20 MSTORE PUSH1 0x40 SWAP1 KECCAK256 SLOAD PUSH1 0xFF AND ISZERO PUSH3 0xCA8 JUMPI PUSH1 0x40 MLOAD PUSH4 0xE7792495 PUSH1 0xE0 SHL DUP2 MSTORE PUSH1 0x4 ADD PUSH1 0x40 MLOAD DUP1 SWAP2 SUB SWAP1 REVERT JUMPDEST PUSH1 0x1 PUSH1 0x1 PUSH1 0xA0 SHL SUB DUP4 AND PUSH1 0x0 SWAP1 DUP2 MSTORE PUSH1 0x4 PUSH1 0x20 MSTORE PUSH1 0x40 DUP2 KECCAK256 SLOAD SWAP1 DUP2 SWAP1 SUB PUSH3 0xCE3 JUMPI PUSH1 0x40 MLOAD PUSH4 0x8DDA39DF PUSH1 0xE0 SHL DUP2 MSTORE PUSH1 0x4 ADD PUSH1 0x40 MLOAD DUP1 SWAP2 SUB SWAP1 REVERT JUMPDEST PUSH1 0x0 PUSH1 0x3 PUSH3 0xCF4 PUSH1 0x1 DUP5 PUSH3 0x1DC3 JUMP JUMPDEST DUP2 SLOAD DUP2 LT PUSH3 0xD07 JUMPI PUSH3 0xD07 PUSH3 0x1DDF JUMP JUMPDEST SWAP1 PUSH1 0x0 MSTORE PUSH1 0x20 PUSH1 0x0 KECCAK256 SWAP1 PUSH1 0x5 MUL ADD SWAP1 POP PUSH1 0x0 PUSH8 0xDE0B6B3A7640000 DUP6 DUP4 PUSH1 0x2 ADD SLOAD PUSH3 0xD34 SWAP2 SWAP1 PUSH3 0x1E79 JUMP JUMPDEST PUSH3 0xD40 SWAP2 SWAP1 PUSH3 0x1E93 JUMP JUMPDEST SWAP1 POP DUP1 CALLVALUE EQ PUSH3 0xD63 JUMPI PUSH1 0x40 MLOAD PUSH4 0xD183FE43 PUSH1 0xE0 SHL DUP2 MSTORE PUSH1 0x4 ADD PUSH1 0x40 MLOAD DUP1 SWAP2 SUB SWAP1 REVERT JUMPDEST PUSH1 0x6 SLOAD PUSH1 0x0 SWAP1 PUSH2 0x2710 SWAP1 PUSH3 0xD7D SWAP1 PUSH2 0xFFFF AND DUP5 PUSH3 0x1E79 JUMP JUMPDEST PUSH3 0xD89 SWAP2 SWAP1 PUSH3 0x1E93 JUMP JUMPDEST SWAP1 POP PUSH1 0x0 PUSH1 0x1 PUSH1 0x1 PUSH1 0xA0 SHL SUB DUP7 AND ISZERO PUSH3 0xDCC JUMPI PUSH1 0x6 SLOAD PUSH2 0x2710 SWAP1 PUSH3 0xDBA SWAP1 PUSH3 0x10000 SWAP1 DIV PUSH2 0xFFFF AND DUP6 PUSH3 0x1E79 JUMP JUMPDEST PUSH3 0xDC6 SWAP2 SWAP1 PUSH3 0x1E93 JUMP JUMPDEST PUSH3 0xDCF JUMP JUMPDEST PUSH1 0x0 JUMPDEST SWAP1 POP PUSH1 0x0 DUP2 PUSH3 0xDE0 DUP5 DUP7 PUSH3 0x1DC3 JUMP JUMPDEST PUSH3 0xDEC SWAP2 SWAP1 PUSH3 0x1DC3 JUMP JUMPDEST SWAP1 POP DUP3 ISZERO PUSH3 0xE31 JUMPI PUSH1 0x0 DUP1 SLOAD PUSH1 0x40 MLOAD PUSH1 0x1 PUSH1 0x1 PUSH1 0xA0 SHL SUB SWAP1 SWAP2 AND SWAP2 DUP6 ISZERO PUSH2 0x8FC MUL SWAP2 DUP7 SWAP2 DUP2 DUP2 DUP2 DUP6 DUP9 DUP9 CALL SWAP4 POP POP POP POP ISZERO DUP1 ISZERO PUSH3 0xE2F JUMPI RETURNDATASIZE PUSH1 0x0 DUP1 RETURNDATACOPY RETURNDATASIZE PUSH1 0x0 REVERT JUMPDEST POP JUMPDEST DUP2 ISZERO PUSH3 0xE71 JUMPI PUSH1 0x40 MLOAD PUSH1 0x1 PUSH1 0x1 PUSH1 0xA0 SHL SUB DUP9 AND SWAP1 DUP4 ISZERO PUSH2 0x8FC MUL SWAP1 DUP5 SWAP1 PUSH1 0x0 DUP2 DUP2 DUP2 DUP6 DUP9 DUP9 CALL SWAP4 POP POP POP POP ISZERO DUP1 ISZERO PUSH3 0xE6F JUMPI RETURNDATASIZE PUSH1 0x0 DUP1 RETURNDATACOPY RETURNDATASIZE PUSH1 0x0 REVERT JUMPDEST POP JUMPDEST PUSH1 0x1 DUP6 ADD SLOAD PUSH1 0x40 MLOAD PUSH1 0x1 PUSH1 0x1 PUSH1 0xA0 SHL SUB SWAP1 SWAP2 AND SWAP1 DUP3 ISZERO PUSH2 0x8FC MUL SWAP1 DUP4 SWAP1 PUSH1 0x0 DUP2 DUP2 DUP2 DUP6 DUP9 DUP9 CALL SWAP4 POP POP POP POP ISZERO DUP1 ISZERO PUSH3 0xEAE JUMPI RETURNDATASIZE PUSH1 0x0 DUP1 RETURNDATACOPY RETURNDATASIZE PUSH1 0x0 REVERT JUMPDEST POP PUSH3 0xEC5 PUSH1 0x1 PUSH1 0x1 PUSH1 0xA0 SHL SUB DUP11 AND CALLER DUP11 PUSH3 0x1722 JUMP JUMPDEST PUSH1 0x40 DUP1 MLOAD DUP10 DUP2 MSTORE PUSH1 0x20 DUP2 ADD DUP7 SWAP1 MSTORE SWAP1 DUP2 ADD DUP5 SWAP1 MSTORE PUSH1 0x60 DUP2 ADD DUP4 SWAP1 MSTORE PUSH1 0x80 DUP2 ADD DUP3 SWAP1 MSTORE PUSH1 0x1 PUSH1 0x1 PUSH1 0xA0 SHL SUB DUP1 DUP10 AND SWAP2 CALLER SWAP2 DUP13 AND SWAP1 PUSH32 0xA4D1D47447AD64A0C581F05071DF4CE987BA94440D913925DC004A21F28F4226 SWAP1 PUSH1 0xA0 ADD PUSH1 0x40 MLOAD DUP1 SWAP2 SUB SWAP1 LOG4 POP POP POP POP POP POP PUSH3 0xF35 PUSH1 0x1 DUP1 SSTORE JUMP JUMPDEST POP POP POP JUMP JUMPDEST PUSH3 0xF44 PUSH3 0x1776 JUMP JUMPDEST PUSH3 0x6F1 PUSH1 0x0 PUSH3 0x181E JUMP JUMPDEST PUSH3 0xF5A PUSH3 0x1776 JUMP JUMPDEST PUSH1 0x1 PUSH1 0x1 PUSH1 0xA0 SHL SUB DUP2 AND PUSH1 0x0 DUP2 DUP2 MSTORE PUSH1 0x5 PUSH1 0x20 MSTORE PUSH1 0x40 DUP1 DUP3 KECCAK256 DUP1 SLOAD PUSH1 0xFF NOT AND PUSH1 0x1 OR SWAP1 SSTORE MLOAD PUSH32 0x32A6DCD04455C92A601AFD4A2AA0EE840DDAB8A4383114E4F00ECF9132432933 SWAP2 SWAP1 LOG2 POP JUMP JUMPDEST PUSH3 0xFB0 PUSH3 0x1776 JUMP JUMPDEST PUSH3 0x6F1 PUSH3 0x186E JUMP JUMPDEST PUSH3 0xFC4 PUSH3 0x1776 JUMP JUMPDEST PUSH3 0xFED PUSH3 0xFDB PUSH1 0x0 SLOAD PUSH1 0x1 PUSH1 0x1 PUSH1 0xA0 SHL SUB AND SWAP1 JUMP JUMPDEST PUSH1 0x1 PUSH1 0x1 PUSH1 0xA0 SHL SUB DUP5 AND SWAP1 DUP4 PUSH3 0x1722 JUMP JUMPDEST DUP2 PUSH1 0x1 PUSH1 0x1 PUSH1 0xA0 SHL SUB AND PUSH32 0xE82BE315BA1A0D0362D09D5CF59781F214B53A74EB978C35B76AD687099C670C DUP3 PUSH1 0x40 MLOAD PUSH3 0x1029 SWAP2 DUP2 MSTORE PUSH1 0x20 ADD SWAP1 JUMP JUMPDEST PUSH1 0x40 MLOAD DUP1 SWAP2 SUB SWAP1 LOG2 POP POP JUMP JUMPDEST PUSH1 0x0 PUSH1 0x60 DUP1 PUSH1 0x60 DUP1 PUSH1 0x0 DUP1 PUSH1 0x3 DUP1 SLOAD SWAP1 POP DUP9 LT PUSH3 0x108C JUMPI PUSH1 0x40 MLOAD PUSH3 0x461BCD PUSH1 0xE5 SHL DUP2 MSTORE PUSH1 0x20 PUSH1 0x4 DUP3 ADD MSTORE PUSH1 0x13 PUSH1 0x24 DUP3 ADD MSTORE PUSH19 0x496E646578206F7574206F6620626F756E6473 PUSH1 0x68 SHL PUSH1 0x44 DUP3 ADD MSTORE PUSH1 0x64 ADD PUSH3 0x19C JUMP JUMPDEST PUSH1 0x0 PUSH1 0x3 DUP10 DUP2 SLOAD DUP2 LT PUSH3 0x10A4 JUMPI PUSH3 0x10A4 PUSH3 0x1DDF JUMP JUMPDEST PUSH1 0x0 SWAP2 DUP3 MSTORE PUSH1 0x20 DUP3 KECCAK256 PUSH1 0x5 SWAP1 SWAP2 MUL ADD DUP1 SLOAD PUSH1 0x40 DUP1 MLOAD PUSH4 0x6FDDE03 PUSH1 0xE0 SHL DUP2 MSTORE SWAP1 MLOAD PUSH1 0x1 PUSH1 0x1 PUSH1 0xA0 SHL SUB SWAP1 SWAP3 AND SWAP12 POP SWAP2 SWAP4 POP DUP11 SWAP3 PUSH4 0x6FDDE03 SWAP3 PUSH1 0x4 DUP1 DUP3 ADD SWAP4 SWAP2 DUP3 SWAP1 SUB ADD DUP2 DUP7 GAS STATICCALL ISZERO DUP1 ISZERO PUSH3 0x10FE JUMPI RETURNDATASIZE PUSH1 0x0 DUP1 RETURNDATACOPY RETURNDATASIZE PUSH1 0x0 REVERT JUMPDEST POP POP POP POP PUSH1 0x40 MLOAD RETURNDATASIZE PUSH1 0x0 DUP3 RETURNDATACOPY PUSH1 0x1F RETURNDATASIZE SWAP1 DUP2 ADD PUSH1 0x1F NOT AND DUP3 ADD PUSH1 0x40 MSTORE PUSH3 0x1128 SWAP2 SWAP1 DUP2 ADD SWAP1 PUSH3 0x1EB6 JUMP JUMPDEST SWAP7 POP DUP8 PUSH1 0x1 PUSH1 0x1 PUSH1 0xA0 SHL SUB AND PUSH4 0x95D89B41 PUSH1 0x40 MLOAD DUP2 PUSH4 0xFFFFFFFF AND PUSH1 0xE0 SHL DUP2 MSTORE PUSH1 0x4 ADD PUSH1 0x0 PUSH1 0x40 MLOAD DUP1 DUP4 SUB DUP2 DUP7 GAS STATICCALL ISZERO DUP1 ISZERO PUSH3 0x1169 JUMPI RETURNDATASIZE PUSH1 0x0 DUP1 RETURNDATACOPY RETURNDATASIZE PUSH1 0x0 REVERT JUMPDEST POP POP POP POP PUSH1 0x40 MLOAD RETURNDATASIZE PUSH1 0x0 DUP3 RETURNDATACOPY PUSH1 0x1F RETURNDATASIZE SWAP1 DUP2 ADD PUSH1 0x1F NOT AND DUP3 ADD PUSH1 0x40 MSTORE PUSH3 0x1193 SWAP2 SWAP1 DUP2 ADD SWAP1 PUSH3 0x1EB6 JUMP JUMPDEST SWAP6 POP DUP1 PUSH1 0x3 ADD DUP1 SLOAD PUSH3 0x11A6 SWAP1 PUSH3 0x1E21 JUMP JUMPDEST DUP1 PUSH1 0x1F ADD PUSH1 0x20 DUP1 SWAP2 DIV MUL PUSH1 0x20 ADD PUSH1 0x40 MLOAD SWAP1 DUP2 ADD PUSH1 0x40 MSTORE DUP1 SWAP3 SWAP2 SWAP1 DUP2 DUP2 MSTORE PUSH1 0x20 ADD DUP3 DUP1 SLOAD PUSH3 0x11D4 SWAP1 PUSH3 0x1E21 JUMP JUMPDEST DUP1 ISZERO PUSH3 0x1225 JUMPI DUP1 PUSH1 0x1F LT PUSH3 0x11F9 JUMPI PUSH2 0x100 DUP1 DUP4 SLOAD DIV MUL DUP4 MSTORE SWAP2 PUSH1 0x20 ADD SWAP2 PUSH3 0x1225 JUMP JUMPDEST DUP3 ADD SWAP2 SWAP1 PUSH1 0x0 MSTORE PUSH1 0x20 PUSH1 0x0 KECCAK256 SWAP1 JUMPDEST DUP2 SLOAD DUP2 MSTORE SWAP1 PUSH1 0x1 ADD SWAP1 PUSH1 0x20 ADD DUP1 DUP4 GT PUSH3 0x1207 JUMPI DUP3 SWAP1 SUB PUSH1 0x1F AND DUP3 ADD SWAP2 JUMPDEST POP POP POP POP POP SWAP5 POP DUP1 PUSH1 0x4 ADD DUP1 SLOAD PUSH3 0x123D SWAP1 PUSH3 0x1E21 JUMP JUMPDEST DUP1 PUSH1 0x1F ADD PUSH1 0x20 DUP1 SWAP2 DIV MUL PUSH1 0x20 ADD PUSH1 0x40 MLOAD SWAP1 DUP2 ADD PUSH1 0x40 MSTORE DUP1 SWAP3 SWAP2 SWAP1 DUP2 DUP2 MSTORE PUSH1 0x20 ADD DUP3 DUP1 SLOAD PUSH3 0x126B SWAP1 PUSH3 0x1E21 JUMP JUMPDEST DUP1 ISZERO PUSH3 0x12BC JUMPI DUP1 PUSH1 0x1F LT PUSH3 0x1290 JUMPI PUSH2 0x100 DUP1 DUP4 SLOAD DIV MUL DUP4 MSTORE SWAP2 PUSH1 0x20 ADD SWAP2 PUSH3 0x12BC JUMP JUMPDEST DUP3 ADD SWAP2 SWAP1 PUSH1 0x0 MSTORE PUSH1 0x20 PUSH1 0x0 KECCAK256 SWAP1 JUMPDEST DUP2 SLOAD DUP2 MSTORE SWAP1 PUSH1 0x1 ADD SWAP1 PUSH1 0x20 ADD DUP1 DUP4 GT PUSH3 0x129E JUMPI DUP3 SWAP1 SUB PUSH1 0x1F AND DUP3 ADD SWAP2 JUMPDEST POP POP POP PUSH1 0x2 DUP5 ADD SLOAD PUSH1 0x1 SWAP1 SWAP5 ADD SLOAD SWAP11 SWAP13 SWAP10 SWAP12 POP SWAP8 SWAP10 SWAP7 SWAP9 SWAP2 SWAP8 POP SWAP2 SWAP6 PUSH1 0x1 PUSH1 0x1 PUSH1 0xA0 SHL SUB AND SWAP5 POP SWAP3 POP POP POP JUMP JUMPDEST PUSH1 0x0 PUSH3 0x12F5 PUSH3 0x16F7 JUMP JUMPDEST PUSH3 0x12FF PUSH3 0x17F9 JUMP JUMPDEST DUP4 PUSH1 0x0 SUB PUSH3 0x1321 JUMPI PUSH1 0x40 MLOAD PUSH4 0x7294708F PUSH1 0xE1 SHL DUP2 MSTORE PUSH1 0x4 ADD PUSH1 0x40 MLOAD DUP1 SWAP2 SUB SWAP1 REVERT JUMPDEST PUSH1 0x0 DUP12 DUP12 DUP12 DUP12 DUP10 CALLER DUP10 DUP10 PUSH1 0x40 MLOAD PUSH3 0x1339 SWAP1 PUSH3 0x194E JUMP JUMPDEST PUSH3 0x134C SWAP9 SWAP8 SWAP7 SWAP6 SWAP5 SWAP4 SWAP3 SWAP2 SWAP1 PUSH3 0x1F98 JUMP JUMPDEST PUSH1 0x40 MLOAD DUP1 SWAP2 SUB SWAP1 PUSH1 0x0 CREATE DUP1 ISZERO DUP1 ISZERO PUSH3 0x1369 JUMPI RETURNDATASIZE PUSH1 0x0 DUP1 RETURNDATACOPY RETURNDATASIZE PUSH1 0x0 REVERT JUMPDEST POP SWAP1 POP DUP1 SWAP2 POP PUSH1 0x3 PUSH1 0x40 MLOAD DUP1 PUSH1 0xA0 ADD PUSH1 0x40 MSTORE DUP1 DUP5 PUSH1 0x1 PUSH1 0x1 PUSH1 0xA0 SHL SUB AND DUP2 MSTORE PUSH1 0x20 ADD CALLER PUSH1 0x1 PUSH1 0x1 PUSH1 0xA0 SHL SUB AND DUP2 MSTORE PUSH1 0x20 ADD DUP8 DUP2 MSTORE PUSH1 0x20 ADD DUP11 DUP11 DUP1 DUP1 PUSH1 0x1F ADD PUSH1 0x20 DUP1 SWAP2 DIV MUL PUSH1 0x20 ADD PUSH1 0x40 MLOAD SWAP1 DUP2 ADD PUSH1 0x40 MSTORE DUP1 SWAP4 SWAP3 SWAP2 SWAP1 DUP2 DUP2 MSTORE PUSH1 0x20 ADD DUP4 DUP4 DUP1 DUP3 DUP5 CALLDATACOPY PUSH1 0x0 SWAP3 ADD SWAP2 SWAP1 SWAP2 MSTORE POP POP POP SWAP1 DUP3 MSTORE POP PUSH1 0x40 DUP1 MLOAD PUSH1 0x20 PUSH1 0x1F DUP10 ADD DUP2 SWAP1 DIV DUP2 MUL DUP3 ADD DUP2 ADD SWAP1 SWAP3 MSTORE DUP8 DUP2 MSTORE SWAP2 DUP2 ADD SWAP2 SWAP1 DUP9 SWAP1 DUP9 SWAP1 DUP2 SWAP1 DUP5 ADD DUP4 DUP3 DUP1 DUP3 DUP5 CALLDATACOPY PUSH1 0x0 SWAP3 ADD DUP3 SWAP1 MSTORE POP SWAP4 SWAP1 SWAP5 MSTORE POP POP DUP4 SLOAD PUSH1 0x1 DUP1 DUP3 ADD DUP7 SSTORE SWAP5 DUP3 MSTORE PUSH1 0x20 SWAP2 DUP3 SWAP1 KECCAK256 DUP5 MLOAD PUSH1 0x5 SWAP1 SWAP3 MUL ADD DUP1 SLOAD PUSH1 0x1 PUSH1 0x1 PUSH1 0xA0 SHL SUB NOT SWAP1 DUP2 AND PUSH1 0x1 PUSH1 0x1 PUSH1 0xA0 SHL SUB SWAP4 DUP5 AND OR DUP3 SSTORE SWAP3 DUP6 ADD MLOAD SWAP6 DUP2 ADD DUP1 SLOAD SWAP1 SWAP4 AND SWAP6 SWAP1 SWAP2 AND SWAP5 SWAP1 SWAP5 OR SWAP1 SSTORE POP PUSH1 0x40 DUP2 ADD MLOAD PUSH1 0x2 DUP4 ADD SSTORE PUSH1 0x60 DUP2 ADD MLOAD SWAP1 SWAP2 SWAP1 PUSH1 0x3 DUP3 ADD SWAP1 PUSH3 0x1483 SWAP1 DUP3 PUSH3 0x2051 JUMP JUMPDEST POP PUSH1 0x80 DUP3 ADD MLOAD PUSH1 0x4 DUP3 ADD SWAP1 PUSH3 0x149A SWAP1 DUP3 PUSH3 0x2051 JUMP JUMPDEST POP POP PUSH1 0x3 SLOAD PUSH1 0x1 PUSH1 0x1 PUSH1 0xA0 SHL SUB DUP5 AND PUSH1 0x0 DUP2 DUP2 MSTORE PUSH1 0x4 PUSH1 0x20 MSTORE PUSH1 0x40 SWAP1 DUP2 SWAP1 KECCAK256 SWAP3 SWAP1 SWAP3 SSTORE SWAP1 MLOAD CALLER SWAP3 POP PUSH32 0x75C1F35492CD2BCB2820D5FF2434B9DC6D19432975F20761140109F0844A7B8A SWAP1 PUSH3 0x14F9 SWAP1 DUP10 SWAP1 DUP14 SWAP1 DUP14 SWAP1 DUP12 SWAP1 DUP12 SWAP1 PUSH3 0x211E JUMP JUMPDEST PUSH1 0x40 MLOAD DUP1 SWAP2 SUB SWAP1 LOG3 POP PUSH3 0x150C PUSH1 0x1 DUP1 SSTORE JUMP JUMPDEST SWAP11 SWAP10 POP POP POP POP POP POP POP POP POP POP JUMP JUMPDEST PUSH3 0x1524 PUSH3 0x1776 JUMP JUMPDEST DUP1 SELFBALANCE LT ISZERO PUSH3 0x1569 JUMPI PUSH1 0x40 MLOAD PUSH3 0x461BCD PUSH1 0xE5 SHL DUP2 MSTORE PUSH1 0x20 PUSH1 0x4 DUP3 ADD MSTORE PUSH1 0x10 PUSH1 0x24 DUP3 ADD MSTORE PUSH16 0x92DCE6EACCCCD2C6D2CADCE8408AA89 PUSH1 0x83 SHL PUSH1 0x44 DUP3 ADD MSTORE PUSH1 0x64 ADD PUSH3 0x19C JUMP JUMPDEST PUSH1 0x0 DUP1 SLOAD PUSH1 0x40 MLOAD PUSH1 0x1 PUSH1 0x1 PUSH1 0xA0 SHL SUB SWAP1 SWAP2 AND SWAP2 DUP4 ISZERO PUSH2 0x8FC MUL SWAP2 DUP5 SWAP2 DUP2 DUP2 DUP2 DUP6 DUP9 DUP9 CALL SWAP4 POP POP POP POP ISZERO DUP1 ISZERO PUSH3 0x15A3 JUMPI RETURNDATASIZE PUSH1 0x0 DUP1 RETURNDATACOPY RETURNDATASIZE PUSH1 0x0 REVERT JUMPDEST POP PUSH1 0x0 SLOAD PUSH1 0x1 PUSH1 0x1 PUSH1 0xA0 SHL SUB AND PUSH1 0x1 PUSH1 0x1 PUSH1 0xA0 SHL SUB AND PUSH32 0xB3579861130E4DA8BB7B87C54D2D139937F23BCD6E4EBED9E75D0F78AB1CC118 DUP3 PUSH1 0x40 MLOAD PUSH3 0x15EB SWAP2 DUP2 MSTORE PUSH1 0x20 ADD SWAP1 JUMP JUMPDEST PUSH1 0x40 MLOAD DUP1 SWAP2 SUB SWAP1 LOG2 POP JUMP JUMPDEST PUSH3 0x1600 PUSH3 0x1776 JUMP JUMPDEST PUSH1 0x1 PUSH1 0x1 PUSH1 0xA0 SHL SUB DUP2 AND PUSH3 0x162C JUMPI PUSH1 0x40 MLOAD PUSH4 0x1E4FBDF7 PUSH1 0xE0 SHL DUP2 MSTORE PUSH1 0x0 PUSH1 0x4 DUP3 ADD MSTORE PUSH1 0x24 ADD PUSH3 0x19C JUMP JUMPDEST PUSH3 0x1637 DUP2 PUSH3 0x181E JUMP JUMPDEST POP JUMP JUMPDEST PUSH3 0x1644 PUSH3 0x1776 JUMP JUMPDEST PUSH2 0x2710 PUSH3 0x1653 DUP3 DUP5 PUSH3 0x214F JUMP JUMPDEST PUSH2 0xFFFF AND LT PUSH3 0x1696 JUMPI PUSH1 0x40 MLOAD PUSH3 0x461BCD PUSH1 0xE5 SHL DUP2 MSTORE PUSH1 0x20 PUSH1 0x4 DUP3 ADD MSTORE PUSH1 0xD PUSH1 0x24 DUP3 ADD MSTORE PUSH13 0x8CCACAE640E8DEDE40D0D2CED PUSH1 0x9B SHL PUSH1 0x44 DUP3 ADD MSTORE PUSH1 0x64 ADD PUSH3 0x19C JUMP JUMPDEST PUSH1 0x6 DUP1 SLOAD PUSH2 0xFFFF DUP5 DUP2 AND PUSH4 0xFFFFFFFF NOT SWAP1 SWAP3 AND DUP3 OR PUSH3 0x10000 SWAP2 DUP6 AND SWAP2 DUP3 MUL OR SWAP1 SWAP3 SSTORE PUSH1 0x40 DUP1 MLOAD SWAP2 DUP3 MSTORE PUSH1 0x20 DUP3 ADD SWAP3 SWAP1 SWAP3 MSTORE PUSH32 0x2AC80C14C28700F7B5E36F947D572149FE2E3947BAC32C3A8C098F3E03722C11 SWAP2 ADD PUSH1 0x40 MLOAD DUP1 SWAP2 SUB SWAP1 LOG1 POP POP JUMP JUMPDEST PUSH1 0x2 PUSH1 0x1 SLOAD SUB PUSH3 0x171B JUMPI PUSH1 0x40 MLOAD PUSH4 0x3EE5AEB5 PUSH1 0xE0 SHL DUP2 MSTORE PUSH1 0x4 ADD PUSH1 0x40 MLOAD DUP1 SWAP2 SUB SWAP1 REVERT JUMPDEST PUSH1 0x2 PUSH1 0x1 SSTORE JUMP JUMPDEST PUSH1 0x40 DUP1 MLOAD PUSH1 0x1 PUSH1 0x1 PUSH1 0xA0 SHL SUB DUP5 AND PUSH1 0x24 DUP3 ADD MSTORE PUSH1 0x44 DUP1 DUP3 ADD DUP5 SWAP1 MSTORE DUP3 MLOAD DUP1 DUP4 SUB SWAP1 SWAP2 ADD DUP2 MSTORE PUSH1 0x64 SWAP1 SWAP2 ADD SWAP1 SWAP2 MSTORE PUSH1 0x20 DUP2 ADD DUP1 MLOAD PUSH1 0x1 PUSH1 0x1 PUSH1 0xE0 SHL SUB AND PUSH4 0xA9059CBB PUSH1 0xE0 SHL OR SWAP1 MSTORE PUSH3 0xF35 SWAP1 DUP5 SWAP1 PUSH3 0x18AE JUMP JUMPDEST PUSH1 0x0 SLOAD PUSH1 0x1 PUSH1 0x1 PUSH1 0xA0 SHL SUB AND CALLER EQ PUSH3 0x6F1 JUMPI PUSH1 0x40 MLOAD PUSH4 0x118CDAA7 PUSH1 0xE0 SHL DUP2 MSTORE CALLER PUSH1 0x4 DUP3 ADD MSTORE PUSH1 0x24 ADD PUSH3 0x19C JUMP JUMPDEST PUSH3 0x17AF PUSH3 0x192A JUMP JUMPDEST PUSH1 0x2 DUP1 SLOAD PUSH1 0xFF NOT AND SWAP1 SSTORE PUSH32 0x5DB9EE0A495BF2E6FF9C91A7834C1BA4FDD244A5E8AA4E537BD38AEAE4B073AA CALLER JUMPDEST PUSH1 0x40 MLOAD PUSH1 0x1 PUSH1 0x1 PUSH1 0xA0 SHL SUB SWAP1 SWAP2 AND DUP2 MSTORE PUSH1 0x20 ADD PUSH1 0x40 MLOAD DUP1 SWAP2 SUB SWAP1 LOG1 JUMP JUMPDEST PUSH1 0x2 SLOAD PUSH1 0xFF AND ISZERO PUSH3 0x6F1 JUMPI PUSH1 0x40 MLOAD PUSH4 0xD93C0665 PUSH1 0xE0 SHL DUP2 MSTORE PUSH1 0x4 ADD PUSH1 0x40 MLOAD DUP1 SWAP2 SUB SWAP1 REVERT JUMPDEST PUSH1 0x0 DUP1 SLOAD PUSH1 0x1 PUSH1 0x1 PUSH1 0xA0 SHL SUB DUP4 DUP2 AND PUSH1 0x1 PUSH1 0x1 PUSH1 0xA0 SHL SUB NOT DUP4 AND DUP2 OR DUP5 SSTORE PUSH1 0x40 MLOAD SWAP2 SWAP1 SWAP3 AND SWAP3 DUP4 SWAP2 PUSH32 0x8BE0079C531659141344CD1FD0A4F28419497F9722A3DAAFE3B4186F6B6457E0 SWAP2 SWAP1 LOG3 POP POP JUMP JUMPDEST PUSH3 0x1878 PUSH3 0x17F9 JUMP JUMPDEST PUSH1 0x2 DUP1 SLOAD PUSH1 0xFF NOT AND PUSH1 0x1 OR SWAP1 SSTORE PUSH32 0x62E78CEA01BEE320CD4E420270B5EA74000D11B0C9F74754EBDBFC544B05A258 PUSH3 0x17DC CALLER SWAP1 JUMP JUMPDEST PUSH1 0x0 DUP1 PUSH1 0x20 PUSH1 0x0 DUP5 MLOAD PUSH1 0x20 DUP7 ADD PUSH1 0x0 DUP9 GAS CALL DUP1 PUSH3 0x18D2 JUMPI PUSH1 0x40 MLOAD RETURNDATASIZE PUSH1 0x0 DUP3 RETURNDATACOPY RETURNDATASIZE DUP2 REVERT JUMPDEST POP POP PUSH1 0x0 MLOAD RETURNDATASIZE SWAP2 POP DUP2 ISZERO PUSH3 0x18EC JUMPI DUP1 PUSH1 0x1 EQ ISZERO PUSH3 0x18F9 JUMP JUMPDEST PUSH1 0x1 PUSH1 0x1 PUSH1 0xA0 SHL SUB DUP5 AND EXTCODESIZE ISZERO JUMPDEST ISZERO PUSH3 0x1924 JUMPI PUSH1 0x40 MLOAD PUSH4 0x5274AFE7 PUSH1 0xE0 SHL DUP2 MSTORE PUSH1 0x1 PUSH1 0x1 PUSH1 0xA0 SHL SUB DUP6 AND PUSH1 0x4 DUP3 ADD MSTORE PUSH1 0x24 ADD PUSH3 0x19C JUMP JUMPDEST POP POP POP POP JUMP JUMPDEST PUSH1 0x2 SLOAD PUSH1 0xFF AND PUSH3 0x6F1 JUMPI PUSH1 0x40 MLOAD PUSH4 0x8DFC202B PUSH1 0xE0 SHL DUP2 MSTORE PUSH1 0x4 ADD PUSH1 0x40 MLOAD DUP1 SWAP2 SUB SWAP1 REVERT JUMPDEST PUSH2 0x1A50 DUP1 PUSH3 0x2175 DUP4 CODECOPY ADD SWAP1 JUMP JUMPDEST DUP1 CALLDATALOAD PUSH1 0x1 PUSH1 0x1 PUSH1 0xA0 SHL SUB DUP2 AND DUP2 EQ PUSH3 0x1974 JUMPI PUSH1 0x0 DUP1 REVERT JUMPDEST SWAP2 SWAP1 POP JUMP JUMPDEST PUSH1 0x0 DUP1 PUSH1 0x40 DUP4 DUP6 SUB SLT ISZERO PUSH3 0x198D JUMPI PUSH1 0x0 DUP1 REVERT JUMPDEST PUSH3 0x1998 DUP4 PUSH3 0x195C JUMP JUMPDEST SWAP5 PUSH1 0x20 SWAP4 SWAP1 SWAP4 ADD CALLDATALOAD SWAP4 POP POP POP JUMP JUMPDEST PUSH1 0x0 PUSH1 0x20 DUP3 DUP5 SUB SLT ISZERO PUSH3 0x19B9 JUMPI PUSH1 0x0 DUP1 REVERT JUMPDEST PUSH3 0x19C4 DUP3 PUSH3 0x195C JUMP JUMPDEST SWAP4 SWAP3 POP POP POP JUMP JUMPDEST PUSH1 0x0 DUP1 PUSH1 0x40 DUP4 DUP6 SUB SLT ISZERO PUSH3 0x19DF JUMPI PUSH1 0x0 DUP1 REVERT JUMPDEST POP POP DUP1 CALLDATALOAD SWAP3 PUSH1 0x20 SWAP1 SWAP2 ADD CALLDATALOAD SWAP2 POP JUMP JUMPDEST PUSH1 0x0 JUMPDEST DUP4 DUP2 LT ISZERO PUSH3 0x1A0B JUMPI DUP2 DUP2 ADD MLOAD DUP4 DUP3 ADD MSTORE PUSH1 0x20 ADD PUSH3 0x19F1 JUMP JUMPDEST POP POP PUSH1 0x0 SWAP2 ADD MSTORE JUMP JUMPDEST PUSH1 0x0 DUP2 MLOAD DUP1 DUP5 MSTORE PUSH3 0x1A2E DUP2 PUSH1 0x20 DUP7 ADD PUSH1 0x20 DUP7 ADD PUSH3 0x19EE JUMP JUMPDEST PUSH1 0x1F ADD PUSH1 0x1F NOT AND SWAP3 SWAP1 SWAP3 ADD PUSH1 0x20 ADD SWAP3 SWAP2 POP POP JUMP JUMPDEST PUSH1 0x0 PUSH1 0x20 DUP1 DUP4 ADD DUP2 DUP5 MSTORE DUP1 DUP6 MLOAD DUP1 DUP4 MSTORE PUSH1 0x40 SWAP3 POP DUP3 DUP7 ADD SWAP2 POP DUP3 DUP2 PUSH1 0x5 SHL DUP8 ADD ADD DUP5 DUP9 ADD PUSH1 0x0 JUMPDEST DUP4 DUP2 LT ISZERO PUSH3 0x1AF0 JUMPI DUP9 DUP4 SUB PUSH1 0x3F NOT ADD DUP6 MSTORE DUP2 MLOAD DUP1 MLOAD PUSH1 0x1 PUSH1 0x1 PUSH1 0xA0 SHL SUB SWAP1 DUP2 AND DUP6 MSTORE DUP9 DUP3 ADD MLOAD AND DUP9 DUP6 ADD MSTORE DUP7 DUP2 ADD MLOAD DUP8 DUP6 ADD MSTORE PUSH1 0x60 DUP1 DUP3 ADD MLOAD PUSH1 0xA0 DUP3 DUP8 ADD DUP2 SWAP1 MSTORE SWAP2 SWAP1 PUSH3 0x1ABB DUP4 DUP9 ADD DUP3 PUSH3 0x1A14 JUMP JUMPDEST SWAP3 POP POP POP PUSH1 0x80 DUP1 DUP4 ADD MLOAD SWAP3 POP DUP6 DUP3 SUB DUP2 DUP8 ADD MSTORE POP PUSH3 0x1ADB DUP2 DUP4 PUSH3 0x1A14 JUMP JUMPDEST SWAP7 DUP10 ADD SWAP7 SWAP5 POP POP POP SWAP1 DUP7 ADD SWAP1 PUSH1 0x1 ADD PUSH3 0x1A69 JUMP JUMPDEST POP SWAP1 SWAP9 SWAP8 POP POP POP POP POP POP POP POP JUMP JUMPDEST PUSH1 0x0 PUSH1 0x20 DUP3 DUP5 SUB SLT ISZERO PUSH3 0x1B11 JUMPI PUSH1 0x0 DUP1 REVERT JUMPDEST POP CALLDATALOAD SWAP2 SWAP1 POP JUMP JUMPDEST PUSH1 0x1 PUSH1 0x1 PUSH1 0xA0 SHL SUB DUP7 DUP2 AND DUP3 MSTORE DUP6 AND PUSH1 0x20 DUP3 ADD MSTORE PUSH1 0x40 DUP2 ADD DUP5 SWAP1 MSTORE PUSH1 0xA0 PUSH1 0x60 DUP3 ADD DUP2 SWAP1 MSTORE PUSH1 0x0 SWAP1 PUSH3 0x1B4D SWAP1 DUP4 ADD DUP6 PUSH3 0x1A14 JUMP JUMPDEST DUP3 DUP2 SUB PUSH1 0x80 DUP5 ADD MSTORE PUSH3 0x1B61 DUP2 DUP6 PUSH3 0x1A14 JUMP JUMPDEST SWAP9 SWAP8 POP POP POP POP POP POP POP POP JUMP JUMPDEST PUSH1 0x0 DUP1 PUSH1 0x0 PUSH1 0x60 DUP5 DUP7 SUB SLT ISZERO PUSH3 0x1B83 JUMPI PUSH1 0x0 DUP1 REVERT JUMPDEST PUSH3 0x1B8E DUP5 PUSH3 0x195C JUMP JUMPDEST SWAP3 POP PUSH1 0x20 DUP5 ADD CALLDATALOAD SWAP2 POP PUSH3 0x1BA5 PUSH1 0x40 DUP6 ADD PUSH3 0x195C JUMP JUMPDEST SWAP1 POP SWAP3 POP SWAP3 POP SWAP3 JUMP JUMPDEST PUSH1 0x0 PUSH1 0x1 DUP1 PUSH1 0xA0 SHL SUB DUP1 DUP11 AND DUP4 MSTORE PUSH1 0xE0 PUSH1 0x20 DUP5 ADD MSTORE PUSH3 0x1BD2 PUSH1 0xE0 DUP5 ADD DUP11 PUSH3 0x1A14 JUMP JUMPDEST DUP4 DUP2 SUB PUSH1 0x40 DUP6 ADD MSTORE PUSH3 0x1BE6 DUP2 DUP11 PUSH3 0x1A14 JUMP JUMPDEST SWAP1 POP DUP4 DUP2 SUB PUSH1 0x60 DUP6 ADD MSTORE PUSH3 0x1BFC DUP2 DUP10 PUSH3 0x1A14 JUMP JUMPDEST SWAP1 POP DUP4 DUP2 SUB PUSH1 0x80 DUP6 ADD MSTORE PUSH3 0x1C12 DUP2 DUP9 PUSH3 0x1A14 JUMP JUMPDEST PUSH1 0xA0 DUP6 ADD SWAP7 SWAP1 SWAP7 MSTORE POP SWAP3 SWAP1 SWAP3 AND PUSH1 0xC0 SWAP1 SWAP2 ADD MSTORE POP SWAP6 SWAP5 POP POP POP POP POP JUMP JUMPDEST PUSH1 0x0 DUP1 DUP4 PUSH1 0x1F DUP5 ADD SLT PUSH3 0x1C42 JUMPI PUSH1 0x0 DUP1 REVERT JUMPDEST POP DUP2 CALLDATALOAD PUSH8 0xFFFFFFFFFFFFFFFF DUP2 GT ISZERO PUSH3 0x1C5B JUMPI PUSH1 0x0 DUP1 REVERT JUMPDEST PUSH1 0x20 DUP4 ADD SWAP2 POP DUP4 PUSH1 0x20 DUP3 DUP6 ADD ADD GT ISZERO PUSH3 0x1C74 JUMPI PUSH1 0x0 DUP1 REVERT JUMPDEST SWAP3 POP SWAP3 SWAP1 POP JUMP JUMPDEST PUSH1 0x0 DUP1 PUSH1 0x0 DUP1 PUSH1 0x0 DUP1 PUSH1 0x0 DUP1 PUSH1 0x0 DUP1 PUSH1 0xC0 DUP12 DUP14 SUB SLT ISZERO PUSH3 0x1C9B JUMPI PUSH1 0x0 DUP1 REVERT JUMPDEST DUP11 CALLDATALOAD PUSH8 0xFFFFFFFFFFFFFFFF DUP1 DUP3 GT ISZERO PUSH3 0x1CB4 JUMPI PUSH1 0x0 DUP1 REVERT JUMPDEST PUSH3 0x1CC2 DUP15 DUP4 DUP16 ADD PUSH3 0x1C2F JUMP JUMPDEST SWAP1 SWAP13 POP SWAP11 POP PUSH1 0x20 DUP14 ADD CALLDATALOAD SWAP2 POP DUP1 DUP3 GT ISZERO PUSH3 0x1CDC JUMPI PUSH1 0x0 DUP1 REVERT JUMPDEST PUSH3 0x1CEA DUP15 DUP4 DUP16 ADD PUSH3 0x1C2F JUMP JUMPDEST SWAP1 SWAP11 POP SWAP9 POP PUSH1 0x40 DUP14 ADD CALLDATALOAD SWAP2 POP DUP1 DUP3 GT ISZERO PUSH3 0x1D04 JUMPI PUSH1 0x0 DUP1 REVERT JUMPDEST PUSH3 0x1D12 DUP15 DUP4 DUP16 ADD PUSH3 0x1C2F JUMP JUMPDEST SWAP1 SWAP9 POP SWAP7 POP PUSH1 0x60 DUP14 ADD CALLDATALOAD SWAP6 POP PUSH1 0x80 DUP14 ADD CALLDATALOAD SWAP5 POP PUSH1 0xA0 DUP14 ADD CALLDATALOAD SWAP2 POP DUP1 DUP3 GT ISZERO PUSH3 0x1D3A JUMPI PUSH1 0x0 DUP1 REVERT JUMPDEST POP PUSH3 0x1D49 DUP14 DUP3 DUP15 ADD PUSH3 0x1C2F JUMP JUMPDEST SWAP2 POP DUP1 SWAP4 POP POP DUP1 SWAP2 POP POP SWAP3 SWAP6 SWAP9 SWAP12 SWAP2 SWAP5 SWAP8 SWAP11 POP SWAP3 SWAP6 SWAP9 POP JUMP JUMPDEST DUP1 CALLDATALOAD PUSH2 0xFFFF DUP2 AND DUP2 EQ PUSH3 0x1974 JUMPI PUSH1 0x0 DUP1 REVERT JUMPDEST PUSH1 0x0 DUP1 PUSH1 0x40 DUP4 DUP6 SUB SLT ISZERO PUSH3 0x1D89 JUMPI PUSH1 0x0 DUP1 REVERT JUMPDEST PUSH3 0x1D94 DUP4 PUSH3 0x1D62 JUMP JUMPDEST SWAP2 POP PUSH3 0x1DA4 PUSH1 0x20 DUP5 ADD PUSH3 0x1D62 JUMP JUMPDEST SWAP1 POP SWAP3 POP SWAP3 SWAP1 POP JUMP JUMPDEST PUSH4 0x4E487B71 PUSH1 0xE0 SHL PUSH1 0x0 MSTORE PUSH1 0x11 PUSH1 0x4 MSTORE PUSH1 0x24 PUSH1 0x0 REVERT JUMPDEST DUP2 DUP2 SUB DUP2 DUP2 GT ISZERO PUSH3 0x1DD9 JUMPI PUSH3 0x1DD9 PUSH3 0x1DAD JUMP JUMPDEST SWAP3 SWAP2 POP POP JUMP JUMPDEST PUSH4 0x4E487B71 PUSH1 0xE0 SHL PUSH1 0x0 MSTORE PUSH1 0x32 PUSH1 0x4 MSTORE PUSH1 0x24 PUSH1 0x0 REVERT JUMPDEST DUP1 DUP3 ADD DUP1 DUP3 GT ISZERO PUSH3 0x1DD9 JUMPI PUSH3 0x1DD9 PUSH3 0x1DAD JUMP JUMPDEST PUSH4 0x4E487B71 PUSH1 0xE0 SHL PUSH1 0x0 MSTORE PUSH1 0x41 PUSH1 0x4 MSTORE PUSH1 0x24 PUSH1 0x0 REVERT JUMPDEST PUSH1 0x1 DUP2 DUP2 SHR SWAP1 DUP3 AND DUP1 PUSH3 0x1E36 JUMPI PUSH1 0x7F DUP3 AND SWAP2 POP JUMPDEST PUSH1 0x20 DUP3 LT DUP2 SUB PUSH3 0x1E57 JUMPI PUSH4 0x4E487B71 PUSH1 0xE0 SHL PUSH1 0x0 MSTORE PUSH1 0x22 PUSH1 0x4 MSTORE PUSH1 0x24 PUSH1 0x0 REVERT JUMPDEST POP SWAP2 SWAP1 POP JUMP JUMPDEST PUSH1 0x0 PUSH1 0x1 DUP3 ADD PUSH3 0x1E72 JUMPI PUSH3 0x1E72 PUSH3 0x1DAD JUMP JUMPDEST POP PUSH1 0x1 ADD SWAP1 JUMP JUMPDEST DUP1 DUP3 MUL DUP2 ISZERO DUP3 DUP3 DIV DUP5 EQ OR PUSH3 0x1DD9 JUMPI PUSH3 0x1DD9 PUSH3 0x1DAD JUMP JUMPDEST PUSH1 0x0 DUP3 PUSH3 0x1EB1 JUMPI PUSH4 0x4E487B71 PUSH1 0xE0 SHL PUSH1 0x0 MSTORE PUSH1 0x12 PUSH1 0x4 MSTORE PUSH1 0x24 PUSH1 0x0 REVERT JUMPDEST POP DIV SWAP1 JUMP JUMPDEST PUSH1 0x0 PUSH1 0x20 DUP3 DUP5 SUB SLT ISZERO PUSH3 0x1EC9 JUMPI PUSH1 0x0 DUP1 REVERT JUMPDEST DUP2 MLOAD PUSH8 0xFFFFFFFFFFFFFFFF DUP1 DUP3 GT ISZERO PUSH3 0x1EE2 JUMPI PUSH1 0x0 DUP1 REVERT JUMPDEST DUP2 DUP5 ADD SWAP2 POP DUP5 PUSH1 0x1F DUP4 ADD SLT PUSH3 0x1EF7 JUMPI PUSH1 0x0 DUP1 REVERT JUMPDEST DUP2 MLOAD DUP2 DUP2 GT ISZERO PUSH3 0x1F0C JUMPI PUSH3 0x1F0C PUSH3 0x1E0B JUMP JUMPDEST PUSH1 0x40 MLOAD PUSH1 0x1F DUP3 ADD PUSH1 0x1F NOT SWAP1 DUP2 AND PUSH1 0x3F ADD AND DUP2 ADD SWAP1 DUP4 DUP3 GT DUP2 DUP4 LT OR ISZERO PUSH3 0x1F37 JUMPI PUSH3 0x1F37 PUSH3 0x1E0B JUMP JUMPDEST DUP2 PUSH1 0x40 MSTORE DUP3 DUP2 MSTORE DUP8 PUSH1 0x20 DUP5 DUP8 ADD ADD GT ISZERO PUSH3 0x1F51 JUMPI PUSH1 0x0 DUP1 REVERT JUMPDEST PUSH3 0x1F64 DUP4 PUSH1 0x20 DUP4 ADD PUSH1 0x20 DUP9 ADD PUSH3 0x19EE JUMP JUMPDEST SWAP8 SWAP7 POP POP POP POP POP POP POP JUMP JUMPDEST DUP2 DUP4 MSTORE DUP2 DUP2 PUSH1 0x20 DUP6 ADD CALLDATACOPY POP PUSH1 0x0 DUP3 DUP3 ADD PUSH1 0x20 SWAP1 DUP2 ADD SWAP2 SWAP1 SWAP2 MSTORE PUSH1 0x1F SWAP1 SWAP2 ADD PUSH1 0x1F NOT AND SWAP1 SWAP2 ADD ADD SWAP1 JUMP JUMPDEST PUSH1 0xA0 DUP2 MSTORE PUSH1 0x0 PUSH3 0x1FAE PUSH1 0xA0 DUP4 ADD DUP11 DUP13 PUSH3 0x1F6F JUMP JUMPDEST DUP3 DUP2 SUB PUSH1 0x20 DUP5 ADD MSTORE PUSH3 0x1FC3 DUP2 DUP10 DUP12 PUSH3 0x1F6F JUMP JUMPDEST PUSH1 0x40 DUP5 ADD DUP9 SWAP1 MSTORE PUSH1 0x1 PUSH1 0x1 PUSH1 0xA0 SHL SUB DUP8 AND PUSH1 0x60 DUP6 ADD MSTORE DUP4 DUP2 SUB PUSH1 0x80 DUP6 ADD MSTORE SWAP1 POP PUSH3 0x1FF0 DUP2 DUP6 DUP8 PUSH3 0x1F6F JUMP JUMPDEST SWAP12 SWAP11 POP POP POP POP POP POP POP POP POP POP POP JUMP JUMPDEST PUSH1 0x1F DUP3 GT ISZERO PUSH3 0xF35 JUMPI PUSH1 0x0 DUP2 DUP2 MSTORE PUSH1 0x20 DUP2 KECCAK256 PUSH1 0x1F DUP6 ADD PUSH1 0x5 SHR DUP2 ADD PUSH1 0x20 DUP7 LT ISZERO PUSH3 0x2028 JUMPI POP DUP1 JUMPDEST PUSH1 0x1F DUP6 ADD PUSH1 0x5 SHR DUP3 ADD SWAP2 POP JUMPDEST DUP2 DUP2 LT ISZERO PUSH3 0x2049 JUMPI DUP3 DUP2 SSTORE PUSH1 0x1 ADD PUSH3 0x2034 JUMP JUMPDEST POP POP POP POP POP POP JUMP JUMPDEST DUP2 MLOAD PUSH8 0xFFFFFFFFFFFFFFFF DUP2 GT ISZERO PUSH3 0x206E JUMPI PUSH3 0x206E PUSH3 0x1E0B JUMP JUMPDEST PUSH3 0x2086 DUP2 PUSH3 0x207F DUP5 SLOAD PUSH3 0x1E21 JUMP JUMPDEST DUP5 PUSH3 0x1FFF JUMP JUMPDEST PUSH1 0x20 DUP1 PUSH1 0x1F DUP4 GT PUSH1 0x1 DUP2 EQ PUSH3 0x20BE JUMPI PUSH1 0x0 DUP5 ISZERO PUSH3 0x20A5 JUMPI POP DUP6 DUP4 ADD MLOAD JUMPDEST PUSH1 0x0 NOT PUSH1 0x3 DUP7 SWAP1 SHL SHR NOT AND PUSH1 0x1 DUP6 SWAP1 SHL OR DUP6 SSTORE PUSH3 0x2049 JUMP JUMPDEST PUSH1 0x0 DUP6 DUP2 MSTORE PUSH1 0x20 DUP2 KECCAK256 PUSH1 0x1F NOT DUP7 AND SWAP2 JUMPDEST DUP3 DUP2 LT ISZERO PUSH3 0x20EF JUMPI DUP9 DUP7 ADD MLOAD DUP3 SSTORE SWAP5 DUP5 ADD SWAP5 PUSH1 0x1 SWAP1 SWAP2 ADD SWAP1 DUP5 ADD PUSH3 0x20CE JUMP JUMPDEST POP DUP6 DUP3 LT ISZERO PUSH3 0x210E JUMPI DUP8 DUP6 ADD MLOAD PUSH1 0x0 NOT PUSH1 0x3 DUP9 SWAP1 SHL PUSH1 0xF8 AND SHR NOT AND DUP2 SSTORE JUMPDEST POP POP POP POP POP PUSH1 0x1 SWAP1 DUP2 SHL ADD SWAP1 SSTORE POP JUMP JUMPDEST DUP6 DUP2 MSTORE PUSH1 0x60 PUSH1 0x20 DUP3 ADD MSTORE PUSH1 0x0 PUSH3 0x213A PUSH1 0x60 DUP4 ADD DUP7 DUP9 PUSH3 0x1F6F JUMP JUMPDEST DUP3 DUP2 SUB PUSH1 0x40 DUP5 ADD MSTORE PUSH3 0x1B61 DUP2 DUP6 DUP8 PUSH3 0x1F6F JUMP JUMPDEST PUSH2 0xFFFF DUP2 DUP2 AND DUP4 DUP3 AND ADD SWAP1 DUP1 DUP3 GT ISZERO PUSH3 0x216D JUMPI PUSH3 0x216D PUSH3 0x1DAD JUMP JUMPDEST POP SWAP3 SWAP2 POP POP JUMP INVALID PUSH2 0x160 PUSH1 0x40 MSTORE CALLVALUE DUP1 ISZERO PUSH3 0x12 JUMPI PUSH1 0x0 DUP1 REVERT JUMPDEST POP PUSH1 0x40 MLOAD PUSH3 0x1A50 CODESIZE SUB DUP1 PUSH3 0x1A50 DUP4 CODECOPY DUP2 ADD PUSH1 0x40 DUP2 SWAP1 MSTORE PUSH3 0x35 SWAP2 PUSH3 0x598 JUMP JUMPDEST CALLER DUP6 DUP1 PUSH1 0x40 MLOAD DUP1 PUSH1 0x40 ADD PUSH1 0x40 MSTORE DUP1 PUSH1 0x1 DUP2 MSTORE PUSH1 0x20 ADD PUSH1 0x31 PUSH1 0xF8 SHL DUP2 MSTORE POP DUP9 DUP9 DUP2 PUSH1 0x3 SWAP1 DUP2 PUSH3 0x65 SWAP2 SWAP1 PUSH3 0x6E4 JUMP JUMPDEST POP PUSH1 0x4 PUSH3 0x74 DUP3 DUP3 PUSH3 0x6E4 JUMP JUMPDEST POP PUSH3 0x86 SWAP2 POP DUP4 SWAP1 POP PUSH1 0x5 PUSH3 0x217 JUMP JUMPDEST PUSH2 0x120 MSTORE PUSH3 0x97 DUP2 PUSH1 0x6 PUSH3 0x217 JUMP JUMPDEST PUSH2 0x140 MSTORE DUP2 MLOAD PUSH1 0x20 DUP1 DUP5 ADD SWAP2 SWAP1 SWAP2 KECCAK256 PUSH1 0xE0 MSTORE DUP2 MLOAD SWAP1 DUP3 ADD KECCAK256 PUSH2 0x100 MSTORE CHAINID PUSH1 0xA0 MSTORE PUSH3 0x125 PUSH1 0xE0 MLOAD PUSH2 0x100 MLOAD PUSH1 0x40 DUP1 MLOAD PUSH32 0x8B73C3C69BB8FE3D512ECC4CF759CC79239F7B179B0FFACAA9A75D522B39400F PUSH1 0x20 DUP3 ADD MSTORE SWAP1 DUP2 ADD SWAP3 SWAP1 SWAP3 MSTORE PUSH1 0x60 DUP3 ADD MSTORE CHAINID PUSH1 0x80 DUP3 ADD MSTORE ADDRESS PUSH1 0xA0 DUP3 ADD MSTORE PUSH1 0x0 SWAP1 PUSH1 0xC0 ADD PUSH1 0x40 MLOAD PUSH1 0x20 DUP2 DUP4 SUB SUB DUP2 MSTORE SWAP1 PUSH1 0x40 MSTORE DUP1 MLOAD SWAP1 PUSH1 0x20 ADD KECCAK256 SWAP1 POP SWAP1 JUMP JUMPDEST PUSH1 0x80 MSTORE POP POP ADDRESS PUSH1 0xC0 MSTORE POP PUSH1 0x1 PUSH1 0x1 PUSH1 0xA0 SHL SUB DUP2 AND PUSH3 0x15F JUMPI PUSH1 0x40 MLOAD PUSH4 0x1E4FBDF7 PUSH1 0xE0 SHL DUP2 MSTORE PUSH1 0x0 PUSH1 0x4 DUP3 ADD MSTORE PUSH1 0x24 ADD JUMPDEST PUSH1 0x40 MLOAD DUP1 SWAP2 SUB SWAP1 REVERT JUMPDEST PUSH3 0x16A DUP2 PUSH3 0x250 JUMP JUMPDEST POP PUSH1 0x1 PUSH1 0x1 PUSH1 0xA0 SHL SUB DUP3 AND PUSH3 0x193 JUMPI PUSH1 0x40 MLOAD PUSH4 0xD92E233D PUSH1 0xE0 SHL DUP2 MSTORE PUSH1 0x4 ADD PUSH1 0x40 MLOAD DUP1 SWAP2 SUB SWAP1 REVERT JUMPDEST PUSH1 0x3 DUP6 MLOAD LT DUP1 PUSH3 0x1A5 JUMPI POP PUSH1 0x3 DUP5 MLOAD LT JUMPDEST ISZERO PUSH3 0x1C4 JUMPI PUSH1 0x40 MLOAD PUSH4 0x94322419 PUSH1 0xE0 SHL DUP2 MSTORE PUSH1 0x4 ADD PUSH1 0x40 MLOAD DUP1 SWAP2 SUB SWAP1 REVERT JUMPDEST DUP3 PUSH1 0x0 SUB PUSH3 0x1E6 JUMPI PUSH1 0x40 MLOAD PUSH4 0xC16F3A93 PUSH1 0xE0 SHL DUP2 MSTORE PUSH1 0x4 ADD PUSH1 0x40 MLOAD DUP1 SWAP2 SUB SWAP1 REVERT JUMPDEST PUSH1 0x9 PUSH3 0x1F4 DUP3 DUP3 PUSH3 0x6E4 JUMP JUMPDEST POP PUSH3 0x201 CALLER DUP5 PUSH3 0x2A2 JUMP JUMPDEST PUSH3 0x20C DUP3 PUSH3 0x2E0 JUMP JUMPDEST POP POP POP POP POP PUSH3 0x82C JUMP JUMPDEST PUSH1 0x0 PUSH1 0x20 DUP4 MLOAD LT ISZERO PUSH3 0x237 JUMPI PUSH3 0x22F DUP4 PUSH3 0x324 JUMP JUMPDEST SWAP1 POP PUSH3 0x24A JUMP JUMPDEST DUP2 PUSH3 0x244 DUP5 DUP3 PUSH3 0x6E4 JUMP JUMPDEST POP PUSH1 0xFF SWAP1 POP JUMPDEST SWAP3 SWAP2 POP POP JUMP JUMPDEST PUSH1 0x8 DUP1 SLOAD PUSH1 0x1 PUSH1 0x1 PUSH1 0xA0 SHL SUB DUP4 DUP2 AND PUSH1 0x1 PUSH1 0x1 PUSH1 0xA0 SHL SUB NOT DUP4 AND DUP2 OR SWAP1 SWAP4 SSTORE PUSH1 0x40 MLOAD SWAP2 AND SWAP2 SWAP1 DUP3 SWAP1 PUSH32 0x8BE0079C531659141344CD1FD0A4F28419497F9722A3DAAFE3B4186F6B6457E0 SWAP1 PUSH1 0x0 SWAP1 LOG3 POP POP JUMP JUMPDEST PUSH1 0x1 PUSH1 0x1 PUSH1 0xA0 SHL SUB DUP3 AND PUSH3 0x2CE JUMPI PUSH1 0x40 MLOAD PUSH4 0xEC442F05 PUSH1 0xE0 SHL DUP2 MSTORE PUSH1 0x0 PUSH1 0x4 DUP3 ADD MSTORE PUSH1 0x24 ADD PUSH3 0x156 JUMP JUMPDEST PUSH3 0x2DC PUSH1 0x0 DUP4 DUP4 PUSH3 0x367 JUMP JUMPDEST POP POP JUMP JUMPDEST PUSH3 0x2EA PUSH3 0x49A JUMP JUMPDEST PUSH1 0x1 PUSH1 0x1 PUSH1 0xA0 SHL SUB DUP2 AND PUSH3 0x316 JUMPI PUSH1 0x40 MLOAD PUSH4 0x1E4FBDF7 PUSH1 0xE0 SHL DUP2 MSTORE PUSH1 0x0 PUSH1 0x4 DUP3 ADD MSTORE PUSH1 0x24 ADD PUSH3 0x156 JUMP JUMPDEST PUSH3 0x321 DUP2 PUSH3 0x250 JUMP JUMPDEST POP JUMP JUMPDEST PUSH1 0x0 DUP1 DUP3 SWAP1 POP PUSH1 0x1F DUP2 MLOAD GT ISZERO PUSH3 0x352 JUMPI DUP3 PUSH1 0x40 MLOAD PUSH4 0x305A27A9 PUSH1 0xE0 SHL DUP2 MSTORE PUSH1 0x4 ADD PUSH3 0x156 SWAP2 SWAP1 PUSH3 0x7B0 JUMP JUMPDEST DUP1 MLOAD PUSH3 0x35F DUP3 PUSH3 0x7E5 JUMP JUMPDEST OR SWAP4 SWAP3 POP POP POP JUMP JUMPDEST PUSH1 0x1 PUSH1 0x1 PUSH1 0xA0 SHL SUB DUP4 AND PUSH3 0x396 JUMPI DUP1 PUSH1 0x2 PUSH1 0x0 DUP3 DUP3 SLOAD PUSH3 0x38A SWAP2 SWAP1 PUSH3 0x80A JUMP JUMPDEST SWAP1 SWAP2 SSTORE POP PUSH3 0x40A SWAP1 POP JUMP JUMPDEST PUSH1 0x1 PUSH1 0x1 PUSH1 0xA0 SHL SUB DUP4 AND PUSH1 0x0 SWAP1 DUP2 MSTORE PUSH1 0x20 DUP2 SWAP1 MSTORE PUSH1 0x40 SWAP1 KECCAK256 SLOAD DUP2 DUP2 LT ISZERO PUSH3 0x3EB JUMPI PUSH1 0x40 MLOAD PUSH4 0x391434E3 PUSH1 0xE2 SHL DUP2 MSTORE PUSH1 0x1 PUSH1 0x1 PUSH1 0xA0 SHL SUB DUP6 AND PUSH1 0x4 DUP3 ADD MSTORE PUSH1 0x24 DUP2 ADD DUP3 SWAP1 MSTORE PUSH1 0x44 DUP2 ADD DUP4 SWAP1 MSTORE PUSH1 0x64 ADD PUSH3 0x156 JUMP JUMPDEST PUSH1 0x1 PUSH1 0x1 PUSH1 0xA0 SHL SUB DUP5 AND PUSH1 0x0 SWAP1 DUP2 MSTORE PUSH1 0x20 DUP2 SWAP1 MSTORE PUSH1 0x40 SWAP1 KECCAK256 SWAP1 DUP3 SWAP1 SUB SWAP1 SSTORE JUMPDEST PUSH1 0x1 PUSH1 0x1 PUSH1 0xA0 SHL SUB DUP3 AND PUSH3 0x428 JUMPI PUSH1 0x2 DUP1 SLOAD DUP3 SWAP1 SUB SWAP1 SSTORE PUSH3 0x447 JUMP JUMPDEST PUSH1 0x1 PUSH1 0x1 PUSH1 0xA0 SHL SUB DUP3 AND PUSH1 0x0 SWAP1 DUP2 MSTORE PUSH1 0x20 DUP2 SWAP1 MSTORE PUSH1 0x40 SWAP1 KECCAK256 DUP1 SLOAD DUP3 ADD SWAP1 SSTORE JUMPDEST DUP2 PUSH1 0x1 PUSH1 0x1 PUSH1 0xA0 SHL SUB AND DUP4 PUSH1 0x1 PUSH1 0x1 PUSH1 0xA0 SHL SUB AND PUSH32 0xDDF252AD1BE2C89B69C2B068FC378DAA952BA7F163C4A11628F55A4DF523B3EF DUP4 PUSH1 0x40 MLOAD PUSH3 0x48D SWAP2 DUP2 MSTORE PUSH1 0x20 ADD SWAP1 JUMP JUMPDEST PUSH1 0x40 MLOAD DUP1 SWAP2 SUB SWAP1 LOG3 POP POP POP JUMP JUMPDEST PUSH1 0x8 SLOAD PUSH1 0x1 PUSH1 0x1 PUSH1 0xA0 SHL SUB AND CALLER EQ PUSH3 0x4C9 JUMPI PUSH1 0x40 MLOAD PUSH4 0x118CDAA7 PUSH1 0xE0 SHL DUP2 MSTORE CALLER PUSH1 0x4 DUP3 ADD MSTORE PUSH1 0x24 ADD PUSH3 0x156 JUMP JUMPDEST JUMP JUMPDEST PUSH4 0x4E487B71 PUSH1 0xE0 SHL PUSH1 0x0 MSTORE PUSH1 0x41 PUSH1 0x4 MSTORE PUSH1 0x24 PUSH1 0x0 REVERT JUMPDEST PUSH1 0x0 JUMPDEST DUP4 DUP2 LT ISZERO PUSH3 0x4FE JUMPI DUP2 DUP2 ADD MLOAD DUP4 DUP3 ADD MSTORE PUSH1 0x20 ADD PUSH3 0x4E4 JUMP JUMPDEST POP POP PUSH1 0x0 SWAP2 ADD MSTORE JUMP JUMPDEST PUSH1 0x0 DUP3 PUSH1 0x1F DUP4 ADD SLT PUSH3 0x519 JUMPI PUSH1 0x0 DUP1 REVERT JUMPDEST DUP2 MLOAD PUSH1 0x1 PUSH1 0x1 PUSH1 0x40 SHL SUB DUP1 DUP3 GT ISZERO PUSH3 0x536 JUMPI PUSH3 0x536 PUSH3 0x4CB JUMP JUMPDEST PUSH1 0x40 MLOAD PUSH1 0x1F DUP4 ADD PUSH1 0x1F NOT SWAP1 DUP2 AND PUSH1 0x3F ADD AND DUP2 ADD SWAP1 DUP3 DUP3 GT DUP2 DUP4 LT OR ISZERO PUSH3 0x561 JUMPI PUSH3 0x561 PUSH3 0x4CB JUMP JUMPDEST DUP2 PUSH1 0x40 MSTORE DUP4 DUP2 MSTORE DUP7 PUSH1 0x20 DUP6 DUP9 ADD ADD GT ISZERO PUSH3 0x57B JUMPI PUSH1 0x0 DUP1 REVERT JUMPDEST PUSH3 0x58E DUP5 PUSH1 0x20 DUP4 ADD PUSH1 0x20 DUP10 ADD PUSH3 0x4E1 JUMP JUMPDEST SWAP7 SWAP6 POP POP POP POP POP POP JUMP JUMPDEST PUSH1 0x0 DUP1 PUSH1 0x0 DUP1 PUSH1 0x0 PUSH1 0xA0 DUP7 DUP9 SUB SLT ISZERO PUSH3 0x5B1 JUMPI PUSH1 0x0 DUP1 REVERT JUMPDEST DUP6 MLOAD PUSH1 0x1 PUSH1 0x1 PUSH1 0x40 SHL SUB DUP1 DUP3 GT ISZERO PUSH3 0x5C9 JUMPI PUSH1 0x0 DUP1 REVERT JUMPDEST PUSH3 0x5D7 DUP10 DUP4 DUP11 ADD PUSH3 0x507 JUMP JUMPDEST SWAP7 POP PUSH1 0x20 DUP9 ADD MLOAD SWAP2 POP DUP1 DUP3 GT ISZERO PUSH3 0x5EE JUMPI PUSH1 0x0 DUP1 REVERT JUMPDEST PUSH3 0x5FC DUP10 DUP4 DUP11 ADD PUSH3 0x507 JUMP JUMPDEST PUSH1 0x40 DUP10 ADD MLOAD PUSH1 0x60 DUP11 ADD MLOAD SWAP2 SWAP8 POP SWAP6 POP SWAP2 POP PUSH1 0x1 PUSH1 0x1 PUSH1 0xA0 SHL SUB DUP3 AND DUP3 EQ PUSH3 0x623 JUMPI PUSH1 0x0 DUP1 REVERT JUMPDEST PUSH1 0x80 DUP9 ADD MLOAD SWAP2 SWAP4 POP DUP1 DUP3 GT ISZERO PUSH3 0x639 JUMPI PUSH1 0x0 DUP1 REVERT JUMPDEST POP PUSH3 0x648 DUP9 DUP3 DUP10 ADD PUSH3 0x507 JUMP JUMPDEST SWAP2 POP POP SWAP3 SWAP6 POP SWAP3 SWAP6 SWAP1 SWAP4 POP JUMP JUMPDEST PUSH1 0x1 DUP2 DUP2 SHR SWAP1 DUP3 AND DUP1 PUSH3 0x66A JUMPI PUSH1 0x7F DUP3 AND SWAP2 POP JUMPDEST PUSH1 0x20 DUP3 LT DUP2 SUB PUSH3 0x68B JUMPI PUSH4 0x4E487B71 PUSH1 0xE0 SHL PUSH1 0x0 MSTORE PUSH1 0x22 PUSH1 0x4 MSTORE PUSH1 0x24 PUSH1 0x0 REVERT JUMPDEST POP SWAP2 SWAP1 POP JUMP JUMPDEST PUSH1 0x1F DUP3 GT ISZERO PUSH3 0x6DF JUMPI PUSH1 0x0 DUP2 DUP2 MSTORE PUSH1 0x20 DUP2 KECCAK256 PUSH1 0x1F DUP6 ADD PUSH1 0x5 SHR DUP2 ADD PUSH1 0x20 DUP7 LT ISZERO PUSH3 0x6BA JUMPI POP DUP1 JUMPDEST PUSH1 0x1F DUP6 ADD PUSH1 0x5 SHR DUP3 ADD SWAP2 POP JUMPDEST DUP2 DUP2 LT ISZERO PUSH3 0x6DB JUMPI DUP3 DUP2 SSTORE PUSH1 0x1 ADD PUSH3 0x6C6 JUMP JUMPDEST POP POP POP JUMPDEST POP POP POP JUMP JUMPDEST DUP2 MLOAD PUSH1 0x1 PUSH1 0x1 PUSH1 0x40 SHL SUB DUP2 GT ISZERO PUSH3 0x700 JUMPI PUSH3 0x700 PUSH3 0x4CB JUMP JUMPDEST PUSH3 0x718 DUP2 PUSH3 0x711 DUP5 SLOAD PUSH3 0x655 JUMP JUMPDEST DUP5 PUSH3 0x691 JUMP JUMPDEST PUSH1 0x20 DUP1 PUSH1 0x1F DUP4 GT PUSH1 0x1 DUP2 EQ PUSH3 0x750 JUMPI PUSH1 0x0 DUP5 ISZERO PUSH3 0x737 JUMPI POP DUP6 DUP4 ADD MLOAD JUMPDEST PUSH1 0x0 NOT PUSH1 0x3 DUP7 SWAP1 SHL SHR NOT AND PUSH1 0x1 DUP6 SWAP1 SHL OR DUP6 SSTORE PUSH3 0x6DB JUMP JUMPDEST PUSH1 0x0 DUP6 DUP2 MSTORE PUSH1 0x20 DUP2 KECCAK256 PUSH1 0x1F NOT DUP7 AND SWAP2 JUMPDEST DUP3 DUP2 LT ISZERO PUSH3 0x781 JUMPI DUP9 DUP7 ADD MLOAD DUP3 SSTORE SWAP5 DUP5 ADD SWAP5 PUSH1 0x1 SWAP1 SWAP2 ADD SWAP1 DUP5 ADD PUSH3 0x760 JUMP JUMPDEST POP DUP6 DUP3 LT ISZERO PUSH3 0x7A0 JUMPI DUP8 DUP6 ADD MLOAD PUSH1 0x0 NOT PUSH1 0x3 DUP9 SWAP1 SHL PUSH1 0xF8 AND SHR NOT AND DUP2 SSTORE JUMPDEST POP POP POP POP POP PUSH1 0x1 SWAP1 DUP2 SHL ADD SWAP1 SSTORE POP JUMP JUMPDEST PUSH1 0x20 DUP2 MSTORE PUSH1 0x0 DUP3 MLOAD DUP1 PUSH1 0x20 DUP5 ADD MSTORE PUSH3 0x7D1 DUP2 PUSH1 0x40 DUP6 ADD PUSH1 0x20 DUP8 ADD PUSH3 0x4E1 JUMP JUMPDEST PUSH1 0x1F ADD PUSH1 0x1F NOT AND SWAP2 SWAP1 SWAP2 ADD PUSH1 0x40 ADD SWAP3 SWAP2 POP POP JUMP JUMPDEST DUP1 MLOAD PUSH1 0x20 DUP1 DUP4 ADD MLOAD SWAP2 SWAP1 DUP2 LT ISZERO PUSH3 0x68B JUMPI PUSH1 0x0 NOT PUSH1 0x20 SWAP2 SWAP1 SWAP2 SUB PUSH1 0x3 SHL SHL AND SWAP2 SWAP1 POP JUMP JUMPDEST DUP1 DUP3 ADD DUP1 DUP3 GT ISZERO PUSH3 0x24A JUMPI PUSH4 0x4E487B71 PUSH1 0xE0 SHL PUSH1 0x0 MSTORE PUSH1 0x11 PUSH1 0x4 MSTORE PUSH1 0x24 PUSH1 0x0 REVERT JUMPDEST PUSH1 0x80 MLOAD PUSH1 0xA0 MLOAD PUSH1 0xC0 MLOAD PUSH1 0xE0 MLOAD PUSH2 0x100 MLOAD PUSH2 0x120 MLOAD PUSH2 0x140 MLOAD PUSH2 0x11C9 PUSH3 0x887 PUSH1 0x0 CODECOPY PUSH1 0x0 PUSH2 0x913 ADD MSTORE PUSH1 0x0 PUSH2 0x8E6 ADD MSTORE PUSH1 0x0 PUSH2 0x80F ADD MSTORE PUSH1 0x0 PUSH2 0x7E7 ADD MSTORE PUSH1 0x0 PUSH2 0x742 ADD MSTORE PUSH1 0x0 PUSH2 0x76C ADD MSTORE PUSH1 0x0 PUSH2 0x796 ADD MSTORE PUSH2 0x11C9 PUSH1 0x0 RETURN INVALID PUSH1 0x80 PUSH1 0x40 MSTORE CALLVALUE DUP1 ISZERO PUSH2 0x10 JUMPI PUSH1 0x0 DUP1 REVERT JUMPDEST POP PUSH1 0x4 CALLDATASIZE LT PUSH2 0x116 JUMPI PUSH1 0x0 CALLDATALOAD PUSH1 0xE0 SHR DUP1 PUSH4 0x7ECEBE00 GT PUSH2 0xA2 JUMPI DUP1 PUSH4 0xA9059CBB GT PUSH2 0x71 JUMPI DUP1 PUSH4 0xA9059CBB EQ PUSH2 0x224 JUMPI DUP1 PUSH4 0xC623674F EQ PUSH2 0x237 JUMPI DUP1 PUSH4 0xD505ACCF EQ PUSH2 0x23F JUMPI DUP1 PUSH4 0xDD62ED3E EQ PUSH2 0x252 JUMPI DUP1 PUSH4 0xF2FDE38B EQ PUSH2 0x28B JUMPI PUSH1 0x0 DUP1 REVERT JUMPDEST DUP1 PUSH4 0x7ECEBE00 EQ PUSH2 0x1D3 JUMPI DUP1 PUSH4 0x84B0196E EQ PUSH2 0x1E6 JUMPI DUP1 PUSH4 0x8DA5CB5B EQ PUSH2 0x201 JUMPI DUP1 PUSH4 0x95D89B41 EQ PUSH2 0x21C JUMPI PUSH1 0x0 DUP1 REVERT JUMPDEST DUP1 PUSH4 0x313CE567 GT PUSH2 0xE9 JUMPI DUP1 PUSH4 0x313CE567 EQ PUSH2 0x181 JUMPI DUP1 PUSH4 0x3644E515 EQ PUSH2 0x190 JUMPI DUP1 PUSH4 0x3C130D90 EQ PUSH2 0x198 JUMPI DUP1 PUSH4 0x70A08231 EQ PUSH2 0x1A0 JUMPI DUP1 PUSH4 0x715018A6 EQ PUSH2 0x1C9 JUMPI PUSH1 0x0 DUP1 REVERT JUMPDEST DUP1 PUSH4 0x6FDDE03 EQ PUSH2 0x11B JUMPI DUP1 PUSH4 0x95EA7B3 EQ PUSH2 0x139 JUMPI DUP1 PUSH4 0x18160DDD EQ PUSH2 0x15C JUMPI DUP1 PUSH4 0x23B872DD EQ PUSH2 0x16E JUMPI JUMPDEST PUSH1 0x0 DUP1 REVERT JUMPDEST PUSH2 0x123 PUSH2 0x29E JUMP JUMPDEST PUSH1 0x40 MLOAD PUSH2 0x130 SWAP2 SWAP1 PUSH2 0xE77 JUMP JUMPDEST PUSH1 0x40 MLOAD DUP1 SWAP2 SUB SWAP1 RETURN JUMPDEST PUSH2 0x14C PUSH2 0x147 CALLDATASIZE PUSH1 0x4 PUSH2 0xEAD JUMP JUMPDEST PUSH2 0x330 JUMP JUMPDEST PUSH1 0x40 MLOAD SWAP1 ISZERO ISZERO DUP2 MSTORE PUSH1 0x20 ADD PUSH2 0x130 JUMP JUMPDEST PUSH1 0x2 SLOAD JUMPDEST PUSH1 0x40 MLOAD SWAP1 DUP2 MSTORE PUSH1 0x20 ADD PUSH2 0x130 JUMP JUMPDEST PUSH2 0x14C PUSH2 0x17C CALLDATASIZE PUSH1 0x4 PUSH2 0xED7 JUMP JUMPDEST PUSH2 0x34A JUMP JUMPDEST PUSH1 0x40 MLOAD PUSH1 0x12 DUP2 MSTORE PUSH1 0x20 ADD PUSH2 0x130 JUMP JUMPDEST PUSH2 0x160 PUSH2 0x36E JUMP JUMPDEST PUSH2 0x123 PUSH2 0x37D JUMP JUMPDEST PUSH2 0x160 PUSH2 0x1AE CALLDATASIZE PUSH1 0x4 PUSH2 0xF13 JUMP JUMPDEST PUSH1 0x1 PUSH1 0x1 PUSH1 0xA0 SHL SUB AND PUSH1 0x0 SWAP1 DUP2 MSTORE PUSH1 0x20 DUP2 SWAP1 MSTORE PUSH1 0x40 SWAP1 KECCAK256 SLOAD SWAP1 JUMP JUMPDEST PUSH2 0x1D1 PUSH2 0x3A5 JUMP JUMPDEST STOP JUMPDEST PUSH2 0x160 PUSH2 0x1E1 CALLDATASIZE PUSH1 0x4 PUSH2 0xF13 JUMP JUMPDEST PUSH2 0x3B9 JUMP JUMPDEST PUSH2 0x1EE PUSH2 0x3D7 JUMP JUMPDEST PUSH1 0x40 MLOAD PUSH2 0x130 SWAP8 SWAP7 SWAP6 SWAP5 SWAP4 SWAP3 SWAP2 SWAP1 PUSH2 0xF2E JUMP JUMPDEST PUSH1 0x8 SLOAD PUSH1 0x40 MLOAD PUSH1 0x1 PUSH1 0x1 PUSH1 0xA0 SHL SUB SWAP1 SWAP2 AND DUP2 MSTORE PUSH1 0x20 ADD PUSH2 0x130 JUMP JUMPDEST PUSH2 0x123 PUSH2 0x41D JUMP JUMPDEST PUSH2 0x14C PUSH2 0x232 CALLDATASIZE PUSH1 0x4 PUSH2 0xEAD JUMP JUMPDEST PUSH2 0x42C JUMP JUMPDEST PUSH2 0x123 PUSH2 0x43A JUMP JUMPDEST PUSH2 0x1D1 PUSH2 0x24D CALLDATASIZE PUSH1 0x4 PUSH2 0xFC4 JUMP JUMPDEST PUSH2 0x4C8 JUMP JUMPDEST PUSH2 0x160 PUSH2 0x260 CALLDATASIZE PUSH1 0x4 PUSH2 0x1037 JUMP JUMPDEST PUSH1 0x1 PUSH1 0x1 PUSH1 0xA0 SHL SUB SWAP2 DUP3 AND PUSH1 0x0 SWAP1 DUP2 MSTORE PUSH1 0x1 PUSH1 0x20 SWAP1 DUP2 MSTORE PUSH1 0x40 DUP1 DUP4 KECCAK256 SWAP4 SWAP1 SWAP5 AND DUP3 MSTORE SWAP2 SWAP1 SWAP2 MSTORE KECCAK256 SLOAD SWAP1 JUMP JUMPDEST PUSH2 0x1D1 PUSH2 0x299 CALLDATASIZE PUSH1 0x4 PUSH2 0xF13 JUMP JUMPDEST PUSH2 0x607 JUMP JUMPDEST PUSH1 0x60 PUSH1 0x3 DUP1 SLOAD PUSH2 0x2AD SWAP1 PUSH2 0x106A JUMP JUMPDEST DUP1 PUSH1 0x1F ADD PUSH1 0x20 DUP1 SWAP2 DIV MUL PUSH1 0x20 ADD PUSH1 0x40 MLOAD SWAP1 DUP2 ADD PUSH1 0x40 MSTORE DUP1 SWAP3 SWAP2 SWAP1 DUP2 DUP2 MSTORE PUSH1 0x20 ADD DUP3 DUP1 SLOAD PUSH2 0x2D9 SWAP1 PUSH2 0x106A JUMP JUMPDEST DUP1 ISZERO PUSH2 0x326 JUMPI DUP1 PUSH1 0x1F LT PUSH2 0x2FB JUMPI PUSH2 0x100 DUP1 DUP4 SLOAD DIV MUL DUP4 MSTORE SWAP2 PUSH1 0x20 ADD SWAP2 PUSH2 0x326 JUMP JUMPDEST DUP3 ADD SWAP2 SWAP1 PUSH1 0x0 MSTORE PUSH1 0x20 PUSH1 0x0 KECCAK256 SWAP1 JUMPDEST DUP2 SLOAD DUP2 MSTORE SWAP1 PUSH1 0x1 ADD SWAP1 PUSH1 0x20 ADD DUP1 DUP4 GT PUSH2 0x309 JUMPI DUP3 SWAP1 SUB PUSH1 0x1F AND DUP3 ADD SWAP2 JUMPDEST POP POP POP POP POP SWAP1 POP SWAP1 JUMP JUMPDEST PUSH1 0x0 CALLER PUSH2 0x33E DUP2 DUP6 DUP6 PUSH2 0x645 JUMP JUMPDEST PUSH1 0x1 SWAP2 POP POP JUMPDEST SWAP3 SWAP2 POP POP JUMP JUMPDEST PUSH1 0x0 CALLER PUSH2 0x358 DUP6 DUP3 DUP6 PUSH2 0x657 JUMP JUMPDEST PUSH2 0x363 DUP6 DUP6 DUP6 PUSH2 0x6D6 JUMP JUMPDEST POP PUSH1 0x1 SWAP5 SWAP4 POP POP POP POP JUMP JUMPDEST PUSH1 0x0 PUSH2 0x378 PUSH2 0x735 JUMP JUMPDEST SWAP1 POP SWAP1 JUMP JUMPDEST PUSH1 0x60 PUSH1 0x9 PUSH1 0x40 MLOAD PUSH1 0x20 ADD PUSH2 0x391 SWAP2 SWAP1 PUSH2 0x10A4 JUMP JUMPDEST PUSH1 0x40 MLOAD PUSH1 0x20 DUP2 DUP4 SUB SUB DUP2 MSTORE SWAP1 PUSH1 0x40 MSTORE SWAP1 POP SWAP1 JUMP JUMPDEST PUSH2 0x3AD PUSH2 0x860 JUMP JUMPDEST PUSH2 0x3B7 PUSH1 0x0 PUSH2 0x88D JUMP JUMPDEST JUMP JUMPDEST PUSH1 0x1 PUSH1 0x1 PUSH1 0xA0 SHL SUB DUP2 AND PUSH1 0x0 SWAP1 DUP2 MSTORE PUSH1 0x7 PUSH1 0x20 MSTORE PUSH1 0x40 DUP2 KECCAK256 SLOAD PUSH2 0x344 JUMP JUMPDEST PUSH1 0x0 PUSH1 0x60 DUP1 PUSH1 0x0 DUP1 PUSH1 0x0 PUSH1 0x60 PUSH2 0x3EB PUSH2 0x8DF JUMP JUMPDEST PUSH2 0x3F3 PUSH2 0x90C JUMP JUMPDEST PUSH1 0x40 DUP1 MLOAD PUSH1 0x0 DUP1 DUP3 MSTORE PUSH1 0x20 DUP3 ADD SWAP1 SWAP3 MSTORE PUSH1 0xF PUSH1 0xF8 SHL SWAP12 SWAP4 SWAP11 POP SWAP2 SWAP9 POP CHAINID SWAP8 POP ADDRESS SWAP7 POP SWAP5 POP SWAP3 POP SWAP1 POP JUMP JUMPDEST PUSH1 0x60 PUSH1 0x4 DUP1 SLOAD PUSH2 0x2AD SWAP1 PUSH2 0x106A JUMP JUMPDEST PUSH1 0x0 CALLER PUSH2 0x33E DUP2 DUP6 DUP6 PUSH2 0x6D6 JUMP JUMPDEST PUSH1 0x9 DUP1 SLOAD PUSH2 0x447 SWAP1 PUSH2 0x106A JUMP JUMPDEST DUP1 PUSH1 0x1F ADD PUSH1 0x20 DUP1 SWAP2 DIV MUL PUSH1 0x20 ADD PUSH1 0x40 MLOAD SWAP1 DUP2 ADD PUSH1 0x40 MSTORE DUP1 SWAP3 SWAP2 SWAP1 DUP2 DUP2 MSTORE PUSH1 0x20 ADD DUP3 DUP1 SLOAD PUSH2 0x473 SWAP1 PUSH2 0x106A JUMP JUMPDEST DUP1 ISZERO PUSH2 0x4C0 JUMPI DUP1 PUSH1 0x1F LT PUSH2 0x495 JUMPI PUSH2 0x100 DUP1 DUP4 SLOAD DIV MUL DUP4 MSTORE SWAP2 PUSH1 0x20 ADD SWAP2 PUSH2 0x4C0 JUMP JUMPDEST DUP3 ADD SWAP2 SWAP1 PUSH1 0x0 MSTORE PUSH1 0x20 PUSH1 0x0 KECCAK256 SWAP1 JUMPDEST DUP2 SLOAD DUP2 MSTORE SWAP1 PUSH1 0x1 ADD SWAP1 PUSH1 0x20 ADD DUP1 DUP4 GT PUSH2 0x4A3 JUMPI DUP3 SWAP1 SUB PUSH1 0x1F AND DUP3 ADD SWAP2 JUMPDEST POP POP POP POP POP DUP2 JUMP JUMPDEST DUP4 TIMESTAMP GT ISZERO PUSH2 0x4F1 JUMPI PUSH1 0x40 MLOAD PUSH4 0x313C8981 PUSH1 0xE1 SHL DUP2 MSTORE PUSH1 0x4 DUP2 ADD DUP6 SWAP1 MSTORE PUSH1 0x24 ADD JUMPDEST PUSH1 0x40 MLOAD DUP1 SWAP2 SUB SWAP1 REVERT JUMPDEST PUSH1 0x0 PUSH32 0x6E71EDAE12B1B97F4D1F60370FEF10105FA2FAAE0126114A169C64845D6126C9 DUP9 DUP9 DUP9 PUSH2 0x53E DUP13 PUSH1 0x1 PUSH1 0x1 PUSH1 0xA0 SHL SUB AND PUSH1 0x0 SWAP1 DUP2 MSTORE PUSH1 0x7 PUSH1 0x20 MSTORE PUSH1 0x40 SWAP1 KECCAK256 DUP1 SLOAD PUSH1 0x1 DUP2 ADD SWAP1 SWAP2 SSTORE SWAP1 JUMP JUMPDEST PUSH1 0x40 DUP1 MLOAD PUSH1 0x20 DUP2 ADD SWAP7 SWAP1 SWAP7 MSTORE PUSH1 0x1 PUSH1 0x1 PUSH1 0xA0 SHL SUB SWAP5 DUP6 AND SWAP1 DUP7 ADD MSTORE SWAP3 SWAP1 SWAP2 AND PUSH1 0x60 DUP5 ADD MSTORE PUSH1 0x80 DUP4 ADD MSTORE PUSH1 0xA0 DUP3 ADD MSTORE PUSH1 0xC0 DUP2 ADD DUP7 SWAP1 MSTORE PUSH1 0xE0 ADD PUSH1 0x40 MLOAD PUSH1 0x20 DUP2 DUP4 SUB SUB DUP2 MSTORE SWAP1 PUSH1 0x40 MSTORE DUP1 MLOAD SWAP1 PUSH1 0x20 ADD KECCAK256 SWAP1 POP PUSH1 0x0 PUSH2 0x599 DUP3 PUSH2 0x939 JUMP JUMPDEST SWAP1 POP PUSH1 0x0 PUSH2 0x5A9 DUP3 DUP8 DUP8 DUP8 PUSH2 0x966 JUMP JUMPDEST SWAP1 POP DUP10 PUSH1 0x1 PUSH1 0x1 PUSH1 0xA0 SHL SUB AND DUP2 PUSH1 0x1 PUSH1 0x1 PUSH1 0xA0 SHL SUB AND EQ PUSH2 0x5F0 JUMPI PUSH1 0x40 MLOAD PUSH4 0x25C00723 PUSH1 0xE1 SHL DUP2 MSTORE PUSH1 0x1 PUSH1 0x1 PUSH1 0xA0 SHL SUB DUP1 DUP4 AND PUSH1 0x4 DUP4 ADD MSTORE DUP12 AND PUSH1 0x24 DUP3 ADD MSTORE PUSH1 0x44 ADD PUSH2 0x4E8 JUMP JUMPDEST PUSH2 0x5FB DUP11 DUP11 DUP11 PUSH2 0x645 JUMP JUMPDEST POP POP POP POP POP POP POP POP POP POP JUMP JUMPDEST PUSH2 0x60F PUSH2 0x860 JUMP JUMPDEST PUSH1 0x1 PUSH1 0x1 PUSH1 0xA0 SHL SUB DUP2 AND PUSH2 0x639 JUMPI PUSH1 0x40 MLOAD PUSH4 0x1E4FBDF7 PUSH1 0xE0 SHL DUP2 MSTORE PUSH1 0x0 PUSH1 0x4 DUP3 ADD MSTORE PUSH1 0x24 ADD PUSH2 0x4E8 JUMP JUMPDEST PUSH2 0x642 DUP2 PUSH2 0x88D JUMP JUMPDEST POP JUMP JUMPDEST PUSH2 0x652 DUP4 DUP4 DUP4 PUSH1 0x1 PUSH2 0x994 JUMP JUMPDEST POP POP POP JUMP JUMPDEST PUSH1 0x1 PUSH1 0x1 PUSH1 0xA0 SHL SUB DUP4 DUP2 AND PUSH1 0x0 SWAP1 DUP2 MSTORE PUSH1 0x1 PUSH1 0x20 SWAP1 DUP2 MSTORE PUSH1 0x40 DUP1 DUP4 KECCAK256 SWAP4 DUP7 AND DUP4 MSTORE SWAP3 SWAP1 MSTORE KECCAK256 SLOAD PUSH1 0x0 NOT DUP2 LT ISZERO PUSH2 0x6D0 JUMPI DUP2 DUP2 LT ISZERO PUSH2 0x6C1 JUMPI PUSH1 0x40 MLOAD PUSH4 0x7DC7A0D9 PUSH1 0xE1 SHL DUP2 MSTORE PUSH1 0x1 PUSH1 0x1 PUSH1 0xA0 SHL SUB DUP5 AND PUSH1 0x4 DUP3 ADD MSTORE PUSH1 0x24 DUP2 ADD DUP3 SWAP1 MSTORE PUSH1 0x44 DUP2 ADD DUP4 SWAP1 MSTORE PUSH1 0x64 ADD PUSH2 0x4E8 JUMP JUMPDEST PUSH2 0x6D0 DUP5 DUP5 DUP5 DUP5 SUB PUSH1 0x0 PUSH2 0x994 JUMP JUMPDEST POP POP POP POP JUMP JUMPDEST PUSH1 0x1 PUSH1 0x1 PUSH1 0xA0 SHL SUB DUP4 AND PUSH2 0x700 JUMPI PUSH1 0x40 MLOAD PUSH4 0x4B637E8F PUSH1 0xE1 SHL DUP2 MSTORE PUSH1 0x0 PUSH1 0x4 DUP3 ADD MSTORE PUSH1 0x24 ADD PUSH2 0x4E8 JUMP JUMPDEST PUSH1 0x1 PUSH1 0x1 PUSH1 0xA0 SHL SUB DUP3 AND PUSH2 0x72A JUMPI PUSH1 0x40 MLOAD PUSH4 0xEC442F05 PUSH1 0xE0 SHL DUP2 MSTORE PUSH1 0x0 PUSH1 0x4 DUP3 ADD MSTORE PUSH1 0x24 ADD PUSH2 0x4E8 JUMP JUMPDEST PUSH2 0x652 DUP4 DUP4 DUP4 PUSH2 0xA69 JUMP JUMPDEST PUSH1 0x0 ADDRESS PUSH1 0x1 PUSH1 0x1 PUSH1 0xA0 SHL SUB PUSH32 0x0 AND EQ DUP1 ISZERO PUSH2 0x78E JUMPI POP PUSH32 0x0 CHAINID EQ JUMPDEST ISZERO PUSH2 0x7B8 JUMPI POP PUSH32 0x0 SWAP1 JUMP JUMPDEST PUSH2 0x378 PUSH1 0x40 DUP1 MLOAD PUSH32 0x8B73C3C69BB8FE3D512ECC4CF759CC79239F7B179B0FFACAA9A75D522B39400F PUSH1 0x20 DUP3 ADD MSTORE PUSH32 0x0 SWAP2 DUP2 ADD SWAP2 SWAP1 SWAP2 MSTORE PUSH32 0x0 PUSH1 0x60 DUP3 ADD MSTORE CHAINID PUSH1 0x80 DUP3 ADD MSTORE ADDRESS PUSH1 0xA0 DUP3 ADD MSTORE PUSH1 0x0 SWAP1 PUSH1 0xC0 ADD PUSH1 0x40 MLOAD PUSH1 0x20 DUP2 DUP4 SUB SUB DUP2 MSTORE SWAP1 PUSH1 0x40 MSTORE DUP1 MLOAD SWAP1 PUSH1 0x20 ADD KECCAK256 SWAP1 POP SWAP1 JUMP JUMPDEST PUSH1 0x8 SLOAD PUSH1 0x1 PUSH1 0x1 PUSH1 0xA0 SHL SUB AND CALLER EQ PUSH2 0x3B7 JUMPI PUSH1 0x40 MLOAD PUSH4 0x118CDAA7 PUSH1 0xE0 SHL DUP2 MSTORE CALLER PUSH1 0x4 DUP3 ADD MSTORE PUSH1 0x24 ADD PUSH2 0x4E8 JUMP JUMPDEST PUSH1 0x8 DUP1 SLOAD PUSH1 0x1 PUSH1 0x1 PUSH1 0xA0 SHL SUB DUP4 DUP2 AND PUSH1 0x1 PUSH1 0x1 PUSH1 0xA0 SHL SUB NOT DUP4 AND DUP2 OR SWAP1 SWAP4 SSTORE PUSH1 0x40 MLOAD SWAP2 AND SWAP2 SWAP1 DUP3 SWAP1 PUSH32 0x8BE0079C531659141344CD1FD0A4F28419497F9722A3DAAFE3B4186F6B6457E0 SWAP1 PUSH1 0x0 SWAP1 LOG3 POP POP JUMP JUMPDEST PUSH1 0x60 PUSH2 0x378 PUSH32 0x0 PUSH1 0x5 PUSH2 0xB93 JUMP JUMPDEST PUSH1 0x60 PUSH2 0x378 PUSH32 0x0 PUSH1 0x6 PUSH2 0xB93 JUMP JUMPDEST PUSH1 0x0 PUSH2 0x344 PUSH2 0x946 PUSH2 0x735 JUMP JUMPDEST DUP4 PUSH1 0x40 MLOAD PUSH2 0x1901 PUSH1 0xF0 SHL DUP2 MSTORE PUSH1 0x2 DUP2 ADD SWAP3 SWAP1 SWAP3 MSTORE PUSH1 0x22 DUP3 ADD MSTORE PUSH1 0x42 SWAP1 KECCAK256 SWAP1 JUMP JUMPDEST PUSH1 0x0 DUP1 PUSH1 0x0 DUP1 PUSH2 0x978 DUP9 DUP9 DUP9 DUP9 PUSH2 0xC3E JUMP JUMPDEST SWAP3 POP SWAP3 POP SWAP3 POP PUSH2 0x988 DUP3 DUP3 PUSH2 0xD0D JUMP JUMPDEST POP SWAP1 SWAP7 SWAP6 POP POP POP POP POP POP JUMP JUMPDEST PUSH1 0x1 PUSH1 0x1 PUSH1 0xA0 SHL SUB DUP5 AND PUSH2 0x9BE JUMPI PUSH1 0x40 MLOAD PUSH4 0xE602DF05 PUSH1 0xE0 SHL DUP2 MSTORE PUSH1 0x0 PUSH1 0x4 DUP3 ADD MSTORE PUSH1 0x24 ADD PUSH2 0x4E8 JUMP JUMPDEST PUSH1 0x1 PUSH1 0x1 PUSH1 0xA0 SHL SUB DUP4 AND PUSH2 0x9E8 JUMPI PUSH1 0x40 MLOAD PUSH4 0x4A1406B1 PUSH1 0xE1 SHL DUP2 MSTORE PUSH1 0x0 PUSH1 0x4 DUP3 ADD MSTORE PUSH1 0x24 ADD PUSH2 0x4E8 JUMP JUMPDEST PUSH1 0x1 PUSH1 0x1 PUSH1 0xA0 SHL SUB DUP1 DUP6 AND PUSH1 0x0 SWAP1 DUP2 MSTORE PUSH1 0x1 PUSH1 0x20 SWAP1 DUP2 MSTORE PUSH1 0x40 DUP1 DUP4 KECCAK256 SWAP4 DUP8 AND DUP4 MSTORE SWAP3 SWAP1 MSTORE KECCAK256 DUP3 SWAP1 SSTORE DUP1 ISZERO PUSH2 0x6D0 JUMPI DUP3 PUSH1 0x1 PUSH1 0x1 PUSH1 0xA0 SHL SUB AND DUP5 PUSH1 0x1 PUSH1 0x1 PUSH1 0xA0 SHL SUB AND PUSH32 0x8C5BE1E5EBEC7D5BD14F71427D1E84F3DD0314C0F7B2291E5B200AC8C7C3B925 DUP5 PUSH1 0x40 MLOAD PUSH2 0xA5B SWAP2 DUP2 MSTORE PUSH1 0x20 ADD SWAP1 JUMP JUMPDEST PUSH1 0x40 MLOAD DUP1 SWAP2 SUB SWAP1 LOG3 POP POP POP POP JUMP JUMPDEST PUSH1 0x1 PUSH1 0x1 PUSH1 0xA0 SHL SUB DUP4 AND PUSH2 0xA94 JUMPI DUP1 PUSH1 0x2 PUSH1 0x0 DUP3 DUP3 SLOAD PUSH2 0xA89 SWAP2 SWAP1 PUSH2 0x115C JUMP JUMPDEST SWAP1 SWAP2 SSTORE POP PUSH2 0xB06 SWAP1 POP JUMP JUMPDEST PUSH1 0x1 PUSH1 0x1 PUSH1 0xA0 SHL SUB DUP4 AND PUSH1 0x0 SWAP1 DUP2 MSTORE PUSH1 0x20 DUP2 SWAP1 MSTORE PUSH1 0x40 SWAP1 KECCAK256 SLOAD DUP2 DUP2 LT ISZERO PUSH2 0xAE7 JUMPI PUSH1 0x40 MLOAD PUSH4 0x391434E3 PUSH1 0xE2 SHL DUP2 MSTORE PUSH1 0x1 PUSH1 0x1 PUSH1 0xA0 SHL SUB DUP6 AND PUSH1 0x4 DUP3 ADD MSTORE PUSH1 0x24 DUP2 ADD DUP3 SWAP1 MSTORE PUSH1 0x44 DUP2 ADD DUP4 SWAP1 MSTORE PUSH1 0x64 ADD PUSH2 0x4E8 JUMP JUMPDEST PUSH1 0x1 PUSH1 0x1 PUSH1 0xA0 SHL SUB DUP5 AND PUSH1 0x0 SWAP1 DUP2 MSTORE PUSH1 0x20 DUP2 SWAP1 MSTORE PUSH1 0x40 SWAP1 KECCAK256 SWAP1 DUP3 SWAP1 SUB SWAP1 SSTORE JUMPDEST PUSH1 0x1 PUSH1 0x1 PUSH1 0xA0 SHL SUB DUP3 AND PUSH2 0xB22 JUMPI PUSH1 0x2 DUP1 SLOAD DUP3 SWAP1 SUB SWAP1 SSTORE PUSH2 0xB41 JUMP JUMPDEST PUSH1 0x1 PUSH1 0x1 PUSH1 0xA0 SHL SUB DUP3 AND PUSH1 0x0 SWAP1 DUP2 MSTORE PUSH1 0x20 DUP2 SWAP1 MSTORE PUSH1 0x40 SWAP1 KECCAK256 DUP1 SLOAD DUP3 ADD SWAP1 SSTORE JUMPDEST DUP2 PUSH1 0x1 PUSH1 0x1 PUSH1 0xA0 SHL SUB AND DUP4 PUSH1 0x1 PUSH1 0x1 PUSH1 0xA0 SHL SUB AND PUSH32 0xDDF252AD1BE2C89B69C2B068FC378DAA952BA7F163C4A11628F55A4DF523B3EF DUP4 PUSH1 0x40 MLOAD PUSH2 0xB86 SWAP2 DUP2 MSTORE PUSH1 0x20 ADD SWAP1 JUMP JUMPDEST PUSH1 0x40 MLOAD DUP1 SWAP2 SUB SWAP1 LOG3 POP POP POP JUMP JUMPDEST PUSH1 0x60 PUSH1 0xFF DUP4 EQ PUSH2 0xBAD JUMPI PUSH2 0xBA6 DUP4 PUSH2 0xDCA JUMP JUMPDEST SWAP1 POP PUSH2 0x344 JUMP JUMPDEST DUP2 DUP1 SLOAD PUSH2 0xBB9 SWAP1 PUSH2 0x106A JUMP JUMPDEST DUP1 PUSH1 0x1F ADD PUSH1 0x20 DUP1 SWAP2 DIV MUL PUSH1 0x20 ADD PUSH1 0x40 MLOAD SWAP1 DUP2 ADD PUSH1 0x40 MSTORE DUP1 SWAP3 SWAP2 SWAP1 DUP2 DUP2 MSTORE PUSH1 0x20 ADD DUP3 DUP1 SLOAD PUSH2 0xBE5 SWAP1 PUSH2 0x106A JUMP JUMPDEST DUP1 ISZERO PUSH2 0xC32 JUMPI DUP1 PUSH1 0x1F LT PUSH2 0xC07 JUMPI PUSH2 0x100 DUP1 DUP4 SLOAD DIV MUL DUP4 MSTORE SWAP2 PUSH1 0x20 ADD SWAP2 PUSH2 0xC32 JUMP JUMPDEST DUP3 ADD SWAP2 SWAP1 PUSH1 0x0 MSTORE PUSH1 0x20 PUSH1 0x0 KECCAK256 SWAP1 JUMPDEST DUP2 SLOAD DUP2 MSTORE SWAP1 PUSH1 0x1 ADD SWAP1 PUSH1 0x20 ADD DUP1 DUP4 GT PUSH2 0xC15 JUMPI DUP3 SWAP1 SUB PUSH1 0x1F AND DUP3 ADD SWAP2 JUMPDEST POP POP POP POP POP SWAP1 POP PUSH2 0x344 JUMP JUMPDEST PUSH1 0x0 DUP1 DUP1 PUSH32 0x7FFFFFFFFFFFFFFFFFFFFFFFFFFFFFFF5D576E7357A4501DDFE92F46681B20A0 DUP5 GT ISZERO PUSH2 0xC79 JUMPI POP PUSH1 0x0 SWAP2 POP PUSH1 0x3 SWAP1 POP DUP3 PUSH2 0xD03 JUMP JUMPDEST PUSH1 0x40 DUP1 MLOAD PUSH1 0x0 DUP1 DUP3 MSTORE PUSH1 0x20 DUP3 ADD DUP1 DUP5 MSTORE DUP11 SWAP1 MSTORE PUSH1 0xFF DUP10 AND SWAP3 DUP3 ADD SWAP3 SWAP1 SWAP3 MSTORE PUSH1 0x60 DUP2 ADD DUP8 SWAP1 MSTORE PUSH1 0x80 DUP2 ADD DUP7 SWAP1 MSTORE PUSH1 0x1 SWAP1 PUSH1 0xA0 ADD PUSH1 0x20 PUSH1 0x40 MLOAD PUSH1 0x20 DUP2 SUB SWAP1 DUP1 DUP5 SUB SWAP1 DUP6 GAS STATICCALL ISZERO DUP1 ISZERO PUSH2 0xCCD JUMPI RETURNDATASIZE PUSH1 0x0 DUP1 RETURNDATACOPY RETURNDATASIZE PUSH1 0x0 REVERT JUMPDEST POP POP PUSH1 0x40 MLOAD PUSH1 0x1F NOT ADD MLOAD SWAP2 POP POP PUSH1 0x1 PUSH1 0x1 PUSH1 0xA0 SHL SUB DUP2 AND PUSH2 0xCF9 JUMPI POP PUSH1 0x0 SWAP3 POP PUSH1 0x1 SWAP2 POP DUP3 SWAP1 POP PUSH2 0xD03 JUMP JUMPDEST SWAP3 POP PUSH1 0x0 SWAP2 POP DUP2 SWAP1 POP JUMPDEST SWAP5 POP SWAP5 POP SWAP5 SWAP2 POP POP JUMP JUMPDEST PUSH1 0x0 DUP3 PUSH1 0x3 DUP2 GT ISZERO PUSH2 0xD21 JUMPI PUSH2 0xD21 PUSH2 0x117D JUMP JUMPDEST SUB PUSH2 0xD2A JUMPI POP POP JUMP JUMPDEST PUSH1 0x1 DUP3 PUSH1 0x3 DUP2 GT ISZERO PUSH2 0xD3E JUMPI PUSH2 0xD3E PUSH2 0x117D JUMP JUMPDEST SUB PUSH2 0xD5C JUMPI PUSH1 0x40 MLOAD PUSH4 0xF645EEDF PUSH1 0xE0 SHL DUP2 MSTORE PUSH1 0x4 ADD PUSH1 0x40 MLOAD DUP1 SWAP2 SUB SWAP1 REVERT JUMPDEST PUSH1 0x2 DUP3 PUSH1 0x3 DUP2 GT ISZERO PUSH2 0xD70 JUMPI PUSH2 0xD70 PUSH2 0x117D JUMP JUMPDEST SUB PUSH2 0xD91 JUMPI PUSH1 0x40 MLOAD PUSH4 0xFCE698F7 PUSH1 0xE0 SHL DUP2 MSTORE PUSH1 0x4 DUP2 ADD DUP3 SWAP1 MSTORE PUSH1 0x24 ADD PUSH2 0x4E8 JUMP JUMPDEST PUSH1 0x3 DUP3 PUSH1 0x3 DUP2 GT ISZERO PUSH2 0xDA5 JUMPI PUSH2 0xDA5 PUSH2 0x117D JUMP JUMPDEST SUB PUSH2 0xDC6 JUMPI PUSH1 0x40 MLOAD PUSH4 0x35E2F383 PUSH1 0xE2 SHL DUP2 MSTORE PUSH1 0x4 DUP2 ADD DUP3 SWAP1 MSTORE PUSH1 0x24 ADD PUSH2 0x4E8 JUMP JUMPDEST POP POP JUMP JUMPDEST PUSH1 0x60 PUSH1 0x0 PUSH2 0xDD7 DUP4 PUSH2 0xE09 JUMP JUMPDEST PUSH1 0x40 DUP1 MLOAD PUSH1 0x20 DUP1 DUP3 MSTORE DUP2 DUP4 ADD SWAP1 SWAP3 MSTORE SWAP2 SWAP3 POP PUSH1 0x0 SWAP2 SWAP1 PUSH1 0x20 DUP3 ADD DUP2 DUP1 CALLDATASIZE DUP4 CALLDATACOPY POP POP POP SWAP2 DUP3 MSTORE POP PUSH1 0x20 DUP2 ADD SWAP3 SWAP1 SWAP3 MSTORE POP SWAP1 JUMP JUMPDEST PUSH1 0x0 PUSH1 0xFF DUP3 AND PUSH1 0x1F DUP2 GT ISZERO PUSH2 0x344 JUMPI PUSH1 0x40 MLOAD PUSH4 0x2CD44AC3 PUSH1 0xE2 SHL DUP2 MSTORE PUSH1 0x4 ADD PUSH1 0x40 MLOAD DUP1 SWAP2 SUB SWAP1 REVERT JUMPDEST PUSH1 0x0 DUP2 MLOAD DUP1 DUP5 MSTORE PUSH1 0x0 JUMPDEST DUP2 DUP2 LT ISZERO PUSH2 0xE57 JUMPI PUSH1 0x20 DUP2 DUP6 ADD DUP2 ADD MLOAD DUP7 DUP4 ADD DUP3 ADD MSTORE ADD PUSH2 0xE3B JUMP JUMPDEST POP PUSH1 0x0 PUSH1 0x20 DUP3 DUP7 ADD ADD MSTORE PUSH1 0x20 PUSH1 0x1F NOT PUSH1 0x1F DUP4 ADD AND DUP6 ADD ADD SWAP2 POP POP SWAP3 SWAP2 POP POP JUMP JUMPDEST PUSH1 0x20 DUP2 MSTORE PUSH1 0x0 PUSH2 0xE8A PUSH1 0x20 DUP4 ADD DUP5 PUSH2 0xE31 JUMP JUMPDEST SWAP4 SWAP3 POP POP POP JUMP JUMPDEST DUP1 CALLDATALOAD PUSH1 0x1 PUSH1 0x1 PUSH1 0xA0 SHL SUB DUP2 AND DUP2 EQ PUSH2 0xEA8 JUMPI PUSH1 0x0 DUP1 REVERT JUMPDEST SWAP2 SWAP1 POP JUMP JUMPDEST PUSH1 0x0 DUP1 PUSH1 0x40 DUP4 DUP6 SUB SLT ISZERO PUSH2 0xEC0 JUMPI PUSH1 0x0 DUP1 REVERT JUMPDEST PUSH2 0xEC9 DUP4 PUSH2 0xE91 JUMP JUMPDEST SWAP5 PUSH1 0x20 SWAP4 SWAP1 SWAP4 ADD CALLDATALOAD SWAP4 POP POP POP JUMP JUMPDEST PUSH1 0x0 DUP1 PUSH1 0x0 PUSH1 0x60 DUP5 DUP7 SUB SLT ISZERO PUSH2 0xEEC JUMPI PUSH1 0x0 DUP1 REVERT JUMPDEST PUSH2 0xEF5 DUP5 PUSH2 0xE91 JUMP JUMPDEST SWAP3 POP PUSH2 0xF03 PUSH1 0x20 DUP6 ADD PUSH2 0xE91 JUMP JUMPDEST SWAP2 POP PUSH1 0x40 DUP5 ADD CALLDATALOAD SWAP1 POP SWAP3 POP SWAP3 POP SWAP3 JUMP JUMPDEST PUSH1 0x0 PUSH1 0x20 DUP3 DUP5 SUB SLT ISZERO PUSH2 0xF25 JUMPI PUSH1 0x0 DUP1 REVERT JUMPDEST PUSH2 0xE8A DUP3 PUSH2 0xE91 JUMP JUMPDEST PUSH1 0xFF PUSH1 0xF8 SHL DUP9 AND DUP2 MSTORE PUSH1 0x0 PUSH1 0x20 PUSH1 0xE0 DUP2 DUP5 ADD MSTORE PUSH2 0xF4E PUSH1 0xE0 DUP5 ADD DUP11 PUSH2 0xE31 JUMP JUMPDEST DUP4 DUP2 SUB PUSH1 0x40 DUP6 ADD MSTORE PUSH2 0xF60 DUP2 DUP11 PUSH2 0xE31 JUMP JUMPDEST PUSH1 0x60 DUP6 ADD DUP10 SWAP1 MSTORE PUSH1 0x1 PUSH1 0x1 PUSH1 0xA0 SHL SUB DUP9 AND PUSH1 0x80 DUP7 ADD MSTORE PUSH1 0xA0 DUP6 ADD DUP8 SWAP1 MSTORE DUP5 DUP2 SUB PUSH1 0xC0 DUP7 ADD MSTORE DUP6 MLOAD DUP1 DUP3 MSTORE DUP4 DUP8 ADD SWAP3 POP SWAP1 DUP4 ADD SWAP1 PUSH1 0x0 JUMPDEST DUP2 DUP2 LT ISZERO PUSH2 0xFB2 JUMPI DUP4 MLOAD DUP4 MSTORE SWAP3 DUP5 ADD SWAP3 SWAP2 DUP5 ADD SWAP2 PUSH1 0x1 ADD PUSH2 0xF96 JUMP JUMPDEST POP SWAP1 SWAP13 SWAP12 POP POP POP POP POP POP POP POP POP POP POP POP JUMP JUMPDEST PUSH1 0x0 DUP1 PUSH1 0x0 DUP1 PUSH1 0x0 DUP1 PUSH1 0x0 PUSH1 0xE0 DUP9 DUP11 SUB SLT ISZERO PUSH2 0xFDF JUMPI PUSH1 0x0 DUP1 REVERT JUMPDEST PUSH2 0xFE8 DUP9 PUSH2 0xE91 JUMP JUMPDEST SWAP7 POP PUSH2 0xFF6 PUSH1 0x20 DUP10 ADD PUSH2 0xE91 JUMP JUMPDEST SWAP6 POP PUSH1 0x40 DUP9 ADD CALLDATALOAD SWAP5 POP PUSH1 0x60 DUP9 ADD CALLDATALOAD SWAP4 POP PUSH1 0x80 DUP9 ADD CALLDATALOAD PUSH1 0xFF DUP2 AND DUP2 EQ PUSH2 0x101A JUMPI PUSH1 0x0 DUP1 REVERT JUMPDEST SWAP7 SWAP10 SWAP6 SWAP9 POP SWAP4 SWAP7 SWAP3 SWAP6 SWAP5 PUSH1 0xA0 DUP5 ADD CALLDATALOAD SWAP5 POP PUSH1 0xC0 SWAP1 SWAP4 ADD CALLDATALOAD SWAP3 SWAP2 POP POP JUMP JUMPDEST PUSH1 0x0 DUP1 PUSH1 0x40 DUP4 DUP6 SUB SLT ISZERO PUSH2 0x104A JUMPI PUSH1 0x0 DUP1 REVERT JUMPDEST PUSH2 0x1053 DUP4 PUSH2 0xE91 JUMP JUMPDEST SWAP2 POP PUSH2 0x1061 PUSH1 0x20 DUP5 ADD PUSH2 0xE91 JUMP JUMPDEST SWAP1 POP SWAP3 POP SWAP3 SWAP1 POP JUMP JUMPDEST PUSH1 0x1 DUP2 DUP2 SHR SWAP1 DUP3 AND DUP1 PUSH2 0x107E JUMPI PUSH1 0x7F DUP3 AND SWAP2 POP JUMPDEST PUSH1 0x20 DUP3 LT DUP2 SUB PUSH2 0x109E JUMPI PUSH4 0x4E487B71 PUSH1 0xE0 SHL PUSH1 0x0 MSTORE PUSH1 0x22 PUSH1 0x4 MSTORE PUSH1 0x24 PUSH1 0x0 REVERT JUMPDEST POP SWAP2 SWAP1 POP JUMP JUMPDEST PUSH7 0x697066733A2F2F PUSH1 0xC8 SHL DUP2 MSTORE PUSH1 0x0 PUSH1 0x7 PUSH1 0x0 DUP5 SLOAD DUP2 PUSH1 0x1 DUP3 DUP2 SHR SWAP2 POP DUP1 DUP4 AND DUP1 PUSH2 0x10D0 JUMPI PUSH1 0x7F DUP4 AND SWAP3 POP JUMPDEST PUSH1 0x20 DUP1 DUP5 LT DUP3 SUB PUSH2 0x10EF JUMPI PUSH4 0x4E487B71 PUSH1 0xE0 SHL DUP7 MSTORE PUSH1 0x22 PUSH1 0x4 MSTORE PUSH1 0x24 DUP7 REVERT JUMPDEST DUP2 DUP1 ISZERO PUSH2 0x1103 JUMPI PUSH1 0x1 DUP2 EQ PUSH2 0x111C JUMPI PUSH2 0x114D JUMP JUMPDEST PUSH1 0xFF NOT DUP7 AND DUP11 DUP10 ADD MSTORE DUP5 ISZERO ISZERO DUP6 MUL DUP11 ADD DUP9 ADD SWAP7 POP PUSH2 0x114D JUMP JUMPDEST PUSH1 0x0 DUP12 DUP2 MSTORE PUSH1 0x20 SWAP1 KECCAK256 PUSH1 0x0 JUMPDEST DUP7 DUP2 LT ISZERO PUSH2 0x1143 JUMPI DUP2 SLOAD DUP13 DUP3 ADD DUP12 ADD MSTORE SWAP1 DUP6 ADD SWAP1 DUP4 ADD PUSH2 0x1128 JUMP JUMPDEST POP POP DUP8 DUP6 DUP12 ADD ADD SWAP7 POP JUMPDEST POP SWAP5 SWAP10 SWAP9 POP POP POP POP POP POP POP POP POP JUMP JUMPDEST DUP1 DUP3 ADD DUP1 DUP3 GT ISZERO PUSH2 0x344 JUMPI PUSH4 0x4E487B71 PUSH1 0xE0 SHL PUSH1 0x0 MSTORE PUSH1 0x11 PUSH1 0x4 MSTORE PUSH1 0x24 PUSH1 0x0 REVERT JUMPDEST PUSH4 0x4E487B71 PUSH1 0xE0 SHL PUSH1 0x0 MSTORE PUSH1 0x21 PUSH1 0x4 MSTORE PUSH1 0x24 PUSH1 0x0 REVERT INVALID LOG2 PUSH5 0x6970667358 0x22 SLT KECCAK256 CALLDATASIZE 0xC PUSH17 0xB11B00375DECEE0665A1206BF9CFF28538 SHL DUP14 0x2F SWAP16 CALLDATALOAD PUSH28 0x6D3790E9562164736F6C63430008140033A2646970667358221220EA REVERT TIMESTAMP 0xFC BLOCKHASH 0xC3 0xB2 ORIGIN 0xA8 0xDC 0x1E 0xDE 0xC4 0xDC EQ 0xBA OR CALLDATALOAD SWAP2 PUSH26 0x5BB91AD43A20AC7731BFBFF264736F6C63430008140033000000 "},"methodIdentifiers":{"allTokens(uint256)":"634282af","buyToken(address,uint256,address)":"692bf4a8","createMemeCoin(string,string,string,uint256,uint256,string)":"d634b419","getTokenDetails(uint256)":"c1e03728","getTokens(uint256,uint256)":"494cfc6c","owner()":"8da5cb5b","pause()":"8456cb59","pauseToken(address)":"7c41ad2c","paused()":"5c975abb","platformFeeBP()":"ff96092a","reclaimUnsold(address,uint256)":"0e3f0cfc","referralFeeBP()":"dc4ec9be","renounceOwnership()":"715018a6","rescueERC20(address,uint256)":"8cd4426d","tokenIndexPlusOne(address)":"35a62e68","tokenPaused(address)":"8995881d","totalTokens()":"7e1c0c09","transferOwnership(address)":"f2fde38b","unpause()":"3f4ba83a","unpauseToken(address)":"3b3bff0f","updateFees(uint16,uint16)":"f3d2350e","updatePrice(address,uint256)":"457972de","withdrawETH(uint256)":"f14210a6"}}}}}