{"contracts/MemeCoinFactory.sol":{"MemeCoinFactory":{"abi":[{"inputs":[{"internalType":"uint16","name":"_platformFeeBP","type":"uint16"},{"internalType":"uint16","name":"_referralFeeBP","type":"uint16"}],"stateMutability":"nonpayable","type":"constructor"},{"inputs":[],"name":"ExceedsCap","type":"error"},{"inputs":[],"name":"FeesTooHigh","type":"error"},{"inputs":[],"name":"IncorrectETH","type":"error"},{"inputs":[],"name":"InvalidHelper","type":"error"},{"inputs":[],"name":"NoCreatorFees","type":"error"},{"inputs":[],"name":"NoFees","type":"error"},{"inputs":[],"name":"NotForSale","type":"error"},{"inputs":[],"name":"NotInPresale","type":"error"},{"inputs":[],"name":"NotLaunched","type":"error"},{"inputs":[],"name":"NotWhitelisted","type":"error"},{"inputs":[],"name":"PriceZero","type":"error"},{"inputs":[],"name":"ReferralFailed","type":"error"},{"inputs":[{"internalType":"address","name":"token","type":"address"}],"name":"TokenSalePaused","type":"error"},{"inputs":[],"name":"ZeroAmount","type":"error"},{"anonymous":false,"inputs":[{"indexed":true,"internalType":"address","name":"token","type":"address"},{"indexed":true,"internalType":"address","name":"buyer","type":"address"},{"indexed":false,"internalType":"uint256","name":"amountAtomic","type":"uint256"},{"indexed":false,"internalType":"uint256","name":"costWei","type":"uint256"},{"indexed":true,"internalType":"address","name":"referrer","type":"address"},{"indexed":false,"internalType":"uint256","name":"platformShare","type":"uint256"},{"indexed":false,"internalType":"uint256","name":"referralShare","type":"uint256"},{"indexed":false,"internalType":"uint256","name":"creatorShare","type":"uint256"}],"name":"Bought","type":"event"},{"anonymous":false,"inputs":[{"indexed":true,"internalType":"address","name":"creator","type":"address"},{"indexed":false,"internalType":"uint256","name":"amount","type":"uint256"}],"name":"CreatorFeesWithdrawn","type":"event"},{"anonymous":false,"inputs":[{"indexed":true,"internalType":"address","name":"helper","type":"address"}],"name":"DexHelperSet","type":"event"},{"anonymous":false,"inputs":[{"indexed":true,"internalType":"address","name":"to","type":"address"},{"indexed":false,"internalType":"uint256","name":"amount","type":"uint256"}],"name":"ETHRescued","type":"event"},{"anonymous":false,"inputs":[{"indexed":false,"internalType":"uint16","name":"newPlatformBP","type":"uint16"},{"indexed":false,"internalType":"uint16","name":"newReferralBP","type":"uint16"}],"name":"FeesUpdated","type":"event"},{"anonymous":false,"inputs":[{"indexed":true,"internalType":"address","name":"token","type":"address"},{"indexed":false,"internalType":"bool","name":"active","type":"bool"}],"name":"ListingActiveToggled","type":"event"},{"anonymous":false,"inputs":[{"indexed":false,"internalType":"address","name":"account","type":"address"}],"name":"Paused","type":"event"},{"anonymous":false,"inputs":[{"indexed":false,"internalType":"bytes32","name":"newRoot","type":"bytes32"}],"name":"PresaleRootUpdated","type":"event"},{"anonymous":false,"inputs":[{"indexed":true,"internalType":"bytes32","name":"role","type":"bytes32"},{"indexed":true,"internalType":"bytes32","name":"previousAdminRole","type":"bytes32"},{"indexed":true,"internalType":"bytes32","name":"newAdminRole","type":"bytes32"}],"name":"RoleAdminChanged","type":"event"},{"anonymous":false,"inputs":[{"indexed":true,"internalType":"bytes32","name":"role","type":"bytes32"},{"indexed":true,"internalType":"address","name":"account","type":"address"},{"indexed":true,"internalType":"address","name":"sender","type":"address"}],"name":"RoleGranted","type":"event"},{"anonymous":false,"inputs":[{"indexed":true,"internalType":"bytes32","name":"role","type":"bytes32"},{"indexed":true,"internalType":"address","name":"account","type":"address"},{"indexed":true,"internalType":"address","name":"sender","type":"address"}],"name":"RoleRevoked","type":"event"},{"anonymous":false,"inputs":[{"indexed":true,"internalType":"address","name":"token","type":"address"}],"name":"SaleEnded","type":"event"},{"anonymous":false,"inputs":[{"indexed":true,"internalType":"address","name":"token","type":"address"},{"indexed":true,"internalType":"address","name":"creator","type":"address"},{"indexed":false,"internalType":"uint256","name":"priceWei","type":"uint256"},{"indexed":false,"internalType":"string","name":"description","type":"string"},{"indexed":false,"internalType":"string","name":"ipfsHash","type":"string"}],"name":"TokenCreated","type":"event"},{"anonymous":false,"inputs":[{"indexed":true,"internalType":"address","name":"token","type":"address"}],"name":"TokenPaused","type":"event"},{"anonymous":false,"inputs":[{"indexed":true,"internalType":"address","name":"token","type":"address"},{"indexed":false,"internalType":"uint256","name":"amount","type":"uint256"}],"name":"TokenRescued","type":"event"},{"anonymous":false,"inputs":[{"indexed":true,"internalType":"address","name":"token","type":"address"}],"name":"TokenUnpaused","type":"event"},{"anonymous":false,"inputs":[{"indexed":false,"internalType":"address","name":"account","type":"address"}],"name":"Unpaused","type":"event"},{"anonymous":false,"inputs":[{"indexed":true,"internalType":"address","name":"token","type":"address"},{"indexed":false,"internalType":"uint256","name":"amount","type":"uint256"}],"name":"UnsoldReclaimed","type":"event"},{"anonymous":false,"inputs":[{"indexed":true,"internalType":"address","name":"token","type":"address"},{"indexed":true,"internalType":"address","name":"user","type":"address"}],"name":"UserWhitelisted","type":"event"},{"stateMutability":"payable","type":"fallback"},{"inputs":[],"name":"DEFAULT_ADMIN_ROLE","outputs":[{"internalType":"bytes32","name":"","type":"bytes32"}],"stateMutability":"view","type":"function"},{"inputs":[],"name":"OPERATOR_ROLE","outputs":[{"internalType":"bytes32","name":"","type":"bytes32"}],"stateMutability":"view","type":"function"},{"inputs":[],"name":"PAUSER_ROLE","outputs":[{"internalType":"bytes32","name":"","type":"bytes32"}],"stateMutability":"view","type":"function"},{"inputs":[{"internalType":"address","name":"token_","type":"address"},{"internalType":"address[]","name":"users","type":"address[]"}],"name":"addToWhitelist","outputs":[],"stateMutability":"nonpayable","type":"function"},{"inputs":[{"internalType":"address","name":"token_","type":"address"},{"internalType":"uint256","name":"amountToken_","type":"uint256"}],"name":"addTokenLiquidity","outputs":[],"stateMutability":"payable","type":"function"},{"inputs":[{"internalType":"uint256","name":"","type":"uint256"}],"name":"allTokens","outputs":[{"internalType":"address","name":"token","type":"address"},{"internalType":"address","name":"creator","type":"address"},{"internalType":"uint256","name":"priceWei","type":"uint256"},{"internalType":"string","name":"description","type":"string"},{"internalType":"string","name":"ipfsHash","type":"string"},{"internalType":"bool","name":"active","type":"bool"}],"stateMutability":"view","type":"function"},{"inputs":[{"internalType":"address","name":"token_","type":"address"},{"internalType":"uint256","name":"amountAtomic","type":"uint256"},{"internalType":"uint256","name":"maxAmount","type":"uint256"},{"internalType":"address","name":"ref","type":"address"},{"internalType":"bytes32[]","name":"proof","type":"bytes32[]"}],"name":"buyPresale","outputs":[],"stateMutability":"payable","type":"function"},{"inputs":[{"internalType":"address","name":"token_","type":"address"},{"internalType":"uint256","name":"amountAtomic","type":"uint256"},{"internalType":"address","name":"referrer","type":"address"}],"name":"buyToken","outputs":[],"stateMutability":"payable","type":"function"},{"inputs":[{"internalType":"address","name":"factory_","type":"address"},{"internalType":"address","name":"router_","type":"address"}],"name":"configureDex","outputs":[],"stateMutability":"nonpayable","type":"function"},{"inputs":[{"internalType":"string","name":"name_","type":"string"},{"internalType":"string","name":"symbol_","type":"string"},{"internalType":"string","name":"description_","type":"string"},{"internalType":"uint256","name":"totalSupply_","type":"uint256"},{"internalType":"uint256","name":"priceWei_","type":"uint256"},{"internalType":"string","name":"ipfsHash_","type":"string"}],"name":"createMemeCoin","outputs":[{"internalType":"address","name":"a","type":"address"}],"stateMutability":"nonpayable","type":"function"},{"inputs":[{"internalType":"address","name":"token_","type":"address"}],"name":"createPair","outputs":[],"stateMutability":"nonpayable","type":"function"},{"inputs":[{"internalType":"address","name":"","type":"address"}],"name":"creatorFeesAccrued","outputs":[{"internalType":"uint256","name":"","type":"uint256"}],"stateMutability":"view","type":"function"},{"inputs":[],"name":"dexHelper","outputs":[{"internalType":"contract IMemeCoinDEXHelper","name":"","type":"address"}],"stateMutability":"view","type":"function"},{"inputs":[{"internalType":"address","name":"token_","type":"address"}],"name":"endSale","outputs":[],"stateMutability":"nonpayable","type":"function"},{"inputs":[],"name":"getAllTokenInfo","outputs":[{"internalType":"address[]","name":"tokens","type":"address[]"},{"internalType":"address[]","name":"creators","type":"address[]"},{"internalType":"uint256[]","name":"priceWeis","type":"uint256[]"},{"internalType":"string[]","name":"descriptions","type":"string[]"},{"internalType":"string[]","name":"ipfsHashes","type":"string[]"},{"internalType":"bool[]","name":"actives","type":"bool[]"},{"internalType":"uint256[]","name":"totalSupplies","type":"uint256[]"},{"internalType":"uint256[]","name":"unsoldSupplies","type":"uint256[]"}],"stateMutability":"view","type":"function"},{"inputs":[{"internalType":"bytes32","name":"role","type":"bytes32"}],"name":"getRoleAdmin","outputs":[{"internalType":"bytes32","name":"","type":"bytes32"}],"stateMutability":"view","type":"function"},{"inputs":[{"internalType":"address","name":"token_","type":"address"}],"name":"getTokenInfoByAddress","outputs":[{"internalType":"address","name":"creator","type":"address"},{"internalType":"uint256","name":"priceWei","type":"uint256"},{"internalType":"string","name":"description","type":"string"},{"internalType":"string","name":"ipfsHash","type":"string"},{"internalType":"bool","name":"active","type":"bool"},{"internalType":"uint256","name":"totalSupply","type":"uint256"},{"internalType":"uint256","name":"unsoldSupply","type":"uint256"}],"stateMutability":"view","type":"function"},{"inputs":[{"internalType":"uint256","name":"start","type":"uint256"},{"internalType":"uint256","name":"count","type":"uint256"}],"name":"getTokens","outputs":[{"components":[{"internalType":"address","name":"token","type":"address"},{"internalType":"address","name":"creator","type":"address"},{"internalType":"uint256","name":"priceWei","type":"uint256"},{"internalType":"string","name":"description","type":"string"},{"internalType":"string","name":"ipfsHash","type":"string"},{"internalType":"bool","name":"active","type":"bool"}],"internalType":"struct MemeCoinFactory.TokenInfo[]","name":"slice","type":"tuple[]"}],"stateMutability":"view","type":"function"},{"inputs":[{"internalType":"address","name":"user","type":"address"}],"name":"getUserHoldings","outputs":[{"internalType":"address[]","name":"tokens","type":"address[]"},{"internalType":"uint256[]","name":"balances","type":"uint256[]"}],"stateMutability":"view","type":"function"},{"inputs":[{"internalType":"bytes32","name":"role","type":"bytes32"},{"internalType":"address","name":"account","type":"address"}],"name":"grantRole","outputs":[],"stateMutability":"nonpayable","type":"function"},{"inputs":[{"internalType":"bytes32","name":"role","type":"bytes32"},{"internalType":"address","name":"account","type":"address"}],"name":"hasRole","outputs":[{"internalType":"bool","name":"","type":"bool"}],"stateMutability":"view","type":"function"},{"inputs":[],"name":"paused","outputs":[{"internalType":"bool","name":"","type":"bool"}],"stateMutability":"view","type":"function"},{"inputs":[],"name":"platformFeeBP","outputs":[{"internalType":"uint16","name":"","type":"uint16"}],"stateMutability":"view","type":"function"},{"inputs":[],"name":"platformFeesAccrued","outputs":[{"internalType":"uint256","name":"","type":"uint256"}],"stateMutability":"view","type":"function"},{"inputs":[{"internalType":"address","name":"","type":"address"},{"internalType":"address","name":"","type":"address"}],"name":"presaleClaimed","outputs":[{"internalType":"uint256","name":"","type":"uint256"}],"stateMutability":"view","type":"function"},{"inputs":[],"name":"presaleMerkleRoot","outputs":[{"internalType":"bytes32","name":"","type":"bytes32"}],"stateMutability":"view","type":"function"},{"inputs":[],"name":"referralFeeBP","outputs":[{"internalType":"uint16","name":"","type":"uint16"}],"stateMutability":"view","type":"function"},{"inputs":[{"internalType":"address","name":"token_","type":"address"},{"internalType":"address[]","name":"users","type":"address[]"}],"name":"removeFromWhitelist","outputs":[],"stateMutability":"nonpayable","type":"function"},{"inputs":[{"internalType":"address","name":"token_","type":"address"},{"internalType":"uint256","name":"liq_","type":"uint256"}],"name":"removeTokenLiquidity","outputs":[],"stateMutability":"nonpayable","type":"function"},{"inputs":[{"internalType":"bytes32","name":"role","type":"bytes32"},{"internalType":"address","name":"account","type":"address"}],"name":"renounceRole","outputs":[],"stateMutability":"nonpayable","type":"function"},{"inputs":[{"internalType":"bytes32","name":"role","type":"bytes32"},{"internalType":"address","name":"account","type":"address"}],"name":"revokeRole","outputs":[],"stateMutability":"nonpayable","type":"function"},{"inputs":[{"internalType":"address","name":"helper_","type":"address"}],"name":"setDexHelper","outputs":[],"stateMutability":"nonpayable","type":"function"},{"inputs":[{"internalType":"bytes32","name":"root_","type":"bytes32"}],"name":"setPresaleMerkleRoot","outputs":[],"stateMutability":"nonpayable","type":"function"},{"inputs":[{"internalType":"bytes4","name":"interfaceId","type":"bytes4"}],"name":"supportsInterface","outputs":[{"internalType":"bool","name":"","type":"bool"}],"stateMutability":"view","type":"function"},{"inputs":[{"internalType":"address","name":"token","type":"address"},{"internalType":"address","name":"to","type":"address"}],"name":"sweepHelperDust","outputs":[],"stateMutability":"nonpayable","type":"function"},{"inputs":[{"internalType":"address","name":"token_","type":"address"},{"internalType":"bool","name":"active","type":"bool"}],"name":"toggleListingActive","outputs":[],"stateMutability":"nonpayable","type":"function"},{"inputs":[{"internalType":"address","name":"token_","type":"address"},{"internalType":"bool","name":"on","type":"bool"}],"name":"toggleWhitelist","outputs":[],"stateMutability":"nonpayable","type":"function"},{"inputs":[{"internalType":"address","name":"","type":"address"}],"name":"tokenIndexPlusOne","outputs":[{"internalType":"uint256","name":"","type":"uint256"}],"stateMutability":"view","type":"function"},{"inputs":[{"internalType":"address","name":"","type":"address"}],"name":"tokenPaused","outputs":[{"internalType":"bool","name":"","type":"bool"}],"stateMutability":"view","type":"function"},{"inputs":[],"name":"totalTokens","outputs":[{"internalType":"uint256","name":"","type":"uint256"}],"stateMutability":"view","type":"function"},{"inputs":[{"internalType":"uint16","name":"newPlatformBP","type":"uint16"},{"internalType":"uint16","name":"newReferralBP","type":"uint16"}],"name":"updateFees","outputs":[],"stateMutability":"nonpayable","type":"function"},{"inputs":[{"internalType":"address","name":"","type":"address"}],"name":"whitelistEnabled","outputs":[{"internalType":"bool","name":"","type":"bool"}],"stateMutability":"view","type":"function"},{"inputs":[{"internalType":"address","name":"","type":"address"},{"internalType":"address","name":"","type":"address"}],"name":"whitelisted","outputs":[{"internalType":"bool","name":"","type":"bool"}],"stateMutability":"view","type":"function"},{"inputs":[{"internalType":"address[]","name":"creators","type":"address[]"}],"name":"withdrawCreatorFeesBatch","outputs":[],"stateMutability":"nonpayable","type":"function"},{"inputs":[],"name":"withdrawMyCreatorFees","outputs":[],"stateMutability":"nonpayable","type":"function"},{"inputs":[{"internalType":"address payable","name":"to","type":"address"}],"name":"withdrawPlatformFees","outputs":[],"stateMutability":"nonpayable","type":"function"},{"stateMutability":"payable","type":"receive"}],"evm":{"bytecode":{"linkReferences":{},"object":"6080346200022057620058a190601f38839003908101601f19168201906001600160401b0382118383101762000225578083916040958694855283398101031262000220576200004f816200023b565b6200005e60208093016200023b565b60ff19906001928284541684558360025561ffff809116908083168201908082116200020a5761271091161015620001f95763ffff00006003549260101b169163ffffffff19161717600355600091828052828452848320338452845260ff858420541615620001c4575b7f65d7a28e3265b37a6474929f336521b332c1681b933f6cb9f3376673440d862a808452838552858420338552855260ff8685205416156200018d575b507f97667070c54ef182b0f5858b034beac1b6f3089aa2d3188bb1e8929f4fa9b92993848452838152858420338552815260ff86852054161562000154575b855161563590816200024c8239f35b848452838152858420903385525284832091825416179055339160008051602062005881833981519152339280a4388080808062000145565b8084528385528584203385528552858420828482541617905533903390600080516020620058818339815191528680a43862000106565b82805282845284832033845284528483208183825416179055333384600080516020620058818339815191528180a4620000c9565b855163192069c360e31b8152600490fd5b634e487b7160e01b600052601160045260246000fd5b600080fd5b634e487b7160e01b600052604160045260246000fd5b519061ffff82168203620002205756fe608080604052600436101562000022575b5036156200001d57600080fd5b600080fd5b600090813560e01c90816301ffc9a7146200288b5750806314fe72aa14620027f257806315a1603b146200276f57806322163b86146200274f57806322212e2b146200272f578063248a9ca3146200270157806328d7b27614620026af5780632f2ff15d14620025fa578063336322d2146200255a578063349123d1146200251557806335a62e6814620024d857806336568abe146200243e5780633df9a7201462002286578063494cfc6c14620020645780635c975abb146200203f578063634282af1462001f8c578063692bf4a81462001d0257806379c8ffd61462001cbf5780637e1c0c091462001c9f5780638231f4f01462001b8557806384d936121462001ad15780638995881d1462001a8e5780638c9f7b3914620019ea57806391d14854146200199e578063943711ea14620018f357806395abc09114620015b65780639ccb074414620014fb578063a217fddf14620014dd578063a9e3929e1462001418578063ac76d08414620013c3578063ad3e080a1462001355578063bc120fe714620012fb578063c748713e14620012be578063d547741f1462001276578063d634b4191462000cb4578063d9d0a5be1462000712578063dc4ec9be14620006eb578063dc97ecf61462000634578063e4c608f11462000609578063e559afd91462000557578063e5f8af9f1462000443578063e63ab1e91462000406578063ec3889b51462000381578063f3d2350e14620002b6578063f5b541a614620002795763ff96092a036200001057346200027657806003193601126200027657602061ffff60035416604051908152f35b80fd5b5034620002765780600319360112620002765760206040517f97667070c54ef182b0f5858b034beac1b6f3089aa2d3188bb1e8929f4fa9b9298152f35b503462000276576040366003190112620002765760043561ffff908181168091036200001d5760243590828216928383036200001d57620002f662002f0f565b8382018181116200036d57612710911610156200035b577f2ac80c14c28700f7b5e36f947d572149fe2e3947bac32c3a8c098f3e03722c11926040928263ffff00006003549260101b169163ffffffff1916171760035582519182526020820152a180f35b60405163192069c360e31b8152600490fd5b634e487b7160e01b86526011600452602486fd5b50346200027657602036600319011262000276576004356001600160a01b038116908190036200040257620003b562002f0f565b620003bf620033f8565b600454908115620003f0578280809381938260045582f115620003e457600160025580f35b604051903d90823e3d90fd5b6040516303fbecdf60e51b8152600490fd5b5080fd5b5034620002765780600319360112620002765760206040517f65d7a28e3265b37a6474929f336521b332c1681b933f6cb9f3376673440d862a8152f35b5034620002765760208060031936011262000402576004356001600160401b03811162000553576200047a90369060040162002c47565b906200048562002f0f565b6200048f620033f8565b835b828110620004a25784600160025580f35b6001600160a01b03620004c1620004bb8386866200352f565b62003540565b1690818652600585526040862091868354938415908115620004ed575b50505050600191500162000491565b859183859255839062000549575b839283928392f1156200053e577f7f0b212761a7abe7ec4d2adea5a7fa1fea58234aabf0c01c0e63403fe62013ff86600194604051908152a238868180620004de565b6040513d88823e3d90fd5b506108fc620004fb565b8280fd5b50346200027657620005693662002c7a565b6200057692919262002cf2565b835b81811062000584578480f35b6001600160a01b0383811680875260086020908152604088209293929084620005b3620004bb86898c6200352f565b16600052526040600020926001938460ff19825416179055620005dc620004bb84878a6200352f565b16907f4bc18aa4b0095c9a3b5cdf42d2322d5a145591b04045988a995a5da4260754578880a30162000578565b50346200027657806003193601126200027657600d546040516001600160a01b039091168152602090f35b50346200027657604036600319011262000276578062000653620028e5565b6200065d620028fc565b906200066862002f0f565b62000672620033b3565b600d546001600160a01b031691823b15620006e65760405163027332ab60e21b81526001600160a01b039283166004820152911660248201529082908290604490829084905af18015620006db57620006c85750f35b620006d39062002a52565b620002765780f35b6040513d84823e3d90fd5b505050fd5b50346200027657806003193601126200027657602061ffff60035460101c16604051908152f35b5060a036600319011262000276576200072a620028e5565b602491604435916064356001600160a01b03818116918635918382036200001d576001600160401b039360843585811162000cb0576200076f90369060040162002c47565b9490986200077c620033b3565b62000786620033f8565b6006549960405197602098898101913360601b83528460348301526034825260608201908282109082111762000c9b5760405251902090620007c88862003555565b97620007d8604051998a62002a9e565b8089528989019060051b82019136831162000c97578a90915b83831062000c8657505050509789985b87518a10156200086257620008178a896200356d565b51908181101562000853578b52885260408a205b98600019811462000840576001019862000801565b634e487b7160e01b8b5260116004528c8bfd5b908b52885260408a206200082b565b8a9750908b8d99920362000c745785169182885260098252604088203360005282526040600020549062000897858362003202565b1162000c625783620008a99162003202565b8288526009825260408820336000528252604060002055620008ca620033b3565b620008d4620033f8565b821562000c5057818752600c815260ff60408820541662000c3857818752600b815260408720548015801562000bfd575b62000beb578288526007825260ff6040892054168062000bcc575b62000bba57600019810190811162000ba7576200093d9062002991565b5090670de0b6b3a764000062000958856002850154620031d8565b0480340362000b95576003549161271061ffff93816200097b86831686620031d8565b04948962000b7d5750505089975b6001620009a28a6200099c87876200344d565b6200344d565b95620009b18660045462003202565b6004550154168a526005815260408a20620009ce85825462003202565b90556040805163a9059cbb60e01b83820190815233828f01908152602081018a905262000a62938e928392909162000a13918691015b03601f19810186528562002a9e565b6040519362000a228562002a66565b8685527f5361666545524332303a206c6f772d6c6576656c2063616c6c206661696c6564878601525190828b5af162000a5a6200345b565b908862003490565b805182811591821562000b56575b505090501562000b0057899a50604051958652850152604084015284606084015260808301527fa4d1d47447ad64a0c581f05071df4ce987ba94440d913925dc004a21f28f422660a03393a48062000acc575b82600160025580f35b8280929181925af162000ade6200345b565b501562000aee5780828062000ac3565b604051639a2c56ab60e01b8152600490fd5b608490602a8c6040519262461bcd60e51b845260048401528201527f5361666545524332303a204552433230206f7065726174696f6e20646964206e6044820152691bdd081cdd58d8d9595960b21b6064820152fd5b838092935001031262000b7957810151801515810362000b795780828e62000a70565b8a80fd5b62000b8d9160101c1684620031d8565b049762000989565b60405163d183fe4360e01b8152600490fd5b634e487b7160e01b885260116004528888fd5b604051630b094f2760e31b8152600490fd5b50600882526040882033600052825260ff604060002054161562000920565b604051631d99ddbf60e01b8152600490fd5b50600019810181811162000c2557600562000c1a60ff9262002991565b500154161562000905565b634e487b7160e01b895260116004528989fd5b604051635404753160e11b8152600481018390528890fd5b604051631f2a200560e01b8152600490fd5b604051632edaff4360e01b8152600490fd5b604051631cde096960e01b8152600490fd5b82358152918101918b9101620007f1565b8c80fd5b8e634e487b7160e01b60005260416004526000fd5b8780fd5b5034620002765760c036600319011262000276576004356001600160401b038111620004025762000cea90369060040162002cc2565b6024356001600160401b038111620012725762000d0c90369060040162002cc2565b90916044356001600160401b0381116200126e5762000d3090369060040162002cc2565b94909160a4356001600160401b03811162000cb05762000d5590369060040162002cc2565b95909462000d6262002cf2565b62000d6c620033b3565b62000d76620033f8565b608435156200125c576040519361201c93848601948686106001600160401b0387111762001248579262000dc662000dd59362000df496938998966200360d8a3960a0875260a087019162003356565b91848303602086015262003356565b9060643560408201523360608201526080818303910152868662003356565b039086f09384156200123d576040519562000e0f8762002a20565b6001600160a01b0386168752336020880152608435604088015262000e3636838562003377565b606088015262000e4836868662003377565b6080880152600160a0880152600a5468010000000000000000811015620012295780600162000e7b9201600a5562002991565b6200121557875181546001600160a01b039182166001600160a01b031991821617835560208a01516001840180549190931691161790556040880151600282015560608801518051906001600160401b0382116200112c57819062000ee46003850154620029e3565b601f8111620011c0575b50602090601f83116001146200114c57859262001140575b50508160011b916000199060031b1c19161760038201555b60808801519788516001600160401b0381116200112c5762000f446004840154620029e3565b601f8111620010e3575b506020998a90601f8311600114620010455762000fc9938387969460059460a0947f75c1f35492cd2bcb2820d5ff2434b9dc6d19432975f20761140109f0844a7b8a9c9b9a9262001039575b50508160011b916000199060031b1c19161760048501555b0151151591019060ff801983541691151516179055565b6040600a549160018060a01b0389168152600b8a5220556200101f62001004604051938493608435855260608b860152606085019162003356565b828103604084015233966001600160a01b0389169662003356565b0390a360016002556040516001600160a01b039091168152f35b01519050388062000f9a565b906004850186528b862091865b601f1985168110620010cb57509360018460059460a09462000fc9987f75c1f35492cd2bcb2820d5ff2434b9dc6d19432975f20761140109f0844a7b8a9d9c9b9a98601f19811610620010b1575b505050811b01600485015562000fb2565b015160001960f88460031b161c19169055388080620010a0565b91928d60018192868501518155019401920162001052565b60048401855260208520601f830160051c81016020841062001124575b601f830160051c820181106200111857505062000f4e565b86815560010162001100565b508062001100565b634e487b7160e01b84526041600452602484fd5b01519050388062000f06565b9250600384018552602085209085935b601f1984168510620011a4576001945083601f198116106200118a575b505050811b01600382015562000f1e565b015160001960f88460031b161c1916905538808062001179565b818101518355602094850194600190930192909101906200115c565b90915060038401855260208520601f840160051c8101602085106200120d575b90849392915b601f830160051c82018110620011fe57505062000eee565b878155859450600101620011e6565b5080620011e0565b634e487b7160e01b82526004829052602482fd5b634e487b7160e01b82526041600452602482fd5b6040513d87823e3d90fd5b634e487b7160e01b8c52604160045260248cfd5b604051637294708f60e11b8152600490fd5b8580fd5b8380fd5b5034620002765760403660031901126200027657620012bb6004356200129b620028fc565b9080845283602052620012b5600160408620015462003046565b62003163565b80f35b50346200027657602036600319011262000276576020906040906001600160a01b03620012ea620028e5565b168152600583522054604051908152f35b503462000276576040366003190112620002765762001319620028e5565b604062001325620028fc565b9260018060a01b0380931681526008602052209116600052602052602060ff604060002054166040519015158152f35b50346200027657620013673662002c7a565b916200137262002cf2565b835b83811062001380578480f35b600190818060a01b0380841687526020600881526040882091620013aa620004bb858a8a6200352f565b1660005252604060002060ff1981541690550162001374565b5034620002765760403660031901126200027657620013e1620028e5565b6040620013ed620028fc565b9260018060a01b03809316815260096020522091166000526020526020604060002054604051908152f35b503462000276576200142a3662002913565b906200143562002cf2565b6001600160a01b0316808352600b60205260408320549091908015620014cb576000198101908111620014b75781620014ab7fb6c0b1eccbea10b66e1977f66ce16560ea82d88b327f904435080e4da040208b9360056200149860209562002991565b50019060ff801983541691151516179055565b6040519015158152a280f35b634e487b7160e01b84526011600452602484fd5b604051638dda39df60e01b8152600490fd5b50346200027657806003193601126200027657602090604051908152f35b503462000276576020366003190112620002765762001519620028e5565b6200152362002cf2565b6200152d620033b3565b600d546040516398e122fd60e01b81526001600160a01b0392831660048201529060209082906024908290879087165af18015620015ab576200156e578280f35b6020813d8211620015a2575b81620015896020938362002a9e565b8101031262000553575190811603620002765738808280f35b3d91506200157a565b6040513d85823e3d90fd5b50346200027657806003193601126200027657600a54620015d78162003582565b90620015e38162003582565b620015ee8262003582565b93620015fa83620035ba565b946200160684620035ba565b90620016128562003555565b9162001622604051938462002a9e565b858352620016308662003555565b9760209283850199601f1901368b376200164a8862003582565b96620016568962003582565b988a885b8281106200172b5750505090849392916040519a610100808d528c01620016819162002b72565b8b8103868d0152620016939162002b72565b8a810360408c0152620016a69162002bb1565b89810360608b0152620016b99162002be7565b88810360808a0152620016cc9162002be7565b9287840360a089015251928381520196925b828110620017145786806200171088620017018c8a85820360c087015262002bb1565b9083820360e085015262002bb1565b0390f35b8351151588529681019692810192600101620016de565b8060ff60056200173f839d9b9c9d62002991565b5080546001600160a01b03969087169485916200175d91906200356d565b52600195868201541662001772868a6200356d565b52600281015462001784868b6200356d565b52620017936003820162002ac0565b6200179f868c6200356d565b52620017ac858b6200356d565b50620017bb6004820162002ac0565b620017c7868d6200356d565b52620017d4858c6200356d565b50015416620017e4838d6200356d565b90151590526040516318160ddd60e01b81528a81600481855afa908115620018e857918b918e85948d92620018ac575b5060249462001823916200356d565b526040516370a0823160e01b815230600482015292839182905afa8015620018a157828e8b926200186a575b6200185c9293506200356d565b52018b90989796986200165a565b5050508981813d831162001899575b62001885818362002a9e565b810103126200001d57518c9082826200184f565b503d62001879565b6040513d8b823e3d90fd5b93929450505081813d8311620018e0575b620018c9818362002a9e565b810103126200001d575182918b918e602462001814565b503d620018bd565b6040513d8c823e3d90fd5b503462000276576040366003190112620002765762001911620028e5565b816200191c620028fc565b6200192662002cf2565b62001930620033f8565b600d546001600160a01b0316803b1562000553576040516354fdc16b60e11b81526001600160a01b039485166004820152919093166024820152918290604490829084905af18015620006db576200198c575b50600160025580f35b620019979062002a52565b3862001983565b503462000276576040366003190112620002765760ff6040602092620019c3620028fc565b60043582528185528282206001600160a01b03909116825284522054604051911615158152f35b503462000276576020366003190112620002765762001a08620028e5565b62001a1262002cf2565b6001600160a01b0316808252600b60205260408220548015620014cb57600019810190811162001a7a5762001a4960059162002991565b5001805460ff191690557f3bf74796fb125ab3c0f1c7c4419d72af7311e2d12f7d55b6fe62f4dfdcc8f0338280a280f35b634e487b7160e01b83526011600452602483fd5b503462000276576020366003190112620002765760209060ff906040906001600160a01b0362001abd620028e5565b168152600c84522054166040519015158152f35b503462000276576040366003190112620002765780604062001b4462001af6620028e5565b62001b0062002cf2565b62001b0a620033b3565b600d548351635100e67b60e11b81526001600160a01b03928316600482015260248035908201529485939190921691839182906044820190565b03925af18015620006db5762001b58575080f35b604090813d831162001b7d575b62001b71818362002a9e565b81010312620002765780f35b503d62001b65565b5034620002765760209081600319360112620002765762001ba5620028e5565b600a5462001bb38162003582565b9262001bbf8262003582565b926001600160a01b0390811690825b84811062001c045762001bf687620017108a8960405194859460408652604086019062002b72565b918483039085015262002bb1565b80888362001c1460249462002991565b5054168062001c24848c6200356d565b52604051938480926370a0823160e01b82528860048301525afa80156200123d57859062001c65575b6001925062001c5d82896200356d565b520162001bce565b50908881813d831162001c97575b62001c7f818362002a9e565b8101031262001c9357906001915162001c4d565b8480fd5b503d62001c73565b503462000276578060031936011262000276576020600a54604051908152f35b503462000276576020366003190112620002765760209060ff906040906001600160a01b0362001cee620028e5565b168152600784522054166040519015158152f35b506060366003190112620002765762001d1a620028e5565b60249190604435906001600160a01b0390818316908535908285036200126e5762001d44620033b3565b62001d4e620033f8565b811562000c505783168086526020600c815260ff60408820541662000c3857818752600b815260408720548015801562001f64575b62000beb578288526007825260ff6040892054168062001f47575b62000bba57600019810190811162000ba75762001dbb9062002991565b5090670de0b6b3a764000062001dd6856002850154620031d8565b0480340362000b95576003549161271061ffff938162001df986831686620031d8565b04948962001f2f5750505089975b600162001e1a8a6200099c87876200344d565b9562001e298660045462003202565b6004550154168a526005815260408a2062001e4685825462003202565b90556040805163a9059cbb60e01b83820190815233828f01908152602081018a905262001e81938e928392909162000a139186910162000a04565b805182811591821562001f0c575b505090501562000b0057899a50604051958652850152604084015284606084015260808301527fa4d1d47447ad64a0c581f05071df4ce987ba94440d913925dc004a21f28f422660a03393a48062001eea5782600160025580f35b8280929181925af162001efc6200345b565b501562000aee5780388062000ac3565b838092935001031262000b7957810151801515810362000b795780823862001e8f565b62001f3f9160101c1684620031d8565b049762001e07565b506008825260408820338952825260ff6040892054161562001d9e565b50600019810181811162000c2557600562001f8160ff9262002991565b500154161562001d83565b5034620002765760203660031901126200027657600435600a54811015620004025762001fb99062002991565b5060018060a01b03808254169060018301541691620020336002820154916200202462001fe96003830162002ac0565b60ff600562001ffb6004860162002ac0565b940154169460405197889788526020880152604087015260c0606087015260c08601906200296a565b9084820360808601526200296a565b90151560a08301520390f35b50346200027657806003193601126200027657602060ff600154166040519015158152f35b503462000276576040366003190112620002765760043590620020a2826200208f6024358262003202565b600a548082116200227d575b506200344d565b91620020ae8362003555565b92620020be604051948562002a9e565b808452620020cf601f199162003555565b01825b8181106200223f575050815b83518110156200218857620020fe620020f8828462003202565b62002991565b50906040516200210e8162002a20565b60ff600560018060a01b03948581541684526001958682015416602085015260028101546040850152620021456003820162002ac0565b6060850152620021586004820162002ac0565b6080850152015416151560a08201526200217382876200356d565b526200218081866200356d565b5001620020de565b60408051602080825286518183018190528693600582901b8401810192808a01929185015b828710620021bb5785850386f35b909192938280600192603f19898203018552875190848060a01b0380835116825283830151168382015260408201516040820152620022226200220e6060808501519060c080918601528401906200296a565b60808085015190848303908501526200296a565b9160a08091015115159101529601920196019592919092620021ad565b602090604051620022508162002a20565b8581528286818301528660408301526060808084015260808301528660a0830152828801015201620020d2565b9050386200209b565b503462000276576020908160031936011262000276576001600160a01b0380620022af620028e5565b1691828152600b845260408120548015620014cb5760001981019081116200242a57620022dc9062002991565b509160018301541692600283015492620022f96003820162002ac0565b60ff60056200230b6004850162002ac0565b9301541694604051936318160ddd60e01b85528885600481845afa9485156200053e579089918796620023f2575b506040516370a0823160e01b81523060048201529190829060249082905afa958615620003e4578096620023b7575b5050620023a192916200239291604051998a998a5289015260e0604089015260e08801906200296a565b9086820360608801526200296a565b921515608085015260a084015260c08301520390f35b909195508882813d8311620023ea575b620023d3818362002a9e565b810103126200027657505193816200239262002368565b503d620023c7565b8281939297503d831162002422575b6200240d818362002a9e565b810103126200126e5751938890602462002339565b503d62002401565b634e487b7160e01b82526011600452602482fd5b50346200027657604036600319011262000276576200245c620028fc565b336001600160a01b038216036200247b57620012bb9060043562003163565b60405162461bcd60e51b815260206004820152602f60248201527f416363657373436f6e74726f6c3a2063616e206f6e6c792072656e6f756e636560448201526e103937b632b9903337b91039b2b63360891b6064820152608490fd5b50346200027657602036600319011262000276576020906040906001600160a01b0362002504620028e5565b168152600b83522054604051908152f35b50346200027657620012bb6200252b3662002913565b906200253662002cf2565b60018060a01b031683526007602052604083209060ff801983541691151516179055565b5034620002765780600319360112620002765762002577620033f8565b338152600560205260408120548015620025e857338252600560205281604081205581808080843382f115620025db576040519081527f7f0b212761a7abe7ec4d2adea5a7fa1fea58234aabf0c01c0e63403fe62013ff60203392a2600160025580f35b50604051903d90823e3d90fd5b6040516321c8563b60e01b8152600490fd5b50346200027657604036600319011262000276576004356200261b620028fc565b8183528260205262002634600160408520015462003046565b818352602083815260408085206001600160a01b039093168086529290915283205460ff161562002663578280f35b818352826020526040832081845260205260408320600160ff1982541617905533917f2f8788117e7eff1d82e926ec794901d17c78024a50270940304540a733656f0d8480a438808280f35b50346200027657602036600319011262000276577f27f971fd4accb41a60bcef5477f2a70aa17efca3a2c33b138e3aa62a3d891c6d6020600435620026f362002cf2565b80600655604051908152a180f35b5034620002765760203660031901126200027657600160406020926004358152808452200154604051908152f35b503462000276578060031936011262000276576020600654604051908152f35b503462000276578060031936011262000276576020600454604051908152f35b50346200027657602036600319011262000276576200278d620028e5565b6200279762002f0f565b6001600160a01b03168015620027e057600d80546001600160a01b031916821790557fc420e02f8f25bc483d2d29b2f718e07c863d3e50c4775cb9e4d3c16984c13a4d8280a280f35b604051634c5678e160e11b8152600490fd5b50604036600319011262000276576200285d606062002810620028e5565b6200281a62002cf2565b62002824620033b3565b600d546040516256688760e81b81526001600160a01b039283166004820152602480359082015293849290911690829081906044820190565b039134905af18015620006db5762002873575080f35b606090813d811162001b7d5762001b71818362002a9e565b90503462000402576020366003190112620004025760043563ffffffff60e01b8116809103620005535760209250637965db0b60e01b8114908115620028d3575b5015158152f35b6301ffc9a760e01b14905038620028cc565b600435906001600160a01b03821682036200001d57565b602435906001600160a01b03821682036200001d57565b60409060031901126200001d576004356001600160a01b03811681036200001d579060243580151581036200001d5790565b60005b838110620029595750506000910152565b818101518382015260200162002948565b90602091620029858151809281855285808601910162002945565b601f01601f1916010190565b600a54811015620029cd57600690600a600052027fc65a7bb8d6351c1cf70c95a316cc6a92839c986682d98bc35f958f4883f9d2a80190600090565b634e487b7160e01b600052603260045260246000fd5b90600182811c9216801562002a15575b6020831014620029ff57565b634e487b7160e01b600052602260045260246000fd5b91607f1691620029f3565b60c081019081106001600160401b0382111762002a3c57604052565b634e487b7160e01b600052604160045260246000fd5b6001600160401b03811162002a3c57604052565b604081019081106001600160401b0382111762002a3c57604052565b608081019081106001600160401b0382111762002a3c57604052565b90601f801991011681019081106001600160401b0382111762002a3c57604052565b906040519182600082549262002ad684620029e3565b90818452600194858116908160001462002b4d575060011462002b06575b505062002b049250038362002a9e565b565b9093915060005260209081600020936000915b81831062002b3457505062002b049350820101388062002af4565b8554888401850152948501948794509183019162002b19565b91505062002b0494506020925060ff191682840152151560051b820101388062002af4565b90815180825260208080930193019160005b82811062002b93575050505090565b83516001600160a01b03168552938101939281019260010162002b84565b90815180825260208080930193019160005b82811062002bd2575050505090565b83518552938101939281019260010162002bc3565b908082519081815260208091019281808460051b8301019501936000915b84831062002c165750505050505090565b909192939495848062002c36600193601f198682030187528a516200296a565b980193019301919493929062002c05565b9181601f840112156200001d578235916001600160401b0383116200001d576020808501948460051b0101116200001d57565b9060406003198301126200001d576004356001600160a01b03811681036200001d5791602435906001600160401b0382116200001d5762002cbe9160040162002c47565b9091565b9181601f840112156200001d578235916001600160401b0383116200001d57602083818601950101116200001d57565b3360009081527fee57cd81e84075558e8fcc182a1f4393f91fc97f963a136e66b7f949a62f319f602090815260408083205490927f97667070c54ef182b0f5858b034beac1b6f3089aa2d3188bb1e8929f4fa9b9299160ff161562002d575750505050565b62002d62336200323e565b9184519062002d718262002a82565b6042825284820192606036853782511562002efb576030845382519060019182101562002efb5790607860218501536041915b81831162002e9c5750505062002e5a57604862002e5693869362002e399362002e29985198899376020b1b1b2b9b9a1b7b73a3937b61d1030b1b1b7bab73a1604d1b8a86015262002dff815180928c60378901910162002945565b8401917001034b99036b4b9b9b4b733903937b6329607d1b60378401525180938684019062002945565b0103602881018752018562002a9e565b5192839262461bcd60e51b8452600484015260248301906200296a565b0390fd5b60648486519062461bcd60e51b825280600483015260248201527f537472696e67733a20686578206c656e67746820696e73756666696369656e746044820152fd5b909192600f8116601081101562002ee7576f181899199a1a9b1b9c1cb0b131b232b360811b901a62002ecf85876200322c565b5360041c9280156200242a5760001901919062002da4565b634e487b7160e01b83526032600452602483fd5b634e487b7160e01b81526032600452602490fd5b3360009081527fad3228b676f7d3cd4284a5443f17f1962b36e491b30a40b2405849e597ba5fb5602090815260408083205490929060ff161562002f5257505050565b62002f5d336200323e565b908084519062002f6d8262002a82565b6042825284820192606036853782511562002efb576030845382519060019182101562002efb5790607860218501536041915b81831162002ffb5750505062002e5a57604862002e5693869362002e399362002e29985198899376020b1b1b2b9b9a1b7b73a3937b61d1030b1b1b7bab73a1604d1b8a86015262002dff815180928c60378901910162002945565b909192600f8116601081101562002ee7576f181899199a1a9b1b9c1cb0b131b232b360811b901a6200302e85876200322c565b5360041c9280156200242a5760001901919062002fa0565b600090808252602090828252604092838120338252835260ff848220541615620030705750505050565b6200307b336200323e565b918451906200308a8262002a82565b6042825284820192606036853782511562002efb576030845382519060019182101562002efb5790607860218501536041915b818311620031185750505062002e5a57604862002e5693869362002e399362002e29985198899376020b1b1b2b9b9a1b7b73a3937b61d1030b1b1b7bab73a1604d1b8a86015262002dff815180928c60378901910162002945565b909192600f8116601081101562002ee7576f181899199a1a9b1b9c1cb0b131b232b360811b901a6200314b85876200322c565b5360041c9280156200242a57600019019190620030bd565b9060009180835282602052604083209160018060a01b03169182845260205260ff6040842054166200319457505050565b80835282602052604083208284526020526040832060ff1981541690557ff6391f5c32d9c69d2a47ea670b442974b53935d1edc7fd64eb21e047a839171b339380a4565b81810292918115918404141715620031ec57565b634e487b7160e01b600052601160045260246000fd5b91908201809211620031ec57565b6001600160401b03811162002a3c57601f01601f191660200190565b908151811015620029cd570160200190565b60405190606082018281106001600160401b0382111762002a3c57604052602a8252602082016040368237825115620029cd57603090538151600190811015620029cd57607860218401536029905b808211620032e35750506200329f5790565b606460405162461bcd60e51b815260206004820152602060248201527f537472696e67733a20686578206c656e67746820696e73756666696369656e746044820152fd5b9091600f8116601081101562003341576f181899199a1a9b1b9c1cb0b131b232b360811b901a6200331584866200322c565b5360041c9180156200332c5760001901906200328d565b60246000634e487b7160e01b81526011600452fd5b60246000634e487b7160e01b81526032600452fd5b908060209392818452848401376000828201840152601f01601f1916010190565b929192620033858262003210565b9162003395604051938462002a9e565b8294818452818301116200001d578281602093846000960137010152565b60ff60015416620033c057565b60405162461bcd60e51b815260206004820152601060248201526f14185d5cd8589b194e881c185d5cd95960821b6044820152606490fd5b6002805414620034085760028055565b60405162461bcd60e51b815260206004820152601f60248201527f5265656e7472616e637947756172643a207265656e7472616e742063616c6c006044820152606490fd5b91908203918211620031ec57565b3d156200348b573d906200346f8262003210565b916200347f604051938462002a9e565b82523d6000602084013e565b606090565b91929015620034f55750815115620034a6575090565b3b15620034b05790565b60405162461bcd60e51b815260206004820152601d60248201527f416464726573733a2063616c6c20746f206e6f6e2d636f6e74726163740000006044820152606490fd5b825190915015620035095750805190602001fd5b60405162461bcd60e51b81526020600482015290819062002e569060248301906200296a565b9190811015620029cd5760051b0190565b356001600160a01b03811681036200001d5790565b6001600160401b03811162002a3c5760051b60200190565b8051821015620029cd5760209160051b010190565b906200358e8262003555565b6200359d604051918262002a9e565b8281528092620035b0601f199162003555565b0190602036910137565b90620035c68262003555565b620035d5604051918262002a9e565b8281528092620035e8601f199162003555565b019060005b828110620035fa57505050565b806060602080938501015201620035ed56fe6101608060405234620007cd576200201c8038038091620000218285620007d2565b8339810160a082820312620007cd5781516001600160401b038111620007cd57816200004f9184016200081b565b60208301519092906001600160401b038111620007cd5782620000749183016200081b565b60408201516060830151939092906001600160a01b0385168503620007cd5760808201516001600160401b038111620007cd57620000b392016200081b565b604080519195919081016001600160401b03811182821017620005605760405260018152603160f81b602082015281516001600160401b0381116200056057600354600181811c91168015620007c2575b60208210146200053f57601f81116200075c575b50806020601f8211600114620006d257600091620006c6575b508160011b916000199060031b1c1916176003555b82516001600160401b0381116200056057600454600181811c91168015620006bb575b60208210146200053f57601f811162000651575b50806020601f8211600114620005c757600091620005bb575b508160011b916000199060031b1c1916176004555b620001b682620008bf565b61012052620001c58162000a64565b6101405281516020830120908160e0526020815191012080610100524660a052604051917f8b73c3c69bb8fe3d512ecc4cf759cc79239f7b179b0ffacaa9a75d522b39400f6020840152604083015260608201524660808201523060a082015260a081528060c081011060018060401b0360c083011117620005605760c08101604052805160208201206080523060c052620002613362000876565b6001600160a01b03851615620005a7575060039051109081156200059a575b5062000588578015620005765782516001600160401b0381116200056057600a54600181811c9116801562000555575b60208210146200053f57601f8111620004e6575b506020601f82116001146200046d578192939460009262000461575b50508160011b916000199060031b1c191617600a555b33156200041c576002548181018091116200040657600255336000526000602052604060002081815401905560405190815260007fddf252ad1be2c89b69c2b068fc378daa952ba7f163c4a11628f55a4df523b3ef60203393a3600954336001600160a01b0390911603620003c257620003709062000876565b604051611440908162000bbc82396080518161118b015260a05181611257015260c05181611155015260e051816111da01526101005181611200015261012051816106a8015261014051816106d20152f35b606460405162461bcd60e51b815260206004820152602060248201527f4f776e61626c653a2063616c6c6572206973206e6f7420746865206f776e65726044820152fd5b634e487b7160e01b600052601160045260246000fd5b60405162461bcd60e51b815260206004820152601f60248201527f45524332303a206d696e7420746f20746865207a65726f2061646472657373006044820152606490fd5b015190503880620002e0565b600a600090815260008051602062001ffc8339815191529190601f198416905b818110620004cd57509583600195969710620004b3575b505050811b01600a55620002f6565b015160001960f88460031b161c19169055388080620004a4565b9192602060018192868b0151815501940192016200048d565b600a60005260008051602062001ffc833981519152601f830160051c8101916020841062000534575b601f0160051c01905b818110620005275750620002c4565b6000815560010162000518565b90915081906200050f565b634e487b7160e01b600052602260045260246000fd5b90607f1690620002b0565b634e487b7160e01b600052604160045260246000fd5b60405163c16f3a9360e01b8152600490fd5b604051639432241960e01b8152600490fd5b6003915051103862000280565b60c060049163d92e233d60e01b8282015201fd5b90508401513862000196565b6004600090815292507f8a35acfbc15ff81a39ae7d344fd709f28e8600b4aa8c65c6b64bfe7fe36bd19b905b601f198316841062000638576001935082601f198116106200061e575b5050811b01600455620001ab565b86015160001960f88460031b161c19169055388062000610565b86810151825560209384019360019092019101620005f3565b60046000527f8a35acfbc15ff81a39ae7d344fd709f28e8600b4aa8c65c6b64bfe7fe36bd19b601f830160051c81019160208410620006b0575b601f0160051c01905b818110620006a357506200017d565b6000815560010162000694565b90915081906200068b565b90607f169062000169565b90508301513862000131565b6003600090815292507fc2575a0e9e593c00f959f8c92f12db2869c3395a3b0502d05e2516446f71f85b905b601f198316841062000743576001935082601f1981161062000729575b5050811b0160035562000146565b85015160001960f88460031b161c1916905538806200071b565b85810151825560209384019360019092019101620006fe565b60036000527fc2575a0e9e593c00f959f8c92f12db2869c3395a3b0502d05e2516446f71f85b601f830160051c810160208410620007ba575b601f830160051c82018110620007ad57505062000118565b6000815560010162000795565b508062000795565b90607f169062000104565b600080fd5b601f909101601f19168101906001600160401b038211908210176200056057604052565b60005b8381106200080a5750506000910152565b8181015183820152602001620007f9565b81601f82011215620007cd5780516001600160401b03811162000560576040519262000852601f8301601f191660200185620007d2565b81845260208284010111620007cd57620008739160208085019101620007f6565b90565b600980546001600160a01b039283166001600160a01b0319821681179092559091167f8be0079c531659141344cd1fd0a4f28419497f9722a3daafe3b4186f6b6457e0600080a3565b805160209190828110156200093f575090601f825111620008fd5780825192015190808310620008ee57501790565b82600019910360031b1b161790565b604490620009319260405193849263305a27a960e01b845280600485015282519283918260248701528686019101620007f6565b601f01601f19168101030190fd5b6001600160401b03811162000560576005928354926001938481811c9116801562000a59575b838210146200053f57601f811162000a22575b5081601f8411600114620009b85750928293918392600094620009ac575b50501b916000199060031b1c191617905560ff90565b01519250388062000996565b919083601f1981168760005284600020946000905b8883831062000a075750505010620009ed575b505050811b01905560ff90565b015160001960f88460031b161c19169055388080620009e0565b858701518855909601959485019487935090810190620009cd565b8560005284601f846000209201871c820191601f8601881c015b82811062000a4c57505062000978565b6000815501859062000a3c565b90607f169062000965565b80516020908181101562000a915750601f825111620008fd5780825192015190808310620008ee57501790565b906001600160401b0382116200056057600654926001938481811c9116801562000bb0575b838210146200053f57601f811162000b76575b5081601f841160011462000b0a575092829391839260009462000afe575b50501b916000199060031b1c19161760065560ff90565b01519250388062000ae7565b919083601f198116600660005284600020946000905b8883831062000b5b575050501062000b41575b505050811b0160065560ff90565b015160001960f88460031b161c1916905538808062000b33565b85870151885590960195948501948793509081019062000b20565b600660005284601f84600020920160051c820191601f860160051c015b82811062000ba357505062000ac9565b6000815501859062000b93565b90607f169062000ab656fe6080604081815260048036101561001557600080fd5b600092833560e01c90816306fdde0314610b3a57508063095ea7b314610b1057806318160ddd14610af157806323b872dd14610a27578063313ce56714610a0b5780633644e515146109e757806339509351146109805780633c130d901461087a57806370a0823114610843578063715018a6146107e65780637ecebe00146107ae57806384b0196e146106915780638da5cb5b1461066857806395d89b4114610594578063a457c2d7146104ed578063a9059cbb146104bc578063c623674f146103d3578063d505accf1461021a578063dd62ed3e146101cd5763f2fde38b146100ff57600080fd5b346101c95760203660031901126101c957610118610c22565b90610121610ce1565b6001600160a01b03918216928315610177575050600954826bffffffffffffffffffffffff60a01b821617600955167f8be0079c531659141344cd1fd0a4f28419497f9722a3daafe3b4186f6b6457e08380a380f35b906020608492519162461bcd60e51b8352820152602660248201527f4f776e61626c653a206e6577206f776e657220697320746865207a65726f206160448201526564647265737360d01b6064820152fd5b8280fd5b505034610216578060031936011261021657806020926101eb610c22565b6101f3610c3d565b6001600160a01b0391821683526001865283832091168252845220549051908152f35b5080fd5b508290346102165760e036600319011261021657610236610c22565b61023e610c3d565b906044359260643560843560ff811681036103cf5781421161038c5760018060a01b0390818516928389526007602052898920908154916001830190558a519060208201927f6e71edae12b1b97f4d1f60370fef10105fa2faae0126114a169c64845d6126c98452868d840152858a1660608401528a608084015260a083015260c082015260c0815260e0810181811067ffffffffffffffff821117610379578b5251902061032191610319916102f3611152565b908c519161190160f01b83526002830152602282015260c43591604260a43592206110c3565b919091610fa9565b16036103365750610333939450610ea7565b80f35b606490602087519162461bcd60e51b8352820152601e60248201527f45524332305065726d69743a20696e76616c6964207369676e617475726500006044820152fd5b634e487b7160e01b8b526041875260248bfd5b875162461bcd60e51b8152602081850152601d60248201527f45524332305065726d69743a206578706972656420646561646c696e650000006044820152606490fd5b8680fd5b50503461021657816003193601126102165780519082600a546103f581610c53565b808552916001918083169081156104945750600114610437575b50505061042182610433940383610cbf565b51918291602083526020830190610be2565b0390f35b9450600a85527fc65a7bb8d6351c1cf70c95a316cc6a92839c986682d98bc35f958f4883f9d2a85b82861061047c57505050610421826020610433958201019461040f565b8054602087870181019190915290950194810161045f565b61043397508693506020925061042194915060ff191682840152151560051b8201019461040f565b5050346102165780600319360112610216576020906104e66104dc610c22565b6024359033610d39565b5160018152f35b508234610591578260031936011261059157610507610c22565b918360243592338152600160205281812060018060a01b0386168252602052205490828210610540576020856104e68585038733610ea7565b608490602086519162461bcd60e51b8352820152602560248201527f45524332303a2064656372656173656420616c6c6f77616e63652062656c6f77604482015264207a65726f60d81b6064820152fd5b80fd5b5090346101c957826003193601126101c957805191838154906105b682610c53565b8086529260019280841690811561063d57506001146105e1575b6104338686610421828b0383610cbf565b815294507f8a35acfbc15ff81a39ae7d344fd709f28e8600b4aa8c65c6b64bfe7fe36bd19b5b828610610625575050506104218260206104339582010194386105d0565b80546020878701810191909152909501948101610607565b905061043397508693506020925061042194915060ff191682840152151560051b82010194386105d0565b50503461021657816003193601126102165760095490516001600160a01b039091168152602090f35b5090346101c957826003193601126101c9576106cc7f000000000000000000000000000000000000000000000000000000000000000061127d565b926106f67f0000000000000000000000000000000000000000000000000000000000000000611379565b908251926020928385019585871067ffffffffffffffff88111761079b57509280610751838896610744998b9996528686528151998a99600f60f81b8b5260e0868c015260e08b0190610be2565b91898303908a0152610be2565b924660608801523060808801528460a088015286840360c088015251928381520193925b82811061078457505050500390f35b835185528695509381019392810192600101610775565b634e487b7160e01b845260419052602483fd5b5050346102165760203660031901126102165760209181906001600160a01b036107d6610c22565b1681526007845220549051908152f35b83346105915780600319360112610591576107ff610ce1565b600980546001600160a01b0319811690915581906001600160a01b03167f8be0079c531659141344cd1fd0a4f28419497f9722a3daafe3b4186f6b6457e08280a380f35b5050346102165760203660031901126102165760209181906001600160a01b0361086b610c22565b16815280845220549051908152f35b8284346105915780600319360112610591578151918260209266697066733a2f2f60c81b8483015280600a54906108b082610c53565b9160019081811690811561095557506001146108f0575b50505061043392916108e19103601f198101865285610cbf565b51928284938452830190610be2565b8695949350600a82527fc65a7bb8d6351c1cf70c95a316cc6a92839c986682d98bc35f958f4883f9d2a85b83831061093c575093945091925082016027019050816108e16104336108c7565b80546027848b010152879689955090920191810161091b565b90506108e1945060279250610433969593915060ff19168284015280151502820101918193946108c7565b50913461059157816003193601126105915761099a610c22565b338252600160209081528383206001600160a01b03831684529052828220546024358101929083106109d4576020846104e6858533610ea7565b634e487b7160e01b815260118552602490fd5b505034610216578160031936011261021657602090610a04611152565b9051908152f35b5050346102165781600319360112610216576020905160128152f35b5082903461021657606036600319011261021657610a43610c22565b610a4b610c3d565b91846044359460018060a01b038416815260016020528181203382526020522054906000198203610a85575b6020866104e6878787610d39565b848210610aae5750918391610aa3602096956104e695033383610ea7565b919394819350610a77565b606490602087519162461bcd60e51b8352820152601d60248201527f45524332303a20696e73756666696369656e7420616c6c6f77616e63650000006044820152fd5b5050346102165781600319360112610216576020906002549051908152f35b5050346102165780600319360112610216576020906104e6610b30610c22565b6024359033610ea7565b849084346101c957826003193601126101c95782600354610b5a81610c53565b808552916001918083169081156104945750600114610b855750505061042182610433940383610cbf565b9450600385527fc2575a0e9e593c00f959f8c92f12db2869c3395a3b0502d05e2516446f71f85b5b828610610bca57505050610421826020610433958201019461040f565b80546020878701810191909152909501948101610bad565b919082519283825260005b848110610c0e575050826000602080949584010152601f8019910116010190565b602081830181015184830182015201610bed565b600435906001600160a01b0382168203610c3857565b600080fd5b602435906001600160a01b0382168203610c3857565b90600182811c92168015610c83575b6020831014610c6d57565b634e487b7160e01b600052602260045260246000fd5b91607f1691610c62565b6040810190811067ffffffffffffffff821117610ca957604052565b634e487b7160e01b600052604160045260246000fd5b90601f8019910116810190811067ffffffffffffffff821117610ca957604052565b6009546001600160a01b03163303610cf557565b606460405162461bcd60e51b815260206004820152602060248201527f4f776e61626c653a2063616c6c6572206973206e6f7420746865206f776e65726044820152fd5b6001600160a01b03908116918215610e545716918215610e0357600082815280602052604081205491808310610daf57604082827fddf252ad1be2c89b69c2b068fc378daa952ba7f163c4a11628f55a4df523b3ef958760209652828652038282205586815220818154019055604051908152a3565b60405162461bcd60e51b815260206004820152602660248201527f45524332303a207472616e7366657220616d6f756e7420657863656564732062604482015265616c616e636560d01b6064820152608490fd5b60405162461bcd60e51b815260206004820152602360248201527f45524332303a207472616e7366657220746f20746865207a65726f206164647260448201526265737360e81b6064820152608490fd5b60405162461bcd60e51b815260206004820152602560248201527f45524332303a207472616e736665722066726f6d20746865207a65726f206164604482015264647265737360d81b6064820152608490fd5b6001600160a01b03908116918215610f585716918215610f085760207f8c5be1e5ebec7d5bd14f71427d1e84f3dd0314c0f7b2291e5b200ac8c7c3b925918360005260018252604060002085600052825280604060002055604051908152a3565b60405162461bcd60e51b815260206004820152602260248201527f45524332303a20617070726f766520746f20746865207a65726f206164647265604482015261737360f01b6064820152608490fd5b60405162461bcd60e51b8152602060048201526024808201527f45524332303a20617070726f76652066726f6d20746865207a65726f206164646044820152637265737360e01b6064820152608490fd5b60058110156110ad5780610fba5750565b600181036110075760405162461bcd60e51b815260206004820152601860248201527f45434453413a20696e76616c6964207369676e617475726500000000000000006044820152606490fd5b600281036110545760405162461bcd60e51b815260206004820152601f60248201527f45434453413a20696e76616c6964207369676e6174757265206c656e677468006044820152606490fd5b60031461105d57565b60405162461bcd60e51b815260206004820152602260248201527f45434453413a20696e76616c6964207369676e6174757265202773272076616c604482015261756560f01b6064820152608490fd5b634e487b7160e01b600052602160045260246000fd5b9291907f7fffffffffffffffffffffffffffffff5d576e7357a4501ddfe92f46681b20a083116111465791608094939160ff602094604051948552168484015260408301526060820152600093849182805260015afa156111395781516001600160a01b03811615611133579190565b50600190565b50604051903d90823e3d90fd5b50505050600090600390565b307f00000000000000000000000000000000000000000000000000000000000000006001600160a01b03161480611254575b156111ad577f000000000000000000000000000000000000000000000000000000000000000090565b60405160208101907f8b73c3c69bb8fe3d512ecc4cf759cc79239f7b179b0ffacaa9a75d522b39400f82527f000000000000000000000000000000000000000000000000000000000000000060408201527f000000000000000000000000000000000000000000000000000000000000000060608201524660808201523060a082015260a0815260c0810181811067ffffffffffffffff821117610ca95760405251902090565b507f00000000000000000000000000000000000000000000000000000000000000004614611184565b60ff81146112bb5760ff811690601f82116112a9576040519161129f83610c8d565b8252602082015290565b604051632cd44ac360e21b8152600490fd5b506040516005548160006112ce83610c53565b8083529260019081811690811561135757506001146112f8575b506112f592500382610cbf565b90565b6005600090815291507f036b6384b5eca791c62761152d0c79bb0604c104a5fb6f4eb0703f3154bb3db05b84831061133c57506112f59350508101602001386112e8565b81935090816020925483858901015201910190918492611323565b9050602092506112f594915060ff191682840152151560051b820101386112e8565b60ff811461139b5760ff811690601f82116112a9576040519161129f83610c8d565b506040516006548160006113ae83610c53565b8083529260019081811690811561135757506001146113d457506112f592500382610cbf565b6006600090815291507ff652222313e28459528d920b65115c16c04f3efc82aaedc97be59f3f377c0d3f5b84831061141857506112f59350508101602001386112e8565b819350908160209254838589010152019101909184926113ff56fea164736f6c6343000814000ac65a7bb8d6351c1cf70c95a316cc6a92839c986682d98bc35f958f4883f9d2a8a164736f6c6343000814000a2f8788117e7eff1d82e926ec794901d17c78024a50270940304540a733656f0d","opcodes":"PUSH1 0x80 CALLVALUE PUSH3 0x220 JUMPI PUSH3 0x58A1 SWAP1 PUSH1 0x1F CODESIZE DUP4 SWAP1 SUB SWAP1 DUP2 ADD PUSH1 0x1F NOT AND DUP3 ADD SWAP1 PUSH1 0x1 PUSH1 0x1 PUSH1 0x40 SHL SUB DUP3 GT DUP4 DUP4 LT OR PUSH3 0x225 JUMPI DUP1 DUP4 SWAP2 PUSH1 0x40 SWAP6 DUP7 SWAP5 DUP6 MSTORE DUP4 CODECOPY DUP2 ADD SUB SLT PUSH3 0x220 JUMPI PUSH3 0x4F DUP2 PUSH3 0x23B JUMP JUMPDEST PUSH3 0x5E PUSH1 0x20 DUP1 SWAP4 ADD PUSH3 0x23B JUMP JUMPDEST PUSH1 0xFF NOT SWAP1 PUSH1 0x1 SWAP3 DUP3 DUP5 SLOAD AND DUP5 SSTORE DUP4 PUSH1 0x2 SSTORE PUSH2 0xFFFF DUP1 SWAP2 AND SWAP1 DUP1 DUP4 AND DUP3 ADD SWAP1 DUP1 DUP3 GT PUSH3 0x20A JUMPI PUSH2 0x2710 SWAP2 AND LT ISZERO PUSH3 0x1F9 JUMPI PUSH4 0xFFFF0000 PUSH1 0x3 SLOAD SWAP3 PUSH1 0x10 SHL AND SWAP2 PUSH4 0xFFFFFFFF NOT AND OR OR PUSH1 0x3 SSTORE PUSH1 0x0 SWAP2 DUP3 DUP1 MSTORE DUP3 DUP5 MSTORE DUP5 DUP4 KECCAK256 CALLER DUP5 MSTORE DUP5 MSTORE PUSH1 0xFF DUP6 DUP5 KECCAK256 SLOAD AND ISZERO PUSH3 0x1C4 JUMPI JUMPDEST PUSH32 0x65D7A28E3265B37A6474929F336521B332C1681B933F6CB9F3376673440D862A DUP1 DUP5 MSTORE DUP4 DUP6 MSTORE DUP6 DUP5 KECCAK256 CALLER DUP6 MSTORE DUP6 MSTORE PUSH1 0xFF DUP7 DUP6 KECCAK256 SLOAD AND ISZERO PUSH3 0x18D JUMPI JUMPDEST POP PUSH32 0x97667070C54EF182B0F5858B034BEAC1B6F3089AA2D3188BB1E8929F4FA9B929 SWAP4 DUP5 DUP5 MSTORE DUP4 DUP2 MSTORE DUP6 DUP5 KECCAK256 CALLER DUP6 MSTORE DUP2 MSTORE PUSH1 0xFF DUP7 DUP6 KECCAK256 SLOAD AND ISZERO PUSH3 0x154 JUMPI JUMPDEST DUP6 MLOAD PUSH2 0x5635 SWAP1 DUP2 PUSH3 0x24C DUP3 CODECOPY RETURN JUMPDEST DUP5 DUP5 MSTORE DUP4 DUP2 MSTORE DUP6 DUP5 KECCAK256 SWAP1 CALLER DUP6 MSTORE MSTORE DUP5 DUP4 KECCAK256 SWAP2 DUP3 SLOAD AND OR SWAP1 SSTORE CALLER SWAP2 PUSH1 0x0 DUP1 MLOAD PUSH1 0x20 PUSH3 0x5881 DUP4 CODECOPY DUP2 MLOAD SWAP2 MSTORE CALLER SWAP3 DUP1 LOG4 CODESIZE DUP1 DUP1 DUP1 DUP1 PUSH3 0x145 JUMP JUMPDEST DUP1 DUP5 MSTORE DUP4 DUP6 MSTORE DUP6 DUP5 KECCAK256 CALLER DUP6 MSTORE DUP6 MSTORE DUP6 DUP5 KECCAK256 DUP3 DUP5 DUP3 SLOAD AND OR SWAP1 SSTORE CALLER SWAP1 CALLER SWAP1 PUSH1 0x0 DUP1 MLOAD PUSH1 0x20 PUSH3 0x5881 DUP4 CODECOPY DUP2 MLOAD SWAP2 MSTORE DUP7 DUP1 LOG4 CODESIZE PUSH3 0x106 JUMP JUMPDEST DUP3 DUP1 MSTORE DUP3 DUP5 MSTORE DUP5 DUP4 KECCAK256 CALLER DUP5 MSTORE DUP5 MSTORE DUP5 DUP4 KECCAK256 DUP2 DUP4 DUP3 SLOAD AND OR SWAP1 SSTORE CALLER CALLER DUP5 PUSH1 0x0 DUP1 MLOAD PUSH1 0x20 PUSH3 0x5881 DUP4 CODECOPY DUP2 MLOAD SWAP2 MSTORE DUP2 DUP1 LOG4 PUSH3 0xC9 JUMP JUMPDEST DUP6 MLOAD PUSH4 0x192069C3 PUSH1 0xE3 SHL DUP2 MSTORE PUSH1 0x4 SWAP1 REVERT JUMPDEST PUSH4 0x4E487B71 PUSH1 0xE0 SHL PUSH1 0x0 MSTORE PUSH1 0x11 PUSH1 0x4 MSTORE PUSH1 0x24 PUSH1 0x0 REVERT JUMPDEST PUSH1 0x0 DUP1 REVERT JUMPDEST PUSH4 0x4E487B71 PUSH1 0xE0 SHL PUSH1 0x0 MSTORE PUSH1 0x41 PUSH1 0x4 MSTORE PUSH1 0x24 PUSH1 0x0 REVERT JUMPDEST MLOAD SWAP1 PUSH2 0xFFFF DUP3 AND DUP3 SUB PUSH3 0x220 JUMPI JUMP INVALID PUSH1 0x80 DUP1 PUSH1 0x40 MSTORE PUSH1 0x4 CALLDATASIZE LT ISZERO PUSH3 0x22 JUMPI JUMPDEST POP CALLDATASIZE ISZERO PUSH3 0x1D JUMPI PUSH1 0x0 DUP1 REVERT JUMPDEST PUSH1 0x0 DUP1 REVERT JUMPDEST PUSH1 0x0 SWAP1 DUP2 CALLDATALOAD PUSH1 0xE0 SHR SWAP1 DUP2 PUSH4 0x1FFC9A7 EQ PUSH3 0x288B JUMPI POP DUP1 PUSH4 0x14FE72AA EQ PUSH3 0x27F2 JUMPI DUP1 PUSH4 0x15A1603B EQ PUSH3 0x276F JUMPI DUP1 PUSH4 0x22163B86 EQ PUSH3 0x274F JUMPI DUP1 PUSH4 0x22212E2B EQ PUSH3 0x272F JUMPI DUP1 PUSH4 0x248A9CA3 EQ PUSH3 0x2701 JUMPI DUP1 PUSH4 0x28D7B276 EQ PUSH3 0x26AF JUMPI DUP1 PUSH4 0x2F2FF15D EQ PUSH3 0x25FA JUMPI DUP1 PUSH4 0x336322D2 EQ PUSH3 0x255A JUMPI DUP1 PUSH4 0x349123D1 EQ PUSH3 0x2515 JUMPI DUP1 PUSH4 0x35A62E68 EQ PUSH3 0x24D8 JUMPI DUP1 PUSH4 0x36568ABE EQ PUSH3 0x243E JUMPI DUP1 PUSH4 0x3DF9A720 EQ PUSH3 0x2286 JUMPI DUP1 PUSH4 0x494CFC6C EQ PUSH3 0x2064 JUMPI DUP1 PUSH4 0x5C975ABB EQ PUSH3 0x203F JUMPI DUP1 PUSH4 0x634282AF EQ PUSH3 0x1F8C JUMPI DUP1 PUSH4 0x692BF4A8 EQ PUSH3 0x1D02 JUMPI DUP1 PUSH4 0x79C8FFD6 EQ PUSH3 0x1CBF JUMPI DUP1 PUSH4 0x7E1C0C09 EQ PUSH3 0x1C9F JUMPI DUP1 PUSH4 0x8231F4F0 EQ PUSH3 0x1B85 JUMPI DUP1 PUSH4 0x84D93612 EQ PUSH3 0x1AD1 JUMPI DUP1 PUSH4 0x8995881D EQ PUSH3 0x1A8E JUMPI DUP1 PUSH4 0x8C9F7B39 EQ PUSH3 0x19EA JUMPI DUP1 PUSH4 0x91D14854 EQ PUSH3 0x199E JUMPI DUP1 PUSH4 0x943711EA EQ PUSH3 0x18F3 JUMPI DUP1 PUSH4 0x95ABC091 EQ PUSH3 0x15B6 JUMPI DUP1 PUSH4 0x9CCB0744 EQ PUSH3 0x14FB JUMPI DUP1 PUSH4 0xA217FDDF EQ PUSH3 0x14DD JUMPI DUP1 PUSH4 0xA9E3929E EQ PUSH3 0x1418 JUMPI DUP1 PUSH4 0xAC76D084 EQ PUSH3 0x13C3 JUMPI DUP1 PUSH4 0xAD3E080A EQ PUSH3 0x1355 JUMPI DUP1 PUSH4 0xBC120FE7 EQ PUSH3 0x12FB JUMPI DUP1 PUSH4 0xC748713E EQ PUSH3 0x12BE JUMPI DUP1 PUSH4 0xD547741F EQ PUSH3 0x1276 JUMPI DUP1 PUSH4 0xD634B419 EQ PUSH3 0xCB4 JUMPI DUP1 PUSH4 0xD9D0A5BE EQ PUSH3 0x712 JUMPI DUP1 PUSH4 0xDC4EC9BE EQ PUSH3 0x6EB JUMPI DUP1 PUSH4 0xDC97ECF6 EQ PUSH3 0x634 JUMPI DUP1 PUSH4 0xE4C608F1 EQ PUSH3 0x609 JUMPI DUP1 PUSH4 0xE559AFD9 EQ PUSH3 0x557 JUMPI DUP1 PUSH4 0xE5F8AF9F EQ PUSH3 0x443 JUMPI DUP1 PUSH4 0xE63AB1E9 EQ PUSH3 0x406 JUMPI DUP1 PUSH4 0xEC3889B5 EQ PUSH3 0x381 JUMPI DUP1 PUSH4 0xF3D2350E EQ PUSH3 0x2B6 JUMPI DUP1 PUSH4 0xF5B541A6 EQ PUSH3 0x279 JUMPI PUSH4 0xFF96092A SUB PUSH3 0x10 JUMPI CALLVALUE PUSH3 0x276 JUMPI DUP1 PUSH1 0x3 NOT CALLDATASIZE ADD SLT PUSH3 0x276 JUMPI PUSH1 0x20 PUSH2 0xFFFF PUSH1 0x3 SLOAD AND PUSH1 0x40 MLOAD SWAP1 DUP2 MSTORE RETURN JUMPDEST DUP1 REVERT JUMPDEST POP CALLVALUE PUSH3 0x276 JUMPI DUP1 PUSH1 0x3 NOT CALLDATASIZE ADD SLT PUSH3 0x276 JUMPI PUSH1 0x20 PUSH1 0x40 MLOAD PUSH32 0x97667070C54EF182B0F5858B034BEAC1B6F3089AA2D3188BB1E8929F4FA9B929 DUP2 MSTORE RETURN JUMPDEST POP CALLVALUE PUSH3 0x276 JUMPI PUSH1 0x40 CALLDATASIZE PUSH1 0x3 NOT ADD SLT PUSH3 0x276 JUMPI PUSH1 0x4 CALLDATALOAD PUSH2 0xFFFF SWAP1 DUP2 DUP2 AND DUP1 SWAP2 SUB PUSH3 0x1D JUMPI PUSH1 0x24 CALLDATALOAD SWAP1 DUP3 DUP3 AND SWAP3 DUP4 DUP4 SUB PUSH3 0x1D JUMPI PUSH3 0x2F6 PUSH3 0x2F0F JUMP JUMPDEST DUP4 DUP3 ADD DUP2 DUP2 GT PUSH3 0x36D JUMPI PUSH2 0x2710 SWAP2 AND LT ISZERO PUSH3 0x35B JUMPI PUSH32 0x2AC80C14C28700F7B5E36F947D572149FE2E3947BAC32C3A8C098F3E03722C11 SWAP3 PUSH1 0x40 SWAP3 DUP3 PUSH4 0xFFFF0000 PUSH1 0x3 SLOAD SWAP3 PUSH1 0x10 SHL AND SWAP2 PUSH4 0xFFFFFFFF NOT AND OR OR PUSH1 0x3 SSTORE DUP3 MLOAD SWAP2 DUP3 MSTORE PUSH1 0x20 DUP3 ADD MSTORE LOG1 DUP1 RETURN JUMPDEST PUSH1 0x40 MLOAD PUSH4 0x192069C3 PUSH1 0xE3 SHL DUP2 MSTORE PUSH1 0x4 SWAP1 REVERT JUMPDEST PUSH4 0x4E487B71 PUSH1 0xE0 SHL DUP7 MSTORE PUSH1 0x11 PUSH1 0x4 MSTORE PUSH1 0x24 DUP7 REVERT JUMPDEST POP CALLVALUE PUSH3 0x276 JUMPI PUSH1 0x20 CALLDATASIZE PUSH1 0x3 NOT ADD SLT PUSH3 0x276 JUMPI PUSH1 0x4 CALLDATALOAD PUSH1 0x1 PUSH1 0x1 PUSH1 0xA0 SHL SUB DUP2 AND SWAP1 DUP2 SWAP1 SUB PUSH3 0x402 JUMPI PUSH3 0x3B5 PUSH3 0x2F0F JUMP JUMPDEST PUSH3 0x3BF PUSH3 0x33F8 JUMP JUMPDEST PUSH1 0x4 SLOAD SWAP1 DUP2 ISZERO PUSH3 0x3F0 JUMPI DUP3 DUP1 DUP1 SWAP4 DUP2 SWAP4 DUP3 PUSH1 0x4 SSTORE DUP3 CALL ISZERO PUSH3 0x3E4 JUMPI PUSH1 0x1 PUSH1 0x2 SSTORE DUP1 RETURN JUMPDEST PUSH1 0x40 MLOAD SWAP1 RETURNDATASIZE SWAP1 DUP3 RETURNDATACOPY RETURNDATASIZE SWAP1 REVERT JUMPDEST PUSH1 0x40 MLOAD PUSH4 0x3FBECDF PUSH1 0xE5 SHL DUP2 MSTORE PUSH1 0x4 SWAP1 REVERT JUMPDEST POP DUP1 REVERT JUMPDEST POP CALLVALUE PUSH3 0x276 JUMPI DUP1 PUSH1 0x3 NOT CALLDATASIZE ADD SLT PUSH3 0x276 JUMPI PUSH1 0x20 PUSH1 0x40 MLOAD PUSH32 0x65D7A28E3265B37A6474929F336521B332C1681B933F6CB9F3376673440D862A DUP2 MSTORE RETURN JUMPDEST POP CALLVALUE PUSH3 0x276 JUMPI PUSH1 0x20 DUP1 PUSH1 0x3 NOT CALLDATASIZE ADD SLT PUSH3 0x402 JUMPI PUSH1 0x4 CALLDATALOAD PUSH1 0x1 PUSH1 0x1 PUSH1 0x40 SHL SUB DUP2 GT PUSH3 0x553 JUMPI PUSH3 0x47A SWAP1 CALLDATASIZE SWAP1 PUSH1 0x4 ADD PUSH3 0x2C47 JUMP JUMPDEST SWAP1 PUSH3 0x485 PUSH3 0x2F0F JUMP JUMPDEST PUSH3 0x48F PUSH3 0x33F8 JUMP JUMPDEST DUP4 JUMPDEST DUP3 DUP2 LT PUSH3 0x4A2 JUMPI DUP5 PUSH1 0x1 PUSH1 0x2 SSTORE DUP1 RETURN JUMPDEST PUSH1 0x1 PUSH1 0x1 PUSH1 0xA0 SHL SUB PUSH3 0x4C1 PUSH3 0x4BB DUP4 DUP7 DUP7 PUSH3 0x352F JUMP JUMPDEST PUSH3 0x3540 JUMP JUMPDEST AND SWAP1 DUP2 DUP7 MSTORE PUSH1 0x5 DUP6 MSTORE PUSH1 0x40 DUP7 KECCAK256 SWAP2 DUP7 DUP4 SLOAD SWAP4 DUP5 ISZERO SWAP1 DUP2 ISZERO PUSH3 0x4ED JUMPI JUMPDEST POP POP POP POP PUSH1 0x1 SWAP2 POP ADD PUSH3 0x491 JUMP JUMPDEST DUP6 SWAP2 DUP4 DUP6 SWAP3 SSTORE DUP4 SWAP1 PUSH3 0x549 JUMPI JUMPDEST DUP4 SWAP3 DUP4 SWAP3 DUP4 SWAP3 CALL ISZERO PUSH3 0x53E JUMPI PUSH32 0x7F0B212761A7ABE7EC4D2ADEA5A7FA1FEA58234AABF0C01C0E63403FE62013FF DUP7 PUSH1 0x1 SWAP5 PUSH1 0x40 MLOAD SWAP1 DUP2 MSTORE LOG2 CODESIZE DUP7 DUP2 DUP1 PUSH3 0x4DE JUMP JUMPDEST PUSH1 0x40 MLOAD RETURNDATASIZE DUP9 DUP3 RETURNDATACOPY RETURNDATASIZE SWAP1 REVERT JUMPDEST POP PUSH2 0x8FC PUSH3 0x4FB JUMP JUMPDEST DUP3 DUP1 REVERT JUMPDEST POP CALLVALUE PUSH3 0x276 JUMPI PUSH3 0x569 CALLDATASIZE PUSH3 0x2C7A JUMP JUMPDEST PUSH3 0x576 SWAP3 SWAP2 SWAP3 PUSH3 0x2CF2 JUMP JUMPDEST DUP4 JUMPDEST DUP2 DUP2 LT PUSH3 0x584 JUMPI DUP5 DUP1 RETURN JUMPDEST PUSH1 0x1 PUSH1 0x1 PUSH1 0xA0 SHL SUB DUP4 DUP2 AND DUP1 DUP8 MSTORE PUSH1 0x8 PUSH1 0x20 SWAP1 DUP2 MSTORE PUSH1 0x40 DUP9 KECCAK256 SWAP3 SWAP4 SWAP3 SWAP1 DUP5 PUSH3 0x5B3 PUSH3 0x4BB DUP7 DUP10 DUP13 PUSH3 0x352F JUMP JUMPDEST AND PUSH1 0x0 MSTORE MSTORE PUSH1 0x40 PUSH1 0x0 KECCAK256 SWAP3 PUSH1 0x1 SWAP4 DUP5 PUSH1 0xFF NOT DUP3 SLOAD AND OR SWAP1 SSTORE PUSH3 0x5DC PUSH3 0x4BB DUP5 DUP8 DUP11 PUSH3 0x352F JUMP JUMPDEST AND SWAP1 PUSH32 0x4BC18AA4B0095C9A3B5CDF42D2322D5A145591B04045988A995A5DA426075457 DUP9 DUP1 LOG3 ADD PUSH3 0x578 JUMP JUMPDEST POP CALLVALUE PUSH3 0x276 JUMPI DUP1 PUSH1 0x3 NOT CALLDATASIZE ADD SLT PUSH3 0x276 JUMPI PUSH1 0xD SLOAD PUSH1 0x40 MLOAD PUSH1 0x1 PUSH1 0x1 PUSH1 0xA0 SHL SUB SWAP1 SWAP2 AND DUP2 MSTORE PUSH1 0x20 SWAP1 RETURN JUMPDEST POP CALLVALUE PUSH3 0x276 JUMPI PUSH1 0x40 CALLDATASIZE PUSH1 0x3 NOT ADD SLT PUSH3 0x276 JUMPI DUP1 PUSH3 0x653 PUSH3 0x28E5 JUMP JUMPDEST PUSH3 0x65D PUSH3 0x28FC JUMP JUMPDEST SWAP1 PUSH3 0x668 PUSH3 0x2F0F JUMP JUMPDEST PUSH3 0x672 PUSH3 0x33B3 JUMP JUMPDEST PUSH1 0xD SLOAD PUSH1 0x1 PUSH1 0x1 PUSH1 0xA0 SHL SUB AND SWAP2 DUP3 EXTCODESIZE ISZERO PUSH3 0x6E6 JUMPI PUSH1 0x40 MLOAD PUSH4 0x27332AB PUSH1 0xE2 SHL DUP2 MSTORE PUSH1 0x1 PUSH1 0x1 PUSH1 0xA0 SHL SUB SWAP3 DUP4 AND PUSH1 0x4 DUP3 ADD MSTORE SWAP2 AND PUSH1 0x24 DUP3 ADD MSTORE SWAP1 DUP3 SWAP1 DUP3 SWAP1 PUSH1 0x44 SWAP1 DUP3 SWAP1 DUP5 SWAP1 GAS CALL DUP1 ISZERO PUSH3 0x6DB JUMPI PUSH3 0x6C8 JUMPI POP RETURN JUMPDEST PUSH3 0x6D3 SWAP1 PUSH3 0x2A52 JUMP JUMPDEST PUSH3 0x276 JUMPI DUP1 RETURN JUMPDEST PUSH1 0x40 MLOAD RETURNDATASIZE DUP5 DUP3 RETURNDATACOPY RETURNDATASIZE SWAP1 REVERT JUMPDEST POP POP POP REVERT JUMPDEST POP CALLVALUE PUSH3 0x276 JUMPI DUP1 PUSH1 0x3 NOT CALLDATASIZE ADD SLT PUSH3 0x276 JUMPI PUSH1 0x20 PUSH2 0xFFFF PUSH1 0x3 SLOAD PUSH1 0x10 SHR AND PUSH1 0x40 MLOAD SWAP1 DUP2 MSTORE RETURN JUMPDEST POP PUSH1 0xA0 CALLDATASIZE PUSH1 0x3 NOT ADD SLT PUSH3 0x276 JUMPI PUSH3 0x72A PUSH3 0x28E5 JUMP JUMPDEST PUSH1 0x24 SWAP2 PUSH1 0x44 CALLDATALOAD SWAP2 PUSH1 0x64 CALLDATALOAD PUSH1 0x1 PUSH1 0x1 PUSH1 0xA0 SHL SUB DUP2 DUP2 AND SWAP2 DUP7 CALLDATALOAD SWAP2 DUP4 DUP3 SUB PUSH3 0x1D JUMPI PUSH1 0x1 PUSH1 0x1 PUSH1 0x40 SHL SUB SWAP4 PUSH1 0x84 CALLDATALOAD DUP6 DUP2 GT PUSH3 0xCB0 JUMPI PUSH3 0x76F SWAP1 CALLDATASIZE SWAP1 PUSH1 0x4 ADD PUSH3 0x2C47 JUMP JUMPDEST SWAP5 SWAP1 SWAP9 PUSH3 0x77C PUSH3 0x33B3 JUMP JUMPDEST PUSH3 0x786 PUSH3 0x33F8 JUMP JUMPDEST PUSH1 0x6 SLOAD SWAP10 PUSH1 0x40 MLOAD SWAP8 PUSH1 0x20 SWAP9 DUP10 DUP2 ADD SWAP2 CALLER PUSH1 0x60 SHL DUP4 MSTORE DUP5 PUSH1 0x34 DUP4 ADD MSTORE PUSH1 0x34 DUP3 MSTORE PUSH1 0x60 DUP3 ADD SWAP1 DUP3 DUP3 LT SWAP1 DUP3 GT OR PUSH3 0xC9B JUMPI PUSH1 0x40 MSTORE MLOAD SWAP1 KECCAK256 SWAP1 PUSH3 0x7C8 DUP9 PUSH3 0x3555 JUMP JUMPDEST SWAP8 PUSH3 0x7D8 PUSH1 0x40 MLOAD SWAP10 DUP11 PUSH3 0x2A9E JUMP JUMPDEST DUP1 DUP10 MSTORE DUP10 DUP10 ADD SWAP1 PUSH1 0x5 SHL DUP3 ADD SWAP2 CALLDATASIZE DUP4 GT PUSH3 0xC97 JUMPI DUP11 SWAP1 SWAP2 JUMPDEST DUP4 DUP4 LT PUSH3 0xC86 JUMPI POP POP POP POP SWAP8 DUP10 SWAP9 JUMPDEST DUP8 MLOAD DUP11 LT ISZERO PUSH3 0x862 JUMPI PUSH3 0x817 DUP11 DUP10 PUSH3 0x356D JUMP JUMPDEST MLOAD SWAP1 DUP2 DUP2 LT ISZERO PUSH3 0x853 JUMPI DUP12 MSTORE DUP9 MSTORE PUSH1 0x40 DUP11 KECCAK256 JUMPDEST SWAP9 PUSH1 0x0 NOT DUP2 EQ PUSH3 0x840 JUMPI PUSH1 0x1 ADD SWAP9 PUSH3 0x801 JUMP JUMPDEST PUSH4 0x4E487B71 PUSH1 0xE0 SHL DUP12 MSTORE PUSH1 0x11 PUSH1 0x4 MSTORE DUP13 DUP12 REVERT JUMPDEST SWAP1 DUP12 MSTORE DUP9 MSTORE PUSH1 0x40 DUP11 KECCAK256 PUSH3 0x82B JUMP JUMPDEST DUP11 SWAP8 POP SWAP1 DUP12 DUP14 SWAP10 SWAP3 SUB PUSH3 0xC74 JUMPI DUP6 AND SWAP2 DUP3 DUP9 MSTORE PUSH1 0x9 DUP3 MSTORE PUSH1 0x40 DUP9 KECCAK256 CALLER PUSH1 0x0 MSTORE DUP3 MSTORE PUSH1 0x40 PUSH1 0x0 KECCAK256 SLOAD SWAP1 PUSH3 0x897 DUP6 DUP4 PUSH3 0x3202 JUMP JUMPDEST GT PUSH3 0xC62 JUMPI DUP4 PUSH3 0x8A9 SWAP2 PUSH3 0x3202 JUMP JUMPDEST DUP3 DUP9 MSTORE PUSH1 0x9 DUP3 MSTORE PUSH1 0x40 DUP9 KECCAK256 CALLER PUSH1 0x0 MSTORE DUP3 MSTORE PUSH1 0x40 PUSH1 0x0 KECCAK256 SSTORE PUSH3 0x8CA PUSH3 0x33B3 JUMP JUMPDEST PUSH3 0x8D4 PUSH3 0x33F8 JUMP JUMPDEST DUP3 ISZERO PUSH3 0xC50 JUMPI DUP2 DUP8 MSTORE PUSH1 0xC DUP2 MSTORE PUSH1 0xFF PUSH1 0x40 DUP9 KECCAK256 SLOAD AND PUSH3 0xC38 JUMPI DUP2 DUP8 MSTORE PUSH1 0xB DUP2 MSTORE PUSH1 0x40 DUP8 KECCAK256 SLOAD DUP1 ISZERO DUP1 ISZERO PUSH3 0xBFD JUMPI JUMPDEST PUSH3 0xBEB JUMPI DUP3 DUP9 MSTORE PUSH1 0x7 DUP3 MSTORE PUSH1 0xFF PUSH1 0x40 DUP10 KECCAK256 SLOAD AND DUP1 PUSH3 0xBCC JUMPI JUMPDEST PUSH3 0xBBA JUMPI PUSH1 0x0 NOT DUP2 ADD SWAP1 DUP2 GT PUSH3 0xBA7 JUMPI PUSH3 0x93D SWAP1 PUSH3 0x2991 JUMP JUMPDEST POP SWAP1 PUSH8 0xDE0B6B3A7640000 PUSH3 0x958 DUP6 PUSH1 0x2 DUP6 ADD SLOAD PUSH3 0x31D8 JUMP JUMPDEST DIV DUP1 CALLVALUE SUB PUSH3 0xB95 JUMPI PUSH1 0x3 SLOAD SWAP2 PUSH2 0x2710 PUSH2 0xFFFF SWAP4 DUP2 PUSH3 0x97B DUP7 DUP4 AND DUP7 PUSH3 0x31D8 JUMP JUMPDEST DIV SWAP5 DUP10 PUSH3 0xB7D JUMPI POP POP POP DUP10 SWAP8 JUMPDEST PUSH1 0x1 PUSH3 0x9A2 DUP11 PUSH3 0x99C DUP8 DUP8 PUSH3 0x344D JUMP JUMPDEST PUSH3 0x344D JUMP JUMPDEST SWAP6 PUSH3 0x9B1 DUP7 PUSH1 0x4 SLOAD PUSH3 0x3202 JUMP JUMPDEST PUSH1 0x4 SSTORE ADD SLOAD AND DUP11 MSTORE PUSH1 0x5 DUP2 MSTORE PUSH1 0x40 DUP11 KECCAK256 PUSH3 0x9CE DUP6 DUP3 SLOAD PUSH3 0x3202 JUMP JUMPDEST SWAP1 SSTORE PUSH1 0x40 DUP1 MLOAD PUSH4 0xA9059CBB PUSH1 0xE0 SHL DUP4 DUP3 ADD SWAP1 DUP2 MSTORE CALLER DUP3 DUP16 ADD SWAP1 DUP2 MSTORE PUSH1 0x20 DUP2 ADD DUP11 SWAP1 MSTORE PUSH3 0xA62 SWAP4 DUP15 SWAP3 DUP4 SWAP3 SWAP1 SWAP2 PUSH3 0xA13 SWAP2 DUP7 SWAP2 ADD JUMPDEST SUB PUSH1 0x1F NOT DUP2 ADD DUP7 MSTORE DUP6 PUSH3 0x2A9E JUMP JUMPDEST PUSH1 0x40 MLOAD SWAP4 PUSH3 0xA22 DUP6 PUSH3 0x2A66 JUMP JUMPDEST DUP7 DUP6 MSTORE PUSH32 0x5361666545524332303A206C6F772D6C6576656C2063616C6C206661696C6564 DUP8 DUP7 ADD MSTORE MLOAD SWAP1 DUP3 DUP12 GAS CALL PUSH3 0xA5A PUSH3 0x345B JUMP JUMPDEST SWAP1 DUP9 PUSH3 0x3490 JUMP JUMPDEST DUP1 MLOAD DUP3 DUP2 ISZERO SWAP2 DUP3 ISZERO PUSH3 0xB56 JUMPI JUMPDEST POP POP SWAP1 POP ISZERO PUSH3 0xB00 JUMPI DUP10 SWAP11 POP PUSH1 0x40 MLOAD SWAP6 DUP7 MSTORE DUP6 ADD MSTORE PUSH1 0x40 DUP5 ADD MSTORE DUP5 PUSH1 0x60 DUP5 ADD MSTORE PUSH1 0x80 DUP4 ADD MSTORE PUSH32 0xA4D1D47447AD64A0C581F05071DF4CE987BA94440D913925DC004A21F28F4226 PUSH1 0xA0 CALLER SWAP4 LOG4 DUP1 PUSH3 0xACC JUMPI JUMPDEST DUP3 PUSH1 0x1 PUSH1 0x2 SSTORE DUP1 RETURN JUMPDEST DUP3 DUP1 SWAP3 SWAP2 DUP2 SWAP3 GAS CALL PUSH3 0xADE PUSH3 0x345B JUMP JUMPDEST POP ISZERO PUSH3 0xAEE JUMPI DUP1 DUP3 DUP1 PUSH3 0xAC3 JUMP JUMPDEST PUSH1 0x40 MLOAD PUSH4 0x9A2C56AB PUSH1 0xE0 SHL DUP2 MSTORE PUSH1 0x4 SWAP1 REVERT JUMPDEST PUSH1 0x84 SWAP1 PUSH1 0x2A DUP13 PUSH1 0x40 MLOAD SWAP3 PUSH3 0x461BCD PUSH1 0xE5 SHL DUP5 MSTORE PUSH1 0x4 DUP5 ADD MSTORE DUP3 ADD MSTORE PUSH32 0x5361666545524332303A204552433230206F7065726174696F6E20646964206E PUSH1 0x44 DUP3 ADD MSTORE PUSH10 0x1BDD081CDD58D8D95959 PUSH1 0xB2 SHL PUSH1 0x64 DUP3 ADD MSTORE REVERT JUMPDEST DUP4 DUP1 SWAP3 SWAP4 POP ADD SUB SLT PUSH3 0xB79 JUMPI DUP2 ADD MLOAD DUP1 ISZERO ISZERO DUP2 SUB PUSH3 0xB79 JUMPI DUP1 DUP3 DUP15 PUSH3 0xA70 JUMP JUMPDEST DUP11 DUP1 REVERT JUMPDEST PUSH3 0xB8D SWAP2 PUSH1 0x10 SHR AND DUP5 PUSH3 0x31D8 JUMP JUMPDEST DIV SWAP8 PUSH3 0x989 JUMP JUMPDEST PUSH1 0x40 MLOAD PUSH4 0xD183FE43 PUSH1 0xE0 SHL DUP2 MSTORE PUSH1 0x4 SWAP1 REVERT JUMPDEST PUSH4 0x4E487B71 PUSH1 0xE0 SHL DUP9 MSTORE PUSH1 0x11 PUSH1 0x4 MSTORE DUP9 DUP9 REVERT JUMPDEST PUSH1 0x40 MLOAD PUSH4 0xB094F27 PUSH1 0xE3 SHL DUP2 MSTORE PUSH1 0x4 SWAP1 REVERT JUMPDEST POP PUSH1 0x8 DUP3 MSTORE PUSH1 0x40 DUP9 KECCAK256 CALLER PUSH1 0x0 MSTORE DUP3 MSTORE PUSH1 0xFF PUSH1 0x40 PUSH1 0x0 KECCAK256 SLOAD AND ISZERO PUSH3 0x920 JUMP JUMPDEST PUSH1 0x40 MLOAD PUSH4 0x1D99DDBF PUSH1 0xE0 SHL DUP2 MSTORE PUSH1 0x4 SWAP1 REVERT JUMPDEST POP PUSH1 0x0 NOT DUP2 ADD DUP2 DUP2 GT PUSH3 0xC25 JUMPI PUSH1 0x5 PUSH3 0xC1A PUSH1 0xFF SWAP3 PUSH3 0x2991 JUMP JUMPDEST POP ADD SLOAD AND ISZERO PUSH3 0x905 JUMP JUMPDEST PUSH4 0x4E487B71 PUSH1 0xE0 SHL DUP10 MSTORE PUSH1 0x11 PUSH1 0x4 MSTORE DUP10 DUP10 REVERT JUMPDEST PUSH1 0x40 MLOAD PUSH4 0x54047531 PUSH1 0xE1 SHL DUP2 MSTORE PUSH1 0x4 DUP2 ADD DUP4 SWAP1 MSTORE DUP9 SWAP1 REVERT JUMPDEST PUSH1 0x40 MLOAD PUSH4 0x1F2A2005 PUSH1 0xE0 SHL DUP2 MSTORE PUSH1 0x4 SWAP1 REVERT JUMPDEST PUSH1 0x40 MLOAD PUSH4 0x2EDAFF43 PUSH1 0xE0 SHL DUP2 MSTORE PUSH1 0x4 SWAP1 REVERT JUMPDEST PUSH1 0x40 MLOAD PUSH4 0x1CDE0969 PUSH1 0xE0 SHL DUP2 MSTORE PUSH1 0x4 SWAP1 REVERT JUMPDEST DUP3 CALLDATALOAD DUP2 MSTORE SWAP2 DUP2 ADD SWAP2 DUP12 SWAP2 ADD PUSH3 0x7F1 JUMP JUMPDEST DUP13 DUP1 REVERT JUMPDEST DUP15 PUSH4 0x4E487B71 PUSH1 0xE0 SHL PUSH1 0x0 MSTORE PUSH1 0x41 PUSH1 0x4 MSTORE PUSH1 0x0 REVERT JUMPDEST DUP8 DUP1 REVERT JUMPDEST POP CALLVALUE PUSH3 0x276 JUMPI PUSH1 0xC0 CALLDATASIZE PUSH1 0x3 NOT ADD SLT PUSH3 0x276 JUMPI PUSH1 0x4 CALLDATALOAD PUSH1 0x1 PUSH1 0x1 PUSH1 0x40 SHL SUB DUP2 GT PUSH3 0x402 JUMPI PUSH3 0xCEA SWAP1 CALLDATASIZE SWAP1 PUSH1 0x4 ADD PUSH3 0x2CC2 JUMP JUMPDEST PUSH1 0x24 CALLDATALOAD PUSH1 0x1 PUSH1 0x1 PUSH1 0x40 SHL SUB DUP2 GT PUSH3 0x1272 JUMPI PUSH3 0xD0C SWAP1 CALLDATASIZE SWAP1 PUSH1 0x4 ADD PUSH3 0x2CC2 JUMP JUMPDEST SWAP1 SWAP2 PUSH1 0x44 CALLDATALOAD PUSH1 0x1 PUSH1 0x1 PUSH1 0x40 SHL SUB DUP2 GT PUSH3 0x126E JUMPI PUSH3 0xD30 SWAP1 CALLDATASIZE SWAP1 PUSH1 0x4 ADD PUSH3 0x2CC2 JUMP JUMPDEST SWAP5 SWAP1 SWAP2 PUSH1 0xA4 CALLDATALOAD PUSH1 0x1 PUSH1 0x1 PUSH1 0x40 SHL SUB DUP2 GT PUSH3 0xCB0 JUMPI PUSH3 0xD55 SWAP1 CALLDATASIZE SWAP1 PUSH1 0x4 ADD PUSH3 0x2CC2 JUMP JUMPDEST SWAP6 SWAP1 SWAP5 PUSH3 0xD62 PUSH3 0x2CF2 JUMP JUMPDEST PUSH3 0xD6C PUSH3 0x33B3 JUMP JUMPDEST PUSH3 0xD76 PUSH3 0x33F8 JUMP JUMPDEST PUSH1 0x84 CALLDATALOAD ISZERO PUSH3 0x125C JUMPI PUSH1 0x40 MLOAD SWAP4 PUSH2 0x201C SWAP4 DUP5 DUP7 ADD SWAP5 DUP7 DUP7 LT PUSH1 0x1 PUSH1 0x1 PUSH1 0x40 SHL SUB DUP8 GT OR PUSH3 0x1248 JUMPI SWAP3 PUSH3 0xDC6 PUSH3 0xDD5 SWAP4 PUSH3 0xDF4 SWAP7 SWAP4 DUP10 SWAP9 SWAP7 PUSH3 0x360D DUP11 CODECOPY PUSH1 0xA0 DUP8 MSTORE PUSH1 0xA0 DUP8 ADD SWAP2 PUSH3 0x3356 JUMP JUMPDEST SWAP2 DUP5 DUP4 SUB PUSH1 0x20 DUP7 ADD MSTORE PUSH3 0x3356 JUMP JUMPDEST SWAP1 PUSH1 0x64 CALLDATALOAD PUSH1 0x40 DUP3 ADD MSTORE CALLER PUSH1 0x60 DUP3 ADD MSTORE PUSH1 0x80 DUP2 DUP4 SUB SWAP2 ADD MSTORE DUP7 DUP7 PUSH3 0x3356 JUMP JUMPDEST SUB SWAP1 DUP7 CREATE SWAP4 DUP5 ISZERO PUSH3 0x123D JUMPI PUSH1 0x40 MLOAD SWAP6 PUSH3 0xE0F DUP8 PUSH3 0x2A20 JUMP JUMPDEST PUSH1 0x1 PUSH1 0x1 PUSH1 0xA0 SHL SUB DUP7 AND DUP8 MSTORE CALLER PUSH1 0x20 DUP9 ADD MSTORE PUSH1 0x84 CALLDATALOAD PUSH1 0x40 DUP9 ADD MSTORE PUSH3 0xE36 CALLDATASIZE DUP4 DUP6 PUSH3 0x3377 JUMP JUMPDEST PUSH1 0x60 DUP9 ADD MSTORE PUSH3 0xE48 CALLDATASIZE DUP7 DUP7 PUSH3 0x3377 JUMP JUMPDEST PUSH1 0x80 DUP9 ADD MSTORE PUSH1 0x1 PUSH1 0xA0 DUP9 ADD MSTORE PUSH1 0xA SLOAD PUSH9 0x10000000000000000 DUP2 LT ISZERO PUSH3 0x1229 JUMPI DUP1 PUSH1 0x1 PUSH3 0xE7B SWAP3 ADD PUSH1 0xA SSTORE PUSH3 0x2991 JUMP JUMPDEST PUSH3 0x1215 JUMPI DUP8 MLOAD DUP2 SLOAD PUSH1 0x1 PUSH1 0x1 PUSH1 0xA0 SHL SUB SWAP2 DUP3 AND PUSH1 0x1 PUSH1 0x1 PUSH1 0xA0 SHL SUB NOT SWAP2 DUP3 AND OR DUP4 SSTORE PUSH1 0x20 DUP11 ADD MLOAD PUSH1 0x1 DUP5 ADD DUP1 SLOAD SWAP2 SWAP1 SWAP4 AND SWAP2 AND OR SWAP1 SSTORE PUSH1 0x40 DUP9 ADD MLOAD PUSH1 0x2 DUP3 ADD SSTORE PUSH1 0x60 DUP9 ADD MLOAD DUP1 MLOAD SWAP1 PUSH1 0x1 PUSH1 0x1 PUSH1 0x40 SHL SUB DUP3 GT PUSH3 0x112C JUMPI DUP2 SWAP1 PUSH3 0xEE4 PUSH1 0x3 DUP6 ADD SLOAD PUSH3 0x29E3 JUMP JUMPDEST PUSH1 0x1F DUP2 GT PUSH3 0x11C0 JUMPI JUMPDEST POP PUSH1 0x20 SWAP1 PUSH1 0x1F DUP4 GT PUSH1 0x1 EQ PUSH3 0x114C JUMPI DUP6 SWAP3 PUSH3 0x1140 JUMPI JUMPDEST POP POP DUP2 PUSH1 0x1 SHL SWAP2 PUSH1 0x0 NOT SWAP1 PUSH1 0x3 SHL SHR NOT AND OR PUSH1 0x3 DUP3 ADD SSTORE JUMPDEST PUSH1 0x80 DUP9 ADD MLOAD SWAP8 DUP9 MLOAD PUSH1 0x1 PUSH1 0x1 PUSH1 0x40 SHL SUB DUP2 GT PUSH3 0x112C JUMPI PUSH3 0xF44 PUSH1 0x4 DUP5 ADD SLOAD PUSH3 0x29E3 JUMP JUMPDEST PUSH1 0x1F DUP2 GT PUSH3 0x10E3 JUMPI JUMPDEST POP PUSH1 0x20 SWAP10 DUP11 SWAP1 PUSH1 0x1F DUP4 GT PUSH1 0x1 EQ PUSH3 0x1045 JUMPI PUSH3 0xFC9 SWAP4 DUP4 DUP8 SWAP7 SWAP5 PUSH1 0x5 SWAP5 PUSH1 0xA0 SWAP5 PUSH32 0x75C1F35492CD2BCB2820D5FF2434B9DC6D19432975F20761140109F0844A7B8A SWAP13 SWAP12 SWAP11 SWAP3 PUSH3 0x1039 JUMPI JUMPDEST POP POP DUP2 PUSH1 0x1 SHL SWAP2 PUSH1 0x0 NOT SWAP1 PUSH1 0x3 SHL SHR NOT AND OR PUSH1 0x4 DUP6 ADD SSTORE JUMPDEST ADD MLOAD ISZERO ISZERO SWAP2 ADD SWAP1 PUSH1 0xFF DUP1 NOT DUP4 SLOAD AND SWAP2 ISZERO ISZERO AND OR SWAP1 SSTORE JUMP JUMPDEST PUSH1 0x40 PUSH1 0xA SLOAD SWAP2 PUSH1 0x1 DUP1 PUSH1 0xA0 SHL SUB DUP10 AND DUP2 MSTORE PUSH1 0xB DUP11 MSTORE KECCAK256 SSTORE PUSH3 0x101F PUSH3 0x1004 PUSH1 0x40 MLOAD SWAP4 DUP5 SWAP4 PUSH1 0x84 CALLDATALOAD DUP6 MSTORE PUSH1 0x60 DUP12 DUP7 ADD MSTORE PUSH1 0x60 DUP6 ADD SWAP2 PUSH3 0x3356 JUMP JUMPDEST DUP3 DUP2 SUB PUSH1 0x40 DUP5 ADD MSTORE CALLER SWAP7 PUSH1 0x1 PUSH1 0x1 PUSH1 0xA0 SHL SUB DUP10 AND SWAP7 PUSH3 0x3356 JUMP JUMPDEST SUB SWAP1 LOG3 PUSH1 0x1 PUSH1 0x2 SSTORE PUSH1 0x40 MLOAD PUSH1 0x1 PUSH1 0x1 PUSH1 0xA0 SHL SUB SWAP1 SWAP2 AND DUP2 MSTORE RETURN JUMPDEST ADD MLOAD SWAP1 POP CODESIZE DUP1 PUSH3 0xF9A JUMP JUMPDEST SWAP1 PUSH1 0x4 DUP6 ADD DUP7 MSTORE DUP12 DUP7 KECCAK256 SWAP2 DUP7 JUMPDEST PUSH1 0x1F NOT DUP6 AND DUP2 LT PUSH3 0x10CB JUMPI POP SWAP4 PUSH1 0x1 DUP5 PUSH1 0x5 SWAP5 PUSH1 0xA0 SWAP5 PUSH3 0xFC9 SWAP9 PUSH32 0x75C1F35492CD2BCB2820D5FF2434B9DC6D19432975F20761140109F0844A7B8A SWAP14 SWAP13 SWAP12 SWAP11 SWAP9 PUSH1 0x1F NOT DUP2 AND LT PUSH3 0x10B1 JUMPI JUMPDEST POP POP POP DUP2 SHL ADD PUSH1 0x4 DUP6 ADD SSTORE PUSH3 0xFB2 JUMP JUMPDEST ADD MLOAD PUSH1 0x0 NOT PUSH1 0xF8 DUP5 PUSH1 0x3 SHL AND SHR NOT AND SWAP1 SSTORE CODESIZE DUP1 DUP1 PUSH3 0x10A0 JUMP JUMPDEST SWAP2 SWAP3 DUP14 PUSH1 0x1 DUP2 SWAP3 DUP7 DUP6 ADD MLOAD DUP2 SSTORE ADD SWAP5 ADD SWAP3 ADD PUSH3 0x1052 JUMP JUMPDEST PUSH1 0x4 DUP5 ADD DUP6 MSTORE PUSH1 0x20 DUP6 KECCAK256 PUSH1 0x1F DUP4 ADD PUSH1 0x5 SHR DUP2 ADD PUSH1 0x20 DUP5 LT PUSH3 0x1124 JUMPI JUMPDEST PUSH1 0x1F DUP4 ADD PUSH1 0x5 SHR DUP3 ADD DUP2 LT PUSH3 0x1118 JUMPI POP POP PUSH3 0xF4E JUMP JUMPDEST DUP7 DUP2 SSTORE PUSH1 0x1 ADD PUSH3 0x1100 JUMP JUMPDEST POP DUP1 PUSH3 0x1100 JUMP JUMPDEST PUSH4 0x4E487B71 PUSH1 0xE0 SHL DUP5 MSTORE PUSH1 0x41 PUSH1 0x4 MSTORE PUSH1 0x24 DUP5 REVERT JUMPDEST ADD MLOAD SWAP1 POP CODESIZE DUP1 PUSH3 0xF06 JUMP JUMPDEST SWAP3 POP PUSH1 0x3 DUP5 ADD DUP6 MSTORE PUSH1 0x20 DUP6 KECCAK256 SWAP1 DUP6 SWAP4 JUMPDEST PUSH1 0x1F NOT DUP5 AND DUP6 LT PUSH3 0x11A4 JUMPI PUSH1 0x1 SWAP5 POP DUP4 PUSH1 0x1F NOT DUP2 AND LT PUSH3 0x118A JUMPI JUMPDEST POP POP POP DUP2 SHL ADD PUSH1 0x3 DUP3 ADD SSTORE PUSH3 0xF1E JUMP JUMPDEST ADD MLOAD PUSH1 0x0 NOT PUSH1 0xF8 DUP5 PUSH1 0x3 SHL AND SHR NOT AND SWAP1 SSTORE CODESIZE DUP1 DUP1 PUSH3 0x1179 JUMP JUMPDEST DUP2 DUP2 ADD MLOAD DUP4 SSTORE PUSH1 0x20 SWAP5 DUP6 ADD SWAP5 PUSH1 0x1 SWAP1 SWAP4 ADD SWAP3 SWAP1 SWAP2 ADD SWAP1 PUSH3 0x115C JUMP JUMPDEST SWAP1 SWAP2 POP PUSH1 0x3 DUP5 ADD DUP6 MSTORE PUSH1 0x20 DUP6 KECCAK256 PUSH1 0x1F DUP5 ADD PUSH1 0x5 SHR DUP2 ADD PUSH1 0x20 DUP6 LT PUSH3 0x120D JUMPI JUMPDEST SWAP1 DUP5 SWAP4 SWAP3 SWAP2 JUMPDEST PUSH1 0x1F DUP4 ADD PUSH1 0x5 SHR DUP3 ADD DUP2 LT PUSH3 0x11FE JUMPI POP POP PUSH3 0xEEE JUMP JUMPDEST DUP8 DUP2 SSTORE DUP6 SWAP5 POP PUSH1 0x1 ADD PUSH3 0x11E6 JUMP JUMPDEST POP DUP1 PUSH3 0x11E0 JUMP JUMPDEST PUSH4 0x4E487B71 PUSH1 0xE0 SHL DUP3 MSTORE PUSH1 0x4 DUP3 SWAP1 MSTORE PUSH1 0x24 DUP3 REVERT JUMPDEST PUSH4 0x4E487B71 PUSH1 0xE0 SHL DUP3 MSTORE PUSH1 0x41 PUSH1 0x4 MSTORE PUSH1 0x24 DUP3 REVERT JUMPDEST PUSH1 0x40 MLOAD RETURNDATASIZE DUP8 DUP3 RETURNDATACOPY RETURNDATASIZE SWAP1 REVERT JUMPDEST PUSH4 0x4E487B71 PUSH1 0xE0 SHL DUP13 MSTORE PUSH1 0x41 PUSH1 0x4 MSTORE PUSH1 0x24 DUP13 REVERT JUMPDEST PUSH1 0x40 MLOAD PUSH4 0x7294708F PUSH1 0xE1 SHL DUP2 MSTORE PUSH1 0x4 SWAP1 REVERT JUMPDEST DUP6 DUP1 REVERT JUMPDEST DUP4 DUP1 REVERT JUMPDEST POP CALLVALUE PUSH3 0x276 JUMPI PUSH1 0x40 CALLDATASIZE PUSH1 0x3 NOT ADD SLT PUSH3 0x276 JUMPI PUSH3 0x12BB PUSH1 0x4 CALLDATALOAD PUSH3 0x129B PUSH3 0x28FC JUMP JUMPDEST SWAP1 DUP1 DUP5 MSTORE DUP4 PUSH1 0x20 MSTORE PUSH3 0x12B5 PUSH1 0x1 PUSH1 0x40 DUP7 KECCAK256 ADD SLOAD PUSH3 0x3046 JUMP JUMPDEST PUSH3 0x3163 JUMP JUMPDEST DUP1 RETURN JUMPDEST POP CALLVALUE PUSH3 0x276 JUMPI PUSH1 0x20 CALLDATASIZE PUSH1 0x3 NOT ADD SLT PUSH3 0x276 JUMPI PUSH1 0x20 SWAP1 PUSH1 0x40 SWAP1 PUSH1 0x1 PUSH1 0x1 PUSH1 0xA0 SHL SUB PUSH3 0x12EA PUSH3 0x28E5 JUMP JUMPDEST AND DUP2 MSTORE PUSH1 0x5 DUP4 MSTORE KECCAK256 SLOAD PUSH1 0x40 MLOAD SWAP1 DUP2 MSTORE RETURN JUMPDEST POP CALLVALUE PUSH3 0x276 JUMPI PUSH1 0x40 CALLDATASIZE PUSH1 0x3 NOT ADD SLT PUSH3 0x276 JUMPI PUSH3 0x1319 PUSH3 0x28E5 JUMP JUMPDEST PUSH1 0x40 PUSH3 0x1325 PUSH3 0x28FC JUMP JUMPDEST SWAP3 PUSH1 0x1 DUP1 PUSH1 0xA0 SHL SUB DUP1 SWAP4 AND DUP2 MSTORE PUSH1 0x8 PUSH1 0x20 MSTORE KECCAK256 SWAP2 AND PUSH1 0x0 MSTORE PUSH1 0x20 MSTORE PUSH1 0x20 PUSH1 0xFF PUSH1 0x40 PUSH1 0x0 KECCAK256 SLOAD AND PUSH1 0x40 MLOAD SWAP1 ISZERO ISZERO DUP2 MSTORE RETURN JUMPDEST POP CALLVALUE PUSH3 0x276 JUMPI PUSH3 0x1367 CALLDATASIZE PUSH3 0x2C7A JUMP JUMPDEST SWAP2 PUSH3 0x1372 PUSH3 0x2CF2 JUMP JUMPDEST DUP4 JUMPDEST DUP4 DUP2 LT PUSH3 0x1380 JUMPI DUP5 DUP1 RETURN JUMPDEST PUSH1 0x1 SWAP1 DUP2 DUP1 PUSH1 0xA0 SHL SUB DUP1 DUP5 AND DUP8 MSTORE PUSH1 0x20 PUSH1 0x8 DUP2 MSTORE PUSH1 0x40 DUP9 KECCAK256 SWAP2 PUSH3 0x13AA PUSH3 0x4BB DUP6 DUP11 DUP11 PUSH3 0x352F JUMP JUMPDEST AND PUSH1 0x0 MSTORE MSTORE PUSH1 0x40 PUSH1 0x0 KECCAK256 PUSH1 0xFF NOT DUP2 SLOAD AND SWAP1 SSTORE ADD PUSH3 0x1374 JUMP JUMPDEST POP CALLVALUE PUSH3 0x276 JUMPI PUSH1 0x40 CALLDATASIZE PUSH1 0x3 NOT ADD SLT PUSH3 0x276 JUMPI PUSH3 0x13E1 PUSH3 0x28E5 JUMP JUMPDEST PUSH1 0x40 PUSH3 0x13ED PUSH3 0x28FC JUMP JUMPDEST SWAP3 PUSH1 0x1 DUP1 PUSH1 0xA0 SHL SUB DUP1 SWAP4 AND DUP2 MSTORE PUSH1 0x9 PUSH1 0x20 MSTORE KECCAK256 SWAP2 AND PUSH1 0x0 MSTORE PUSH1 0x20 MSTORE PUSH1 0x20 PUSH1 0x40 PUSH1 0x0 KECCAK256 SLOAD PUSH1 0x40 MLOAD SWAP1 DUP2 MSTORE RETURN JUMPDEST POP CALLVALUE PUSH3 0x276 JUMPI PUSH3 0x142A CALLDATASIZE PUSH3 0x2913 JUMP JUMPDEST SWAP1 PUSH3 0x1435 PUSH3 0x2CF2 JUMP JUMPDEST PUSH1 0x1 PUSH1 0x1 PUSH1 0xA0 SHL SUB AND DUP1 DUP4 MSTORE PUSH1 0xB PUSH1 0x20 MSTORE PUSH1 0x40 DUP4 KECCAK256 SLOAD SWAP1 SWAP2 SWAP1 DUP1 ISZERO PUSH3 0x14CB JUMPI PUSH1 0x0 NOT DUP2 ADD SWAP1 DUP2 GT PUSH3 0x14B7 JUMPI DUP2 PUSH3 0x14AB PUSH32 0xB6C0B1ECCBEA10B66E1977F66CE16560EA82D88B327F904435080E4DA040208B SWAP4 PUSH1 0x5 PUSH3 0x1498 PUSH1 0x20 SWAP6 PUSH3 0x2991 JUMP JUMPDEST POP ADD SWAP1 PUSH1 0xFF DUP1 NOT DUP4 SLOAD AND SWAP2 ISZERO ISZERO AND OR SWAP1 SSTORE JUMP JUMPDEST PUSH1 0x40 MLOAD SWAP1 ISZERO ISZERO DUP2 MSTORE LOG2 DUP1 RETURN JUMPDEST PUSH4 0x4E487B71 PUSH1 0xE0 SHL DUP5 MSTORE PUSH1 0x11 PUSH1 0x4 MSTORE PUSH1 0x24 DUP5 REVERT JUMPDEST PUSH1 0x40 MLOAD PUSH4 0x8DDA39DF PUSH1 0xE0 SHL DUP2 MSTORE PUSH1 0x4 SWAP1 REVERT JUMPDEST POP CALLVALUE PUSH3 0x276 JUMPI DUP1 PUSH1 0x3 NOT CALLDATASIZE ADD SLT PUSH3 0x276 JUMPI PUSH1 0x20 SWAP1 PUSH1 0x40 MLOAD SWAP1 DUP2 MSTORE RETURN JUMPDEST POP CALLVALUE PUSH3 0x276 JUMPI PUSH1 0x20 CALLDATASIZE PUSH1 0x3 NOT ADD SLT PUSH3 0x276 JUMPI PUSH3 0x1519 PUSH3 0x28E5 JUMP JUMPDEST PUSH3 0x1523 PUSH3 0x2CF2 JUMP JUMPDEST PUSH3 0x152D PUSH3 0x33B3 JUMP JUMPDEST PUSH1 0xD SLOAD PUSH1 0x40 MLOAD PUSH4 0x98E122FD PUSH1 0xE0 SHL DUP2 MSTORE PUSH1 0x1 PUSH1 0x1 PUSH1 0xA0 SHL SUB SWAP3 DUP4 AND PUSH1 0x4 DUP3 ADD MSTORE SWAP1 PUSH1 0x20 SWAP1 DUP3 SWAP1 PUSH1 0x24 SWAP1 DUP3 SWAP1 DUP8 SWAP1 DUP8 AND GAS CALL DUP1 ISZERO PUSH3 0x15AB JUMPI PUSH3 0x156E JUMPI DUP3 DUP1 RETURN JUMPDEST PUSH1 0x20 DUP2 RETURNDATASIZE DUP3 GT PUSH3 0x15A2 JUMPI JUMPDEST DUP2 PUSH3 0x1589 PUSH1 0x20 SWAP4 DUP4 PUSH3 0x2A9E JUMP JUMPDEST DUP2 ADD SUB SLT PUSH3 0x553 JUMPI MLOAD SWAP1 DUP2 AND SUB PUSH3 0x276 JUMPI CODESIZE DUP1 DUP3 DUP1 RETURN JUMPDEST RETURNDATASIZE SWAP2 POP PUSH3 0x157A JUMP JUMPDEST PUSH1 0x40 MLOAD RETURNDATASIZE DUP6 DUP3 RETURNDATACOPY RETURNDATASIZE SWAP1 REVERT JUMPDEST POP CALLVALUE PUSH3 0x276 JUMPI DUP1 PUSH1 0x3 NOT CALLDATASIZE ADD SLT PUSH3 0x276 JUMPI PUSH1 0xA SLOAD PUSH3 0x15D7 DUP2 PUSH3 0x3582 JUMP JUMPDEST SWAP1 PUSH3 0x15E3 DUP2 PUSH3 0x3582 JUMP JUMPDEST PUSH3 0x15EE DUP3 PUSH3 0x3582 JUMP JUMPDEST SWAP4 PUSH3 0x15FA DUP4 PUSH3 0x35BA JUMP JUMPDEST SWAP5 PUSH3 0x1606 DUP5 PUSH3 0x35BA JUMP JUMPDEST SWAP1 PUSH3 0x1612 DUP6 PUSH3 0x3555 JUMP JUMPDEST SWAP2 PUSH3 0x1622 PUSH1 0x40 MLOAD SWAP4 DUP5 PUSH3 0x2A9E JUMP JUMPDEST DUP6 DUP4 MSTORE PUSH3 0x1630 DUP7 PUSH3 0x3555 JUMP JUMPDEST SWAP8 PUSH1 0x20 SWAP3 DUP4 DUP6 ADD SWAP10 PUSH1 0x1F NOT ADD CALLDATASIZE DUP12 CALLDATACOPY PUSH3 0x164A DUP9 PUSH3 0x3582 JUMP JUMPDEST SWAP7 PUSH3 0x1656 DUP10 PUSH3 0x3582 JUMP JUMPDEST SWAP9 DUP11 DUP9 JUMPDEST DUP3 DUP2 LT PUSH3 0x172B JUMPI POP POP POP SWAP1 DUP5 SWAP4 SWAP3 SWAP2 PUSH1 0x40 MLOAD SWAP11 PUSH2 0x100 DUP1 DUP14 MSTORE DUP13 ADD PUSH3 0x1681 SWAP2 PUSH3 0x2B72 JUMP JUMPDEST DUP12 DUP2 SUB DUP7 DUP14 ADD MSTORE PUSH3 0x1693 SWAP2 PUSH3 0x2B72 JUMP JUMPDEST DUP11 DUP2 SUB PUSH1 0x40 DUP13 ADD MSTORE PUSH3 0x16A6 SWAP2 PUSH3 0x2BB1 JUMP JUMPDEST DUP10 DUP2 SUB PUSH1 0x60 DUP12 ADD MSTORE PUSH3 0x16B9 SWAP2 PUSH3 0x2BE7 JUMP JUMPDEST DUP9 DUP2 SUB PUSH1 0x80 DUP11 ADD MSTORE PUSH3 0x16CC SWAP2 PUSH3 0x2BE7 JUMP JUMPDEST SWAP3 DUP8 DUP5 SUB PUSH1 0xA0 DUP10 ADD MSTORE MLOAD SWAP3 DUP4 DUP2 MSTORE ADD SWAP7 SWAP3 JUMPDEST DUP3 DUP2 LT PUSH3 0x1714 JUMPI DUP7 DUP1 PUSH3 0x1710 DUP9 PUSH3 0x1701 DUP13 DUP11 DUP6 DUP3 SUB PUSH1 0xC0 DUP8 ADD MSTORE PUSH3 0x2BB1 JUMP JUMPDEST SWAP1 DUP4 DUP3 SUB PUSH1 0xE0 DUP6 ADD MSTORE PUSH3 0x2BB1 JUMP JUMPDEST SUB SWAP1 RETURN JUMPDEST DUP4 MLOAD ISZERO ISZERO DUP9 MSTORE SWAP7 DUP2 ADD SWAP7 SWAP3 DUP2 ADD SWAP3 PUSH1 0x1 ADD PUSH3 0x16DE JUMP JUMPDEST DUP1 PUSH1 0xFF PUSH1 0x5 PUSH3 0x173F DUP4 SWAP14 SWAP12 SWAP13 SWAP14 PUSH3 0x2991 JUMP JUMPDEST POP DUP1 SLOAD PUSH1 0x1 PUSH1 0x1 PUSH1 0xA0 SHL SUB SWAP7 SWAP1 DUP8 AND SWAP5 DUP6 SWAP2 PUSH3 0x175D SWAP2 SWAP1 PUSH3 0x356D JUMP JUMPDEST MSTORE PUSH1 0x1 SWAP6 DUP7 DUP3 ADD SLOAD AND PUSH3 0x1772 DUP7 DUP11 PUSH3 0x356D JUMP JUMPDEST MSTORE PUSH1 0x2 DUP2 ADD SLOAD PUSH3 0x1784 DUP7 DUP12 PUSH3 0x356D JUMP JUMPDEST MSTORE PUSH3 0x1793 PUSH1 0x3 DUP3 ADD PUSH3 0x2AC0 JUMP JUMPDEST PUSH3 0x179F DUP7 DUP13 PUSH3 0x356D JUMP JUMPDEST MSTORE PUSH3 0x17AC DUP6 DUP12 PUSH3 0x356D JUMP JUMPDEST POP PUSH3 0x17BB PUSH1 0x4 DUP3 ADD PUSH3 0x2AC0 JUMP JUMPDEST PUSH3 0x17C7 DUP7 DUP14 PUSH3 0x356D JUMP JUMPDEST MSTORE PUSH3 0x17D4 DUP6 DUP13 PUSH3 0x356D JUMP JUMPDEST POP ADD SLOAD AND PUSH3 0x17E4 DUP4 DUP14 PUSH3 0x356D JUMP JUMPDEST SWAP1 ISZERO ISZERO SWAP1 MSTORE PUSH1 0x40 MLOAD PUSH4 0x18160DDD PUSH1 0xE0 SHL DUP2 MSTORE DUP11 DUP2 PUSH1 0x4 DUP2 DUP6 GAS STATICCALL SWAP1 DUP2 ISZERO PUSH3 0x18E8 JUMPI SWAP2 DUP12 SWAP2 DUP15 DUP6 SWAP5 DUP14 SWAP3 PUSH3 0x18AC JUMPI JUMPDEST POP PUSH1 0x24 SWAP5 PUSH3 0x1823 SWAP2 PUSH3 0x356D JUMP JUMPDEST MSTORE PUSH1 0x40 MLOAD PUSH4 0x70A08231 PUSH1 0xE0 SHL DUP2 MSTORE ADDRESS PUSH1 0x4 DUP3 ADD MSTORE SWAP3 DUP4 SWAP2 DUP3 SWAP1 GAS STATICCALL DUP1 ISZERO PUSH3 0x18A1 JUMPI DUP3 DUP15 DUP12 SWAP3 PUSH3 0x186A JUMPI JUMPDEST PUSH3 0x185C SWAP3 SWAP4 POP PUSH3 0x356D JUMP JUMPDEST MSTORE ADD DUP12 SWAP1 SWAP9 SWAP8 SWAP7 SWAP9 PUSH3 0x165A JUMP JUMPDEST POP POP POP DUP10 DUP2 DUP2 RETURNDATASIZE DUP4 GT PUSH3 0x1899 JUMPI JUMPDEST PUSH3 0x1885 DUP2 DUP4 PUSH3 0x2A9E JUMP JUMPDEST DUP2 ADD SUB SLT PUSH3 0x1D JUMPI MLOAD DUP13 SWAP1 DUP3 DUP3 PUSH3 0x184F JUMP JUMPDEST POP RETURNDATASIZE PUSH3 0x1879 JUMP JUMPDEST PUSH1 0x40 MLOAD RETURNDATASIZE DUP12 DUP3 RETURNDATACOPY RETURNDATASIZE SWAP1 REVERT JUMPDEST SWAP4 SWAP3 SWAP5 POP POP POP DUP2 DUP2 RETURNDATASIZE DUP4 GT PUSH3 0x18E0 JUMPI JUMPDEST PUSH3 0x18C9 DUP2 DUP4 PUSH3 0x2A9E JUMP JUMPDEST DUP2 ADD SUB SLT PUSH3 0x1D JUMPI MLOAD DUP3 SWAP2 DUP12 SWAP2 DUP15 PUSH1 0x24 PUSH3 0x1814 JUMP JUMPDEST POP RETURNDATASIZE PUSH3 0x18BD JUMP JUMPDEST PUSH1 0x40 MLOAD RETURNDATASIZE DUP13 DUP3 RETURNDATACOPY RETURNDATASIZE SWAP1 REVERT JUMPDEST POP CALLVALUE PUSH3 0x276 JUMPI PUSH1 0x40 CALLDATASIZE PUSH1 0x3 NOT ADD SLT PUSH3 0x276 JUMPI PUSH3 0x1911 PUSH3 0x28E5 JUMP JUMPDEST DUP2 PUSH3 0x191C PUSH3 0x28FC JUMP JUMPDEST PUSH3 0x1926 PUSH3 0x2CF2 JUMP JUMPDEST PUSH3 0x1930 PUSH3 0x33F8 JUMP JUMPDEST PUSH1 0xD SLOAD PUSH1 0x1 PUSH1 0x1 PUSH1 0xA0 SHL SUB AND DUP1 EXTCODESIZE ISZERO PUSH3 0x553 JUMPI PUSH1 0x40 MLOAD PUSH4 0x54FDC16B PUSH1 0xE1 SHL DUP2 MSTORE PUSH1 0x1 PUSH1 0x1 PUSH1 0xA0 SHL SUB SWAP5 DUP6 AND PUSH1 0x4 DUP3 ADD MSTORE SWAP2 SWAP1 SWAP4 AND PUSH1 0x24 DUP3 ADD MSTORE SWAP2 DUP3 SWAP1 PUSH1 0x44 SWAP1 DUP3 SWAP1 DUP5 SWAP1 GAS CALL DUP1 ISZERO PUSH3 0x6DB JUMPI PUSH3 0x198C JUMPI JUMPDEST POP PUSH1 0x1 PUSH1 0x2 SSTORE DUP1 RETURN JUMPDEST PUSH3 0x1997 SWAP1 PUSH3 0x2A52 JUMP JUMPDEST CODESIZE PUSH3 0x1983 JUMP JUMPDEST POP CALLVALUE PUSH3 0x276 JUMPI PUSH1 0x40 CALLDATASIZE PUSH1 0x3 NOT ADD SLT PUSH3 0x276 JUMPI PUSH1 0xFF PUSH1 0x40 PUSH1 0x20 SWAP3 PUSH3 0x19C3 PUSH3 0x28FC JUMP JUMPDEST PUSH1 0x4 CALLDATALOAD DUP3 MSTORE DUP2 DUP6 MSTORE DUP3 DUP3 KECCAK256 PUSH1 0x1 PUSH1 0x1 PUSH1 0xA0 SHL SUB SWAP1 SWAP2 AND DUP3 MSTORE DUP5 MSTORE KECCAK256 SLOAD PUSH1 0x40 MLOAD SWAP2 AND ISZERO ISZERO DUP2 MSTORE RETURN JUMPDEST POP CALLVALUE PUSH3 0x276 JUMPI PUSH1 0x20 CALLDATASIZE PUSH1 0x3 NOT ADD SLT PUSH3 0x276 JUMPI PUSH3 0x1A08 PUSH3 0x28E5 JUMP JUMPDEST PUSH3 0x1A12 PUSH3 0x2CF2 JUMP JUMPDEST PUSH1 0x1 PUSH1 0x1 PUSH1 0xA0 SHL SUB AND DUP1 DUP3 MSTORE PUSH1 0xB PUSH1 0x20 MSTORE PUSH1 0x40 DUP3 KECCAK256 SLOAD DUP1 ISZERO PUSH3 0x14CB JUMPI PUSH1 0x0 NOT DUP2 ADD SWAP1 DUP2 GT PUSH3 0x1A7A JUMPI PUSH3 0x1A49 PUSH1 0x5 SWAP2 PUSH3 0x2991 JUMP JUMPDEST POP ADD DUP1 SLOAD PUSH1 0xFF NOT AND SWAP1 SSTORE PUSH32 0x3BF74796FB125AB3C0F1C7C4419D72AF7311E2D12F7D55B6FE62F4DFDCC8F033 DUP3 DUP1 LOG2 DUP1 RETURN JUMPDEST PUSH4 0x4E487B71 PUSH1 0xE0 SHL DUP4 MSTORE PUSH1 0x11 PUSH1 0x4 MSTORE PUSH1 0x24 DUP4 REVERT JUMPDEST POP CALLVALUE PUSH3 0x276 JUMPI PUSH1 0x20 CALLDATASIZE PUSH1 0x3 NOT ADD SLT PUSH3 0x276 JUMPI PUSH1 0x20 SWAP1 PUSH1 0xFF SWAP1 PUSH1 0x40 SWAP1 PUSH1 0x1 PUSH1 0x1 PUSH1 0xA0 SHL SUB PUSH3 0x1ABD PUSH3 0x28E5 JUMP JUMPDEST AND DUP2 MSTORE PUSH1 0xC DUP5 MSTORE KECCAK256 SLOAD AND PUSH1 0x40 MLOAD SWAP1 ISZERO ISZERO DUP2 MSTORE RETURN JUMPDEST POP CALLVALUE PUSH3 0x276 JUMPI PUSH1 0x40 CALLDATASIZE PUSH1 0x3 NOT ADD SLT PUSH3 0x276 JUMPI DUP1 PUSH1 0x40 PUSH3 0x1B44 PUSH3 0x1AF6 PUSH3 0x28E5 JUMP JUMPDEST PUSH3 0x1B00 PUSH3 0x2CF2 JUMP JUMPDEST PUSH3 0x1B0A PUSH3 0x33B3 JUMP JUMPDEST PUSH1 0xD SLOAD DUP4 MLOAD PUSH4 0x5100E67B PUSH1 0xE1 SHL DUP2 MSTORE PUSH1 0x1 PUSH1 0x1 PUSH1 0xA0 SHL SUB SWAP3 DUP4 AND PUSH1 0x4 DUP3 ADD MSTORE PUSH1 0x24 DUP1 CALLDATALOAD SWAP1 DUP3 ADD MSTORE SWAP5 DUP6 SWAP4 SWAP2 SWAP1 SWAP3 AND SWAP2 DUP4 SWAP2 DUP3 SWAP1 PUSH1 0x44 DUP3 ADD SWAP1 JUMP JUMPDEST SUB SWAP3 GAS CALL DUP1 ISZERO PUSH3 0x6DB JUMPI PUSH3 0x1B58 JUMPI POP DUP1 RETURN JUMPDEST PUSH1 0x40 SWAP1 DUP2 RETURNDATASIZE DUP4 GT PUSH3 0x1B7D JUMPI JUMPDEST PUSH3 0x1B71 DUP2 DUP4 PUSH3 0x2A9E JUMP JUMPDEST DUP2 ADD SUB SLT PUSH3 0x276 JUMPI DUP1 RETURN JUMPDEST POP RETURNDATASIZE PUSH3 0x1B65 JUMP JUMPDEST POP CALLVALUE PUSH3 0x276 JUMPI PUSH1 0x20 SWAP1 DUP2 PUSH1 0x3 NOT CALLDATASIZE ADD SLT PUSH3 0x276 JUMPI PUSH3 0x1BA5 PUSH3 0x28E5 JUMP JUMPDEST PUSH1 0xA SLOAD PUSH3 0x1BB3 DUP2 PUSH3 0x3582 JUMP JUMPDEST SWAP3 PUSH3 0x1BBF DUP3 PUSH3 0x3582 JUMP JUMPDEST SWAP3 PUSH1 0x1 PUSH1 0x1 PUSH1 0xA0 SHL SUB SWAP1 DUP2 AND SWAP1 DUP3 JUMPDEST DUP5 DUP2 LT PUSH3 0x1C04 JUMPI PUSH3 0x1BF6 DUP8 PUSH3 0x1710 DUP11 DUP10 PUSH1 0x40 MLOAD SWAP5 DUP6 SWAP5 PUSH1 0x40 DUP7 MSTORE PUSH1 0x40 DUP7 ADD SWAP1 PUSH3 0x2B72 JUMP JUMPDEST SWAP2 DUP5 DUP4 SUB SWAP1 DUP6 ADD MSTORE PUSH3 0x2BB1 JUMP JUMPDEST DUP1 DUP9 DUP4 PUSH3 0x1C14 PUSH1 0x24 SWAP5 PUSH3 0x2991 JUMP JUMPDEST POP SLOAD AND DUP1 PUSH3 0x1C24 DUP5 DUP13 PUSH3 0x356D JUMP JUMPDEST MSTORE PUSH1 0x40 MLOAD SWAP4 DUP5 DUP1 SWAP3 PUSH4 0x70A08231 PUSH1 0xE0 SHL DUP3 MSTORE DUP9 PUSH1 0x4 DUP4 ADD MSTORE GAS STATICCALL DUP1 ISZERO PUSH3 0x123D JUMPI DUP6 SWAP1 PUSH3 0x1C65 JUMPI JUMPDEST PUSH1 0x1 SWAP3 POP PUSH3 0x1C5D DUP3 DUP10 PUSH3 0x356D JUMP JUMPDEST MSTORE ADD PUSH3 0x1BCE JUMP JUMPDEST POP SWAP1 DUP9 DUP2 DUP2 RETURNDATASIZE DUP4 GT PUSH3 0x1C97 JUMPI JUMPDEST PUSH3 0x1C7F DUP2 DUP4 PUSH3 0x2A9E JUMP JUMPDEST DUP2 ADD SUB SLT PUSH3 0x1C93 JUMPI SWAP1 PUSH1 0x1 SWAP2 MLOAD PUSH3 0x1C4D JUMP JUMPDEST DUP5 DUP1 REVERT JUMPDEST POP RETURNDATASIZE PUSH3 0x1C73 JUMP JUMPDEST POP CALLVALUE PUSH3 0x276 JUMPI DUP1 PUSH1 0x3 NOT CALLDATASIZE ADD SLT PUSH3 0x276 JUMPI PUSH1 0x20 PUSH1 0xA SLOAD PUSH1 0x40 MLOAD SWAP1 DUP2 MSTORE RETURN JUMPDEST POP CALLVALUE PUSH3 0x276 JUMPI PUSH1 0x20 CALLDATASIZE PUSH1 0x3 NOT ADD SLT PUSH3 0x276 JUMPI PUSH1 0x20 SWAP1 PUSH1 0xFF SWAP1 PUSH1 0x40 SWAP1 PUSH1 0x1 PUSH1 0x1 PUSH1 0xA0 SHL SUB PUSH3 0x1CEE PUSH3 0x28E5 JUMP JUMPDEST AND DUP2 MSTORE PUSH1 0x7 DUP5 MSTORE KECCAK256 SLOAD AND PUSH1 0x40 MLOAD SWAP1 ISZERO ISZERO DUP2 MSTORE RETURN JUMPDEST POP PUSH1 0x60 CALLDATASIZE PUSH1 0x3 NOT ADD SLT PUSH3 0x276 JUMPI PUSH3 0x1D1A PUSH3 0x28E5 JUMP JUMPDEST PUSH1 0x24 SWAP2 SWAP1 PUSH1 0x44 CALLDATALOAD SWAP1 PUSH1 0x1 PUSH1 0x1 PUSH1 0xA0 SHL SUB SWAP1 DUP2 DUP4 AND SWAP1 DUP6 CALLDATALOAD SWAP1 DUP3 DUP6 SUB PUSH3 0x126E JUMPI PUSH3 0x1D44 PUSH3 0x33B3 JUMP JUMPDEST PUSH3 0x1D4E PUSH3 0x33F8 JUMP JUMPDEST DUP2 ISZERO PUSH3 0xC50 JUMPI DUP4 AND DUP1 DUP7 MSTORE PUSH1 0x20 PUSH1 0xC DUP2 MSTORE PUSH1 0xFF PUSH1 0x40 DUP9 KECCAK256 SLOAD AND PUSH3 0xC38 JUMPI DUP2 DUP8 MSTORE PUSH1 0xB DUP2 MSTORE PUSH1 0x40 DUP8 KECCAK256 SLOAD DUP1 ISZERO DUP1 ISZERO PUSH3 0x1F64 JUMPI JUMPDEST PUSH3 0xBEB JUMPI DUP3 DUP9 MSTORE PUSH1 0x7 DUP3 MSTORE PUSH1 0xFF PUSH1 0x40 DUP10 KECCAK256 SLOAD AND DUP1 PUSH3 0x1F47 JUMPI JUMPDEST PUSH3 0xBBA JUMPI PUSH1 0x0 NOT DUP2 ADD SWAP1 DUP2 GT PUSH3 0xBA7 JUMPI PUSH3 0x1DBB SWAP1 PUSH3 0x2991 JUMP JUMPDEST POP SWAP1 PUSH8 0xDE0B6B3A7640000 PUSH3 0x1DD6 DUP6 PUSH1 0x2 DUP6 ADD SLOAD PUSH3 0x31D8 JUMP JUMPDEST DIV DUP1 CALLVALUE SUB PUSH3 0xB95 JUMPI PUSH1 0x3 SLOAD SWAP2 PUSH2 0x2710 PUSH2 0xFFFF SWAP4 DUP2 PUSH3 0x1DF9 DUP7 DUP4 AND DUP7 PUSH3 0x31D8 JUMP JUMPDEST DIV SWAP5 DUP10 PUSH3 0x1F2F JUMPI POP POP POP DUP10 SWAP8 JUMPDEST PUSH1 0x1 PUSH3 0x1E1A DUP11 PUSH3 0x99C DUP8 DUP8 PUSH3 0x344D JUMP JUMPDEST SWAP6 PUSH3 0x1E29 DUP7 PUSH1 0x4 SLOAD PUSH3 0x3202 JUMP JUMPDEST PUSH1 0x4 SSTORE ADD SLOAD AND DUP11 MSTORE PUSH1 0x5 DUP2 MSTORE PUSH1 0x40 DUP11 KECCAK256 PUSH3 0x1E46 DUP6 DUP3 SLOAD PUSH3 0x3202 JUMP JUMPDEST SWAP1 SSTORE PUSH1 0x40 DUP1 MLOAD PUSH4 0xA9059CBB PUSH1 0xE0 SHL DUP4 DUP3 ADD SWAP1 DUP2 MSTORE CALLER DUP3 DUP16 ADD SWAP1 DUP2 MSTORE PUSH1 0x20 DUP2 ADD DUP11 SWAP1 MSTORE PUSH3 0x1E81 SWAP4 DUP15 SWAP3 DUP4 SWAP3 SWAP1 SWAP2 PUSH3 0xA13 SWAP2 DUP7 SWAP2 ADD PUSH3 0xA04 JUMP JUMPDEST DUP1 MLOAD DUP3 DUP2 ISZERO SWAP2 DUP3 ISZERO PUSH3 0x1F0C JUMPI JUMPDEST POP POP SWAP1 POP ISZERO PUSH3 0xB00 JUMPI DUP10 SWAP11 POP PUSH1 0x40 MLOAD SWAP6 DUP7 MSTORE DUP6 ADD MSTORE PUSH1 0x40 DUP5 ADD MSTORE DUP5 PUSH1 0x60 DUP5 ADD MSTORE PUSH1 0x80 DUP4 ADD MSTORE PUSH32 0xA4D1D47447AD64A0C581F05071DF4CE987BA94440D913925DC004A21F28F4226 PUSH1 0xA0 CALLER SWAP4 LOG4 DUP1 PUSH3 0x1EEA JUMPI DUP3 PUSH1 0x1 PUSH1 0x2 SSTORE DUP1 RETURN JUMPDEST DUP3 DUP1 SWAP3 SWAP2 DUP2 SWAP3 GAS CALL PUSH3 0x1EFC PUSH3 0x345B JUMP JUMPDEST POP ISZERO PUSH3 0xAEE JUMPI DUP1 CODESIZE DUP1 PUSH3 0xAC3 JUMP JUMPDEST DUP4 DUP1 SWAP3 SWAP4 POP ADD SUB SLT PUSH3 0xB79 JUMPI DUP2 ADD MLOAD DUP1 ISZERO ISZERO DUP2 SUB PUSH3 0xB79 JUMPI DUP1 DUP3 CODESIZE PUSH3 0x1E8F JUMP JUMPDEST PUSH3 0x1F3F SWAP2 PUSH1 0x10 SHR AND DUP5 PUSH3 0x31D8 JUMP JUMPDEST DIV SWAP8 PUSH3 0x1E07 JUMP JUMPDEST POP PUSH1 0x8 DUP3 MSTORE PUSH1 0x40 DUP9 KECCAK256 CALLER DUP10 MSTORE DUP3 MSTORE PUSH1 0xFF PUSH1 0x40 DUP10 KECCAK256 SLOAD AND ISZERO PUSH3 0x1D9E JUMP JUMPDEST POP PUSH1 0x0 NOT DUP2 ADD DUP2 DUP2 GT PUSH3 0xC25 JUMPI PUSH1 0x5 PUSH3 0x1F81 PUSH1 0xFF SWAP3 PUSH3 0x2991 JUMP JUMPDEST POP ADD SLOAD AND ISZERO PUSH3 0x1D83 JUMP JUMPDEST POP CALLVALUE PUSH3 0x276 JUMPI PUSH1 0x20 CALLDATASIZE PUSH1 0x3 NOT ADD SLT PUSH3 0x276 JUMPI PUSH1 0x4 CALLDATALOAD PUSH1 0xA SLOAD DUP2 LT ISZERO PUSH3 0x402 JUMPI PUSH3 0x1FB9 SWAP1 PUSH3 0x2991 JUMP JUMPDEST POP PUSH1 0x1 DUP1 PUSH1 0xA0 SHL SUB DUP1 DUP3 SLOAD AND SWAP1 PUSH1 0x1 DUP4 ADD SLOAD AND SWAP2 PUSH3 0x2033 PUSH1 0x2 DUP3 ADD SLOAD SWAP2 PUSH3 0x2024 PUSH3 0x1FE9 PUSH1 0x3 DUP4 ADD PUSH3 0x2AC0 JUMP JUMPDEST PUSH1 0xFF PUSH1 0x5 PUSH3 0x1FFB PUSH1 0x4 DUP7 ADD PUSH3 0x2AC0 JUMP JUMPDEST SWAP5 ADD SLOAD AND SWAP5 PUSH1 0x40 MLOAD SWAP8 DUP9 SWAP8 DUP9 MSTORE PUSH1 0x20 DUP9 ADD MSTORE PUSH1 0x40 DUP8 ADD MSTORE PUSH1 0xC0 PUSH1 0x60 DUP8 ADD MSTORE PUSH1 0xC0 DUP7 ADD SWAP1 PUSH3 0x296A JUMP JUMPDEST SWAP1 DUP5 DUP3 SUB PUSH1 0x80 DUP7 ADD MSTORE PUSH3 0x296A JUMP JUMPDEST SWAP1 ISZERO ISZERO PUSH1 0xA0 DUP4 ADD MSTORE SUB SWAP1 RETURN JUMPDEST POP CALLVALUE PUSH3 0x276 JUMPI DUP1 PUSH1 0x3 NOT CALLDATASIZE ADD SLT PUSH3 0x276 JUMPI PUSH1 0x20 PUSH1 0xFF PUSH1 0x1 SLOAD AND PUSH1 0x40 MLOAD SWAP1 ISZERO ISZERO DUP2 MSTORE RETURN JUMPDEST POP CALLVALUE PUSH3 0x276 JUMPI PUSH1 0x40 CALLDATASIZE PUSH1 0x3 NOT ADD SLT PUSH3 0x276 JUMPI PUSH1 0x4 CALLDATALOAD SWAP1 PUSH3 0x20A2 DUP3 PUSH3 0x208F PUSH1 0x24 CALLDATALOAD DUP3 PUSH3 0x3202 JUMP JUMPDEST PUSH1 0xA SLOAD DUP1 DUP3 GT PUSH3 0x227D JUMPI JUMPDEST POP PUSH3 0x344D JUMP JUMPDEST SWAP2 PUSH3 0x20AE DUP4 PUSH3 0x3555 JUMP JUMPDEST SWAP3 PUSH3 0x20BE PUSH1 0x40 MLOAD SWAP5 DUP6 PUSH3 0x2A9E JUMP JUMPDEST DUP1 DUP5 MSTORE PUSH3 0x20CF PUSH1 0x1F NOT SWAP2 PUSH3 0x3555 JUMP JUMPDEST ADD DUP3 JUMPDEST DUP2 DUP2 LT PUSH3 0x223F JUMPI POP POP DUP2 JUMPDEST DUP4 MLOAD DUP2 LT ISZERO PUSH3 0x2188 JUMPI PUSH3 0x20FE PUSH3 0x20F8 DUP3 DUP5 PUSH3 0x3202 JUMP JUMPDEST PUSH3 0x2991 JUMP JUMPDEST POP SWAP1 PUSH1 0x40 MLOAD PUSH3 0x210E DUP2 PUSH3 0x2A20 JUMP JUMPDEST PUSH1 0xFF PUSH1 0x5 PUSH1 0x1 DUP1 PUSH1 0xA0 SHL SUB SWAP5 DUP6 DUP2 SLOAD AND DUP5 MSTORE PUSH1 0x1 SWAP6 DUP7 DUP3 ADD SLOAD AND PUSH1 0x20 DUP6 ADD MSTORE PUSH1 0x2 DUP2 ADD SLOAD PUSH1 0x40 DUP6 ADD MSTORE PUSH3 0x2145 PUSH1 0x3 DUP3 ADD PUSH3 0x2AC0 JUMP JUMPDEST PUSH1 0x60 DUP6 ADD MSTORE PUSH3 0x2158 PUSH1 0x4 DUP3 ADD PUSH3 0x2AC0 JUMP JUMPDEST PUSH1 0x80 DUP6 ADD MSTORE ADD SLOAD AND ISZERO ISZERO PUSH1 0xA0 DUP3 ADD MSTORE PUSH3 0x2173 DUP3 DUP8 PUSH3 0x356D JUMP JUMPDEST MSTORE PUSH3 0x2180 DUP2 DUP7 PUSH3 0x356D JUMP JUMPDEST POP ADD PUSH3 0x20DE JUMP JUMPDEST PUSH1 0x40 DUP1 MLOAD PUSH1 0x20 DUP1 DUP3 MSTORE DUP7 MLOAD DUP2 DUP4 ADD DUP2 SWAP1 MSTORE DUP7 SWAP4 PUSH1 0x5 DUP3 SWAP1 SHL DUP5 ADD DUP2 ADD SWAP3 DUP1 DUP11 ADD SWAP3 SWAP2 DUP6 ADD JUMPDEST DUP3 DUP8 LT PUSH3 0x21BB JUMPI DUP6 DUP6 SUB DUP7 RETURN JUMPDEST SWAP1 SWAP2 SWAP3 SWAP4 DUP3 DUP1 PUSH1 0x1 SWAP3 PUSH1 0x3F NOT DUP10 DUP3 SUB ADD DUP6 MSTORE DUP8 MLOAD SWAP1 DUP5 DUP1 PUSH1 0xA0 SHL SUB DUP1 DUP4 MLOAD AND DUP3 MSTORE DUP4 DUP4 ADD MLOAD AND DUP4 DUP3 ADD MSTORE PUSH1 0x40 DUP3 ADD MLOAD PUSH1 0x40 DUP3 ADD MSTORE PUSH3 0x2222 PUSH3 0x220E PUSH1 0x60 DUP1 DUP6 ADD MLOAD SWAP1 PUSH1 0xC0 DUP1 SWAP2 DUP7 ADD MSTORE DUP5 ADD SWAP1 PUSH3 0x296A JUMP JUMPDEST PUSH1 0x80 DUP1 DUP6 ADD MLOAD SWAP1 DUP5 DUP4 SUB SWAP1 DUP6 ADD MSTORE PUSH3 0x296A JUMP JUMPDEST SWAP2 PUSH1 0xA0 DUP1 SWAP2 ADD MLOAD ISZERO ISZERO SWAP2 ADD MSTORE SWAP7 ADD SWAP3 ADD SWAP7 ADD SWAP6 SWAP3 SWAP2 SWAP1 SWAP3 PUSH3 0x21AD JUMP JUMPDEST PUSH1 0x20 SWAP1 PUSH1 0x40 MLOAD PUSH3 0x2250 DUP2 PUSH3 0x2A20 JUMP JUMPDEST DUP6 DUP2 MSTORE DUP3 DUP7 DUP2 DUP4 ADD MSTORE DUP7 PUSH1 0x40 DUP4 ADD MSTORE PUSH1 0x60 DUP1 DUP1 DUP5 ADD MSTORE PUSH1 0x80 DUP4 ADD MSTORE DUP7 PUSH1 0xA0 DUP4 ADD MSTORE DUP3 DUP9 ADD ADD MSTORE ADD PUSH3 0x20D2 JUMP JUMPDEST SWAP1 POP CODESIZE PUSH3 0x209B JUMP JUMPDEST POP CALLVALUE PUSH3 0x276 JUMPI PUSH1 0x20 SWAP1 DUP2 PUSH1 0x3 NOT CALLDATASIZE ADD SLT PUSH3 0x276 JUMPI PUSH1 0x1 PUSH1 0x1 PUSH1 0xA0 SHL SUB DUP1 PUSH3 0x22AF PUSH3 0x28E5 JUMP JUMPDEST AND SWAP2 DUP3 DUP2 MSTORE PUSH1 0xB DUP5 MSTORE PUSH1 0x40 DUP2 KECCAK256 SLOAD DUP1 ISZERO PUSH3 0x14CB JUMPI PUSH1 0x0 NOT DUP2 ADD SWAP1 DUP2 GT PUSH3 0x242A JUMPI PUSH3 0x22DC SWAP1 PUSH3 0x2991 JUMP JUMPDEST POP SWAP2 PUSH1 0x1 DUP4 ADD SLOAD AND SWAP3 PUSH1 0x2 DUP4 ADD SLOAD SWAP3 PUSH3 0x22F9 PUSH1 0x3 DUP3 ADD PUSH3 0x2AC0 JUMP JUMPDEST PUSH1 0xFF PUSH1 0x5 PUSH3 0x230B PUSH1 0x4 DUP6 ADD PUSH3 0x2AC0 JUMP JUMPDEST SWAP4 ADD SLOAD AND SWAP5 PUSH1 0x40 MLOAD SWAP4 PUSH4 0x18160DDD PUSH1 0xE0 SHL DUP6 MSTORE DUP9 DUP6 PUSH1 0x4 DUP2 DUP5 GAS STATICCALL SWAP5 DUP6 ISZERO PUSH3 0x53E JUMPI SWAP1 DUP10 SWAP2 DUP8 SWAP7 PUSH3 0x23F2 JUMPI JUMPDEST POP PUSH1 0x40 MLOAD PUSH4 0x70A08231 PUSH1 0xE0 SHL DUP2 MSTORE ADDRESS PUSH1 0x4 DUP3 ADD MSTORE SWAP2 SWAP1 DUP3 SWAP1 PUSH1 0x24 SWAP1 DUP3 SWAP1 GAS STATICCALL SWAP6 DUP7 ISZERO PUSH3 0x3E4 JUMPI DUP1 SWAP7 PUSH3 0x23B7 JUMPI JUMPDEST POP POP PUSH3 0x23A1 SWAP3 SWAP2 PUSH3 0x2392 SWAP2 PUSH1 0x40 MLOAD SWAP10 DUP11 SWAP10 DUP11 MSTORE DUP10 ADD MSTORE PUSH1 0xE0 PUSH1 0x40 DUP10 ADD MSTORE PUSH1 0xE0 DUP9 ADD SWAP1 PUSH3 0x296A JUMP JUMPDEST SWAP1 DUP7 DUP3 SUB PUSH1 0x60 DUP9 ADD MSTORE PUSH3 0x296A JUMP JUMPDEST SWAP3 ISZERO ISZERO PUSH1 0x80 DUP6 ADD MSTORE PUSH1 0xA0 DUP5 ADD MSTORE PUSH1 0xC0 DUP4 ADD MSTORE SUB SWAP1 RETURN JUMPDEST SWAP1 SWAP2 SWAP6 POP DUP9 DUP3 DUP2 RETURNDATASIZE DUP4 GT PUSH3 0x23EA JUMPI JUMPDEST PUSH3 0x23D3 DUP2 DUP4 PUSH3 0x2A9E JUMP JUMPDEST DUP2 ADD SUB SLT PUSH3 0x276 JUMPI POP MLOAD SWAP4 DUP2 PUSH3 0x2392 PUSH3 0x2368 JUMP JUMPDEST POP RETURNDATASIZE PUSH3 0x23C7 JUMP JUMPDEST DUP3 DUP2 SWAP4 SWAP3 SWAP8 POP RETURNDATASIZE DUP4 GT PUSH3 0x2422 JUMPI JUMPDEST PUSH3 0x240D DUP2 DUP4 PUSH3 0x2A9E JUMP JUMPDEST DUP2 ADD SUB SLT PUSH3 0x126E JUMPI MLOAD SWAP4 DUP9 SWAP1 PUSH1 0x24 PUSH3 0x2339 JUMP JUMPDEST POP RETURNDATASIZE PUSH3 0x2401 JUMP JUMPDEST PUSH4 0x4E487B71 PUSH1 0xE0 SHL DUP3 MSTORE PUSH1 0x11 PUSH1 0x4 MSTORE PUSH1 0x24 DUP3 REVERT JUMPDEST POP CALLVALUE PUSH3 0x276 JUMPI PUSH1 0x40 CALLDATASIZE PUSH1 0x3 NOT ADD SLT PUSH3 0x276 JUMPI PUSH3 0x245C PUSH3 0x28FC JUMP JUMPDEST CALLER PUSH1 0x1 PUSH1 0x1 PUSH1 0xA0 SHL SUB DUP3 AND SUB PUSH3 0x247B JUMPI PUSH3 0x12BB SWAP1 PUSH1 0x4 CALLDATALOAD PUSH3 0x3163 JUMP JUMPDEST PUSH1 0x40 MLOAD PUSH3 0x461BCD PUSH1 0xE5 SHL DUP2 MSTORE PUSH1 0x20 PUSH1 0x4 DUP3 ADD MSTORE PUSH1 0x2F PUSH1 0x24 DUP3 ADD MSTORE PUSH32 0x416363657373436F6E74726F6C3A2063616E206F6E6C792072656E6F756E6365 PUSH1 0x44 DUP3 ADD MSTORE PUSH15 0x103937B632B9903337B91039B2B633 PUSH1 0x89 SHL PUSH1 0x64 DUP3 ADD MSTORE PUSH1 0x84 SWAP1 REVERT JUMPDEST POP CALLVALUE PUSH3 0x276 JUMPI PUSH1 0x20 CALLDATASIZE PUSH1 0x3 NOT ADD SLT PUSH3 0x276 JUMPI PUSH1 0x20 SWAP1 PUSH1 0x40 SWAP1 PUSH1 0x1 PUSH1 0x1 PUSH1 0xA0 SHL SUB PUSH3 0x2504 PUSH3 0x28E5 JUMP JUMPDEST AND DUP2 MSTORE PUSH1 0xB DUP4 MSTORE KECCAK256 SLOAD PUSH1 0x40 MLOAD SWAP1 DUP2 MSTORE RETURN JUMPDEST POP CALLVALUE PUSH3 0x276 JUMPI PUSH3 0x12BB PUSH3 0x252B CALLDATASIZE PUSH3 0x2913 JUMP JUMPDEST SWAP1 PUSH3 0x2536 PUSH3 0x2CF2 JUMP JUMPDEST PUSH1 0x1 DUP1 PUSH1 0xA0 SHL SUB AND DUP4 MSTORE PUSH1 0x7 PUSH1 0x20 MSTORE PUSH1 0x40 DUP4 KECCAK256 SWAP1 PUSH1 0xFF DUP1 NOT DUP4 SLOAD AND SWAP2 ISZERO ISZERO AND OR SWAP1 SSTORE JUMP JUMPDEST POP CALLVALUE PUSH3 0x276 JUMPI DUP1 PUSH1 0x3 NOT CALLDATASIZE ADD SLT PUSH3 0x276 JUMPI PUSH3 0x2577 PUSH3 0x33F8 JUMP JUMPDEST CALLER DUP2 MSTORE PUSH1 0x5 PUSH1 0x20 MSTORE PUSH1 0x40 DUP2 KECCAK256 SLOAD DUP1 ISZERO PUSH3 0x25E8 JUMPI CALLER DUP3 MSTORE PUSH1 0x5 PUSH1 0x20 MSTORE DUP2 PUSH1 0x40 DUP2 KECCAK256 SSTORE DUP2 DUP1 DUP1 DUP1 DUP5 CALLER DUP3 CALL ISZERO PUSH3 0x25DB JUMPI PUSH1 0x40 MLOAD SWAP1 DUP2 MSTORE PUSH32 0x7F0B212761A7ABE7EC4D2ADEA5A7FA1FEA58234AABF0C01C0E63403FE62013FF PUSH1 0x20 CALLER SWAP3 LOG2 PUSH1 0x1 PUSH1 0x2 SSTORE DUP1 RETURN JUMPDEST POP PUSH1 0x40 MLOAD SWAP1 RETURNDATASIZE SWAP1 DUP3 RETURNDATACOPY RETURNDATASIZE SWAP1 REVERT JUMPDEST PUSH1 0x40 MLOAD PUSH4 0x21C8563B PUSH1 0xE0 SHL DUP2 MSTORE PUSH1 0x4 SWAP1 REVERT JUMPDEST POP CALLVALUE PUSH3 0x276 JUMPI PUSH1 0x40 CALLDATASIZE PUSH1 0x3 NOT ADD SLT PUSH3 0x276 JUMPI PUSH1 0x4 CALLDATALOAD PUSH3 0x261B PUSH3 0x28FC JUMP JUMPDEST DUP2 DUP4 MSTORE DUP3 PUSH1 0x20 MSTORE PUSH3 0x2634 PUSH1 0x1 PUSH1 0x40 DUP6 KECCAK256 ADD SLOAD PUSH3 0x3046 JUMP JUMPDEST DUP2 DUP4 MSTORE PUSH1 0x20 DUP4 DUP2 MSTORE PUSH1 0x40 DUP1 DUP6 KECCAK256 PUSH1 0x1 PUSH1 0x1 PUSH1 0xA0 SHL SUB SWAP1 SWAP4 AND DUP1 DUP7 MSTORE SWAP3 SWAP1 SWAP2 MSTORE DUP4 KECCAK256 SLOAD PUSH1 0xFF AND ISZERO PUSH3 0x2663 JUMPI DUP3 DUP1 RETURN JUMPDEST DUP2 DUP4 MSTORE DUP3 PUSH1 0x20 MSTORE PUSH1 0x40 DUP4 KECCAK256 DUP2 DUP5 MSTORE PUSH1 0x20 MSTORE PUSH1 0x40 DUP4 KECCAK256 PUSH1 0x1 PUSH1 0xFF NOT DUP3 SLOAD AND OR SWAP1 SSTORE CALLER SWAP2 PUSH32 0x2F8788117E7EFF1D82E926EC794901D17C78024A50270940304540A733656F0D DUP5 DUP1 LOG4 CODESIZE DUP1 DUP3 DUP1 RETURN JUMPDEST POP CALLVALUE PUSH3 0x276 JUMPI PUSH1 0x20 CALLDATASIZE PUSH1 0x3 NOT ADD SLT PUSH3 0x276 JUMPI PUSH32 0x27F971FD4ACCB41A60BCEF5477F2A70AA17EFCA3A2C33B138E3AA62A3D891C6D PUSH1 0x20 PUSH1 0x4 CALLDATALOAD PUSH3 0x26F3 PUSH3 0x2CF2 JUMP JUMPDEST DUP1 PUSH1 0x6 SSTORE PUSH1 0x40 MLOAD SWAP1 DUP2 MSTORE LOG1 DUP1 RETURN JUMPDEST POP CALLVALUE PUSH3 0x276 JUMPI PUSH1 0x20 CALLDATASIZE PUSH1 0x3 NOT ADD SLT PUSH3 0x276 JUMPI PUSH1 0x1 PUSH1 0x40 PUSH1 0x20 SWAP3 PUSH1 0x4 CALLDATALOAD DUP2 MSTORE DUP1 DUP5 MSTORE KECCAK256 ADD SLOAD PUSH1 0x40 MLOAD SWAP1 DUP2 MSTORE RETURN JUMPDEST POP CALLVALUE PUSH3 0x276 JUMPI DUP1 PUSH1 0x3 NOT CALLDATASIZE ADD SLT PUSH3 0x276 JUMPI PUSH1 0x20 PUSH1 0x6 SLOAD PUSH1 0x40 MLOAD SWAP1 DUP2 MSTORE RETURN JUMPDEST POP CALLVALUE PUSH3 0x276 JUMPI DUP1 PUSH1 0x3 NOT CALLDATASIZE ADD SLT PUSH3 0x276 JUMPI PUSH1 0x20 PUSH1 0x4 SLOAD PUSH1 0x40 MLOAD SWAP1 DUP2 MSTORE RETURN JUMPDEST POP CALLVALUE PUSH3 0x276 JUMPI PUSH1 0x20 CALLDATASIZE PUSH1 0x3 NOT ADD SLT PUSH3 0x276 JUMPI PUSH3 0x278D PUSH3 0x28E5 JUMP JUMPDEST PUSH3 0x2797 PUSH3 0x2F0F JUMP JUMPDEST PUSH1 0x1 PUSH1 0x1 PUSH1 0xA0 SHL SUB AND DUP1 ISZERO PUSH3 0x27E0 JUMPI PUSH1 0xD DUP1 SLOAD PUSH1 0x1 PUSH1 0x1 PUSH1 0xA0 SHL SUB NOT AND DUP3 OR SWAP1 SSTORE PUSH32 0xC420E02F8F25BC483D2D29B2F718E07C863D3E50C4775CB9E4D3C16984C13A4D DUP3 DUP1 LOG2 DUP1 RETURN JUMPDEST PUSH1 0x40 MLOAD PUSH4 0x4C5678E1 PUSH1 0xE1 SHL DUP2 MSTORE PUSH1 0x4 SWAP1 REVERT JUMPDEST POP PUSH1 0x40 CALLDATASIZE PUSH1 0x3 NOT ADD SLT PUSH3 0x276 JUMPI PUSH3 0x285D PUSH1 0x60 PUSH3 0x2810 PUSH3 0x28E5 JUMP JUMPDEST PUSH3 0x281A PUSH3 0x2CF2 JUMP JUMPDEST PUSH3 0x2824 PUSH3 0x33B3 JUMP JUMPDEST PUSH1 0xD SLOAD PUSH1 0x40 MLOAD PUSH3 0x566887 PUSH1 0xE8 SHL DUP2 MSTORE PUSH1 0x1 PUSH1 0x1 PUSH1 0xA0 SHL SUB SWAP3 DUP4 AND PUSH1 0x4 DUP3 ADD MSTORE PUSH1 0x24 DUP1 CALLDATALOAD SWAP1 DUP3 ADD MSTORE SWAP4 DUP5 SWAP3 SWAP1 SWAP2 AND SWAP1 DUP3 SWAP1 DUP2 SWAP1 PUSH1 0x44 DUP3 ADD SWAP1 JUMP JUMPDEST SUB SWAP2 CALLVALUE SWAP1 GAS CALL DUP1 ISZERO PUSH3 0x6DB JUMPI PUSH3 0x2873 JUMPI POP DUP1 RETURN JUMPDEST PUSH1 0x60 SWAP1 DUP2 RETURNDATASIZE DUP2 GT PUSH3 0x1B7D JUMPI PUSH3 0x1B71 DUP2 DUP4 PUSH3 0x2A9E JUMP JUMPDEST SWAP1 POP CALLVALUE PUSH3 0x402 JUMPI PUSH1 0x20 CALLDATASIZE PUSH1 0x3 NOT ADD SLT PUSH3 0x402 JUMPI PUSH1 0x4 CALLDATALOAD PUSH4 0xFFFFFFFF PUSH1 0xE0 SHL DUP2 AND DUP1 SWAP2 SUB PUSH3 0x553 JUMPI PUSH1 0x20 SWAP3 POP PUSH4 0x7965DB0B PUSH1 0xE0 SHL DUP2 EQ SWAP1 DUP2 ISZERO PUSH3 0x28D3 JUMPI JUMPDEST POP ISZERO ISZERO DUP2 MSTORE RETURN JUMPDEST PUSH4 0x1FFC9A7 PUSH1 0xE0 SHL EQ SWAP1 POP CODESIZE PUSH3 0x28CC JUMP JUMPDEST PUSH1 0x4 CALLDATALOAD SWAP1 PUSH1 0x1 PUSH1 0x1 PUSH1 0xA0 SHL SUB DUP3 AND DUP3 SUB PUSH3 0x1D JUMPI JUMP JUMPDEST PUSH1 0x24 CALLDATALOAD SWAP1 PUSH1 0x1 PUSH1 0x1 PUSH1 0xA0 SHL SUB DUP3 AND DUP3 SUB PUSH3 0x1D JUMPI JUMP JUMPDEST PUSH1 0x40 SWAP1 PUSH1 0x3 NOT ADD SLT PUSH3 0x1D JUMPI PUSH1 0x4 CALLDATALOAD PUSH1 0x1 PUSH1 0x1 PUSH1 0xA0 SHL SUB DUP2 AND DUP2 SUB PUSH3 0x1D JUMPI SWAP1 PUSH1 0x24 CALLDATALOAD DUP1 ISZERO ISZERO DUP2 SUB PUSH3 0x1D JUMPI SWAP1 JUMP JUMPDEST PUSH1 0x0 JUMPDEST DUP4 DUP2 LT PUSH3 0x2959 JUMPI POP POP PUSH1 0x0 SWAP2 ADD MSTORE JUMP JUMPDEST DUP2 DUP2 ADD MLOAD DUP4 DUP3 ADD MSTORE PUSH1 0x20 ADD PUSH3 0x2948 JUMP JUMPDEST SWAP1 PUSH1 0x20 SWAP2 PUSH3 0x2985 DUP2 MLOAD DUP1 SWAP3 DUP2 DUP6 MSTORE DUP6 DUP1 DUP7 ADD SWAP2 ADD PUSH3 0x2945 JUMP JUMPDEST PUSH1 0x1F ADD PUSH1 0x1F NOT AND ADD ADD SWAP1 JUMP JUMPDEST PUSH1 0xA SLOAD DUP2 LT ISZERO PUSH3 0x29CD JUMPI PUSH1 0x6 SWAP1 PUSH1 0xA PUSH1 0x0 MSTORE MUL PUSH32 0xC65A7BB8D6351C1CF70C95A316CC6A92839C986682D98BC35F958F4883F9D2A8 ADD SWAP1 PUSH1 0x0 SWAP1 JUMP JUMPDEST PUSH4 0x4E487B71 PUSH1 0xE0 SHL PUSH1 0x0 MSTORE PUSH1 0x32 PUSH1 0x4 MSTORE PUSH1 0x24 PUSH1 0x0 REVERT JUMPDEST SWAP1 PUSH1 0x1 DUP3 DUP2 SHR SWAP3 AND DUP1 ISZERO PUSH3 0x2A15 JUMPI JUMPDEST PUSH1 0x20 DUP4 LT EQ PUSH3 0x29FF JUMPI JUMP JUMPDEST PUSH4 0x4E487B71 PUSH1 0xE0 SHL PUSH1 0x0 MSTORE PUSH1 0x22 PUSH1 0x4 MSTORE PUSH1 0x24 PUSH1 0x0 REVERT JUMPDEST SWAP2 PUSH1 0x7F AND SWAP2 PUSH3 0x29F3 JUMP JUMPDEST PUSH1 0xC0 DUP2 ADD SWAP1 DUP2 LT PUSH1 0x1 PUSH1 0x1 PUSH1 0x40 SHL SUB DUP3 GT OR PUSH3 0x2A3C JUMPI PUSH1 0x40 MSTORE JUMP JUMPDEST PUSH4 0x4E487B71 PUSH1 0xE0 SHL PUSH1 0x0 MSTORE PUSH1 0x41 PUSH1 0x4 MSTORE PUSH1 0x24 PUSH1 0x0 REVERT JUMPDEST PUSH1 0x1 PUSH1 0x1 PUSH1 0x40 SHL SUB DUP2 GT PUSH3 0x2A3C JUMPI PUSH1 0x40 MSTORE JUMP JUMPDEST PUSH1 0x40 DUP2 ADD SWAP1 DUP2 LT PUSH1 0x1 PUSH1 0x1 PUSH1 0x40 SHL SUB DUP3 GT OR PUSH3 0x2A3C JUMPI PUSH1 0x40 MSTORE JUMP JUMPDEST PUSH1 0x80 DUP2 ADD SWAP1 DUP2 LT PUSH1 0x1 PUSH1 0x1 PUSH1 0x40 SHL SUB DUP3 GT OR PUSH3 0x2A3C JUMPI PUSH1 0x40 MSTORE JUMP JUMPDEST SWAP1 PUSH1 0x1F DUP1 NOT SWAP2 ADD AND DUP2 ADD SWAP1 DUP2 LT PUSH1 0x1 PUSH1 0x1 PUSH1 0x40 SHL SUB DUP3 GT OR PUSH3 0x2A3C JUMPI PUSH1 0x40 MSTORE JUMP JUMPDEST SWAP1 PUSH1 0x40 MLOAD SWAP2 DUP3 PUSH1 0x0 DUP3 SLOAD SWAP3 PUSH3 0x2AD6 DUP5 PUSH3 0x29E3 JUMP JUMPDEST SWAP1 DUP2 DUP5 MSTORE PUSH1 0x1 SWAP5 DUP6 DUP2 AND SWAP1 DUP2 PUSH1 0x0 EQ PUSH3 0x2B4D JUMPI POP PUSH1 0x1 EQ PUSH3 0x2B06 JUMPI JUMPDEST POP POP PUSH3 0x2B04 SWAP3 POP SUB DUP4 PUSH3 0x2A9E JUMP JUMPDEST JUMP JUMPDEST SWAP1 SWAP4 SWAP2 POP PUSH1 0x0 MSTORE PUSH1 0x20 SWAP1 DUP2 PUSH1 0x0 KECCAK256 SWAP4 PUSH1 0x0 SWAP2 JUMPDEST DUP2 DUP4 LT PUSH3 0x2B34 JUMPI POP POP PUSH3 0x2B04 SWAP4 POP DUP3 ADD ADD CODESIZE DUP1 PUSH3 0x2AF4 JUMP JUMPDEST DUP6 SLOAD DUP9 DUP5 ADD DUP6 ADD MSTORE SWAP5 DUP6 ADD SWAP5 DUP8 SWAP5 POP SWAP2 DUP4 ADD SWAP2 PUSH3 0x2B19 JUMP JUMPDEST SWAP2 POP POP PUSH3 0x2B04 SWAP5 POP PUSH1 0x20 SWAP3 POP PUSH1 0xFF NOT AND DUP3 DUP5 ADD MSTORE ISZERO ISZERO PUSH1 0x5 SHL DUP3 ADD ADD CODESIZE DUP1 PUSH3 0x2AF4 JUMP JUMPDEST SWAP1 DUP2 MLOAD DUP1 DUP3 MSTORE PUSH1 0x20 DUP1 DUP1 SWAP4 ADD SWAP4 ADD SWAP2 PUSH1 0x0 JUMPDEST DUP3 DUP2 LT PUSH3 0x2B93 JUMPI POP POP POP POP SWAP1 JUMP JUMPDEST DUP4 MLOAD PUSH1 0x1 PUSH1 0x1 PUSH1 0xA0 SHL SUB AND DUP6 MSTORE SWAP4 DUP2 ADD SWAP4 SWAP3 DUP2 ADD SWAP3 PUSH1 0x1 ADD PUSH3 0x2B84 JUMP JUMPDEST SWAP1 DUP2 MLOAD DUP1 DUP3 MSTORE PUSH1 0x20 DUP1 DUP1 SWAP4 ADD SWAP4 ADD SWAP2 PUSH1 0x0 JUMPDEST DUP3 DUP2 LT PUSH3 0x2BD2 JUMPI POP POP POP POP SWAP1 JUMP JUMPDEST DUP4 MLOAD DUP6 MSTORE SWAP4 DUP2 ADD SWAP4 SWAP3 DUP2 ADD SWAP3 PUSH1 0x1 ADD PUSH3 0x2BC3 JUMP JUMPDEST SWAP1 DUP1 DUP3 MLOAD SWAP1 DUP2 DUP2 MSTORE PUSH1 0x20 DUP1 SWAP2 ADD SWAP3 DUP2 DUP1 DUP5 PUSH1 0x5 SHL DUP4 ADD ADD SWAP6 ADD SWAP4 PUSH1 0x0 SWAP2 JUMPDEST DUP5 DUP4 LT PUSH3 0x2C16 JUMPI POP POP POP POP POP POP SWAP1 JUMP JUMPDEST SWAP1 SWAP2 SWAP3 SWAP4 SWAP5 SWAP6 DUP5 DUP1 PUSH3 0x2C36 PUSH1 0x1 SWAP4 PUSH1 0x1F NOT DUP7 DUP3 SUB ADD DUP8 MSTORE DUP11 MLOAD PUSH3 0x296A JUMP JUMPDEST SWAP9 ADD SWAP4 ADD SWAP4 ADD SWAP2 SWAP5 SWAP4 SWAP3 SWAP1 PUSH3 0x2C05 JUMP JUMPDEST SWAP2 DUP2 PUSH1 0x1F DUP5 ADD SLT ISZERO PUSH3 0x1D JUMPI DUP3 CALLDATALOAD SWAP2 PUSH1 0x1 PUSH1 0x1 PUSH1 0x40 SHL SUB DUP4 GT PUSH3 0x1D JUMPI PUSH1 0x20 DUP1 DUP6 ADD SWAP5 DUP5 PUSH1 0x5 SHL ADD ADD GT PUSH3 0x1D JUMPI JUMP JUMPDEST SWAP1 PUSH1 0x40 PUSH1 0x3 NOT DUP4 ADD SLT PUSH3 0x1D JUMPI PUSH1 0x4 CALLDATALOAD PUSH1 0x1 PUSH1 0x1 PUSH1 0xA0 SHL SUB DUP2 AND DUP2 SUB PUSH3 0x1D JUMPI SWAP2 PUSH1 0x24 CALLDATALOAD SWAP1 PUSH1 0x1 PUSH1 0x1 PUSH1 0x40 SHL SUB DUP3 GT PUSH3 0x1D JUMPI PUSH3 0x2CBE SWAP2 PUSH1 0x4 ADD PUSH3 0x2C47 JUMP JUMPDEST SWAP1 SWAP2 JUMP JUMPDEST SWAP2 DUP2 PUSH1 0x1F DUP5 ADD SLT ISZERO PUSH3 0x1D JUMPI DUP3 CALLDATALOAD SWAP2 PUSH1 0x1 PUSH1 0x1 PUSH1 0x40 SHL SUB DUP4 GT PUSH3 0x1D JUMPI PUSH1 0x20 DUP4 DUP2 DUP7 ADD SWAP6 ADD ADD GT PUSH3 0x1D JUMPI JUMP JUMPDEST CALLER PUSH1 0x0 SWAP1 DUP2 MSTORE PUSH32 0xEE57CD81E84075558E8FCC182A1F4393F91FC97F963A136E66B7F949A62F319F PUSH1 0x20 SWAP1 DUP2 MSTORE PUSH1 0x40 DUP1 DUP4 KECCAK256 SLOAD SWAP1 SWAP3 PUSH32 0x97667070C54EF182B0F5858B034BEAC1B6F3089AA2D3188BB1E8929F4FA9B929 SWAP2 PUSH1 0xFF AND ISZERO PUSH3 0x2D57 JUMPI POP POP POP POP JUMP JUMPDEST PUSH3 0x2D62 CALLER PUSH3 0x323E JUMP JUMPDEST SWAP2 DUP5 MLOAD SWAP1 PUSH3 0x2D71 DUP3 PUSH3 0x2A82 JUMP JUMPDEST PUSH1 0x42 DUP3 MSTORE DUP5 DUP3 ADD SWAP3 PUSH1 0x60 CALLDATASIZE DUP6 CALLDATACOPY DUP3 MLOAD ISZERO PUSH3 0x2EFB JUMPI PUSH1 0x30 DUP5 MSTORE8 DUP3 MLOAD SWAP1 PUSH1 0x1 SWAP2 DUP3 LT ISZERO PUSH3 0x2EFB JUMPI SWAP1 PUSH1 0x78 PUSH1 0x21 DUP6 ADD MSTORE8 PUSH1 0x41 SWAP2 JUMPDEST DUP2 DUP4 GT PUSH3 0x2E9C JUMPI POP POP POP PUSH3 0x2E5A JUMPI PUSH1 0x48 PUSH3 0x2E56 SWAP4 DUP7 SWAP4 PUSH3 0x2E39 SWAP4 PUSH3 0x2E29 SWAP9 MLOAD SWAP9 DUP10 SWAP4 PUSH23 0x20B1B1B2B9B9A1B7B73A3937B61D1030B1B1B7BAB73A1 PUSH1 0x4D SHL DUP11 DUP7 ADD MSTORE PUSH3 0x2DFF DUP2 MLOAD DUP1 SWAP3 DUP13 PUSH1 0x37 DUP10 ADD SWAP2 ADD PUSH3 0x2945 JUMP JUMPDEST DUP5 ADD SWAP2 PUSH17 0x1034B99036B4B9B9B4B733903937B6329 PUSH1 0x7D SHL PUSH1 0x37 DUP5 ADD MSTORE MLOAD DUP1 SWAP4 DUP7 DUP5 ADD SWAP1 PUSH3 0x2945 JUMP JUMPDEST ADD SUB PUSH1 0x28 DUP2 ADD DUP8 MSTORE ADD DUP6 PUSH3 0x2A9E JUMP JUMPDEST MLOAD SWAP3 DUP4 SWAP3 PUSH3 0x461BCD PUSH1 0xE5 SHL DUP5 MSTORE PUSH1 0x4 DUP5 ADD MSTORE PUSH1 0x24 DUP4 ADD SWAP1 PUSH3 0x296A JUMP JUMPDEST SUB SWAP1 REVERT JUMPDEST PUSH1 0x64 DUP5 DUP7 MLOAD SWAP1 PUSH3 0x461BCD PUSH1 0xE5 SHL DUP3 MSTORE DUP1 PUSH1 0x4 DUP4 ADD MSTORE PUSH1 0x24 DUP3 ADD MSTORE PUSH32 0x537472696E67733A20686578206C656E67746820696E73756666696369656E74 PUSH1 0x44 DUP3 ADD MSTORE REVERT JUMPDEST SWAP1 SWAP2 SWAP3 PUSH1 0xF DUP2 AND PUSH1 0x10 DUP2 LT ISZERO PUSH3 0x2EE7 JUMPI PUSH16 0x181899199A1A9B1B9C1CB0B131B232B3 PUSH1 0x81 SHL SWAP1 BYTE PUSH3 0x2ECF DUP6 DUP8 PUSH3 0x322C JUMP JUMPDEST MSTORE8 PUSH1 0x4 SHR SWAP3 DUP1 ISZERO PUSH3 0x242A JUMPI PUSH1 0x0 NOT ADD SWAP2 SWAP1 PUSH3 0x2DA4 JUMP JUMPDEST PUSH4 0x4E487B71 PUSH1 0xE0 SHL DUP4 MSTORE PUSH1 0x32 PUSH1 0x4 MSTORE PUSH1 0x24 DUP4 REVERT JUMPDEST PUSH4 0x4E487B71 PUSH1 0xE0 SHL DUP2 MSTORE PUSH1 0x32 PUSH1 0x4 MSTORE PUSH1 0x24 SWAP1 REVERT JUMPDEST CALLER PUSH1 0x0 SWAP1 DUP2 MSTORE PUSH32 0xAD3228B676F7D3CD4284A5443F17F1962B36E491B30A40B2405849E597BA5FB5 PUSH1 0x20 SWAP1 DUP2 MSTORE PUSH1 0x40 DUP1 DUP4 KECCAK256 SLOAD SWAP1 SWAP3 SWAP1 PUSH1 0xFF AND ISZERO PUSH3 0x2F52 JUMPI POP POP POP JUMP JUMPDEST PUSH3 0x2F5D CALLER PUSH3 0x323E JUMP JUMPDEST SWAP1 DUP1 DUP5 MLOAD SWAP1 PUSH3 0x2F6D DUP3 PUSH3 0x2A82 JUMP JUMPDEST PUSH1 0x42 DUP3 MSTORE DUP5 DUP3 ADD SWAP3 PUSH1 0x60 CALLDATASIZE DUP6 CALLDATACOPY DUP3 MLOAD ISZERO PUSH3 0x2EFB JUMPI PUSH1 0x30 DUP5 MSTORE8 DUP3 MLOAD SWAP1 PUSH1 0x1 SWAP2 DUP3 LT ISZERO PUSH3 0x2EFB JUMPI SWAP1 PUSH1 0x78 PUSH1 0x21 DUP6 ADD MSTORE8 PUSH1 0x41 SWAP2 JUMPDEST DUP2 DUP4 GT PUSH3 0x2FFB JUMPI POP POP POP PUSH3 0x2E5A JUMPI PUSH1 0x48 PUSH3 0x2E56 SWAP4 DUP7 SWAP4 PUSH3 0x2E39 SWAP4 PUSH3 0x2E29 SWAP9 MLOAD SWAP9 DUP10 SWAP4 PUSH23 0x20B1B1B2B9B9A1B7B73A3937B61D1030B1B1B7BAB73A1 PUSH1 0x4D SHL DUP11 DUP7 ADD MSTORE PUSH3 0x2DFF DUP2 MLOAD DUP1 SWAP3 DUP13 PUSH1 0x37 DUP10 ADD SWAP2 ADD PUSH3 0x2945 JUMP JUMPDEST SWAP1 SWAP2 SWAP3 PUSH1 0xF DUP2 AND PUSH1 0x10 DUP2 LT ISZERO PUSH3 0x2EE7 JUMPI PUSH16 0x181899199A1A9B1B9C1CB0B131B232B3 PUSH1 0x81 SHL SWAP1 BYTE PUSH3 0x302E DUP6 DUP8 PUSH3 0x322C JUMP JUMPDEST MSTORE8 PUSH1 0x4 SHR SWAP3 DUP1 ISZERO PUSH3 0x242A JUMPI PUSH1 0x0 NOT ADD SWAP2 SWAP1 PUSH3 0x2FA0 JUMP JUMPDEST PUSH1 0x0 SWAP1 DUP1 DUP3 MSTORE PUSH1 0x20 SWAP1 DUP3 DUP3 MSTORE PUSH1 0x40 SWAP3 DUP4 DUP2 KECCAK256 CALLER DUP3 MSTORE DUP4 MSTORE PUSH1 0xFF DUP5 DUP3 KECCAK256 SLOAD AND ISZERO PUSH3 0x3070 JUMPI POP POP POP POP JUMP JUMPDEST PUSH3 0x307B CALLER PUSH3 0x323E JUMP JUMPDEST SWAP2 DUP5 MLOAD SWAP1 PUSH3 0x308A DUP3 PUSH3 0x2A82 JUMP JUMPDEST PUSH1 0x42 DUP3 MSTORE DUP5 DUP3 ADD SWAP3 PUSH1 0x60 CALLDATASIZE DUP6 CALLDATACOPY DUP3 MLOAD ISZERO PUSH3 0x2EFB JUMPI PUSH1 0x30 DUP5 MSTORE8 DUP3 MLOAD SWAP1 PUSH1 0x1 SWAP2 DUP3 LT ISZERO PUSH3 0x2EFB JUMPI SWAP1 PUSH1 0x78 PUSH1 0x21 DUP6 ADD MSTORE8 PUSH1 0x41 SWAP2 JUMPDEST DUP2 DUP4 GT PUSH3 0x3118 JUMPI POP POP POP PUSH3 0x2E5A JUMPI PUSH1 0x48 PUSH3 0x2E56 SWAP4 DUP7 SWAP4 PUSH3 0x2E39 SWAP4 PUSH3 0x2E29 SWAP9 MLOAD SWAP9 DUP10 SWAP4 PUSH23 0x20B1B1B2B9B9A1B7B73A3937B61D1030B1B1B7BAB73A1 PUSH1 0x4D SHL DUP11 DUP7 ADD MSTORE PUSH3 0x2DFF DUP2 MLOAD DUP1 SWAP3 DUP13 PUSH1 0x37 DUP10 ADD SWAP2 ADD PUSH3 0x2945 JUMP JUMPDEST SWAP1 SWAP2 SWAP3 PUSH1 0xF DUP2 AND PUSH1 0x10 DUP2 LT ISZERO PUSH3 0x2EE7 JUMPI PUSH16 0x181899199A1A9B1B9C1CB0B131B232B3 PUSH1 0x81 SHL SWAP1 BYTE PUSH3 0x314B DUP6 DUP8 PUSH3 0x322C JUMP JUMPDEST MSTORE8 PUSH1 0x4 SHR SWAP3 DUP1 ISZERO PUSH3 0x242A JUMPI PUSH1 0x0 NOT ADD SWAP2 SWAP1 PUSH3 0x30BD JUMP JUMPDEST SWAP1 PUSH1 0x0 SWAP2 DUP1 DUP4 MSTORE DUP3 PUSH1 0x20 MSTORE PUSH1 0x40 DUP4 KECCAK256 SWAP2 PUSH1 0x1 DUP1 PUSH1 0xA0 SHL SUB AND SWAP2 DUP3 DUP5 MSTORE PUSH1 0x20 MSTORE PUSH1 0xFF PUSH1 0x40 DUP5 KECCAK256 SLOAD AND PUSH3 0x3194 JUMPI POP POP POP JUMP JUMPDEST DUP1 DUP4 MSTORE DUP3 PUSH1 0x20 MSTORE PUSH1 0x40 DUP4 KECCAK256 DUP3 DUP5 MSTORE PUSH1 0x20 MSTORE PUSH1 0x40 DUP4 KECCAK256 PUSH1 0xFF NOT DUP2 SLOAD AND SWAP1 SSTORE PUSH32 0xF6391F5C32D9C69D2A47EA670B442974B53935D1EDC7FD64EB21E047A839171B CALLER SWAP4 DUP1 LOG4 JUMP JUMPDEST DUP2 DUP2 MUL SWAP3 SWAP2 DUP2 ISZERO SWAP2 DUP5 DIV EQ OR ISZERO PUSH3 0x31EC JUMPI JUMP JUMPDEST PUSH4 0x4E487B71 PUSH1 0xE0 SHL PUSH1 0x0 MSTORE PUSH1 0x11 PUSH1 0x4 MSTORE PUSH1 0x24 PUSH1 0x0 REVERT JUMPDEST SWAP2 SWAP1 DUP3 ADD DUP1 SWAP3 GT PUSH3 0x31EC JUMPI JUMP JUMPDEST PUSH1 0x1 PUSH1 0x1 PUSH1 0x40 SHL SUB DUP2 GT PUSH3 0x2A3C JUMPI PUSH1 0x1F ADD PUSH1 0x1F NOT AND PUSH1 0x20 ADD SWAP1 JUMP JUMPDEST SWAP1 DUP2 MLOAD DUP2 LT ISZERO PUSH3 0x29CD JUMPI ADD PUSH1 0x20 ADD SWAP1 JUMP JUMPDEST PUSH1 0x40 MLOAD SWAP1 PUSH1 0x60 DUP3 ADD DUP3 DUP2 LT PUSH1 0x1 PUSH1 0x1 PUSH1 0x40 SHL SUB DUP3 GT OR PUSH3 0x2A3C JUMPI PUSH1 0x40 MSTORE PUSH1 0x2A DUP3 MSTORE PUSH1 0x20 DUP3 ADD PUSH1 0x40 CALLDATASIZE DUP3 CALLDATACOPY DUP3 MLOAD ISZERO PUSH3 0x29CD JUMPI PUSH1 0x30 SWAP1 MSTORE8 DUP2 MLOAD PUSH1 0x1 SWAP1 DUP2 LT ISZERO PUSH3 0x29CD JUMPI PUSH1 0x78 PUSH1 0x21 DUP5 ADD MSTORE8 PUSH1 0x29 SWAP1 JUMPDEST DUP1 DUP3 GT PUSH3 0x32E3 JUMPI POP POP PUSH3 0x329F JUMPI SWAP1 JUMP JUMPDEST PUSH1 0x64 PUSH1 0x40 MLOAD PUSH3 0x461BCD PUSH1 0xE5 SHL DUP2 MSTORE PUSH1 0x20 PUSH1 0x4 DUP3 ADD MSTORE PUSH1 0x20 PUSH1 0x24 DUP3 ADD MSTORE PUSH32 0x537472696E67733A20686578206C656E67746820696E73756666696369656E74 PUSH1 0x44 DUP3 ADD MSTORE REVERT JUMPDEST SWAP1 SWAP2 PUSH1 0xF DUP2 AND PUSH1 0x10 DUP2 LT ISZERO PUSH3 0x3341 JUMPI PUSH16 0x181899199A1A9B1B9C1CB0B131B232B3 PUSH1 0x81 SHL SWAP1 BYTE PUSH3 0x3315 DUP5 DUP7 PUSH3 0x322C JUMP JUMPDEST MSTORE8 PUSH1 0x4 SHR SWAP2 DUP1 ISZERO PUSH3 0x332C JUMPI PUSH1 0x0 NOT ADD SWAP1 PUSH3 0x328D JUMP JUMPDEST PUSH1 0x24 PUSH1 0x0 PUSH4 0x4E487B71 PUSH1 0xE0 SHL DUP2 MSTORE PUSH1 0x11 PUSH1 0x4 MSTORE REVERT JUMPDEST PUSH1 0x24 PUSH1 0x0 PUSH4 0x4E487B71 PUSH1 0xE0 SHL DUP2 MSTORE PUSH1 0x32 PUSH1 0x4 MSTORE REVERT JUMPDEST SWAP1 DUP1 PUSH1 0x20 SWAP4 SWAP3 DUP2 DUP5 MSTORE DUP5 DUP5 ADD CALLDATACOPY PUSH1 0x0 DUP3 DUP3 ADD DUP5 ADD MSTORE PUSH1 0x1F ADD PUSH1 0x1F NOT AND ADD ADD SWAP1 JUMP JUMPDEST SWAP3 SWAP2 SWAP3 PUSH3 0x3385 DUP3 PUSH3 0x3210 JUMP JUMPDEST SWAP2 PUSH3 0x3395 PUSH1 0x40 MLOAD SWAP4 DUP5 PUSH3 0x2A9E JUMP JUMPDEST DUP3 SWAP5 DUP2 DUP5 MSTORE DUP2 DUP4 ADD GT PUSH3 0x1D JUMPI DUP3 DUP2 PUSH1 0x20 SWAP4 DUP5 PUSH1 0x0 SWAP7 ADD CALLDATACOPY ADD ADD MSTORE JUMP JUMPDEST PUSH1 0xFF PUSH1 0x1 SLOAD AND PUSH3 0x33C0 JUMPI JUMP JUMPDEST PUSH1 0x40 MLOAD PUSH3 0x461BCD PUSH1 0xE5 SHL DUP2 MSTORE PUSH1 0x20 PUSH1 0x4 DUP3 ADD MSTORE PUSH1 0x10 PUSH1 0x24 DUP3 ADD MSTORE PUSH16 0x14185D5CD8589B194E881C185D5CD959 PUSH1 0x82 SHL PUSH1 0x44 DUP3 ADD MSTORE PUSH1 0x64 SWAP1 REVERT JUMPDEST PUSH1 0x2 DUP1 SLOAD EQ PUSH3 0x3408 JUMPI PUSH1 0x2 DUP1 SSTORE JUMP JUMPDEST PUSH1 0x40 MLOAD PUSH3 0x461BCD PUSH1 0xE5 SHL DUP2 MSTORE PUSH1 0x20 PUSH1 0x4 DUP3 ADD MSTORE PUSH1 0x1F PUSH1 0x24 DUP3 ADD MSTORE PUSH32 0x5265656E7472616E637947756172643A207265656E7472616E742063616C6C00 PUSH1 0x44 DUP3 ADD MSTORE PUSH1 0x64 SWAP1 REVERT JUMPDEST SWAP2 SWAP1 DUP3 SUB SWAP2 DUP3 GT PUSH3 0x31EC JUMPI JUMP JUMPDEST RETURNDATASIZE ISZERO PUSH3 0x348B JUMPI RETURNDATASIZE SWAP1 PUSH3 0x346F DUP3 PUSH3 0x3210 JUMP JUMPDEST SWAP2 PUSH3 0x347F PUSH1 0x40 MLOAD SWAP4 DUP5 PUSH3 0x2A9E JUMP JUMPDEST DUP3 MSTORE RETURNDATASIZE PUSH1 0x0 PUSH1 0x20 DUP5 ADD RETURNDATACOPY JUMP JUMPDEST PUSH1 0x60 SWAP1 JUMP JUMPDEST SWAP2 SWAP3 SWAP1 ISZERO PUSH3 0x34F5 JUMPI POP DUP2 MLOAD ISZERO PUSH3 0x34A6 JUMPI POP SWAP1 JUMP JUMPDEST EXTCODESIZE ISZERO PUSH3 0x34B0 JUMPI SWAP1 JUMP JUMPDEST PUSH1 0x40 MLOAD PUSH3 0x461BCD PUSH1 0xE5 SHL DUP2 MSTORE PUSH1 0x20 PUSH1 0x4 DUP3 ADD MSTORE PUSH1 0x1D PUSH1 0x24 DUP3 ADD MSTORE PUSH32 0x416464726573733A2063616C6C20746F206E6F6E2D636F6E7472616374000000 PUSH1 0x44 DUP3 ADD MSTORE PUSH1 0x64 SWAP1 REVERT JUMPDEST DUP3 MLOAD SWAP1 SWAP2 POP ISZERO PUSH3 0x3509 JUMPI POP DUP1 MLOAD SWAP1 PUSH1 0x20 ADD REVERT JUMPDEST PUSH1 0x40 MLOAD PUSH3 0x461BCD PUSH1 0xE5 SHL DUP2 MSTORE PUSH1 0x20 PUSH1 0x4 DUP3 ADD MSTORE SWAP1 DUP2 SWAP1 PUSH3 0x2E56 SWAP1 PUSH1 0x24 DUP4 ADD SWAP1 PUSH3 0x296A JUMP JUMPDEST SWAP2 SWAP1 DUP2 LT ISZERO PUSH3 0x29CD JUMPI PUSH1 0x5 SHL ADD SWAP1 JUMP JUMPDEST CALLDATALOAD PUSH1 0x1 PUSH1 0x1 PUSH1 0xA0 SHL SUB DUP2 AND DUP2 SUB PUSH3 0x1D JUMPI SWAP1 JUMP JUMPDEST PUSH1 0x1 PUSH1 0x1 PUSH1 0x40 SHL SUB DUP2 GT PUSH3 0x2A3C JUMPI PUSH1 0x5 SHL PUSH1 0x20 ADD SWAP1 JUMP JUMPDEST DUP1 MLOAD DUP3 LT ISZERO PUSH3 0x29CD JUMPI PUSH1 0x20 SWAP2 PUSH1 0x5 SHL ADD ADD SWAP1 JUMP JUMPDEST SWAP1 PUSH3 0x358E DUP3 PUSH3 0x3555 JUMP JUMPDEST PUSH3 0x359D PUSH1 0x40 MLOAD SWAP2 DUP3 PUSH3 0x2A9E JUMP JUMPDEST DUP3 DUP2 MSTORE DUP1 SWAP3 PUSH3 0x35B0 PUSH1 0x1F NOT SWAP2 PUSH3 0x3555 JUMP JUMPDEST ADD SWAP1 PUSH1 0x20 CALLDATASIZE SWAP2 ADD CALLDATACOPY JUMP JUMPDEST SWAP1 PUSH3 0x35C6 DUP3 PUSH3 0x3555 JUMP JUMPDEST PUSH3 0x35D5 PUSH1 0x40 MLOAD SWAP2 DUP3 PUSH3 0x2A9E JUMP JUMPDEST DUP3 DUP2 MSTORE DUP1 SWAP3 PUSH3 0x35E8 PUSH1 0x1F NOT SWAP2 PUSH3 0x3555 JUMP JUMPDEST ADD SWAP1 PUSH1 0x0 JUMPDEST DUP3 DUP2 LT PUSH3 0x35FA JUMPI POP POP POP JUMP JUMPDEST DUP1 PUSH1 0x60 PUSH1 0x20 DUP1 SWAP4 DUP6 ADD ADD MSTORE ADD PUSH3 0x35ED JUMP INVALID PUSH2 0x160 DUP1 PUSH1 0x40 MSTORE CALLVALUE PUSH3 0x7CD JUMPI PUSH3 0x201C DUP1 CODESIZE SUB DUP1 SWAP2 PUSH3 0x21 DUP3 DUP6 PUSH3 0x7D2 JUMP JUMPDEST DUP4 CODECOPY DUP2 ADD PUSH1 0xA0 DUP3 DUP3 SUB SLT PUSH3 0x7CD JUMPI DUP2 MLOAD PUSH1 0x1 PUSH1 0x1 PUSH1 0x40 SHL SUB DUP2 GT PUSH3 0x7CD JUMPI DUP2 PUSH3 0x4F SWAP2 DUP5 ADD PUSH3 0x81B JUMP JUMPDEST PUSH1 0x20 DUP4 ADD MLOAD SWAP1 SWAP3 SWAP1 PUSH1 0x1 PUSH1 0x1 PUSH1 0x40 SHL SUB DUP2 GT PUSH3 0x7CD JUMPI DUP3 PUSH3 0x74 SWAP2 DUP4 ADD PUSH3 0x81B JUMP JUMPDEST PUSH1 0x40 DUP3 ADD MLOAD PUSH1 0x60 DUP4 ADD MLOAD SWAP4 SWAP1 SWAP3 SWAP1 PUSH1 0x1 PUSH1 0x1 PUSH1 0xA0 SHL SUB DUP6 AND DUP6 SUB PUSH3 0x7CD JUMPI PUSH1 0x80 DUP3 ADD MLOAD PUSH1 0x1 PUSH1 0x1 PUSH1 0x40 SHL SUB DUP2 GT PUSH3 0x7CD JUMPI PUSH3 0xB3 SWAP3 ADD PUSH3 0x81B JUMP JUMPDEST PUSH1 0x40 DUP1 MLOAD SWAP2 SWAP6 SWAP2 SWAP1 DUP2 ADD PUSH1 0x1 PUSH1 0x1 PUSH1 0x40 SHL SUB DUP2 GT DUP3 DUP3 LT OR PUSH3 0x560 JUMPI PUSH1 0x40 MSTORE PUSH1 0x1 DUP2 MSTORE PUSH1 0x31 PUSH1 0xF8 SHL PUSH1 0x20 DUP3 ADD MSTORE DUP2 MLOAD PUSH1 0x1 PUSH1 0x1 PUSH1 0x40 SHL SUB DUP2 GT PUSH3 0x560 JUMPI PUSH1 0x3 SLOAD PUSH1 0x1 DUP2 DUP2 SHR SWAP2 AND DUP1 ISZERO PUSH3 0x7C2 JUMPI JUMPDEST PUSH1 0x20 DUP3 LT EQ PUSH3 0x53F JUMPI PUSH1 0x1F DUP2 GT PUSH3 0x75C JUMPI JUMPDEST POP DUP1 PUSH1 0x20 PUSH1 0x1F DUP3 GT PUSH1 0x1 EQ PUSH3 0x6D2 JUMPI PUSH1 0x0 SWAP2 PUSH3 0x6C6 JUMPI JUMPDEST POP DUP2 PUSH1 0x1 SHL SWAP2 PUSH1 0x0 NOT SWAP1 PUSH1 0x3 SHL SHR NOT AND OR PUSH1 0x3 SSTORE JUMPDEST DUP3 MLOAD PUSH1 0x1 PUSH1 0x1 PUSH1 0x40 SHL SUB DUP2 GT PUSH3 0x560 JUMPI PUSH1 0x4 SLOAD PUSH1 0x1 DUP2 DUP2 SHR SWAP2 AND DUP1 ISZERO PUSH3 0x6BB JUMPI JUMPDEST PUSH1 0x20 DUP3 LT EQ PUSH3 0x53F JUMPI PUSH1 0x1F DUP2 GT PUSH3 0x651 JUMPI JUMPDEST POP DUP1 PUSH1 0x20 PUSH1 0x1F DUP3 GT PUSH1 0x1 EQ PUSH3 0x5C7 JUMPI PUSH1 0x0 SWAP2 PUSH3 0x5BB JUMPI JUMPDEST POP DUP2 PUSH1 0x1 SHL SWAP2 PUSH1 0x0 NOT SWAP1 PUSH1 0x3 SHL SHR NOT AND OR PUSH1 0x4 SSTORE JUMPDEST PUSH3 0x1B6 DUP3 PUSH3 0x8BF JUMP JUMPDEST PUSH2 0x120 MSTORE PUSH3 0x1C5 DUP2 PUSH3 0xA64 JUMP JUMPDEST PUSH2 0x140 MSTORE DUP2 MLOAD PUSH1 0x20 DUP4 ADD KECCAK256 SWAP1 DUP2 PUSH1 0xE0 MSTORE PUSH1 0x20 DUP2 MLOAD SWAP2 ADD KECCAK256 DUP1 PUSH2 0x100 MSTORE CHAINID PUSH1 0xA0 MSTORE PUSH1 0x40 MLOAD SWAP2 PUSH32 0x8B73C3C69BB8FE3D512ECC4CF759CC79239F7B179B0FFACAA9A75D522B39400F PUSH1 0x20 DUP5 ADD MSTORE PUSH1 0x40 DUP4 ADD MSTORE PUSH1 0x60 DUP3 ADD MSTORE CHAINID PUSH1 0x80 DUP3 ADD MSTORE ADDRESS PUSH1 0xA0 DUP3 ADD MSTORE PUSH1 0xA0 DUP2 MSTORE DUP1 PUSH1 0xC0 DUP2 ADD LT PUSH1 0x1 DUP1 PUSH1 0x40 SHL SUB PUSH1 0xC0 DUP4 ADD GT OR PUSH3 0x560 JUMPI PUSH1 0xC0 DUP2 ADD PUSH1 0x40 MSTORE DUP1 MLOAD PUSH1 0x20 DUP3 ADD KECCAK256 PUSH1 0x80 MSTORE ADDRESS PUSH1 0xC0 MSTORE PUSH3 0x261 CALLER PUSH3 0x876 JUMP JUMPDEST PUSH1 0x1 PUSH1 0x1 PUSH1 0xA0 SHL SUB DUP6 AND ISZERO PUSH3 0x5A7 JUMPI POP PUSH1 0x3 SWAP1 MLOAD LT SWAP1 DUP2 ISZERO PUSH3 0x59A JUMPI JUMPDEST POP PUSH3 0x588 JUMPI DUP1 ISZERO PUSH3 0x576 JUMPI DUP3 MLOAD PUSH1 0x1 PUSH1 0x1 PUSH1 0x40 SHL SUB DUP2 GT PUSH3 0x560 JUMPI PUSH1 0xA SLOAD PUSH1 0x1 DUP2 DUP2 SHR SWAP2 AND DUP1 ISZERO PUSH3 0x555 JUMPI JUMPDEST PUSH1 0x20 DUP3 LT EQ PUSH3 0x53F JUMPI PUSH1 0x1F DUP2 GT PUSH3 0x4E6 JUMPI JUMPDEST POP PUSH1 0x20 PUSH1 0x1F DUP3 GT PUSH1 0x1 EQ PUSH3 0x46D JUMPI DUP2 SWAP3 SWAP4 SWAP5 PUSH1 0x0 SWAP3 PUSH3 0x461 JUMPI JUMPDEST POP POP DUP2 PUSH1 0x1 SHL SWAP2 PUSH1 0x0 NOT SWAP1 PUSH1 0x3 SHL SHR NOT AND OR PUSH1 0xA SSTORE JUMPDEST CALLER ISZERO PUSH3 0x41C JUMPI PUSH1 0x2 SLOAD DUP2 DUP2 ADD DUP1 SWAP2 GT PUSH3 0x406 JUMPI PUSH1 0x2 SSTORE CALLER PUSH1 0x0 MSTORE PUSH1 0x0 PUSH1 0x20 MSTORE PUSH1 0x40 PUSH1 0x0 KECCAK256 DUP2 DUP2 SLOAD ADD SWAP1 SSTORE PUSH1 0x40 MLOAD SWAP1 DUP2 MSTORE PUSH1 0x0 PUSH32 0xDDF252AD1BE2C89B69C2B068FC378DAA952BA7F163C4A11628F55A4DF523B3EF PUSH1 0x20 CALLER SWAP4 LOG3 PUSH1 0x9 SLOAD CALLER PUSH1 0x1 PUSH1 0x1 PUSH1 0xA0 SHL SUB SWAP1 SWAP2 AND SUB PUSH3 0x3C2 JUMPI PUSH3 0x370 SWAP1 PUSH3 0x876 JUMP JUMPDEST PUSH1 0x40 MLOAD PUSH2 0x1440 SWAP1 DUP2 PUSH3 0xBBC DUP3 CODECOPY PUSH1 0x80 MLOAD DUP2 PUSH2 0x118B ADD MSTORE PUSH1 0xA0 MLOAD DUP2 PUSH2 0x1257 ADD MSTORE PUSH1 0xC0 MLOAD DUP2 PUSH2 0x1155 ADD MSTORE PUSH1 0xE0 MLOAD DUP2 PUSH2 0x11DA ADD MSTORE PUSH2 0x100 MLOAD DUP2 PUSH2 0x1200 ADD MSTORE PUSH2 0x120 MLOAD DUP2 PUSH2 0x6A8 ADD MSTORE PUSH2 0x140 MLOAD DUP2 PUSH2 0x6D2 ADD MSTORE RETURN JUMPDEST PUSH1 0x64 PUSH1 0x40 MLOAD PUSH3 0x461BCD PUSH1 0xE5 SHL DUP2 MSTORE PUSH1 0x20 PUSH1 0x4 DUP3 ADD MSTORE PUSH1 0x20 PUSH1 0x24 DUP3 ADD MSTORE PUSH32 0x4F776E61626C653A2063616C6C6572206973206E6F7420746865206F776E6572 PUSH1 0x44 DUP3 ADD MSTORE REVERT JUMPDEST PUSH4 0x4E487B71 PUSH1 0xE0 SHL PUSH1 0x0 MSTORE PUSH1 0x11 PUSH1 0x4 MSTORE PUSH1 0x24 PUSH1 0x0 REVERT JUMPDEST PUSH1 0x40 MLOAD PUSH3 0x461BCD PUSH1 0xE5 SHL DUP2 MSTORE PUSH1 0x20 PUSH1 0x4 DUP3 ADD MSTORE PUSH1 0x1F PUSH1 0x24 DUP3 ADD MSTORE PUSH32 0x45524332303A206D696E7420746F20746865207A65726F206164647265737300 PUSH1 0x44 DUP3 ADD MSTORE PUSH1 0x64 SWAP1 REVERT JUMPDEST ADD MLOAD SWAP1 POP CODESIZE DUP1 PUSH3 0x2E0 JUMP JUMPDEST PUSH1 0xA PUSH1 0x0 SWAP1 DUP2 MSTORE PUSH1 0x0 DUP1 MLOAD PUSH1 0x20 PUSH3 0x1FFC DUP4 CODECOPY DUP2 MLOAD SWAP2 MSTORE SWAP2 SWAP1 PUSH1 0x1F NOT DUP5 AND SWAP1 JUMPDEST DUP2 DUP2 LT PUSH3 0x4CD JUMPI POP SWAP6 DUP4 PUSH1 0x1 SWAP6 SWAP7 SWAP8 LT PUSH3 0x4B3 JUMPI JUMPDEST POP POP POP DUP2 SHL ADD PUSH1 0xA SSTORE PUSH3 0x2F6 JUMP JUMPDEST ADD MLOAD PUSH1 0x0 NOT PUSH1 0xF8 DUP5 PUSH1 0x3 SHL AND SHR NOT AND SWAP1 SSTORE CODESIZE DUP1 DUP1 PUSH3 0x4A4 JUMP JUMPDEST SWAP2 SWAP3 PUSH1 0x20 PUSH1 0x1 DUP2 SWAP3 DUP7 DUP12 ADD MLOAD DUP2 SSTORE ADD SWAP5 ADD SWAP3 ADD PUSH3 0x48D JUMP JUMPDEST PUSH1 0xA PUSH1 0x0 MSTORE PUSH1 0x0 DUP1 MLOAD PUSH1 0x20 PUSH3 0x1FFC DUP4 CODECOPY DUP2 MLOAD SWAP2 MSTORE PUSH1 0x1F DUP4 ADD PUSH1 0x5 SHR DUP2 ADD SWAP2 PUSH1 0x20 DUP5 LT PUSH3 0x534 JUMPI JUMPDEST PUSH1 0x1F ADD PUSH1 0x5 SHR ADD SWAP1 JUMPDEST DUP2 DUP2 LT PUSH3 0x527 JUMPI POP PUSH3 0x2C4 JUMP JUMPDEST PUSH1 0x0 DUP2 SSTORE PUSH1 0x1 ADD PUSH3 0x518 JUMP JUMPDEST SWAP1 SWAP2 POP DUP2 SWAP1 PUSH3 0x50F JUMP JUMPDEST PUSH4 0x4E487B71 PUSH1 0xE0 SHL PUSH1 0x0 MSTORE PUSH1 0x22 PUSH1 0x4 MSTORE PUSH1 0x24 PUSH1 0x0 REVERT JUMPDEST SWAP1 PUSH1 0x7F AND SWAP1 PUSH3 0x2B0 JUMP JUMPDEST PUSH4 0x4E487B71 PUSH1 0xE0 SHL PUSH1 0x0 MSTORE PUSH1 0x41 PUSH1 0x4 MSTORE PUSH1 0x24 PUSH1 0x0 REVERT JUMPDEST PUSH1 0x40 MLOAD PUSH4 0xC16F3A93 PUSH1 0xE0 SHL DUP2 MSTORE PUSH1 0x4 SWAP1 REVERT JUMPDEST PUSH1 0x40 MLOAD PUSH4 0x94322419 PUSH1 0xE0 SHL DUP2 MSTORE PUSH1 0x4 SWAP1 REVERT JUMPDEST PUSH1 0x3 SWAP2 POP MLOAD LT CODESIZE PUSH3 0x280 JUMP JUMPDEST PUSH1 0xC0 PUSH1 0x4 SWAP2 PUSH4 0xD92E233D PUSH1 0xE0 SHL DUP3 DUP3 ADD MSTORE ADD REVERT JUMPDEST SWAP1 POP DUP5 ADD MLOAD CODESIZE PUSH3 0x196 JUMP JUMPDEST PUSH1 0x4 PUSH1 0x0 SWAP1 DUP2 MSTORE SWAP3 POP PUSH32 0x8A35ACFBC15FF81A39AE7D344FD709F28E8600B4AA8C65C6B64BFE7FE36BD19B SWAP1 JUMPDEST PUSH1 0x1F NOT DUP4 AND DUP5 LT PUSH3 0x638 JUMPI PUSH1 0x1 SWAP4 POP DUP3 PUSH1 0x1F NOT DUP2 AND LT PUSH3 0x61E JUMPI JUMPDEST POP POP DUP2 SHL ADD PUSH1 0x4 SSTORE PUSH3 0x1AB JUMP JUMPDEST DUP7 ADD MLOAD PUSH1 0x0 NOT PUSH1 0xF8 DUP5 PUSH1 0x3 SHL AND SHR NOT AND SWAP1 SSTORE CODESIZE DUP1 PUSH3 0x610 JUMP JUMPDEST DUP7 DUP2 ADD MLOAD DUP3 SSTORE PUSH1 0x20 SWAP4 DUP5 ADD SWAP4 PUSH1 0x1 SWAP1 SWAP3 ADD SWAP2 ADD PUSH3 0x5F3 JUMP JUMPDEST PUSH1 0x4 PUSH1 0x0 MSTORE PUSH32 0x8A35ACFBC15FF81A39AE7D344FD709F28E8600B4AA8C65C6B64BFE7FE36BD19B PUSH1 0x1F DUP4 ADD PUSH1 0x5 SHR DUP2 ADD SWAP2 PUSH1 0x20 DUP5 LT PUSH3 0x6B0 JUMPI JUMPDEST PUSH1 0x1F ADD PUSH1 0x5 SHR ADD SWAP1 JUMPDEST DUP2 DUP2 LT PUSH3 0x6A3 JUMPI POP PUSH3 0x17D JUMP JUMPDEST PUSH1 0x0 DUP2 SSTORE PUSH1 0x1 ADD PUSH3 0x694 JUMP JUMPDEST SWAP1 SWAP2 POP DUP2 SWAP1 PUSH3 0x68B JUMP JUMPDEST SWAP1 PUSH1 0x7F AND SWAP1 PUSH3 0x169 JUMP JUMPDEST SWAP1 POP DUP4 ADD MLOAD CODESIZE PUSH3 0x131 JUMP JUMPDEST PUSH1 0x3 PUSH1 0x0 SWAP1 DUP2 MSTORE SWAP3 POP PUSH32 0xC2575A0E9E593C00F959F8C92F12DB2869C3395A3B0502D05E2516446F71F85B SWAP1 JUMPDEST PUSH1 0x1F NOT DUP4 AND DUP5 LT PUSH3 0x743 JUMPI PUSH1 0x1 SWAP4 POP DUP3 PUSH1 0x1F NOT DUP2 AND LT PUSH3 0x729 JUMPI JUMPDEST POP POP DUP2 SHL ADD PUSH1 0x3 SSTORE PUSH3 0x146 JUMP JUMPDEST DUP6 ADD MLOAD PUSH1 0x0 NOT PUSH1 0xF8 DUP5 PUSH1 0x3 SHL AND SHR NOT AND SWAP1 SSTORE CODESIZE DUP1 PUSH3 0x71B JUMP JUMPDEST DUP6 DUP2 ADD MLOAD DUP3 SSTORE PUSH1 0x20 SWAP4 DUP5 ADD SWAP4 PUSH1 0x1 SWAP1 SWAP3 ADD SWAP2 ADD PUSH3 0x6FE JUMP JUMPDEST PUSH1 0x3 PUSH1 0x0 MSTORE PUSH32 0xC2575A0E9E593C00F959F8C92F12DB2869C3395A3B0502D05E2516446F71F85B PUSH1 0x1F DUP4 ADD PUSH1 0x5 SHR DUP2 ADD PUSH1 0x20 DUP5 LT PUSH3 0x7BA JUMPI JUMPDEST PUSH1 0x1F DUP4 ADD PUSH1 0x5 SHR DUP3 ADD DUP2 LT PUSH3 0x7AD JUMPI POP POP PUSH3 0x118 JUMP JUMPDEST PUSH1 0x0 DUP2 SSTORE PUSH1 0x1 ADD PUSH3 0x795 JUMP JUMPDEST POP DUP1 PUSH3 0x795 JUMP JUMPDEST SWAP1 PUSH1 0x7F AND SWAP1 PUSH3 0x104 JUMP JUMPDEST PUSH1 0x0 DUP1 REVERT JUMPDEST PUSH1 0x1F SWAP1 SWAP2 ADD PUSH1 0x1F NOT AND DUP2 ADD SWAP1 PUSH1 0x1 PUSH1 0x1 PUSH1 0x40 SHL SUB DUP3 GT SWAP1 DUP3 LT OR PUSH3 0x560 JUMPI PUSH1 0x40 MSTORE JUMP JUMPDEST PUSH1 0x0 JUMPDEST DUP4 DUP2 LT PUSH3 0x80A JUMPI POP POP PUSH1 0x0 SWAP2 ADD MSTORE JUMP JUMPDEST DUP2 DUP2 ADD MLOAD DUP4 DUP3 ADD MSTORE PUSH1 0x20 ADD PUSH3 0x7F9 JUMP JUMPDEST DUP2 PUSH1 0x1F DUP3 ADD SLT ISZERO PUSH3 0x7CD JUMPI DUP1 MLOAD PUSH1 0x1 PUSH1 0x1 PUSH1 0x40 SHL SUB DUP2 GT PUSH3 0x560 JUMPI PUSH1 0x40 MLOAD SWAP3 PUSH3 0x852 PUSH1 0x1F DUP4 ADD PUSH1 0x1F NOT AND PUSH1 0x20 ADD DUP6 PUSH3 0x7D2 JUMP JUMPDEST DUP2 DUP5 MSTORE PUSH1 0x20 DUP3 DUP5 ADD ADD GT PUSH3 0x7CD JUMPI PUSH3 0x873 SWAP2 PUSH1 0x20 DUP1 DUP6 ADD SWAP2 ADD PUSH3 0x7F6 JUMP JUMPDEST SWAP1 JUMP JUMPDEST PUSH1 0x9 DUP1 SLOAD PUSH1 0x1 PUSH1 0x1 PUSH1 0xA0 SHL SUB SWAP3 DUP4 AND PUSH1 0x1 PUSH1 0x1 PUSH1 0xA0 SHL SUB NOT DUP3 AND DUP2 OR SWAP1 SWAP3 SSTORE SWAP1 SWAP2 AND PUSH32 0x8BE0079C531659141344CD1FD0A4F28419497F9722A3DAAFE3B4186F6B6457E0 PUSH1 0x0 DUP1 LOG3 JUMP JUMPDEST DUP1 MLOAD PUSH1 0x20 SWAP2 SWAP1 DUP3 DUP2 LT ISZERO PUSH3 0x93F JUMPI POP SWAP1 PUSH1 0x1F DUP3 MLOAD GT PUSH3 0x8FD JUMPI DUP1 DUP3 MLOAD SWAP3 ADD MLOAD SWAP1 DUP1 DUP4 LT PUSH3 0x8EE JUMPI POP OR SWAP1 JUMP JUMPDEST DUP3 PUSH1 0x0 NOT SWAP2 SUB PUSH1 0x3 SHL SHL AND OR SWAP1 JUMP JUMPDEST PUSH1 0x44 SWAP1 PUSH3 0x931 SWAP3 PUSH1 0x40 MLOAD SWAP4 DUP5 SWAP3 PUSH4 0x305A27A9 PUSH1 0xE0 SHL DUP5 MSTORE DUP1 PUSH1 0x4 DUP6 ADD MSTORE DUP3 MLOAD SWAP3 DUP4 SWAP2 DUP3 PUSH1 0x24 DUP8 ADD MSTORE DUP7 DUP7 ADD SWAP2 ADD PUSH3 0x7F6 JUMP JUMPDEST PUSH1 0x1F ADD PUSH1 0x1F NOT AND DUP2 ADD SUB ADD SWAP1 REVERT JUMPDEST PUSH1 0x1 PUSH1 0x1 PUSH1 0x40 SHL SUB DUP2 GT PUSH3 0x560 JUMPI PUSH1 0x5 SWAP3 DUP4 SLOAD SWAP3 PUSH1 0x1 SWAP4 DUP5 DUP2 DUP2 SHR SWAP2 AND DUP1 ISZERO PUSH3 0xA59 JUMPI JUMPDEST DUP4 DUP3 LT EQ PUSH3 0x53F JUMPI PUSH1 0x1F DUP2 GT PUSH3 0xA22 JUMPI JUMPDEST POP DUP2 PUSH1 0x1F DUP5 GT PUSH1 0x1 EQ PUSH3 0x9B8 JUMPI POP SWAP3 DUP3 SWAP4 SWAP2 DUP4 SWAP3 PUSH1 0x0 SWAP5 PUSH3 0x9AC JUMPI JUMPDEST POP POP SHL SWAP2 PUSH1 0x0 NOT SWAP1 PUSH1 0x3 SHL SHR NOT AND OR SWAP1 SSTORE PUSH1 0xFF SWAP1 JUMP JUMPDEST ADD MLOAD SWAP3 POP CODESIZE DUP1 PUSH3 0x996 JUMP JUMPDEST SWAP2 SWAP1 DUP4 PUSH1 0x1F NOT DUP2 AND DUP8 PUSH1 0x0 MSTORE DUP5 PUSH1 0x0 KECCAK256 SWAP5 PUSH1 0x0 SWAP1 JUMPDEST DUP9 DUP4 DUP4 LT PUSH3 0xA07 JUMPI POP POP POP LT PUSH3 0x9ED JUMPI JUMPDEST POP POP POP DUP2 SHL ADD SWAP1 SSTORE PUSH1 0xFF SWAP1 JUMP JUMPDEST ADD MLOAD PUSH1 0x0 NOT PUSH1 0xF8 DUP5 PUSH1 0x3 SHL AND SHR NOT AND SWAP1 SSTORE CODESIZE DUP1 DUP1 PUSH3 0x9E0 JUMP JUMPDEST DUP6 DUP8 ADD MLOAD DUP9 SSTORE SWAP1 SWAP7 ADD SWAP6 SWAP5 DUP6 ADD SWAP5 DUP8 SWAP4 POP SWAP1 DUP2 ADD SWAP1 PUSH3 0x9CD JUMP JUMPDEST DUP6 PUSH1 0x0 MSTORE DUP5 PUSH1 0x1F DUP5 PUSH1 0x0 KECCAK256 SWAP3 ADD DUP8 SHR DUP3 ADD SWAP2 PUSH1 0x1F DUP7 ADD DUP9 SHR ADD JUMPDEST DUP3 DUP2 LT PUSH3 0xA4C JUMPI POP POP PUSH3 0x978 JUMP JUMPDEST PUSH1 0x0 DUP2 SSTORE ADD DUP6 SWAP1 PUSH3 0xA3C JUMP JUMPDEST SWAP1 PUSH1 0x7F AND SWAP1 PUSH3 0x965 JUMP JUMPDEST DUP1 MLOAD PUSH1 0x20 SWAP1 DUP2 DUP2 LT ISZERO PUSH3 0xA91 JUMPI POP PUSH1 0x1F DUP3 MLOAD GT PUSH3 0x8FD JUMPI DUP1 DUP3 MLOAD SWAP3 ADD MLOAD SWAP1 DUP1 DUP4 LT PUSH3 0x8EE JUMPI POP OR SWAP1 JUMP JUMPDEST SWAP1 PUSH1 0x1 PUSH1 0x1 PUSH1 0x40 SHL SUB DUP3 GT PUSH3 0x560 JUMPI PUSH1 0x6 SLOAD SWAP3 PUSH1 0x1 SWAP4 DUP5 DUP2 DUP2 SHR SWAP2 AND DUP1 ISZERO PUSH3 0xBB0 JUMPI JUMPDEST DUP4 DUP3 LT EQ PUSH3 0x53F JUMPI PUSH1 0x1F DUP2 GT PUSH3 0xB76 JUMPI JUMPDEST POP DUP2 PUSH1 0x1F DUP5 GT PUSH1 0x1 EQ PUSH3 0xB0A JUMPI POP SWAP3 DUP3 SWAP4 SWAP2 DUP4 SWAP3 PUSH1 0x0 SWAP5 PUSH3 0xAFE JUMPI JUMPDEST POP POP SHL SWAP2 PUSH1 0x0 NOT SWAP1 PUSH1 0x3 SHL SHR NOT AND OR PUSH1 0x6 SSTORE PUSH1 0xFF SWAP1 JUMP JUMPDEST ADD MLOAD SWAP3 POP CODESIZE DUP1 PUSH3 0xAE7 JUMP JUMPDEST SWAP2 SWAP1 DUP4 PUSH1 0x1F NOT DUP2 AND PUSH1 0x6 PUSH1 0x0 MSTORE DUP5 PUSH1 0x0 KECCAK256 SWAP5 PUSH1 0x0 SWAP1 JUMPDEST DUP9 DUP4 DUP4 LT PUSH3 0xB5B JUMPI POP POP POP LT PUSH3 0xB41 JUMPI JUMPDEST POP POP POP DUP2 SHL ADD PUSH1 0x6 SSTORE PUSH1 0xFF SWAP1 JUMP JUMPDEST ADD MLOAD PUSH1 0x0 NOT PUSH1 0xF8 DUP5 PUSH1 0x3 SHL AND SHR NOT AND SWAP1 SSTORE CODESIZE DUP1 DUP1 PUSH3 0xB33 JUMP JUMPDEST DUP6 DUP8 ADD MLOAD DUP9 SSTORE SWAP1 SWAP7 ADD SWAP6 SWAP5 DUP6 ADD SWAP5 DUP8 SWAP4 POP SWAP1 DUP2 ADD SWAP1 PUSH3 0xB20 JUMP JUMPDEST PUSH1 0x6 PUSH1 0x0 MSTORE DUP5 PUSH1 0x1F DUP5 PUSH1 0x0 KECCAK256 SWAP3 ADD PUSH1 0x5 SHR DUP3 ADD SWAP2 PUSH1 0x1F DUP7 ADD PUSH1 0x5 SHR ADD JUMPDEST DUP3 DUP2 LT PUSH3 0xBA3 JUMPI POP POP PUSH3 0xAC9 JUMP JUMPDEST PUSH1 0x0 DUP2 SSTORE ADD DUP6 SWAP1 PUSH3 0xB93 JUMP JUMPDEST SWAP1 PUSH1 0x7F AND SWAP1 PUSH3 0xAB6 JUMP INVALID PUSH1 0x80 PUSH1 0x40 DUP2 DUP2 MSTORE PUSH1 0x4 DUP1 CALLDATASIZE LT ISZERO PUSH2 0x15 JUMPI PUSH1 0x0 DUP1 REVERT JUMPDEST PUSH1 0x0 SWAP3 DUP4 CALLDATALOAD PUSH1 0xE0 SHR SWAP1 DUP2 PUSH4 0x6FDDE03 EQ PUSH2 0xB3A JUMPI POP DUP1 PUSH4 0x95EA7B3 EQ PUSH2 0xB10 JUMPI DUP1 PUSH4 0x18160DDD EQ PUSH2 0xAF1 JUMPI DUP1 PUSH4 0x23B872DD EQ PUSH2 0xA27 JUMPI DUP1 PUSH4 0x313CE567 EQ PUSH2 0xA0B JUMPI DUP1 PUSH4 0x3644E515 EQ PUSH2 0x9E7 JUMPI DUP1 PUSH4 0x39509351 EQ PUSH2 0x980 JUMPI DUP1 PUSH4 0x3C130D90 EQ PUSH2 0x87A JUMPI DUP1 PUSH4 0x70A08231 EQ PUSH2 0x843 JUMPI DUP1 PUSH4 0x715018A6 EQ PUSH2 0x7E6 JUMPI DUP1 PUSH4 0x7ECEBE00 EQ PUSH2 0x7AE JUMPI DUP1 PUSH4 0x84B0196E EQ PUSH2 0x691 JUMPI DUP1 PUSH4 0x8DA5CB5B EQ PUSH2 0x668 JUMPI DUP1 PUSH4 0x95D89B41 EQ PUSH2 0x594 JUMPI DUP1 PUSH4 0xA457C2D7 EQ PUSH2 0x4ED JUMPI DUP1 PUSH4 0xA9059CBB EQ PUSH2 0x4BC JUMPI DUP1 PUSH4 0xC623674F EQ PUSH2 0x3D3 JUMPI DUP1 PUSH4 0xD505ACCF EQ PUSH2 0x21A JUMPI DUP1 PUSH4 0xDD62ED3E EQ PUSH2 0x1CD JUMPI PUSH4 0xF2FDE38B EQ PUSH2 0xFF JUMPI PUSH1 0x0 DUP1 REVERT JUMPDEST CALLVALUE PUSH2 0x1C9 JUMPI PUSH1 0x20 CALLDATASIZE PUSH1 0x3 NOT ADD SLT PUSH2 0x1C9 JUMPI PUSH2 0x118 PUSH2 0xC22 JUMP JUMPDEST SWAP1 PUSH2 0x121 PUSH2 0xCE1 JUMP JUMPDEST PUSH1 0x1 PUSH1 0x1 PUSH1 0xA0 SHL SUB SWAP2 DUP3 AND SWAP3 DUP4 ISZERO PUSH2 0x177 JUMPI POP POP PUSH1 0x9 SLOAD DUP3 PUSH12 0xFFFFFFFFFFFFFFFFFFFFFFFF PUSH1 0xA0 SHL DUP3 AND OR PUSH1 0x9 SSTORE AND PUSH32 0x8BE0079C531659141344CD1FD0A4F28419497F9722A3DAAFE3B4186F6B6457E0 DUP4 DUP1 LOG3 DUP1 RETURN JUMPDEST SWAP1 PUSH1 0x20 PUSH1 0x84 SWAP3 MLOAD SWAP2 PUSH3 0x461BCD PUSH1 0xE5 SHL DUP4 MSTORE DUP3 ADD MSTORE PUSH1 0x26 PUSH1 0x24 DUP3 ADD MSTORE PUSH32 0x4F776E61626C653A206E6577206F776E657220697320746865207A65726F2061 PUSH1 0x44 DUP3 ADD MSTORE PUSH6 0x646472657373 PUSH1 0xD0 SHL PUSH1 0x64 DUP3 ADD MSTORE REVERT JUMPDEST DUP3 DUP1 REVERT JUMPDEST POP POP CALLVALUE PUSH2 0x216 JUMPI DUP1 PUSH1 0x3 NOT CALLDATASIZE ADD SLT PUSH2 0x216 JUMPI DUP1 PUSH1 0x20 SWAP3 PUSH2 0x1EB PUSH2 0xC22 JUMP JUMPDEST PUSH2 0x1F3 PUSH2 0xC3D JUMP JUMPDEST PUSH1 0x1 PUSH1 0x1 PUSH1 0xA0 SHL SUB SWAP2 DUP3 AND DUP4 MSTORE PUSH1 0x1 DUP7 MSTORE DUP4 DUP4 KECCAK256 SWAP2 AND DUP3 MSTORE DUP5 MSTORE KECCAK256 SLOAD SWAP1 MLOAD SWAP1 DUP2 MSTORE RETURN JUMPDEST POP DUP1 REVERT JUMPDEST POP DUP3 SWAP1 CALLVALUE PUSH2 0x216 JUMPI PUSH1 0xE0 CALLDATASIZE PUSH1 0x3 NOT ADD SLT PUSH2 0x216 JUMPI PUSH2 0x236 PUSH2 0xC22 JUMP JUMPDEST PUSH2 0x23E PUSH2 0xC3D JUMP JUMPDEST SWAP1 PUSH1 0x44 CALLDATALOAD SWAP3 PUSH1 0x64 CALLDATALOAD PUSH1 0x84 CALLDATALOAD PUSH1 0xFF DUP2 AND DUP2 SUB PUSH2 0x3CF JUMPI DUP2 TIMESTAMP GT PUSH2 0x38C JUMPI PUSH1 0x1 DUP1 PUSH1 0xA0 SHL SUB SWAP1 DUP2 DUP6 AND SWAP3 DUP4 DUP10 MSTORE PUSH1 0x7 PUSH1 0x20 MSTORE DUP10 DUP10 KECCAK256 SWAP1 DUP2 SLOAD SWAP2 PUSH1 0x1 DUP4 ADD SWAP1 SSTORE DUP11 MLOAD SWAP1 PUSH1 0x20 DUP3 ADD SWAP3 PUSH32 0x6E71EDAE12B1B97F4D1F60370FEF10105FA2FAAE0126114A169C64845D6126C9 DUP5 MSTORE DUP7 DUP14 DUP5 ADD MSTORE DUP6 DUP11 AND PUSH1 0x60 DUP5 ADD MSTORE DUP11 PUSH1 0x80 DUP5 ADD MSTORE PUSH1 0xA0 DUP4 ADD MSTORE PUSH1 0xC0 DUP3 ADD MSTORE PUSH1 0xC0 DUP2 MSTORE PUSH1 0xE0 DUP2 ADD DUP2 DUP2 LT PUSH8 0xFFFFFFFFFFFFFFFF DUP3 GT OR PUSH2 0x379 JUMPI DUP12 MSTORE MLOAD SWAP1 KECCAK256 PUSH2 0x321 SWAP2 PUSH2 0x319 SWAP2 PUSH2 0x2F3 PUSH2 0x1152 JUMP JUMPDEST SWAP1 DUP13 MLOAD SWAP2 PUSH2 0x1901 PUSH1 0xF0 SHL DUP4 MSTORE PUSH1 0x2 DUP4 ADD MSTORE PUSH1 0x22 DUP3 ADD MSTORE PUSH1 0xC4 CALLDATALOAD SWAP2 PUSH1 0x42 PUSH1 0xA4 CALLDATALOAD SWAP3 KECCAK256 PUSH2 0x10C3 JUMP JUMPDEST SWAP2 SWAP1 SWAP2 PUSH2 0xFA9 JUMP JUMPDEST AND SUB PUSH2 0x336 JUMPI POP PUSH2 0x333 SWAP4 SWAP5 POP PUSH2 0xEA7 JUMP JUMPDEST DUP1 RETURN JUMPDEST PUSH1 0x64 SWAP1 PUSH1 0x20 DUP8 MLOAD SWAP2 PUSH3 0x461BCD PUSH1 0xE5 SHL DUP4 MSTORE DUP3 ADD MSTORE PUSH1 0x1E PUSH1 0x24 DUP3 ADD MSTORE PUSH32 0x45524332305065726D69743A20696E76616C6964207369676E61747572650000 PUSH1 0x44 DUP3 ADD MSTORE REVERT JUMPDEST PUSH4 0x4E487B71 PUSH1 0xE0 SHL DUP12 MSTORE PUSH1 0x41 DUP8 MSTORE PUSH1 0x24 DUP12 REVERT JUMPDEST DUP8 MLOAD PUSH3 0x461BCD PUSH1 0xE5 SHL DUP2 MSTORE PUSH1 0x20 DUP2 DUP6 ADD MSTORE PUSH1 0x1D PUSH1 0x24 DUP3 ADD MSTORE PUSH32 0x45524332305065726D69743A206578706972656420646561646C696E65000000 PUSH1 0x44 DUP3 ADD MSTORE PUSH1 0x64 SWAP1 REVERT JUMPDEST DUP7 DUP1 REVERT JUMPDEST POP POP CALLVALUE PUSH2 0x216 JUMPI DUP2 PUSH1 0x3 NOT CALLDATASIZE ADD SLT PUSH2 0x216 JUMPI DUP1 MLOAD SWAP1 DUP3 PUSH1 0xA SLOAD PUSH2 0x3F5 DUP2 PUSH2 0xC53 JUMP JUMPDEST DUP1 DUP6 MSTORE SWAP2 PUSH1 0x1 SWAP2 DUP1 DUP4 AND SWAP1 DUP2 ISZERO PUSH2 0x494 JUMPI POP PUSH1 0x1 EQ PUSH2 0x437 JUMPI JUMPDEST POP POP POP PUSH2 0x421 DUP3 PUSH2 0x433 SWAP5 SUB DUP4 PUSH2 0xCBF JUMP JUMPDEST MLOAD SWAP2 DUP3 SWAP2 PUSH1 0x20 DUP4 MSTORE PUSH1 0x20 DUP4 ADD SWAP1 PUSH2 0xBE2 JUMP JUMPDEST SUB SWAP1 RETURN JUMPDEST SWAP5 POP PUSH1 0xA DUP6 MSTORE PUSH32 0xC65A7BB8D6351C1CF70C95A316CC6A92839C986682D98BC35F958F4883F9D2A8 JUMPDEST DUP3 DUP7 LT PUSH2 0x47C JUMPI POP POP POP PUSH2 0x421 DUP3 PUSH1 0x20 PUSH2 0x433 SWAP6 DUP3 ADD ADD SWAP5 PUSH2 0x40F JUMP JUMPDEST DUP1 SLOAD PUSH1 0x20 DUP8 DUP8 ADD DUP2 ADD SWAP2 SWAP1 SWAP2 MSTORE SWAP1 SWAP6 ADD SWAP5 DUP2 ADD PUSH2 0x45F JUMP JUMPDEST PUSH2 0x433 SWAP8 POP DUP7 SWAP4 POP PUSH1 0x20 SWAP3 POP PUSH2 0x421 SWAP5 SWAP2 POP PUSH1 0xFF NOT AND DUP3 DUP5 ADD MSTORE ISZERO ISZERO PUSH1 0x5 SHL DUP3 ADD ADD SWAP5 PUSH2 0x40F JUMP JUMPDEST POP POP CALLVALUE PUSH2 0x216 JUMPI DUP1 PUSH1 0x3 NOT CALLDATASIZE ADD SLT PUSH2 0x216 JUMPI PUSH1 0x20 SWAP1 PUSH2 0x4E6 PUSH2 0x4DC PUSH2 0xC22 JUMP JUMPDEST PUSH1 0x24 CALLDATALOAD SWAP1 CALLER PUSH2 0xD39 JUMP JUMPDEST MLOAD PUSH1 0x1 DUP2 MSTORE RETURN JUMPDEST POP DUP3 CALLVALUE PUSH2 0x591 JUMPI DUP3 PUSH1 0x3 NOT CALLDATASIZE ADD SLT PUSH2 0x591 JUMPI PUSH2 0x507 PUSH2 0xC22 JUMP JUMPDEST SWAP2 DUP4 PUSH1 0x24 CALLDATALOAD SWAP3 CALLER DUP2 MSTORE PUSH1 0x1 PUSH1 0x20 MSTORE DUP2 DUP2 KECCAK256 PUSH1 0x1 DUP1 PUSH1 0xA0 SHL SUB DUP7 AND DUP3 MSTORE PUSH1 0x20 MSTORE KECCAK256 SLOAD SWAP1 DUP3 DUP3 LT PUSH2 0x540 JUMPI PUSH1 0x20 DUP6 PUSH2 0x4E6 DUP6 DUP6 SUB DUP8 CALLER PUSH2 0xEA7 JUMP JUMPDEST PUSH1 0x84 SWAP1 PUSH1 0x20 DUP7 MLOAD SWAP2 PUSH3 0x461BCD PUSH1 0xE5 SHL DUP4 MSTORE DUP3 ADD MSTORE PUSH1 0x25 PUSH1 0x24 DUP3 ADD MSTORE PUSH32 0x45524332303A2064656372656173656420616C6C6F77616E63652062656C6F77 PUSH1 0x44 DUP3 ADD MSTORE PUSH5 0x207A65726F PUSH1 0xD8 SHL PUSH1 0x64 DUP3 ADD MSTORE REVERT JUMPDEST DUP1 REVERT JUMPDEST POP SWAP1 CALLVALUE PUSH2 0x1C9 JUMPI DUP3 PUSH1 0x3 NOT CALLDATASIZE ADD SLT PUSH2 0x1C9 JUMPI DUP1 MLOAD SWAP2 DUP4 DUP2 SLOAD SWAP1 PUSH2 0x5B6 DUP3 PUSH2 0xC53 JUMP JUMPDEST DUP1 DUP7 MSTORE SWAP3 PUSH1 0x1 SWAP3 DUP1 DUP5 AND SWAP1 DUP2 ISZERO PUSH2 0x63D JUMPI POP PUSH1 0x1 EQ PUSH2 0x5E1 JUMPI JUMPDEST PUSH2 0x433 DUP7 DUP7 PUSH2 0x421 DUP3 DUP12 SUB DUP4 PUSH2 0xCBF JUMP JUMPDEST DUP2 MSTORE SWAP5 POP PUSH32 0x8A35ACFBC15FF81A39AE7D344FD709F28E8600B4AA8C65C6B64BFE7FE36BD19B JUMPDEST DUP3 DUP7 LT PUSH2 0x625 JUMPI POP POP POP PUSH2 0x421 DUP3 PUSH1 0x20 PUSH2 0x433 SWAP6 DUP3 ADD ADD SWAP5 CODESIZE PUSH2 0x5D0 JUMP JUMPDEST DUP1 SLOAD PUSH1 0x20 DUP8 DUP8 ADD DUP2 ADD SWAP2 SWAP1 SWAP2 MSTORE SWAP1 SWAP6 ADD SWAP5 DUP2 ADD PUSH2 0x607 JUMP JUMPDEST SWAP1 POP PUSH2 0x433 SWAP8 POP DUP7 SWAP4 POP PUSH1 0x20 SWAP3 POP PUSH2 0x421 SWAP5 SWAP2 POP PUSH1 0xFF NOT AND DUP3 DUP5 ADD MSTORE ISZERO ISZERO PUSH1 0x5 SHL DUP3 ADD ADD SWAP5 CODESIZE PUSH2 0x5D0 JUMP JUMPDEST POP POP CALLVALUE PUSH2 0x216 JUMPI DUP2 PUSH1 0x3 NOT CALLDATASIZE ADD SLT PUSH2 0x216 JUMPI PUSH1 0x9 SLOAD SWAP1 MLOAD PUSH1 0x1 PUSH1 0x1 PUSH1 0xA0 SHL SUB SWAP1 SWAP2 AND DUP2 MSTORE PUSH1 0x20 SWAP1 RETURN JUMPDEST POP SWAP1 CALLVALUE PUSH2 0x1C9 JUMPI DUP3 PUSH1 0x3 NOT CALLDATASIZE ADD SLT PUSH2 0x1C9 JUMPI PUSH2 0x6CC PUSH32 0x0 PUSH2 0x127D JUMP JUMPDEST SWAP3 PUSH2 0x6F6 PUSH32 0x0 PUSH2 0x1379 JUMP JUMPDEST SWAP1 DUP3 MLOAD SWAP3 PUSH1 0x20 SWAP3 DUP4 DUP6 ADD SWAP6 DUP6 DUP8 LT PUSH8 0xFFFFFFFFFFFFFFFF DUP9 GT OR PUSH2 0x79B JUMPI POP SWAP3 DUP1 PUSH2 0x751 DUP4 DUP9 SWAP7 PUSH2 0x744 SWAP10 DUP12 SWAP10 SWAP7 MSTORE DUP7 DUP7 MSTORE DUP2 MLOAD SWAP10 DUP11 SWAP10 PUSH1 0xF PUSH1 0xF8 SHL DUP12 MSTORE PUSH1 0xE0 DUP7 DUP13 ADD MSTORE PUSH1 0xE0 DUP12 ADD SWAP1 PUSH2 0xBE2 JUMP JUMPDEST SWAP2 DUP10 DUP4 SUB SWAP1 DUP11 ADD MSTORE PUSH2 0xBE2 JUMP JUMPDEST SWAP3 CHAINID PUSH1 0x60 DUP9 ADD MSTORE ADDRESS PUSH1 0x80 DUP9 ADD MSTORE DUP5 PUSH1 0xA0 DUP9 ADD MSTORE DUP7 DUP5 SUB PUSH1 0xC0 DUP9 ADD MSTORE MLOAD SWAP3 DUP4 DUP2 MSTORE ADD SWAP4 SWAP3 JUMPDEST DUP3 DUP2 LT PUSH2 0x784 JUMPI POP POP POP POP SUB SWAP1 RETURN JUMPDEST DUP4 MLOAD DUP6 MSTORE DUP7 SWAP6 POP SWAP4 DUP2 ADD SWAP4 SWAP3 DUP2 ADD SWAP3 PUSH1 0x1 ADD PUSH2 0x775 JUMP JUMPDEST PUSH4 0x4E487B71 PUSH1 0xE0 SHL DUP5 MSTORE PUSH1 0x41 SWAP1 MSTORE PUSH1 0x24 DUP4 REVERT JUMPDEST POP POP CALLVALUE PUSH2 0x216 JUMPI PUSH1 0x20 CALLDATASIZE PUSH1 0x3 NOT ADD SLT PUSH2 0x216 JUMPI PUSH1 0x20 SWAP2 DUP2 SWAP1 PUSH1 0x1 PUSH1 0x1 PUSH1 0xA0 SHL SUB PUSH2 0x7D6 PUSH2 0xC22 JUMP JUMPDEST AND DUP2 MSTORE PUSH1 0x7 DUP5 MSTORE KECCAK256 SLOAD SWAP1 MLOAD SWAP1 DUP2 MSTORE RETURN JUMPDEST DUP4 CALLVALUE PUSH2 0x591 JUMPI DUP1 PUSH1 0x3 NOT CALLDATASIZE ADD SLT PUSH2 0x591 JUMPI PUSH2 0x7FF PUSH2 0xCE1 JUMP JUMPDEST PUSH1 0x9 DUP1 SLOAD PUSH1 0x1 PUSH1 0x1 PUSH1 0xA0 SHL SUB NOT DUP2 AND SWAP1 SWAP2 SSTORE DUP2 SWAP1 PUSH1 0x1 PUSH1 0x1 PUSH1 0xA0 SHL SUB AND PUSH32 0x8BE0079C531659141344CD1FD0A4F28419497F9722A3DAAFE3B4186F6B6457E0 DUP3 DUP1 LOG3 DUP1 RETURN JUMPDEST POP POP CALLVALUE PUSH2 0x216 JUMPI PUSH1 0x20 CALLDATASIZE PUSH1 0x3 NOT ADD SLT PUSH2 0x216 JUMPI PUSH1 0x20 SWAP2 DUP2 SWAP1 PUSH1 0x1 PUSH1 0x1 PUSH1 0xA0 SHL SUB PUSH2 0x86B PUSH2 0xC22 JUMP JUMPDEST AND DUP2 MSTORE DUP1 DUP5 MSTORE KECCAK256 SLOAD SWAP1 MLOAD SWAP1 DUP2 MSTORE RETURN JUMPDEST DUP3 DUP5 CALLVALUE PUSH2 0x591 JUMPI DUP1 PUSH1 0x3 NOT CALLDATASIZE ADD SLT PUSH2 0x591 JUMPI DUP2 MLOAD SWAP2 DUP3 PUSH1 0x20 SWAP3 PUSH7 0x697066733A2F2F PUSH1 0xC8 SHL DUP5 DUP4 ADD MSTORE DUP1 PUSH1 0xA SLOAD SWAP1 PUSH2 0x8B0 DUP3 PUSH2 0xC53 JUMP JUMPDEST SWAP2 PUSH1 0x1 SWAP1 DUP2 DUP2 AND SWAP1 DUP2 ISZERO PUSH2 0x955 JUMPI POP PUSH1 0x1 EQ PUSH2 0x8F0 JUMPI JUMPDEST POP POP POP PUSH2 0x433 SWAP3 SWAP2 PUSH2 0x8E1 SWAP2 SUB PUSH1 0x1F NOT DUP2 ADD DUP7 MSTORE DUP6 PUSH2 0xCBF JUMP JUMPDEST MLOAD SWAP3 DUP3 DUP5 SWAP4 DUP5 MSTORE DUP4 ADD SWAP1 PUSH2 0xBE2 JUMP JUMPDEST DUP7 SWAP6 SWAP5 SWAP4 POP PUSH1 0xA DUP3 MSTORE PUSH32 0xC65A7BB8D6351C1CF70C95A316CC6A92839C986682D98BC35F958F4883F9D2A8 JUMPDEST DUP4 DUP4 LT PUSH2 0x93C JUMPI POP SWAP4 SWAP5 POP SWAP2 SWAP3 POP DUP3 ADD PUSH1 0x27 ADD SWAP1 POP DUP2 PUSH2 0x8E1 PUSH2 0x433 PUSH2 0x8C7 JUMP JUMPDEST DUP1 SLOAD PUSH1 0x27 DUP5 DUP12 ADD ADD MSTORE DUP8 SWAP7 DUP10 SWAP6 POP SWAP1 SWAP3 ADD SWAP2 DUP2 ADD PUSH2 0x91B JUMP JUMPDEST SWAP1 POP PUSH2 0x8E1 SWAP5 POP PUSH1 0x27 SWAP3 POP PUSH2 0x433 SWAP7 SWAP6 SWAP4 SWAP2 POP PUSH1 0xFF NOT AND DUP3 DUP5 ADD MSTORE DUP1 ISZERO ISZERO MUL DUP3 ADD ADD SWAP2 DUP2 SWAP4 SWAP5 PUSH2 0x8C7 JUMP JUMPDEST POP SWAP2 CALLVALUE PUSH2 0x591 JUMPI DUP2 PUSH1 0x3 NOT CALLDATASIZE ADD SLT PUSH2 0x591 JUMPI PUSH2 0x99A PUSH2 0xC22 JUMP JUMPDEST CALLER DUP3 MSTORE PUSH1 0x1 PUSH1 0x20 SWAP1 DUP2 MSTORE DUP4 DUP4 KECCAK256 PUSH1 0x1 PUSH1 0x1 PUSH1 0xA0 SHL SUB DUP4 AND DUP5 MSTORE SWAP1 MSTORE DUP3 DUP3 KECCAK256 SLOAD PUSH1 0x24 CALLDATALOAD DUP2 ADD SWAP3 SWAP1 DUP4 LT PUSH2 0x9D4 JUMPI PUSH1 0x20 DUP5 PUSH2 0x4E6 DUP6 DUP6 CALLER PUSH2 0xEA7 JUMP JUMPDEST PUSH4 0x4E487B71 PUSH1 0xE0 SHL DUP2 MSTORE PUSH1 0x11 DUP6 MSTORE PUSH1 0x24 SWAP1 REVERT JUMPDEST POP POP CALLVALUE PUSH2 0x216 JUMPI DUP2 PUSH1 0x3 NOT CALLDATASIZE ADD SLT PUSH2 0x216 JUMPI PUSH1 0x20 SWAP1 PUSH2 0xA04 PUSH2 0x1152 JUMP JUMPDEST SWAP1 MLOAD SWAP1 DUP2 MSTORE RETURN JUMPDEST POP POP CALLVALUE PUSH2 0x216 JUMPI DUP2 PUSH1 0x3 NOT CALLDATASIZE ADD SLT PUSH2 0x216 JUMPI PUSH1 0x20 SWAP1 MLOAD PUSH1 0x12 DUP2 MSTORE RETURN JUMPDEST POP DUP3 SWAP1 CALLVALUE PUSH2 0x216 JUMPI PUSH1 0x60 CALLDATASIZE PUSH1 0x3 NOT ADD SLT PUSH2 0x216 JUMPI PUSH2 0xA43 PUSH2 0xC22 JUMP JUMPDEST PUSH2 0xA4B PUSH2 0xC3D JUMP JUMPDEST SWAP2 DUP5 PUSH1 0x44 CALLDATALOAD SWAP5 PUSH1 0x1 DUP1 PUSH1 0xA0 SHL SUB DUP5 AND DUP2 MSTORE PUSH1 0x1 PUSH1 0x20 MSTORE DUP2 DUP2 KECCAK256 CALLER DUP3 MSTORE PUSH1 0x20 MSTORE KECCAK256 SLOAD SWAP1 PUSH1 0x0 NOT DUP3 SUB PUSH2 0xA85 JUMPI JUMPDEST PUSH1 0x20 DUP7 PUSH2 0x4E6 DUP8 DUP8 DUP8 PUSH2 0xD39 JUMP JUMPDEST DUP5 DUP3 LT PUSH2 0xAAE JUMPI POP SWAP2 DUP4 SWAP2 PUSH2 0xAA3 PUSH1 0x20 SWAP7 SWAP6 PUSH2 0x4E6 SWAP6 SUB CALLER DUP4 PUSH2 0xEA7 JUMP JUMPDEST SWAP2 SWAP4 SWAP5 DUP2 SWAP4 POP PUSH2 0xA77 JUMP JUMPDEST PUSH1 0x64 SWAP1 PUSH1 0x20 DUP8 MLOAD SWAP2 PUSH3 0x461BCD PUSH1 0xE5 SHL DUP4 MSTORE DUP3 ADD MSTORE PUSH1 0x1D PUSH1 0x24 DUP3 ADD MSTORE PUSH32 0x45524332303A20696E73756666696369656E7420616C6C6F77616E6365000000 PUSH1 0x44 DUP3 ADD MSTORE REVERT JUMPDEST POP POP CALLVALUE PUSH2 0x216 JUMPI DUP2 PUSH1 0x3 NOT CALLDATASIZE ADD SLT PUSH2 0x216 JUMPI PUSH1 0x20 SWAP1 PUSH1 0x2 SLOAD SWAP1 MLOAD SWAP1 DUP2 MSTORE RETURN JUMPDEST POP POP CALLVALUE PUSH2 0x216 JUMPI DUP1 PUSH1 0x3 NOT CALLDATASIZE ADD SLT PUSH2 0x216 JUMPI PUSH1 0x20 SWAP1 PUSH2 0x4E6 PUSH2 0xB30 PUSH2 0xC22 JUMP JUMPDEST PUSH1 0x24 CALLDATALOAD SWAP1 CALLER PUSH2 0xEA7 JUMP JUMPDEST DUP5 SWAP1 DUP5 CALLVALUE PUSH2 0x1C9 JUMPI DUP3 PUSH1 0x3 NOT CALLDATASIZE ADD SLT PUSH2 0x1C9 JUMPI DUP3 PUSH1 0x3 SLOAD PUSH2 0xB5A DUP2 PUSH2 0xC53 JUMP JUMPDEST DUP1 DUP6 MSTORE SWAP2 PUSH1 0x1 SWAP2 DUP1 DUP4 AND SWAP1 DUP2 ISZERO PUSH2 0x494 JUMPI POP PUSH1 0x1 EQ PUSH2 0xB85 JUMPI POP POP POP PUSH2 0x421 DUP3 PUSH2 0x433 SWAP5 SUB DUP4 PUSH2 0xCBF JUMP JUMPDEST SWAP5 POP PUSH1 0x3 DUP6 MSTORE PUSH32 0xC2575A0E9E593C00F959F8C92F12DB2869C3395A3B0502D05E2516446F71F85B JUMPDEST DUP3 DUP7 LT PUSH2 0xBCA JUMPI POP POP POP PUSH2 0x421 DUP3 PUSH1 0x20 PUSH2 0x433 SWAP6 DUP3 ADD ADD SWAP5 PUSH2 0x40F JUMP JUMPDEST DUP1 SLOAD PUSH1 0x20 DUP8 DUP8 ADD DUP2 ADD SWAP2 SWAP1 SWAP2 MSTORE SWAP1 SWAP6 ADD SWAP5 DUP2 ADD PUSH2 0xBAD JUMP JUMPDEST SWAP2 SWAP1 DUP3 MLOAD SWAP3 DUP4 DUP3 MSTORE PUSH1 0x0 JUMPDEST DUP5 DUP2 LT PUSH2 0xC0E JUMPI POP POP DUP3 PUSH1 0x0 PUSH1 0x20 DUP1 SWAP5 SWAP6 DUP5 ADD ADD MSTORE PUSH1 0x1F DUP1 NOT SWAP2 ADD AND ADD ADD SWAP1 JUMP JUMPDEST PUSH1 0x20 DUP2 DUP4 ADD DUP2 ADD MLOAD DUP5 DUP4 ADD DUP3 ADD MSTORE ADD PUSH2 0xBED JUMP JUMPDEST PUSH1 0x4 CALLDATALOAD SWAP1 PUSH1 0x1 PUSH1 0x1 PUSH1 0xA0 SHL SUB DUP3 AND DUP3 SUB PUSH2 0xC38 JUMPI JUMP JUMPDEST PUSH1 0x0 DUP1 REVERT JUMPDEST PUSH1 0x24 CALLDATALOAD SWAP1 PUSH1 0x1 PUSH1 0x1 PUSH1 0xA0 SHL SUB DUP3 AND DUP3 SUB PUSH2 0xC38 JUMPI JUMP JUMPDEST SWAP1 PUSH1 0x1 DUP3 DUP2 SHR SWAP3 AND DUP1 ISZERO PUSH2 0xC83 JUMPI JUMPDEST PUSH1 0x20 DUP4 LT EQ PUSH2 0xC6D JUMPI JUMP JUMPDEST PUSH4 0x4E487B71 PUSH1 0xE0 SHL PUSH1 0x0 MSTORE PUSH1 0x22 PUSH1 0x4 MSTORE PUSH1 0x24 PUSH1 0x0 REVERT JUMPDEST SWAP2 PUSH1 0x7F AND SWAP2 PUSH2 0xC62 JUMP JUMPDEST PUSH1 0x40 DUP2 ADD SWAP1 DUP2 LT PUSH8 0xFFFFFFFFFFFFFFFF DUP3 GT OR PUSH2 0xCA9 JUMPI PUSH1 0x40 MSTORE JUMP JUMPDEST PUSH4 0x4E487B71 PUSH1 0xE0 SHL PUSH1 0x0 MSTORE PUSH1 0x41 PUSH1 0x4 MSTORE PUSH1 0x24 PUSH1 0x0 REVERT JUMPDEST SWAP1 PUSH1 0x1F DUP1 NOT SWAP2 ADD AND DUP2 ADD SWAP1 DUP2 LT PUSH8 0xFFFFFFFFFFFFFFFF DUP3 GT OR PUSH2 0xCA9 JUMPI PUSH1 0x40 MSTORE JUMP JUMPDEST PUSH1 0x9 SLOAD PUSH1 0x1 PUSH1 0x1 PUSH1 0xA0 SHL SUB AND CALLER SUB PUSH2 0xCF5 JUMPI JUMP JUMPDEST PUSH1 0x64 PUSH1 0x40 MLOAD PUSH3 0x461BCD PUSH1 0xE5 SHL DUP2 MSTORE PUSH1 0x20 PUSH1 0x4 DUP3 ADD MSTORE PUSH1 0x20 PUSH1 0x24 DUP3 ADD MSTORE PUSH32 0x4F776E61626C653A2063616C6C6572206973206E6F7420746865206F776E6572 PUSH1 0x44 DUP3 ADD MSTORE REVERT JUMPDEST PUSH1 0x1 PUSH1 0x1 PUSH1 0xA0 SHL SUB SWAP1 DUP2 AND SWAP2 DUP3 ISZERO PUSH2 0xE54 JUMPI AND SWAP2 DUP3 ISZERO PUSH2 0xE03 JUMPI PUSH1 0x0 DUP3 DUP2 MSTORE DUP1 PUSH1 0x20 MSTORE PUSH1 0x40 DUP2 KECCAK256 SLOAD SWAP2 DUP1 DUP4 LT PUSH2 0xDAF JUMPI PUSH1 0x40 DUP3 DUP3 PUSH32 0xDDF252AD1BE2C89B69C2B068FC378DAA952BA7F163C4A11628F55A4DF523B3EF SWAP6 DUP8 PUSH1 0x20 SWAP7 MSTORE DUP3 DUP7 MSTORE SUB DUP3 DUP3 KECCAK256 SSTORE DUP7 DUP2 MSTORE KECCAK256 DUP2 DUP2 SLOAD ADD SWAP1 SSTORE PUSH1 0x40 MLOAD SWAP1 DUP2 MSTORE LOG3 JUMP JUMPDEST PUSH1 0x40 MLOAD PUSH3 0x461BCD PUSH1 0xE5 SHL DUP2 MSTORE PUSH1 0x20 PUSH1 0x4 DUP3 ADD MSTORE PUSH1 0x26 PUSH1 0x24 DUP3 ADD MSTORE PUSH32 0x45524332303A207472616E7366657220616D6F756E7420657863656564732062 PUSH1 0x44 DUP3 ADD MSTORE PUSH6 0x616C616E6365 PUSH1 0xD0 SHL PUSH1 0x64 DUP3 ADD MSTORE PUSH1 0x84 SWAP1 REVERT JUMPDEST PUSH1 0x40 MLOAD PUSH3 0x461BCD PUSH1 0xE5 SHL DUP2 MSTORE PUSH1 0x20 PUSH1 0x4 DUP3 ADD MSTORE PUSH1 0x23 PUSH1 0x24 DUP3 ADD MSTORE PUSH32 0x45524332303A207472616E7366657220746F20746865207A65726F2061646472 PUSH1 0x44 DUP3 ADD MSTORE PUSH3 0x657373 PUSH1 0xE8 SHL PUSH1 0x64 DUP3 ADD MSTORE PUSH1 0x84 SWAP1 REVERT JUMPDEST PUSH1 0x40 MLOAD PUSH3 0x461BCD PUSH1 0xE5 SHL DUP2 MSTORE PUSH1 0x20 PUSH1 0x4 DUP3 ADD MSTORE PUSH1 0x25 PUSH1 0x24 DUP3 ADD MSTORE PUSH32 0x45524332303A207472616E736665722066726F6D20746865207A65726F206164 PUSH1 0x44 DUP3 ADD MSTORE PUSH5 0x6472657373 PUSH1 0xD8 SHL PUSH1 0x64 DUP3 ADD MSTORE PUSH1 0x84 SWAP1 REVERT JUMPDEST PUSH1 0x1 PUSH1 0x1 PUSH1 0xA0 SHL SUB SWAP1 DUP2 AND SWAP2 DUP3 ISZERO PUSH2 0xF58 JUMPI AND SWAP2 DUP3 ISZERO PUSH2 0xF08 JUMPI PUSH1 0x20 PUSH32 0x8C5BE1E5EBEC7D5BD14F71427D1E84F3DD0314C0F7B2291E5B200AC8C7C3B925 SWAP2 DUP4 PUSH1 0x0 MSTORE PUSH1 0x1 DUP3 MSTORE PUSH1 0x40 PUSH1 0x0 KECCAK256 DUP6 PUSH1 0x0 MSTORE DUP3 MSTORE DUP1 PUSH1 0x40 PUSH1 0x0 KECCAK256 SSTORE PUSH1 0x40 MLOAD SWAP1 DUP2 MSTORE LOG3 JUMP JUMPDEST PUSH1 0x40 MLOAD PUSH3 0x461BCD PUSH1 0xE5 SHL DUP2 MSTORE PUSH1 0x20 PUSH1 0x4 DUP3 ADD MSTORE PUSH1 0x22 PUSH1 0x24 DUP3 ADD MSTORE PUSH32 0x45524332303A20617070726F766520746F20746865207A65726F206164647265 PUSH1 0x44 DUP3 ADD MSTORE PUSH2 0x7373 PUSH1 0xF0 SHL PUSH1 0x64 DUP3 ADD MSTORE PUSH1 0x84 SWAP1 REVERT JUMPDEST PUSH1 0x40 MLOAD PUSH3 0x461BCD PUSH1 0xE5 SHL DUP2 MSTORE PUSH1 0x20 PUSH1 0x4 DUP3 ADD MSTORE PUSH1 0x24 DUP1 DUP3 ADD MSTORE PUSH32 0x45524332303A20617070726F76652066726F6D20746865207A65726F20616464 PUSH1 0x44 DUP3 ADD MSTORE PUSH4 0x72657373 PUSH1 0xE0 SHL PUSH1 0x64 DUP3 ADD MSTORE PUSH1 0x84 SWAP1 REVERT JUMPDEST PUSH1 0x5 DUP2 LT ISZERO PUSH2 0x10AD JUMPI DUP1 PUSH2 0xFBA JUMPI POP JUMP JUMPDEST PUSH1 0x1 DUP2 SUB PUSH2 0x1007 JUMPI PUSH1 0x40 MLOAD PUSH3 0x461BCD PUSH1 0xE5 SHL DUP2 MSTORE PUSH1 0x20 PUSH1 0x4 DUP3 ADD MSTORE PUSH1 0x18 PUSH1 0x24 DUP3 ADD MSTORE PUSH32 0x45434453413A20696E76616C6964207369676E61747572650000000000000000 PUSH1 0x44 DUP3 ADD MSTORE PUSH1 0x64 SWAP1 REVERT JUMPDEST PUSH1 0x2 DUP2 SUB PUSH2 0x1054 JUMPI PUSH1 0x40 MLOAD PUSH3 0x461BCD PUSH1 0xE5 SHL DUP2 MSTORE PUSH1 0x20 PUSH1 0x4 DUP3 ADD MSTORE PUSH1 0x1F PUSH1 0x24 DUP3 ADD MSTORE PUSH32 0x45434453413A20696E76616C6964207369676E6174757265206C656E67746800 PUSH1 0x44 DUP3 ADD MSTORE PUSH1 0x64 SWAP1 REVERT JUMPDEST PUSH1 0x3 EQ PUSH2 0x105D JUMPI JUMP JUMPDEST PUSH1 0x40 MLOAD PUSH3 0x461BCD PUSH1 0xE5 SHL DUP2 MSTORE PUSH1 0x20 PUSH1 0x4 DUP3 ADD MSTORE PUSH1 0x22 PUSH1 0x24 DUP3 ADD MSTORE PUSH32 0x45434453413A20696E76616C6964207369676E6174757265202773272076616C PUSH1 0x44 DUP3 ADD MSTORE PUSH2 0x7565 PUSH1 0xF0 SHL PUSH1 0x64 DUP3 ADD MSTORE PUSH1 0x84 SWAP1 REVERT JUMPDEST PUSH4 0x4E487B71 PUSH1 0xE0 SHL PUSH1 0x0 MSTORE PUSH1 0x21 PUSH1 0x4 MSTORE PUSH1 0x24 PUSH1 0x0 REVERT JUMPDEST SWAP3 SWAP2 SWAP1 PUSH32 0x7FFFFFFFFFFFFFFFFFFFFFFFFFFFFFFF5D576E7357A4501DDFE92F46681B20A0 DUP4 GT PUSH2 0x1146 JUMPI SWAP2 PUSH1 0x80 SWAP5 SWAP4 SWAP2 PUSH1 0xFF PUSH1 0x20 SWAP5 PUSH1 0x40 MLOAD SWAP5 DUP6 MSTORE AND DUP5 DUP5 ADD MSTORE PUSH1 0x40 DUP4 ADD MSTORE PUSH1 0x60 DUP3 ADD MSTORE PUSH1 0x0 SWAP4 DUP5 SWAP2 DUP3 DUP1 MSTORE PUSH1 0x1 GAS STATICCALL ISZERO PUSH2 0x1139 JUMPI DUP2 MLOAD PUSH1 0x1 PUSH1 0x1 PUSH1 0xA0 SHL SUB DUP2 AND ISZERO PUSH2 0x1133 JUMPI SWAP2 SWAP1 JUMP JUMPDEST POP PUSH1 0x1 SWAP1 JUMP JUMPDEST POP PUSH1 0x40 MLOAD SWAP1 RETURNDATASIZE SWAP1 DUP3 RETURNDATACOPY RETURNDATASIZE SWAP1 REVERT JUMPDEST POP POP POP POP PUSH1 0x0 SWAP1 PUSH1 0x3 SWAP1 JUMP JUMPDEST ADDRESS PUSH32 0x0 PUSH1 0x1 PUSH1 0x1 PUSH1 0xA0 SHL SUB AND EQ DUP1 PUSH2 0x1254 JUMPI JUMPDEST ISZERO PUSH2 0x11AD JUMPI PUSH32 0x0 SWAP1 JUMP JUMPDEST PUSH1 0x40 MLOAD PUSH1 0x20 DUP2 ADD SWAP1 PUSH32 0x8B73C3C69BB8FE3D512ECC4CF759CC79239F7B179B0FFACAA9A75D522B39400F DUP3 MSTORE PUSH32 0x0 PUSH1 0x40 DUP3 ADD MSTORE PUSH32 0x0 PUSH1 0x60 DUP3 ADD MSTORE CHAINID PUSH1 0x80 DUP3 ADD MSTORE ADDRESS PUSH1 0xA0 DUP3 ADD MSTORE PUSH1 0xA0 DUP2 MSTORE PUSH1 0xC0 DUP2 ADD DUP2 DUP2 LT PUSH8 0xFFFFFFFFFFFFFFFF DUP3 GT OR PUSH2 0xCA9 JUMPI PUSH1 0x40 MSTORE MLOAD SWAP1 KECCAK256 SWAP1 JUMP JUMPDEST POP PUSH32 0x0 CHAINID EQ PUSH2 0x1184 JUMP JUMPDEST PUSH1 0xFF DUP2 EQ PUSH2 0x12BB JUMPI PUSH1 0xFF DUP2 AND SWAP1 PUSH1 0x1F DUP3 GT PUSH2 0x12A9 JUMPI PUSH1 0x40 MLOAD SWAP2 PUSH2 0x129F DUP4 PUSH2 0xC8D JUMP JUMPDEST DUP3 MSTORE PUSH1 0x20 DUP3 ADD MSTORE SWAP1 JUMP JUMPDEST PUSH1 0x40 MLOAD PUSH4 0x2CD44AC3 PUSH1 0xE2 SHL DUP2 MSTORE PUSH1 0x4 SWAP1 REVERT JUMPDEST POP PUSH1 0x40 MLOAD PUSH1 0x5 SLOAD DUP2 PUSH1 0x0 PUSH2 0x12CE DUP4 PUSH2 0xC53 JUMP JUMPDEST DUP1 DUP4 MSTORE SWAP3 PUSH1 0x1 SWAP1 DUP2 DUP2 AND SWAP1 DUP2 ISZERO PUSH2 0x1357 JUMPI POP PUSH1 0x1 EQ PUSH2 0x12F8 JUMPI JUMPDEST POP PUSH2 0x12F5 SWAP3 POP SUB DUP3 PUSH2 0xCBF JUMP JUMPDEST SWAP1 JUMP JUMPDEST PUSH1 0x5 PUSH1 0x0 SWAP1 DUP2 MSTORE SWAP2 POP PUSH32 0x36B6384B5ECA791C62761152D0C79BB0604C104A5FB6F4EB0703F3154BB3DB0 JUMPDEST DUP5 DUP4 LT PUSH2 0x133C JUMPI POP PUSH2 0x12F5 SWAP4 POP POP DUP2 ADD PUSH1 0x20 ADD CODESIZE PUSH2 0x12E8 JUMP JUMPDEST DUP2 SWAP4 POP SWAP1 DUP2 PUSH1 0x20 SWAP3 SLOAD DUP4 DUP6 DUP10 ADD ADD MSTORE ADD SWAP2 ADD SWAP1 SWAP2 DUP5 SWAP3 PUSH2 0x1323 JUMP JUMPDEST SWAP1 POP PUSH1 0x20 SWAP3 POP PUSH2 0x12F5 SWAP5 SWAP2 POP PUSH1 0xFF NOT AND DUP3 DUP5 ADD MSTORE ISZERO ISZERO PUSH1 0x5 SHL DUP3 ADD ADD CODESIZE PUSH2 0x12E8 JUMP JUMPDEST PUSH1 0xFF DUP2 EQ PUSH2 0x139B JUMPI PUSH1 0xFF DUP2 AND SWAP1 PUSH1 0x1F DUP3 GT PUSH2 0x12A9 JUMPI PUSH1 0x40 MLOAD SWAP2 PUSH2 0x129F DUP4 PUSH2 0xC8D JUMP JUMPDEST POP PUSH1 0x40 MLOAD PUSH1 0x6 SLOAD DUP2 PUSH1 0x0 PUSH2 0x13AE DUP4 PUSH2 0xC53 JUMP JUMPDEST DUP1 DUP4 MSTORE SWAP3 PUSH1 0x1 SWAP1 DUP2 DUP2 AND SWAP1 DUP2 ISZERO PUSH2 0x1357 JUMPI POP PUSH1 0x1 EQ PUSH2 0x13D4 JUMPI POP PUSH2 0x12F5 SWAP3 POP SUB DUP3 PUSH2 0xCBF JUMP JUMPDEST PUSH1 0x6 PUSH1 0x0 SWAP1 DUP2 MSTORE SWAP2 POP PUSH32 0xF652222313E28459528D920B65115C16C04F3EFC82AAEDC97BE59F3F377C0D3F JUMPDEST DUP5 DUP4 LT PUSH2 0x1418 JUMPI POP PUSH2 0x12F5 SWAP4 POP POP DUP2 ADD PUSH1 0x20 ADD CODESIZE PUSH2 0x12E8 JUMP JUMPDEST DUP2 SWAP4 POP SWAP1 DUP2 PUSH1 0x20 SWAP3 SLOAD DUP4 DUP6 DUP10 ADD ADD MSTORE ADD SWAP2 ADD SWAP1 SWAP2 DUP5 SWAP3 PUSH2 0x13FF JUMP INVALID LOG1 PUSH5 0x736F6C6343 STOP ADDMOD EQ STOP EXP 0xC6 GAS PUSH28 0xB8D6351C1CF70C95A316CC6A92839C986682D98BC35F958F4883F9D2 0xA8 LOG1 PUSH5 0x736F6C6343 STOP ADDMOD EQ STOP EXP 0x2F DUP8 DUP9 GT PUSH31 0x7EFF1D82E926EC794901D17C78024A50270940304540A733656F0D00000000 "},"methodIdentifiers":{"DEFAULT_ADMIN_ROLE()":"a217fddf","OPERATOR_ROLE()":"f5b541a6","PAUSER_ROLE()":"e63ab1e9","addToWhitelist(address,address[])":"e559afd9","addTokenLiquidity(address,uint256)":"14fe72aa","allTokens(uint256)":"634282af","buyPresale(address,uint256,uint256,address,bytes32[])":"d9d0a5be","buyToken(address,uint256,address)":"692bf4a8","configureDex(address,address)":"dc97ecf6","createMemeCoin(string,string,string,uint256,uint256,string)":"d634b419","createPair(address)":"9ccb0744","creatorFeesAccrued(address)":"c748713e","dexHelper()":"e4c608f1","endSale(address)":"8c9f7b39","getAllTokenInfo()":"95abc091","getRoleAdmin(bytes32)":"248a9ca3","getTokenInfoByAddress(address)":"3df9a720","getTokens(uint256,uint256)":"494cfc6c","getUserHoldings(address)":"8231f4f0","grantRole(bytes32,address)":"2f2ff15d","hasRole(bytes32,address)":"91d14854","paused()":"5c975abb","platformFeeBP()":"ff96092a","platformFeesAccrued()":"22163b86","presaleClaimed(address,address)":"ac76d084","presaleMerkleRoot()":"22212e2b","referralFeeBP()":"dc4ec9be","removeFromWhitelist(address,address[])":"ad3e080a","removeTokenLiquidity(address,uint256)":"84d93612","renounceRole(bytes32,address)":"36568abe","revokeRole(bytes32,address)":"d547741f","setDexHelper(address)":"15a1603b","setPresaleMerkleRoot(bytes32)":"28d7b276","supportsInterface(bytes4)":"01ffc9a7","sweepHelperDust(address,address)":"943711ea","toggleListingActive(address,bool)":"a9e3929e","toggleWhitelist(address,bool)":"349123d1","tokenIndexPlusOne(address)":"35a62e68","tokenPaused(address)":"8995881d","totalTokens()":"7e1c0c09","updateFees(uint16,uint16)":"f3d2350e","whitelistEnabled(address)":"79c8ffd6","whitelisted(address,address)":"bc120fe7","withdrawCreatorFeesBatch(address[])":"e5f8af9f","withdrawMyCreatorFees()":"336322d2","withdrawPlatformFees(address)":"ec3889b5"}}}}}