{"contracts/MemeCoinVestingManager.sol":{"MemeCoinVestingManager":{"abi":[{"inputs":[],"stateMutability":"nonpayable","type":"constructor"},{"inputs":[],"name":"BadParams","type":"error"},{"inputs":[],"name":"InsufficientBalance","type":"error"},{"inputs":[],"name":"NothingToClaim","type":"error"},{"anonymous":false,"inputs":[{"indexed":false,"internalType":"address","name":"account","type":"address"}],"name":"Paused","type":"event"},{"anonymous":false,"inputs":[{"indexed":true,"internalType":"bytes32","name":"role","type":"bytes32"},{"indexed":true,"internalType":"bytes32","name":"previousAdminRole","type":"bytes32"},{"indexed":true,"internalType":"bytes32","name":"newAdminRole","type":"bytes32"}],"name":"RoleAdminChanged","type":"event"},{"anonymous":false,"inputs":[{"indexed":true,"internalType":"bytes32","name":"role","type":"bytes32"},{"indexed":true,"internalType":"address","name":"account","type":"address"},{"indexed":true,"internalType":"address","name":"sender","type":"address"}],"name":"RoleGranted","type":"event"},{"anonymous":false,"inputs":[{"indexed":true,"internalType":"bytes32","name":"role","type":"bytes32"},{"indexed":true,"internalType":"address","name":"account","type":"address"},{"indexed":true,"internalType":"address","name":"sender","type":"address"}],"name":"RoleRevoked","type":"event"},{"anonymous":false,"inputs":[{"indexed":false,"internalType":"address","name":"account","type":"address"}],"name":"Unpaused","type":"event"},{"anonymous":false,"inputs":[{"indexed":true,"internalType":"address","name":"beneficiary","type":"address"},{"indexed":true,"internalType":"address","name":"token","type":"address"},{"indexed":false,"internalType":"uint256","name":"amount","type":"uint256"}],"name":"VestedClaimed","type":"event"},{"anonymous":false,"inputs":[{"indexed":true,"internalType":"address","name":"beneficiary","type":"address"},{"indexed":true,"internalType":"address","name":"token","type":"address"},{"indexed":false,"internalType":"uint256","name":"total","type":"uint256"},{"indexed":false,"internalType":"uint256","name":"start","type":"uint256"},{"indexed":false,"internalType":"uint256","name":"cliff","type":"uint256"},{"indexed":false,"internalType":"uint256","name":"duration","type":"uint256"}],"name":"VestingScheduleSet","type":"event"},{"stateMutability":"payable","type":"fallback"},{"inputs":[],"name":"DEFAULT_ADMIN_ROLE","outputs":[{"internalType":"bytes32","name":"","type":"bytes32"}],"stateMutability":"view","type":"function"},{"inputs":[],"name":"OPERATOR_ROLE","outputs":[{"internalType":"bytes32","name":"","type":"bytes32"}],"stateMutability":"view","type":"function"},{"inputs":[],"name":"claimVested","outputs":[],"stateMutability":"nonpayable","type":"function"},{"inputs":[],"name":"emergencyWithdrawETH","outputs":[],"stateMutability":"nonpayable","type":"function"},{"inputs":[{"internalType":"bytes32","name":"role","type":"bytes32"}],"name":"getRoleAdmin","outputs":[{"internalType":"bytes32","name":"","type":"bytes32"}],"stateMutability":"view","type":"function"},{"inputs":[{"internalType":"address","name":"beneficiary","type":"address"},{"internalType":"uint256","name":"index","type":"uint256"}],"name":"getVestingSchedule","outputs":[{"internalType":"address","name":"token","type":"address"},{"internalType":"uint256","name":"total","type":"uint256"},{"internalType":"uint256","name":"claimed","type":"uint256"},{"internalType":"uint256","name":"start","type":"uint256"},{"internalType":"uint256","name":"cliff","type":"uint256"},{"internalType":"uint256","name":"duration","type":"uint256"}],"stateMutability":"view","type":"function"},{"inputs":[{"internalType":"bytes32","name":"role","type":"bytes32"},{"internalType":"address","name":"account","type":"address"}],"name":"grantRole","outputs":[],"stateMutability":"nonpayable","type":"function"},{"inputs":[{"internalType":"bytes32","name":"role","type":"bytes32"},{"internalType":"address","name":"account","type":"address"}],"name":"hasRole","outputs":[{"internalType":"bool","name":"","type":"bool"}],"stateMutability":"view","type":"function"},{"inputs":[],"name":"pause","outputs":[],"stateMutability":"nonpayable","type":"function"},{"inputs":[],"name":"paused","outputs":[{"internalType":"bool","name":"","type":"bool"}],"stateMutability":"view","type":"function"},{"inputs":[{"internalType":"bytes32","name":"role","type":"bytes32"},{"internalType":"address","name":"account","type":"address"}],"name":"renounceRole","outputs":[],"stateMutability":"nonpayable","type":"function"},{"inputs":[{"internalType":"address","name":"token","type":"address"},{"internalType":"uint256","name":"amount","type":"uint256"}],"name":"rescueERC20","outputs":[],"stateMutability":"nonpayable","type":"function"},{"inputs":[{"internalType":"bytes32","name":"role","type":"bytes32"},{"internalType":"address","name":"account","type":"address"}],"name":"revokeRole","outputs":[],"stateMutability":"nonpayable","type":"function"},{"inputs":[{"internalType":"address","name":"beneficiary","type":"address"},{"internalType":"address","name":"token","type":"address"},{"internalType":"uint256","name":"total","type":"uint256"},{"internalType":"uint256","name":"cliff","type":"uint256"},{"internalType":"uint256","name":"duration","type":"uint256"}],"name":"setVestingSchedule","outputs":[],"stateMutability":"nonpayable","type":"function"},{"inputs":[{"internalType":"bytes4","name":"interfaceId","type":"bytes4"}],"name":"supportsInterface","outputs":[{"internalType":"bool","name":"","type":"bool"}],"stateMutability":"view","type":"function"},{"inputs":[],"name":"unpause","outputs":[],"stateMutability":"nonpayable","type":"function"},{"inputs":[{"internalType":"address","name":"beneficiary","type":"address"}],"name":"vestingScheduleCount","outputs":[{"internalType":"uint256","name":"","type":"uint256"}],"stateMutability":"view","type":"function"},{"inputs":[{"internalType":"address","name":"","type":"address"},{"internalType":"uint256","name":"","type":"uint256"}],"name":"vestingSchedules","outputs":[{"internalType":"address","name":"token","type":"address"},{"internalType":"uint256","name":"total","type":"uint256"},{"internalType":"uint256","name":"claimed","type":"uint256"},{"internalType":"uint256","name":"start","type":"uint256"},{"internalType":"uint256","name":"cliff","type":"uint256"},{"internalType":"uint256","name":"duration","type":"uint256"}],"stateMutability":"view","type":"function"},{"stateMutability":"payable","type":"receive"}],"evm":{"bytecode":{"linkReferences":{},"object":"60806040818152346100f15760ff19806001541660015560016002556000908180526020828152838320338452815260ff8484205416156100bd575b7f97667070c54ef182b0f5858b034beac1b6f3089aa2d3188bb1e8929f4fa9b92993848452838252808420338552825260ff818520541615610084575b61145686816100f78239f35b6001918585528481528185209033865252832091825416179055339160008051602061154d833981519152339280a43880808080610078565b828052828152838320338452815283832060018382541617905533338460008051602061154d8339815191528180a461003b565b600080fdfe6080604081815260049182361015610025575b505050361561002057600080fd5b600080fd5b600092833560e01c91826301ffc9a714610c0857508163248a9ca314610bde5781632f2ff15d14610b3557816336568abe14610aa35781633d94bdbb146106905781633f4ba83a146105fa57816345626bd6146105ad5781635c975abb1461058957816384536017146105435781638456cb59146104e95781638cd4426d146104ae57816391d1485414610468578163a217fddf1461044d578163a9bb5c4c14610415578163bed9757e1461037d578163d01c44cd1461017a578163d547741f14610138575063f5b541a6146100fb5780610012565b34610134578160031936011261013457602090517f97667070c54ef182b0f5858b034beac1b6f3089aa2d3188bb1e8929f4fa9b9298152f35b5080fd5b91905034610176578060031936011261017657610173913561016e600161015d610c5b565b938387528660205286200154610e80565b61102c565b80f35b8280fd5b839150346101345781600319360112610134576101956111e3565b6002928380541461033a578380553383526003602094818652828520958591865b885481101561031a576101c9818a610c87565b508281018054906001830154808310610205575b5050505060001981146101f2576001016101b6565b634e487b7160e01b885260118752602488fd5b826102138a86015442611227565b8d8d8701549182811060001461029e575090506102309250611227565b9182156101dd57968293979161024a8461025195946110a0565b90556110a0565b9460018060a01b0390610268833384845416611234565b54169087519081527f3dea86ee53588906162d63de35783619d0db9b5d981641af560779a1e32940ec853392a3898080806101dd565b600588015491508181106102b85750505061023091611227565b829350916102c69192611227565b9283810293818504149015171561030757906102e191611227565b9081156102f45761023091849104611227565b634e487b7160e01b8d5260128c5260248dfd5b634e487b7160e01b8e5260118d5260248efd5b5094939250501561032d57836001845580f35b516312d37ee560e31b8152fd5b906020606492519162461bcd60e51b8352820152601f60248201527f5265656e7472616e637947756172643a207265656e7472616e742063616c6c006044820152fd5b8383346101345780600319360112610134576001600160a01b039161041191906103bd90846103aa610c71565b1681526003602052826024359120610c87565b509283541692600181015494600282015460056003840154928401549301549351968796879260a094919796959260c0850198600180881b0316855260208501526040840152606083015260808201520152565b0390f35b5050346101345760203660031901126101345760209181906001600160a01b0361043d610c71565b1681526003845220549051908152f35b50503461013457816003193601126101345751908152602090f35b9050346101765781600319360112610176578160209360ff92610489610c5b565b903582528186528282206001600160a01b039091168252855220549151911615158152f35b505034610134573660031901126104e6576101736104ca610c71565b6104d2610cb9565b6024359033906001600160a01b0316611234565b80fd5b50503461013457816003193601126101345760207f62e78cea01bee320cd4e420270b5ea74000d11b0c9f74754ebdbfc544b05a25891610527610cb9565b61052f6111e3565b600160ff198154161760015551338152a180f35b50503461013457816003193601126101345761055d610cb9565b8180808047818115610580575b3390f115610576575080f35b51903d90823e3d90fd5b506108fc61056a565b50503461013457816003193601126101345760209060ff6001541690519015158152f35b8383346101345780600319360112610134576105c7610c71565b6001600160a01b039081168352600360205281832080549193602435928310156104e6575061041192916103bd91610c87565b905034610176578260031936011261017657610614610cb9565b6001549060ff821615610656575060ff1916600155513381527f5db9ee0a495bf2e6ff9c91a7834c1ba4fdd244a5e8aa4e537bd38aeae4b073aa90602090a180f35b606490602084519162461bcd60e51b8352820152601460248201527314185d5cd8589b194e881b9bdd081c185d5cd95960621b6044820152fd5b9050346101765760a0366003190112610176576106ab610c71565b916106b4610c5b565b6044359160643590608435927f97667070c54ef182b0f5858b034beac1b6f3089aa2d3188bb1e8929f4fa9b92990818952602091898352838a20338b52835260ff848b205416156108e057506107086111e3565b851580156108d6575b6108c65782516370a0823160e01b815230888201526001600160a01b03918216989083816024818d5afa9081156108bc579088918c91610887575b501061087757811696878a5260038352838a209084519260c0840184811067ffffffffffffffff8211176108645786528a84528484018981528685018d8152606086019142835260808701938a855260a08801968c88528054906801000000000000000082101561084e57906107c791600182018155610c87565b98909861083a575188546001600160a01b0319169116178755516001870155516002860155516003850155519083015551600591909101558151948552429085015283015260608201527f85ea0818780c5d304e8bfc41cc38a02f61338ca0966c8bbb0b883de4cce660fd90608090a380f35b5050634e487b7160e01b8f528e855260248ffd5b50505060248f604187634e487b7160e01b835252fd5b634e487b7160e01b8d526041835260248dfd5b8351631e9acf1760e31b81528890fd5b809250858092503d83116108b5575b6108a08183610fde565b810103126108b1578790513861074c565b8a80fd5b503d610896565b85513d8d823e3d90fd5b825163019af63760e01b81528790fd5b5083851115610711565b87838b86936108ee336110d4565b8551916108fa83610fac565b60428352848301936060368637835115610a905760308553835190600191821015610a7d5790607860218601536041915b818311610a12575050506109d0576109cc9386936109b8936109a96048946109809a519a8576020b1b1b2b9b9a1b7b73a3937b61d1030b1b1b7bab73a1604d1b8d978801528251928391603789019101610f89565b8401917001034b99036b4b9b9b4b733903937b6329607d1b603784015251809386840190610f89565b01036028810187520185610fde565b5162461bcd60e51b81529283928301611000565b0390fd5b50505080606493519262461bcd60e51b845283015260248201527f537472696e67733a20686578206c656e67746820696e73756666696369656e746044820152fd5b909192600f81166010811015610a6a576f181899199a1a9b1b9c1cb0b131b232b360811b901a610a4285886110c3565b53881c928015610a575760001901919061092b565b634e487b7160e01b825260118952602482fd5b634e487b7160e01b835260328a52602483fd5b634e487b7160e01b815260328852602490fd5b634e487b7160e01b815260328752602490fd5b83915034610134578260031936011261013457610abe610c5b565b90336001600160a01b03831603610ada5790610173913561102c565b608490602085519162461bcd60e51b8352820152602f60248201527f416363657373436f6e74726f6c3a2063616e206f6e6c792072656e6f756e636560448201526e103937b632b9903337b91039b2b63360891b6064820152fd5b9050346101765781600319360112610176573590610b51610c5b565b9082845283602052610b6860018286200154610e80565b82845260208481528185206001600160a01b039093168086529290528084205460ff1615610b94578380f35b828452836020528084208285526020528320600160ff1982541617905533917f2f8788117e7eff1d82e926ec794901d17c78024a50270940304540a733656f0d8480a43880808380f35b90503461017657602036600319011261017657816020936001923581528085522001549051908152f35b849134610176576020366003190112610176573563ffffffff60e01b81168091036101765760209250637965db0b60e01b8114908115610c4a575b5015158152f35b6301ffc9a760e01b14905083610c43565b602435906001600160a01b038216820361002057565b600435906001600160a01b038216820361002057565b8054821015610ca3576000526006602060002091020190600090565b634e487b7160e01b600052603260045260246000fd5b3360009081527fad3228b676f7d3cd4284a5443f17f1962b36e491b30a40b2405849e597ba5fb5602090815260408083205490929060ff1615610cfb57505050565b610d04336110d4565b83519082610d1183610fac565b60428352848301936060368637835115610e6c5760308553835190600191821015610e6c5790607860218601536041915b818311610dfe57505050610dbc57610980938593610da693610d976048946109cc9951988576020b1b1b2b9b9a1b7b73a3937b61d1030b1b1b7bab73a1604d1b8b978801528251928391603789019101610f89565b01036028810185520183610fde565b5162461bcd60e51b815291829160048301611000565b60648486519062461bcd60e51b825280600483015260248201527f537472696e67733a20686578206c656e67746820696e73756666696369656e746044820152fd5b909192600f81166010811015610e58576f181899199a1a9b1b9c1cb0b131b232b360811b901a610e2e85886110c3565b5360041c928015610e4457600019019190610d42565b634e487b7160e01b82526011600452602482fd5b634e487b7160e01b83526032600452602483fd5b634e487b7160e01b81526032600452602490fd5b6000818152602090808252604092838220338352835260ff848320541615610ea85750505050565b610eb1336110d4565b845191610ebd83610fac565b60428352848301936060368637835115610e6c5760308553835190600191821015610e6c5790607860218601536041915b818311610f4357505050610dbc57610980938593610da693610d976048946109cc9951988576020b1b1b2b9b9a1b7b73a3937b61d1030b1b1b7bab73a1604d1b8b978801528251928391603789019101610f89565b909192600f81166010811015610e58576f181899199a1a9b1b9c1cb0b131b232b360811b901a610f7385886110c3565b5360041c928015610e4457600019019190610eee565b60005b838110610f9c5750506000910152565b8181015183820152602001610f8c565b6080810190811067ffffffffffffffff821117610fc857604052565b634e487b7160e01b600052604160045260246000fd5b90601f8019910116810190811067ffffffffffffffff821117610fc857604052565b604091602082526110208151809281602086015260208686019101610f89565b601f01601f1916010190565b9060009180835282602052604083209160018060a01b03169182845260205260ff60408420541661105c57505050565b80835282602052604083208284526020526040832060ff1981541690557ff6391f5c32d9c69d2a47ea670b442974b53935d1edc7fd64eb21e047a839171b339380a4565b919082018092116110ad57565b634e487b7160e01b600052601160045260246000fd5b908151811015610ca3570160200190565b604051906060820182811067ffffffffffffffff821117610fc857604052602a8252602082016040368237825115610ca357603090538151600190811015610ca357607860218401536029905b8082116111755750506111315790565b606460405162461bcd60e51b815260206004820152602060248201527f537472696e67733a20686578206c656e67746820696e73756666696369656e746044820152fd5b9091600f811660108110156111ce576f181899199a1a9b1b9c1cb0b131b232b360811b901a6111a484866110c3565b5360041c9180156111b9576000190190611121565b60246000634e487b7160e01b81526011600452fd5b60246000634e487b7160e01b81526032600452fd5b60ff600154166111ef57565b60405162461bcd60e51b815260206004820152601060248201526f14185d5cd8589b194e881c185d5cd95960821b6044820152606490fd5b919082039182116110ad57565b60405163a9059cbb60e01b60208083019182526001600160a01b03948516602484015260448084019690965294825292608082019267ffffffffffffffff92919083851183861017610fc857169060c0810184811084821117610fc8576040528584527f5361666545524332303a206c6f772d6c6576656c2063616c6c206661696c656460a0820152600080958192519082855af1903d156113ad573d9283116113995790611303939291604051926112f688601f19601f8401160185610fde565b83523d868885013e6113b8565b805191821591848315611375575b50505090501561131e5750565b6084906040519062461bcd60e51b82526004820152602a60248201527f5361666545524332303a204552433230206f7065726174696f6e20646964206e6044820152691bdd081cdd58d8d9595960b21b6064820152fd5b919381809450010312610134578201519081151582036104e6575080388084611311565b634e487b7160e01b85526041600452602485fd5b906113039392506060915b9192901561141a57508151156113cc575090565b3b156113d55790565b60405162461bcd60e51b815260206004820152601d60248201527f416464726573733a2063616c6c20746f206e6f6e2d636f6e74726163740000006044820152606490fd5b82519091501561142d5750805190602001fd5b60405162461bcd60e51b81529081906109cc906004830161100056fea164736f6c6343000814000a2f8788117e7eff1d82e926ec794901d17c78024a50270940304540a733656f0d","opcodes":"PUSH1 0x80 PUSH1 0x40 DUP2 DUP2 MSTORE CALLVALUE PUSH2 0xF1 JUMPI PUSH1 0xFF NOT DUP1 PUSH1 0x1 SLOAD AND PUSH1 0x1 SSTORE PUSH1 0x1 PUSH1 0x2 SSTORE PUSH1 0x0 SWAP1 DUP2 DUP1 MSTORE PUSH1 0x20 DUP3 DUP2 MSTORE DUP4 DUP4 KECCAK256 CALLER DUP5 MSTORE DUP2 MSTORE PUSH1 0xFF DUP5 DUP5 KECCAK256 SLOAD AND ISZERO PUSH2 0xBD JUMPI JUMPDEST PUSH32 0x97667070C54EF182B0F5858B034BEAC1B6F3089AA2D3188BB1E8929F4FA9B929 SWAP4 DUP5 DUP5 MSTORE DUP4 DUP3 MSTORE DUP1 DUP5 KECCAK256 CALLER DUP6 MSTORE DUP3 MSTORE PUSH1 0xFF DUP2 DUP6 KECCAK256 SLOAD AND ISZERO PUSH2 0x84 JUMPI JUMPDEST PUSH2 0x1456 DUP7 DUP2 PUSH2 0xF7 DUP3 CODECOPY RETURN JUMPDEST PUSH1 0x1 SWAP2 DUP6 DUP6 MSTORE DUP5 DUP2 MSTORE DUP2 DUP6 KECCAK256 SWAP1 CALLER DUP7 MSTORE MSTORE DUP4 KECCAK256 SWAP2 DUP3 SLOAD AND OR SWAP1 SSTORE CALLER SWAP2 PUSH1 0x0 DUP1 MLOAD PUSH1 0x20 PUSH2 0x154D DUP4 CODECOPY DUP2 MLOAD SWAP2 MSTORE CALLER SWAP3 DUP1 LOG4 CODESIZE DUP1 DUP1 DUP1 DUP1 PUSH2 0x78 JUMP JUMPDEST DUP3 DUP1 MSTORE DUP3 DUP2 MSTORE DUP4 DUP4 KECCAK256 CALLER DUP5 MSTORE DUP2 MSTORE DUP4 DUP4 KECCAK256 PUSH1 0x1 DUP4 DUP3 SLOAD AND OR SWAP1 SSTORE CALLER CALLER DUP5 PUSH1 0x0 DUP1 MLOAD PUSH1 0x20 PUSH2 0x154D DUP4 CODECOPY DUP2 MLOAD SWAP2 MSTORE DUP2 DUP1 LOG4 PUSH2 0x3B JUMP JUMPDEST PUSH1 0x0 DUP1 REVERT INVALID PUSH1 0x80 PUSH1 0x40 DUP2 DUP2 MSTORE PUSH1 0x4 SWAP2 DUP3 CALLDATASIZE LT ISZERO PUSH2 0x25 JUMPI JUMPDEST POP POP POP CALLDATASIZE ISZERO PUSH2 0x20 JUMPI PUSH1 0x0 DUP1 REVERT JUMPDEST PUSH1 0x0 DUP1 REVERT JUMPDEST PUSH1 0x0 SWAP3 DUP4 CALLDATALOAD PUSH1 0xE0 SHR SWAP2 DUP3 PUSH4 0x1FFC9A7 EQ PUSH2 0xC08 JUMPI POP DUP2 PUSH4 0x248A9CA3 EQ PUSH2 0xBDE JUMPI DUP2 PUSH4 0x2F2FF15D EQ PUSH2 0xB35 JUMPI DUP2 PUSH4 0x36568ABE EQ PUSH2 0xAA3 JUMPI DUP2 PUSH4 0x3D94BDBB EQ PUSH2 0x690 JUMPI DUP2 PUSH4 0x3F4BA83A EQ PUSH2 0x5FA JUMPI DUP2 PUSH4 0x45626BD6 EQ PUSH2 0x5AD JUMPI DUP2 PUSH4 0x5C975ABB EQ PUSH2 0x589 JUMPI DUP2 PUSH4 0x84536017 EQ PUSH2 0x543 JUMPI DUP2 PUSH4 0x8456CB59 EQ PUSH2 0x4E9 JUMPI DUP2 PUSH4 0x8CD4426D EQ PUSH2 0x4AE JUMPI DUP2 PUSH4 0x91D14854 EQ PUSH2 0x468 JUMPI DUP2 PUSH4 0xA217FDDF EQ PUSH2 0x44D JUMPI DUP2 PUSH4 0xA9BB5C4C EQ PUSH2 0x415 JUMPI DUP2 PUSH4 0xBED9757E EQ PUSH2 0x37D JUMPI DUP2 PUSH4 0xD01C44CD EQ PUSH2 0x17A JUMPI DUP2 PUSH4 0xD547741F EQ PUSH2 0x138 JUMPI POP PUSH4 0xF5B541A6 EQ PUSH2 0xFB JUMPI DUP1 PUSH2 0x12 JUMP JUMPDEST CALLVALUE PUSH2 0x134 JUMPI DUP2 PUSH1 0x3 NOT CALLDATASIZE ADD SLT PUSH2 0x134 JUMPI PUSH1 0x20 SWAP1 MLOAD PUSH32 0x97667070C54EF182B0F5858B034BEAC1B6F3089AA2D3188BB1E8929F4FA9B929 DUP2 MSTORE RETURN JUMPDEST POP DUP1 REVERT JUMPDEST SWAP2 SWAP1 POP CALLVALUE PUSH2 0x176 JUMPI DUP1 PUSH1 0x3 NOT CALLDATASIZE ADD SLT PUSH2 0x176 JUMPI PUSH2 0x173 SWAP2 CALLDATALOAD PUSH2 0x16E PUSH1 0x1 PUSH2 0x15D PUSH2 0xC5B JUMP JUMPDEST SWAP4 DUP4 DUP8 MSTORE DUP7 PUSH1 0x20 MSTORE DUP7 KECCAK256 ADD SLOAD PUSH2 0xE80 JUMP JUMPDEST PUSH2 0x102C JUMP JUMPDEST DUP1 RETURN JUMPDEST DUP3 DUP1 REVERT JUMPDEST DUP4 SWAP2 POP CALLVALUE PUSH2 0x134 JUMPI DUP2 PUSH1 0x3 NOT CALLDATASIZE ADD SLT PUSH2 0x134 JUMPI PUSH2 0x195 PUSH2 0x11E3 JUMP JUMPDEST PUSH1 0x2 SWAP3 DUP4 DUP1 SLOAD EQ PUSH2 0x33A JUMPI DUP4 DUP1 SSTORE CALLER DUP4 MSTORE PUSH1 0x3 PUSH1 0x20 SWAP5 DUP2 DUP7 MSTORE DUP3 DUP6 KECCAK256 SWAP6 DUP6 SWAP2 DUP7 JUMPDEST DUP9 SLOAD DUP2 LT ISZERO PUSH2 0x31A JUMPI PUSH2 0x1C9 DUP2 DUP11 PUSH2 0xC87 JUMP JUMPDEST POP DUP3 DUP2 ADD DUP1 SLOAD SWAP1 PUSH1 0x1 DUP4 ADD SLOAD DUP1 DUP4 LT PUSH2 0x205 JUMPI JUMPDEST POP POP POP POP PUSH1 0x0 NOT DUP2 EQ PUSH2 0x1F2 JUMPI PUSH1 0x1 ADD PUSH2 0x1B6 JUMP JUMPDEST PUSH4 0x4E487B71 PUSH1 0xE0 SHL DUP9 MSTORE PUSH1 0x11 DUP8 MSTORE PUSH1 0x24 DUP9 REVERT JUMPDEST DUP3 PUSH2 0x213 DUP11 DUP7 ADD SLOAD TIMESTAMP PUSH2 0x1227 JUMP JUMPDEST DUP14 DUP14 DUP8 ADD SLOAD SWAP2 DUP3 DUP2 LT PUSH1 0x0 EQ PUSH2 0x29E JUMPI POP SWAP1 POP PUSH2 0x230 SWAP3 POP PUSH2 0x1227 JUMP JUMPDEST SWAP2 DUP3 ISZERO PUSH2 0x1DD JUMPI SWAP7 DUP3 SWAP4 SWAP8 SWAP2 PUSH2 0x24A DUP5 PUSH2 0x251 SWAP6 SWAP5 PUSH2 0x10A0 JUMP JUMPDEST SWAP1 SSTORE PUSH2 0x10A0 JUMP JUMPDEST SWAP5 PUSH1 0x1 DUP1 PUSH1 0xA0 SHL SUB SWAP1 PUSH2 0x268 DUP4 CALLER DUP5 DUP5 SLOAD AND PUSH2 0x1234 JUMP JUMPDEST SLOAD AND SWAP1 DUP8 MLOAD SWAP1 DUP2 MSTORE PUSH32 0x3DEA86EE53588906162D63DE35783619D0DB9B5D981641AF560779A1E32940EC DUP6 CALLER SWAP3 LOG3 DUP10 DUP1 DUP1 DUP1 PUSH2 0x1DD JUMP JUMPDEST PUSH1 0x5 DUP9 ADD SLOAD SWAP2 POP DUP2 DUP2 LT PUSH2 0x2B8 JUMPI POP POP POP PUSH2 0x230 SWAP2 PUSH2 0x1227 JUMP JUMPDEST DUP3 SWAP4 POP SWAP2 PUSH2 0x2C6 SWAP2 SWAP3 PUSH2 0x1227 JUMP JUMPDEST SWAP3 DUP4 DUP2 MUL SWAP4 DUP2 DUP6 DIV EQ SWAP1 ISZERO OR ISZERO PUSH2 0x307 JUMPI SWAP1 PUSH2 0x2E1 SWAP2 PUSH2 0x1227 JUMP JUMPDEST SWAP1 DUP2 ISZERO PUSH2 0x2F4 JUMPI PUSH2 0x230 SWAP2 DUP5 SWAP2 DIV PUSH2 0x1227 JUMP JUMPDEST PUSH4 0x4E487B71 PUSH1 0xE0 SHL DUP14 MSTORE PUSH1 0x12 DUP13 MSTORE PUSH1 0x24 DUP14 REVERT JUMPDEST PUSH4 0x4E487B71 PUSH1 0xE0 SHL DUP15 MSTORE PUSH1 0x11 DUP14 MSTORE PUSH1 0x24 DUP15 REVERT JUMPDEST POP SWAP5 SWAP4 SWAP3 POP POP ISZERO PUSH2 0x32D JUMPI DUP4 PUSH1 0x1 DUP5 SSTORE DUP1 RETURN JUMPDEST MLOAD PUSH4 0x12D37EE5 PUSH1 0xE3 SHL DUP2 MSTORE REVERT JUMPDEST SWAP1 PUSH1 0x20 PUSH1 0x64 SWAP3 MLOAD SWAP2 PUSH3 0x461BCD PUSH1 0xE5 SHL DUP4 MSTORE DUP3 ADD MSTORE PUSH1 0x1F PUSH1 0x24 DUP3 ADD MSTORE PUSH32 0x5265656E7472616E637947756172643A207265656E7472616E742063616C6C00 PUSH1 0x44 DUP3 ADD MSTORE REVERT JUMPDEST DUP4 DUP4 CALLVALUE PUSH2 0x134 JUMPI DUP1 PUSH1 0x3 NOT CALLDATASIZE ADD SLT PUSH2 0x134 JUMPI PUSH1 0x1 PUSH1 0x1 PUSH1 0xA0 SHL SUB SWAP2 PUSH2 0x411 SWAP2 SWAP1 PUSH2 0x3BD SWAP1 DUP5 PUSH2 0x3AA PUSH2 0xC71 JUMP JUMPDEST AND DUP2 MSTORE PUSH1 0x3 PUSH1 0x20 MSTORE DUP3 PUSH1 0x24 CALLDATALOAD SWAP2 KECCAK256 PUSH2 0xC87 JUMP JUMPDEST POP SWAP3 DUP4 SLOAD AND SWAP3 PUSH1 0x1 DUP2 ADD SLOAD SWAP5 PUSH1 0x2 DUP3 ADD SLOAD PUSH1 0x5 PUSH1 0x3 DUP5 ADD SLOAD SWAP3 DUP5 ADD SLOAD SWAP4 ADD SLOAD SWAP4 MLOAD SWAP7 DUP8 SWAP7 DUP8 SWAP3 PUSH1 0xA0 SWAP5 SWAP2 SWAP8 SWAP7 SWAP6 SWAP3 PUSH1 0xC0 DUP6 ADD SWAP9 PUSH1 0x1 DUP1 DUP9 SHL SUB AND DUP6 MSTORE PUSH1 0x20 DUP6 ADD MSTORE PUSH1 0x40 DUP5 ADD MSTORE PUSH1 0x60 DUP4 ADD MSTORE PUSH1 0x80 DUP3 ADD MSTORE ADD MSTORE JUMP JUMPDEST SUB SWAP1 RETURN JUMPDEST POP POP CALLVALUE PUSH2 0x134 JUMPI PUSH1 0x20 CALLDATASIZE PUSH1 0x3 NOT ADD SLT PUSH2 0x134 JUMPI PUSH1 0x20 SWAP2 DUP2 SWAP1 PUSH1 0x1 PUSH1 0x1 PUSH1 0xA0 SHL SUB PUSH2 0x43D PUSH2 0xC71 JUMP JUMPDEST AND DUP2 MSTORE PUSH1 0x3 DUP5 MSTORE KECCAK256 SLOAD SWAP1 MLOAD SWAP1 DUP2 MSTORE RETURN JUMPDEST POP POP CALLVALUE PUSH2 0x134 JUMPI DUP2 PUSH1 0x3 NOT CALLDATASIZE ADD SLT PUSH2 0x134 JUMPI MLOAD SWAP1 DUP2 MSTORE PUSH1 0x20 SWAP1 RETURN JUMPDEST SWAP1 POP CALLVALUE PUSH2 0x176 JUMPI DUP2 PUSH1 0x3 NOT CALLDATASIZE ADD SLT PUSH2 0x176 JUMPI DUP2 PUSH1 0x20 SWAP4 PUSH1 0xFF SWAP3 PUSH2 0x489 PUSH2 0xC5B JUMP JUMPDEST SWAP1 CALLDATALOAD DUP3 MSTORE DUP2 DUP7 MSTORE DUP3 DUP3 KECCAK256 PUSH1 0x1 PUSH1 0x1 PUSH1 0xA0 SHL SUB SWAP1 SWAP2 AND DUP3 MSTORE DUP6 MSTORE KECCAK256 SLOAD SWAP2 MLOAD SWAP2 AND ISZERO ISZERO DUP2 MSTORE RETURN JUMPDEST POP POP CALLVALUE PUSH2 0x134 JUMPI CALLDATASIZE PUSH1 0x3 NOT ADD SLT PUSH2 0x4E6 JUMPI PUSH2 0x173 PUSH2 0x4CA PUSH2 0xC71 JUMP JUMPDEST PUSH2 0x4D2 PUSH2 0xCB9 JUMP JUMPDEST PUSH1 0x24 CALLDATALOAD SWAP1 CALLER SWAP1 PUSH1 0x1 PUSH1 0x1 PUSH1 0xA0 SHL SUB AND PUSH2 0x1234 JUMP JUMPDEST DUP1 REVERT JUMPDEST POP POP CALLVALUE PUSH2 0x134 JUMPI DUP2 PUSH1 0x3 NOT CALLDATASIZE ADD SLT PUSH2 0x134 JUMPI PUSH1 0x20 PUSH32 0x62E78CEA01BEE320CD4E420270B5EA74000D11B0C9F74754EBDBFC544B05A258 SWAP2 PUSH2 0x527 PUSH2 0xCB9 JUMP JUMPDEST PUSH2 0x52F PUSH2 0x11E3 JUMP JUMPDEST PUSH1 0x1 PUSH1 0xFF NOT DUP2 SLOAD AND OR PUSH1 0x1 SSTORE MLOAD CALLER DUP2 MSTORE LOG1 DUP1 RETURN JUMPDEST POP POP CALLVALUE PUSH2 0x134 JUMPI DUP2 PUSH1 0x3 NOT CALLDATASIZE ADD SLT PUSH2 0x134 JUMPI PUSH2 0x55D PUSH2 0xCB9 JUMP JUMPDEST DUP2 DUP1 DUP1 DUP1 SELFBALANCE DUP2 DUP2 ISZERO PUSH2 0x580 JUMPI JUMPDEST CALLER SWAP1 CALL ISZERO PUSH2 0x576 JUMPI POP DUP1 RETURN JUMPDEST MLOAD SWAP1 RETURNDATASIZE SWAP1 DUP3 RETURNDATACOPY RETURNDATASIZE SWAP1 REVERT JUMPDEST POP PUSH2 0x8FC PUSH2 0x56A JUMP JUMPDEST POP POP CALLVALUE PUSH2 0x134 JUMPI DUP2 PUSH1 0x3 NOT CALLDATASIZE ADD SLT PUSH2 0x134 JUMPI PUSH1 0x20 SWAP1 PUSH1 0xFF PUSH1 0x1 SLOAD AND SWAP1 MLOAD SWAP1 ISZERO ISZERO DUP2 MSTORE RETURN JUMPDEST DUP4 DUP4 CALLVALUE PUSH2 0x134 JUMPI DUP1 PUSH1 0x3 NOT CALLDATASIZE ADD SLT PUSH2 0x134 JUMPI PUSH2 0x5C7 PUSH2 0xC71 JUMP JUMPDEST PUSH1 0x1 PUSH1 0x1 PUSH1 0xA0 SHL SUB SWAP1 DUP2 AND DUP4 MSTORE PUSH1 0x3 PUSH1 0x20 MSTORE DUP2 DUP4 KECCAK256 DUP1 SLOAD SWAP2 SWAP4 PUSH1 0x24 CALLDATALOAD SWAP3 DUP4 LT ISZERO PUSH2 0x4E6 JUMPI POP PUSH2 0x411 SWAP3 SWAP2 PUSH2 0x3BD SWAP2 PUSH2 0xC87 JUMP JUMPDEST SWAP1 POP CALLVALUE PUSH2 0x176 JUMPI DUP3 PUSH1 0x3 NOT CALLDATASIZE ADD SLT PUSH2 0x176 JUMPI PUSH2 0x614 PUSH2 0xCB9 JUMP JUMPDEST PUSH1 0x1 SLOAD SWAP1 PUSH1 0xFF DUP3 AND ISZERO PUSH2 0x656 JUMPI POP PUSH1 0xFF NOT AND PUSH1 0x1 SSTORE MLOAD CALLER DUP2 MSTORE PUSH32 0x5DB9EE0A495BF2E6FF9C91A7834C1BA4FDD244A5E8AA4E537BD38AEAE4B073AA SWAP1 PUSH1 0x20 SWAP1 LOG1 DUP1 RETURN JUMPDEST PUSH1 0x64 SWAP1 PUSH1 0x20 DUP5 MLOAD SWAP2 PUSH3 0x461BCD PUSH1 0xE5 SHL DUP4 MSTORE DUP3 ADD MSTORE PUSH1 0x14 PUSH1 0x24 DUP3 ADD MSTORE PUSH20 0x14185D5CD8589B194E881B9BDD081C185D5CD959 PUSH1 0x62 SHL PUSH1 0x44 DUP3 ADD MSTORE REVERT JUMPDEST SWAP1 POP CALLVALUE PUSH2 0x176 JUMPI PUSH1 0xA0 CALLDATASIZE PUSH1 0x3 NOT ADD SLT PUSH2 0x176 JUMPI PUSH2 0x6AB PUSH2 0xC71 JUMP JUMPDEST SWAP2 PUSH2 0x6B4 PUSH2 0xC5B JUMP JUMPDEST PUSH1 0x44 CALLDATALOAD SWAP2 PUSH1 0x64 CALLDATALOAD SWAP1 PUSH1 0x84 CALLDATALOAD SWAP3 PUSH32 0x97667070C54EF182B0F5858B034BEAC1B6F3089AA2D3188BB1E8929F4FA9B929 SWAP1 DUP2 DUP10 MSTORE PUSH1 0x20 SWAP2 DUP10 DUP4 MSTORE DUP4 DUP11 KECCAK256 CALLER DUP12 MSTORE DUP4 MSTORE PUSH1 0xFF DUP5 DUP12 KECCAK256 SLOAD AND ISZERO PUSH2 0x8E0 JUMPI POP PUSH2 0x708 PUSH2 0x11E3 JUMP JUMPDEST DUP6 ISZERO DUP1 ISZERO PUSH2 0x8D6 JUMPI JUMPDEST PUSH2 0x8C6 JUMPI DUP3 MLOAD PUSH4 0x70A08231 PUSH1 0xE0 SHL DUP2 MSTORE ADDRESS DUP9 DUP3 ADD MSTORE PUSH1 0x1 PUSH1 0x1 PUSH1 0xA0 SHL SUB SWAP2 DUP3 AND SWAP9 SWAP1 DUP4 DUP2 PUSH1 0x24 DUP2 DUP14 GAS STATICCALL SWAP1 DUP2 ISZERO PUSH2 0x8BC JUMPI SWAP1 DUP9 SWAP2 DUP13 SWAP2 PUSH2 0x887 JUMPI JUMPDEST POP LT PUSH2 0x877 JUMPI DUP2 AND SWAP7 DUP8 DUP11 MSTORE PUSH1 0x3 DUP4 MSTORE DUP4 DUP11 KECCAK256 SWAP1 DUP5 MLOAD SWAP3 PUSH1 0xC0 DUP5 ADD DUP5 DUP2 LT PUSH8 0xFFFFFFFFFFFFFFFF DUP3 GT OR PUSH2 0x864 JUMPI DUP7 MSTORE DUP11 DUP5 MSTORE DUP5 DUP5 ADD DUP10 DUP2 MSTORE DUP7 DUP6 ADD DUP14 DUP2 MSTORE PUSH1 0x60 DUP7 ADD SWAP2 TIMESTAMP DUP4 MSTORE PUSH1 0x80 DUP8 ADD SWAP4 DUP11 DUP6 MSTORE PUSH1 0xA0 DUP9 ADD SWAP7 DUP13 DUP9 MSTORE DUP1 SLOAD SWAP1 PUSH9 0x10000000000000000 DUP3 LT ISZERO PUSH2 0x84E JUMPI SWAP1 PUSH2 0x7C7 SWAP2 PUSH1 0x1 DUP3 ADD DUP2 SSTORE PUSH2 0xC87 JUMP JUMPDEST SWAP9 SWAP1 SWAP9 PUSH2 0x83A JUMPI MLOAD DUP9 SLOAD PUSH1 0x1 PUSH1 0x1 PUSH1 0xA0 SHL SUB NOT AND SWAP2 AND OR DUP8 SSTORE MLOAD PUSH1 0x1 DUP8 ADD SSTORE MLOAD PUSH1 0x2 DUP7 ADD SSTORE MLOAD PUSH1 0x3 DUP6 ADD SSTORE MLOAD SWAP1 DUP4 ADD SSTORE MLOAD PUSH1 0x5 SWAP2 SWAP1 SWAP2 ADD SSTORE DUP2 MLOAD SWAP5 DUP6 MSTORE TIMESTAMP SWAP1 DUP6 ADD MSTORE DUP4 ADD MSTORE PUSH1 0x60 DUP3 ADD MSTORE PUSH32 0x85EA0818780C5D304E8BFC41CC38A02F61338CA0966C8BBB0B883DE4CCE660FD SWAP1 PUSH1 0x80 SWAP1 LOG3 DUP1 RETURN JUMPDEST POP POP PUSH4 0x4E487B71 PUSH1 0xE0 SHL DUP16 MSTORE DUP15 DUP6 MSTORE PUSH1 0x24 DUP16 REVERT JUMPDEST POP POP POP PUSH1 0x24 DUP16 PUSH1 0x41 DUP8 PUSH4 0x4E487B71 PUSH1 0xE0 SHL DUP4 MSTORE MSTORE REVERT JUMPDEST PUSH4 0x4E487B71 PUSH1 0xE0 SHL DUP14 MSTORE PUSH1 0x41 DUP4 MSTORE PUSH1 0x24 DUP14 REVERT JUMPDEST DUP4 MLOAD PUSH4 0x1E9ACF17 PUSH1 0xE3 SHL DUP2 MSTORE DUP9 SWAP1 REVERT JUMPDEST DUP1 SWAP3 POP DUP6 DUP1 SWAP3 POP RETURNDATASIZE DUP4 GT PUSH2 0x8B5 JUMPI JUMPDEST PUSH2 0x8A0 DUP2 DUP4 PUSH2 0xFDE JUMP JUMPDEST DUP2 ADD SUB SLT PUSH2 0x8B1 JUMPI DUP8 SWAP1 MLOAD CODESIZE PUSH2 0x74C JUMP JUMPDEST DUP11 DUP1 REVERT JUMPDEST POP RETURNDATASIZE PUSH2 0x896 JUMP JUMPDEST DUP6 MLOAD RETURNDATASIZE DUP14 DUP3 RETURNDATACOPY RETURNDATASIZE SWAP1 REVERT JUMPDEST DUP3 MLOAD PUSH4 0x19AF637 PUSH1 0xE0 SHL DUP2 MSTORE DUP8 SWAP1 REVERT JUMPDEST POP DUP4 DUP6 GT ISZERO PUSH2 0x711 JUMP JUMPDEST DUP8 DUP4 DUP12 DUP7 SWAP4 PUSH2 0x8EE CALLER PUSH2 0x10D4 JUMP JUMPDEST DUP6 MLOAD SWAP2 PUSH2 0x8FA DUP4 PUSH2 0xFAC JUMP JUMPDEST PUSH1 0x42 DUP4 MSTORE DUP5 DUP4 ADD SWAP4 PUSH1 0x60 CALLDATASIZE DUP7 CALLDATACOPY DUP4 MLOAD ISZERO PUSH2 0xA90 JUMPI PUSH1 0x30 DUP6 MSTORE8 DUP4 MLOAD SWAP1 PUSH1 0x1 SWAP2 DUP3 LT ISZERO PUSH2 0xA7D JUMPI SWAP1 PUSH1 0x78 PUSH1 0x21 DUP7 ADD MSTORE8 PUSH1 0x41 SWAP2 JUMPDEST DUP2 DUP4 GT PUSH2 0xA12 JUMPI POP POP POP PUSH2 0x9D0 JUMPI PUSH2 0x9CC SWAP4 DUP7 SWAP4 PUSH2 0x9B8 SWAP4 PUSH2 0x9A9 PUSH1 0x48 SWAP5 PUSH2 0x980 SWAP11 MLOAD SWAP11 DUP6 PUSH23 0x20B1B1B2B9B9A1B7B73A3937B61D1030B1B1B7BAB73A1 PUSH1 0x4D SHL DUP14 SWAP8 DUP9 ADD MSTORE DUP3 MLOAD SWAP3 DUP4 SWAP2 PUSH1 0x37 DUP10 ADD SWAP2 ADD PUSH2 0xF89 JUMP JUMPDEST DUP5 ADD SWAP2 PUSH17 0x1034B99036B4B9B9B4B733903937B6329 PUSH1 0x7D SHL PUSH1 0x37 DUP5 ADD MSTORE MLOAD DUP1 SWAP4 DUP7 DUP5 ADD SWAP1 PUSH2 0xF89 JUMP JUMPDEST ADD SUB PUSH1 0x28 DUP2 ADD DUP8 MSTORE ADD DUP6 PUSH2 0xFDE JUMP JUMPDEST MLOAD PUSH3 0x461BCD PUSH1 0xE5 SHL DUP2 MSTORE SWAP3 DUP4 SWAP3 DUP4 ADD PUSH2 0x1000 JUMP JUMPDEST SUB SWAP1 REVERT JUMPDEST POP POP POP DUP1 PUSH1 0x64 SWAP4 MLOAD SWAP3 PUSH3 0x461BCD PUSH1 0xE5 SHL DUP5 MSTORE DUP4 ADD MSTORE PUSH1 0x24 DUP3 ADD MSTORE PUSH32 0x537472696E67733A20686578206C656E67746820696E73756666696369656E74 PUSH1 0x44 DUP3 ADD MSTORE REVERT JUMPDEST SWAP1 SWAP2 SWAP3 PUSH1 0xF DUP2 AND PUSH1 0x10 DUP2 LT ISZERO PUSH2 0xA6A JUMPI PUSH16 0x181899199A1A9B1B9C1CB0B131B232B3 PUSH1 0x81 SHL SWAP1 BYTE PUSH2 0xA42 DUP6 DUP9 PUSH2 0x10C3 JUMP JUMPDEST MSTORE8 DUP9 SHR SWAP3 DUP1 ISZERO PUSH2 0xA57 JUMPI PUSH1 0x0 NOT ADD SWAP2 SWAP1 PUSH2 0x92B JUMP JUMPDEST PUSH4 0x4E487B71 PUSH1 0xE0 SHL DUP3 MSTORE PUSH1 0x11 DUP10 MSTORE PUSH1 0x24 DUP3 REVERT JUMPDEST PUSH4 0x4E487B71 PUSH1 0xE0 SHL DUP4 MSTORE PUSH1 0x32 DUP11 MSTORE PUSH1 0x24 DUP4 REVERT JUMPDEST PUSH4 0x4E487B71 PUSH1 0xE0 SHL DUP2 MSTORE PUSH1 0x32 DUP9 MSTORE PUSH1 0x24 SWAP1 REVERT JUMPDEST PUSH4 0x4E487B71 PUSH1 0xE0 SHL DUP2 MSTORE PUSH1 0x32 DUP8 MSTORE PUSH1 0x24 SWAP1 REVERT JUMPDEST DUP4 SWAP2 POP CALLVALUE PUSH2 0x134 JUMPI DUP3 PUSH1 0x3 NOT CALLDATASIZE ADD SLT PUSH2 0x134 JUMPI PUSH2 0xABE PUSH2 0xC5B JUMP JUMPDEST SWAP1 CALLER PUSH1 0x1 PUSH1 0x1 PUSH1 0xA0 SHL SUB DUP4 AND SUB PUSH2 0xADA JUMPI SWAP1 PUSH2 0x173 SWAP2 CALLDATALOAD PUSH2 0x102C JUMP JUMPDEST PUSH1 0x84 SWAP1 PUSH1 0x20 DUP6 MLOAD SWAP2 PUSH3 0x461BCD PUSH1 0xE5 SHL DUP4 MSTORE DUP3 ADD MSTORE PUSH1 0x2F PUSH1 0x24 DUP3 ADD MSTORE PUSH32 0x416363657373436F6E74726F6C3A2063616E206F6E6C792072656E6F756E6365 PUSH1 0x44 DUP3 ADD MSTORE PUSH15 0x103937B632B9903337B91039B2B633 PUSH1 0x89 SHL PUSH1 0x64 DUP3 ADD MSTORE REVERT JUMPDEST SWAP1 POP CALLVALUE PUSH2 0x176 JUMPI DUP2 PUSH1 0x3 NOT CALLDATASIZE ADD SLT PUSH2 0x176 JUMPI CALLDATALOAD SWAP1 PUSH2 0xB51 PUSH2 0xC5B JUMP JUMPDEST SWAP1 DUP3 DUP5 MSTORE DUP4 PUSH1 0x20 MSTORE PUSH2 0xB68 PUSH1 0x1 DUP3 DUP7 KECCAK256 ADD SLOAD PUSH2 0xE80 JUMP JUMPDEST DUP3 DUP5 MSTORE PUSH1 0x20 DUP5 DUP2 MSTORE DUP2 DUP6 KECCAK256 PUSH1 0x1 PUSH1 0x1 PUSH1 0xA0 SHL SUB SWAP1 SWAP4 AND DUP1 DUP7 MSTORE SWAP3 SWAP1 MSTORE DUP1 DUP5 KECCAK256 SLOAD PUSH1 0xFF AND ISZERO PUSH2 0xB94 JUMPI DUP4 DUP1 RETURN JUMPDEST DUP3 DUP5 MSTORE DUP4 PUSH1 0x20 MSTORE DUP1 DUP5 KECCAK256 DUP3 DUP6 MSTORE PUSH1 0x20 MSTORE DUP4 KECCAK256 PUSH1 0x1 PUSH1 0xFF NOT DUP3 SLOAD AND OR SWAP1 SSTORE CALLER SWAP2 PUSH32 0x2F8788117E7EFF1D82E926EC794901D17C78024A50270940304540A733656F0D DUP5 DUP1 LOG4 CODESIZE DUP1 DUP1 DUP4 DUP1 RETURN JUMPDEST SWAP1 POP CALLVALUE PUSH2 0x176 JUMPI PUSH1 0x20 CALLDATASIZE PUSH1 0x3 NOT ADD SLT PUSH2 0x176 JUMPI DUP2 PUSH1 0x20 SWAP4 PUSH1 0x1 SWAP3 CALLDATALOAD DUP2 MSTORE DUP1 DUP6 MSTORE KECCAK256 ADD SLOAD SWAP1 MLOAD SWAP1 DUP2 MSTORE RETURN JUMPDEST DUP5 SWAP2 CALLVALUE PUSH2 0x176 JUMPI PUSH1 0x20 CALLDATASIZE PUSH1 0x3 NOT ADD SLT PUSH2 0x176 JUMPI CALLDATALOAD PUSH4 0xFFFFFFFF PUSH1 0xE0 SHL DUP2 AND DUP1 SWAP2 SUB PUSH2 0x176 JUMPI PUSH1 0x20 SWAP3 POP PUSH4 0x7965DB0B PUSH1 0xE0 SHL DUP2 EQ SWAP1 DUP2 ISZERO PUSH2 0xC4A JUMPI JUMPDEST POP ISZERO ISZERO DUP2 MSTORE RETURN JUMPDEST PUSH4 0x1FFC9A7 PUSH1 0xE0 SHL EQ SWAP1 POP DUP4 PUSH2 0xC43 JUMP JUMPDEST PUSH1 0x24 CALLDATALOAD SWAP1 PUSH1 0x1 PUSH1 0x1 PUSH1 0xA0 SHL SUB DUP3 AND DUP3 SUB PUSH2 0x20 JUMPI JUMP JUMPDEST PUSH1 0x4 CALLDATALOAD SWAP1 PUSH1 0x1 PUSH1 0x1 PUSH1 0xA0 SHL SUB DUP3 AND DUP3 SUB PUSH2 0x20 JUMPI JUMP JUMPDEST DUP1 SLOAD DUP3 LT ISZERO PUSH2 0xCA3 JUMPI PUSH1 0x0 MSTORE PUSH1 0x6 PUSH1 0x20 PUSH1 0x0 KECCAK256 SWAP2 MUL ADD SWAP1 PUSH1 0x0 SWAP1 JUMP JUMPDEST PUSH4 0x4E487B71 PUSH1 0xE0 SHL PUSH1 0x0 MSTORE PUSH1 0x32 PUSH1 0x4 MSTORE PUSH1 0x24 PUSH1 0x0 REVERT JUMPDEST CALLER PUSH1 0x0 SWAP1 DUP2 MSTORE PUSH32 0xAD3228B676F7D3CD4284A5443F17F1962B36E491B30A40B2405849E597BA5FB5 PUSH1 0x20 SWAP1 DUP2 MSTORE PUSH1 0x40 DUP1 DUP4 KECCAK256 SLOAD SWAP1 SWAP3 SWAP1 PUSH1 0xFF AND ISZERO PUSH2 0xCFB JUMPI POP POP POP JUMP JUMPDEST PUSH2 0xD04 CALLER PUSH2 0x10D4 JUMP JUMPDEST DUP4 MLOAD SWAP1 DUP3 PUSH2 0xD11 DUP4 PUSH2 0xFAC JUMP JUMPDEST PUSH1 0x42 DUP4 MSTORE DUP5 DUP4 ADD SWAP4 PUSH1 0x60 CALLDATASIZE DUP7 CALLDATACOPY DUP4 MLOAD ISZERO PUSH2 0xE6C JUMPI PUSH1 0x30 DUP6 MSTORE8 DUP4 MLOAD SWAP1 PUSH1 0x1 SWAP2 DUP3 LT ISZERO PUSH2 0xE6C JUMPI SWAP1 PUSH1 0x78 PUSH1 0x21 DUP7 ADD MSTORE8 PUSH1 0x41 SWAP2 JUMPDEST DUP2 DUP4 GT PUSH2 0xDFE JUMPI POP POP POP PUSH2 0xDBC JUMPI PUSH2 0x980 SWAP4 DUP6 SWAP4 PUSH2 0xDA6 SWAP4 PUSH2 0xD97 PUSH1 0x48 SWAP5 PUSH2 0x9CC SWAP10 MLOAD SWAP9 DUP6 PUSH23 0x20B1B1B2B9B9A1B7B73A3937B61D1030B1B1B7BAB73A1 PUSH1 0x4D SHL DUP12 SWAP8 DUP9 ADD MSTORE DUP3 MLOAD SWAP3 DUP4 SWAP2 PUSH1 0x37 DUP10 ADD SWAP2 ADD PUSH2 0xF89 JUMP JUMPDEST ADD SUB PUSH1 0x28 DUP2 ADD DUP6 MSTORE ADD DUP4 PUSH2 0xFDE JUMP JUMPDEST MLOAD PUSH3 0x461BCD PUSH1 0xE5 SHL DUP2 MSTORE SWAP2 DUP3 SWAP2 PUSH1 0x4 DUP4 ADD PUSH2 0x1000 JUMP JUMPDEST PUSH1 0x64 DUP5 DUP7 MLOAD SWAP1 PUSH3 0x461BCD PUSH1 0xE5 SHL DUP3 MSTORE DUP1 PUSH1 0x4 DUP4 ADD MSTORE PUSH1 0x24 DUP3 ADD MSTORE PUSH32 0x537472696E67733A20686578206C656E67746820696E73756666696369656E74 PUSH1 0x44 DUP3 ADD MSTORE REVERT JUMPDEST SWAP1 SWAP2 SWAP3 PUSH1 0xF DUP2 AND PUSH1 0x10 DUP2 LT ISZERO PUSH2 0xE58 JUMPI PUSH16 0x181899199A1A9B1B9C1CB0B131B232B3 PUSH1 0x81 SHL SWAP1 BYTE PUSH2 0xE2E DUP6 DUP9 PUSH2 0x10C3 JUMP JUMPDEST MSTORE8 PUSH1 0x4 SHR SWAP3 DUP1 ISZERO PUSH2 0xE44 JUMPI PUSH1 0x0 NOT ADD SWAP2 SWAP1 PUSH2 0xD42 JUMP JUMPDEST PUSH4 0x4E487B71 PUSH1 0xE0 SHL DUP3 MSTORE PUSH1 0x11 PUSH1 0x4 MSTORE PUSH1 0x24 DUP3 REVERT JUMPDEST PUSH4 0x4E487B71 PUSH1 0xE0 SHL DUP4 MSTORE PUSH1 0x32 PUSH1 0x4 MSTORE PUSH1 0x24 DUP4 REVERT JUMPDEST PUSH4 0x4E487B71 PUSH1 0xE0 SHL DUP2 MSTORE PUSH1 0x32 PUSH1 0x4 MSTORE PUSH1 0x24 SWAP1 REVERT JUMPDEST PUSH1 0x0 DUP2 DUP2 MSTORE PUSH1 0x20 SWAP1 DUP1 DUP3 MSTORE PUSH1 0x40 SWAP3 DUP4 DUP3 KECCAK256 CALLER DUP4 MSTORE DUP4 MSTORE PUSH1 0xFF DUP5 DUP4 KECCAK256 SLOAD AND ISZERO PUSH2 0xEA8 JUMPI POP POP POP POP JUMP JUMPDEST PUSH2 0xEB1 CALLER PUSH2 0x10D4 JUMP JUMPDEST DUP5 MLOAD SWAP2 PUSH2 0xEBD DUP4 PUSH2 0xFAC JUMP JUMPDEST PUSH1 0x42 DUP4 MSTORE DUP5 DUP4 ADD SWAP4 PUSH1 0x60 CALLDATASIZE DUP7 CALLDATACOPY DUP4 MLOAD ISZERO PUSH2 0xE6C JUMPI PUSH1 0x30 DUP6 MSTORE8 DUP4 MLOAD SWAP1 PUSH1 0x1 SWAP2 DUP3 LT ISZERO PUSH2 0xE6C JUMPI SWAP1 PUSH1 0x78 PUSH1 0x21 DUP7 ADD MSTORE8 PUSH1 0x41 SWAP2 JUMPDEST DUP2 DUP4 GT PUSH2 0xF43 JUMPI POP POP POP PUSH2 0xDBC JUMPI PUSH2 0x980 SWAP4 DUP6 SWAP4 PUSH2 0xDA6 SWAP4 PUSH2 0xD97 PUSH1 0x48 SWAP5 PUSH2 0x9CC SWAP10 MLOAD SWAP9 DUP6 PUSH23 0x20B1B1B2B9B9A1B7B73A3937B61D1030B1B1B7BAB73A1 PUSH1 0x4D SHL DUP12 SWAP8 DUP9 ADD MSTORE DUP3 MLOAD SWAP3 DUP4 SWAP2 PUSH1 0x37 DUP10 ADD SWAP2 ADD PUSH2 0xF89 JUMP JUMPDEST SWAP1 SWAP2 SWAP3 PUSH1 0xF DUP2 AND PUSH1 0x10 DUP2 LT ISZERO PUSH2 0xE58 JUMPI PUSH16 0x181899199A1A9B1B9C1CB0B131B232B3 PUSH1 0x81 SHL SWAP1 BYTE PUSH2 0xF73 DUP6 DUP9 PUSH2 0x10C3 JUMP JUMPDEST MSTORE8 PUSH1 0x4 SHR SWAP3 DUP1 ISZERO PUSH2 0xE44 JUMPI PUSH1 0x0 NOT ADD SWAP2 SWAP1 PUSH2 0xEEE JUMP JUMPDEST PUSH1 0x0 JUMPDEST DUP4 DUP2 LT PUSH2 0xF9C JUMPI POP POP PUSH1 0x0 SWAP2 ADD MSTORE JUMP JUMPDEST DUP2 DUP2 ADD MLOAD DUP4 DUP3 ADD MSTORE PUSH1 0x20 ADD PUSH2 0xF8C JUMP JUMPDEST PUSH1 0x80 DUP2 ADD SWAP1 DUP2 LT PUSH8 0xFFFFFFFFFFFFFFFF DUP3 GT OR PUSH2 0xFC8 JUMPI PUSH1 0x40 MSTORE JUMP JUMPDEST PUSH4 0x4E487B71 PUSH1 0xE0 SHL PUSH1 0x0 MSTORE PUSH1 0x41 PUSH1 0x4 MSTORE PUSH1 0x24 PUSH1 0x0 REVERT JUMPDEST SWAP1 PUSH1 0x1F DUP1 NOT SWAP2 ADD AND DUP2 ADD SWAP1 DUP2 LT PUSH8 0xFFFFFFFFFFFFFFFF DUP3 GT OR PUSH2 0xFC8 JUMPI PUSH1 0x40 MSTORE JUMP JUMPDEST PUSH1 0x40 SWAP2 PUSH1 0x20 DUP3 MSTORE PUSH2 0x1020 DUP2 MLOAD DUP1 SWAP3 DUP2 PUSH1 0x20 DUP7 ADD MSTORE PUSH1 0x20 DUP7 DUP7 ADD SWAP2 ADD PUSH2 0xF89 JUMP JUMPDEST PUSH1 0x1F ADD PUSH1 0x1F NOT AND ADD ADD SWAP1 JUMP JUMPDEST SWAP1 PUSH1 0x0 SWAP2 DUP1 DUP4 MSTORE DUP3 PUSH1 0x20 MSTORE PUSH1 0x40 DUP4 KECCAK256 SWAP2 PUSH1 0x1 DUP1 PUSH1 0xA0 SHL SUB AND SWAP2 DUP3 DUP5 MSTORE PUSH1 0x20 MSTORE PUSH1 0xFF PUSH1 0x40 DUP5 KECCAK256 SLOAD AND PUSH2 0x105C JUMPI POP POP POP JUMP JUMPDEST DUP1 DUP4 MSTORE DUP3 PUSH1 0x20 MSTORE PUSH1 0x40 DUP4 KECCAK256 DUP3 DUP5 MSTORE PUSH1 0x20 MSTORE PUSH1 0x40 DUP4 KECCAK256 PUSH1 0xFF NOT DUP2 SLOAD AND SWAP1 SSTORE PUSH32 0xF6391F5C32D9C69D2A47EA670B442974B53935D1EDC7FD64EB21E047A839171B CALLER SWAP4 DUP1 LOG4 JUMP JUMPDEST SWAP2 SWAP1 DUP3 ADD DUP1 SWAP3 GT PUSH2 0x10AD JUMPI JUMP JUMPDEST PUSH4 0x4E487B71 PUSH1 0xE0 SHL PUSH1 0x0 MSTORE PUSH1 0x11 PUSH1 0x4 MSTORE PUSH1 0x24 PUSH1 0x0 REVERT JUMPDEST SWAP1 DUP2 MLOAD DUP2 LT ISZERO PUSH2 0xCA3 JUMPI ADD PUSH1 0x20 ADD SWAP1 JUMP JUMPDEST PUSH1 0x40 MLOAD SWAP1 PUSH1 0x60 DUP3 ADD DUP3 DUP2 LT PUSH8 0xFFFFFFFFFFFFFFFF DUP3 GT OR PUSH2 0xFC8 JUMPI PUSH1 0x40 MSTORE PUSH1 0x2A DUP3 MSTORE PUSH1 0x20 DUP3 ADD PUSH1 0x40 CALLDATASIZE DUP3 CALLDATACOPY DUP3 MLOAD ISZERO PUSH2 0xCA3 JUMPI PUSH1 0x30 SWAP1 MSTORE8 DUP2 MLOAD PUSH1 0x1 SWAP1 DUP2 LT ISZERO PUSH2 0xCA3 JUMPI PUSH1 0x78 PUSH1 0x21 DUP5 ADD MSTORE8 PUSH1 0x29 SWAP1 JUMPDEST DUP1 DUP3 GT PUSH2 0x1175 JUMPI POP POP PUSH2 0x1131 JUMPI SWAP1 JUMP JUMPDEST PUSH1 0x64 PUSH1 0x40 MLOAD PUSH3 0x461BCD PUSH1 0xE5 SHL DUP2 MSTORE PUSH1 0x20 PUSH1 0x4 DUP3 ADD MSTORE PUSH1 0x20 PUSH1 0x24 DUP3 ADD MSTORE PUSH32 0x537472696E67733A20686578206C656E67746820696E73756666696369656E74 PUSH1 0x44 DUP3 ADD MSTORE REVERT JUMPDEST SWAP1 SWAP2 PUSH1 0xF DUP2 AND PUSH1 0x10 DUP2 LT ISZERO PUSH2 0x11CE JUMPI PUSH16 0x181899199A1A9B1B9C1CB0B131B232B3 PUSH1 0x81 SHL SWAP1 BYTE PUSH2 0x11A4 DUP5 DUP7 PUSH2 0x10C3 JUMP JUMPDEST MSTORE8 PUSH1 0x4 SHR SWAP2 DUP1 ISZERO PUSH2 0x11B9 JUMPI PUSH1 0x0 NOT ADD SWAP1 PUSH2 0x1121 JUMP JUMPDEST PUSH1 0x24 PUSH1 0x0 PUSH4 0x4E487B71 PUSH1 0xE0 SHL DUP2 MSTORE PUSH1 0x11 PUSH1 0x4 MSTORE REVERT JUMPDEST PUSH1 0x24 PUSH1 0x0 PUSH4 0x4E487B71 PUSH1 0xE0 SHL DUP2 MSTORE PUSH1 0x32 PUSH1 0x4 MSTORE REVERT JUMPDEST PUSH1 0xFF PUSH1 0x1 SLOAD AND PUSH2 0x11EF JUMPI JUMP JUMPDEST PUSH1 0x40 MLOAD PUSH3 0x461BCD PUSH1 0xE5 SHL DUP2 MSTORE PUSH1 0x20 PUSH1 0x4 DUP3 ADD MSTORE PUSH1 0x10 PUSH1 0x24 DUP3 ADD MSTORE PUSH16 0x14185D5CD8589B194E881C185D5CD959 PUSH1 0x82 SHL PUSH1 0x44 DUP3 ADD MSTORE PUSH1 0x64 SWAP1 REVERT JUMPDEST SWAP2 SWAP1 DUP3 SUB SWAP2 DUP3 GT PUSH2 0x10AD JUMPI JUMP JUMPDEST PUSH1 0x40 MLOAD PUSH4 0xA9059CBB PUSH1 0xE0 SHL PUSH1 0x20 DUP1 DUP4 ADD SWAP2 DUP3 MSTORE PUSH1 0x1 PUSH1 0x1 PUSH1 0xA0 SHL SUB SWAP5 DUP6 AND PUSH1 0x24 DUP5 ADD MSTORE PUSH1 0x44 DUP1 DUP5 ADD SWAP7 SWAP1 SWAP7 MSTORE SWAP5 DUP3 MSTORE SWAP3 PUSH1 0x80 DUP3 ADD SWAP3 PUSH8 0xFFFFFFFFFFFFFFFF SWAP3 SWAP2 SWAP1 DUP4 DUP6 GT DUP4 DUP7 LT OR PUSH2 0xFC8 JUMPI AND SWAP1 PUSH1 0xC0 DUP2 ADD DUP5 DUP2 LT DUP5 DUP3 GT OR PUSH2 0xFC8 JUMPI PUSH1 0x40 MSTORE DUP6 DUP5 MSTORE PUSH32 0x5361666545524332303A206C6F772D6C6576656C2063616C6C206661696C6564 PUSH1 0xA0 DUP3 ADD MSTORE PUSH1 0x0 DUP1 SWAP6 DUP2 SWAP3 MLOAD SWAP1 DUP3 DUP6 GAS CALL SWAP1 RETURNDATASIZE ISZERO PUSH2 0x13AD JUMPI RETURNDATASIZE SWAP3 DUP4 GT PUSH2 0x1399 JUMPI SWAP1 PUSH2 0x1303 SWAP4 SWAP3 SWAP2 PUSH1 0x40 MLOAD SWAP3 PUSH2 0x12F6 DUP9 PUSH1 0x1F NOT PUSH1 0x1F DUP5 ADD AND ADD DUP6 PUSH2 0xFDE JUMP JUMPDEST DUP4 MSTORE RETURNDATASIZE DUP7 DUP9 DUP6 ADD RETURNDATACOPY PUSH2 0x13B8 JUMP JUMPDEST DUP1 MLOAD SWAP2 DUP3 ISZERO SWAP2 DUP5 DUP4 ISZERO PUSH2 0x1375 JUMPI JUMPDEST POP POP POP SWAP1 POP ISZERO PUSH2 0x131E JUMPI POP JUMP JUMPDEST PUSH1 0x84 SWAP1 PUSH1 0x40 MLOAD SWAP1 PUSH3 0x461BCD PUSH1 0xE5 SHL DUP3 MSTORE PUSH1 0x4 DUP3 ADD MSTORE PUSH1 0x2A PUSH1 0x24 DUP3 ADD MSTORE PUSH32 0x5361666545524332303A204552433230206F7065726174696F6E20646964206E PUSH1 0x44 DUP3 ADD MSTORE PUSH10 0x1BDD081CDD58D8D95959 PUSH1 0xB2 SHL PUSH1 0x64 DUP3 ADD MSTORE REVERT JUMPDEST SWAP2 SWAP4 DUP2 DUP1 SWAP5 POP ADD SUB SLT PUSH2 0x134 JUMPI DUP3 ADD MLOAD SWAP1 DUP2 ISZERO ISZERO DUP3 SUB PUSH2 0x4E6 JUMPI POP DUP1 CODESIZE DUP1 DUP5 PUSH2 0x1311 JUMP JUMPDEST PUSH4 0x4E487B71 PUSH1 0xE0 SHL DUP6 MSTORE PUSH1 0x41 PUSH1 0x4 MSTORE PUSH1 0x24 DUP6 REVERT JUMPDEST SWAP1 PUSH2 0x1303 SWAP4 SWAP3 POP PUSH1 0x60 SWAP2 JUMPDEST SWAP2 SWAP3 SWAP1 ISZERO PUSH2 0x141A JUMPI POP DUP2 MLOAD ISZERO PUSH2 0x13CC JUMPI POP SWAP1 JUMP JUMPDEST EXTCODESIZE ISZERO PUSH2 0x13D5 JUMPI SWAP1 JUMP JUMPDEST PUSH1 0x40 MLOAD PUSH3 0x461BCD PUSH1 0xE5 SHL DUP2 MSTORE PUSH1 0x20 PUSH1 0x4 DUP3 ADD MSTORE PUSH1 0x1D PUSH1 0x24 DUP3 ADD MSTORE PUSH32 0x416464726573733A2063616C6C20746F206E6F6E2D636F6E7472616374000000 PUSH1 0x44 DUP3 ADD MSTORE PUSH1 0x64 SWAP1 REVERT JUMPDEST DUP3 MLOAD SWAP1 SWAP2 POP ISZERO PUSH2 0x142D JUMPI POP DUP1 MLOAD SWAP1 PUSH1 0x20 ADD REVERT JUMPDEST PUSH1 0x40 MLOAD PUSH3 0x461BCD PUSH1 0xE5 SHL DUP2 MSTORE SWAP1 DUP2 SWAP1 PUSH2 0x9CC SWAP1 PUSH1 0x4 DUP4 ADD PUSH2 0x1000 JUMP INVALID LOG1 PUSH5 0x736F6C6343 STOP ADDMOD EQ STOP EXP 0x2F DUP8 DUP9 GT PUSH31 0x7EFF1D82E926EC794901D17C78024A50270940304540A733656F0D00000000 "},"methodIdentifiers":{"DEFAULT_ADMIN_ROLE()":"a217fddf","OPERATOR_ROLE()":"f5b541a6","claimVested()":"d01c44cd","emergencyWithdrawETH()":"84536017","getRoleAdmin(bytes32)":"248a9ca3","getVestingSchedule(address,uint256)":"bed9757e","grantRole(bytes32,address)":"2f2ff15d","hasRole(bytes32,address)":"91d14854","pause()":"8456cb59","paused()":"5c975abb","renounceRole(bytes32,address)":"36568abe","rescueERC20(address,uint256)":"8cd4426d","revokeRole(bytes32,address)":"d547741f","setVestingSchedule(address,address,uint256,uint256,uint256)":"3d94bdbb","supportsInterface(bytes4)":"01ffc9a7","unpause()":"3f4ba83a","vestingScheduleCount(address)":"a9bb5c4c","vestingSchedules(address,uint256)":"45626bd6"}}}}}