{"contracts/MemeCoinFactory.sol":{"MemeCoinFactory":{"abi":[{"inputs":[{"internalType":"uint16","name":"_platformFeeBP","type":"uint16"},{"internalType":"uint16","name":"_referralFeeBP","type":"uint16"}],"stateMutability":"nonpayable","type":"constructor"},{"anonymous":false,"inputs":[{"indexed":true,"internalType":"address","name":"token","type":"address"},{"indexed":true,"internalType":"address","name":"buyer","type":"address"},{"indexed":false,"internalType":"uint256","name":"amountAtomic","type":"uint256"},{"indexed":false,"internalType":"uint256","name":"costWei","type":"uint256"},{"indexed":true,"internalType":"address","name":"referrer","type":"address"},{"indexed":false,"internalType":"uint256","name":"platformShare","type":"uint256"},{"indexed":false,"internalType":"uint256","name":"referralShare","type":"uint256"},{"indexed":false,"internalType":"uint256","name":"creatorShare","type":"uint256"}],"name":"Bought","type":"event"},{"anonymous":false,"inputs":[{"indexed":false,"internalType":"address","name":"factory","type":"address"},{"indexed":false,"internalType":"address","name":"router","type":"address"}],"name":"DexConfigured","type":"event"},{"anonymous":false,"inputs":[{"indexed":true,"internalType":"address","name":"to","type":"address"},{"indexed":false,"internalType":"uint256","name":"amount","type":"uint256"}],"name":"ETHRescued","type":"event"},{"anonymous":false,"inputs":[{"indexed":false,"internalType":"uint16","name":"newPlatformBP","type":"uint16"},{"indexed":false,"internalType":"uint16","name":"newReferralBP","type":"uint16"}],"name":"FeesUpdated","type":"event"},{"anonymous":false,"inputs":[{"indexed":true,"internalType":"address","name":"token","type":"address"},{"indexed":false,"internalType":"string","name":"newDescription","type":"string"},{"indexed":false,"internalType":"string","name":"newIpfsHash","type":"string"}],"name":"MetadataUpdated","type":"event"},{"anonymous":false,"inputs":[{"indexed":false,"internalType":"address","name":"account","type":"address"}],"name":"Paused","type":"event"},{"anonymous":false,"inputs":[{"indexed":false,"internalType":"bytes32","name":"newRoot","type":"bytes32"}],"name":"PresaleRootUpdated","type":"event"},{"anonymous":false,"inputs":[{"indexed":true,"internalType":"address","name":"token","type":"address"},{"indexed":false,"internalType":"uint256","name":"newPriceWei","type":"uint256"}],"name":"PriceUpdated","type":"event"},{"anonymous":false,"inputs":[{"indexed":true,"internalType":"bytes32","name":"role","type":"bytes32"},{"indexed":true,"internalType":"bytes32","name":"previousAdminRole","type":"bytes32"},{"indexed":true,"internalType":"bytes32","name":"newAdminRole","type":"bytes32"}],"name":"RoleAdminChanged","type":"event"},{"anonymous":false,"inputs":[{"indexed":true,"internalType":"bytes32","name":"role","type":"bytes32"},{"indexed":true,"internalType":"address","name":"account","type":"address"},{"indexed":true,"internalType":"address","name":"sender","type":"address"}],"name":"RoleGranted","type":"event"},{"anonymous":false,"inputs":[{"indexed":true,"internalType":"bytes32","name":"role","type":"bytes32"},{"indexed":true,"internalType":"address","name":"account","type":"address"},{"indexed":true,"internalType":"address","name":"sender","type":"address"}],"name":"RoleRevoked","type":"event"},{"anonymous":false,"inputs":[{"indexed":true,"internalType":"address","name":"token","type":"address"},{"indexed":true,"internalType":"address","name":"creator","type":"address"},{"indexed":false,"internalType":"uint256","name":"priceWei","type":"uint256"},{"indexed":false,"internalType":"string","name":"description","type":"string"},{"indexed":false,"internalType":"string","name":"ipfsHash","type":"string"}],"name":"TokenCreated","type":"event"},{"anonymous":false,"inputs":[{"indexed":true,"internalType":"address","name":"token","type":"address"}],"name":"TokenPaused","type":"event"},{"anonymous":false,"inputs":[{"indexed":true,"internalType":"address","name":"token","type":"address"},{"indexed":false,"internalType":"uint256","name":"amount","type":"uint256"}],"name":"TokenRescued","type":"event"},{"anonymous":false,"inputs":[{"indexed":true,"internalType":"address","name":"token","type":"address"}],"name":"TokenUnpaused","type":"event"},{"anonymous":false,"inputs":[{"indexed":false,"internalType":"address","name":"account","type":"address"}],"name":"Unpaused","type":"event"},{"anonymous":false,"inputs":[{"indexed":true,"internalType":"address","name":"token","type":"address"},{"indexed":false,"internalType":"uint256","name":"amount","type":"uint256"}],"name":"UnsoldReclaimed","type":"event"},{"anonymous":false,"inputs":[{"indexed":true,"internalType":"address","name":"token","type":"address"},{"indexed":true,"internalType":"address","name":"user","type":"address"}],"name":"UserWhitelisted","type":"event"},{"anonymous":false,"inputs":[{"indexed":true,"internalType":"address","name":"beneficiary","type":"address"},{"indexed":true,"internalType":"address","name":"token","type":"address"},{"indexed":false,"internalType":"uint256","name":"amountClaimed","type":"uint256"}],"name":"VestedClaimed","type":"event"},{"anonymous":false,"inputs":[{"indexed":true,"internalType":"address","name":"beneficiary","type":"address"},{"indexed":true,"internalType":"address","name":"token","type":"address"},{"indexed":false,"internalType":"uint256","name":"total","type":"uint256"},{"indexed":false,"internalType":"uint256","name":"start","type":"uint256"},{"indexed":false,"internalType":"uint256","name":"cliff","type":"uint256"},{"indexed":false,"internalType":"uint256","name":"duration","type":"uint256"}],"name":"VestingScheduleSet","type":"event"},{"anonymous":false,"inputs":[{"indexed":true,"internalType":"address","name":"token","type":"address"},{"indexed":false,"internalType":"bool","name":"enabled","type":"bool"}],"name":"WhitelistToggled","type":"event"},{"stateMutability":"payable","type":"fallback"},{"inputs":[],"name":"DEFAULT_ADMIN_ROLE","outputs":[{"internalType":"bytes32","name":"","type":"bytes32"}],"stateMutability":"view","type":"function"},{"inputs":[],"name":"OPERATOR_ROLE","outputs":[{"internalType":"bytes32","name":"","type":"bytes32"}],"stateMutability":"view","type":"function"},{"inputs":[],"name":"PAUSER_ROLE","outputs":[{"internalType":"bytes32","name":"","type":"bytes32"}],"stateMutability":"view","type":"function"},{"inputs":[{"internalType":"address","name":"token_","type":"address"},{"internalType":"uint256","name":"amt","type":"uint256"}],"name":"addLiquidity","outputs":[{"internalType":"uint256","name":"","type":"uint256"},{"internalType":"uint256","name":"","type":"uint256"},{"internalType":"uint256","name":"","type":"uint256"}],"stateMutability":"payable","type":"function"},{"inputs":[{"internalType":"address","name":"token_","type":"address"},{"internalType":"address[]","name":"users","type":"address[]"}],"name":"addToWhitelist","outputs":[],"stateMutability":"nonpayable","type":"function"},{"inputs":[{"internalType":"uint256","name":"","type":"uint256"}],"name":"allTokens","outputs":[{"internalType":"address","name":"token","type":"address"},{"internalType":"address","name":"creator","type":"address"},{"internalType":"uint256","name":"priceWei","type":"uint256"},{"internalType":"string","name":"description","type":"string"},{"internalType":"string","name":"ipfsHash","type":"string"}],"stateMutability":"view","type":"function"},{"inputs":[{"internalType":"address","name":"token_","type":"address"},{"internalType":"uint256","name":"amt","type":"uint256"},{"internalType":"address","name":"ref","type":"address"},{"internalType":"bytes32[]","name":"proof","type":"bytes32[]"}],"name":"buyPresale","outputs":[],"stateMutability":"payable","type":"function"},{"inputs":[{"internalType":"address","name":"token_","type":"address"},{"internalType":"uint256","name":"amountAtomic","type":"uint256"},{"internalType":"address","name":"referrer","type":"address"}],"name":"buyToken","outputs":[],"stateMutability":"payable","type":"function"},{"inputs":[],"name":"claimVested","outputs":[],"stateMutability":"nonpayable","type":"function"},{"inputs":[{"internalType":"address","name":"token_","type":"address"}],"name":"createLiquidityPair","outputs":[{"internalType":"address","name":"pair","type":"address"}],"stateMutability":"nonpayable","type":"function"},{"inputs":[{"internalType":"string","name":"name_","type":"string"},{"internalType":"string","name":"symbol_","type":"string"},{"internalType":"string","name":"description_","type":"string"},{"internalType":"uint256","name":"totalSupply_","type":"uint256"},{"internalType":"uint256","name":"priceWei_","type":"uint256"},{"internalType":"string","name":"ipfsHash_","type":"string"}],"name":"createMemeCoin","outputs":[{"internalType":"address","name":"","type":"address"}],"stateMutability":"nonpayable","type":"function"},{"inputs":[{"internalType":"address","name":"","type":"address"}],"name":"creatorFeesAccrued","outputs":[{"internalType":"uint256","name":"","type":"uint256"}],"stateMutability":"view","type":"function"},{"inputs":[],"name":"dexFactory","outputs":[{"internalType":"address","name":"","type":"address"}],"stateMutability":"view","type":"function"},{"inputs":[],"name":"dexRouter","outputs":[{"internalType":"address","name":"","type":"address"}],"stateMutability":"view","type":"function"},{"inputs":[],"name":"emergencyWithdrawETH","outputs":[],"stateMutability":"nonpayable","type":"function"},{"inputs":[{"internalType":"address","name":"token_","type":"address"}],"name":"emergencyWithdrawToken","outputs":[],"stateMutability":"nonpayable","type":"function"},{"inputs":[{"internalType":"uint256","name":"amt","type":"uint256"}],"name":"getRevenueSplit","outputs":[{"internalType":"uint256","name":"pf","type":"uint256"},{"internalType":"uint256","name":"rf","type":"uint256"},{"internalType":"uint256","name":"cf","type":"uint256"}],"stateMutability":"view","type":"function"},{"inputs":[{"internalType":"bytes32","name":"role","type":"bytes32"}],"name":"getRoleAdmin","outputs":[{"internalType":"bytes32","name":"","type":"bytes32"}],"stateMutability":"view","type":"function"},{"inputs":[{"internalType":"address","name":"token_","type":"address"}],"name":"getSalesStats","outputs":[{"internalType":"uint256","name":"sold_","type":"uint256"},{"internalType":"uint256","name":"raised_","type":"uint256"}],"stateMutability":"view","type":"function"},{"inputs":[{"internalType":"uint256","name":"start","type":"uint256"},{"internalType":"uint256","name":"count","type":"uint256"}],"name":"getTokens","outputs":[{"components":[{"internalType":"address","name":"token","type":"address"},{"internalType":"address","name":"creator","type":"address"},{"internalType":"uint256","name":"priceWei","type":"uint256"},{"internalType":"string","name":"description","type":"string"},{"internalType":"string","name":"ipfsHash","type":"string"}],"internalType":"struct MemeCoinFactory.TokenInfo[]","name":"page","type":"tuple[]"}],"stateMutability":"view","type":"function"},{"inputs":[{"internalType":"bytes32","name":"role","type":"bytes32"},{"internalType":"address","name":"account","type":"address"}],"name":"grantRole","outputs":[],"stateMutability":"nonpayable","type":"function"},{"inputs":[{"internalType":"bytes32","name":"role","type":"bytes32"},{"internalType":"address","name":"account","type":"address"}],"name":"hasRole","outputs":[{"internalType":"bool","name":"","type":"bool"}],"stateMutability":"view","type":"function"},{"inputs":[{"internalType":"uint256","name":"s","type":"uint256"},{"internalType":"uint256","name":"c","type":"uint256"}],"name":"listTokensPaginated","outputs":[{"components":[{"internalType":"address","name":"token","type":"address"},{"internalType":"address","name":"creator","type":"address"},{"internalType":"uint256","name":"priceWei","type":"uint256"},{"internalType":"string","name":"description","type":"string"},{"internalType":"string","name":"ipfsHash","type":"string"}],"internalType":"struct MemeCoinFactory.TokenInfo[]","name":"page","type":"tuple[]"},{"internalType":"uint256","name":"total","type":"uint256"}],"stateMutability":"view","type":"function"},{"inputs":[],"name":"pause","outputs":[],"stateMutability":"nonpayable","type":"function"},{"inputs":[{"internalType":"address","name":"token_","type":"address"}],"name":"pauseTokenSales","outputs":[],"stateMutability":"nonpayable","type":"function"},{"inputs":[],"name":"paused","outputs":[{"internalType":"bool","name":"","type":"bool"}],"stateMutability":"view","type":"function"},{"inputs":[],"name":"platformFeeBP","outputs":[{"internalType":"uint16","name":"","type":"uint16"}],"stateMutability":"view","type":"function"},{"inputs":[],"name":"platformFeesAccrued","outputs":[{"internalType":"uint256","name":"","type":"uint256"}],"stateMutability":"view","type":"function"},{"inputs":[],"name":"platformFeesAccumulated","outputs":[{"internalType":"uint256","name":"","type":"uint256"}],"stateMutability":"view","type":"function"},{"inputs":[],"name":"presaleMerkleRoot","outputs":[{"internalType":"bytes32","name":"","type":"bytes32"}],"stateMutability":"view","type":"function"},{"inputs":[{"internalType":"address","name":"token_","type":"address"}],"name":"priceOf","outputs":[{"internalType":"uint256","name":"","type":"uint256"}],"stateMutability":"view","type":"function"},{"inputs":[{"internalType":"address","name":"token_","type":"address"},{"internalType":"uint256","name":"amount","type":"uint256"}],"name":"reclaimUnsold","outputs":[],"stateMutability":"nonpayable","type":"function"},{"inputs":[{"internalType":"address[]","name":"toks","type":"address[]"},{"internalType":"uint256[]","name":"amts","type":"uint256[]"}],"name":"reclaimUnsoldBatch","outputs":[],"stateMutability":"nonpayable","type":"function"},{"inputs":[],"name":"referralFeeBP","outputs":[{"internalType":"uint16","name":"","type":"uint16"}],"stateMutability":"view","type":"function"},{"inputs":[{"internalType":"address","name":"who","type":"address"}],"name":"referralFees","outputs":[{"internalType":"uint256","name":"","type":"uint256"}],"stateMutability":"view","type":"function"},{"inputs":[{"internalType":"address","name":"","type":"address"}],"name":"referralFeesAccrued","outputs":[{"internalType":"uint256","name":"","type":"uint256"}],"stateMutability":"view","type":"function"},{"inputs":[{"internalType":"address","name":"token_","type":"address"},{"internalType":"uint256","name":"liq","type":"uint256"}],"name":"removeLiquidity","outputs":[{"internalType":"uint256","name":"","type":"uint256"},{"internalType":"uint256","name":"","type":"uint256"}],"stateMutability":"nonpayable","type":"function"},{"inputs":[{"internalType":"bytes32","name":"role","type":"bytes32"},{"internalType":"address","name":"account","type":"address"}],"name":"renounceRole","outputs":[],"stateMutability":"nonpayable","type":"function"},{"inputs":[{"internalType":"address","name":"token_","type":"address"},{"internalType":"uint256","name":"amount","type":"uint256"}],"name":"rescueERC20","outputs":[],"stateMutability":"nonpayable","type":"function"},{"inputs":[{"internalType":"bytes32","name":"role","type":"bytes32"},{"internalType":"address","name":"account","type":"address"}],"name":"revokeRole","outputs":[],"stateMutability":"nonpayable","type":"function"},{"inputs":[{"internalType":"address","name":"factory_","type":"address"},{"internalType":"address","name":"router_","type":"address"}],"name":"setDexAddresses","outputs":[],"stateMutability":"nonpayable","type":"function"},{"inputs":[{"internalType":"bytes32","name":"root_","type":"bytes32"}],"name":"setPresaleMerkleRoot","outputs":[],"stateMutability":"nonpayable","type":"function"},{"inputs":[{"internalType":"address","name":"beneficiary","type":"address"},{"internalType":"address","name":"token_","type":"address"},{"internalType":"uint256","name":"total","type":"uint256"},{"internalType":"uint256","name":"cliff","type":"uint256"},{"internalType":"uint256","name":"duration","type":"uint256"}],"name":"setVestingSchedule","outputs":[],"stateMutability":"nonpayable","type":"function"},{"inputs":[{"internalType":"bytes4","name":"interfaceId","type":"bytes4"}],"name":"supportsInterface","outputs":[{"internalType":"bool","name":"","type":"bool"}],"stateMutability":"view","type":"function"},{"inputs":[{"internalType":"address","name":"token_","type":"address"},{"internalType":"bool","name":"on","type":"bool"}],"name":"toggleWhitelist","outputs":[],"stateMutability":"nonpayable","type":"function"},{"inputs":[{"internalType":"address","name":"","type":"address"}],"name":"tokenIndexPlusOne","outputs":[{"internalType":"uint256","name":"","type":"uint256"}],"stateMutability":"view","type":"function"},{"inputs":[{"internalType":"address","name":"","type":"address"}],"name":"tokenPaused","outputs":[{"internalType":"bool","name":"","type":"bool"}],"stateMutability":"view","type":"function"},{"inputs":[],"name":"totalTokens","outputs":[{"internalType":"uint256","name":"","type":"uint256"}],"stateMutability":"view","type":"function"},{"inputs":[],"name":"unpause","outputs":[],"stateMutability":"nonpayable","type":"function"},{"inputs":[{"internalType":"address","name":"token_","type":"address"}],"name":"unpauseTokenSales","outputs":[],"stateMutability":"nonpayable","type":"function"},{"inputs":[{"internalType":"address[]","name":"toks","type":"address[]"}],"name":"unsoldForAll","outputs":[{"internalType":"uint256[]","name":"out","type":"uint256[]"}],"stateMutability":"view","type":"function"},{"inputs":[{"internalType":"uint16","name":"_platformFeeBP","type":"uint16"},{"internalType":"uint16","name":"_referralFeeBP","type":"uint16"}],"name":"updateFees","outputs":[],"stateMutability":"nonpayable","type":"function"},{"inputs":[{"internalType":"address","name":"token_","type":"address"},{"internalType":"string","name":"desc","type":"string"},{"internalType":"string","name":"ipfsHash","type":"string"}],"name":"updateMetadata","outputs":[],"stateMutability":"nonpayable","type":"function"},{"inputs":[{"internalType":"address","name":"token_","type":"address"},{"internalType":"uint256","name":"newPriceWei","type":"uint256"}],"name":"updatePrice","outputs":[],"stateMutability":"nonpayable","type":"function"},{"inputs":[{"internalType":"address","name":"","type":"address"}],"name":"vestingSchedules","outputs":[{"internalType":"address","name":"token","type":"address"},{"internalType":"uint256","name":"total","type":"uint256"},{"internalType":"uint256","name":"claimed","type":"uint256"},{"internalType":"uint256","name":"start","type":"uint256"},{"internalType":"uint256","name":"cliff","type":"uint256"},{"internalType":"uint256","name":"duration","type":"uint256"}],"stateMutability":"view","type":"function"},{"inputs":[{"internalType":"address","name":"","type":"address"}],"name":"whitelistEnabled","outputs":[{"internalType":"bool","name":"","type":"bool"}],"stateMutability":"view","type":"function"},{"inputs":[{"internalType":"address","name":"","type":"address"},{"internalType":"address","name":"","type":"address"}],"name":"whitelisted","outputs":[{"internalType":"bool","name":"","type":"bool"}],"stateMutability":"view","type":"function"},{"inputs":[{"internalType":"address","name":"token_","type":"address"}],"name":"withdrawCreatorFees","outputs":[],"stateMutability":"nonpayable","type":"function"},{"inputs":[],"name":"withdrawPlatformFees","outputs":[],"stateMutability":"nonpayable","type":"function"},{"inputs":[],"name":"withdrawReferralFees","outputs":[],"stateMutability":"nonpayable","type":"function"},{"stateMutability":"payable","type":"receive"}],"evm":{"bytecode":{"linkReferences":{},"object":"60806040523480156200001157600080fd5b5060405162006b7038038062006b708339810160408190526200003491620001ea565b6001805460ff1916815560025561271062000050828462000222565b61ffff1610620000965760405162461bcd60e51b815260206004820152600d60248201526c08ccacae640e8dede40d0d2ced609b1b604482015260640160405180910390fd5b6003805461ffff838116620100000263ffffffff1990921690851617179055620000c260003362000122565b620000ee7f65d7a28e3265b37a6474929f336521b332c1681b933f6cb9f3376673440d862a3362000122565b6200011a7f97667070c54ef182b0f5858b034beac1b6f3089aa2d3188bb1e8929f4fa9b9293362000122565b505062000253565b6200012e828262000132565b5050565b6000828152602081815260408083206001600160a01b038516845290915290205460ff166200012e576000828152602081815260408083206001600160a01b03851684529091529020805460ff191660011790556200018e3390565b6001600160a01b0316816001600160a01b0316837f2f8788117e7eff1d82e926ec794901d17c78024a50270940304540a733656f0d60405160405180910390a45050565b805161ffff81168114620001e557600080fd5b919050565b60008060408385031215620001fe57600080fd5b6200020983620001d2565b91506200021960208401620001d2565b90509250929050565b61ffff8181168382160190808211156200024c57634e487b7160e01b600052601160045260246000fd5b5092915050565b61690d80620002636000396000f3fe608060405260043610620002e95760003560e01c806301ffc9a7146200032c5780630758d924146200036657806309cccaac14620003975780630e3f0cfc14620003be578063173608e714620003e35780631af0320314620003fb57806322163b86146200042057806322212e2b1462000447578063248a9ca3146200045f57806328d7b27614620004845780632f2ff15d14620004a9578063349123d114620004ce57806335a62e6814620004f357806336568abe14620005245780633d94bdbb14620005495780633f4ba83a146200056e578063457972de1462000586578063494cfc6c14620005ab5780635668870014620005df5780635c975abb14620006125780635e62bf94146200062c578063634282af146200065157806364618cf9146200068957806366c5b06c14620006a0578063692bf4a814620006c557806375780f4214620006dc57806379c8ffd614620007165780637a86279b146200074a5780637e1c0c09146200076f5780637e8def1d14620007865780638453601714620007c15780638456cb5914620007d95780638995881d14620007f15780638cd4426d146200082557806391d14854146200084a57806398e122fd146200086f5780639b53a7f51462000894578063a201ccf614620008c9578063a217fddf14620008ee578063b8d8fbb41462000905578063b95ed06f1462000927578063bc120fe7146200094c578063c748713e146200098b578063d01c44cd14620009bc578063d0b7830b14620009d4578063d260be7c14620009ec578063d547741f1462000a20578063d634b4191462000a45578063dad4412c1462000a6a578063dc4ec9be1462000a8f578063e559afd91462000ac6578063e63ab1e91462000aeb578063f0b6374b1462000b10578063f37ef78c1462000b35578063f3d2350e1462000b66578063f4c5cdca1462000b8b578063f5b541a61462000bb0578063f641fe391462000bd5578063fdb20ccb1462000bec578063ff96092a1462000c825762000312565b36620003125760405162461bcd60e51b8152600401620003099062003db4565b60405180910390fd5b60405162461bcd60e51b8152600401620003099062003db4565b3480156200033957600080fd5b50620003516200034b36600462003dda565b62000c9f565b60405190151581526020015b60405180910390f35b3480156200037357600080fd5b5060085462000388906001600160a01b031681565b6040516200035d919062003e06565b348015620003a457600080fd5b50620003bc620003b636600462003e30565b62000cd7565b005b348015620003cb57600080fd5b50620003bc620003dd36600462003e6e565b62000dbc565b348015620003f057600080fd5b50620003bc62000ed4565b3480156200040857600080fd5b50620003bc6200041a36600462003e9d565b62000f87565b3480156200042d57600080fd5b506200043860045481565b6040519081526020016200035d565b3480156200045457600080fd5b506200043860095481565b3480156200046c57600080fd5b50620004386200047e36600462003ebd565b620010a7565b3480156200049157600080fd5b50620003bc620004a336600462003ebd565b620010bc565b348015620004b657600080fd5b50620003bc620004c836600462003ed7565b62001113565b348015620004db57600080fd5b50620003bc620004ed36600462003f0e565b6200113a565b3480156200050057600080fd5b50620004386200051236600462003e9d565b600d6020526000908152604090205481565b3480156200053157600080fd5b50620003bc6200054336600462003ed7565b620011b6565b3480156200055657600080fd5b50620003bc6200056836600462003f41565b62001234565b3480156200057b57600080fd5b50620003bc620013e8565b3480156200059357600080fd5b50620003bc620005a536600462003e6e565b62001410565b348015620005b857600080fd5b50620005d0620005ca36600462003f97565b62001516565b6040516200035d9190620040be565b620005f6620005f036600462003e6e565b62001798565b604080519384526020840192909252908201526060016200035d565b3480156200061f57600080fd5b5060015460ff1662000351565b3480156200063957600080fd5b50620003bc6200064b36600462004117565b62001881565b3480156200065e57600080fd5b50620006766200067036600462003ebd565b620019be565b6040516200035d959493929190620041a2565b620003bc6200069a3660046200423e565b62001b31565b348015620006ad57600080fd5b50620003bc620006bf36600462003e9d565b62001bf5565b620003bc620006d6366004620042a7565b62001c5d565b348015620006e957600080fd5b5062000438620006fb36600462003e9d565b6001600160a01b031660009081526005602052604090205490565b3480156200072357600080fd5b50620003516200073536600462003e9d565b600a6020526000908152604090205460ff1681565b3480156200075757600080fd5b50620003bc62000769366004620042ee565b62001fe2565b3480156200077c57600080fd5b50600c5462000438565b3480156200079357600080fd5b50620007ab620007a536600462003e9d565b620021b7565b604080519283526020830191909152016200035d565b348015620007ce57600080fd5b50620003bc620022a6565b348015620007e657600080fd5b50620003bc62002354565b348015620007fe57600080fd5b50620003516200081036600462003e9d565b600e6020526000908152604090205460ff1681565b3480156200083257600080fd5b50620003bc6200084436600462003e6e565b62002379565b3480156200085757600080fd5b50620003516200086936600462003ed7565b620023d1565b3480156200087c57600080fd5b50620003886200088e36600462003e9d565b620023fa565b348015620008a157600080fd5b50620008b9620008b336600462003f97565b62002593565b6040516200035d92919062004360565b348015620008d657600080fd5b50620007ab620008e836600462003e6e565b62002815565b348015620008fb57600080fd5b5062000438600081565b3480156200091257600080fd5b5060075462000388906001600160a01b031681565b3480156200093457600080fd5b50620004386200094636600462003e9d565b620029e9565b3480156200095957600080fd5b50620003516200096b36600462003e30565b600b60209081526000928352604080842090915290825290205460ff1681565b3480156200099857600080fd5b5062000438620009aa36600462003e9d565b60066020526000908152604090205481565b348015620009c957600080fd5b50620003bc62002a60565b348015620009e157600080fd5b50620003bc62002c17565b348015620009f957600080fd5b5062000a1162000a0b36600462004384565b62002c8e565b6040516200035d9190620043c9565b34801562000a2d57600080fd5b50620003bc62000a3f36600462003ed7565b62002dbd565b34801562000a5257600080fd5b506200038862000a643660046200440f565b62002ddf565b34801562000a7757600080fd5b50620005f662000a8936600462003ebd565b62003032565b34801562000a9c57600080fd5b5060035462000ab29062010000900461ffff1681565b60405161ffff90911681526020016200035d565b34801562000ad357600080fd5b50620003bc62000ae5366004620044f5565b620030ab565b34801562000af857600080fd5b50620004386000805160206200685883398151915281565b34801562000b1d57600080fd5b50620003bc62000b2f36600462003e9d565b620031c1565b34801562000b4257600080fd5b506200043862000b5436600462003e9d565b60056020526000908152604090205481565b34801562000b7357600080fd5b50620003bc62000b8536600462004567565b62003226565b34801562000b9857600080fd5b50620003bc62000baa36600462003e9d565b620032ea565b34801562000bbd57600080fd5b50620004386000805160206200683883398151915281565b34801562000be257600080fd5b5060045462000438565b34801562000bf957600080fd5b5062000c4a62000c0b36600462003e9d565b600f602052600090815260409020805460018201546002830154600384015460048501546005909501546001600160a01b039094169492939192909186565b604080516001600160a01b0390971687526020870195909552938501929092526060840152608083015260a082015260c0016200035d565b34801562000c8f57600080fd5b5060035462000ab29061ffff1681565b60006001600160e01b03198216637965db0b60e01b148062000cd157506301ffc9a760e01b6001600160e01b03198316145b92915050565b600062000ce4816200345f565b62000cee6200346b565b6001600160a01b0383161580159062000d0f57506001600160a01b03821615155b62000d4b5760405162461bcd60e51b815260206004820152600b60248201526a24b73b30b634b220b2323960a91b604482015260640162000309565b600780546001600160a01b038086166001600160a01b03199283161790925560088054928516929091169190911790556040517fbd1f56340e71693e2714ef366858f586d668634bbaa3720ebf8b0faf0b1aa82c9062000daf90859085906200459f565b60405180910390a1505050565b62000dc66200346b565b62000dd0620034b3565b6001600160a01b0382166000908152600d60205260408120549081900362000e0c5760405162461bcd60e51b81526004016200030990620045b9565b6000600c62000e1d600184620045f4565b8154811062000e305762000e306200460a565b6000918252602090912060059091020160018101549091506001600160a01b0316331462000e725760405162461bcd60e51b8152600401620003099062004620565b600181015462000e90906001600160a01b038681169116856200350c565b836001600160a01b0316600080516020620068788339815191528460405162000ebb91815260200190565b60405180910390a2505062000ed06001600255565b5050565b62000ede6200346b565b62000ee8620034b3565b336000908152600560205260409020548062000f185760405162461bcd60e51b8152600401620003099062004647565b336000818152600560205260408082208290555183156108fc0291849190818181858888f1935050505015801562000f54573d6000803e3d6000fd5b506040518181523390600080516020620068b88339815191529060200160405180910390a25062000f856001600255565b565b600062000f94816200345f565b62000f9e620034b3565b6040516370a0823160e01b81526000906001600160a01b038416906370a082319062000fcf90309060040162003e06565b602060405180830381865afa15801562000fed573d6000803e3d6000fd5b505050506040513d601f19601f8201168201806040525081019062001013919062004667565b905060008111620010525760405162461bcd60e51b81526020600482015260086024820152674e6f546f6b656e7360c01b604482015260640162000309565b620010686001600160a01b03841633836200350c565b826001600160a01b031660008051602062006898833981519152826040516200109391815260200190565b60405180910390a25062000ed06001600255565b60009081526020819052604090206001015490565b60008051602062006838833981519152620010d7816200345f565b60098290556040518281527f27f971fd4accb41a60bcef5477f2a70aa17efca3a2c33b138e3aa62a3d891c6d9060200160405180910390a15050565b6200111e82620010a7565b62001129816200345f565b62001135838362003566565b505050565b6000805160206200683883398151915262001155816200345f565b6001600160a01b0383166000818152600a6020908152604091829020805460ff191686151590811790915591519182527fdb17f7dcc6b9d3c099107ae3eea3dcc0ce959cda4b7b164cac7f8f9c8413971991015b60405180910390a2505050565b6001600160a01b0381163314620012285760405162461bcd60e51b815260206004820152602f60248201527f416363657373436f6e74726f6c3a2063616e206f6e6c792072656e6f756e636560448201526e103937b632b9903337b91039b2b63360891b606482015260840162000309565b62000ed08282620035ee565b600080516020620068388339815191526200124f816200345f565b620012596200346b565b6000841180156200126957508282115b620012a35760405162461bcd60e51b8152602060048201526009602482015268426164506172616d7360b81b604482015260640162000309565b620012ba6001600160a01b03861633308762003656565b6040518060c00160405280866001600160a01b031681526020018581526020016000815260200142815260200184815260200183815250600f6000886001600160a01b03166001600160a01b0316815260200190815260200160002060008201518160000160006101000a8154816001600160a01b0302191690836001600160a01b031602179055506020820151816001015560408201518160020155606082015181600301556080820151816004015560a08201518160050155905050846001600160a01b0316866001600160a01b03167f85ea0818780c5d304e8bfc41cc38a02f61338ca0966c8bbb0b883de4cce660fd86428787604051620013d8949392919093845260208401929092526040830152606082015260800190565b60405180910390a3505050505050565b6000805160206200685883398151915262001403816200345f565b6200140d62003690565b50565b600080516020620068388339815191526200142b816200345f565b620014356200346b565b60008211620014585760405162461bcd60e51b8152600401620003099062004681565b6001600160a01b0383166000908152600d602052604081205490819003620014945760405162461bcd60e51b81526004016200030990620045b9565b82600c620014a4600184620045f4565b81548110620014b757620014b76200460a565b906000526020600020906005020160020181905550836001600160a01b03167f0d86730737b142fc160892fa8a0f2db687a92a0e294d1ad70624cf5acef03b84846040516200150891815260200190565b60405180910390a250505050565b600c546060906000816200152b8587620046a4565b1162001543576200153d8486620046a4565b62001545565b815b9050620015538582620045f4565b6001600160401b038111156200156d576200156d620046ba565b604051908082528060200260200182016040528015620015aa57816020015b6200159662003d65565b8152602001906001900390816200158c5790505b509250845b818110156200178f57600c8181548110620015ce57620015ce6200460a565b60009182526020918290206040805160a081018252600590930290910180546001600160a01b039081168452600182015416938301939093526002830154908201526003820180549192916060840191906200162a90620046d0565b80601f01602080910402602001604051908101604052809291908181526020018280546200165890620046d0565b8015620016a95780601f106200167d57610100808354040283529160200191620016a9565b820191906000526020600020905b8154815290600101906020018083116200168b57829003601f168201915b50505050508152602001600482018054620016c490620046d0565b80601f0160208091040260200160405190810160405280929190818152602001828054620016f290620046d0565b8015620017435780601f10620017175761010080835404028352916020019162001743565b820191906000526020600020905b8154815290600101906020018083116200172557829003601f168201915b5050505050815250508487836200175b9190620045f4565b815181106200176e576200176e6200460a565b6020026020010181905250808062001786906200470c565b915050620015af565b50505092915050565b6000806000620017a76200346b565b620017b1620034b3565b620017c86001600160a01b03861633308762003656565b600854620017e4906001600160a01b03878116911686620036e0565b60085460405163f305d71960e01b81526001600160a01b039091169063f305d71990349062001823908990899060009081903390429060040162004728565b60606040518083038185885af115801562001842573d6000803e3d6000fd5b50505050506040513d601f19601f8201168201806040525081019062001869919062004763565b9250925092506200187a6001600255565b9250925092565b600080516020620068388339815191526200189c816200345f565b620018a66200346b565b6001600160a01b0386166000908152600d602052604081205490819003620018e25760405162461bcd60e51b81526004016200030990620045b9565b8585600c620018f3600185620045f4565b815481106200190657620019066200460a565b9060005260206000209060050201600301918262001926929190620047f9565b508383600c62001938600185620045f4565b815481106200194b576200194b6200460a565b906000526020600020906005020160040191826200196b929190620047f9565b50866001600160a01b03167f6c1850fce35387a891e82ca88e975790ab6f0709e9ed6842e01397f296012a7e87878787604051620019ad9493929190620048ea565b60405180910390a250505050505050565b600c8181548110620019cf57600080fd5b600091825260209091206005909102018054600182015460028301546003840180546001600160a01b03948516965092909316939092909162001a1290620046d0565b80601f016020809104026020016040519081016040528092919081815260200182805462001a4090620046d0565b801562001a915780601f1062001a655761010080835404028352916020019162001a91565b820191906000526020600020905b81548152906001019060200180831162001a7357829003601f168201915b50505050509080600401805462001aa890620046d0565b80601f016020809104026020016040519081016040528092919081815260200182805462001ad690620046d0565b801562001b275780601f1062001afb5761010080835404028352916020019162001b27565b820191906000526020600020905b81548152906001019060200180831162001b0957829003601f168201915b5050505050905085565b62001b3b6200346b565b62001b45620034b3565b62001bb7828280806020026020016040519081016040528093929190818152602001838360200280828437600092019190915250506009546040516001600160601b03193360601b16602082015290925060340190506040516020818303038152906040528051906020012062003786565b62001bd65760405162461bcd60e51b8152600401620003099062004915565b62001be385858562001c5d565b62001bee6001600255565b5050505050565b6000805160206200683883398151915262001c10816200345f565b6001600160a01b0382166000818152600e6020526040808220805460ff19166001179055517ff017c0de579727a3cd3ee18077ee8b4c43bf21892985952d1d5a0d52f983502d9190a25050565b62001c676200346b565b62001c71620034b3565b6000821162001cb05760405162461bcd60e51b815260206004820152600a60248201526916995c9bd05b5bdd5b9d60b21b604482015260640162000309565b6001600160a01b0383166000908152600e602052604090205460ff161562001d095760405162461bcd60e51b815260206004820152600b60248201526a151bdad95b94185d5cd95960aa1b604482015260640162000309565b6001600160a01b0383166000908152600d60205260408120549081900362001d455760405162461bcd60e51b81526004016200030990620045b9565b6001600160a01b0384166000908152600a602052604090205460ff161562001dad576001600160a01b0384166000908152600b6020908152604080832033845290915290205460ff1662001dad5760405162461bcd60e51b8152600401620003099062004915565b6000600c62001dbe600184620045f4565b8154811062001dd15762001dd16200460a565b906000526020600020906005020190506000670de0b6b3a764000085836002015462001dfe91906200493d565b62001e0a919062004957565b905080341462001e4c5760405162461bcd60e51b815260206004820152600c60248201526b092dcc6dee4e4cac6e88aa8960a31b604482015260640162000309565b6003546000906127109062001e669061ffff16846200493d565b62001e72919062004957565b905060006001600160a01b0386161562001eb5576003546127109062001ea39062010000900461ffff16856200493d565b62001eaf919062004957565b62001eb8565b60005b905060008162001ec98486620045f4565b62001ed59190620045f4565b9050826004600082825462001eeb9190620046a4565b9091555050811562001f27576001600160a01b0387166000908152600560205260408120805484929062001f21908490620046a4565b90915550505b60018501546001600160a01b03166000908152600660205260408120805483929062001f55908490620046a4565b9091555062001f7190506001600160a01b038a16338a6200350c565b604080518981526020810186905290810184905260608101839052608081018290526001600160a01b038089169133918c16907fa4d1d47447ad64a0c581f05071df4ce987ba94440d913925dc004a21f28f42269060a00160405180910390a4505050505050620011356001600255565b62001fec6200346b565b62001ff6620034b3565b828114620020385760405162461bcd60e51b815260206004820152600e60248201526d098cadccee8d09ad2e6dac2e8c6d60931b604482015260640162000309565b60005b83811015620021a55760008585838181106200205b576200205b6200460a565b905060200201602081019062002072919062003e9d565b905060008484848181106200208b576200208b6200460a565b6001600160a01b0385166000908152600d60209081526040822054920293909301359350918290039050620020d45760405162461bcd60e51b81526004016200030990620045b9565b6000600c620020e5600184620045f4565b81548110620020f857620020f86200460a565b6000918252602090912060059091020160018101549091506001600160a01b031633146200213a5760405162461bcd60e51b8152600401620003099062004620565b600181015462002158906001600160a01b038681169116856200350c565b836001600160a01b031660008051602062006878833981519152846040516200218391815260200190565b60405180910390a25050505080806200219c906200470c565b9150506200203b565b50620021b16001600255565b50505050565b600080826001600160a01b03166370a08231306040518263ffffffff1660e01b8152600401620021e8919062003e06565b602060405180830381865afa15801562002206573d6000803e3d6000fd5b505050506040513d601f19601f820116820180604052508101906200222c919062004667565b836001600160a01b03166318160ddd6040518163ffffffff1660e01b8152600401602060405180830381865afa1580156200226b573d6000803e3d6000fd5b505050506040513d601f19601f8201168201806040525081019062002291919062004667565b6200229d9190620045f4565b93479350915050565b6000620022b3816200345f565b620022bd620034b3565b4780620022f55760405162461bcd60e51b815260206004820152600560248201526409cde8aa8960db1b604482015260640162000309565b604051339082156108fc029083906000818181858888f1935050505015801562002323573d6000803e3d6000fd5b506040518181523390600080516020620068b88339815191529060200160405180910390a2506200140d6001600255565b600080516020620068588339815191526200236f816200345f565b6200140d6200379e565b600062002386816200345f565b620023906200346b565b620023a66001600160a01b03841633846200350c565b826001600160a01b03166000805160206200689883398151915283604051620011a991815260200190565b6000918252602082815260408084206001600160a01b0393909316845291905290205460ff1690565b60008062002408816200345f565b620024126200346b565b600754600854604080516315ab88c960e31b815290516001600160a01b0393841693600093169163ad5c46489160048083019260209291908290030181865afa15801562002464573d6000803e3d6000fd5b505050506040513d601f19601f820116820180604052508101906200248a91906200497a565b60405163e6a4390560e01b81529091506001600160a01b0383169063e6a4390590620024bd90889085906004016200459f565b602060405180830381865afa158015620024db573d6000803e3d6000fd5b505050506040513d601f19601f820116820180604052508101906200250191906200497a565b93506001600160a01b0384166200258b576040516364e329cb60e11b81526001600160a01b0383169063c9c65396906200254290889085906004016200459f565b6020604051808303816000875af115801562002562573d6000803e3d6000fd5b505050506040513d601f19601f820116820180604052508101906200258891906200497a565b93505b505050919050565b600c54606090600081620025a88587620046a4565b11620025c057620025ba8486620046a4565b620025c2565b815b9050620025d08582620045f4565b6001600160401b03811115620025ea57620025ea620046ba565b6040519080825280602002602001820160405280156200262757816020015b6200261362003d65565b815260200190600190039081620026095790505b509250845b818110156200280c57600c81815481106200264b576200264b6200460a565b60009182526020918290206040805160a081018252600590930290910180546001600160a01b03908116845260018201541693830193909352600283015490820152600382018054919291606084019190620026a790620046d0565b80601f0160208091040260200160405190810160405280929190818152602001828054620026d590620046d0565b8015620027265780601f10620026fa5761010080835404028352916020019162002726565b820191906000526020600020905b8154815290600101906020018083116200270857829003601f168201915b505050505081526020016004820180546200274190620046d0565b80601f01602080910402602001604051908101604052809291908181526020018280546200276f90620046d0565b8015620027c05780601f106200279457610100808354040283529160200191620027c0565b820191906000526020600020905b815481529060010190602001808311620027a257829003601f168201915b505050505081525050848783620027d89190620045f4565b81518110620027eb57620027eb6200460a565b6020026020010181905250808062002803906200470c565b9150506200262c565b50509250929050565b600080620028226200346b565b6200282c620034b3565b600854604080516315ab88c960e31b815290516000926001600160a01b03169163ad5c46489160048083019260209291908290030181865afa15801562002877573d6000803e3d6000fd5b505050506040513d601f19601f820116820180604052508101906200289d91906200497a565b60075460405163e6a4390560e01b81529192506000916001600160a01b039091169063e6a4390590620028d790899086906004016200459f565b602060405180830381865afa158015620028f5573d6000803e3d6000fd5b505050506040513d601f19601f820116820180604052508101906200291b91906200497a565b9050620029346001600160a01b03821633308862003656565b60085462002950906001600160a01b03838116911687620036e0565b600854604051629d473b60e21b81526001600160a01b03909116906302751cec906200298c908990899060009081903390429060040162004728565b60408051808303816000875af1158015620029ab573d6000803e3d6000fd5b505050506040513d601f19601f82011682018060405250810190620029d191906200499a565b935093505050620029e26001600255565b9250929050565b6001600160a01b0381166000908152600d602052604081205480820362002a245760405162461bcd60e51b81526004016200030990620045b9565b600c62002a33600183620045f4565b8154811062002a465762002a466200460a565b906000526020600020906005020160020154915050919050565b62002a6a6200346b565b62002a74620034b3565b336000908152600f60205260409020600181015462002ac25760405162461bcd60e51b81526020600482015260096024820152684e6f56657374696e6760b81b604482015260640162000309565b600081600301544262002ad69190620045f4565b905060008260040154821062002b4857826005015482101562002b3d578260040154836005015462002b099190620045f4565b600484015462002b1a9084620045f4565b846001015462002b2b91906200493d565b62002b37919062004957565b62002b4b565b826001015462002b4b565b60005b9050600083600201548262002b619190620045f4565b90506000811162002ba65760405162461bcd60e51b815260206004820152600e60248201526d4e6f7468696e67546f436c61696d60901b604482015260640162000309565b60028401829055835462002bc5906001600160a01b031633836200350c565b83546040518281526001600160a01b039091169033907f3dea86ee53588906162d63de35783619d0db9b5d981641af560779a1e32940ec9060200160405180910390a35050505062000f856001600255565b600062002c24816200345f565b62002c2e6200346b565b62002c38620034b3565b6004548062002c5b5760405162461bcd60e51b8152600401620003099062004647565b60006004819055604051339183156108fc02918491818181858888f1935050505015801562002323573d6000803e3d6000fd5b6060816001600160401b0381111562002cab5762002cab620046ba565b60405190808252806020026020018201604052801562002cd5578160200160208202803683370190505b50905060005b8281101562002db65783838281811062002cf95762002cf96200460a565b905060200201602081019062002d10919062003e9d565b6001600160a01b03166370a08231306040518263ffffffff1660e01b815260040162002d3d919062003e06565b602060405180830381865afa15801562002d5b573d6000803e3d6000fd5b505050506040513d601f19601f8201168201806040525081019062002d81919062004667565b82828151811062002d965762002d966200460a565b60209081029190910101528062002dad816200470c565b91505062002cdb565b5092915050565b62002dc882620010a7565b62002dd3816200345f565b620011358383620035ee565b60006000805160206200683883398151915262002dfc816200345f565b62002e066200346b565b62002e10620034b3565b6000851162002e335760405162461bcd60e51b8152600401620003099062004681565b60008c8c8c8c8a338a8a60405162002e4b9062003da6565b62002e5e989796959493929190620049bf565b604051809103906000f08015801562002e7b573d6000803e3d6000fd5b5090506000819050600c6040518060a00160405280836001600160a01b03168152602001336001600160a01b031681526020018981526020018c8c8080601f016020809104026020016040519081016040528093929190818152602001838380828437600092019190915250505090825250604080516020601f8b0181900481028201810190925289815291810191908a908a90819084018382808284376000920182905250939094525050835460018082018655948252602091829020845160059092020180546001600160a01b03199081166001600160a01b039384161782559285015195810180549093169590911694909417905550604081015160028301556060810151909190600382019062002f97908262004a26565b506080820151600482019062002fae908262004a26565b5050600c546001600160a01b0383166000818152600d6020526040908190209290925590513392507f75c1f35492cd2bcb2820d5ff2434b9dc6d19432975f20761140109f0844a7b8a906200300d908b908f908f908d908d9062004aee565b60405180910390a3925050620030236001600255565b509a9950505050505050505050565b6003546000908190819061271090620030509061ffff16866200493d565b6200305c919062004957565b600354909350612710906200307c9062010000900461ffff16866200493d565b62003088919062004957565b915081620030978486620045f4565b620030a39190620045f4565b929491935050565b60008051602062006838833981519152620030c6816200345f565b60005b8281101562001bee576001600160a01b0385166000908152600b602052604081206001918686858181106200310257620031026200460a565b905060200201602081019062003119919062003e9d565b6001600160a01b031681526020810191909152604001600020805460ff19169115159190911790558383828181106200315657620031566200460a565b90506020020160208101906200316d919062003e9d565b6001600160a01b0316856001600160a01b03167f4bc18aa4b0095c9a3b5cdf42d2322d5a145591b04045988a995a5da42607545760405160405180910390a380620031b8816200470c565b915050620030c9565b60008051602062006838833981519152620031dc816200345f565b6001600160a01b0382166000818152600e6020526040808220805460ff19169055517ff38578ed892ce2ce655ca8ae03c73464ad74915a1331a9b4085e637534daeedf9190a25050565b600062003233816200345f565b6200323d6200346b565b6127106200324c838562004b1f565b61ffff16106200328f5760405162461bcd60e51b815260206004820152600d60248201526c08ccacae640e8dede40d0d2ced609b1b604482015260640162000309565b6003805461ffff85811663ffffffff19909216821762010000918616918202179092556040805191825260208201929092527f2ac80c14c28700f7b5e36f947d572149fe2e3947bac32c3a8c098f3e03722c11910162000daf565b620032f46200346b565b620032fe620034b3565b6001600160a01b0381166000908152600d6020526040812054908190036200333a5760405162461bcd60e51b81526004016200030990620045b9565b6000600c6200334b600184620045f4565b815481106200335e576200335e6200460a565b60009182526020909120600160059092020101546001600160a01b031690503381146200339f5760405162461bcd60e51b8152600401620003099062004620565b6001600160a01b03811660009081526006602052604090205480620033d85760405162461bcd60e51b8152600401620003099062004647565b6001600160a01b0382166000818152600660205260408082208290555183156108fc0291849190818181858888f193505050501580156200341d573d6000803e3d6000fd5b50816001600160a01b0316600080516020620068b8833981519152826040516200344991815260200190565b60405180910390a25050506200140d6001600255565b6200140d8133620037dc565b60015460ff161562000f855760405162461bcd60e51b815260206004820152601060248201526f14185d5cd8589b194e881c185d5cd95960821b604482015260640162000309565b6002805403620035065760405162461bcd60e51b815260206004820152601f60248201527f5265656e7472616e637947756172643a207265656e7472616e742063616c6c00604482015260640162000309565b60028055565b620011358363a9059cbb60e01b84846040516024016200352e92919062004b3d565b60408051601f198184030181529190526020810180516001600160e01b03166001600160e01b03199093169290921790915262003840565b620035728282620023d1565b62000ed0576000828152602081815260408083206001600160a01b03851684529091529020805460ff19166001179055620035aa3390565b6001600160a01b0316816001600160a01b0316837f2f8788117e7eff1d82e926ec794901d17c78024a50270940304540a733656f0d60405160405180910390a45050565b620035fa8282620023d1565b1562000ed0576000828152602081815260408083206001600160a01b0385168085529252808320805460ff1916905551339285917ff6391f5c32d9c69d2a47ea670b442974b53935d1edc7fd64eb21e047a839171b9190a45050565b6040516001600160a01b0380851660248301528316604482015260648101829052620021b19085906323b872dd60e01b906084016200352e565b6200369a6200391c565b6001805460ff191690557f5db9ee0a495bf2e6ff9c91a7834c1ba4fdd244a5e8aa4e537bd38aeae4b073aa335b604051620036d6919062003e06565b60405180910390a1565b604051636eb1769f60e11b81526000906001600160a01b0385169063dd62ed3e906200371390309087906004016200459f565b602060405180830381865afa15801562003731573d6000803e3d6000fd5b505050506040513d601f19601f8201168201806040525081019062003757919062004667565b9050620021b18463095ea7b360e01b85620037738686620046a4565b6040516024016200352e92919062004b3d565b60008262003795858462003967565b14949350505050565b620037a86200346b565b6001805460ff1916811790557f62e78cea01bee320cd4e420270b5ea74000d11b0c9f74754ebdbfc544b05a25833620036c7565b620037e88282620023d1565b62000ed057620037f881620039bd565b62003805836020620039d0565b6040516020016200381892919062004b56565b60408051601f198184030181529082905262461bcd60e51b8252620003099160040162004bc9565b600062003897826040518060400160405280602081526020017f5361666545524332303a206c6f772d6c6576656c2063616c6c206661696c6564815250856001600160a01b031662003b909092919063ffffffff16565b9050805160001480620038bb575080806020019051810190620038bb919062004bde565b620011355760405162461bcd60e51b815260206004820152602a60248201527f5361666545524332303a204552433230206f7065726174696f6e20646964206e6044820152691bdd081cdd58d8d9595960b21b606482015260840162000309565b60015460ff1662000f855760405162461bcd60e51b815260206004820152601460248201527314185d5cd8589b194e881b9bdd081c185d5cd95960621b604482015260640162000309565b600081815b8451811015620039b5576200399e828683815181106200399057620039906200460a565b602002602001015162003ba9565b915080620039ac816200470c565b9150506200396c565b509392505050565b606062000cd16001600160a01b03831660145b60606000620039e18360026200493d565b620039ee906002620046a4565b6001600160401b0381111562003a085762003a08620046ba565b6040519080825280601f01601f19166020018201604052801562003a33576020820181803683370190505b509050600360fc1b8160008151811062003a515762003a516200460a565b60200101906001600160f81b031916908160001a905350600f60fb1b8160018151811062003a835762003a836200460a565b60200101906001600160f81b031916908160001a905350600062003aa98460026200493d565b62003ab6906001620046a4565b90505b600181111562003b38576f181899199a1a9b1b9c1cb0b131b232b360811b85600f166010811062003aee5762003aee6200460a565b1a60f81b82828151811062003b075762003b076200460a565b60200101906001600160f81b031916908160001a90535060049490941c9362003b308162004bfe565b905062003ab9565b50831562003b895760405162461bcd60e51b815260206004820181905260248201527f537472696e67733a20686578206c656e67746820696e73756666696369656e74604482015260640162000309565b9392505050565b606062003ba1848460008562003bdb565b949350505050565b600081831062003bc757600082815260208490526040902062003b89565b600083815260208390526040902062003b89565b60608247101562003c3e5760405162461bcd60e51b815260206004820152602660248201527f416464726573733a20696e73756666696369656e742062616c616e636520666f6044820152651c8818d85b1b60d21b606482015260840162000309565b600080866001600160a01b0316858760405162003c5c919062004c18565b60006040518083038185875af1925050503d806000811462003c9b576040519150601f19603f3d011682016040523d82523d6000602084013e62003ca0565b606091505b509150915062003cb38783838762003cbe565b979650505050505050565b6060831562003d3257825160000362003d2a576001600160a01b0385163b62003d2a5760405162461bcd60e51b815260206004820152601d60248201527f416464726573733a2063616c6c20746f206e6f6e2d636f6e7472616374000000604482015260640162000309565b508162003ba1565b62003ba1838381511562003d495781518083602001fd5b8060405162461bcd60e51b815260040162000309919062004bc9565b6040518060a0016040528060006001600160a01b0316815260200160006001600160a01b031681526020016000815260200160608152602001606081525090565b611c018062004c3783390190565b6020808252600c908201526b2ab9b290313abcaa37b5b2b760a11b604082015260600190565b60006020828403121562003ded57600080fd5b81356001600160e01b03198116811462003b8957600080fd5b6001600160a01b0391909116815260200190565b6001600160a01b03811681146200140d57600080fd5b6000806040838503121562003e4457600080fd5b823562003e518162003e1a565b9150602083013562003e638162003e1a565b809150509250929050565b6000806040838503121562003e8257600080fd5b823562003e8f8162003e1a565b946020939093013593505050565b60006020828403121562003eb057600080fd5b813562003b898162003e1a565b60006020828403121562003ed057600080fd5b5035919050565b6000806040838503121562003eeb57600080fd5b82359150602083013562003e638162003e1a565b80151581146200140d57600080fd5b6000806040838503121562003f2257600080fd5b823562003f2f8162003e1a565b9150602083013562003e638162003eff565b600080600080600060a0868803121562003f5a57600080fd5b853562003f678162003e1a565b9450602086013562003f798162003e1a565b94979496505050506040830135926060810135926080909101359150565b6000806040838503121562003fab57600080fd5b50508035926020909101359150565b60005b8381101562003fd757818101518382015260200162003fbd565b50506000910152565b6000815180845262003ffa81602086016020860162003fba565b601f01601f19169290920160200192915050565b600081518084526020808501808196508360051b8101915082860160005b85811015620040b1578284038952815180516001600160a01b0390811686528682015116868601526040808201519086015260608082015160a082880181905291906200407c8389018262003fe0565b92505050608080830151925086820381880152506200409c818362003fe0565b9a87019a95505050908401906001016200402c565b5091979650505050505050565b60208152600062003b8960208301846200400e565b60008083601f840112620040e657600080fd5b5081356001600160401b03811115620040fe57600080fd5b602083019150836020828501011115620029e257600080fd5b6000806000806000606086880312156200413057600080fd5b85356200413d8162003e1a565b945060208601356001600160401b03808211156200415a57600080fd5b6200416889838a01620040d3565b909650945060408801359150808211156200418257600080fd5b506200419188828901620040d3565b969995985093965092949392505050565b6001600160a01b038681168252851660208201526040810184905260a060608201819052600090620041d79083018562003fe0565b8281036080840152620041eb818562003fe0565b98975050505050505050565b60008083601f8401126200420a57600080fd5b5081356001600160401b038111156200422257600080fd5b6020830191508360208260051b8501011115620029e257600080fd5b6000806000806000608086880312156200425757600080fd5b8535620042648162003e1a565b94506020860135935060408601356200427d8162003e1a565b925060608601356001600160401b038111156200429957600080fd5b6200419188828901620041f7565b600080600060608486031215620042bd57600080fd5b8335620042ca8162003e1a565b9250602084013591506040840135620042e38162003e1a565b809150509250925092565b600080600080604085870312156200430557600080fd5b84356001600160401b03808211156200431d57600080fd5b6200432b88838901620041f7565b909650945060208701359150808211156200434557600080fd5b506200435487828801620041f7565b95989497509550505050565b6040815260006200437560408301856200400e565b90508260208301529392505050565b600080602083850312156200439857600080fd5b82356001600160401b03811115620043af57600080fd5b620043bd85828601620041f7565b90969095509350505050565b6020808252825182820181905260009190848201906040850190845b818110156200440357835183529284019291840191600101620043e5565b50909695505050505050565b60008060008060008060008060008060c08b8d0312156200442f57600080fd5b8a356001600160401b03808211156200444757600080fd5b620044558e838f01620040d3565b909c509a5060208d01359150808211156200446f57600080fd5b6200447d8e838f01620040d3565b909a50985060408d01359150808211156200449757600080fd5b620044a58e838f01620040d3565b909850965060608d0135955060808d0135945060a08d0135915080821115620044cd57600080fd5b50620044dc8d828e01620040d3565b915080935050809150509295989b9194979a5092959850565b6000806000604084860312156200450b57600080fd5b8335620045188162003e1a565b925060208401356001600160401b038111156200453457600080fd5b6200454286828701620041f7565b9497909650939450505050565b803561ffff811681146200456257600080fd5b919050565b600080604083850312156200457b57600080fd5b62004586836200454f565b915062004596602084016200454f565b90509250929050565b6001600160a01b0392831681529116602082015260400190565b6020808252600b908201526a139bdd13185d5b98da195960aa1b604082015260600190565b634e487b7160e01b600052601160045260246000fd5b8181038181111562000cd15762000cd1620045de565b634e487b7160e01b600052603260045260246000fd5b6020808252600d908201526c139bdd105d5d1a1bdc9a5e9959609a1b604082015260600190565b6020808252600690820152654e6f4665657360d01b604082015260600190565b6000602082840312156200467a57600080fd5b5051919050565b60208082526009908201526850726963655a65726f60b81b604082015260600190565b8082018082111562000cd15762000cd1620045de565b634e487b7160e01b600052604160045260246000fd5b600181811c90821680620046e557607f821691505b6020821081036200470657634e487b7160e01b600052602260045260246000fd5b50919050565b600060018201620047215762004721620045de565b5060010190565b6001600160a01b039687168152602081019590955260408501939093526060840191909152909216608082015260a081019190915260c00190565b6000806000606084860312156200477957600080fd5b8351925060208401519150604084015190509250925092565b601f8211156200113557600081815260208120601f850160051c81016020861015620047bb5750805b601f850160051c820191505b81811015620047dc57828155600101620047c7565b505050505050565b600019600383901b1c191660019190911b1790565b6001600160401b03831115620048135762004813620046ba565b6200482b83620048248354620046d0565b8362004792565b6000601f8411600181146200485e5760008515620048495750838201355b620048558682620047e4565b84555062001bee565b600083815260209020601f19861690835b828110156200489157868501358255602094850194600190920191016200486f565b5086821015620048af5760001960f88860031b161c19848701351681555b505060018560011b0183555050505050565b81835281816020850137506000828201602090810191909152601f909101601f19169091010190565b60408152600062004900604083018688620048c1565b828103602084015262003cb3818587620048c1565b6020808252600e908201526d139bdd15da1a5d195b1a5cdd195960921b604082015260600190565b808202811582820484141762000cd15762000cd1620045de565b6000826200497557634e487b7160e01b600052601260045260246000fd5b500490565b6000602082840312156200498d57600080fd5b815162003b898162003e1a565b60008060408385031215620049ae57600080fd5b505080516020909101519092909150565b60a081526000620049d560a083018a8c620048c1565b8281036020840152620049ea81898b620048c1565b604084018890526001600160a01b03871660608501528381036080850152905062004a17818587620048c1565b9b9a5050505050505050505050565b81516001600160401b0381111562004a425762004a42620046ba565b62004a5a8162004a538454620046d0565b8462004792565b602080601f83116001811462004a8e576000841562004a795750858301515b62004a858582620047e4565b865550620047dc565b600085815260208120601f198616915b8281101562004abf5788860151825594840194600190910190840162004a9e565b508582101562004ade5787850151600019600388901b60f8161c191681555b5050505050600190811b01905550565b85815260606020820152600062004b0a606083018688620048c1565b8281036040840152620041eb818587620048c1565b61ffff81811683821601908082111562002db65762002db6620045de565b6001600160a01b03929092168252602082015260400190565b76020b1b1b2b9b9a1b7b73a3937b61d1030b1b1b7bab73a1604d1b81526000835162004b8a81601785016020880162003fba565b7001034b99036b4b9b9b4b733903937b6329607d1b601791840191820152835162004bbd81602884016020880162003fba565b01602801949350505050565b60208152600062003b89602083018462003fe0565b60006020828403121562004bf157600080fd5b815162003b898162003eff565b60008162004c105762004c10620045de565b506000190190565b6000825162004c2c81846020870162003fba565b919091019291505056fe6101606040523480156200001257600080fd5b5060405162001c0138038062001c01833981016040819052620000359162000526565b6040805180820190915260018152603160f81b6020820152859081908187600362000061838262000671565b50600462000070828262000671565b506200008291508390506005620001e2565b6101205262000093816006620001e2565b61014052815160208084019190912060e052815190820120610100524660a0526200012160e05161010051604080517f8b73c3c69bb8fe3d512ecc4cf759cc79239f7b179b0ffacaa9a75d522b39400f60208201529081019290925260608201524660808201523060a082015260009060c00160405160208183030381529060405280519060200120905090565b60805250503060c0525062000136336200021b565b6001600160a01b0382166200015e5760405163d92e233d60e01b815260040160405180910390fd5b60038551108062000170575060038451105b156200018f57604051639432241960e01b815260040160405180910390fd5b82600003620001b15760405163c16f3a9360e01b815260040160405180910390fd5b600a620001bf828262000671565b50620001cc33846200026d565b620001d78262000334565b5050505050620007b9565b60006020835110156200020257620001fa83620003b3565b905062000215565b816200020f848262000671565b5060ff90505b92915050565b600980546001600160a01b038381166001600160a01b0319831681179093556040519116919082907f8be0079c531659141344cd1fd0a4f28419497f9722a3daafe3b4186f6b6457e090600090a35050565b6001600160a01b038216620002c95760405162461bcd60e51b815260206004820152601f60248201527f45524332303a206d696e7420746f20746865207a65726f20616464726573730060448201526064015b60405180910390fd5b8060026000828254620002dd91906200073d565b90915550506001600160a01b038216600081815260208181526040808320805486019055518481527fddf252ad1be2c89b69c2b068fc378daa952ba7f163c4a11628f55a4df523b3ef910160405180910390a35050565b6200033e620003fb565b6001600160a01b038116620003a55760405162461bcd60e51b815260206004820152602660248201527f4f776e61626c653a206e6577206f776e657220697320746865207a65726f206160448201526564647265737360d01b6064820152608401620002c0565b620003b0816200021b565b50565b600080829050601f81511115620003e1578260405163305a27a960e01b8152600401620002c091906200075f565b8051620003ee8262000794565b179392505050565b505050565b6009546001600160a01b03163314620004575760405162461bcd60e51b815260206004820181905260248201527f4f776e61626c653a2063616c6c6572206973206e6f7420746865206f776e65726044820152606401620002c0565b565b634e487b7160e01b600052604160045260246000fd5b60005b838110156200048c57818101518382015260200162000472565b50506000910152565b600082601f830112620004a757600080fd5b81516001600160401b0380821115620004c457620004c462000459565b604051601f8301601f19908116603f01168101908282118183101715620004ef57620004ef62000459565b816040528381528660208588010111156200050957600080fd5b6200051c8460208301602089016200046f565b9695505050505050565b600080600080600060a086880312156200053f57600080fd5b85516001600160401b03808211156200055757600080fd5b6200056589838a0162000495565b965060208801519150808211156200057c57600080fd5b6200058a89838a0162000495565b604089015160608a0151919750955091506001600160a01b0382168214620005b157600080fd5b608088015191935080821115620005c757600080fd5b50620005d68882890162000495565b9150509295509295909350565b600181811c90821680620005f857607f821691505b6020821081036200061957634e487b7160e01b600052602260045260246000fd5b50919050565b601f821115620003f657600081815260208120601f850160051c81016020861015620006485750805b601f850160051c820191505b81811015620006695782815560010162000654565b505050505050565b81516001600160401b038111156200068d576200068d62000459565b620006a5816200069e8454620005e3565b846200061f565b602080601f831160018114620006dd5760008415620006c45750858301515b600019600386901b1c1916600185901b17855562000669565b600085815260208120601f198616915b828110156200070e57888601518255948401946001909101908401620006ed565b50858210156200072d5787850151600019600388901b60f8161c191681555b5050505050600190811b01905550565b808201808211156200021557634e487b7160e01b600052601160045260246000fd5b6020815260008251806020840152620007808160408501602087016200046f565b601f01601f19169190910160400192915050565b80516020808301519190811015620006195760001960209190910360031b1b16919050565b60805160a05160c05160e0516101005161012051610140516113ed62000814600039600061041d015260006103f201526000610bcb01526000610ba301526000610afe01526000610b2801526000610b5201526113ed6000f3fe608060405234801561001057600080fd5b50600436106100fc5760003560e01c806306fdde0314610101578063095ea7b31461011f57806318160ddd1461014257806323b872dd14610154578063313ce567146101675780633644e51514610176578063395093511461017e5780633c130d901461019157806370a0823114610199578063715018a6146101c25780637ecebe00146101cc57806384b0196e146101df5780638da5cb5b146101fa57806395d89b411461021a578063a457c2d714610222578063a9059cbb14610235578063c623674f14610248578063d505accf14610250578063dd62ed3e14610263578063f2fde38b14610276575b600080fd5b610109610289565b60405161011691906110a1565b60405180910390f35b61013261012d3660046110d7565b61031b565b6040519015158152602001610116565b6002545b604051908152602001610116565b610132610162366004611101565b610335565b60405160128152602001610116565b610146610359565b61013261018c3660046110d7565b610368565b61010961038a565b6101466101a736600461113d565b6001600160a01b031660009081526020819052604090205490565b6101ca6103b2565b005b6101466101da36600461113d565b6103c6565b6101e76103e4565b6040516101169796959493929190611158565b61020261046d565b6040516001600160a01b039091168152602001610116565b61010961047c565b6101326102303660046110d7565b61048b565b6101326102433660046110d7565b61050b565b610109610519565b6101ca61025e3660046111ee565b6105a7565b610146610271366004611261565b61070b565b6101ca61028436600461113d565b610736565b60606003805461029890611294565b80601f01602080910402602001604051908101604052809291908181526020018280546102c490611294565b80156103115780601f106102e657610100808354040283529160200191610311565b820191906000526020600020905b8154815290600101906020018083116102f457829003601f168201915b5050505050905090565b6000336103298185856107af565b60019150505b92915050565b6000336103438582856108d3565b61034e85858561094d565b506001949350505050565b6000610363610af1565b905090565b60003361032981858561037b838361070b565b61038591906112c8565b6107af565b6060600a60405160200161039e91906112e9565b604051602081830303815290604052905090565b6103ba610c1c565b6103c46000610c7b565b565b6001600160a01b03811660009081526007602052604081205461032f565b6000606080828080836104187f00000000000000000000000000000000000000000000000000000000000000006005610ccd565b6104437f00000000000000000000000000000000000000000000000000000000000000006006610ccd565b60408051600080825260208201909252600f60f81b9b939a50919850469750309650945092509050565b6009546001600160a01b031690565b60606004805461029890611294565b60003381610499828661070b565b9050838110156104fe5760405162461bcd60e51b815260206004820152602560248201527f45524332303a2064656372656173656420616c6c6f77616e63652062656c6f77604482015264207a65726f60d81b60648201526084015b60405180910390fd5b61034e82868684036107af565b60003361032981858561094d565b600a805461052690611294565b80601f016020809104026020016040519081016040528092919081815260200182805461055290611294565b801561059f5780601f106105745761010080835404028352916020019161059f565b820191906000526020600020905b81548152906001019060200180831161058257829003601f168201915b505050505081565b834211156105f75760405162461bcd60e51b815260206004820152601d60248201527f45524332305065726d69743a206578706972656420646561646c696e6500000060448201526064016104f5565b60007f6e71edae12b1b97f4d1f60370fef10105fa2faae0126114a169c64845d6126c98888886106268c610d78565b6040805160208101969096526001600160a01b0394851690860152929091166060840152608083015260a082015260c0810186905260e001604051602081830303815290604052805190602001209050600061068182610da0565b9050600061069182878787610dcd565b9050896001600160a01b0316816001600160a01b0316146106f45760405162461bcd60e51b815260206004820152601e60248201527f45524332305065726d69743a20696e76616c6964207369676e6174757265000060448201526064016104f5565b6106ff8a8a8a6107af565b50505050505050505050565b6001600160a01b03918216600090815260016020908152604080832093909416825291909152205490565b61073e610c1c565b6001600160a01b0381166107a35760405162461bcd60e51b815260206004820152602660248201527f4f776e61626c653a206e6577206f776e657220697320746865207a65726f206160448201526564647265737360d01b60648201526084016104f5565b6107ac81610c7b565b50565b6001600160a01b0383166108115760405162461bcd60e51b8152602060048201526024808201527f45524332303a20617070726f76652066726f6d20746865207a65726f206164646044820152637265737360e01b60648201526084016104f5565b6001600160a01b0382166108725760405162461bcd60e51b815260206004820152602260248201527f45524332303a20617070726f766520746f20746865207a65726f206164647265604482015261737360f01b60648201526084016104f5565b6001600160a01b0383811660008181526001602090815260408083209487168084529482529182902085905590518481527f8c5be1e5ebec7d5bd14f71427d1e84f3dd0314c0f7b2291e5b200ac8c7c3b925910160405180910390a3505050565b60006108df848461070b565b90506000198114610947578181101561093a5760405162461bcd60e51b815260206004820152601d60248201527f45524332303a20696e73756666696369656e7420616c6c6f77616e636500000060448201526064016104f5565b61094784848484036107af565b50505050565b6001600160a01b0383166109b15760405162461bcd60e51b815260206004820152602560248201527f45524332303a207472616e736665722066726f6d20746865207a65726f206164604482015264647265737360d81b60648201526084016104f5565b6001600160a01b038216610a135760405162461bcd60e51b815260206004820152602360248201527f45524332303a207472616e7366657220746f20746865207a65726f206164647260448201526265737360e81b60648201526084016104f5565b6001600160a01b03831660009081526020819052604090205481811015610a8b5760405162461bcd60e51b815260206004820152602660248201527f45524332303a207472616e7366657220616d6f756e7420657863656564732062604482015265616c616e636560d01b60648201526084016104f5565b6001600160a01b03848116600081815260208181526040808320878703905593871680835291849020805487019055925185815290927fddf252ad1be2c89b69c2b068fc378daa952ba7f163c4a11628f55a4df523b3ef910160405180910390a3610947565b6000306001600160a01b037f000000000000000000000000000000000000000000000000000000000000000016148015610b4a57507f000000000000000000000000000000000000000000000000000000000000000046145b15610b7457507f000000000000000000000000000000000000000000000000000000000000000090565b610363604080517f8b73c3c69bb8fe3d512ecc4cf759cc79239f7b179b0ffacaa9a75d522b39400f60208201527f0000000000000000000000000000000000000000000000000000000000000000918101919091527f000000000000000000000000000000000000000000000000000000000000000060608201524660808201523060a082015260009060c00160405160208183030381529060405280519060200120905090565b33610c2561046d565b6001600160a01b0316146103c45760405162461bcd60e51b815260206004820181905260248201527f4f776e61626c653a2063616c6c6572206973206e6f7420746865206f776e657260448201526064016104f5565b600980546001600160a01b038381166001600160a01b0319831681179093556040519116919082907f8be0079c531659141344cd1fd0a4f28419497f9722a3daafe3b4186f6b6457e090600090a35050565b606060ff8314610ce757610ce083610df5565b905061032f565b818054610cf390611294565b80601f0160208091040260200160405190810160405280929190818152602001828054610d1f90611294565b8015610d6c5780601f10610d4157610100808354040283529160200191610d6c565b820191906000526020600020905b815481529060010190602001808311610d4f57829003601f168201915b5050505050905061032f565b6001600160a01b03811660009081526007602052604090208054600181018255905b50919050565b600061032f610dad610af1565b8360405161190160f01b8152600281019290925260228201526042902090565b6000806000610dde87878787610e34565b91509150610deb81610eee565b5095945050505050565b60606000610e0283611033565b604080516020808252818301909252919250600091906020820181803683375050509182525060208101929092525090565b6000806fa2a8918ca85bafe22016d0b997e4df60600160ff1b03831115610e615750600090506003610ee5565b6040805160008082526020820180845289905260ff881692820192909252606081018690526080810185905260019060a0016020604051602081039080840390855afa158015610eb5573d6000803e3d6000fd5b5050604051601f1901519150506001600160a01b038116610ede57600060019250925050610ee5565b9150600090505b94509492505050565b6000816004811115610f0257610f026113a1565b03610f0a5750565b6001816004811115610f1e57610f1e6113a1565b03610f665760405162461bcd60e51b815260206004820152601860248201527745434453413a20696e76616c6964207369676e617475726560401b60448201526064016104f5565b6002816004811115610f7a57610f7a6113a1565b03610fc75760405162461bcd60e51b815260206004820152601f60248201527f45434453413a20696e76616c6964207369676e6174757265206c656e6774680060448201526064016104f5565b6003816004811115610fdb57610fdb6113a1565b036107ac5760405162461bcd60e51b815260206004820152602260248201527f45434453413a20696e76616c6964207369676e6174757265202773272076616c604482015261756560f01b60648201526084016104f5565b600060ff8216601f81111561032f57604051632cd44ac360e21b815260040160405180910390fd5b6000815180845260005b8181101561108157602081850181015186830182015201611065565b506000602082860101526020601f19601f83011685010191505092915050565b6020815260006110b4602083018461105b565b9392505050565b80356001600160a01b03811681146110d257600080fd5b919050565b600080604083850312156110ea57600080fd5b6110f3836110bb565b946020939093013593505050565b60008060006060848603121561111657600080fd5b61111f846110bb565b925061112d602085016110bb565b9150604084013590509250925092565b60006020828403121561114f57600080fd5b6110b4826110bb565b60ff60f81b881681526000602060e08184015261117860e084018a61105b565b838103604085015261118a818a61105b565b606085018990526001600160a01b038816608086015260a0850187905284810360c0860152855180825283870192509083019060005b818110156111dc578351835292840192918401916001016111c0565b50909c9b505050505050505050505050565b600080600080600080600060e0888a03121561120957600080fd5b611212886110bb565b9650611220602089016110bb565b95506040880135945060608801359350608088013560ff8116811461124457600080fd5b9699959850939692959460a0840135945060c09093013592915050565b6000806040838503121561127457600080fd5b61127d836110bb565b915061128b602084016110bb565b90509250929050565b600181811c908216806112a857607f821691505b602082108103610d9a57634e487b7160e01b600052602260045260246000fd5b8082018082111561032f57634e487b7160e01b600052601160045260246000fd5b66697066733a2f2f60c81b8152600060076000845481600182811c91508083168061131557607f831692505b6020808410820361133457634e487b7160e01b86526022600452602486fd5b818015611348576001811461136157611392565b60ff1986168a89015284151585028a0188019650611392565b60008b81526020902060005b868110156113885781548c82018b015290850190830161136d565b505087858b010196505b50949998505050505050505050565b634e487b7160e01b600052602160045260246000fdfea2646970667358221220f1f0e77efd43c1ed3129e9422c1f778ad458cfbd181e98219bdec1839a3a2a2b64736f6c6343000814003397667070c54ef182b0f5858b034beac1b6f3089aa2d3188bb1e8929f4fa9b92965d7a28e3265b37a6474929f336521b332c1681b933f6cb9f3376673440d862ab42c9fecfb68f9bf84886f05b85865be2fda69a3ec869651d1320d8f528be6bbe82be315ba1a0d0362d09d5cf59781f214b53a74eb978c35b76ad687099c670cb3579861130e4da8bb7b87c54d2d139937f23bcd6e4ebed9e75d0f78ab1cc118a2646970667358221220a5e93aeb8ebd0a9a318abafe97b4f97b35b859d42db0766bf6a8ccf0cec6bbd464736f6c63430008140033","opcodes":"PUSH1 0x80 PUSH1 0x40 MSTORE CALLVALUE DUP1 ISZERO PUSH3 0x11 JUMPI PUSH1 0x0 DUP1 REVERT JUMPDEST POP PUSH1 0x40 MLOAD PUSH3 0x6B70 CODESIZE SUB DUP1 PUSH3 0x6B70 DUP4 CODECOPY DUP2 ADD PUSH1 0x40 DUP2 SWAP1 MSTORE PUSH3 0x34 SWAP2 PUSH3 0x1EA JUMP JUMPDEST PUSH1 0x1 DUP1 SLOAD PUSH1 0xFF NOT AND DUP2 SSTORE PUSH1 0x2 SSTORE PUSH2 0x2710 PUSH3 0x50 DUP3 DUP5 PUSH3 0x222 JUMP JUMPDEST PUSH2 0xFFFF AND LT PUSH3 0x96 JUMPI PUSH1 0x40 MLOAD PUSH3 0x461BCD PUSH1 0xE5 SHL DUP2 MSTORE PUSH1 0x20 PUSH1 0x4 DUP3 ADD MSTORE PUSH1 0xD PUSH1 0x24 DUP3 ADD MSTORE PUSH13 0x8CCACAE640E8DEDE40D0D2CED PUSH1 0x9B SHL PUSH1 0x44 DUP3 ADD MSTORE PUSH1 0x64 ADD PUSH1 0x40 MLOAD DUP1 SWAP2 SUB SWAP1 REVERT JUMPDEST PUSH1 0x3 DUP1 SLOAD PUSH2 0xFFFF DUP4 DUP2 AND PUSH3 0x10000 MUL PUSH4 0xFFFFFFFF NOT SWAP1 SWAP3 AND SWAP1 DUP6 AND OR OR SWAP1 SSTORE PUSH3 0xC2 PUSH1 0x0 CALLER PUSH3 0x122 JUMP JUMPDEST PUSH3 0xEE PUSH32 0x65D7A28E3265B37A6474929F336521B332C1681B933F6CB9F3376673440D862A CALLER PUSH3 0x122 JUMP JUMPDEST PUSH3 0x11A PUSH32 0x97667070C54EF182B0F5858B034BEAC1B6F3089AA2D3188BB1E8929F4FA9B929 CALLER PUSH3 0x122 JUMP JUMPDEST POP POP PUSH3 0x253 JUMP JUMPDEST PUSH3 0x12E DUP3 DUP3 PUSH3 0x132 JUMP JUMPDEST POP POP JUMP JUMPDEST PUSH1 0x0 DUP3 DUP2 MSTORE PUSH1 0x20 DUP2 DUP2 MSTORE PUSH1 0x40 DUP1 DUP4 KECCAK256 PUSH1 0x1 PUSH1 0x1 PUSH1 0xA0 SHL SUB DUP6 AND DUP5 MSTORE SWAP1 SWAP2 MSTORE SWAP1 KECCAK256 SLOAD PUSH1 0xFF AND PUSH3 0x12E JUMPI PUSH1 0x0 DUP3 DUP2 MSTORE PUSH1 0x20 DUP2 DUP2 MSTORE PUSH1 0x40 DUP1 DUP4 KECCAK256 PUSH1 0x1 PUSH1 0x1 PUSH1 0xA0 SHL SUB DUP6 AND DUP5 MSTORE SWAP1 SWAP2 MSTORE SWAP1 KECCAK256 DUP1 SLOAD PUSH1 0xFF NOT AND PUSH1 0x1 OR SWAP1 SSTORE PUSH3 0x18E CALLER SWAP1 JUMP JUMPDEST PUSH1 0x1 PUSH1 0x1 PUSH1 0xA0 SHL SUB AND DUP2 PUSH1 0x1 PUSH1 0x1 PUSH1 0xA0 SHL SUB AND DUP4 PUSH32 0x2F8788117E7EFF1D82E926EC794901D17C78024A50270940304540A733656F0D PUSH1 0x40 MLOAD PUSH1 0x40 MLOAD DUP1 SWAP2 SUB SWAP1 LOG4 POP POP JUMP JUMPDEST DUP1 MLOAD PUSH2 0xFFFF DUP2 AND DUP2 EQ PUSH3 0x1E5 JUMPI PUSH1 0x0 DUP1 REVERT JUMPDEST SWAP2 SWAP1 POP JUMP JUMPDEST PUSH1 0x0 DUP1 PUSH1 0x40 DUP4 DUP6 SUB SLT ISZERO PUSH3 0x1FE JUMPI PUSH1 0x0 DUP1 REVERT JUMPDEST PUSH3 0x209 DUP4 PUSH3 0x1D2 JUMP JUMPDEST SWAP2 POP PUSH3 0x219 PUSH1 0x20 DUP5 ADD PUSH3 0x1D2 JUMP JUMPDEST SWAP1 POP SWAP3 POP SWAP3 SWAP1 POP JUMP JUMPDEST PUSH2 0xFFFF DUP2 DUP2 AND DUP4 DUP3 AND ADD SWAP1 DUP1 DUP3 GT ISZERO PUSH3 0x24C JUMPI PUSH4 0x4E487B71 PUSH1 0xE0 SHL PUSH1 0x0 MSTORE PUSH1 0x11 PUSH1 0x4 MSTORE PUSH1 0x24 PUSH1 0x0 REVERT JUMPDEST POP SWAP3 SWAP2 POP POP JUMP JUMPDEST PUSH2 0x690D DUP1 PUSH3 0x263 PUSH1 0x0 CODECOPY PUSH1 0x0 RETURN INVALID PUSH1 0x80 PUSH1 0x40 MSTORE PUSH1 0x4 CALLDATASIZE LT PUSH3 0x2E9 JUMPI PUSH1 0x0 CALLDATALOAD PUSH1 0xE0 SHR DUP1 PUSH4 0x1FFC9A7 EQ PUSH3 0x32C JUMPI DUP1 PUSH4 0x758D924 EQ PUSH3 0x366 JUMPI DUP1 PUSH4 0x9CCCAAC EQ PUSH3 0x397 JUMPI DUP1 PUSH4 0xE3F0CFC EQ PUSH3 0x3BE JUMPI DUP1 PUSH4 0x173608E7 EQ PUSH3 0x3E3 JUMPI DUP1 PUSH4 0x1AF03203 EQ PUSH3 0x3FB JUMPI DUP1 PUSH4 0x22163B86 EQ PUSH3 0x420 JUMPI DUP1 PUSH4 0x22212E2B EQ PUSH3 0x447 JUMPI DUP1 PUSH4 0x248A9CA3 EQ PUSH3 0x45F JUMPI DUP1 PUSH4 0x28D7B276 EQ PUSH3 0x484 JUMPI DUP1 PUSH4 0x2F2FF15D EQ PUSH3 0x4A9 JUMPI DUP1 PUSH4 0x349123D1 EQ PUSH3 0x4CE JUMPI DUP1 PUSH4 0x35A62E68 EQ PUSH3 0x4F3 JUMPI DUP1 PUSH4 0x36568ABE EQ PUSH3 0x524 JUMPI DUP1 PUSH4 0x3D94BDBB EQ PUSH3 0x549 JUMPI DUP1 PUSH4 0x3F4BA83A EQ PUSH3 0x56E JUMPI DUP1 PUSH4 0x457972DE EQ PUSH3 0x586 JUMPI DUP1 PUSH4 0x494CFC6C EQ PUSH3 0x5AB JUMPI DUP1 PUSH4 0x56688700 EQ PUSH3 0x5DF JUMPI DUP1 PUSH4 0x5C975ABB EQ PUSH3 0x612 JUMPI DUP1 PUSH4 0x5E62BF94 EQ PUSH3 0x62C JUMPI DUP1 PUSH4 0x634282AF EQ PUSH3 0x651 JUMPI DUP1 PUSH4 0x64618CF9 EQ PUSH3 0x689 JUMPI DUP1 PUSH4 0x66C5B06C EQ PUSH3 0x6A0 JUMPI DUP1 PUSH4 0x692BF4A8 EQ PUSH3 0x6C5 JUMPI DUP1 PUSH4 0x75780F42 EQ PUSH3 0x6DC JUMPI DUP1 PUSH4 0x79C8FFD6 EQ PUSH3 0x716 JUMPI DUP1 PUSH4 0x7A86279B EQ PUSH3 0x74A JUMPI DUP1 PUSH4 0x7E1C0C09 EQ PUSH3 0x76F JUMPI DUP1 PUSH4 0x7E8DEF1D EQ PUSH3 0x786 JUMPI DUP1 PUSH4 0x84536017 EQ PUSH3 0x7C1 JUMPI DUP1 PUSH4 0x8456CB59 EQ PUSH3 0x7D9 JUMPI DUP1 PUSH4 0x8995881D EQ PUSH3 0x7F1 JUMPI DUP1 PUSH4 0x8CD4426D EQ PUSH3 0x825 JUMPI DUP1 PUSH4 0x91D14854 EQ PUSH3 0x84A JUMPI DUP1 PUSH4 0x98E122FD EQ PUSH3 0x86F JUMPI DUP1 PUSH4 0x9B53A7F5 EQ PUSH3 0x894 JUMPI DUP1 PUSH4 0xA201CCF6 EQ PUSH3 0x8C9 JUMPI DUP1 PUSH4 0xA217FDDF EQ PUSH3 0x8EE JUMPI DUP1 PUSH4 0xB8D8FBB4 EQ PUSH3 0x905 JUMPI DUP1 PUSH4 0xB95ED06F EQ PUSH3 0x927 JUMPI DUP1 PUSH4 0xBC120FE7 EQ PUSH3 0x94C JUMPI DUP1 PUSH4 0xC748713E EQ PUSH3 0x98B JUMPI DUP1 PUSH4 0xD01C44CD EQ PUSH3 0x9BC JUMPI DUP1 PUSH4 0xD0B7830B EQ PUSH3 0x9D4 JUMPI DUP1 PUSH4 0xD260BE7C EQ PUSH3 0x9EC JUMPI DUP1 PUSH4 0xD547741F EQ PUSH3 0xA20 JUMPI DUP1 PUSH4 0xD634B419 EQ PUSH3 0xA45 JUMPI DUP1 PUSH4 0xDAD4412C EQ PUSH3 0xA6A JUMPI DUP1 PUSH4 0xDC4EC9BE EQ PUSH3 0xA8F JUMPI DUP1 PUSH4 0xE559AFD9 EQ PUSH3 0xAC6 JUMPI DUP1 PUSH4 0xE63AB1E9 EQ PUSH3 0xAEB JUMPI DUP1 PUSH4 0xF0B6374B EQ PUSH3 0xB10 JUMPI DUP1 PUSH4 0xF37EF78C EQ PUSH3 0xB35 JUMPI DUP1 PUSH4 0xF3D2350E EQ PUSH3 0xB66 JUMPI DUP1 PUSH4 0xF4C5CDCA EQ PUSH3 0xB8B JUMPI DUP1 PUSH4 0xF5B541A6 EQ PUSH3 0xBB0 JUMPI DUP1 PUSH4 0xF641FE39 EQ PUSH3 0xBD5 JUMPI DUP1 PUSH4 0xFDB20CCB EQ PUSH3 0xBEC JUMPI DUP1 PUSH4 0xFF96092A EQ PUSH3 0xC82 JUMPI PUSH3 0x312 JUMP JUMPDEST CALLDATASIZE PUSH3 0x312 JUMPI PUSH1 0x40 MLOAD PUSH3 0x461BCD PUSH1 0xE5 SHL DUP2 MSTORE PUSH1 0x4 ADD PUSH3 0x309 SWAP1 PUSH3 0x3DB4 JUMP JUMPDEST PUSH1 0x40 MLOAD DUP1 SWAP2 SUB SWAP1 REVERT JUMPDEST PUSH1 0x40 MLOAD PUSH3 0x461BCD PUSH1 0xE5 SHL DUP2 MSTORE PUSH1 0x4 ADD PUSH3 0x309 SWAP1 PUSH3 0x3DB4 JUMP JUMPDEST CALLVALUE DUP1 ISZERO PUSH3 0x339 JUMPI PUSH1 0x0 DUP1 REVERT JUMPDEST POP PUSH3 0x351 PUSH3 0x34B CALLDATASIZE PUSH1 0x4 PUSH3 0x3DDA JUMP JUMPDEST PUSH3 0xC9F JUMP JUMPDEST PUSH1 0x40 MLOAD SWAP1 ISZERO ISZERO DUP2 MSTORE PUSH1 0x20 ADD JUMPDEST PUSH1 0x40 MLOAD DUP1 SWAP2 SUB SWAP1 RETURN JUMPDEST CALLVALUE DUP1 ISZERO PUSH3 0x373 JUMPI PUSH1 0x0 DUP1 REVERT JUMPDEST POP PUSH1 0x8 SLOAD PUSH3 0x388 SWAP1 PUSH1 0x1 PUSH1 0x1 PUSH1 0xA0 SHL SUB AND DUP2 JUMP JUMPDEST PUSH1 0x40 MLOAD PUSH3 0x35D SWAP2 SWAP1 PUSH3 0x3E06 JUMP JUMPDEST CALLVALUE DUP1 ISZERO PUSH3 0x3A4 JUMPI PUSH1 0x0 DUP1 REVERT JUMPDEST POP PUSH3 0x3BC PUSH3 0x3B6 CALLDATASIZE PUSH1 0x4 PUSH3 0x3E30 JUMP JUMPDEST PUSH3 0xCD7 JUMP JUMPDEST STOP JUMPDEST CALLVALUE DUP1 ISZERO PUSH3 0x3CB JUMPI PUSH1 0x0 DUP1 REVERT JUMPDEST POP PUSH3 0x3BC PUSH3 0x3DD CALLDATASIZE PUSH1 0x4 PUSH3 0x3E6E JUMP JUMPDEST PUSH3 0xDBC JUMP JUMPDEST CALLVALUE DUP1 ISZERO PUSH3 0x3F0 JUMPI PUSH1 0x0 DUP1 REVERT JUMPDEST POP PUSH3 0x3BC PUSH3 0xED4 JUMP JUMPDEST CALLVALUE DUP1 ISZERO PUSH3 0x408 JUMPI PUSH1 0x0 DUP1 REVERT JUMPDEST POP PUSH3 0x3BC PUSH3 0x41A CALLDATASIZE PUSH1 0x4 PUSH3 0x3E9D JUMP JUMPDEST PUSH3 0xF87 JUMP JUMPDEST CALLVALUE DUP1 ISZERO PUSH3 0x42D JUMPI PUSH1 0x0 DUP1 REVERT JUMPDEST POP PUSH3 0x438 PUSH1 0x4 SLOAD DUP2 JUMP JUMPDEST PUSH1 0x40 MLOAD SWAP1 DUP2 MSTORE PUSH1 0x20 ADD PUSH3 0x35D JUMP JUMPDEST CALLVALUE DUP1 ISZERO PUSH3 0x454 JUMPI PUSH1 0x0 DUP1 REVERT JUMPDEST POP PUSH3 0x438 PUSH1 0x9 SLOAD DUP2 JUMP JUMPDEST CALLVALUE DUP1 ISZERO PUSH3 0x46C JUMPI PUSH1 0x0 DUP1 REVERT JUMPDEST POP PUSH3 0x438 PUSH3 0x47E CALLDATASIZE PUSH1 0x4 PUSH3 0x3EBD JUMP JUMPDEST PUSH3 0x10A7 JUMP JUMPDEST CALLVALUE DUP1 ISZERO PUSH3 0x491 JUMPI PUSH1 0x0 DUP1 REVERT JUMPDEST POP PUSH3 0x3BC PUSH3 0x4A3 CALLDATASIZE PUSH1 0x4 PUSH3 0x3EBD JUMP JUMPDEST PUSH3 0x10BC JUMP JUMPDEST CALLVALUE DUP1 ISZERO PUSH3 0x4B6 JUMPI PUSH1 0x0 DUP1 REVERT JUMPDEST POP PUSH3 0x3BC PUSH3 0x4C8 CALLDATASIZE PUSH1 0x4 PUSH3 0x3ED7 JUMP JUMPDEST PUSH3 0x1113 JUMP JUMPDEST CALLVALUE DUP1 ISZERO PUSH3 0x4DB JUMPI PUSH1 0x0 DUP1 REVERT JUMPDEST POP PUSH3 0x3BC PUSH3 0x4ED CALLDATASIZE PUSH1 0x4 PUSH3 0x3F0E JUMP JUMPDEST PUSH3 0x113A JUMP JUMPDEST CALLVALUE DUP1 ISZERO PUSH3 0x500 JUMPI PUSH1 0x0 DUP1 REVERT JUMPDEST POP PUSH3 0x438 PUSH3 0x512 CALLDATASIZE PUSH1 0x4 PUSH3 0x3E9D JUMP JUMPDEST PUSH1 0xD PUSH1 0x20 MSTORE PUSH1 0x0 SWAP1 DUP2 MSTORE PUSH1 0x40 SWAP1 KECCAK256 SLOAD DUP2 JUMP JUMPDEST CALLVALUE DUP1 ISZERO PUSH3 0x531 JUMPI PUSH1 0x0 DUP1 REVERT JUMPDEST POP PUSH3 0x3BC PUSH3 0x543 CALLDATASIZE PUSH1 0x4 PUSH3 0x3ED7 JUMP JUMPDEST PUSH3 0x11B6 JUMP JUMPDEST CALLVALUE DUP1 ISZERO PUSH3 0x556 JUMPI PUSH1 0x0 DUP1 REVERT JUMPDEST POP PUSH3 0x3BC PUSH3 0x568 CALLDATASIZE PUSH1 0x4 PUSH3 0x3F41 JUMP JUMPDEST PUSH3 0x1234 JUMP JUMPDEST CALLVALUE DUP1 ISZERO PUSH3 0x57B JUMPI PUSH1 0x0 DUP1 REVERT JUMPDEST POP PUSH3 0x3BC PUSH3 0x13E8 JUMP JUMPDEST CALLVALUE DUP1 ISZERO PUSH3 0x593 JUMPI PUSH1 0x0 DUP1 REVERT JUMPDEST POP PUSH3 0x3BC PUSH3 0x5A5 CALLDATASIZE PUSH1 0x4 PUSH3 0x3E6E JUMP JUMPDEST PUSH3 0x1410 JUMP JUMPDEST CALLVALUE DUP1 ISZERO PUSH3 0x5B8 JUMPI PUSH1 0x0 DUP1 REVERT JUMPDEST POP PUSH3 0x5D0 PUSH3 0x5CA CALLDATASIZE PUSH1 0x4 PUSH3 0x3F97 JUMP JUMPDEST PUSH3 0x1516 JUMP JUMPDEST PUSH1 0x40 MLOAD PUSH3 0x35D SWAP2 SWAP1 PUSH3 0x40BE JUMP JUMPDEST PUSH3 0x5F6 PUSH3 0x5F0 CALLDATASIZE PUSH1 0x4 PUSH3 0x3E6E JUMP JUMPDEST PUSH3 0x1798 JUMP JUMPDEST PUSH1 0x40 DUP1 MLOAD SWAP4 DUP5 MSTORE PUSH1 0x20 DUP5 ADD SWAP3 SWAP1 SWAP3 MSTORE SWAP1 DUP3 ADD MSTORE PUSH1 0x60 ADD PUSH3 0x35D JUMP JUMPDEST CALLVALUE DUP1 ISZERO PUSH3 0x61F JUMPI PUSH1 0x0 DUP1 REVERT JUMPDEST POP PUSH1 0x1 SLOAD PUSH1 0xFF AND PUSH3 0x351 JUMP JUMPDEST CALLVALUE DUP1 ISZERO PUSH3 0x639 JUMPI PUSH1 0x0 DUP1 REVERT JUMPDEST POP PUSH3 0x3BC PUSH3 0x64B CALLDATASIZE PUSH1 0x4 PUSH3 0x4117 JUMP JUMPDEST PUSH3 0x1881 JUMP JUMPDEST CALLVALUE DUP1 ISZERO PUSH3 0x65E JUMPI PUSH1 0x0 DUP1 REVERT JUMPDEST POP PUSH3 0x676 PUSH3 0x670 CALLDATASIZE PUSH1 0x4 PUSH3 0x3EBD JUMP JUMPDEST PUSH3 0x19BE JUMP JUMPDEST PUSH1 0x40 MLOAD PUSH3 0x35D SWAP6 SWAP5 SWAP4 SWAP3 SWAP2 SWAP1 PUSH3 0x41A2 JUMP JUMPDEST PUSH3 0x3BC PUSH3 0x69A CALLDATASIZE PUSH1 0x4 PUSH3 0x423E JUMP JUMPDEST PUSH3 0x1B31 JUMP JUMPDEST CALLVALUE DUP1 ISZERO PUSH3 0x6AD JUMPI PUSH1 0x0 DUP1 REVERT JUMPDEST POP PUSH3 0x3BC PUSH3 0x6BF CALLDATASIZE PUSH1 0x4 PUSH3 0x3E9D JUMP JUMPDEST PUSH3 0x1BF5 JUMP JUMPDEST PUSH3 0x3BC PUSH3 0x6D6 CALLDATASIZE PUSH1 0x4 PUSH3 0x42A7 JUMP JUMPDEST PUSH3 0x1C5D JUMP JUMPDEST CALLVALUE DUP1 ISZERO PUSH3 0x6E9 JUMPI PUSH1 0x0 DUP1 REVERT JUMPDEST POP PUSH3 0x438 PUSH3 0x6FB CALLDATASIZE PUSH1 0x4 PUSH3 0x3E9D JUMP JUMPDEST PUSH1 0x1 PUSH1 0x1 PUSH1 0xA0 SHL SUB AND PUSH1 0x0 SWAP1 DUP2 MSTORE PUSH1 0x5 PUSH1 0x20 MSTORE PUSH1 0x40 SWAP1 KECCAK256 SLOAD SWAP1 JUMP JUMPDEST CALLVALUE DUP1 ISZERO PUSH3 0x723 JUMPI PUSH1 0x0 DUP1 REVERT JUMPDEST POP PUSH3 0x351 PUSH3 0x735 CALLDATASIZE PUSH1 0x4 PUSH3 0x3E9D JUMP JUMPDEST PUSH1 0xA PUSH1 0x20 MSTORE PUSH1 0x0 SWAP1 DUP2 MSTORE PUSH1 0x40 SWAP1 KECCAK256 SLOAD PUSH1 0xFF AND DUP2 JUMP JUMPDEST CALLVALUE DUP1 ISZERO PUSH3 0x757 JUMPI PUSH1 0x0 DUP1 REVERT JUMPDEST POP PUSH3 0x3BC PUSH3 0x769 CALLDATASIZE PUSH1 0x4 PUSH3 0x42EE JUMP JUMPDEST PUSH3 0x1FE2 JUMP JUMPDEST CALLVALUE DUP1 ISZERO PUSH3 0x77C JUMPI PUSH1 0x0 DUP1 REVERT JUMPDEST POP PUSH1 0xC SLOAD PUSH3 0x438 JUMP JUMPDEST CALLVALUE DUP1 ISZERO PUSH3 0x793 JUMPI PUSH1 0x0 DUP1 REVERT JUMPDEST POP PUSH3 0x7AB PUSH3 0x7A5 CALLDATASIZE PUSH1 0x4 PUSH3 0x3E9D JUMP JUMPDEST PUSH3 0x21B7 JUMP JUMPDEST PUSH1 0x40 DUP1 MLOAD SWAP3 DUP4 MSTORE PUSH1 0x20 DUP4 ADD SWAP2 SWAP1 SWAP2 MSTORE ADD PUSH3 0x35D JUMP JUMPDEST CALLVALUE DUP1 ISZERO PUSH3 0x7CE JUMPI PUSH1 0x0 DUP1 REVERT JUMPDEST POP PUSH3 0x3BC PUSH3 0x22A6 JUMP JUMPDEST CALLVALUE DUP1 ISZERO PUSH3 0x7E6 JUMPI PUSH1 0x0 DUP1 REVERT JUMPDEST POP PUSH3 0x3BC PUSH3 0x2354 JUMP JUMPDEST CALLVALUE DUP1 ISZERO PUSH3 0x7FE JUMPI PUSH1 0x0 DUP1 REVERT JUMPDEST POP PUSH3 0x351 PUSH3 0x810 CALLDATASIZE PUSH1 0x4 PUSH3 0x3E9D JUMP JUMPDEST PUSH1 0xE PUSH1 0x20 MSTORE PUSH1 0x0 SWAP1 DUP2 MSTORE PUSH1 0x40 SWAP1 KECCAK256 SLOAD PUSH1 0xFF AND DUP2 JUMP JUMPDEST CALLVALUE DUP1 ISZERO PUSH3 0x832 JUMPI PUSH1 0x0 DUP1 REVERT JUMPDEST POP PUSH3 0x3BC PUSH3 0x844 CALLDATASIZE PUSH1 0x4 PUSH3 0x3E6E JUMP JUMPDEST PUSH3 0x2379 JUMP JUMPDEST CALLVALUE DUP1 ISZERO PUSH3 0x857 JUMPI PUSH1 0x0 DUP1 REVERT JUMPDEST POP PUSH3 0x351 PUSH3 0x869 CALLDATASIZE PUSH1 0x4 PUSH3 0x3ED7 JUMP JUMPDEST PUSH3 0x23D1 JUMP JUMPDEST CALLVALUE DUP1 ISZERO PUSH3 0x87C JUMPI PUSH1 0x0 DUP1 REVERT JUMPDEST POP PUSH3 0x388 PUSH3 0x88E CALLDATASIZE PUSH1 0x4 PUSH3 0x3E9D JUMP JUMPDEST PUSH3 0x23FA JUMP JUMPDEST CALLVALUE DUP1 ISZERO PUSH3 0x8A1 JUMPI PUSH1 0x0 DUP1 REVERT JUMPDEST POP PUSH3 0x8B9 PUSH3 0x8B3 CALLDATASIZE PUSH1 0x4 PUSH3 0x3F97 JUMP JUMPDEST PUSH3 0x2593 JUMP JUMPDEST PUSH1 0x40 MLOAD PUSH3 0x35D SWAP3 SWAP2 SWAP1 PUSH3 0x4360 JUMP JUMPDEST CALLVALUE DUP1 ISZERO PUSH3 0x8D6 JUMPI PUSH1 0x0 DUP1 REVERT JUMPDEST POP PUSH3 0x7AB PUSH3 0x8E8 CALLDATASIZE PUSH1 0x4 PUSH3 0x3E6E JUMP JUMPDEST PUSH3 0x2815 JUMP JUMPDEST CALLVALUE DUP1 ISZERO PUSH3 0x8FB JUMPI PUSH1 0x0 DUP1 REVERT JUMPDEST POP PUSH3 0x438 PUSH1 0x0 DUP2 JUMP JUMPDEST CALLVALUE DUP1 ISZERO PUSH3 0x912 JUMPI PUSH1 0x0 DUP1 REVERT JUMPDEST POP PUSH1 0x7 SLOAD PUSH3 0x388 SWAP1 PUSH1 0x1 PUSH1 0x1 PUSH1 0xA0 SHL SUB AND DUP2 JUMP JUMPDEST CALLVALUE DUP1 ISZERO PUSH3 0x934 JUMPI PUSH1 0x0 DUP1 REVERT JUMPDEST POP PUSH3 0x438 PUSH3 0x946 CALLDATASIZE PUSH1 0x4 PUSH3 0x3E9D JUMP JUMPDEST PUSH3 0x29E9 JUMP JUMPDEST CALLVALUE DUP1 ISZERO PUSH3 0x959 JUMPI PUSH1 0x0 DUP1 REVERT JUMPDEST POP PUSH3 0x351 PUSH3 0x96B CALLDATASIZE PUSH1 0x4 PUSH3 0x3E30 JUMP JUMPDEST PUSH1 0xB PUSH1 0x20 SWAP1 DUP2 MSTORE PUSH1 0x0 SWAP3 DUP4 MSTORE PUSH1 0x40 DUP1 DUP5 KECCAK256 SWAP1 SWAP2 MSTORE SWAP1 DUP3 MSTORE SWAP1 KECCAK256 SLOAD PUSH1 0xFF AND DUP2 JUMP JUMPDEST CALLVALUE DUP1 ISZERO PUSH3 0x998 JUMPI PUSH1 0x0 DUP1 REVERT JUMPDEST POP PUSH3 0x438 PUSH3 0x9AA CALLDATASIZE PUSH1 0x4 PUSH3 0x3E9D JUMP JUMPDEST PUSH1 0x6 PUSH1 0x20 MSTORE PUSH1 0x0 SWAP1 DUP2 MSTORE PUSH1 0x40 SWAP1 KECCAK256 SLOAD DUP2 JUMP JUMPDEST CALLVALUE DUP1 ISZERO PUSH3 0x9C9 JUMPI PUSH1 0x0 DUP1 REVERT JUMPDEST POP PUSH3 0x3BC PUSH3 0x2A60 JUMP JUMPDEST CALLVALUE DUP1 ISZERO PUSH3 0x9E1 JUMPI PUSH1 0x0 DUP1 REVERT JUMPDEST POP PUSH3 0x3BC PUSH3 0x2C17 JUMP JUMPDEST CALLVALUE DUP1 ISZERO PUSH3 0x9F9 JUMPI PUSH1 0x0 DUP1 REVERT JUMPDEST POP PUSH3 0xA11 PUSH3 0xA0B CALLDATASIZE PUSH1 0x4 PUSH3 0x4384 JUMP JUMPDEST PUSH3 0x2C8E JUMP JUMPDEST PUSH1 0x40 MLOAD PUSH3 0x35D SWAP2 SWAP1 PUSH3 0x43C9 JUMP JUMPDEST CALLVALUE DUP1 ISZERO PUSH3 0xA2D JUMPI PUSH1 0x0 DUP1 REVERT JUMPDEST POP PUSH3 0x3BC PUSH3 0xA3F CALLDATASIZE PUSH1 0x4 PUSH3 0x3ED7 JUMP JUMPDEST PUSH3 0x2DBD JUMP JUMPDEST CALLVALUE DUP1 ISZERO PUSH3 0xA52 JUMPI PUSH1 0x0 DUP1 REVERT JUMPDEST POP PUSH3 0x388 PUSH3 0xA64 CALLDATASIZE PUSH1 0x4 PUSH3 0x440F JUMP JUMPDEST PUSH3 0x2DDF JUMP JUMPDEST CALLVALUE DUP1 ISZERO PUSH3 0xA77 JUMPI PUSH1 0x0 DUP1 REVERT JUMPDEST POP PUSH3 0x5F6 PUSH3 0xA89 CALLDATASIZE PUSH1 0x4 PUSH3 0x3EBD JUMP JUMPDEST PUSH3 0x3032 JUMP JUMPDEST CALLVALUE DUP1 ISZERO PUSH3 0xA9C JUMPI PUSH1 0x0 DUP1 REVERT JUMPDEST POP PUSH1 0x3 SLOAD PUSH3 0xAB2 SWAP1 PUSH3 0x10000 SWAP1 DIV PUSH2 0xFFFF AND DUP2 JUMP JUMPDEST PUSH1 0x40 MLOAD PUSH2 0xFFFF SWAP1 SWAP2 AND DUP2 MSTORE PUSH1 0x20 ADD PUSH3 0x35D JUMP JUMPDEST CALLVALUE DUP1 ISZERO PUSH3 0xAD3 JUMPI PUSH1 0x0 DUP1 REVERT JUMPDEST POP PUSH3 0x3BC PUSH3 0xAE5 CALLDATASIZE PUSH1 0x4 PUSH3 0x44F5 JUMP JUMPDEST PUSH3 0x30AB JUMP JUMPDEST CALLVALUE DUP1 ISZERO PUSH3 0xAF8 JUMPI PUSH1 0x0 DUP1 REVERT JUMPDEST POP PUSH3 0x438 PUSH1 0x0 DUP1 MLOAD PUSH1 0x20 PUSH3 0x6858 DUP4 CODECOPY DUP2 MLOAD SWAP2 MSTORE DUP2 JUMP JUMPDEST CALLVALUE DUP1 ISZERO PUSH3 0xB1D JUMPI PUSH1 0x0 DUP1 REVERT JUMPDEST POP PUSH3 0x3BC PUSH3 0xB2F CALLDATASIZE PUSH1 0x4 PUSH3 0x3E9D JUMP JUMPDEST PUSH3 0x31C1 JUMP JUMPDEST CALLVALUE DUP1 ISZERO PUSH3 0xB42 JUMPI PUSH1 0x0 DUP1 REVERT JUMPDEST POP PUSH3 0x438 PUSH3 0xB54 CALLDATASIZE PUSH1 0x4 PUSH3 0x3E9D JUMP JUMPDEST PUSH1 0x5 PUSH1 0x20 MSTORE PUSH1 0x0 SWAP1 DUP2 MSTORE PUSH1 0x40 SWAP1 KECCAK256 SLOAD DUP2 JUMP JUMPDEST CALLVALUE DUP1 ISZERO PUSH3 0xB73 JUMPI PUSH1 0x0 DUP1 REVERT JUMPDEST POP PUSH3 0x3BC PUSH3 0xB85 CALLDATASIZE PUSH1 0x4 PUSH3 0x4567 JUMP JUMPDEST PUSH3 0x3226 JUMP JUMPDEST CALLVALUE DUP1 ISZERO PUSH3 0xB98 JUMPI PUSH1 0x0 DUP1 REVERT JUMPDEST POP PUSH3 0x3BC PUSH3 0xBAA CALLDATASIZE PUSH1 0x4 PUSH3 0x3E9D JUMP JUMPDEST PUSH3 0x32EA JUMP JUMPDEST CALLVALUE DUP1 ISZERO PUSH3 0xBBD JUMPI PUSH1 0x0 DUP1 REVERT JUMPDEST POP PUSH3 0x438 PUSH1 0x0 DUP1 MLOAD PUSH1 0x20 PUSH3 0x6838 DUP4 CODECOPY DUP2 MLOAD SWAP2 MSTORE DUP2 JUMP JUMPDEST CALLVALUE DUP1 ISZERO PUSH3 0xBE2 JUMPI PUSH1 0x0 DUP1 REVERT JUMPDEST POP PUSH1 0x4 SLOAD PUSH3 0x438 JUMP JUMPDEST CALLVALUE DUP1 ISZERO PUSH3 0xBF9 JUMPI PUSH1 0x0 DUP1 REVERT JUMPDEST POP PUSH3 0xC4A PUSH3 0xC0B CALLDATASIZE PUSH1 0x4 PUSH3 0x3E9D JUMP JUMPDEST PUSH1 0xF PUSH1 0x20 MSTORE PUSH1 0x0 SWAP1 DUP2 MSTORE PUSH1 0x40 SWAP1 KECCAK256 DUP1 SLOAD PUSH1 0x1 DUP3 ADD SLOAD PUSH1 0x2 DUP4 ADD SLOAD PUSH1 0x3 DUP5 ADD SLOAD PUSH1 0x4 DUP6 ADD SLOAD PUSH1 0x5 SWAP1 SWAP6 ADD SLOAD PUSH1 0x1 PUSH1 0x1 PUSH1 0xA0 SHL SUB SWAP1 SWAP5 AND SWAP5 SWAP3 SWAP4 SWAP2 SWAP3 SWAP1 SWAP2 DUP7 JUMP JUMPDEST PUSH1 0x40 DUP1 MLOAD PUSH1 0x1 PUSH1 0x1 PUSH1 0xA0 SHL SUB SWAP1 SWAP8 AND DUP8 MSTORE PUSH1 0x20 DUP8 ADD SWAP6 SWAP1 SWAP6 MSTORE SWAP4 DUP6 ADD SWAP3 SWAP1 SWAP3 MSTORE PUSH1 0x60 DUP5 ADD MSTORE PUSH1 0x80 DUP4 ADD MSTORE PUSH1 0xA0 DUP3 ADD MSTORE PUSH1 0xC0 ADD PUSH3 0x35D JUMP JUMPDEST CALLVALUE DUP1 ISZERO PUSH3 0xC8F JUMPI PUSH1 0x0 DUP1 REVERT JUMPDEST POP PUSH1 0x3 SLOAD PUSH3 0xAB2 SWAP1 PUSH2 0xFFFF AND DUP2 JUMP JUMPDEST PUSH1 0x0 PUSH1 0x1 PUSH1 0x1 PUSH1 0xE0 SHL SUB NOT DUP3 AND PUSH4 0x7965DB0B PUSH1 0xE0 SHL EQ DUP1 PUSH3 0xCD1 JUMPI POP PUSH4 0x1FFC9A7 PUSH1 0xE0 SHL PUSH1 0x1 PUSH1 0x1 PUSH1 0xE0 SHL SUB NOT DUP4 AND EQ JUMPDEST SWAP3 SWAP2 POP POP JUMP JUMPDEST PUSH1 0x0 PUSH3 0xCE4 DUP2 PUSH3 0x345F JUMP JUMPDEST PUSH3 0xCEE PUSH3 0x346B JUMP JUMPDEST PUSH1 0x1 PUSH1 0x1 PUSH1 0xA0 SHL SUB DUP4 AND ISZERO DUP1 ISZERO SWAP1 PUSH3 0xD0F JUMPI POP PUSH1 0x1 PUSH1 0x1 PUSH1 0xA0 SHL SUB DUP3 AND ISZERO ISZERO JUMPDEST PUSH3 0xD4B JUMPI PUSH1 0x40 MLOAD PUSH3 0x461BCD PUSH1 0xE5 SHL DUP2 MSTORE PUSH1 0x20 PUSH1 0x4 DUP3 ADD MSTORE PUSH1 0xB PUSH1 0x24 DUP3 ADD MSTORE PUSH11 0x24B73B30B634B220B23239 PUSH1 0xA9 SHL PUSH1 0x44 DUP3 ADD MSTORE PUSH1 0x64 ADD PUSH3 0x309 JUMP JUMPDEST PUSH1 0x7 DUP1 SLOAD PUSH1 0x1 PUSH1 0x1 PUSH1 0xA0 SHL SUB DUP1 DUP7 AND PUSH1 0x1 PUSH1 0x1 PUSH1 0xA0 SHL SUB NOT SWAP3 DUP4 AND OR SWAP1 SWAP3 SSTORE PUSH1 0x8 DUP1 SLOAD SWAP3 DUP6 AND SWAP3 SWAP1 SWAP2 AND SWAP2 SWAP1 SWAP2 OR SWAP1 SSTORE PUSH1 0x40 MLOAD PUSH32 0xBD1F56340E71693E2714EF366858F586D668634BBAA3720EBF8B0FAF0B1AA82C SWAP1 PUSH3 0xDAF SWAP1 DUP6 SWAP1 DUP6 SWAP1 PUSH3 0x459F JUMP JUMPDEST PUSH1 0x40 MLOAD DUP1 SWAP2 SUB SWAP1 LOG1 POP POP POP JUMP JUMPDEST PUSH3 0xDC6 PUSH3 0x346B JUMP JUMPDEST PUSH3 0xDD0 PUSH3 0x34B3 JUMP JUMPDEST PUSH1 0x1 PUSH1 0x1 PUSH1 0xA0 SHL SUB DUP3 AND PUSH1 0x0 SWAP1 DUP2 MSTORE PUSH1 0xD PUSH1 0x20 MSTORE PUSH1 0x40 DUP2 KECCAK256 SLOAD SWAP1 DUP2 SWAP1 SUB PUSH3 0xE0C JUMPI PUSH1 0x40 MLOAD PUSH3 0x461BCD PUSH1 0xE5 SHL DUP2 MSTORE PUSH1 0x4 ADD PUSH3 0x309 SWAP1 PUSH3 0x45B9 JUMP JUMPDEST PUSH1 0x0 PUSH1 0xC PUSH3 0xE1D PUSH1 0x1 DUP5 PUSH3 0x45F4 JUMP JUMPDEST DUP2 SLOAD DUP2 LT PUSH3 0xE30 JUMPI PUSH3 0xE30 PUSH3 0x460A JUMP JUMPDEST PUSH1 0x0 SWAP2 DUP3 MSTORE PUSH1 0x20 SWAP1 SWAP2 KECCAK256 PUSH1 0x5 SWAP1 SWAP2 MUL ADD PUSH1 0x1 DUP2 ADD SLOAD SWAP1 SWAP2 POP PUSH1 0x1 PUSH1 0x1 PUSH1 0xA0 SHL SUB AND CALLER EQ PUSH3 0xE72 JUMPI PUSH1 0x40 MLOAD PUSH3 0x461BCD PUSH1 0xE5 SHL DUP2 MSTORE PUSH1 0x4 ADD PUSH3 0x309 SWAP1 PUSH3 0x4620 JUMP JUMPDEST PUSH1 0x1 DUP2 ADD SLOAD PUSH3 0xE90 SWAP1 PUSH1 0x1 PUSH1 0x1 PUSH1 0xA0 SHL SUB DUP7 DUP2 AND SWAP2 AND DUP6 PUSH3 0x350C JUMP JUMPDEST DUP4 PUSH1 0x1 PUSH1 0x1 PUSH1 0xA0 SHL SUB AND PUSH1 0x0 DUP1 MLOAD PUSH1 0x20 PUSH3 0x6878 DUP4 CODECOPY DUP2 MLOAD SWAP2 MSTORE DUP5 PUSH1 0x40 MLOAD PUSH3 0xEBB SWAP2 DUP2 MSTORE PUSH1 0x20 ADD SWAP1 JUMP JUMPDEST PUSH1 0x40 MLOAD DUP1 SWAP2 SUB SWAP1 LOG2 POP POP PUSH3 0xED0 PUSH1 0x1 PUSH1 0x2 SSTORE JUMP JUMPDEST POP POP JUMP JUMPDEST PUSH3 0xEDE PUSH3 0x346B JUMP JUMPDEST PUSH3 0xEE8 PUSH3 0x34B3 JUMP JUMPDEST CALLER PUSH1 0x0 SWAP1 DUP2 MSTORE PUSH1 0x5 PUSH1 0x20 MSTORE PUSH1 0x40 SWAP1 KECCAK256 SLOAD DUP1 PUSH3 0xF18 JUMPI PUSH1 0x40 MLOAD PUSH3 0x461BCD PUSH1 0xE5 SHL DUP2 MSTORE PUSH1 0x4 ADD PUSH3 0x309 SWAP1 PUSH3 0x4647 JUMP JUMPDEST CALLER PUSH1 0x0 DUP2 DUP2 MSTORE PUSH1 0x5 PUSH1 0x20 MSTORE PUSH1 0x40 DUP1 DUP3 KECCAK256 DUP3 SWAP1 SSTORE MLOAD DUP4 ISZERO PUSH2 0x8FC MUL SWAP2 DUP5 SWAP2 SWAP1 DUP2 DUP2 DUP2 DUP6 DUP9 DUP9 CALL SWAP4 POP POP POP POP ISZERO DUP1 ISZERO PUSH3 0xF54 JUMPI RETURNDATASIZE PUSH1 0x0 DUP1 RETURNDATACOPY RETURNDATASIZE PUSH1 0x0 REVERT JUMPDEST POP PUSH1 0x40 MLOAD DUP2 DUP2 MSTORE CALLER SWAP1 PUSH1 0x0 DUP1 MLOAD PUSH1 0x20 PUSH3 0x68B8 DUP4 CODECOPY DUP2 MLOAD SWAP2 MSTORE SWAP1 PUSH1 0x20 ADD PUSH1 0x40 MLOAD DUP1 SWAP2 SUB SWAP1 LOG2 POP PUSH3 0xF85 PUSH1 0x1 PUSH1 0x2 SSTORE JUMP JUMPDEST JUMP JUMPDEST PUSH1 0x0 PUSH3 0xF94 DUP2 PUSH3 0x345F JUMP JUMPDEST PUSH3 0xF9E PUSH3 0x34B3 JUMP JUMPDEST PUSH1 0x40 MLOAD PUSH4 0x70A08231 PUSH1 0xE0 SHL DUP2 MSTORE PUSH1 0x0 SWAP1 PUSH1 0x1 PUSH1 0x1 PUSH1 0xA0 SHL SUB DUP5 AND SWAP1 PUSH4 0x70A08231 SWAP1 PUSH3 0xFCF SWAP1 ADDRESS SWAP1 PUSH1 0x4 ADD PUSH3 0x3E06 JUMP JUMPDEST PUSH1 0x20 PUSH1 0x40 MLOAD DUP1 DUP4 SUB DUP2 DUP7 GAS STATICCALL ISZERO DUP1 ISZERO PUSH3 0xFED JUMPI RETURNDATASIZE PUSH1 0x0 DUP1 RETURNDATACOPY RETURNDATASIZE PUSH1 0x0 REVERT JUMPDEST POP POP POP POP PUSH1 0x40 MLOAD RETURNDATASIZE PUSH1 0x1F NOT PUSH1 0x1F DUP3 ADD AND DUP3 ADD DUP1 PUSH1 0x40 MSTORE POP DUP2 ADD SWAP1 PUSH3 0x1013 SWAP2 SWAP1 PUSH3 0x4667 JUMP JUMPDEST SWAP1 POP PUSH1 0x0 DUP2 GT PUSH3 0x1052 JUMPI PUSH1 0x40 MLOAD PUSH3 0x461BCD PUSH1 0xE5 SHL DUP2 MSTORE PUSH1 0x20 PUSH1 0x4 DUP3 ADD MSTORE PUSH1 0x8 PUSH1 0x24 DUP3 ADD MSTORE PUSH8 0x4E6F546F6B656E73 PUSH1 0xC0 SHL PUSH1 0x44 DUP3 ADD MSTORE PUSH1 0x64 ADD PUSH3 0x309 JUMP JUMPDEST PUSH3 0x1068 PUSH1 0x1 PUSH1 0x1 PUSH1 0xA0 SHL SUB DUP5 AND CALLER DUP4 PUSH3 0x350C JUMP JUMPDEST DUP3 PUSH1 0x1 PUSH1 0x1 PUSH1 0xA0 SHL SUB AND PUSH1 0x0 DUP1 MLOAD PUSH1 0x20 PUSH3 0x6898 DUP4 CODECOPY DUP2 MLOAD SWAP2 MSTORE DUP3 PUSH1 0x40 MLOAD PUSH3 0x1093 SWAP2 DUP2 MSTORE PUSH1 0x20 ADD SWAP1 JUMP JUMPDEST PUSH1 0x40 MLOAD DUP1 SWAP2 SUB SWAP1 LOG2 POP PUSH3 0xED0 PUSH1 0x1 PUSH1 0x2 SSTORE JUMP JUMPDEST PUSH1 0x0 SWAP1 DUP2 MSTORE PUSH1 0x20 DUP2 SWAP1 MSTORE PUSH1 0x40 SWAP1 KECCAK256 PUSH1 0x1 ADD SLOAD SWAP1 JUMP JUMPDEST PUSH1 0x0 DUP1 MLOAD PUSH1 0x20 PUSH3 0x6838 DUP4 CODECOPY DUP2 MLOAD SWAP2 MSTORE PUSH3 0x10D7 DUP2 PUSH3 0x345F JUMP JUMPDEST PUSH1 0x9 DUP3 SWAP1 SSTORE PUSH1 0x40 MLOAD DUP3 DUP2 MSTORE PUSH32 0x27F971FD4ACCB41A60BCEF5477F2A70AA17EFCA3A2C33B138E3AA62A3D891C6D SWAP1 PUSH1 0x20 ADD PUSH1 0x40 MLOAD DUP1 SWAP2 SUB SWAP1 LOG1 POP POP JUMP JUMPDEST PUSH3 0x111E DUP3 PUSH3 0x10A7 JUMP JUMPDEST PUSH3 0x1129 DUP2 PUSH3 0x345F JUMP JUMPDEST PUSH3 0x1135 DUP4 DUP4 PUSH3 0x3566 JUMP JUMPDEST POP POP POP JUMP JUMPDEST PUSH1 0x0 DUP1 MLOAD PUSH1 0x20 PUSH3 0x6838 DUP4 CODECOPY DUP2 MLOAD SWAP2 MSTORE PUSH3 0x1155 DUP2 PUSH3 0x345F JUMP JUMPDEST PUSH1 0x1 PUSH1 0x1 PUSH1 0xA0 SHL SUB DUP4 AND PUSH1 0x0 DUP2 DUP2 MSTORE PUSH1 0xA PUSH1 0x20 SWAP1 DUP2 MSTORE PUSH1 0x40 SWAP2 DUP3 SWAP1 KECCAK256 DUP1 SLOAD PUSH1 0xFF NOT AND DUP7 ISZERO ISZERO SWAP1 DUP2 OR SWAP1 SWAP2 SSTORE SWAP2 MLOAD SWAP2 DUP3 MSTORE PUSH32 0xDB17F7DCC6B9D3C099107AE3EEA3DCC0CE959CDA4B7B164CAC7F8F9C84139719 SWAP2 ADD JUMPDEST PUSH1 0x40 MLOAD DUP1 SWAP2 SUB SWAP1 LOG2 POP POP POP JUMP JUMPDEST PUSH1 0x1 PUSH1 0x1 PUSH1 0xA0 SHL SUB DUP2 AND CALLER EQ PUSH3 0x1228 JUMPI PUSH1 0x40 MLOAD PUSH3 0x461BCD PUSH1 0xE5 SHL DUP2 MSTORE PUSH1 0x20 PUSH1 0x4 DUP3 ADD MSTORE PUSH1 0x2F PUSH1 0x24 DUP3 ADD MSTORE PUSH32 0x416363657373436F6E74726F6C3A2063616E206F6E6C792072656E6F756E6365 PUSH1 0x44 DUP3 ADD MSTORE PUSH15 0x103937B632B9903337B91039B2B633 PUSH1 0x89 SHL PUSH1 0x64 DUP3 ADD MSTORE PUSH1 0x84 ADD PUSH3 0x309 JUMP JUMPDEST PUSH3 0xED0 DUP3 DUP3 PUSH3 0x35EE JUMP JUMPDEST PUSH1 0x0 DUP1 MLOAD PUSH1 0x20 PUSH3 0x6838 DUP4 CODECOPY DUP2 MLOAD SWAP2 MSTORE PUSH3 0x124F DUP2 PUSH3 0x345F JUMP JUMPDEST PUSH3 0x1259 PUSH3 0x346B JUMP JUMPDEST PUSH1 0x0 DUP5 GT DUP1 ISZERO PUSH3 0x1269 JUMPI POP DUP3 DUP3 GT JUMPDEST PUSH3 0x12A3 JUMPI PUSH1 0x40 MLOAD PUSH3 0x461BCD PUSH1 0xE5 SHL DUP2 MSTORE PUSH1 0x20 PUSH1 0x4 DUP3 ADD MSTORE PUSH1 0x9 PUSH1 0x24 DUP3 ADD MSTORE PUSH9 0x426164506172616D73 PUSH1 0xB8 SHL PUSH1 0x44 DUP3 ADD MSTORE PUSH1 0x64 ADD PUSH3 0x309 JUMP JUMPDEST PUSH3 0x12BA PUSH1 0x1 PUSH1 0x1 PUSH1 0xA0 SHL SUB DUP7 AND CALLER ADDRESS DUP8 PUSH3 0x3656 JUMP JUMPDEST PUSH1 0x40 MLOAD DUP1 PUSH1 0xC0 ADD PUSH1 0x40 MSTORE DUP1 DUP7 PUSH1 0x1 PUSH1 0x1 PUSH1 0xA0 SHL SUB AND DUP2 MSTORE PUSH1 0x20 ADD DUP6 DUP2 MSTORE PUSH1 0x20 ADD PUSH1 0x0 DUP2 MSTORE PUSH1 0x20 ADD TIMESTAMP DUP2 MSTORE PUSH1 0x20 ADD DUP5 DUP2 MSTORE PUSH1 0x20 ADD DUP4 DUP2 MSTORE POP PUSH1 0xF PUSH1 0x0 DUP9 PUSH1 0x1 PUSH1 0x1 PUSH1 0xA0 SHL SUB AND PUSH1 0x1 PUSH1 0x1 PUSH1 0xA0 SHL SUB AND DUP2 MSTORE PUSH1 0x20 ADD SWAP1 DUP2 MSTORE PUSH1 0x20 ADD PUSH1 0x0 KECCAK256 PUSH1 0x0 DUP3 ADD MLOAD DUP2 PUSH1 0x0 ADD PUSH1 0x0 PUSH2 0x100 EXP DUP2 SLOAD DUP2 PUSH1 0x1 PUSH1 0x1 PUSH1 0xA0 SHL SUB MUL NOT AND SWAP1 DUP4 PUSH1 0x1 PUSH1 0x1 PUSH1 0xA0 SHL SUB AND MUL OR SWAP1 SSTORE POP PUSH1 0x20 DUP3 ADD MLOAD DUP2 PUSH1 0x1 ADD SSTORE PUSH1 0x40 DUP3 ADD MLOAD DUP2 PUSH1 0x2 ADD SSTORE PUSH1 0x60 DUP3 ADD MLOAD DUP2 PUSH1 0x3 ADD SSTORE PUSH1 0x80 DUP3 ADD MLOAD DUP2 PUSH1 0x4 ADD SSTORE PUSH1 0xA0 DUP3 ADD MLOAD DUP2 PUSH1 0x5 ADD SSTORE SWAP1 POP POP DUP5 PUSH1 0x1 PUSH1 0x1 PUSH1 0xA0 SHL SUB AND DUP7 PUSH1 0x1 PUSH1 0x1 PUSH1 0xA0 SHL SUB AND PUSH32 0x85EA0818780C5D304E8BFC41CC38A02F61338CA0966C8BBB0B883DE4CCE660FD DUP7 TIMESTAMP DUP8 DUP8 PUSH1 0x40 MLOAD PUSH3 0x13D8 SWAP5 SWAP4 SWAP3 SWAP2 SWAP1 SWAP4 DUP5 MSTORE PUSH1 0x20 DUP5 ADD SWAP3 SWAP1 SWAP3 MSTORE PUSH1 0x40 DUP4 ADD MSTORE PUSH1 0x60 DUP3 ADD MSTORE PUSH1 0x80 ADD SWAP1 JUMP JUMPDEST PUSH1 0x40 MLOAD DUP1 SWAP2 SUB SWAP1 LOG3 POP POP POP POP POP POP JUMP JUMPDEST PUSH1 0x0 DUP1 MLOAD PUSH1 0x20 PUSH3 0x6858 DUP4 CODECOPY DUP2 MLOAD SWAP2 MSTORE PUSH3 0x1403 DUP2 PUSH3 0x345F JUMP JUMPDEST PUSH3 0x140D PUSH3 0x3690 JUMP JUMPDEST POP JUMP JUMPDEST PUSH1 0x0 DUP1 MLOAD PUSH1 0x20 PUSH3 0x6838 DUP4 CODECOPY DUP2 MLOAD SWAP2 MSTORE PUSH3 0x142B DUP2 PUSH3 0x345F JUMP JUMPDEST PUSH3 0x1435 PUSH3 0x346B JUMP JUMPDEST PUSH1 0x0 DUP3 GT PUSH3 0x1458 JUMPI PUSH1 0x40 MLOAD PUSH3 0x461BCD PUSH1 0xE5 SHL DUP2 MSTORE PUSH1 0x4 ADD PUSH3 0x309 SWAP1 PUSH3 0x4681 JUMP JUMPDEST PUSH1 0x1 PUSH1 0x1 PUSH1 0xA0 SHL SUB DUP4 AND PUSH1 0x0 SWAP1 DUP2 MSTORE PUSH1 0xD PUSH1 0x20 MSTORE PUSH1 0x40 DUP2 KECCAK256 SLOAD SWAP1 DUP2 SWAP1 SUB PUSH3 0x1494 JUMPI PUSH1 0x40 MLOAD PUSH3 0x461BCD PUSH1 0xE5 SHL DUP2 MSTORE PUSH1 0x4 ADD PUSH3 0x309 SWAP1 PUSH3 0x45B9 JUMP JUMPDEST DUP3 PUSH1 0xC PUSH3 0x14A4 PUSH1 0x1 DUP5 PUSH3 0x45F4 JUMP JUMPDEST DUP2 SLOAD DUP2 LT PUSH3 0x14B7 JUMPI PUSH3 0x14B7 PUSH3 0x460A JUMP JUMPDEST SWAP1 PUSH1 0x0 MSTORE PUSH1 0x20 PUSH1 0x0 KECCAK256 SWAP1 PUSH1 0x5 MUL ADD PUSH1 0x2 ADD DUP2 SWAP1 SSTORE POP DUP4 PUSH1 0x1 PUSH1 0x1 PUSH1 0xA0 SHL SUB AND PUSH32 0xD86730737B142FC160892FA8A0F2DB687A92A0E294D1AD70624CF5ACEF03B84 DUP5 PUSH1 0x40 MLOAD PUSH3 0x1508 SWAP2 DUP2 MSTORE PUSH1 0x20 ADD SWAP1 JUMP JUMPDEST PUSH1 0x40 MLOAD DUP1 SWAP2 SUB SWAP1 LOG2 POP POP POP POP JUMP JUMPDEST PUSH1 0xC SLOAD PUSH1 0x60 SWAP1 PUSH1 0x0 DUP2 PUSH3 0x152B DUP6 DUP8 PUSH3 0x46A4 JUMP JUMPDEST GT PUSH3 0x1543 JUMPI PUSH3 0x153D DUP5 DUP7 PUSH3 0x46A4 JUMP JUMPDEST PUSH3 0x1545 JUMP JUMPDEST DUP2 JUMPDEST SWAP1 POP PUSH3 0x1553 DUP6 DUP3 PUSH3 0x45F4 JUMP JUMPDEST PUSH1 0x1 PUSH1 0x1 PUSH1 0x40 SHL SUB DUP2 GT ISZERO PUSH3 0x156D JUMPI PUSH3 0x156D PUSH3 0x46BA JUMP JUMPDEST PUSH1 0x40 MLOAD SWAP1 DUP1 DUP3 MSTORE DUP1 PUSH1 0x20 MUL PUSH1 0x20 ADD DUP3 ADD PUSH1 0x40 MSTORE DUP1 ISZERO PUSH3 0x15AA JUMPI DUP2 PUSH1 0x20 ADD JUMPDEST PUSH3 0x1596 PUSH3 0x3D65 JUMP JUMPDEST DUP2 MSTORE PUSH1 0x20 ADD SWAP1 PUSH1 0x1 SWAP1 SUB SWAP1 DUP2 PUSH3 0x158C JUMPI SWAP1 POP JUMPDEST POP SWAP3 POP DUP5 JUMPDEST DUP2 DUP2 LT ISZERO PUSH3 0x178F JUMPI PUSH1 0xC DUP2 DUP2 SLOAD DUP2 LT PUSH3 0x15CE JUMPI PUSH3 0x15CE PUSH3 0x460A JUMP JUMPDEST PUSH1 0x0 SWAP2 DUP3 MSTORE PUSH1 0x20 SWAP2 DUP3 SWAP1 KECCAK256 PUSH1 0x40 DUP1 MLOAD PUSH1 0xA0 DUP2 ADD DUP3 MSTORE PUSH1 0x5 SWAP1 SWAP4 MUL SWAP1 SWAP2 ADD DUP1 SLOAD PUSH1 0x1 PUSH1 0x1 PUSH1 0xA0 SHL SUB SWAP1 DUP2 AND DUP5 MSTORE PUSH1 0x1 DUP3 ADD SLOAD AND SWAP4 DUP4 ADD SWAP4 SWAP1 SWAP4 MSTORE PUSH1 0x2 DUP4 ADD SLOAD SWAP1 DUP3 ADD MSTORE PUSH1 0x3 DUP3 ADD DUP1 SLOAD SWAP2 SWAP3 SWAP2 PUSH1 0x60 DUP5 ADD SWAP2 SWAP1 PUSH3 0x162A SWAP1 PUSH3 0x46D0 JUMP JUMPDEST DUP1 PUSH1 0x1F ADD PUSH1 0x20 DUP1 SWAP2 DIV MUL PUSH1 0x20 ADD PUSH1 0x40 MLOAD SWAP1 DUP2 ADD PUSH1 0x40 MSTORE DUP1 SWAP3 SWAP2 SWAP1 DUP2 DUP2 MSTORE PUSH1 0x20 ADD DUP3 DUP1 SLOAD PUSH3 0x1658 SWAP1 PUSH3 0x46D0 JUMP JUMPDEST DUP1 ISZERO PUSH3 0x16A9 JUMPI DUP1 PUSH1 0x1F LT PUSH3 0x167D JUMPI PUSH2 0x100 DUP1 DUP4 SLOAD DIV MUL DUP4 MSTORE SWAP2 PUSH1 0x20 ADD SWAP2 PUSH3 0x16A9 JUMP JUMPDEST DUP3 ADD SWAP2 SWAP1 PUSH1 0x0 MSTORE PUSH1 0x20 PUSH1 0x0 KECCAK256 SWAP1 JUMPDEST DUP2 SLOAD DUP2 MSTORE SWAP1 PUSH1 0x1 ADD SWAP1 PUSH1 0x20 ADD DUP1 DUP4 GT PUSH3 0x168B JUMPI DUP3 SWAP1 SUB PUSH1 0x1F AND DUP3 ADD SWAP2 JUMPDEST POP POP POP POP POP DUP2 MSTORE PUSH1 0x20 ADD PUSH1 0x4 DUP3 ADD DUP1 SLOAD PUSH3 0x16C4 SWAP1 PUSH3 0x46D0 JUMP JUMPDEST DUP1 PUSH1 0x1F ADD PUSH1 0x20 DUP1 SWAP2 DIV MUL PUSH1 0x20 ADD PUSH1 0x40 MLOAD SWAP1 DUP2 ADD PUSH1 0x40 MSTORE DUP1 SWAP3 SWAP2 SWAP1 DUP2 DUP2 MSTORE PUSH1 0x20 ADD DUP3 DUP1 SLOAD PUSH3 0x16F2 SWAP1 PUSH3 0x46D0 JUMP JUMPDEST DUP1 ISZERO PUSH3 0x1743 JUMPI DUP1 PUSH1 0x1F LT PUSH3 0x1717 JUMPI PUSH2 0x100 DUP1 DUP4 SLOAD DIV MUL DUP4 MSTORE SWAP2 PUSH1 0x20 ADD SWAP2 PUSH3 0x1743 JUMP JUMPDEST DUP3 ADD SWAP2 SWAP1 PUSH1 0x0 MSTORE PUSH1 0x20 PUSH1 0x0 KECCAK256 SWAP1 JUMPDEST DUP2 SLOAD DUP2 MSTORE SWAP1 PUSH1 0x1 ADD SWAP1 PUSH1 0x20 ADD DUP1 DUP4 GT PUSH3 0x1725 JUMPI DUP3 SWAP1 SUB PUSH1 0x1F AND DUP3 ADD SWAP2 JUMPDEST POP POP POP POP POP DUP2 MSTORE POP POP DUP5 DUP8 DUP4 PUSH3 0x175B SWAP2 SWAP1 PUSH3 0x45F4 JUMP JUMPDEST DUP2 MLOAD DUP2 LT PUSH3 0x176E JUMPI PUSH3 0x176E PUSH3 0x460A JUMP JUMPDEST PUSH1 0x20 MUL PUSH1 0x20 ADD ADD DUP2 SWAP1 MSTORE POP DUP1 DUP1 PUSH3 0x1786 SWAP1 PUSH3 0x470C JUMP JUMPDEST SWAP2 POP POP PUSH3 0x15AF JUMP JUMPDEST POP POP POP SWAP3 SWAP2 POP POP JUMP JUMPDEST PUSH1 0x0 DUP1 PUSH1 0x0 PUSH3 0x17A7 PUSH3 0x346B JUMP JUMPDEST PUSH3 0x17B1 PUSH3 0x34B3 JUMP JUMPDEST PUSH3 0x17C8 PUSH1 0x1 PUSH1 0x1 PUSH1 0xA0 SHL SUB DUP7 AND CALLER ADDRESS DUP8 PUSH3 0x3656 JUMP JUMPDEST PUSH1 0x8 SLOAD PUSH3 0x17E4 SWAP1 PUSH1 0x1 PUSH1 0x1 PUSH1 0xA0 SHL SUB DUP8 DUP2 AND SWAP2 AND DUP7 PUSH3 0x36E0 JUMP JUMPDEST PUSH1 0x8 SLOAD PUSH1 0x40 MLOAD PUSH4 0xF305D719 PUSH1 0xE0 SHL DUP2 MSTORE PUSH1 0x1 PUSH1 0x1 PUSH1 0xA0 SHL SUB SWAP1 SWAP2 AND SWAP1 PUSH4 0xF305D719 SWAP1 CALLVALUE SWAP1 PUSH3 0x1823 SWAP1 DUP10 SWAP1 DUP10 SWAP1 PUSH1 0x0 SWAP1 DUP2 SWAP1 CALLER SWAP1 TIMESTAMP SWAP1 PUSH1 0x4 ADD PUSH3 0x4728 JUMP JUMPDEST PUSH1 0x60 PUSH1 0x40 MLOAD DUP1 DUP4 SUB DUP2 DUP6 DUP9 GAS CALL ISZERO DUP1 ISZERO PUSH3 0x1842 JUMPI RETURNDATASIZE PUSH1 0x0 DUP1 RETURNDATACOPY RETURNDATASIZE PUSH1 0x0 REVERT JUMPDEST POP POP POP POP POP PUSH1 0x40 MLOAD RETURNDATASIZE PUSH1 0x1F NOT PUSH1 0x1F DUP3 ADD AND DUP3 ADD DUP1 PUSH1 0x40 MSTORE POP DUP2 ADD SWAP1 PUSH3 0x1869 SWAP2 SWAP1 PUSH3 0x4763 JUMP JUMPDEST SWAP3 POP SWAP3 POP SWAP3 POP PUSH3 0x187A PUSH1 0x1 PUSH1 0x2 SSTORE JUMP JUMPDEST SWAP3 POP SWAP3 POP SWAP3 JUMP JUMPDEST PUSH1 0x0 DUP1 MLOAD PUSH1 0x20 PUSH3 0x6838 DUP4 CODECOPY DUP2 MLOAD SWAP2 MSTORE PUSH3 0x189C DUP2 PUSH3 0x345F JUMP JUMPDEST PUSH3 0x18A6 PUSH3 0x346B JUMP JUMPDEST PUSH1 0x1 PUSH1 0x1 PUSH1 0xA0 SHL SUB DUP7 AND PUSH1 0x0 SWAP1 DUP2 MSTORE PUSH1 0xD PUSH1 0x20 MSTORE PUSH1 0x40 DUP2 KECCAK256 SLOAD SWAP1 DUP2 SWAP1 SUB PUSH3 0x18E2 JUMPI PUSH1 0x40 MLOAD PUSH3 0x461BCD PUSH1 0xE5 SHL DUP2 MSTORE PUSH1 0x4 ADD PUSH3 0x309 SWAP1 PUSH3 0x45B9 JUMP JUMPDEST DUP6 DUP6 PUSH1 0xC PUSH3 0x18F3 PUSH1 0x1 DUP6 PUSH3 0x45F4 JUMP JUMPDEST DUP2 SLOAD DUP2 LT PUSH3 0x1906 JUMPI PUSH3 0x1906 PUSH3 0x460A JUMP JUMPDEST SWAP1 PUSH1 0x0 MSTORE PUSH1 0x20 PUSH1 0x0 KECCAK256 SWAP1 PUSH1 0x5 MUL ADD PUSH1 0x3 ADD SWAP2 DUP3 PUSH3 0x1926 SWAP3 SWAP2 SWAP1 PUSH3 0x47F9 JUMP JUMPDEST POP DUP4 DUP4 PUSH1 0xC PUSH3 0x1938 PUSH1 0x1 DUP6 PUSH3 0x45F4 JUMP JUMPDEST DUP2 SLOAD DUP2 LT PUSH3 0x194B JUMPI PUSH3 0x194B PUSH3 0x460A JUMP JUMPDEST SWAP1 PUSH1 0x0 MSTORE PUSH1 0x20 PUSH1 0x0 KECCAK256 SWAP1 PUSH1 0x5 MUL ADD PUSH1 0x4 ADD SWAP2 DUP3 PUSH3 0x196B SWAP3 SWAP2 SWAP1 PUSH3 0x47F9 JUMP JUMPDEST POP DUP7 PUSH1 0x1 PUSH1 0x1 PUSH1 0xA0 SHL SUB AND PUSH32 0x6C1850FCE35387A891E82CA88E975790AB6F0709E9ED6842E01397F296012A7E DUP8 DUP8 DUP8 DUP8 PUSH1 0x40 MLOAD PUSH3 0x19AD SWAP5 SWAP4 SWAP3 SWAP2 SWAP1 PUSH3 0x48EA JUMP JUMPDEST PUSH1 0x40 MLOAD DUP1 SWAP2 SUB SWAP1 LOG2 POP POP POP POP POP POP POP JUMP JUMPDEST PUSH1 0xC DUP2 DUP2 SLOAD DUP2 LT PUSH3 0x19CF JUMPI PUSH1 0x0 DUP1 REVERT JUMPDEST PUSH1 0x0 SWAP2 DUP3 MSTORE PUSH1 0x20 SWAP1 SWAP2 KECCAK256 PUSH1 0x5 SWAP1 SWAP2 MUL ADD DUP1 SLOAD PUSH1 0x1 DUP3 ADD SLOAD PUSH1 0x2 DUP4 ADD SLOAD PUSH1 0x3 DUP5 ADD DUP1 SLOAD PUSH1 0x1 PUSH1 0x1 PUSH1 0xA0 SHL SUB SWAP5 DUP6 AND SWAP7 POP SWAP3 SWAP1 SWAP4 AND SWAP4 SWAP1 SWAP3 SWAP1 SWAP2 PUSH3 0x1A12 SWAP1 PUSH3 0x46D0 JUMP JUMPDEST DUP1 PUSH1 0x1F ADD PUSH1 0x20 DUP1 SWAP2 DIV MUL PUSH1 0x20 ADD PUSH1 0x40 MLOAD SWAP1 DUP2 ADD PUSH1 0x40 MSTORE DUP1 SWAP3 SWAP2 SWAP1 DUP2 DUP2 MSTORE PUSH1 0x20 ADD DUP3 DUP1 SLOAD PUSH3 0x1A40 SWAP1 PUSH3 0x46D0 JUMP JUMPDEST DUP1 ISZERO PUSH3 0x1A91 JUMPI DUP1 PUSH1 0x1F LT PUSH3 0x1A65 JUMPI PUSH2 0x100 DUP1 DUP4 SLOAD DIV MUL DUP4 MSTORE SWAP2 PUSH1 0x20 ADD SWAP2 PUSH3 0x1A91 JUMP JUMPDEST DUP3 ADD SWAP2 SWAP1 PUSH1 0x0 MSTORE PUSH1 0x20 PUSH1 0x0 KECCAK256 SWAP1 JUMPDEST DUP2 SLOAD DUP2 MSTORE SWAP1 PUSH1 0x1 ADD SWAP1 PUSH1 0x20 ADD DUP1 DUP4 GT PUSH3 0x1A73 JUMPI DUP3 SWAP1 SUB PUSH1 0x1F AND DUP3 ADD SWAP2 JUMPDEST POP POP POP POP POP SWAP1 DUP1 PUSH1 0x4 ADD DUP1 SLOAD PUSH3 0x1AA8 SWAP1 PUSH3 0x46D0 JUMP JUMPDEST DUP1 PUSH1 0x1F ADD PUSH1 0x20 DUP1 SWAP2 DIV MUL PUSH1 0x20 ADD PUSH1 0x40 MLOAD SWAP1 DUP2 ADD PUSH1 0x40 MSTORE DUP1 SWAP3 SWAP2 SWAP1 DUP2 DUP2 MSTORE PUSH1 0x20 ADD DUP3 DUP1 SLOAD PUSH3 0x1AD6 SWAP1 PUSH3 0x46D0 JUMP JUMPDEST DUP1 ISZERO PUSH3 0x1B27 JUMPI DUP1 PUSH1 0x1F LT PUSH3 0x1AFB JUMPI PUSH2 0x100 DUP1 DUP4 SLOAD DIV MUL DUP4 MSTORE SWAP2 PUSH1 0x20 ADD SWAP2 PUSH3 0x1B27 JUMP JUMPDEST DUP3 ADD SWAP2 SWAP1 PUSH1 0x0 MSTORE PUSH1 0x20 PUSH1 0x0 KECCAK256 SWAP1 JUMPDEST DUP2 SLOAD DUP2 MSTORE SWAP1 PUSH1 0x1 ADD SWAP1 PUSH1 0x20 ADD DUP1 DUP4 GT PUSH3 0x1B09 JUMPI DUP3 SWAP1 SUB PUSH1 0x1F AND DUP3 ADD SWAP2 JUMPDEST POP POP POP POP POP SWAP1 POP DUP6 JUMP JUMPDEST PUSH3 0x1B3B PUSH3 0x346B JUMP JUMPDEST PUSH3 0x1B45 PUSH3 0x34B3 JUMP JUMPDEST PUSH3 0x1BB7 DUP3 DUP3 DUP1 DUP1 PUSH1 0x20 MUL PUSH1 0x20 ADD PUSH1 0x40 MLOAD SWAP1 DUP2 ADD PUSH1 0x40 MSTORE DUP1 SWAP4 SWAP3 SWAP2 SWAP1 DUP2 DUP2 MSTORE PUSH1 0x20 ADD DUP4 DUP4 PUSH1 0x20 MUL DUP1 DUP3 DUP5 CALLDATACOPY PUSH1 0x0 SWAP3 ADD SWAP2 SWAP1 SWAP2 MSTORE POP POP PUSH1 0x9 SLOAD PUSH1 0x40 MLOAD PUSH1 0x1 PUSH1 0x1 PUSH1 0x60 SHL SUB NOT CALLER PUSH1 0x60 SHL AND PUSH1 0x20 DUP3 ADD MSTORE SWAP1 SWAP3 POP PUSH1 0x34 ADD SWAP1 POP PUSH1 0x40 MLOAD PUSH1 0x20 DUP2 DUP4 SUB SUB DUP2 MSTORE SWAP1 PUSH1 0x40 MSTORE DUP1 MLOAD SWAP1 PUSH1 0x20 ADD KECCAK256 PUSH3 0x3786 JUMP JUMPDEST PUSH3 0x1BD6 JUMPI PUSH1 0x40 MLOAD PUSH3 0x461BCD PUSH1 0xE5 SHL DUP2 MSTORE PUSH1 0x4 ADD PUSH3 0x309 SWAP1 PUSH3 0x4915 JUMP JUMPDEST PUSH3 0x1BE3 DUP6 DUP6 DUP6 PUSH3 0x1C5D JUMP JUMPDEST PUSH3 0x1BEE PUSH1 0x1 PUSH1 0x2 SSTORE JUMP JUMPDEST POP POP POP POP POP JUMP JUMPDEST PUSH1 0x0 DUP1 MLOAD PUSH1 0x20 PUSH3 0x6838 DUP4 CODECOPY DUP2 MLOAD SWAP2 MSTORE PUSH3 0x1C10 DUP2 PUSH3 0x345F JUMP JUMPDEST PUSH1 0x1 PUSH1 0x1 PUSH1 0xA0 SHL SUB DUP3 AND PUSH1 0x0 DUP2 DUP2 MSTORE PUSH1 0xE PUSH1 0x20 MSTORE PUSH1 0x40 DUP1 DUP3 KECCAK256 DUP1 SLOAD PUSH1 0xFF NOT AND PUSH1 0x1 OR SWAP1 SSTORE MLOAD PUSH32 0xF017C0DE579727A3CD3EE18077EE8B4C43BF21892985952D1D5A0D52F983502D SWAP2 SWAP1 LOG2 POP POP JUMP JUMPDEST PUSH3 0x1C67 PUSH3 0x346B JUMP JUMPDEST PUSH3 0x1C71 PUSH3 0x34B3 JUMP JUMPDEST PUSH1 0x0 DUP3 GT PUSH3 0x1CB0 JUMPI PUSH1 0x40 MLOAD PUSH3 0x461BCD PUSH1 0xE5 SHL DUP2 MSTORE PUSH1 0x20 PUSH1 0x4 DUP3 ADD MSTORE PUSH1 0xA PUSH1 0x24 DUP3 ADD MSTORE PUSH10 0x16995C9BD05B5BDD5B9D PUSH1 0xB2 SHL PUSH1 0x44 DUP3 ADD MSTORE PUSH1 0x64 ADD PUSH3 0x309 JUMP JUMPDEST PUSH1 0x1 PUSH1 0x1 PUSH1 0xA0 SHL SUB DUP4 AND PUSH1 0x0 SWAP1 DUP2 MSTORE PUSH1 0xE PUSH1 0x20 MSTORE PUSH1 0x40 SWAP1 KECCAK256 SLOAD PUSH1 0xFF AND ISZERO PUSH3 0x1D09 JUMPI PUSH1 0x40 MLOAD PUSH3 0x461BCD PUSH1 0xE5 SHL DUP2 MSTORE PUSH1 0x20 PUSH1 0x4 DUP3 ADD MSTORE PUSH1 0xB PUSH1 0x24 DUP3 ADD MSTORE PUSH11 0x151BDAD95B94185D5CD959 PUSH1 0xAA SHL PUSH1 0x44 DUP3 ADD MSTORE PUSH1 0x64 ADD PUSH3 0x309 JUMP JUMPDEST PUSH1 0x1 PUSH1 0x1 PUSH1 0xA0 SHL SUB DUP4 AND PUSH1 0x0 SWAP1 DUP2 MSTORE PUSH1 0xD PUSH1 0x20 MSTORE PUSH1 0x40 DUP2 KECCAK256 SLOAD SWAP1 DUP2 SWAP1 SUB PUSH3 0x1D45 JUMPI PUSH1 0x40 MLOAD PUSH3 0x461BCD PUSH1 0xE5 SHL DUP2 MSTORE PUSH1 0x4 ADD PUSH3 0x309 SWAP1 PUSH3 0x45B9 JUMP JUMPDEST PUSH1 0x1 PUSH1 0x1 PUSH1 0xA0 SHL SUB DUP5 AND PUSH1 0x0 SWAP1 DUP2 MSTORE PUSH1 0xA PUSH1 0x20 MSTORE PUSH1 0x40 SWAP1 KECCAK256 SLOAD PUSH1 0xFF AND ISZERO PUSH3 0x1DAD JUMPI PUSH1 0x1 PUSH1 0x1 PUSH1 0xA0 SHL SUB DUP5 AND PUSH1 0x0 SWAP1 DUP2 MSTORE PUSH1 0xB PUSH1 0x20 SWAP1 DUP2 MSTORE PUSH1 0x40 DUP1 DUP4 KECCAK256 CALLER DUP5 MSTORE SWAP1 SWAP2 MSTORE SWAP1 KECCAK256 SLOAD PUSH1 0xFF AND PUSH3 0x1DAD JUMPI PUSH1 0x40 MLOAD PUSH3 0x461BCD PUSH1 0xE5 SHL DUP2 MSTORE PUSH1 0x4 ADD PUSH3 0x309 SWAP1 PUSH3 0x4915 JUMP JUMPDEST PUSH1 0x0 PUSH1 0xC PUSH3 0x1DBE PUSH1 0x1 DUP5 PUSH3 0x45F4 JUMP JUMPDEST DUP2 SLOAD DUP2 LT PUSH3 0x1DD1 JUMPI PUSH3 0x1DD1 PUSH3 0x460A JUMP JUMPDEST SWAP1 PUSH1 0x0 MSTORE PUSH1 0x20 PUSH1 0x0 KECCAK256 SWAP1 PUSH1 0x5 MUL ADD SWAP1 POP PUSH1 0x0 PUSH8 0xDE0B6B3A7640000 DUP6 DUP4 PUSH1 0x2 ADD SLOAD PUSH3 0x1DFE SWAP2 SWAP1 PUSH3 0x493D JUMP JUMPDEST PUSH3 0x1E0A SWAP2 SWAP1 PUSH3 0x4957 JUMP JUMPDEST SWAP1 POP DUP1 CALLVALUE EQ PUSH3 0x1E4C JUMPI PUSH1 0x40 MLOAD PUSH3 0x461BCD PUSH1 0xE5 SHL DUP2 MSTORE PUSH1 0x20 PUSH1 0x4 DUP3 ADD MSTORE PUSH1 0xC PUSH1 0x24 DUP3 ADD MSTORE PUSH12 0x92DCC6DEE4E4CAC6E88AA89 PUSH1 0xA3 SHL PUSH1 0x44 DUP3 ADD MSTORE PUSH1 0x64 ADD PUSH3 0x309 JUMP JUMPDEST PUSH1 0x3 SLOAD PUSH1 0x0 SWAP1 PUSH2 0x2710 SWAP1 PUSH3 0x1E66 SWAP1 PUSH2 0xFFFF AND DUP5 PUSH3 0x493D JUMP JUMPDEST PUSH3 0x1E72 SWAP2 SWAP1 PUSH3 0x4957 JUMP JUMPDEST SWAP1 POP PUSH1 0x0 PUSH1 0x1 PUSH1 0x1 PUSH1 0xA0 SHL SUB DUP7 AND ISZERO PUSH3 0x1EB5 JUMPI PUSH1 0x3 SLOAD PUSH2 0x2710 SWAP1 PUSH3 0x1EA3 SWAP1 PUSH3 0x10000 SWAP1 DIV PUSH2 0xFFFF AND DUP6 PUSH3 0x493D JUMP JUMPDEST PUSH3 0x1EAF SWAP2 SWAP1 PUSH3 0x4957 JUMP JUMPDEST PUSH3 0x1EB8 JUMP JUMPDEST PUSH1 0x0 JUMPDEST SWAP1 POP PUSH1 0x0 DUP2 PUSH3 0x1EC9 DUP5 DUP7 PUSH3 0x45F4 JUMP JUMPDEST PUSH3 0x1ED5 SWAP2 SWAP1 PUSH3 0x45F4 JUMP JUMPDEST SWAP1 POP DUP3 PUSH1 0x4 PUSH1 0x0 DUP3 DUP3 SLOAD PUSH3 0x1EEB SWAP2 SWAP1 PUSH3 0x46A4 JUMP JUMPDEST SWAP1 SWAP2 SSTORE POP POP DUP2 ISZERO PUSH3 0x1F27 JUMPI PUSH1 0x1 PUSH1 0x1 PUSH1 0xA0 SHL SUB DUP8 AND PUSH1 0x0 SWAP1 DUP2 MSTORE PUSH1 0x5 PUSH1 0x20 MSTORE PUSH1 0x40 DUP2 KECCAK256 DUP1 SLOAD DUP5 SWAP3 SWAP1 PUSH3 0x1F21 SWAP1 DUP5 SWAP1 PUSH3 0x46A4 JUMP JUMPDEST SWAP1 SWAP2 SSTORE POP POP JUMPDEST PUSH1 0x1 DUP6 ADD SLOAD PUSH1 0x1 PUSH1 0x1 PUSH1 0xA0 SHL SUB AND PUSH1 0x0 SWAP1 DUP2 MSTORE PUSH1 0x6 PUSH1 0x20 MSTORE PUSH1 0x40 DUP2 KECCAK256 DUP1 SLOAD DUP4 SWAP3 SWAP1 PUSH3 0x1F55 SWAP1 DUP5 SWAP1 PUSH3 0x46A4 JUMP JUMPDEST SWAP1 SWAP2 SSTORE POP PUSH3 0x1F71 SWAP1 POP PUSH1 0x1 PUSH1 0x1 PUSH1 0xA0 SHL SUB DUP11 AND CALLER DUP11 PUSH3 0x350C JUMP JUMPDEST PUSH1 0x40 DUP1 MLOAD DUP10 DUP2 MSTORE PUSH1 0x20 DUP2 ADD DUP7 SWAP1 MSTORE SWAP1 DUP2 ADD DUP5 SWAP1 MSTORE PUSH1 0x60 DUP2 ADD DUP4 SWAP1 MSTORE PUSH1 0x80 DUP2 ADD DUP3 SWAP1 MSTORE PUSH1 0x1 PUSH1 0x1 PUSH1 0xA0 SHL SUB DUP1 DUP10 AND SWAP2 CALLER SWAP2 DUP13 AND SWAP1 PUSH32 0xA4D1D47447AD64A0C581F05071DF4CE987BA94440D913925DC004A21F28F4226 SWAP1 PUSH1 0xA0 ADD PUSH1 0x40 MLOAD DUP1 SWAP2 SUB SWAP1 LOG4 POP POP POP POP POP POP PUSH3 0x1135 PUSH1 0x1 PUSH1 0x2 SSTORE JUMP JUMPDEST PUSH3 0x1FEC PUSH3 0x346B JUMP JUMPDEST PUSH3 0x1FF6 PUSH3 0x34B3 JUMP JUMPDEST DUP3 DUP2 EQ PUSH3 0x2038 JUMPI PUSH1 0x40 MLOAD PUSH3 0x461BCD PUSH1 0xE5 SHL DUP2 MSTORE PUSH1 0x20 PUSH1 0x4 DUP3 ADD MSTORE PUSH1 0xE PUSH1 0x24 DUP3 ADD MSTORE PUSH14 0x98CADCCEE8D09AD2E6DAC2E8C6D PUSH1 0x93 SHL PUSH1 0x44 DUP3 ADD MSTORE PUSH1 0x64 ADD PUSH3 0x309 JUMP JUMPDEST PUSH1 0x0 JUMPDEST DUP4 DUP2 LT ISZERO PUSH3 0x21A5 JUMPI PUSH1 0x0 DUP6 DUP6 DUP4 DUP2 DUP2 LT PUSH3 0x205B JUMPI PUSH3 0x205B PUSH3 0x460A JUMP JUMPDEST SWAP1 POP PUSH1 0x20 MUL ADD PUSH1 0x20 DUP2 ADD SWAP1 PUSH3 0x2072 SWAP2 SWAP1 PUSH3 0x3E9D JUMP JUMPDEST SWAP1 POP PUSH1 0x0 DUP5 DUP5 DUP5 DUP2 DUP2 LT PUSH3 0x208B JUMPI PUSH3 0x208B PUSH3 0x460A JUMP JUMPDEST PUSH1 0x1 PUSH1 0x1 PUSH1 0xA0 SHL SUB DUP6 AND PUSH1 0x0 SWAP1 DUP2 MSTORE PUSH1 0xD PUSH1 0x20 SWAP1 DUP2 MSTORE PUSH1 0x40 DUP3 KECCAK256 SLOAD SWAP3 MUL SWAP4 SWAP1 SWAP4 ADD CALLDATALOAD SWAP4 POP SWAP2 DUP3 SWAP1 SUB SWAP1 POP PUSH3 0x20D4 JUMPI PUSH1 0x40 MLOAD PUSH3 0x461BCD PUSH1 0xE5 SHL DUP2 MSTORE PUSH1 0x4 ADD PUSH3 0x309 SWAP1 PUSH3 0x45B9 JUMP JUMPDEST PUSH1 0x0 PUSH1 0xC PUSH3 0x20E5 PUSH1 0x1 DUP5 PUSH3 0x45F4 JUMP JUMPDEST DUP2 SLOAD DUP2 LT PUSH3 0x20F8 JUMPI PUSH3 0x20F8 PUSH3 0x460A JUMP JUMPDEST PUSH1 0x0 SWAP2 DUP3 MSTORE PUSH1 0x20 SWAP1 SWAP2 KECCAK256 PUSH1 0x5 SWAP1 SWAP2 MUL ADD PUSH1 0x1 DUP2 ADD SLOAD SWAP1 SWAP2 POP PUSH1 0x1 PUSH1 0x1 PUSH1 0xA0 SHL SUB AND CALLER EQ PUSH3 0x213A JUMPI PUSH1 0x40 MLOAD PUSH3 0x461BCD PUSH1 0xE5 SHL DUP2 MSTORE PUSH1 0x4 ADD PUSH3 0x309 SWAP1 PUSH3 0x4620 JUMP JUMPDEST PUSH1 0x1 DUP2 ADD SLOAD PUSH3 0x2158 SWAP1 PUSH1 0x1 PUSH1 0x1 PUSH1 0xA0 SHL SUB DUP7 DUP2 AND SWAP2 AND DUP6 PUSH3 0x350C JUMP JUMPDEST DUP4 PUSH1 0x1 PUSH1 0x1 PUSH1 0xA0 SHL SUB AND PUSH1 0x0 DUP1 MLOAD PUSH1 0x20 PUSH3 0x6878 DUP4 CODECOPY DUP2 MLOAD SWAP2 MSTORE DUP5 PUSH1 0x40 MLOAD PUSH3 0x2183 SWAP2 DUP2 MSTORE PUSH1 0x20 ADD SWAP1 JUMP JUMPDEST PUSH1 0x40 MLOAD DUP1 SWAP2 SUB SWAP1 LOG2 POP POP POP POP DUP1 DUP1 PUSH3 0x219C SWAP1 PUSH3 0x470C JUMP JUMPDEST SWAP2 POP POP PUSH3 0x203B JUMP JUMPDEST POP PUSH3 0x21B1 PUSH1 0x1 PUSH1 0x2 SSTORE JUMP JUMPDEST POP POP POP POP JUMP JUMPDEST PUSH1 0x0 DUP1 DUP3 PUSH1 0x1 PUSH1 0x1 PUSH1 0xA0 SHL SUB AND PUSH4 0x70A08231 ADDRESS PUSH1 0x40 MLOAD DUP3 PUSH4 0xFFFFFFFF AND PUSH1 0xE0 SHL DUP2 MSTORE PUSH1 0x4 ADD PUSH3 0x21E8 SWAP2 SWAP1 PUSH3 0x3E06 JUMP JUMPDEST PUSH1 0x20 PUSH1 0x40 MLOAD DUP1 DUP4 SUB DUP2 DUP7 GAS STATICCALL ISZERO DUP1 ISZERO PUSH3 0x2206 JUMPI RETURNDATASIZE PUSH1 0x0 DUP1 RETURNDATACOPY RETURNDATASIZE PUSH1 0x0 REVERT JUMPDEST POP POP POP POP PUSH1 0x40 MLOAD RETURNDATASIZE PUSH1 0x1F NOT PUSH1 0x1F DUP3 ADD AND DUP3 ADD DUP1 PUSH1 0x40 MSTORE POP DUP2 ADD SWAP1 PUSH3 0x222C SWAP2 SWAP1 PUSH3 0x4667 JUMP JUMPDEST DUP4 PUSH1 0x1 PUSH1 0x1 PUSH1 0xA0 SHL SUB AND PUSH4 0x18160DDD PUSH1 0x40 MLOAD DUP2 PUSH4 0xFFFFFFFF AND PUSH1 0xE0 SHL DUP2 MSTORE PUSH1 0x4 ADD PUSH1 0x20 PUSH1 0x40 MLOAD DUP1 DUP4 SUB DUP2 DUP7 GAS STATICCALL ISZERO DUP1 ISZERO PUSH3 0x226B JUMPI RETURNDATASIZE PUSH1 0x0 DUP1 RETURNDATACOPY RETURNDATASIZE PUSH1 0x0 REVERT JUMPDEST POP POP POP POP PUSH1 0x40 MLOAD RETURNDATASIZE PUSH1 0x1F NOT PUSH1 0x1F DUP3 ADD AND DUP3 ADD DUP1 PUSH1 0x40 MSTORE POP DUP2 ADD SWAP1 PUSH3 0x2291 SWAP2 SWAP1 PUSH3 0x4667 JUMP JUMPDEST PUSH3 0x229D SWAP2 SWAP1 PUSH3 0x45F4 JUMP JUMPDEST SWAP4 SELFBALANCE SWAP4 POP SWAP2 POP POP JUMP JUMPDEST PUSH1 0x0 PUSH3 0x22B3 DUP2 PUSH3 0x345F JUMP JUMPDEST PUSH3 0x22BD PUSH3 0x34B3 JUMP JUMPDEST SELFBALANCE DUP1 PUSH3 0x22F5 JUMPI PUSH1 0x40 MLOAD PUSH3 0x461BCD PUSH1 0xE5 SHL DUP2 MSTORE PUSH1 0x20 PUSH1 0x4 DUP3 ADD MSTORE PUSH1 0x5 PUSH1 0x24 DUP3 ADD MSTORE PUSH5 0x9CDE8AA89 PUSH1 0xDB SHL PUSH1 0x44 DUP3 ADD MSTORE PUSH1 0x64 ADD PUSH3 0x309 JUMP JUMPDEST PUSH1 0x40 MLOAD CALLER SWAP1 DUP3 ISZERO PUSH2 0x8FC MUL SWAP1 DUP4 SWAP1 PUSH1 0x0 DUP2 DUP2 DUP2 DUP6 DUP9 DUP9 CALL SWAP4 POP POP POP POP ISZERO DUP1 ISZERO PUSH3 0x2323 JUMPI RETURNDATASIZE PUSH1 0x0 DUP1 RETURNDATACOPY RETURNDATASIZE PUSH1 0x0 REVERT JUMPDEST POP PUSH1 0x40 MLOAD DUP2 DUP2 MSTORE CALLER SWAP1 PUSH1 0x0 DUP1 MLOAD PUSH1 0x20 PUSH3 0x68B8 DUP4 CODECOPY DUP2 MLOAD SWAP2 MSTORE SWAP1 PUSH1 0x20 ADD PUSH1 0x40 MLOAD DUP1 SWAP2 SUB SWAP1 LOG2 POP PUSH3 0x140D PUSH1 0x1 PUSH1 0x2 SSTORE JUMP JUMPDEST PUSH1 0x0 DUP1 MLOAD PUSH1 0x20 PUSH3 0x6858 DUP4 CODECOPY DUP2 MLOAD SWAP2 MSTORE PUSH3 0x236F DUP2 PUSH3 0x345F JUMP JUMPDEST PUSH3 0x140D PUSH3 0x379E JUMP JUMPDEST PUSH1 0x0 PUSH3 0x2386 DUP2 PUSH3 0x345F JUMP JUMPDEST PUSH3 0x2390 PUSH3 0x346B JUMP JUMPDEST PUSH3 0x23A6 PUSH1 0x1 PUSH1 0x1 PUSH1 0xA0 SHL SUB DUP5 AND CALLER DUP5 PUSH3 0x350C JUMP JUMPDEST DUP3 PUSH1 0x1 PUSH1 0x1 PUSH1 0xA0 SHL SUB AND PUSH1 0x0 DUP1 MLOAD PUSH1 0x20 PUSH3 0x6898 DUP4 CODECOPY DUP2 MLOAD SWAP2 MSTORE DUP4 PUSH1 0x40 MLOAD PUSH3 0x11A9 SWAP2 DUP2 MSTORE PUSH1 0x20 ADD SWAP1 JUMP JUMPDEST PUSH1 0x0 SWAP2 DUP3 MSTORE PUSH1 0x20 DUP3 DUP2 MSTORE PUSH1 0x40 DUP1 DUP5 KECCAK256 PUSH1 0x1 PUSH1 0x1 PUSH1 0xA0 SHL SUB SWAP4 SWAP1 SWAP4 AND DUP5 MSTORE SWAP2 SWAP1 MSTORE SWAP1 KECCAK256 SLOAD PUSH1 0xFF AND SWAP1 JUMP JUMPDEST PUSH1 0x0 DUP1 PUSH3 0x2408 DUP2 PUSH3 0x345F JUMP JUMPDEST PUSH3 0x2412 PUSH3 0x346B JUMP JUMPDEST PUSH1 0x7 SLOAD PUSH1 0x8 SLOAD PUSH1 0x40 DUP1 MLOAD PUSH4 0x15AB88C9 PUSH1 0xE3 SHL DUP2 MSTORE SWAP1 MLOAD PUSH1 0x1 PUSH1 0x1 PUSH1 0xA0 SHL SUB SWAP4 DUP5 AND SWAP4 PUSH1 0x0 SWAP4 AND SWAP2 PUSH4 0xAD5C4648 SWAP2 PUSH1 0x4 DUP1 DUP4 ADD SWAP3 PUSH1 0x20 SWAP3 SWAP2 SWAP1 DUP3 SWAP1 SUB ADD DUP2 DUP7 GAS STATICCALL ISZERO DUP1 ISZERO PUSH3 0x2464 JUMPI RETURNDATASIZE PUSH1 0x0 DUP1 RETURNDATACOPY RETURNDATASIZE PUSH1 0x0 REVERT JUMPDEST POP POP POP POP PUSH1 0x40 MLOAD RETURNDATASIZE PUSH1 0x1F NOT PUSH1 0x1F DUP3 ADD AND DUP3 ADD DUP1 PUSH1 0x40 MSTORE POP DUP2 ADD SWAP1 PUSH3 0x248A SWAP2 SWAP1 PUSH3 0x497A JUMP JUMPDEST PUSH1 0x40 MLOAD PUSH4 0xE6A43905 PUSH1 0xE0 SHL DUP2 MSTORE SWAP1 SWAP2 POP PUSH1 0x1 PUSH1 0x1 PUSH1 0xA0 SHL SUB DUP4 AND SWAP1 PUSH4 0xE6A43905 SWAP1 PUSH3 0x24BD SWAP1 DUP9 SWAP1 DUP6 SWAP1 PUSH1 0x4 ADD PUSH3 0x459F JUMP JUMPDEST PUSH1 0x20 PUSH1 0x40 MLOAD DUP1 DUP4 SUB DUP2 DUP7 GAS STATICCALL ISZERO DUP1 ISZERO PUSH3 0x24DB JUMPI RETURNDATASIZE PUSH1 0x0 DUP1 RETURNDATACOPY RETURNDATASIZE PUSH1 0x0 REVERT JUMPDEST POP POP POP POP PUSH1 0x40 MLOAD RETURNDATASIZE PUSH1 0x1F NOT PUSH1 0x1F DUP3 ADD AND DUP3 ADD DUP1 PUSH1 0x40 MSTORE POP DUP2 ADD SWAP1 PUSH3 0x2501 SWAP2 SWAP1 PUSH3 0x497A JUMP JUMPDEST SWAP4 POP PUSH1 0x1 PUSH1 0x1 PUSH1 0xA0 SHL SUB DUP5 AND PUSH3 0x258B JUMPI PUSH1 0x40 MLOAD PUSH4 0x64E329CB PUSH1 0xE1 SHL DUP2 MSTORE PUSH1 0x1 PUSH1 0x1 PUSH1 0xA0 SHL SUB DUP4 AND SWAP1 PUSH4 0xC9C65396 SWAP1 PUSH3 0x2542 SWAP1 DUP9 SWAP1 DUP6 SWAP1 PUSH1 0x4 ADD PUSH3 0x459F JUMP JUMPDEST PUSH1 0x20 PUSH1 0x40 MLOAD DUP1 DUP4 SUB DUP2 PUSH1 0x0 DUP8 GAS CALL ISZERO DUP1 ISZERO PUSH3 0x2562 JUMPI RETURNDATASIZE PUSH1 0x0 DUP1 RETURNDATACOPY RETURNDATASIZE PUSH1 0x0 REVERT JUMPDEST POP POP POP POP PUSH1 0x40 MLOAD RETURNDATASIZE PUSH1 0x1F NOT PUSH1 0x1F DUP3 ADD AND DUP3 ADD DUP1 PUSH1 0x40 MSTORE POP DUP2 ADD SWAP1 PUSH3 0x2588 SWAP2 SWAP1 PUSH3 0x497A JUMP JUMPDEST SWAP4 POP JUMPDEST POP POP POP SWAP2 SWAP1 POP JUMP JUMPDEST PUSH1 0xC SLOAD PUSH1 0x60 SWAP1 PUSH1 0x0 DUP2 PUSH3 0x25A8 DUP6 DUP8 PUSH3 0x46A4 JUMP JUMPDEST GT PUSH3 0x25C0 JUMPI PUSH3 0x25BA DUP5 DUP7 PUSH3 0x46A4 JUMP JUMPDEST PUSH3 0x25C2 JUMP JUMPDEST DUP2 JUMPDEST SWAP1 POP PUSH3 0x25D0 DUP6 DUP3 PUSH3 0x45F4 JUMP JUMPDEST PUSH1 0x1 PUSH1 0x1 PUSH1 0x40 SHL SUB DUP2 GT ISZERO PUSH3 0x25EA JUMPI PUSH3 0x25EA PUSH3 0x46BA JUMP JUMPDEST PUSH1 0x40 MLOAD SWAP1 DUP1 DUP3 MSTORE DUP1 PUSH1 0x20 MUL PUSH1 0x20 ADD DUP3 ADD PUSH1 0x40 MSTORE DUP1 ISZERO PUSH3 0x2627 JUMPI DUP2 PUSH1 0x20 ADD JUMPDEST PUSH3 0x2613 PUSH3 0x3D65 JUMP JUMPDEST DUP2 MSTORE PUSH1 0x20 ADD SWAP1 PUSH1 0x1 SWAP1 SUB SWAP1 DUP2 PUSH3 0x2609 JUMPI SWAP1 POP JUMPDEST POP SWAP3 POP DUP5 JUMPDEST DUP2 DUP2 LT ISZERO PUSH3 0x280C JUMPI PUSH1 0xC DUP2 DUP2 SLOAD DUP2 LT PUSH3 0x264B JUMPI PUSH3 0x264B PUSH3 0x460A JUMP JUMPDEST PUSH1 0x0 SWAP2 DUP3 MSTORE PUSH1 0x20 SWAP2 DUP3 SWAP1 KECCAK256 PUSH1 0x40 DUP1 MLOAD PUSH1 0xA0 DUP2 ADD DUP3 MSTORE PUSH1 0x5 SWAP1 SWAP4 MUL SWAP1 SWAP2 ADD DUP1 SLOAD PUSH1 0x1 PUSH1 0x1 PUSH1 0xA0 SHL SUB SWAP1 DUP2 AND DUP5 MSTORE PUSH1 0x1 DUP3 ADD SLOAD AND SWAP4 DUP4 ADD SWAP4 SWAP1 SWAP4 MSTORE PUSH1 0x2 DUP4 ADD SLOAD SWAP1 DUP3 ADD MSTORE PUSH1 0x3 DUP3 ADD DUP1 SLOAD SWAP2 SWAP3 SWAP2 PUSH1 0x60 DUP5 ADD SWAP2 SWAP1 PUSH3 0x26A7 SWAP1 PUSH3 0x46D0 JUMP JUMPDEST DUP1 PUSH1 0x1F ADD PUSH1 0x20 DUP1 SWAP2 DIV MUL PUSH1 0x20 ADD PUSH1 0x40 MLOAD SWAP1 DUP2 ADD PUSH1 0x40 MSTORE DUP1 SWAP3 SWAP2 SWAP1 DUP2 DUP2 MSTORE PUSH1 0x20 ADD DUP3 DUP1 SLOAD PUSH3 0x26D5 SWAP1 PUSH3 0x46D0 JUMP JUMPDEST DUP1 ISZERO PUSH3 0x2726 JUMPI DUP1 PUSH1 0x1F LT PUSH3 0x26FA JUMPI PUSH2 0x100 DUP1 DUP4 SLOAD DIV MUL DUP4 MSTORE SWAP2 PUSH1 0x20 ADD SWAP2 PUSH3 0x2726 JUMP JUMPDEST DUP3 ADD SWAP2 SWAP1 PUSH1 0x0 MSTORE PUSH1 0x20 PUSH1 0x0 KECCAK256 SWAP1 JUMPDEST DUP2 SLOAD DUP2 MSTORE SWAP1 PUSH1 0x1 ADD SWAP1 PUSH1 0x20 ADD DUP1 DUP4 GT PUSH3 0x2708 JUMPI DUP3 SWAP1 SUB PUSH1 0x1F AND DUP3 ADD SWAP2 JUMPDEST POP POP POP POP POP DUP2 MSTORE PUSH1 0x20 ADD PUSH1 0x4 DUP3 ADD DUP1 SLOAD PUSH3 0x2741 SWAP1 PUSH3 0x46D0 JUMP JUMPDEST DUP1 PUSH1 0x1F ADD PUSH1 0x20 DUP1 SWAP2 DIV MUL PUSH1 0x20 ADD PUSH1 0x40 MLOAD SWAP1 DUP2 ADD PUSH1 0x40 MSTORE DUP1 SWAP3 SWAP2 SWAP1 DUP2 DUP2 MSTORE PUSH1 0x20 ADD DUP3 DUP1 SLOAD PUSH3 0x276F SWAP1 PUSH3 0x46D0 JUMP JUMPDEST DUP1 ISZERO PUSH3 0x27C0 JUMPI DUP1 PUSH1 0x1F LT PUSH3 0x2794 JUMPI PUSH2 0x100 DUP1 DUP4 SLOAD DIV MUL DUP4 MSTORE SWAP2 PUSH1 0x20 ADD SWAP2 PUSH3 0x27C0 JUMP JUMPDEST DUP3 ADD SWAP2 SWAP1 PUSH1 0x0 MSTORE PUSH1 0x20 PUSH1 0x0 KECCAK256 SWAP1 JUMPDEST DUP2 SLOAD DUP2 MSTORE SWAP1 PUSH1 0x1 ADD SWAP1 PUSH1 0x20 ADD DUP1 DUP4 GT PUSH3 0x27A2 JUMPI DUP3 SWAP1 SUB PUSH1 0x1F AND DUP3 ADD SWAP2 JUMPDEST POP POP POP POP POP DUP2 MSTORE POP POP DUP5 DUP8 DUP4 PUSH3 0x27D8 SWAP2 SWAP1 PUSH3 0x45F4 JUMP JUMPDEST DUP2 MLOAD DUP2 LT PUSH3 0x27EB JUMPI PUSH3 0x27EB PUSH3 0x460A JUMP JUMPDEST PUSH1 0x20 MUL PUSH1 0x20 ADD ADD DUP2 SWAP1 MSTORE POP DUP1 DUP1 PUSH3 0x2803 SWAP1 PUSH3 0x470C JUMP JUMPDEST SWAP2 POP POP PUSH3 0x262C JUMP JUMPDEST POP POP SWAP3 POP SWAP3 SWAP1 POP JUMP JUMPDEST PUSH1 0x0 DUP1 PUSH3 0x2822 PUSH3 0x346B JUMP JUMPDEST PUSH3 0x282C PUSH3 0x34B3 JUMP JUMPDEST PUSH1 0x8 SLOAD PUSH1 0x40 DUP1 MLOAD PUSH4 0x15AB88C9 PUSH1 0xE3 SHL DUP2 MSTORE SWAP1 MLOAD PUSH1 0x0 SWAP3 PUSH1 0x1 PUSH1 0x1 PUSH1 0xA0 SHL SUB AND SWAP2 PUSH4 0xAD5C4648 SWAP2 PUSH1 0x4 DUP1 DUP4 ADD SWAP3 PUSH1 0x20 SWAP3 SWAP2 SWAP1 DUP3 SWAP1 SUB ADD DUP2 DUP7 GAS STATICCALL ISZERO DUP1 ISZERO PUSH3 0x2877 JUMPI RETURNDATASIZE PUSH1 0x0 DUP1 RETURNDATACOPY RETURNDATASIZE PUSH1 0x0 REVERT JUMPDEST POP POP POP POP PUSH1 0x40 MLOAD RETURNDATASIZE PUSH1 0x1F NOT PUSH1 0x1F DUP3 ADD AND DUP3 ADD DUP1 PUSH1 0x40 MSTORE POP DUP2 ADD SWAP1 PUSH3 0x289D SWAP2 SWAP1 PUSH3 0x497A JUMP JUMPDEST PUSH1 0x7 SLOAD PUSH1 0x40 MLOAD PUSH4 0xE6A43905 PUSH1 0xE0 SHL DUP2 MSTORE SWAP2 SWAP3 POP PUSH1 0x0 SWAP2 PUSH1 0x1 PUSH1 0x1 PUSH1 0xA0 SHL SUB SWAP1 SWAP2 AND SWAP1 PUSH4 0xE6A43905 SWAP1 PUSH3 0x28D7 SWAP1 DUP10 SWAP1 DUP7 SWAP1 PUSH1 0x4 ADD PUSH3 0x459F JUMP JUMPDEST PUSH1 0x20 PUSH1 0x40 MLOAD DUP1 DUP4 SUB DUP2 DUP7 GAS STATICCALL ISZERO DUP1 ISZERO PUSH3 0x28F5 JUMPI RETURNDATASIZE PUSH1 0x0 DUP1 RETURNDATACOPY RETURNDATASIZE PUSH1 0x0 REVERT JUMPDEST POP POP POP POP PUSH1 0x40 MLOAD RETURNDATASIZE PUSH1 0x1F NOT PUSH1 0x1F DUP3 ADD AND DUP3 ADD DUP1 PUSH1 0x40 MSTORE POP DUP2 ADD SWAP1 PUSH3 0x291B SWAP2 SWAP1 PUSH3 0x497A JUMP JUMPDEST SWAP1 POP PUSH3 0x2934 PUSH1 0x1 PUSH1 0x1 PUSH1 0xA0 SHL SUB DUP3 AND CALLER ADDRESS DUP9 PUSH3 0x3656 JUMP JUMPDEST PUSH1 0x8 SLOAD PUSH3 0x2950 SWAP1 PUSH1 0x1 PUSH1 0x1 PUSH1 0xA0 SHL SUB DUP4 DUP2 AND SWAP2 AND DUP8 PUSH3 0x36E0 JUMP JUMPDEST PUSH1 0x8 SLOAD PUSH1 0x40 MLOAD PUSH3 0x9D473B PUSH1 0xE2 SHL DUP2 MSTORE PUSH1 0x1 PUSH1 0x1 PUSH1 0xA0 SHL SUB SWAP1 SWAP2 AND SWAP1 PUSH4 0x2751CEC SWAP1 PUSH3 0x298C SWAP1 DUP10 SWAP1 DUP10 SWAP1 PUSH1 0x0 SWAP1 DUP2 SWAP1 CALLER SWAP1 TIMESTAMP SWAP1 PUSH1 0x4 ADD PUSH3 0x4728 JUMP JUMPDEST PUSH1 0x40 DUP1 MLOAD DUP1 DUP4 SUB DUP2 PUSH1 0x0 DUP8 GAS CALL ISZERO DUP1 ISZERO PUSH3 0x29AB JUMPI RETURNDATASIZE PUSH1 0x0 DUP1 RETURNDATACOPY RETURNDATASIZE PUSH1 0x0 REVERT JUMPDEST POP POP POP POP PUSH1 0x40 MLOAD RETURNDATASIZE PUSH1 0x1F NOT PUSH1 0x1F DUP3 ADD AND DUP3 ADD DUP1 PUSH1 0x40 MSTORE POP DUP2 ADD SWAP1 PUSH3 0x29D1 SWAP2 SWAP1 PUSH3 0x499A JUMP JUMPDEST SWAP4 POP SWAP4 POP POP POP PUSH3 0x29E2 PUSH1 0x1 PUSH1 0x2 SSTORE JUMP JUMPDEST SWAP3 POP SWAP3 SWAP1 POP JUMP JUMPDEST PUSH1 0x1 PUSH1 0x1 PUSH1 0xA0 SHL SUB DUP2 AND PUSH1 0x0 SWAP1 DUP2 MSTORE PUSH1 0xD PUSH1 0x20 MSTORE PUSH1 0x40 DUP2 KECCAK256 SLOAD DUP1 DUP3 SUB PUSH3 0x2A24 JUMPI PUSH1 0x40 MLOAD PUSH3 0x461BCD PUSH1 0xE5 SHL DUP2 MSTORE PUSH1 0x4 ADD PUSH3 0x309 SWAP1 PUSH3 0x45B9 JUMP JUMPDEST PUSH1 0xC PUSH3 0x2A33 PUSH1 0x1 DUP4 PUSH3 0x45F4 JUMP JUMPDEST DUP2 SLOAD DUP2 LT PUSH3 0x2A46 JUMPI PUSH3 0x2A46 PUSH3 0x460A JUMP JUMPDEST SWAP1 PUSH1 0x0 MSTORE PUSH1 0x20 PUSH1 0x0 KECCAK256 SWAP1 PUSH1 0x5 MUL ADD PUSH1 0x2 ADD SLOAD SWAP2 POP POP SWAP2 SWAP1 POP JUMP JUMPDEST PUSH3 0x2A6A PUSH3 0x346B JUMP JUMPDEST PUSH3 0x2A74 PUSH3 0x34B3 JUMP JUMPDEST CALLER PUSH1 0x0 SWAP1 DUP2 MSTORE PUSH1 0xF PUSH1 0x20 MSTORE PUSH1 0x40 SWAP1 KECCAK256 PUSH1 0x1 DUP2 ADD SLOAD PUSH3 0x2AC2 JUMPI PUSH1 0x40 MLOAD PUSH3 0x461BCD PUSH1 0xE5 SHL DUP2 MSTORE PUSH1 0x20 PUSH1 0x4 DUP3 ADD MSTORE PUSH1 0x9 PUSH1 0x24 DUP3 ADD MSTORE PUSH9 0x4E6F56657374696E67 PUSH1 0xB8 SHL PUSH1 0x44 DUP3 ADD MSTORE PUSH1 0x64 ADD PUSH3 0x309 JUMP JUMPDEST PUSH1 0x0 DUP2 PUSH1 0x3 ADD SLOAD TIMESTAMP PUSH3 0x2AD6 SWAP2 SWAP1 PUSH3 0x45F4 JUMP JUMPDEST SWAP1 POP PUSH1 0x0 DUP3 PUSH1 0x4 ADD SLOAD DUP3 LT PUSH3 0x2B48 JUMPI DUP3 PUSH1 0x5 ADD SLOAD DUP3 LT ISZERO PUSH3 0x2B3D JUMPI DUP3 PUSH1 0x4 ADD SLOAD DUP4 PUSH1 0x5 ADD SLOAD PUSH3 0x2B09 SWAP2 SWAP1 PUSH3 0x45F4 JUMP JUMPDEST PUSH1 0x4 DUP5 ADD SLOAD PUSH3 0x2B1A SWAP1 DUP5 PUSH3 0x45F4 JUMP JUMPDEST DUP5 PUSH1 0x1 ADD SLOAD PUSH3 0x2B2B SWAP2 SWAP1 PUSH3 0x493D JUMP JUMPDEST PUSH3 0x2B37 SWAP2 SWAP1 PUSH3 0x4957 JUMP JUMPDEST PUSH3 0x2B4B JUMP JUMPDEST DUP3 PUSH1 0x1 ADD SLOAD PUSH3 0x2B4B JUMP JUMPDEST PUSH1 0x0 JUMPDEST SWAP1 POP PUSH1 0x0 DUP4 PUSH1 0x2 ADD SLOAD DUP3 PUSH3 0x2B61 SWAP2 SWAP1 PUSH3 0x45F4 JUMP JUMPDEST SWAP1 POP PUSH1 0x0 DUP2 GT PUSH3 0x2BA6 JUMPI PUSH1 0x40 MLOAD PUSH3 0x461BCD PUSH1 0xE5 SHL DUP2 MSTORE PUSH1 0x20 PUSH1 0x4 DUP3 ADD MSTORE PUSH1 0xE PUSH1 0x24 DUP3 ADD MSTORE PUSH14 0x4E6F7468696E67546F436C61696D PUSH1 0x90 SHL PUSH1 0x44 DUP3 ADD MSTORE PUSH1 0x64 ADD PUSH3 0x309 JUMP JUMPDEST PUSH1 0x2 DUP5 ADD DUP3 SWAP1 SSTORE DUP4 SLOAD PUSH3 0x2BC5 SWAP1 PUSH1 0x1 PUSH1 0x1 PUSH1 0xA0 SHL SUB AND CALLER DUP4 PUSH3 0x350C JUMP JUMPDEST DUP4 SLOAD PUSH1 0x40 MLOAD DUP3 DUP2 MSTORE PUSH1 0x1 PUSH1 0x1 PUSH1 0xA0 SHL SUB SWAP1 SWAP2 AND SWAP1 CALLER SWAP1 PUSH32 0x3DEA86EE53588906162D63DE35783619D0DB9B5D981641AF560779A1E32940EC SWAP1 PUSH1 0x20 ADD PUSH1 0x40 MLOAD DUP1 SWAP2 SUB SWAP1 LOG3 POP POP POP POP PUSH3 0xF85 PUSH1 0x1 PUSH1 0x2 SSTORE JUMP JUMPDEST PUSH1 0x0 PUSH3 0x2C24 DUP2 PUSH3 0x345F JUMP JUMPDEST PUSH3 0x2C2E PUSH3 0x346B JUMP JUMPDEST PUSH3 0x2C38 PUSH3 0x34B3 JUMP JUMPDEST PUSH1 0x4 SLOAD DUP1 PUSH3 0x2C5B JUMPI PUSH1 0x40 MLOAD PUSH3 0x461BCD PUSH1 0xE5 SHL DUP2 MSTORE PUSH1 0x4 ADD PUSH3 0x309 SWAP1 PUSH3 0x4647 JUMP JUMPDEST PUSH1 0x0 PUSH1 0x4 DUP2 SWAP1 SSTORE PUSH1 0x40 MLOAD CALLER SWAP2 DUP4 ISZERO PUSH2 0x8FC MUL SWAP2 DUP5 SWAP2 DUP2 DUP2 DUP2 DUP6 DUP9 DUP9 CALL SWAP4 POP POP POP POP ISZERO DUP1 ISZERO PUSH3 0x2323 JUMPI RETURNDATASIZE PUSH1 0x0 DUP1 RETURNDATACOPY RETURNDATASIZE PUSH1 0x0 REVERT JUMPDEST PUSH1 0x60 DUP2 PUSH1 0x1 PUSH1 0x1 PUSH1 0x40 SHL SUB DUP2 GT ISZERO PUSH3 0x2CAB JUMPI PUSH3 0x2CAB PUSH3 0x46BA JUMP JUMPDEST PUSH1 0x40 MLOAD SWAP1 DUP1 DUP3 MSTORE DUP1 PUSH1 0x20 MUL PUSH1 0x20 ADD DUP3 ADD PUSH1 0x40 MSTORE DUP1 ISZERO PUSH3 0x2CD5 JUMPI DUP2 PUSH1 0x20 ADD PUSH1 0x20 DUP3 MUL DUP1 CALLDATASIZE DUP4 CALLDATACOPY ADD SWAP1 POP JUMPDEST POP SWAP1 POP PUSH1 0x0 JUMPDEST DUP3 DUP2 LT ISZERO PUSH3 0x2DB6 JUMPI DUP4 DUP4 DUP3 DUP2 DUP2 LT PUSH3 0x2CF9 JUMPI PUSH3 0x2CF9 PUSH3 0x460A JUMP JUMPDEST SWAP1 POP PUSH1 0x20 MUL ADD PUSH1 0x20 DUP2 ADD SWAP1 PUSH3 0x2D10 SWAP2 SWAP1 PUSH3 0x3E9D JUMP JUMPDEST PUSH1 0x1 PUSH1 0x1 PUSH1 0xA0 SHL SUB AND PUSH4 0x70A08231 ADDRESS PUSH1 0x40 MLOAD DUP3 PUSH4 0xFFFFFFFF AND PUSH1 0xE0 SHL DUP2 MSTORE PUSH1 0x4 ADD PUSH3 0x2D3D SWAP2 SWAP1 PUSH3 0x3E06 JUMP JUMPDEST PUSH1 0x20 PUSH1 0x40 MLOAD DUP1 DUP4 SUB DUP2 DUP7 GAS STATICCALL ISZERO DUP1 ISZERO PUSH3 0x2D5B JUMPI RETURNDATASIZE PUSH1 0x0 DUP1 RETURNDATACOPY RETURNDATASIZE PUSH1 0x0 REVERT JUMPDEST POP POP POP POP PUSH1 0x40 MLOAD RETURNDATASIZE PUSH1 0x1F NOT PUSH1 0x1F DUP3 ADD AND DUP3 ADD DUP1 PUSH1 0x40 MSTORE POP DUP2 ADD SWAP1 PUSH3 0x2D81 SWAP2 SWAP1 PUSH3 0x4667 JUMP JUMPDEST DUP3 DUP3 DUP2 MLOAD DUP2 LT PUSH3 0x2D96 JUMPI PUSH3 0x2D96 PUSH3 0x460A JUMP JUMPDEST PUSH1 0x20 SWAP1 DUP2 MUL SWAP2 SWAP1 SWAP2 ADD ADD MSTORE DUP1 PUSH3 0x2DAD DUP2 PUSH3 0x470C JUMP JUMPDEST SWAP2 POP POP PUSH3 0x2CDB JUMP JUMPDEST POP SWAP3 SWAP2 POP POP JUMP JUMPDEST PUSH3 0x2DC8 DUP3 PUSH3 0x10A7 JUMP JUMPDEST PUSH3 0x2DD3 DUP2 PUSH3 0x345F JUMP JUMPDEST PUSH3 0x1135 DUP4 DUP4 PUSH3 0x35EE JUMP JUMPDEST PUSH1 0x0 PUSH1 0x0 DUP1 MLOAD PUSH1 0x20 PUSH3 0x6838 DUP4 CODECOPY DUP2 MLOAD SWAP2 MSTORE PUSH3 0x2DFC DUP2 PUSH3 0x345F JUMP JUMPDEST PUSH3 0x2E06 PUSH3 0x346B JUMP JUMPDEST PUSH3 0x2E10 PUSH3 0x34B3 JUMP JUMPDEST PUSH1 0x0 DUP6 GT PUSH3 0x2E33 JUMPI PUSH1 0x40 MLOAD PUSH3 0x461BCD PUSH1 0xE5 SHL DUP2 MSTORE PUSH1 0x4 ADD PUSH3 0x309 SWAP1 PUSH3 0x4681 JUMP JUMPDEST PUSH1 0x0 DUP13 DUP13 DUP13 DUP13 DUP11 CALLER DUP11 DUP11 PUSH1 0x40 MLOAD PUSH3 0x2E4B SWAP1 PUSH3 0x3DA6 JUMP JUMPDEST PUSH3 0x2E5E SWAP9 SWAP8 SWAP7 SWAP6 SWAP5 SWAP4 SWAP3 SWAP2 SWAP1 PUSH3 0x49BF JUMP JUMPDEST PUSH1 0x40 MLOAD DUP1 SWAP2 SUB SWAP1 PUSH1 0x0 CREATE DUP1 ISZERO DUP1 ISZERO PUSH3 0x2E7B JUMPI RETURNDATASIZE PUSH1 0x0 DUP1 RETURNDATACOPY RETURNDATASIZE PUSH1 0x0 REVERT JUMPDEST POP SWAP1 POP PUSH1 0x0 DUP2 SWAP1 POP PUSH1 0xC PUSH1 0x40 MLOAD DUP1 PUSH1 0xA0 ADD PUSH1 0x40 MSTORE DUP1 DUP4 PUSH1 0x1 PUSH1 0x1 PUSH1 0xA0 SHL SUB AND DUP2 MSTORE PUSH1 0x20 ADD CALLER PUSH1 0x1 PUSH1 0x1 PUSH1 0xA0 SHL SUB AND DUP2 MSTORE PUSH1 0x20 ADD DUP10 DUP2 MSTORE PUSH1 0x20 ADD DUP13 DUP13 DUP1 DUP1 PUSH1 0x1F ADD PUSH1 0x20 DUP1 SWAP2 DIV MUL PUSH1 0x20 ADD PUSH1 0x40 MLOAD SWAP1 DUP2 ADD PUSH1 0x40 MSTORE DUP1 SWAP4 SWAP3 SWAP2 SWAP1 DUP2 DUP2 MSTORE PUSH1 0x20 ADD DUP4 DUP4 DUP1 DUP3 DUP5 CALLDATACOPY PUSH1 0x0 SWAP3 ADD SWAP2 SWAP1 SWAP2 MSTORE POP POP POP SWAP1 DUP3 MSTORE POP PUSH1 0x40 DUP1 MLOAD PUSH1 0x20 PUSH1 0x1F DUP12 ADD DUP2 SWAP1 DIV DUP2 MUL DUP3 ADD DUP2 ADD SWAP1 SWAP3 MSTORE DUP10 DUP2 MSTORE SWAP2 DUP2 ADD SWAP2 SWAP1 DUP11 SWAP1 DUP11 SWAP1 DUP2 SWAP1 DUP5 ADD DUP4 DUP3 DUP1 DUP3 DUP5 CALLDATACOPY PUSH1 0x0 SWAP3 ADD DUP3 SWAP1 MSTORE POP SWAP4 SWAP1 SWAP5 MSTORE POP POP DUP4 SLOAD PUSH1 0x1 DUP1 DUP3 ADD DUP7 SSTORE SWAP5 DUP3 MSTORE PUSH1 0x20 SWAP2 DUP3 SWAP1 KECCAK256 DUP5 MLOAD PUSH1 0x5 SWAP1 SWAP3 MUL ADD DUP1 SLOAD PUSH1 0x1 PUSH1 0x1 PUSH1 0xA0 SHL SUB NOT SWAP1 DUP2 AND PUSH1 0x1 PUSH1 0x1 PUSH1 0xA0 SHL SUB SWAP4 DUP5 AND OR DUP3 SSTORE SWAP3 DUP6 ADD MLOAD SWAP6 DUP2 ADD DUP1 SLOAD SWAP1 SWAP4 AND SWAP6 SWAP1 SWAP2 AND SWAP5 SWAP1 SWAP5 OR SWAP1 SSTORE POP PUSH1 0x40 DUP2 ADD MLOAD PUSH1 0x2 DUP4 ADD SSTORE PUSH1 0x60 DUP2 ADD MLOAD SWAP1 SWAP2 SWAP1 PUSH1 0x3 DUP3 ADD SWAP1 PUSH3 0x2F97 SWAP1 DUP3 PUSH3 0x4A26 JUMP JUMPDEST POP PUSH1 0x80 DUP3 ADD MLOAD PUSH1 0x4 DUP3 ADD SWAP1 PUSH3 0x2FAE SWAP1 DUP3 PUSH3 0x4A26 JUMP JUMPDEST POP POP PUSH1 0xC SLOAD PUSH1 0x1 PUSH1 0x1 PUSH1 0xA0 SHL SUB DUP4 AND PUSH1 0x0 DUP2 DUP2 MSTORE PUSH1 0xD PUSH1 0x20 MSTORE PUSH1 0x40 SWAP1 DUP2 SWAP1 KECCAK256 SWAP3 SWAP1 SWAP3 SSTORE SWAP1 MLOAD CALLER SWAP3 POP PUSH32 0x75C1F35492CD2BCB2820D5FF2434B9DC6D19432975F20761140109F0844A7B8A SWAP1 PUSH3 0x300D SWAP1 DUP12 SWAP1 DUP16 SWAP1 DUP16 SWAP1 DUP14 SWAP1 DUP14 SWAP1 PUSH3 0x4AEE JUMP JUMPDEST PUSH1 0x40 MLOAD DUP1 SWAP2 SUB SWAP1 LOG3 SWAP3 POP POP PUSH3 0x3023 PUSH1 0x1 PUSH1 0x2 SSTORE JUMP JUMPDEST POP SWAP11 SWAP10 POP POP POP POP POP POP POP POP POP POP JUMP JUMPDEST PUSH1 0x3 SLOAD PUSH1 0x0 SWAP1 DUP2 SWAP1 DUP2 SWAP1 PUSH2 0x2710 SWAP1 PUSH3 0x3050 SWAP1 PUSH2 0xFFFF AND DUP7 PUSH3 0x493D JUMP JUMPDEST PUSH3 0x305C SWAP2 SWAP1 PUSH3 0x4957 JUMP JUMPDEST PUSH1 0x3 SLOAD SWAP1 SWAP4 POP PUSH2 0x2710 SWAP1 PUSH3 0x307C SWAP1 PUSH3 0x10000 SWAP1 DIV PUSH2 0xFFFF AND DUP7 PUSH3 0x493D JUMP JUMPDEST PUSH3 0x3088 SWAP2 SWAP1 PUSH3 0x4957 JUMP JUMPDEST SWAP2 POP DUP2 PUSH3 0x3097 DUP5 DUP7 PUSH3 0x45F4 JUMP JUMPDEST PUSH3 0x30A3 SWAP2 SWAP1 PUSH3 0x45F4 JUMP JUMPDEST SWAP3 SWAP5 SWAP2 SWAP4 POP POP JUMP JUMPDEST PUSH1 0x0 DUP1 MLOAD PUSH1 0x20 PUSH3 0x6838 DUP4 CODECOPY DUP2 MLOAD SWAP2 MSTORE PUSH3 0x30C6 DUP2 PUSH3 0x345F JUMP JUMPDEST PUSH1 0x0 JUMPDEST DUP3 DUP2 LT ISZERO PUSH3 0x1BEE JUMPI PUSH1 0x1 PUSH1 0x1 PUSH1 0xA0 SHL SUB DUP6 AND PUSH1 0x0 SWAP1 DUP2 MSTORE PUSH1 0xB PUSH1 0x20 MSTORE PUSH1 0x40 DUP2 KECCAK256 PUSH1 0x1 SWAP2 DUP7 DUP7 DUP6 DUP2 DUP2 LT PUSH3 0x3102 JUMPI PUSH3 0x3102 PUSH3 0x460A JUMP JUMPDEST SWAP1 POP PUSH1 0x20 MUL ADD PUSH1 0x20 DUP2 ADD SWAP1 PUSH3 0x3119 SWAP2 SWAP1 PUSH3 0x3E9D JUMP JUMPDEST PUSH1 0x1 PUSH1 0x1 PUSH1 0xA0 SHL SUB AND DUP2 MSTORE PUSH1 0x20 DUP2 ADD SWAP2 SWAP1 SWAP2 MSTORE PUSH1 0x40 ADD PUSH1 0x0 KECCAK256 DUP1 SLOAD PUSH1 0xFF NOT AND SWAP2 ISZERO ISZERO SWAP2 SWAP1 SWAP2 OR SWAP1 SSTORE DUP4 DUP4 DUP3 DUP2 DUP2 LT PUSH3 0x3156 JUMPI PUSH3 0x3156 PUSH3 0x460A JUMP JUMPDEST SWAP1 POP PUSH1 0x20 MUL ADD PUSH1 0x20 DUP2 ADD SWAP1 PUSH3 0x316D SWAP2 SWAP1 PUSH3 0x3E9D JUMP JUMPDEST PUSH1 0x1 PUSH1 0x1 PUSH1 0xA0 SHL SUB AND DUP6 PUSH1 0x1 PUSH1 0x1 PUSH1 0xA0 SHL SUB AND PUSH32 0x4BC18AA4B0095C9A3B5CDF42D2322D5A145591B04045988A995A5DA426075457 PUSH1 0x40 MLOAD PUSH1 0x40 MLOAD DUP1 SWAP2 SUB SWAP1 LOG3 DUP1 PUSH3 0x31B8 DUP2 PUSH3 0x470C JUMP JUMPDEST SWAP2 POP POP PUSH3 0x30C9 JUMP JUMPDEST PUSH1 0x0 DUP1 MLOAD PUSH1 0x20 PUSH3 0x6838 DUP4 CODECOPY DUP2 MLOAD SWAP2 MSTORE PUSH3 0x31DC DUP2 PUSH3 0x345F JUMP JUMPDEST PUSH1 0x1 PUSH1 0x1 PUSH1 0xA0 SHL SUB DUP3 AND PUSH1 0x0 DUP2 DUP2 MSTORE PUSH1 0xE PUSH1 0x20 MSTORE PUSH1 0x40 DUP1 DUP3 KECCAK256 DUP1 SLOAD PUSH1 0xFF NOT AND SWAP1 SSTORE MLOAD PUSH32 0xF38578ED892CE2CE655CA8AE03C73464AD74915A1331A9B4085E637534DAEEDF SWAP2 SWAP1 LOG2 POP POP JUMP JUMPDEST PUSH1 0x0 PUSH3 0x3233 DUP2 PUSH3 0x345F JUMP JUMPDEST PUSH3 0x323D PUSH3 0x346B JUMP JUMPDEST PUSH2 0x2710 PUSH3 0x324C DUP4 DUP6 PUSH3 0x4B1F JUMP JUMPDEST PUSH2 0xFFFF AND LT PUSH3 0x328F JUMPI PUSH1 0x40 MLOAD PUSH3 0x461BCD PUSH1 0xE5 SHL DUP2 MSTORE PUSH1 0x20 PUSH1 0x4 DUP3 ADD MSTORE PUSH1 0xD PUSH1 0x24 DUP3 ADD MSTORE PUSH13 0x8CCACAE640E8DEDE40D0D2CED PUSH1 0x9B SHL PUSH1 0x44 DUP3 ADD MSTORE PUSH1 0x64 ADD PUSH3 0x309 JUMP JUMPDEST PUSH1 0x3 DUP1 SLOAD PUSH2 0xFFFF DUP6 DUP2 AND PUSH4 0xFFFFFFFF NOT SWAP1 SWAP3 AND DUP3 OR PUSH3 0x10000 SWAP2 DUP7 AND SWAP2 DUP3 MUL OR SWAP1 SWAP3 SSTORE PUSH1 0x40 DUP1 MLOAD SWAP2 DUP3 MSTORE PUSH1 0x20 DUP3 ADD SWAP3 SWAP1 SWAP3 MSTORE PUSH32 0x2AC80C14C28700F7B5E36F947D572149FE2E3947BAC32C3A8C098F3E03722C11 SWAP2 ADD PUSH3 0xDAF JUMP JUMPDEST PUSH3 0x32F4 PUSH3 0x346B JUMP JUMPDEST PUSH3 0x32FE PUSH3 0x34B3 JUMP JUMPDEST PUSH1 0x1 PUSH1 0x1 PUSH1 0xA0 SHL SUB DUP2 AND PUSH1 0x0 SWAP1 DUP2 MSTORE PUSH1 0xD PUSH1 0x20 MSTORE PUSH1 0x40 DUP2 KECCAK256 SLOAD SWAP1 DUP2 SWAP1 SUB PUSH3 0x333A JUMPI PUSH1 0x40 MLOAD PUSH3 0x461BCD PUSH1 0xE5 SHL DUP2 MSTORE PUSH1 0x4 ADD PUSH3 0x309 SWAP1 PUSH3 0x45B9 JUMP JUMPDEST PUSH1 0x0 PUSH1 0xC PUSH3 0x334B PUSH1 0x1 DUP5 PUSH3 0x45F4 JUMP JUMPDEST DUP2 SLOAD DUP2 LT PUSH3 0x335E JUMPI PUSH3 0x335E PUSH3 0x460A JUMP JUMPDEST PUSH1 0x0 SWAP2 DUP3 MSTORE PUSH1 0x20 SWAP1 SWAP2 KECCAK256 PUSH1 0x1 PUSH1 0x5 SWAP1 SWAP3 MUL ADD ADD SLOAD PUSH1 0x1 PUSH1 0x1 PUSH1 0xA0 SHL SUB AND SWAP1 POP CALLER DUP2 EQ PUSH3 0x339F JUMPI PUSH1 0x40 MLOAD PUSH3 0x461BCD PUSH1 0xE5 SHL DUP2 MSTORE PUSH1 0x4 ADD PUSH3 0x309 SWAP1 PUSH3 0x4620 JUMP JUMPDEST PUSH1 0x1 PUSH1 0x1 PUSH1 0xA0 SHL SUB DUP2 AND PUSH1 0x0 SWAP1 DUP2 MSTORE PUSH1 0x6 PUSH1 0x20 MSTORE PUSH1 0x40 SWAP1 KECCAK256 SLOAD DUP1 PUSH3 0x33D8 JUMPI PUSH1 0x40 MLOAD PUSH3 0x461BCD PUSH1 0xE5 SHL DUP2 MSTORE PUSH1 0x4 ADD PUSH3 0x309 SWAP1 PUSH3 0x4647 JUMP JUMPDEST PUSH1 0x1 PUSH1 0x1 PUSH1 0xA0 SHL SUB DUP3 AND PUSH1 0x0 DUP2 DUP2 MSTORE PUSH1 0x6 PUSH1 0x20 MSTORE PUSH1 0x40 DUP1 DUP3 KECCAK256 DUP3 SWAP1 SSTORE MLOAD DUP4 ISZERO PUSH2 0x8FC MUL SWAP2 DUP5 SWAP2 SWAP1 DUP2 DUP2 DUP2 DUP6 DUP9 DUP9 CALL SWAP4 POP POP POP POP ISZERO DUP1 ISZERO PUSH3 0x341D JUMPI RETURNDATASIZE PUSH1 0x0 DUP1 RETURNDATACOPY RETURNDATASIZE PUSH1 0x0 REVERT JUMPDEST POP DUP2 PUSH1 0x1 PUSH1 0x1 PUSH1 0xA0 SHL SUB AND PUSH1 0x0 DUP1 MLOAD PUSH1 0x20 PUSH3 0x68B8 DUP4 CODECOPY DUP2 MLOAD SWAP2 MSTORE DUP3 PUSH1 0x40 MLOAD PUSH3 0x3449 SWAP2 DUP2 MSTORE PUSH1 0x20 ADD SWAP1 JUMP JUMPDEST PUSH1 0x40 MLOAD DUP1 SWAP2 SUB SWAP1 LOG2 POP POP POP PUSH3 0x140D PUSH1 0x1 PUSH1 0x2 SSTORE JUMP JUMPDEST PUSH3 0x140D DUP2 CALLER PUSH3 0x37DC JUMP JUMPDEST PUSH1 0x1 SLOAD PUSH1 0xFF AND ISZERO PUSH3 0xF85 JUMPI PUSH1 0x40 MLOAD PUSH3 0x461BCD PUSH1 0xE5 SHL DUP2 MSTORE PUSH1 0x20 PUSH1 0x4 DUP3 ADD MSTORE PUSH1 0x10 PUSH1 0x24 DUP3 ADD MSTORE PUSH16 0x14185D5CD8589B194E881C185D5CD959 PUSH1 0x82 SHL PUSH1 0x44 DUP3 ADD MSTORE PUSH1 0x64 ADD PUSH3 0x309 JUMP JUMPDEST PUSH1 0x2 DUP1 SLOAD SUB PUSH3 0x3506 JUMPI PUSH1 0x40 MLOAD PUSH3 0x461BCD PUSH1 0xE5 SHL DUP2 MSTORE PUSH1 0x20 PUSH1 0x4 DUP3 ADD MSTORE PUSH1 0x1F PUSH1 0x24 DUP3 ADD MSTORE PUSH32 0x5265656E7472616E637947756172643A207265656E7472616E742063616C6C00 PUSH1 0x44 DUP3 ADD MSTORE PUSH1 0x64 ADD PUSH3 0x309 JUMP JUMPDEST PUSH1 0x2 DUP1 SSTORE JUMP JUMPDEST PUSH3 0x1135 DUP4 PUSH4 0xA9059CBB PUSH1 0xE0 SHL DUP5 DUP5 PUSH1 0x40 MLOAD PUSH1 0x24 ADD PUSH3 0x352E SWAP3 SWAP2 SWAP1 PUSH3 0x4B3D JUMP JUMPDEST PUSH1 0x40 DUP1 MLOAD PUSH1 0x1F NOT DUP2 DUP5 SUB ADD DUP2 MSTORE SWAP2 SWAP1 MSTORE PUSH1 0x20 DUP2 ADD DUP1 MLOAD PUSH1 0x1 PUSH1 0x1 PUSH1 0xE0 SHL SUB AND PUSH1 0x1 PUSH1 0x1 PUSH1 0xE0 SHL SUB NOT SWAP1 SWAP4 AND SWAP3 SWAP1 SWAP3 OR SWAP1 SWAP2 MSTORE PUSH3 0x3840 JUMP JUMPDEST PUSH3 0x3572 DUP3 DUP3 PUSH3 0x23D1 JUMP JUMPDEST PUSH3 0xED0 JUMPI PUSH1 0x0 DUP3 DUP2 MSTORE PUSH1 0x20 DUP2 DUP2 MSTORE PUSH1 0x40 DUP1 DUP4 KECCAK256 PUSH1 0x1 PUSH1 0x1 PUSH1 0xA0 SHL SUB DUP6 AND DUP5 MSTORE SWAP1 SWAP2 MSTORE SWAP1 KECCAK256 DUP1 SLOAD PUSH1 0xFF NOT AND PUSH1 0x1 OR SWAP1 SSTORE PUSH3 0x35AA CALLER SWAP1 JUMP JUMPDEST PUSH1 0x1 PUSH1 0x1 PUSH1 0xA0 SHL SUB AND DUP2 PUSH1 0x1 PUSH1 0x1 PUSH1 0xA0 SHL SUB AND DUP4 PUSH32 0x2F8788117E7EFF1D82E926EC794901D17C78024A50270940304540A733656F0D PUSH1 0x40 MLOAD PUSH1 0x40 MLOAD DUP1 SWAP2 SUB SWAP1 LOG4 POP POP JUMP JUMPDEST PUSH3 0x35FA DUP3 DUP3 PUSH3 0x23D1 JUMP JUMPDEST ISZERO PUSH3 0xED0 JUMPI PUSH1 0x0 DUP3 DUP2 MSTORE PUSH1 0x20 DUP2 DUP2 MSTORE PUSH1 0x40 DUP1 DUP4 KECCAK256 PUSH1 0x1 PUSH1 0x1 PUSH1 0xA0 SHL SUB DUP6 AND DUP1 DUP6 MSTORE SWAP3 MSTORE DUP1 DUP4 KECCAK256 DUP1 SLOAD PUSH1 0xFF NOT AND SWAP1 SSTORE MLOAD CALLER SWAP3 DUP6 SWAP2 PUSH32 0xF6391F5C32D9C69D2A47EA670B442974B53935D1EDC7FD64EB21E047A839171B SWAP2 SWAP1 LOG4 POP POP JUMP JUMPDEST PUSH1 0x40 MLOAD PUSH1 0x1 PUSH1 0x1 PUSH1 0xA0 SHL SUB DUP1 DUP6 AND PUSH1 0x24 DUP4 ADD MSTORE DUP4 AND PUSH1 0x44 DUP3 ADD MSTORE PUSH1 0x64 DUP2 ADD DUP3 SWAP1 MSTORE PUSH3 0x21B1 SWAP1 DUP6 SWAP1 PUSH4 0x23B872DD PUSH1 0xE0 SHL SWAP1 PUSH1 0x84 ADD PUSH3 0x352E JUMP JUMPDEST PUSH3 0x369A PUSH3 0x391C JUMP JUMPDEST PUSH1 0x1 DUP1 SLOAD PUSH1 0xFF NOT AND SWAP1 SSTORE PUSH32 0x5DB9EE0A495BF2E6FF9C91A7834C1BA4FDD244A5E8AA4E537BD38AEAE4B073AA CALLER JUMPDEST PUSH1 0x40 MLOAD PUSH3 0x36D6 SWAP2 SWAP1 PUSH3 0x3E06 JUMP JUMPDEST PUSH1 0x40 MLOAD DUP1 SWAP2 SUB SWAP1 LOG1 JUMP JUMPDEST PUSH1 0x40 MLOAD PUSH4 0x6EB1769F PUSH1 0xE1 SHL DUP2 MSTORE PUSH1 0x0 SWAP1 PUSH1 0x1 PUSH1 0x1 PUSH1 0xA0 SHL SUB DUP6 AND SWAP1 PUSH4 0xDD62ED3E SWAP1 PUSH3 0x3713 SWAP1 ADDRESS SWAP1 DUP8 SWAP1 PUSH1 0x4 ADD PUSH3 0x459F JUMP JUMPDEST PUSH1 0x20 PUSH1 0x40 MLOAD DUP1 DUP4 SUB DUP2 DUP7 GAS STATICCALL ISZERO DUP1 ISZERO PUSH3 0x3731 JUMPI RETURNDATASIZE PUSH1 0x0 DUP1 RETURNDATACOPY RETURNDATASIZE PUSH1 0x0 REVERT JUMPDEST POP POP POP POP PUSH1 0x40 MLOAD RETURNDATASIZE PUSH1 0x1F NOT PUSH1 0x1F DUP3 ADD AND DUP3 ADD DUP1 PUSH1 0x40 MSTORE POP DUP2 ADD SWAP1 PUSH3 0x3757 SWAP2 SWAP1 PUSH3 0x4667 JUMP JUMPDEST SWAP1 POP PUSH3 0x21B1 DUP5 PUSH4 0x95EA7B3 PUSH1 0xE0 SHL DUP6 PUSH3 0x3773 DUP7 DUP7 PUSH3 0x46A4 JUMP JUMPDEST PUSH1 0x40 MLOAD PUSH1 0x24 ADD PUSH3 0x352E SWAP3 SWAP2 SWAP1 PUSH3 0x4B3D JUMP JUMPDEST PUSH1 0x0 DUP3 PUSH3 0x3795 DUP6 DUP5 PUSH3 0x3967 JUMP JUMPDEST EQ SWAP5 SWAP4 POP POP POP POP JUMP JUMPDEST PUSH3 0x37A8 PUSH3 0x346B JUMP JUMPDEST PUSH1 0x1 DUP1 SLOAD PUSH1 0xFF NOT AND DUP2 OR SWAP1 SSTORE PUSH32 0x62E78CEA01BEE320CD4E420270B5EA74000D11B0C9F74754EBDBFC544B05A258 CALLER PUSH3 0x36C7 JUMP JUMPDEST PUSH3 0x37E8 DUP3 DUP3 PUSH3 0x23D1 JUMP JUMPDEST PUSH3 0xED0 JUMPI PUSH3 0x37F8 DUP2 PUSH3 0x39BD JUMP JUMPDEST PUSH3 0x3805 DUP4 PUSH1 0x20 PUSH3 0x39D0 JUMP JUMPDEST PUSH1 0x40 MLOAD PUSH1 0x20 ADD PUSH3 0x3818 SWAP3 SWAP2 SWAP1 PUSH3 0x4B56 JUMP JUMPDEST PUSH1 0x40 DUP1 MLOAD PUSH1 0x1F NOT DUP2 DUP5 SUB ADD DUP2 MSTORE SWAP1 DUP3 SWAP1 MSTORE PUSH3 0x461BCD PUSH1 0xE5 SHL DUP3 MSTORE PUSH3 0x309 SWAP2 PUSH1 0x4 ADD PUSH3 0x4BC9 JUMP JUMPDEST PUSH1 0x0 PUSH3 0x3897 DUP3 PUSH1 0x40 MLOAD DUP1 PUSH1 0x40 ADD PUSH1 0x40 MSTORE DUP1 PUSH1 0x20 DUP2 MSTORE PUSH1 0x20 ADD PUSH32 0x5361666545524332303A206C6F772D6C6576656C2063616C6C206661696C6564 DUP2 MSTORE POP DUP6 PUSH1 0x1 PUSH1 0x1 PUSH1 0xA0 SHL SUB AND PUSH3 0x3B90 SWAP1 SWAP3 SWAP2 SWAP1 PUSH4 0xFFFFFFFF AND JUMP JUMPDEST SWAP1 POP DUP1 MLOAD PUSH1 0x0 EQ DUP1 PUSH3 0x38BB JUMPI POP DUP1 DUP1 PUSH1 0x20 ADD SWAP1 MLOAD DUP2 ADD SWAP1 PUSH3 0x38BB SWAP2 SWAP1 PUSH3 0x4BDE JUMP JUMPDEST PUSH3 0x1135 JUMPI PUSH1 0x40 MLOAD PUSH3 0x461BCD PUSH1 0xE5 SHL DUP2 MSTORE PUSH1 0x20 PUSH1 0x4 DUP3 ADD MSTORE PUSH1 0x2A PUSH1 0x24 DUP3 ADD MSTORE PUSH32 0x5361666545524332303A204552433230206F7065726174696F6E20646964206E PUSH1 0x44 DUP3 ADD MSTORE PUSH10 0x1BDD081CDD58D8D95959 PUSH1 0xB2 SHL PUSH1 0x64 DUP3 ADD MSTORE PUSH1 0x84 ADD PUSH3 0x309 JUMP JUMPDEST PUSH1 0x1 SLOAD PUSH1 0xFF AND PUSH3 0xF85 JUMPI PUSH1 0x40 MLOAD PUSH3 0x461BCD PUSH1 0xE5 SHL DUP2 MSTORE PUSH1 0x20 PUSH1 0x4 DUP3 ADD MSTORE PUSH1 0x14 PUSH1 0x24 DUP3 ADD MSTORE PUSH20 0x14185D5CD8589B194E881B9BDD081C185D5CD959 PUSH1 0x62 SHL PUSH1 0x44 DUP3 ADD MSTORE PUSH1 0x64 ADD PUSH3 0x309 JUMP JUMPDEST PUSH1 0x0 DUP2 DUP2 JUMPDEST DUP5 MLOAD DUP2 LT ISZERO PUSH3 0x39B5 JUMPI PUSH3 0x399E DUP3 DUP7 DUP4 DUP2 MLOAD DUP2 LT PUSH3 0x3990 JUMPI PUSH3 0x3990 PUSH3 0x460A JUMP JUMPDEST PUSH1 0x20 MUL PUSH1 0x20 ADD ADD MLOAD PUSH3 0x3BA9 JUMP JUMPDEST SWAP2 POP DUP1 PUSH3 0x39AC DUP2 PUSH3 0x470C JUMP JUMPDEST SWAP2 POP POP PUSH3 0x396C JUMP JUMPDEST POP SWAP4 SWAP3 POP POP POP JUMP JUMPDEST PUSH1 0x60 PUSH3 0xCD1 PUSH1 0x1 PUSH1 0x1 PUSH1 0xA0 SHL SUB DUP4 AND PUSH1 0x14 JUMPDEST PUSH1 0x60 PUSH1 0x0 PUSH3 0x39E1 DUP4 PUSH1 0x2 PUSH3 0x493D JUMP JUMPDEST PUSH3 0x39EE SWAP1 PUSH1 0x2 PUSH3 0x46A4 JUMP JUMPDEST PUSH1 0x1 PUSH1 0x1 PUSH1 0x40 SHL SUB DUP2 GT ISZERO PUSH3 0x3A08 JUMPI PUSH3 0x3A08 PUSH3 0x46BA JUMP JUMPDEST PUSH1 0x40 MLOAD SWAP1 DUP1 DUP3 MSTORE DUP1 PUSH1 0x1F ADD PUSH1 0x1F NOT AND PUSH1 0x20 ADD DUP3 ADD PUSH1 0x40 MSTORE DUP1 ISZERO PUSH3 0x3A33 JUMPI PUSH1 0x20 DUP3 ADD DUP2 DUP1 CALLDATASIZE DUP4 CALLDATACOPY ADD SWAP1 POP JUMPDEST POP SWAP1 POP PUSH1 0x3 PUSH1 0xFC SHL DUP2 PUSH1 0x0 DUP2 MLOAD DUP2 LT PUSH3 0x3A51 JUMPI PUSH3 0x3A51 PUSH3 0x460A JUMP JUMPDEST PUSH1 0x20 ADD ADD SWAP1 PUSH1 0x1 PUSH1 0x1 PUSH1 0xF8 SHL SUB NOT AND SWAP1 DUP2 PUSH1 0x0 BYTE SWAP1 MSTORE8 POP PUSH1 0xF PUSH1 0xFB SHL DUP2 PUSH1 0x1 DUP2 MLOAD DUP2 LT PUSH3 0x3A83 JUMPI PUSH3 0x3A83 PUSH3 0x460A JUMP JUMPDEST PUSH1 0x20 ADD ADD SWAP1 PUSH1 0x1 PUSH1 0x1 PUSH1 0xF8 SHL SUB NOT AND SWAP1 DUP2 PUSH1 0x0 BYTE SWAP1 MSTORE8 POP PUSH1 0x0 PUSH3 0x3AA9 DUP5 PUSH1 0x2 PUSH3 0x493D JUMP JUMPDEST PUSH3 0x3AB6 SWAP1 PUSH1 0x1 PUSH3 0x46A4 JUMP JUMPDEST SWAP1 POP JUMPDEST PUSH1 0x1 DUP2 GT ISZERO PUSH3 0x3B38 JUMPI PUSH16 0x181899199A1A9B1B9C1CB0B131B232B3 PUSH1 0x81 SHL DUP6 PUSH1 0xF AND PUSH1 0x10 DUP2 LT PUSH3 0x3AEE JUMPI PUSH3 0x3AEE PUSH3 0x460A JUMP JUMPDEST BYTE PUSH1 0xF8 SHL DUP3 DUP3 DUP2 MLOAD DUP2 LT PUSH3 0x3B07 JUMPI PUSH3 0x3B07 PUSH3 0x460A JUMP JUMPDEST PUSH1 0x20 ADD ADD SWAP1 PUSH1 0x1 PUSH1 0x1 PUSH1 0xF8 SHL SUB NOT AND SWAP1 DUP2 PUSH1 0x0 BYTE SWAP1 MSTORE8 POP PUSH1 0x4 SWAP5 SWAP1 SWAP5 SHR SWAP4 PUSH3 0x3B30 DUP2 PUSH3 0x4BFE JUMP JUMPDEST SWAP1 POP PUSH3 0x3AB9 JUMP JUMPDEST POP DUP4 ISZERO PUSH3 0x3B89 JUMPI PUSH1 0x40 MLOAD PUSH3 0x461BCD PUSH1 0xE5 SHL DUP2 MSTORE PUSH1 0x20 PUSH1 0x4 DUP3 ADD DUP2 SWAP1 MSTORE PUSH1 0x24 DUP3 ADD MSTORE PUSH32 0x537472696E67733A20686578206C656E67746820696E73756666696369656E74 PUSH1 0x44 DUP3 ADD MSTORE PUSH1 0x64 ADD PUSH3 0x309 JUMP JUMPDEST SWAP4 SWAP3 POP POP POP JUMP JUMPDEST PUSH1 0x60 PUSH3 0x3BA1 DUP5 DUP5 PUSH1 0x0 DUP6 PUSH3 0x3BDB JUMP JUMPDEST SWAP5 SWAP4 POP POP POP POP JUMP JUMPDEST PUSH1 0x0 DUP2 DUP4 LT PUSH3 0x3BC7 JUMPI PUSH1 0x0 DUP3 DUP2 MSTORE PUSH1 0x20 DUP5 SWAP1 MSTORE PUSH1 0x40 SWAP1 KECCAK256 PUSH3 0x3B89 JUMP JUMPDEST PUSH1 0x0 DUP4 DUP2 MSTORE PUSH1 0x20 DUP4 SWAP1 MSTORE PUSH1 0x40 SWAP1 KECCAK256 PUSH3 0x3B89 JUMP JUMPDEST PUSH1 0x60 DUP3 SELFBALANCE LT ISZERO PUSH3 0x3C3E JUMPI PUSH1 0x40 MLOAD PUSH3 0x461BCD PUSH1 0xE5 SHL DUP2 MSTORE PUSH1 0x20 PUSH1 0x4 DUP3 ADD MSTORE PUSH1 0x26 PUSH1 0x24 DUP3 ADD MSTORE PUSH32 0x416464726573733A20696E73756666696369656E742062616C616E636520666F PUSH1 0x44 DUP3 ADD MSTORE PUSH6 0x1C8818D85B1B PUSH1 0xD2 SHL PUSH1 0x64 DUP3 ADD MSTORE PUSH1 0x84 ADD PUSH3 0x309 JUMP JUMPDEST PUSH1 0x0 DUP1 DUP7 PUSH1 0x1 PUSH1 0x1 PUSH1 0xA0 SHL SUB AND DUP6 DUP8 PUSH1 0x40 MLOAD PUSH3 0x3C5C SWAP2 SWAP1 PUSH3 0x4C18 JUMP JUMPDEST PUSH1 0x0 PUSH1 0x40 MLOAD DUP1 DUP4 SUB DUP2 DUP6 DUP8 GAS CALL SWAP3 POP POP POP RETURNDATASIZE DUP1 PUSH1 0x0 DUP2 EQ PUSH3 0x3C9B JUMPI PUSH1 0x40 MLOAD SWAP2 POP PUSH1 0x1F NOT PUSH1 0x3F RETURNDATASIZE ADD AND DUP3 ADD PUSH1 0x40 MSTORE RETURNDATASIZE DUP3 MSTORE RETURNDATASIZE PUSH1 0x0 PUSH1 0x20 DUP5 ADD RETURNDATACOPY PUSH3 0x3CA0 JUMP JUMPDEST PUSH1 0x60 SWAP2 POP JUMPDEST POP SWAP2 POP SWAP2 POP PUSH3 0x3CB3 DUP8 DUP4 DUP4 DUP8 PUSH3 0x3CBE JUMP JUMPDEST SWAP8 SWAP7 POP POP POP POP POP POP POP JUMP JUMPDEST PUSH1 0x60 DUP4 ISZERO PUSH3 0x3D32 JUMPI DUP3 MLOAD PUSH1 0x0 SUB PUSH3 0x3D2A JUMPI PUSH1 0x1 PUSH1 0x1 PUSH1 0xA0 SHL SUB DUP6 AND EXTCODESIZE PUSH3 0x3D2A JUMPI PUSH1 0x40 MLOAD PUSH3 0x461BCD PUSH1 0xE5 SHL DUP2 MSTORE PUSH1 0x20 PUSH1 0x4 DUP3 ADD MSTORE PUSH1 0x1D PUSH1 0x24 DUP3 ADD MSTORE PUSH32 0x416464726573733A2063616C6C20746F206E6F6E2D636F6E7472616374000000 PUSH1 0x44 DUP3 ADD MSTORE PUSH1 0x64 ADD PUSH3 0x309 JUMP JUMPDEST POP DUP2 PUSH3 0x3BA1 JUMP JUMPDEST PUSH3 0x3BA1 DUP4 DUP4 DUP2 MLOAD ISZERO PUSH3 0x3D49 JUMPI DUP2 MLOAD DUP1 DUP4 PUSH1 0x20 ADD REVERT JUMPDEST DUP1 PUSH1 0x40 MLOAD PUSH3 0x461BCD PUSH1 0xE5 SHL DUP2 MSTORE PUSH1 0x4 ADD PUSH3 0x309 SWAP2 SWAP1 PUSH3 0x4BC9 JUMP JUMPDEST PUSH1 0x40 MLOAD DUP1 PUSH1 0xA0 ADD PUSH1 0x40 MSTORE DUP1 PUSH1 0x0 PUSH1 0x1 PUSH1 0x1 PUSH1 0xA0 SHL SUB AND DUP2 MSTORE PUSH1 0x20 ADD PUSH1 0x0 PUSH1 0x1 PUSH1 0x1 PUSH1 0xA0 SHL SUB AND DUP2 MSTORE PUSH1 0x20 ADD PUSH1 0x0 DUP2 MSTORE PUSH1 0x20 ADD PUSH1 0x60 DUP2 MSTORE PUSH1 0x20 ADD PUSH1 0x60 DUP2 MSTORE POP SWAP1 JUMP JUMPDEST PUSH2 0x1C01 DUP1 PUSH3 0x4C37 DUP4 CODECOPY ADD SWAP1 JUMP JUMPDEST PUSH1 0x20 DUP1 DUP3 MSTORE PUSH1 0xC SWAP1 DUP3 ADD MSTORE PUSH12 0x2AB9B290313ABCAA37B5B2B7 PUSH1 0xA1 SHL PUSH1 0x40 DUP3 ADD MSTORE PUSH1 0x60 ADD SWAP1 JUMP JUMPDEST PUSH1 0x0 PUSH1 0x20 DUP3 DUP5 SUB SLT ISZERO PUSH3 0x3DED JUMPI PUSH1 0x0 DUP1 REVERT JUMPDEST DUP2 CALLDATALOAD PUSH1 0x1 PUSH1 0x1 PUSH1 0xE0 SHL SUB NOT DUP2 AND DUP2 EQ PUSH3 0x3B89 JUMPI PUSH1 0x0 DUP1 REVERT JUMPDEST PUSH1 0x1 PUSH1 0x1 PUSH1 0xA0 SHL SUB SWAP2 SWAP1 SWAP2 AND DUP2 MSTORE PUSH1 0x20 ADD SWAP1 JUMP JUMPDEST PUSH1 0x1 PUSH1 0x1 PUSH1 0xA0 SHL SUB DUP2 AND DUP2 EQ PUSH3 0x140D JUMPI PUSH1 0x0 DUP1 REVERT JUMPDEST PUSH1 0x0 DUP1 PUSH1 0x40 DUP4 DUP6 SUB SLT ISZERO PUSH3 0x3E44 JUMPI PUSH1 0x0 DUP1 REVERT JUMPDEST DUP3 CALLDATALOAD PUSH3 0x3E51 DUP2 PUSH3 0x3E1A JUMP JUMPDEST SWAP2 POP PUSH1 0x20 DUP4 ADD CALLDATALOAD PUSH3 0x3E63 DUP2 PUSH3 0x3E1A JUMP JUMPDEST DUP1 SWAP2 POP POP SWAP3 POP SWAP3 SWAP1 POP JUMP JUMPDEST PUSH1 0x0 DUP1 PUSH1 0x40 DUP4 DUP6 SUB SLT ISZERO PUSH3 0x3E82 JUMPI PUSH1 0x0 DUP1 REVERT JUMPDEST DUP3 CALLDATALOAD PUSH3 0x3E8F DUP2 PUSH3 0x3E1A JUMP JUMPDEST SWAP5 PUSH1 0x20 SWAP4 SWAP1 SWAP4 ADD CALLDATALOAD SWAP4 POP POP POP JUMP JUMPDEST PUSH1 0x0 PUSH1 0x20 DUP3 DUP5 SUB SLT ISZERO PUSH3 0x3EB0 JUMPI PUSH1 0x0 DUP1 REVERT JUMPDEST DUP2 CALLDATALOAD PUSH3 0x3B89 DUP2 PUSH3 0x3E1A JUMP JUMPDEST PUSH1 0x0 PUSH1 0x20 DUP3 DUP5 SUB SLT ISZERO PUSH3 0x3ED0 JUMPI PUSH1 0x0 DUP1 REVERT JUMPDEST POP CALLDATALOAD SWAP2 SWAP1 POP JUMP JUMPDEST PUSH1 0x0 DUP1 PUSH1 0x40 DUP4 DUP6 SUB SLT ISZERO PUSH3 0x3EEB JUMPI PUSH1 0x0 DUP1 REVERT JUMPDEST DUP3 CALLDATALOAD SWAP2 POP PUSH1 0x20 DUP4 ADD CALLDATALOAD PUSH3 0x3E63 DUP2 PUSH3 0x3E1A JUMP JUMPDEST DUP1 ISZERO ISZERO DUP2 EQ PUSH3 0x140D JUMPI PUSH1 0x0 DUP1 REVERT JUMPDEST PUSH1 0x0 DUP1 PUSH1 0x40 DUP4 DUP6 SUB SLT ISZERO PUSH3 0x3F22 JUMPI PUSH1 0x0 DUP1 REVERT JUMPDEST DUP3 CALLDATALOAD PUSH3 0x3F2F DUP2 PUSH3 0x3E1A JUMP JUMPDEST SWAP2 POP PUSH1 0x20 DUP4 ADD CALLDATALOAD PUSH3 0x3E63 DUP2 PUSH3 0x3EFF JUMP JUMPDEST PUSH1 0x0 DUP1 PUSH1 0x0 DUP1 PUSH1 0x0 PUSH1 0xA0 DUP7 DUP9 SUB SLT ISZERO PUSH3 0x3F5A JUMPI PUSH1 0x0 DUP1 REVERT JUMPDEST DUP6 CALLDATALOAD PUSH3 0x3F67 DUP2 PUSH3 0x3E1A JUMP JUMPDEST SWAP5 POP PUSH1 0x20 DUP7 ADD CALLDATALOAD PUSH3 0x3F79 DUP2 PUSH3 0x3E1A JUMP JUMPDEST SWAP5 SWAP8 SWAP5 SWAP7 POP POP POP POP PUSH1 0x40 DUP4 ADD CALLDATALOAD SWAP3 PUSH1 0x60 DUP2 ADD CALLDATALOAD SWAP3 PUSH1 0x80 SWAP1 SWAP2 ADD CALLDATALOAD SWAP2 POP JUMP JUMPDEST PUSH1 0x0 DUP1 PUSH1 0x40 DUP4 DUP6 SUB SLT ISZERO PUSH3 0x3FAB JUMPI PUSH1 0x0 DUP1 REVERT JUMPDEST POP POP DUP1 CALLDATALOAD SWAP3 PUSH1 0x20 SWAP1 SWAP2 ADD CALLDATALOAD SWAP2 POP JUMP JUMPDEST PUSH1 0x0 JUMPDEST DUP4 DUP2 LT ISZERO PUSH3 0x3FD7 JUMPI DUP2 DUP2 ADD MLOAD DUP4 DUP3 ADD MSTORE PUSH1 0x20 ADD PUSH3 0x3FBD JUMP JUMPDEST POP POP PUSH1 0x0 SWAP2 ADD MSTORE JUMP JUMPDEST PUSH1 0x0 DUP2 MLOAD DUP1 DUP5 MSTORE PUSH3 0x3FFA DUP2 PUSH1 0x20 DUP7 ADD PUSH1 0x20 DUP7 ADD PUSH3 0x3FBA JUMP JUMPDEST PUSH1 0x1F ADD PUSH1 0x1F NOT AND SWAP3 SWAP1 SWAP3 ADD PUSH1 0x20 ADD SWAP3 SWAP2 POP POP JUMP JUMPDEST PUSH1 0x0 DUP2 MLOAD DUP1 DUP5 MSTORE PUSH1 0x20 DUP1 DUP6 ADD DUP1 DUP2 SWAP7 POP DUP4 PUSH1 0x5 SHL DUP2 ADD SWAP2 POP DUP3 DUP7 ADD PUSH1 0x0 JUMPDEST DUP6 DUP2 LT ISZERO PUSH3 0x40B1 JUMPI DUP3 DUP5 SUB DUP10 MSTORE DUP2 MLOAD DUP1 MLOAD PUSH1 0x1 PUSH1 0x1 PUSH1 0xA0 SHL SUB SWAP1 DUP2 AND DUP7 MSTORE DUP7 DUP3 ADD MLOAD AND DUP7 DUP7 ADD MSTORE PUSH1 0x40 DUP1 DUP3 ADD MLOAD SWAP1 DUP7 ADD MSTORE PUSH1 0x60 DUP1 DUP3 ADD MLOAD PUSH1 0xA0 DUP3 DUP9 ADD DUP2 SWAP1 MSTORE SWAP2 SWAP1 PUSH3 0x407C DUP4 DUP10 ADD DUP3 PUSH3 0x3FE0 JUMP JUMPDEST SWAP3 POP POP POP PUSH1 0x80 DUP1 DUP4 ADD MLOAD SWAP3 POP DUP7 DUP3 SUB DUP2 DUP9 ADD MSTORE POP PUSH3 0x409C DUP2 DUP4 PUSH3 0x3FE0 JUMP JUMPDEST SWAP11 DUP8 ADD SWAP11 SWAP6 POP POP POP SWAP1 DUP5 ADD SWAP1 PUSH1 0x1 ADD PUSH3 0x402C JUMP JUMPDEST POP SWAP2 SWAP8 SWAP7 POP POP POP POP POP POP POP JUMP JUMPDEST PUSH1 0x20 DUP2 MSTORE PUSH1 0x0 PUSH3 0x3B89 PUSH1 0x20 DUP4 ADD DUP5 PUSH3 0x400E JUMP JUMPDEST PUSH1 0x0 DUP1 DUP4 PUSH1 0x1F DUP5 ADD SLT PUSH3 0x40E6 JUMPI PUSH1 0x0 DUP1 REVERT JUMPDEST POP DUP2 CALLDATALOAD PUSH1 0x1 PUSH1 0x1 PUSH1 0x40 SHL SUB DUP2 GT ISZERO PUSH3 0x40FE JUMPI PUSH1 0x0 DUP1 REVERT JUMPDEST PUSH1 0x20 DUP4 ADD SWAP2 POP DUP4 PUSH1 0x20 DUP3 DUP6 ADD ADD GT ISZERO PUSH3 0x29E2 JUMPI PUSH1 0x0 DUP1 REVERT JUMPDEST PUSH1 0x0 DUP1 PUSH1 0x0 DUP1 PUSH1 0x0 PUSH1 0x60 DUP7 DUP9 SUB SLT ISZERO PUSH3 0x4130 JUMPI PUSH1 0x0 DUP1 REVERT JUMPDEST DUP6 CALLDATALOAD PUSH3 0x413D DUP2 PUSH3 0x3E1A JUMP JUMPDEST SWAP5 POP PUSH1 0x20 DUP7 ADD CALLDATALOAD PUSH1 0x1 PUSH1 0x1 PUSH1 0x40 SHL SUB DUP1 DUP3 GT ISZERO PUSH3 0x415A JUMPI PUSH1 0x0 DUP1 REVERT JUMPDEST PUSH3 0x4168 DUP10 DUP4 DUP11 ADD PUSH3 0x40D3 JUMP JUMPDEST SWAP1 SWAP7 POP SWAP5 POP PUSH1 0x40 DUP9 ADD CALLDATALOAD SWAP2 POP DUP1 DUP3 GT ISZERO PUSH3 0x4182 JUMPI PUSH1 0x0 DUP1 REVERT JUMPDEST POP PUSH3 0x4191 DUP9 DUP3 DUP10 ADD PUSH3 0x40D3 JUMP JUMPDEST SWAP7 SWAP10 SWAP6 SWAP9 POP SWAP4 SWAP7 POP SWAP3 SWAP5 SWAP4 SWAP3 POP POP POP JUMP JUMPDEST PUSH1 0x1 PUSH1 0x1 PUSH1 0xA0 SHL SUB DUP7 DUP2 AND DUP3 MSTORE DUP6 AND PUSH1 0x20 DUP3 ADD MSTORE PUSH1 0x40 DUP2 ADD DUP5 SWAP1 MSTORE PUSH1 0xA0 PUSH1 0x60 DUP3 ADD DUP2 SWAP1 MSTORE PUSH1 0x0 SWAP1 PUSH3 0x41D7 SWAP1 DUP4 ADD DUP6 PUSH3 0x3FE0 JUMP JUMPDEST DUP3 DUP2 SUB PUSH1 0x80 DUP5 ADD MSTORE PUSH3 0x41EB DUP2 DUP6 PUSH3 0x3FE0 JUMP JUMPDEST SWAP9 SWAP8 POP POP POP POP POP POP POP POP JUMP JUMPDEST PUSH1 0x0 DUP1 DUP4 PUSH1 0x1F DUP5 ADD SLT PUSH3 0x420A JUMPI PUSH1 0x0 DUP1 REVERT JUMPDEST POP DUP2 CALLDATALOAD PUSH1 0x1 PUSH1 0x1 PUSH1 0x40 SHL SUB DUP2 GT ISZERO PUSH3 0x4222 JUMPI PUSH1 0x0 DUP1 REVERT JUMPDEST PUSH1 0x20 DUP4 ADD SWAP2 POP DUP4 PUSH1 0x20 DUP3 PUSH1 0x5 SHL DUP6 ADD ADD GT ISZERO PUSH3 0x29E2 JUMPI PUSH1 0x0 DUP1 REVERT JUMPDEST PUSH1 0x0 DUP1 PUSH1 0x0 DUP1 PUSH1 0x0 PUSH1 0x80 DUP7 DUP9 SUB SLT ISZERO PUSH3 0x4257 JUMPI PUSH1 0x0 DUP1 REVERT JUMPDEST DUP6 CALLDATALOAD PUSH3 0x4264 DUP2 PUSH3 0x3E1A JUMP JUMPDEST SWAP5 POP PUSH1 0x20 DUP7 ADD CALLDATALOAD SWAP4 POP PUSH1 0x40 DUP7 ADD CALLDATALOAD PUSH3 0x427D DUP2 PUSH3 0x3E1A JUMP JUMPDEST SWAP3 POP PUSH1 0x60 DUP7 ADD CALLDATALOAD PUSH1 0x1 PUSH1 0x1 PUSH1 0x40 SHL SUB DUP2 GT ISZERO PUSH3 0x4299 JUMPI PUSH1 0x0 DUP1 REVERT JUMPDEST PUSH3 0x4191 DUP9 DUP3 DUP10 ADD PUSH3 0x41F7 JUMP JUMPDEST PUSH1 0x0 DUP1 PUSH1 0x0 PUSH1 0x60 DUP5 DUP7 SUB SLT ISZERO PUSH3 0x42BD JUMPI PUSH1 0x0 DUP1 REVERT JUMPDEST DUP4 CALLDATALOAD PUSH3 0x42CA DUP2 PUSH3 0x3E1A JUMP JUMPDEST SWAP3 POP PUSH1 0x20 DUP5 ADD CALLDATALOAD SWAP2 POP PUSH1 0x40 DUP5 ADD CALLDATALOAD PUSH3 0x42E3 DUP2 PUSH3 0x3E1A JUMP JUMPDEST DUP1 SWAP2 POP POP SWAP3 POP SWAP3 POP SWAP3 JUMP JUMPDEST PUSH1 0x0 DUP1 PUSH1 0x0 DUP1 PUSH1 0x40 DUP6 DUP8 SUB SLT ISZERO PUSH3 0x4305 JUMPI PUSH1 0x0 DUP1 REVERT JUMPDEST DUP5 CALLDATALOAD PUSH1 0x1 PUSH1 0x1 PUSH1 0x40 SHL SUB DUP1 DUP3 GT ISZERO PUSH3 0x431D JUMPI PUSH1 0x0 DUP1 REVERT JUMPDEST PUSH3 0x432B DUP9 DUP4 DUP10 ADD PUSH3 0x41F7 JUMP JUMPDEST SWAP1 SWAP7 POP SWAP5 POP PUSH1 0x20 DUP8 ADD CALLDATALOAD SWAP2 POP DUP1 DUP3 GT ISZERO PUSH3 0x4345 JUMPI PUSH1 0x0 DUP1 REVERT JUMPDEST POP PUSH3 0x4354 DUP8 DUP3 DUP9 ADD PUSH3 0x41F7 JUMP JUMPDEST SWAP6 SWAP9 SWAP5 SWAP8 POP SWAP6 POP POP POP POP JUMP JUMPDEST PUSH1 0x40 DUP2 MSTORE PUSH1 0x0 PUSH3 0x4375 PUSH1 0x40 DUP4 ADD DUP6 PUSH3 0x400E JUMP JUMPDEST SWAP1 POP DUP3 PUSH1 0x20 DUP4 ADD MSTORE SWAP4 SWAP3 POP POP POP JUMP JUMPDEST PUSH1 0x0 DUP1 PUSH1 0x20 DUP4 DUP6 SUB SLT ISZERO PUSH3 0x4398 JUMPI PUSH1 0x0 DUP1 REVERT JUMPDEST DUP3 CALLDATALOAD PUSH1 0x1 PUSH1 0x1 PUSH1 0x40 SHL SUB DUP2 GT ISZERO PUSH3 0x43AF JUMPI PUSH1 0x0 DUP1 REVERT JUMPDEST PUSH3 0x43BD DUP6 DUP3 DUP7 ADD PUSH3 0x41F7 JUMP JUMPDEST SWAP1 SWAP7 SWAP1 SWAP6 POP SWAP4 POP POP POP POP JUMP JUMPDEST PUSH1 0x20 DUP1 DUP3 MSTORE DUP3 MLOAD DUP3 DUP3 ADD DUP2 SWAP1 MSTORE PUSH1 0x0 SWAP2 SWAP1 DUP5 DUP3 ADD SWAP1 PUSH1 0x40 DUP6 ADD SWAP1 DUP5 JUMPDEST DUP2 DUP2 LT ISZERO PUSH3 0x4403 JUMPI DUP4 MLOAD DUP4 MSTORE SWAP3 DUP5 ADD SWAP3 SWAP2 DUP5 ADD SWAP2 PUSH1 0x1 ADD PUSH3 0x43E5 JUMP JUMPDEST POP SWAP1 SWAP7 SWAP6 POP POP POP POP POP POP JUMP JUMPDEST PUSH1 0x0 DUP1 PUSH1 0x0 DUP1 PUSH1 0x0 DUP1 PUSH1 0x0 DUP1 PUSH1 0x0 DUP1 PUSH1 0xC0 DUP12 DUP14 SUB SLT ISZERO PUSH3 0x442F JUMPI PUSH1 0x0 DUP1 REVERT JUMPDEST DUP11 CALLDATALOAD PUSH1 0x1 PUSH1 0x1 PUSH1 0x40 SHL SUB DUP1 DUP3 GT ISZERO PUSH3 0x4447 JUMPI PUSH1 0x0 DUP1 REVERT JUMPDEST PUSH3 0x4455 DUP15 DUP4 DUP16 ADD PUSH3 0x40D3 JUMP JUMPDEST SWAP1 SWAP13 POP SWAP11 POP PUSH1 0x20 DUP14 ADD CALLDATALOAD SWAP2 POP DUP1 DUP3 GT ISZERO PUSH3 0x446F JUMPI PUSH1 0x0 DUP1 REVERT JUMPDEST PUSH3 0x447D DUP15 DUP4 DUP16 ADD PUSH3 0x40D3 JUMP JUMPDEST SWAP1 SWAP11 POP SWAP9 POP PUSH1 0x40 DUP14 ADD CALLDATALOAD SWAP2 POP DUP1 DUP3 GT ISZERO PUSH3 0x4497 JUMPI PUSH1 0x0 DUP1 REVERT JUMPDEST PUSH3 0x44A5 DUP15 DUP4 DUP16 ADD PUSH3 0x40D3 JUMP JUMPDEST SWAP1 SWAP9 POP SWAP7 POP PUSH1 0x60 DUP14 ADD CALLDATALOAD SWAP6 POP PUSH1 0x80 DUP14 ADD CALLDATALOAD SWAP5 POP PUSH1 0xA0 DUP14 ADD CALLDATALOAD SWAP2 POP DUP1 DUP3 GT ISZERO PUSH3 0x44CD JUMPI PUSH1 0x0 DUP1 REVERT JUMPDEST POP PUSH3 0x44DC DUP14 DUP3 DUP15 ADD PUSH3 0x40D3 JUMP JUMPDEST SWAP2 POP DUP1 SWAP4 POP POP DUP1 SWAP2 POP POP SWAP3 SWAP6 SWAP9 SWAP12 SWAP2 SWAP5 SWAP8 SWAP11 POP SWAP3 SWAP6 SWAP9 POP JUMP JUMPDEST PUSH1 0x0 DUP1 PUSH1 0x0 PUSH1 0x40 DUP5 DUP7 SUB SLT ISZERO PUSH3 0x450B JUMPI PUSH1 0x0 DUP1 REVERT JUMPDEST DUP4 CALLDATALOAD PUSH3 0x4518 DUP2 PUSH3 0x3E1A JUMP JUMPDEST SWAP3 POP PUSH1 0x20 DUP5 ADD CALLDATALOAD PUSH1 0x1 PUSH1 0x1 PUSH1 0x40 SHL SUB DUP2 GT ISZERO PUSH3 0x4534 JUMPI PUSH1 0x0 DUP1 REVERT JUMPDEST PUSH3 0x4542 DUP7 DUP3 DUP8 ADD PUSH3 0x41F7 JUMP JUMPDEST SWAP5 SWAP8 SWAP1 SWAP7 POP SWAP4 SWAP5 POP POP POP POP JUMP JUMPDEST DUP1 CALLDATALOAD PUSH2 0xFFFF DUP2 AND DUP2 EQ PUSH3 0x4562 JUMPI PUSH1 0x0 DUP1 REVERT JUMPDEST SWAP2 SWAP1 POP JUMP JUMPDEST PUSH1 0x0 DUP1 PUSH1 0x40 DUP4 DUP6 SUB SLT ISZERO PUSH3 0x457B JUMPI PUSH1 0x0 DUP1 REVERT JUMPDEST PUSH3 0x4586 DUP4 PUSH3 0x454F JUMP JUMPDEST SWAP2 POP PUSH3 0x4596 PUSH1 0x20 DUP5 ADD PUSH3 0x454F JUMP JUMPDEST SWAP1 POP SWAP3 POP SWAP3 SWAP1 POP JUMP JUMPDEST PUSH1 0x1 PUSH1 0x1 PUSH1 0xA0 SHL SUB SWAP3 DUP4 AND DUP2 MSTORE SWAP2 AND PUSH1 0x20 DUP3 ADD MSTORE PUSH1 0x40 ADD SWAP1 JUMP JUMPDEST PUSH1 0x20 DUP1 DUP3 MSTORE PUSH1 0xB SWAP1 DUP3 ADD MSTORE PUSH11 0x139BDD13185D5B98DA1959 PUSH1 0xAA SHL PUSH1 0x40 DUP3 ADD MSTORE PUSH1 0x60 ADD SWAP1 JUMP JUMPDEST PUSH4 0x4E487B71 PUSH1 0xE0 SHL PUSH1 0x0 MSTORE PUSH1 0x11 PUSH1 0x4 MSTORE PUSH1 0x24 PUSH1 0x0 REVERT JUMPDEST DUP2 DUP2 SUB DUP2 DUP2 GT ISZERO PUSH3 0xCD1 JUMPI PUSH3 0xCD1 PUSH3 0x45DE JUMP JUMPDEST PUSH4 0x4E487B71 PUSH1 0xE0 SHL PUSH1 0x0 MSTORE PUSH1 0x32 PUSH1 0x4 MSTORE PUSH1 0x24 PUSH1 0x0 REVERT JUMPDEST PUSH1 0x20 DUP1 DUP3 MSTORE PUSH1 0xD SWAP1 DUP3 ADD MSTORE PUSH13 0x139BDD105D5D1A1BDC9A5E9959 PUSH1 0x9A SHL PUSH1 0x40 DUP3 ADD MSTORE PUSH1 0x60 ADD SWAP1 JUMP JUMPDEST PUSH1 0x20 DUP1 DUP3 MSTORE PUSH1 0x6 SWAP1 DUP3 ADD MSTORE PUSH6 0x4E6F46656573 PUSH1 0xD0 SHL PUSH1 0x40 DUP3 ADD MSTORE PUSH1 0x60 ADD SWAP1 JUMP JUMPDEST PUSH1 0x0 PUSH1 0x20 DUP3 DUP5 SUB SLT ISZERO PUSH3 0x467A JUMPI PUSH1 0x0 DUP1 REVERT JUMPDEST POP MLOAD SWAP2 SWAP1 POP JUMP JUMPDEST PUSH1 0x20 DUP1 DUP3 MSTORE PUSH1 0x9 SWAP1 DUP3 ADD MSTORE PUSH9 0x50726963655A65726F PUSH1 0xB8 SHL PUSH1 0x40 DUP3 ADD MSTORE PUSH1 0x60 ADD SWAP1 JUMP JUMPDEST DUP1 DUP3 ADD DUP1 DUP3 GT ISZERO PUSH3 0xCD1 JUMPI PUSH3 0xCD1 PUSH3 0x45DE JUMP JUMPDEST PUSH4 0x4E487B71 PUSH1 0xE0 SHL PUSH1 0x0 MSTORE PUSH1 0x41 PUSH1 0x4 MSTORE PUSH1 0x24 PUSH1 0x0 REVERT JUMPDEST PUSH1 0x1 DUP2 DUP2 SHR SWAP1 DUP3 AND DUP1 PUSH3 0x46E5 JUMPI PUSH1 0x7F DUP3 AND SWAP2 POP JUMPDEST PUSH1 0x20 DUP3 LT DUP2 SUB PUSH3 0x4706 JUMPI PUSH4 0x4E487B71 PUSH1 0xE0 SHL PUSH1 0x0 MSTORE PUSH1 0x22 PUSH1 0x4 MSTORE PUSH1 0x24 PUSH1 0x0 REVERT JUMPDEST POP SWAP2 SWAP1 POP JUMP JUMPDEST PUSH1 0x0 PUSH1 0x1 DUP3 ADD PUSH3 0x4721 JUMPI PUSH3 0x4721 PUSH3 0x45DE JUMP JUMPDEST POP PUSH1 0x1 ADD SWAP1 JUMP JUMPDEST PUSH1 0x1 PUSH1 0x1 PUSH1 0xA0 SHL SUB SWAP7 DUP8 AND DUP2 MSTORE PUSH1 0x20 DUP2 ADD SWAP6 SWAP1 SWAP6 MSTORE PUSH1 0x40 DUP6 ADD SWAP4 SWAP1 SWAP4 MSTORE PUSH1 0x60 DUP5 ADD SWAP2 SWAP1 SWAP2 MSTORE SWAP1 SWAP3 AND PUSH1 0x80 DUP3 ADD MSTORE PUSH1 0xA0 DUP2 ADD SWAP2 SWAP1 SWAP2 MSTORE PUSH1 0xC0 ADD SWAP1 JUMP JUMPDEST PUSH1 0x0 DUP1 PUSH1 0x0 PUSH1 0x60 DUP5 DUP7 SUB SLT ISZERO PUSH3 0x4779 JUMPI PUSH1 0x0 DUP1 REVERT JUMPDEST DUP4 MLOAD SWAP3 POP PUSH1 0x20 DUP5 ADD MLOAD SWAP2 POP PUSH1 0x40 DUP5 ADD MLOAD SWAP1 POP SWAP3 POP SWAP3 POP SWAP3 JUMP JUMPDEST PUSH1 0x1F DUP3 GT ISZERO PUSH3 0x1135 JUMPI PUSH1 0x0 DUP2 DUP2 MSTORE PUSH1 0x20 DUP2 KECCAK256 PUSH1 0x1F DUP6 ADD PUSH1 0x5 SHR DUP2 ADD PUSH1 0x20 DUP7 LT ISZERO PUSH3 0x47BB JUMPI POP DUP1 JUMPDEST PUSH1 0x1F DUP6 ADD PUSH1 0x5 SHR DUP3 ADD SWAP2 POP JUMPDEST DUP2 DUP2 LT ISZERO PUSH3 0x47DC JUMPI DUP3 DUP2 SSTORE PUSH1 0x1 ADD PUSH3 0x47C7 JUMP JUMPDEST POP POP POP POP POP POP JUMP JUMPDEST PUSH1 0x0 NOT PUSH1 0x3 DUP4 SWAP1 SHL SHR NOT AND PUSH1 0x1 SWAP2 SWAP1 SWAP2 SHL OR SWAP1 JUMP JUMPDEST PUSH1 0x1 PUSH1 0x1 PUSH1 0x40 SHL SUB DUP4 GT ISZERO PUSH3 0x4813 JUMPI PUSH3 0x4813 PUSH3 0x46BA JUMP JUMPDEST PUSH3 0x482B DUP4 PUSH3 0x4824 DUP4 SLOAD PUSH3 0x46D0 JUMP JUMPDEST DUP4 PUSH3 0x4792 JUMP JUMPDEST PUSH1 0x0 PUSH1 0x1F DUP5 GT PUSH1 0x1 DUP2 EQ PUSH3 0x485E JUMPI PUSH1 0x0 DUP6 ISZERO PUSH3 0x4849 JUMPI POP DUP4 DUP3 ADD CALLDATALOAD JUMPDEST PUSH3 0x4855 DUP7 DUP3 PUSH3 0x47E4 JUMP JUMPDEST DUP5 SSTORE POP PUSH3 0x1BEE JUMP JUMPDEST PUSH1 0x0 DUP4 DUP2 MSTORE PUSH1 0x20 SWAP1 KECCAK256 PUSH1 0x1F NOT DUP7 AND SWAP1 DUP4 JUMPDEST DUP3 DUP2 LT ISZERO PUSH3 0x4891 JUMPI DUP7 DUP6 ADD CALLDATALOAD DUP3 SSTORE PUSH1 0x20 SWAP5 DUP6 ADD SWAP5 PUSH1 0x1 SWAP1 SWAP3 ADD SWAP2 ADD PUSH3 0x486F JUMP JUMPDEST POP DUP7 DUP3 LT ISZERO PUSH3 0x48AF JUMPI PUSH1 0x0 NOT PUSH1 0xF8 DUP9 PUSH1 0x3 SHL AND SHR NOT DUP5 DUP8 ADD CALLDATALOAD AND DUP2 SSTORE JUMPDEST POP POP PUSH1 0x1 DUP6 PUSH1 0x1 SHL ADD DUP4 SSTORE POP POP POP POP POP JUMP JUMPDEST DUP2 DUP4 MSTORE DUP2 DUP2 PUSH1 0x20 DUP6 ADD CALLDATACOPY POP PUSH1 0x0 DUP3 DUP3 ADD PUSH1 0x20 SWAP1 DUP2 ADD SWAP2 SWAP1 SWAP2 MSTORE PUSH1 0x1F SWAP1 SWAP2 ADD PUSH1 0x1F NOT AND SWAP1 SWAP2 ADD ADD SWAP1 JUMP JUMPDEST PUSH1 0x40 DUP2 MSTORE PUSH1 0x0 PUSH3 0x4900 PUSH1 0x40 DUP4 ADD DUP7 DUP9 PUSH3 0x48C1 JUMP JUMPDEST DUP3 DUP2 SUB PUSH1 0x20 DUP5 ADD MSTORE PUSH3 0x3CB3 DUP2 DUP6 DUP8 PUSH3 0x48C1 JUMP JUMPDEST PUSH1 0x20 DUP1 DUP3 MSTORE PUSH1 0xE SWAP1 DUP3 ADD MSTORE PUSH14 0x139BDD15DA1A5D195B1A5CDD1959 PUSH1 0x92 SHL PUSH1 0x40 DUP3 ADD MSTORE PUSH1 0x60 ADD SWAP1 JUMP JUMPDEST DUP1 DUP3 MUL DUP2 ISZERO DUP3 DUP3 DIV DUP5 EQ OR PUSH3 0xCD1 JUMPI PUSH3 0xCD1 PUSH3 0x45DE JUMP JUMPDEST PUSH1 0x0 DUP3 PUSH3 0x4975 JUMPI PUSH4 0x4E487B71 PUSH1 0xE0 SHL PUSH1 0x0 MSTORE PUSH1 0x12 PUSH1 0x4 MSTORE PUSH1 0x24 PUSH1 0x0 REVERT JUMPDEST POP DIV SWAP1 JUMP JUMPDEST PUSH1 0x0 PUSH1 0x20 DUP3 DUP5 SUB SLT ISZERO PUSH3 0x498D JUMPI PUSH1 0x0 DUP1 REVERT JUMPDEST DUP2 MLOAD PUSH3 0x3B89 DUP2 PUSH3 0x3E1A JUMP JUMPDEST PUSH1 0x0 DUP1 PUSH1 0x40 DUP4 DUP6 SUB SLT ISZERO PUSH3 0x49AE JUMPI PUSH1 0x0 DUP1 REVERT JUMPDEST POP POP DUP1 MLOAD PUSH1 0x20 SWAP1 SWAP2 ADD MLOAD SWAP1 SWAP3 SWAP1 SWAP2 POP JUMP JUMPDEST PUSH1 0xA0 DUP2 MSTORE PUSH1 0x0 PUSH3 0x49D5 PUSH1 0xA0 DUP4 ADD DUP11 DUP13 PUSH3 0x48C1 JUMP JUMPDEST DUP3 DUP2 SUB PUSH1 0x20 DUP5 ADD MSTORE PUSH3 0x49EA DUP2 DUP10 DUP12 PUSH3 0x48C1 JUMP JUMPDEST PUSH1 0x40 DUP5 ADD DUP9 SWAP1 MSTORE PUSH1 0x1 PUSH1 0x1 PUSH1 0xA0 SHL SUB DUP8 AND PUSH1 0x60 DUP6 ADD MSTORE DUP4 DUP2 SUB PUSH1 0x80 DUP6 ADD MSTORE SWAP1 POP PUSH3 0x4A17 DUP2 DUP6 DUP8 PUSH3 0x48C1 JUMP JUMPDEST SWAP12 SWAP11 POP POP POP POP POP POP POP POP POP POP POP JUMP JUMPDEST DUP2 MLOAD PUSH1 0x1 PUSH1 0x1 PUSH1 0x40 SHL SUB DUP2 GT ISZERO PUSH3 0x4A42 JUMPI PUSH3 0x4A42 PUSH3 0x46BA JUMP JUMPDEST PUSH3 0x4A5A DUP2 PUSH3 0x4A53 DUP5 SLOAD PUSH3 0x46D0 JUMP JUMPDEST DUP5 PUSH3 0x4792 JUMP JUMPDEST PUSH1 0x20 DUP1 PUSH1 0x1F DUP4 GT PUSH1 0x1 DUP2 EQ PUSH3 0x4A8E JUMPI PUSH1 0x0 DUP5 ISZERO PUSH3 0x4A79 JUMPI POP DUP6 DUP4 ADD MLOAD JUMPDEST PUSH3 0x4A85 DUP6 DUP3 PUSH3 0x47E4 JUMP JUMPDEST DUP7 SSTORE POP PUSH3 0x47DC JUMP JUMPDEST PUSH1 0x0 DUP6 DUP2 MSTORE PUSH1 0x20 DUP2 KECCAK256 PUSH1 0x1F NOT DUP7 AND SWAP2 JUMPDEST DUP3 DUP2 LT ISZERO PUSH3 0x4ABF JUMPI DUP9 DUP7 ADD MLOAD DUP3 SSTORE SWAP5 DUP5 ADD SWAP5 PUSH1 0x1 SWAP1 SWAP2 ADD SWAP1 DUP5 ADD PUSH3 0x4A9E JUMP JUMPDEST POP DUP6 DUP3 LT ISZERO PUSH3 0x4ADE JUMPI DUP8 DUP6 ADD MLOAD PUSH1 0x0 NOT PUSH1 0x3 DUP9 SWAP1 SHL PUSH1 0xF8 AND SHR NOT AND DUP2 SSTORE JUMPDEST POP POP POP POP POP PUSH1 0x1 SWAP1 DUP2 SHL ADD SWAP1 SSTORE POP JUMP JUMPDEST DUP6 DUP2 MSTORE PUSH1 0x60 PUSH1 0x20 DUP3 ADD MSTORE PUSH1 0x0 PUSH3 0x4B0A PUSH1 0x60 DUP4 ADD DUP7 DUP9 PUSH3 0x48C1 JUMP JUMPDEST DUP3 DUP2 SUB PUSH1 0x40 DUP5 ADD MSTORE PUSH3 0x41EB DUP2 DUP6 DUP8 PUSH3 0x48C1 JUMP JUMPDEST PUSH2 0xFFFF DUP2 DUP2 AND DUP4 DUP3 AND ADD SWAP1 DUP1 DUP3 GT ISZERO PUSH3 0x2DB6 JUMPI PUSH3 0x2DB6 PUSH3 0x45DE JUMP JUMPDEST PUSH1 0x1 PUSH1 0x1 PUSH1 0xA0 SHL SUB SWAP3 SWAP1 SWAP3 AND DUP3 MSTORE PUSH1 0x20 DUP3 ADD MSTORE PUSH1 0x40 ADD SWAP1 JUMP JUMPDEST PUSH23 0x20B1B1B2B9B9A1B7B73A3937B61D1030B1B1B7BAB73A1 PUSH1 0x4D SHL DUP2 MSTORE PUSH1 0x0 DUP4 MLOAD PUSH3 0x4B8A DUP2 PUSH1 0x17 DUP6 ADD PUSH1 0x20 DUP9 ADD PUSH3 0x3FBA JUMP JUMPDEST PUSH17 0x1034B99036B4B9B9B4B733903937B6329 PUSH1 0x7D SHL PUSH1 0x17 SWAP2 DUP5 ADD SWAP2 DUP3 ADD MSTORE DUP4 MLOAD PUSH3 0x4BBD DUP2 PUSH1 0x28 DUP5 ADD PUSH1 0x20 DUP9 ADD PUSH3 0x3FBA JUMP JUMPDEST ADD PUSH1 0x28 ADD SWAP5 SWAP4 POP POP POP POP JUMP JUMPDEST PUSH1 0x20 DUP2 MSTORE PUSH1 0x0 PUSH3 0x3B89 PUSH1 0x20 DUP4 ADD DUP5 PUSH3 0x3FE0 JUMP JUMPDEST PUSH1 0x0 PUSH1 0x20 DUP3 DUP5 SUB SLT ISZERO PUSH3 0x4BF1 JUMPI PUSH1 0x0 DUP1 REVERT JUMPDEST DUP2 MLOAD PUSH3 0x3B89 DUP2 PUSH3 0x3EFF JUMP JUMPDEST PUSH1 0x0 DUP2 PUSH3 0x4C10 JUMPI PUSH3 0x4C10 PUSH3 0x45DE JUMP JUMPDEST POP PUSH1 0x0 NOT ADD SWAP1 JUMP JUMPDEST PUSH1 0x0 DUP3 MLOAD PUSH3 0x4C2C DUP2 DUP5 PUSH1 0x20 DUP8 ADD PUSH3 0x3FBA JUMP JUMPDEST SWAP2 SWAP1 SWAP2 ADD SWAP3 SWAP2 POP POP JUMP INVALID PUSH2 0x160 PUSH1 0x40 MSTORE CALLVALUE DUP1 ISZERO PUSH3 0x12 JUMPI PUSH1 0x0 DUP1 REVERT JUMPDEST POP PUSH1 0x40 MLOAD PUSH3 0x1C01 CODESIZE SUB DUP1 PUSH3 0x1C01 DUP4 CODECOPY DUP2 ADD PUSH1 0x40 DUP2 SWAP1 MSTORE PUSH3 0x35 SWAP2 PUSH3 0x526 JUMP JUMPDEST PUSH1 0x40 DUP1 MLOAD DUP1 DUP3 ADD SWAP1 SWAP2 MSTORE PUSH1 0x1 DUP2 MSTORE PUSH1 0x31 PUSH1 0xF8 SHL PUSH1 0x20 DUP3 ADD MSTORE DUP6 SWAP1 DUP2 SWAP1 DUP2 DUP8 PUSH1 0x3 PUSH3 0x61 DUP4 DUP3 PUSH3 0x671 JUMP JUMPDEST POP PUSH1 0x4 PUSH3 0x70 DUP3 DUP3 PUSH3 0x671 JUMP JUMPDEST POP PUSH3 0x82 SWAP2 POP DUP4 SWAP1 POP PUSH1 0x5 PUSH3 0x1E2 JUMP JUMPDEST PUSH2 0x120 MSTORE PUSH3 0x93 DUP2 PUSH1 0x6 PUSH3 0x1E2 JUMP JUMPDEST PUSH2 0x140 MSTORE DUP2 MLOAD PUSH1 0x20 DUP1 DUP5 ADD SWAP2 SWAP1 SWAP2 KECCAK256 PUSH1 0xE0 MSTORE DUP2 MLOAD SWAP1 DUP3 ADD KECCAK256 PUSH2 0x100 MSTORE CHAINID PUSH1 0xA0 MSTORE PUSH3 0x121 PUSH1 0xE0 MLOAD PUSH2 0x100 MLOAD PUSH1 0x40 DUP1 MLOAD PUSH32 0x8B73C3C69BB8FE3D512ECC4CF759CC79239F7B179B0FFACAA9A75D522B39400F PUSH1 0x20 DUP3 ADD MSTORE SWAP1 DUP2 ADD SWAP3 SWAP1 SWAP3 MSTORE PUSH1 0x60 DUP3 ADD MSTORE CHAINID PUSH1 0x80 DUP3 ADD MSTORE ADDRESS PUSH1 0xA0 DUP3 ADD MSTORE PUSH1 0x0 SWAP1 PUSH1 0xC0 ADD PUSH1 0x40 MLOAD PUSH1 0x20 DUP2 DUP4 SUB SUB DUP2 MSTORE SWAP1 PUSH1 0x40 MSTORE DUP1 MLOAD SWAP1 PUSH1 0x20 ADD KECCAK256 SWAP1 POP SWAP1 JUMP JUMPDEST PUSH1 0x80 MSTORE POP POP ADDRESS PUSH1 0xC0 MSTORE POP PUSH3 0x136 CALLER PUSH3 0x21B JUMP JUMPDEST PUSH1 0x1 PUSH1 0x1 PUSH1 0xA0 SHL SUB DUP3 AND PUSH3 0x15E JUMPI PUSH1 0x40 MLOAD PUSH4 0xD92E233D PUSH1 0xE0 SHL DUP2 MSTORE PUSH1 0x4 ADD PUSH1 0x40 MLOAD DUP1 SWAP2 SUB SWAP1 REVERT JUMPDEST PUSH1 0x3 DUP6 MLOAD LT DUP1 PUSH3 0x170 JUMPI POP PUSH1 0x3 DUP5 MLOAD LT JUMPDEST ISZERO PUSH3 0x18F JUMPI PUSH1 0x40 MLOAD PUSH4 0x94322419 PUSH1 0xE0 SHL DUP2 MSTORE PUSH1 0x4 ADD PUSH1 0x40 MLOAD DUP1 SWAP2 SUB SWAP1 REVERT JUMPDEST DUP3 PUSH1 0x0 SUB PUSH3 0x1B1 JUMPI PUSH1 0x40 MLOAD PUSH4 0xC16F3A93 PUSH1 0xE0 SHL DUP2 MSTORE PUSH1 0x4 ADD PUSH1 0x40 MLOAD DUP1 SWAP2 SUB SWAP1 REVERT JUMPDEST PUSH1 0xA PUSH3 0x1BF DUP3 DUP3 PUSH3 0x671 JUMP JUMPDEST POP PUSH3 0x1CC CALLER DUP5 PUSH3 0x26D JUMP JUMPDEST PUSH3 0x1D7 DUP3 PUSH3 0x334 JUMP JUMPDEST POP POP POP POP POP PUSH3 0x7B9 JUMP JUMPDEST PUSH1 0x0 PUSH1 0x20 DUP4 MLOAD LT ISZERO PUSH3 0x202 JUMPI PUSH3 0x1FA DUP4 PUSH3 0x3B3 JUMP JUMPDEST SWAP1 POP PUSH3 0x215 JUMP JUMPDEST DUP2 PUSH3 0x20F DUP5 DUP3 PUSH3 0x671 JUMP JUMPDEST POP PUSH1 0xFF SWAP1 POP JUMPDEST SWAP3 SWAP2 POP POP JUMP JUMPDEST PUSH1 0x9 DUP1 SLOAD PUSH1 0x1 PUSH1 0x1 PUSH1 0xA0 SHL SUB DUP4 DUP2 AND PUSH1 0x1 PUSH1 0x1 PUSH1 0xA0 SHL SUB NOT DUP4 AND DUP2 OR SWAP1 SWAP4 SSTORE PUSH1 0x40 MLOAD SWAP2 AND SWAP2 SWAP1 DUP3 SWAP1 PUSH32 0x8BE0079C531659141344CD1FD0A4F28419497F9722A3DAAFE3B4186F6B6457E0 SWAP1 PUSH1 0x0 SWAP1 LOG3 POP POP JUMP JUMPDEST PUSH1 0x1 PUSH1 0x1 PUSH1 0xA0 SHL SUB DUP3 AND PUSH3 0x2C9 JUMPI PUSH1 0x40 MLOAD PUSH3 0x461BCD PUSH1 0xE5 SHL DUP2 MSTORE PUSH1 0x20 PUSH1 0x4 DUP3 ADD MSTORE PUSH1 0x1F PUSH1 0x24 DUP3 ADD MSTORE PUSH32 0x45524332303A206D696E7420746F20746865207A65726F206164647265737300 PUSH1 0x44 DUP3 ADD MSTORE PUSH1 0x64 ADD JUMPDEST PUSH1 0x40 MLOAD DUP1 SWAP2 SUB SWAP1 REVERT JUMPDEST DUP1 PUSH1 0x2 PUSH1 0x0 DUP3 DUP3 SLOAD PUSH3 0x2DD SWAP2 SWAP1 PUSH3 0x73D JUMP JUMPDEST SWAP1 SWAP2 SSTORE POP POP PUSH1 0x1 PUSH1 0x1 PUSH1 0xA0 SHL SUB DUP3 AND PUSH1 0x0 DUP2 DUP2 MSTORE PUSH1 0x20 DUP2 DUP2 MSTORE PUSH1 0x40 DUP1 DUP4 KECCAK256 DUP1 SLOAD DUP7 ADD SWAP1 SSTORE MLOAD DUP5 DUP2 MSTORE PUSH32 0xDDF252AD1BE2C89B69C2B068FC378DAA952BA7F163C4A11628F55A4DF523B3EF SWAP2 ADD PUSH1 0x40 MLOAD DUP1 SWAP2 SUB SWAP1 LOG3 POP POP JUMP JUMPDEST PUSH3 0x33E PUSH3 0x3FB JUMP JUMPDEST PUSH1 0x1 PUSH1 0x1 PUSH1 0xA0 SHL SUB DUP2 AND PUSH3 0x3A5 JUMPI PUSH1 0x40 MLOAD PUSH3 0x461BCD PUSH1 0xE5 SHL DUP2 MSTORE PUSH1 0x20 PUSH1 0x4 DUP3 ADD MSTORE PUSH1 0x26 PUSH1 0x24 DUP3 ADD MSTORE PUSH32 0x4F776E61626C653A206E6577206F776E657220697320746865207A65726F2061 PUSH1 0x44 DUP3 ADD MSTORE PUSH6 0x646472657373 PUSH1 0xD0 SHL PUSH1 0x64 DUP3 ADD MSTORE PUSH1 0x84 ADD PUSH3 0x2C0 JUMP JUMPDEST PUSH3 0x3B0 DUP2 PUSH3 0x21B JUMP JUMPDEST POP JUMP JUMPDEST PUSH1 0x0 DUP1 DUP3 SWAP1 POP PUSH1 0x1F DUP2 MLOAD GT ISZERO PUSH3 0x3E1 JUMPI DUP3 PUSH1 0x40 MLOAD PUSH4 0x305A27A9 PUSH1 0xE0 SHL DUP2 MSTORE PUSH1 0x4 ADD PUSH3 0x2C0 SWAP2 SWAP1 PUSH3 0x75F JUMP JUMPDEST DUP1 MLOAD PUSH3 0x3EE DUP3 PUSH3 0x794 JUMP JUMPDEST OR SWAP4 SWAP3 POP POP POP JUMP JUMPDEST POP POP POP JUMP JUMPDEST PUSH1 0x9 SLOAD PUSH1 0x1 PUSH1 0x1 PUSH1 0xA0 SHL SUB AND CALLER EQ PUSH3 0x457 JUMPI PUSH1 0x40 MLOAD PUSH3 0x461BCD PUSH1 0xE5 SHL DUP2 MSTORE PUSH1 0x20 PUSH1 0x4 DUP3 ADD DUP2 SWAP1 MSTORE PUSH1 0x24 DUP3 ADD MSTORE PUSH32 0x4F776E61626C653A2063616C6C6572206973206E6F7420746865206F776E6572 PUSH1 0x44 DUP3 ADD MSTORE PUSH1 0x64 ADD PUSH3 0x2C0 JUMP JUMPDEST JUMP JUMPDEST PUSH4 0x4E487B71 PUSH1 0xE0 SHL PUSH1 0x0 MSTORE PUSH1 0x41 PUSH1 0x4 MSTORE PUSH1 0x24 PUSH1 0x0 REVERT JUMPDEST PUSH1 0x0 JUMPDEST DUP4 DUP2 LT ISZERO PUSH3 0x48C JUMPI DUP2 DUP2 ADD MLOAD DUP4 DUP3 ADD MSTORE PUSH1 0x20 ADD PUSH3 0x472 JUMP JUMPDEST POP POP PUSH1 0x0 SWAP2 ADD MSTORE JUMP JUMPDEST PUSH1 0x0 DUP3 PUSH1 0x1F DUP4 ADD SLT PUSH3 0x4A7 JUMPI PUSH1 0x0 DUP1 REVERT JUMPDEST DUP2 MLOAD PUSH1 0x1 PUSH1 0x1 PUSH1 0x40 SHL SUB DUP1 DUP3 GT ISZERO PUSH3 0x4C4 JUMPI PUSH3 0x4C4 PUSH3 0x459 JUMP JUMPDEST PUSH1 0x40 MLOAD PUSH1 0x1F DUP4 ADD PUSH1 0x1F NOT SWAP1 DUP2 AND PUSH1 0x3F ADD AND DUP2 ADD SWAP1 DUP3 DUP3 GT DUP2 DUP4 LT OR ISZERO PUSH3 0x4EF JUMPI PUSH3 0x4EF PUSH3 0x459 JUMP JUMPDEST DUP2 PUSH1 0x40 MSTORE DUP4 DUP2 MSTORE DUP7 PUSH1 0x20 DUP6 DUP9 ADD ADD GT ISZERO PUSH3 0x509 JUMPI PUSH1 0x0 DUP1 REVERT JUMPDEST PUSH3 0x51C DUP5 PUSH1 0x20 DUP4 ADD PUSH1 0x20 DUP10 ADD PUSH3 0x46F JUMP JUMPDEST SWAP7 SWAP6 POP POP POP POP POP POP JUMP JUMPDEST PUSH1 0x0 DUP1 PUSH1 0x0 DUP1 PUSH1 0x0 PUSH1 0xA0 DUP7 DUP9 SUB SLT ISZERO PUSH3 0x53F JUMPI PUSH1 0x0 DUP1 REVERT JUMPDEST DUP6 MLOAD PUSH1 0x1 PUSH1 0x1 PUSH1 0x40 SHL SUB DUP1 DUP3 GT ISZERO PUSH3 0x557 JUMPI PUSH1 0x0 DUP1 REVERT JUMPDEST PUSH3 0x565 DUP10 DUP4 DUP11 ADD PUSH3 0x495 JUMP JUMPDEST SWAP7 POP PUSH1 0x20 DUP9 ADD MLOAD SWAP2 POP DUP1 DUP3 GT ISZERO PUSH3 0x57C JUMPI PUSH1 0x0 DUP1 REVERT JUMPDEST PUSH3 0x58A DUP10 DUP4 DUP11 ADD PUSH3 0x495 JUMP JUMPDEST PUSH1 0x40 DUP10 ADD MLOAD PUSH1 0x60 DUP11 ADD MLOAD SWAP2 SWAP8 POP SWAP6 POP SWAP2 POP PUSH1 0x1 PUSH1 0x1 PUSH1 0xA0 SHL SUB DUP3 AND DUP3 EQ PUSH3 0x5B1 JUMPI PUSH1 0x0 DUP1 REVERT JUMPDEST PUSH1 0x80 DUP9 ADD MLOAD SWAP2 SWAP4 POP DUP1 DUP3 GT ISZERO PUSH3 0x5C7 JUMPI PUSH1 0x0 DUP1 REVERT JUMPDEST POP PUSH3 0x5D6 DUP9 DUP3 DUP10 ADD PUSH3 0x495 JUMP JUMPDEST SWAP2 POP POP SWAP3 SWAP6 POP SWAP3 SWAP6 SWAP1 SWAP4 POP JUMP JUMPDEST PUSH1 0x1 DUP2 DUP2 SHR SWAP1 DUP3 AND DUP1 PUSH3 0x5F8 JUMPI PUSH1 0x7F DUP3 AND SWAP2 POP JUMPDEST PUSH1 0x20 DUP3 LT DUP2 SUB PUSH3 0x619 JUMPI PUSH4 0x4E487B71 PUSH1 0xE0 SHL PUSH1 0x0 MSTORE PUSH1 0x22 PUSH1 0x4 MSTORE PUSH1 0x24 PUSH1 0x0 REVERT JUMPDEST POP SWAP2 SWAP1 POP JUMP JUMPDEST PUSH1 0x1F DUP3 GT ISZERO PUSH3 0x3F6 JUMPI PUSH1 0x0 DUP2 DUP2 MSTORE PUSH1 0x20 DUP2 KECCAK256 PUSH1 0x1F DUP6 ADD PUSH1 0x5 SHR DUP2 ADD PUSH1 0x20 DUP7 LT ISZERO PUSH3 0x648 JUMPI POP DUP1 JUMPDEST PUSH1 0x1F DUP6 ADD PUSH1 0x5 SHR DUP3 ADD SWAP2 POP JUMPDEST DUP2 DUP2 LT ISZERO PUSH3 0x669 JUMPI DUP3 DUP2 SSTORE PUSH1 0x1 ADD PUSH3 0x654 JUMP JUMPDEST POP POP POP POP POP POP JUMP JUMPDEST DUP2 MLOAD PUSH1 0x1 PUSH1 0x1 PUSH1 0x40 SHL SUB DUP2 GT ISZERO PUSH3 0x68D JUMPI PUSH3 0x68D PUSH3 0x459 JUMP JUMPDEST PUSH3 0x6A5 DUP2 PUSH3 0x69E DUP5 SLOAD PUSH3 0x5E3 JUMP JUMPDEST DUP5 PUSH3 0x61F JUMP JUMPDEST PUSH1 0x20 DUP1 PUSH1 0x1F DUP4 GT PUSH1 0x1 DUP2 EQ PUSH3 0x6DD JUMPI PUSH1 0x0 DUP5 ISZERO PUSH3 0x6C4 JUMPI POP DUP6 DUP4 ADD MLOAD JUMPDEST PUSH1 0x0 NOT PUSH1 0x3 DUP7 SWAP1 SHL SHR NOT AND PUSH1 0x1 DUP6 SWAP1 SHL OR DUP6 SSTORE PUSH3 0x669 JUMP JUMPDEST PUSH1 0x0 DUP6 DUP2 MSTORE PUSH1 0x20 DUP2 KECCAK256 PUSH1 0x1F NOT DUP7 AND SWAP2 JUMPDEST DUP3 DUP2 LT ISZERO PUSH3 0x70E JUMPI DUP9 DUP7 ADD MLOAD DUP3 SSTORE SWAP5 DUP5 ADD SWAP5 PUSH1 0x1 SWAP1 SWAP2 ADD SWAP1 DUP5 ADD PUSH3 0x6ED JUMP JUMPDEST POP DUP6 DUP3 LT ISZERO PUSH3 0x72D JUMPI DUP8 DUP6 ADD MLOAD PUSH1 0x0 NOT PUSH1 0x3 DUP9 SWAP1 SHL PUSH1 0xF8 AND SHR NOT AND DUP2 SSTORE JUMPDEST POP POP POP POP POP PUSH1 0x1 SWAP1 DUP2 SHL ADD SWAP1 SSTORE POP JUMP JUMPDEST DUP1 DUP3 ADD DUP1 DUP3 GT ISZERO PUSH3 0x215 JUMPI PUSH4 0x4E487B71 PUSH1 0xE0 SHL PUSH1 0x0 MSTORE PUSH1 0x11 PUSH1 0x4 MSTORE PUSH1 0x24 PUSH1 0x0 REVERT JUMPDEST PUSH1 0x20 DUP2 MSTORE PUSH1 0x0 DUP3 MLOAD DUP1 PUSH1 0x20 DUP5 ADD MSTORE PUSH3 0x780 DUP2 PUSH1 0x40 DUP6 ADD PUSH1 0x20 DUP8 ADD PUSH3 0x46F JUMP JUMPDEST PUSH1 0x1F ADD PUSH1 0x1F NOT AND SWAP2 SWAP1 SWAP2 ADD PUSH1 0x40 ADD SWAP3 SWAP2 POP POP JUMP JUMPDEST DUP1 MLOAD PUSH1 0x20 DUP1 DUP4 ADD MLOAD SWAP2 SWAP1 DUP2 LT ISZERO PUSH3 0x619 JUMPI PUSH1 0x0 NOT PUSH1 0x20 SWAP2 SWAP1 SWAP2 SUB PUSH1 0x3 SHL SHL AND SWAP2 SWAP1 POP JUMP JUMPDEST PUSH1 0x80 MLOAD PUSH1 0xA0 MLOAD PUSH1 0xC0 MLOAD PUSH1 0xE0 MLOAD PUSH2 0x100 MLOAD PUSH2 0x120 MLOAD PUSH2 0x140 MLOAD PUSH2 0x13ED PUSH3 0x814 PUSH1 0x0 CODECOPY PUSH1 0x0 PUSH2 0x41D ADD MSTORE PUSH1 0x0 PUSH2 0x3F2 ADD MSTORE PUSH1 0x0 PUSH2 0xBCB ADD MSTORE PUSH1 0x0 PUSH2 0xBA3 ADD MSTORE PUSH1 0x0 PUSH2 0xAFE ADD MSTORE PUSH1 0x0 PUSH2 0xB28 ADD MSTORE PUSH1 0x0 PUSH2 0xB52 ADD MSTORE PUSH2 0x13ED PUSH1 0x0 RETURN INVALID PUSH1 0x80 PUSH1 0x40 MSTORE CALLVALUE DUP1 ISZERO PUSH2 0x10 JUMPI PUSH1 0x0 DUP1 REVERT JUMPDEST POP PUSH1 0x4 CALLDATASIZE LT PUSH2 0xFC JUMPI PUSH1 0x0 CALLDATALOAD PUSH1 0xE0 SHR DUP1 PUSH4 0x6FDDE03 EQ PUSH2 0x101 JUMPI DUP1 PUSH4 0x95EA7B3 EQ PUSH2 0x11F JUMPI DUP1 PUSH4 0x18160DDD EQ PUSH2 0x142 JUMPI DUP1 PUSH4 0x23B872DD EQ PUSH2 0x154 JUMPI DUP1 PUSH4 0x313CE567 EQ PUSH2 0x167 JUMPI DUP1 PUSH4 0x3644E515 EQ PUSH2 0x176 JUMPI DUP1 PUSH4 0x39509351 EQ PUSH2 0x17E JUMPI DUP1 PUSH4 0x3C130D90 EQ PUSH2 0x191 JUMPI DUP1 PUSH4 0x70A08231 EQ PUSH2 0x199 JUMPI DUP1 PUSH4 0x715018A6 EQ PUSH2 0x1C2 JUMPI DUP1 PUSH4 0x7ECEBE00 EQ PUSH2 0x1CC JUMPI DUP1 PUSH4 0x84B0196E EQ PUSH2 0x1DF JUMPI DUP1 PUSH4 0x8DA5CB5B EQ PUSH2 0x1FA JUMPI DUP1 PUSH4 0x95D89B41 EQ PUSH2 0x21A JUMPI DUP1 PUSH4 0xA457C2D7 EQ PUSH2 0x222 JUMPI DUP1 PUSH4 0xA9059CBB EQ PUSH2 0x235 JUMPI DUP1 PUSH4 0xC623674F EQ PUSH2 0x248 JUMPI DUP1 PUSH4 0xD505ACCF EQ PUSH2 0x250 JUMPI DUP1 PUSH4 0xDD62ED3E EQ PUSH2 0x263 JUMPI DUP1 PUSH4 0xF2FDE38B EQ PUSH2 0x276 JUMPI JUMPDEST PUSH1 0x0 DUP1 REVERT JUMPDEST PUSH2 0x109 PUSH2 0x289 JUMP JUMPDEST PUSH1 0x40 MLOAD PUSH2 0x116 SWAP2 SWAP1 PUSH2 0x10A1 JUMP JUMPDEST PUSH1 0x40 MLOAD DUP1 SWAP2 SUB SWAP1 RETURN JUMPDEST PUSH2 0x132 PUSH2 0x12D CALLDATASIZE PUSH1 0x4 PUSH2 0x10D7 JUMP JUMPDEST PUSH2 0x31B JUMP JUMPDEST PUSH1 0x40 MLOAD SWAP1 ISZERO ISZERO DUP2 MSTORE PUSH1 0x20 ADD PUSH2 0x116 JUMP JUMPDEST PUSH1 0x2 SLOAD JUMPDEST PUSH1 0x40 MLOAD SWAP1 DUP2 MSTORE PUSH1 0x20 ADD PUSH2 0x116 JUMP JUMPDEST PUSH2 0x132 PUSH2 0x162 CALLDATASIZE PUSH1 0x4 PUSH2 0x1101 JUMP JUMPDEST PUSH2 0x335 JUMP JUMPDEST PUSH1 0x40 MLOAD PUSH1 0x12 DUP2 MSTORE PUSH1 0x20 ADD PUSH2 0x116 JUMP JUMPDEST PUSH2 0x146 PUSH2 0x359 JUMP JUMPDEST PUSH2 0x132 PUSH2 0x18C CALLDATASIZE PUSH1 0x4 PUSH2 0x10D7 JUMP JUMPDEST PUSH2 0x368 JUMP JUMPDEST PUSH2 0x109 PUSH2 0x38A JUMP JUMPDEST PUSH2 0x146 PUSH2 0x1A7 CALLDATASIZE PUSH1 0x4 PUSH2 0x113D JUMP JUMPDEST PUSH1 0x1 PUSH1 0x1 PUSH1 0xA0 SHL SUB AND PUSH1 0x0 SWAP1 DUP2 MSTORE PUSH1 0x20 DUP2 SWAP1 MSTORE PUSH1 0x40 SWAP1 KECCAK256 SLOAD SWAP1 JUMP JUMPDEST PUSH2 0x1CA PUSH2 0x3B2 JUMP JUMPDEST STOP JUMPDEST PUSH2 0x146 PUSH2 0x1DA CALLDATASIZE PUSH1 0x4 PUSH2 0x113D JUMP JUMPDEST PUSH2 0x3C6 JUMP JUMPDEST PUSH2 0x1E7 PUSH2 0x3E4 JUMP JUMPDEST PUSH1 0x40 MLOAD PUSH2 0x116 SWAP8 SWAP7 SWAP6 SWAP5 SWAP4 SWAP3 SWAP2 SWAP1 PUSH2 0x1158 JUMP JUMPDEST PUSH2 0x202 PUSH2 0x46D JUMP JUMPDEST PUSH1 0x40 MLOAD PUSH1 0x1 PUSH1 0x1 PUSH1 0xA0 SHL SUB SWAP1 SWAP2 AND DUP2 MSTORE PUSH1 0x20 ADD PUSH2 0x116 JUMP JUMPDEST PUSH2 0x109 PUSH2 0x47C JUMP JUMPDEST PUSH2 0x132 PUSH2 0x230 CALLDATASIZE PUSH1 0x4 PUSH2 0x10D7 JUMP JUMPDEST PUSH2 0x48B JUMP JUMPDEST PUSH2 0x132 PUSH2 0x243 CALLDATASIZE PUSH1 0x4 PUSH2 0x10D7 JUMP JUMPDEST PUSH2 0x50B JUMP JUMPDEST PUSH2 0x109 PUSH2 0x519 JUMP JUMPDEST PUSH2 0x1CA PUSH2 0x25E CALLDATASIZE PUSH1 0x4 PUSH2 0x11EE JUMP JUMPDEST PUSH2 0x5A7 JUMP JUMPDEST PUSH2 0x146 PUSH2 0x271 CALLDATASIZE PUSH1 0x4 PUSH2 0x1261 JUMP JUMPDEST PUSH2 0x70B JUMP JUMPDEST PUSH2 0x1CA PUSH2 0x284 CALLDATASIZE PUSH1 0x4 PUSH2 0x113D JUMP JUMPDEST PUSH2 0x736 JUMP JUMPDEST PUSH1 0x60 PUSH1 0x3 DUP1 SLOAD PUSH2 0x298 SWAP1 PUSH2 0x1294 JUMP JUMPDEST DUP1 PUSH1 0x1F ADD PUSH1 0x20 DUP1 SWAP2 DIV MUL PUSH1 0x20 ADD PUSH1 0x40 MLOAD SWAP1 DUP2 ADD PUSH1 0x40 MSTORE DUP1 SWAP3 SWAP2 SWAP1 DUP2 DUP2 MSTORE PUSH1 0x20 ADD DUP3 DUP1 SLOAD PUSH2 0x2C4 SWAP1 PUSH2 0x1294 JUMP JUMPDEST DUP1 ISZERO PUSH2 0x311 JUMPI DUP1 PUSH1 0x1F LT PUSH2 0x2E6 JUMPI PUSH2 0x100 DUP1 DUP4 SLOAD DIV MUL DUP4 MSTORE SWAP2 PUSH1 0x20 ADD SWAP2 PUSH2 0x311 JUMP JUMPDEST DUP3 ADD SWAP2 SWAP1 PUSH1 0x0 MSTORE PUSH1 0x20 PUSH1 0x0 KECCAK256 SWAP1 JUMPDEST DUP2 SLOAD DUP2 MSTORE SWAP1 PUSH1 0x1 ADD SWAP1 PUSH1 0x20 ADD DUP1 DUP4 GT PUSH2 0x2F4 JUMPI DUP3 SWAP1 SUB PUSH1 0x1F AND DUP3 ADD SWAP2 JUMPDEST POP POP POP POP POP SWAP1 POP SWAP1 JUMP JUMPDEST PUSH1 0x0 CALLER PUSH2 0x329 DUP2 DUP6 DUP6 PUSH2 0x7AF JUMP JUMPDEST PUSH1 0x1 SWAP2 POP POP JUMPDEST SWAP3 SWAP2 POP POP JUMP JUMPDEST PUSH1 0x0 CALLER PUSH2 0x343 DUP6 DUP3 DUP6 PUSH2 0x8D3 JUMP JUMPDEST PUSH2 0x34E DUP6 DUP6 DUP6 PUSH2 0x94D JUMP JUMPDEST POP PUSH1 0x1 SWAP5 SWAP4 POP POP POP POP JUMP JUMPDEST PUSH1 0x0 PUSH2 0x363 PUSH2 0xAF1 JUMP JUMPDEST SWAP1 POP SWAP1 JUMP JUMPDEST PUSH1 0x0 CALLER PUSH2 0x329 DUP2 DUP6 DUP6 PUSH2 0x37B DUP4 DUP4 PUSH2 0x70B JUMP JUMPDEST PUSH2 0x385 SWAP2 SWAP1 PUSH2 0x12C8 JUMP JUMPDEST PUSH2 0x7AF JUMP JUMPDEST PUSH1 0x60 PUSH1 0xA PUSH1 0x40 MLOAD PUSH1 0x20 ADD PUSH2 0x39E SWAP2 SWAP1 PUSH2 0x12E9 JUMP JUMPDEST PUSH1 0x40 MLOAD PUSH1 0x20 DUP2 DUP4 SUB SUB DUP2 MSTORE SWAP1 PUSH1 0x40 MSTORE SWAP1 POP SWAP1 JUMP JUMPDEST PUSH2 0x3BA PUSH2 0xC1C JUMP JUMPDEST PUSH2 0x3C4 PUSH1 0x0 PUSH2 0xC7B JUMP JUMPDEST JUMP JUMPDEST PUSH1 0x1 PUSH1 0x1 PUSH1 0xA0 SHL SUB DUP2 AND PUSH1 0x0 SWAP1 DUP2 MSTORE PUSH1 0x7 PUSH1 0x20 MSTORE PUSH1 0x40 DUP2 KECCAK256 SLOAD PUSH2 0x32F JUMP JUMPDEST PUSH1 0x0 PUSH1 0x60 DUP1 DUP3 DUP1 DUP1 DUP4 PUSH2 0x418 PUSH32 0x0 PUSH1 0x5 PUSH2 0xCCD JUMP JUMPDEST PUSH2 0x443 PUSH32 0x0 PUSH1 0x6 PUSH2 0xCCD JUMP JUMPDEST PUSH1 0x40 DUP1 MLOAD PUSH1 0x0 DUP1 DUP3 MSTORE PUSH1 0x20 DUP3 ADD SWAP1 SWAP3 MSTORE PUSH1 0xF PUSH1 0xF8 SHL SWAP12 SWAP4 SWAP11 POP SWAP2 SWAP9 POP CHAINID SWAP8 POP ADDRESS SWAP7 POP SWAP5 POP SWAP3 POP SWAP1 POP JUMP JUMPDEST PUSH1 0x9 SLOAD PUSH1 0x1 PUSH1 0x1 PUSH1 0xA0 SHL SUB AND SWAP1 JUMP JUMPDEST PUSH1 0x60 PUSH1 0x4 DUP1 SLOAD PUSH2 0x298 SWAP1 PUSH2 0x1294 JUMP JUMPDEST PUSH1 0x0 CALLER DUP2 PUSH2 0x499 DUP3 DUP7 PUSH2 0x70B JUMP JUMPDEST SWAP1 POP DUP4 DUP2 LT ISZERO PUSH2 0x4FE JUMPI PUSH1 0x40 MLOAD PUSH3 0x461BCD PUSH1 0xE5 SHL DUP2 MSTORE PUSH1 0x20 PUSH1 0x4 DUP3 ADD MSTORE PUSH1 0x25 PUSH1 0x24 DUP3 ADD MSTORE PUSH32 0x45524332303A2064656372656173656420616C6C6F77616E63652062656C6F77 PUSH1 0x44 DUP3 ADD MSTORE PUSH5 0x207A65726F PUSH1 0xD8 SHL PUSH1 0x64 DUP3 ADD MSTORE PUSH1 0x84 ADD JUMPDEST PUSH1 0x40 MLOAD DUP1 SWAP2 SUB SWAP1 REVERT JUMPDEST PUSH2 0x34E DUP3 DUP7 DUP7 DUP5 SUB PUSH2 0x7AF JUMP JUMPDEST PUSH1 0x0 CALLER PUSH2 0x329 DUP2 DUP6 DUP6 PUSH2 0x94D JUMP JUMPDEST PUSH1 0xA DUP1 SLOAD PUSH2 0x526 SWAP1 PUSH2 0x1294 JUMP JUMPDEST DUP1 PUSH1 0x1F ADD PUSH1 0x20 DUP1 SWAP2 DIV MUL PUSH1 0x20 ADD PUSH1 0x40 MLOAD SWAP1 DUP2 ADD PUSH1 0x40 MSTORE DUP1 SWAP3 SWAP2 SWAP1 DUP2 DUP2 MSTORE PUSH1 0x20 ADD DUP3 DUP1 SLOAD PUSH2 0x552 SWAP1 PUSH2 0x1294 JUMP JUMPDEST DUP1 ISZERO PUSH2 0x59F JUMPI DUP1 PUSH1 0x1F LT PUSH2 0x574 JUMPI PUSH2 0x100 DUP1 DUP4 SLOAD DIV MUL DUP4 MSTORE SWAP2 PUSH1 0x20 ADD SWAP2 PUSH2 0x59F JUMP JUMPDEST DUP3 ADD SWAP2 SWAP1 PUSH1 0x0 MSTORE PUSH1 0x20 PUSH1 0x0 KECCAK256 SWAP1 JUMPDEST DUP2 SLOAD DUP2 MSTORE SWAP1 PUSH1 0x1 ADD SWAP1 PUSH1 0x20 ADD DUP1 DUP4 GT PUSH2 0x582 JUMPI DUP3 SWAP1 SUB PUSH1 0x1F AND DUP3 ADD SWAP2 JUMPDEST POP POP POP POP POP DUP2 JUMP JUMPDEST DUP4 TIMESTAMP GT ISZERO PUSH2 0x5F7 JUMPI PUSH1 0x40 MLOAD PUSH3 0x461BCD PUSH1 0xE5 SHL DUP2 MSTORE PUSH1 0x20 PUSH1 0x4 DUP3 ADD MSTORE PUSH1 0x1D PUSH1 0x24 DUP3 ADD MSTORE PUSH32 0x45524332305065726D69743A206578706972656420646561646C696E65000000 PUSH1 0x44 DUP3 ADD MSTORE PUSH1 0x64 ADD PUSH2 0x4F5 JUMP JUMPDEST PUSH1 0x0 PUSH32 0x6E71EDAE12B1B97F4D1F60370FEF10105FA2FAAE0126114A169C64845D6126C9 DUP9 DUP9 DUP9 PUSH2 0x626 DUP13 PUSH2 0xD78 JUMP JUMPDEST PUSH1 0x40 DUP1 MLOAD PUSH1 0x20 DUP2 ADD SWAP7 SWAP1 SWAP7 MSTORE PUSH1 0x1 PUSH1 0x1 PUSH1 0xA0 SHL SUB SWAP5 DUP6 AND SWAP1 DUP7 ADD MSTORE SWAP3 SWAP1 SWAP2 AND PUSH1 0x60 DUP5 ADD MSTORE PUSH1 0x80 DUP4 ADD MSTORE PUSH1 0xA0 DUP3 ADD MSTORE PUSH1 0xC0 DUP2 ADD DUP7 SWAP1 MSTORE PUSH1 0xE0 ADD PUSH1 0x40 MLOAD PUSH1 0x20 DUP2 DUP4 SUB SUB DUP2 MSTORE SWAP1 PUSH1 0x40 MSTORE DUP1 MLOAD SWAP1 PUSH1 0x20 ADD KECCAK256 SWAP1 POP PUSH1 0x0 PUSH2 0x681 DUP3 PUSH2 0xDA0 JUMP JUMPDEST SWAP1 POP PUSH1 0x0 PUSH2 0x691 DUP3 DUP8 DUP8 DUP8 PUSH2 0xDCD JUMP JUMPDEST SWAP1 POP DUP10 PUSH1 0x1 PUSH1 0x1 PUSH1 0xA0 SHL SUB AND DUP2 PUSH1 0x1 PUSH1 0x1 PUSH1 0xA0 SHL SUB AND EQ PUSH2 0x6F4 JUMPI PUSH1 0x40 MLOAD PUSH3 0x461BCD PUSH1 0xE5 SHL DUP2 MSTORE PUSH1 0x20 PUSH1 0x4 DUP3 ADD MSTORE PUSH1 0x1E PUSH1 0x24 DUP3 ADD MSTORE PUSH32 0x45524332305065726D69743A20696E76616C6964207369676E61747572650000 PUSH1 0x44 DUP3 ADD MSTORE PUSH1 0x64 ADD PUSH2 0x4F5 JUMP JUMPDEST PUSH2 0x6FF DUP11 DUP11 DUP11 PUSH2 0x7AF JUMP JUMPDEST POP POP POP POP POP POP POP POP POP POP JUMP JUMPDEST PUSH1 0x1 PUSH1 0x1 PUSH1 0xA0 SHL SUB SWAP2 DUP3 AND PUSH1 0x0 SWAP1 DUP2 MSTORE PUSH1 0x1 PUSH1 0x20 SWAP1 DUP2 MSTORE PUSH1 0x40 DUP1 DUP4 KECCAK256 SWAP4 SWAP1 SWAP5 AND DUP3 MSTORE SWAP2 SWAP1 SWAP2 MSTORE KECCAK256 SLOAD SWAP1 JUMP JUMPDEST PUSH2 0x73E PUSH2 0xC1C JUMP JUMPDEST PUSH1 0x1 PUSH1 0x1 PUSH1 0xA0 SHL SUB DUP2 AND PUSH2 0x7A3 JUMPI PUSH1 0x40 MLOAD PUSH3 0x461BCD PUSH1 0xE5 SHL DUP2 MSTORE PUSH1 0x20 PUSH1 0x4 DUP3 ADD MSTORE PUSH1 0x26 PUSH1 0x24 DUP3 ADD MSTORE PUSH32 0x4F776E61626C653A206E6577206F776E657220697320746865207A65726F2061 PUSH1 0x44 DUP3 ADD MSTORE PUSH6 0x646472657373 PUSH1 0xD0 SHL PUSH1 0x64 DUP3 ADD MSTORE PUSH1 0x84 ADD PUSH2 0x4F5 JUMP JUMPDEST PUSH2 0x7AC DUP2 PUSH2 0xC7B JUMP JUMPDEST POP JUMP JUMPDEST PUSH1 0x1 PUSH1 0x1 PUSH1 0xA0 SHL SUB DUP4 AND PUSH2 0x811 JUMPI PUSH1 0x40 MLOAD PUSH3 0x461BCD PUSH1 0xE5 SHL DUP2 MSTORE PUSH1 0x20 PUSH1 0x4 DUP3 ADD MSTORE PUSH1 0x24 DUP1 DUP3 ADD MSTORE PUSH32 0x45524332303A20617070726F76652066726F6D20746865207A65726F20616464 PUSH1 0x44 DUP3 ADD MSTORE PUSH4 0x72657373 PUSH1 0xE0 SHL PUSH1 0x64 DUP3 ADD MSTORE PUSH1 0x84 ADD PUSH2 0x4F5 JUMP JUMPDEST PUSH1 0x1 PUSH1 0x1 PUSH1 0xA0 SHL SUB DUP3 AND PUSH2 0x872 JUMPI PUSH1 0x40 MLOAD PUSH3 0x461BCD PUSH1 0xE5 SHL DUP2 MSTORE PUSH1 0x20 PUSH1 0x4 DUP3 ADD MSTORE PUSH1 0x22 PUSH1 0x24 DUP3 ADD MSTORE PUSH32 0x45524332303A20617070726F766520746F20746865207A65726F206164647265 PUSH1 0x44 DUP3 ADD MSTORE PUSH2 0x7373 PUSH1 0xF0 SHL PUSH1 0x64 DUP3 ADD MSTORE PUSH1 0x84 ADD PUSH2 0x4F5 JUMP JUMPDEST PUSH1 0x1 PUSH1 0x1 PUSH1 0xA0 SHL SUB DUP4 DUP2 AND PUSH1 0x0 DUP2 DUP2 MSTORE PUSH1 0x1 PUSH1 0x20 SWAP1 DUP2 MSTORE PUSH1 0x40 DUP1 DUP4 KECCAK256 SWAP5 DUP8 AND DUP1 DUP5 MSTORE SWAP5 DUP3 MSTORE SWAP2 DUP3 SWAP1 KECCAK256 DUP6 SWAP1 SSTORE SWAP1 MLOAD DUP5 DUP2 MSTORE PUSH32 0x8C5BE1E5EBEC7D5BD14F71427D1E84F3DD0314C0F7B2291E5B200AC8C7C3B925 SWAP2 ADD PUSH1 0x40 MLOAD DUP1 SWAP2 SUB SWAP1 LOG3 POP POP POP JUMP JUMPDEST PUSH1 0x0 PUSH2 0x8DF DUP5 DUP5 PUSH2 0x70B JUMP JUMPDEST SWAP1 POP PUSH1 0x0 NOT DUP2 EQ PUSH2 0x947 JUMPI DUP2 DUP2 LT ISZERO PUSH2 0x93A JUMPI PUSH1 0x40 MLOAD PUSH3 0x461BCD PUSH1 0xE5 SHL DUP2 MSTORE PUSH1 0x20 PUSH1 0x4 DUP3 ADD MSTORE PUSH1 0x1D PUSH1 0x24 DUP3 ADD MSTORE PUSH32 0x45524332303A20696E73756666696369656E7420616C6C6F77616E6365000000 PUSH1 0x44 DUP3 ADD MSTORE PUSH1 0x64 ADD PUSH2 0x4F5 JUMP JUMPDEST PUSH2 0x947 DUP5 DUP5 DUP5 DUP5 SUB PUSH2 0x7AF JUMP JUMPDEST POP POP POP POP JUMP JUMPDEST PUSH1 0x1 PUSH1 0x1 PUSH1 0xA0 SHL SUB DUP4 AND PUSH2 0x9B1 JUMPI PUSH1 0x40 MLOAD PUSH3 0x461BCD PUSH1 0xE5 SHL DUP2 MSTORE PUSH1 0x20 PUSH1 0x4 DUP3 ADD MSTORE PUSH1 0x25 PUSH1 0x24 DUP3 ADD MSTORE PUSH32 0x45524332303A207472616E736665722066726F6D20746865207A65726F206164 PUSH1 0x44 DUP3 ADD MSTORE PUSH5 0x6472657373 PUSH1 0xD8 SHL PUSH1 0x64 DUP3 ADD MSTORE PUSH1 0x84 ADD PUSH2 0x4F5 JUMP JUMPDEST PUSH1 0x1 PUSH1 0x1 PUSH1 0xA0 SHL SUB DUP3 AND PUSH2 0xA13 JUMPI PUSH1 0x40 MLOAD PUSH3 0x461BCD PUSH1 0xE5 SHL DUP2 MSTORE PUSH1 0x20 PUSH1 0x4 DUP3 ADD MSTORE PUSH1 0x23 PUSH1 0x24 DUP3 ADD MSTORE PUSH32 0x45524332303A207472616E7366657220746F20746865207A65726F2061646472 PUSH1 0x44 DUP3 ADD MSTORE PUSH3 0x657373 PUSH1 0xE8 SHL PUSH1 0x64 DUP3 ADD MSTORE PUSH1 0x84 ADD PUSH2 0x4F5 JUMP JUMPDEST PUSH1 0x1 PUSH1 0x1 PUSH1 0xA0 SHL SUB DUP4 AND PUSH1 0x0 SWAP1 DUP2 MSTORE PUSH1 0x20 DUP2 SWAP1 MSTORE PUSH1 0x40 SWAP1 KECCAK256 SLOAD DUP2 DUP2 LT ISZERO PUSH2 0xA8B JUMPI PUSH1 0x40 MLOAD PUSH3 0x461BCD PUSH1 0xE5 SHL DUP2 MSTORE PUSH1 0x20 PUSH1 0x4 DUP3 ADD MSTORE PUSH1 0x26 PUSH1 0x24 DUP3 ADD MSTORE PUSH32 0x45524332303A207472616E7366657220616D6F756E7420657863656564732062 PUSH1 0x44 DUP3 ADD MSTORE PUSH6 0x616C616E6365 PUSH1 0xD0 SHL PUSH1 0x64 DUP3 ADD MSTORE PUSH1 0x84 ADD PUSH2 0x4F5 JUMP JUMPDEST PUSH1 0x1 PUSH1 0x1 PUSH1 0xA0 SHL SUB DUP5 DUP2 AND PUSH1 0x0 DUP2 DUP2 MSTORE PUSH1 0x20 DUP2 DUP2 MSTORE PUSH1 0x40 DUP1 DUP4 KECCAK256 DUP8 DUP8 SUB SWAP1 SSTORE SWAP4 DUP8 AND DUP1 DUP4 MSTORE SWAP2 DUP5 SWAP1 KECCAK256 DUP1 SLOAD DUP8 ADD SWAP1 SSTORE SWAP3 MLOAD DUP6 DUP2 MSTORE SWAP1 SWAP3 PUSH32 0xDDF252AD1BE2C89B69C2B068FC378DAA952BA7F163C4A11628F55A4DF523B3EF SWAP2 ADD PUSH1 0x40 MLOAD DUP1 SWAP2 SUB SWAP1 LOG3 PUSH2 0x947 JUMP JUMPDEST PUSH1 0x0 ADDRESS PUSH1 0x1 PUSH1 0x1 PUSH1 0xA0 SHL SUB PUSH32 0x0 AND EQ DUP1 ISZERO PUSH2 0xB4A JUMPI POP PUSH32 0x0 CHAINID EQ JUMPDEST ISZERO PUSH2 0xB74 JUMPI POP PUSH32 0x0 SWAP1 JUMP JUMPDEST PUSH2 0x363 PUSH1 0x40 DUP1 MLOAD PUSH32 0x8B73C3C69BB8FE3D512ECC4CF759CC79239F7B179B0FFACAA9A75D522B39400F PUSH1 0x20 DUP3 ADD MSTORE PUSH32 0x0 SWAP2 DUP2 ADD SWAP2 SWAP1 SWAP2 MSTORE PUSH32 0x0 PUSH1 0x60 DUP3 ADD MSTORE CHAINID PUSH1 0x80 DUP3 ADD MSTORE ADDRESS PUSH1 0xA0 DUP3 ADD MSTORE PUSH1 0x0 SWAP1 PUSH1 0xC0 ADD PUSH1 0x40 MLOAD PUSH1 0x20 DUP2 DUP4 SUB SUB DUP2 MSTORE SWAP1 PUSH1 0x40 MSTORE DUP1 MLOAD SWAP1 PUSH1 0x20 ADD KECCAK256 SWAP1 POP SWAP1 JUMP JUMPDEST CALLER PUSH2 0xC25 PUSH2 0x46D JUMP JUMPDEST PUSH1 0x1 PUSH1 0x1 PUSH1 0xA0 SHL SUB AND EQ PUSH2 0x3C4 JUMPI PUSH1 0x40 MLOAD PUSH3 0x461BCD PUSH1 0xE5 SHL DUP2 MSTORE PUSH1 0x20 PUSH1 0x4 DUP3 ADD DUP2 SWAP1 MSTORE PUSH1 0x24 DUP3 ADD MSTORE PUSH32 0x4F776E61626C653A2063616C6C6572206973206E6F7420746865206F776E6572 PUSH1 0x44 DUP3 ADD MSTORE PUSH1 0x64 ADD PUSH2 0x4F5 JUMP JUMPDEST PUSH1 0x9 DUP1 SLOAD PUSH1 0x1 PUSH1 0x1 PUSH1 0xA0 SHL SUB DUP4 DUP2 AND PUSH1 0x1 PUSH1 0x1 PUSH1 0xA0 SHL SUB NOT DUP4 AND DUP2 OR SWAP1 SWAP4 SSTORE PUSH1 0x40 MLOAD SWAP2 AND SWAP2 SWAP1 DUP3 SWAP1 PUSH32 0x8BE0079C531659141344CD1FD0A4F28419497F9722A3DAAFE3B4186F6B6457E0 SWAP1 PUSH1 0x0 SWAP1 LOG3 POP POP JUMP JUMPDEST PUSH1 0x60 PUSH1 0xFF DUP4 EQ PUSH2 0xCE7 JUMPI PUSH2 0xCE0 DUP4 PUSH2 0xDF5 JUMP JUMPDEST SWAP1 POP PUSH2 0x32F JUMP JUMPDEST DUP2 DUP1 SLOAD PUSH2 0xCF3 SWAP1 PUSH2 0x1294 JUMP JUMPDEST DUP1 PUSH1 0x1F ADD PUSH1 0x20 DUP1 SWAP2 DIV MUL PUSH1 0x20 ADD PUSH1 0x40 MLOAD SWAP1 DUP2 ADD PUSH1 0x40 MSTORE DUP1 SWAP3 SWAP2 SWAP1 DUP2 DUP2 MSTORE PUSH1 0x20 ADD DUP3 DUP1 SLOAD PUSH2 0xD1F SWAP1 PUSH2 0x1294 JUMP JUMPDEST DUP1 ISZERO PUSH2 0xD6C JUMPI DUP1 PUSH1 0x1F LT PUSH2 0xD41 JUMPI PUSH2 0x100 DUP1 DUP4 SLOAD DIV MUL DUP4 MSTORE SWAP2 PUSH1 0x20 ADD SWAP2 PUSH2 0xD6C JUMP JUMPDEST DUP3 ADD SWAP2 SWAP1 PUSH1 0x0 MSTORE PUSH1 0x20 PUSH1 0x0 KECCAK256 SWAP1 JUMPDEST DUP2 SLOAD DUP2 MSTORE SWAP1 PUSH1 0x1 ADD SWAP1 PUSH1 0x20 ADD DUP1 DUP4 GT PUSH2 0xD4F JUMPI DUP3 SWAP1 SUB PUSH1 0x1F AND DUP3 ADD SWAP2 JUMPDEST POP POP POP POP POP SWAP1 POP PUSH2 0x32F JUMP JUMPDEST PUSH1 0x1 PUSH1 0x1 PUSH1 0xA0 SHL SUB DUP2 AND PUSH1 0x0 SWAP1 DUP2 MSTORE PUSH1 0x7 PUSH1 0x20 MSTORE PUSH1 0x40 SWAP1 KECCAK256 DUP1 SLOAD PUSH1 0x1 DUP2 ADD DUP3 SSTORE SWAP1 JUMPDEST POP SWAP2 SWAP1 POP JUMP JUMPDEST PUSH1 0x0 PUSH2 0x32F PUSH2 0xDAD PUSH2 0xAF1 JUMP JUMPDEST DUP4 PUSH1 0x40 MLOAD PUSH2 0x1901 PUSH1 0xF0 SHL DUP2 MSTORE PUSH1 0x2 DUP2 ADD SWAP3 SWAP1 SWAP3 MSTORE PUSH1 0x22 DUP3 ADD MSTORE PUSH1 0x42 SWAP1 KECCAK256 SWAP1 JUMP JUMPDEST PUSH1 0x0 DUP1 PUSH1 0x0 PUSH2 0xDDE DUP8 DUP8 DUP8 DUP8 PUSH2 0xE34 JUMP JUMPDEST SWAP2 POP SWAP2 POP PUSH2 0xDEB DUP2 PUSH2 0xEEE JUMP JUMPDEST POP SWAP6 SWAP5 POP POP POP POP POP JUMP JUMPDEST PUSH1 0x60 PUSH1 0x0 PUSH2 0xE02 DUP4 PUSH2 0x1033 JUMP JUMPDEST PUSH1 0x40 DUP1 MLOAD PUSH1 0x20 DUP1 DUP3 MSTORE DUP2 DUP4 ADD SWAP1 SWAP3 MSTORE SWAP2 SWAP3 POP PUSH1 0x0 SWAP2 SWAP1 PUSH1 0x20 DUP3 ADD DUP2 DUP1 CALLDATASIZE DUP4 CALLDATACOPY POP POP POP SWAP2 DUP3 MSTORE POP PUSH1 0x20 DUP2 ADD SWAP3 SWAP1 SWAP3 MSTORE POP SWAP1 JUMP JUMPDEST PUSH1 0x0 DUP1 PUSH16 0xA2A8918CA85BAFE22016D0B997E4DF60 PUSH1 0x1 PUSH1 0xFF SHL SUB DUP4 GT ISZERO PUSH2 0xE61 JUMPI POP PUSH1 0x0 SWAP1 POP PUSH1 0x3 PUSH2 0xEE5 JUMP JUMPDEST PUSH1 0x40 DUP1 MLOAD PUSH1 0x0 DUP1 DUP3 MSTORE PUSH1 0x20 DUP3 ADD DUP1 DUP5 MSTORE DUP10 SWAP1 MSTORE PUSH1 0xFF DUP9 AND SWAP3 DUP3 ADD SWAP3 SWAP1 SWAP3 MSTORE PUSH1 0x60 DUP2 ADD DUP7 SWAP1 MSTORE PUSH1 0x80 DUP2 ADD DUP6 SWAP1 MSTORE PUSH1 0x1 SWAP1 PUSH1 0xA0 ADD PUSH1 0x20 PUSH1 0x40 MLOAD PUSH1 0x20 DUP2 SUB SWAP1 DUP1 DUP5 SUB SWAP1 DUP6 GAS STATICCALL ISZERO DUP1 ISZERO PUSH2 0xEB5 JUMPI RETURNDATASIZE PUSH1 0x0 DUP1 RETURNDATACOPY RETURNDATASIZE PUSH1 0x0 REVERT JUMPDEST POP POP PUSH1 0x40 MLOAD PUSH1 0x1F NOT ADD MLOAD SWAP2 POP POP PUSH1 0x1 PUSH1 0x1 PUSH1 0xA0 SHL SUB DUP2 AND PUSH2 0xEDE JUMPI PUSH1 0x0 PUSH1 0x1 SWAP3 POP SWAP3 POP POP PUSH2 0xEE5 JUMP JUMPDEST SWAP2 POP PUSH1 0x0 SWAP1 POP JUMPDEST SWAP5 POP SWAP5 SWAP3 POP POP POP JUMP JUMPDEST PUSH1 0x0 DUP2 PUSH1 0x4 DUP2 GT ISZERO PUSH2 0xF02 JUMPI PUSH2 0xF02 PUSH2 0x13A1 JUMP JUMPDEST SUB PUSH2 0xF0A JUMPI POP JUMP JUMPDEST PUSH1 0x1 DUP2 PUSH1 0x4 DUP2 GT ISZERO PUSH2 0xF1E JUMPI PUSH2 0xF1E PUSH2 0x13A1 JUMP JUMPDEST SUB PUSH2 0xF66 JUMPI PUSH1 0x40 MLOAD PUSH3 0x461BCD PUSH1 0xE5 SHL DUP2 MSTORE PUSH1 0x20 PUSH1 0x4 DUP3 ADD MSTORE PUSH1 0x18 PUSH1 0x24 DUP3 ADD MSTORE PUSH24 0x45434453413A20696E76616C6964207369676E6174757265 PUSH1 0x40 SHL PUSH1 0x44 DUP3 ADD MSTORE PUSH1 0x64 ADD PUSH2 0x4F5 JUMP JUMPDEST PUSH1 0x2 DUP2 PUSH1 0x4 DUP2 GT ISZERO PUSH2 0xF7A JUMPI PUSH2 0xF7A PUSH2 0x13A1 JUMP JUMPDEST SUB PUSH2 0xFC7 JUMPI PUSH1 0x40 MLOAD PUSH3 0x461BCD PUSH1 0xE5 SHL DUP2 MSTORE PUSH1 0x20 PUSH1 0x4 DUP3 ADD MSTORE PUSH1 0x1F PUSH1 0x24 DUP3 ADD MSTORE PUSH32 0x45434453413A20696E76616C6964207369676E6174757265206C656E67746800 PUSH1 0x44 DUP3 ADD MSTORE PUSH1 0x64 ADD PUSH2 0x4F5 JUMP JUMPDEST PUSH1 0x3 DUP2 PUSH1 0x4 DUP2 GT ISZERO PUSH2 0xFDB JUMPI PUSH2 0xFDB PUSH2 0x13A1 JUMP JUMPDEST SUB PUSH2 0x7AC JUMPI PUSH1 0x40 MLOAD PUSH3 0x461BCD PUSH1 0xE5 SHL DUP2 MSTORE PUSH1 0x20 PUSH1 0x4 DUP3 ADD MSTORE PUSH1 0x22 PUSH1 0x24 DUP3 ADD MSTORE PUSH32 0x45434453413A20696E76616C6964207369676E6174757265202773272076616C PUSH1 0x44 DUP3 ADD MSTORE PUSH2 0x7565 PUSH1 0xF0 SHL PUSH1 0x64 DUP3 ADD MSTORE PUSH1 0x84 ADD PUSH2 0x4F5 JUMP JUMPDEST PUSH1 0x0 PUSH1 0xFF DUP3 AND PUSH1 0x1F DUP2 GT ISZERO PUSH2 0x32F JUMPI PUSH1 0x40 MLOAD PUSH4 0x2CD44AC3 PUSH1 0xE2 SHL DUP2 MSTORE PUSH1 0x4 ADD PUSH1 0x40 MLOAD DUP1 SWAP2 SUB SWAP1 REVERT JUMPDEST PUSH1 0x0 DUP2 MLOAD DUP1 DUP5 MSTORE PUSH1 0x0 JUMPDEST DUP2 DUP2 LT ISZERO PUSH2 0x1081 JUMPI PUSH1 0x20 DUP2 DUP6 ADD DUP2 ADD MLOAD DUP7 DUP4 ADD DUP3 ADD MSTORE ADD PUSH2 0x1065 JUMP JUMPDEST POP PUSH1 0x0 PUSH1 0x20 DUP3 DUP7 ADD ADD MSTORE PUSH1 0x20 PUSH1 0x1F NOT PUSH1 0x1F DUP4 ADD AND DUP6 ADD ADD SWAP2 POP POP SWAP3 SWAP2 POP POP JUMP JUMPDEST PUSH1 0x20 DUP2 MSTORE PUSH1 0x0 PUSH2 0x10B4 PUSH1 0x20 DUP4 ADD DUP5 PUSH2 0x105B JUMP JUMPDEST SWAP4 SWAP3 POP POP POP JUMP JUMPDEST DUP1 CALLDATALOAD PUSH1 0x1 PUSH1 0x1 PUSH1 0xA0 SHL SUB DUP2 AND DUP2 EQ PUSH2 0x10D2 JUMPI PUSH1 0x0 DUP1 REVERT JUMPDEST SWAP2 SWAP1 POP JUMP JUMPDEST PUSH1 0x0 DUP1 PUSH1 0x40 DUP4 DUP6 SUB SLT ISZERO PUSH2 0x10EA JUMPI PUSH1 0x0 DUP1 REVERT JUMPDEST PUSH2 0x10F3 DUP4 PUSH2 0x10BB JUMP JUMPDEST SWAP5 PUSH1 0x20 SWAP4 SWAP1 SWAP4 ADD CALLDATALOAD SWAP4 POP POP POP JUMP JUMPDEST PUSH1 0x0 DUP1 PUSH1 0x0 PUSH1 0x60 DUP5 DUP7 SUB SLT ISZERO PUSH2 0x1116 JUMPI PUSH1 0x0 DUP1 REVERT JUMPDEST PUSH2 0x111F DUP5 PUSH2 0x10BB JUMP JUMPDEST SWAP3 POP PUSH2 0x112D PUSH1 0x20 DUP6 ADD PUSH2 0x10BB JUMP JUMPDEST SWAP2 POP PUSH1 0x40 DUP5 ADD CALLDATALOAD SWAP1 POP SWAP3 POP SWAP3 POP SWAP3 JUMP JUMPDEST PUSH1 0x0 PUSH1 0x20 DUP3 DUP5 SUB SLT ISZERO PUSH2 0x114F JUMPI PUSH1 0x0 DUP1 REVERT JUMPDEST PUSH2 0x10B4 DUP3 PUSH2 0x10BB JUMP JUMPDEST PUSH1 0xFF PUSH1 0xF8 SHL DUP9 AND DUP2 MSTORE PUSH1 0x0 PUSH1 0x20 PUSH1 0xE0 DUP2 DUP5 ADD MSTORE PUSH2 0x1178 PUSH1 0xE0 DUP5 ADD DUP11 PUSH2 0x105B JUMP JUMPDEST DUP4 DUP2 SUB PUSH1 0x40 DUP6 ADD MSTORE PUSH2 0x118A DUP2 DUP11 PUSH2 0x105B JUMP JUMPDEST PUSH1 0x60 DUP6 ADD DUP10 SWAP1 MSTORE PUSH1 0x1 PUSH1 0x1 PUSH1 0xA0 SHL SUB DUP9 AND PUSH1 0x80 DUP7 ADD MSTORE PUSH1 0xA0 DUP6 ADD DUP8 SWAP1 MSTORE DUP5 DUP2 SUB PUSH1 0xC0 DUP7 ADD MSTORE DUP6 MLOAD DUP1 DUP3 MSTORE DUP4 DUP8 ADD SWAP3 POP SWAP1 DUP4 ADD SWAP1 PUSH1 0x0 JUMPDEST DUP2 DUP2 LT ISZERO PUSH2 0x11DC JUMPI DUP4 MLOAD DUP4 MSTORE SWAP3 DUP5 ADD SWAP3 SWAP2 DUP5 ADD SWAP2 PUSH1 0x1 ADD PUSH2 0x11C0 JUMP JUMPDEST POP SWAP1 SWAP13 SWAP12 POP POP POP POP POP POP POP POP POP POP POP POP JUMP JUMPDEST PUSH1 0x0 DUP1 PUSH1 0x0 DUP1 PUSH1 0x0 DUP1 PUSH1 0x0 PUSH1 0xE0 DUP9 DUP11 SUB SLT ISZERO PUSH2 0x1209 JUMPI PUSH1 0x0 DUP1 REVERT JUMPDEST PUSH2 0x1212 DUP9 PUSH2 0x10BB JUMP JUMPDEST SWAP7 POP PUSH2 0x1220 PUSH1 0x20 DUP10 ADD PUSH2 0x10BB JUMP JUMPDEST SWAP6 POP PUSH1 0x40 DUP9 ADD CALLDATALOAD SWAP5 POP PUSH1 0x60 DUP9 ADD CALLDATALOAD SWAP4 POP PUSH1 0x80 DUP9 ADD CALLDATALOAD PUSH1 0xFF DUP2 AND DUP2 EQ PUSH2 0x1244 JUMPI PUSH1 0x0 DUP1 REVERT JUMPDEST SWAP7 SWAP10 SWAP6 SWAP9 POP SWAP4 SWAP7 SWAP3 SWAP6 SWAP5 PUSH1 0xA0 DUP5 ADD CALLDATALOAD SWAP5 POP PUSH1 0xC0 SWAP1 SWAP4 ADD CALLDATALOAD SWAP3 SWAP2 POP POP JUMP JUMPDEST PUSH1 0x0 DUP1 PUSH1 0x40 DUP4 DUP6 SUB SLT ISZERO PUSH2 0x1274 JUMPI PUSH1 0x0 DUP1 REVERT JUMPDEST PUSH2 0x127D DUP4 PUSH2 0x10BB JUMP JUMPDEST SWAP2 POP PUSH2 0x128B PUSH1 0x20 DUP5 ADD PUSH2 0x10BB JUMP JUMPDEST SWAP1 POP SWAP3 POP SWAP3 SWAP1 POP JUMP JUMPDEST PUSH1 0x1 DUP2 DUP2 SHR SWAP1 DUP3 AND DUP1 PUSH2 0x12A8 JUMPI PUSH1 0x7F DUP3 AND SWAP2 POP JUMPDEST PUSH1 0x20 DUP3 LT DUP2 SUB PUSH2 0xD9A JUMPI PUSH4 0x4E487B71 PUSH1 0xE0 SHL PUSH1 0x0 MSTORE PUSH1 0x22 PUSH1 0x4 MSTORE PUSH1 0x24 PUSH1 0x0 REVERT JUMPDEST DUP1 DUP3 ADD DUP1 DUP3 GT ISZERO PUSH2 0x32F JUMPI PUSH4 0x4E487B71 PUSH1 0xE0 SHL PUSH1 0x0 MSTORE PUSH1 0x11 PUSH1 0x4 MSTORE PUSH1 0x24 PUSH1 0x0 REVERT JUMPDEST PUSH7 0x697066733A2F2F PUSH1 0xC8 SHL DUP2 MSTORE PUSH1 0x0 PUSH1 0x7 PUSH1 0x0 DUP5 SLOAD DUP2 PUSH1 0x1 DUP3 DUP2 SHR SWAP2 POP DUP1 DUP4 AND DUP1 PUSH2 0x1315 JUMPI PUSH1 0x7F DUP4 AND SWAP3 POP JUMPDEST PUSH1 0x20 DUP1 DUP5 LT DUP3 SUB PUSH2 0x1334 JUMPI PUSH4 0x4E487B71 PUSH1 0xE0 SHL DUP7 MSTORE PUSH1 0x22 PUSH1 0x4 MSTORE PUSH1 0x24 DUP7 REVERT JUMPDEST DUP2 DUP1 ISZERO PUSH2 0x1348 JUMPI PUSH1 0x1 DUP2 EQ PUSH2 0x1361 JUMPI PUSH2 0x1392 JUMP JUMPDEST PUSH1 0xFF NOT DUP7 AND DUP11 DUP10 ADD MSTORE DUP5 ISZERO ISZERO DUP6 MUL DUP11 ADD DUP9 ADD SWAP7 POP PUSH2 0x1392 JUMP JUMPDEST PUSH1 0x0 DUP12 DUP2 MSTORE PUSH1 0x20 SWAP1 KECCAK256 PUSH1 0x0 JUMPDEST DUP7 DUP2 LT ISZERO PUSH2 0x1388 JUMPI DUP2 SLOAD DUP13 DUP3 ADD DUP12 ADD MSTORE SWAP1 DUP6 ADD SWAP1 DUP4 ADD PUSH2 0x136D JUMP JUMPDEST POP POP DUP8 DUP6 DUP12 ADD ADD SWAP7 POP JUMPDEST POP SWAP5 SWAP10 SWAP9 POP POP POP POP POP POP POP POP POP JUMP JUMPDEST PUSH4 0x4E487B71 PUSH1 0xE0 SHL PUSH1 0x0 MSTORE PUSH1 0x21 PUSH1 0x4 MSTORE PUSH1 0x24 PUSH1 0x0 REVERT INVALID LOG2 PUSH5 0x6970667358 0x22 SLT KECCAK256 CALL CREATE 0xE7 PUSH31 0xFD43C1ED3129E9422C1F778AD458CFBD181E98219BDEC1839A3A2A2B64736F PUSH13 0x6343000814003397667070C54E CALL DUP3 0xB0 CREATE2 DUP6 DUP12 SUB 0x4B 0xEA 0xC1 0xB6 RETURN ADDMOD SWAP11 LOG2 0xD3 XOR DUP12 0xB1 0xE8 SWAP3 SWAP16 0x4F 0xA9 0xB9 0x29 PUSH6 0xD7A28E3265B3 PUSH27 0x6474929F336521B332C1681B933F6CB9F3376673440D862AB42C9F 0xEC 0xFB PUSH9 0xF9BF84886F05B85865 0xBE 0x2F 0xDA PUSH10 0xA3EC869651D1320D8F52 DUP12 0xE6 0xBB 0xE8 0x2B 0xE3 ISZERO 0xBA BYTE 0xD SUB PUSH3 0xD09D5C CREATE2 SWAP8 DUP2 CALLCODE EQ 0xB5 GASPRICE PUSH21 0xEB978C35B76AD687099C670CB3579861130E4DA8BB PUSH28 0x87C54D2D139937F23BCD6E4EBED9E75D0F78AB1CC118A26469706673 PC 0x22 SLT KECCAK256 0xA5 0xE9 GASPRICE 0xEB DUP15 0xBD EXP SWAP11 BALANCE DUP11 0xBA INVALID SWAP8 0xB4 0xF9 PUSH28 0x35B859D42DB0766BF6A8CCF0CEC6BBD464736F6C6343000814003300 "},"methodIdentifiers":{"DEFAULT_ADMIN_ROLE()":"a217fddf","OPERATOR_ROLE()":"f5b541a6","PAUSER_ROLE()":"e63ab1e9","addLiquidity(address,uint256)":"56688700","addToWhitelist(address,address[])":"e559afd9","allTokens(uint256)":"634282af","buyPresale(address,uint256,address,bytes32[])":"64618cf9","buyToken(address,uint256,address)":"692bf4a8","claimVested()":"d01c44cd","createLiquidityPair(address)":"98e122fd","createMemeCoin(string,string,string,uint256,uint256,string)":"d634b419","creatorFeesAccrued(address)":"c748713e","dexFactory()":"b8d8fbb4","dexRouter()":"0758d924","emergencyWithdrawETH()":"84536017","emergencyWithdrawToken(address)":"1af03203","getRevenueSplit(uint256)":"dad4412c","getRoleAdmin(bytes32)":"248a9ca3","getSalesStats(address)":"7e8def1d","getTokens(uint256,uint256)":"494cfc6c","grantRole(bytes32,address)":"2f2ff15d","hasRole(bytes32,address)":"91d14854","listTokensPaginated(uint256,uint256)":"9b53a7f5","pause()":"8456cb59","pauseTokenSales(address)":"66c5b06c","paused()":"5c975abb","platformFeeBP()":"ff96092a","platformFeesAccrued()":"22163b86","platformFeesAccumulated()":"f641fe39","presaleMerkleRoot()":"22212e2b","priceOf(address)":"b95ed06f","reclaimUnsold(address,uint256)":"0e3f0cfc","reclaimUnsoldBatch(address[],uint256[])":"7a86279b","referralFeeBP()":"dc4ec9be","referralFees(address)":"75780f42","referralFeesAccrued(address)":"f37ef78c","removeLiquidity(address,uint256)":"a201ccf6","renounceRole(bytes32,address)":"36568abe","rescueERC20(address,uint256)":"8cd4426d","revokeRole(bytes32,address)":"d547741f","setDexAddresses(address,address)":"09cccaac","setPresaleMerkleRoot(bytes32)":"28d7b276","setVestingSchedule(address,address,uint256,uint256,uint256)":"3d94bdbb","supportsInterface(bytes4)":"01ffc9a7","toggleWhitelist(address,bool)":"349123d1","tokenIndexPlusOne(address)":"35a62e68","tokenPaused(address)":"8995881d","totalTokens()":"7e1c0c09","unpause()":"3f4ba83a","unpauseTokenSales(address)":"f0b6374b","unsoldForAll(address[])":"d260be7c","updateFees(uint16,uint16)":"f3d2350e","updateMetadata(address,string,string)":"5e62bf94","updatePrice(address,uint256)":"457972de","vestingSchedules(address)":"fdb20ccb","whitelistEnabled(address)":"79c8ffd6","whitelisted(address,address)":"bc120fe7","withdrawCreatorFees(address)":"f4c5cdca","withdrawPlatformFees()":"d0b7830b","withdrawReferralFees()":"173608e7"}}}}}