{"contracts/MemeCoinFactory.sol":{"MemeCoinFactory":{"abi":[{"inputs":[{"internalType":"address","name":"forwarder_","type":"address"},{"internalType":"uint16","name":"_platformFeeBP","type":"uint16"},{"internalType":"uint16","name":"_referralFeeBP","type":"uint16"},{"internalType":"uint256","name":"_basePrice","type":"uint256"},{"internalType":"uint256","name":"_slope","type":"uint256"},{"internalType":"address","name":"v2Factory_","type":"address"}],"stateMutability":"nonpayable","type":"constructor"},{"anonymous":false,"inputs":[{"indexed":true,"internalType":"address","name":"token","type":"address"},{"indexed":true,"internalType":"address","name":"buyer","type":"address"},{"indexed":false,"internalType":"uint256","name":"amount","type":"uint256"},{"indexed":false,"internalType":"uint256","name":"cost","type":"uint256"}],"name":"Bought","type":"event"},{"anonymous":false,"inputs":[{"indexed":true,"internalType":"string","name":"name","type":"string"},{"indexed":false,"internalType":"address","name":"module","type":"address"}],"name":"ModuleSet","type":"event"},{"anonymous":false,"inputs":[{"indexed":false,"internalType":"address","name":"account","type":"address"}],"name":"Paused","type":"event"},{"anonymous":false,"inputs":[{"indexed":true,"internalType":"bytes32","name":"role","type":"bytes32"},{"indexed":true,"internalType":"bytes32","name":"previousAdminRole","type":"bytes32"},{"indexed":true,"internalType":"bytes32","name":"newAdminRole","type":"bytes32"}],"name":"RoleAdminChanged","type":"event"},{"anonymous":false,"inputs":[{"indexed":true,"internalType":"bytes32","name":"role","type":"bytes32"},{"indexed":true,"internalType":"address","name":"account","type":"address"},{"indexed":true,"internalType":"address","name":"sender","type":"address"}],"name":"RoleGranted","type":"event"},{"anonymous":false,"inputs":[{"indexed":true,"internalType":"bytes32","name":"role","type":"bytes32"},{"indexed":true,"internalType":"address","name":"account","type":"address"},{"indexed":true,"internalType":"address","name":"sender","type":"address"}],"name":"RoleRevoked","type":"event"},{"anonymous":false,"inputs":[{"indexed":true,"internalType":"address","name":"token","type":"address"},{"indexed":true,"internalType":"address","name":"creator","type":"address"}],"name":"TokenCreated","type":"event"},{"anonymous":false,"inputs":[{"indexed":false,"internalType":"address","name":"account","type":"address"}],"name":"Unpaused","type":"event"},{"anonymous":false,"inputs":[{"indexed":true,"internalType":"address","name":"t0","type":"address"},{"indexed":true,"internalType":"address","name":"t1","type":"address"},{"indexed":false,"internalType":"address","name":"pair","type":"address"}],"name":"V2PairCreated","type":"event"},{"stateMutability":"payable","type":"fallback"},{"inputs":[],"name":"DEFAULT_ADMIN_ROLE","outputs":[{"internalType":"bytes32","name":"","type":"bytes32"}],"stateMutability":"view","type":"function"},{"inputs":[],"name":"OPERATOR_ROLE","outputs":[{"internalType":"bytes32","name":"","type":"bytes32"}],"stateMutability":"view","type":"function"},{"inputs":[],"name":"PAUSER_ROLE","outputs":[{"internalType":"bytes32","name":"","type":"bytes32"}],"stateMutability":"view","type":"function"},{"inputs":[],"name":"POOL_CREATION_FEE","outputs":[{"internalType":"uint256","name":"","type":"uint256"}],"stateMutability":"view","type":"function"},{"inputs":[{"internalType":"address","name":"router","type":"address"},{"internalType":"address","name":"tokenA","type":"address"},{"internalType":"address","name":"tokenB","type":"address"},{"internalType":"uint256","name":"amtA","type":"uint256"},{"internalType":"uint256","name":"amtB","type":"uint256"},{"internalType":"uint256","name":"minA","type":"uint256"},{"internalType":"uint256","name":"minB","type":"uint256"},{"internalType":"address","name":"to","type":"address"},{"internalType":"uint256","name":"dl","type":"uint256"}],"name":"addV2Liquidity","outputs":[],"stateMutability":"nonpayable","type":"function"},{"inputs":[],"name":"airdropModule","outputs":[{"internalType":"contract AirdropMerkle","name":"","type":"address"}],"stateMutability":"view","type":"function"},{"inputs":[{"internalType":"uint256","name":"","type":"uint256"}],"name":"allTokens","outputs":[{"internalType":"address","name":"token","type":"address"},{"internalType":"address","name":"creator","type":"address"},{"internalType":"string","name":"description","type":"string"},{"internalType":"string","name":"ipfsHash","type":"string"},{"internalType":"bool","name":"active","type":"bool"}],"stateMutability":"view","type":"function"},{"inputs":[],"name":"basePrice","outputs":[{"internalType":"uint256","name":"","type":"uint256"}],"stateMutability":"view","type":"function"},{"inputs":[{"internalType":"address","name":"token_","type":"address"},{"internalType":"uint256","name":"amt","type":"uint256"},{"internalType":"uint256","name":"maxAlloc","type":"uint256"},{"internalType":"address","name":"ref","type":"address"},{"internalType":"bytes32[]","name":"proof","type":"bytes32[]"}],"name":"buyPresale","outputs":[],"stateMutability":"payable","type":"function"},{"inputs":[{"internalType":"address","name":"token_","type":"address"},{"internalType":"uint256","name":"amountAtomic","type":"uint256"},{"internalType":"address","name":"referrer","type":"address"}],"name":"buyToken","outputs":[],"stateMutability":"payable","type":"function"},{"inputs":[{"internalType":"uint256","name":"amt","type":"uint256"},{"internalType":"bytes32[]","name":"proof","type":"bytes32[]"}],"name":"claimAirdrop","outputs":[],"stateMutability":"nonpayable","type":"function"},{"inputs":[],"name":"claimStakeReward","outputs":[],"stateMutability":"nonpayable","type":"function"},{"inputs":[{"internalType":"string","name":"name_","type":"string"},{"internalType":"string","name":"symbol_","type":"string"},{"internalType":"string","name":"description_","type":"string"},{"internalType":"uint256","name":"totalSupply_","type":"uint256"},{"internalType":"uint256","name":"","type":"uint256"},{"internalType":"string","name":"ipfsHash_","type":"string"}],"name":"createMemeCoin","outputs":[{"internalType":"address","name":"tokenAddr","type":"address"}],"stateMutability":"nonpayable","type":"function"},{"inputs":[{"internalType":"address","name":"a","type":"address"},{"internalType":"address","name":"b","type":"address"}],"name":"createV2Pool","outputs":[{"internalType":"address","name":"pair","type":"address"}],"stateMutability":"payable","type":"function"},{"inputs":[{"internalType":"uint256","name":"","type":"uint256"}],"name":"createdV2Pools","outputs":[{"internalType":"address","name":"","type":"address"}],"stateMutability":"view","type":"function"},{"inputs":[{"internalType":"address","name":"","type":"address"}],"name":"creatorFeesAccrued","outputs":[{"internalType":"uint256","name":"","type":"uint256"}],"stateMutability":"view","type":"function"},{"inputs":[],"name":"currentPrice","outputs":[{"internalType":"uint256","name":"","type":"uint256"}],"stateMutability":"view","type":"function"},{"inputs":[{"internalType":"address","name":"a","type":"address"},{"internalType":"address","name":"b","type":"address"}],"name":"ensureV2Pair","outputs":[{"internalType":"address","name":"pair","type":"address"}],"stateMutability":"nonpayable","type":"function"},{"inputs":[{"internalType":"bytes32","name":"role","type":"bytes32"}],"name":"getRoleAdmin","outputs":[{"internalType":"bytes32","name":"","type":"bytes32"}],"stateMutability":"view","type":"function"},{"inputs":[{"internalType":"uint256","name":"i","type":"uint256"}],"name":"getV2Pool","outputs":[{"internalType":"address","name":"","type":"address"}],"stateMutability":"view","type":"function"},{"inputs":[],"name":"getV2PoolCount","outputs":[{"internalType":"uint256","name":"","type":"uint256"}],"stateMutability":"view","type":"function"},{"inputs":[{"internalType":"uint256","name":"i","type":"uint256"}],"name":"getV2PoolTokens","outputs":[{"internalType":"address","name":"t0","type":"address"},{"internalType":"address","name":"t1","type":"address"}],"stateMutability":"view","type":"function"},{"inputs":[{"internalType":"bytes32","name":"role","type":"bytes32"},{"internalType":"address","name":"account","type":"address"}],"name":"grantRole","outputs":[],"stateMutability":"nonpayable","type":"function"},{"inputs":[{"internalType":"bytes32","name":"role","type":"bytes32"},{"internalType":"address","name":"account","type":"address"}],"name":"hasRole","outputs":[{"internalType":"bool","name":"","type":"bool"}],"stateMutability":"view","type":"function"},{"inputs":[{"internalType":"address","name":"forwarder","type":"address"}],"name":"isTrustedForwarder","outputs":[{"internalType":"bool","name":"","type":"bool"}],"stateMutability":"view","type":"function"},{"inputs":[],"name":"pause","outputs":[],"stateMutability":"nonpayable","type":"function"},{"inputs":[],"name":"paused","outputs":[{"internalType":"bool","name":"","type":"bool"}],"stateMutability":"view","type":"function"},{"inputs":[],"name":"platformFeeBP","outputs":[{"internalType":"uint16","name":"","type":"uint16"}],"stateMutability":"view","type":"function"},{"inputs":[],"name":"platformFeesAccrued","outputs":[{"internalType":"uint256","name":"","type":"uint256"}],"stateMutability":"view","type":"function"},{"inputs":[],"name":"referralFeeBP","outputs":[{"internalType":"uint16","name":"","type":"uint16"}],"stateMutability":"view","type":"function"},{"inputs":[{"internalType":"address","name":"router","type":"address"},{"internalType":"address","name":"tokenA","type":"address"},{"internalType":"address","name":"tokenB","type":"address"},{"internalType":"uint256","name":"liquidity","type":"uint256"},{"internalType":"uint256","name":"minA","type":"uint256"},{"internalType":"uint256","name":"minB","type":"uint256"},{"internalType":"address","name":"to","type":"address"},{"internalType":"uint256","name":"dl","type":"uint256"}],"name":"removeV2Liquidity","outputs":[],"stateMutability":"nonpayable","type":"function"},{"inputs":[{"internalType":"bytes32","name":"role","type":"bytes32"},{"internalType":"address","name":"account","type":"address"}],"name":"renounceRole","outputs":[],"stateMutability":"nonpayable","type":"function"},{"inputs":[{"internalType":"bytes32","name":"role","type":"bytes32"},{"internalType":"address","name":"account","type":"address"}],"name":"revokeRole","outputs":[],"stateMutability":"nonpayable","type":"function"},{"inputs":[{"internalType":"address","name":"a","type":"address"}],"name":"setAirdropModule","outputs":[],"stateMutability":"nonpayable","type":"function"},{"inputs":[{"internalType":"address","name":"a","type":"address"}],"name":"setStakingModule","outputs":[],"stateMutability":"nonpayable","type":"function"},{"inputs":[{"internalType":"address","name":"a","type":"address"}],"name":"setV2Factory","outputs":[],"stateMutability":"nonpayable","type":"function"},{"inputs":[{"internalType":"address","name":"a","type":"address"}],"name":"setWhitelistModule","outputs":[],"stateMutability":"nonpayable","type":"function"},{"inputs":[],"name":"slope","outputs":[{"internalType":"uint256","name":"","type":"uint256"}],"stateMutability":"view","type":"function"},{"inputs":[{"internalType":"uint256","name":"amt","type":"uint256"}],"name":"stakeTokens","outputs":[],"stateMutability":"nonpayable","type":"function"},{"inputs":[],"name":"stakingModule","outputs":[{"internalType":"contract StakingRewards","name":"","type":"address"}],"stateMutability":"view","type":"function"},{"inputs":[{"internalType":"bytes4","name":"interfaceId","type":"bytes4"}],"name":"supportsInterface","outputs":[{"internalType":"bool","name":"","type":"bool"}],"stateMutability":"view","type":"function"},{"inputs":[{"internalType":"address","name":"","type":"address"}],"name":"tokenIndexPlusOne","outputs":[{"internalType":"uint256","name":"","type":"uint256"}],"stateMutability":"view","type":"function"},{"inputs":[{"internalType":"address","name":"","type":"address"}],"name":"tokenPaused","outputs":[{"internalType":"bool","name":"","type":"bool"}],"stateMutability":"view","type":"function"},{"inputs":[],"name":"totalSold","outputs":[{"internalType":"uint256","name":"","type":"uint256"}],"stateMutability":"view","type":"function"},{"inputs":[],"name":"unpause","outputs":[],"stateMutability":"nonpayable","type":"function"},{"inputs":[],"name":"v2Factory","outputs":[{"internalType":"contract IUniswapV2Factory","name":"","type":"address"}],"stateMutability":"view","type":"function"},{"inputs":[],"name":"whitelistModule","outputs":[{"internalType":"contract WhitelistPresale","name":"","type":"address"}],"stateMutability":"view","type":"function"},{"inputs":[{"internalType":"uint256","name":"amt","type":"uint256"}],"name":"withdrawStake","outputs":[],"stateMutability":"nonpayable","type":"function"},{"stateMutability":"payable","type":"receive"}],"evm":{"bytecode":{"linkReferences":{},"object":"60e034620002ef57601f6200529f38819003918201601f191683019291906001600160401b03841183851017620002f4578160c09284926040968752833981010312620002ef5762000051816200030a565b90602091620000628383016200031f565b91620000708582016200031f565b9060608101516200008960a0608084015193016200030a565b9360805260ff19926001958487541687558660025561ffff80911690808316820190808211620002d95761271091161015620002a75763ffff00006003549260101b169163ffffffff1916171760035560a05260c05260018060a01b0380921660018060a01b0319600b541617600b55600092838052838552858420338552855260ff86852054161562000267575b7f65d7a28e3265b37a6474929f336521b332c1681b933f6cb9f3376673440d862a808552848652868520338652865260ff87862054161562000225575b507f97667070c54ef182b0f5858b034beac1b6f3089aa2d3188bb1e8929f4fa9b92994858552848152868520338652815260ff878620541615620001e1575b8651614f1090816200036f82396080518181816118470152612926015260a0518181816109e701528181610fb501526113c8015260c051818181610f8e015281816111e601526114300152f35b858552848152868520903386525285842091825416179055620002036200032f565b16916000805160206200527f833981519152339280a438808080808062000194565b8085528486528685203386528652868520828482541617905583620002496200032f565b169033906000805160206200527f8339815191528780a43862000155565b83805283855285842033855285528584208183825416179055826200028b6200032f565b1633856000805160206200527f8339815191528180a462000118565b885162461bcd60e51b815260048101899052600b60248201526a08ccacae6a8dede90d2ced60ab1b6044820152606490fd5b634e487b7160e01b600052601160045260246000fd5b600080fd5b634e487b7160e01b600052604160045260246000fd5b51906001600160a01b0382168203620002ef57565b519061ffff82168203620002ef57565b6080516001600160a01b031633148062000362575b156200035e576013193601368111620002d9573560601c90565b3390565b5060143610156200034456fe608080604052600436101562000022575b5036156200001d57600080fd5b600080fd5b600090813560e01c90816301ffc9a71462001f3f575080630bcae1ac1462001e9e5780631aac52c71462001e6e57806322163b861462001e4e578063248a9ca31462001e2057806325d5971f1462001dc7578063296a65d81462001da75780632f2ff15d1462001ce357806335a62e681462001ca657806336568abe1462001c00578063372c28b41462001a015780633f4ba83a1462001967578063474f077714620018d55780634d1605061462001899578063504b82bf146200186e578063572b6c0514620018195780635c975abb14620017f4578063634282af1462001748578063692bf4a814620013245780637547c7a31462001258578063768c0442146200122d5780637b573c54146200120957806383caf27514620011cc57806383f26f3814620011335780638456cb5914620010bf5780638995881d146200107c5780638fea31b014620010515780639106d7ba146200103157806391d148541462000fe25780639d1b464a1462000f6c5780639df026601462000e625780639fd3af8b1462000e0f578063a0429de61462000d79578063a12ad0e61462000c01578063a217fddf1462000be3578063b4b57c391462000bb8578063c4f3e9d71462000b25578063c52d441a1462000ade578063c60b494f1462000a47578063c748713e1462000a0a578063c7876ea414620009cd578063d547741f1462000985578063d634b4191462000419578063d9d0a5be1462000332578063dc4ec9be146200030b578063e63ab1e914620002ce578063f5b541a614620002915763ff96092a036200001057346200028e57806003193601126200028e57602061ffff60035416604051908152f35b80fd5b50346200028e57806003193601126200028e5760206040517f97667070c54ef182b0f5858b034beac1b6f3089aa2d3188bb1e8929f4fa9b9298152f35b50346200028e57806003193601126200028e5760206040517f65d7a28e3265b37a6474929f336521b332c1681b933f6cb9f3376673440d862a8152f35b50346200028e57806003193601126200028e57602061ffff60035460101c16604051908152f35b5060a03660031901126200028e576200034a6200201b565b6064356001600160a01b0381811692918390036200001d5783926084356001600160401b03811162000415576200038690369060040162001f99565b93909280600a541691823b156200041157620003de879560405197889687958695636ce852df60e11b875216600486015260243560248601526044356044860152606485015260a0608485015260a484019162002c57565b039134905af180156200040657620003f35750f35b620003fe90620020c2565b6200028e5780f35b6040513d84823e3d90fd5b8680fd5b8480fd5b50346200028e5760c03660031901126200028e576004356001600160401b03811162000981576200044f90369060040162002212565b91906024356001600160401b0381116200097d576200047390369060040162002212565b90936044356001600160401b03811162000415576200049790369060040162002212565b93909260a4356001600160401b0381116200041157620004bc90369060040162002212565b939097620004c9620029dd565b620004d362002a22565b620004dd62002923565b926040519461201c93848701948786106001600160401b03871117620009695792620005266200053593899896936200055e989662002ec88b3960a0875260a087019162002980565b91848303602086015262002980565b60643560408301526001600160a01b039092166060820152808203608090910152848962002980565b039085f09283156200095e576200057462002923565b956040519360a08501908582106001600160401b038311176200094857620005d093620005c09260405260018060a01b0388168752602087019960018060a01b03168a523691620029a1565b92604085019384523691620029a1565b606083015260016080830152600754600160401b8110156200084b57806001620005fe920160075562002049565b9590956200093457825186546001600160a01b03199081166001600160a01b0392831617885591516001880180549093169116179055518051906001600160401b0382116200084b57819062000658600288015462002085565b601f8111620008df575b50602090601f83116001146200086b5786926200085f575b50508160011b916000199060031b1c19161760028501555b60608101519384516001600160401b0381116200084b57620006b8600383015462002085565b95601f8711620007fe575b602096508690601f83116001146200078c57918060809492600494899262000780575b50508160011b916000199060031b1c19161760038201555b01910151151560ff8019835416911617905560075460018060a01b038216835260088452604083205560018060a01b036200073862002923565b604051939116906001600160a01b038316907fd5f9bdf12adf29dab0248c349842c3822d53ae2bb4f36352f301630d018c81399080a360016002556001600160a01b03168152f35b015190503880620006e6565b6003840187528787209190601f198416885b818110620007e657509260019285926004966080989610620007cc575b505050811b016003820155620006fe565b015160001960f88460031b161c19169055388080620007bb565b92938a6001819287860151815501950193016200079e565b60038301865260208620601f830160051c8101976020841062000840575b601f0160051c01965b878110620008345750620006c3565b86815560010162000825565b90975087906200081c565b634e487b7160e01b85526041600452602485fd5b0151905038806200067a565b9250600287018652602086209086935b601f1984168510620008c3576001945083601f19811610620008a9575b505050811b01600285015562000692565b015160001960f88460031b161c1916905538808062000898565b818101518355602094850194600190930192909101906200087b565b90915060028701865260208620601f840160051c8101602085106200092c575b90849392915b601f830160051c820181106200091d57505062000662565b88815585945060010162000905565b5080620008ff565b634e487b7160e01b85526004859052602485fd5b634e487b7160e01b600052604160045260246000fd5b6040513d86823e3d90fd5b634e487b7160e01b8c52604160045260248cfd5b8280fd5b5080fd5b50346200028e5760403660031901126200028e57620009ca600435620009aa62002004565b9080845283602052620009c46001604086200154620025d7565b6200270a565b80f35b50346200028e57806003193601126200028e5760206040517f00000000000000000000000000000000000000000000000000000000000000008152f35b50346200028e5760203660031901126200028e576020906040906001600160a01b0362000a366200201b565b168152600583522054604051908152f35b50346200028e5760203660031901126200028e577f5a31296b3cecaf3aaa3146a140f6ddf6d21caa95e28243dc507d90d7e883be7960008051602062004ee4833981519152602062000a986200201b565b62000aa26200248a565b60018060a01b0316806001600160601b0360a01b600c541617600c556d5374616b696e675265776172647360901b60405152604051908152a280f35b50346200028e5760403660031901126200028e57602062000b1362000b026200201b565b62000b0c62002004565b9062002c9d565b6040516001600160a01b039091168152f35b5060403660031901126200028e5762000b3d6200201b565b62000b4762002004565b9066071afd498d0000340362000b885760209162000b659162002c9d565b62000b7334600454620027c1565b6004556040516001600160a01b039091168152f35b60405162461bcd60e51b815260206004820152600860248201526757726f6e6746656560c01b6044820152606490fd5b50346200028e57806003193601126200028e57600b546040516001600160a01b039091168152602090f35b50346200028e57806003193601126200028e57602090604051908152f35b50346200028e576101003660031901126200028e5762000c206200201b565b62000c2a62002004565b9062000c3562002032565b91606435916001600160a01b039160c435838116908190036200001d5786908462000c61888562002c9d565b169362000c718730338862002e6c565b60405163095ea7b360e01b81526001600160a01b038216600482015260248101889052946020908690604490829087905af191821562000d6e5760409760e496889462000d39575b508389519a8b998a98635d5155ef60e11b8a521660048901521660248701526044860152608435606486015260a435608486015260a4850152843560c4850152165af18015620004065762000d0c575080f35b604090813d831162000d31575b62000d258183620020f2565b810103126200028e5780f35b503d62000d19565b62000d5e9060203d811162000d66575b62000d558183620020f2565b81019062002a77565b503862000cb9565b503d62000d49565b6040513d85823e3d90fd5b50346200028e5760203660031901126200028e577f25009364035bfb2fe48a581c0ce939c5ed5c1dd5c34daf8b6948ea3740d4b2df60008051602062004ee4833981519152602062000dca6200201b565b62000dd46200248a565b60018060a01b0316806001600160601b0360a01b600d541617600d556c41697264726f704d65726b6c6560981b60405152604051908152a280f35b50346200028e57806003193601126200028e57600c5481906001600160a01b0316803b1562000e5f57818091600460405180948193631e8c5c8960e11b83525af180156200040657620003f35750f35b50fd5b50346200028e57602080600319360112620009815762000e8460043562001fcc565b9054604051630dfe168160e01b815260039290921b1c6001600160a01b0316918082600481865afa9182156200095e57849262000f45575b5080600492936040519384809263d21220a760e01b82525afa93841562000f39579362000f03575b5050604080516001600160a01b03928316815292909116602083015290f35b62000f28929350803d1062000f31575b62000f1f8183620020f2565b81019062002c7c565b90388062000ee4565b503d62000f13565b604051903d90823e3d90fd5b6004925062000f648291823d841162000f315762000f1f8183620020f2565b925062000ebc565b50346200028e57806003193601126200028e57602062000fda62000fb36006547f000000000000000000000000000000000000000000000000000000000000000062002797565b7f0000000000000000000000000000000000000000000000000000000000000000620027c1565b604051908152f35b50346200028e5760403660031901126200028e5760406200100262002004565b91600435815280602052209060018060a01b0316600052602052602060ff604060002054166040519015158152f35b50346200028e57806003193601126200028e576020600654604051908152f35b50346200028e57806003193601126200028e57600a546040516001600160a01b039091168152602090f35b50346200028e5760203660031901126200028e5760209060ff906040906001600160a01b03620010ab6200201b565b168152600984522054166040519015158152f35b50346200028e57806003193601126200028e57620010dc62002242565b620010e6620029dd565b600160ff19815416176001557f62e78cea01bee320cd4e420270b5ea74000d11b0c9f74754ebdbfc544b05a25860206200111f62002923565b6040516001600160a01b039091168152a180f35b50346200028e5760203660031901126200028e577f3be8db72f80e4180e6ddff48717a4157a6b0f211136ee52b65023eed452e410d60008051602062004ee48339815191526020620011846200201b565b6200118e6200248a565b60018060a01b0316806001600160601b0360a01b600a541617600a556f57686974656c69737450726573616c6560801b60405152604051908152a280f35b50346200028e57806003193601126200028e5760206040517f00000000000000000000000000000000000000000000000000000000000000008152f35b50346200028e57806003193601126200028e57602060405166071afd498d00008152f35b50346200028e57806003193601126200028e57600d546040516001600160a01b039091168152602090f35b50346200028e5760203660031901126200028e5760043562001279620029dd565b600754156200130e578190600760005260018060a01b03620012cf82827fa66cc928b5edb82af9bd49922954155ab7b0942694bea4ce44661d9a8736c6885416620012c362002923565b84600c54169162002e6c565b600c541690813b156200130a57829160248392604051948593849263534a7e1d60e11b845260048401525af180156200040657620003f35750f35b5050fd5b634e487b7160e01b600052603260045260246000fd5b5060603660031901126200028e576200133c6200201b565b9060249182356200134c62002032565b9062001357620029dd565b6200136162002a22565b801562001717576001600160a01b0392831680855260096020908152604086205490929060ff16620016e5578186526008835260408620549384151580620016ab575b156200167a57670de0b6b3a7640000808306620016495782049560065491620013ee7f00000000000000000000000000000000000000000000000000000000000000008962002797565b97620013fb818562002797565b60001999828b019183831162001636576200142e6200145591620014246200145c958762002797565b60011c90620027c1565b7f000000000000000000000000000000000000000000000000000000000000000062002797565b90620027c1565b938434036200160357906200147191620027c1565b6006556003549661271061ffff9884826200148f8c84168962002797565b049416998a15600014620015eb5750505089985b620014c8620014be8b620014b8868962002915565b62002915565b93600454620027c1565b6004558101908111620015d85791620015878a9b604095936200152a878e866001620015167fbf77fd13a39d14dc0da779342c14105c38d9a5d0c60f2caa22f5fd1d5525416d9d9b62002049565b50015416815260058d5220918254620027c1565b9055620015808962001571876200154062002923565b8a5163a9059cbb60e01b948101949094526001600160a01b0316948301948552602085015290928391604090910190565b03601f198101835282620020f2565b8762002a91565b6200159162002923565b16958351928352820152a381158015620015af575b83600160025580f35b8392839283928390620015ce575bf11562000f395780388080620015a6565b506108fc620015bd565b634e487b7160e01b8a5260116004528a8afd5b620015fb9160101c168662002797565b0498620014a3565b60405162461bcd60e51b815260048101899052600c818e01526b092dcc6dee4e4cac6e88aa8960a31b6044820152606490fd5b634e487b7160e01b8d5260116004528d8dfd5b60405162461bcd60e51b815260048101869052600a818b0152692737b724b73a32b3b2b960b11b6044820152606490fd5b60405162461bcd60e51b815260048101859052600a818a0152694e6f74466f7253616c6560b01b6044820152606490fd5b506000198501858111620016d2576004620016c860ff9262002049565b50015416620013a4565b634e487b7160e01b885260116004528888fd5b60405162461bcd60e51b815260048101849052600b818901526a151bdad95b94185d5cd95960aa1b6044820152606490fd5b60405162461bcd60e51b815260206004820152600a818701526916995c9bd05b5bdd5b9d60b21b6044820152606490fd5b50346200028e5760203660031901126200028e576004356007548110156200098157620017759062002049565b50805460018201546001600160a01b0390811692911690620017e86200179e6002830162002114565b91620017d960ff6004620017b56003850162002114565b93015416936040519687968752602087015260a0604087015260a0860190620021eb565b908482036060860152620021eb565b90151560808301520390f35b50346200028e57806003193601126200028e57602060ff600154166040519015158152f35b50346200028e5760203660031901126200028e576020620018396200201b565b6040519060018060a01b03807f0000000000000000000000000000000000000000000000000000000000000000169116148152f35b50346200028e57806003193601126200028e57600c546040516001600160a01b039091168152602090f35b50346200028e5760203660031901126200028e576020620018bc60043562001fcc565b905460405160039290921b1c6001600160a01b03168152f35b50346200028e5760203660031901126200028e577f7e85a138e2e866caafbe5c353d8d4c10515f743882c8b9345a9d053ce198959060008051602062004ee48339815191526020620019266200201b565b620019306200248a565b60018060a01b0316806001600160601b0360a01b600b541617600b55685632466163746f727960b81b60405152604051908152a280f35b50346200028e57806003193601126200028e576200198462002242565b60015460ff811615620019c55760ff19166001557f5db9ee0a495bf2e6ff9c91a7834c1ba4fdd244a5e8aa4e537bd38aeae4b073aa60206200111f62002923565b60405162461bcd60e51b815260206004820152601460248201527314185d5cd8589b194e881b9bdd081c185d5cd95960621b6044820152606490fd5b50346200028e576101203660031901126200028e5762001a206200201b565b62001a2a62002004565b9062001a3562002032565b916064359160e4356001600160a01b03811681036200001d5762001a5a858462002c9d565b5062001a728430336001600160a01b03871662002e6c565b62001a8b60843530336001600160a01b03891662002e6c565b60405163095ea7b360e01b81526001600160a01b038316600482015260248101859052602081806044810103818a6001600160a01b0389165af1801562001bd15762001bdc575b5060405163095ea7b360e01b81526001600160a01b0383166004820152608435602482015293602085806044810103818a6001600160a01b038b165af194851562001bd15760609562001bad575b5060405162e8e33760e81b81526001600160a01b0394851660048201529584166024870152604486015260848035606487015260a480359187019190915260c480359187019190915290831690850152610104803560e48601528492909183918791165af18015620004065762001b95575080f35b606090813d811162000d315762000d258183620020f2565b62001bc99060203d60201162000d665762000d558183620020f2565b503862001b20565b6040513d89823e3d90fd5b62001bf89060203d60201162000d665762000d558183620020f2565b503862001ad2565b50346200028e5760403660031901126200028e5762001c1e62002004565b6001600160a01b038062001c3162002923565b169082160362001c4957620009ca906004356200270a565b60405162461bcd60e51b815260206004820152602f60248201527f416363657373436f6e74726f6c3a2063616e206f6e6c792072656e6f756e636560448201526e103937b632b9903337b91039b2b63360891b6064820152608490fd5b50346200028e5760203660031901126200028e576020906040906001600160a01b0362001cd26200201b565b168152600883522054604051908152f35b50346200028e5760403660031901126200028e5760043562001d0462002004565b8183528260205262001d1d6001604085200154620025d7565b81835282602052604083209060018060a01b03809116918260005260205260ff604060002054161562001d4e578380f35b8284528360205260408420826000526020526040600020600160ff1982541617905562001d7a62002923565b16917f2f8788117e7eff1d82e926ec794901d17c78024a50270940304540a733656f0d8480a43880808380f35b50346200028e57806003193601126200028e576020600e54604051908152f35b50346200028e5760203660031901126200028e57600c5481906001600160a01b0316803b1562000e5f57818091602460405180948193632e1a7d4d60e01b835260043560048401525af180156200040657620003f35750f35b50346200028e5760203660031901126200028e57600160406020926004358152808452200154604051908152f35b50346200028e57806003193601126200028e576020600454604051908152f35b50346200028e5760203660031901126200028e5760043590600e548210156200028e576020620018bc8362001fcc565b50346200028e5760403660031901126200028e57806024356001600160401b03811162000e5f5762001ed590369060040162001f99565b600d54909291906001600160a01b0316803b156200097d5762001f209383604051809681958294632f52ebb760e01b8452600435600485015260406024850152604484019162002c57565b03925af18015620004065762001f34575080f35b620009ca90620020c2565b90503462000981576020366003190112620009815760043563ffffffff60e01b81168091036200097d5760209250637965db0b60e01b811490811562001f87575b5015158152f35b6301ffc9a760e01b1490503862001f80565b9181601f840112156200001d578235916001600160401b0383116200001d576020808501948460051b0101116200001d57565b600e548110156200130e57600e6000527fbb7b4a454dc3493923482f07822329ed19e8244eff582cc204f8554c3620c3fd0190600090565b602435906001600160a01b03821682036200001d57565b600435906001600160a01b03821682036200001d57565b604435906001600160a01b03821682036200001d57565b6007548110156200130e576005906007600052027fa66cc928b5edb82af9bd49922954155ab7b0942694bea4ce44661d9a8736c6880190600090565b90600182811c92168015620020b7575b6020831014620020a157565b634e487b7160e01b600052602260045260246000fd5b91607f169162002095565b6001600160401b0381116200094857604052565b608081019081106001600160401b038211176200094857604052565b90601f801991011681019081106001600160401b038211176200094857604052565b90604051918260008254926200212a8462002085565b908184526001948581169081600014620021a157506001146200215a575b50506200215892500383620020f2565b565b9093915060005260209081600020936000915b81831062002188575050620021589350820101388062002148565b855488840185015294850194879450918301916200216d565b9150506200215894506020925060ff191682840152151560051b820101388062002148565b60005b838110620021da5750506000910152565b8181015183820152602001620021c9565b906020916200220681518092818552858086019101620021c6565b601f01601f1916010190565b9181601f840112156200001d578235916001600160401b0383116200001d57602083818601950101116200001d57565b6200224c62002923565b6001600160a01b031660008181527ff7c9542c591017a21c74b6f3fab6263c7952fc0aaf9db4c22a2a04ddc7f8674f6020908152604080832054909391927f65d7a28e3265b37a6474929f336521b332c1681b933f6cb9f3376673440d862a92909160ff1615620022be575050505050565b620022c990620027fd565b91845190620022d882620020d6565b60428252848201926060368537825115620024765760308453825190600191821015620024765790607860218501536041915b8183116200240357505050620023c1576048620023bd938693620023a09362002390985198899376020b1b1b2b9b9a1b7b73a3937b61d1030b1b1b7bab73a1604d1b8a86015262002366815180928c603789019101620021c6565b8401917001034b99036b4b9b9b4b733903937b6329607d1b603784015251809386840190620021c6565b01036028810187520185620020f2565b5192839262461bcd60e51b845260048401526024830190620021eb565b0390fd5b60648486519062461bcd60e51b825280600483015260248201527f537472696e67733a20686578206c656e67746820696e73756666696369656e746044820152fd5b909192600f8116601081101562002462576f181899199a1a9b1b9c1cb0b131b232b360811b901a620024368587620027eb565b5360041c9280156200244e576000190191906200230b565b634e487b7160e01b82526011600452602482fd5b634e487b7160e01b83526032600452602483fd5b634e487b7160e01b81526032600452602490fd5b6200249462002923565b6001600160a01b031660008181527fad3228b676f7d3cd4284a5443f17f1962b36e491b30a40b2405849e597ba5fb5602090815260408083205490939192919060ff1615620024e35750505050565b620024ee90620027fd565b9080845190620024fe82620020d6565b60428252848201926060368537825115620024765760308453825190600191821015620024765790607860218501536041915b8183116200258c57505050620023c1576048620023bd938693620023a09362002390985198899376020b1b1b2b9b9a1b7b73a3937b61d1030b1b1b7bab73a1604d1b8a86015262002366815180928c603789019101620021c6565b909192600f8116601081101562002462576f181899199a1a9b1b9c1cb0b131b232b360811b901a620025bf8587620027eb565b5360041c9280156200244e5760001901919062002531565b620025e162002923565b906000908082526020918083526040938482209060018060a01b031690818352845260ff85832054161562002617575050505050565b6200262290620027fd565b918451906200263182620020d6565b60428252848201926060368537825115620024765760308453825190600191821015620024765790607860218501536041915b818311620026bf57505050620023c1576048620023bd938693620023a09362002390985198899376020b1b1b2b9b9a1b7b73a3937b61d1030b1b1b7bab73a1604d1b8a86015262002366815180928c603789019101620021c6565b909192600f8116601081101562002462576f181899199a1a9b1b9c1cb0b131b232b360811b901a620026f28587620027eb565b5360041c9280156200244e5760001901919062002664565b6000818152602081815260408083206001600160a01b039586168085529252822054919390929160ff1662002740575b50505050565b7ff6391f5c32d9c69d2a47ea670b442974b53935d1edc7fd64eb21e047a839171b9082855284602052604085208486526020526040852060ff1981541690556200278962002923565b169380a4388080806200273a565b81810292918115918404141715620027ab57565b634e487b7160e01b600052601160045260246000fd5b91908201809211620027ab57565b6001600160401b0381116200094857601f01601f191660200190565b9081518110156200130e570160200190565b60405190606082018281106001600160401b038211176200094857604052602a82526020820160403682378251156200130e576030905381516001908110156200130e57607860218401536029905b808211620028a25750506200285e5790565b606460405162461bcd60e51b815260206004820152602060248201527f537472696e67733a20686578206c656e67746820696e73756666696369656e746044820152fd5b9091600f8116601081101562002900576f181899199a1a9b1b9c1cb0b131b232b360811b901a620028d48486620027eb565b5360041c918015620028eb5760001901906200284c565b60246000634e487b7160e01b81526011600452fd5b60246000634e487b7160e01b81526032600452fd5b91908203918211620027ab57565b337f00000000000000000000000000000000000000000000000000000000000000006001600160a01b0316148062002974575b1562002970576013193601368111620027ab573560601c90565b3390565b50601436101562002956565b908060209392818452848401376000828201840152601f01601f1916010190565b929192620029af82620027cf565b91620029bf6040519384620020f2565b8294818452818301116200001d578281602093846000960137010152565b60ff60015416620029ea57565b60405162461bcd60e51b815260206004820152601060248201526f14185d5cd8589b194e881c185d5cd95960821b6044820152606490fd5b600280541462002a325760028055565b60405162461bcd60e51b815260206004820152601f60248201527f5265656e7472616e637947756172643a207265656e7472616e742063616c6c006044820152606490fd5b908160209103126200001d575180151581036200001d5790565b60408051908101916001600160a01b03166001600160401b03831182841017620009485762002b27926040526000806020958685527f5361666545524332303a206c6f772d6c6576656c2063616c6c206661696c656487860152868151910182855af13d1562002bb4573d9162002b0883620027cf565b9262002b186040519485620020f2565b83523d60008785013e62002bb8565b80519082821592831562002b99575b5050501562002b425750565b6084906040519062461bcd60e51b82526004820152602a60248201527f5361666545524332303a204552433230206f7065726174696f6e20646964206e6044820152691bdd081cdd58d8d9595960b21b6064820152fd5b62002bab935082018101910162002a77565b38828162002b36565b6060915b9192901562002c1d575081511562002bce575090565b3b1562002bd85790565b60405162461bcd60e51b815260206004820152601d60248201527f416464726573733a2063616c6c20746f206e6f6e2d636f6e74726163740000006044820152606490fd5b82519091501562002c315750805190602001fd5b60405162461bcd60e51b815260206004820152908190620023bd906024830190620021eb565b81835290916001600160fb1b0383116200001d5760209260051b809284830137010190565b908160209103126200001d57516001600160a01b03811681036200001d5790565b600b546001600160a01b03939290841691821562002e3357818516818616101562002e2c5790935b60405163e6a4390560e01b81526001600160a01b038381166004830152861660248201529460208087604481885afa96871562002dfc5760009762002e08575b508287161562002d17575b5050505050565b6040516364e329cb60e11b81526001600160a01b0385811660048301528316602482015296509293919290918190879060449082906000905af195861562002dfc5760009662002dd8575b5085600e54600160401b81101562000948577f62175b8617bb04b29540329e39d065560ba9c36e1ab18024c9b22838b195ad0493859262002dab836001869501600e5562001fcc565b979091169681549060031b908489831b921b191617905560405195865216941692a3388080808062002d10565b8162002df49297503d881162000f315762000f1f8183620020f2565b943862002d62565b6040513d6000823e3d90fd5b8162002e249298503d891162000f315762000f1f8183620020f2565b953862002d05565b9362002cc5565b60405162461bcd60e51b8152602060048201526011602482015270158c919858dd1bdc9e481b9bdd081cd95d607a1b6044820152606490fd5b6040516323b872dd60e01b60208201526001600160a01b03928316602482015292909116604483015260648083019390935291815260a08101918183106001600160401b038411176200094857620021589260405262002a9156fe6101608060405234620007cd576200201c8038038091620000218285620007d2565b8339810160a082820312620007cd5781516001600160401b038111620007cd57816200004f9184016200081b565b60208301519092906001600160401b038111620007cd5782620000749183016200081b565b60408201516060830151939092906001600160a01b0385168503620007cd5760808201516001600160401b038111620007cd57620000b392016200081b565b604080519195919081016001600160401b03811182821017620005605760405260018152603160f81b602082015281516001600160401b0381116200056057600354600181811c91168015620007c2575b60208210146200053f57601f81116200075c575b50806020601f8211600114620006d257600091620006c6575b508160011b916000199060031b1c1916176003555b82516001600160401b0381116200056057600454600181811c91168015620006bb575b60208210146200053f57601f811162000651575b50806020601f8211600114620005c757600091620005bb575b508160011b916000199060031b1c1916176004555b620001b682620008bf565b61012052620001c58162000a64565b6101405281516020830120908160e0526020815191012080610100524660a052604051917f8b73c3c69bb8fe3d512ecc4cf759cc79239f7b179b0ffacaa9a75d522b39400f6020840152604083015260608201524660808201523060a082015260a081528060c081011060018060401b0360c083011117620005605760c08101604052805160208201206080523060c052620002613362000876565b6001600160a01b03851615620005a7575060039051109081156200059a575b5062000588578015620005765782516001600160401b0381116200056057600a54600181811c9116801562000555575b60208210146200053f57601f8111620004e6575b506020601f82116001146200046d578192939460009262000461575b50508160011b916000199060031b1c191617600a555b33156200041c576002548181018091116200040657600255336000526000602052604060002081815401905560405190815260007fddf252ad1be2c89b69c2b068fc378daa952ba7f163c4a11628f55a4df523b3ef60203393a3600954336001600160a01b0390911603620003c257620003709062000876565b604051611440908162000bbc82396080518161118b015260a05181611257015260c05181611155015260e051816111da01526101005181611200015261012051816106a8015261014051816106d20152f35b606460405162461bcd60e51b815260206004820152602060248201527f4f776e61626c653a2063616c6c6572206973206e6f7420746865206f776e65726044820152fd5b634e487b7160e01b600052601160045260246000fd5b60405162461bcd60e51b815260206004820152601f60248201527f45524332303a206d696e7420746f20746865207a65726f2061646472657373006044820152606490fd5b015190503880620002e0565b600a600090815260008051602062001ffc8339815191529190601f198416905b818110620004cd57509583600195969710620004b3575b505050811b01600a55620002f6565b015160001960f88460031b161c19169055388080620004a4565b9192602060018192868b0151815501940192016200048d565b600a60005260008051602062001ffc833981519152601f830160051c8101916020841062000534575b601f0160051c01905b818110620005275750620002c4565b6000815560010162000518565b90915081906200050f565b634e487b7160e01b600052602260045260246000fd5b90607f1690620002b0565b634e487b7160e01b600052604160045260246000fd5b60405163c16f3a9360e01b8152600490fd5b604051639432241960e01b8152600490fd5b6003915051103862000280565b60c060049163d92e233d60e01b8282015201fd5b90508401513862000196565b6004600090815292507f8a35acfbc15ff81a39ae7d344fd709f28e8600b4aa8c65c6b64bfe7fe36bd19b905b601f198316841062000638576001935082601f198116106200061e575b5050811b01600455620001ab565b86015160001960f88460031b161c19169055388062000610565b86810151825560209384019360019092019101620005f3565b60046000527f8a35acfbc15ff81a39ae7d344fd709f28e8600b4aa8c65c6b64bfe7fe36bd19b601f830160051c81019160208410620006b0575b601f0160051c01905b818110620006a357506200017d565b6000815560010162000694565b90915081906200068b565b90607f169062000169565b90508301513862000131565b6003600090815292507fc2575a0e9e593c00f959f8c92f12db2869c3395a3b0502d05e2516446f71f85b905b601f198316841062000743576001935082601f1981161062000729575b5050811b0160035562000146565b85015160001960f88460031b161c1916905538806200071b565b85810151825560209384019360019092019101620006fe565b60036000527fc2575a0e9e593c00f959f8c92f12db2869c3395a3b0502d05e2516446f71f85b601f830160051c810160208410620007ba575b601f830160051c82018110620007ad57505062000118565b6000815560010162000795565b508062000795565b90607f169062000104565b600080fd5b601f909101601f19168101906001600160401b038211908210176200056057604052565b60005b8381106200080a5750506000910152565b8181015183820152602001620007f9565b81601f82011215620007cd5780516001600160401b03811162000560576040519262000852601f8301601f191660200185620007d2565b81845260208284010111620007cd57620008739160208085019101620007f6565b90565b600980546001600160a01b039283166001600160a01b0319821681179092559091167f8be0079c531659141344cd1fd0a4f28419497f9722a3daafe3b4186f6b6457e0600080a3565b805160209190828110156200093f575090601f825111620008fd5780825192015190808310620008ee57501790565b82600019910360031b1b161790565b604490620009319260405193849263305a27a960e01b845280600485015282519283918260248701528686019101620007f6565b601f01601f19168101030190fd5b6001600160401b03811162000560576005928354926001938481811c9116801562000a59575b838210146200053f57601f811162000a22575b5081601f8411600114620009b85750928293918392600094620009ac575b50501b916000199060031b1c191617905560ff90565b01519250388062000996565b919083601f1981168760005284600020946000905b8883831062000a075750505010620009ed575b505050811b01905560ff90565b015160001960f88460031b161c19169055388080620009e0565b858701518855909601959485019487935090810190620009cd565b8560005284601f846000209201871c820191601f8601881c015b82811062000a4c57505062000978565b6000815501859062000a3c565b90607f169062000965565b80516020908181101562000a915750601f825111620008fd5780825192015190808310620008ee57501790565b906001600160401b0382116200056057600654926001938481811c9116801562000bb0575b838210146200053f57601f811162000b76575b5081601f841160011462000b0a575092829391839260009462000afe575b50501b916000199060031b1c19161760065560ff90565b01519250388062000ae7565b919083601f198116600660005284600020946000905b8883831062000b5b575050501062000b41575b505050811b0160065560ff90565b015160001960f88460031b161c1916905538808062000b33565b85870151885590960195948501948793509081019062000b20565b600660005284601f84600020920160051c820191601f860160051c015b82811062000ba357505062000ac9565b6000815501859062000b93565b90607f169062000ab656fe6080604081815260048036101561001557600080fd5b600092833560e01c90816306fdde0314610b3a57508063095ea7b314610b1057806318160ddd14610af157806323b872dd14610a27578063313ce56714610a0b5780633644e515146109e757806339509351146109805780633c130d901461087a57806370a0823114610843578063715018a6146107e65780637ecebe00146107ae57806384b0196e146106915780638da5cb5b1461066857806395d89b4114610594578063a457c2d7146104ed578063a9059cbb146104bc578063c623674f146103d3578063d505accf1461021a578063dd62ed3e146101cd5763f2fde38b146100ff57600080fd5b346101c95760203660031901126101c957610118610c22565b90610121610ce1565b6001600160a01b03918216928315610177575050600954826bffffffffffffffffffffffff60a01b821617600955167f8be0079c531659141344cd1fd0a4f28419497f9722a3daafe3b4186f6b6457e08380a380f35b906020608492519162461bcd60e51b8352820152602660248201527f4f776e61626c653a206e6577206f776e657220697320746865207a65726f206160448201526564647265737360d01b6064820152fd5b8280fd5b505034610216578060031936011261021657806020926101eb610c22565b6101f3610c3d565b6001600160a01b0391821683526001865283832091168252845220549051908152f35b5080fd5b508290346102165760e036600319011261021657610236610c22565b61023e610c3d565b906044359260643560843560ff811681036103cf5781421161038c5760018060a01b0390818516928389526007602052898920908154916001830190558a519060208201927f6e71edae12b1b97f4d1f60370fef10105fa2faae0126114a169c64845d6126c98452868d840152858a1660608401528a608084015260a083015260c082015260c0815260e0810181811067ffffffffffffffff821117610379578b5251902061032191610319916102f3611152565b908c519161190160f01b83526002830152602282015260c43591604260a43592206110c3565b919091610fa9565b16036103365750610333939450610ea7565b80f35b606490602087519162461bcd60e51b8352820152601e60248201527f45524332305065726d69743a20696e76616c6964207369676e617475726500006044820152fd5b634e487b7160e01b8b526041875260248bfd5b875162461bcd60e51b8152602081850152601d60248201527f45524332305065726d69743a206578706972656420646561646c696e650000006044820152606490fd5b8680fd5b50503461021657816003193601126102165780519082600a546103f581610c53565b808552916001918083169081156104945750600114610437575b50505061042182610433940383610cbf565b51918291602083526020830190610be2565b0390f35b9450600a85527fc65a7bb8d6351c1cf70c95a316cc6a92839c986682d98bc35f958f4883f9d2a85b82861061047c57505050610421826020610433958201019461040f565b8054602087870181019190915290950194810161045f565b61043397508693506020925061042194915060ff191682840152151560051b8201019461040f565b5050346102165780600319360112610216576020906104e66104dc610c22565b6024359033610d39565b5160018152f35b508234610591578260031936011261059157610507610c22565b918360243592338152600160205281812060018060a01b0386168252602052205490828210610540576020856104e68585038733610ea7565b608490602086519162461bcd60e51b8352820152602560248201527f45524332303a2064656372656173656420616c6c6f77616e63652062656c6f77604482015264207a65726f60d81b6064820152fd5b80fd5b5090346101c957826003193601126101c957805191838154906105b682610c53565b8086529260019280841690811561063d57506001146105e1575b6104338686610421828b0383610cbf565b815294507f8a35acfbc15ff81a39ae7d344fd709f28e8600b4aa8c65c6b64bfe7fe36bd19b5b828610610625575050506104218260206104339582010194386105d0565b80546020878701810191909152909501948101610607565b905061043397508693506020925061042194915060ff191682840152151560051b82010194386105d0565b50503461021657816003193601126102165760095490516001600160a01b039091168152602090f35b5090346101c957826003193601126101c9576106cc7f000000000000000000000000000000000000000000000000000000000000000061127d565b926106f67f0000000000000000000000000000000000000000000000000000000000000000611379565b908251926020928385019585871067ffffffffffffffff88111761079b57509280610751838896610744998b9996528686528151998a99600f60f81b8b5260e0868c015260e08b0190610be2565b91898303908a0152610be2565b924660608801523060808801528460a088015286840360c088015251928381520193925b82811061078457505050500390f35b835185528695509381019392810192600101610775565b634e487b7160e01b845260419052602483fd5b5050346102165760203660031901126102165760209181906001600160a01b036107d6610c22565b1681526007845220549051908152f35b83346105915780600319360112610591576107ff610ce1565b600980546001600160a01b0319811690915581906001600160a01b03167f8be0079c531659141344cd1fd0a4f28419497f9722a3daafe3b4186f6b6457e08280a380f35b5050346102165760203660031901126102165760209181906001600160a01b0361086b610c22565b16815280845220549051908152f35b8284346105915780600319360112610591578151918260209266697066733a2f2f60c81b8483015280600a54906108b082610c53565b9160019081811690811561095557506001146108f0575b50505061043392916108e19103601f198101865285610cbf565b51928284938452830190610be2565b8695949350600a82527fc65a7bb8d6351c1cf70c95a316cc6a92839c986682d98bc35f958f4883f9d2a85b83831061093c575093945091925082016027019050816108e16104336108c7565b80546027848b010152879689955090920191810161091b565b90506108e1945060279250610433969593915060ff19168284015280151502820101918193946108c7565b50913461059157816003193601126105915761099a610c22565b338252600160209081528383206001600160a01b03831684529052828220546024358101929083106109d4576020846104e6858533610ea7565b634e487b7160e01b815260118552602490fd5b505034610216578160031936011261021657602090610a04611152565b9051908152f35b5050346102165781600319360112610216576020905160128152f35b5082903461021657606036600319011261021657610a43610c22565b610a4b610c3d565b91846044359460018060a01b038416815260016020528181203382526020522054906000198203610a85575b6020866104e6878787610d39565b848210610aae5750918391610aa3602096956104e695033383610ea7565b919394819350610a77565b606490602087519162461bcd60e51b8352820152601d60248201527f45524332303a20696e73756666696369656e7420616c6c6f77616e63650000006044820152fd5b5050346102165781600319360112610216576020906002549051908152f35b5050346102165780600319360112610216576020906104e6610b30610c22565b6024359033610ea7565b849084346101c957826003193601126101c95782600354610b5a81610c53565b808552916001918083169081156104945750600114610b855750505061042182610433940383610cbf565b9450600385527fc2575a0e9e593c00f959f8c92f12db2869c3395a3b0502d05e2516446f71f85b5b828610610bca57505050610421826020610433958201019461040f565b80546020878701810191909152909501948101610bad565b919082519283825260005b848110610c0e575050826000602080949584010152601f8019910116010190565b602081830181015184830182015201610bed565b600435906001600160a01b0382168203610c3857565b600080fd5b602435906001600160a01b0382168203610c3857565b90600182811c92168015610c83575b6020831014610c6d57565b634e487b7160e01b600052602260045260246000fd5b91607f1691610c62565b6040810190811067ffffffffffffffff821117610ca957604052565b634e487b7160e01b600052604160045260246000fd5b90601f8019910116810190811067ffffffffffffffff821117610ca957604052565b6009546001600160a01b03163303610cf557565b606460405162461bcd60e51b815260206004820152602060248201527f4f776e61626c653a2063616c6c6572206973206e6f7420746865206f776e65726044820152fd5b6001600160a01b03908116918215610e545716918215610e0357600082815280602052604081205491808310610daf57604082827fddf252ad1be2c89b69c2b068fc378daa952ba7f163c4a11628f55a4df523b3ef958760209652828652038282205586815220818154019055604051908152a3565b60405162461bcd60e51b815260206004820152602660248201527f45524332303a207472616e7366657220616d6f756e7420657863656564732062604482015265616c616e636560d01b6064820152608490fd5b60405162461bcd60e51b815260206004820152602360248201527f45524332303a207472616e7366657220746f20746865207a65726f206164647260448201526265737360e81b6064820152608490fd5b60405162461bcd60e51b815260206004820152602560248201527f45524332303a207472616e736665722066726f6d20746865207a65726f206164604482015264647265737360d81b6064820152608490fd5b6001600160a01b03908116918215610f585716918215610f085760207f8c5be1e5ebec7d5bd14f71427d1e84f3dd0314c0f7b2291e5b200ac8c7c3b925918360005260018252604060002085600052825280604060002055604051908152a3565b60405162461bcd60e51b815260206004820152602260248201527f45524332303a20617070726f766520746f20746865207a65726f206164647265604482015261737360f01b6064820152608490fd5b60405162461bcd60e51b8152602060048201526024808201527f45524332303a20617070726f76652066726f6d20746865207a65726f206164646044820152637265737360e01b6064820152608490fd5b60058110156110ad5780610fba5750565b600181036110075760405162461bcd60e51b815260206004820152601860248201527f45434453413a20696e76616c6964207369676e617475726500000000000000006044820152606490fd5b600281036110545760405162461bcd60e51b815260206004820152601f60248201527f45434453413a20696e76616c6964207369676e6174757265206c656e677468006044820152606490fd5b60031461105d57565b60405162461bcd60e51b815260206004820152602260248201527f45434453413a20696e76616c6964207369676e6174757265202773272076616c604482015261756560f01b6064820152608490fd5b634e487b7160e01b600052602160045260246000fd5b9291907f7fffffffffffffffffffffffffffffff5d576e7357a4501ddfe92f46681b20a083116111465791608094939160ff602094604051948552168484015260408301526060820152600093849182805260015afa156111395781516001600160a01b03811615611133579190565b50600190565b50604051903d90823e3d90fd5b50505050600090600390565b307f00000000000000000000000000000000000000000000000000000000000000006001600160a01b03161480611254575b156111ad577f000000000000000000000000000000000000000000000000000000000000000090565b60405160208101907f8b73c3c69bb8fe3d512ecc4cf759cc79239f7b179b0ffacaa9a75d522b39400f82527f000000000000000000000000000000000000000000000000000000000000000060408201527f000000000000000000000000000000000000000000000000000000000000000060608201524660808201523060a082015260a0815260c0810181811067ffffffffffffffff821117610ca95760405251902090565b507f00000000000000000000000000000000000000000000000000000000000000004614611184565b60ff81146112bb5760ff811690601f82116112a9576040519161129f83610c8d565b8252602082015290565b604051632cd44ac360e21b8152600490fd5b506040516005548160006112ce83610c53565b8083529260019081811690811561135757506001146112f8575b506112f592500382610cbf565b90565b6005600090815291507f036b6384b5eca791c62761152d0c79bb0604c104a5fb6f4eb0703f3154bb3db05b84831061133c57506112f59350508101602001386112e8565b81935090816020925483858901015201910190918492611323565b9050602092506112f594915060ff191682840152151560051b820101386112e8565b60ff811461139b5760ff811690601f82116112a9576040519161129f83610c8d565b506040516006548160006113ae83610c53565b8083529260019081811690811561135757506001146113d457506112f592500382610cbf565b6006600090815291507ff652222313e28459528d920b65115c16c04f3efc82aaedc97be59f3f377c0d3f5b84831061141857506112f59350508101602001386112e8565b819350908160209254838589010152019101909184926113ff56fea164736f6c6343000814000ac65a7bb8d6351c1cf70c95a316cc6a92839c986682d98bc35f958f4883f9d2a8ebcfeb887c9fe4eaee3b330008d80b3d2c92a4fd53a9ba188170c974e31278e8a164736f6c6343000814000a2f8788117e7eff1d82e926ec794901d17c78024a50270940304540a733656f0d","opcodes":"PUSH1 0xE0 CALLVALUE PUSH3 0x2EF JUMPI PUSH1 0x1F PUSH3 0x529F CODESIZE DUP2 SWAP1 SUB SWAP2 DUP3 ADD PUSH1 0x1F NOT AND DUP4 ADD SWAP3 SWAP2 SWAP1 PUSH1 0x1 PUSH1 0x1 PUSH1 0x40 SHL SUB DUP5 GT DUP4 DUP6 LT OR PUSH3 0x2F4 JUMPI DUP2 PUSH1 0xC0 SWAP3 DUP5 SWAP3 PUSH1 0x40 SWAP7 DUP8 MSTORE DUP4 CODECOPY DUP2 ADD SUB SLT PUSH3 0x2EF JUMPI PUSH3 0x51 DUP2 PUSH3 0x30A JUMP JUMPDEST SWAP1 PUSH1 0x20 SWAP2 PUSH3 0x62 DUP4 DUP4 ADD PUSH3 0x31F JUMP JUMPDEST SWAP2 PUSH3 0x70 DUP6 DUP3 ADD PUSH3 0x31F JUMP JUMPDEST SWAP1 PUSH1 0x60 DUP2 ADD MLOAD PUSH3 0x89 PUSH1 0xA0 PUSH1 0x80 DUP5 ADD MLOAD SWAP4 ADD PUSH3 0x30A JUMP JUMPDEST SWAP4 PUSH1 0x80 MSTORE PUSH1 0xFF NOT SWAP3 PUSH1 0x1 SWAP6 DUP5 DUP8 SLOAD AND DUP8 SSTORE DUP7 PUSH1 0x2 SSTORE PUSH2 0xFFFF DUP1 SWAP2 AND SWAP1 DUP1 DUP4 AND DUP3 ADD SWAP1 DUP1 DUP3 GT PUSH3 0x2D9 JUMPI PUSH2 0x2710 SWAP2 AND LT ISZERO PUSH3 0x2A7 JUMPI PUSH4 0xFFFF0000 PUSH1 0x3 SLOAD SWAP3 PUSH1 0x10 SHL AND SWAP2 PUSH4 0xFFFFFFFF NOT AND OR OR PUSH1 0x3 SSTORE PUSH1 0xA0 MSTORE PUSH1 0xC0 MSTORE PUSH1 0x1 DUP1 PUSH1 0xA0 SHL SUB DUP1 SWAP3 AND PUSH1 0x1 DUP1 PUSH1 0xA0 SHL SUB NOT PUSH1 0xB SLOAD AND OR PUSH1 0xB SSTORE PUSH1 0x0 SWAP3 DUP4 DUP1 MSTORE DUP4 DUP6 MSTORE DUP6 DUP5 KECCAK256 CALLER DUP6 MSTORE DUP6 MSTORE PUSH1 0xFF DUP7 DUP6 KECCAK256 SLOAD AND ISZERO PUSH3 0x267 JUMPI JUMPDEST PUSH32 0x65D7A28E3265B37A6474929F336521B332C1681B933F6CB9F3376673440D862A DUP1 DUP6 MSTORE DUP5 DUP7 MSTORE DUP7 DUP6 KECCAK256 CALLER DUP7 MSTORE DUP7 MSTORE PUSH1 0xFF DUP8 DUP7 KECCAK256 SLOAD AND ISZERO PUSH3 0x225 JUMPI JUMPDEST POP PUSH32 0x97667070C54EF182B0F5858B034BEAC1B6F3089AA2D3188BB1E8929F4FA9B929 SWAP5 DUP6 DUP6 MSTORE DUP5 DUP2 MSTORE DUP7 DUP6 KECCAK256 CALLER DUP7 MSTORE DUP2 MSTORE PUSH1 0xFF DUP8 DUP7 KECCAK256 SLOAD AND ISZERO PUSH3 0x1E1 JUMPI JUMPDEST DUP7 MLOAD PUSH2 0x4F10 SWAP1 DUP2 PUSH3 0x36F DUP3 CODECOPY PUSH1 0x80 MLOAD DUP2 DUP2 DUP2 PUSH2 0x1847 ADD MSTORE PUSH2 0x2926 ADD MSTORE PUSH1 0xA0 MLOAD DUP2 DUP2 DUP2 PUSH2 0x9E7 ADD MSTORE DUP2 DUP2 PUSH2 0xFB5 ADD MSTORE PUSH2 0x13C8 ADD MSTORE PUSH1 0xC0 MLOAD DUP2 DUP2 DUP2 PUSH2 0xF8E ADD MSTORE DUP2 DUP2 PUSH2 0x11E6 ADD MSTORE PUSH2 0x1430 ADD MSTORE RETURN JUMPDEST DUP6 DUP6 MSTORE DUP5 DUP2 MSTORE DUP7 DUP6 KECCAK256 SWAP1 CALLER DUP7 MSTORE MSTORE DUP6 DUP5 KECCAK256 SWAP2 DUP3 SLOAD AND OR SWAP1 SSTORE PUSH3 0x203 PUSH3 0x32F JUMP JUMPDEST AND SWAP2 PUSH1 0x0 DUP1 MLOAD PUSH1 0x20 PUSH3 0x527F DUP4 CODECOPY DUP2 MLOAD SWAP2 MSTORE CALLER SWAP3 DUP1 LOG4 CODESIZE DUP1 DUP1 DUP1 DUP1 DUP1 PUSH3 0x194 JUMP JUMPDEST DUP1 DUP6 MSTORE DUP5 DUP7 MSTORE DUP7 DUP6 KECCAK256 CALLER DUP7 MSTORE DUP7 MSTORE DUP7 DUP6 KECCAK256 DUP3 DUP5 DUP3 SLOAD AND OR SWAP1 SSTORE DUP4 PUSH3 0x249 PUSH3 0x32F JUMP JUMPDEST AND SWAP1 CALLER SWAP1 PUSH1 0x0 DUP1 MLOAD PUSH1 0x20 PUSH3 0x527F DUP4 CODECOPY DUP2 MLOAD SWAP2 MSTORE DUP8 DUP1 LOG4 CODESIZE PUSH3 0x155 JUMP JUMPDEST DUP4 DUP1 MSTORE DUP4 DUP6 MSTORE DUP6 DUP5 KECCAK256 CALLER DUP6 MSTORE DUP6 MSTORE DUP6 DUP5 KECCAK256 DUP2 DUP4 DUP3 SLOAD AND OR SWAP1 SSTORE DUP3 PUSH3 0x28B PUSH3 0x32F JUMP JUMPDEST AND CALLER DUP6 PUSH1 0x0 DUP1 MLOAD PUSH1 0x20 PUSH3 0x527F DUP4 CODECOPY DUP2 MLOAD SWAP2 MSTORE DUP2 DUP1 LOG4 PUSH3 0x118 JUMP JUMPDEST DUP9 MLOAD PUSH3 0x461BCD PUSH1 0xE5 SHL DUP2 MSTORE PUSH1 0x4 DUP2 ADD DUP10 SWAP1 MSTORE PUSH1 0xB PUSH1 0x24 DUP3 ADD MSTORE PUSH11 0x8CCACAE6A8DEDE90D2CED PUSH1 0xAB SHL PUSH1 0x44 DUP3 ADD MSTORE PUSH1 0x64 SWAP1 REVERT JUMPDEST PUSH4 0x4E487B71 PUSH1 0xE0 SHL PUSH1 0x0 MSTORE PUSH1 0x11 PUSH1 0x4 MSTORE PUSH1 0x24 PUSH1 0x0 REVERT JUMPDEST PUSH1 0x0 DUP1 REVERT JUMPDEST PUSH4 0x4E487B71 PUSH1 0xE0 SHL PUSH1 0x0 MSTORE PUSH1 0x41 PUSH1 0x4 MSTORE PUSH1 0x24 PUSH1 0x0 REVERT JUMPDEST MLOAD SWAP1 PUSH1 0x1 PUSH1 0x1 PUSH1 0xA0 SHL SUB DUP3 AND DUP3 SUB PUSH3 0x2EF JUMPI JUMP JUMPDEST MLOAD SWAP1 PUSH2 0xFFFF DUP3 AND DUP3 SUB PUSH3 0x2EF JUMPI JUMP JUMPDEST PUSH1 0x80 MLOAD PUSH1 0x1 PUSH1 0x1 PUSH1 0xA0 SHL SUB AND CALLER EQ DUP1 PUSH3 0x362 JUMPI JUMPDEST ISZERO PUSH3 0x35E JUMPI PUSH1 0x13 NOT CALLDATASIZE ADD CALLDATASIZE DUP2 GT PUSH3 0x2D9 JUMPI CALLDATALOAD PUSH1 0x60 SHR SWAP1 JUMP JUMPDEST CALLER SWAP1 JUMP JUMPDEST POP PUSH1 0x14 CALLDATASIZE LT ISZERO PUSH3 0x344 JUMP INVALID PUSH1 0x80 DUP1 PUSH1 0x40 MSTORE PUSH1 0x4 CALLDATASIZE LT ISZERO PUSH3 0x22 JUMPI JUMPDEST POP CALLDATASIZE ISZERO PUSH3 0x1D JUMPI PUSH1 0x0 DUP1 REVERT JUMPDEST PUSH1 0x0 DUP1 REVERT JUMPDEST PUSH1 0x0 SWAP1 DUP2 CALLDATALOAD PUSH1 0xE0 SHR SWAP1 DUP2 PUSH4 0x1FFC9A7 EQ PUSH3 0x1F3F JUMPI POP DUP1 PUSH4 0xBCAE1AC EQ PUSH3 0x1E9E JUMPI DUP1 PUSH4 0x1AAC52C7 EQ PUSH3 0x1E6E JUMPI DUP1 PUSH4 0x22163B86 EQ PUSH3 0x1E4E JUMPI DUP1 PUSH4 0x248A9CA3 EQ PUSH3 0x1E20 JUMPI DUP1 PUSH4 0x25D5971F EQ PUSH3 0x1DC7 JUMPI DUP1 PUSH4 0x296A65D8 EQ PUSH3 0x1DA7 JUMPI DUP1 PUSH4 0x2F2FF15D EQ PUSH3 0x1CE3 JUMPI DUP1 PUSH4 0x35A62E68 EQ PUSH3 0x1CA6 JUMPI DUP1 PUSH4 0x36568ABE EQ PUSH3 0x1C00 JUMPI DUP1 PUSH4 0x372C28B4 EQ PUSH3 0x1A01 JUMPI DUP1 PUSH4 0x3F4BA83A EQ PUSH3 0x1967 JUMPI DUP1 PUSH4 0x474F0777 EQ PUSH3 0x18D5 JUMPI DUP1 PUSH4 0x4D160506 EQ PUSH3 0x1899 JUMPI DUP1 PUSH4 0x504B82BF EQ PUSH3 0x186E JUMPI DUP1 PUSH4 0x572B6C05 EQ PUSH3 0x1819 JUMPI DUP1 PUSH4 0x5C975ABB EQ PUSH3 0x17F4 JUMPI DUP1 PUSH4 0x634282AF EQ PUSH3 0x1748 JUMPI DUP1 PUSH4 0x692BF4A8 EQ PUSH3 0x1324 JUMPI DUP1 PUSH4 0x7547C7A3 EQ PUSH3 0x1258 JUMPI DUP1 PUSH4 0x768C0442 EQ PUSH3 0x122D JUMPI DUP1 PUSH4 0x7B573C54 EQ PUSH3 0x1209 JUMPI DUP1 PUSH4 0x83CAF275 EQ PUSH3 0x11CC JUMPI DUP1 PUSH4 0x83F26F38 EQ PUSH3 0x1133 JUMPI DUP1 PUSH4 0x8456CB59 EQ PUSH3 0x10BF JUMPI DUP1 PUSH4 0x8995881D EQ PUSH3 0x107C JUMPI DUP1 PUSH4 0x8FEA31B0 EQ PUSH3 0x1051 JUMPI DUP1 PUSH4 0x9106D7BA EQ PUSH3 0x1031 JUMPI DUP1 PUSH4 0x91D14854 EQ PUSH3 0xFE2 JUMPI DUP1 PUSH4 0x9D1B464A EQ PUSH3 0xF6C JUMPI DUP1 PUSH4 0x9DF02660 EQ PUSH3 0xE62 JUMPI DUP1 PUSH4 0x9FD3AF8B EQ PUSH3 0xE0F JUMPI DUP1 PUSH4 0xA0429DE6 EQ PUSH3 0xD79 JUMPI DUP1 PUSH4 0xA12AD0E6 EQ PUSH3 0xC01 JUMPI DUP1 PUSH4 0xA217FDDF EQ PUSH3 0xBE3 JUMPI DUP1 PUSH4 0xB4B57C39 EQ PUSH3 0xBB8 JUMPI DUP1 PUSH4 0xC4F3E9D7 EQ PUSH3 0xB25 JUMPI DUP1 PUSH4 0xC52D441A EQ PUSH3 0xADE JUMPI DUP1 PUSH4 0xC60B494F EQ PUSH3 0xA47 JUMPI DUP1 PUSH4 0xC748713E EQ PUSH3 0xA0A JUMPI DUP1 PUSH4 0xC7876EA4 EQ PUSH3 0x9CD JUMPI DUP1 PUSH4 0xD547741F EQ PUSH3 0x985 JUMPI DUP1 PUSH4 0xD634B419 EQ PUSH3 0x419 JUMPI DUP1 PUSH4 0xD9D0A5BE EQ PUSH3 0x332 JUMPI DUP1 PUSH4 0xDC4EC9BE EQ PUSH3 0x30B JUMPI DUP1 PUSH4 0xE63AB1E9 EQ PUSH3 0x2CE JUMPI DUP1 PUSH4 0xF5B541A6 EQ PUSH3 0x291 JUMPI PUSH4 0xFF96092A SUB PUSH3 0x10 JUMPI CALLVALUE PUSH3 0x28E JUMPI DUP1 PUSH1 0x3 NOT CALLDATASIZE ADD SLT PUSH3 0x28E JUMPI PUSH1 0x20 PUSH2 0xFFFF PUSH1 0x3 SLOAD AND PUSH1 0x40 MLOAD SWAP1 DUP2 MSTORE RETURN JUMPDEST DUP1 REVERT JUMPDEST POP CALLVALUE PUSH3 0x28E JUMPI DUP1 PUSH1 0x3 NOT CALLDATASIZE ADD SLT PUSH3 0x28E JUMPI PUSH1 0x20 PUSH1 0x40 MLOAD PUSH32 0x97667070C54EF182B0F5858B034BEAC1B6F3089AA2D3188BB1E8929F4FA9B929 DUP2 MSTORE RETURN JUMPDEST POP CALLVALUE PUSH3 0x28E JUMPI DUP1 PUSH1 0x3 NOT CALLDATASIZE ADD SLT PUSH3 0x28E JUMPI PUSH1 0x20 PUSH1 0x40 MLOAD PUSH32 0x65D7A28E3265B37A6474929F336521B332C1681B933F6CB9F3376673440D862A DUP2 MSTORE RETURN JUMPDEST POP CALLVALUE PUSH3 0x28E JUMPI DUP1 PUSH1 0x3 NOT CALLDATASIZE ADD SLT PUSH3 0x28E JUMPI PUSH1 0x20 PUSH2 0xFFFF PUSH1 0x3 SLOAD PUSH1 0x10 SHR AND PUSH1 0x40 MLOAD SWAP1 DUP2 MSTORE RETURN JUMPDEST POP PUSH1 0xA0 CALLDATASIZE PUSH1 0x3 NOT ADD SLT PUSH3 0x28E JUMPI PUSH3 0x34A PUSH3 0x201B JUMP JUMPDEST PUSH1 0x64 CALLDATALOAD PUSH1 0x1 PUSH1 0x1 PUSH1 0xA0 SHL SUB DUP2 DUP2 AND SWAP3 SWAP2 DUP4 SWAP1 SUB PUSH3 0x1D JUMPI DUP4 SWAP3 PUSH1 0x84 CALLDATALOAD PUSH1 0x1 PUSH1 0x1 PUSH1 0x40 SHL SUB DUP2 GT PUSH3 0x415 JUMPI PUSH3 0x386 SWAP1 CALLDATASIZE SWAP1 PUSH1 0x4 ADD PUSH3 0x1F99 JUMP JUMPDEST SWAP4 SWAP1 SWAP3 DUP1 PUSH1 0xA SLOAD AND SWAP2 DUP3 EXTCODESIZE ISZERO PUSH3 0x411 JUMPI PUSH3 0x3DE DUP8 SWAP6 PUSH1 0x40 MLOAD SWAP8 DUP9 SWAP7 DUP8 SWAP6 DUP7 SWAP6 PUSH4 0x6CE852DF PUSH1 0xE1 SHL DUP8 MSTORE AND PUSH1 0x4 DUP7 ADD MSTORE PUSH1 0x24 CALLDATALOAD PUSH1 0x24 DUP7 ADD MSTORE PUSH1 0x44 CALLDATALOAD PUSH1 0x44 DUP7 ADD MSTORE PUSH1 0x64 DUP6 ADD MSTORE PUSH1 0xA0 PUSH1 0x84 DUP6 ADD MSTORE PUSH1 0xA4 DUP5 ADD SWAP2 PUSH3 0x2C57 JUMP JUMPDEST SUB SWAP2 CALLVALUE SWAP1 GAS CALL DUP1 ISZERO PUSH3 0x406 JUMPI PUSH3 0x3F3 JUMPI POP RETURN JUMPDEST PUSH3 0x3FE SWAP1 PUSH3 0x20C2 JUMP JUMPDEST PUSH3 0x28E JUMPI DUP1 RETURN JUMPDEST PUSH1 0x40 MLOAD RETURNDATASIZE DUP5 DUP3 RETURNDATACOPY RETURNDATASIZE SWAP1 REVERT JUMPDEST DUP7 DUP1 REVERT JUMPDEST DUP5 DUP1 REVERT JUMPDEST POP CALLVALUE PUSH3 0x28E JUMPI PUSH1 0xC0 CALLDATASIZE PUSH1 0x3 NOT ADD SLT PUSH3 0x28E JUMPI PUSH1 0x4 CALLDATALOAD PUSH1 0x1 PUSH1 0x1 PUSH1 0x40 SHL SUB DUP2 GT PUSH3 0x981 JUMPI PUSH3 0x44F SWAP1 CALLDATASIZE SWAP1 PUSH1 0x4 ADD PUSH3 0x2212 JUMP JUMPDEST SWAP2 SWAP1 PUSH1 0x24 CALLDATALOAD PUSH1 0x1 PUSH1 0x1 PUSH1 0x40 SHL SUB DUP2 GT PUSH3 0x97D JUMPI PUSH3 0x473 SWAP1 CALLDATASIZE SWAP1 PUSH1 0x4 ADD PUSH3 0x2212 JUMP JUMPDEST SWAP1 SWAP4 PUSH1 0x44 CALLDATALOAD PUSH1 0x1 PUSH1 0x1 PUSH1 0x40 SHL SUB DUP2 GT PUSH3 0x415 JUMPI PUSH3 0x497 SWAP1 CALLDATASIZE SWAP1 PUSH1 0x4 ADD PUSH3 0x2212 JUMP JUMPDEST SWAP4 SWAP1 SWAP3 PUSH1 0xA4 CALLDATALOAD PUSH1 0x1 PUSH1 0x1 PUSH1 0x40 SHL SUB DUP2 GT PUSH3 0x411 JUMPI PUSH3 0x4BC SWAP1 CALLDATASIZE SWAP1 PUSH1 0x4 ADD PUSH3 0x2212 JUMP JUMPDEST SWAP4 SWAP1 SWAP8 PUSH3 0x4C9 PUSH3 0x29DD JUMP JUMPDEST PUSH3 0x4D3 PUSH3 0x2A22 JUMP JUMPDEST PUSH3 0x4DD PUSH3 0x2923 JUMP JUMPDEST SWAP3 PUSH1 0x40 MLOAD SWAP5 PUSH2 0x201C SWAP4 DUP5 DUP8 ADD SWAP5 DUP8 DUP7 LT PUSH1 0x1 PUSH1 0x1 PUSH1 0x40 SHL SUB DUP8 GT OR PUSH3 0x969 JUMPI SWAP3 PUSH3 0x526 PUSH3 0x535 SWAP4 DUP10 SWAP9 SWAP7 SWAP4 PUSH3 0x55E SWAP9 SWAP7 PUSH3 0x2EC8 DUP12 CODECOPY PUSH1 0xA0 DUP8 MSTORE PUSH1 0xA0 DUP8 ADD SWAP2 PUSH3 0x2980 JUMP JUMPDEST SWAP2 DUP5 DUP4 SUB PUSH1 0x20 DUP7 ADD MSTORE PUSH3 0x2980 JUMP JUMPDEST PUSH1 0x64 CALLDATALOAD PUSH1 0x40 DUP4 ADD MSTORE PUSH1 0x1 PUSH1 0x1 PUSH1 0xA0 SHL SUB SWAP1 SWAP3 AND PUSH1 0x60 DUP3 ADD MSTORE DUP1 DUP3 SUB PUSH1 0x80 SWAP1 SWAP2 ADD MSTORE DUP5 DUP10 PUSH3 0x2980 JUMP JUMPDEST SUB SWAP1 DUP6 CREATE SWAP3 DUP4 ISZERO PUSH3 0x95E JUMPI PUSH3 0x574 PUSH3 0x2923 JUMP JUMPDEST SWAP6 PUSH1 0x40 MLOAD SWAP4 PUSH1 0xA0 DUP6 ADD SWAP1 DUP6 DUP3 LT PUSH1 0x1 PUSH1 0x1 PUSH1 0x40 SHL SUB DUP4 GT OR PUSH3 0x948 JUMPI PUSH3 0x5D0 SWAP4 PUSH3 0x5C0 SWAP3 PUSH1 0x40 MSTORE PUSH1 0x1 DUP1 PUSH1 0xA0 SHL SUB DUP9 AND DUP8 MSTORE PUSH1 0x20 DUP8 ADD SWAP10 PUSH1 0x1 DUP1 PUSH1 0xA0 SHL SUB AND DUP11 MSTORE CALLDATASIZE SWAP2 PUSH3 0x29A1 JUMP JUMPDEST SWAP3 PUSH1 0x40 DUP6 ADD SWAP4 DUP5 MSTORE CALLDATASIZE SWAP2 PUSH3 0x29A1 JUMP JUMPDEST PUSH1 0x60 DUP4 ADD MSTORE PUSH1 0x1 PUSH1 0x80 DUP4 ADD MSTORE PUSH1 0x7 SLOAD PUSH1 0x1 PUSH1 0x40 SHL DUP2 LT ISZERO PUSH3 0x84B JUMPI DUP1 PUSH1 0x1 PUSH3 0x5FE SWAP3 ADD PUSH1 0x7 SSTORE PUSH3 0x2049 JUMP JUMPDEST SWAP6 SWAP1 SWAP6 PUSH3 0x934 JUMPI DUP3 MLOAD DUP7 SLOAD PUSH1 0x1 PUSH1 0x1 PUSH1 0xA0 SHL SUB NOT SWAP1 DUP2 AND PUSH1 0x1 PUSH1 0x1 PUSH1 0xA0 SHL SUB SWAP3 DUP4 AND OR DUP9 SSTORE SWAP2 MLOAD PUSH1 0x1 DUP9 ADD DUP1 SLOAD SWAP1 SWAP4 AND SWAP2 AND OR SWAP1 SSTORE MLOAD DUP1 MLOAD SWAP1 PUSH1 0x1 PUSH1 0x1 PUSH1 0x40 SHL SUB DUP3 GT PUSH3 0x84B JUMPI DUP2 SWAP1 PUSH3 0x658 PUSH1 0x2 DUP9 ADD SLOAD PUSH3 0x2085 JUMP JUMPDEST PUSH1 0x1F DUP2 GT PUSH3 0x8DF JUMPI JUMPDEST POP PUSH1 0x20 SWAP1 PUSH1 0x1F DUP4 GT PUSH1 0x1 EQ PUSH3 0x86B JUMPI DUP7 SWAP3 PUSH3 0x85F JUMPI JUMPDEST POP POP DUP2 PUSH1 0x1 SHL SWAP2 PUSH1 0x0 NOT SWAP1 PUSH1 0x3 SHL SHR NOT AND OR PUSH1 0x2 DUP6 ADD SSTORE JUMPDEST PUSH1 0x60 DUP2 ADD MLOAD SWAP4 DUP5 MLOAD PUSH1 0x1 PUSH1 0x1 PUSH1 0x40 SHL SUB DUP2 GT PUSH3 0x84B JUMPI PUSH3 0x6B8 PUSH1 0x3 DUP4 ADD SLOAD PUSH3 0x2085 JUMP JUMPDEST SWAP6 PUSH1 0x1F DUP8 GT PUSH3 0x7FE JUMPI JUMPDEST PUSH1 0x20 SWAP7 POP DUP7 SWAP1 PUSH1 0x1F DUP4 GT PUSH1 0x1 EQ PUSH3 0x78C JUMPI SWAP2 DUP1 PUSH1 0x80 SWAP5 SWAP3 PUSH1 0x4 SWAP5 DUP10 SWAP3 PUSH3 0x780 JUMPI JUMPDEST POP POP DUP2 PUSH1 0x1 SHL SWAP2 PUSH1 0x0 NOT SWAP1 PUSH1 0x3 SHL SHR NOT AND OR PUSH1 0x3 DUP3 ADD SSTORE JUMPDEST ADD SWAP2 ADD MLOAD ISZERO ISZERO PUSH1 0xFF DUP1 NOT DUP4 SLOAD AND SWAP2 AND OR SWAP1 SSTORE PUSH1 0x7 SLOAD PUSH1 0x1 DUP1 PUSH1 0xA0 SHL SUB DUP3 AND DUP4 MSTORE PUSH1 0x8 DUP5 MSTORE PUSH1 0x40 DUP4 KECCAK256 SSTORE PUSH1 0x1 DUP1 PUSH1 0xA0 SHL SUB PUSH3 0x738 PUSH3 0x2923 JUMP JUMPDEST PUSH1 0x40 MLOAD SWAP4 SWAP2 AND SWAP1 PUSH1 0x1 PUSH1 0x1 PUSH1 0xA0 SHL SUB DUP4 AND SWAP1 PUSH32 0xD5F9BDF12ADF29DAB0248C349842C3822D53AE2BB4F36352F301630D018C8139 SWAP1 DUP1 LOG3 PUSH1 0x1 PUSH1 0x2 SSTORE PUSH1 0x1 PUSH1 0x1 PUSH1 0xA0 SHL SUB AND DUP2 MSTORE RETURN JUMPDEST ADD MLOAD SWAP1 POP CODESIZE DUP1 PUSH3 0x6E6 JUMP JUMPDEST PUSH1 0x3 DUP5 ADD DUP8 MSTORE DUP8 DUP8 KECCAK256 SWAP2 SWAP1 PUSH1 0x1F NOT DUP5 AND DUP9 JUMPDEST DUP2 DUP2 LT PUSH3 0x7E6 JUMPI POP SWAP3 PUSH1 0x1 SWAP3 DUP6 SWAP3 PUSH1 0x4 SWAP7 PUSH1 0x80 SWAP9 SWAP7 LT PUSH3 0x7CC JUMPI JUMPDEST POP POP POP DUP2 SHL ADD PUSH1 0x3 DUP3 ADD SSTORE PUSH3 0x6FE JUMP JUMPDEST ADD MLOAD PUSH1 0x0 NOT PUSH1 0xF8 DUP5 PUSH1 0x3 SHL AND SHR NOT AND SWAP1 SSTORE CODESIZE DUP1 DUP1 PUSH3 0x7BB JUMP JUMPDEST SWAP3 SWAP4 DUP11 PUSH1 0x1 DUP2 SWAP3 DUP8 DUP7 ADD MLOAD DUP2 SSTORE ADD SWAP6 ADD SWAP4 ADD PUSH3 0x79E JUMP JUMPDEST PUSH1 0x3 DUP4 ADD DUP7 MSTORE PUSH1 0x20 DUP7 KECCAK256 PUSH1 0x1F DUP4 ADD PUSH1 0x5 SHR DUP2 ADD SWAP8 PUSH1 0x20 DUP5 LT PUSH3 0x840 JUMPI JUMPDEST PUSH1 0x1F ADD PUSH1 0x5 SHR ADD SWAP7 JUMPDEST DUP8 DUP2 LT PUSH3 0x834 JUMPI POP PUSH3 0x6C3 JUMP JUMPDEST DUP7 DUP2 SSTORE PUSH1 0x1 ADD PUSH3 0x825 JUMP JUMPDEST SWAP1 SWAP8 POP DUP8 SWAP1 PUSH3 0x81C JUMP JUMPDEST PUSH4 0x4E487B71 PUSH1 0xE0 SHL DUP6 MSTORE PUSH1 0x41 PUSH1 0x4 MSTORE PUSH1 0x24 DUP6 REVERT JUMPDEST ADD MLOAD SWAP1 POP CODESIZE DUP1 PUSH3 0x67A JUMP JUMPDEST SWAP3 POP PUSH1 0x2 DUP8 ADD DUP7 MSTORE PUSH1 0x20 DUP7 KECCAK256 SWAP1 DUP7 SWAP4 JUMPDEST PUSH1 0x1F NOT DUP5 AND DUP6 LT PUSH3 0x8C3 JUMPI PUSH1 0x1 SWAP5 POP DUP4 PUSH1 0x1F NOT DUP2 AND LT PUSH3 0x8A9 JUMPI JUMPDEST POP POP POP DUP2 SHL ADD PUSH1 0x2 DUP6 ADD SSTORE PUSH3 0x692 JUMP JUMPDEST ADD MLOAD PUSH1 0x0 NOT PUSH1 0xF8 DUP5 PUSH1 0x3 SHL AND SHR NOT AND SWAP1 SSTORE CODESIZE DUP1 DUP1 PUSH3 0x898 JUMP JUMPDEST DUP2 DUP2 ADD MLOAD DUP4 SSTORE PUSH1 0x20 SWAP5 DUP6 ADD SWAP5 PUSH1 0x1 SWAP1 SWAP4 ADD SWAP3 SWAP1 SWAP2 ADD SWAP1 PUSH3 0x87B JUMP JUMPDEST SWAP1 SWAP2 POP PUSH1 0x2 DUP8 ADD DUP7 MSTORE PUSH1 0x20 DUP7 KECCAK256 PUSH1 0x1F DUP5 ADD PUSH1 0x5 SHR DUP2 ADD PUSH1 0x20 DUP6 LT PUSH3 0x92C JUMPI JUMPDEST SWAP1 DUP5 SWAP4 SWAP3 SWAP2 JUMPDEST PUSH1 0x1F DUP4 ADD PUSH1 0x5 SHR DUP3 ADD DUP2 LT PUSH3 0x91D JUMPI POP POP PUSH3 0x662 JUMP JUMPDEST DUP9 DUP2 SSTORE DUP6 SWAP5 POP PUSH1 0x1 ADD PUSH3 0x905 JUMP JUMPDEST POP DUP1 PUSH3 0x8FF JUMP JUMPDEST PUSH4 0x4E487B71 PUSH1 0xE0 SHL DUP6 MSTORE PUSH1 0x4 DUP6 SWAP1 MSTORE PUSH1 0x24 DUP6 REVERT JUMPDEST PUSH4 0x4E487B71 PUSH1 0xE0 SHL PUSH1 0x0 MSTORE PUSH1 0x41 PUSH1 0x4 MSTORE PUSH1 0x24 PUSH1 0x0 REVERT JUMPDEST PUSH1 0x40 MLOAD RETURNDATASIZE DUP7 DUP3 RETURNDATACOPY RETURNDATASIZE SWAP1 REVERT JUMPDEST PUSH4 0x4E487B71 PUSH1 0xE0 SHL DUP13 MSTORE PUSH1 0x41 PUSH1 0x4 MSTORE PUSH1 0x24 DUP13 REVERT JUMPDEST DUP3 DUP1 REVERT JUMPDEST POP DUP1 REVERT JUMPDEST POP CALLVALUE PUSH3 0x28E JUMPI PUSH1 0x40 CALLDATASIZE PUSH1 0x3 NOT ADD SLT PUSH3 0x28E JUMPI PUSH3 0x9CA PUSH1 0x4 CALLDATALOAD PUSH3 0x9AA PUSH3 0x2004 JUMP JUMPDEST SWAP1 DUP1 DUP5 MSTORE DUP4 PUSH1 0x20 MSTORE PUSH3 0x9C4 PUSH1 0x1 PUSH1 0x40 DUP7 KECCAK256 ADD SLOAD PUSH3 0x25D7 JUMP JUMPDEST PUSH3 0x270A JUMP JUMPDEST DUP1 RETURN JUMPDEST POP CALLVALUE PUSH3 0x28E JUMPI DUP1 PUSH1 0x3 NOT CALLDATASIZE ADD SLT PUSH3 0x28E JUMPI PUSH1 0x20 PUSH1 0x40 MLOAD PUSH32 0x0 DUP2 MSTORE RETURN JUMPDEST POP CALLVALUE PUSH3 0x28E JUMPI PUSH1 0x20 CALLDATASIZE PUSH1 0x3 NOT ADD SLT PUSH3 0x28E JUMPI PUSH1 0x20 SWAP1 PUSH1 0x40 SWAP1 PUSH1 0x1 PUSH1 0x1 PUSH1 0xA0 SHL SUB PUSH3 0xA36 PUSH3 0x201B JUMP JUMPDEST AND DUP2 MSTORE PUSH1 0x5 DUP4 MSTORE KECCAK256 SLOAD PUSH1 0x40 MLOAD SWAP1 DUP2 MSTORE RETURN JUMPDEST POP CALLVALUE PUSH3 0x28E JUMPI PUSH1 0x20 CALLDATASIZE PUSH1 0x3 NOT ADD SLT PUSH3 0x28E JUMPI PUSH32 0x5A31296B3CECAF3AAA3146A140F6DDF6D21CAA95E28243DC507D90D7E883BE79 PUSH1 0x0 DUP1 MLOAD PUSH1 0x20 PUSH3 0x4EE4 DUP4 CODECOPY DUP2 MLOAD SWAP2 MSTORE PUSH1 0x20 PUSH3 0xA98 PUSH3 0x201B JUMP JUMPDEST PUSH3 0xAA2 PUSH3 0x248A JUMP JUMPDEST PUSH1 0x1 DUP1 PUSH1 0xA0 SHL SUB AND DUP1 PUSH1 0x1 PUSH1 0x1 PUSH1 0x60 SHL SUB PUSH1 0xA0 SHL PUSH1 0xC SLOAD AND OR PUSH1 0xC SSTORE PUSH14 0x5374616B696E6752657761726473 PUSH1 0x90 SHL PUSH1 0x40 MLOAD MSTORE PUSH1 0x40 MLOAD SWAP1 DUP2 MSTORE LOG2 DUP1 RETURN JUMPDEST POP CALLVALUE PUSH3 0x28E JUMPI PUSH1 0x40 CALLDATASIZE PUSH1 0x3 NOT ADD SLT PUSH3 0x28E JUMPI PUSH1 0x20 PUSH3 0xB13 PUSH3 0xB02 PUSH3 0x201B JUMP JUMPDEST PUSH3 0xB0C PUSH3 0x2004 JUMP JUMPDEST SWAP1 PUSH3 0x2C9D JUMP JUMPDEST PUSH1 0x40 MLOAD PUSH1 0x1 PUSH1 0x1 PUSH1 0xA0 SHL SUB SWAP1 SWAP2 AND DUP2 MSTORE RETURN JUMPDEST POP PUSH1 0x40 CALLDATASIZE PUSH1 0x3 NOT ADD SLT PUSH3 0x28E JUMPI PUSH3 0xB3D PUSH3 0x201B JUMP JUMPDEST PUSH3 0xB47 PUSH3 0x2004 JUMP JUMPDEST SWAP1 PUSH7 0x71AFD498D0000 CALLVALUE SUB PUSH3 0xB88 JUMPI PUSH1 0x20 SWAP2 PUSH3 0xB65 SWAP2 PUSH3 0x2C9D JUMP JUMPDEST PUSH3 0xB73 CALLVALUE PUSH1 0x4 SLOAD PUSH3 0x27C1 JUMP JUMPDEST PUSH1 0x4 SSTORE PUSH1 0x40 MLOAD PUSH1 0x1 PUSH1 0x1 PUSH1 0xA0 SHL SUB SWAP1 SWAP2 AND DUP2 MSTORE RETURN JUMPDEST PUSH1 0x40 MLOAD PUSH3 0x461BCD PUSH1 0xE5 SHL DUP2 MSTORE PUSH1 0x20 PUSH1 0x4 DUP3 ADD MSTORE PUSH1 0x8 PUSH1 0x24 DUP3 ADD MSTORE PUSH8 0x57726F6E67466565 PUSH1 0xC0 SHL PUSH1 0x44 DUP3 ADD MSTORE PUSH1 0x64 SWAP1 REVERT JUMPDEST POP CALLVALUE PUSH3 0x28E JUMPI DUP1 PUSH1 0x3 NOT CALLDATASIZE ADD SLT PUSH3 0x28E JUMPI PUSH1 0xB SLOAD PUSH1 0x40 MLOAD PUSH1 0x1 PUSH1 0x1 PUSH1 0xA0 SHL SUB SWAP1 SWAP2 AND DUP2 MSTORE PUSH1 0x20 SWAP1 RETURN JUMPDEST POP CALLVALUE PUSH3 0x28E JUMPI DUP1 PUSH1 0x3 NOT CALLDATASIZE ADD SLT PUSH3 0x28E JUMPI PUSH1 0x20 SWAP1 PUSH1 0x40 MLOAD SWAP1 DUP2 MSTORE RETURN JUMPDEST POP CALLVALUE PUSH3 0x28E JUMPI PUSH2 0x100 CALLDATASIZE PUSH1 0x3 NOT ADD SLT PUSH3 0x28E JUMPI PUSH3 0xC20 PUSH3 0x201B JUMP JUMPDEST PUSH3 0xC2A PUSH3 0x2004 JUMP JUMPDEST SWAP1 PUSH3 0xC35 PUSH3 0x2032 JUMP JUMPDEST SWAP2 PUSH1 0x64 CALLDATALOAD SWAP2 PUSH1 0x1 PUSH1 0x1 PUSH1 0xA0 SHL SUB SWAP2 PUSH1 0xC4 CALLDATALOAD DUP4 DUP2 AND SWAP1 DUP2 SWAP1 SUB PUSH3 0x1D JUMPI DUP7 SWAP1 DUP5 PUSH3 0xC61 DUP9 DUP6 PUSH3 0x2C9D JUMP JUMPDEST AND SWAP4 PUSH3 0xC71 DUP8 ADDRESS CALLER DUP9 PUSH3 0x2E6C JUMP JUMPDEST PUSH1 0x40 MLOAD PUSH4 0x95EA7B3 PUSH1 0xE0 SHL DUP2 MSTORE PUSH1 0x1 PUSH1 0x1 PUSH1 0xA0 SHL SUB DUP3 AND PUSH1 0x4 DUP3 ADD MSTORE PUSH1 0x24 DUP2 ADD DUP9 SWAP1 MSTORE SWAP5 PUSH1 0x20 SWAP1 DUP7 SWAP1 PUSH1 0x44 SWAP1 DUP3 SWAP1 DUP8 SWAP1 GAS CALL SWAP2 DUP3 ISZERO PUSH3 0xD6E JUMPI PUSH1 0x40 SWAP8 PUSH1 0xE4 SWAP7 DUP9 SWAP5 PUSH3 0xD39 JUMPI JUMPDEST POP DUP4 DUP10 MLOAD SWAP11 DUP12 SWAP10 DUP11 SWAP9 PUSH4 0x5D5155EF PUSH1 0xE1 SHL DUP11 MSTORE AND PUSH1 0x4 DUP10 ADD MSTORE AND PUSH1 0x24 DUP8 ADD MSTORE PUSH1 0x44 DUP7 ADD MSTORE PUSH1 0x84 CALLDATALOAD PUSH1 0x64 DUP7 ADD MSTORE PUSH1 0xA4 CALLDATALOAD PUSH1 0x84 DUP7 ADD MSTORE PUSH1 0xA4 DUP6 ADD MSTORE DUP5 CALLDATALOAD PUSH1 0xC4 DUP6 ADD MSTORE AND GAS CALL DUP1 ISZERO PUSH3 0x406 JUMPI PUSH3 0xD0C JUMPI POP DUP1 RETURN JUMPDEST PUSH1 0x40 SWAP1 DUP2 RETURNDATASIZE DUP4 GT PUSH3 0xD31 JUMPI JUMPDEST PUSH3 0xD25 DUP2 DUP4 PUSH3 0x20F2 JUMP JUMPDEST DUP2 ADD SUB SLT PUSH3 0x28E JUMPI DUP1 RETURN JUMPDEST POP RETURNDATASIZE PUSH3 0xD19 JUMP JUMPDEST PUSH3 0xD5E SWAP1 PUSH1 0x20 RETURNDATASIZE DUP2 GT PUSH3 0xD66 JUMPI JUMPDEST PUSH3 0xD55 DUP2 DUP4 PUSH3 0x20F2 JUMP JUMPDEST DUP2 ADD SWAP1 PUSH3 0x2A77 JUMP JUMPDEST POP CODESIZE PUSH3 0xCB9 JUMP JUMPDEST POP RETURNDATASIZE PUSH3 0xD49 JUMP JUMPDEST PUSH1 0x40 MLOAD RETURNDATASIZE DUP6 DUP3 RETURNDATACOPY RETURNDATASIZE SWAP1 REVERT JUMPDEST POP CALLVALUE PUSH3 0x28E JUMPI PUSH1 0x20 CALLDATASIZE PUSH1 0x3 NOT ADD SLT PUSH3 0x28E JUMPI PUSH32 0x25009364035BFB2FE48A581C0CE939C5ED5C1DD5C34DAF8B6948EA3740D4B2DF PUSH1 0x0 DUP1 MLOAD PUSH1 0x20 PUSH3 0x4EE4 DUP4 CODECOPY DUP2 MLOAD SWAP2 MSTORE PUSH1 0x20 PUSH3 0xDCA PUSH3 0x201B JUMP JUMPDEST PUSH3 0xDD4 PUSH3 0x248A JUMP JUMPDEST PUSH1 0x1 DUP1 PUSH1 0xA0 SHL SUB AND DUP1 PUSH1 0x1 PUSH1 0x1 PUSH1 0x60 SHL SUB PUSH1 0xA0 SHL PUSH1 0xD SLOAD AND OR PUSH1 0xD SSTORE PUSH13 0x41697264726F704D65726B6C65 PUSH1 0x98 SHL PUSH1 0x40 MLOAD MSTORE PUSH1 0x40 MLOAD SWAP1 DUP2 MSTORE LOG2 DUP1 RETURN JUMPDEST POP CALLVALUE PUSH3 0x28E JUMPI DUP1 PUSH1 0x3 NOT CALLDATASIZE ADD SLT PUSH3 0x28E JUMPI PUSH1 0xC SLOAD DUP2 SWAP1 PUSH1 0x1 PUSH1 0x1 PUSH1 0xA0 SHL SUB AND DUP1 EXTCODESIZE ISZERO PUSH3 0xE5F JUMPI DUP2 DUP1 SWAP2 PUSH1 0x4 PUSH1 0x40 MLOAD DUP1 SWAP5 DUP2 SWAP4 PUSH4 0x1E8C5C89 PUSH1 0xE1 SHL DUP4 MSTORE GAS CALL DUP1 ISZERO PUSH3 0x406 JUMPI PUSH3 0x3F3 JUMPI POP RETURN JUMPDEST POP REVERT JUMPDEST POP CALLVALUE PUSH3 0x28E JUMPI PUSH1 0x20 DUP1 PUSH1 0x3 NOT CALLDATASIZE ADD SLT PUSH3 0x981 JUMPI PUSH3 0xE84 PUSH1 0x4 CALLDATALOAD PUSH3 0x1FCC JUMP JUMPDEST SWAP1 SLOAD PUSH1 0x40 MLOAD PUSH4 0xDFE1681 PUSH1 0xE0 SHL DUP2 MSTORE PUSH1 0x3 SWAP3 SWAP1 SWAP3 SHL SHR PUSH1 0x1 PUSH1 0x1 PUSH1 0xA0 SHL SUB AND SWAP2 DUP1 DUP3 PUSH1 0x4 DUP2 DUP7 GAS STATICCALL SWAP2 DUP3 ISZERO PUSH3 0x95E JUMPI DUP5 SWAP3 PUSH3 0xF45 JUMPI JUMPDEST POP DUP1 PUSH1 0x4 SWAP3 SWAP4 PUSH1 0x40 MLOAD SWAP4 DUP5 DUP1 SWAP3 PUSH4 0xD21220A7 PUSH1 0xE0 SHL DUP3 MSTORE GAS STATICCALL SWAP4 DUP5 ISZERO PUSH3 0xF39 JUMPI SWAP4 PUSH3 0xF03 JUMPI JUMPDEST POP POP PUSH1 0x40 DUP1 MLOAD PUSH1 0x1 PUSH1 0x1 PUSH1 0xA0 SHL SUB SWAP3 DUP4 AND DUP2 MSTORE SWAP3 SWAP1 SWAP2 AND PUSH1 0x20 DUP4 ADD MSTORE SWAP1 RETURN JUMPDEST PUSH3 0xF28 SWAP3 SWAP4 POP DUP1 RETURNDATASIZE LT PUSH3 0xF31 JUMPI JUMPDEST PUSH3 0xF1F DUP2 DUP4 PUSH3 0x20F2 JUMP JUMPDEST DUP2 ADD SWAP1 PUSH3 0x2C7C JUMP JUMPDEST SWAP1 CODESIZE DUP1 PUSH3 0xEE4 JUMP JUMPDEST POP RETURNDATASIZE PUSH3 0xF13 JUMP JUMPDEST PUSH1 0x40 MLOAD SWAP1 RETURNDATASIZE SWAP1 DUP3 RETURNDATACOPY RETURNDATASIZE SWAP1 REVERT JUMPDEST PUSH1 0x4 SWAP3 POP PUSH3 0xF64 DUP3 SWAP2 DUP3 RETURNDATASIZE DUP5 GT PUSH3 0xF31 JUMPI PUSH3 0xF1F DUP2 DUP4 PUSH3 0x20F2 JUMP JUMPDEST SWAP3 POP PUSH3 0xEBC JUMP JUMPDEST POP CALLVALUE PUSH3 0x28E JUMPI DUP1 PUSH1 0x3 NOT CALLDATASIZE ADD SLT PUSH3 0x28E JUMPI PUSH1 0x20 PUSH3 0xFDA PUSH3 0xFB3 PUSH1 0x6 SLOAD PUSH32 0x0 PUSH3 0x2797 JUMP JUMPDEST PUSH32 0x0 PUSH3 0x27C1 JUMP JUMPDEST PUSH1 0x40 MLOAD SWAP1 DUP2 MSTORE RETURN JUMPDEST POP CALLVALUE PUSH3 0x28E JUMPI PUSH1 0x40 CALLDATASIZE PUSH1 0x3 NOT ADD SLT PUSH3 0x28E JUMPI PUSH1 0x40 PUSH3 0x1002 PUSH3 0x2004 JUMP JUMPDEST SWAP2 PUSH1 0x4 CALLDATALOAD DUP2 MSTORE DUP1 PUSH1 0x20 MSTORE KECCAK256 SWAP1 PUSH1 0x1 DUP1 PUSH1 0xA0 SHL SUB AND PUSH1 0x0 MSTORE PUSH1 0x20 MSTORE PUSH1 0x20 PUSH1 0xFF PUSH1 0x40 PUSH1 0x0 KECCAK256 SLOAD AND PUSH1 0x40 MLOAD SWAP1 ISZERO ISZERO DUP2 MSTORE RETURN JUMPDEST POP CALLVALUE PUSH3 0x28E JUMPI DUP1 PUSH1 0x3 NOT CALLDATASIZE ADD SLT PUSH3 0x28E JUMPI PUSH1 0x20 PUSH1 0x6 SLOAD PUSH1 0x40 MLOAD SWAP1 DUP2 MSTORE RETURN JUMPDEST POP CALLVALUE PUSH3 0x28E JUMPI DUP1 PUSH1 0x3 NOT CALLDATASIZE ADD SLT PUSH3 0x28E JUMPI PUSH1 0xA SLOAD PUSH1 0x40 MLOAD PUSH1 0x1 PUSH1 0x1 PUSH1 0xA0 SHL SUB SWAP1 SWAP2 AND DUP2 MSTORE PUSH1 0x20 SWAP1 RETURN JUMPDEST POP CALLVALUE PUSH3 0x28E JUMPI PUSH1 0x20 CALLDATASIZE PUSH1 0x3 NOT ADD SLT PUSH3 0x28E JUMPI PUSH1 0x20 SWAP1 PUSH1 0xFF SWAP1 PUSH1 0x40 SWAP1 PUSH1 0x1 PUSH1 0x1 PUSH1 0xA0 SHL SUB PUSH3 0x10AB PUSH3 0x201B JUMP JUMPDEST AND DUP2 MSTORE PUSH1 0x9 DUP5 MSTORE KECCAK256 SLOAD AND PUSH1 0x40 MLOAD SWAP1 ISZERO ISZERO DUP2 MSTORE RETURN JUMPDEST POP CALLVALUE PUSH3 0x28E JUMPI DUP1 PUSH1 0x3 NOT CALLDATASIZE ADD SLT PUSH3 0x28E JUMPI PUSH3 0x10DC PUSH3 0x2242 JUMP JUMPDEST PUSH3 0x10E6 PUSH3 0x29DD JUMP JUMPDEST PUSH1 0x1 PUSH1 0xFF NOT DUP2 SLOAD AND OR PUSH1 0x1 SSTORE PUSH32 0x62E78CEA01BEE320CD4E420270B5EA74000D11B0C9F74754EBDBFC544B05A258 PUSH1 0x20 PUSH3 0x111F PUSH3 0x2923 JUMP JUMPDEST PUSH1 0x40 MLOAD PUSH1 0x1 PUSH1 0x1 PUSH1 0xA0 SHL SUB SWAP1 SWAP2 AND DUP2 MSTORE LOG1 DUP1 RETURN JUMPDEST POP CALLVALUE PUSH3 0x28E JUMPI PUSH1 0x20 CALLDATASIZE PUSH1 0x3 NOT ADD SLT PUSH3 0x28E JUMPI PUSH32 0x3BE8DB72F80E4180E6DDFF48717A4157A6B0F211136EE52B65023EED452E410D PUSH1 0x0 DUP1 MLOAD PUSH1 0x20 PUSH3 0x4EE4 DUP4 CODECOPY DUP2 MLOAD SWAP2 MSTORE PUSH1 0x20 PUSH3 0x1184 PUSH3 0x201B JUMP JUMPDEST PUSH3 0x118E PUSH3 0x248A JUMP JUMPDEST PUSH1 0x1 DUP1 PUSH1 0xA0 SHL SUB AND DUP1 PUSH1 0x1 PUSH1 0x1 PUSH1 0x60 SHL SUB PUSH1 0xA0 SHL PUSH1 0xA SLOAD AND OR PUSH1 0xA SSTORE PUSH16 0x57686974656C69737450726573616C65 PUSH1 0x80 SHL PUSH1 0x40 MLOAD MSTORE PUSH1 0x40 MLOAD SWAP1 DUP2 MSTORE LOG2 DUP1 RETURN JUMPDEST POP CALLVALUE PUSH3 0x28E JUMPI DUP1 PUSH1 0x3 NOT CALLDATASIZE ADD SLT PUSH3 0x28E JUMPI PUSH1 0x20 PUSH1 0x40 MLOAD PUSH32 0x0 DUP2 MSTORE RETURN JUMPDEST POP CALLVALUE PUSH3 0x28E JUMPI DUP1 PUSH1 0x3 NOT CALLDATASIZE ADD SLT PUSH3 0x28E JUMPI PUSH1 0x20 PUSH1 0x40 MLOAD PUSH7 0x71AFD498D0000 DUP2 MSTORE RETURN JUMPDEST POP CALLVALUE PUSH3 0x28E JUMPI DUP1 PUSH1 0x3 NOT CALLDATASIZE ADD SLT PUSH3 0x28E JUMPI PUSH1 0xD SLOAD PUSH1 0x40 MLOAD PUSH1 0x1 PUSH1 0x1 PUSH1 0xA0 SHL SUB SWAP1 SWAP2 AND DUP2 MSTORE PUSH1 0x20 SWAP1 RETURN JUMPDEST POP CALLVALUE PUSH3 0x28E JUMPI PUSH1 0x20 CALLDATASIZE PUSH1 0x3 NOT ADD SLT PUSH3 0x28E JUMPI PUSH1 0x4 CALLDATALOAD PUSH3 0x1279 PUSH3 0x29DD JUMP JUMPDEST PUSH1 0x7 SLOAD ISZERO PUSH3 0x130E JUMPI DUP2 SWAP1 PUSH1 0x7 PUSH1 0x0 MSTORE PUSH1 0x1 DUP1 PUSH1 0xA0 SHL SUB PUSH3 0x12CF DUP3 DUP3 PUSH32 0xA66CC928B5EDB82AF9BD49922954155AB7B0942694BEA4CE44661D9A8736C688 SLOAD AND PUSH3 0x12C3 PUSH3 0x2923 JUMP JUMPDEST DUP5 PUSH1 0xC SLOAD AND SWAP2 PUSH3 0x2E6C JUMP JUMPDEST PUSH1 0xC SLOAD AND SWAP1 DUP2 EXTCODESIZE ISZERO PUSH3 0x130A JUMPI DUP3 SWAP2 PUSH1 0x24 DUP4 SWAP3 PUSH1 0x40 MLOAD SWAP5 DUP6 SWAP4 DUP5 SWAP3 PUSH4 0x534A7E1D PUSH1 0xE1 SHL DUP5 MSTORE PUSH1 0x4 DUP5 ADD MSTORE GAS CALL DUP1 ISZERO PUSH3 0x406 JUMPI PUSH3 0x3F3 JUMPI POP RETURN JUMPDEST POP POP REVERT JUMPDEST PUSH4 0x4E487B71 PUSH1 0xE0 SHL PUSH1 0x0 MSTORE PUSH1 0x32 PUSH1 0x4 MSTORE PUSH1 0x24 PUSH1 0x0 REVERT JUMPDEST POP PUSH1 0x60 CALLDATASIZE PUSH1 0x3 NOT ADD SLT PUSH3 0x28E JUMPI PUSH3 0x133C PUSH3 0x201B JUMP JUMPDEST SWAP1 PUSH1 0x24 SWAP2 DUP3 CALLDATALOAD PUSH3 0x134C PUSH3 0x2032 JUMP JUMPDEST SWAP1 PUSH3 0x1357 PUSH3 0x29DD JUMP JUMPDEST PUSH3 0x1361 PUSH3 0x2A22 JUMP JUMPDEST DUP1 ISZERO PUSH3 0x1717 JUMPI PUSH1 0x1 PUSH1 0x1 PUSH1 0xA0 SHL SUB SWAP3 DUP4 AND DUP1 DUP6 MSTORE PUSH1 0x9 PUSH1 0x20 SWAP1 DUP2 MSTORE PUSH1 0x40 DUP7 KECCAK256 SLOAD SWAP1 SWAP3 SWAP1 PUSH1 0xFF AND PUSH3 0x16E5 JUMPI DUP2 DUP7 MSTORE PUSH1 0x8 DUP4 MSTORE PUSH1 0x40 DUP7 KECCAK256 SLOAD SWAP4 DUP5 ISZERO ISZERO DUP1 PUSH3 0x16AB JUMPI JUMPDEST ISZERO PUSH3 0x167A JUMPI PUSH8 0xDE0B6B3A7640000 DUP1 DUP4 MOD PUSH3 0x1649 JUMPI DUP3 DIV SWAP6 PUSH1 0x6 SLOAD SWAP2 PUSH3 0x13EE PUSH32 0x0 DUP10 PUSH3 0x2797 JUMP JUMPDEST SWAP8 PUSH3 0x13FB DUP2 DUP6 PUSH3 0x2797 JUMP JUMPDEST PUSH1 0x0 NOT SWAP10 DUP3 DUP12 ADD SWAP2 DUP4 DUP4 GT PUSH3 0x1636 JUMPI PUSH3 0x142E PUSH3 0x1455 SWAP2 PUSH3 0x1424 PUSH3 0x145C SWAP6 DUP8 PUSH3 0x2797 JUMP JUMPDEST PUSH1 0x1 SHR SWAP1 PUSH3 0x27C1 JUMP JUMPDEST PUSH32 0x0 PUSH3 0x2797 JUMP JUMPDEST SWAP1 PUSH3 0x27C1 JUMP JUMPDEST SWAP4 DUP5 CALLVALUE SUB PUSH3 0x1603 JUMPI SWAP1 PUSH3 0x1471 SWAP2 PUSH3 0x27C1 JUMP JUMPDEST PUSH1 0x6 SSTORE PUSH1 0x3 SLOAD SWAP7 PUSH2 0x2710 PUSH2 0xFFFF SWAP9 DUP5 DUP3 PUSH3 0x148F DUP13 DUP5 AND DUP10 PUSH3 0x2797 JUMP JUMPDEST DIV SWAP5 AND SWAP10 DUP11 ISZERO PUSH1 0x0 EQ PUSH3 0x15EB JUMPI POP POP POP DUP10 SWAP9 JUMPDEST PUSH3 0x14C8 PUSH3 0x14BE DUP12 PUSH3 0x14B8 DUP7 DUP10 PUSH3 0x2915 JUMP JUMPDEST PUSH3 0x2915 JUMP JUMPDEST SWAP4 PUSH1 0x4 SLOAD PUSH3 0x27C1 JUMP JUMPDEST PUSH1 0x4 SSTORE DUP2 ADD SWAP1 DUP2 GT PUSH3 0x15D8 JUMPI SWAP2 PUSH3 0x1587 DUP11 SWAP12 PUSH1 0x40 SWAP6 SWAP4 PUSH3 0x152A DUP8 DUP15 DUP7 PUSH1 0x1 PUSH3 0x1516 PUSH32 0xBF77FD13A39D14DC0DA779342C14105C38D9A5D0C60F2CAA22F5FD1D5525416D SWAP14 SWAP12 PUSH3 0x2049 JUMP JUMPDEST POP ADD SLOAD AND DUP2 MSTORE PUSH1 0x5 DUP14 MSTORE KECCAK256 SWAP2 DUP3 SLOAD PUSH3 0x27C1 JUMP JUMPDEST SWAP1 SSTORE PUSH3 0x1580 DUP10 PUSH3 0x1571 DUP8 PUSH3 0x1540 PUSH3 0x2923 JUMP JUMPDEST DUP11 MLOAD PUSH4 0xA9059CBB PUSH1 0xE0 SHL SWAP5 DUP2 ADD SWAP5 SWAP1 SWAP5 MSTORE PUSH1 0x1 PUSH1 0x1 PUSH1 0xA0 SHL SUB AND SWAP5 DUP4 ADD SWAP5 DUP6 MSTORE PUSH1 0x20 DUP6 ADD MSTORE SWAP1 SWAP3 DUP4 SWAP2 PUSH1 0x40 SWAP1 SWAP2 ADD SWAP1 JUMP JUMPDEST SUB PUSH1 0x1F NOT DUP2 ADD DUP4 MSTORE DUP3 PUSH3 0x20F2 JUMP JUMPDEST DUP8 PUSH3 0x2A91 JUMP JUMPDEST PUSH3 0x1591 PUSH3 0x2923 JUMP JUMPDEST AND SWAP6 DUP4 MLOAD SWAP3 DUP4 MSTORE DUP3 ADD MSTORE LOG3 DUP2 ISZERO DUP1 ISZERO PUSH3 0x15AF JUMPI JUMPDEST DUP4 PUSH1 0x1 PUSH1 0x2 SSTORE DUP1 RETURN JUMPDEST DUP4 SWAP3 DUP4 SWAP3 DUP4 SWAP3 DUP4 SWAP1 PUSH3 0x15CE JUMPI JUMPDEST CALL ISZERO PUSH3 0xF39 JUMPI DUP1 CODESIZE DUP1 DUP1 PUSH3 0x15A6 JUMP JUMPDEST POP PUSH2 0x8FC PUSH3 0x15BD JUMP JUMPDEST PUSH4 0x4E487B71 PUSH1 0xE0 SHL DUP11 MSTORE PUSH1 0x11 PUSH1 0x4 MSTORE DUP11 DUP11 REVERT JUMPDEST PUSH3 0x15FB SWAP2 PUSH1 0x10 SHR AND DUP7 PUSH3 0x2797 JUMP JUMPDEST DIV SWAP9 PUSH3 0x14A3 JUMP JUMPDEST PUSH1 0x40 MLOAD PUSH3 0x461BCD PUSH1 0xE5 SHL DUP2 MSTORE PUSH1 0x4 DUP2 ADD DUP10 SWAP1 MSTORE PUSH1 0xC DUP2 DUP15 ADD MSTORE PUSH12 0x92DCC6DEE4E4CAC6E88AA89 PUSH1 0xA3 SHL PUSH1 0x44 DUP3 ADD MSTORE PUSH1 0x64 SWAP1 REVERT JUMPDEST PUSH4 0x4E487B71 PUSH1 0xE0 SHL DUP14 MSTORE PUSH1 0x11 PUSH1 0x4 MSTORE DUP14 DUP14 REVERT JUMPDEST PUSH1 0x40 MLOAD PUSH3 0x461BCD PUSH1 0xE5 SHL DUP2 MSTORE PUSH1 0x4 DUP2 ADD DUP7 SWAP1 MSTORE PUSH1 0xA DUP2 DUP12 ADD MSTORE PUSH10 0x2737B724B73A32B3B2B9 PUSH1 0xB1 SHL PUSH1 0x44 DUP3 ADD MSTORE PUSH1 0x64 SWAP1 REVERT JUMPDEST PUSH1 0x40 MLOAD PUSH3 0x461BCD PUSH1 0xE5 SHL DUP2 MSTORE PUSH1 0x4 DUP2 ADD DUP6 SWAP1 MSTORE PUSH1 0xA DUP2 DUP11 ADD MSTORE PUSH10 0x4E6F74466F7253616C65 PUSH1 0xB0 SHL PUSH1 0x44 DUP3 ADD MSTORE PUSH1 0x64 SWAP1 REVERT JUMPDEST POP PUSH1 0x0 NOT DUP6 ADD DUP6 DUP2 GT PUSH3 0x16D2 JUMPI PUSH1 0x4 PUSH3 0x16C8 PUSH1 0xFF SWAP3 PUSH3 0x2049 JUMP JUMPDEST POP ADD SLOAD AND PUSH3 0x13A4 JUMP JUMPDEST PUSH4 0x4E487B71 PUSH1 0xE0 SHL DUP9 MSTORE PUSH1 0x11 PUSH1 0x4 MSTORE DUP9 DUP9 REVERT JUMPDEST PUSH1 0x40 MLOAD PUSH3 0x461BCD PUSH1 0xE5 SHL DUP2 MSTORE PUSH1 0x4 DUP2 ADD DUP5 SWAP1 MSTORE PUSH1 0xB DUP2 DUP10 ADD MSTORE PUSH11 0x151BDAD95B94185D5CD959 PUSH1 0xAA SHL PUSH1 0x44 DUP3 ADD MSTORE PUSH1 0x64 SWAP1 REVERT JUMPDEST PUSH1 0x40 MLOAD PUSH3 0x461BCD PUSH1 0xE5 SHL DUP2 MSTORE PUSH1 0x20 PUSH1 0x4 DUP3 ADD MSTORE PUSH1 0xA DUP2 DUP8 ADD MSTORE PUSH10 0x16995C9BD05B5BDD5B9D PUSH1 0xB2 SHL PUSH1 0x44 DUP3 ADD MSTORE PUSH1 0x64 SWAP1 REVERT JUMPDEST POP CALLVALUE PUSH3 0x28E JUMPI PUSH1 0x20 CALLDATASIZE PUSH1 0x3 NOT ADD SLT PUSH3 0x28E JUMPI PUSH1 0x4 CALLDATALOAD PUSH1 0x7 SLOAD DUP2 LT ISZERO PUSH3 0x981 JUMPI PUSH3 0x1775 SWAP1 PUSH3 0x2049 JUMP JUMPDEST POP DUP1 SLOAD PUSH1 0x1 DUP3 ADD SLOAD PUSH1 0x1 PUSH1 0x1 PUSH1 0xA0 SHL SUB SWAP1 DUP2 AND SWAP3 SWAP2 AND SWAP1 PUSH3 0x17E8 PUSH3 0x179E PUSH1 0x2 DUP4 ADD PUSH3 0x2114 JUMP JUMPDEST SWAP2 PUSH3 0x17D9 PUSH1 0xFF PUSH1 0x4 PUSH3 0x17B5 PUSH1 0x3 DUP6 ADD PUSH3 0x2114 JUMP JUMPDEST SWAP4 ADD SLOAD AND SWAP4 PUSH1 0x40 MLOAD SWAP7 DUP8 SWAP7 DUP8 MSTORE PUSH1 0x20 DUP8 ADD MSTORE PUSH1 0xA0 PUSH1 0x40 DUP8 ADD MSTORE PUSH1 0xA0 DUP7 ADD SWAP1 PUSH3 0x21EB JUMP JUMPDEST SWAP1 DUP5 DUP3 SUB PUSH1 0x60 DUP7 ADD MSTORE PUSH3 0x21EB JUMP JUMPDEST SWAP1 ISZERO ISZERO PUSH1 0x80 DUP4 ADD MSTORE SUB SWAP1 RETURN JUMPDEST POP CALLVALUE PUSH3 0x28E JUMPI DUP1 PUSH1 0x3 NOT CALLDATASIZE ADD SLT PUSH3 0x28E JUMPI PUSH1 0x20 PUSH1 0xFF PUSH1 0x1 SLOAD AND PUSH1 0x40 MLOAD SWAP1 ISZERO ISZERO DUP2 MSTORE RETURN JUMPDEST POP CALLVALUE PUSH3 0x28E JUMPI PUSH1 0x20 CALLDATASIZE PUSH1 0x3 NOT ADD SLT PUSH3 0x28E JUMPI PUSH1 0x20 PUSH3 0x1839 PUSH3 0x201B JUMP JUMPDEST PUSH1 0x40 MLOAD SWAP1 PUSH1 0x1 DUP1 PUSH1 0xA0 SHL SUB DUP1 PUSH32 0x0 AND SWAP2 AND EQ DUP2 MSTORE RETURN JUMPDEST POP CALLVALUE PUSH3 0x28E JUMPI DUP1 PUSH1 0x3 NOT CALLDATASIZE ADD SLT PUSH3 0x28E JUMPI PUSH1 0xC SLOAD PUSH1 0x40 MLOAD PUSH1 0x1 PUSH1 0x1 PUSH1 0xA0 SHL SUB SWAP1 SWAP2 AND DUP2 MSTORE PUSH1 0x20 SWAP1 RETURN JUMPDEST POP CALLVALUE PUSH3 0x28E JUMPI PUSH1 0x20 CALLDATASIZE PUSH1 0x3 NOT ADD SLT PUSH3 0x28E JUMPI PUSH1 0x20 PUSH3 0x18BC PUSH1 0x4 CALLDATALOAD PUSH3 0x1FCC JUMP JUMPDEST SWAP1 SLOAD PUSH1 0x40 MLOAD PUSH1 0x3 SWAP3 SWAP1 SWAP3 SHL SHR PUSH1 0x1 PUSH1 0x1 PUSH1 0xA0 SHL SUB AND DUP2 MSTORE RETURN JUMPDEST POP CALLVALUE PUSH3 0x28E JUMPI PUSH1 0x20 CALLDATASIZE PUSH1 0x3 NOT ADD SLT PUSH3 0x28E JUMPI PUSH32 0x7E85A138E2E866CAAFBE5C353D8D4C10515F743882C8B9345A9D053CE1989590 PUSH1 0x0 DUP1 MLOAD PUSH1 0x20 PUSH3 0x4EE4 DUP4 CODECOPY DUP2 MLOAD SWAP2 MSTORE PUSH1 0x20 PUSH3 0x1926 PUSH3 0x201B JUMP JUMPDEST PUSH3 0x1930 PUSH3 0x248A JUMP JUMPDEST PUSH1 0x1 DUP1 PUSH1 0xA0 SHL SUB AND DUP1 PUSH1 0x1 PUSH1 0x1 PUSH1 0x60 SHL SUB PUSH1 0xA0 SHL PUSH1 0xB SLOAD AND OR PUSH1 0xB SSTORE PUSH9 0x5632466163746F7279 PUSH1 0xB8 SHL PUSH1 0x40 MLOAD MSTORE PUSH1 0x40 MLOAD SWAP1 DUP2 MSTORE LOG2 DUP1 RETURN JUMPDEST POP CALLVALUE PUSH3 0x28E JUMPI DUP1 PUSH1 0x3 NOT CALLDATASIZE ADD SLT PUSH3 0x28E JUMPI PUSH3 0x1984 PUSH3 0x2242 JUMP JUMPDEST PUSH1 0x1 SLOAD PUSH1 0xFF DUP2 AND ISZERO PUSH3 0x19C5 JUMPI PUSH1 0xFF NOT AND PUSH1 0x1 SSTORE PUSH32 0x5DB9EE0A495BF2E6FF9C91A7834C1BA4FDD244A5E8AA4E537BD38AEAE4B073AA PUSH1 0x20 PUSH3 0x111F PUSH3 0x2923 JUMP JUMPDEST PUSH1 0x40 MLOAD PUSH3 0x461BCD PUSH1 0xE5 SHL DUP2 MSTORE PUSH1 0x20 PUSH1 0x4 DUP3 ADD MSTORE PUSH1 0x14 PUSH1 0x24 DUP3 ADD MSTORE PUSH20 0x14185D5CD8589B194E881B9BDD081C185D5CD959 PUSH1 0x62 SHL PUSH1 0x44 DUP3 ADD MSTORE PUSH1 0x64 SWAP1 REVERT JUMPDEST POP CALLVALUE PUSH3 0x28E JUMPI PUSH2 0x120 CALLDATASIZE PUSH1 0x3 NOT ADD SLT PUSH3 0x28E JUMPI PUSH3 0x1A20 PUSH3 0x201B JUMP JUMPDEST PUSH3 0x1A2A PUSH3 0x2004 JUMP JUMPDEST SWAP1 PUSH3 0x1A35 PUSH3 0x2032 JUMP JUMPDEST SWAP2 PUSH1 0x64 CALLDATALOAD SWAP2 PUSH1 0xE4 CALLDATALOAD PUSH1 0x1 PUSH1 0x1 PUSH1 0xA0 SHL SUB DUP2 AND DUP2 SUB PUSH3 0x1D JUMPI PUSH3 0x1A5A DUP6 DUP5 PUSH3 0x2C9D JUMP JUMPDEST POP PUSH3 0x1A72 DUP5 ADDRESS CALLER PUSH1 0x1 PUSH1 0x1 PUSH1 0xA0 SHL SUB DUP8 AND PUSH3 0x2E6C JUMP JUMPDEST PUSH3 0x1A8B PUSH1 0x84 CALLDATALOAD ADDRESS CALLER PUSH1 0x1 PUSH1 0x1 PUSH1 0xA0 SHL SUB DUP10 AND PUSH3 0x2E6C JUMP JUMPDEST PUSH1 0x40 MLOAD PUSH4 0x95EA7B3 PUSH1 0xE0 SHL DUP2 MSTORE PUSH1 0x1 PUSH1 0x1 PUSH1 0xA0 SHL SUB DUP4 AND PUSH1 0x4 DUP3 ADD MSTORE PUSH1 0x24 DUP2 ADD DUP6 SWAP1 MSTORE PUSH1 0x20 DUP2 DUP1 PUSH1 0x44 DUP2 ADD SUB DUP2 DUP11 PUSH1 0x1 PUSH1 0x1 PUSH1 0xA0 SHL SUB DUP10 AND GAS CALL DUP1 ISZERO PUSH3 0x1BD1 JUMPI PUSH3 0x1BDC JUMPI JUMPDEST POP PUSH1 0x40 MLOAD PUSH4 0x95EA7B3 PUSH1 0xE0 SHL DUP2 MSTORE PUSH1 0x1 PUSH1 0x1 PUSH1 0xA0 SHL SUB DUP4 AND PUSH1 0x4 DUP3 ADD MSTORE PUSH1 0x84 CALLDATALOAD PUSH1 0x24 DUP3 ADD MSTORE SWAP4 PUSH1 0x20 DUP6 DUP1 PUSH1 0x44 DUP2 ADD SUB DUP2 DUP11 PUSH1 0x1 PUSH1 0x1 PUSH1 0xA0 SHL SUB DUP12 AND GAS CALL SWAP5 DUP6 ISZERO PUSH3 0x1BD1 JUMPI PUSH1 0x60 SWAP6 PUSH3 0x1BAD JUMPI JUMPDEST POP PUSH1 0x40 MLOAD PUSH3 0xE8E337 PUSH1 0xE8 SHL DUP2 MSTORE PUSH1 0x1 PUSH1 0x1 PUSH1 0xA0 SHL SUB SWAP5 DUP6 AND PUSH1 0x4 DUP3 ADD MSTORE SWAP6 DUP5 AND PUSH1 0x24 DUP8 ADD MSTORE PUSH1 0x44 DUP7 ADD MSTORE PUSH1 0x84 DUP1 CALLDATALOAD PUSH1 0x64 DUP8 ADD MSTORE PUSH1 0xA4 DUP1 CALLDATALOAD SWAP2 DUP8 ADD SWAP2 SWAP1 SWAP2 MSTORE PUSH1 0xC4 DUP1 CALLDATALOAD SWAP2 DUP8 ADD SWAP2 SWAP1 SWAP2 MSTORE SWAP1 DUP4 AND SWAP1 DUP6 ADD MSTORE PUSH2 0x104 DUP1 CALLDATALOAD PUSH1 0xE4 DUP7 ADD MSTORE DUP5 SWAP3 SWAP1 SWAP2 DUP4 SWAP2 DUP8 SWAP2 AND GAS CALL DUP1 ISZERO PUSH3 0x406 JUMPI PUSH3 0x1B95 JUMPI POP DUP1 RETURN JUMPDEST PUSH1 0x60 SWAP1 DUP2 RETURNDATASIZE DUP2 GT PUSH3 0xD31 JUMPI PUSH3 0xD25 DUP2 DUP4 PUSH3 0x20F2 JUMP JUMPDEST PUSH3 0x1BC9 SWAP1 PUSH1 0x20 RETURNDATASIZE PUSH1 0x20 GT PUSH3 0xD66 JUMPI PUSH3 0xD55 DUP2 DUP4 PUSH3 0x20F2 JUMP JUMPDEST POP CODESIZE PUSH3 0x1B20 JUMP JUMPDEST PUSH1 0x40 MLOAD RETURNDATASIZE DUP10 DUP3 RETURNDATACOPY RETURNDATASIZE SWAP1 REVERT JUMPDEST PUSH3 0x1BF8 SWAP1 PUSH1 0x20 RETURNDATASIZE PUSH1 0x20 GT PUSH3 0xD66 JUMPI PUSH3 0xD55 DUP2 DUP4 PUSH3 0x20F2 JUMP JUMPDEST POP CODESIZE PUSH3 0x1AD2 JUMP JUMPDEST POP CALLVALUE PUSH3 0x28E JUMPI PUSH1 0x40 CALLDATASIZE PUSH1 0x3 NOT ADD SLT PUSH3 0x28E JUMPI PUSH3 0x1C1E PUSH3 0x2004 JUMP JUMPDEST PUSH1 0x1 PUSH1 0x1 PUSH1 0xA0 SHL SUB DUP1 PUSH3 0x1C31 PUSH3 0x2923 JUMP JUMPDEST AND SWAP1 DUP3 AND SUB PUSH3 0x1C49 JUMPI PUSH3 0x9CA SWAP1 PUSH1 0x4 CALLDATALOAD PUSH3 0x270A JUMP JUMPDEST PUSH1 0x40 MLOAD PUSH3 0x461BCD PUSH1 0xE5 SHL DUP2 MSTORE PUSH1 0x20 PUSH1 0x4 DUP3 ADD MSTORE PUSH1 0x2F PUSH1 0x24 DUP3 ADD MSTORE PUSH32 0x416363657373436F6E74726F6C3A2063616E206F6E6C792072656E6F756E6365 PUSH1 0x44 DUP3 ADD MSTORE PUSH15 0x103937B632B9903337B91039B2B633 PUSH1 0x89 SHL PUSH1 0x64 DUP3 ADD MSTORE PUSH1 0x84 SWAP1 REVERT JUMPDEST POP CALLVALUE PUSH3 0x28E JUMPI PUSH1 0x20 CALLDATASIZE PUSH1 0x3 NOT ADD SLT PUSH3 0x28E JUMPI PUSH1 0x20 SWAP1 PUSH1 0x40 SWAP1 PUSH1 0x1 PUSH1 0x1 PUSH1 0xA0 SHL SUB PUSH3 0x1CD2 PUSH3 0x201B JUMP JUMPDEST AND DUP2 MSTORE PUSH1 0x8 DUP4 MSTORE KECCAK256 SLOAD PUSH1 0x40 MLOAD SWAP1 DUP2 MSTORE RETURN JUMPDEST POP CALLVALUE PUSH3 0x28E JUMPI PUSH1 0x40 CALLDATASIZE PUSH1 0x3 NOT ADD SLT PUSH3 0x28E JUMPI PUSH1 0x4 CALLDATALOAD PUSH3 0x1D04 PUSH3 0x2004 JUMP JUMPDEST DUP2 DUP4 MSTORE DUP3 PUSH1 0x20 MSTORE PUSH3 0x1D1D PUSH1 0x1 PUSH1 0x40 DUP6 KECCAK256 ADD SLOAD PUSH3 0x25D7 JUMP JUMPDEST DUP2 DUP4 MSTORE DUP3 PUSH1 0x20 MSTORE PUSH1 0x40 DUP4 KECCAK256 SWAP1 PUSH1 0x1 DUP1 PUSH1 0xA0 SHL SUB DUP1 SWAP2 AND SWAP2 DUP3 PUSH1 0x0 MSTORE PUSH1 0x20 MSTORE PUSH1 0xFF PUSH1 0x40 PUSH1 0x0 KECCAK256 SLOAD AND ISZERO PUSH3 0x1D4E JUMPI DUP4 DUP1 RETURN JUMPDEST DUP3 DUP5 MSTORE DUP4 PUSH1 0x20 MSTORE PUSH1 0x40 DUP5 KECCAK256 DUP3 PUSH1 0x0 MSTORE PUSH1 0x20 MSTORE PUSH1 0x40 PUSH1 0x0 KECCAK256 PUSH1 0x1 PUSH1 0xFF NOT DUP3 SLOAD AND OR SWAP1 SSTORE PUSH3 0x1D7A PUSH3 0x2923 JUMP JUMPDEST AND SWAP2 PUSH32 0x2F8788117E7EFF1D82E926EC794901D17C78024A50270940304540A733656F0D DUP5 DUP1 LOG4 CODESIZE DUP1 DUP1 DUP4 DUP1 RETURN JUMPDEST POP CALLVALUE PUSH3 0x28E JUMPI DUP1 PUSH1 0x3 NOT CALLDATASIZE ADD SLT PUSH3 0x28E JUMPI PUSH1 0x20 PUSH1 0xE SLOAD PUSH1 0x40 MLOAD SWAP1 DUP2 MSTORE RETURN JUMPDEST POP CALLVALUE PUSH3 0x28E JUMPI PUSH1 0x20 CALLDATASIZE PUSH1 0x3 NOT ADD SLT PUSH3 0x28E JUMPI PUSH1 0xC SLOAD DUP2 SWAP1 PUSH1 0x1 PUSH1 0x1 PUSH1 0xA0 SHL SUB AND DUP1 EXTCODESIZE ISZERO PUSH3 0xE5F JUMPI DUP2 DUP1 SWAP2 PUSH1 0x24 PUSH1 0x40 MLOAD DUP1 SWAP5 DUP2 SWAP4 PUSH4 0x2E1A7D4D PUSH1 0xE0 SHL DUP4 MSTORE PUSH1 0x4 CALLDATALOAD PUSH1 0x4 DUP5 ADD MSTORE GAS CALL DUP1 ISZERO PUSH3 0x406 JUMPI PUSH3 0x3F3 JUMPI POP RETURN JUMPDEST POP CALLVALUE PUSH3 0x28E JUMPI PUSH1 0x20 CALLDATASIZE PUSH1 0x3 NOT ADD SLT PUSH3 0x28E JUMPI PUSH1 0x1 PUSH1 0x40 PUSH1 0x20 SWAP3 PUSH1 0x4 CALLDATALOAD DUP2 MSTORE DUP1 DUP5 MSTORE KECCAK256 ADD SLOAD PUSH1 0x40 MLOAD SWAP1 DUP2 MSTORE RETURN JUMPDEST POP CALLVALUE PUSH3 0x28E JUMPI DUP1 PUSH1 0x3 NOT CALLDATASIZE ADD SLT PUSH3 0x28E JUMPI PUSH1 0x20 PUSH1 0x4 SLOAD PUSH1 0x40 MLOAD SWAP1 DUP2 MSTORE RETURN JUMPDEST POP CALLVALUE PUSH3 0x28E JUMPI PUSH1 0x20 CALLDATASIZE PUSH1 0x3 NOT ADD SLT PUSH3 0x28E JUMPI PUSH1 0x4 CALLDATALOAD SWAP1 PUSH1 0xE SLOAD DUP3 LT ISZERO PUSH3 0x28E JUMPI PUSH1 0x20 PUSH3 0x18BC DUP4 PUSH3 0x1FCC JUMP JUMPDEST POP CALLVALUE PUSH3 0x28E JUMPI PUSH1 0x40 CALLDATASIZE PUSH1 0x3 NOT ADD SLT PUSH3 0x28E JUMPI DUP1 PUSH1 0x24 CALLDATALOAD PUSH1 0x1 PUSH1 0x1 PUSH1 0x40 SHL SUB DUP2 GT PUSH3 0xE5F JUMPI PUSH3 0x1ED5 SWAP1 CALLDATASIZE SWAP1 PUSH1 0x4 ADD PUSH3 0x1F99 JUMP JUMPDEST PUSH1 0xD SLOAD SWAP1 SWAP3 SWAP2 SWAP1 PUSH1 0x1 PUSH1 0x1 PUSH1 0xA0 SHL SUB AND DUP1 EXTCODESIZE ISZERO PUSH3 0x97D JUMPI PUSH3 0x1F20 SWAP4 DUP4 PUSH1 0x40 MLOAD DUP1 SWAP7 DUP2 SWAP6 DUP3 SWAP5 PUSH4 0x2F52EBB7 PUSH1 0xE0 SHL DUP5 MSTORE PUSH1 0x4 CALLDATALOAD PUSH1 0x4 DUP6 ADD MSTORE PUSH1 0x40 PUSH1 0x24 DUP6 ADD MSTORE PUSH1 0x44 DUP5 ADD SWAP2 PUSH3 0x2C57 JUMP JUMPDEST SUB SWAP3 GAS CALL DUP1 ISZERO PUSH3 0x406 JUMPI PUSH3 0x1F34 JUMPI POP DUP1 RETURN JUMPDEST PUSH3 0x9CA SWAP1 PUSH3 0x20C2 JUMP JUMPDEST SWAP1 POP CALLVALUE PUSH3 0x981 JUMPI PUSH1 0x20 CALLDATASIZE PUSH1 0x3 NOT ADD SLT PUSH3 0x981 JUMPI PUSH1 0x4 CALLDATALOAD PUSH4 0xFFFFFFFF PUSH1 0xE0 SHL DUP2 AND DUP1 SWAP2 SUB PUSH3 0x97D JUMPI PUSH1 0x20 SWAP3 POP PUSH4 0x7965DB0B PUSH1 0xE0 SHL DUP2 EQ SWAP1 DUP2 ISZERO PUSH3 0x1F87 JUMPI JUMPDEST POP ISZERO ISZERO DUP2 MSTORE RETURN JUMPDEST PUSH4 0x1FFC9A7 PUSH1 0xE0 SHL EQ SWAP1 POP CODESIZE PUSH3 0x1F80 JUMP JUMPDEST SWAP2 DUP2 PUSH1 0x1F DUP5 ADD SLT ISZERO PUSH3 0x1D JUMPI DUP3 CALLDATALOAD SWAP2 PUSH1 0x1 PUSH1 0x1 PUSH1 0x40 SHL SUB DUP4 GT PUSH3 0x1D JUMPI PUSH1 0x20 DUP1 DUP6 ADD SWAP5 DUP5 PUSH1 0x5 SHL ADD ADD GT PUSH3 0x1D JUMPI JUMP JUMPDEST PUSH1 0xE SLOAD DUP2 LT ISZERO PUSH3 0x130E JUMPI PUSH1 0xE PUSH1 0x0 MSTORE PUSH32 0xBB7B4A454DC3493923482F07822329ED19E8244EFF582CC204F8554C3620C3FD ADD SWAP1 PUSH1 0x0 SWAP1 JUMP JUMPDEST PUSH1 0x24 CALLDATALOAD SWAP1 PUSH1 0x1 PUSH1 0x1 PUSH1 0xA0 SHL SUB DUP3 AND DUP3 SUB PUSH3 0x1D JUMPI JUMP JUMPDEST PUSH1 0x4 CALLDATALOAD SWAP1 PUSH1 0x1 PUSH1 0x1 PUSH1 0xA0 SHL SUB DUP3 AND DUP3 SUB PUSH3 0x1D JUMPI JUMP JUMPDEST PUSH1 0x44 CALLDATALOAD SWAP1 PUSH1 0x1 PUSH1 0x1 PUSH1 0xA0 SHL SUB DUP3 AND DUP3 SUB PUSH3 0x1D JUMPI JUMP JUMPDEST PUSH1 0x7 SLOAD DUP2 LT ISZERO PUSH3 0x130E JUMPI PUSH1 0x5 SWAP1 PUSH1 0x7 PUSH1 0x0 MSTORE MUL PUSH32 0xA66CC928B5EDB82AF9BD49922954155AB7B0942694BEA4CE44661D9A8736C688 ADD SWAP1 PUSH1 0x0 SWAP1 JUMP JUMPDEST SWAP1 PUSH1 0x1 DUP3 DUP2 SHR SWAP3 AND DUP1 ISZERO PUSH3 0x20B7 JUMPI JUMPDEST PUSH1 0x20 DUP4 LT EQ PUSH3 0x20A1 JUMPI JUMP JUMPDEST PUSH4 0x4E487B71 PUSH1 0xE0 SHL PUSH1 0x0 MSTORE PUSH1 0x22 PUSH1 0x4 MSTORE PUSH1 0x24 PUSH1 0x0 REVERT JUMPDEST SWAP2 PUSH1 0x7F AND SWAP2 PUSH3 0x2095 JUMP JUMPDEST PUSH1 0x1 PUSH1 0x1 PUSH1 0x40 SHL SUB DUP2 GT PUSH3 0x948 JUMPI PUSH1 0x40 MSTORE JUMP JUMPDEST PUSH1 0x80 DUP2 ADD SWAP1 DUP2 LT PUSH1 0x1 PUSH1 0x1 PUSH1 0x40 SHL SUB DUP3 GT OR PUSH3 0x948 JUMPI PUSH1 0x40 MSTORE JUMP JUMPDEST SWAP1 PUSH1 0x1F DUP1 NOT SWAP2 ADD AND DUP2 ADD SWAP1 DUP2 LT PUSH1 0x1 PUSH1 0x1 PUSH1 0x40 SHL SUB DUP3 GT OR PUSH3 0x948 JUMPI PUSH1 0x40 MSTORE JUMP JUMPDEST SWAP1 PUSH1 0x40 MLOAD SWAP2 DUP3 PUSH1 0x0 DUP3 SLOAD SWAP3 PUSH3 0x212A DUP5 PUSH3 0x2085 JUMP JUMPDEST SWAP1 DUP2 DUP5 MSTORE PUSH1 0x1 SWAP5 DUP6 DUP2 AND SWAP1 DUP2 PUSH1 0x0 EQ PUSH3 0x21A1 JUMPI POP PUSH1 0x1 EQ PUSH3 0x215A JUMPI JUMPDEST POP POP PUSH3 0x2158 SWAP3 POP SUB DUP4 PUSH3 0x20F2 JUMP JUMPDEST JUMP JUMPDEST SWAP1 SWAP4 SWAP2 POP PUSH1 0x0 MSTORE PUSH1 0x20 SWAP1 DUP2 PUSH1 0x0 KECCAK256 SWAP4 PUSH1 0x0 SWAP2 JUMPDEST DUP2 DUP4 LT PUSH3 0x2188 JUMPI POP POP PUSH3 0x2158 SWAP4 POP DUP3 ADD ADD CODESIZE DUP1 PUSH3 0x2148 JUMP JUMPDEST DUP6 SLOAD DUP9 DUP5 ADD DUP6 ADD MSTORE SWAP5 DUP6 ADD SWAP5 DUP8 SWAP5 POP SWAP2 DUP4 ADD SWAP2 PUSH3 0x216D JUMP JUMPDEST SWAP2 POP POP PUSH3 0x2158 SWAP5 POP PUSH1 0x20 SWAP3 POP PUSH1 0xFF NOT AND DUP3 DUP5 ADD MSTORE ISZERO ISZERO PUSH1 0x5 SHL DUP3 ADD ADD CODESIZE DUP1 PUSH3 0x2148 JUMP JUMPDEST PUSH1 0x0 JUMPDEST DUP4 DUP2 LT PUSH3 0x21DA JUMPI POP POP PUSH1 0x0 SWAP2 ADD MSTORE JUMP JUMPDEST DUP2 DUP2 ADD MLOAD DUP4 DUP3 ADD MSTORE PUSH1 0x20 ADD PUSH3 0x21C9 JUMP JUMPDEST SWAP1 PUSH1 0x20 SWAP2 PUSH3 0x2206 DUP2 MLOAD DUP1 SWAP3 DUP2 DUP6 MSTORE DUP6 DUP1 DUP7 ADD SWAP2 ADD PUSH3 0x21C6 JUMP JUMPDEST PUSH1 0x1F ADD PUSH1 0x1F NOT AND ADD ADD SWAP1 JUMP JUMPDEST SWAP2 DUP2 PUSH1 0x1F DUP5 ADD SLT ISZERO PUSH3 0x1D JUMPI DUP3 CALLDATALOAD SWAP2 PUSH1 0x1 PUSH1 0x1 PUSH1 0x40 SHL SUB DUP4 GT PUSH3 0x1D JUMPI PUSH1 0x20 DUP4 DUP2 DUP7 ADD SWAP6 ADD ADD GT PUSH3 0x1D JUMPI JUMP JUMPDEST PUSH3 0x224C PUSH3 0x2923 JUMP JUMPDEST PUSH1 0x1 PUSH1 0x1 PUSH1 0xA0 SHL SUB AND PUSH1 0x0 DUP2 DUP2 MSTORE PUSH32 0xF7C9542C591017A21C74B6F3FAB6263C7952FC0AAF9DB4C22A2A04DDC7F8674F PUSH1 0x20 SWAP1 DUP2 MSTORE PUSH1 0x40 DUP1 DUP4 KECCAK256 SLOAD SWAP1 SWAP4 SWAP2 SWAP3 PUSH32 0x65D7A28E3265B37A6474929F336521B332C1681B933F6CB9F3376673440D862A SWAP3 SWAP1 SWAP2 PUSH1 0xFF AND ISZERO PUSH3 0x22BE JUMPI POP POP POP POP POP JUMP JUMPDEST PUSH3 0x22C9 SWAP1 PUSH3 0x27FD JUMP JUMPDEST SWAP2 DUP5 MLOAD SWAP1 PUSH3 0x22D8 DUP3 PUSH3 0x20D6 JUMP JUMPDEST PUSH1 0x42 DUP3 MSTORE DUP5 DUP3 ADD SWAP3 PUSH1 0x60 CALLDATASIZE DUP6 CALLDATACOPY DUP3 MLOAD ISZERO PUSH3 0x2476 JUMPI PUSH1 0x30 DUP5 MSTORE8 DUP3 MLOAD SWAP1 PUSH1 0x1 SWAP2 DUP3 LT ISZERO PUSH3 0x2476 JUMPI SWAP1 PUSH1 0x78 PUSH1 0x21 DUP6 ADD MSTORE8 PUSH1 0x41 SWAP2 JUMPDEST DUP2 DUP4 GT PUSH3 0x2403 JUMPI POP POP POP PUSH3 0x23C1 JUMPI PUSH1 0x48 PUSH3 0x23BD SWAP4 DUP7 SWAP4 PUSH3 0x23A0 SWAP4 PUSH3 0x2390 SWAP9 MLOAD SWAP9 DUP10 SWAP4 PUSH23 0x20B1B1B2B9B9A1B7B73A3937B61D1030B1B1B7BAB73A1 PUSH1 0x4D SHL DUP11 DUP7 ADD MSTORE PUSH3 0x2366 DUP2 MLOAD DUP1 SWAP3 DUP13 PUSH1 0x37 DUP10 ADD SWAP2 ADD PUSH3 0x21C6 JUMP JUMPDEST DUP5 ADD SWAP2 PUSH17 0x1034B99036B4B9B9B4B733903937B6329 PUSH1 0x7D SHL PUSH1 0x37 DUP5 ADD MSTORE MLOAD DUP1 SWAP4 DUP7 DUP5 ADD SWAP1 PUSH3 0x21C6 JUMP JUMPDEST ADD SUB PUSH1 0x28 DUP2 ADD DUP8 MSTORE ADD DUP6 PUSH3 0x20F2 JUMP JUMPDEST MLOAD SWAP3 DUP4 SWAP3 PUSH3 0x461BCD PUSH1 0xE5 SHL DUP5 MSTORE PUSH1 0x4 DUP5 ADD MSTORE PUSH1 0x24 DUP4 ADD SWAP1 PUSH3 0x21EB JUMP JUMPDEST SUB SWAP1 REVERT JUMPDEST PUSH1 0x64 DUP5 DUP7 MLOAD SWAP1 PUSH3 0x461BCD PUSH1 0xE5 SHL DUP3 MSTORE DUP1 PUSH1 0x4 DUP4 ADD MSTORE PUSH1 0x24 DUP3 ADD MSTORE PUSH32 0x537472696E67733A20686578206C656E67746820696E73756666696369656E74 PUSH1 0x44 DUP3 ADD MSTORE REVERT JUMPDEST SWAP1 SWAP2 SWAP3 PUSH1 0xF DUP2 AND PUSH1 0x10 DUP2 LT ISZERO PUSH3 0x2462 JUMPI PUSH16 0x181899199A1A9B1B9C1CB0B131B232B3 PUSH1 0x81 SHL SWAP1 BYTE PUSH3 0x2436 DUP6 DUP8 PUSH3 0x27EB JUMP JUMPDEST MSTORE8 PUSH1 0x4 SHR SWAP3 DUP1 ISZERO PUSH3 0x244E JUMPI PUSH1 0x0 NOT ADD SWAP2 SWAP1 PUSH3 0x230B JUMP JUMPDEST PUSH4 0x4E487B71 PUSH1 0xE0 SHL DUP3 MSTORE PUSH1 0x11 PUSH1 0x4 MSTORE PUSH1 0x24 DUP3 REVERT JUMPDEST PUSH4 0x4E487B71 PUSH1 0xE0 SHL DUP4 MSTORE PUSH1 0x32 PUSH1 0x4 MSTORE PUSH1 0x24 DUP4 REVERT JUMPDEST PUSH4 0x4E487B71 PUSH1 0xE0 SHL DUP2 MSTORE PUSH1 0x32 PUSH1 0x4 MSTORE PUSH1 0x24 SWAP1 REVERT JUMPDEST PUSH3 0x2494 PUSH3 0x2923 JUMP JUMPDEST PUSH1 0x1 PUSH1 0x1 PUSH1 0xA0 SHL SUB AND PUSH1 0x0 DUP2 DUP2 MSTORE PUSH32 0xAD3228B676F7D3CD4284A5443F17F1962B36E491B30A40B2405849E597BA5FB5 PUSH1 0x20 SWAP1 DUP2 MSTORE PUSH1 0x40 DUP1 DUP4 KECCAK256 SLOAD SWAP1 SWAP4 SWAP2 SWAP3 SWAP2 SWAP1 PUSH1 0xFF AND ISZERO PUSH3 0x24E3 JUMPI POP POP POP POP JUMP JUMPDEST PUSH3 0x24EE SWAP1 PUSH3 0x27FD JUMP JUMPDEST SWAP1 DUP1 DUP5 MLOAD SWAP1 PUSH3 0x24FE DUP3 PUSH3 0x20D6 JUMP JUMPDEST PUSH1 0x42 DUP3 MSTORE DUP5 DUP3 ADD SWAP3 PUSH1 0x60 CALLDATASIZE DUP6 CALLDATACOPY DUP3 MLOAD ISZERO PUSH3 0x2476 JUMPI PUSH1 0x30 DUP5 MSTORE8 DUP3 MLOAD SWAP1 PUSH1 0x1 SWAP2 DUP3 LT ISZERO PUSH3 0x2476 JUMPI SWAP1 PUSH1 0x78 PUSH1 0x21 DUP6 ADD MSTORE8 PUSH1 0x41 SWAP2 JUMPDEST DUP2 DUP4 GT PUSH3 0x258C JUMPI POP POP POP PUSH3 0x23C1 JUMPI PUSH1 0x48 PUSH3 0x23BD SWAP4 DUP7 SWAP4 PUSH3 0x23A0 SWAP4 PUSH3 0x2390 SWAP9 MLOAD SWAP9 DUP10 SWAP4 PUSH23 0x20B1B1B2B9B9A1B7B73A3937B61D1030B1B1B7BAB73A1 PUSH1 0x4D SHL DUP11 DUP7 ADD MSTORE PUSH3 0x2366 DUP2 MLOAD DUP1 SWAP3 DUP13 PUSH1 0x37 DUP10 ADD SWAP2 ADD PUSH3 0x21C6 JUMP JUMPDEST SWAP1 SWAP2 SWAP3 PUSH1 0xF DUP2 AND PUSH1 0x10 DUP2 LT ISZERO PUSH3 0x2462 JUMPI PUSH16 0x181899199A1A9B1B9C1CB0B131B232B3 PUSH1 0x81 SHL SWAP1 BYTE PUSH3 0x25BF DUP6 DUP8 PUSH3 0x27EB JUMP JUMPDEST MSTORE8 PUSH1 0x4 SHR SWAP3 DUP1 ISZERO PUSH3 0x244E JUMPI PUSH1 0x0 NOT ADD SWAP2 SWAP1 PUSH3 0x2531 JUMP JUMPDEST PUSH3 0x25E1 PUSH3 0x2923 JUMP JUMPDEST SWAP1 PUSH1 0x0 SWAP1 DUP1 DUP3 MSTORE PUSH1 0x20 SWAP2 DUP1 DUP4 MSTORE PUSH1 0x40 SWAP4 DUP5 DUP3 KECCAK256 SWAP1 PUSH1 0x1 DUP1 PUSH1 0xA0 SHL SUB AND SWAP1 DUP2 DUP4 MSTORE DUP5 MSTORE PUSH1 0xFF DUP6 DUP4 KECCAK256 SLOAD AND ISZERO PUSH3 0x2617 JUMPI POP POP POP POP POP JUMP JUMPDEST PUSH3 0x2622 SWAP1 PUSH3 0x27FD JUMP JUMPDEST SWAP2 DUP5 MLOAD SWAP1 PUSH3 0x2631 DUP3 PUSH3 0x20D6 JUMP JUMPDEST PUSH1 0x42 DUP3 MSTORE DUP5 DUP3 ADD SWAP3 PUSH1 0x60 CALLDATASIZE DUP6 CALLDATACOPY DUP3 MLOAD ISZERO PUSH3 0x2476 JUMPI PUSH1 0x30 DUP5 MSTORE8 DUP3 MLOAD SWAP1 PUSH1 0x1 SWAP2 DUP3 LT ISZERO PUSH3 0x2476 JUMPI SWAP1 PUSH1 0x78 PUSH1 0x21 DUP6 ADD MSTORE8 PUSH1 0x41 SWAP2 JUMPDEST DUP2 DUP4 GT PUSH3 0x26BF JUMPI POP POP POP PUSH3 0x23C1 JUMPI PUSH1 0x48 PUSH3 0x23BD SWAP4 DUP7 SWAP4 PUSH3 0x23A0 SWAP4 PUSH3 0x2390 SWAP9 MLOAD SWAP9 DUP10 SWAP4 PUSH23 0x20B1B1B2B9B9A1B7B73A3937B61D1030B1B1B7BAB73A1 PUSH1 0x4D SHL DUP11 DUP7 ADD MSTORE PUSH3 0x2366 DUP2 MLOAD DUP1 SWAP3 DUP13 PUSH1 0x37 DUP10 ADD SWAP2 ADD PUSH3 0x21C6 JUMP JUMPDEST SWAP1 SWAP2 SWAP3 PUSH1 0xF DUP2 AND PUSH1 0x10 DUP2 LT ISZERO PUSH3 0x2462 JUMPI PUSH16 0x181899199A1A9B1B9C1CB0B131B232B3 PUSH1 0x81 SHL SWAP1 BYTE PUSH3 0x26F2 DUP6 DUP8 PUSH3 0x27EB JUMP JUMPDEST MSTORE8 PUSH1 0x4 SHR SWAP3 DUP1 ISZERO PUSH3 0x244E JUMPI PUSH1 0x0 NOT ADD SWAP2 SWAP1 PUSH3 0x2664 JUMP JUMPDEST PUSH1 0x0 DUP2 DUP2 MSTORE PUSH1 0x20 DUP2 DUP2 MSTORE PUSH1 0x40 DUP1 DUP4 KECCAK256 PUSH1 0x1 PUSH1 0x1 PUSH1 0xA0 SHL SUB SWAP6 DUP7 AND DUP1 DUP6 MSTORE SWAP3 MSTORE DUP3 KECCAK256 SLOAD SWAP2 SWAP4 SWAP1 SWAP3 SWAP2 PUSH1 0xFF AND PUSH3 0x2740 JUMPI JUMPDEST POP POP POP POP JUMP JUMPDEST PUSH32 0xF6391F5C32D9C69D2A47EA670B442974B53935D1EDC7FD64EB21E047A839171B SWAP1 DUP3 DUP6 MSTORE DUP5 PUSH1 0x20 MSTORE PUSH1 0x40 DUP6 KECCAK256 DUP5 DUP7 MSTORE PUSH1 0x20 MSTORE PUSH1 0x40 DUP6 KECCAK256 PUSH1 0xFF NOT DUP2 SLOAD AND SWAP1 SSTORE PUSH3 0x2789 PUSH3 0x2923 JUMP JUMPDEST AND SWAP4 DUP1 LOG4 CODESIZE DUP1 DUP1 DUP1 PUSH3 0x273A JUMP JUMPDEST DUP2 DUP2 MUL SWAP3 SWAP2 DUP2 ISZERO SWAP2 DUP5 DIV EQ OR ISZERO PUSH3 0x27AB JUMPI JUMP JUMPDEST PUSH4 0x4E487B71 PUSH1 0xE0 SHL PUSH1 0x0 MSTORE PUSH1 0x11 PUSH1 0x4 MSTORE PUSH1 0x24 PUSH1 0x0 REVERT JUMPDEST SWAP2 SWAP1 DUP3 ADD DUP1 SWAP3 GT PUSH3 0x27AB JUMPI JUMP JUMPDEST PUSH1 0x1 PUSH1 0x1 PUSH1 0x40 SHL SUB DUP2 GT PUSH3 0x948 JUMPI PUSH1 0x1F ADD PUSH1 0x1F NOT AND PUSH1 0x20 ADD SWAP1 JUMP JUMPDEST SWAP1 DUP2 MLOAD DUP2 LT ISZERO PUSH3 0x130E JUMPI ADD PUSH1 0x20 ADD SWAP1 JUMP JUMPDEST PUSH1 0x40 MLOAD SWAP1 PUSH1 0x60 DUP3 ADD DUP3 DUP2 LT PUSH1 0x1 PUSH1 0x1 PUSH1 0x40 SHL SUB DUP3 GT OR PUSH3 0x948 JUMPI PUSH1 0x40 MSTORE PUSH1 0x2A DUP3 MSTORE PUSH1 0x20 DUP3 ADD PUSH1 0x40 CALLDATASIZE DUP3 CALLDATACOPY DUP3 MLOAD ISZERO PUSH3 0x130E JUMPI PUSH1 0x30 SWAP1 MSTORE8 DUP2 MLOAD PUSH1 0x1 SWAP1 DUP2 LT ISZERO PUSH3 0x130E JUMPI PUSH1 0x78 PUSH1 0x21 DUP5 ADD MSTORE8 PUSH1 0x29 SWAP1 JUMPDEST DUP1 DUP3 GT PUSH3 0x28A2 JUMPI POP POP PUSH3 0x285E JUMPI SWAP1 JUMP JUMPDEST PUSH1 0x64 PUSH1 0x40 MLOAD PUSH3 0x461BCD PUSH1 0xE5 SHL DUP2 MSTORE PUSH1 0x20 PUSH1 0x4 DUP3 ADD MSTORE PUSH1 0x20 PUSH1 0x24 DUP3 ADD MSTORE PUSH32 0x537472696E67733A20686578206C656E67746820696E73756666696369656E74 PUSH1 0x44 DUP3 ADD MSTORE REVERT JUMPDEST SWAP1 SWAP2 PUSH1 0xF DUP2 AND PUSH1 0x10 DUP2 LT ISZERO PUSH3 0x2900 JUMPI PUSH16 0x181899199A1A9B1B9C1CB0B131B232B3 PUSH1 0x81 SHL SWAP1 BYTE PUSH3 0x28D4 DUP5 DUP7 PUSH3 0x27EB JUMP JUMPDEST MSTORE8 PUSH1 0x4 SHR SWAP2 DUP1 ISZERO PUSH3 0x28EB JUMPI PUSH1 0x0 NOT ADD SWAP1 PUSH3 0x284C JUMP JUMPDEST PUSH1 0x24 PUSH1 0x0 PUSH4 0x4E487B71 PUSH1 0xE0 SHL DUP2 MSTORE PUSH1 0x11 PUSH1 0x4 MSTORE REVERT JUMPDEST PUSH1 0x24 PUSH1 0x0 PUSH4 0x4E487B71 PUSH1 0xE0 SHL DUP2 MSTORE PUSH1 0x32 PUSH1 0x4 MSTORE REVERT JUMPDEST SWAP2 SWAP1 DUP3 SUB SWAP2 DUP3 GT PUSH3 0x27AB JUMPI JUMP JUMPDEST CALLER PUSH32 0x0 PUSH1 0x1 PUSH1 0x1 PUSH1 0xA0 SHL SUB AND EQ DUP1 PUSH3 0x2974 JUMPI JUMPDEST ISZERO PUSH3 0x2970 JUMPI PUSH1 0x13 NOT CALLDATASIZE ADD CALLDATASIZE DUP2 GT PUSH3 0x27AB JUMPI CALLDATALOAD PUSH1 0x60 SHR SWAP1 JUMP JUMPDEST CALLER SWAP1 JUMP JUMPDEST POP PUSH1 0x14 CALLDATASIZE LT ISZERO PUSH3 0x2956 JUMP JUMPDEST SWAP1 DUP1 PUSH1 0x20 SWAP4 SWAP3 DUP2 DUP5 MSTORE DUP5 DUP5 ADD CALLDATACOPY PUSH1 0x0 DUP3 DUP3 ADD DUP5 ADD MSTORE PUSH1 0x1F ADD PUSH1 0x1F NOT AND ADD ADD SWAP1 JUMP JUMPDEST SWAP3 SWAP2 SWAP3 PUSH3 0x29AF DUP3 PUSH3 0x27CF JUMP JUMPDEST SWAP2 PUSH3 0x29BF PUSH1 0x40 MLOAD SWAP4 DUP5 PUSH3 0x20F2 JUMP JUMPDEST DUP3 SWAP5 DUP2 DUP5 MSTORE DUP2 DUP4 ADD GT PUSH3 0x1D JUMPI DUP3 DUP2 PUSH1 0x20 SWAP4 DUP5 PUSH1 0x0 SWAP7 ADD CALLDATACOPY ADD ADD MSTORE JUMP JUMPDEST PUSH1 0xFF PUSH1 0x1 SLOAD AND PUSH3 0x29EA JUMPI JUMP JUMPDEST PUSH1 0x40 MLOAD PUSH3 0x461BCD PUSH1 0xE5 SHL DUP2 MSTORE PUSH1 0x20 PUSH1 0x4 DUP3 ADD MSTORE PUSH1 0x10 PUSH1 0x24 DUP3 ADD MSTORE PUSH16 0x14185D5CD8589B194E881C185D5CD959 PUSH1 0x82 SHL PUSH1 0x44 DUP3 ADD MSTORE PUSH1 0x64 SWAP1 REVERT JUMPDEST PUSH1 0x2 DUP1 SLOAD EQ PUSH3 0x2A32 JUMPI PUSH1 0x2 DUP1 SSTORE JUMP JUMPDEST PUSH1 0x40 MLOAD PUSH3 0x461BCD PUSH1 0xE5 SHL DUP2 MSTORE PUSH1 0x20 PUSH1 0x4 DUP3 ADD MSTORE PUSH1 0x1F PUSH1 0x24 DUP3 ADD MSTORE PUSH32 0x5265656E7472616E637947756172643A207265656E7472616E742063616C6C00 PUSH1 0x44 DUP3 ADD MSTORE PUSH1 0x64 SWAP1 REVERT JUMPDEST SWAP1 DUP2 PUSH1 0x20 SWAP2 SUB SLT PUSH3 0x1D JUMPI MLOAD DUP1 ISZERO ISZERO DUP2 SUB PUSH3 0x1D JUMPI SWAP1 JUMP JUMPDEST PUSH1 0x40 DUP1 MLOAD SWAP1 DUP2 ADD SWAP2 PUSH1 0x1 PUSH1 0x1 PUSH1 0xA0 SHL SUB AND PUSH1 0x1 PUSH1 0x1 PUSH1 0x40 SHL SUB DUP4 GT DUP3 DUP5 LT OR PUSH3 0x948 JUMPI PUSH3 0x2B27 SWAP3 PUSH1 0x40 MSTORE PUSH1 0x0 DUP1 PUSH1 0x20 SWAP6 DUP7 DUP6 MSTORE PUSH32 0x5361666545524332303A206C6F772D6C6576656C2063616C6C206661696C6564 DUP8 DUP7 ADD MSTORE DUP7 DUP2 MLOAD SWAP2 ADD DUP3 DUP6 GAS CALL RETURNDATASIZE ISZERO PUSH3 0x2BB4 JUMPI RETURNDATASIZE SWAP2 PUSH3 0x2B08 DUP4 PUSH3 0x27CF JUMP JUMPDEST SWAP3 PUSH3 0x2B18 PUSH1 0x40 MLOAD SWAP5 DUP6 PUSH3 0x20F2 JUMP JUMPDEST DUP4 MSTORE RETURNDATASIZE PUSH1 0x0 DUP8 DUP6 ADD RETURNDATACOPY PUSH3 0x2BB8 JUMP JUMPDEST DUP1 MLOAD SWAP1 DUP3 DUP3 ISZERO SWAP3 DUP4 ISZERO PUSH3 0x2B99 JUMPI JUMPDEST POP POP POP ISZERO PUSH3 0x2B42 JUMPI POP JUMP JUMPDEST PUSH1 0x84 SWAP1 PUSH1 0x40 MLOAD SWAP1 PUSH3 0x461BCD PUSH1 0xE5 SHL DUP3 MSTORE PUSH1 0x4 DUP3 ADD MSTORE PUSH1 0x2A PUSH1 0x24 DUP3 ADD MSTORE PUSH32 0x5361666545524332303A204552433230206F7065726174696F6E20646964206E PUSH1 0x44 DUP3 ADD MSTORE PUSH10 0x1BDD081CDD58D8D95959 PUSH1 0xB2 SHL PUSH1 0x64 DUP3 ADD MSTORE REVERT JUMPDEST PUSH3 0x2BAB SWAP4 POP DUP3 ADD DUP2 ADD SWAP2 ADD PUSH3 0x2A77 JUMP JUMPDEST CODESIZE DUP3 DUP2 PUSH3 0x2B36 JUMP JUMPDEST PUSH1 0x60 SWAP2 JUMPDEST SWAP2 SWAP3 SWAP1 ISZERO PUSH3 0x2C1D JUMPI POP DUP2 MLOAD ISZERO PUSH3 0x2BCE JUMPI POP SWAP1 JUMP JUMPDEST EXTCODESIZE ISZERO PUSH3 0x2BD8 JUMPI SWAP1 JUMP JUMPDEST PUSH1 0x40 MLOAD PUSH3 0x461BCD PUSH1 0xE5 SHL DUP2 MSTORE PUSH1 0x20 PUSH1 0x4 DUP3 ADD MSTORE PUSH1 0x1D PUSH1 0x24 DUP3 ADD MSTORE PUSH32 0x416464726573733A2063616C6C20746F206E6F6E2D636F6E7472616374000000 PUSH1 0x44 DUP3 ADD MSTORE PUSH1 0x64 SWAP1 REVERT JUMPDEST DUP3 MLOAD SWAP1 SWAP2 POP ISZERO PUSH3 0x2C31 JUMPI POP DUP1 MLOAD SWAP1 PUSH1 0x20 ADD REVERT JUMPDEST PUSH1 0x40 MLOAD PUSH3 0x461BCD PUSH1 0xE5 SHL DUP2 MSTORE PUSH1 0x20 PUSH1 0x4 DUP3 ADD MSTORE SWAP1 DUP2 SWAP1 PUSH3 0x23BD SWAP1 PUSH1 0x24 DUP4 ADD SWAP1 PUSH3 0x21EB JUMP JUMPDEST DUP2 DUP4 MSTORE SWAP1 SWAP2 PUSH1 0x1 PUSH1 0x1 PUSH1 0xFB SHL SUB DUP4 GT PUSH3 0x1D JUMPI PUSH1 0x20 SWAP3 PUSH1 0x5 SHL DUP1 SWAP3 DUP5 DUP4 ADD CALLDATACOPY ADD ADD SWAP1 JUMP JUMPDEST SWAP1 DUP2 PUSH1 0x20 SWAP2 SUB SLT PUSH3 0x1D JUMPI MLOAD PUSH1 0x1 PUSH1 0x1 PUSH1 0xA0 SHL SUB DUP2 AND DUP2 SUB PUSH3 0x1D JUMPI SWAP1 JUMP JUMPDEST PUSH1 0xB SLOAD PUSH1 0x1 PUSH1 0x1 PUSH1 0xA0 SHL SUB SWAP4 SWAP3 SWAP1 DUP5 AND SWAP2 DUP3 ISZERO PUSH3 0x2E33 JUMPI DUP2 DUP6 AND DUP2 DUP7 AND LT ISZERO PUSH3 0x2E2C JUMPI SWAP1 SWAP4 JUMPDEST PUSH1 0x40 MLOAD PUSH4 0xE6A43905 PUSH1 0xE0 SHL DUP2 MSTORE PUSH1 0x1 PUSH1 0x1 PUSH1 0xA0 SHL SUB DUP4 DUP2 AND PUSH1 0x4 DUP4 ADD MSTORE DUP7 AND PUSH1 0x24 DUP3 ADD MSTORE SWAP5 PUSH1 0x20 DUP1 DUP8 PUSH1 0x44 DUP2 DUP9 GAS STATICCALL SWAP7 DUP8 ISZERO PUSH3 0x2DFC JUMPI PUSH1 0x0 SWAP8 PUSH3 0x2E08 JUMPI JUMPDEST POP DUP3 DUP8 AND ISZERO PUSH3 0x2D17 JUMPI JUMPDEST POP POP POP POP POP JUMP JUMPDEST PUSH1 0x40 MLOAD PUSH4 0x64E329CB PUSH1 0xE1 SHL DUP2 MSTORE PUSH1 0x1 PUSH1 0x1 PUSH1 0xA0 SHL SUB DUP6 DUP2 AND PUSH1 0x4 DUP4 ADD MSTORE DUP4 AND PUSH1 0x24 DUP3 ADD MSTORE SWAP7 POP SWAP3 SWAP4 SWAP2 SWAP3 SWAP1 SWAP2 DUP2 SWAP1 DUP8 SWAP1 PUSH1 0x44 SWAP1 DUP3 SWAP1 PUSH1 0x0 SWAP1 GAS CALL SWAP6 DUP7 ISZERO PUSH3 0x2DFC JUMPI PUSH1 0x0 SWAP7 PUSH3 0x2DD8 JUMPI JUMPDEST POP DUP6 PUSH1 0xE SLOAD PUSH1 0x1 PUSH1 0x40 SHL DUP2 LT ISZERO PUSH3 0x948 JUMPI PUSH32 0x62175B8617BB04B29540329E39D065560BA9C36E1AB18024C9B22838B195AD04 SWAP4 DUP6 SWAP3 PUSH3 0x2DAB DUP4 PUSH1 0x1 DUP7 SWAP6 ADD PUSH1 0xE SSTORE PUSH3 0x1FCC JUMP JUMPDEST SWAP8 SWAP1 SWAP2 AND SWAP7 DUP2 SLOAD SWAP1 PUSH1 0x3 SHL SWAP1 DUP5 DUP10 DUP4 SHL SWAP3 SHL NOT AND OR SWAP1 SSTORE PUSH1 0x40 MLOAD SWAP6 DUP7 MSTORE AND SWAP5 AND SWAP3 LOG3 CODESIZE DUP1 DUP1 DUP1 DUP1 PUSH3 0x2D10 JUMP JUMPDEST DUP2 PUSH3 0x2DF4 SWAP3 SWAP8 POP RETURNDATASIZE DUP9 GT PUSH3 0xF31 JUMPI PUSH3 0xF1F DUP2 DUP4 PUSH3 0x20F2 JUMP JUMPDEST SWAP5 CODESIZE PUSH3 0x2D62 JUMP JUMPDEST PUSH1 0x40 MLOAD RETURNDATASIZE PUSH1 0x0 DUP3 RETURNDATACOPY RETURNDATASIZE SWAP1 REVERT JUMPDEST DUP2 PUSH3 0x2E24 SWAP3 SWAP9 POP RETURNDATASIZE DUP10 GT PUSH3 0xF31 JUMPI PUSH3 0xF1F DUP2 DUP4 PUSH3 0x20F2 JUMP JUMPDEST SWAP6 CODESIZE PUSH3 0x2D05 JUMP JUMPDEST SWAP4 PUSH3 0x2CC5 JUMP JUMPDEST PUSH1 0x40 MLOAD PUSH3 0x461BCD PUSH1 0xE5 SHL DUP2 MSTORE PUSH1 0x20 PUSH1 0x4 DUP3 ADD MSTORE PUSH1 0x11 PUSH1 0x24 DUP3 ADD MSTORE PUSH17 0x158C919858DD1BDC9E481B9BDD081CD95D PUSH1 0x7A SHL PUSH1 0x44 DUP3 ADD MSTORE PUSH1 0x64 SWAP1 REVERT JUMPDEST PUSH1 0x40 MLOAD PUSH4 0x23B872DD PUSH1 0xE0 SHL PUSH1 0x20 DUP3 ADD MSTORE PUSH1 0x1 PUSH1 0x1 PUSH1 0xA0 SHL SUB SWAP3 DUP4 AND PUSH1 0x24 DUP3 ADD MSTORE SWAP3 SWAP1 SWAP2 AND PUSH1 0x44 DUP4 ADD MSTORE PUSH1 0x64 DUP1 DUP4 ADD SWAP4 SWAP1 SWAP4 MSTORE SWAP2 DUP2 MSTORE PUSH1 0xA0 DUP2 ADD SWAP2 DUP2 DUP4 LT PUSH1 0x1 PUSH1 0x1 PUSH1 0x40 SHL SUB DUP5 GT OR PUSH3 0x948 JUMPI PUSH3 0x2158 SWAP3 PUSH1 0x40 MSTORE PUSH3 0x2A91 JUMP INVALID PUSH2 0x160 DUP1 PUSH1 0x40 MSTORE CALLVALUE PUSH3 0x7CD JUMPI PUSH3 0x201C DUP1 CODESIZE SUB DUP1 SWAP2 PUSH3 0x21 DUP3 DUP6 PUSH3 0x7D2 JUMP JUMPDEST DUP4 CODECOPY DUP2 ADD PUSH1 0xA0 DUP3 DUP3 SUB SLT PUSH3 0x7CD JUMPI DUP2 MLOAD PUSH1 0x1 PUSH1 0x1 PUSH1 0x40 SHL SUB DUP2 GT PUSH3 0x7CD JUMPI DUP2 PUSH3 0x4F SWAP2 DUP5 ADD PUSH3 0x81B JUMP JUMPDEST PUSH1 0x20 DUP4 ADD MLOAD SWAP1 SWAP3 SWAP1 PUSH1 0x1 PUSH1 0x1 PUSH1 0x40 SHL SUB DUP2 GT PUSH3 0x7CD JUMPI DUP3 PUSH3 0x74 SWAP2 DUP4 ADD PUSH3 0x81B JUMP JUMPDEST PUSH1 0x40 DUP3 ADD MLOAD PUSH1 0x60 DUP4 ADD MLOAD SWAP4 SWAP1 SWAP3 SWAP1 PUSH1 0x1 PUSH1 0x1 PUSH1 0xA0 SHL SUB DUP6 AND DUP6 SUB PUSH3 0x7CD JUMPI PUSH1 0x80 DUP3 ADD MLOAD PUSH1 0x1 PUSH1 0x1 PUSH1 0x40 SHL SUB DUP2 GT PUSH3 0x7CD JUMPI PUSH3 0xB3 SWAP3 ADD PUSH3 0x81B JUMP JUMPDEST PUSH1 0x40 DUP1 MLOAD SWAP2 SWAP6 SWAP2 SWAP1 DUP2 ADD PUSH1 0x1 PUSH1 0x1 PUSH1 0x40 SHL SUB DUP2 GT DUP3 DUP3 LT OR PUSH3 0x560 JUMPI PUSH1 0x40 MSTORE PUSH1 0x1 DUP2 MSTORE PUSH1 0x31 PUSH1 0xF8 SHL PUSH1 0x20 DUP3 ADD MSTORE DUP2 MLOAD PUSH1 0x1 PUSH1 0x1 PUSH1 0x40 SHL SUB DUP2 GT PUSH3 0x560 JUMPI PUSH1 0x3 SLOAD PUSH1 0x1 DUP2 DUP2 SHR SWAP2 AND DUP1 ISZERO PUSH3 0x7C2 JUMPI JUMPDEST PUSH1 0x20 DUP3 LT EQ PUSH3 0x53F JUMPI PUSH1 0x1F DUP2 GT PUSH3 0x75C JUMPI JUMPDEST POP DUP1 PUSH1 0x20 PUSH1 0x1F DUP3 GT PUSH1 0x1 EQ PUSH3 0x6D2 JUMPI PUSH1 0x0 SWAP2 PUSH3 0x6C6 JUMPI JUMPDEST POP DUP2 PUSH1 0x1 SHL SWAP2 PUSH1 0x0 NOT SWAP1 PUSH1 0x3 SHL SHR NOT AND OR PUSH1 0x3 SSTORE JUMPDEST DUP3 MLOAD PUSH1 0x1 PUSH1 0x1 PUSH1 0x40 SHL SUB DUP2 GT PUSH3 0x560 JUMPI PUSH1 0x4 SLOAD PUSH1 0x1 DUP2 DUP2 SHR SWAP2 AND DUP1 ISZERO PUSH3 0x6BB JUMPI JUMPDEST PUSH1 0x20 DUP3 LT EQ PUSH3 0x53F JUMPI PUSH1 0x1F DUP2 GT PUSH3 0x651 JUMPI JUMPDEST POP DUP1 PUSH1 0x20 PUSH1 0x1F DUP3 GT PUSH1 0x1 EQ PUSH3 0x5C7 JUMPI PUSH1 0x0 SWAP2 PUSH3 0x5BB JUMPI JUMPDEST POP DUP2 PUSH1 0x1 SHL SWAP2 PUSH1 0x0 NOT SWAP1 PUSH1 0x3 SHL SHR NOT AND OR PUSH1 0x4 SSTORE JUMPDEST PUSH3 0x1B6 DUP3 PUSH3 0x8BF JUMP JUMPDEST PUSH2 0x120 MSTORE PUSH3 0x1C5 DUP2 PUSH3 0xA64 JUMP JUMPDEST PUSH2 0x140 MSTORE DUP2 MLOAD PUSH1 0x20 DUP4 ADD KECCAK256 SWAP1 DUP2 PUSH1 0xE0 MSTORE PUSH1 0x20 DUP2 MLOAD SWAP2 ADD KECCAK256 DUP1 PUSH2 0x100 MSTORE CHAINID PUSH1 0xA0 MSTORE PUSH1 0x40 MLOAD SWAP2 PUSH32 0x8B73C3C69BB8FE3D512ECC4CF759CC79239F7B179B0FFACAA9A75D522B39400F PUSH1 0x20 DUP5 ADD MSTORE PUSH1 0x40 DUP4 ADD MSTORE PUSH1 0x60 DUP3 ADD MSTORE CHAINID PUSH1 0x80 DUP3 ADD MSTORE ADDRESS PUSH1 0xA0 DUP3 ADD MSTORE PUSH1 0xA0 DUP2 MSTORE DUP1 PUSH1 0xC0 DUP2 ADD LT PUSH1 0x1 DUP1 PUSH1 0x40 SHL SUB PUSH1 0xC0 DUP4 ADD GT OR PUSH3 0x560 JUMPI PUSH1 0xC0 DUP2 ADD PUSH1 0x40 MSTORE DUP1 MLOAD PUSH1 0x20 DUP3 ADD KECCAK256 PUSH1 0x80 MSTORE ADDRESS PUSH1 0xC0 MSTORE PUSH3 0x261 CALLER PUSH3 0x876 JUMP JUMPDEST PUSH1 0x1 PUSH1 0x1 PUSH1 0xA0 SHL SUB DUP6 AND ISZERO PUSH3 0x5A7 JUMPI POP PUSH1 0x3 SWAP1 MLOAD LT SWAP1 DUP2 ISZERO PUSH3 0x59A JUMPI JUMPDEST POP PUSH3 0x588 JUMPI DUP1 ISZERO PUSH3 0x576 JUMPI DUP3 MLOAD PUSH1 0x1 PUSH1 0x1 PUSH1 0x40 SHL SUB DUP2 GT PUSH3 0x560 JUMPI PUSH1 0xA SLOAD PUSH1 0x1 DUP2 DUP2 SHR SWAP2 AND DUP1 ISZERO PUSH3 0x555 JUMPI JUMPDEST PUSH1 0x20 DUP3 LT EQ PUSH3 0x53F JUMPI PUSH1 0x1F DUP2 GT PUSH3 0x4E6 JUMPI JUMPDEST POP PUSH1 0x20 PUSH1 0x1F DUP3 GT PUSH1 0x1 EQ PUSH3 0x46D JUMPI DUP2 SWAP3 SWAP4 SWAP5 PUSH1 0x0 SWAP3 PUSH3 0x461 JUMPI JUMPDEST POP POP DUP2 PUSH1 0x1 SHL SWAP2 PUSH1 0x0 NOT SWAP1 PUSH1 0x3 SHL SHR NOT AND OR PUSH1 0xA SSTORE JUMPDEST CALLER ISZERO PUSH3 0x41C JUMPI PUSH1 0x2 SLOAD DUP2 DUP2 ADD DUP1 SWAP2 GT PUSH3 0x406 JUMPI PUSH1 0x2 SSTORE CALLER PUSH1 0x0 MSTORE PUSH1 0x0 PUSH1 0x20 MSTORE PUSH1 0x40 PUSH1 0x0 KECCAK256 DUP2 DUP2 SLOAD ADD SWAP1 SSTORE PUSH1 0x40 MLOAD SWAP1 DUP2 MSTORE PUSH1 0x0 PUSH32 0xDDF252AD1BE2C89B69C2B068FC378DAA952BA7F163C4A11628F55A4DF523B3EF PUSH1 0x20 CALLER SWAP4 LOG3 PUSH1 0x9 SLOAD CALLER PUSH1 0x1 PUSH1 0x1 PUSH1 0xA0 SHL SUB SWAP1 SWAP2 AND SUB PUSH3 0x3C2 JUMPI PUSH3 0x370 SWAP1 PUSH3 0x876 JUMP JUMPDEST PUSH1 0x40 MLOAD PUSH2 0x1440 SWAP1 DUP2 PUSH3 0xBBC DUP3 CODECOPY PUSH1 0x80 MLOAD DUP2 PUSH2 0x118B ADD MSTORE PUSH1 0xA0 MLOAD DUP2 PUSH2 0x1257 ADD MSTORE PUSH1 0xC0 MLOAD DUP2 PUSH2 0x1155 ADD MSTORE PUSH1 0xE0 MLOAD DUP2 PUSH2 0x11DA ADD MSTORE PUSH2 0x100 MLOAD DUP2 PUSH2 0x1200 ADD MSTORE PUSH2 0x120 MLOAD DUP2 PUSH2 0x6A8 ADD MSTORE PUSH2 0x140 MLOAD DUP2 PUSH2 0x6D2 ADD MSTORE RETURN JUMPDEST PUSH1 0x64 PUSH1 0x40 MLOAD PUSH3 0x461BCD PUSH1 0xE5 SHL DUP2 MSTORE PUSH1 0x20 PUSH1 0x4 DUP3 ADD MSTORE PUSH1 0x20 PUSH1 0x24 DUP3 ADD MSTORE PUSH32 0x4F776E61626C653A2063616C6C6572206973206E6F7420746865206F776E6572 PUSH1 0x44 DUP3 ADD MSTORE REVERT JUMPDEST PUSH4 0x4E487B71 PUSH1 0xE0 SHL PUSH1 0x0 MSTORE PUSH1 0x11 PUSH1 0x4 MSTORE PUSH1 0x24 PUSH1 0x0 REVERT JUMPDEST PUSH1 0x40 MLOAD PUSH3 0x461BCD PUSH1 0xE5 SHL DUP2 MSTORE PUSH1 0x20 PUSH1 0x4 DUP3 ADD MSTORE PUSH1 0x1F PUSH1 0x24 DUP3 ADD MSTORE PUSH32 0x45524332303A206D696E7420746F20746865207A65726F206164647265737300 PUSH1 0x44 DUP3 ADD MSTORE PUSH1 0x64 SWAP1 REVERT JUMPDEST ADD MLOAD SWAP1 POP CODESIZE DUP1 PUSH3 0x2E0 JUMP JUMPDEST PUSH1 0xA PUSH1 0x0 SWAP1 DUP2 MSTORE PUSH1 0x0 DUP1 MLOAD PUSH1 0x20 PUSH3 0x1FFC DUP4 CODECOPY DUP2 MLOAD SWAP2 MSTORE SWAP2 SWAP1 PUSH1 0x1F NOT DUP5 AND SWAP1 JUMPDEST DUP2 DUP2 LT PUSH3 0x4CD JUMPI POP SWAP6 DUP4 PUSH1 0x1 SWAP6 SWAP7 SWAP8 LT PUSH3 0x4B3 JUMPI JUMPDEST POP POP POP DUP2 SHL ADD PUSH1 0xA SSTORE PUSH3 0x2F6 JUMP JUMPDEST ADD MLOAD PUSH1 0x0 NOT PUSH1 0xF8 DUP5 PUSH1 0x3 SHL AND SHR NOT AND SWAP1 SSTORE CODESIZE DUP1 DUP1 PUSH3 0x4A4 JUMP JUMPDEST SWAP2 SWAP3 PUSH1 0x20 PUSH1 0x1 DUP2 SWAP3 DUP7 DUP12 ADD MLOAD DUP2 SSTORE ADD SWAP5 ADD SWAP3 ADD PUSH3 0x48D JUMP JUMPDEST PUSH1 0xA PUSH1 0x0 MSTORE PUSH1 0x0 DUP1 MLOAD PUSH1 0x20 PUSH3 0x1FFC DUP4 CODECOPY DUP2 MLOAD SWAP2 MSTORE PUSH1 0x1F DUP4 ADD PUSH1 0x5 SHR DUP2 ADD SWAP2 PUSH1 0x20 DUP5 LT PUSH3 0x534 JUMPI JUMPDEST PUSH1 0x1F ADD PUSH1 0x5 SHR ADD SWAP1 JUMPDEST DUP2 DUP2 LT PUSH3 0x527 JUMPI POP PUSH3 0x2C4 JUMP JUMPDEST PUSH1 0x0 DUP2 SSTORE PUSH1 0x1 ADD PUSH3 0x518 JUMP JUMPDEST SWAP1 SWAP2 POP DUP2 SWAP1 PUSH3 0x50F JUMP JUMPDEST PUSH4 0x4E487B71 PUSH1 0xE0 SHL PUSH1 0x0 MSTORE PUSH1 0x22 PUSH1 0x4 MSTORE PUSH1 0x24 PUSH1 0x0 REVERT JUMPDEST SWAP1 PUSH1 0x7F AND SWAP1 PUSH3 0x2B0 JUMP JUMPDEST PUSH4 0x4E487B71 PUSH1 0xE0 SHL PUSH1 0x0 MSTORE PUSH1 0x41 PUSH1 0x4 MSTORE PUSH1 0x24 PUSH1 0x0 REVERT JUMPDEST PUSH1 0x40 MLOAD PUSH4 0xC16F3A93 PUSH1 0xE0 SHL DUP2 MSTORE PUSH1 0x4 SWAP1 REVERT JUMPDEST PUSH1 0x40 MLOAD PUSH4 0x94322419 PUSH1 0xE0 SHL DUP2 MSTORE PUSH1 0x4 SWAP1 REVERT JUMPDEST PUSH1 0x3 SWAP2 POP MLOAD LT CODESIZE PUSH3 0x280 JUMP JUMPDEST PUSH1 0xC0 PUSH1 0x4 SWAP2 PUSH4 0xD92E233D PUSH1 0xE0 SHL DUP3 DUP3 ADD MSTORE ADD REVERT JUMPDEST SWAP1 POP DUP5 ADD MLOAD CODESIZE PUSH3 0x196 JUMP JUMPDEST PUSH1 0x4 PUSH1 0x0 SWAP1 DUP2 MSTORE SWAP3 POP PUSH32 0x8A35ACFBC15FF81A39AE7D344FD709F28E8600B4AA8C65C6B64BFE7FE36BD19B SWAP1 JUMPDEST PUSH1 0x1F NOT DUP4 AND DUP5 LT PUSH3 0x638 JUMPI PUSH1 0x1 SWAP4 POP DUP3 PUSH1 0x1F NOT DUP2 AND LT PUSH3 0x61E JUMPI JUMPDEST POP POP DUP2 SHL ADD PUSH1 0x4 SSTORE PUSH3 0x1AB JUMP JUMPDEST DUP7 ADD MLOAD PUSH1 0x0 NOT PUSH1 0xF8 DUP5 PUSH1 0x3 SHL AND SHR NOT AND SWAP1 SSTORE CODESIZE DUP1 PUSH3 0x610 JUMP JUMPDEST DUP7 DUP2 ADD MLOAD DUP3 SSTORE PUSH1 0x20 SWAP4 DUP5 ADD SWAP4 PUSH1 0x1 SWAP1 SWAP3 ADD SWAP2 ADD PUSH3 0x5F3 JUMP JUMPDEST PUSH1 0x4 PUSH1 0x0 MSTORE PUSH32 0x8A35ACFBC15FF81A39AE7D344FD709F28E8600B4AA8C65C6B64BFE7FE36BD19B PUSH1 0x1F DUP4 ADD PUSH1 0x5 SHR DUP2 ADD SWAP2 PUSH1 0x20 DUP5 LT PUSH3 0x6B0 JUMPI JUMPDEST PUSH1 0x1F ADD PUSH1 0x5 SHR ADD SWAP1 JUMPDEST DUP2 DUP2 LT PUSH3 0x6A3 JUMPI POP PUSH3 0x17D JUMP JUMPDEST PUSH1 0x0 DUP2 SSTORE PUSH1 0x1 ADD PUSH3 0x694 JUMP JUMPDEST SWAP1 SWAP2 POP DUP2 SWAP1 PUSH3 0x68B JUMP JUMPDEST SWAP1 PUSH1 0x7F AND SWAP1 PUSH3 0x169 JUMP JUMPDEST SWAP1 POP DUP4 ADD MLOAD CODESIZE PUSH3 0x131 JUMP JUMPDEST PUSH1 0x3 PUSH1 0x0 SWAP1 DUP2 MSTORE SWAP3 POP PUSH32 0xC2575A0E9E593C00F959F8C92F12DB2869C3395A3B0502D05E2516446F71F85B SWAP1 JUMPDEST PUSH1 0x1F NOT DUP4 AND DUP5 LT PUSH3 0x743 JUMPI PUSH1 0x1 SWAP4 POP DUP3 PUSH1 0x1F NOT DUP2 AND LT PUSH3 0x729 JUMPI JUMPDEST POP POP DUP2 SHL ADD PUSH1 0x3 SSTORE PUSH3 0x146 JUMP JUMPDEST DUP6 ADD MLOAD PUSH1 0x0 NOT PUSH1 0xF8 DUP5 PUSH1 0x3 SHL AND SHR NOT AND SWAP1 SSTORE CODESIZE DUP1 PUSH3 0x71B JUMP JUMPDEST DUP6 DUP2 ADD MLOAD DUP3 SSTORE PUSH1 0x20 SWAP4 DUP5 ADD SWAP4 PUSH1 0x1 SWAP1 SWAP3 ADD SWAP2 ADD PUSH3 0x6FE JUMP JUMPDEST PUSH1 0x3 PUSH1 0x0 MSTORE PUSH32 0xC2575A0E9E593C00F959F8C92F12DB2869C3395A3B0502D05E2516446F71F85B PUSH1 0x1F DUP4 ADD PUSH1 0x5 SHR DUP2 ADD PUSH1 0x20 DUP5 LT PUSH3 0x7BA JUMPI JUMPDEST PUSH1 0x1F DUP4 ADD PUSH1 0x5 SHR DUP3 ADD DUP2 LT PUSH3 0x7AD JUMPI POP POP PUSH3 0x118 JUMP JUMPDEST PUSH1 0x0 DUP2 SSTORE PUSH1 0x1 ADD PUSH3 0x795 JUMP JUMPDEST POP DUP1 PUSH3 0x795 JUMP JUMPDEST SWAP1 PUSH1 0x7F AND SWAP1 PUSH3 0x104 JUMP JUMPDEST PUSH1 0x0 DUP1 REVERT JUMPDEST PUSH1 0x1F SWAP1 SWAP2 ADD PUSH1 0x1F NOT AND DUP2 ADD SWAP1 PUSH1 0x1 PUSH1 0x1 PUSH1 0x40 SHL SUB DUP3 GT SWAP1 DUP3 LT OR PUSH3 0x560 JUMPI PUSH1 0x40 MSTORE JUMP JUMPDEST PUSH1 0x0 JUMPDEST DUP4 DUP2 LT PUSH3 0x80A JUMPI POP POP PUSH1 0x0 SWAP2 ADD MSTORE JUMP JUMPDEST DUP2 DUP2 ADD MLOAD DUP4 DUP3 ADD MSTORE PUSH1 0x20 ADD PUSH3 0x7F9 JUMP JUMPDEST DUP2 PUSH1 0x1F DUP3 ADD SLT ISZERO PUSH3 0x7CD JUMPI DUP1 MLOAD PUSH1 0x1 PUSH1 0x1 PUSH1 0x40 SHL SUB DUP2 GT PUSH3 0x560 JUMPI PUSH1 0x40 MLOAD SWAP3 PUSH3 0x852 PUSH1 0x1F DUP4 ADD PUSH1 0x1F NOT AND PUSH1 0x20 ADD DUP6 PUSH3 0x7D2 JUMP JUMPDEST DUP2 DUP5 MSTORE PUSH1 0x20 DUP3 DUP5 ADD ADD GT PUSH3 0x7CD JUMPI PUSH3 0x873 SWAP2 PUSH1 0x20 DUP1 DUP6 ADD SWAP2 ADD PUSH3 0x7F6 JUMP JUMPDEST SWAP1 JUMP JUMPDEST PUSH1 0x9 DUP1 SLOAD PUSH1 0x1 PUSH1 0x1 PUSH1 0xA0 SHL SUB SWAP3 DUP4 AND PUSH1 0x1 PUSH1 0x1 PUSH1 0xA0 SHL SUB NOT DUP3 AND DUP2 OR SWAP1 SWAP3 SSTORE SWAP1 SWAP2 AND PUSH32 0x8BE0079C531659141344CD1FD0A4F28419497F9722A3DAAFE3B4186F6B6457E0 PUSH1 0x0 DUP1 LOG3 JUMP JUMPDEST DUP1 MLOAD PUSH1 0x20 SWAP2 SWAP1 DUP3 DUP2 LT ISZERO PUSH3 0x93F JUMPI POP SWAP1 PUSH1 0x1F DUP3 MLOAD GT PUSH3 0x8FD JUMPI DUP1 DUP3 MLOAD SWAP3 ADD MLOAD SWAP1 DUP1 DUP4 LT PUSH3 0x8EE JUMPI POP OR SWAP1 JUMP JUMPDEST DUP3 PUSH1 0x0 NOT SWAP2 SUB PUSH1 0x3 SHL SHL AND OR SWAP1 JUMP JUMPDEST PUSH1 0x44 SWAP1 PUSH3 0x931 SWAP3 PUSH1 0x40 MLOAD SWAP4 DUP5 SWAP3 PUSH4 0x305A27A9 PUSH1 0xE0 SHL DUP5 MSTORE DUP1 PUSH1 0x4 DUP6 ADD MSTORE DUP3 MLOAD SWAP3 DUP4 SWAP2 DUP3 PUSH1 0x24 DUP8 ADD MSTORE DUP7 DUP7 ADD SWAP2 ADD PUSH3 0x7F6 JUMP JUMPDEST PUSH1 0x1F ADD PUSH1 0x1F NOT AND DUP2 ADD SUB ADD SWAP1 REVERT JUMPDEST PUSH1 0x1 PUSH1 0x1 PUSH1 0x40 SHL SUB DUP2 GT PUSH3 0x560 JUMPI PUSH1 0x5 SWAP3 DUP4 SLOAD SWAP3 PUSH1 0x1 SWAP4 DUP5 DUP2 DUP2 SHR SWAP2 AND DUP1 ISZERO PUSH3 0xA59 JUMPI JUMPDEST DUP4 DUP3 LT EQ PUSH3 0x53F JUMPI PUSH1 0x1F DUP2 GT PUSH3 0xA22 JUMPI JUMPDEST POP DUP2 PUSH1 0x1F DUP5 GT PUSH1 0x1 EQ PUSH3 0x9B8 JUMPI POP SWAP3 DUP3 SWAP4 SWAP2 DUP4 SWAP3 PUSH1 0x0 SWAP5 PUSH3 0x9AC JUMPI JUMPDEST POP POP SHL SWAP2 PUSH1 0x0 NOT SWAP1 PUSH1 0x3 SHL SHR NOT AND OR SWAP1 SSTORE PUSH1 0xFF SWAP1 JUMP JUMPDEST ADD MLOAD SWAP3 POP CODESIZE DUP1 PUSH3 0x996 JUMP JUMPDEST SWAP2 SWAP1 DUP4 PUSH1 0x1F NOT DUP2 AND DUP8 PUSH1 0x0 MSTORE DUP5 PUSH1 0x0 KECCAK256 SWAP5 PUSH1 0x0 SWAP1 JUMPDEST DUP9 DUP4 DUP4 LT PUSH3 0xA07 JUMPI POP POP POP LT PUSH3 0x9ED JUMPI JUMPDEST POP POP POP DUP2 SHL ADD SWAP1 SSTORE PUSH1 0xFF SWAP1 JUMP JUMPDEST ADD MLOAD PUSH1 0x0 NOT PUSH1 0xF8 DUP5 PUSH1 0x3 SHL AND SHR NOT AND SWAP1 SSTORE CODESIZE DUP1 DUP1 PUSH3 0x9E0 JUMP JUMPDEST DUP6 DUP8 ADD MLOAD DUP9 SSTORE SWAP1 SWAP7 ADD SWAP6 SWAP5 DUP6 ADD SWAP5 DUP8 SWAP4 POP SWAP1 DUP2 ADD SWAP1 PUSH3 0x9CD JUMP JUMPDEST DUP6 PUSH1 0x0 MSTORE DUP5 PUSH1 0x1F DUP5 PUSH1 0x0 KECCAK256 SWAP3 ADD DUP8 SHR DUP3 ADD SWAP2 PUSH1 0x1F DUP7 ADD DUP9 SHR ADD JUMPDEST DUP3 DUP2 LT PUSH3 0xA4C JUMPI POP POP PUSH3 0x978 JUMP JUMPDEST PUSH1 0x0 DUP2 SSTORE ADD DUP6 SWAP1 PUSH3 0xA3C JUMP JUMPDEST SWAP1 PUSH1 0x7F AND SWAP1 PUSH3 0x965 JUMP JUMPDEST DUP1 MLOAD PUSH1 0x20 SWAP1 DUP2 DUP2 LT ISZERO PUSH3 0xA91 JUMPI POP PUSH1 0x1F DUP3 MLOAD GT PUSH3 0x8FD JUMPI DUP1 DUP3 MLOAD SWAP3 ADD MLOAD SWAP1 DUP1 DUP4 LT PUSH3 0x8EE JUMPI POP OR SWAP1 JUMP JUMPDEST SWAP1 PUSH1 0x1 PUSH1 0x1 PUSH1 0x40 SHL SUB DUP3 GT PUSH3 0x560 JUMPI PUSH1 0x6 SLOAD SWAP3 PUSH1 0x1 SWAP4 DUP5 DUP2 DUP2 SHR SWAP2 AND DUP1 ISZERO PUSH3 0xBB0 JUMPI JUMPDEST DUP4 DUP3 LT EQ PUSH3 0x53F JUMPI PUSH1 0x1F DUP2 GT PUSH3 0xB76 JUMPI JUMPDEST POP DUP2 PUSH1 0x1F DUP5 GT PUSH1 0x1 EQ PUSH3 0xB0A JUMPI POP SWAP3 DUP3 SWAP4 SWAP2 DUP4 SWAP3 PUSH1 0x0 SWAP5 PUSH3 0xAFE JUMPI JUMPDEST POP POP SHL SWAP2 PUSH1 0x0 NOT SWAP1 PUSH1 0x3 SHL SHR NOT AND OR PUSH1 0x6 SSTORE PUSH1 0xFF SWAP1 JUMP JUMPDEST ADD MLOAD SWAP3 POP CODESIZE DUP1 PUSH3 0xAE7 JUMP JUMPDEST SWAP2 SWAP1 DUP4 PUSH1 0x1F NOT DUP2 AND PUSH1 0x6 PUSH1 0x0 MSTORE DUP5 PUSH1 0x0 KECCAK256 SWAP5 PUSH1 0x0 SWAP1 JUMPDEST DUP9 DUP4 DUP4 LT PUSH3 0xB5B JUMPI POP POP POP LT PUSH3 0xB41 JUMPI JUMPDEST POP POP POP DUP2 SHL ADD PUSH1 0x6 SSTORE PUSH1 0xFF SWAP1 JUMP JUMPDEST ADD MLOAD PUSH1 0x0 NOT PUSH1 0xF8 DUP5 PUSH1 0x3 SHL AND SHR NOT AND SWAP1 SSTORE CODESIZE DUP1 DUP1 PUSH3 0xB33 JUMP JUMPDEST DUP6 DUP8 ADD MLOAD DUP9 SSTORE SWAP1 SWAP7 ADD SWAP6 SWAP5 DUP6 ADD SWAP5 DUP8 SWAP4 POP SWAP1 DUP2 ADD SWAP1 PUSH3 0xB20 JUMP JUMPDEST PUSH1 0x6 PUSH1 0x0 MSTORE DUP5 PUSH1 0x1F DUP5 PUSH1 0x0 KECCAK256 SWAP3 ADD PUSH1 0x5 SHR DUP3 ADD SWAP2 PUSH1 0x1F DUP7 ADD PUSH1 0x5 SHR ADD JUMPDEST DUP3 DUP2 LT PUSH3 0xBA3 JUMPI POP POP PUSH3 0xAC9 JUMP JUMPDEST PUSH1 0x0 DUP2 SSTORE ADD DUP6 SWAP1 PUSH3 0xB93 JUMP JUMPDEST SWAP1 PUSH1 0x7F AND SWAP1 PUSH3 0xAB6 JUMP INVALID PUSH1 0x80 PUSH1 0x40 DUP2 DUP2 MSTORE PUSH1 0x4 DUP1 CALLDATASIZE LT ISZERO PUSH2 0x15 JUMPI PUSH1 0x0 DUP1 REVERT JUMPDEST PUSH1 0x0 SWAP3 DUP4 CALLDATALOAD PUSH1 0xE0 SHR SWAP1 DUP2 PUSH4 0x6FDDE03 EQ PUSH2 0xB3A JUMPI POP DUP1 PUSH4 0x95EA7B3 EQ PUSH2 0xB10 JUMPI DUP1 PUSH4 0x18160DDD EQ PUSH2 0xAF1 JUMPI DUP1 PUSH4 0x23B872DD EQ PUSH2 0xA27 JUMPI DUP1 PUSH4 0x313CE567 EQ PUSH2 0xA0B JUMPI DUP1 PUSH4 0x3644E515 EQ PUSH2 0x9E7 JUMPI DUP1 PUSH4 0x39509351 EQ PUSH2 0x980 JUMPI DUP1 PUSH4 0x3C130D90 EQ PUSH2 0x87A JUMPI DUP1 PUSH4 0x70A08231 EQ PUSH2 0x843 JUMPI DUP1 PUSH4 0x715018A6 EQ PUSH2 0x7E6 JUMPI DUP1 PUSH4 0x7ECEBE00 EQ PUSH2 0x7AE JUMPI DUP1 PUSH4 0x84B0196E EQ PUSH2 0x691 JUMPI DUP1 PUSH4 0x8DA5CB5B EQ PUSH2 0x668 JUMPI DUP1 PUSH4 0x95D89B41 EQ PUSH2 0x594 JUMPI DUP1 PUSH4 0xA457C2D7 EQ PUSH2 0x4ED JUMPI DUP1 PUSH4 0xA9059CBB EQ PUSH2 0x4BC JUMPI DUP1 PUSH4 0xC623674F EQ PUSH2 0x3D3 JUMPI DUP1 PUSH4 0xD505ACCF EQ PUSH2 0x21A JUMPI DUP1 PUSH4 0xDD62ED3E EQ PUSH2 0x1CD JUMPI PUSH4 0xF2FDE38B EQ PUSH2 0xFF JUMPI PUSH1 0x0 DUP1 REVERT JUMPDEST CALLVALUE PUSH2 0x1C9 JUMPI PUSH1 0x20 CALLDATASIZE PUSH1 0x3 NOT ADD SLT PUSH2 0x1C9 JUMPI PUSH2 0x118 PUSH2 0xC22 JUMP JUMPDEST SWAP1 PUSH2 0x121 PUSH2 0xCE1 JUMP JUMPDEST PUSH1 0x1 PUSH1 0x1 PUSH1 0xA0 SHL SUB SWAP2 DUP3 AND SWAP3 DUP4 ISZERO PUSH2 0x177 JUMPI POP POP PUSH1 0x9 SLOAD DUP3 PUSH12 0xFFFFFFFFFFFFFFFFFFFFFFFF PUSH1 0xA0 SHL DUP3 AND OR PUSH1 0x9 SSTORE AND PUSH32 0x8BE0079C531659141344CD1FD0A4F28419497F9722A3DAAFE3B4186F6B6457E0 DUP4 DUP1 LOG3 DUP1 RETURN JUMPDEST SWAP1 PUSH1 0x20 PUSH1 0x84 SWAP3 MLOAD SWAP2 PUSH3 0x461BCD PUSH1 0xE5 SHL DUP4 MSTORE DUP3 ADD MSTORE PUSH1 0x26 PUSH1 0x24 DUP3 ADD MSTORE PUSH32 0x4F776E61626C653A206E6577206F776E657220697320746865207A65726F2061 PUSH1 0x44 DUP3 ADD MSTORE PUSH6 0x646472657373 PUSH1 0xD0 SHL PUSH1 0x64 DUP3 ADD MSTORE REVERT JUMPDEST DUP3 DUP1 REVERT JUMPDEST POP POP CALLVALUE PUSH2 0x216 JUMPI DUP1 PUSH1 0x3 NOT CALLDATASIZE ADD SLT PUSH2 0x216 JUMPI DUP1 PUSH1 0x20 SWAP3 PUSH2 0x1EB PUSH2 0xC22 JUMP JUMPDEST PUSH2 0x1F3 PUSH2 0xC3D JUMP JUMPDEST PUSH1 0x1 PUSH1 0x1 PUSH1 0xA0 SHL SUB SWAP2 DUP3 AND DUP4 MSTORE PUSH1 0x1 DUP7 MSTORE DUP4 DUP4 KECCAK256 SWAP2 AND DUP3 MSTORE DUP5 MSTORE KECCAK256 SLOAD SWAP1 MLOAD SWAP1 DUP2 MSTORE RETURN JUMPDEST POP DUP1 REVERT JUMPDEST POP DUP3 SWAP1 CALLVALUE PUSH2 0x216 JUMPI PUSH1 0xE0 CALLDATASIZE PUSH1 0x3 NOT ADD SLT PUSH2 0x216 JUMPI PUSH2 0x236 PUSH2 0xC22 JUMP JUMPDEST PUSH2 0x23E PUSH2 0xC3D JUMP JUMPDEST SWAP1 PUSH1 0x44 CALLDATALOAD SWAP3 PUSH1 0x64 CALLDATALOAD PUSH1 0x84 CALLDATALOAD PUSH1 0xFF DUP2 AND DUP2 SUB PUSH2 0x3CF JUMPI DUP2 TIMESTAMP GT PUSH2 0x38C JUMPI PUSH1 0x1 DUP1 PUSH1 0xA0 SHL SUB SWAP1 DUP2 DUP6 AND SWAP3 DUP4 DUP10 MSTORE PUSH1 0x7 PUSH1 0x20 MSTORE DUP10 DUP10 KECCAK256 SWAP1 DUP2 SLOAD SWAP2 PUSH1 0x1 DUP4 ADD SWAP1 SSTORE DUP11 MLOAD SWAP1 PUSH1 0x20 DUP3 ADD SWAP3 PUSH32 0x6E71EDAE12B1B97F4D1F60370FEF10105FA2FAAE0126114A169C64845D6126C9 DUP5 MSTORE DUP7 DUP14 DUP5 ADD MSTORE DUP6 DUP11 AND PUSH1 0x60 DUP5 ADD MSTORE DUP11 PUSH1 0x80 DUP5 ADD MSTORE PUSH1 0xA0 DUP4 ADD MSTORE PUSH1 0xC0 DUP3 ADD MSTORE PUSH1 0xC0 DUP2 MSTORE PUSH1 0xE0 DUP2 ADD DUP2 DUP2 LT PUSH8 0xFFFFFFFFFFFFFFFF DUP3 GT OR PUSH2 0x379 JUMPI DUP12 MSTORE MLOAD SWAP1 KECCAK256 PUSH2 0x321 SWAP2 PUSH2 0x319 SWAP2 PUSH2 0x2F3 PUSH2 0x1152 JUMP JUMPDEST SWAP1 DUP13 MLOAD SWAP2 PUSH2 0x1901 PUSH1 0xF0 SHL DUP4 MSTORE PUSH1 0x2 DUP4 ADD MSTORE PUSH1 0x22 DUP3 ADD MSTORE PUSH1 0xC4 CALLDATALOAD SWAP2 PUSH1 0x42 PUSH1 0xA4 CALLDATALOAD SWAP3 KECCAK256 PUSH2 0x10C3 JUMP JUMPDEST SWAP2 SWAP1 SWAP2 PUSH2 0xFA9 JUMP JUMPDEST AND SUB PUSH2 0x336 JUMPI POP PUSH2 0x333 SWAP4 SWAP5 POP PUSH2 0xEA7 JUMP JUMPDEST DUP1 RETURN JUMPDEST PUSH1 0x64 SWAP1 PUSH1 0x20 DUP8 MLOAD SWAP2 PUSH3 0x461BCD PUSH1 0xE5 SHL DUP4 MSTORE DUP3 ADD MSTORE PUSH1 0x1E PUSH1 0x24 DUP3 ADD MSTORE PUSH32 0x45524332305065726D69743A20696E76616C6964207369676E61747572650000 PUSH1 0x44 DUP3 ADD MSTORE REVERT JUMPDEST PUSH4 0x4E487B71 PUSH1 0xE0 SHL DUP12 MSTORE PUSH1 0x41 DUP8 MSTORE PUSH1 0x24 DUP12 REVERT JUMPDEST DUP8 MLOAD PUSH3 0x461BCD PUSH1 0xE5 SHL DUP2 MSTORE PUSH1 0x20 DUP2 DUP6 ADD MSTORE PUSH1 0x1D PUSH1 0x24 DUP3 ADD MSTORE PUSH32 0x45524332305065726D69743A206578706972656420646561646C696E65000000 PUSH1 0x44 DUP3 ADD MSTORE PUSH1 0x64 SWAP1 REVERT JUMPDEST DUP7 DUP1 REVERT JUMPDEST POP POP CALLVALUE PUSH2 0x216 JUMPI DUP2 PUSH1 0x3 NOT CALLDATASIZE ADD SLT PUSH2 0x216 JUMPI DUP1 MLOAD SWAP1 DUP3 PUSH1 0xA SLOAD PUSH2 0x3F5 DUP2 PUSH2 0xC53 JUMP JUMPDEST DUP1 DUP6 MSTORE SWAP2 PUSH1 0x1 SWAP2 DUP1 DUP4 AND SWAP1 DUP2 ISZERO PUSH2 0x494 JUMPI POP PUSH1 0x1 EQ PUSH2 0x437 JUMPI JUMPDEST POP POP POP PUSH2 0x421 DUP3 PUSH2 0x433 SWAP5 SUB DUP4 PUSH2 0xCBF JUMP JUMPDEST MLOAD SWAP2 DUP3 SWAP2 PUSH1 0x20 DUP4 MSTORE PUSH1 0x20 DUP4 ADD SWAP1 PUSH2 0xBE2 JUMP JUMPDEST SUB SWAP1 RETURN JUMPDEST SWAP5 POP PUSH1 0xA DUP6 MSTORE PUSH32 0xC65A7BB8D6351C1CF70C95A316CC6A92839C986682D98BC35F958F4883F9D2A8 JUMPDEST DUP3 DUP7 LT PUSH2 0x47C JUMPI POP POP POP PUSH2 0x421 DUP3 PUSH1 0x20 PUSH2 0x433 SWAP6 DUP3 ADD ADD SWAP5 PUSH2 0x40F JUMP JUMPDEST DUP1 SLOAD PUSH1 0x20 DUP8 DUP8 ADD DUP2 ADD SWAP2 SWAP1 SWAP2 MSTORE SWAP1 SWAP6 ADD SWAP5 DUP2 ADD PUSH2 0x45F JUMP JUMPDEST PUSH2 0x433 SWAP8 POP DUP7 SWAP4 POP PUSH1 0x20 SWAP3 POP PUSH2 0x421 SWAP5 SWAP2 POP PUSH1 0xFF NOT AND DUP3 DUP5 ADD MSTORE ISZERO ISZERO PUSH1 0x5 SHL DUP3 ADD ADD SWAP5 PUSH2 0x40F JUMP JUMPDEST POP POP CALLVALUE PUSH2 0x216 JUMPI DUP1 PUSH1 0x3 NOT CALLDATASIZE ADD SLT PUSH2 0x216 JUMPI PUSH1 0x20 SWAP1 PUSH2 0x4E6 PUSH2 0x4DC PUSH2 0xC22 JUMP JUMPDEST PUSH1 0x24 CALLDATALOAD SWAP1 CALLER PUSH2 0xD39 JUMP JUMPDEST MLOAD PUSH1 0x1 DUP2 MSTORE RETURN JUMPDEST POP DUP3 CALLVALUE PUSH2 0x591 JUMPI DUP3 PUSH1 0x3 NOT CALLDATASIZE ADD SLT PUSH2 0x591 JUMPI PUSH2 0x507 PUSH2 0xC22 JUMP JUMPDEST SWAP2 DUP4 PUSH1 0x24 CALLDATALOAD SWAP3 CALLER DUP2 MSTORE PUSH1 0x1 PUSH1 0x20 MSTORE DUP2 DUP2 KECCAK256 PUSH1 0x1 DUP1 PUSH1 0xA0 SHL SUB DUP7 AND DUP3 MSTORE PUSH1 0x20 MSTORE KECCAK256 SLOAD SWAP1 DUP3 DUP3 LT PUSH2 0x540 JUMPI PUSH1 0x20 DUP6 PUSH2 0x4E6 DUP6 DUP6 SUB DUP8 CALLER PUSH2 0xEA7 JUMP JUMPDEST PUSH1 0x84 SWAP1 PUSH1 0x20 DUP7 MLOAD SWAP2 PUSH3 0x461BCD PUSH1 0xE5 SHL DUP4 MSTORE DUP3 ADD MSTORE PUSH1 0x25 PUSH1 0x24 DUP3 ADD MSTORE PUSH32 0x45524332303A2064656372656173656420616C6C6F77616E63652062656C6F77 PUSH1 0x44 DUP3 ADD MSTORE PUSH5 0x207A65726F PUSH1 0xD8 SHL PUSH1 0x64 DUP3 ADD MSTORE REVERT JUMPDEST DUP1 REVERT JUMPDEST POP SWAP1 CALLVALUE PUSH2 0x1C9 JUMPI DUP3 PUSH1 0x3 NOT CALLDATASIZE ADD SLT PUSH2 0x1C9 JUMPI DUP1 MLOAD SWAP2 DUP4 DUP2 SLOAD SWAP1 PUSH2 0x5B6 DUP3 PUSH2 0xC53 JUMP JUMPDEST DUP1 DUP7 MSTORE SWAP3 PUSH1 0x1 SWAP3 DUP1 DUP5 AND SWAP1 DUP2 ISZERO PUSH2 0x63D JUMPI POP PUSH1 0x1 EQ PUSH2 0x5E1 JUMPI JUMPDEST PUSH2 0x433 DUP7 DUP7 PUSH2 0x421 DUP3 DUP12 SUB DUP4 PUSH2 0xCBF JUMP JUMPDEST DUP2 MSTORE SWAP5 POP PUSH32 0x8A35ACFBC15FF81A39AE7D344FD709F28E8600B4AA8C65C6B64BFE7FE36BD19B JUMPDEST DUP3 DUP7 LT PUSH2 0x625 JUMPI POP POP POP PUSH2 0x421 DUP3 PUSH1 0x20 PUSH2 0x433 SWAP6 DUP3 ADD ADD SWAP5 CODESIZE PUSH2 0x5D0 JUMP JUMPDEST DUP1 SLOAD PUSH1 0x20 DUP8 DUP8 ADD DUP2 ADD SWAP2 SWAP1 SWAP2 MSTORE SWAP1 SWAP6 ADD SWAP5 DUP2 ADD PUSH2 0x607 JUMP JUMPDEST SWAP1 POP PUSH2 0x433 SWAP8 POP DUP7 SWAP4 POP PUSH1 0x20 SWAP3 POP PUSH2 0x421 SWAP5 SWAP2 POP PUSH1 0xFF NOT AND DUP3 DUP5 ADD MSTORE ISZERO ISZERO PUSH1 0x5 SHL DUP3 ADD ADD SWAP5 CODESIZE PUSH2 0x5D0 JUMP JUMPDEST POP POP CALLVALUE PUSH2 0x216 JUMPI DUP2 PUSH1 0x3 NOT CALLDATASIZE ADD SLT PUSH2 0x216 JUMPI PUSH1 0x9 SLOAD SWAP1 MLOAD PUSH1 0x1 PUSH1 0x1 PUSH1 0xA0 SHL SUB SWAP1 SWAP2 AND DUP2 MSTORE PUSH1 0x20 SWAP1 RETURN JUMPDEST POP SWAP1 CALLVALUE PUSH2 0x1C9 JUMPI DUP3 PUSH1 0x3 NOT CALLDATASIZE ADD SLT PUSH2 0x1C9 JUMPI PUSH2 0x6CC PUSH32 0x0 PUSH2 0x127D JUMP JUMPDEST SWAP3 PUSH2 0x6F6 PUSH32 0x0 PUSH2 0x1379 JUMP JUMPDEST SWAP1 DUP3 MLOAD SWAP3 PUSH1 0x20 SWAP3 DUP4 DUP6 ADD SWAP6 DUP6 DUP8 LT PUSH8 0xFFFFFFFFFFFFFFFF DUP9 GT OR PUSH2 0x79B JUMPI POP SWAP3 DUP1 PUSH2 0x751 DUP4 DUP9 SWAP7 PUSH2 0x744 SWAP10 DUP12 SWAP10 SWAP7 MSTORE DUP7 DUP7 MSTORE DUP2 MLOAD SWAP10 DUP11 SWAP10 PUSH1 0xF PUSH1 0xF8 SHL DUP12 MSTORE PUSH1 0xE0 DUP7 DUP13 ADD MSTORE PUSH1 0xE0 DUP12 ADD SWAP1 PUSH2 0xBE2 JUMP JUMPDEST SWAP2 DUP10 DUP4 SUB SWAP1 DUP11 ADD MSTORE PUSH2 0xBE2 JUMP JUMPDEST SWAP3 CHAINID PUSH1 0x60 DUP9 ADD MSTORE ADDRESS PUSH1 0x80 DUP9 ADD MSTORE DUP5 PUSH1 0xA0 DUP9 ADD MSTORE DUP7 DUP5 SUB PUSH1 0xC0 DUP9 ADD MSTORE MLOAD SWAP3 DUP4 DUP2 MSTORE ADD SWAP4 SWAP3 JUMPDEST DUP3 DUP2 LT PUSH2 0x784 JUMPI POP POP POP POP SUB SWAP1 RETURN JUMPDEST DUP4 MLOAD DUP6 MSTORE DUP7 SWAP6 POP SWAP4 DUP2 ADD SWAP4 SWAP3 DUP2 ADD SWAP3 PUSH1 0x1 ADD PUSH2 0x775 JUMP JUMPDEST PUSH4 0x4E487B71 PUSH1 0xE0 SHL DUP5 MSTORE PUSH1 0x41 SWAP1 MSTORE PUSH1 0x24 DUP4 REVERT JUMPDEST POP POP CALLVALUE PUSH2 0x216 JUMPI PUSH1 0x20 CALLDATASIZE PUSH1 0x3 NOT ADD SLT PUSH2 0x216 JUMPI PUSH1 0x20 SWAP2 DUP2 SWAP1 PUSH1 0x1 PUSH1 0x1 PUSH1 0xA0 SHL SUB PUSH2 0x7D6 PUSH2 0xC22 JUMP JUMPDEST AND DUP2 MSTORE PUSH1 0x7 DUP5 MSTORE KECCAK256 SLOAD SWAP1 MLOAD SWAP1 DUP2 MSTORE RETURN JUMPDEST DUP4 CALLVALUE PUSH2 0x591 JUMPI DUP1 PUSH1 0x3 NOT CALLDATASIZE ADD SLT PUSH2 0x591 JUMPI PUSH2 0x7FF PUSH2 0xCE1 JUMP JUMPDEST PUSH1 0x9 DUP1 SLOAD PUSH1 0x1 PUSH1 0x1 PUSH1 0xA0 SHL SUB NOT DUP2 AND SWAP1 SWAP2 SSTORE DUP2 SWAP1 PUSH1 0x1 PUSH1 0x1 PUSH1 0xA0 SHL SUB AND PUSH32 0x8BE0079C531659141344CD1FD0A4F28419497F9722A3DAAFE3B4186F6B6457E0 DUP3 DUP1 LOG3 DUP1 RETURN JUMPDEST POP POP CALLVALUE PUSH2 0x216 JUMPI PUSH1 0x20 CALLDATASIZE PUSH1 0x3 NOT ADD SLT PUSH2 0x216 JUMPI PUSH1 0x20 SWAP2 DUP2 SWAP1 PUSH1 0x1 PUSH1 0x1 PUSH1 0xA0 SHL SUB PUSH2 0x86B PUSH2 0xC22 JUMP JUMPDEST AND DUP2 MSTORE DUP1 DUP5 MSTORE KECCAK256 SLOAD SWAP1 MLOAD SWAP1 DUP2 MSTORE RETURN JUMPDEST DUP3 DUP5 CALLVALUE PUSH2 0x591 JUMPI DUP1 PUSH1 0x3 NOT CALLDATASIZE ADD SLT PUSH2 0x591 JUMPI DUP2 MLOAD SWAP2 DUP3 PUSH1 0x20 SWAP3 PUSH7 0x697066733A2F2F PUSH1 0xC8 SHL DUP5 DUP4 ADD MSTORE DUP1 PUSH1 0xA SLOAD SWAP1 PUSH2 0x8B0 DUP3 PUSH2 0xC53 JUMP JUMPDEST SWAP2 PUSH1 0x1 SWAP1 DUP2 DUP2 AND SWAP1 DUP2 ISZERO PUSH2 0x955 JUMPI POP PUSH1 0x1 EQ PUSH2 0x8F0 JUMPI JUMPDEST POP POP POP PUSH2 0x433 SWAP3 SWAP2 PUSH2 0x8E1 SWAP2 SUB PUSH1 0x1F NOT DUP2 ADD DUP7 MSTORE DUP6 PUSH2 0xCBF JUMP JUMPDEST MLOAD SWAP3 DUP3 DUP5 SWAP4 DUP5 MSTORE DUP4 ADD SWAP1 PUSH2 0xBE2 JUMP JUMPDEST DUP7 SWAP6 SWAP5 SWAP4 POP PUSH1 0xA DUP3 MSTORE PUSH32 0xC65A7BB8D6351C1CF70C95A316CC6A92839C986682D98BC35F958F4883F9D2A8 JUMPDEST DUP4 DUP4 LT PUSH2 0x93C JUMPI POP SWAP4 SWAP5 POP SWAP2 SWAP3 POP DUP3 ADD PUSH1 0x27 ADD SWAP1 POP DUP2 PUSH2 0x8E1 PUSH2 0x433 PUSH2 0x8C7 JUMP JUMPDEST DUP1 SLOAD PUSH1 0x27 DUP5 DUP12 ADD ADD MSTORE DUP8 SWAP7 DUP10 SWAP6 POP SWAP1 SWAP3 ADD SWAP2 DUP2 ADD PUSH2 0x91B JUMP JUMPDEST SWAP1 POP PUSH2 0x8E1 SWAP5 POP PUSH1 0x27 SWAP3 POP PUSH2 0x433 SWAP7 SWAP6 SWAP4 SWAP2 POP PUSH1 0xFF NOT AND DUP3 DUP5 ADD MSTORE DUP1 ISZERO ISZERO MUL DUP3 ADD ADD SWAP2 DUP2 SWAP4 SWAP5 PUSH2 0x8C7 JUMP JUMPDEST POP SWAP2 CALLVALUE PUSH2 0x591 JUMPI DUP2 PUSH1 0x3 NOT CALLDATASIZE ADD SLT PUSH2 0x591 JUMPI PUSH2 0x99A PUSH2 0xC22 JUMP JUMPDEST CALLER DUP3 MSTORE PUSH1 0x1 PUSH1 0x20 SWAP1 DUP2 MSTORE DUP4 DUP4 KECCAK256 PUSH1 0x1 PUSH1 0x1 PUSH1 0xA0 SHL SUB DUP4 AND DUP5 MSTORE SWAP1 MSTORE DUP3 DUP3 KECCAK256 SLOAD PUSH1 0x24 CALLDATALOAD DUP2 ADD SWAP3 SWAP1 DUP4 LT PUSH2 0x9D4 JUMPI PUSH1 0x20 DUP5 PUSH2 0x4E6 DUP6 DUP6 CALLER PUSH2 0xEA7 JUMP JUMPDEST PUSH4 0x4E487B71 PUSH1 0xE0 SHL DUP2 MSTORE PUSH1 0x11 DUP6 MSTORE PUSH1 0x24 SWAP1 REVERT JUMPDEST POP POP CALLVALUE PUSH2 0x216 JUMPI DUP2 PUSH1 0x3 NOT CALLDATASIZE ADD SLT PUSH2 0x216 JUMPI PUSH1 0x20 SWAP1 PUSH2 0xA04 PUSH2 0x1152 JUMP JUMPDEST SWAP1 MLOAD SWAP1 DUP2 MSTORE RETURN JUMPDEST POP POP CALLVALUE PUSH2 0x216 JUMPI DUP2 PUSH1 0x3 NOT CALLDATASIZE ADD SLT PUSH2 0x216 JUMPI PUSH1 0x20 SWAP1 MLOAD PUSH1 0x12 DUP2 MSTORE RETURN JUMPDEST POP DUP3 SWAP1 CALLVALUE PUSH2 0x216 JUMPI PUSH1 0x60 CALLDATASIZE PUSH1 0x3 NOT ADD SLT PUSH2 0x216 JUMPI PUSH2 0xA43 PUSH2 0xC22 JUMP JUMPDEST PUSH2 0xA4B PUSH2 0xC3D JUMP JUMPDEST SWAP2 DUP5 PUSH1 0x44 CALLDATALOAD SWAP5 PUSH1 0x1 DUP1 PUSH1 0xA0 SHL SUB DUP5 AND DUP2 MSTORE PUSH1 0x1 PUSH1 0x20 MSTORE DUP2 DUP2 KECCAK256 CALLER DUP3 MSTORE PUSH1 0x20 MSTORE KECCAK256 SLOAD SWAP1 PUSH1 0x0 NOT DUP3 SUB PUSH2 0xA85 JUMPI JUMPDEST PUSH1 0x20 DUP7 PUSH2 0x4E6 DUP8 DUP8 DUP8 PUSH2 0xD39 JUMP JUMPDEST DUP5 DUP3 LT PUSH2 0xAAE JUMPI POP SWAP2 DUP4 SWAP2 PUSH2 0xAA3 PUSH1 0x20 SWAP7 SWAP6 PUSH2 0x4E6 SWAP6 SUB CALLER DUP4 PUSH2 0xEA7 JUMP JUMPDEST SWAP2 SWAP4 SWAP5 DUP2 SWAP4 POP PUSH2 0xA77 JUMP JUMPDEST PUSH1 0x64 SWAP1 PUSH1 0x20 DUP8 MLOAD SWAP2 PUSH3 0x461BCD PUSH1 0xE5 SHL DUP4 MSTORE DUP3 ADD MSTORE PUSH1 0x1D PUSH1 0x24 DUP3 ADD MSTORE PUSH32 0x45524332303A20696E73756666696369656E7420616C6C6F77616E6365000000 PUSH1 0x44 DUP3 ADD MSTORE REVERT JUMPDEST POP POP CALLVALUE PUSH2 0x216 JUMPI DUP2 PUSH1 0x3 NOT CALLDATASIZE ADD SLT PUSH2 0x216 JUMPI PUSH1 0x20 SWAP1 PUSH1 0x2 SLOAD SWAP1 MLOAD SWAP1 DUP2 MSTORE RETURN JUMPDEST POP POP CALLVALUE PUSH2 0x216 JUMPI DUP1 PUSH1 0x3 NOT CALLDATASIZE ADD SLT PUSH2 0x216 JUMPI PUSH1 0x20 SWAP1 PUSH2 0x4E6 PUSH2 0xB30 PUSH2 0xC22 JUMP JUMPDEST PUSH1 0x24 CALLDATALOAD SWAP1 CALLER PUSH2 0xEA7 JUMP JUMPDEST DUP5 SWAP1 DUP5 CALLVALUE PUSH2 0x1C9 JUMPI DUP3 PUSH1 0x3 NOT CALLDATASIZE ADD SLT PUSH2 0x1C9 JUMPI DUP3 PUSH1 0x3 SLOAD PUSH2 0xB5A DUP2 PUSH2 0xC53 JUMP JUMPDEST DUP1 DUP6 MSTORE SWAP2 PUSH1 0x1 SWAP2 DUP1 DUP4 AND SWAP1 DUP2 ISZERO PUSH2 0x494 JUMPI POP PUSH1 0x1 EQ PUSH2 0xB85 JUMPI POP POP POP PUSH2 0x421 DUP3 PUSH2 0x433 SWAP5 SUB DUP4 PUSH2 0xCBF JUMP JUMPDEST SWAP5 POP PUSH1 0x3 DUP6 MSTORE PUSH32 0xC2575A0E9E593C00F959F8C92F12DB2869C3395A3B0502D05E2516446F71F85B JUMPDEST DUP3 DUP7 LT PUSH2 0xBCA JUMPI POP POP POP PUSH2 0x421 DUP3 PUSH1 0x20 PUSH2 0x433 SWAP6 DUP3 ADD ADD SWAP5 PUSH2 0x40F JUMP JUMPDEST DUP1 SLOAD PUSH1 0x20 DUP8 DUP8 ADD DUP2 ADD SWAP2 SWAP1 SWAP2 MSTORE SWAP1 SWAP6 ADD SWAP5 DUP2 ADD PUSH2 0xBAD JUMP JUMPDEST SWAP2 SWAP1 DUP3 MLOAD SWAP3 DUP4 DUP3 MSTORE PUSH1 0x0 JUMPDEST DUP5 DUP2 LT PUSH2 0xC0E JUMPI POP POP DUP3 PUSH1 0x0 PUSH1 0x20 DUP1 SWAP5 SWAP6 DUP5 ADD ADD MSTORE PUSH1 0x1F DUP1 NOT SWAP2 ADD AND ADD ADD SWAP1 JUMP JUMPDEST PUSH1 0x20 DUP2 DUP4 ADD DUP2 ADD MLOAD DUP5 DUP4 ADD DUP3 ADD MSTORE ADD PUSH2 0xBED JUMP JUMPDEST PUSH1 0x4 CALLDATALOAD SWAP1 PUSH1 0x1 PUSH1 0x1 PUSH1 0xA0 SHL SUB DUP3 AND DUP3 SUB PUSH2 0xC38 JUMPI JUMP JUMPDEST PUSH1 0x0 DUP1 REVERT JUMPDEST PUSH1 0x24 CALLDATALOAD SWAP1 PUSH1 0x1 PUSH1 0x1 PUSH1 0xA0 SHL SUB DUP3 AND DUP3 SUB PUSH2 0xC38 JUMPI JUMP JUMPDEST SWAP1 PUSH1 0x1 DUP3 DUP2 SHR SWAP3 AND DUP1 ISZERO PUSH2 0xC83 JUMPI JUMPDEST PUSH1 0x20 DUP4 LT EQ PUSH2 0xC6D JUMPI JUMP JUMPDEST PUSH4 0x4E487B71 PUSH1 0xE0 SHL PUSH1 0x0 MSTORE PUSH1 0x22 PUSH1 0x4 MSTORE PUSH1 0x24 PUSH1 0x0 REVERT JUMPDEST SWAP2 PUSH1 0x7F AND SWAP2 PUSH2 0xC62 JUMP JUMPDEST PUSH1 0x40 DUP2 ADD SWAP1 DUP2 LT PUSH8 0xFFFFFFFFFFFFFFFF DUP3 GT OR PUSH2 0xCA9 JUMPI PUSH1 0x40 MSTORE JUMP JUMPDEST PUSH4 0x4E487B71 PUSH1 0xE0 SHL PUSH1 0x0 MSTORE PUSH1 0x41 PUSH1 0x4 MSTORE PUSH1 0x24 PUSH1 0x0 REVERT JUMPDEST SWAP1 PUSH1 0x1F DUP1 NOT SWAP2 ADD AND DUP2 ADD SWAP1 DUP2 LT PUSH8 0xFFFFFFFFFFFFFFFF DUP3 GT OR PUSH2 0xCA9 JUMPI PUSH1 0x40 MSTORE JUMP JUMPDEST PUSH1 0x9 SLOAD PUSH1 0x1 PUSH1 0x1 PUSH1 0xA0 SHL SUB AND CALLER SUB PUSH2 0xCF5 JUMPI JUMP JUMPDEST PUSH1 0x64 PUSH1 0x40 MLOAD PUSH3 0x461BCD PUSH1 0xE5 SHL DUP2 MSTORE PUSH1 0x20 PUSH1 0x4 DUP3 ADD MSTORE PUSH1 0x20 PUSH1 0x24 DUP3 ADD MSTORE PUSH32 0x4F776E61626C653A2063616C6C6572206973206E6F7420746865206F776E6572 PUSH1 0x44 DUP3 ADD MSTORE REVERT JUMPDEST PUSH1 0x1 PUSH1 0x1 PUSH1 0xA0 SHL SUB SWAP1 DUP2 AND SWAP2 DUP3 ISZERO PUSH2 0xE54 JUMPI AND SWAP2 DUP3 ISZERO PUSH2 0xE03 JUMPI PUSH1 0x0 DUP3 DUP2 MSTORE DUP1 PUSH1 0x20 MSTORE PUSH1 0x40 DUP2 KECCAK256 SLOAD SWAP2 DUP1 DUP4 LT PUSH2 0xDAF JUMPI PUSH1 0x40 DUP3 DUP3 PUSH32 0xDDF252AD1BE2C89B69C2B068FC378DAA952BA7F163C4A11628F55A4DF523B3EF SWAP6 DUP8 PUSH1 0x20 SWAP7 MSTORE DUP3 DUP7 MSTORE SUB DUP3 DUP3 KECCAK256 SSTORE DUP7 DUP2 MSTORE KECCAK256 DUP2 DUP2 SLOAD ADD SWAP1 SSTORE PUSH1 0x40 MLOAD SWAP1 DUP2 MSTORE LOG3 JUMP JUMPDEST PUSH1 0x40 MLOAD PUSH3 0x461BCD PUSH1 0xE5 SHL DUP2 MSTORE PUSH1 0x20 PUSH1 0x4 DUP3 ADD MSTORE PUSH1 0x26 PUSH1 0x24 DUP3 ADD MSTORE PUSH32 0x45524332303A207472616E7366657220616D6F756E7420657863656564732062 PUSH1 0x44 DUP3 ADD MSTORE PUSH6 0x616C616E6365 PUSH1 0xD0 SHL PUSH1 0x64 DUP3 ADD MSTORE PUSH1 0x84 SWAP1 REVERT JUMPDEST PUSH1 0x40 MLOAD PUSH3 0x461BCD PUSH1 0xE5 SHL DUP2 MSTORE PUSH1 0x20 PUSH1 0x4 DUP3 ADD MSTORE PUSH1 0x23 PUSH1 0x24 DUP3 ADD MSTORE PUSH32 0x45524332303A207472616E7366657220746F20746865207A65726F2061646472 PUSH1 0x44 DUP3 ADD MSTORE PUSH3 0x657373 PUSH1 0xE8 SHL PUSH1 0x64 DUP3 ADD MSTORE PUSH1 0x84 SWAP1 REVERT JUMPDEST PUSH1 0x40 MLOAD PUSH3 0x461BCD PUSH1 0xE5 SHL DUP2 MSTORE PUSH1 0x20 PUSH1 0x4 DUP3 ADD MSTORE PUSH1 0x25 PUSH1 0x24 DUP3 ADD MSTORE PUSH32 0x45524332303A207472616E736665722066726F6D20746865207A65726F206164 PUSH1 0x44 DUP3 ADD MSTORE PUSH5 0x6472657373 PUSH1 0xD8 SHL PUSH1 0x64 DUP3 ADD MSTORE PUSH1 0x84 SWAP1 REVERT JUMPDEST PUSH1 0x1 PUSH1 0x1 PUSH1 0xA0 SHL SUB SWAP1 DUP2 AND SWAP2 DUP3 ISZERO PUSH2 0xF58 JUMPI AND SWAP2 DUP3 ISZERO PUSH2 0xF08 JUMPI PUSH1 0x20 PUSH32 0x8C5BE1E5EBEC7D5BD14F71427D1E84F3DD0314C0F7B2291E5B200AC8C7C3B925 SWAP2 DUP4 PUSH1 0x0 MSTORE PUSH1 0x1 DUP3 MSTORE PUSH1 0x40 PUSH1 0x0 KECCAK256 DUP6 PUSH1 0x0 MSTORE DUP3 MSTORE DUP1 PUSH1 0x40 PUSH1 0x0 KECCAK256 SSTORE PUSH1 0x40 MLOAD SWAP1 DUP2 MSTORE LOG3 JUMP JUMPDEST PUSH1 0x40 MLOAD PUSH3 0x461BCD PUSH1 0xE5 SHL DUP2 MSTORE PUSH1 0x20 PUSH1 0x4 DUP3 ADD MSTORE PUSH1 0x22 PUSH1 0x24 DUP3 ADD MSTORE PUSH32 0x45524332303A20617070726F766520746F20746865207A65726F206164647265 PUSH1 0x44 DUP3 ADD MSTORE PUSH2 0x7373 PUSH1 0xF0 SHL PUSH1 0x64 DUP3 ADD MSTORE PUSH1 0x84 SWAP1 REVERT JUMPDEST PUSH1 0x40 MLOAD PUSH3 0x461BCD PUSH1 0xE5 SHL DUP2 MSTORE PUSH1 0x20 PUSH1 0x4 DUP3 ADD MSTORE PUSH1 0x24 DUP1 DUP3 ADD MSTORE PUSH32 0x45524332303A20617070726F76652066726F6D20746865207A65726F20616464 PUSH1 0x44 DUP3 ADD MSTORE PUSH4 0x72657373 PUSH1 0xE0 SHL PUSH1 0x64 DUP3 ADD MSTORE PUSH1 0x84 SWAP1 REVERT JUMPDEST PUSH1 0x5 DUP2 LT ISZERO PUSH2 0x10AD JUMPI DUP1 PUSH2 0xFBA JUMPI POP JUMP JUMPDEST PUSH1 0x1 DUP2 SUB PUSH2 0x1007 JUMPI PUSH1 0x40 MLOAD PUSH3 0x461BCD PUSH1 0xE5 SHL DUP2 MSTORE PUSH1 0x20 PUSH1 0x4 DUP3 ADD MSTORE PUSH1 0x18 PUSH1 0x24 DUP3 ADD MSTORE PUSH32 0x45434453413A20696E76616C6964207369676E61747572650000000000000000 PUSH1 0x44 DUP3 ADD MSTORE PUSH1 0x64 SWAP1 REVERT JUMPDEST PUSH1 0x2 DUP2 SUB PUSH2 0x1054 JUMPI PUSH1 0x40 MLOAD PUSH3 0x461BCD PUSH1 0xE5 SHL DUP2 MSTORE PUSH1 0x20 PUSH1 0x4 DUP3 ADD MSTORE PUSH1 0x1F PUSH1 0x24 DUP3 ADD MSTORE PUSH32 0x45434453413A20696E76616C6964207369676E6174757265206C656E67746800 PUSH1 0x44 DUP3 ADD MSTORE PUSH1 0x64 SWAP1 REVERT JUMPDEST PUSH1 0x3 EQ PUSH2 0x105D JUMPI JUMP JUMPDEST PUSH1 0x40 MLOAD PUSH3 0x461BCD PUSH1 0xE5 SHL DUP2 MSTORE PUSH1 0x20 PUSH1 0x4 DUP3 ADD MSTORE PUSH1 0x22 PUSH1 0x24 DUP3 ADD MSTORE PUSH32 0x45434453413A20696E76616C6964207369676E6174757265202773272076616C PUSH1 0x44 DUP3 ADD MSTORE PUSH2 0x7565 PUSH1 0xF0 SHL PUSH1 0x64 DUP3 ADD MSTORE PUSH1 0x84 SWAP1 REVERT JUMPDEST PUSH4 0x4E487B71 PUSH1 0xE0 SHL PUSH1 0x0 MSTORE PUSH1 0x21 PUSH1 0x4 MSTORE PUSH1 0x24 PUSH1 0x0 REVERT JUMPDEST SWAP3 SWAP2 SWAP1 PUSH32 0x7FFFFFFFFFFFFFFFFFFFFFFFFFFFFFFF5D576E7357A4501DDFE92F46681B20A0 DUP4 GT PUSH2 0x1146 JUMPI SWAP2 PUSH1 0x80 SWAP5 SWAP4 SWAP2 PUSH1 0xFF PUSH1 0x20 SWAP5 PUSH1 0x40 MLOAD SWAP5 DUP6 MSTORE AND DUP5 DUP5 ADD MSTORE PUSH1 0x40 DUP4 ADD MSTORE PUSH1 0x60 DUP3 ADD MSTORE PUSH1 0x0 SWAP4 DUP5 SWAP2 DUP3 DUP1 MSTORE PUSH1 0x1 GAS STATICCALL ISZERO PUSH2 0x1139 JUMPI DUP2 MLOAD PUSH1 0x1 PUSH1 0x1 PUSH1 0xA0 SHL SUB DUP2 AND ISZERO PUSH2 0x1133 JUMPI SWAP2 SWAP1 JUMP JUMPDEST POP PUSH1 0x1 SWAP1 JUMP JUMPDEST POP PUSH1 0x40 MLOAD SWAP1 RETURNDATASIZE SWAP1 DUP3 RETURNDATACOPY RETURNDATASIZE SWAP1 REVERT JUMPDEST POP POP POP POP PUSH1 0x0 SWAP1 PUSH1 0x3 SWAP1 JUMP JUMPDEST ADDRESS PUSH32 0x0 PUSH1 0x1 PUSH1 0x1 PUSH1 0xA0 SHL SUB AND EQ DUP1 PUSH2 0x1254 JUMPI JUMPDEST ISZERO PUSH2 0x11AD JUMPI PUSH32 0x0 SWAP1 JUMP JUMPDEST PUSH1 0x40 MLOAD PUSH1 0x20 DUP2 ADD SWAP1 PUSH32 0x8B73C3C69BB8FE3D512ECC4CF759CC79239F7B179B0FFACAA9A75D522B39400F DUP3 MSTORE PUSH32 0x0 PUSH1 0x40 DUP3 ADD MSTORE PUSH32 0x0 PUSH1 0x60 DUP3 ADD MSTORE CHAINID PUSH1 0x80 DUP3 ADD MSTORE ADDRESS PUSH1 0xA0 DUP3 ADD MSTORE PUSH1 0xA0 DUP2 MSTORE PUSH1 0xC0 DUP2 ADD DUP2 DUP2 LT PUSH8 0xFFFFFFFFFFFFFFFF DUP3 GT OR PUSH2 0xCA9 JUMPI PUSH1 0x40 MSTORE MLOAD SWAP1 KECCAK256 SWAP1 JUMP JUMPDEST POP PUSH32 0x0 CHAINID EQ PUSH2 0x1184 JUMP JUMPDEST PUSH1 0xFF DUP2 EQ PUSH2 0x12BB JUMPI PUSH1 0xFF DUP2 AND SWAP1 PUSH1 0x1F DUP3 GT PUSH2 0x12A9 JUMPI PUSH1 0x40 MLOAD SWAP2 PUSH2 0x129F DUP4 PUSH2 0xC8D JUMP JUMPDEST DUP3 MSTORE PUSH1 0x20 DUP3 ADD MSTORE SWAP1 JUMP JUMPDEST PUSH1 0x40 MLOAD PUSH4 0x2CD44AC3 PUSH1 0xE2 SHL DUP2 MSTORE PUSH1 0x4 SWAP1 REVERT JUMPDEST POP PUSH1 0x40 MLOAD PUSH1 0x5 SLOAD DUP2 PUSH1 0x0 PUSH2 0x12CE DUP4 PUSH2 0xC53 JUMP JUMPDEST DUP1 DUP4 MSTORE SWAP3 PUSH1 0x1 SWAP1 DUP2 DUP2 AND SWAP1 DUP2 ISZERO PUSH2 0x1357 JUMPI POP PUSH1 0x1 EQ PUSH2 0x12F8 JUMPI JUMPDEST POP PUSH2 0x12F5 SWAP3 POP SUB DUP3 PUSH2 0xCBF JUMP JUMPDEST SWAP1 JUMP JUMPDEST PUSH1 0x5 PUSH1 0x0 SWAP1 DUP2 MSTORE SWAP2 POP PUSH32 0x36B6384B5ECA791C62761152D0C79BB0604C104A5FB6F4EB0703F3154BB3DB0 JUMPDEST DUP5 DUP4 LT PUSH2 0x133C JUMPI POP PUSH2 0x12F5 SWAP4 POP POP DUP2 ADD PUSH1 0x20 ADD CODESIZE PUSH2 0x12E8 JUMP JUMPDEST DUP2 SWAP4 POP SWAP1 DUP2 PUSH1 0x20 SWAP3 SLOAD DUP4 DUP6 DUP10 ADD ADD MSTORE ADD SWAP2 ADD SWAP1 SWAP2 DUP5 SWAP3 PUSH2 0x1323 JUMP JUMPDEST SWAP1 POP PUSH1 0x20 SWAP3 POP PUSH2 0x12F5 SWAP5 SWAP2 POP PUSH1 0xFF NOT AND DUP3 DUP5 ADD MSTORE ISZERO ISZERO PUSH1 0x5 SHL DUP3 ADD ADD CODESIZE PUSH2 0x12E8 JUMP JUMPDEST PUSH1 0xFF DUP2 EQ PUSH2 0x139B JUMPI PUSH1 0xFF DUP2 AND SWAP1 PUSH1 0x1F DUP3 GT PUSH2 0x12A9 JUMPI PUSH1 0x40 MLOAD SWAP2 PUSH2 0x129F DUP4 PUSH2 0xC8D JUMP JUMPDEST POP PUSH1 0x40 MLOAD PUSH1 0x6 SLOAD DUP2 PUSH1 0x0 PUSH2 0x13AE DUP4 PUSH2 0xC53 JUMP JUMPDEST DUP1 DUP4 MSTORE SWAP3 PUSH1 0x1 SWAP1 DUP2 DUP2 AND SWAP1 DUP2 ISZERO PUSH2 0x1357 JUMPI POP PUSH1 0x1 EQ PUSH2 0x13D4 JUMPI POP PUSH2 0x12F5 SWAP3 POP SUB DUP3 PUSH2 0xCBF JUMP JUMPDEST PUSH1 0x6 PUSH1 0x0 SWAP1 DUP2 MSTORE SWAP2 POP PUSH32 0xF652222313E28459528D920B65115C16C04F3EFC82AAEDC97BE59F3F377C0D3F JUMPDEST DUP5 DUP4 LT PUSH2 0x1418 JUMPI POP PUSH2 0x12F5 SWAP4 POP POP DUP2 ADD PUSH1 0x20 ADD CODESIZE PUSH2 0x12E8 JUMP JUMPDEST DUP2 SWAP4 POP SWAP1 DUP2 PUSH1 0x20 SWAP3 SLOAD DUP4 DUP6 DUP10 ADD ADD MSTORE ADD SWAP2 ADD SWAP1 SWAP2 DUP5 SWAP3 PUSH2 0x13FF JUMP INVALID LOG1 PUSH5 0x736F6C6343 STOP ADDMOD EQ STOP EXP 0xC6 GAS PUSH28 0xB8D6351C1CF70C95A316CC6A92839C986682D98BC35F958F4883F9D2 0xA8 0xEB 0xCF 0xEB DUP9 PUSH29 0x9FE4EAEE3B330008D80B3D2C92A4FD53A9BA188170C974E31278E8A164 PUSH20 0x6F6C6343000814000A2F8788117E7EFF1D82E926 0xEC PUSH26 0x4901D17C78024A50270940304540A733656F0D00000000000000 "},"methodIdentifiers":{"DEFAULT_ADMIN_ROLE()":"a217fddf","OPERATOR_ROLE()":"f5b541a6","PAUSER_ROLE()":"e63ab1e9","POOL_CREATION_FEE()":"7b573c54","addV2Liquidity(address,address,address,uint256,uint256,uint256,uint256,address,uint256)":"372c28b4","airdropModule()":"768c0442","allTokens(uint256)":"634282af","basePrice()":"c7876ea4","buyPresale(address,uint256,uint256,address,bytes32[])":"d9d0a5be","buyToken(address,uint256,address)":"692bf4a8","claimAirdrop(uint256,bytes32[])":"0bcae1ac","claimStakeReward()":"9fd3af8b","createMemeCoin(string,string,string,uint256,uint256,string)":"d634b419","createV2Pool(address,address)":"c4f3e9d7","createdV2Pools(uint256)":"1aac52c7","creatorFeesAccrued(address)":"c748713e","currentPrice()":"9d1b464a","ensureV2Pair(address,address)":"c52d441a","getRoleAdmin(bytes32)":"248a9ca3","getV2Pool(uint256)":"4d160506","getV2PoolCount()":"296a65d8","getV2PoolTokens(uint256)":"9df02660","grantRole(bytes32,address)":"2f2ff15d","hasRole(bytes32,address)":"91d14854","isTrustedForwarder(address)":"572b6c05","pause()":"8456cb59","paused()":"5c975abb","platformFeeBP()":"ff96092a","platformFeesAccrued()":"22163b86","referralFeeBP()":"dc4ec9be","removeV2Liquidity(address,address,address,uint256,uint256,uint256,address,uint256)":"a12ad0e6","renounceRole(bytes32,address)":"36568abe","revokeRole(bytes32,address)":"d547741f","setAirdropModule(address)":"a0429de6","setStakingModule(address)":"c60b494f","setV2Factory(address)":"474f0777","setWhitelistModule(address)":"83f26f38","slope()":"83caf275","stakeTokens(uint256)":"7547c7a3","stakingModule()":"504b82bf","supportsInterface(bytes4)":"01ffc9a7","tokenIndexPlusOne(address)":"35a62e68","tokenPaused(address)":"8995881d","totalSold()":"9106d7ba","unpause()":"3f4ba83a","v2Factory()":"b4b57c39","whitelistModule()":"8fea31b0","withdrawStake(uint256)":"25d5971f"}}}}}