{"contracts/AirdropMerkle.sol":{"AirdropMerkle":{"abi":[{"inputs":[{"internalType":"address","name":"token_","type":"address"},{"internalType":"bytes32","name":"merkleRoot_","type":"bytes32"}],"stateMutability":"nonpayable","type":"constructor"},{"anonymous":false,"inputs":[{"indexed":true,"internalType":"address","name":"user","type":"address"},{"indexed":false,"internalType":"uint256","name":"amount","type":"uint256"}],"name":"AirdropClaimed","type":"event"},{"anonymous":false,"inputs":[{"indexed":false,"internalType":"bytes32","name":"newRoot","type":"bytes32"}],"name":"MerkleRootUpdated","type":"event"},{"inputs":[{"internalType":"uint256","name":"amount","type":"uint256"},{"internalType":"bytes32[]","name":"proof","type":"bytes32[]"}],"name":"claim","outputs":[],"stateMutability":"nonpayable","type":"function"},{"inputs":[{"internalType":"address","name":"","type":"address"}],"name":"claimed","outputs":[{"internalType":"bool","name":"","type":"bool"}],"stateMutability":"view","type":"function"},{"inputs":[],"name":"merkleRoot","outputs":[{"internalType":"bytes32","name":"","type":"bytes32"}],"stateMutability":"view","type":"function"},{"inputs":[{"internalType":"bytes32","name":"newRoot","type":"bytes32"}],"name":"setMerkleRoot","outputs":[],"stateMutability":"nonpayable","type":"function"},{"inputs":[],"name":"token","outputs":[{"internalType":"contract IERC20","name":"","type":"address"}],"stateMutability":"view","type":"function"}],"evm":{"bytecode":{"linkReferences":{},"object":"60a0346100b357601f6106d238819003918201601f19168301916001600160401b038311848410176100b85780849260409485528339810103126100b35780516001600160a01b03811691908290036100b357602001519080156100815760805260005560405161060390816100cf8239608051818181606f01526102430152f35b60405162461bcd60e51b815260206004820152600a6024820152692d32b937903a37b5b2b760b11b6044820152606490fd5b600080fd5b634e487b7160e01b600052604160045260246000fdfe608060408181526004918236101561001657600080fd5b600092833560e01c9182632eb4a7ab146104d0575081632f52ebb71461012a5781637cb64759146100e5578163c884ef83146100a2575063fc0c546a1461005c57600080fd5b3461009e578160031936011261009e57517f00000000000000000000000000000000000000000000000000000000000000006001600160a01b03168152602090f35b5080fd5b9050346100e15760203660031901126100e157356001600160a01b038116908190036100e157818360ff92602095526001855220541690519015158152f35b8280fd5b9050346100e15760203660031901126100e1577f90004c04698bc3322499a575ed3752dd4abf33e0a7294c06a787a0fe01bea94191602091359081855551908152a180f35b9050346100e157816003193601126100e15780359167ffffffffffffffff91602480358481116103a157366023820112156103a15780830135948086116104cc578560051b958387840101963688116104c857338a52600191602098838a5260ff898d205416610494578851908a8201923360601b84528c60348401526034835260608301938385108886111761048257918e916101d78e8996958f8990528651902094549801876104ea565b85526080988a018d848b015b83831061046f5750505050928d80935b61040a575b50505050036103d8573389528087528589209060ff1982541617905584518681019263a9059cbb60e01b8452338583015288604483015260448252810192818410838511176103a5577f00000000000000000000000000000000000000000000000000000000000000006001600160a01b03169160c08101848111868210176103c65788528885527f5361666545524332303a206c6f772d6c6576656c2063616c6c206661696c656460a0820152518a9182919082855af1903d156103b7573d9283116103a557906102e99392918751926102dc8a601f19601f84011601856104ea565b83523d8b8a85013e610522565b8051858115918215610381575b505090501561032e575050907f650e45f04ef8a0c267b2f78d983913f69ae3a353b2b32de5429307522be0ab5591519283523392a280f35b608493602a9293519362461bcd60e51b85528401528201527f5361666545524332303a204552433230206f7065726174696f6e20646964206e6044820152691bdd081cdd58d8d9595960b21b6064820152fd5b83809293500103126103a15784015180151581036103a1578085386102f6565b8680fd5b634e487b7160e01b8a5260418652848afd5b906102e9939250606091610522565b634e487b7160e01b8c5260418852868cfd5b855162461bcd60e51b8152808601889052600d818601526c24b73b30b634b210383937b7b360991b6044820152606490fd5b90919293825185101561046757888560051b850101519182821060001461045957528b52898d205b92600019811461044757850191908d866101f3565b634e487b7160e01b8e5260118a52888efd5b919091528b52898d20610432565b9350806101f8565b82358152899650918101918f91016101e3565b634e487b7160e01b8f5260418b52898ffd5b885162461bcd60e51b81528089018b9052600f818901526e105b1c9958591e4818db185a5b5959608a1b6044820152606490fd5b8980fd5b8780fd5b84903461009e578160031936011261009e57602091548152f35b90601f8019910116810190811067ffffffffffffffff82111761050c57604052565b634e487b7160e01b600052604160045260246000fd5b919290156105845750815115610536575090565b3b1561053f5790565b60405162461bcd60e51b815260206004820152601d60248201527f416464726573733a2063616c6c20746f206e6f6e2d636f6e74726163740000006044820152606490fd5b8251909150156105975750805190602001fd5b6040519062461bcd60e51b82528160208060048301528251908160248401526000935b8285106105dd575050604492506000838284010152601f80199101168101030190fd5b84810182015186860160440152938101938593506105ba56fea164736f6c6343000814000a","opcodes":"PUSH1 0xA0 CALLVALUE PUSH2 0xB3 JUMPI PUSH1 0x1F PUSH2 0x6D2 CODESIZE DUP2 SWAP1 SUB SWAP2 DUP3 ADD PUSH1 0x1F NOT AND DUP4 ADD SWAP2 PUSH1 0x1 PUSH1 0x1 PUSH1 0x40 SHL SUB DUP4 GT DUP5 DUP5 LT OR PUSH2 0xB8 JUMPI DUP1 DUP5 SWAP3 PUSH1 0x40 SWAP5 DUP6 MSTORE DUP4 CODECOPY DUP2 ADD SUB SLT PUSH2 0xB3 JUMPI DUP1 MLOAD PUSH1 0x1 PUSH1 0x1 PUSH1 0xA0 SHL SUB DUP2 AND SWAP2 SWAP1 DUP3 SWAP1 SUB PUSH2 0xB3 JUMPI PUSH1 0x20 ADD MLOAD SWAP1 DUP1 ISZERO PUSH2 0x81 JUMPI PUSH1 0x80 MSTORE PUSH1 0x0 SSTORE PUSH1 0x40 MLOAD PUSH2 0x603 SWAP1 DUP2 PUSH2 0xCF DUP3 CODECOPY PUSH1 0x80 MLOAD DUP2 DUP2 DUP2 PUSH1 0x6F ADD MSTORE PUSH2 0x243 ADD MSTORE RETURN JUMPDEST PUSH1 0x40 MLOAD PUSH3 0x461BCD PUSH1 0xE5 SHL DUP2 MSTORE PUSH1 0x20 PUSH1 0x4 DUP3 ADD MSTORE PUSH1 0xA PUSH1 0x24 DUP3 ADD MSTORE PUSH10 0x2D32B937903A37B5B2B7 PUSH1 0xB1 SHL PUSH1 0x44 DUP3 ADD MSTORE PUSH1 0x64 SWAP1 REVERT JUMPDEST PUSH1 0x0 DUP1 REVERT JUMPDEST PUSH4 0x4E487B71 PUSH1 0xE0 SHL PUSH1 0x0 MSTORE PUSH1 0x41 PUSH1 0x4 MSTORE PUSH1 0x24 PUSH1 0x0 REVERT INVALID PUSH1 0x80 PUSH1 0x40 DUP2 DUP2 MSTORE PUSH1 0x4 SWAP2 DUP3 CALLDATASIZE LT ISZERO PUSH2 0x16 JUMPI PUSH1 0x0 DUP1 REVERT JUMPDEST PUSH1 0x0 SWAP3 DUP4 CALLDATALOAD PUSH1 0xE0 SHR SWAP2 DUP3 PUSH4 0x2EB4A7AB EQ PUSH2 0x4D0 JUMPI POP DUP2 PUSH4 0x2F52EBB7 EQ PUSH2 0x12A JUMPI DUP2 PUSH4 0x7CB64759 EQ PUSH2 0xE5 JUMPI DUP2 PUSH4 0xC884EF83 EQ PUSH2 0xA2 JUMPI POP PUSH4 0xFC0C546A EQ PUSH2 0x5C JUMPI PUSH1 0x0 DUP1 REVERT JUMPDEST CALLVALUE PUSH2 0x9E JUMPI DUP2 PUSH1 0x3 NOT CALLDATASIZE ADD SLT PUSH2 0x9E JUMPI MLOAD PUSH32 0x0 PUSH1 0x1 PUSH1 0x1 PUSH1 0xA0 SHL SUB AND DUP2 MSTORE PUSH1 0x20 SWAP1 RETURN JUMPDEST POP DUP1 REVERT JUMPDEST SWAP1 POP CALLVALUE PUSH2 0xE1 JUMPI PUSH1 0x20 CALLDATASIZE PUSH1 0x3 NOT ADD SLT PUSH2 0xE1 JUMPI CALLDATALOAD PUSH1 0x1 PUSH1 0x1 PUSH1 0xA0 SHL SUB DUP2 AND SWAP1 DUP2 SWAP1 SUB PUSH2 0xE1 JUMPI DUP2 DUP4 PUSH1 0xFF SWAP3 PUSH1 0x20 SWAP6 MSTORE PUSH1 0x1 DUP6 MSTORE KECCAK256 SLOAD AND SWAP1 MLOAD SWAP1 ISZERO ISZERO DUP2 MSTORE RETURN JUMPDEST DUP3 DUP1 REVERT JUMPDEST SWAP1 POP CALLVALUE PUSH2 0xE1 JUMPI PUSH1 0x20 CALLDATASIZE PUSH1 0x3 NOT ADD SLT PUSH2 0xE1 JUMPI PUSH32 0x90004C04698BC3322499A575ED3752DD4ABF33E0A7294C06A787A0FE01BEA941 SWAP2 PUSH1 0x20 SWAP2 CALLDATALOAD SWAP1 DUP2 DUP6 SSTORE MLOAD SWAP1 DUP2 MSTORE LOG1 DUP1 RETURN JUMPDEST SWAP1 POP CALLVALUE PUSH2 0xE1 JUMPI DUP2 PUSH1 0x3 NOT CALLDATASIZE ADD SLT PUSH2 0xE1 JUMPI DUP1 CALLDATALOAD SWAP2 PUSH8 0xFFFFFFFFFFFFFFFF SWAP2 PUSH1 0x24 DUP1 CALLDATALOAD DUP5 DUP2 GT PUSH2 0x3A1 JUMPI CALLDATASIZE PUSH1 0x23 DUP3 ADD SLT ISZERO PUSH2 0x3A1 JUMPI DUP1 DUP4 ADD CALLDATALOAD SWAP5 DUP1 DUP7 GT PUSH2 0x4CC JUMPI DUP6 PUSH1 0x5 SHL SWAP6 DUP4 DUP8 DUP5 ADD ADD SWAP7 CALLDATASIZE DUP9 GT PUSH2 0x4C8 JUMPI CALLER DUP11 MSTORE PUSH1 0x1 SWAP2 PUSH1 0x20 SWAP9 DUP4 DUP11 MSTORE PUSH1 0xFF DUP10 DUP14 KECCAK256 SLOAD AND PUSH2 0x494 JUMPI DUP9 MLOAD SWAP1 DUP11 DUP3 ADD SWAP3 CALLER PUSH1 0x60 SHL DUP5 MSTORE DUP13 PUSH1 0x34 DUP5 ADD MSTORE PUSH1 0x34 DUP4 MSTORE PUSH1 0x60 DUP4 ADD SWAP4 DUP4 DUP6 LT DUP9 DUP7 GT OR PUSH2 0x482 JUMPI SWAP2 DUP15 SWAP2 PUSH2 0x1D7 DUP15 DUP10 SWAP7 SWAP6 DUP16 DUP10 SWAP1 MSTORE DUP7 MLOAD SWAP1 KECCAK256 SWAP5 SLOAD SWAP9 ADD DUP8 PUSH2 0x4EA JUMP JUMPDEST DUP6 MSTORE PUSH1 0x80 SWAP9 DUP11 ADD DUP14 DUP5 DUP12 ADD JUMPDEST DUP4 DUP4 LT PUSH2 0x46F JUMPI POP POP POP POP SWAP3 DUP14 DUP1 SWAP4 JUMPDEST PUSH2 0x40A JUMPI JUMPDEST POP POP POP POP SUB PUSH2 0x3D8 JUMPI CALLER DUP10 MSTORE DUP1 DUP8 MSTORE DUP6 DUP10 KECCAK256 SWAP1 PUSH1 0xFF NOT DUP3 SLOAD AND OR SWAP1 SSTORE DUP5 MLOAD DUP7 DUP2 ADD SWAP3 PUSH4 0xA9059CBB PUSH1 0xE0 SHL DUP5 MSTORE CALLER DUP6 DUP4 ADD MSTORE DUP9 PUSH1 0x44 DUP4 ADD MSTORE PUSH1 0x44 DUP3 MSTORE DUP2 ADD SWAP3 DUP2 DUP5 LT DUP4 DUP6 GT OR PUSH2 0x3A5 JUMPI PUSH32 0x0 PUSH1 0x1 PUSH1 0x1 PUSH1 0xA0 SHL SUB AND SWAP2 PUSH1 0xC0 DUP2 ADD DUP5 DUP2 GT DUP7 DUP3 LT OR PUSH2 0x3C6 JUMPI DUP9 MSTORE DUP9 DUP6 MSTORE PUSH32 0x5361666545524332303A206C6F772D6C6576656C2063616C6C206661696C6564 PUSH1 0xA0 DUP3 ADD MSTORE MLOAD DUP11 SWAP2 DUP3 SWAP2 SWAP1 DUP3 DUP6 GAS CALL SWAP1 RETURNDATASIZE ISZERO PUSH2 0x3B7 JUMPI RETURNDATASIZE SWAP3 DUP4 GT PUSH2 0x3A5 JUMPI SWAP1 PUSH2 0x2E9 SWAP4 SWAP3 SWAP2 DUP8 MLOAD SWAP3 PUSH2 0x2DC DUP11 PUSH1 0x1F NOT PUSH1 0x1F DUP5 ADD AND ADD DUP6 PUSH2 0x4EA JUMP JUMPDEST DUP4 MSTORE RETURNDATASIZE DUP12 DUP11 DUP6 ADD RETURNDATACOPY PUSH2 0x522 JUMP JUMPDEST DUP1 MLOAD DUP6 DUP2 ISZERO SWAP2 DUP3 ISZERO PUSH2 0x381 JUMPI JUMPDEST POP POP SWAP1 POP ISZERO PUSH2 0x32E JUMPI POP POP SWAP1 PUSH32 0x650E45F04EF8A0C267B2F78D983913F69AE3A353B2B32DE5429307522BE0AB55 SWAP2 MLOAD SWAP3 DUP4 MSTORE CALLER SWAP3 LOG2 DUP1 RETURN JUMPDEST PUSH1 0x84 SWAP4 PUSH1 0x2A SWAP3 SWAP4 MLOAD SWAP4 PUSH3 0x461BCD PUSH1 0xE5 SHL DUP6 MSTORE DUP5 ADD MSTORE DUP3 ADD MSTORE PUSH32 0x5361666545524332303A204552433230206F7065726174696F6E20646964206E PUSH1 0x44 DUP3 ADD MSTORE PUSH10 0x1BDD081CDD58D8D95959 PUSH1 0xB2 SHL PUSH1 0x64 DUP3 ADD MSTORE REVERT JUMPDEST DUP4 DUP1 SWAP3 SWAP4 POP ADD SUB SLT PUSH2 0x3A1 JUMPI DUP5 ADD MLOAD DUP1 ISZERO ISZERO DUP2 SUB PUSH2 0x3A1 JUMPI DUP1 DUP6 CODESIZE PUSH2 0x2F6 JUMP JUMPDEST DUP7 DUP1 REVERT JUMPDEST PUSH4 0x4E487B71 PUSH1 0xE0 SHL DUP11 MSTORE PUSH1 0x41 DUP7 MSTORE DUP5 DUP11 REVERT JUMPDEST SWAP1 PUSH2 0x2E9 SWAP4 SWAP3 POP PUSH1 0x60 SWAP2 PUSH2 0x522 JUMP JUMPDEST PUSH4 0x4E487B71 PUSH1 0xE0 SHL DUP13 MSTORE PUSH1 0x41 DUP9 MSTORE DUP7 DUP13 REVERT JUMPDEST DUP6 MLOAD PUSH3 0x461BCD PUSH1 0xE5 SHL DUP2 MSTORE DUP1 DUP7 ADD DUP9 SWAP1 MSTORE PUSH1 0xD DUP2 DUP7 ADD MSTORE PUSH13 0x24B73B30B634B210383937B7B3 PUSH1 0x99 SHL PUSH1 0x44 DUP3 ADD MSTORE PUSH1 0x64 SWAP1 REVERT JUMPDEST SWAP1 SWAP2 SWAP3 SWAP4 DUP3 MLOAD DUP6 LT ISZERO PUSH2 0x467 JUMPI DUP9 DUP6 PUSH1 0x5 SHL DUP6 ADD ADD MLOAD SWAP2 DUP3 DUP3 LT PUSH1 0x0 EQ PUSH2 0x459 JUMPI MSTORE DUP12 MSTORE DUP10 DUP14 KECCAK256 JUMPDEST SWAP3 PUSH1 0x0 NOT DUP2 EQ PUSH2 0x447 JUMPI DUP6 ADD SWAP2 SWAP1 DUP14 DUP7 PUSH2 0x1F3 JUMP JUMPDEST PUSH4 0x4E487B71 PUSH1 0xE0 SHL DUP15 MSTORE PUSH1 0x11 DUP11 MSTORE DUP9 DUP15 REVERT JUMPDEST SWAP2 SWAP1 SWAP2 MSTORE DUP12 MSTORE DUP10 DUP14 KECCAK256 PUSH2 0x432 JUMP JUMPDEST SWAP4 POP DUP1 PUSH2 0x1F8 JUMP JUMPDEST DUP3 CALLDATALOAD DUP2 MSTORE DUP10 SWAP7 POP SWAP2 DUP2 ADD SWAP2 DUP16 SWAP2 ADD PUSH2 0x1E3 JUMP JUMPDEST PUSH4 0x4E487B71 PUSH1 0xE0 SHL DUP16 MSTORE PUSH1 0x41 DUP12 MSTORE DUP10 DUP16 REVERT JUMPDEST DUP9 MLOAD PUSH3 0x461BCD PUSH1 0xE5 SHL DUP2 MSTORE DUP1 DUP10 ADD DUP12 SWAP1 MSTORE PUSH1 0xF DUP2 DUP10 ADD MSTORE PUSH15 0x105B1C9958591E4818DB185A5B5959 PUSH1 0x8A SHL PUSH1 0x44 DUP3 ADD MSTORE PUSH1 0x64 SWAP1 REVERT JUMPDEST DUP10 DUP1 REVERT JUMPDEST DUP8 DUP1 REVERT JUMPDEST DUP5 SWAP1 CALLVALUE PUSH2 0x9E JUMPI DUP2 PUSH1 0x3 NOT CALLDATASIZE ADD SLT PUSH2 0x9E JUMPI PUSH1 0x20 SWAP2 SLOAD DUP2 MSTORE RETURN JUMPDEST SWAP1 PUSH1 0x1F DUP1 NOT SWAP2 ADD AND DUP2 ADD SWAP1 DUP2 LT PUSH8 0xFFFFFFFFFFFFFFFF DUP3 GT OR PUSH2 0x50C JUMPI PUSH1 0x40 MSTORE JUMP JUMPDEST PUSH4 0x4E487B71 PUSH1 0xE0 SHL PUSH1 0x0 MSTORE PUSH1 0x41 PUSH1 0x4 MSTORE PUSH1 0x24 PUSH1 0x0 REVERT JUMPDEST SWAP2 SWAP3 SWAP1 ISZERO PUSH2 0x584 JUMPI POP DUP2 MLOAD ISZERO PUSH2 0x536 JUMPI POP SWAP1 JUMP JUMPDEST EXTCODESIZE ISZERO PUSH2 0x53F JUMPI SWAP1 JUMP JUMPDEST PUSH1 0x40 MLOAD PUSH3 0x461BCD PUSH1 0xE5 SHL DUP2 MSTORE PUSH1 0x20 PUSH1 0x4 DUP3 ADD MSTORE PUSH1 0x1D PUSH1 0x24 DUP3 ADD MSTORE PUSH32 0x416464726573733A2063616C6C20746F206E6F6E2D636F6E7472616374000000 PUSH1 0x44 DUP3 ADD MSTORE PUSH1 0x64 SWAP1 REVERT JUMPDEST DUP3 MLOAD SWAP1 SWAP2 POP ISZERO PUSH2 0x597 JUMPI POP DUP1 MLOAD SWAP1 PUSH1 0x20 ADD REVERT JUMPDEST PUSH1 0x40 MLOAD SWAP1 PUSH3 0x461BCD PUSH1 0xE5 SHL DUP3 MSTORE DUP2 PUSH1 0x20 DUP1 PUSH1 0x4 DUP4 ADD MSTORE DUP3 MLOAD SWAP1 DUP2 PUSH1 0x24 DUP5 ADD MSTORE PUSH1 0x0 SWAP4 JUMPDEST DUP3 DUP6 LT PUSH2 0x5DD JUMPI POP POP PUSH1 0x44 SWAP3 POP PUSH1 0x0 DUP4 DUP3 DUP5 ADD ADD MSTORE PUSH1 0x1F DUP1 NOT SWAP2 ADD AND DUP2 ADD SUB ADD SWAP1 REVERT JUMPDEST DUP5 DUP2 ADD DUP3 ADD MLOAD DUP7 DUP7 ADD PUSH1 0x44 ADD MSTORE SWAP4 DUP2 ADD SWAP4 DUP6 SWAP4 POP PUSH2 0x5BA JUMP INVALID LOG1 PUSH5 0x736F6C6343 STOP ADDMOD EQ STOP EXP "},"methodIdentifiers":{"claim(uint256,bytes32[])":"2f52ebb7","claimed(address)":"c884ef83","merkleRoot()":"2eb4a7ab","setMerkleRoot(bytes32)":"7cb64759","token()":"fc0c546a"}}}}}