{"contracts/StakingRewards.sol":{"StakingRewards":{"abi":[{"inputs":[{"internalType":"address","name":"_stakingToken","type":"address"},{"internalType":"address","name":"_rewardsToken","type":"address"},{"internalType":"uint256","name":"_rewardRate","type":"uint256"}],"stateMutability":"nonpayable","type":"constructor"},{"anonymous":false,"inputs":[{"indexed":true,"internalType":"address","name":"user","type":"address"},{"indexed":false,"internalType":"uint256","name":"reward","type":"uint256"}],"name":"RewardPaid","type":"event"},{"anonymous":false,"inputs":[{"indexed":false,"internalType":"uint256","name":"newRate","type":"uint256"}],"name":"RewardRateUpdated","type":"event"},{"anonymous":false,"inputs":[{"indexed":true,"internalType":"address","name":"user","type":"address"},{"indexed":false,"internalType":"uint256","name":"amount","type":"uint256"}],"name":"Staked","type":"event"},{"anonymous":false,"inputs":[{"indexed":true,"internalType":"address","name":"user","type":"address"},{"indexed":false,"internalType":"uint256","name":"amount","type":"uint256"}],"name":"Withdrawn","type":"event"},{"inputs":[{"internalType":"address","name":"","type":"address"}],"name":"balances","outputs":[{"internalType":"uint256","name":"","type":"uint256"}],"stateMutability":"view","type":"function"},{"inputs":[{"internalType":"address","name":"account","type":"address"}],"name":"earned","outputs":[{"internalType":"uint256","name":"","type":"uint256"}],"stateMutability":"view","type":"function"},{"inputs":[],"name":"exit","outputs":[],"stateMutability":"nonpayable","type":"function"},{"inputs":[],"name":"getReward","outputs":[],"stateMutability":"nonpayable","type":"function"},{"inputs":[],"name":"lastUpdateTime","outputs":[{"internalType":"uint256","name":"","type":"uint256"}],"stateMutability":"view","type":"function"},{"inputs":[],"name":"rewardPerToken","outputs":[{"internalType":"uint256","name":"","type":"uint256"}],"stateMutability":"view","type":"function"},{"inputs":[],"name":"rewardPerTokenStored","outputs":[{"internalType":"uint256","name":"","type":"uint256"}],"stateMutability":"view","type":"function"},{"inputs":[],"name":"rewardRate","outputs":[{"internalType":"uint256","name":"","type":"uint256"}],"stateMutability":"view","type":"function"},{"inputs":[{"internalType":"address","name":"","type":"address"}],"name":"rewards","outputs":[{"internalType":"uint256","name":"","type":"uint256"}],"stateMutability":"view","type":"function"},{"inputs":[],"name":"rewardsToken","outputs":[{"internalType":"contract IERC20","name":"","type":"address"}],"stateMutability":"view","type":"function"},{"inputs":[{"internalType":"uint256","name":"newRate","type":"uint256"}],"name":"setRewardRate","outputs":[],"stateMutability":"nonpayable","type":"function"},{"inputs":[{"internalType":"uint256","name":"amount","type":"uint256"}],"name":"stake","outputs":[],"stateMutability":"nonpayable","type":"function"},{"inputs":[],"name":"stakingToken","outputs":[{"internalType":"contract IERC20","name":"","type":"address"}],"stateMutability":"view","type":"function"},{"inputs":[],"name":"totalSupply","outputs":[{"internalType":"uint256","name":"","type":"uint256"}],"stateMutability":"view","type":"function"},{"inputs":[{"internalType":"address","name":"","type":"address"}],"name":"userRewardPerTokenPaid","outputs":[{"internalType":"uint256","name":"","type":"uint256"}],"stateMutability":"view","type":"function"},{"inputs":[{"internalType":"uint256","name":"amount","type":"uint256"}],"name":"withdraw","outputs":[],"stateMutability":"nonpayable","type":"function"}],"evm":{"bytecode":{"linkReferences":{},"object":"60c03461010857601f610de738819003918201601f19168301916001600160401b0383118484101761010d578084926060946040528339810103126101085761004781610123565b604061005560208401610123565b9201516001600055916001600160a01b03918216801515806100fd575b156100c9576080521660a05260015542600255604051610caf908161013882396080518181816101410152818161044d015281816105a5015261075d015260a0518181816101f801528181610313015261062a0152f35b60405162461bcd60e51b815260206004820152600c60248201526b5a65726f206164647265737360a01b6044820152606490fd5b508282161515610072565b600080fd5b634e487b7160e01b600052604160045260246000fd5b51906001600160a01b03821682036101085756fe60406080815260048036101561001457600080fd5b600091823560e01c80628cc2621461086f5780630700037d1461083557806318160ddd1461081657806327e235e3146107dc5780632e1a7d4d146106d25780633d18b912146105d457806372f702f3146105905780637b0a47ee146105715780638b876347146105335780639e447fc6146104de578063a694fc3a14610385578063c8f33c9114610366578063cd3daf9d14610342578063d1af0c7d146102fe578063df136d65146102db5763e9fad8ee146100cf57600080fd5b346102d757826003193601126102d75733835260209060068252808420546100f56108c6565b6100fd610bf1565b6003554260025533151590816102b4575b801561027a5733865260068452828620610129828254610b7f565b905561013781600754610b7f565b60075561016581337f0000000000000000000000000000000000000000000000000000000000000000610b8c565b82519081527f7084f5476618d8e60b11ef0d7d3f06914655adb8793e28ff7f018d4c76d505d5843392a26001855561019b6108c6565b6101a3610bf1565b60035542600255610257575b338452600582528084205492831561022a5750907fe2403640ba68fed3a2f88b7557551d1993f84b99bb10ff833f0cf8db0c5e04869133855260058252848181205561021c84337f0000000000000000000000000000000000000000000000000000000000000000610b8c565b519283523392a26001815580f35b82606492519162461bcd60e51b83528201526009602482015268139bc81c995dd85c9960ba1b6044820152fd5b61026033610c46565b3385526005835281852055600354838352818520556101af565b50505162461bcd60e51b815291820152601460248201527343616e6e6f74207769746864726177207a65726f60601b604482015260649150fd5b6102bd33610c46565b33875260058552838720556003548585528387205561010e565b8280fd5b8382346102fa57816003193601126102fa576020906003549051908152f35b5080fd5b8382346102fa57816003193601126102fa57517f00000000000000000000000000000000000000000000000000000000000000006001600160a01b03168152602090f35b8382346102fa57816003193601126102fa5760209061035f610bf1565b9051908152f35b8382346102fa57816003193601126102fa576020906002549051908152f35b508290346102fa576020806003193601126102d7578335916103a56108c6565b6103ad610bf1565b60035542600255336104bb575b8215610484576103cc836007546108a3565b600755338452600682528084206103e48482546108a3565b905580516323b872dd60e01b838201523360248201523060448201526064808201859052815260a0810167ffffffffffffffff81118282101761047157829161021c917f9e71bc8eea02a63969f509818f2dafb9254532904319f9dbda79b67bd34a5f3d9594527f000000000000000000000000000000000000000000000000000000000000000061091c565b634e487b7160e01b865260418752602486fd5b5162461bcd60e51b815280850191909152601160248201527043616e6e6f74207374616b65207a65726f60781b6044820152606490fd5b6104c433610c46565b3385526005835281852055600354858352818520556103ba565b5090346102d75760203660031901126102d7577f41d466ebd06fb97e7786086ac8b69b7eb7da798592036251291d34e9791cde01916020913590610520610bf1565b600355426002558160015551908152a180f35b5090346102d75760203660031901126102d75780356001600160a01b0381169081900361056d579282916020948252845220549051908152f35b8380fd5b8382346102fa57816003193601126102fa576020906001549051908152f35b8382346102fa57816003193601126102fa57517f00000000000000000000000000000000000000000000000000000000000000006001600160a01b03168152602090f35b50346102d757826003193601126102d7576105ed6108c6565b6105f5610bf1565b60035542600255336106ad575b33835260056020528083205491821561067f57503383526005602052828181205561064e82337f0000000000000000000000000000000000000000000000000000000000000000610b8c565b519081527fe2403640ba68fed3a2f88b7557551d1993f84b99bb10ff833f0cf8db0c5e048660203392a26001815580f35b6020606492519162461bcd60e51b83528201526009602482015268139bc81c995dd85c9960ba1b6044820152fd5b6106b633610c46565b3384526005602052818420556003548260205281842055610602565b50346102d7576020908160031936011261056d578235926106f16108c6565b6106f9610bf1565b60035542600255336107b9575b83156107815750907f7084f5476618d8e60b11ef0d7d3f06914655adb8793e28ff7f018d4c76d505d59133855260068252808520610745858254610b7f565b905561075384600754610b7f565b60075561021c84337f0000000000000000000000000000000000000000000000000000000000000000610b8c565b82606492519162461bcd60e51b8352820152601460248201527343616e6e6f74207769746864726177207a65726f60601b6044820152fd5b6107c233610c46565b338652600584528286205560035481845282862055610706565b5090346102d75760203660031901126102d757356001600160a01b038116908190036102d757828291602094526006845220549051908152f35b8382346102fa57816003193601126102fa576020906007549051908152f35b5090346102d75760203660031901126102d757356001600160a01b038116908190036102d757828291602094526005845220549051908152f35b5090346102d75760203660031901126102d75735916001600160a01b03831683036108a0575061035f602092610c46565b80fd5b919082018092116108b057565b634e487b7160e01b600052601160045260246000fd5b6002600054146108d7576002600055565b60405162461bcd60e51b815260206004820152601f60248201527f5265656e7472616e637947756172643a207265656e7472616e742063616c6c006044820152606490fd5b6040805167ffffffffffffffff94936001600160a01b03909316929080830186811182821017610a955783526020938482527f5361666545524332303a206c6f772d6c6576656c2063616c6c206661696c6564858301526000808487829651910182855af13d15610a84573d91888311610a7057855192601f19603f81601f8401160116840199848b10908b1117610a5c57869798996109c696975283528286893d92013e610aab565b805191821591858315610a38575b5050509050156109e2575050565b60849250519062461bcd60e51b82526004820152602a60248201527f5361666545524332303a204552433230206f7065726174696f6e20646964206e6044820152691bdd081cdd58d8d9595960b21b6064820152fd5b9193818094500103126102fa578301519081151582036108a05750803880856109d4565b634e487b7160e01b86526041600452602486fd5b634e487b7160e01b85526041600452602485fd5b6109c6939495969750606091610aab565b634e487b7160e01b600052604160045260246000fd5b91929015610b0d5750815115610abf575090565b3b15610ac85790565b60405162461bcd60e51b815260206004820152601d60248201527f416464726573733a2063616c6c20746f206e6f6e2d636f6e74726163740000006044820152606490fd5b825190915015610b205750805190602001fd5b6040519062461bcd60e51b82528160208060048301528251908160248401526000935b828510610b66575050604492506000838284010152601f80199101168101030190fd5b8481018201518686016044015293810193859350610b43565b919082039182116108b057565b60405163a9059cbb60e01b60208201526001600160a01b039092166024830152604480830193909352918152608081019167ffffffffffffffff831182841017610a9557610bdc9260405261091c565b565b818102929181159184041417156108b057565b6007548015610c3f57610c0660025442610b7f565b610c166003549160015490610bde565b91670de0b6b3a7640000928381029381850414901517156108b057610c3c9204906108a3565b90565b5060035490565b610c3c9060018060a01b0316604060008281526006602052670de0b6b3a7640000610c9183832054610c8b610c79610bf1565b87865260046020528686205490610b7f565b90610bde565b0492815260056020522054906108a356fea164736f6c6343000814000a","opcodes":"PUSH1 0xC0 CALLVALUE PUSH2 0x108 JUMPI PUSH1 0x1F PUSH2 0xDE7 CODESIZE DUP2 SWAP1 SUB SWAP2 DUP3 ADD PUSH1 0x1F NOT AND DUP4 ADD SWAP2 PUSH1 0x1 PUSH1 0x1 PUSH1 0x40 SHL SUB DUP4 GT DUP5 DUP5 LT OR PUSH2 0x10D JUMPI DUP1 DUP5 SWAP3 PUSH1 0x60 SWAP5 PUSH1 0x40 MSTORE DUP4 CODECOPY DUP2 ADD SUB SLT PUSH2 0x108 JUMPI PUSH2 0x47 DUP2 PUSH2 0x123 JUMP JUMPDEST PUSH1 0x40 PUSH2 0x55 PUSH1 0x20 DUP5 ADD PUSH2 0x123 JUMP JUMPDEST SWAP3 ADD MLOAD PUSH1 0x1 PUSH1 0x0 SSTORE SWAP2 PUSH1 0x1 PUSH1 0x1 PUSH1 0xA0 SHL SUB SWAP2 DUP3 AND DUP1 ISZERO ISZERO DUP1 PUSH2 0xFD JUMPI JUMPDEST ISZERO PUSH2 0xC9 JUMPI PUSH1 0x80 MSTORE AND PUSH1 0xA0 MSTORE PUSH1 0x1 SSTORE TIMESTAMP PUSH1 0x2 SSTORE PUSH1 0x40 MLOAD PUSH2 0xCAF SWAP1 DUP2 PUSH2 0x138 DUP3 CODECOPY PUSH1 0x80 MLOAD DUP2 DUP2 DUP2 PUSH2 0x141 ADD MSTORE DUP2 DUP2 PUSH2 0x44D ADD MSTORE DUP2 DUP2 PUSH2 0x5A5 ADD MSTORE PUSH2 0x75D ADD MSTORE PUSH1 0xA0 MLOAD DUP2 DUP2 DUP2 PUSH2 0x1F8 ADD MSTORE DUP2 DUP2 PUSH2 0x313 ADD MSTORE PUSH2 0x62A ADD MSTORE RETURN JUMPDEST PUSH1 0x40 MLOAD PUSH3 0x461BCD PUSH1 0xE5 SHL DUP2 MSTORE PUSH1 0x20 PUSH1 0x4 DUP3 ADD MSTORE PUSH1 0xC PUSH1 0x24 DUP3 ADD MSTORE PUSH12 0x5A65726F2061646472657373 PUSH1 0xA0 SHL PUSH1 0x44 DUP3 ADD MSTORE PUSH1 0x64 SWAP1 REVERT JUMPDEST POP DUP3 DUP3 AND ISZERO ISZERO PUSH2 0x72 JUMP JUMPDEST PUSH1 0x0 DUP1 REVERT JUMPDEST PUSH4 0x4E487B71 PUSH1 0xE0 SHL PUSH1 0x0 MSTORE PUSH1 0x41 PUSH1 0x4 MSTORE PUSH1 0x24 PUSH1 0x0 REVERT JUMPDEST MLOAD SWAP1 PUSH1 0x1 PUSH1 0x1 PUSH1 0xA0 SHL SUB DUP3 AND DUP3 SUB PUSH2 0x108 JUMPI JUMP INVALID PUSH1 0x40 PUSH1 0x80 DUP2 MSTORE PUSH1 0x4 DUP1 CALLDATASIZE LT ISZERO PUSH2 0x14 JUMPI PUSH1 0x0 DUP1 REVERT JUMPDEST PUSH1 0x0 SWAP2 DUP3 CALLDATALOAD PUSH1 0xE0 SHR DUP1 PUSH3 0x8CC262 EQ PUSH2 0x86F JUMPI DUP1 PUSH4 0x700037D EQ PUSH2 0x835 JUMPI DUP1 PUSH4 0x18160DDD EQ PUSH2 0x816 JUMPI DUP1 PUSH4 0x27E235E3 EQ PUSH2 0x7DC JUMPI DUP1 PUSH4 0x2E1A7D4D EQ PUSH2 0x6D2 JUMPI DUP1 PUSH4 0x3D18B912 EQ PUSH2 0x5D4 JUMPI DUP1 PUSH4 0x72F702F3 EQ PUSH2 0x590 JUMPI DUP1 PUSH4 0x7B0A47EE EQ PUSH2 0x571 JUMPI DUP1 PUSH4 0x8B876347 EQ PUSH2 0x533 JUMPI DUP1 PUSH4 0x9E447FC6 EQ PUSH2 0x4DE JUMPI DUP1 PUSH4 0xA694FC3A EQ PUSH2 0x385 JUMPI DUP1 PUSH4 0xC8F33C91 EQ PUSH2 0x366 JUMPI DUP1 PUSH4 0xCD3DAF9D EQ PUSH2 0x342 JUMPI DUP1 PUSH4 0xD1AF0C7D EQ PUSH2 0x2FE JUMPI DUP1 PUSH4 0xDF136D65 EQ PUSH2 0x2DB JUMPI PUSH4 0xE9FAD8EE EQ PUSH2 0xCF JUMPI PUSH1 0x0 DUP1 REVERT JUMPDEST CALLVALUE PUSH2 0x2D7 JUMPI DUP3 PUSH1 0x3 NOT CALLDATASIZE ADD SLT PUSH2 0x2D7 JUMPI CALLER DUP4 MSTORE PUSH1 0x20 SWAP1 PUSH1 0x6 DUP3 MSTORE DUP1 DUP5 KECCAK256 SLOAD PUSH2 0xF5 PUSH2 0x8C6 JUMP JUMPDEST PUSH2 0xFD PUSH2 0xBF1 JUMP JUMPDEST PUSH1 0x3 SSTORE TIMESTAMP PUSH1 0x2 SSTORE CALLER ISZERO ISZERO SWAP1 DUP2 PUSH2 0x2B4 JUMPI JUMPDEST DUP1 ISZERO PUSH2 0x27A JUMPI CALLER DUP7 MSTORE PUSH1 0x6 DUP5 MSTORE DUP3 DUP7 KECCAK256 PUSH2 0x129 DUP3 DUP3 SLOAD PUSH2 0xB7F JUMP JUMPDEST SWAP1 SSTORE PUSH2 0x137 DUP2 PUSH1 0x7 SLOAD PUSH2 0xB7F JUMP JUMPDEST PUSH1 0x7 SSTORE PUSH2 0x165 DUP2 CALLER PUSH32 0x0 PUSH2 0xB8C JUMP JUMPDEST DUP3 MLOAD SWAP1 DUP2 MSTORE PUSH32 0x7084F5476618D8E60B11EF0D7D3F06914655ADB8793E28FF7F018D4C76D505D5 DUP5 CALLER SWAP3 LOG2 PUSH1 0x1 DUP6 SSTORE PUSH2 0x19B PUSH2 0x8C6 JUMP JUMPDEST PUSH2 0x1A3 PUSH2 0xBF1 JUMP JUMPDEST PUSH1 0x3 SSTORE TIMESTAMP PUSH1 0x2 SSTORE PUSH2 0x257 JUMPI JUMPDEST CALLER DUP5 MSTORE PUSH1 0x5 DUP3 MSTORE DUP1 DUP5 KECCAK256 SLOAD SWAP3 DUP4 ISZERO PUSH2 0x22A JUMPI POP SWAP1 PUSH32 0xE2403640BA68FED3A2F88B7557551D1993F84B99BB10FF833F0CF8DB0C5E0486 SWAP2 CALLER DUP6 MSTORE PUSH1 0x5 DUP3 MSTORE DUP5 DUP2 DUP2 KECCAK256 SSTORE PUSH2 0x21C DUP5 CALLER PUSH32 0x0 PUSH2 0xB8C JUMP JUMPDEST MLOAD SWAP3 DUP4 MSTORE CALLER SWAP3 LOG2 PUSH1 0x1 DUP2 SSTORE DUP1 RETURN JUMPDEST DUP3 PUSH1 0x64 SWAP3 MLOAD SWAP2 PUSH3 0x461BCD PUSH1 0xE5 SHL DUP4 MSTORE DUP3 ADD MSTORE PUSH1 0x9 PUSH1 0x24 DUP3 ADD MSTORE PUSH9 0x139BC81C995DD85C99 PUSH1 0xBA SHL PUSH1 0x44 DUP3 ADD MSTORE REVERT JUMPDEST PUSH2 0x260 CALLER PUSH2 0xC46 JUMP JUMPDEST CALLER DUP6 MSTORE PUSH1 0x5 DUP4 MSTORE DUP2 DUP6 KECCAK256 SSTORE PUSH1 0x3 SLOAD DUP4 DUP4 MSTORE DUP2 DUP6 KECCAK256 SSTORE PUSH2 0x1AF JUMP JUMPDEST POP POP MLOAD PUSH3 0x461BCD PUSH1 0xE5 SHL DUP2 MSTORE SWAP2 DUP3 ADD MSTORE PUSH1 0x14 PUSH1 0x24 DUP3 ADD MSTORE PUSH20 0x43616E6E6F74207769746864726177207A65726F PUSH1 0x60 SHL PUSH1 0x44 DUP3 ADD MSTORE PUSH1 0x64 SWAP2 POP REVERT JUMPDEST PUSH2 0x2BD CALLER PUSH2 0xC46 JUMP JUMPDEST CALLER DUP8 MSTORE PUSH1 0x5 DUP6 MSTORE DUP4 DUP8 KECCAK256 SSTORE PUSH1 0x3 SLOAD DUP6 DUP6 MSTORE DUP4 DUP8 KECCAK256 SSTORE PUSH2 0x10E JUMP JUMPDEST DUP3 DUP1 REVERT JUMPDEST DUP4 DUP3 CALLVALUE PUSH2 0x2FA JUMPI DUP2 PUSH1 0x3 NOT CALLDATASIZE ADD SLT PUSH2 0x2FA JUMPI PUSH1 0x20 SWAP1 PUSH1 0x3 SLOAD SWAP1 MLOAD SWAP1 DUP2 MSTORE RETURN JUMPDEST POP DUP1 REVERT JUMPDEST DUP4 DUP3 CALLVALUE PUSH2 0x2FA JUMPI DUP2 PUSH1 0x3 NOT CALLDATASIZE ADD SLT PUSH2 0x2FA JUMPI MLOAD PUSH32 0x0 PUSH1 0x1 PUSH1 0x1 PUSH1 0xA0 SHL SUB AND DUP2 MSTORE PUSH1 0x20 SWAP1 RETURN JUMPDEST DUP4 DUP3 CALLVALUE PUSH2 0x2FA JUMPI DUP2 PUSH1 0x3 NOT CALLDATASIZE ADD SLT PUSH2 0x2FA JUMPI PUSH1 0x20 SWAP1 PUSH2 0x35F PUSH2 0xBF1 JUMP JUMPDEST SWAP1 MLOAD SWAP1 DUP2 MSTORE RETURN JUMPDEST DUP4 DUP3 CALLVALUE PUSH2 0x2FA JUMPI DUP2 PUSH1 0x3 NOT CALLDATASIZE ADD SLT PUSH2 0x2FA JUMPI PUSH1 0x20 SWAP1 PUSH1 0x2 SLOAD SWAP1 MLOAD SWAP1 DUP2 MSTORE RETURN JUMPDEST POP DUP3 SWAP1 CALLVALUE PUSH2 0x2FA JUMPI PUSH1 0x20 DUP1 PUSH1 0x3 NOT CALLDATASIZE ADD SLT PUSH2 0x2D7 JUMPI DUP4 CALLDATALOAD SWAP2 PUSH2 0x3A5 PUSH2 0x8C6 JUMP JUMPDEST PUSH2 0x3AD PUSH2 0xBF1 JUMP JUMPDEST PUSH1 0x3 SSTORE TIMESTAMP PUSH1 0x2 SSTORE CALLER PUSH2 0x4BB JUMPI JUMPDEST DUP3 ISZERO PUSH2 0x484 JUMPI PUSH2 0x3CC DUP4 PUSH1 0x7 SLOAD PUSH2 0x8A3 JUMP JUMPDEST PUSH1 0x7 SSTORE CALLER DUP5 MSTORE PUSH1 0x6 DUP3 MSTORE DUP1 DUP5 KECCAK256 PUSH2 0x3E4 DUP5 DUP3 SLOAD PUSH2 0x8A3 JUMP JUMPDEST SWAP1 SSTORE DUP1 MLOAD PUSH4 0x23B872DD PUSH1 0xE0 SHL DUP4 DUP3 ADD MSTORE CALLER PUSH1 0x24 DUP3 ADD MSTORE ADDRESS PUSH1 0x44 DUP3 ADD MSTORE PUSH1 0x64 DUP1 DUP3 ADD DUP6 SWAP1 MSTORE DUP2 MSTORE PUSH1 0xA0 DUP2 ADD PUSH8 0xFFFFFFFFFFFFFFFF DUP2 GT DUP3 DUP3 LT OR PUSH2 0x471 JUMPI DUP3 SWAP2 PUSH2 0x21C SWAP2 PUSH32 0x9E71BC8EEA02A63969F509818F2DAFB9254532904319F9DBDA79B67BD34A5F3D SWAP6 SWAP5 MSTORE PUSH32 0x0 PUSH2 0x91C JUMP JUMPDEST PUSH4 0x4E487B71 PUSH1 0xE0 SHL DUP7 MSTORE PUSH1 0x41 DUP8 MSTORE PUSH1 0x24 DUP7 REVERT JUMPDEST MLOAD PUSH3 0x461BCD PUSH1 0xE5 SHL DUP2 MSTORE DUP1 DUP6 ADD SWAP2 SWAP1 SWAP2 MSTORE PUSH1 0x11 PUSH1 0x24 DUP3 ADD MSTORE PUSH17 0x43616E6E6F74207374616B65207A65726F PUSH1 0x78 SHL PUSH1 0x44 DUP3 ADD MSTORE PUSH1 0x64 SWAP1 REVERT JUMPDEST PUSH2 0x4C4 CALLER PUSH2 0xC46 JUMP JUMPDEST CALLER DUP6 MSTORE PUSH1 0x5 DUP4 MSTORE DUP2 DUP6 KECCAK256 SSTORE PUSH1 0x3 SLOAD DUP6 DUP4 MSTORE DUP2 DUP6 KECCAK256 SSTORE PUSH2 0x3BA JUMP JUMPDEST POP SWAP1 CALLVALUE PUSH2 0x2D7 JUMPI PUSH1 0x20 CALLDATASIZE PUSH1 0x3 NOT ADD SLT PUSH2 0x2D7 JUMPI PUSH32 0x41D466EBD06FB97E7786086AC8B69B7EB7DA798592036251291D34E9791CDE01 SWAP2 PUSH1 0x20 SWAP2 CALLDATALOAD SWAP1 PUSH2 0x520 PUSH2 0xBF1 JUMP JUMPDEST PUSH1 0x3 SSTORE TIMESTAMP PUSH1 0x2 SSTORE DUP2 PUSH1 0x1 SSTORE MLOAD SWAP1 DUP2 MSTORE LOG1 DUP1 RETURN JUMPDEST POP SWAP1 CALLVALUE PUSH2 0x2D7 JUMPI PUSH1 0x20 CALLDATASIZE PUSH1 0x3 NOT ADD SLT PUSH2 0x2D7 JUMPI DUP1 CALLDATALOAD PUSH1 0x1 PUSH1 0x1 PUSH1 0xA0 SHL SUB DUP2 AND SWAP1 DUP2 SWAP1 SUB PUSH2 0x56D JUMPI SWAP3 DUP3 SWAP2 PUSH1 0x20 SWAP5 DUP3 MSTORE DUP5 MSTORE KECCAK256 SLOAD SWAP1 MLOAD SWAP1 DUP2 MSTORE RETURN JUMPDEST DUP4 DUP1 REVERT JUMPDEST DUP4 DUP3 CALLVALUE PUSH2 0x2FA JUMPI DUP2 PUSH1 0x3 NOT CALLDATASIZE ADD SLT PUSH2 0x2FA JUMPI PUSH1 0x20 SWAP1 PUSH1 0x1 SLOAD SWAP1 MLOAD SWAP1 DUP2 MSTORE RETURN JUMPDEST DUP4 DUP3 CALLVALUE PUSH2 0x2FA JUMPI DUP2 PUSH1 0x3 NOT CALLDATASIZE ADD SLT PUSH2 0x2FA JUMPI MLOAD PUSH32 0x0 PUSH1 0x1 PUSH1 0x1 PUSH1 0xA0 SHL SUB AND DUP2 MSTORE PUSH1 0x20 SWAP1 RETURN JUMPDEST POP CALLVALUE PUSH2 0x2D7 JUMPI DUP3 PUSH1 0x3 NOT CALLDATASIZE ADD SLT PUSH2 0x2D7 JUMPI PUSH2 0x5ED PUSH2 0x8C6 JUMP JUMPDEST PUSH2 0x5F5 PUSH2 0xBF1 JUMP JUMPDEST PUSH1 0x3 SSTORE TIMESTAMP PUSH1 0x2 SSTORE CALLER PUSH2 0x6AD JUMPI JUMPDEST CALLER DUP4 MSTORE PUSH1 0x5 PUSH1 0x20 MSTORE DUP1 DUP4 KECCAK256 SLOAD SWAP2 DUP3 ISZERO PUSH2 0x67F JUMPI POP CALLER DUP4 MSTORE PUSH1 0x5 PUSH1 0x20 MSTORE DUP3 DUP2 DUP2 KECCAK256 SSTORE PUSH2 0x64E DUP3 CALLER PUSH32 0x0 PUSH2 0xB8C JUMP JUMPDEST MLOAD SWAP1 DUP2 MSTORE PUSH32 0xE2403640BA68FED3A2F88B7557551D1993F84B99BB10FF833F0CF8DB0C5E0486 PUSH1 0x20 CALLER SWAP3 LOG2 PUSH1 0x1 DUP2 SSTORE DUP1 RETURN JUMPDEST PUSH1 0x20 PUSH1 0x64 SWAP3 MLOAD SWAP2 PUSH3 0x461BCD PUSH1 0xE5 SHL DUP4 MSTORE DUP3 ADD MSTORE PUSH1 0x9 PUSH1 0x24 DUP3 ADD MSTORE PUSH9 0x139BC81C995DD85C99 PUSH1 0xBA SHL PUSH1 0x44 DUP3 ADD MSTORE REVERT JUMPDEST PUSH2 0x6B6 CALLER PUSH2 0xC46 JUMP JUMPDEST CALLER DUP5 MSTORE PUSH1 0x5 PUSH1 0x20 MSTORE DUP2 DUP5 KECCAK256 SSTORE PUSH1 0x3 SLOAD DUP3 PUSH1 0x20 MSTORE DUP2 DUP5 KECCAK256 SSTORE PUSH2 0x602 JUMP JUMPDEST POP CALLVALUE PUSH2 0x2D7 JUMPI PUSH1 0x20 SWAP1 DUP2 PUSH1 0x3 NOT CALLDATASIZE ADD SLT PUSH2 0x56D JUMPI DUP3 CALLDATALOAD SWAP3 PUSH2 0x6F1 PUSH2 0x8C6 JUMP JUMPDEST PUSH2 0x6F9 PUSH2 0xBF1 JUMP JUMPDEST PUSH1 0x3 SSTORE TIMESTAMP PUSH1 0x2 SSTORE CALLER PUSH2 0x7B9 JUMPI JUMPDEST DUP4 ISZERO PUSH2 0x781 JUMPI POP SWAP1 PUSH32 0x7084F5476618D8E60B11EF0D7D3F06914655ADB8793E28FF7F018D4C76D505D5 SWAP2 CALLER DUP6 MSTORE PUSH1 0x6 DUP3 MSTORE DUP1 DUP6 KECCAK256 PUSH2 0x745 DUP6 DUP3 SLOAD PUSH2 0xB7F JUMP JUMPDEST SWAP1 SSTORE PUSH2 0x753 DUP5 PUSH1 0x7 SLOAD PUSH2 0xB7F JUMP JUMPDEST PUSH1 0x7 SSTORE PUSH2 0x21C DUP5 CALLER PUSH32 0x0 PUSH2 0xB8C JUMP JUMPDEST DUP3 PUSH1 0x64 SWAP3 MLOAD SWAP2 PUSH3 0x461BCD PUSH1 0xE5 SHL DUP4 MSTORE DUP3 ADD MSTORE PUSH1 0x14 PUSH1 0x24 DUP3 ADD MSTORE PUSH20 0x43616E6E6F74207769746864726177207A65726F PUSH1 0x60 SHL PUSH1 0x44 DUP3 ADD MSTORE REVERT JUMPDEST PUSH2 0x7C2 CALLER PUSH2 0xC46 JUMP JUMPDEST CALLER DUP7 MSTORE PUSH1 0x5 DUP5 MSTORE DUP3 DUP7 KECCAK256 SSTORE PUSH1 0x3 SLOAD DUP2 DUP5 MSTORE DUP3 DUP7 KECCAK256 SSTORE PUSH2 0x706 JUMP JUMPDEST POP SWAP1 CALLVALUE PUSH2 0x2D7 JUMPI PUSH1 0x20 CALLDATASIZE PUSH1 0x3 NOT ADD SLT PUSH2 0x2D7 JUMPI CALLDATALOAD PUSH1 0x1 PUSH1 0x1 PUSH1 0xA0 SHL SUB DUP2 AND SWAP1 DUP2 SWAP1 SUB PUSH2 0x2D7 JUMPI DUP3 DUP3 SWAP2 PUSH1 0x20 SWAP5 MSTORE PUSH1 0x6 DUP5 MSTORE KECCAK256 SLOAD SWAP1 MLOAD SWAP1 DUP2 MSTORE RETURN JUMPDEST DUP4 DUP3 CALLVALUE PUSH2 0x2FA JUMPI DUP2 PUSH1 0x3 NOT CALLDATASIZE ADD SLT PUSH2 0x2FA JUMPI PUSH1 0x20 SWAP1 PUSH1 0x7 SLOAD SWAP1 MLOAD SWAP1 DUP2 MSTORE RETURN JUMPDEST POP SWAP1 CALLVALUE PUSH2 0x2D7 JUMPI PUSH1 0x20 CALLDATASIZE PUSH1 0x3 NOT ADD SLT PUSH2 0x2D7 JUMPI CALLDATALOAD PUSH1 0x1 PUSH1 0x1 PUSH1 0xA0 SHL SUB DUP2 AND SWAP1 DUP2 SWAP1 SUB PUSH2 0x2D7 JUMPI DUP3 DUP3 SWAP2 PUSH1 0x20 SWAP5 MSTORE PUSH1 0x5 DUP5 MSTORE KECCAK256 SLOAD SWAP1 MLOAD SWAP1 DUP2 MSTORE RETURN JUMPDEST POP SWAP1 CALLVALUE PUSH2 0x2D7 JUMPI PUSH1 0x20 CALLDATASIZE PUSH1 0x3 NOT ADD SLT PUSH2 0x2D7 JUMPI CALLDATALOAD SWAP2 PUSH1 0x1 PUSH1 0x1 PUSH1 0xA0 SHL SUB DUP4 AND DUP4 SUB PUSH2 0x8A0 JUMPI POP PUSH2 0x35F PUSH1 0x20 SWAP3 PUSH2 0xC46 JUMP JUMPDEST DUP1 REVERT JUMPDEST SWAP2 SWAP1 DUP3 ADD DUP1 SWAP3 GT PUSH2 0x8B0 JUMPI JUMP JUMPDEST PUSH4 0x4E487B71 PUSH1 0xE0 SHL PUSH1 0x0 MSTORE PUSH1 0x11 PUSH1 0x4 MSTORE PUSH1 0x24 PUSH1 0x0 REVERT JUMPDEST PUSH1 0x2 PUSH1 0x0 SLOAD EQ PUSH2 0x8D7 JUMPI PUSH1 0x2 PUSH1 0x0 SSTORE JUMP JUMPDEST PUSH1 0x40 MLOAD PUSH3 0x461BCD PUSH1 0xE5 SHL DUP2 MSTORE PUSH1 0x20 PUSH1 0x4 DUP3 ADD MSTORE PUSH1 0x1F PUSH1 0x24 DUP3 ADD MSTORE PUSH32 0x5265656E7472616E637947756172643A207265656E7472616E742063616C6C00 PUSH1 0x44 DUP3 ADD MSTORE PUSH1 0x64 SWAP1 REVERT JUMPDEST PUSH1 0x40 DUP1 MLOAD PUSH8 0xFFFFFFFFFFFFFFFF SWAP5 SWAP4 PUSH1 0x1 PUSH1 0x1 PUSH1 0xA0 SHL SUB SWAP1 SWAP4 AND SWAP3 SWAP1 DUP1 DUP4 ADD DUP7 DUP2 GT DUP3 DUP3 LT OR PUSH2 0xA95 JUMPI DUP4 MSTORE PUSH1 0x20 SWAP4 DUP5 DUP3 MSTORE PUSH32 0x5361666545524332303A206C6F772D6C6576656C2063616C6C206661696C6564 DUP6 DUP4 ADD MSTORE PUSH1 0x0 DUP1 DUP5 DUP8 DUP3 SWAP7 MLOAD SWAP2 ADD DUP3 DUP6 GAS CALL RETURNDATASIZE ISZERO PUSH2 0xA84 JUMPI RETURNDATASIZE SWAP2 DUP9 DUP4 GT PUSH2 0xA70 JUMPI DUP6 MLOAD SWAP3 PUSH1 0x1F NOT PUSH1 0x3F DUP2 PUSH1 0x1F DUP5 ADD AND ADD AND DUP5 ADD SWAP10 DUP5 DUP12 LT SWAP1 DUP12 GT OR PUSH2 0xA5C JUMPI DUP7 SWAP8 SWAP9 SWAP10 PUSH2 0x9C6 SWAP7 SWAP8 MSTORE DUP4 MSTORE DUP3 DUP7 DUP10 RETURNDATASIZE SWAP3 ADD RETURNDATACOPY PUSH2 0xAAB JUMP JUMPDEST DUP1 MLOAD SWAP2 DUP3 ISZERO SWAP2 DUP6 DUP4 ISZERO PUSH2 0xA38 JUMPI JUMPDEST POP POP POP SWAP1 POP ISZERO PUSH2 0x9E2 JUMPI POP POP JUMP JUMPDEST PUSH1 0x84 SWAP3 POP MLOAD SWAP1 PUSH3 0x461BCD PUSH1 0xE5 SHL DUP3 MSTORE PUSH1 0x4 DUP3 ADD MSTORE PUSH1 0x2A PUSH1 0x24 DUP3 ADD MSTORE PUSH32 0x5361666545524332303A204552433230206F7065726174696F6E20646964206E PUSH1 0x44 DUP3 ADD MSTORE PUSH10 0x1BDD081CDD58D8D95959 PUSH1 0xB2 SHL PUSH1 0x64 DUP3 ADD MSTORE REVERT JUMPDEST SWAP2 SWAP4 DUP2 DUP1 SWAP5 POP ADD SUB SLT PUSH2 0x2FA JUMPI DUP4 ADD MLOAD SWAP1 DUP2 ISZERO ISZERO DUP3 SUB PUSH2 0x8A0 JUMPI POP DUP1 CODESIZE DUP1 DUP6 PUSH2 0x9D4 JUMP JUMPDEST PUSH4 0x4E487B71 PUSH1 0xE0 SHL DUP7 MSTORE PUSH1 0x41 PUSH1 0x4 MSTORE PUSH1 0x24 DUP7 REVERT JUMPDEST PUSH4 0x4E487B71 PUSH1 0xE0 SHL DUP6 MSTORE PUSH1 0x41 PUSH1 0x4 MSTORE PUSH1 0x24 DUP6 REVERT JUMPDEST PUSH2 0x9C6 SWAP4 SWAP5 SWAP6 SWAP7 SWAP8 POP PUSH1 0x60 SWAP2 PUSH2 0xAAB JUMP JUMPDEST PUSH4 0x4E487B71 PUSH1 0xE0 SHL PUSH1 0x0 MSTORE PUSH1 0x41 PUSH1 0x4 MSTORE PUSH1 0x24 PUSH1 0x0 REVERT JUMPDEST SWAP2 SWAP3 SWAP1 ISZERO PUSH2 0xB0D JUMPI POP DUP2 MLOAD ISZERO PUSH2 0xABF JUMPI POP SWAP1 JUMP JUMPDEST EXTCODESIZE ISZERO PUSH2 0xAC8 JUMPI SWAP1 JUMP JUMPDEST PUSH1 0x40 MLOAD PUSH3 0x461BCD PUSH1 0xE5 SHL DUP2 MSTORE PUSH1 0x20 PUSH1 0x4 DUP3 ADD MSTORE PUSH1 0x1D PUSH1 0x24 DUP3 ADD MSTORE PUSH32 0x416464726573733A2063616C6C20746F206E6F6E2D636F6E7472616374000000 PUSH1 0x44 DUP3 ADD MSTORE PUSH1 0x64 SWAP1 REVERT JUMPDEST DUP3 MLOAD SWAP1 SWAP2 POP ISZERO PUSH2 0xB20 JUMPI POP DUP1 MLOAD SWAP1 PUSH1 0x20 ADD REVERT JUMPDEST PUSH1 0x40 MLOAD SWAP1 PUSH3 0x461BCD PUSH1 0xE5 SHL DUP3 MSTORE DUP2 PUSH1 0x20 DUP1 PUSH1 0x4 DUP4 ADD MSTORE DUP3 MLOAD SWAP1 DUP2 PUSH1 0x24 DUP5 ADD MSTORE PUSH1 0x0 SWAP4 JUMPDEST DUP3 DUP6 LT PUSH2 0xB66 JUMPI POP POP PUSH1 0x44 SWAP3 POP PUSH1 0x0 DUP4 DUP3 DUP5 ADD ADD MSTORE PUSH1 0x1F DUP1 NOT SWAP2 ADD AND DUP2 ADD SUB ADD SWAP1 REVERT JUMPDEST DUP5 DUP2 ADD DUP3 ADD MLOAD DUP7 DUP7 ADD PUSH1 0x44 ADD MSTORE SWAP4 DUP2 ADD SWAP4 DUP6 SWAP4 POP PUSH2 0xB43 JUMP JUMPDEST SWAP2 SWAP1 DUP3 SUB SWAP2 DUP3 GT PUSH2 0x8B0 JUMPI JUMP JUMPDEST PUSH1 0x40 MLOAD PUSH4 0xA9059CBB PUSH1 0xE0 SHL PUSH1 0x20 DUP3 ADD MSTORE PUSH1 0x1 PUSH1 0x1 PUSH1 0xA0 SHL SUB SWAP1 SWAP3 AND PUSH1 0x24 DUP4 ADD MSTORE PUSH1 0x44 DUP1 DUP4 ADD SWAP4 SWAP1 SWAP4 MSTORE SWAP2 DUP2 MSTORE PUSH1 0x80 DUP2 ADD SWAP2 PUSH8 0xFFFFFFFFFFFFFFFF DUP4 GT DUP3 DUP5 LT OR PUSH2 0xA95 JUMPI PUSH2 0xBDC SWAP3 PUSH1 0x40 MSTORE PUSH2 0x91C JUMP JUMPDEST JUMP JUMPDEST DUP2 DUP2 MUL SWAP3 SWAP2 DUP2 ISZERO SWAP2 DUP5 DIV EQ OR ISZERO PUSH2 0x8B0 JUMPI JUMP JUMPDEST PUSH1 0x7 SLOAD DUP1 ISZERO PUSH2 0xC3F JUMPI PUSH2 0xC06 PUSH1 0x2 SLOAD TIMESTAMP PUSH2 0xB7F JUMP JUMPDEST PUSH2 0xC16 PUSH1 0x3 SLOAD SWAP2 PUSH1 0x1 SLOAD SWAP1 PUSH2 0xBDE JUMP JUMPDEST SWAP2 PUSH8 0xDE0B6B3A7640000 SWAP3 DUP4 DUP2 MUL SWAP4 DUP2 DUP6 DIV EQ SWAP1 ISZERO OR ISZERO PUSH2 0x8B0 JUMPI PUSH2 0xC3C SWAP3 DIV SWAP1 PUSH2 0x8A3 JUMP JUMPDEST SWAP1 JUMP JUMPDEST POP PUSH1 0x3 SLOAD SWAP1 JUMP JUMPDEST PUSH2 0xC3C SWAP1 PUSH1 0x1 DUP1 PUSH1 0xA0 SHL SUB AND PUSH1 0x40 PUSH1 0x0 DUP3 DUP2 MSTORE PUSH1 0x6 PUSH1 0x20 MSTORE PUSH8 0xDE0B6B3A7640000 PUSH2 0xC91 DUP4 DUP4 KECCAK256 SLOAD PUSH2 0xC8B PUSH2 0xC79 PUSH2 0xBF1 JUMP JUMPDEST DUP8 DUP7 MSTORE PUSH1 0x4 PUSH1 0x20 MSTORE DUP7 DUP7 KECCAK256 SLOAD SWAP1 PUSH2 0xB7F JUMP JUMPDEST SWAP1 PUSH2 0xBDE JUMP JUMPDEST DIV SWAP3 DUP2 MSTORE PUSH1 0x5 PUSH1 0x20 MSTORE KECCAK256 SLOAD SWAP1 PUSH2 0x8A3 JUMP INVALID LOG1 PUSH5 0x736F6C6343 STOP ADDMOD EQ STOP EXP "},"methodIdentifiers":{"balances(address)":"27e235e3","earned(address)":"008cc262","exit()":"e9fad8ee","getReward()":"3d18b912","lastUpdateTime()":"c8f33c91","rewardPerToken()":"cd3daf9d","rewardPerTokenStored()":"df136d65","rewardRate()":"7b0a47ee","rewards(address)":"0700037d","rewardsToken()":"d1af0c7d","setRewardRate(uint256)":"9e447fc6","stake(uint256)":"a694fc3a","stakingToken()":"72f702f3","totalSupply()":"18160ddd","userRewardPerTokenPaid(address)":"8b876347","withdraw(uint256)":"2e1a7d4d"}}}}}