{
  "_format": "hh-sol-artifact-1",
  "contractName": "BridgeAdapter",
  "sourceName": "contracts/BridgeAdapter.sol",
  "abi": [
    {
      "inputs": [
        {
          "internalType": "address",
          "name": "_gasService",
          "type": "address"
        },
        {
          "internalType": "address",
          "name": "_gateway",
          "type": "address"
        }
      ],
      "stateMutability": "nonpayable",
      "type": "constructor"
    },
    {
      "inputs": [
        {
          "internalType": "string",
          "name": "destinationChain",
          "type": "string"
        },
        {
          "internalType": "string",
          "name": "destinationAddress",
          "type": "string"
        },
        {
          "internalType": "bytes",
          "name": "payload",
          "type": "bytes"
        },
        {
          "internalType": "string",
          "name": "symbol",
          "type": "string"
        },
        {
          "internalType": "uint256",
          "name": "amount",
          "type": "uint256"
        }
      ],
      "name": "forwardWithToken",
      "outputs": [],
      "stateMutability": "payable",
      "type": "function"
    },
    {
      "inputs": [],
      "name": "gasService",
      "outputs": [
        {
          "internalType": "contract IAxelarGasService",
          "name": "",
          "type": "address"
        }
      ],
      "stateMutability": "view",
      "type": "function"
    },
    {
      "inputs": [],
      "name": "gateway",
      "outputs": [
        {
          "internalType": "contract IAxelarGateway",
          "name": "",
          "type": "address"
        }
      ],
      "stateMutability": "view",
      "type": "function"
    }
  ],
  "bytecode": "0x60c03461009257601f61046138819003918201601f19168301916001600160401b0383118484101761009757808492604094855283398101031261009257610052602061004b836100ad565b92016100ad565b6001600160a01b039182166080521660a05260405161039f90816100c2823960805181818160cf015261029e015260a05181818161018b01526102e10152f35b600080fd5b634e487b7160e01b600052604160045260246000fd5b51906001600160a01b03821682036100925756fe608080604052600436101561001357600080fd5b600090813560e01c908163116191b6146102cd575080636a22d8cc146102885763bcdaac921461004257600080fd5b6003199060a0368301126102435767ffffffffffffffff60043581811161028457610071903690600401610314565b6024929192358281116102805761008c903690600401610314565b91909360443584811161027c576100a7903690600401610314565b9094606435908111610278576100c1903690600401610314565b6001600160a01b03999094917f00000000000000000000000000000000000000000000000000000000000000008b1691823b1561027457604051636316100160e11b815230600482015260e060248201529b8b8d8b8d61012560e484018a8d610371565b8d8785830301604486015261013992610371565b898684830301606485015261014d92610371565b84828203016084830152610162908b87610371565b958180608435988960a48301523360c4830152039134905af1801561026957610255575b8b9c507f00000000000000000000000000000000000000000000000000000000000000001696873b15610251578b998a966040519c8d9b8c9a8b99632d505c2160e21b8b5260048b0160a0905260a48b01906101e192610371565b90868a83030160248b01526101f592610371565b908488830301604489015261020992610371565b9185830301606486015261021c92610371565b90608483015203925af18015610246576102335750f35b61023c90610347565b6102435780f35b80fd5b6040513d84823e3d90fd5b8b80fd5b9a909b61026190610347565b998b90610186565b6040513d8e823e3d90fd5b8a80fd5b8780fd5b8680fd5b8480fd5b8280fd5b50346102435780600319360112610243576040517f00000000000000000000000000000000000000000000000000000000000000006001600160a01b03168152602090f35b9050346103105781600319360112610310577f00000000000000000000000000000000000000000000000000000000000000006001600160a01b03168152602090f35b5080fd5b9181601f840112156103425782359167ffffffffffffffff8311610342576020838186019501011161034257565b600080fd5b67ffffffffffffffff811161035b57604052565b634e487b7160e01b600052604160045260246000fd5b908060209392818452848401376000828201840152601f01601f191601019056fea164736f6c6343000814000a",
  "linkReferences": {},
  "deployedLinkReferences": {}
}