{
    "contractName": "MemeCoinFactory",
    "abi": [
        {
            "inputs": [
                {
                    "internalType": "uint16",
                    "name": "_platformFeeBP",
                    "type": "uint16"
                },
                {
                    "internalType": "uint16",
                    "name": "_referralFeeBP",
                    "type": "uint16"
                },
                {
                    "internalType": "address",
                    "name": "_v2Factory",
                    "type": "address"
                },
                {
                    "internalType": "address",
                    "name": "_router",
                    "type": "address"
                }
            ],
            "stateMutability": "nonpayable",
            "type": "constructor"
        },
        {
            "anonymous": false,
            "inputs": [
                {
                    "indexed": true,
                    "internalType": "address",
                    "name": "token",
                    "type": "address"
                },
                {
                    "indexed": true,
                    "internalType": "address",
                    "name": "buyer",
                    "type": "address"
                },
                {
                    "indexed": false,
                    "internalType": "uint256",
                    "name": "amount",
                    "type": "uint256"
                },
                {
                    "indexed": false,
                    "internalType": "uint256",
                    "name": "cost",
                    "type": "uint256"
                }
            ],
            "name": "Bought",
            "type": "event"
        },
        {
            "anonymous": false,
            "inputs": [
                {
                    "indexed": true,
                    "internalType": "address",
                    "name": "token",
                    "type": "address"
                },
                {
                    "indexed": false,
                    "internalType": "uint256",
                    "name": "nextPrice",
                    "type": "uint256"
                },
                {
                    "indexed": false,
                    "internalType": "uint256",
                    "name": "timestamp",
                    "type": "uint256"
                }
            ],
            "name": "NextPrice",
            "type": "event"
        },
        {
            "anonymous": false,
            "inputs": [
                {
                    "indexed": false,
                    "internalType": "address",
                    "name": "account",
                    "type": "address"
                }
            ],
            "name": "Paused",
            "type": "event"
        },
        {
            "anonymous": false,
            "inputs": [
                {
                    "indexed": true,
                    "internalType": "address",
                    "name": "token",
                    "type": "address"
                },
                {
                    "indexed": true,
                    "internalType": "address",
                    "name": "pair",
                    "type": "address"
                }
            ],
            "name": "PoolCreated",
            "type": "event"
        },
        {
            "anonymous": false,
            "inputs": [
                {
                    "indexed": true,
                    "internalType": "bytes32",
                    "name": "role",
                    "type": "bytes32"
                },
                {
                    "indexed": true,
                    "internalType": "bytes32",
                    "name": "previousAdminRole",
                    "type": "bytes32"
                },
                {
                    "indexed": true,
                    "internalType": "bytes32",
                    "name": "newAdminRole",
                    "type": "bytes32"
                }
            ],
            "name": "RoleAdminChanged",
            "type": "event"
        },
        {
            "anonymous": false,
            "inputs": [
                {
                    "indexed": true,
                    "internalType": "bytes32",
                    "name": "role",
                    "type": "bytes32"
                },
                {
                    "indexed": true,
                    "internalType": "address",
                    "name": "account",
                    "type": "address"
                },
                {
                    "indexed": true,
                    "internalType": "address",
                    "name": "sender",
                    "type": "address"
                }
            ],
            "name": "RoleGranted",
            "type": "event"
        },
        {
            "anonymous": false,
            "inputs": [
                {
                    "indexed": true,
                    "internalType": "bytes32",
                    "name": "role",
                    "type": "bytes32"
                },
                {
                    "indexed": true,
                    "internalType": "address",
                    "name": "account",
                    "type": "address"
                },
                {
                    "indexed": true,
                    "internalType": "address",
                    "name": "sender",
                    "type": "address"
                }
            ],
            "name": "RoleRevoked",
            "type": "event"
        },
        {
            "anonymous": false,
            "inputs": [
                {
                    "indexed": true,
                    "internalType": "address",
                    "name": "token",
                    "type": "address"
                },
                {
                    "indexed": true,
                    "internalType": "address",
                    "name": "seller",
                    "type": "address"
                },
                {
                    "indexed": false,
                    "internalType": "uint256",
                    "name": "amount",
                    "type": "uint256"
                },
                {
                    "indexed": false,
                    "internalType": "uint256",
                    "name": "refund",
                    "type": "uint256"
                }
            ],
            "name": "Sold",
            "type": "event"
        },
        {
            "anonymous": false,
            "inputs": [
                {
                    "indexed": true,
                    "internalType": "address",
                    "name": "token",
                    "type": "address"
                },
                {
                    "indexed": true,
                    "internalType": "address",
                    "name": "creator",
                    "type": "address"
                }
            ],
            "name": "TokenCreated",
            "type": "event"
        },
        {
            "anonymous": false,
            "inputs": [
                {
                    "indexed": false,
                    "internalType": "address",
                    "name": "account",
                    "type": "address"
                }
            ],
            "name": "Unpaused",
            "type": "event"
        },
        {
            "anonymous": false,
            "inputs": [
                {
                    "indexed": true,
                    "internalType": "address",
                    "name": "token",
                    "type": "address"
                },
                {
                    "indexed": false,
                    "internalType": "address",
                    "name": "vestingContract",
                    "type": "address"
                }
            ],
            "name": "VestingCreated",
            "type": "event"
        },
        {
            "stateMutability": "payable",
            "type": "fallback"
        },
        {
            "inputs": [],
            "name": "DEFAULT_ADMIN_ROLE",
            "outputs": [
                {
                    "internalType": "bytes32",
                    "name": "",
                    "type": "bytes32"
                }
            ],
            "stateMutability": "view",
            "type": "function"
        },
        {
            "inputs": [],
            "name": "OPERATOR_ROLE",
            "outputs": [
                {
                    "internalType": "bytes32",
                    "name": "",
                    "type": "bytes32"
                }
            ],
            "stateMutability": "view",
            "type": "function"
        },
        {
            "inputs": [],
            "name": "PAUSER_ROLE",
            "outputs": [
                {
                    "internalType": "bytes32",
                    "name": "",
                    "type": "bytes32"
                }
            ],
            "stateMutability": "view",
            "type": "function"
        },
        {
            "inputs": [],
            "name": "POOL_CREATION_FEE",
            "outputs": [
                {
                    "internalType": "uint256",
                    "name": "",
                    "type": "uint256"
                }
            ],
            "stateMutability": "view",
            "type": "function"
        },
        {
            "inputs": [],
            "name": "WETH",
            "outputs": [
                {
                    "internalType": "address",
                    "name": "",
                    "type": "address"
                }
            ],
            "stateMutability": "view",
            "type": "function"
        },
        {
            "inputs": [],
            "name": "airdropModule",
            "outputs": [
                {
                    "internalType": "contract AirdropMerkle",
                    "name": "",
                    "type": "address"
                }
            ],
            "stateMutability": "view",
            "type": "function"
        },
        {
            "inputs": [
                {
                    "internalType": "uint256",
                    "name": "",
                    "type": "uint256"
                }
            ],
            "name": "allTokens",
            "outputs": [
                {
                    "internalType": "address",
                    "name": "token",
                    "type": "address"
                },
                {
                    "internalType": "address",
                    "name": "creator",
                    "type": "address"
                },
                {
                    "internalType": "enum MemeCoinFactory.LaunchMode",
                    "name": "launchMode",
                    "type": "uint8"
                },
                {
                    "internalType": "uint256",
                    "name": "preMintCap",
                    "type": "uint256"
                },
                {
                    "internalType": "bool",
                    "name": "active",
                    "type": "bool"
                },
                {
                    "internalType": "uint256",
                    "name": "vaultEnd",
                    "type": "uint256"
                }
            ],
            "stateMutability": "view",
            "type": "function"
        },
        {
            "inputs": [
                {
                    "internalType": "address",
                    "name": "t",
                    "type": "address"
                },
                {
                    "internalType": "uint256",
                    "name": "a",
                    "type": "uint256"
                },
                {
                    "internalType": "uint256",
                    "name": "m",
                    "type": "uint256"
                },
                {
                    "internalType": "address",
                    "name": "r",
                    "type": "address"
                },
                {
                    "internalType": "bytes32[]",
                    "name": "p",
                    "type": "bytes32[]"
                }
            ],
            "name": "buyPresale",
            "outputs": [],
            "stateMutability": "payable",
            "type": "function"
        },
        {
            "inputs": [
                {
                    "internalType": "address",
                    "name": "token_",
                    "type": "address"
                },
                {
                    "internalType": "uint256",
                    "name": "amountAtomic",
                    "type": "uint256"
                },
                {
                    "internalType": "address",
                    "name": "referrer",
                    "type": "address"
                }
            ],
            "name": "buyToken",
            "outputs": [],
            "stateMutability": "payable",
            "type": "function"
        },
        {
            "inputs": [
                {
                    "internalType": "uint256",
                    "name": "a",
                    "type": "uint256"
                },
                {
                    "internalType": "bytes32[]",
                    "name": "p",
                    "type": "bytes32[]"
                }
            ],
            "name": "claimAirdrop",
            "outputs": [],
            "stateMutability": "nonpayable",
            "type": "function"
        },
        {
            "inputs": [],
            "name": "claimStakeReward",
            "outputs": [],
            "stateMutability": "nonpayable",
            "type": "function"
        },
        {
            "inputs": [
                {
                    "internalType": "address",
                    "name": "token_",
                    "type": "address"
                }
            ],
            "name": "claimVault",
            "outputs": [],
            "stateMutability": "nonpayable",
            "type": "function"
        },
        {
            "inputs": [
                {
                    "internalType": "address",
                    "name": "token_",
                    "type": "address"
                },
                {
                    "internalType": "uint256",
                    "name": "amountAtomic",
                    "type": "uint256"
                }
            ],
            "name": "costToBuy",
            "outputs": [
                {
                    "internalType": "uint256",
                    "name": "",
                    "type": "uint256"
                }
            ],
            "stateMutability": "view",
            "type": "function"
        },
        {
            "inputs": [
                {
                    "internalType": "string",
                    "name": "name_",
                    "type": "string"
                },
                {
                    "internalType": "string",
                    "name": "symbol_",
                    "type": "string"
                },
                {
                    "internalType": "enum MemeCoinFactory.LaunchMode",
                    "name": "launchMode_",
                    "type": "uint8"
                },
                {
                    "internalType": "uint256",
                    "name": "preMintCap_",
                    "type": "uint256"
                },
                {
                    "internalType": "enum MemeCoinFactory.CurveType",
                    "name": "curveType_",
                    "type": "uint8"
                },
                {
                    "internalType": "uint256",
                    "name": "basePrice_",
                    "type": "uint256"
                },
                {
                    "internalType": "uint256",
                    "name": "slope_",
                    "type": "uint256"
                },
                {
                    "internalType": "uint256",
                    "name": "exponent_",
                    "type": "uint256"
                },
                {
                    "internalType": "uint256",
                    "name": "stepSize_",
                    "type": "uint256"
                },
                {
                    "internalType": "uint256",
                    "name": "fundingGoal_",
                    "type": "uint256"
                },
                {
                    "internalType": "uint16",
                    "name": "startFeeBP_",
                    "type": "uint16"
                },
                {
                    "internalType": "uint16",
                    "name": "endFeeBP_",
                    "type": "uint16"
                },
                {
                    "internalType": "uint256",
                    "name": "feeChangeStart_",
                    "type": "uint256"
                },
                {
                    "internalType": "uint256",
                    "name": "feeChangeEnd_",
                    "type": "uint256"
                },
                {
                    "internalType": "uint256",
                    "name": "vaultEnd_",
                    "type": "uint256"
                },
                {
                    "internalType": "uint256",
                    "name": "vestAmount_",
                    "type": "uint256"
                },
                {
                    "internalType": "uint256",
                    "name": "vestStart_",
                    "type": "uint256"
                },
                {
                    "internalType": "uint256",
                    "name": "vestDuration_",
                    "type": "uint256"
                },
                {
                    "internalType": "uint256",
                    "name": "totalSupply_",
                    "type": "uint256"
                },
                {
                    "internalType": "string",
                    "name": "ipfsHash_",
                    "type": "string"
                }
            ],
            "name": "createMemeCoin",
            "outputs": [
                {
                    "internalType": "address",
                    "name": "tokenAddr",
                    "type": "address"
                }
            ],
            "stateMutability": "nonpayable",
            "type": "function"
        },
        {
            "inputs": [
                {
                    "internalType": "address",
                    "name": "a",
                    "type": "address"
                },
                {
                    "internalType": "address",
                    "name": "b",
                    "type": "address"
                }
            ],
            "name": "createV2Pool",
            "outputs": [
                {
                    "internalType": "address",
                    "name": "pair",
                    "type": "address"
                }
            ],
            "stateMutability": "payable",
            "type": "function"
        },
        {
            "inputs": [
                {
                    "internalType": "address",
                    "name": "",
                    "type": "address"
                }
            ],
            "name": "creatorFeesAccrued",
            "outputs": [
                {
                    "internalType": "uint256",
                    "name": "",
                    "type": "uint256"
                }
            ],
            "stateMutability": "view",
            "type": "function"
        },
        {
            "inputs": [
                {
                    "internalType": "address",
                    "name": "token_",
                    "type": "address"
                }
            ],
            "name": "currentPrice",
            "outputs": [
                {
                    "internalType": "uint256",
                    "name": "",
                    "type": "uint256"
                }
            ],
            "stateMutability": "view",
            "type": "function"
        },
        {
            "inputs": [
                {
                    "internalType": "address",
                    "name": "",
                    "type": "address"
                }
            ],
            "name": "curves",
            "outputs": [
                {
                    "internalType": "enum MemeCoinFactory.CurveType",
                    "name": "curveType",
                    "type": "uint8"
                },
                {
                    "internalType": "uint256",
                    "name": "basePrice",
                    "type": "uint256"
                },
                {
                    "internalType": "uint256",
                    "name": "slope",
                    "type": "uint256"
                },
                {
                    "internalType": "uint256",
                    "name": "exponent",
                    "type": "uint256"
                },
                {
                    "internalType": "uint256",
                    "name": "stepSize",
                    "type": "uint256"
                },
                {
                    "internalType": "uint256",
                    "name": "totalSold",
                    "type": "uint256"
                },
                {
                    "internalType": "uint256",
                    "name": "fundingGoal",
                    "type": "uint256"
                },
                {
                    "internalType": "bool",
                    "name": "poolCreated",
                    "type": "bool"
                },
                {
                    "internalType": "uint16",
                    "name": "startFeeBP",
                    "type": "uint16"
                },
                {
                    "internalType": "uint16",
                    "name": "endFeeBP",
                    "type": "uint16"
                },
                {
                    "internalType": "uint256",
                    "name": "feeChangeStart",
                    "type": "uint256"
                },
                {
                    "internalType": "uint256",
                    "name": "feeChangeEnd",
                    "type": "uint256"
                }
            ],
            "stateMutability": "view",
            "type": "function"
        },
        {
            "inputs": [
                {
                    "internalType": "address",
                    "name": "token_",
                    "type": "address"
                }
            ],
            "name": "depositVault",
            "outputs": [],
            "stateMutability": "payable",
            "type": "function"
        },
        {
            "inputs": [
                {
                    "internalType": "bytes32",
                    "name": "role",
                    "type": "bytes32"
                }
            ],
            "name": "getRoleAdmin",
            "outputs": [
                {
                    "internalType": "bytes32",
                    "name": "",
                    "type": "bytes32"
                }
            ],
            "stateMutability": "view",
            "type": "function"
        },
        {
            "inputs": [
                {
                    "internalType": "bytes32",
                    "name": "role",
                    "type": "bytes32"
                },
                {
                    "internalType": "address",
                    "name": "account",
                    "type": "address"
                }
            ],
            "name": "grantRole",
            "outputs": [],
            "stateMutability": "nonpayable",
            "type": "function"
        },
        {
            "inputs": [
                {
                    "internalType": "bytes32",
                    "name": "role",
                    "type": "bytes32"
                },
                {
                    "internalType": "address",
                    "name": "account",
                    "type": "address"
                }
            ],
            "name": "hasRole",
            "outputs": [
                {
                    "internalType": "bool",
                    "name": "",
                    "type": "bool"
                }
            ],
            "stateMutability": "view",
            "type": "function"
        },
        {
            "inputs": [],
            "name": "pause",
            "outputs": [],
            "stateMutability": "nonpayable",
            "type": "function"
        },
        {
            "inputs": [],
            "name": "paused",
            "outputs": [
                {
                    "internalType": "bool",
                    "name": "",
                    "type": "bool"
                }
            ],
            "stateMutability": "view",
            "type": "function"
        },
        {
            "inputs": [],
            "name": "platformFeeBP",
            "outputs": [
                {
                    "internalType": "uint16",
                    "name": "",
                    "type": "uint16"
                }
            ],
            "stateMutability": "view",
            "type": "function"
        },
        {
            "inputs": [],
            "name": "platformFeesAccrued",
            "outputs": [
                {
                    "internalType": "uint256",
                    "name": "",
                    "type": "uint256"
                }
            ],
            "stateMutability": "view",
            "type": "function"
        },
        {
            "inputs": [],
            "name": "referralFeeBP",
            "outputs": [
                {
                    "internalType": "uint16",
                    "name": "",
                    "type": "uint16"
                }
            ],
            "stateMutability": "view",
            "type": "function"
        },
        {
            "inputs": [
                {
                    "internalType": "address",
                    "name": "token_",
                    "type": "address"
                }
            ],
            "name": "releaseVault",
            "outputs": [],
            "stateMutability": "nonpayable",
            "type": "function"
        },
        {
            "inputs": [
                {
                    "internalType": "bytes32",
                    "name": "role",
                    "type": "bytes32"
                },
                {
                    "internalType": "address",
                    "name": "account",
                    "type": "address"
                }
            ],
            "name": "renounceRole",
            "outputs": [],
            "stateMutability": "nonpayable",
            "type": "function"
        },
        {
            "inputs": [
                {
                    "internalType": "bytes32",
                    "name": "role",
                    "type": "bytes32"
                },
                {
                    "internalType": "address",
                    "name": "account",
                    "type": "address"
                }
            ],
            "name": "revokeRole",
            "outputs": [],
            "stateMutability": "nonpayable",
            "type": "function"
        },
        {
            "inputs": [],
            "name": "router",
            "outputs": [
                {
                    "internalType": "contract IUniswapV2Router02",
                    "name": "",
                    "type": "address"
                }
            ],
            "stateMutability": "view",
            "type": "function"
        },
        {
            "inputs": [
                {
                    "internalType": "address",
                    "name": "token_",
                    "type": "address"
                },
                {
                    "internalType": "uint256",
                    "name": "amountAtomic",
                    "type": "uint256"
                }
            ],
            "name": "sellToken",
            "outputs": [],
            "stateMutability": "nonpayable",
            "type": "function"
        },
        {
            "inputs": [
                {
                    "internalType": "address",
                    "name": "a",
                    "type": "address"
                }
            ],
            "name": "setAirdropModule",
            "outputs": [],
            "stateMutability": "nonpayable",
            "type": "function"
        },
        {
            "inputs": [
                {
                    "internalType": "address",
                    "name": "a",
                    "type": "address"
                }
            ],
            "name": "setStakingModule",
            "outputs": [],
            "stateMutability": "nonpayable",
            "type": "function"
        },
        {
            "inputs": [
                {
                    "internalType": "address",
                    "name": "a",
                    "type": "address"
                }
            ],
            "name": "setWhitelistModule",
            "outputs": [],
            "stateMutability": "nonpayable",
            "type": "function"
        },
        {
            "inputs": [
                {
                    "internalType": "uint256",
                    "name": "amt",
                    "type": "uint256"
                }
            ],
            "name": "stakeTokens",
            "outputs": [],
            "stateMutability": "nonpayable",
            "type": "function"
        },
        {
            "inputs": [],
            "name": "stakingModule",
            "outputs": [
                {
                    "internalType": "contract StakingRewards",
                    "name": "",
                    "type": "address"
                }
            ],
            "stateMutability": "view",
            "type": "function"
        },
        {
            "inputs": [
                {
                    "internalType": "bytes4",
                    "name": "interfaceId",
                    "type": "bytes4"
                }
            ],
            "name": "supportsInterface",
            "outputs": [
                {
                    "internalType": "bool",
                    "name": "",
                    "type": "bool"
                }
            ],
            "stateMutability": "view",
            "type": "function"
        },
        {
            "inputs": [
                {
                    "internalType": "address",
                    "name": "",
                    "type": "address"
                }
            ],
            "name": "tokenIndexPlusOne",
            "outputs": [
                {
                    "internalType": "uint256",
                    "name": "",
                    "type": "uint256"
                }
            ],
            "stateMutability": "view",
            "type": "function"
        },
        {
            "inputs": [],
            "name": "unpause",
            "outputs": [],
            "stateMutability": "nonpayable",
            "type": "function"
        },
        {
            "inputs": [],
            "name": "v2Factory",
            "outputs": [
                {
                    "internalType": "contract IUniswapV2Factory",
                    "name": "",
                    "type": "address"
                }
            ],
            "stateMutability": "view",
            "type": "function"
        },
        {
            "inputs": [
                {
                    "internalType": "address",
                    "name": "",
                    "type": "address"
                },
                {
                    "internalType": "address",
                    "name": "",
                    "type": "address"
                }
            ],
            "name": "vaultDeposits",
            "outputs": [
                {
                    "internalType": "uint256",
                    "name": "",
                    "type": "uint256"
                }
            ],
            "stateMutability": "view",
            "type": "function"
        },
        {
            "inputs": [
                {
                    "internalType": "address",
                    "name": "",
                    "type": "address"
                }
            ],
            "name": "vaultReleased",
            "outputs": [
                {
                    "internalType": "bool",
                    "name": "",
                    "type": "bool"
                }
            ],
            "stateMutability": "view",
            "type": "function"
        },
        {
            "inputs": [
                {
                    "internalType": "address",
                    "name": "",
                    "type": "address"
                }
            ],
            "name": "vaultTotal",
            "outputs": [
                {
                    "internalType": "uint256",
                    "name": "",
                    "type": "uint256"
                }
            ],
            "stateMutability": "view",
            "type": "function"
        },
        {
            "inputs": [],
            "name": "whitelistModule",
            "outputs": [
                {
                    "internalType": "contract WhitelistPresale",
                    "name": "",
                    "type": "address"
                }
            ],
            "stateMutability": "view",
            "type": "function"
        },
        {
            "inputs": [
                {
                    "internalType": "uint256",
                    "name": "amt",
                    "type": "uint256"
                }
            ],
            "name": "withdrawStake",
            "outputs": [],
            "stateMutability": "nonpayable",
            "type": "function"
        },
        {
            "stateMutability": "payable",
            "type": "receive"
        }
    ],
    "bytecode": "608080604052346102c6576080816160a0803803809161001f8285610324565b8339810103126102c6576100328161035b565b9061003f6020820161035b565b9161ffff61005b60606100546040860161036a565b940161036a565b9160ff19600154166001556001600255169161ffff8416830161ffff81116103105761ffff612710911610156102dd5760049360209363ffff00006003549260101b169163ffffffff1916171760035560018060a01b031660018060a01b0319600654161760065560018060a01b03168060018060a01b03196007541617600755604051928380926315ab88c960e31b82525afa9081156102d2575f91610294575b50600880546001600160a01b0319166001600160a01b0392909216919091179055335f9081525f5160206160805f395f51905f52602052604090205460ff1615610257575b335f9081525f5160206160405f395f51905f52602052604090205460ff16156101f8575b335f9081525f5160206160605f395f51905f52602052604090205460ff1615610199575b604051615ca1908161037f8239f35b335f8181525f5160206160605f395f51905f5260205260408120805460ff1916600117905581907f97667070c54ef182b0f5858b034beac1b6f3089aa2d3188bb1e8929f4fa9b929905f5160206160205f395f51905f529080a461018a565b335f8181525f5160206160405f395f51905f5260205260408120805460ff1916600117905581907f65d7a28e3265b37a6474929f336521b332c1681b933f6cb9f3376673440d862a905f5160206160205f395f51905f529080a4610166565b335f8181525f5160206160805f395f51905f5260205260408120805460ff1916600117905581905f5160206160205f395f51905f528180a4610142565b90506020813d6020116102ca575b816102af60209383610324565b810103126102c6576102c09061036a565b5f6100fd565b5f80fd5b3d91506102a2565b6040513d5f823e3d90fd5b60405162461bcd60e51b815260206004820152600b60248201526a08ccacae6a8dede90d2ced60ab1b6044820152606490fd5b634e487b7160e01b5f52601160045260245ffd5b601f909101601f19168101906001600160401b0382119082101761034757604052565b634e487b7160e01b5f52604160045260245ffd5b519061ffff821682036102c657565b51906001600160a01b03821682036102c65756fe608080604052600436101561001c575b50361561001a575f80fd5b005b5f905f3560e01c90816301ffc9a714611ef6575080630bcae1ac14611e5157806322163b8614611e33578063248a9ca314611e0857806324bf2f1e14611d4557806325d5971f14611cf15780632cc3dc6e14611c0c5780632f2ff15d14611b4e57806335a62e6814611b1557806336568abe14611a825780633f4ba83a146119ed57806349933e1314611513578063504b82bf146114ea57806352ce0fb0146114ab5780635c975abb146114885780635e81e3641461144f5780635f6501ab146113fc578063634282af14611357578063692bf4a814610d675780637547c7a314610ca8578063768c044214610c7f5780637b573c5414610c5d57806383f26f3814610c1d5780638456cb5914610bc35780638943b28e14610b9b5780638fea31b014610b7257806391d1485414610b295780639fd3af8b14610adb578063a0429de614610a9b578063a217fddf14610a7f578063ad5c464814610a56578063b4b57c3914610a2d578063c4f3e9d714610875578063c60b494f14610835578063c748713e146107fc578063cd30f03814610788578063d547741f14610742578063d9d0a5be1461065a578063dc4ec9be14610635578063e5a8a123146104ae578063e63ab1e914610473578063e9833c2f14610447578063f464e7db146102a6578063f5b541a61461026b578063f887ea40146102425763ff96092a0361000f573461023f578060031936011261023f57602061ffff60035416604051908152f35b80fd5b503461023f578060031936011261023f576007546040516001600160a01b039091168152602090f35b503461023f578060031936011261023f5760206040517f97667070c54ef182b0f5858b034beac1b6f3089aa2d3188bb1e8929f4fa9b9298152f35b503461023f57604036600319011261023f576102c0611f79565b602435906102cc612693565b6102d46126d7565b6001600160a01b038116808452600b6020526040842060058101805492949291670de0b6b3a7640000840480841061040f5761031381610319936127f9565b9361205b565b90556103278230338761276e565b8480828015610405575b8280929181923390f1156103fa577ffbcd82ed9d16e1204c8698f6c31409250e7a91d35f141fe4ab721148052f70f0926040926103e6928451828152816020820152877f16dd16959a056953a63cf14bf427881e762e54f03d86b864efea8238dd3b822f873393a38686866103a5866123b7565b8151908152426020820152a284519182526020820152857f16dd16959a056953a63cf14bf427881e762e54f03d86b864efea8238dd3b822f853393a36123b7565b8151908152426020820152a2600160025580f35b6040513d86823e3d90fd5b6108fc9150610331565b60405162461bcd60e51b815260206004820152601060248201526f125b9cdd59999a58da595b9d14dbdb1960821b6044820152606490fd5b503461023f57602036600319011261023f57602061046b610466611f79565b6123b7565b604051908152f35b503461023f578060031936011261023f5760206040517f65d7a28e3265b37a6474929f336521b332c1681b933f6cb9f3376673440d862a8152f35b503461023f57602036600319011261023f576104c8611f79565b6104d06126d7565b6001600160a01b0316808252600e602052604082205460ff161561060257808252600c60209081526040808420335f908152925290205480156105d157818352600c6020526040832060018060a01b0333165f526020528260405f2055818352600a60205260408320545f1981019081116105bd579061056e600261055761057394611fd2565b50015491848652600d602052604086205492612101565b6120e3565b90670de0b6b3a7640000820291808304670de0b6b3a764000014901517156105a957906105a191339061272b565b600160025580f35b634e487b7160e01b83526011600452602483fd5b634e487b7160e01b84526011600452602484fd5b60405162461bcd60e51b8152602060048201526009602482015268139bd1195c1bdcda5d60ba1b6044820152606490fd5b60405162461bcd60e51b815260206004820152600b60248201526a139bdd14995b19585cd95960aa1b6044820152606490fd5b503461023f578060031936011261023f57602061ffff60035460101c16604051908152f35b5060a036600319011261023f5780610670611f79565b6064356001600160a01b038116919082900361073e576084356001600160401b03811161073c576106a5903690600401611f49565b600f54919390916001600160a01b031690813b1561073857859361070960405196879586948594636ce852df60e11b865260018060a01b0316600486015260243560248601526044356044860152606485015260a0608485015260a4840191612037565b039134905af1801561072d5761071c5750f35b8161072691612002565b61023f5780f35b6040513d84823e3d90fd5b8580fd5b505b5050fd5b503461023f57604036600319011261023f57610785600435610762611f8f565b9061078061077b825f525f602052600160405f20015490565b6125d1565b612613565b80f35b503461023f57602036600319011261023f576107a2611f79565b6107aa612503565b6001600160a01b0316808252600a60205260408220545f1981019081116105a95760046107d96107e392611fd2565b50015442116120a9565b8152600e60205260408120805460ff1916600117905580f35b503461023f57602036600319011261023f576020906040906001600160a01b03610824611f79565b168152600583522054604051908152f35b503461023f57602036600319011261023f5761084f611f79565b61085761257a565b60018060a01b03166001600160601b0360a01b601054161760105580f35b50604036600319011261023f5761088a611f79565b90610893611f8f565b9161089c612503565b66071afd498d000034036109fd576001600160a01b03818116919084168210156109f857925b60065460405163e6a4390560e01b81526001600160a01b038681166004830152838116602483015290929116602083604481845afa9283156109ed5785936109cc575b506001600160a01b03831615610951575b50506020935060018060a01b031680917f4f2ce4e40f623ca765fc0167a25cb7842ceaafb8d82d3dec26ca0d0e0d2d48966040519480a38152f35b6040516364e329cb60e11b81526001600160a01b03968716600482015291909516602482015293602091508490604490829086905af1801561072d57602093839161099f575b505f80610916565b6109bf9150843d86116109c5575b6109b78183612002565b810190612114565b5f610997565b503d6109ad565b6109e691935060203d6020116109c5576109b78183612002565b915f610905565b6040513d87823e3d90fd5b6108c2565b60405162461bcd60e51b815260206004820152600860248201526757726f6e6746656560c01b6044820152606490fd5b503461023f578060031936011261023f576006546040516001600160a01b039091168152602090f35b503461023f578060031936011261023f576008546040516001600160a01b039091168152602090f35b503461023f578060031936011261023f57602090604051908152f35b503461023f57602036600319011261023f57610ab5611f79565b610abd61257a565b60018060a01b03166001600160601b0360a01b601154161760115580f35b503461023f578060031936011261023f5760105481906001600160a01b0316803b15610b2657818091600460405180948193631e8c5c8960e11b83525af1801561072d5761071c5750f35b50fd5b503461023f57604036600319011261023f576040610b45611f8f565b91600435815280602052209060018060a01b03165f52602052602060ff60405f2054166040519015158152f35b503461023f578060031936011261023f57600f546040516001600160a01b039091168152602090f35b503461023f57604036600319011261023f57602061046b610bba611f79565b6024359061214b565b503461023f578060031936011261023f57610bdc6123fe565b610be4612693565b600160ff19815416176001557f62e78cea01bee320cd4e420270b5ea74000d11b0c9f74754ebdbfc544b05a2586020604051338152a180f35b503461023f57602036600319011261023f57610c37611f79565b610c3f61257a565b60018060a01b03166001600160601b0360a01b600f541617600f5580f35b503461023f578060031936011261023f57602060405166071afd498d00008152f35b503461023f578060031936011261023f576011546040516001600160a01b039091168152602090f35b503461023f57602036600319011261023f57600435610cc5612693565b60095415610d5357600982527f6e1540171b6c0c960b71a7020d9f60077f6af931a8bbf590da0223dacf75c7af54601054839291610d139183916001600160a01b039182169133911661276e565b6010546001600160a01b031690813b1561073e57829160248392604051948593849263534a7e1d60e11b845260048401525af1801561072d5761071c5750f35b634e487b7160e01b82526032600452602482fd5b50606036600319011261023f57610d7c611f79565b602435906044356001600160a01b0381169081900361110157610d9d612693565b610da56126d7565b6001600160a01b038216808552600a60205260408520549093905f19810190811161134357610dd390611fd2565b50848652600b60205260408620610def600483015442116120a9565b610df9838661214b565b9384341061130c5787610e0c863461205b565b80159081156112db575b505050670de0b6b3a764000084049260ff600182015460a01c1660028110156112c757600114611272575b50610e516005830193845461207c565b8355868852600b602052612710610e7761ffff610e7060408c206129b0565b1687612101565b0490806112555788915b610ea0610e9784610e92848b61205b565b61205b565b9160045461207c565b600455888a52600a60205260408a20545f1981019081116112415790610ec88b949392611fd2565b50600101546001600160a01b0316845260056020526040842080549091610eee9161207c565b90558115801561121c575b50505050610f0883338861272b565b604051838152846020820152867fbf77fd13a39d14dc0da779342c14105c38d9a5d0c60f2caa22f5fd1d5525416d60403393a3857ffbcd82ed9d16e1204c8698f6c31409250e7a91d35f141fe4ab721148052f70f06040610f68886123b7565b8151908152426020820152a2600781019182549160ff83161591826111e0575b5050610f98575b86600160025580f35b60ff1916600117905560065460085460405163e6a4390560e01b81526001600160a01b03868116600483015291821660248201819052909590929091169060208680604481010381855afa9586156111d55788966111b4575b506001600160a01b03861615611144575b505060075460405163095ea7b360e01b81526001600160a01b0390911660048201526024810183905291905060208280604481015b038189895af19182156111395760609261110c575b5060c460018060a01b036007541691604051948593849263f305d71960e01b845289600485015260248401528960448401528960648401523060848401524260a48401525af190816110dd575b506110a8575b80808080610f8f565b6001600160a01b0316907f4f2ce4e40f623ca765fc0167a25cb7842ceaafb8d82d3dec26ca0d0e0d2d48968380a35f8061109f565b606090813d8311611105575b6110f38183612002565b81010312611101575f611099565b8380fd5b503d6110e9565b61112d9060203d602011611132575b6111258183612002565b810190612133565b61104c565b503d61111b565b6040513d88823e3d90fd5b6040516364e329cb60e11b81526001600160a01b03918216600482015292166024830152919350906020908290604490829089905af180156109ed57611037918691611195575b5092905f80611002565b6111ae915060203d6020116109c5576109b78183612002565b5f61118b565b6111ce91965060203d6020116109c5576109b78183612002565b945f610ff1565b6040513d8a823e3d90fd5b54670de0b6b3a764000080820293508115918404141715611208576006015411155f80610f88565b634e487b7160e01b89526011600452602489fd5b8392839283928390611238575bf11561113957865f8080610ef9565b506108fc611229565b634e487b7160e01b8b52601160045260248bfd5b61271061126b61ffff60035460101c1688612101565b0491610e81565b600261128285600586015461207c565b91015410611290575f610e41565b60405162461bcd60e51b815260206004820152600f60248201526e149d5cda10d85c115e18d959591959608a1b6044820152606490fd5b634e487b7160e01b8a52602160045260248afd5b8280929181928290611303575b3390f1156112f857875f80610e16565b6040513d89823e3d90fd5b506108fc6112e8565b60405162461bcd60e51b815260206004820152600f60248201526e092dce6eaccccd2c6d2cadce88aa89608b1b6044820152606490fd5b634e487b7160e01b86526011600452602486fd5b503461023f57602036600319011261023f576004356009548110156113f85761137f90611fd2565b5060018060a01b038154169060018101549060ff8260a01c16600282015490600460ff6003850154169301549360405195865260018060a01b0316602086015260028110156113e45760c09550604085015260608401521515608083015260a0820152f35b634e487b7160e01b86526021600452602486fd5b5080fd5b503461023f57604036600319011261023f576040611418611f79565b91611421611f8f565b9260018060a01b03168152600c602052209060018060a01b03165f52602052602060405f2054604051908152f35b503461023f57602036600319011261023f576020906040906001600160a01b03611477611f79565b168152600d83522054604051908152f35b503461023f578060031936011261023f57602060ff600154166040519015158152f35b503461023f57602036600319011261023f5760209060ff906040906001600160a01b036114d6611f79565b168152600e84522054166040519015158152f35b503461023f578060031936011261023f576010546040516001600160a01b039091168152602090f35b503461023f5761028036600319011261023f576004356001600160401b0381116113f857611545903690600401611fa5565b91906024356001600160401b0381116119e957611566903690600401611fa5565b6044949194359260028410156119e55760843592600484101561073857610144359661ffff88168098036119e157610164359361ffff85168095036119dd57610264356001600160401b0381116119d9576115c5903690600401611fa5565b9290916115d0612693565b6115d86126d7565b6115e0612503565b60405195611d1095868801968888106001600160401b038911176119c557926116236116319361164e9896938b9a989661384f8c3960a0895260a0890191612089565b918683036020880152612089565b926102443560408201523060608201526080818503910152612089565b039085f080156103fa5760018060a01b03169260405161070d808201908282106001600160401b038311176119b157608091839161555f833987815233602082015261020435604082015261022435606082015203019086f080156109ed5784907f2ee44d821b06c9aa990927d787f4adf9d8d3eb9bf798ef5c80415cd7a3965602906020906001600160a01b03166116eb6101e435828661272b565b604051908152a26040519060c082018281106001600160401b0382111761199d57604052848252602082013381526040830191825260608301606435815260808401916001835260a08501936101c435855260095468010000000000000000811015611989578060016117619201600955611fd2565b969096611975575186546001600160a01b03199081166001600160a01b03928316178855925160018801805490941691161782555160028110156112c757815460ff60a01b191660a09190911b60ff60a01b161790555160028401555160038301805491151560ff1660ff199290921691909117905560049051910155600954838552600a60205260408520556040519161018083018381106001600160401b03821117611961576040528252602082019460a4358652604083019160c4358352606084019160e43583526080850161010435815260a0860188815260c087019161012435835260e08801958a8752610100890194855261012089019586526101408901976101843589526101608a019c8d6101a43590528b8d52600b60205260408d209a51600481101561194d578b5460ff1990811660ff928316178d55915160018d0155915160028c0155915160038b0155915160048a015591516005890155915160068801559351600787018054909516901515909116178355602097600994909390929091519062ffff0064ffff0000008454925160181b169260081b169064ffffffff001916171790555160088401555191015560405191817fd5f9bdf12adf29dab0248c349842c3822d53ae2bb4f36352f301630d018c8139339280a360016002558152f35b634e487b7160e01b8e52602160045260248efd5b634e487b7160e01b86526041600452602486fd5b634e487b7160e01b8b5260048b905260248bfd5b634e487b7160e01b8b52604160045260248bfd5b634e487b7160e01b87526041600452602487fd5b634e487b7160e01b88526041600452602488fd5b634e487b7160e01b8d52604160045260248dfd5b8880fd5b8780fd5b8680fd5b8480fd5b8280fd5b503461023f578060031936011261023f57611a066123fe565b60015460ff811615611a465760ff19166001557f5db9ee0a495bf2e6ff9c91a7834c1ba4fdd244a5e8aa4e537bd38aeae4b073aa6020604051338152a180f35b60405162461bcd60e51b815260206004820152601460248201527314185d5cd8589b194e881b9bdd081c185d5cd95960621b6044820152606490fd5b503461023f57604036600319011261023f57611a9c611f8f565b336001600160a01b03821603611ab85761078590600435612613565b60405162461bcd60e51b815260206004820152602f60248201527f416363657373436f6e74726f6c3a2063616e206f6e6c792072656e6f756e636560448201526e103937b632b9903337b91039b2b63360891b6064820152608490fd5b503461023f57602036600319011261023f576020906040906001600160a01b03611b3d611f79565b168152600a83522054604051908152f35b503461023f57604036600319011261023f57600435611b6b611f8f565b90611b8461077b825f525f602052600160405f20015490565b808352602083815260408085206001600160a01b0385165f908152925290205460ff1615611bb0578280f35b808352602083815260408085206001600160a01b03949094165f81815294909252909220805460ff191660011790553391907f2f8788117e7eff1d82e926ec794901d17c78024a50270940304540a733656f0d8480a45f808280f35b503461023f57602036600319011261023f576001600160a01b03611c2e611f79565b168152600b602052604081209060ff8254166001830154926002810154600382015460048301546005840154916006850154936007860154986009600888015497015497604051996004821015611cdd5750916101809a95939161ffff9795938b5260208b015260408a01526060890152608088015260a087015260c086015260ff8116151560e0860152818160081c1661010086015260181c16610120840152610140830152610160820152f35b634e487b7160e01b81526021600452602490fd5b503461023f57602036600319011261023f5760105481906001600160a01b0316803b15610b2657818091602460405180948193632e1a7d4d60e01b835260043560048401525af1801561072d5761071c5750f35b50602036600319011261023f576001600160a01b03611d62611f79565b16808252600a60205260408220545f1981019081116105a957611d86600491611fd2565b5001544211611dd557808252600c6020526040822060018060a01b0333165f5260205260405f20611db834825461207c565b90558152600d60205260408120611dd034825461207c565b905580f35b60405162461bcd60e51b815260206004820152600b60248201526a15985d5b1d10db1bdcd95960aa1b6044820152606490fd5b503461023f57602036600319011261023f57602061046b6004355f525f602052600160405f20015490565b503461023f578060031936011261023f576020600454604051908152f35b5034611ef2576040366003190112611ef2576024356001600160401b038111611ef257611e82903690600401611f49565b6011546001600160a01b031691823b15611ef257611ec9925f9283604051809681958294632f52ebb760e01b84526004356004850152604060248501526044840191612037565b03925af18015611ee757611edb575080f35b61001a91505f90612002565b6040513d5f823e3d90fd5b5f80fd5b34611ef2576020366003190112611ef2576004359063ffffffff60e01b8216809203611ef257602091637965db0b60e01b8114908115611f38575b5015158152f35b6301ffc9a760e01b14905083611f31565b9181601f84011215611ef2578235916001600160401b038311611ef2576020808501948460051b010111611ef257565b600435906001600160a01b0382168203611ef257565b602435906001600160a01b0382168203611ef257565b9181601f84011215611ef2578235916001600160401b038311611ef25760208381860195010111611ef257565b600954811015611fee5760095f52600560205f20910201905f90565b634e487b7160e01b5f52603260045260245ffd5b90601f801991011681019081106001600160401b0382111761202357604052565b634e487b7160e01b5f52604160045260245ffd5b81835290916001600160fb1b038311611ef25760209260051b809284830137010190565b9190820391821161206857565b634e487b7160e01b5f52601160045260245ffd5b9190820180921161206857565b908060209392818452848401375f828201840152601f01601f1916010190565b156120b057565b60405162461bcd60e51b815260206004820152600b60248201526a5661756c7441637469766560a81b6044820152606490fd5b81156120ed570490565b634e487b7160e01b5f52601260045260245ffd5b8181029291811591840414171561206857565b90816020910312611ef257516001600160a01b0381168103611ef25790565b90816020910312611ef257518015158103611ef25790565b6001600160a01b0381165f908152600b602052604090208054670de0b6b3a76400009093049260ff1660048110156121ed5715612199575090612190612196926123b7565b90612101565b90565b90506005810154916121be8160026121b5600186015483612101565b94015494612101565b925f19820182811161206857612196946121de612190926121e795612101565b60011c9061207c565b9061207c565b634e487b7160e01b5f52602160045260245ffd5b90801561229d57811561229757818060011461228f5760021461227e5760208110610133831016604e8210600b84101617612279576001905b600181116122515750815f19048111612068570290565b91805f190481116120685760018316612270575b80029160011c61223a565b80910290612265565b900a90565b905060ff8111612068576001901b90565b505050600190565b50505f90565b5050600190565b5f8052600b6020527fdf7de25b7f1fd6d0b5205f0e18f1f35bd7b8d84cce336588d184533ce43a6f76805460ff1660048110156121ed57806122fe5750806121e76001612196930154916005600282015491015490612101565b6001810361235f575061231a6002820154600583015490612101565b90677fffffffffffffff8211611ef257600161233e9101549160401b600f0b6127b2565b600f0b905f8212611ef2576001600160401b036121969260401d1690612101565b60020361238c57806121e76001612196930154916121906002820154916003600582015491015490612201565b806121e760016121969301549160026123ae60058301546004840154906120e3565b91015490612101565b6001600160a01b03165f908152600b60205260409020805460ff1660048110156121ed57806122fe5750806121e76001612196930154916005600282015491015490612101565b335f9081527ff7c9542c591017a21c74b6f3fab6263c7952fc0aaf9db4c22a2a04ddc7f8674f602052604090205460ff161561243657565b6124ff60206124e7601161244933613635565b6037846124757f65d7a28e3265b37a6474929f336521b332c1681b933f6cb9f3376673440d862a61371b565b6040519687947f416363657373436f6e74726f6c3a206163636f756e7420000000000000000000828701528051918291018587015e8401907001034b99036b4b9b9b4b733903937b6329607d1b84830152805192839101604883015e01015f838201520301601f198101835282612002565b60405162461bcd60e51b81529182916004830161285c565b0390fd5b335f9081527fee57cd81e84075558e8fcc182a1f4393f91fc97f963a136e66b7f949a62f319f602052604090205460ff161561253b57565b6124ff60206124e7601161254e33613635565b6037846124757f97667070c54ef182b0f5858b034beac1b6f3089aa2d3188bb1e8929f4fa9b92961371b565b335f9081527fad3228b676f7d3cd4284a5443f17f1962b36e491b30a40b2405849e597ba5fb5602052604090205460ff16156125b257565b6124ff60206124e760116125c533613635565b6037846124755f61371b565b5f8181526020818152604080832033845290915290205460ff16156125f35750565b60206124e760116124ff9360378461247561260d33613635565b9361371b565b5f818152602081815260408083206001600160a01b038616845290915290205460ff1661263e575050565b5f818152602081815260408083206001600160a01b0395909516808452949091528120805460ff19169055339291907ff6391f5c32d9c69d2a47ea670b442974b53935d1edc7fd64eb21e047a839171b9080a4565b60ff6001541661269f57565b60405162461bcd60e51b815260206004820152601060248201526f14185d5cd8589b194e881c185d5cd95960821b6044820152606490fd5b60028054146126e65760028055565b60405162461bcd60e51b815260206004820152601f60248201527f5265656e7472616e637947756172643a207265656e7472616e742063616c6c006044820152606490fd5b60405163a9059cbb60e01b60208201526001600160a01b0392909216602483015260448083019390935291815261276c91612767606483612002565b6128a1565b565b6040516323b872dd60e01b60208201526001600160a01b03928316602482015292909116604483015260648083019390935291815261276c91612767608483612002565b600f0b600160461b811215611ef257683fffffffffffffffff1981126127f457700171547652b82fe1777d0ffda0d23a7d12612196910260801d600f0b612a37565b505f90565b60ff81541660048110156121ed57156128195750612196906121906122a4565b6005810154916128338160026121b5600186015483612101565b92600182018083116120685761219694612853612190926121e795612101565b60011c9061205b565b602060409281835280519182918282860152018484015e5f828201840152601f01601f1916010190565b6001600160401b03811161202357601f01601f191660200190565b906129209160018060a01b03165f80604051936128bf604086612002565b602085527f5361666545524332303a206c6f772d6c6576656c2063616c6c206661696c6564602086015260208151910182855af13d156129a8573d9161290483612886565b926129126040519485612002565b83523d5f602085013e6137bd565b805190811591821561298e575b50501561293657565b60405162461bcd60e51b815260206004820152602a60248201527f5361666545524332303a204552433230206f7065726174696f6e20646964206e6044820152691bdd081cdd58d8d9595960b21b6064820152608490fd5b6129a19250602080918301019101612133565b5f8061292d565b6060916137bd565b6008810154804210612a285760098201549081421015612a185760076129e3826129dd61ffff944261205b565b9461205b565b930154818160081c1691829160181c16039161ffff83116120685761ffff9361056e6121e79286612a149616612101565b1690565b50506007015460181c61ffff1690565b506007015460081c61ffff1690565b80600f0b600160461b811215611ef257683fffffffffffffffff198112612297576001607f1b915f6780000000000000008216600f0b1361360c575b5f6740000000000000008216600f0b136135ef575b5f6720000000000000008216600f0b136135d2575b5f6710000000000000008216600f0b136135b5575b5f6708000000000000008216600f0b13613598575b5f6704000000000000008216600f0b1361357b575b5f6702000000000000008216600f0b1361355e575b5f6701000000000000008216600f0b13613541575b5f66800000000000008216600f0b13613524575b5f66400000000000008216600f0b13613507575b5f66200000000000008216600f0b136134ea575b5f66100000000000008216600f0b136134cd575b5f66080000000000008216600f0b136134b0575b5f66040000000000008216600f0b13613493575b5f66020000000000008216600f0b13613476575b5f66010000000000008216600f0b13613459575b5f658000000000008216600f0b1361343c575b5f654000000000008216600f0b1361341f575b5f652000000000008216600f0b13613402575b5f651000000000008216600f0b136133e5575b5f650800000000008216600f0b136133c8575b5f650400000000008216600f0b136133ab575b5f650200000000008216600f0b1361338e575b5f650100000000008216600f0b13613371575b5f6480000000008216600f0b13613354575b5f6440000000008216600f0b13613337575b5f6420000000008216600f0b1361331a575b5f6410000000008216600f0b136132fd575b5f6408000000008216600f0b136132e0575b5f6404000000008216600f0b136132c3575b5f6402000000008216600f0b136132a6575b5f6401000000008216600f0b13613289575b5f63800000008216600f0b1361326c575b5f63400000008216600f0b1361324f575b5f63200000008216600f0b13613232575b5f63100000008216600f0b13613215575b5f63080000008216600f0b136131f8575b5f63040000008216600f0b136131db575b5f63020000008216600f0b136131be575b5f63010000008216600f0b136131a1575b5f628000008216600f0b13613184575b5f624000008216600f0b13613167575b5f622000008216600f0b1361314a575b5f621000008216600f0b1361312d575b5f620800008216600f0b13613110575b5f620400008216600f0b136130f3575b5f620200008216600f0b136130d6575b5f620100008216600f0b136130b9575b5f6180008216600f0b1361309c575b5f6140008216600f0b1361307f575b5f6120008216600f0b13613062575b5f6110008216600f0b13613045575b5f6108008216600f0b13613028575b5f6104008216600f0b1361300b575b5f6102008216600f0b13612fee575b5f6101008216600f0b13612fd1575b5f60808216600f0b13612fb4575b5f60408216600f0b13612f97575b5f60208216600f0b13612f7a575b5f60108216600f0b13612f5d575b5f60088216600f0b13612f40575b5f60048216600f0b13612f23575b5f60028216600f0b13612f05575b60015f9116600f0b13612ee8575b60401d600f0b603f03600f0b1c6f7fffffffffffffffffffffffffffffff8111611ef257600f0b90565b9070010000000000000000b17217f7d1cf79ab0260801c90612ebe565b7001000000000000000162e42fefa39ef35890920260801c91612eb0565b9170010000000000000002c5c85fdf473de6b20260801c91612ea2565b91700100000000000000058b90bfbe8e7bcd6d0260801c91612e94565b917001000000000000000b17217f7d1cf79afa0260801c91612e86565b91700100000000000000162e42fefa39ef366f0260801c91612e78565b917001000000000000002c5c85fdf473de6eca0260801c91612e6a565b9170010000000000000058b90bfbe8e7bce5440260801c91612e5c565b91700100000000000000b17217f7d1cf79e9490260801c91612e4e565b9170010000000000000162e42fefa39ef44d910260801c91612e3f565b91700100000000000002c5c85fdf473dea871f0260801c91612e30565b917001000000000000058b90bfbe8e7bdcbe2e0260801c91612e21565b9170010000000000000b17217f7d1cf7d83c1a0260801c91612e12565b917001000000000000162e42fefa39f02b772c0260801c91612e03565b9170010000000000002c5c85fdf473e242ea380260801c91612df4565b91700100000000000058b90bfbe8e7cc35c3f00260801c91612de5565b917001000000000000b17217f7d1cfb72b45e10260801c91612dd6565b91700100000000000162e42fefa39fe95583c20260801c91612dc6565b917001000000000002c5c85fdf4741bea6e77e0260801c91612db6565b9170010000000000058b90bfbe8e8b2d3d4ede0260801c91612da6565b91700100000000000b17217f7d1d351a389d400260801c91612d96565b9170010000000000162e42fefa3ae53369388c0260801c91612d86565b91700100000000002c5c85fdf477b662b269450260801c91612d76565b917001000000000058b90bfbe8f71cb4e4b33d0260801c91612d66565b9170010000000000b17217f7d20cf927c8e94c0260801c91612d56565b917001000000000162e42fefa494f1478fde050260801c91612d45565b9170010000000002c5c85fdf4b15de6f17eb0d0260801c91612d34565b91700100000000058b90bfbe9ddbac5e109cce0260801c91612d23565b917001000000000b17217f7d5a7716bba4a9ae0260801c91612d12565b91700100000000162e42fefb2fed257559bdaa0260801c91612d01565b917001000000002c5c85fdf84bd62ae30a74cc0260801c91612cf0565b9170010000000058b90bfbf8479bd5a81b51ad0260801c91612cdf565b91700100000000b17217f80f4ef5aadda455540260801c91612cce565b9170010000000162e42ff0999ce3541b9fffcf0260801c91612cbc565b91700100000002c5c85fe31f35a6a30da1be500260801c91612caa565b917001000000058b90bfcdee5acd3c1cedc8230260801c91612c98565b9170010000000b17217fba9c739aa5819f44f90260801c91612c86565b917001000000162e42fff037df38aa2b219f060260801c91612c74565b9170010000002c5c8601cc6b9e94213c72737a0260801c91612c62565b91700100000058b90c0b48c6be5df846c5b2ef0260801c91612c50565b917001000000b1721835514b86e6d96efd1bfe0260801c91612c3e565b91700100000162e430e5a18f6119e3c02282a50260801c91612c2b565b917001000002c5c863b73f016468f6bac5ca2b0260801c91612c18565b9170010000058b90cf1e6d97f9ca14dbcc16280260801c91612c05565b91700100000b1721bcfc99d9f890ea069117630260801c91612bf2565b9170010000162e43f4f831060e02d839a9d16d0260801c91612bdf565b91700100002c5c89d5ec6ca4d7c8acc017b7c90260801c91612bcc565b917001000058b91b5bc9ae2eed81e9b7d4cfab0260801c91612bb9565b9170010000b17255775c040618bf4a4ade83fc0260801c91612ba6565b917001000162e525ee054754457d59952920260260801c91612b92565b9170010002c5cc37da9491d0985c348c68e7b30260801c91612b7e565b91700100058ba01fb9f96d6cacd4b180917c3d0260801c91612b6a565b917001000b175effdc76ba38e31671ca9397250260801c91612b56565b91700100162f3904051fa128bca9c55c31e5df0260801c91612b42565b917001002c605e2e8cec506d21bfc89a23a00f0260801c91612b2e565b9170010058c86da1c09ea1ff19d294cf2f679b0260801c91612b1a565b91700100b1afa5abcbed6129ab13ec11dc95430260801c91612b06565b9170010163da9fb33356d84a66ae336dcdfa3f0260801c91612af1565b91700102c9a3e778060ee6f7caca4f7a29bde80260801c91612adc565b917001059b0d31585743ae7c548eb68ca417fd0260801c91612ac7565b9170010b5586cf9890f6298b92b71842a983630260801c91612ab2565b917001172b83c7d517adcdf7c8c50eb14a791f0260801c91612a9d565b917001306fe0a31b7152de8d5a46305c85edec0260801c91612a88565b6fb504f333f9de6484597d89b3754abe9f9250612a73565b908151811015611fee570160200190565b61363f602a612886565b9061364d6040519283612002565b602a825261365b602a612886565b6020830190601f1901368237825115611fee5760309053815160011015611fee576078602183015360295b600181116136da57506136965790565b606460405162461bcd60e51b815260206004820152602060248201527f537472696e67733a20686578206c656e67746820696e73756666696369656e746044820152fd5b90600f81166010811015611fee576f181899199a1a9b1b9c1cb0b131b232b360811b901a6137088385613624565b5360041c908015612068575f1901613686565b6137256042612886565b906137336040519283612002565b604282526137416042612886565b6020830190601f1901368237825115611fee5760309053815160011015611fee576078602183015360415b6001811161377c57506136965790565b90600f81166010811015611fee576f181899199a1a9b1b9c1cb0b131b232b360811b901a6137aa8385613624565b5360041c908015612068575f190161376c565b9192901561381f57508151156137d1575090565b3b156137da5790565b60405162461bcd60e51b815260206004820152601d60248201527f416464726573733a2063616c6c20746f206e6f6e2d636f6e74726163740000006044820152606490fd5b8251909150156138325750805190602001fd5b60405162461bcd60e51b81529081906124ff906004830161285c56fe61016080604052346106df57611d10803803809161001d82856106e3565b8339810160a0828203126106df5781516001600160401b0381116106df5781610047918401610706565b60208301519092906001600160401b0381116106df5782610069918301610706565b60408201519060608301519260018060a01b038416948585036106df5760808201516001600160401b0381116106df576100a39201610706565b9460409485516100b387826106e3565b60018152603160f81b6020820190815283516001600160401b0381116104da57600354600181811c911680156106d5575b60208210146104bc57601f8111610672575b50806020601f821160011461060e575f91610603575b508160011b915f199060031b1c1916176003555b84516001600160401b0381116104da57600454600181811c911680156105f9575b60208210146104bc57601f8111610596575b50806020601f8211600114610532575f91610527575b508160011b915f199060031b1c1916176004555b610186846107a3565b610120526101938261092a565b6101405283516020850120918260e05251902080610100524660a05287519060208201927f8b73c3c69bb8fe3d512ecc4cf759cc79239f7b179b0ffacaa9a75d522b39400f84528983015260608201524660808201523060a082015260a081526101fe60c0826106e3565b5190206080523060c0526102113361075b565b1561051857600390511090811561050c575b506104fd5780156104ee5783516001600160401b0381116104da57600a54600181811c911680156104d0575b60208210146104bc57601f8111610459575b50602094601f82116001146103f6579481929394955f926103eb575b50508160011b915f199060031b1c191617600a555b33156103a75760025481810180911161039357600255335f525f602052825f2081815401905582519081525f7fddf252ad1be2c89b69c2b068fc378daa952ba7f163c4a11628f55a4df523b3ef60203393a3600954336001600160a01b0390911603610350576103019061075b565b516112ad9081610a63823960805181610f04015260a05181610fc1015260c05181610ece015260e05181610f5301526101005181610f790152610120518161064d015261014051816106760152f35b6064825162461bcd60e51b815260206004820152602060248201527f4f776e61626c653a2063616c6c6572206973206e6f7420746865206f776e65726044820152fd5b634e487b7160e01b5f52601160045260245ffd5b825162461bcd60e51b815260206004820152601f60248201527f45524332303a206d696e7420746f20746865207a65726f2061646472657373006044820152606490fd5b015190505f8061027d565b601f19821695600a5f52805f20915f5b88811061044157508360019596979810610429575b505050811b01600a55610292565b01515f1960f88460031b161c191690555f808061041b565b91926020600181928685015181550194019201610406565b600a5f527fc65a7bb8d6351c1cf70c95a316cc6a92839c986682d98bc35f958f4883f9d2a8601f830160051c810191602084106104b2575b601f0160051c01905b8181106104a75750610261565b5f815560010161049a565b9091508190610491565b634e487b7160e01b5f52602260045260245ffd5b90607f169061024f565b634e487b7160e01b5f52604160045260245ffd5b63c16f3a9360e01b5f5260045ffd5b639432241960e01b5f5260045ffd5b6003915051105f610223565b63d92e233d60e01b5f5260045ffd5b90508601515f610169565b60045f9081528181209250601f198416905b81811061057e57509083600194939210610566575b5050811b0160045561017d565b8801515f1960f88460031b161c191690555f80610559565b9192602060018192868d015181550194019201610544565b60045f527f8a35acfbc15ff81a39ae7d344fd709f28e8600b4aa8c65c6b64bfe7fe36bd19b601f830160051c810191602084106105ef575b601f0160051c01905b8181106105e45750610153565b5f81556001016105d7565b90915081906105ce565b90607f1690610141565b90508501515f61010c565b60035f9081528181209250601f198416905b81811061065a57509083600194939210610642575b5050811b01600355610120565b8701515f1960f88460031b161c191690555f80610635565b9192602060018192868c015181550194019201610620565b60035f527fc2575a0e9e593c00f959f8c92f12db2869c3395a3b0502d05e2516446f71f85b601f830160051c810191602084106106cb575b601f0160051c01905b8181106106c057506100f6565b5f81556001016106b3565b90915081906106aa565b90607f16906100e4565b5f80fd5b601f909101601f19168101906001600160401b038211908210176104da57604052565b81601f820112156106df578051906001600160401b0382116104da576040519261073a601f8401601f1916602001856106e3565b828452602083830101116106df57815f9260208093018386015e8301015290565b600980546001600160a01b039283166001600160a01b0319821681179092559091167f8be0079c531659141344cd1fd0a4f28419497f9722a3daafe3b4186f6b6457e05f80a3565b908151602081105f1461081d575090601f8151116107dd5760208151910151602082106107ce571790565b5f198260200360031b1b161790565b604460209160405192839163305a27a960e01b83528160048401528051918291826024860152018484015e5f828201840152601f01601f19168101030190fd5b6001600160401b0381116104da57600554600181811c91168015610920575b60208210146104bc57601f81116108ed575b50602092601f821160011461088c57928192935f92610881575b50508160011b915f199060031b1c19161760055560ff90565b015190505f80610868565b601f1982169360055f52805f20915f5b8681106108d557508360019596106108bd575b505050811b0160055560ff90565b01515f1960f88460031b161c191690555f80806108af565b9192602060018192868501518155019401920161089c565b60055f52601f60205f20910160051c810190601f830160051c015b818110610915575061084e565b5f8155600101610908565b90607f169061083c565b908151602081105f14610955575090601f8151116107dd5760208151910151602082106107ce571790565b6001600160401b0381116104da57600654600181811c91168015610a58575b60208210146104bc57601f8111610a25575b50602092601f82116001146109c457928192935f926109b9575b50508160011b915f199060031b1c19161760065560ff90565b015190505f806109a0565b601f1982169360065f52805f20915f5b868110610a0d57508360019596106109f5575b505050811b0160065560ff90565b01515f1960f88460031b161c191690555f80806109e7565b919260206001819286850151815501940192016109d4565b60065f52601f60205f20910160051c810190601f830160051c015b818110610a4d5750610986565b5f8155600101610a40565b90607f169061097456fe6080806040526004361015610012575f80fd5b5f3560e01c90816306fdde0314610a7057508063095ea7b314610a4a57806318160ddd14610a2d57806323b872dd14610970578063313ce567146109555780633644e5151461093357806339509351146108d15780633c130d90146107f757806370a08231146107c0578063715018a6146107655780637ecebe001461072d57806384b0196e146106355780638da5cb5b1461060d57806395d89b4114610568578063a457c2d7146104c5578063a9059cbb14610494578063c623674f146103b2578063d505accf14610213578063dd62ed3e146101c35763f2fde38b146100f8575f80fd5b346101bf5760203660031901126101bf57610111610b36565b610119610fe7565b6001600160a01b0316801561016b57600980546001600160a01b0319811683179091556001600160a01b03167f8be0079c531659141344cd1fd0a4f28419497f9722a3daafe3b4186f6b6457e05f80a3005b60405162461bcd60e51b815260206004820152602660248201527f4f776e61626c653a206e6577206f776e657220697320746865207a65726f206160448201526564647265737360d01b6064820152608490fd5b5f80fd5b346101bf5760403660031901126101bf576101dc610b36565b6101e4610b4c565b6001600160a01b039182165f908152600160209081526040808320949093168252928352819020549051908152f35b346101bf5760e03660031901126101bf5761022c610b36565b610234610b4c565b6044359060643560843560ff811681036101bf5781421161036d5761030761030f9160018060a01b03871693845f52600760205260405f20908154916001830190556040519060208201927f6e71edae12b1b97f4d1f60370fef10105fa2faae0126114a169c64845d6126c9845287604084015260018060a01b038916606084015289608084015260a083015260c082015260c081526102d560e082610c1b565b5190206102e0610ecb565b906040519161190160f01b83526002830152602282015260c43591604260a43592206110d9565b91909161115f565b6001600160a01b0316036103285761032692610c51565b005b60405162461bcd60e51b815260206004820152601e60248201527f45524332305065726d69743a20696e76616c6964207369676e617475726500006044820152606490fd5b60405162461bcd60e51b815260206004820152601d60248201527f45524332305065726d69743a206578706972656420646561646c696e650000006044820152606490fd5b346101bf575f3660031901126101bf576040515f600a546103d281610b62565b80845290600181169081156104705750600114610412575b61040e836103fa81850382610c1b565b604051918291602083526020830190610b12565b0390f35b600a5f9081527fc65a7bb8d6351c1cf70c95a316cc6a92839c986682d98bc35f958f4883f9d2a8939250905b808210610456575090915081016020016103fa6103ea565b91926001816020925483858801015201910190929161043e565b60ff191660208086019190915291151560051b840190910191506103fa90506103ea565b346101bf5760403660031901126101bf576104ba6104b0610b36565b6024359033610d55565b602060405160018152f35b346101bf5760403660031901126101bf576104de610b36565b60243590335f52600160205260405f2060018060a01b0382165f5260205260405f205491808310610515576104ba92039033610c51565b60405162461bcd60e51b815260206004820152602560248201527f45524332303a2064656372656173656420616c6c6f77616e63652062656c6f77604482015264207a65726f60d81b6064820152608490fd5b346101bf575f3660031901126101bf576040515f60045461058881610b62565b808452906001811690811561047057506001146105af5761040e836103fa81850382610c1b565b60045f9081527f8a35acfbc15ff81a39ae7d344fd709f28e8600b4aa8c65c6b64bfe7fe36bd19b939250905b8082106105f3575090915081016020016103fa6103ea565b9192600181602092548385880101520191019092916105db565b346101bf575f3660031901126101bf576009546040516001600160a01b039091168152602090f35b346101bf575f3660031901126101bf576106d16106717f000000000000000000000000000000000000000000000000000000000000000061103f565b61069a7f00000000000000000000000000000000000000000000000000000000000000006110a2565b60206106df604051926106ad8385610c1b565b5f84525f368137604051958695600f60f81b875260e08588015260e0870190610b12565b908582036040870152610b12565b4660608501523060808501525f60a085015283810360c08501528180845192838152019301915f5b82811061071657505050500390f35b835185528695509381019392810192600101610707565b346101bf5760203660031901126101bf576001600160a01b0361074e610b36565b165f526007602052602060405f2054604051908152f35b346101bf575f3660031901126101bf5761077d610fe7565b600980546001600160a01b031981169091555f906001600160a01b03167f8be0079c531659141344cd1fd0a4f28419497f9722a3daafe3b4186f6b6457e08280a3005b346101bf5760203660031901126101bf576001600160a01b036107e1610b36565b165f525f602052602060405f2054604051908152f35b346101bf575f3660031901126101bf5760405166697066733a2f2f60c81b60208201525f90600a5461082881610b62565b90600181169081156108ad5750600114610854575b506103fa8161040e9303601f198101835282610c1b565b9150600a5f527fc65a7bb8d6351c1cf70c95a316cc6a92839c986682d98bc35f958f4883f9d2a85f905b838210610896575050908101602701906103fa61083d565b60018160209254602785870101520191019061087e565b60ff1916602780850191909152821515909202830190910192506103fa905061083d565b346101bf5760403660031901126101bf576108ea610b36565b335f52600160205260405f2060018060a01b0382165f5260205260405f2054602435810180911161091f576104ba9133610c51565b634e487b7160e01b5f52601160045260245ffd5b346101bf575f3660031901126101bf57602061094d610ecb565b604051908152f35b346101bf575f3660031901126101bf57602060405160128152f35b346101bf5760603660031901126101bf57610989610b36565b610991610b4c565b6001600160a01b0382165f9081526001602081815260408084203385529091529091205492604435929184016109cc575b6104ba9350610d55565b8284106109e8576109e3836104ba95033383610c51565b6109c2565b60405162461bcd60e51b815260206004820152601d60248201527f45524332303a20696e73756666696369656e7420616c6c6f77616e63650000006044820152606490fd5b346101bf575f3660031901126101bf576020600254604051908152f35b346101bf5760403660031901126101bf576104ba610a66610b36565b6024359033610c51565b346101bf575f3660031901126101bf575f600354610a8d81610b62565b80845290600181169081156104705750600114610ab45761040e836103fa81850382610c1b565b60035f9081527fc2575a0e9e593c00f959f8c92f12db2869c3395a3b0502d05e2516446f71f85b939250905b808210610af8575090915081016020016103fa6103ea565b919260018160209254838588010152019101909291610ae0565b805180835260209291819084018484015e5f828201840152601f01601f1916010190565b600435906001600160a01b03821682036101bf57565b602435906001600160a01b03821682036101bf57565b90600182811c92168015610b90575b6020831014610b7c57565b634e487b7160e01b5f52602260045260245ffd5b91607f1691610b71565b5f9291815491610ba983610b62565b8083529260018116908115610bfe5750600114610bc557505050565b5f9081526020812093945091925b838310610be4575060209250010190565b600181602092949394548385870101520191019190610bd3565b915050602093945060ff929192191683830152151560051b010190565b90601f8019910116810190811067ffffffffffffffff821117610c3d57604052565b634e487b7160e01b5f52604160045260245ffd5b6001600160a01b0316908115610d04576001600160a01b0316918215610cb45760207f8c5be1e5ebec7d5bd14f71427d1e84f3dd0314c0f7b2291e5b200ac8c7c3b92591835f526001825260405f20855f5282528060405f2055604051908152a3565b60405162461bcd60e51b815260206004820152602260248201527f45524332303a20617070726f766520746f20746865207a65726f206164647265604482015261737360f01b6064820152608490fd5b60405162461bcd60e51b8152602060048201526024808201527f45524332303a20617070726f76652066726f6d20746865207a65726f206164646044820152637265737360e01b6064820152608490fd5b6001600160a01b0316908115610e78576001600160a01b0316918215610e2757815f525f60205260405f2054818110610dd357817fddf252ad1be2c89b69c2b068fc378daa952ba7f163c4a11628f55a4df523b3ef92602092855f525f84520360405f2055845f525f825260405f20818154019055604051908152a3565b60405162461bcd60e51b815260206004820152602660248201527f45524332303a207472616e7366657220616d6f756e7420657863656564732062604482015265616c616e636560d01b6064820152608490fd5b60405162461bcd60e51b815260206004820152602360248201527f45524332303a207472616e7366657220746f20746865207a65726f206164647260448201526265737360e81b6064820152608490fd5b60405162461bcd60e51b815260206004820152602560248201527f45524332303a207472616e736665722066726f6d20746865207a65726f206164604482015264647265737360d81b6064820152608490fd5b307f00000000000000000000000000000000000000000000000000000000000000006001600160a01b03161480610fbe575b15610f26577f000000000000000000000000000000000000000000000000000000000000000090565b60405160208101907f8b73c3c69bb8fe3d512ecc4cf759cc79239f7b179b0ffacaa9a75d522b39400f82527f000000000000000000000000000000000000000000000000000000000000000060408201527f000000000000000000000000000000000000000000000000000000000000000060608201524660808201523060a082015260a08152610fb860c082610c1b565b51902090565b507f00000000000000000000000000000000000000000000000000000000000000004614610efd565b6009546001600160a01b03163303610ffb57565b606460405162461bcd60e51b815260206004820152602060248201527f4f776e61626c653a2063616c6c6572206973206e6f7420746865206f776e65726044820152fd5b60ff81146110855760ff811690601f82116110765760405191611063604084610c1b565b6020808452838101919036833783525290565b632cd44ac360e21b5f5260045ffd5b5060405161109f81611098816005610b9a565b0382610c1b565b90565b60ff81146110c65760ff811690601f82116110765760405191611063604084610c1b565b5060405161109f81611098816006610b9a565b7f7fffffffffffffffffffffffffffffff5d576e7357a4501ddfe92f46681b20a08411611154576020935f9360ff60809460405194855216868401526040830152606082015282805260015afa15611149575f516001600160a01b0381161561114157905f90565b505f90600190565b6040513d5f823e3d90fd5b505050505f90600390565b600581101561126357806111705750565b600181036111bd5760405162461bcd60e51b815260206004820152601860248201527f45434453413a20696e76616c6964207369676e617475726500000000000000006044820152606490fd5b6002810361120a5760405162461bcd60e51b815260206004820152601f60248201527f45434453413a20696e76616c6964207369676e6174757265206c656e677468006044820152606490fd5b60031461121357565b60405162461bcd60e51b815260206004820152602260248201527f45434453413a20696e76616c6964207369676e6174757265202773272076616c604482015261756560f01b6064820152608490fd5b634e487b7160e01b5f52602160045260245ffdfea264697066735822122085a0ecb6eea6517c1301fbb54ef1fe6e4c690d994845e6661978c15f7c43837964736f6c634300081e0033610100346100d257601f61070d38819003918201601f19168301916001600160401b038311848410176100d6578084926080946040528339810103126100d2578051906001600160a01b03821682036100d25760208101516001600160a01b03811681036100d257606060408301519201519260805260a05260c05260e05260405161062290816100eb8239608051818181607e015281816101960152610423015260a0518181816101470152610351015260c05181818160c8015261048b015260e05181818161039501526104690152f35b5f80fd5b634e487b7160e01b5f52604160045260245ffdfe6080806040526004361015610012575f80fd5b5f3560e01c9081630fb5a6b4146103805750806338af3eed1461033c57806344b1231f1461031a57806386d1a69f1461010757806396132521146100eb578063be9a6555146100b15763fc0c546a14610069575f80fd5b346100ad575f3660031901126100ad576040517f00000000000000000000000000000000000000000000000000000000000000006001600160a01b03168152602090f35b5f80fd5b346100ad575f3660031901126100ad5760206040517f00000000000000000000000000000000000000000000000000000000000000008152f35b346100ad575f3660031901126100ad5760205f54604051908152f35b346100ad575f3660031901126100ad5761011f610408565b61012a5f54826103fb565b9081156102ea575f5560405163a9059cbb60e01b602082019081527f00000000000000000000000000000000000000000000000000000000000000006001600160a01b0316602483015260448083019390935291815261018b6064826103b8565b5f8060018060a01b037f00000000000000000000000000000000000000000000000000000000000000001693604051936101c66040866103b8565b602085527f5361666545524332303a206c6f772d6c6576656c2063616c6c206661696c65646020860152519082865af13d156102dd573d9067ffffffffffffffff82116102c95760405161023894909261022a601f8201601f1916602001856103b8565b83523d5f602085013e610538565b80519081159182156102a6575b50501561024e57005b60405162461bcd60e51b815260206004820152602a60248201527f5361666545524332303a204552433230206f7065726174696f6e20646964206e6044820152691bdd081cdd58d8d9595960b21b6064820152608490fd5b81925090602091810103126100ad576020015180151581036100ad578180610245565b634e487b7160e01b5f52604160045260245ffd5b9161023892606091610538565b60405162461bcd60e51b81526020600482015260086024820152674e6f546f6b656e7360c01b6044820152606490fd5b346100ad575f3660031901126100ad576020610334610408565b604051908152f35b346100ad575f3660031901126100ad576040517f00000000000000000000000000000000000000000000000000000000000000006001600160a01b03168152602090f35b346100ad575f3660031901126100ad576020907f00000000000000000000000000000000000000000000000000000000000000008152f35b90601f8019910116810190811067ffffffffffffffff8211176102c957604052565b919082018092116103e757565b634e487b7160e01b5f52601160045260245ffd5b919082039182116103e757565b6040516370a0823160e01b81523060048201526020816024817f00000000000000000000000000000000000000000000000000000000000000006001600160a01b03165afa801561052d575f906104f9575b61046791505f54906103da565b7f0000000000000000000000000000000000000000000000000000000000000000907f00000000000000000000000000000000000000000000000000000000000000006104b483826103da565b42106104c05750905090565b6104ca90426103fb565b908181029181830414901517156103e75781156104e5570490565b634e487b7160e01b5f52601260045260245ffd5b506020813d602011610525575b81610513602093836103b8565b810103126100ad57610467905161045a565b3d9150610506565b6040513d5f823e3d90fd5b9192901561059a575081511561054c575090565b3b156105555790565b60405162461bcd60e51b815260206004820152601d60248201527f416464726573733a2063616c6c20746f206e6f6e2d636f6e74726163740000006044820152606490fd5b8251909150156105ad5750805190602001fd5b604460209160405192839162461bcd60e51b83528160048401528051918291826024860152018484015e5f828201840152601f01601f19168101030190fdfea2646970667358221220ae904f059f26000efb2de381d2dec159e0d28dc7e485a6780014f3a63fab583264736f6c634300081e0033a26469706673582212209360344f4265579813a4cda2535986014c7ce47d56efc05baef4acda71a64fa164736f6c634300081e00332f8788117e7eff1d82e926ec794901d17c78024a50270940304540a733656f0df7c9542c591017a21c74b6f3fab6263c7952fc0aaf9db4c22a2a04ddc7f8674fee57cd81e84075558e8fcc182a1f4393f91fc97f963a136e66b7f949a62f319fad3228b676f7d3cd4284a5443f17f1962b36e491b30a40b2405849e597ba5fb5",
    "sourcePath": "d:/NFT-MarketPlace/Contracts/my-meme-launcher/contracts/MemeCoinFactory.sol",
    "compiler": {
        "name": "solc",
        "version": "0.8.30+commit.73712a01"
    },
    "functionHashes": {
        "DEFAULT_ADMIN_ROLE()": "a217fddf",
        "OPERATOR_ROLE()": "f5b541a6",
        "PAUSER_ROLE()": "e63ab1e9",
        "POOL_CREATION_FEE()": "7b573c54",
        "WETH()": "ad5c4648",
        "airdropModule()": "768c0442",
        "allTokens(uint256)": "634282af",
        "buyPresale(address,uint256,uint256,address,bytes32[])": "d9d0a5be",
        "buyToken(address,uint256,address)": "692bf4a8",
        "claimAirdrop(uint256,bytes32[])": "0bcae1ac",
        "claimStakeReward()": "9fd3af8b",
        "claimVault(address)": "e5a8a123",
        "costToBuy(address,uint256)": "8943b28e",
        "createMemeCoin(string,string,uint8,uint256,uint8,uint256,uint256,uint256,uint256,uint256,uint16,uint16,uint256,uint256,uint256,uint256,uint256,uint256,uint256,string)": "49933e13",
        "createV2Pool(address,address)": "c4f3e9d7",
        "creatorFeesAccrued(address)": "c748713e",
        "currentPrice(address)": "e9833c2f",
        "curves(address)": "2cc3dc6e",
        "depositVault(address)": "24bf2f1e",
        "getRoleAdmin(bytes32)": "248a9ca3",
        "grantRole(bytes32,address)": "2f2ff15d",
        "hasRole(bytes32,address)": "91d14854",
        "pause()": "8456cb59",
        "paused()": "5c975abb",
        "platformFeeBP()": "ff96092a",
        "platformFeesAccrued()": "22163b86",
        "referralFeeBP()": "dc4ec9be",
        "releaseVault(address)": "cd30f038",
        "renounceRole(bytes32,address)": "36568abe",
        "revokeRole(bytes32,address)": "d547741f",
        "router()": "f887ea40",
        "sellToken(address,uint256)": "f464e7db",
        "setAirdropModule(address)": "a0429de6",
        "setStakingModule(address)": "c60b494f",
        "setWhitelistModule(address)": "83f26f38",
        "stakeTokens(uint256)": "7547c7a3",
        "stakingModule()": "504b82bf",
        "supportsInterface(bytes4)": "01ffc9a7",
        "tokenIndexPlusOne(address)": "35a62e68",
        "unpause()": "3f4ba83a",
        "v2Factory()": "b4b57c39",
        "vaultDeposits(address,address)": "5f6501ab",
        "vaultReleased(address)": "52ce0fb0",
        "vaultTotal(address)": "5e81e364",
        "whitelistModule()": "8fea31b0",
        "withdrawStake(uint256)": "25d5971f"
    },
    "gasEstimates": {
        "creation": {
            "codeDepositCost": "4742600",
            "executionCost": "infinite",
            "totalCost": "infinite"
        },
        "external": {
            "": "1102",
            "DEFAULT_ADMIN_ROLE()": "802",
            "OPERATOR_ROLE()": "1107",
            "PAUSER_ROLE()": "1041",
            "POOL_CREATION_FEE()": "623",
            "WETH()": "2948",
            "airdropModule()": "2728",
            "allTokens(uint256)": "15610",
            "buyPresale(address,uint256,uint256,address,bytes32[])": "infinite",
            "buyToken(address,uint256,address)": "infinite",
            "claimAirdrop(uint256,bytes32[])": "infinite",
            "claimStakeReward()": "infinite",
            "claimVault(address)": "infinite",
            "costToBuy(address,uint256)": "infinite",
            "createMemeCoin(string,string,uint8,uint256,uint8,uint256,uint256,uint256,uint256,uint256,uint16,uint16,uint256,uint256,uint256,uint256,uint256,uint256,uint256,string)": "infinite",
            "createV2Pool(address,address)": "infinite",
            "creatorFeesAccrued(address)": "3166",
            "currentPrice(address)": "infinite",
            "curves(address)": "21813",
            "depositVault(address)": "infinite",
            "getRoleAdmin(bytes32)": "2414",
            "grantRole(bytes32,address)": "infinite",
            "hasRole(bytes32,address)": "3066",
            "pause()": "infinite",
            "paused()": "2584",
            "platformFeeBP()": "3254",
            "platformFeesAccrued()": "2308",
            "referralFeeBP()": "3112",
            "releaseVault(address)": "infinite",
            "renounceRole(bytes32,address)": "29035",
            "revokeRole(bytes32,address)": "infinite",
            "router()": "3256",
            "sellToken(address,uint256)": "infinite",
            "setAirdropModule(address)": "infinite",
            "setStakingModule(address)": "infinite",
            "setWhitelistModule(address)": "infinite",
            "stakeTokens(uint256)": "infinite",
            "stakingModule()": "2552",
            "supportsInterface(bytes4)": "275",
            "tokenIndexPlusOne(address)": "2594",
            "unpause()": "infinite",
            "v2Factory()": "2970",
            "vaultDeposits(address,address)": "2922",
            "vaultReleased(address)": "2719",
            "vaultTotal(address)": "2748",
            "whitelistModule()": "2838",
            "withdrawStake(uint256)": "infinite"
        },
        "internal": {
            "_calcRefund(struct MemeCoinFactory.CurveInfo storage pointer,address,uint256)": "infinite",
            "_currentFeeBP(struct MemeCoinFactory.CurveInfo storage pointer)": "infinite",
            "_distributeFees(address,uint256,address)": "infinite"
        }
    }
}