{
    "contractName": "MemeCoinFactory",
    "abi": [
        {
            "inputs": [
                {
                    "internalType": "uint16",
                    "name": "_platformFeeBP",
                    "type": "uint16"
                },
                {
                    "internalType": "uint16",
                    "name": "_referralFeeBP",
                    "type": "uint16"
                },
                {
                    "internalType": "address",
                    "name": "_v2Factory",
                    "type": "address"
                },
                {
                    "internalType": "address",
                    "name": "_router",
                    "type": "address"
                }
            ],
            "stateMutability": "nonpayable",
            "type": "constructor"
        },
        {
            "anonymous": false,
            "inputs": [
                {
                    "indexed": true,
                    "internalType": "address",
                    "name": "token",
                    "type": "address"
                },
                {
                    "indexed": true,
                    "internalType": "address",
                    "name": "buyer",
                    "type": "address"
                },
                {
                    "indexed": false,
                    "internalType": "uint256",
                    "name": "amount",
                    "type": "uint256"
                },
                {
                    "indexed": false,
                    "internalType": "uint256",
                    "name": "cost",
                    "type": "uint256"
                }
            ],
            "name": "Bought",
            "type": "event"
        },
        {
            "anonymous": false,
            "inputs": [
                {
                    "indexed": true,
                    "internalType": "address",
                    "name": "token",
                    "type": "address"
                },
                {
                    "indexed": true,
                    "internalType": "address",
                    "name": "payer",
                    "type": "address"
                },
                {
                    "indexed": false,
                    "internalType": "uint256",
                    "name": "platformFee",
                    "type": "uint256"
                },
                {
                    "indexed": false,
                    "internalType": "uint256",
                    "name": "creatorFee",
                    "type": "uint256"
                },
                {
                    "indexed": false,
                    "internalType": "uint256",
                    "name": "referralFee",
                    "type": "uint256"
                }
            ],
            "name": "FeeDistributed",
            "type": "event"
        },
        {
            "anonymous": false,
            "inputs": [
                {
                    "indexed": true,
                    "internalType": "address",
                    "name": "token",
                    "type": "address"
                },
                {
                    "indexed": false,
                    "internalType": "uint256",
                    "name": "nextPrice",
                    "type": "uint256"
                },
                {
                    "indexed": false,
                    "internalType": "uint256",
                    "name": "timestamp",
                    "type": "uint256"
                }
            ],
            "name": "NextPrice",
            "type": "event"
        },
        {
            "anonymous": false,
            "inputs": [
                {
                    "indexed": false,
                    "internalType": "address",
                    "name": "account",
                    "type": "address"
                }
            ],
            "name": "Paused",
            "type": "event"
        },
        {
            "anonymous": false,
            "inputs": [
                {
                    "indexed": true,
                    "internalType": "address",
                    "name": "token",
                    "type": "address"
                },
                {
                    "indexed": true,
                    "internalType": "address",
                    "name": "pair",
                    "type": "address"
                }
            ],
            "name": "PoolCreated",
            "type": "event"
        },
        {
            "anonymous": false,
            "inputs": [
                {
                    "indexed": true,
                    "internalType": "address",
                    "name": "token",
                    "type": "address"
                },
                {
                    "indexed": true,
                    "internalType": "address",
                    "name": "buyer",
                    "type": "address"
                },
                {
                    "indexed": false,
                    "internalType": "uint256",
                    "name": "amountAtomic",
                    "type": "uint256"
                },
                {
                    "indexed": false,
                    "internalType": "uint256",
                    "name": "cost",
                    "type": "uint256"
                },
                {
                    "indexed": false,
                    "internalType": "address",
                    "name": "referrer",
                    "type": "address"
                }
            ],
            "name": "PresalePurchased",
            "type": "event"
        },
        {
            "anonymous": false,
            "inputs": [
                {
                    "indexed": true,
                    "internalType": "bytes32",
                    "name": "role",
                    "type": "bytes32"
                },
                {
                    "indexed": true,
                    "internalType": "bytes32",
                    "name": "previousAdminRole",
                    "type": "bytes32"
                },
                {
                    "indexed": true,
                    "internalType": "bytes32",
                    "name": "newAdminRole",
                    "type": "bytes32"
                }
            ],
            "name": "RoleAdminChanged",
            "type": "event"
        },
        {
            "anonymous": false,
            "inputs": [
                {
                    "indexed": true,
                    "internalType": "bytes32",
                    "name": "role",
                    "type": "bytes32"
                },
                {
                    "indexed": true,
                    "internalType": "address",
                    "name": "account",
                    "type": "address"
                },
                {
                    "indexed": true,
                    "internalType": "address",
                    "name": "sender",
                    "type": "address"
                }
            ],
            "name": "RoleGranted",
            "type": "event"
        },
        {
            "anonymous": false,
            "inputs": [
                {
                    "indexed": true,
                    "internalType": "bytes32",
                    "name": "role",
                    "type": "bytes32"
                },
                {
                    "indexed": true,
                    "internalType": "address",
                    "name": "account",
                    "type": "address"
                },
                {
                    "indexed": true,
                    "internalType": "address",
                    "name": "sender",
                    "type": "address"
                }
            ],
            "name": "RoleRevoked",
            "type": "event"
        },
        {
            "anonymous": false,
            "inputs": [
                {
                    "indexed": true,
                    "internalType": "address",
                    "name": "token",
                    "type": "address"
                },
                {
                    "indexed": true,
                    "internalType": "address",
                    "name": "seller",
                    "type": "address"
                },
                {
                    "indexed": false,
                    "internalType": "uint256",
                    "name": "amount",
                    "type": "uint256"
                },
                {
                    "indexed": false,
                    "internalType": "uint256",
                    "name": "refund",
                    "type": "uint256"
                }
            ],
            "name": "Sold",
            "type": "event"
        },
        {
            "anonymous": false,
            "inputs": [
                {
                    "indexed": true,
                    "internalType": "address",
                    "name": "token",
                    "type": "address"
                },
                {
                    "indexed": true,
                    "internalType": "address",
                    "name": "creator",
                    "type": "address"
                },
                {
                    "indexed": false,
                    "internalType": "enum MemeCoinFactory.LaunchMode",
                    "name": "launchMode",
                    "type": "uint8"
                },
                {
                    "indexed": false,
                    "internalType": "enum MemeCoinFactory.CurveType",
                    "name": "curveType",
                    "type": "uint8"
                },
                {
                    "indexed": false,
                    "internalType": "uint256",
                    "name": "basePrice",
                    "type": "uint256"
                },
                {
                    "indexed": false,
                    "internalType": "uint256",
                    "name": "slope",
                    "type": "uint256"
                },
                {
                    "indexed": false,
                    "internalType": "uint256",
                    "name": "exponent",
                    "type": "uint256"
                },
                {
                    "indexed": false,
                    "internalType": "uint256",
                    "name": "stepSize",
                    "type": "uint256"
                },
                {
                    "indexed": false,
                    "internalType": "uint256",
                    "name": "fundingGoal",
                    "type": "uint256"
                },
                {
                    "indexed": false,
                    "internalType": "uint16",
                    "name": "startFeeBP",
                    "type": "uint16"
                },
                {
                    "indexed": false,
                    "internalType": "uint16",
                    "name": "endFeeBP",
                    "type": "uint16"
                },
                {
                    "indexed": false,
                    "internalType": "uint256",
                    "name": "feeChangeStart",
                    "type": "uint256"
                },
                {
                    "indexed": false,
                    "internalType": "uint256",
                    "name": "feeChangeEnd",
                    "type": "uint256"
                },
                {
                    "indexed": false,
                    "internalType": "uint256",
                    "name": "vaultEnd",
                    "type": "uint256"
                },
                {
                    "indexed": false,
                    "internalType": "uint256",
                    "name": "vestAmount",
                    "type": "uint256"
                },
                {
                    "indexed": false,
                    "internalType": "uint256",
                    "name": "vestStart",
                    "type": "uint256"
                },
                {
                    "indexed": false,
                    "internalType": "uint256",
                    "name": "vestDuration",
                    "type": "uint256"
                },
                {
                    "indexed": false,
                    "internalType": "uint256",
                    "name": "totalSupply",
                    "type": "uint256"
                },
                {
                    "indexed": false,
                    "internalType": "string",
                    "name": "ipfsHash",
                    "type": "string"
                }
            ],
            "name": "TokenCreated",
            "type": "event"
        },
        {
            "anonymous": false,
            "inputs": [
                {
                    "indexed": false,
                    "internalType": "address",
                    "name": "account",
                    "type": "address"
                }
            ],
            "name": "Unpaused",
            "type": "event"
        },
        {
            "anonymous": false,
            "inputs": [
                {
                    "indexed": true,
                    "internalType": "address",
                    "name": "token",
                    "type": "address"
                },
                {
                    "indexed": true,
                    "internalType": "address",
                    "name": "user",
                    "type": "address"
                },
                {
                    "indexed": false,
                    "internalType": "uint256",
                    "name": "amount",
                    "type": "uint256"
                }
            ],
            "name": "VaultClaimed",
            "type": "event"
        },
        {
            "anonymous": false,
            "inputs": [
                {
                    "indexed": true,
                    "internalType": "address",
                    "name": "token",
                    "type": "address"
                },
                {
                    "indexed": true,
                    "internalType": "address",
                    "name": "user",
                    "type": "address"
                },
                {
                    "indexed": false,
                    "internalType": "uint256",
                    "name": "amount",
                    "type": "uint256"
                }
            ],
            "name": "VaultDeposited",
            "type": "event"
        },
        {
            "anonymous": false,
            "inputs": [
                {
                    "indexed": true,
                    "internalType": "address",
                    "name": "token",
                    "type": "address"
                },
                {
                    "indexed": false,
                    "internalType": "uint256",
                    "name": "timestamp",
                    "type": "uint256"
                }
            ],
            "name": "VaultReleasedManual",
            "type": "event"
        },
        {
            "anonymous": false,
            "inputs": [
                {
                    "indexed": true,
                    "internalType": "address",
                    "name": "token",
                    "type": "address"
                },
                {
                    "indexed": false,
                    "internalType": "address",
                    "name": "vestingContract",
                    "type": "address"
                }
            ],
            "name": "VestingCreated",
            "type": "event"
        },
        {
            "stateMutability": "payable",
            "type": "fallback"
        },
        {
            "inputs": [],
            "name": "DEFAULT_ADMIN_ROLE",
            "outputs": [
                {
                    "internalType": "bytes32",
                    "name": "",
                    "type": "bytes32"
                }
            ],
            "stateMutability": "view",
            "type": "function"
        },
        {
            "inputs": [],
            "name": "OPERATOR_ROLE",
            "outputs": [
                {
                    "internalType": "bytes32",
                    "name": "",
                    "type": "bytes32"
                }
            ],
            "stateMutability": "view",
            "type": "function"
        },
        {
            "inputs": [],
            "name": "PAUSER_ROLE",
            "outputs": [
                {
                    "internalType": "bytes32",
                    "name": "",
                    "type": "bytes32"
                }
            ],
            "stateMutability": "view",
            "type": "function"
        },
        {
            "inputs": [],
            "name": "POOL_CREATION_FEE",
            "outputs": [
                {
                    "internalType": "uint256",
                    "name": "",
                    "type": "uint256"
                }
            ],
            "stateMutability": "view",
            "type": "function"
        },
        {
            "inputs": [],
            "name": "WETH",
            "outputs": [
                {
                    "internalType": "address",
                    "name": "",
                    "type": "address"
                }
            ],
            "stateMutability": "view",
            "type": "function"
        },
        {
            "inputs": [],
            "name": "airdropModule",
            "outputs": [
                {
                    "internalType": "contract AirdropMerkle",
                    "name": "",
                    "type": "address"
                }
            ],
            "stateMutability": "view",
            "type": "function"
        },
        {
            "inputs": [
                {
                    "internalType": "uint256",
                    "name": "",
                    "type": "uint256"
                }
            ],
            "name": "allTokens",
            "outputs": [
                {
                    "internalType": "address",
                    "name": "token",
                    "type": "address"
                },
                {
                    "internalType": "address",
                    "name": "creator",
                    "type": "address"
                },
                {
                    "internalType": "enum MemeCoinFactory.LaunchMode",
                    "name": "launchMode",
                    "type": "uint8"
                },
                {
                    "internalType": "uint256",
                    "name": "preMintCap",
                    "type": "uint256"
                },
                {
                    "internalType": "bool",
                    "name": "active",
                    "type": "bool"
                },
                {
                    "internalType": "uint256",
                    "name": "vaultEnd",
                    "type": "uint256"
                }
            ],
            "stateMutability": "view",
            "type": "function"
        },
        {
            "inputs": [
                {
                    "internalType": "address",
                    "name": "t",
                    "type": "address"
                },
                {
                    "internalType": "uint256",
                    "name": "a",
                    "type": "uint256"
                },
                {
                    "internalType": "uint256",
                    "name": "m",
                    "type": "uint256"
                },
                {
                    "internalType": "address",
                    "name": "r",
                    "type": "address"
                },
                {
                    "internalType": "bytes32[]",
                    "name": "p",
                    "type": "bytes32[]"
                }
            ],
            "name": "buyPresale",
            "outputs": [],
            "stateMutability": "payable",
            "type": "function"
        },
        {
            "inputs": [
                {
                    "internalType": "address",
                    "name": "token_",
                    "type": "address"
                },
                {
                    "internalType": "uint256",
                    "name": "amountAtomic",
                    "type": "uint256"
                },
                {
                    "internalType": "address",
                    "name": "referrer",
                    "type": "address"
                }
            ],
            "name": "buyToken",
            "outputs": [],
            "stateMutability": "payable",
            "type": "function"
        },
        {
            "inputs": [
                {
                    "internalType": "uint256",
                    "name": "a",
                    "type": "uint256"
                },
                {
                    "internalType": "bytes32[]",
                    "name": "p",
                    "type": "bytes32[]"
                }
            ],
            "name": "claimAirdrop",
            "outputs": [],
            "stateMutability": "nonpayable",
            "type": "function"
        },
        {
            "inputs": [],
            "name": "claimStakeReward",
            "outputs": [],
            "stateMutability": "nonpayable",
            "type": "function"
        },
        {
            "inputs": [
                {
                    "internalType": "address",
                    "name": "token_",
                    "type": "address"
                }
            ],
            "name": "claimVault",
            "outputs": [],
            "stateMutability": "nonpayable",
            "type": "function"
        },
        {
            "inputs": [
                {
                    "internalType": "address",
                    "name": "token_",
                    "type": "address"
                },
                {
                    "internalType": "uint256",
                    "name": "amountAtomic",
                    "type": "uint256"
                }
            ],
            "name": "costToBuy",
            "outputs": [
                {
                    "internalType": "uint256",
                    "name": "",
                    "type": "uint256"
                }
            ],
            "stateMutability": "view",
            "type": "function"
        },
        {
            "inputs": [
                {
                    "internalType": "string",
                    "name": "name_",
                    "type": "string"
                },
                {
                    "internalType": "string",
                    "name": "symbol_",
                    "type": "string"
                },
                {
                    "internalType": "enum MemeCoinFactory.LaunchMode",
                    "name": "launchMode_",
                    "type": "uint8"
                },
                {
                    "internalType": "uint256",
                    "name": "preMintCap_",
                    "type": "uint256"
                },
                {
                    "internalType": "enum MemeCoinFactory.CurveType",
                    "name": "curveType_",
                    "type": "uint8"
                },
                {
                    "internalType": "uint256",
                    "name": "basePrice_",
                    "type": "uint256"
                },
                {
                    "internalType": "uint256",
                    "name": "slope_",
                    "type": "uint256"
                },
                {
                    "internalType": "uint256",
                    "name": "exponent_",
                    "type": "uint256"
                },
                {
                    "internalType": "uint256",
                    "name": "stepSize_",
                    "type": "uint256"
                },
                {
                    "internalType": "uint256",
                    "name": "fundingGoal_",
                    "type": "uint256"
                },
                {
                    "internalType": "uint16",
                    "name": "startFeeBP_",
                    "type": "uint16"
                },
                {
                    "internalType": "uint16",
                    "name": "endFeeBP_",
                    "type": "uint16"
                },
                {
                    "internalType": "uint256",
                    "name": "feeChangeStart_",
                    "type": "uint256"
                },
                {
                    "internalType": "uint256",
                    "name": "feeChangeEnd_",
                    "type": "uint256"
                },
                {
                    "internalType": "uint256",
                    "name": "vaultEnd_",
                    "type": "uint256"
                },
                {
                    "internalType": "uint256",
                    "name": "vestAmount_",
                    "type": "uint256"
                },
                {
                    "internalType": "uint256",
                    "name": "vestStart_",
                    "type": "uint256"
                },
                {
                    "internalType": "uint256",
                    "name": "vestDuration_",
                    "type": "uint256"
                },
                {
                    "internalType": "uint256",
                    "name": "totalSupply_",
                    "type": "uint256"
                },
                {
                    "internalType": "string",
                    "name": "ipfsHash_",
                    "type": "string"
                }
            ],
            "name": "createMemeCoin",
            "outputs": [
                {
                    "internalType": "address",
                    "name": "tokenAddr",
                    "type": "address"
                }
            ],
            "stateMutability": "nonpayable",
            "type": "function"
        },
        {
            "inputs": [
                {
                    "internalType": "address",
                    "name": "a",
                    "type": "address"
                },
                {
                    "internalType": "address",
                    "name": "b",
                    "type": "address"
                }
            ],
            "name": "createV2Pool",
            "outputs": [
                {
                    "internalType": "address",
                    "name": "pair",
                    "type": "address"
                }
            ],
            "stateMutability": "payable",
            "type": "function"
        },
        {
            "inputs": [
                {
                    "internalType": "address",
                    "name": "",
                    "type": "address"
                }
            ],
            "name": "creatorFeesAccrued",
            "outputs": [
                {
                    "internalType": "uint256",
                    "name": "",
                    "type": "uint256"
                }
            ],
            "stateMutability": "view",
            "type": "function"
        },
        {
            "inputs": [
                {
                    "internalType": "address",
                    "name": "token_",
                    "type": "address"
                }
            ],
            "name": "currentPrice",
            "outputs": [
                {
                    "internalType": "uint256",
                    "name": "",
                    "type": "uint256"
                }
            ],
            "stateMutability": "view",
            "type": "function"
        },
        {
            "inputs": [
                {
                    "internalType": "address",
                    "name": "",
                    "type": "address"
                }
            ],
            "name": "curves",
            "outputs": [
                {
                    "internalType": "enum MemeCoinFactory.CurveType",
                    "name": "curveType",
                    "type": "uint8"
                },
                {
                    "internalType": "uint256",
                    "name": "basePrice",
                    "type": "uint256"
                },
                {
                    "internalType": "uint256",
                    "name": "slope",
                    "type": "uint256"
                },
                {
                    "internalType": "uint256",
                    "name": "exponent",
                    "type": "uint256"
                },
                {
                    "internalType": "uint256",
                    "name": "stepSize",
                    "type": "uint256"
                },
                {
                    "internalType": "uint256",
                    "name": "totalSold",
                    "type": "uint256"
                },
                {
                    "internalType": "uint256",
                    "name": "fundingGoal",
                    "type": "uint256"
                },
                {
                    "internalType": "bool",
                    "name": "poolCreated",
                    "type": "bool"
                },
                {
                    "internalType": "uint16",
                    "name": "startFeeBP",
                    "type": "uint16"
                },
                {
                    "internalType": "uint16",
                    "name": "endFeeBP",
                    "type": "uint16"
                },
                {
                    "internalType": "uint256",
                    "name": "feeChangeStart",
                    "type": "uint256"
                },
                {
                    "internalType": "uint256",
                    "name": "feeChangeEnd",
                    "type": "uint256"
                }
            ],
            "stateMutability": "view",
            "type": "function"
        },
        {
            "inputs": [
                {
                    "internalType": "address",
                    "name": "token_",
                    "type": "address"
                }
            ],
            "name": "depositVault",
            "outputs": [],
            "stateMutability": "payable",
            "type": "function"
        },
        {
            "inputs": [
                {
                    "internalType": "bytes32",
                    "name": "role",
                    "type": "bytes32"
                }
            ],
            "name": "getRoleAdmin",
            "outputs": [
                {
                    "internalType": "bytes32",
                    "name": "",
                    "type": "bytes32"
                }
            ],
            "stateMutability": "view",
            "type": "function"
        },
        {
            "inputs": [
                {
                    "internalType": "bytes32",
                    "name": "role",
                    "type": "bytes32"
                },
                {
                    "internalType": "address",
                    "name": "account",
                    "type": "address"
                }
            ],
            "name": "grantRole",
            "outputs": [],
            "stateMutability": "nonpayable",
            "type": "function"
        },
        {
            "inputs": [
                {
                    "internalType": "bytes32",
                    "name": "role",
                    "type": "bytes32"
                },
                {
                    "internalType": "address",
                    "name": "account",
                    "type": "address"
                }
            ],
            "name": "hasRole",
            "outputs": [
                {
                    "internalType": "bool",
                    "name": "",
                    "type": "bool"
                }
            ],
            "stateMutability": "view",
            "type": "function"
        },
        {
            "inputs": [],
            "name": "pause",
            "outputs": [],
            "stateMutability": "nonpayable",
            "type": "function"
        },
        {
            "inputs": [],
            "name": "paused",
            "outputs": [
                {
                    "internalType": "bool",
                    "name": "",
                    "type": "bool"
                }
            ],
            "stateMutability": "view",
            "type": "function"
        },
        {
            "inputs": [],
            "name": "platformFeeBP",
            "outputs": [
                {
                    "internalType": "uint16",
                    "name": "",
                    "type": "uint16"
                }
            ],
            "stateMutability": "view",
            "type": "function"
        },
        {
            "inputs": [],
            "name": "platformFeesAccrued",
            "outputs": [
                {
                    "internalType": "uint256",
                    "name": "",
                    "type": "uint256"
                }
            ],
            "stateMutability": "view",
            "type": "function"
        },
        {
            "inputs": [],
            "name": "referralFeeBP",
            "outputs": [
                {
                    "internalType": "uint16",
                    "name": "",
                    "type": "uint16"
                }
            ],
            "stateMutability": "view",
            "type": "function"
        },
        {
            "inputs": [
                {
                    "internalType": "address",
                    "name": "token_",
                    "type": "address"
                }
            ],
            "name": "releaseVault",
            "outputs": [],
            "stateMutability": "nonpayable",
            "type": "function"
        },
        {
            "inputs": [
                {
                    "internalType": "bytes32",
                    "name": "role",
                    "type": "bytes32"
                },
                {
                    "internalType": "address",
                    "name": "account",
                    "type": "address"
                }
            ],
            "name": "renounceRole",
            "outputs": [],
            "stateMutability": "nonpayable",
            "type": "function"
        },
        {
            "inputs": [
                {
                    "internalType": "bytes32",
                    "name": "role",
                    "type": "bytes32"
                },
                {
                    "internalType": "address",
                    "name": "account",
                    "type": "address"
                }
            ],
            "name": "revokeRole",
            "outputs": [],
            "stateMutability": "nonpayable",
            "type": "function"
        },
        {
            "inputs": [],
            "name": "router",
            "outputs": [
                {
                    "internalType": "contract IUniswapV2Router02",
                    "name": "",
                    "type": "address"
                }
            ],
            "stateMutability": "view",
            "type": "function"
        },
        {
            "inputs": [
                {
                    "internalType": "address",
                    "name": "token_",
                    "type": "address"
                },
                {
                    "internalType": "uint256",
                    "name": "amountAtomic",
                    "type": "uint256"
                }
            ],
            "name": "sellToken",
            "outputs": [],
            "stateMutability": "nonpayable",
            "type": "function"
        },
        {
            "inputs": [
                {
                    "internalType": "address",
                    "name": "a",
                    "type": "address"
                }
            ],
            "name": "setAirdropModule",
            "outputs": [],
            "stateMutability": "nonpayable",
            "type": "function"
        },
        {
            "inputs": [
                {
                    "internalType": "address",
                    "name": "a",
                    "type": "address"
                }
            ],
            "name": "setStakingModule",
            "outputs": [],
            "stateMutability": "nonpayable",
            "type": "function"
        },
        {
            "inputs": [
                {
                    "internalType": "address",
                    "name": "a",
                    "type": "address"
                }
            ],
            "name": "setWhitelistModule",
            "outputs": [],
            "stateMutability": "nonpayable",
            "type": "function"
        },
        {
            "inputs": [
                {
                    "internalType": "uint256",
                    "name": "amt",
                    "type": "uint256"
                }
            ],
            "name": "stakeTokens",
            "outputs": [],
            "stateMutability": "nonpayable",
            "type": "function"
        },
        {
            "inputs": [],
            "name": "stakingModule",
            "outputs": [
                {
                    "internalType": "contract StakingRewards",
                    "name": "",
                    "type": "address"
                }
            ],
            "stateMutability": "view",
            "type": "function"
        },
        {
            "inputs": [
                {
                    "internalType": "bytes4",
                    "name": "interfaceId",
                    "type": "bytes4"
                }
            ],
            "name": "supportsInterface",
            "outputs": [
                {
                    "internalType": "bool",
                    "name": "",
                    "type": "bool"
                }
            ],
            "stateMutability": "view",
            "type": "function"
        },
        {
            "inputs": [
                {
                    "internalType": "address",
                    "name": "",
                    "type": "address"
                }
            ],
            "name": "tokenIndexPlusOne",
            "outputs": [
                {
                    "internalType": "uint256",
                    "name": "",
                    "type": "uint256"
                }
            ],
            "stateMutability": "view",
            "type": "function"
        },
        {
            "inputs": [],
            "name": "unpause",
            "outputs": [],
            "stateMutability": "nonpayable",
            "type": "function"
        },
        {
            "inputs": [],
            "name": "v2Factory",
            "outputs": [
                {
                    "internalType": "contract IUniswapV2Factory",
                    "name": "",
                    "type": "address"
                }
            ],
            "stateMutability": "view",
            "type": "function"
        },
        {
            "inputs": [
                {
                    "internalType": "address",
                    "name": "",
                    "type": "address"
                },
                {
                    "internalType": "address",
                    "name": "",
                    "type": "address"
                }
            ],
            "name": "vaultDeposits",
            "outputs": [
                {
                    "internalType": "uint256",
                    "name": "",
                    "type": "uint256"
                }
            ],
            "stateMutability": "view",
            "type": "function"
        },
        {
            "inputs": [
                {
                    "internalType": "address",
                    "name": "",
                    "type": "address"
                }
            ],
            "name": "vaultReleased",
            "outputs": [
                {
                    "internalType": "bool",
                    "name": "",
                    "type": "bool"
                }
            ],
            "stateMutability": "view",
            "type": "function"
        },
        {
            "inputs": [
                {
                    "internalType": "address",
                    "name": "",
                    "type": "address"
                }
            ],
            "name": "vaultTotal",
            "outputs": [
                {
                    "internalType": "uint256",
                    "name": "",
                    "type": "uint256"
                }
            ],
            "stateMutability": "view",
            "type": "function"
        },
        {
            "inputs": [],
            "name": "whitelistModule",
            "outputs": [
                {
                    "internalType": "contract WhitelistPresale",
                    "name": "",
                    "type": "address"
                }
            ],
            "stateMutability": "view",
            "type": "function"
        },
        {
            "inputs": [],
            "name": "withdrawCreatorFees",
            "outputs": [],
            "stateMutability": "nonpayable",
            "type": "function"
        },
        {
            "inputs": [
                {
                    "internalType": "address",
                    "name": "to",
                    "type": "address"
                }
            ],
            "name": "withdrawPlatformFees",
            "outputs": [],
            "stateMutability": "nonpayable",
            "type": "function"
        },
        {
            "inputs": [
                {
                    "internalType": "uint256",
                    "name": "amt",
                    "type": "uint256"
                }
            ],
            "name": "withdrawStake",
            "outputs": [],
            "stateMutability": "nonpayable",
            "type": "function"
        },
        {
            "stateMutability": "payable",
            "type": "receive"
        }
    ],
    "bytecode": "608080604052346102c6576080816163f5803803809161001f8285610324565b8339810103126102c6576100328161035b565b9061003f6020820161035b565b9161ffff61005b60606100546040860161036a565b940161036a565b9160ff19600154166001556001600255169161ffff8416830161ffff81116103105761ffff612710911610156102dd5760049360209363ffff00006003549260101b169163ffffffff1916171760035560018060a01b031660018060a01b0319600654161760065560018060a01b03168060018060a01b03196007541617600755604051928380926315ab88c960e31b82525afa9081156102d2575f91610294575b50600880546001600160a01b0319166001600160a01b0392909216919091179055335f9081525f5160206163d55f395f51905f52602052604090205460ff1615610257575b335f9081525f5160206163955f395f51905f52602052604090205460ff16156101f8575b335f9081525f5160206163b55f395f51905f52602052604090205460ff1615610199575b604051615ff6908161037f8239f35b335f8181525f5160206163b55f395f51905f5260205260408120805460ff1916600117905581907f97667070c54ef182b0f5858b034beac1b6f3089aa2d3188bb1e8929f4fa9b929905f5160206163755f395f51905f529080a461018a565b335f8181525f5160206163955f395f51905f5260205260408120805460ff1916600117905581907f65d7a28e3265b37a6474929f336521b332c1681b933f6cb9f3376673440d862a905f5160206163755f395f51905f529080a4610166565b335f8181525f5160206163d55f395f51905f5260205260408120805460ff1916600117905581905f5160206163755f395f51905f528180a4610142565b90506020813d6020116102ca575b816102af60209383610324565b810103126102c6576102c09061036a565b5f6100fd565b5f80fd5b3d91506102a2565b6040513d5f823e3d90fd5b60405162461bcd60e51b815260206004820152600b60248201526a08ccacae6a8dede90d2ced60ab1b6044820152606490fd5b634e487b7160e01b5f52601160045260245ffd5b601f909101601f19168101906001600160401b0382119082101761034757604052565b634e487b7160e01b5f52604160045260245ffd5b519061ffff821682036102c657565b51906001600160a01b03821682036102c65756fe608080604052600436101561001c575b50361561001a575f80fd5b005b5f905f3560e01c90816301ffc9a7146121b7575080630bcae1ac1461211257806322163b86146120f4578063248a9ca3146120c957806324bf2f1e14611fd857806325d5971f14611f845780632cc3dc6e14611ebd5780632f2ff15d14611dff57806335a62e6814611dc657806336568abe14611d335780633f4ba83a14611c9e57806349933e13146116c2578063504b82bf1461169957806352ce0fb01461165a5780635c975abb146116375780635e81e364146115fe5780635f6501ab146115ab578063634282af14611521578063692bf4a814610ef35780637547c7a314610e30578063768c044214610e075780637b573c5414610de557806383f26f3814610da55780638456cb5914610d4b5780638943b28e14610d235780638fea31b014610cfa57806391d1485414610cb15780639fd3af8b14610c52578063a0429de614610c12578063a217fddf14610bf6578063ad5c464814610bcd578063b4b57c3914610ba4578063c4f3e9d7146109ec578063c60b494f146109ac578063c748713e14610973578063cd30f038146108d4578063d547741f1461088e578063d9d0a5be1461076a578063dc4ec9be14610745578063e1cd04b4146106c3578063e5a8a12314610511578063e63ab1e9146104d6578063e9833c2f146104aa578063ec3889b514610414578063f464e7db146102bc578063f5b541a614610281578063f887ea40146102585763ff96092a0361000f5734610255578060031936011261025557602061ffff60035416604051908152f35b80fd5b50346102555780600319360112610255576007546040516001600160a01b039091168152602090f35b503461025557806003193601126102555760206040517f97667070c54ef182b0f5858b034beac1b6f3089aa2d3188bb1e8929f4fa9b9298152f35b5034610255576040366003190112610255576102d661223a565b602435906102e26129fa565b6102ea612a3e565b6001600160a01b038116808452600b6020526040842060058101805492949291670de0b6b3a764000084048084106103dc576103298161032f93612b60565b9361234a565b905561033d82303387612ad5565b84808280156103d2575b8280929181923390f1156103c7577ffbcd82ed9d16e1204c8698f6c31409250e7a91d35f141fe4ab721148052f70f0926040926103b39284519182526020820152857f16dd16959a056953a63cf14bf427881e762e54f03d86b864efea8238dd3b822f853393a361271e565b8151908152426020820152a2600160025580f35b6040513d86823e3d90fd5b6108fc9150610347565b60405162461bcd60e51b815260206004820152601060248201526f125b9cdd59999a58da595b9d14dbdb1960821b6044820152606490fd5b50346102555760203660031901126102555761042e61223a565b6104366128e1565b61043e612a3e565b600454801561047457828080809361046c958260045560018060a01b03165af16104666124f7565b50612526565b600160025580f35b60405162461bcd60e51b815260206004820152600e60248201526d4e6f506c6174666f726d4665657360901b6044820152606490fd5b50346102555760203660031901126102555760206104ce6104c961223a565b61271e565b604051908152f35b503461025557806003193601126102555760206040517f65d7a28e3265b37a6474929f336521b332c1681b933f6cb9f3376673440d862a8152f35b50346102555760203660031901126102555761052b61223a565b610533612a3e565b6001600160a01b0316808252600e602052604082205460ff161561069057808252600c60209081526040808420335f9081529252902054801561065f57818352600c6020526040832060018060a01b0333165f526020528260405f2055818352600a60205260408320545f19810190811161064b57906105d160026105ba6105d6946122b4565b50015491848652600d6020526040862054926123f0565b6123d2565b90670de0b6b3a7640000820291808304670de0b6b3a7640000149015171561063757610603823383612a92565b6040519182527fb1fd09750e7241fd2b620d8648c4b64ad833cb7d5966c13a8a09a81467681b5c60203393a3600160025580f35b634e487b7160e01b83526011600452602483fd5b634e487b7160e01b84526011600452602484fd5b60405162461bcd60e51b8152602060048201526009602482015268139bd1195c1bdcda5d60ba1b6044820152606490fd5b60405162461bcd60e51b815260206004820152600b60248201526a139bdd14995b19585cd95960aa1b6044820152606490fd5b50346102555780600319360112610255576106dc612a3e565b338152600560205260408120548015610710578180808061046c943382526005602052816040812055335af16104666124f7565b60405162461bcd60e51b815260206004820152600d60248201526c4e6f43726561746f724665657360981b6044820152606490fd5b5034610255578060031936011261025557602061ffff60035460101c16604051908152f35b5060a03660031901126102555761077f61223a565b602435906064356001600160a01b0381169081900361087b57836084356001600160401b03811161088a576107b890369060040161220a565b9360018060a01b03600f541691823b1561087b57610819928492604051809581948293636ce852df60e11b845260018060a01b03169a8b60048501528c602485015260443560448501528a606485015260a0608485015260a4840191612326565b039134905af1801561087f57610866575b505060405192835234602084015260408301527f43599fa4170a5a66483c3879de7c1549f90d4990dbe05e13daaf74a7031b863160603393a380f35b81610870916122f1565b61087b57835f61082a565b8380fd5b6040513d84823e3d90fd5b5080fd5b5034610255576040366003190112610255576108d16004356108ae612250565b906108cc6108c7825f525f602052600160405f20015490565b612938565b61297a565b80f35b5034610255576020366003190112610255576108ee61223a565b6108f661286a565b6001600160a01b0316808252600a60205260408220545f19810190811161063757600461092561092f926122b4565b5001544211612398565b808252600e60205260408220600160ff198254161790557fcb87b7d9f91bab86bc1853ddeb30b507bdf5e886a0784bb2f188b8c5887a31116020604051428152a280f35b5034610255576020366003190112610255576020906040906001600160a01b0361099b61223a565b168152600583522054604051908152f35b5034610255576020366003190112610255576109c661223a565b6109ce6128e1565b60018060a01b03166001600160601b0360a01b601054161760105580f35b50604036600319011261025557610a0161223a565b90610a0a612250565b91610a1361286a565b66071afd498d00003403610b74576001600160a01b0381811691908416821015610b6f57925b60065460405163e6a4390560e01b81526001600160a01b038681166004830152838116602483015290929116602083604481845afa928315610b64578593610b43575b506001600160a01b03831615610ac8575b50506020935060018060a01b031680917f4f2ce4e40f623ca765fc0167a25cb7842ceaafb8d82d3dec26ca0d0e0d2d48966040519480a38152f35b6040516364e329cb60e11b81526001600160a01b03968716600482015291909516602482015293602091508490604490829086905af1801561087f576020938391610b16575b505f80610a8d565b610b369150843d8611610b3c575b610b2e81836122f1565b810190612403565b5f610b0e565b503d610b24565b610b5d91935060203d602011610b3c57610b2e81836122f1565b915f610a7c565b6040513d87823e3d90fd5b610a39565b60405162461bcd60e51b815260206004820152600860248201526757726f6e6746656560c01b6044820152606490fd5b50346102555780600319360112610255576006546040516001600160a01b039091168152602090f35b50346102555780600319360112610255576008546040516001600160a01b039091168152602090f35b5034610255578060031936011261025557602090604051908152f35b503461025557602036600319011261025557610c2c61223a565b610c346128e1565b60018060a01b03166001600160601b0360a01b601154161760115580f35b503461025557806003193601126102555760105481906001600160a01b0316803b15610cae57818091600460405180948193631e8c5c8960e11b83525af1801561087f57610c9d5750f35b81610ca7916122f1565b6102555780f35b50fd5b5034610255576040366003190112610255576040610ccd612250565b91600435815280602052209060018060a01b03165f52602052602060ff60405f2054166040519015158152f35b5034610255578060031936011261025557600f546040516001600160a01b039091168152602090f35b50346102555760403660031901126102555760206104ce610d4261223a565b6024359061243a565b5034610255578060031936011261025557610d64612765565b610d6c6129fa565b600160ff19815416176001557f62e78cea01bee320cd4e420270b5ea74000d11b0c9f74754ebdbfc544b05a2586020604051338152a180f35b503461025557602036600319011261025557610dbf61223a565b610dc76128e1565b60018060a01b03166001600160601b0360a01b600f541617600f5580f35b5034610255578060031936011261025557602060405166071afd498d00008152f35b50346102555780600319360112610255576011546040516001600160a01b039091168152602090f35b503461025557602036600319011261025557600435610e4d6129fa565b60095415610edf57600982527f6e1540171b6c0c960b71a7020d9f60077f6af931a8bbf590da0223dacf75c7af54601054839291610e9b9183916001600160a01b0391821691339116612ad5565b6010546001600160a01b031690813b15610edb57829160248392604051948593849263534a7e1d60e11b845260048401525af1801561087f57610c9d5750f35b5050fd5b634e487b7160e01b82526032600452602482fd5b50606036600319011261025557610f0861223a565b602435906044356001600160a01b0381169081900361087b57610f296129fa565b610f31612a3e565b6001600160a01b038216808552600a60205260408520549093905f19810190811161150d57610f5f906122b4565b50848652600b60205260408620610f7b60048301544211612398565b610f85838661243a565b938434106114d65787610f98863461234a565b80159081156114a5575b505050670de0b6b3a764000084049260ff600182015460a01c1660028110156114915760011461143c575b50610fdd6005830193845461236b565b8355868852600b60205261271061100361ffff610ffc60408c20612cd5565b16876123f0565b04908061141f5788905b6110208261101b858a61234a565b61234a565b9061102d8460045461236b565b600455898b52600a60205260408b20545f19810190811161140b578b9161105485926122b4565b50600101546001600160a01b03168352600560205260408320805461107a90869061236b565b9055811580156113db575b5050505060405192835260208301526040820152867f5f3016edbdc7fdd9337fbde58cfd0b91bdc732c2c67cead807bc4302ccadb80060603393a36110cb833388612a92565b604051838152846020820152867fbf77fd13a39d14dc0da779342c14105c38d9a5d0c60f2caa22f5fd1d5525416d60403393a3857ffbcd82ed9d16e1204c8698f6c31409250e7a91d35f141fe4ab721148052f70f0604061112b8861271e565b8151908152426020820152a2600781019182549160ff831615918261139f575b505061115b575b86600160025580f35b60ff1916600117905560065460085460405163e6a4390560e01b81526001600160a01b03868116600483015291821660248201819052909590929091169060208680604481010381855afa958615611394578896611373575b506001600160a01b03861615611303575b505060075460405163095ea7b360e01b81526001600160a01b0390911660048201526024810183905291905060208280604481015b038189895af19182156112f8576060926112cb575b5060c460018060a01b036007541691604051948593849263f305d71960e01b845289600485015260248401528960448401528960648401523060848401524260a48401525af190816112a0575b5061126b575b80808080611152565b6001600160a01b0316907f4f2ce4e40f623ca765fc0167a25cb7842ceaafb8d82d3dec26ca0d0e0d2d48968380a35f80611262565b606090813d83116112c4575b6112b681836122f1565b8101031261087b575f61125c565b503d6112ac565b6112ec9060203d6020116112f1575b6112e481836122f1565b810190612422565b61120f565b503d6112da565b6040513d88823e3d90fd5b6040516364e329cb60e11b81526001600160a01b03918216600482015292166024830152919350906020908290604490829089905af18015610b64576111fa918691611354575b5092905f806111c5565b61136d915060203d602011610b3c57610b2e81836122f1565b5f61134a565b61138d91965060203d602011610b3c57610b2e81836122f1565b945f6111b4565b6040513d8a823e3d90fd5b54670de0b6b3a7640000808202935081159184041417156113c7576006015411155f8061114b565b634e487b7160e01b89526011600452602489fd5b8392839283928390611402575bf1156113f75789825f80611085565b6040513d8b823e3d90fd5b506108fc6113e8565b634e487b7160e01b8c52601160045260248cfd5b61271061143561ffff60035460101c16886123f0565b049061100d565b600261144c85600586015461236b565b9101541061145a575f610fcd565b60405162461bcd60e51b815260206004820152600f60248201526e149d5cda10d85c115e18d959591959608a1b6044820152606490fd5b634e487b7160e01b8a52602160045260248afd5b82809291819282906114cd575b3390f1156114c257875f80610fa2565b6040513d89823e3d90fd5b506108fc6114b2565b60405162461bcd60e51b815260206004820152600f60248201526e092dce6eaccccd2c6d2cadce88aa89608b1b6044820152606490fd5b634e487b7160e01b86526011600452602486fd5b503461025557602036600319011261025557600435906009548210156102555760c061154c836122b4565b5060018060a01b03815416906001810154906002810154611598600460ff6003850154169301549360405195865260018060a01b038116602087015260ff604087019160a01c166122e4565b60608401521515608083015260a0820152f35b50346102555760403660031901126102555760406115c761223a565b916115d0612250565b9260018060a01b03168152600c602052209060018060a01b03165f52602052602060405f2054604051908152f35b5034610255576020366003190112610255576020906040906001600160a01b0361162661223a565b168152600d83522054604051908152f35b5034610255578060031936011261025557602060ff600154166040519015158152f35b50346102555760203660031901126102555760209060ff906040906001600160a01b0361168561223a565b168152600e84522054166040519015158152f35b50346102555780600319360112610255576010546040516001600160a01b039091168152602090f35b503461025557610280366003190112610255576004356001600160401b03811161088a576116f4903690600401612287565b906024356001600160401b03811161087b57611714903690600401612287565b909260026044351015611c9a5760046084351015611c9a57610144359061ffff82168203611c9657610164359461ffff86168603611c9257610264356001600160401b038111611c8e5761176c903690600401612287565b9490956117776129fa565b61177f612a3e565b61178761286a565b6040519384611d108101106001600160401b03611d1087011117611c7a5792611809926117cc6117e2938796611d10613b74893960a0611d1089018181520191612378565b91611d10860183036020611d1088010152612378565b61024435611d10840160408101919091523060608201528082036080909101528587612378565b039086f0938415610b64576040518061073d8101106001600160401b0361073d83011117611c525761073d61588482396001600160a01b03861661073d82019081523360208201526102043560408201526102243560608201528190036080019087f080156112f8576001600160a01b0390811690611890906101e4359083908916612a92565b6040519081526001600160a01b038616907f2ee44d821b06c9aa990927d787f4adf9d8d3eb9bf798ef5c80415cd7a396560290602090a26040518060c08101106001600160401b0360c083011117611c525760c0810160405260018060a01b038616815260208101903382526040810160443581526064356060830152600160808301526101c43560a083015260095468010000000000000000811015611c7a5780600161194192016009556122b4565b939093611c6657825184546001600160a01b03199081166001600160a01b0392831617865591516001860180549093169116179055516002811015611c3e5760018301805460ff60a01b191660a092831b60ff60a01b1617905560608201516002840155608082015160038401805491151560ff1660ff1992909216919091179055600491015191015560095460018060a01b0386168752600a6020526040872055604051806101808101106001600160401b0361018083011117611c52576101808101604052608435815260a435602082015260c435604082015260e43560608201526101043560808201528660a08201526101243560c08201528660e082015261ffff831661010082015261ffff8216610120820152610184356101408201526101a43561016082015260018060a01b0386168752600b602052604087209080516004811015611c3e579160096101607f77d305a0c5091954b670e66b6db4ced4e89265e3d3bb3e087fcd7fb9d0f4f7fc96959361ffff9560209c5060ff801986541691161784558b810151600185015560408101516002850155606081015160038501556080810151600485015560a0810151600585015560c0810151600685015560078401611b2660e08301511515829060ff801983541691151516179055565b610100820151815462ffff0064ffff00000061012086015160181b169260081b169064ffffffff00191617179055610140810151600885015501519101558160405193611b75856044356122e4565b611b838a8601608435612266565b60a435604086015260c435606086015260e43560808601526101043560a08601526101243560c08601521660e084015216610100820152610184356101208201526101a4356101408201526101c4356101608201526101e435610180820152610204356101a0820152610224356101c0820152610244356101e082015261022061020082015280611c24339560018060a01b03881695610220840191612378565b0390a360016002556040516001600160a01b039091168152f35b634e487b7160e01b89526021600452602489fd5b634e487b7160e01b87526041600452602487fd5b634e487b7160e01b8a5260048a905260248afd5b634e487b7160e01b8a52604160045260248afd5b8780fd5b8680fd5b8580fd5b8480fd5b5034610255578060031936011261025557611cb7612765565b60015460ff811615611cf75760ff19166001557f5db9ee0a495bf2e6ff9c91a7834c1ba4fdd244a5e8aa4e537bd38aeae4b073aa6020604051338152a180f35b60405162461bcd60e51b815260206004820152601460248201527314185d5cd8589b194e881b9bdd081c185d5cd95960621b6044820152606490fd5b503461025557604036600319011261025557611d4d612250565b336001600160a01b03821603611d69576108d19060043561297a565b60405162461bcd60e51b815260206004820152602f60248201527f416363657373436f6e74726f6c3a2063616e206f6e6c792072656e6f756e636560448201526e103937b632b9903337b91039b2b63360891b6064820152608490fd5b5034610255576020366003190112610255576020906040906001600160a01b03611dee61223a565b168152600a83522054604051908152f35b503461025557604036600319011261025557600435611e1c612250565b90611e356108c7825f525f602052600160405f20015490565b808352602083815260408085206001600160a01b0385165f908152925290205460ff1615611e61578280f35b808352602083815260408085206001600160a01b03949094165f81815294909252909220805460ff191660011790553391907f2f8788117e7eff1d82e926ec794901d17c78024a50270940304540a733656f0d8480a45f808280f35b503461025557602036600319011261025557610180906040906001600160a01b03611ee661223a565b168152600b6020522060ff8154169060018101549061ffff6002820154600383015460048401546005850154906006860154926007870154946009600889015498015498611f37604051809c612266565b60208b015260408a01526060890152608088015260a087015260c086015260ff8116151560e0860152818160081c1661010086015260181c16610120840152610140830152610160820152f35b50346102555760203660031901126102555760105481906001600160a01b0316803b15610cae57818091602460405180948193632e1a7d4d60e01b835260043560048401525af1801561087f57610c9d5750f35b506020366003190112610255576001600160a01b03611ff561223a565b16808252600a60205260408220545f198101908111610637576120196004916122b4565b500154421161209657808252600c6020526040822060018060a01b0333165f5260205260405f2061204b34825461236b565b9055808252600d6020526040822061206434825461236b565b9055604051903482527f2df8a6513637b00c16fac19a51061303422765fbadb402cc90d7b42acee9cf7d60203393a380f35b60405162461bcd60e51b815260206004820152600b60248201526a15985d5b1d10db1bdcd95960aa1b6044820152606490fd5b50346102555760203660031901126102555760206104ce6004355f525f602052600160405f20015490565b50346102555780600319360112610255576020600454604051908152f35b50346121b35760403660031901126121b3576024356001600160401b0381116121b35761214390369060040161220a565b6011546001600160a01b031691823b156121b35761218a925f9283604051809681958294632f52ebb760e01b84526004356004850152604060248501526044840191612326565b03925af180156121a85761219c575080f35b61001a91505f906122f1565b6040513d5f823e3d90fd5b5f80fd5b346121b35760203660031901126121b3576004359063ffffffff60e01b82168092036121b357602091637965db0b60e01b81149081156121f9575b5015158152f35b6301ffc9a760e01b149050836121f2565b9181601f840112156121b3578235916001600160401b0383116121b3576020808501948460051b0101116121b357565b600435906001600160a01b03821682036121b357565b602435906001600160a01b03821682036121b357565b9060048210156122735752565b634e487b7160e01b5f52602160045260245ffd5b9181601f840112156121b3578235916001600160401b0383116121b357602083818601950101116121b357565b6009548110156122d05760095f52600560205f20910201905f90565b634e487b7160e01b5f52603260045260245ffd5b9060028210156122735752565b90601f801991011681019081106001600160401b0382111761231257604052565b634e487b7160e01b5f52604160045260245ffd5b81835290916001600160fb1b0383116121b35760209260051b809284830137010190565b9190820391821161235757565b634e487b7160e01b5f52601160045260245ffd5b9190820180921161235757565b908060209392818452848401375f828201840152601f01601f1916010190565b1561239f57565b60405162461bcd60e51b815260206004820152600b60248201526a5661756c7441637469766560a81b6044820152606490fd5b81156123dc570490565b634e487b7160e01b5f52601260045260245ffd5b8181029291811591840414171561235757565b908160209103126121b357516001600160a01b03811681036121b35790565b908160209103126121b3575180151581036121b35790565b6001600160a01b0381165f908152600b602052604090208054670de0b6b3a76400009093049260ff166004811015612273571561248857509061247f6124859261271e565b906123f0565b90565b90506005810154916124ad8160026124a46001860154836123f0565b940154946123f0565b925f19820182811161235757612485946124cd61247f926124d6956123f0565b60011c9061236b565b9061236b565b6001600160401b03811161231257601f01601f191660200190565b3d15612521573d90612508826124dc565b9161251660405193846122f1565b82523d5f602084013e565b606090565b1561252d57565b60405162461bcd60e51b815260206004820152601360248201527211551217d514905394d1915497d19052531151606a1b6044820152606490fd5b9080156126045781156125fe5781806001146125f6576002146125e55760208110610133831016604e8210600b841016176125e0576001905b600181116125b85750815f19048111612357570290565b91805f1904811161235757600183166125d7575b80029160011c6125a1565b809102906125cc565b900a90565b905060ff8111612357576001901b90565b505050600190565b50505f90565b5050600190565b5f8052600b6020527fdf7de25b7f1fd6d0b5205f0e18f1f35bd7b8d84cce336588d184533ce43a6f76805460ff16600481101561227357806126655750806124d660016124859301549160056002820154910154906123f0565b600181036126c6575061268160028201546005830154906123f0565b90677fffffffffffffff82116121b35760016126a59101549160401b600f0b612b19565b600f0b905f82126121b3576001600160401b036124859260401d16906123f0565b6002036126f357806124d660016124859301549161247f6002820154916003600582015491015490612568565b806124d6600161248593015491600261271560058301546004840154906123d2565b910154906123f0565b6001600160a01b03165f908152600b60205260409020805460ff16600481101561227357806126655750806124d660016124859301549160056002820154910154906123f0565b335f9081527ff7c9542c591017a21c74b6f3fab6263c7952fc0aaf9db4c22a2a04ddc7f8674f602052604090205460ff161561279d57565b612866602061284e60116127b03361395a565b6037846127dc7f65d7a28e3265b37a6474929f336521b332c1681b933f6cb9f3376673440d862a613a40565b6040519687947f416363657373436f6e74726f6c3a206163636f756e7420000000000000000000828701528051918291018587015e8401907001034b99036b4b9b9b4b733903937b6329607d1b84830152805192839101604883015e01015f838201520301601f1981018352826122f1565b60405162461bcd60e51b815291829160048301612bc3565b0390fd5b335f9081527fee57cd81e84075558e8fcc182a1f4393f91fc97f963a136e66b7f949a62f319f602052604090205460ff16156128a257565b612866602061284e60116128b53361395a565b6037846127dc7f97667070c54ef182b0f5858b034beac1b6f3089aa2d3188bb1e8929f4fa9b929613a40565b335f9081527fad3228b676f7d3cd4284a5443f17f1962b36e491b30a40b2405849e597ba5fb5602052604090205460ff161561291957565b612866602061284e601161292c3361395a565b6037846127dc5f613a40565b5f8181526020818152604080832033845290915290205460ff161561295a5750565b602061284e6011612866936037846127dc6129743361395a565b93613a40565b5f818152602081815260408083206001600160a01b038616845290915290205460ff166129a5575050565b5f818152602081815260408083206001600160a01b0395909516808452949091528120805460ff19169055339291907ff6391f5c32d9c69d2a47ea670b442974b53935d1edc7fd64eb21e047a839171b9080a4565b60ff60015416612a0657565b60405162461bcd60e51b815260206004820152601060248201526f14185d5cd8589b194e881c185d5cd95960821b6044820152606490fd5b6002805414612a4d5760028055565b60405162461bcd60e51b815260206004820152601f60248201527f5265656e7472616e637947756172643a207265656e7472616e742063616c6c006044820152606490fd5b60405163a9059cbb60e01b60208201526001600160a01b03929092166024830152604480830193909352918152612ad391612ace6064836122f1565b612bed565b565b6040516323b872dd60e01b60208201526001600160a01b039283166024820152929091166044830152606480830193909352918152612ad391612ace6084836122f1565b600f0b600160461b8112156121b357683fffffffffffffffff198112612b5b57700171547652b82fe1777d0ffda0d23a7d12612485910260801d600f0b612d5c565b505f90565b60ff81541660048110156122735715612b8057506124859061247f61260b565b600581015491612b9a8160026124a46001860154836123f0565b92600182018083116123575761248594612bba61247f926124d6956123f0565b60011c9061234a565b602060409281835280519182918282860152018484015e5f828201840152601f01601f1916010190565b90612c4d9160018060a01b03165f8060405193612c0b6040866122f1565b602085527f5361666545524332303a206c6f772d6c6576656c2063616c6c206661696c6564602086015260208151910182855af1612c476124f7565b91613ae2565b8051908115918215612cbb575b505015612c6357565b60405162461bcd60e51b815260206004820152602a60248201527f5361666545524332303a204552433230206f7065726174696f6e20646964206e6044820152691bdd081cdd58d8d9595960b21b6064820152608490fd5b612cce9250602080918301019101612422565b5f80612c5a565b6008810154804210612d4d5760098201549081421015612d3d576007612d0882612d0261ffff944261234a565b9461234a565b930154818160081c1691829160181c16039161ffff83116123575761ffff936105d16124d69286612d3996166123f0565b1690565b50506007015460181c61ffff1690565b506007015460081c61ffff1690565b80600f0b600160461b8112156121b357683fffffffffffffffff1981126125fe576001607f1b915f6780000000000000008216600f0b13613931575b5f6740000000000000008216600f0b13613914575b5f6720000000000000008216600f0b136138f7575b5f6710000000000000008216600f0b136138da575b5f6708000000000000008216600f0b136138bd575b5f6704000000000000008216600f0b136138a0575b5f6702000000000000008216600f0b13613883575b5f6701000000000000008216600f0b13613866575b5f66800000000000008216600f0b13613849575b5f66400000000000008216600f0b1361382c575b5f66200000000000008216600f0b1361380f575b5f66100000000000008216600f0b136137f2575b5f66080000000000008216600f0b136137d5575b5f66040000000000008216600f0b136137b8575b5f66020000000000008216600f0b1361379b575b5f66010000000000008216600f0b1361377e575b5f658000000000008216600f0b13613761575b5f654000000000008216600f0b13613744575b5f652000000000008216600f0b13613727575b5f651000000000008216600f0b1361370a575b5f650800000000008216600f0b136136ed575b5f650400000000008216600f0b136136d0575b5f650200000000008216600f0b136136b3575b5f650100000000008216600f0b13613696575b5f6480000000008216600f0b13613679575b5f6440000000008216600f0b1361365c575b5f6420000000008216600f0b1361363f575b5f6410000000008216600f0b13613622575b5f6408000000008216600f0b13613605575b5f6404000000008216600f0b136135e8575b5f6402000000008216600f0b136135cb575b5f6401000000008216600f0b136135ae575b5f63800000008216600f0b13613591575b5f63400000008216600f0b13613574575b5f63200000008216600f0b13613557575b5f63100000008216600f0b1361353a575b5f63080000008216600f0b1361351d575b5f63040000008216600f0b13613500575b5f63020000008216600f0b136134e3575b5f63010000008216600f0b136134c6575b5f628000008216600f0b136134a9575b5f624000008216600f0b1361348c575b5f622000008216600f0b1361346f575b5f621000008216600f0b13613452575b5f620800008216600f0b13613435575b5f620400008216600f0b13613418575b5f620200008216600f0b136133fb575b5f620100008216600f0b136133de575b5f6180008216600f0b136133c1575b5f6140008216600f0b136133a4575b5f6120008216600f0b13613387575b5f6110008216600f0b1361336a575b5f6108008216600f0b1361334d575b5f6104008216600f0b13613330575b5f6102008216600f0b13613313575b5f6101008216600f0b136132f6575b5f60808216600f0b136132d9575b5f60408216600f0b136132bc575b5f60208216600f0b1361329f575b5f60108216600f0b13613282575b5f60088216600f0b13613265575b5f60048216600f0b13613248575b5f60028216600f0b1361322a575b60015f9116600f0b1361320d575b60401d600f0b603f03600f0b1c6f7fffffffffffffffffffffffffffffff81116121b357600f0b90565b9070010000000000000000b17217f7d1cf79ab0260801c906131e3565b7001000000000000000162e42fefa39ef35890920260801c916131d5565b9170010000000000000002c5c85fdf473de6b20260801c916131c7565b91700100000000000000058b90bfbe8e7bcd6d0260801c916131b9565b917001000000000000000b17217f7d1cf79afa0260801c916131ab565b91700100000000000000162e42fefa39ef366f0260801c9161319d565b917001000000000000002c5c85fdf473de6eca0260801c9161318f565b9170010000000000000058b90bfbe8e7bce5440260801c91613181565b91700100000000000000b17217f7d1cf79e9490260801c91613173565b9170010000000000000162e42fefa39ef44d910260801c91613164565b91700100000000000002c5c85fdf473dea871f0260801c91613155565b917001000000000000058b90bfbe8e7bdcbe2e0260801c91613146565b9170010000000000000b17217f7d1cf7d83c1a0260801c91613137565b917001000000000000162e42fefa39f02b772c0260801c91613128565b9170010000000000002c5c85fdf473e242ea380260801c91613119565b91700100000000000058b90bfbe8e7cc35c3f00260801c9161310a565b917001000000000000b17217f7d1cfb72b45e10260801c916130fb565b91700100000000000162e42fefa39fe95583c20260801c916130eb565b917001000000000002c5c85fdf4741bea6e77e0260801c916130db565b9170010000000000058b90bfbe8e8b2d3d4ede0260801c916130cb565b91700100000000000b17217f7d1d351a389d400260801c916130bb565b9170010000000000162e42fefa3ae53369388c0260801c916130ab565b91700100000000002c5c85fdf477b662b269450260801c9161309b565b917001000000000058b90bfbe8f71cb4e4b33d0260801c9161308b565b9170010000000000b17217f7d20cf927c8e94c0260801c9161307b565b917001000000000162e42fefa494f1478fde050260801c9161306a565b9170010000000002c5c85fdf4b15de6f17eb0d0260801c91613059565b91700100000000058b90bfbe9ddbac5e109cce0260801c91613048565b917001000000000b17217f7d5a7716bba4a9ae0260801c91613037565b91700100000000162e42fefb2fed257559bdaa0260801c91613026565b917001000000002c5c85fdf84bd62ae30a74cc0260801c91613015565b9170010000000058b90bfbf8479bd5a81b51ad0260801c91613004565b91700100000000b17217f80f4ef5aadda455540260801c91612ff3565b9170010000000162e42ff0999ce3541b9fffcf0260801c91612fe1565b91700100000002c5c85fe31f35a6a30da1be500260801c91612fcf565b917001000000058b90bfcdee5acd3c1cedc8230260801c91612fbd565b9170010000000b17217fba9c739aa5819f44f90260801c91612fab565b917001000000162e42fff037df38aa2b219f060260801c91612f99565b9170010000002c5c8601cc6b9e94213c72737a0260801c91612f87565b91700100000058b90c0b48c6be5df846c5b2ef0260801c91612f75565b917001000000b1721835514b86e6d96efd1bfe0260801c91612f63565b91700100000162e430e5a18f6119e3c02282a50260801c91612f50565b917001000002c5c863b73f016468f6bac5ca2b0260801c91612f3d565b9170010000058b90cf1e6d97f9ca14dbcc16280260801c91612f2a565b91700100000b1721bcfc99d9f890ea069117630260801c91612f17565b9170010000162e43f4f831060e02d839a9d16d0260801c91612f04565b91700100002c5c89d5ec6ca4d7c8acc017b7c90260801c91612ef1565b917001000058b91b5bc9ae2eed81e9b7d4cfab0260801c91612ede565b9170010000b17255775c040618bf4a4ade83fc0260801c91612ecb565b917001000162e525ee054754457d59952920260260801c91612eb7565b9170010002c5cc37da9491d0985c348c68e7b30260801c91612ea3565b91700100058ba01fb9f96d6cacd4b180917c3d0260801c91612e8f565b917001000b175effdc76ba38e31671ca9397250260801c91612e7b565b91700100162f3904051fa128bca9c55c31e5df0260801c91612e67565b917001002c605e2e8cec506d21bfc89a23a00f0260801c91612e53565b9170010058c86da1c09ea1ff19d294cf2f679b0260801c91612e3f565b91700100b1afa5abcbed6129ab13ec11dc95430260801c91612e2b565b9170010163da9fb33356d84a66ae336dcdfa3f0260801c91612e16565b91700102c9a3e778060ee6f7caca4f7a29bde80260801c91612e01565b917001059b0d31585743ae7c548eb68ca417fd0260801c91612dec565b9170010b5586cf9890f6298b92b71842a983630260801c91612dd7565b917001172b83c7d517adcdf7c8c50eb14a791f0260801c91612dc2565b917001306fe0a31b7152de8d5a46305c85edec0260801c91612dad565b6fb504f333f9de6484597d89b3754abe9f9250612d98565b9081518110156122d0570160200190565b613964602a6124dc565b9061397260405192836122f1565b602a8252613980602a6124dc565b6020830190601f19013682378251156122d057603090538151600110156122d0576078602183015360295b600181116139ff57506139bb5790565b606460405162461bcd60e51b815260206004820152602060248201527f537472696e67733a20686578206c656e67746820696e73756666696369656e746044820152fd5b90600f811660108110156122d0576f181899199a1a9b1b9c1cb0b131b232b360811b901a613a2d8385613949565b5360041c908015612357575f19016139ab565b613a4a60426124dc565b90613a5860405192836122f1565b60428252613a6660426124dc565b6020830190601f19013682378251156122d057603090538151600110156122d0576078602183015360415b60018111613aa157506139bb5790565b90600f811660108110156122d0576f181899199a1a9b1b9c1cb0b131b232b360811b901a613acf8385613949565b5360041c908015612357575f1901613a91565b91929015613b445750815115613af6575090565b3b15613aff5790565b60405162461bcd60e51b815260206004820152601d60248201527f416464726573733a2063616c6c20746f206e6f6e2d636f6e74726163740000006044820152606490fd5b825190915015613b575750805190602001fd5b60405162461bcd60e51b81529081906128669060048301612bc356fe61016080604052346106df57611d10803803809161001d82856106e3565b8339810160a0828203126106df5781516001600160401b0381116106df5781610047918401610706565b60208301519092906001600160401b0381116106df5782610069918301610706565b60408201519060608301519260018060a01b038416948585036106df5760808201516001600160401b0381116106df576100a39201610706565b9460409485516100b387826106e3565b60018152603160f81b6020820190815283516001600160401b0381116104da57600354600181811c911680156106d5575b60208210146104bc57601f8111610672575b50806020601f821160011461060e575f91610603575b508160011b915f199060031b1c1916176003555b84516001600160401b0381116104da57600454600181811c911680156105f9575b60208210146104bc57601f8111610596575b50806020601f8211600114610532575f91610527575b508160011b915f199060031b1c1916176004555b610186846107a3565b610120526101938261092a565b6101405283516020850120918260e05251902080610100524660a05287519060208201927f8b73c3c69bb8fe3d512ecc4cf759cc79239f7b179b0ffacaa9a75d522b39400f84528983015260608201524660808201523060a082015260a081526101fe60c0826106e3565b5190206080523060c0526102113361075b565b1561051857600390511090811561050c575b506104fd5780156104ee5783516001600160401b0381116104da57600a54600181811c911680156104d0575b60208210146104bc57601f8111610459575b50602094601f82116001146103f6579481929394955f926103eb575b50508160011b915f199060031b1c191617600a555b33156103a75760025481810180911161039357600255335f525f602052825f2081815401905582519081525f7fddf252ad1be2c89b69c2b068fc378daa952ba7f163c4a11628f55a4df523b3ef60203393a3600954336001600160a01b0390911603610350576103019061075b565b516112ad9081610a63823960805181610f04015260a05181610fc1015260c05181610ece015260e05181610f5301526101005181610f790152610120518161064d015261014051816106760152f35b6064825162461bcd60e51b815260206004820152602060248201527f4f776e61626c653a2063616c6c6572206973206e6f7420746865206f776e65726044820152fd5b634e487b7160e01b5f52601160045260245ffd5b825162461bcd60e51b815260206004820152601f60248201527f45524332303a206d696e7420746f20746865207a65726f2061646472657373006044820152606490fd5b015190505f8061027d565b601f19821695600a5f52805f20915f5b88811061044157508360019596979810610429575b505050811b01600a55610292565b01515f1960f88460031b161c191690555f808061041b565b91926020600181928685015181550194019201610406565b600a5f527fc65a7bb8d6351c1cf70c95a316cc6a92839c986682d98bc35f958f4883f9d2a8601f830160051c810191602084106104b2575b601f0160051c01905b8181106104a75750610261565b5f815560010161049a565b9091508190610491565b634e487b7160e01b5f52602260045260245ffd5b90607f169061024f565b634e487b7160e01b5f52604160045260245ffd5b63c16f3a9360e01b5f5260045ffd5b639432241960e01b5f5260045ffd5b6003915051105f610223565b63d92e233d60e01b5f5260045ffd5b90508601515f610169565b60045f9081528181209250601f198416905b81811061057e57509083600194939210610566575b5050811b0160045561017d565b8801515f1960f88460031b161c191690555f80610559565b9192602060018192868d015181550194019201610544565b60045f527f8a35acfbc15ff81a39ae7d344fd709f28e8600b4aa8c65c6b64bfe7fe36bd19b601f830160051c810191602084106105ef575b601f0160051c01905b8181106105e45750610153565b5f81556001016105d7565b90915081906105ce565b90607f1690610141565b90508501515f61010c565b60035f9081528181209250601f198416905b81811061065a57509083600194939210610642575b5050811b01600355610120565b8701515f1960f88460031b161c191690555f80610635565b9192602060018192868c015181550194019201610620565b60035f527fc2575a0e9e593c00f959f8c92f12db2869c3395a3b0502d05e2516446f71f85b601f830160051c810191602084106106cb575b601f0160051c01905b8181106106c057506100f6565b5f81556001016106b3565b90915081906106aa565b90607f16906100e4565b5f80fd5b601f909101601f19168101906001600160401b038211908210176104da57604052565b81601f820112156106df578051906001600160401b0382116104da576040519261073a601f8401601f1916602001856106e3565b828452602083830101116106df57815f9260208093018386015e8301015290565b600980546001600160a01b039283166001600160a01b0319821681179092559091167f8be0079c531659141344cd1fd0a4f28419497f9722a3daafe3b4186f6b6457e05f80a3565b908151602081105f1461081d575090601f8151116107dd5760208151910151602082106107ce571790565b5f198260200360031b1b161790565b604460209160405192839163305a27a960e01b83528160048401528051918291826024860152018484015e5f828201840152601f01601f19168101030190fd5b6001600160401b0381116104da57600554600181811c91168015610920575b60208210146104bc57601f81116108ed575b50602092601f821160011461088c57928192935f92610881575b50508160011b915f199060031b1c19161760055560ff90565b015190505f80610868565b601f1982169360055f52805f20915f5b8681106108d557508360019596106108bd575b505050811b0160055560ff90565b01515f1960f88460031b161c191690555f80806108af565b9192602060018192868501518155019401920161089c565b60055f52601f60205f20910160051c810190601f830160051c015b818110610915575061084e565b5f8155600101610908565b90607f169061083c565b908151602081105f14610955575090601f8151116107dd5760208151910151602082106107ce571790565b6001600160401b0381116104da57600654600181811c91168015610a58575b60208210146104bc57601f8111610a25575b50602092601f82116001146109c457928192935f926109b9575b50508160011b915f199060031b1c19161760065560ff90565b015190505f806109a0565b601f1982169360065f52805f20915f5b868110610a0d57508360019596106109f5575b505050811b0160065560ff90565b01515f1960f88460031b161c191690555f80806109e7565b919260206001819286850151815501940192016109d4565b60065f52601f60205f20910160051c810190601f830160051c015b818110610a4d5750610986565b5f8155600101610a40565b90607f169061097456fe6080806040526004361015610012575f80fd5b5f3560e01c90816306fdde0314610a7057508063095ea7b314610a4a57806318160ddd14610a2d57806323b872dd14610970578063313ce567146109555780633644e5151461093357806339509351146108d15780633c130d90146107f757806370a08231146107c0578063715018a6146107655780637ecebe001461072d57806384b0196e146106355780638da5cb5b1461060d57806395d89b4114610568578063a457c2d7146104c5578063a9059cbb14610494578063c623674f146103b2578063d505accf14610213578063dd62ed3e146101c35763f2fde38b146100f8575f80fd5b346101bf5760203660031901126101bf57610111610b36565b610119610fe7565b6001600160a01b0316801561016b57600980546001600160a01b0319811683179091556001600160a01b03167f8be0079c531659141344cd1fd0a4f28419497f9722a3daafe3b4186f6b6457e05f80a3005b60405162461bcd60e51b815260206004820152602660248201527f4f776e61626c653a206e6577206f776e657220697320746865207a65726f206160448201526564647265737360d01b6064820152608490fd5b5f80fd5b346101bf5760403660031901126101bf576101dc610b36565b6101e4610b4c565b6001600160a01b039182165f908152600160209081526040808320949093168252928352819020549051908152f35b346101bf5760e03660031901126101bf5761022c610b36565b610234610b4c565b6044359060643560843560ff811681036101bf5781421161036d5761030761030f9160018060a01b03871693845f52600760205260405f20908154916001830190556040519060208201927f6e71edae12b1b97f4d1f60370fef10105fa2faae0126114a169c64845d6126c9845287604084015260018060a01b038916606084015289608084015260a083015260c082015260c081526102d560e082610c1b565b5190206102e0610ecb565b906040519161190160f01b83526002830152602282015260c43591604260a43592206110d9565b91909161115f565b6001600160a01b0316036103285761032692610c51565b005b60405162461bcd60e51b815260206004820152601e60248201527f45524332305065726d69743a20696e76616c6964207369676e617475726500006044820152606490fd5b60405162461bcd60e51b815260206004820152601d60248201527f45524332305065726d69743a206578706972656420646561646c696e650000006044820152606490fd5b346101bf575f3660031901126101bf576040515f600a546103d281610b62565b80845290600181169081156104705750600114610412575b61040e836103fa81850382610c1b565b604051918291602083526020830190610b12565b0390f35b600a5f9081527fc65a7bb8d6351c1cf70c95a316cc6a92839c986682d98bc35f958f4883f9d2a8939250905b808210610456575090915081016020016103fa6103ea565b91926001816020925483858801015201910190929161043e565b60ff191660208086019190915291151560051b840190910191506103fa90506103ea565b346101bf5760403660031901126101bf576104ba6104b0610b36565b6024359033610d55565b602060405160018152f35b346101bf5760403660031901126101bf576104de610b36565b60243590335f52600160205260405f2060018060a01b0382165f5260205260405f205491808310610515576104ba92039033610c51565b60405162461bcd60e51b815260206004820152602560248201527f45524332303a2064656372656173656420616c6c6f77616e63652062656c6f77604482015264207a65726f60d81b6064820152608490fd5b346101bf575f3660031901126101bf576040515f60045461058881610b62565b808452906001811690811561047057506001146105af5761040e836103fa81850382610c1b565b60045f9081527f8a35acfbc15ff81a39ae7d344fd709f28e8600b4aa8c65c6b64bfe7fe36bd19b939250905b8082106105f3575090915081016020016103fa6103ea565b9192600181602092548385880101520191019092916105db565b346101bf575f3660031901126101bf576009546040516001600160a01b039091168152602090f35b346101bf575f3660031901126101bf576106d16106717f000000000000000000000000000000000000000000000000000000000000000061103f565b61069a7f00000000000000000000000000000000000000000000000000000000000000006110a2565b60206106df604051926106ad8385610c1b565b5f84525f368137604051958695600f60f81b875260e08588015260e0870190610b12565b908582036040870152610b12565b4660608501523060808501525f60a085015283810360c08501528180845192838152019301915f5b82811061071657505050500390f35b835185528695509381019392810192600101610707565b346101bf5760203660031901126101bf576001600160a01b0361074e610b36565b165f526007602052602060405f2054604051908152f35b346101bf575f3660031901126101bf5761077d610fe7565b600980546001600160a01b031981169091555f906001600160a01b03167f8be0079c531659141344cd1fd0a4f28419497f9722a3daafe3b4186f6b6457e08280a3005b346101bf5760203660031901126101bf576001600160a01b036107e1610b36565b165f525f602052602060405f2054604051908152f35b346101bf575f3660031901126101bf5760405166697066733a2f2f60c81b60208201525f90600a5461082881610b62565b90600181169081156108ad5750600114610854575b506103fa8161040e9303601f198101835282610c1b565b9150600a5f527fc65a7bb8d6351c1cf70c95a316cc6a92839c986682d98bc35f958f4883f9d2a85f905b838210610896575050908101602701906103fa61083d565b60018160209254602785870101520191019061087e565b60ff1916602780850191909152821515909202830190910192506103fa905061083d565b346101bf5760403660031901126101bf576108ea610b36565b335f52600160205260405f2060018060a01b0382165f5260205260405f2054602435810180911161091f576104ba9133610c51565b634e487b7160e01b5f52601160045260245ffd5b346101bf575f3660031901126101bf57602061094d610ecb565b604051908152f35b346101bf575f3660031901126101bf57602060405160128152f35b346101bf5760603660031901126101bf57610989610b36565b610991610b4c565b6001600160a01b0382165f9081526001602081815260408084203385529091529091205492604435929184016109cc575b6104ba9350610d55565b8284106109e8576109e3836104ba95033383610c51565b6109c2565b60405162461bcd60e51b815260206004820152601d60248201527f45524332303a20696e73756666696369656e7420616c6c6f77616e63650000006044820152606490fd5b346101bf575f3660031901126101bf576020600254604051908152f35b346101bf5760403660031901126101bf576104ba610a66610b36565b6024359033610c51565b346101bf575f3660031901126101bf575f600354610a8d81610b62565b80845290600181169081156104705750600114610ab45761040e836103fa81850382610c1b565b60035f9081527fc2575a0e9e593c00f959f8c92f12db2869c3395a3b0502d05e2516446f71f85b939250905b808210610af8575090915081016020016103fa6103ea565b919260018160209254838588010152019101909291610ae0565b805180835260209291819084018484015e5f828201840152601f01601f1916010190565b600435906001600160a01b03821682036101bf57565b602435906001600160a01b03821682036101bf57565b90600182811c92168015610b90575b6020831014610b7c57565b634e487b7160e01b5f52602260045260245ffd5b91607f1691610b71565b5f9291815491610ba983610b62565b8083529260018116908115610bfe5750600114610bc557505050565b5f9081526020812093945091925b838310610be4575060209250010190565b600181602092949394548385870101520191019190610bd3565b915050602093945060ff929192191683830152151560051b010190565b90601f8019910116810190811067ffffffffffffffff821117610c3d57604052565b634e487b7160e01b5f52604160045260245ffd5b6001600160a01b0316908115610d04576001600160a01b0316918215610cb45760207f8c5be1e5ebec7d5bd14f71427d1e84f3dd0314c0f7b2291e5b200ac8c7c3b92591835f526001825260405f20855f5282528060405f2055604051908152a3565b60405162461bcd60e51b815260206004820152602260248201527f45524332303a20617070726f766520746f20746865207a65726f206164647265604482015261737360f01b6064820152608490fd5b60405162461bcd60e51b8152602060048201526024808201527f45524332303a20617070726f76652066726f6d20746865207a65726f206164646044820152637265737360e01b6064820152608490fd5b6001600160a01b0316908115610e78576001600160a01b0316918215610e2757815f525f60205260405f2054818110610dd357817fddf252ad1be2c89b69c2b068fc378daa952ba7f163c4a11628f55a4df523b3ef92602092855f525f84520360405f2055845f525f825260405f20818154019055604051908152a3565b60405162461bcd60e51b815260206004820152602660248201527f45524332303a207472616e7366657220616d6f756e7420657863656564732062604482015265616c616e636560d01b6064820152608490fd5b60405162461bcd60e51b815260206004820152602360248201527f45524332303a207472616e7366657220746f20746865207a65726f206164647260448201526265737360e81b6064820152608490fd5b60405162461bcd60e51b815260206004820152602560248201527f45524332303a207472616e736665722066726f6d20746865207a65726f206164604482015264647265737360d81b6064820152608490fd5b307f00000000000000000000000000000000000000000000000000000000000000006001600160a01b03161480610fbe575b15610f26577f000000000000000000000000000000000000000000000000000000000000000090565b60405160208101907f8b73c3c69bb8fe3d512ecc4cf759cc79239f7b179b0ffacaa9a75d522b39400f82527f000000000000000000000000000000000000000000000000000000000000000060408201527f000000000000000000000000000000000000000000000000000000000000000060608201524660808201523060a082015260a08152610fb860c082610c1b565b51902090565b507f00000000000000000000000000000000000000000000000000000000000000004614610efd565b6009546001600160a01b03163303610ffb57565b606460405162461bcd60e51b815260206004820152602060248201527f4f776e61626c653a2063616c6c6572206973206e6f7420746865206f776e65726044820152fd5b60ff81146110855760ff811690601f82116110765760405191611063604084610c1b565b6020808452838101919036833783525290565b632cd44ac360e21b5f5260045ffd5b5060405161109f81611098816005610b9a565b0382610c1b565b90565b60ff81146110c65760ff811690601f82116110765760405191611063604084610c1b565b5060405161109f81611098816006610b9a565b7f7fffffffffffffffffffffffffffffff5d576e7357a4501ddfe92f46681b20a08411611154576020935f9360ff60809460405194855216868401526040830152606082015282805260015afa15611149575f516001600160a01b0381161561114157905f90565b505f90600190565b6040513d5f823e3d90fd5b505050505f90600390565b600581101561126357806111705750565b600181036111bd5760405162461bcd60e51b815260206004820152601860248201527f45434453413a20696e76616c6964207369676e617475726500000000000000006044820152606490fd5b6002810361120a5760405162461bcd60e51b815260206004820152601f60248201527f45434453413a20696e76616c6964207369676e6174757265206c656e677468006044820152606490fd5b60031461121357565b60405162461bcd60e51b815260206004820152602260248201527f45434453413a20696e76616c6964207369676e6174757265202773272076616c604482015261756560f01b6064820152608490fd5b634e487b7160e01b5f52602160045260245ffdfea264697066735822122085a0ecb6eea6517c1301fbb54ef1fe6e4c690d994845e6661978c15f7c43837964736f6c634300081e0033610100346100d257601f61073d38819003918201601f19168301916001600160401b038311848410176100d6578084926080946040528339810103126100d2578051906001600160a01b03821682036100d25760208101516001600160a01b03811681036100d257606060408301519201519260805260a05260c05260e05260405161065290816100eb8239608051818181607e015281816101920152610453015260a0518181816101470152610381015260c05181818160c801526104bb015260e0518181816103c501526104990152f35b5f80fd5b634e487b7160e01b5f52604160045260245ffdfe6080806040526004361015610012575f80fd5b5f3560e01c9081630fb5a6b4146103b05750806338af3eed1461036c57806344b1231f1461034a57806386d1a69f1461010757806396132521146100eb578063be9a6555146100b15763fc0c546a14610069575f80fd5b346100ad575f3660031901126100ad576040517f00000000000000000000000000000000000000000000000000000000000000006001600160a01b03168152602090f35b5f80fd5b346100ad575f3660031901126100ad5760206040517f00000000000000000000000000000000000000000000000000000000000000008152f35b346100ad575f3660031901126100ad5760205f54604051908152f35b346100ad575f3660031901126100ad5761011f610438565b61012a5f548261042b565b90811561031a575f5560405163a9059cbb60e01b602082019081527f00000000000000000000000000000000000000000000000000000000000000006001600160a01b03166024830152604480830184905282529061018a6064826103e8565b6040805190927f00000000000000000000000000000000000000000000000000000000000000006001600160a01b0316925f9182916101c987866103e8565b602085527f5361666545524332303a206c6f772d6c6576656c2063616c6c206661696c65646020860152519082865af13d1561030d573d9067ffffffffffffffff82116102f957845161023a94909261022c601f8201601f1916602001856103e8565b83523d5f602085013e610568565b80519081159182156102d6575b50501561028057807fc35bc0b152cc4084b62942d2235605f7e5db6fc6217bc7ef532ba71acf7a58ce91519283524260208401523092a2005b5162461bcd60e51b815260206004820152602a60248201527f5361666545524332303a204552433230206f7065726174696f6e20646964206e6044820152691bdd081cdd58d8d9595960b21b6064820152608490fd5b81925090602091810103126100ad576020015180151581036100ad578380610247565b634e487b7160e01b5f52604160045260245ffd5b9161023a92606091610568565b60405162461bcd60e51b81526020600482015260086024820152674e6f546f6b656e7360c01b6044820152606490fd5b346100ad575f3660031901126100ad576020610364610438565b604051908152f35b346100ad575f3660031901126100ad576040517f00000000000000000000000000000000000000000000000000000000000000006001600160a01b03168152602090f35b346100ad575f3660031901126100ad576020907f00000000000000000000000000000000000000000000000000000000000000008152f35b90601f8019910116810190811067ffffffffffffffff8211176102f957604052565b9190820180921161041757565b634e487b7160e01b5f52601160045260245ffd5b9190820391821161041757565b6040516370a0823160e01b81523060048201526020816024817f00000000000000000000000000000000000000000000000000000000000000006001600160a01b03165afa801561055d575f90610529575b61049791505f549061040a565b7f0000000000000000000000000000000000000000000000000000000000000000907f00000000000000000000000000000000000000000000000000000000000000006104e4838261040a565b42106104f05750905090565b6104fa904261042b565b90818102918183041490151715610417578115610515570490565b634e487b7160e01b5f52601260045260245ffd5b506020813d602011610555575b81610543602093836103e8565b810103126100ad57610497905161048a565b3d9150610536565b6040513d5f823e3d90fd5b919290156105ca575081511561057c575090565b3b156105855790565b60405162461bcd60e51b815260206004820152601d60248201527f416464726573733a2063616c6c20746f206e6f6e2d636f6e74726163740000006044820152606490fd5b8251909150156105dd5750805190602001fd5b604460209160405192839162461bcd60e51b83528160048401528051918291826024860152018484015e5f828201840152601f01601f19168101030190fdfea2646970667358221220b7c3bb04ab1d67050139ee8861519ed35c486d5f9b7d564a4e04d7574a0a839c64736f6c634300081e0033a2646970667358221220d31ec6b64b9db6e3f37d6211420532f0fa070b8fcd6f2defc2586e406997453d64736f6c634300081e00332f8788117e7eff1d82e926ec794901d17c78024a50270940304540a733656f0df7c9542c591017a21c74b6f3fab6263c7952fc0aaf9db4c22a2a04ddc7f8674fee57cd81e84075558e8fcc182a1f4393f91fc97f963a136e66b7f949a62f319fad3228b676f7d3cd4284a5443f17f1962b36e491b30a40b2405849e597ba5fb5",
    "sourcePath": "d:/NFT-MarketPlace/Contracts/my-meme-launcher/contracts/MemeCoinFactory.sol",
    "compiler": {
        "name": "solc",
        "version": "0.8.30+commit.73712a01"
    },
    "functionHashes": {
        "DEFAULT_ADMIN_ROLE()": "a217fddf",
        "OPERATOR_ROLE()": "f5b541a6",
        "PAUSER_ROLE()": "e63ab1e9",
        "POOL_CREATION_FEE()": "7b573c54",
        "WETH()": "ad5c4648",
        "airdropModule()": "768c0442",
        "allTokens(uint256)": "634282af",
        "buyPresale(address,uint256,uint256,address,bytes32[])": "d9d0a5be",
        "buyToken(address,uint256,address)": "692bf4a8",
        "claimAirdrop(uint256,bytes32[])": "0bcae1ac",
        "claimStakeReward()": "9fd3af8b",
        "claimVault(address)": "e5a8a123",
        "costToBuy(address,uint256)": "8943b28e",
        "createMemeCoin(string,string,uint8,uint256,uint8,uint256,uint256,uint256,uint256,uint256,uint16,uint16,uint256,uint256,uint256,uint256,uint256,uint256,uint256,string)": "49933e13",
        "createV2Pool(address,address)": "c4f3e9d7",
        "creatorFeesAccrued(address)": "c748713e",
        "currentPrice(address)": "e9833c2f",
        "curves(address)": "2cc3dc6e",
        "depositVault(address)": "24bf2f1e",
        "getRoleAdmin(bytes32)": "248a9ca3",
        "grantRole(bytes32,address)": "2f2ff15d",
        "hasRole(bytes32,address)": "91d14854",
        "pause()": "8456cb59",
        "paused()": "5c975abb",
        "platformFeeBP()": "ff96092a",
        "platformFeesAccrued()": "22163b86",
        "referralFeeBP()": "dc4ec9be",
        "releaseVault(address)": "cd30f038",
        "renounceRole(bytes32,address)": "36568abe",
        "revokeRole(bytes32,address)": "d547741f",
        "router()": "f887ea40",
        "sellToken(address,uint256)": "f464e7db",
        "setAirdropModule(address)": "a0429de6",
        "setStakingModule(address)": "c60b494f",
        "setWhitelistModule(address)": "83f26f38",
        "stakeTokens(uint256)": "7547c7a3",
        "stakingModule()": "504b82bf",
        "supportsInterface(bytes4)": "01ffc9a7",
        "tokenIndexPlusOne(address)": "35a62e68",
        "unpause()": "3f4ba83a",
        "v2Factory()": "b4b57c39",
        "vaultDeposits(address,address)": "5f6501ab",
        "vaultReleased(address)": "52ce0fb0",
        "vaultTotal(address)": "5e81e364",
        "whitelistModule()": "8fea31b0",
        "withdrawCreatorFees()": "e1cd04b4",
        "withdrawPlatformFees(address)": "ec3889b5",
        "withdrawStake(uint256)": "25d5971f"
    },
    "gasEstimates": {
        "creation": {
            "codeDepositCost": "4913200",
            "executionCost": "infinite",
            "totalCost": "infinite"
        },
        "external": {
            "": "1146",
            "DEFAULT_ADMIN_ROLE()": "802",
            "OPERATOR_ROLE()": "1151",
            "PAUSER_ROLE()": "1063",
            "POOL_CREATION_FEE()": "623",
            "WETH()": "2948",
            "airdropModule()": "2728",
            "allTokens(uint256)": "15635",
            "buyPresale(address,uint256,uint256,address,bytes32[])": "infinite",
            "buyToken(address,uint256,address)": "infinite",
            "claimAirdrop(uint256,bytes32[])": "infinite",
            "claimStakeReward()": "infinite",
            "claimVault(address)": "infinite",
            "costToBuy(address,uint256)": "infinite",
            "createMemeCoin(string,string,uint8,uint256,uint8,uint256,uint256,uint256,uint256,uint256,uint16,uint16,uint256,uint256,uint256,uint256,uint256,uint256,uint256,string)": "infinite",
            "createV2Pool(address,address)": "infinite",
            "creatorFeesAccrued(address)": "3166",
            "currentPrice(address)": "infinite",
            "curves(address)": "21817",
            "depositVault(address)": "infinite",
            "getRoleAdmin(bytes32)": "2414",
            "grantRole(bytes32,address)": "infinite",
            "hasRole(bytes32,address)": "3066",
            "pause()": "infinite",
            "paused()": "2584",
            "platformFeeBP()": "3298",
            "platformFeesAccrued()": "2308",
            "referralFeeBP()": "3112",
            "releaseVault(address)": "infinite",
            "renounceRole(bytes32,address)": "29035",
            "revokeRole(bytes32,address)": "infinite",
            "router()": "3300",
            "sellToken(address,uint256)": "infinite",
            "setAirdropModule(address)": "infinite",
            "setStakingModule(address)": "infinite",
            "setWhitelistModule(address)": "infinite",
            "stakeTokens(uint256)": "infinite",
            "stakingModule()": "2552",
            "supportsInterface(bytes4)": "275",
            "tokenIndexPlusOne(address)": "2594",
            "unpause()": "infinite",
            "v2Factory()": "2970",
            "vaultDeposits(address,address)": "2922",
            "vaultReleased(address)": "2719",
            "vaultTotal(address)": "2748",
            "whitelistModule()": "2838",
            "withdrawCreatorFees()": "infinite",
            "withdrawPlatformFees(address)": "infinite",
            "withdrawStake(uint256)": "infinite"
        },
        "internal": {
            "_calcRefund(struct MemeCoinFactory.CurveInfo storage pointer,address,uint256)": "infinite",
            "_currentFeeBP(struct MemeCoinFactory.CurveInfo storage pointer)": "infinite",
            "_distributeFees(address,uint256,address)": "infinite"
        }
    }
}