{
    "contractName": "MemeCoinFactory",
    "abi": [
        {
            "inputs": [
                {
                    "internalType": "uint16",
                    "name": "_platformFeeBP",
                    "type": "uint16"
                },
                {
                    "internalType": "uint16",
                    "name": "_referralFeeBP",
                    "type": "uint16"
                }
            ],
            "stateMutability": "nonpayable",
            "type": "constructor"
        },
        {
            "inputs": [],
            "name": "ExceedsCap",
            "type": "error"
        },
        {
            "inputs": [],
            "name": "FeesTooHigh",
            "type": "error"
        },
        {
            "inputs": [],
            "name": "IncorrectETH",
            "type": "error"
        },
        {
            "inputs": [],
            "name": "InvalidHelper",
            "type": "error"
        },
        {
            "inputs": [],
            "name": "NoCreatorFees",
            "type": "error"
        },
        {
            "inputs": [],
            "name": "NoETH",
            "type": "error"
        },
        {
            "inputs": [],
            "name": "NoFees",
            "type": "error"
        },
        {
            "inputs": [],
            "name": "NotAuthorized",
            "type": "error"
        },
        {
            "inputs": [],
            "name": "NotForSale",
            "type": "error"
        },
        {
            "inputs": [],
            "name": "NotInPresale",
            "type": "error"
        },
        {
            "inputs": [],
            "name": "NotLaunched",
            "type": "error"
        },
        {
            "inputs": [],
            "name": "NotWhitelisted",
            "type": "error"
        },
        {
            "inputs": [],
            "name": "PriceZero",
            "type": "error"
        },
        {
            "inputs": [],
            "name": "ReferralFailed",
            "type": "error"
        },
        {
            "inputs": [
                {
                    "internalType": "address",
                    "name": "token",
                    "type": "address"
                }
            ],
            "name": "TokenSalePaused",
            "type": "error"
        },
        {
            "inputs": [],
            "name": "ZeroAmount",
            "type": "error"
        },
        {
            "anonymous": false,
            "inputs": [
                {
                    "indexed": true,
                    "internalType": "address",
                    "name": "token",
                    "type": "address"
                },
                {
                    "indexed": true,
                    "internalType": "address",
                    "name": "buyer",
                    "type": "address"
                },
                {
                    "indexed": false,
                    "internalType": "uint256",
                    "name": "amountAtomic",
                    "type": "uint256"
                },
                {
                    "indexed": false,
                    "internalType": "uint256",
                    "name": "costWei",
                    "type": "uint256"
                },
                {
                    "indexed": true,
                    "internalType": "address",
                    "name": "referrer",
                    "type": "address"
                },
                {
                    "indexed": false,
                    "internalType": "uint256",
                    "name": "platformShare",
                    "type": "uint256"
                },
                {
                    "indexed": false,
                    "internalType": "uint256",
                    "name": "referralShare",
                    "type": "uint256"
                },
                {
                    "indexed": false,
                    "internalType": "uint256",
                    "name": "creatorShare",
                    "type": "uint256"
                }
            ],
            "name": "Bought",
            "type": "event"
        },
        {
            "anonymous": false,
            "inputs": [
                {
                    "indexed": true,
                    "internalType": "address",
                    "name": "creator",
                    "type": "address"
                },
                {
                    "indexed": false,
                    "internalType": "uint256",
                    "name": "amount",
                    "type": "uint256"
                }
            ],
            "name": "CreatorFeesWithdrawn",
            "type": "event"
        },
        {
            "anonymous": false,
            "inputs": [
                {
                    "indexed": true,
                    "internalType": "address",
                    "name": "helper",
                    "type": "address"
                }
            ],
            "name": "DexHelperSet",
            "type": "event"
        },
        {
            "anonymous": false,
            "inputs": [
                {
                    "indexed": true,
                    "internalType": "address",
                    "name": "to",
                    "type": "address"
                },
                {
                    "indexed": false,
                    "internalType": "uint256",
                    "name": "amount",
                    "type": "uint256"
                }
            ],
            "name": "ETHRescued",
            "type": "event"
        },
        {
            "anonymous": false,
            "inputs": [
                {
                    "indexed": false,
                    "internalType": "uint16",
                    "name": "newPlatformBP",
                    "type": "uint16"
                },
                {
                    "indexed": false,
                    "internalType": "uint16",
                    "name": "newReferralBP",
                    "type": "uint16"
                }
            ],
            "name": "FeesUpdated",
            "type": "event"
        },
        {
            "anonymous": false,
            "inputs": [
                {
                    "indexed": true,
                    "internalType": "address",
                    "name": "token",
                    "type": "address"
                },
                {
                    "indexed": false,
                    "internalType": "bool",
                    "name": "active",
                    "type": "bool"
                }
            ],
            "name": "ListingActiveToggled",
            "type": "event"
        },
        {
            "anonymous": false,
            "inputs": [
                {
                    "indexed": false,
                    "internalType": "address",
                    "name": "account",
                    "type": "address"
                }
            ],
            "name": "Paused",
            "type": "event"
        },
        {
            "anonymous": false,
            "inputs": [
                {
                    "indexed": false,
                    "internalType": "bytes32",
                    "name": "newRoot",
                    "type": "bytes32"
                }
            ],
            "name": "PresaleRootUpdated",
            "type": "event"
        },
        {
            "anonymous": false,
            "inputs": [
                {
                    "indexed": true,
                    "internalType": "bytes32",
                    "name": "role",
                    "type": "bytes32"
                },
                {
                    "indexed": true,
                    "internalType": "bytes32",
                    "name": "previousAdminRole",
                    "type": "bytes32"
                },
                {
                    "indexed": true,
                    "internalType": "bytes32",
                    "name": "newAdminRole",
                    "type": "bytes32"
                }
            ],
            "name": "RoleAdminChanged",
            "type": "event"
        },
        {
            "anonymous": false,
            "inputs": [
                {
                    "indexed": true,
                    "internalType": "bytes32",
                    "name": "role",
                    "type": "bytes32"
                },
                {
                    "indexed": true,
                    "internalType": "address",
                    "name": "account",
                    "type": "address"
                },
                {
                    "indexed": true,
                    "internalType": "address",
                    "name": "sender",
                    "type": "address"
                }
            ],
            "name": "RoleGranted",
            "type": "event"
        },
        {
            "anonymous": false,
            "inputs": [
                {
                    "indexed": true,
                    "internalType": "bytes32",
                    "name": "role",
                    "type": "bytes32"
                },
                {
                    "indexed": true,
                    "internalType": "address",
                    "name": "account",
                    "type": "address"
                },
                {
                    "indexed": true,
                    "internalType": "address",
                    "name": "sender",
                    "type": "address"
                }
            ],
            "name": "RoleRevoked",
            "type": "event"
        },
        {
            "anonymous": false,
            "inputs": [
                {
                    "indexed": true,
                    "internalType": "address",
                    "name": "token",
                    "type": "address"
                }
            ],
            "name": "SaleEnded",
            "type": "event"
        },
        {
            "anonymous": false,
            "inputs": [
                {
                    "indexed": true,
                    "internalType": "address",
                    "name": "token",
                    "type": "address"
                },
                {
                    "indexed": true,
                    "internalType": "address",
                    "name": "creator",
                    "type": "address"
                },
                {
                    "indexed": false,
                    "internalType": "uint256",
                    "name": "priceWei",
                    "type": "uint256"
                },
                {
                    "indexed": false,
                    "internalType": "string",
                    "name": "description",
                    "type": "string"
                },
                {
                    "indexed": false,
                    "internalType": "string",
                    "name": "ipfsHash",
                    "type": "string"
                }
            ],
            "name": "TokenCreated",
            "type": "event"
        },
        {
            "anonymous": false,
            "inputs": [
                {
                    "indexed": true,
                    "internalType": "address",
                    "name": "token",
                    "type": "address"
                }
            ],
            "name": "TokenPaused",
            "type": "event"
        },
        {
            "anonymous": false,
            "inputs": [
                {
                    "indexed": true,
                    "internalType": "address",
                    "name": "token",
                    "type": "address"
                },
                {
                    "indexed": false,
                    "internalType": "uint256",
                    "name": "amount",
                    "type": "uint256"
                }
            ],
            "name": "TokenRescued",
            "type": "event"
        },
        {
            "anonymous": false,
            "inputs": [
                {
                    "indexed": true,
                    "internalType": "address",
                    "name": "token",
                    "type": "address"
                }
            ],
            "name": "TokenUnpaused",
            "type": "event"
        },
        {
            "anonymous": false,
            "inputs": [
                {
                    "indexed": false,
                    "internalType": "address",
                    "name": "account",
                    "type": "address"
                }
            ],
            "name": "Unpaused",
            "type": "event"
        },
        {
            "anonymous": false,
            "inputs": [
                {
                    "indexed": true,
                    "internalType": "address",
                    "name": "token",
                    "type": "address"
                },
                {
                    "indexed": false,
                    "internalType": "uint256",
                    "name": "amount",
                    "type": "uint256"
                }
            ],
            "name": "UnsoldReclaimed",
            "type": "event"
        },
        {
            "anonymous": false,
            "inputs": [
                {
                    "indexed": true,
                    "internalType": "address",
                    "name": "token",
                    "type": "address"
                },
                {
                    "indexed": true,
                    "internalType": "address",
                    "name": "user",
                    "type": "address"
                }
            ],
            "name": "UserWhitelisted",
            "type": "event"
        },
        {
            "stateMutability": "payable",
            "type": "fallback"
        },
        {
            "inputs": [],
            "name": "DEFAULT_ADMIN_ROLE",
            "outputs": [
                {
                    "internalType": "bytes32",
                    "name": "",
                    "type": "bytes32"
                }
            ],
            "stateMutability": "view",
            "type": "function"
        },
        {
            "inputs": [],
            "name": "OPERATOR_ROLE",
            "outputs": [
                {
                    "internalType": "bytes32",
                    "name": "",
                    "type": "bytes32"
                }
            ],
            "stateMutability": "view",
            "type": "function"
        },
        {
            "inputs": [],
            "name": "PAUSER_ROLE",
            "outputs": [
                {
                    "internalType": "bytes32",
                    "name": "",
                    "type": "bytes32"
                }
            ],
            "stateMutability": "view",
            "type": "function"
        },
        {
            "inputs": [
                {
                    "internalType": "address",
                    "name": "token_",
                    "type": "address"
                },
                {
                    "internalType": "address[]",
                    "name": "users",
                    "type": "address[]"
                }
            ],
            "name": "addToWhitelist",
            "outputs": [],
            "stateMutability": "nonpayable",
            "type": "function"
        },
        {
            "inputs": [
                {
                    "internalType": "address",
                    "name": "token_",
                    "type": "address"
                },
                {
                    "internalType": "uint256",
                    "name": "amountToken_",
                    "type": "uint256"
                }
            ],
            "name": "addTokenLiquidity",
            "outputs": [],
            "stateMutability": "payable",
            "type": "function"
        },
        {
            "inputs": [
                {
                    "internalType": "uint256",
                    "name": "",
                    "type": "uint256"
                }
            ],
            "name": "allTokens",
            "outputs": [
                {
                    "internalType": "address",
                    "name": "token",
                    "type": "address"
                },
                {
                    "internalType": "address",
                    "name": "creator",
                    "type": "address"
                },
                {
                    "internalType": "uint256",
                    "name": "priceWei",
                    "type": "uint256"
                },
                {
                    "internalType": "string",
                    "name": "description",
                    "type": "string"
                },
                {
                    "internalType": "string",
                    "name": "ipfsHash",
                    "type": "string"
                },
                {
                    "internalType": "bool",
                    "name": "active",
                    "type": "bool"
                }
            ],
            "stateMutability": "view",
            "type": "function"
        },
        {
            "inputs": [
                {
                    "internalType": "address",
                    "name": "token_",
                    "type": "address"
                },
                {
                    "internalType": "uint256",
                    "name": "amountAtomic",
                    "type": "uint256"
                },
                {
                    "internalType": "uint256",
                    "name": "maxAmount",
                    "type": "uint256"
                },
                {
                    "internalType": "address",
                    "name": "ref",
                    "type": "address"
                },
                {
                    "internalType": "bytes32[]",
                    "name": "proof",
                    "type": "bytes32[]"
                }
            ],
            "name": "buyPresale",
            "outputs": [],
            "stateMutability": "payable",
            "type": "function"
        },
        {
            "inputs": [
                {
                    "internalType": "address",
                    "name": "token_",
                    "type": "address"
                },
                {
                    "internalType": "uint256",
                    "name": "amountAtomic",
                    "type": "uint256"
                },
                {
                    "internalType": "address",
                    "name": "referrer",
                    "type": "address"
                }
            ],
            "name": "buyToken",
            "outputs": [],
            "stateMutability": "payable",
            "type": "function"
        },
        {
            "inputs": [
                {
                    "internalType": "address",
                    "name": "factory_",
                    "type": "address"
                },
                {
                    "internalType": "address",
                    "name": "router_",
                    "type": "address"
                }
            ],
            "name": "configureDex",
            "outputs": [],
            "stateMutability": "nonpayable",
            "type": "function"
        },
        {
            "inputs": [
                {
                    "internalType": "string",
                    "name": "name_",
                    "type": "string"
                },
                {
                    "internalType": "string",
                    "name": "symbol_",
                    "type": "string"
                },
                {
                    "internalType": "string",
                    "name": "description_",
                    "type": "string"
                },
                {
                    "internalType": "uint256",
                    "name": "totalSupply_",
                    "type": "uint256"
                },
                {
                    "internalType": "uint256",
                    "name": "priceWei_",
                    "type": "uint256"
                },
                {
                    "internalType": "string",
                    "name": "ipfsHash_",
                    "type": "string"
                }
            ],
            "name": "createMemeCoin",
            "outputs": [
                {
                    "internalType": "address",
                    "name": "tokenAddr",
                    "type": "address"
                }
            ],
            "stateMutability": "nonpayable",
            "type": "function"
        },
        {
            "inputs": [
                {
                    "internalType": "address",
                    "name": "token_",
                    "type": "address"
                }
            ],
            "name": "createPair",
            "outputs": [],
            "stateMutability": "nonpayable",
            "type": "function"
        },
        {
            "inputs": [
                {
                    "internalType": "address",
                    "name": "",
                    "type": "address"
                }
            ],
            "name": "creatorFeesAccrued",
            "outputs": [
                {
                    "internalType": "uint256",
                    "name": "",
                    "type": "uint256"
                }
            ],
            "stateMutability": "view",
            "type": "function"
        },
        {
            "inputs": [],
            "name": "dexHelper",
            "outputs": [
                {
                    "internalType": "contract IMemeCoinDEXHelper",
                    "name": "",
                    "type": "address"
                }
            ],
            "stateMutability": "view",
            "type": "function"
        },
        {
            "inputs": [],
            "name": "emergencyWithdrawETH",
            "outputs": [],
            "stateMutability": "nonpayable",
            "type": "function"
        },
        {
            "inputs": [
                {
                    "internalType": "address",
                    "name": "token_",
                    "type": "address"
                }
            ],
            "name": "endSale",
            "outputs": [],
            "stateMutability": "nonpayable",
            "type": "function"
        },
        {
            "inputs": [],
            "name": "getAllTokenInfo",
            "outputs": [
                {
                    "internalType": "address[]",
                    "name": "tokens",
                    "type": "address[]"
                },
                {
                    "internalType": "address[]",
                    "name": "creators",
                    "type": "address[]"
                },
                {
                    "internalType": "uint256[]",
                    "name": "priceWeis",
                    "type": "uint256[]"
                },
                {
                    "internalType": "string[]",
                    "name": "descriptions",
                    "type": "string[]"
                },
                {
                    "internalType": "string[]",
                    "name": "ipfsHashes",
                    "type": "string[]"
                },
                {
                    "internalType": "bool[]",
                    "name": "actives",
                    "type": "bool[]"
                },
                {
                    "internalType": "uint256[]",
                    "name": "totalSupplies",
                    "type": "uint256[]"
                },
                {
                    "internalType": "uint256[]",
                    "name": "unsoldSupplies",
                    "type": "uint256[]"
                }
            ],
            "stateMutability": "view",
            "type": "function"
        },
        {
            "inputs": [
                {
                    "internalType": "bytes32",
                    "name": "role",
                    "type": "bytes32"
                }
            ],
            "name": "getRoleAdmin",
            "outputs": [
                {
                    "internalType": "bytes32",
                    "name": "",
                    "type": "bytes32"
                }
            ],
            "stateMutability": "view",
            "type": "function"
        },
        {
            "inputs": [
                {
                    "internalType": "address",
                    "name": "token_",
                    "type": "address"
                }
            ],
            "name": "getTokenInfoByAddress",
            "outputs": [
                {
                    "internalType": "address",
                    "name": "creator",
                    "type": "address"
                },
                {
                    "internalType": "uint256",
                    "name": "priceWei",
                    "type": "uint256"
                },
                {
                    "internalType": "string",
                    "name": "description",
                    "type": "string"
                },
                {
                    "internalType": "string",
                    "name": "ipfsHash",
                    "type": "string"
                },
                {
                    "internalType": "bool",
                    "name": "active",
                    "type": "bool"
                },
                {
                    "internalType": "uint256",
                    "name": "totalSupply",
                    "type": "uint256"
                },
                {
                    "internalType": "uint256",
                    "name": "unsoldSupply",
                    "type": "uint256"
                }
            ],
            "stateMutability": "view",
            "type": "function"
        },
        {
            "inputs": [
                {
                    "internalType": "uint256",
                    "name": "start",
                    "type": "uint256"
                },
                {
                    "internalType": "uint256",
                    "name": "count",
                    "type": "uint256"
                }
            ],
            "name": "getTokens",
            "outputs": [
                {
                    "components": [
                        {
                            "internalType": "address",
                            "name": "token",
                            "type": "address"
                        },
                        {
                            "internalType": "address",
                            "name": "creator",
                            "type": "address"
                        },
                        {
                            "internalType": "uint256",
                            "name": "priceWei",
                            "type": "uint256"
                        },
                        {
                            "internalType": "string",
                            "name": "description",
                            "type": "string"
                        },
                        {
                            "internalType": "string",
                            "name": "ipfsHash",
                            "type": "string"
                        },
                        {
                            "internalType": "bool",
                            "name": "active",
                            "type": "bool"
                        }
                    ],
                    "internalType": "struct MemeCoinFactory.TokenInfo[]",
                    "name": "slice",
                    "type": "tuple[]"
                }
            ],
            "stateMutability": "view",
            "type": "function"
        },
        {
            "inputs": [
                {
                    "internalType": "address",
                    "name": "user",
                    "type": "address"
                }
            ],
            "name": "getUserHoldings",
            "outputs": [
                {
                    "internalType": "address[]",
                    "name": "tokens",
                    "type": "address[]"
                },
                {
                    "internalType": "uint256[]",
                    "name": "balances",
                    "type": "uint256[]"
                }
            ],
            "stateMutability": "view",
            "type": "function"
        },
        {
            "inputs": [
                {
                    "internalType": "bytes32",
                    "name": "role",
                    "type": "bytes32"
                },
                {
                    "internalType": "address",
                    "name": "account",
                    "type": "address"
                }
            ],
            "name": "grantRole",
            "outputs": [],
            "stateMutability": "nonpayable",
            "type": "function"
        },
        {
            "inputs": [
                {
                    "internalType": "bytes32",
                    "name": "role",
                    "type": "bytes32"
                },
                {
                    "internalType": "address",
                    "name": "account",
                    "type": "address"
                }
            ],
            "name": "hasRole",
            "outputs": [
                {
                    "internalType": "bool",
                    "name": "",
                    "type": "bool"
                }
            ],
            "stateMutability": "view",
            "type": "function"
        },
        {
            "inputs": [],
            "name": "pause",
            "outputs": [],
            "stateMutability": "nonpayable",
            "type": "function"
        },
        {
            "inputs": [
                {
                    "internalType": "address",
                    "name": "token_",
                    "type": "address"
                }
            ],
            "name": "pauseTokenSales",
            "outputs": [],
            "stateMutability": "nonpayable",
            "type": "function"
        },
        {
            "inputs": [],
            "name": "paused",
            "outputs": [
                {
                    "internalType": "bool",
                    "name": "",
                    "type": "bool"
                }
            ],
            "stateMutability": "view",
            "type": "function"
        },
        {
            "inputs": [],
            "name": "platformFeeBP",
            "outputs": [
                {
                    "internalType": "uint16",
                    "name": "",
                    "type": "uint16"
                }
            ],
            "stateMutability": "view",
            "type": "function"
        },
        {
            "inputs": [],
            "name": "platformFeesAccrued",
            "outputs": [
                {
                    "internalType": "uint256",
                    "name": "",
                    "type": "uint256"
                }
            ],
            "stateMutability": "view",
            "type": "function"
        },
        {
            "inputs": [
                {
                    "internalType": "address",
                    "name": "",
                    "type": "address"
                },
                {
                    "internalType": "address",
                    "name": "",
                    "type": "address"
                }
            ],
            "name": "presaleClaimed",
            "outputs": [
                {
                    "internalType": "uint256",
                    "name": "",
                    "type": "uint256"
                }
            ],
            "stateMutability": "view",
            "type": "function"
        },
        {
            "inputs": [],
            "name": "presaleMerkleRoot",
            "outputs": [
                {
                    "internalType": "bytes32",
                    "name": "",
                    "type": "bytes32"
                }
            ],
            "stateMutability": "view",
            "type": "function"
        },
        {
            "inputs": [
                {
                    "internalType": "address",
                    "name": "token_",
                    "type": "address"
                },
                {
                    "internalType": "uint256",
                    "name": "amount",
                    "type": "uint256"
                }
            ],
            "name": "reclaimUnsold",
            "outputs": [],
            "stateMutability": "nonpayable",
            "type": "function"
        },
        {
            "inputs": [],
            "name": "referralFeeBP",
            "outputs": [
                {
                    "internalType": "uint16",
                    "name": "",
                    "type": "uint16"
                }
            ],
            "stateMutability": "view",
            "type": "function"
        },
        {
            "inputs": [
                {
                    "internalType": "address",
                    "name": "token_",
                    "type": "address"
                },
                {
                    "internalType": "address[]",
                    "name": "users",
                    "type": "address[]"
                }
            ],
            "name": "removeFromWhitelist",
            "outputs": [],
            "stateMutability": "nonpayable",
            "type": "function"
        },
        {
            "inputs": [
                {
                    "internalType": "address",
                    "name": "token_",
                    "type": "address"
                },
                {
                    "internalType": "uint256",
                    "name": "liq_",
                    "type": "uint256"
                }
            ],
            "name": "removeTokenLiquidity",
            "outputs": [],
            "stateMutability": "nonpayable",
            "type": "function"
        },
        {
            "inputs": [
                {
                    "internalType": "bytes32",
                    "name": "role",
                    "type": "bytes32"
                },
                {
                    "internalType": "address",
                    "name": "account",
                    "type": "address"
                }
            ],
            "name": "renounceRole",
            "outputs": [],
            "stateMutability": "nonpayable",
            "type": "function"
        },
        {
            "inputs": [
                {
                    "internalType": "address",
                    "name": "token_",
                    "type": "address"
                },
                {
                    "internalType": "uint256",
                    "name": "amount",
                    "type": "uint256"
                }
            ],
            "name": "rescueERC20",
            "outputs": [],
            "stateMutability": "nonpayable",
            "type": "function"
        },
        {
            "inputs": [
                {
                    "internalType": "bytes32",
                    "name": "role",
                    "type": "bytes32"
                },
                {
                    "internalType": "address",
                    "name": "account",
                    "type": "address"
                }
            ],
            "name": "revokeRole",
            "outputs": [],
            "stateMutability": "nonpayable",
            "type": "function"
        },
        {
            "inputs": [
                {
                    "internalType": "address",
                    "name": "helper_",
                    "type": "address"
                }
            ],
            "name": "setDexHelper",
            "outputs": [],
            "stateMutability": "nonpayable",
            "type": "function"
        },
        {
            "inputs": [
                {
                    "internalType": "bytes32",
                    "name": "root_",
                    "type": "bytes32"
                }
            ],
            "name": "setPresaleMerkleRoot",
            "outputs": [],
            "stateMutability": "nonpayable",
            "type": "function"
        },
        {
            "inputs": [
                {
                    "internalType": "bytes4",
                    "name": "interfaceId",
                    "type": "bytes4"
                }
            ],
            "name": "supportsInterface",
            "outputs": [
                {
                    "internalType": "bool",
                    "name": "",
                    "type": "bool"
                }
            ],
            "stateMutability": "view",
            "type": "function"
        },
        {
            "inputs": [
                {
                    "internalType": "address",
                    "name": "token",
                    "type": "address"
                },
                {
                    "internalType": "address",
                    "name": "to",
                    "type": "address"
                }
            ],
            "name": "sweepHelperDust",
            "outputs": [],
            "stateMutability": "nonpayable",
            "type": "function"
        },
        {
            "inputs": [
                {
                    "internalType": "address",
                    "name": "token_",
                    "type": "address"
                },
                {
                    "internalType": "bool",
                    "name": "active",
                    "type": "bool"
                }
            ],
            "name": "toggleListingActive",
            "outputs": [],
            "stateMutability": "nonpayable",
            "type": "function"
        },
        {
            "inputs": [
                {
                    "internalType": "address",
                    "name": "token_",
                    "type": "address"
                },
                {
                    "internalType": "bool",
                    "name": "on",
                    "type": "bool"
                }
            ],
            "name": "toggleWhitelist",
            "outputs": [],
            "stateMutability": "nonpayable",
            "type": "function"
        },
        {
            "inputs": [
                {
                    "internalType": "address",
                    "name": "",
                    "type": "address"
                }
            ],
            "name": "tokenIndexPlusOne",
            "outputs": [
                {
                    "internalType": "uint256",
                    "name": "",
                    "type": "uint256"
                }
            ],
            "stateMutability": "view",
            "type": "function"
        },
        {
            "inputs": [
                {
                    "internalType": "address",
                    "name": "",
                    "type": "address"
                }
            ],
            "name": "tokenPaused",
            "outputs": [
                {
                    "internalType": "bool",
                    "name": "",
                    "type": "bool"
                }
            ],
            "stateMutability": "view",
            "type": "function"
        },
        {
            "inputs": [],
            "name": "totalTokens",
            "outputs": [
                {
                    "internalType": "uint256",
                    "name": "",
                    "type": "uint256"
                }
            ],
            "stateMutability": "view",
            "type": "function"
        },
        {
            "inputs": [],
            "name": "unpause",
            "outputs": [],
            "stateMutability": "nonpayable",
            "type": "function"
        },
        {
            "inputs": [
                {
                    "internalType": "address",
                    "name": "token_",
                    "type": "address"
                }
            ],
            "name": "unpauseTokenSales",
            "outputs": [],
            "stateMutability": "nonpayable",
            "type": "function"
        },
        {
            "inputs": [
                {
                    "internalType": "uint16",
                    "name": "newPlatformBP",
                    "type": "uint16"
                },
                {
                    "internalType": "uint16",
                    "name": "newReferralBP",
                    "type": "uint16"
                }
            ],
            "name": "updateFees",
            "outputs": [],
            "stateMutability": "nonpayable",
            "type": "function"
        },
        {
            "inputs": [
                {
                    "internalType": "address",
                    "name": "",
                    "type": "address"
                }
            ],
            "name": "whitelistEnabled",
            "outputs": [
                {
                    "internalType": "bool",
                    "name": "",
                    "type": "bool"
                }
            ],
            "stateMutability": "view",
            "type": "function"
        },
        {
            "inputs": [
                {
                    "internalType": "address",
                    "name": "",
                    "type": "address"
                },
                {
                    "internalType": "address",
                    "name": "",
                    "type": "address"
                }
            ],
            "name": "whitelisted",
            "outputs": [
                {
                    "internalType": "bool",
                    "name": "",
                    "type": "bool"
                }
            ],
            "stateMutability": "view",
            "type": "function"
        },
        {
            "inputs": [
                {
                    "internalType": "address[]",
                    "name": "creators",
                    "type": "address[]"
                }
            ],
            "name": "withdrawCreatorFeesBatch",
            "outputs": [],
            "stateMutability": "nonpayable",
            "type": "function"
        },
        {
            "inputs": [],
            "name": "withdrawMyCreatorFees",
            "outputs": [],
            "stateMutability": "nonpayable",
            "type": "function"
        },
        {
            "inputs": [
                {
                    "internalType": "address payable",
                    "name": "to",
                    "type": "address"
                }
            ],
            "name": "withdrawPlatformFees",
            "outputs": [],
            "stateMutability": "nonpayable",
            "type": "function"
        },
        {
            "stateMutability": "payable",
            "type": "receive"
        }
    ],
    "bytecode": "60803461023e57601f61542138819003918201601f19168301916001600160401b0383118484101761024257808492604094855283398101031261023e5761ffff610055602061004e84610256565b9301610256565b9160ff196001541660015560016002551661ffff8216810161ffff811161022a5761ffff6127109116101561021b576003805463ffffffff19169190911760109290921b63ffff000016919091179055335f9081525f5160206154015f395f51905f52602052604090205460ff16156101de575b335f9081525f5160206153c15f395f51905f52602052604090205460ff161561017f575b335f9081525f5160206153e15f395f51905f52602052604090205460ff1615610120575b60405161513b90816102668239f35b335f8181525f5160206153e15f395f51905f5260205260408120805460ff1916600117905581907f97667070c54ef182b0f5858b034beac1b6f3089aa2d3188bb1e8929f4fa9b929905f5160206153a15f395f51905f529080a4610111565b335f8181525f5160206153c15f395f51905f5260205260408120805460ff1916600117905581907f65d7a28e3265b37a6474929f336521b332c1681b933f6cb9f3376673440d862a905f5160206153a15f395f51905f529080a46100ed565b335f8181525f5160206154015f395f51905f5260205260408120805460ff1916600117905581905f5160206153a15f395f51905f528180a46100c9565b63192069c360e31b5f5260045ffd5b634e487b7160e01b5f52601160045260245ffd5b5f80fd5b634e487b7160e01b5f52604160045260245ffd5b519061ffff8216820361023e5756fe6080806040526004361015610015575b505b5f80fd5b5f905f3560e01c90816301ffc9a71461283b575080630e3f0cfc1461277a57806314fe72aa146126f157806315a1603b1461267a57806322163b861461265d57806322212e2b14612640578063248a9ca31461260e57806328d7b276146125c25780632f2ff15d1461250b578063336322d214612483578063349123d11461244557806335a62e681461240d57806336568abe146123795780633df9a720146121ee5780633f4ba83a1461215b578063494cfc6c14611f555780635c975abb14611f33578063634282af14611e8957806366c5b06c14611e21578063692bf4a814611bb757806379c8ffd614611b7a5780637e1c0c0914611b5d5780638231f4f014611a5e57806384536017146119e85780638456cb591461199057806384d93612146118f05780638995881d146118b35780638c9f7b391461180c5780638cd4426d1461179e57806391d1485414611756578063943711ea146116ab57806395abc091146113a05780639ccb0744146112fd578063a217fddf146112e1578063a9e3929e1461122a578063ac76d084146111d7578063ad3e080a1461116c578063bc120fe714611114578063c748713e146110db578063d547741f14611095578063d634b41914610b39578063d9d0a5be14610748578063dc4ec9be14610723578063dc97ecf61461067b578063e4c608f114610652578063e559afd9146105a9578063e5f8af9f146104a6578063e63ab1e91461046b578063ec3889b5146103f6578063f0b6374b14610390578063f3d2350e146102c3578063f5b541a6146102885763ff96092a0361000f5734610285578060031936011261028557602061ffff60035416604051908152f35b80fd5b503461028557806003193601126102855760206040517f97667070c54ef182b0f5858b034beac1b6f3089aa2d3188bb1e8929f4fa9b9298152f35b50346102855760403660031901126102855760043561ffff811680910361038c5760243561ffff811690818103610388576102fc613033565b81830161ffff81116103745761ffff6127109116101561036557916040917f2ac80c14c28700f7b5e36f947d572149fe2e3947bac32c3a8c098f3e03722c11938263ffff00006003549260101b169163ffffffff1916171760035582519182526020820152a180f35b63192069c360e31b8452600484fd5b634e487b7160e01b85526011600452602485fd5b8380fd5b5080fd5b5034610285576020366003190112610285576103aa61288e565b6103b2612f26565b6001600160a01b0316808252600c60205260408220805460ff191690557ff38578ed892ce2ce655ca8ae03c73464ad74915a1331a9b4085e637534daeedf8280a280f35b5034610285576020366003190112610285576004356001600160a01b0381169081900361038c57610425613033565b61042d612da7565b60045490811561045c578280809381938260045582f11561045057600160025580f35b604051903d90823e3d90fd5b6303fbecdf60e51b8352600483fd5b503461028557806003193601126102855760206040517f65d7a28e3265b37a6474929f336521b332c1681b933f6cb9f3376673440d862a8152f35b5034610285576020366003190112610285576004356001600160401b03811161038c576104d7903690600401612b2c565b906104e0613033565b6104e8612da7565b825b8281106104fa5783600160025580f35b6001600160a01b03610515610510838686612ce9565b612cf9565b16908185526005602052604085205491858315801561053c575b50505060019150016104ea565b828591818452600560205283604081205583906105a0575b839283928392f115610595577f7f0b212761a7abe7ec4d2adea5a7fa1fea58234aabf0c01c0e63403fe62013ff6020600194604051908152a25f858161052f565b6040513d87823e3d90fd5b506108fc610554565b5034610285576105b836612b5c565b91906105c2612f26565b6001600160a01b0390911690835b8381106105db578480f35b6001908386526008602052604086206105f8610510838887612ce9565b838060a01b03165f5260205260405f208260ff19825416179055818060a01b03610626610510838887612ce9565b16847f4bc18aa4b0095c9a3b5cdf42d2322d5a145591b04045988a995a5da4260754578880a3016105d0565b5034610285578060031936011261028557600d546040516001600160a01b039091168152602090f35b5034610285576040366003190112610285578061069661288e565b61069e6128a4565b906106a7613033565b6106af612d63565b600d546001600160a01b031691823b1561071e5760405163027332ab60e21b81526001600160a01b039283166004820152911660248201529082908290604490829084905af18015610713576107025750f35b8161070c916129a4565b6102855780f35b6040513d84823e3d90fd5b505050fd5b5034610285578060031936011261028557602061ffff60035460101c16604051908152f35b5060a03660031901126102855761075d61288e565b906064356001600160a01b03811691906044359060243590848103610388576084356001600160401b038111610b355761079b903690600401612b2c565b9390956107a6612d63565b6107ae612da7565b6006549660405160208101903360601b8252846034820152603481526107d56054826129a4565b519020906107e287612be6565b966107f060405198896129a4565b808852602088019060051b820191368311610b3157905b828210610b21575050509786985b86518a1015610857576108288a88612bfd565b5190818110156108465788526020526001604088205b990198610815565b90885260205260016040882061083e565b879596508803610b12576001600160a01b0316808552600960209081526040808720335f9081529252902054909261088f8783612bd9565b11610b03578561089e91612bd9565b828552600960209081526040808720335f90815292529020556108bf612d63565b6108c7612da7565b8415610af457818452600c60205260ff604085205416610ae057818452600b602052604084205480158015610aa9575b610a9a57828552600760205260ff60408620541680610a77575b610a68575f198101908111610374576109299061290d565b5094670de0b6b3a7640000610942826002890154612c11565b0492833403610a5957859660035461271061096161ffff831688612c11565b049085610a3e575087955b61097f8761097a8484612bcc565b612bcc565b9261098c83600454612bd9565b600455600101546001600160a01b0316895260056020526040892080546109b4908590612bd9565b90556109c1853386612dfb565b6040519485526020850152604084015284606084015260808301527fa4d1d47447ad64a0c581f05071df4ce987ba94440d913925dc004a21f28f422660a03393a480610a11575b82600160025580f35b8280929181925af1610a21612c3f565b5015610a2f57808280610a08565b639a2c56ab60e01b8152600490fd5b610a5261ffff6127109260101c1688612c11565b049561096c565b63d183fe4360e01b8652600486fd5b630b094f2760e31b8552600485fd5b50828552600860209081526040808720335f908152925290205460ff1615610911565b631d99ddbf60e01b8552600485fd5b505f198101818111610acc576005610ac260ff9261290d565b50015416156108f7565b634e487b7160e01b86526011600452602486fd5b635404753160e11b84526004829052602484fd5b631f2a200560e01b8452600484fd5b632edaff4360e01b8552600485fd5b631cde096960e01b8552600485fd5b8135815260209182019101610807565b8980fd5b8480fd5b50346102855760c0366003190112610285576004356001600160401b03811161038c57610b6a903690600401612b9f565b906024356001600160401b03811161038857610b8a903690600401612b9f565b9190926044356001600160401b03811161109157610bac903690600401612b9f565b9190926084359160a4356001600160401b03811161108d57610bd2903690600401612b9f565b979096610bdd612d63565b610be5612da7565b841561107e5760405193611d1093848601948686106001600160401b038711176110375792610c2c610c3a93610c5896938998966133f68a3960a0875260a0870191612d0d565b918483036020860152612d0d565b90606435604082015233606082015260808183039101528888612d0d565b039087f080156110735760018060a01b031694604051610c7781612975565b8681526020810133815260408201848152610c93368789612d2d565b60608401908152610ca536868b612d2d565b916080850192835260a085019360018552600a546801000000000000000081101561105f57806001610cda9201600a5561290d565b96909661104b575186546001600160a01b03199081166001600160a01b039283161788559151600188018054909316911617905551600285015551805160038501916001600160401b038211611037578c8291610d37855461293d565b601f8111610fe3575b50602091601f8411600114610f815792610f76575b50508160011b915f199060031b1c19161790555b51805160048401916001600160401b038211610f6257610d89835461293d565b601f8111610f1d575b50918b93918b989796959360209d508d90601f8311600114610e68577f75c1f35492cd2bcb2820d5ff2434b9dc6d19432975f20761140109f0844a7b8a9a9b94879484610e1695610e3d9995600595610e4d9d9c92610e5d575b50508160011b915f199060031b1c19161790555b51151591019060ff801983541691151516179055565b6040600a54918a8152600b8e522055604051958695865260608c8701526060860191612d0d565b9083820360408501523397612d0d565b0390a36001600255604051908152f35b015190505f80610dec565b838752818720959b96959190601f198416875b818110610ee95750946001857f75c1f35492cd2bcb2820d5ff2434b9dc6d19432975f20761140109f0844a7b8a9e9f95600595610e4d9d9c9a95610e1699610e3d9d9b10610ed1575b505050811b019055610e00565b01515f1960f88460031b161c191690555f8080610ec4565b936020919293959697989a9c9e999b9d50600182918786015181550195019301908f9c9a989d9b9997969594939291610e7b565b838d5260208d20601f840160051c81019160208510610f58575b601f0160051c01905b818110610f4d5750610d92565b8d8155600101610f40565b9091508190610f37565b634e487b7160e01b8c52604160045260248cfd5b015190505f80610d55565b8581528281209350601f198516905b818110610fcb5750908460019594939210610fb3575b505050811b019055610d69565b01515f1960f88460031b161c191690555f8080610fa6565b92936020600181928786015181550195019301610f90565b91602091935085815220601f840160051c8101916020851061102d575b918f9291601f8695930160051c01905b81811061101d5750610d40565b9283558493508f92600101611010565b9091508190611000565b634e487b7160e01b8d52604160045260248dfd5b634e487b7160e01b8e5260048e905260248efd5b634e487b7160e01b8e52604160045260248efd5b6040513d88823e3d90fd5b637294708f60e11b8a5260048afd5b8880fd5b8580fd5b5034610285576040366003190112610285576110d86004356110b56128a4565b906110d36110ce825f525f602052600160405f20015490565b613101565b613143565b80f35b5034610285576020366003190112610285576020906040906001600160a01b0361110361288e565b168152600583522054604051908152f35b503461028557604036600319011261028557604061113061288e565b916111396128a4565b9260018060a01b031681526008602052209060018060a01b03165f52602052602060ff60405f2054166040519015158152f35b50346102855761117b36612b5c565b611183612f26565b6001600160a01b0390921691835b81811061119c578480f35b6001908486526008602052604086206111b9610510838688612ce9565b838060a01b03165f5260205260405f2060ff19815416905501611191565b50346102855760403660031901126102855760406111f361288e565b916111fc6128a4565b9260018060a01b031681526009602052209060018060a01b03165f52602052602060405f2054604051908152f35b503461028557611239366128ba565b90611242612f26565b6001600160a01b0316808352600b602052604083205490919080156112d2575f1981019081116112be57816112b27fb6c0b1eccbea10b66e1977f66ce16560ea82d88b327f904435080e4da040208b93600561129f60209561290d565b50019060ff801983541691151516179055565b6040519015158152a280f35b634e487b7160e01b84526011600452602484fd5b638dda39df60e01b8452600484fd5b5034610285578060031936011261028557602090604051908152f35b50346102855760203660031901126102855780602061131a61288e565b611322612f26565b61132a612d63565b600d546040516398e122fd60e01b81526001600160a01b039283166004820152938492602492849291165af1801561071357611364575080f35b6020813d602011611398575b8161137d602093836129a4565b8101031261038c57516001600160a01b038116036102855780f35b3d9150611370565b5034610285578060031936011261028557600a546113bd81612c6e565b906113c781612c6e565b926113d182612c6e565b6113da83612ca0565b916113e484612ca0565b6113ed85612be6565b906113fb60405192836129a4565b85825261140786612be6565b602083019590601f190136873761141d87612c6e565b9461142788612c6e565b97855b8181106114f1575050604051998a996101008b526101008b0161144c91612a65565b8a810360208c015261145d91612a65565b89810360408b015261146e91612aa1565b88810360608a015261147f91612ad4565b878103608089015261149091612ad4565b9086820360a0880152519081815260200193915b8181106114d657505050816114c491856114d295940360c0870152612aa1565b9083820360e0850152612aa1565b0390f35b825115158552879650602094850194909201916001016114a4565b8060ff60058d9e959697989a9b9c9d6115098461290d565b5080546001600160a01b0316949091859161152391612bfd565b5260018101546001600160a01b031661153c8689612bfd565b52600281015461154c868a612bfd565b52611559600382016129c5565b611563868b612bfd565b5261156e858a612bfd565b5061157b600482016129c5565b611585868c612bfd565b52611590858b612bfd565b5001541661159e838b612bfd565b90151590526040516318160ddd60e01b8152602081600481855afa9081156116a0578b84918b93611669575b50916115db60249492602094612bfd565b526040516370a0823160e01b815230600482015292839182905afa90811561165e57908c92918991611626575b5061161582600194612bfd565b52019a99989796949392919a61142a565b9250506020823d8211611656575b81611641602093836129a4565b810103126100115790518b9190611615611608565b3d9150611634565b6040513d8a823e3d90fd5b925050506020813d8211611698575b81611685602093836129a4565b810103126100115751828b6115db6115ca565b3d9150611678565b6040513d8b823e3d90fd5b5034610011576040366003190112610011576116c561288e565b6116cd6128a4565b906116d6612f26565b6116de612da7565b600d546001600160a01b031691823b15610011576040516354fdc16b60e11b81526001600160a01b03928316600482015291166024820152905f908290604490829084905af1801561174b57611738575b50600160025580f35b61174491505f906129a4565b5f5f61172f565b6040513d5f823e3d90fd5b346100115760403660031901126100115761176f6128a4565b6004355f525f60205260405f209060018060a01b03165f52602052602060ff60405f2054166040519015158152f35b34610011576040366003190112610011576117b761288e565b7fe82be315ba1a0d0362d09d5cf59781f214b53a74eb978c35b76ad687099c670c6020602435926117e6613033565b6117ee612d63565b6001600160a01b031692611803813386612dfb565b604051908152a2005b346100115760203660031901126100115761182561288e565b61182d612f26565b6001600160a01b03165f818152600b602052604090205480156118a4575f1981019081116118905761186060059161290d565b5001805460ff191690557f3bf74796fb125ab3c0f1c7c4419d72af7311e2d12f7d55b6fe62f4dfdcc8f0335f80a2005b634e487b7160e01b5f52601160045260245ffd5b638dda39df60e01b5f5260045ffd5b34610011576020366003190112610011576001600160a01b036118d461288e565b165f52600c602052602060ff60405f2054166040519015158152f35b34610011576040366003190112610011575f604061195961190f61288e565b611917612f26565b61191f612d63565b600d548351635100e67b60e11b81526001600160a01b03928316600482015260248035908201529485939190921691839182906044820190565b03925af1801561174b5761196957005b604090813d8311611989575b61197f81836129a4565b8101031261001157005b503d611975565b34610011575f366003190112610011576119a861308a565b6119b0612d63565b600160ff19815416176001557f62e78cea01bee320cd4e420270b5ea74000d11b0c9f74754ebdbfc544b05a2586020604051338152a1005b34610011575f36600319011261001157611a00613033565b611a08612da7565b478015611a4f575f808080843382f11561174b576040519081527fb3579861130e4da8bb7b87c54d2d139937f23bcd6e4ebed9e75d0f78ab1cc11860203392a26001600255005b63b66458d760e01b5f5260045ffd5b3461001157602036600319011261001157611a7761288e565b600a5490611a8482612c6e565b90611a8e83612c6e565b906001600160a01b03165f5b848110611acb57611abd846114d285604051938493604085526040850190612a65565b908382036020850152612aa1565b806020611ad960249361290d565b50546001600160a01b031680611aef8489612bfd565b52604051938480926370a0823160e01b82528760048301525afa801561174b575f90611b2b575b60019250611b248286612bfd565b5201611a9a565b506020823d8211611b55575b81611b44602093836129a4565b810103126100115760019151611b16565b3d9150611b37565b34610011575f366003190112610011576020600a54604051908152f35b34610011576020366003190112610011576001600160a01b03611b9b61288e565b165f526007602052602060ff60405f2054166040519015158152f35b606036600319011261001157611bcb61288e565b60243590604435906001600160a01b0382169081830361001157611bed612d63565b611bf5612da7565b8315611e12576001600160a01b03165f818152600c602052604090205490939060ff16611dff57835f52600b60205260405f205480158015611ddc575b611dcd57845f52600760205260ff60405f20541680611daa575b611d9b575f19810190811161189057611c649061290d565b5093670de0b6b3a7640000611c7d836002880154612c11565b0494853403611d8c57600354612710611c9a61ffff831689612c11565b049085611d7157505f965b611cb38861097a8484612bcc565b92611cc083600454612bd9565b600455600101546001600160a01b03165f9081526005602052604090208054611cea908590612bd9565b9055611cf7853386612dfb565b6040519485526020850152604084015285606084015260808301527fa4d1d47447ad64a0c581f05071df4ce987ba94440d913925dc004a21f28f422660a03393a481611d45575b6001600255005b5f80809381935af1611d55612c3f565b5015611d62578080611d3e565b639a2c56ab60e01b5f5260045ffd5b611d8561ffff6127109260101c1689612c11565b0496611ca5565b63d183fe4360e01b5f5260045ffd5b630b094f2760e31b5f5260045ffd5b505f85815260086020908152604080832033845290915290205460ff1615611c4c565b631d99ddbf60e01b5f5260045ffd5b505f198101818111611890576005611df560ff9261290d565b5001541615611c32565b83635404753160e11b5f5260045260245ffd5b631f2a200560e01b5f5260045ffd5b3461001157602036600319011261001157611e3a61288e565b611e42612f26565b6001600160a01b03165f818152600c60205260408120805460ff191660011790557ff017c0de579727a3cd3ee18077ee8b4c43bf21892985952d1d5a0d52f983502d9080a2005b3461001157602036600319011261001157600435600a5481101561001157611eb09061290d565b508054600182015460028301546001600160a01b03918216939290911691611f2790611f19611ee1600383016129c5565b60ff6005611ef1600486016129c5565b940154169460405197889788526020880152604087015260c0606087015260c08601906128e9565b9084820360808601526128e9565b90151560a08301520390f35b34610011575f36600319011261001157602060ff600154166040519015158152f35b3461001157604036600319011261001157600435611f8a81611f7960243582612bd9565b600a54808211612153575b50612bcc565b90611f9482612be6565b91611fa260405193846129a4565b808352611fb1601f1991612be6565b015f5b8181106121175750505f5b825181101561205a5780611fdd611fd860019385612bd9565b61290d565b5060ff600560405192611fef84612975565b805460a087901b8790039081168552818701541660208501526002810154604085015261201e600382016129c5565b606085015261202f600482016129c5565b6080850152015416151560a08201526120488286612bfd565b526120538185612bfd565b5001611fbf565b826040518091602082016020835281518091526040830190602060408260051b8601019301915f905b82821061209257505050500390f35b919360019193955060208091603f19898203018552875190848060a01b038251168152848060a01b038383015116838201526040820151604082015260a0806120ff6120ed606086015160c0606087015260c08601906128e9565b608086015185820360808701526128e9565b93015115159101529601920192018594939192612083565b60209060405161212681612975565b5f81525f838201525f6040820152606080820152606060808201525f60a082015282828701015201611fb4565b905084611f84565b34610011575f3660031901126100115761217361308a565b60015460ff8116156121b25760ff19166001557f5db9ee0a495bf2e6ff9c91a7834c1ba4fdd244a5e8aa4e537bd38aeae4b073aa6020604051338152a1005b60405162461bcd60e51b815260206004820152601460248201527314185d5cd8589b194e881b9bdd081c185d5cd95960621b6044820152606490fd5b34610011576020366003190112610011576001600160a01b0361220f61288e565b16805f52600b60205260405f205480156118a4575f198101908111611890576122379061290d565b5060018060a01b0360018201541690600281015492612258600383016129c5565b60ff6005612268600486016129c5565b9401541692604051916318160ddd60e01b8352602083600481875afa92831561174b575f93612342575b506020602494604051958680926370a0823160e01b82523060048301525afa93841561174b575f9461230a575b50906122e66122f4926040519889988952602089015260e0604089015260e08801906128e9565b9086820360608801526128e9565b921515608085015260a084015260c08301520390f35b919093506020823d60201161233a575b81612327602093836129a4565b81010312610011579051926122e66122bf565b3d915061231a565b9392506020843d602011612371575b8161235e602093836129a4565b8101031261001157925191926020612292565b3d9150612351565b34610011576040366003190112610011576123926128a4565b336001600160a01b038216036123b0576123ae90600435613143565b005b60405162461bcd60e51b815260206004820152602f60248201527f416363657373436f6e74726f6c3a2063616e206f6e6c792072656e6f756e636560448201526e103937b632b9903337b91039b2b63360891b6064820152608490fd5b34610011576020366003190112610011576001600160a01b0361242e61288e565b165f52600b602052602060405f2054604051908152f35b34610011576123ae612456366128ba565b9061245f612f26565b60018060a01b03165f52600760205260405f209060ff801983541691151516179055565b34610011575f3660031901126100115761249b612da7565b335f52600560205260405f205480156124fc57335f5260056020525f60408120555f808080843382f11561174b576040519081527f7f0b212761a7abe7ec4d2adea5a7fa1fea58234aabf0c01c0e63403fe62013ff60203392a26001600255005b6321c8563b60e01b5f5260045ffd5b34610011576040366003190112610011576004356125276128a4565b906125406110ce825f525f602052600160405f20015490565b5f818152602081815260408083206001600160a01b038616845290915290205460ff161561256a57005b5f818152602081815260408083206001600160a01b0395909516808452949091528120805460ff19166001179055339291907f2f8788117e7eff1d82e926ec794901d17c78024a50270940304540a733656f0d9080a4005b34610011576020366003190112610011577f27f971fd4accb41a60bcef5477f2a70aa17efca3a2c33b138e3aa62a3d891c6d6020600435612601612f26565b80600655604051908152a1005b346100115760203660031901126100115760206126386004355f525f602052600160405f20015490565b604051908152f35b34610011575f366003190112610011576020600654604051908152f35b34610011575f366003190112610011576020600454604051908152f35b346100115760203660031901126100115761269361288e565b61269b613033565b6001600160a01b031680156126e257600d80546001600160a01b031916821790557fc420e02f8f25bc483d2d29b2f718e07c863d3e50c4775cb9e4d3c16984c13a4d5f80a2005b634c5678e160e11b5f5260045ffd5b604036600319011261001157612753606061270a61288e565b612712612f26565b61271a612d63565b600d546040516256688760e81b81526001600160a01b039283166004820152602480359082015293849290911690829081906044820190565b039134905af1801561174b5761276557005b606090813d83116119895761197f81836129a4565b346100115760403660031901126100115761279361288e565b6024359061279f612d63565b6127a7612da7565b6001600160a01b03165f818152600b602052604090205490919080156118a4575f198101908111611890576127db9061290d565b50600101546001600160a01b0316330361282c5760208161281e7fb42c9fecfb68f9bf84886f05b85865be2fda69a3ec869651d1320d8f528be6bb933386612dfb565b604051908152a26001600255005b63ea8e4eb560e01b5f5260045ffd5b34610011576020366003190112610011576004359063ffffffff60e01b821680920361001157602091637965db0b60e01b811490811561287d575b5015158152f35b6301ffc9a760e01b14905083612876565b600435906001600160a01b038216820361001157565b602435906001600160a01b038216820361001157565b6040906003190112610011576004356001600160a01b0381168103610011579060243580151581036100115790565b805180835260209291819084018484015e5f828201840152601f01601f1916010190565b600a5481101561292957600a5f52600660205f20910201905f90565b634e487b7160e01b5f52603260045260245ffd5b90600182811c9216801561296b575b602083101461295757565b634e487b7160e01b5f52602260045260245ffd5b91607f169161294c565b60c081019081106001600160401b0382111761299057604052565b634e487b7160e01b5f52604160045260245ffd5b90601f801991011681019081106001600160401b0382111761299057604052565b9060405191825f8254926129d88461293d565b8084529360018116908115612a4357506001146129ff575b506129fd925003836129a4565b565b90505f9291925260205f20905f915b818310612a275750509060206129fd928201015f6129f0565b6020919350806001915483858901015201910190918492612a0e565b9050602092506129fd94915060ff191682840152151560051b8201015f6129f0565b90602080835192838152019201905f5b818110612a825750505090565b82516001600160a01b0316845260209384019390920191600101612a75565b90602080835192838152019201905f5b818110612abe5750505090565b8251845260209384019390920191600101612ab1565b9080602083519182815201916020808360051b8301019401925f915b838310612aff57505050505090565b9091929394602080612b1d600193601f1986820301875289516128e9565b97019301930191939290612af0565b9181601f84011215610011578235916001600160401b038311610011576020808501948460051b01011161001157565b906040600319830112610011576004356001600160a01b03811681036100115791602435906001600160401b03821161001157612b9b91600401612b2c565b9091565b9181601f84011215610011578235916001600160401b038311610011576020838186019501011161001157565b9190820391821161189057565b9190820180921161189057565b6001600160401b0381116129905760051b60200190565b80518210156129295760209160051b010190565b8181029291811591840414171561189057565b6001600160401b03811161299057601f01601f191660200190565b3d15612c69573d90612c5082612c24565b91612c5e60405193846129a4565b82523d5f602084013e565b606090565b90612c7882612be6565b612c8560405191826129a4565b8281528092612c96601f1991612be6565b0190602036910137565b90612caa82612be6565b612cb760405191826129a4565b8281528092612cc8601f1991612be6565b01905f5b828110612cd857505050565b806060602080938501015201612ccc565b91908110156129295760051b0190565b356001600160a01b03811681036100115790565b908060209392818452848401375f828201840152601f01601f1916010190565b929192612d3982612c24565b91612d4760405193846129a4565b829481845281830111610011578281602093845f960137010152565b60ff60015416612d6f57565b60405162461bcd60e51b815260206004820152601060248201526f14185d5cd8589b194e881c185d5cd95960821b6044820152606490fd5b6002805414612db65760028055565b60405162461bcd60e51b815260206004820152601f60248201527f5265656e7472616e637947756172643a207265656e7472616e742063616c6c006044820152606490fd5b60405163a9059cbb60e01b602082019081526001600160a01b03939093166024820152604480820194909452928352612e959291905f908190612e3f6064866129a4565b60018060a01b03169260405194612e576040876129a4565b602086527f5361666545524332303a206c6f772d6c6576656c2063616c6c206661696c65646020870152519082855af1612e8f612c3f565b9161335c565b8051908115918215612f03575b505015612eab57565b60405162461bcd60e51b815260206004820152602a60248201527f5361666545524332303a204552433230206f7065726174696f6e20646964206e6044820152691bdd081cdd58d8d9595960b21b6064820152608490fd5b819250906020918101031261001157602001518015158103610011575f80612ea2565b335f9081527fee57cd81e84075558e8fcc182a1f4393f91fc97f963a136e66b7f949a62f319f602052604090205460ff1615612f5e57565b61302f602061300f6011612f71336131d4565b603784612f9d7f97667070c54ef182b0f5858b034beac1b6f3089aa2d3188bb1e8929f4fa9b9296132ba565b6040519687947f416363657373436f6e74726f6c3a206163636f756e7420000000000000000000828701528051918291018587015e8401907001034b99036b4b9b9b4b733903937b6329607d1b84830152805192839101604883015e01015f838201520301601f1981018352826129a4565b60405162461bcd60e51b81526020600482015291829160248301906128e9565b0390fd5b335f9081527fad3228b676f7d3cd4284a5443f17f1962b36e491b30a40b2405849e597ba5fb5602052604090205460ff161561306b57565b61302f602061300f601161307e336131d4565b603784612f9d5f6132ba565b335f9081527ff7c9542c591017a21c74b6f3fab6263c7952fc0aaf9db4c22a2a04ddc7f8674f602052604090205460ff16156130c257565b61302f602061300f60116130d5336131d4565b603784612f9d7f65d7a28e3265b37a6474929f336521b332c1681b933f6cb9f3376673440d862a6132ba565b5f8181526020818152604080832033845290915290205460ff16156131235750565b602061300f601161302f93603784612f9d61313d336131d4565b936132ba565b5f818152602081815260408083206001600160a01b038616845290915290205460ff1661316e575050565b5f818152602081815260408083206001600160a01b0395909516808452949091528120805460ff19169055339291907ff6391f5c32d9c69d2a47ea670b442974b53935d1edc7fd64eb21e047a839171b9080a4565b908151811015612929570160200190565b6131de602a612c24565b906131ec60405192836129a4565b602a82526131fa602a612c24565b6020830190601f19013682378251156129295760309053815160011015612929576078602183015360295b6001811161327957506132355790565b606460405162461bcd60e51b815260206004820152602060248201527f537472696e67733a20686578206c656e67746820696e73756666696369656e746044820152fd5b90600f81166010811015612929576f181899199a1a9b1b9c1cb0b131b232b360811b901a6132a783856131c3565b5360041c908015611890575f1901613225565b6132c46042612c24565b906132d260405192836129a4565b604282526132e06042612c24565b6020830190601f19013682378251156129295760309053815160011015612929576078602183015360415b6001811161331b57506132355790565b90600f81166010811015612929576f181899199a1a9b1b9c1cb0b131b232b360811b901a61334983856131c3565b5360041c908015611890575f190161330b565b919290156133be5750815115613370575090565b3b156133795790565b60405162461bcd60e51b815260206004820152601d60248201527f416464726573733a2063616c6c20746f206e6f6e2d636f6e74726163740000006044820152606490fd5b8251909150156133d15750805190602001fd5b60405162461bcd60e51b81526020600482015290819061302f9060248301906128e956fe61016080604052346106df57611d10803803809161001d82856106e3565b8339810160a0828203126106df5781516001600160401b0381116106df5781610047918401610706565b60208301519092906001600160401b0381116106df5782610069918301610706565b60408201519060608301519260018060a01b038416948585036106df5760808201516001600160401b0381116106df576100a39201610706565b9460409485516100b387826106e3565b60018152603160f81b6020820190815283516001600160401b0381116104da57600354600181811c911680156106d5575b60208210146104bc57601f8111610672575b50806020601f821160011461060e575f91610603575b508160011b915f199060031b1c1916176003555b84516001600160401b0381116104da57600454600181811c911680156105f9575b60208210146104bc57601f8111610596575b50806020601f8211600114610532575f91610527575b508160011b915f199060031b1c1916176004555b610186846107a3565b610120526101938261092a565b6101405283516020850120918260e05251902080610100524660a05287519060208201927f8b73c3c69bb8fe3d512ecc4cf759cc79239f7b179b0ffacaa9a75d522b39400f84528983015260608201524660808201523060a082015260a081526101fe60c0826106e3565b5190206080523060c0526102113361075b565b1561051857600390511090811561050c575b506104fd5780156104ee5783516001600160401b0381116104da57600a54600181811c911680156104d0575b60208210146104bc57601f8111610459575b50602094601f82116001146103f6579481929394955f926103eb575b50508160011b915f199060031b1c191617600a555b33156103a75760025481810180911161039357600255335f525f602052825f2081815401905582519081525f7fddf252ad1be2c89b69c2b068fc378daa952ba7f163c4a11628f55a4df523b3ef60203393a3600954336001600160a01b0390911603610350576103019061075b565b516112ad9081610a63823960805181610f04015260a05181610fc1015260c05181610ece015260e05181610f5301526101005181610f790152610120518161064d015261014051816106760152f35b6064825162461bcd60e51b815260206004820152602060248201527f4f776e61626c653a2063616c6c6572206973206e6f7420746865206f776e65726044820152fd5b634e487b7160e01b5f52601160045260245ffd5b825162461bcd60e51b815260206004820152601f60248201527f45524332303a206d696e7420746f20746865207a65726f2061646472657373006044820152606490fd5b015190505f8061027d565b601f19821695600a5f52805f20915f5b88811061044157508360019596979810610429575b505050811b01600a55610292565b01515f1960f88460031b161c191690555f808061041b565b91926020600181928685015181550194019201610406565b600a5f527fc65a7bb8d6351c1cf70c95a316cc6a92839c986682d98bc35f958f4883f9d2a8601f830160051c810191602084106104b2575b601f0160051c01905b8181106104a75750610261565b5f815560010161049a565b9091508190610491565b634e487b7160e01b5f52602260045260245ffd5b90607f169061024f565b634e487b7160e01b5f52604160045260245ffd5b63c16f3a9360e01b5f5260045ffd5b639432241960e01b5f5260045ffd5b6003915051105f610223565b63d92e233d60e01b5f5260045ffd5b90508601515f610169565b60045f9081528181209250601f198416905b81811061057e57509083600194939210610566575b5050811b0160045561017d565b8801515f1960f88460031b161c191690555f80610559565b9192602060018192868d015181550194019201610544565b60045f527f8a35acfbc15ff81a39ae7d344fd709f28e8600b4aa8c65c6b64bfe7fe36bd19b601f830160051c810191602084106105ef575b601f0160051c01905b8181106105e45750610153565b5f81556001016105d7565b90915081906105ce565b90607f1690610141565b90508501515f61010c565b60035f9081528181209250601f198416905b81811061065a57509083600194939210610642575b5050811b01600355610120565b8701515f1960f88460031b161c191690555f80610635565b9192602060018192868c015181550194019201610620565b60035f527fc2575a0e9e593c00f959f8c92f12db2869c3395a3b0502d05e2516446f71f85b601f830160051c810191602084106106cb575b601f0160051c01905b8181106106c057506100f6565b5f81556001016106b3565b90915081906106aa565b90607f16906100e4565b5f80fd5b601f909101601f19168101906001600160401b038211908210176104da57604052565b81601f820112156106df578051906001600160401b0382116104da576040519261073a601f8401601f1916602001856106e3565b828452602083830101116106df57815f9260208093018386015e8301015290565b600980546001600160a01b039283166001600160a01b0319821681179092559091167f8be0079c531659141344cd1fd0a4f28419497f9722a3daafe3b4186f6b6457e05f80a3565b908151602081105f1461081d575090601f8151116107dd5760208151910151602082106107ce571790565b5f198260200360031b1b161790565b604460209160405192839163305a27a960e01b83528160048401528051918291826024860152018484015e5f828201840152601f01601f19168101030190fd5b6001600160401b0381116104da57600554600181811c91168015610920575b60208210146104bc57601f81116108ed575b50602092601f821160011461088c57928192935f92610881575b50508160011b915f199060031b1c19161760055560ff90565b015190505f80610868565b601f1982169360055f52805f20915f5b8681106108d557508360019596106108bd575b505050811b0160055560ff90565b01515f1960f88460031b161c191690555f80806108af565b9192602060018192868501518155019401920161089c565b60055f52601f60205f20910160051c810190601f830160051c015b818110610915575061084e565b5f8155600101610908565b90607f169061083c565b908151602081105f14610955575090601f8151116107dd5760208151910151602082106107ce571790565b6001600160401b0381116104da57600654600181811c91168015610a58575b60208210146104bc57601f8111610a25575b50602092601f82116001146109c457928192935f926109b9575b50508160011b915f199060031b1c19161760065560ff90565b015190505f806109a0565b601f1982169360065f52805f20915f5b868110610a0d57508360019596106109f5575b505050811b0160065560ff90565b01515f1960f88460031b161c191690555f80806109e7565b919260206001819286850151815501940192016109d4565b60065f52601f60205f20910160051c810190601f830160051c015b818110610a4d5750610986565b5f8155600101610a40565b90607f169061097456fe6080806040526004361015610012575f80fd5b5f3560e01c90816306fdde0314610a7057508063095ea7b314610a4a57806318160ddd14610a2d57806323b872dd14610970578063313ce567146109555780633644e5151461093357806339509351146108d15780633c130d90146107f757806370a08231146107c0578063715018a6146107655780637ecebe001461072d57806384b0196e146106355780638da5cb5b1461060d57806395d89b4114610568578063a457c2d7146104c5578063a9059cbb14610494578063c623674f146103b2578063d505accf14610213578063dd62ed3e146101c35763f2fde38b146100f8575f80fd5b346101bf5760203660031901126101bf57610111610b36565b610119610fe7565b6001600160a01b0316801561016b57600980546001600160a01b0319811683179091556001600160a01b03167f8be0079c531659141344cd1fd0a4f28419497f9722a3daafe3b4186f6b6457e05f80a3005b60405162461bcd60e51b815260206004820152602660248201527f4f776e61626c653a206e6577206f776e657220697320746865207a65726f206160448201526564647265737360d01b6064820152608490fd5b5f80fd5b346101bf5760403660031901126101bf576101dc610b36565b6101e4610b4c565b6001600160a01b039182165f908152600160209081526040808320949093168252928352819020549051908152f35b346101bf5760e03660031901126101bf5761022c610b36565b610234610b4c565b6044359060643560843560ff811681036101bf5781421161036d5761030761030f9160018060a01b03871693845f52600760205260405f20908154916001830190556040519060208201927f6e71edae12b1b97f4d1f60370fef10105fa2faae0126114a169c64845d6126c9845287604084015260018060a01b038916606084015289608084015260a083015260c082015260c081526102d560e082610c1b565b5190206102e0610ecb565b906040519161190160f01b83526002830152602282015260c43591604260a43592206110d9565b91909161115f565b6001600160a01b0316036103285761032692610c51565b005b60405162461bcd60e51b815260206004820152601e60248201527f45524332305065726d69743a20696e76616c6964207369676e617475726500006044820152606490fd5b60405162461bcd60e51b815260206004820152601d60248201527f45524332305065726d69743a206578706972656420646561646c696e650000006044820152606490fd5b346101bf575f3660031901126101bf576040515f600a546103d281610b62565b80845290600181169081156104705750600114610412575b61040e836103fa81850382610c1b565b604051918291602083526020830190610b12565b0390f35b600a5f9081527fc65a7bb8d6351c1cf70c95a316cc6a92839c986682d98bc35f958f4883f9d2a8939250905b808210610456575090915081016020016103fa6103ea565b91926001816020925483858801015201910190929161043e565b60ff191660208086019190915291151560051b840190910191506103fa90506103ea565b346101bf5760403660031901126101bf576104ba6104b0610b36565b6024359033610d55565b602060405160018152f35b346101bf5760403660031901126101bf576104de610b36565b60243590335f52600160205260405f2060018060a01b0382165f5260205260405f205491808310610515576104ba92039033610c51565b60405162461bcd60e51b815260206004820152602560248201527f45524332303a2064656372656173656420616c6c6f77616e63652062656c6f77604482015264207a65726f60d81b6064820152608490fd5b346101bf575f3660031901126101bf576040515f60045461058881610b62565b808452906001811690811561047057506001146105af5761040e836103fa81850382610c1b565b60045f9081527f8a35acfbc15ff81a39ae7d344fd709f28e8600b4aa8c65c6b64bfe7fe36bd19b939250905b8082106105f3575090915081016020016103fa6103ea565b9192600181602092548385880101520191019092916105db565b346101bf575f3660031901126101bf576009546040516001600160a01b039091168152602090f35b346101bf575f3660031901126101bf576106d16106717f000000000000000000000000000000000000000000000000000000000000000061103f565b61069a7f00000000000000000000000000000000000000000000000000000000000000006110a2565b60206106df604051926106ad8385610c1b565b5f84525f368137604051958695600f60f81b875260e08588015260e0870190610b12565b908582036040870152610b12565b4660608501523060808501525f60a085015283810360c08501528180845192838152019301915f5b82811061071657505050500390f35b835185528695509381019392810192600101610707565b346101bf5760203660031901126101bf576001600160a01b0361074e610b36565b165f526007602052602060405f2054604051908152f35b346101bf575f3660031901126101bf5761077d610fe7565b600980546001600160a01b031981169091555f906001600160a01b03167f8be0079c531659141344cd1fd0a4f28419497f9722a3daafe3b4186f6b6457e08280a3005b346101bf5760203660031901126101bf576001600160a01b036107e1610b36565b165f525f602052602060405f2054604051908152f35b346101bf575f3660031901126101bf5760405166697066733a2f2f60c81b60208201525f90600a5461082881610b62565b90600181169081156108ad5750600114610854575b506103fa8161040e9303601f198101835282610c1b565b9150600a5f527fc65a7bb8d6351c1cf70c95a316cc6a92839c986682d98bc35f958f4883f9d2a85f905b838210610896575050908101602701906103fa61083d565b60018160209254602785870101520191019061087e565b60ff1916602780850191909152821515909202830190910192506103fa905061083d565b346101bf5760403660031901126101bf576108ea610b36565b335f52600160205260405f2060018060a01b0382165f5260205260405f2054602435810180911161091f576104ba9133610c51565b634e487b7160e01b5f52601160045260245ffd5b346101bf575f3660031901126101bf57602061094d610ecb565b604051908152f35b346101bf575f3660031901126101bf57602060405160128152f35b346101bf5760603660031901126101bf57610989610b36565b610991610b4c565b6001600160a01b0382165f9081526001602081815260408084203385529091529091205492604435929184016109cc575b6104ba9350610d55565b8284106109e8576109e3836104ba95033383610c51565b6109c2565b60405162461bcd60e51b815260206004820152601d60248201527f45524332303a20696e73756666696369656e7420616c6c6f77616e63650000006044820152606490fd5b346101bf575f3660031901126101bf576020600254604051908152f35b346101bf5760403660031901126101bf576104ba610a66610b36565b6024359033610c51565b346101bf575f3660031901126101bf575f600354610a8d81610b62565b80845290600181169081156104705750600114610ab45761040e836103fa81850382610c1b565b60035f9081527fc2575a0e9e593c00f959f8c92f12db2869c3395a3b0502d05e2516446f71f85b939250905b808210610af8575090915081016020016103fa6103ea565b919260018160209254838588010152019101909291610ae0565b805180835260209291819084018484015e5f828201840152601f01601f1916010190565b600435906001600160a01b03821682036101bf57565b602435906001600160a01b03821682036101bf57565b90600182811c92168015610b90575b6020831014610b7c57565b634e487b7160e01b5f52602260045260245ffd5b91607f1691610b71565b5f9291815491610ba983610b62565b8083529260018116908115610bfe5750600114610bc557505050565b5f9081526020812093945091925b838310610be4575060209250010190565b600181602092949394548385870101520191019190610bd3565b915050602093945060ff929192191683830152151560051b010190565b90601f8019910116810190811067ffffffffffffffff821117610c3d57604052565b634e487b7160e01b5f52604160045260245ffd5b6001600160a01b0316908115610d04576001600160a01b0316918215610cb45760207f8c5be1e5ebec7d5bd14f71427d1e84f3dd0314c0f7b2291e5b200ac8c7c3b92591835f526001825260405f20855f5282528060405f2055604051908152a3565b60405162461bcd60e51b815260206004820152602260248201527f45524332303a20617070726f766520746f20746865207a65726f206164647265604482015261737360f01b6064820152608490fd5b60405162461bcd60e51b8152602060048201526024808201527f45524332303a20617070726f76652066726f6d20746865207a65726f206164646044820152637265737360e01b6064820152608490fd5b6001600160a01b0316908115610e78576001600160a01b0316918215610e2757815f525f60205260405f2054818110610dd357817fddf252ad1be2c89b69c2b068fc378daa952ba7f163c4a11628f55a4df523b3ef92602092855f525f84520360405f2055845f525f825260405f20818154019055604051908152a3565b60405162461bcd60e51b815260206004820152602660248201527f45524332303a207472616e7366657220616d6f756e7420657863656564732062604482015265616c616e636560d01b6064820152608490fd5b60405162461bcd60e51b815260206004820152602360248201527f45524332303a207472616e7366657220746f20746865207a65726f206164647260448201526265737360e81b6064820152608490fd5b60405162461bcd60e51b815260206004820152602560248201527f45524332303a207472616e736665722066726f6d20746865207a65726f206164604482015264647265737360d81b6064820152608490fd5b307f00000000000000000000000000000000000000000000000000000000000000006001600160a01b03161480610fbe575b15610f26577f000000000000000000000000000000000000000000000000000000000000000090565b60405160208101907f8b73c3c69bb8fe3d512ecc4cf759cc79239f7b179b0ffacaa9a75d522b39400f82527f000000000000000000000000000000000000000000000000000000000000000060408201527f000000000000000000000000000000000000000000000000000000000000000060608201524660808201523060a082015260a08152610fb860c082610c1b565b51902090565b507f00000000000000000000000000000000000000000000000000000000000000004614610efd565b6009546001600160a01b03163303610ffb57565b606460405162461bcd60e51b815260206004820152602060248201527f4f776e61626c653a2063616c6c6572206973206e6f7420746865206f776e65726044820152fd5b60ff81146110855760ff811690601f82116110765760405191611063604084610c1b565b6020808452838101919036833783525290565b632cd44ac360e21b5f5260045ffd5b5060405161109f81611098816005610b9a565b0382610c1b565b90565b60ff81146110c65760ff811690601f82116110765760405191611063604084610c1b565b5060405161109f81611098816006610b9a565b7f7fffffffffffffffffffffffffffffff5d576e7357a4501ddfe92f46681b20a08411611154576020935f9360ff60809460405194855216868401526040830152606082015282805260015afa15611149575f516001600160a01b0381161561114157905f90565b505f90600190565b6040513d5f823e3d90fd5b505050505f90600390565b600581101561126357806111705750565b600181036111bd5760405162461bcd60e51b815260206004820152601860248201527f45434453413a20696e76616c6964207369676e617475726500000000000000006044820152606490fd5b6002810361120a5760405162461bcd60e51b815260206004820152601f60248201527f45434453413a20696e76616c6964207369676e6174757265206c656e677468006044820152606490fd5b60031461121357565b60405162461bcd60e51b815260206004820152602260248201527f45434453413a20696e76616c6964207369676e6174757265202773272076616c604482015261756560f01b6064820152608490fd5b634e487b7160e01b5f52602160045260245ffdfea264697066735822122085a0ecb6eea6517c1301fbb54ef1fe6e4c690d994845e6661978c15f7c43837964736f6c634300081e0033a2646970667358221220ed60cf624da46caccb7ccc93de961e86c0e5b7f0b55c14cab09e09ab438d8e1764736f6c634300081e00332f8788117e7eff1d82e926ec794901d17c78024a50270940304540a733656f0df7c9542c591017a21c74b6f3fab6263c7952fc0aaf9db4c22a2a04ddc7f8674fee57cd81e84075558e8fcc182a1f4393f91fc97f963a136e66b7f949a62f319fad3228b676f7d3cd4284a5443f17f1962b36e491b30a40b2405849e597ba5fb5",
    "sourcePath": "d:/NFT-MarketPlace/Contracts/my-meme-launcher/contracts/MemeCoinFactory.sol",
    "compiler": {
        "name": "solc",
        "version": "0.8.30+commit.73712a01"
    },
    "functionHashes": {
        "DEFAULT_ADMIN_ROLE()": "a217fddf",
        "OPERATOR_ROLE()": "f5b541a6",
        "PAUSER_ROLE()": "e63ab1e9",
        "addToWhitelist(address,address[])": "e559afd9",
        "addTokenLiquidity(address,uint256)": "14fe72aa",
        "allTokens(uint256)": "634282af",
        "buyPresale(address,uint256,uint256,address,bytes32[])": "d9d0a5be",
        "buyToken(address,uint256,address)": "692bf4a8",
        "configureDex(address,address)": "dc97ecf6",
        "createMemeCoin(string,string,string,uint256,uint256,string)": "d634b419",
        "createPair(address)": "9ccb0744",
        "creatorFeesAccrued(address)": "c748713e",
        "dexHelper()": "e4c608f1",
        "emergencyWithdrawETH()": "84536017",
        "endSale(address)": "8c9f7b39",
        "getAllTokenInfo()": "95abc091",
        "getRoleAdmin(bytes32)": "248a9ca3",
        "getTokenInfoByAddress(address)": "3df9a720",
        "getTokens(uint256,uint256)": "494cfc6c",
        "getUserHoldings(address)": "8231f4f0",
        "grantRole(bytes32,address)": "2f2ff15d",
        "hasRole(bytes32,address)": "91d14854",
        "pause()": "8456cb59",
        "pauseTokenSales(address)": "66c5b06c",
        "paused()": "5c975abb",
        "platformFeeBP()": "ff96092a",
        "platformFeesAccrued()": "22163b86",
        "presaleClaimed(address,address)": "ac76d084",
        "presaleMerkleRoot()": "22212e2b",
        "reclaimUnsold(address,uint256)": "0e3f0cfc",
        "referralFeeBP()": "dc4ec9be",
        "removeFromWhitelist(address,address[])": "ad3e080a",
        "removeTokenLiquidity(address,uint256)": "84d93612",
        "renounceRole(bytes32,address)": "36568abe",
        "rescueERC20(address,uint256)": "8cd4426d",
        "revokeRole(bytes32,address)": "d547741f",
        "setDexHelper(address)": "15a1603b",
        "setPresaleMerkleRoot(bytes32)": "28d7b276",
        "supportsInterface(bytes4)": "01ffc9a7",
        "sweepHelperDust(address,address)": "943711ea",
        "toggleListingActive(address,bool)": "a9e3929e",
        "toggleWhitelist(address,bool)": "349123d1",
        "tokenIndexPlusOne(address)": "35a62e68",
        "tokenPaused(address)": "8995881d",
        "totalTokens()": "7e1c0c09",
        "unpause()": "3f4ba83a",
        "unpauseTokenSales(address)": "f0b6374b",
        "updateFees(uint16,uint16)": "f3d2350e",
        "whitelistEnabled(address)": "79c8ffd6",
        "whitelisted(address,address)": "bc120fe7",
        "withdrawCreatorFeesBatch(address[])": "e5f8af9f",
        "withdrawMyCreatorFees()": "336322d2",
        "withdrawPlatformFees(address)": "ec3889b5"
    },
    "gasEstimates": {
        "creation": {
            "codeDepositCost": "4159000",
            "executionCost": "infinite",
            "totalCost": "infinite"
        },
        "external": {
            "": "1239",
            "DEFAULT_ADMIN_ROLE()": "890",
            "OPERATOR_ROLE()": "1283",
            "PAUSER_ROLE()": "1195",
            "addToWhitelist(address,address[])": "infinite",
            "addTokenLiquidity(address,uint256)": "infinite",
            "allTokens(uint256)": "infinite",
            "buyPresale(address,uint256,uint256,address,bytes32[])": "infinite",
            "buyToken(address,uint256,address)": "infinite",
            "configureDex(address,address)": "infinite",
            "createMemeCoin(string,string,string,uint256,uint256,string)": "infinite",
            "createPair(address)": "infinite",
            "creatorFeesAccrued(address)": "3254",
            "dexHelper()": "3256",
            "emergencyWithdrawETH()": "infinite",
            "endSale(address)": "infinite",
            "getAllTokenInfo()": "infinite",
            "getRoleAdmin(bytes32)": "2478",
            "getTokenInfoByAddress(address)": "infinite",
            "getTokens(uint256,uint256)": "infinite",
            "getUserHoldings(address)": "infinite",
            "grantRole(bytes32,address)": "infinite",
            "hasRole(bytes32,address)": "3127",
            "pause()": "infinite",
            "pauseTokenSales(address)": "infinite",
            "paused()": "2625",
            "platformFeeBP()": "3408",
            "platformFeesAccrued()": "2349",
            "presaleClaimed(address,address)": "3340",
            "presaleMerkleRoot()": "2371",
            "reclaimUnsold(address,uint256)": "infinite",
            "referralFeeBP()": "3200",
            "removeFromWhitelist(address,address[])": "infinite",
            "removeTokenLiquidity(address,uint256)": "infinite",
            "renounceRole(bytes32,address)": "29096",
            "rescueERC20(address,uint256)": "infinite",
            "revokeRole(bytes32,address)": "infinite",
            "setDexHelper(address)": "infinite",
            "setPresaleMerkleRoot(bytes32)": "infinite",
            "supportsInterface(bytes4)": "275",
            "sweepHelperDust(address,address)": "infinite",
            "toggleListingActive(address,bool)": "infinite",
            "toggleWhitelist(address,bool)": "infinite",
            "tokenIndexPlusOne(address)": "2653",
            "tokenPaused(address)": "2995",
            "totalTokens()": "2723",
            "unpause()": "infinite",
            "unpauseTokenSales(address)": "infinite",
            "updateFees(uint16,uint16)": "infinite",
            "whitelistEnabled(address)": "2863",
            "whitelisted(address,address)": "3396",
            "withdrawCreatorFeesBatch(address[])": "infinite",
            "withdrawMyCreatorFees()": "infinite",
            "withdrawPlatformFees(address)": "infinite"
        }
    }
}