{
    "contractName": "MemeCoinFactory",
    "abi": [
        {
            "inputs": [
                {
                    "internalType": "uint16",
                    "name": "_platformFeeBP",
                    "type": "uint16"
                },
                {
                    "internalType": "uint16",
                    "name": "_referralFeeBP",
                    "type": "uint16"
                }
            ],
            "stateMutability": "nonpayable",
            "type": "constructor"
        },
        {
            "inputs": [],
            "name": "BuysPaused",
            "type": "error"
        },
        {
            "inputs": [],
            "name": "EnforcedPause",
            "type": "error"
        },
        {
            "inputs": [],
            "name": "ExpectedPause",
            "type": "error"
        },
        {
            "inputs": [],
            "name": "IncorrectETH",
            "type": "error"
        },
        {
            "inputs": [],
            "name": "NoVesting",
            "type": "error"
        },
        {
            "inputs": [],
            "name": "NotAuthorized",
            "type": "error"
        },
        {
            "inputs": [],
            "name": "NotLaunched",
            "type": "error"
        },
        {
            "inputs": [],
            "name": "NotWhitelisted",
            "type": "error"
        },
        {
            "inputs": [
                {
                    "internalType": "address",
                    "name": "owner",
                    "type": "address"
                }
            ],
            "name": "OwnableInvalidOwner",
            "type": "error"
        },
        {
            "inputs": [
                {
                    "internalType": "address",
                    "name": "account",
                    "type": "address"
                }
            ],
            "name": "OwnableUnauthorizedAccount",
            "type": "error"
        },
        {
            "inputs": [],
            "name": "PriceZero",
            "type": "error"
        },
        {
            "inputs": [],
            "name": "ReentrancyGuardReentrantCall",
            "type": "error"
        },
        {
            "inputs": [
                {
                    "internalType": "address",
                    "name": "token",
                    "type": "address"
                }
            ],
            "name": "SafeERC20FailedOperation",
            "type": "error"
        },
        {
            "inputs": [],
            "name": "TokenPaused",
            "type": "error"
        },
        {
            "inputs": [],
            "name": "ZeroAmount",
            "type": "error"
        },
        {
            "anonymous": false,
            "inputs": [
                {
                    "indexed": true,
                    "internalType": "address",
                    "name": "token",
                    "type": "address"
                },
                {
                    "indexed": true,
                    "internalType": "address",
                    "name": "buyer",
                    "type": "address"
                },
                {
                    "indexed": false,
                    "internalType": "uint256",
                    "name": "amountAtomic",
                    "type": "uint256"
                },
                {
                    "indexed": false,
                    "internalType": "uint256",
                    "name": "costWei",
                    "type": "uint256"
                },
                {
                    "indexed": true,
                    "internalType": "address",
                    "name": "referrer",
                    "type": "address"
                },
                {
                    "indexed": false,
                    "internalType": "uint256",
                    "name": "platformShare",
                    "type": "uint256"
                },
                {
                    "indexed": false,
                    "internalType": "uint256",
                    "name": "referralShare",
                    "type": "uint256"
                },
                {
                    "indexed": false,
                    "internalType": "uint256",
                    "name": "creatorShare",
                    "type": "uint256"
                }
            ],
            "name": "Bought",
            "type": "event"
        },
        {
            "anonymous": false,
            "inputs": [],
            "name": "BuysPausedEvent",
            "type": "event"
        },
        {
            "anonymous": false,
            "inputs": [],
            "name": "BuysUnpausedEvent",
            "type": "event"
        },
        {
            "anonymous": false,
            "inputs": [
                {
                    "indexed": false,
                    "internalType": "address",
                    "name": "factory",
                    "type": "address"
                },
                {
                    "indexed": false,
                    "internalType": "address",
                    "name": "router",
                    "type": "address"
                }
            ],
            "name": "DexConfigured",
            "type": "event"
        },
        {
            "anonymous": false,
            "inputs": [
                {
                    "indexed": true,
                    "internalType": "address",
                    "name": "to",
                    "type": "address"
                },
                {
                    "indexed": false,
                    "internalType": "uint256",
                    "name": "amount",
                    "type": "uint256"
                }
            ],
            "name": "ETHRescued",
            "type": "event"
        },
        {
            "anonymous": false,
            "inputs": [
                {
                    "indexed": false,
                    "internalType": "uint16",
                    "name": "newPlatformFeeBP",
                    "type": "uint16"
                },
                {
                    "indexed": false,
                    "internalType": "uint16",
                    "name": "newReferralFeeBP",
                    "type": "uint16"
                }
            ],
            "name": "FeesUpdated",
            "type": "event"
        },
        {
            "anonymous": false,
            "inputs": [
                {
                    "indexed": true,
                    "internalType": "address",
                    "name": "token",
                    "type": "address"
                },
                {
                    "indexed": false,
                    "internalType": "string",
                    "name": "newDescription",
                    "type": "string"
                },
                {
                    "indexed": false,
                    "internalType": "string",
                    "name": "newIpfsHash",
                    "type": "string"
                }
            ],
            "name": "MetadataUpdated",
            "type": "event"
        },
        {
            "anonymous": false,
            "inputs": [
                {
                    "indexed": true,
                    "internalType": "address",
                    "name": "previousOwner",
                    "type": "address"
                },
                {
                    "indexed": true,
                    "internalType": "address",
                    "name": "newOwner",
                    "type": "address"
                }
            ],
            "name": "OwnershipTransferred",
            "type": "event"
        },
        {
            "anonymous": false,
            "inputs": [
                {
                    "indexed": false,
                    "internalType": "address",
                    "name": "account",
                    "type": "address"
                }
            ],
            "name": "Paused",
            "type": "event"
        },
        {
            "anonymous": false,
            "inputs": [
                {
                    "indexed": false,
                    "internalType": "bytes32",
                    "name": "newRoot",
                    "type": "bytes32"
                }
            ],
            "name": "PresaleRootUpdated",
            "type": "event"
        },
        {
            "anonymous": false,
            "inputs": [
                {
                    "indexed": true,
                    "internalType": "address",
                    "name": "token",
                    "type": "address"
                },
                {
                    "indexed": false,
                    "internalType": "uint256",
                    "name": "newPriceWei",
                    "type": "uint256"
                }
            ],
            "name": "PriceUpdated",
            "type": "event"
        },
        {
            "anonymous": false,
            "inputs": [
                {
                    "indexed": true,
                    "internalType": "address",
                    "name": "token",
                    "type": "address"
                },
                {
                    "indexed": true,
                    "internalType": "address",
                    "name": "creator",
                    "type": "address"
                },
                {
                    "indexed": false,
                    "internalType": "uint256",
                    "name": "priceWei",
                    "type": "uint256"
                },
                {
                    "indexed": false,
                    "internalType": "string",
                    "name": "description",
                    "type": "string"
                },
                {
                    "indexed": false,
                    "internalType": "string",
                    "name": "ipfsHash",
                    "type": "string"
                }
            ],
            "name": "TokenCreated",
            "type": "event"
        },
        {
            "anonymous": false,
            "inputs": [
                {
                    "indexed": true,
                    "internalType": "address",
                    "name": "token",
                    "type": "address"
                }
            ],
            "name": "TokenPausedEvent",
            "type": "event"
        },
        {
            "anonymous": false,
            "inputs": [
                {
                    "indexed": true,
                    "internalType": "address",
                    "name": "token",
                    "type": "address"
                },
                {
                    "indexed": false,
                    "internalType": "uint256",
                    "name": "amount",
                    "type": "uint256"
                }
            ],
            "name": "TokenRescued",
            "type": "event"
        },
        {
            "anonymous": false,
            "inputs": [
                {
                    "indexed": true,
                    "internalType": "address",
                    "name": "token",
                    "type": "address"
                }
            ],
            "name": "TokenUnpausedEvent",
            "type": "event"
        },
        {
            "anonymous": false,
            "inputs": [
                {
                    "indexed": false,
                    "internalType": "address",
                    "name": "account",
                    "type": "address"
                }
            ],
            "name": "Unpaused",
            "type": "event"
        },
        {
            "anonymous": false,
            "inputs": [
                {
                    "indexed": true,
                    "internalType": "address",
                    "name": "token",
                    "type": "address"
                },
                {
                    "indexed": false,
                    "internalType": "uint256",
                    "name": "amount",
                    "type": "uint256"
                }
            ],
            "name": "UnsoldReclaimed",
            "type": "event"
        },
        {
            "anonymous": false,
            "inputs": [
                {
                    "indexed": true,
                    "internalType": "address",
                    "name": "beneficiary",
                    "type": "address"
                },
                {
                    "indexed": false,
                    "internalType": "uint256",
                    "name": "amountClaimed",
                    "type": "uint256"
                }
            ],
            "name": "VestedClaimed",
            "type": "event"
        },
        {
            "anonymous": false,
            "inputs": [
                {
                    "indexed": true,
                    "internalType": "address",
                    "name": "beneficiary",
                    "type": "address"
                },
                {
                    "indexed": false,
                    "internalType": "uint256",
                    "name": "total",
                    "type": "uint256"
                },
                {
                    "indexed": false,
                    "internalType": "uint256",
                    "name": "start",
                    "type": "uint256"
                },
                {
                    "indexed": false,
                    "internalType": "uint256",
                    "name": "cliff",
                    "type": "uint256"
                },
                {
                    "indexed": false,
                    "internalType": "uint256",
                    "name": "duration",
                    "type": "uint256"
                }
            ],
            "name": "VestingScheduleSet",
            "type": "event"
        },
        {
            "stateMutability": "payable",
            "type": "fallback"
        },
        {
            "inputs": [
                {
                    "internalType": "address",
                    "name": "token_",
                    "type": "address"
                },
                {
                    "internalType": "uint256",
                    "name": "tokenAmount_",
                    "type": "uint256"
                }
            ],
            "name": "addLiquidity",
            "outputs": [
                {
                    "internalType": "uint256",
                    "name": "amountToken",
                    "type": "uint256"
                },
                {
                    "internalType": "uint256",
                    "name": "amountETH",
                    "type": "uint256"
                },
                {
                    "internalType": "uint256",
                    "name": "liquidity",
                    "type": "uint256"
                }
            ],
            "stateMutability": "payable",
            "type": "function"
        },
        {
            "inputs": [
                {
                    "internalType": "uint256",
                    "name": "",
                    "type": "uint256"
                }
            ],
            "name": "allTokens",
            "outputs": [
                {
                    "internalType": "address",
                    "name": "token",
                    "type": "address"
                },
                {
                    "internalType": "address",
                    "name": "creator",
                    "type": "address"
                },
                {
                    "internalType": "uint256",
                    "name": "priceWei",
                    "type": "uint256"
                },
                {
                    "internalType": "string",
                    "name": "description",
                    "type": "string"
                },
                {
                    "internalType": "string",
                    "name": "ipfsHash",
                    "type": "string"
                }
            ],
            "stateMutability": "view",
            "type": "function"
        },
        {
            "inputs": [],
            "name": "buysPaused",
            "outputs": [
                {
                    "internalType": "bool",
                    "name": "",
                    "type": "bool"
                }
            ],
            "stateMutability": "view",
            "type": "function"
        },
        {
            "inputs": [],
            "name": "dexFactory",
            "outputs": [
                {
                    "internalType": "address",
                    "name": "",
                    "type": "address"
                }
            ],
            "stateMutability": "view",
            "type": "function"
        },
        {
            "inputs": [],
            "name": "dexRouter",
            "outputs": [
                {
                    "internalType": "address",
                    "name": "",
                    "type": "address"
                }
            ],
            "stateMutability": "view",
            "type": "function"
        },
        {
            "inputs": [],
            "name": "owner",
            "outputs": [
                {
                    "internalType": "address",
                    "name": "",
                    "type": "address"
                }
            ],
            "stateMutability": "view",
            "type": "function"
        },
        {
            "inputs": [],
            "name": "paused",
            "outputs": [
                {
                    "internalType": "bool",
                    "name": "",
                    "type": "bool"
                }
            ],
            "stateMutability": "view",
            "type": "function"
        },
        {
            "inputs": [],
            "name": "platformFeeBP",
            "outputs": [
                {
                    "internalType": "uint16",
                    "name": "",
                    "type": "uint16"
                }
            ],
            "stateMutability": "view",
            "type": "function"
        },
        {
            "inputs": [],
            "name": "presaleMerkleRoot",
            "outputs": [
                {
                    "internalType": "bytes32",
                    "name": "",
                    "type": "bytes32"
                }
            ],
            "stateMutability": "view",
            "type": "function"
        },
        {
            "inputs": [],
            "name": "referralFeeBP",
            "outputs": [
                {
                    "internalType": "uint16",
                    "name": "",
                    "type": "uint16"
                }
            ],
            "stateMutability": "view",
            "type": "function"
        },
        {
            "inputs": [
                {
                    "internalType": "address",
                    "name": "token_",
                    "type": "address"
                },
                {
                    "internalType": "uint256",
                    "name": "liquidity_",
                    "type": "uint256"
                }
            ],
            "name": "removeLiquidity",
            "outputs": [
                {
                    "internalType": "uint256",
                    "name": "amountToken",
                    "type": "uint256"
                },
                {
                    "internalType": "uint256",
                    "name": "amountETH",
                    "type": "uint256"
                }
            ],
            "stateMutability": "nonpayable",
            "type": "function"
        },
        {
            "inputs": [],
            "name": "renounceOwnership",
            "outputs": [],
            "stateMutability": "nonpayable",
            "type": "function"
        },
        {
            "inputs": [
                {
                    "internalType": "address",
                    "name": "",
                    "type": "address"
                }
            ],
            "name": "tokenIndexPlusOne",
            "outputs": [
                {
                    "internalType": "uint256",
                    "name": "",
                    "type": "uint256"
                }
            ],
            "stateMutability": "view",
            "type": "function"
        },
        {
            "inputs": [
                {
                    "internalType": "address",
                    "name": "",
                    "type": "address"
                }
            ],
            "name": "tokenPaused",
            "outputs": [
                {
                    "internalType": "bool",
                    "name": "",
                    "type": "bool"
                }
            ],
            "stateMutability": "view",
            "type": "function"
        },
        {
            "inputs": [
                {
                    "internalType": "address",
                    "name": "newOwner",
                    "type": "address"
                }
            ],
            "name": "transferOwnership",
            "outputs": [],
            "stateMutability": "nonpayable",
            "type": "function"
        },
        {
            "inputs": [
                {
                    "internalType": "address",
                    "name": "",
                    "type": "address"
                }
            ],
            "name": "vestingSchedules",
            "outputs": [
                {
                    "internalType": "uint256",
                    "name": "total",
                    "type": "uint256"
                },
                {
                    "internalType": "uint256",
                    "name": "claimed",
                    "type": "uint256"
                },
                {
                    "internalType": "uint256",
                    "name": "start",
                    "type": "uint256"
                },
                {
                    "internalType": "uint256",
                    "name": "cliff",
                    "type": "uint256"
                },
                {
                    "internalType": "uint256",
                    "name": "duration",
                    "type": "uint256"
                }
            ],
            "stateMutability": "view",
            "type": "function"
        },
        {
            "stateMutability": "payable",
            "type": "receive"
        }
    ],
    "bytecode": "60803461014b57601f610d3238819003918201601f19168301916001600160401b0383118484101761014f57808492604094855283398101031261014b57610052602061004b83610163565b9201610163565b903315610138575f8054336001600160a01b03198216811783556040519361ffff9390926001600160a01b0316907f8be0079c531659141344cd1fd0a4f28419497f9722a3daafe3b4186f6b6457e09080a360018055169061ffff8316820161ffff81116101245761ffff612710911610156100f2575063ffff00006006549260101b169163ffffffff19161717600655604051610bbf90816101738239f35b62461bcd60e51b815260206004820152600d60248201526c08ccacae640e8dede40d0d2ced609b1b6044820152606490fd5b634e487b7160e01b5f52601160045260245ffd5b631e4fbdf760e01b5f525f60045260245ffd5b5f80fd5b634e487b7160e01b5f52604160045260245ffd5b519061ffff8216820361014b5756fe608080604052600436101561001a575b503661092e5761092e565b5f3560e01c9081630758d924146107b05750806322212e2b146107935780632319835c1461076e57806335a62e681461073657806356688700146106325780635c975abb14610610578063634282af146104da578063715018a6146104835780638995881d146104465780638da5cb5b1461041f578063a201ccf614610230578063b8d8fbb414610208578063dc4ec9be146101e4578063f2fde38b1461015f578063fdb20ccb146100fb5763ff96092a146100d6575f61000f565b346100f7575f3660031901126100f757602061ffff60065416604051908152f35b5f80fd5b346100f75760203660031901126100f7576001600160a01b0361011c6107d3565b165f52600960205260a060405f20805490600181015490600281015460046003830154920154926040519485526020850152604084015260608301526080820152f35b346100f75760203660031901126100f7576101786107d3565b610180610b0b565b6001600160a01b031680156101d1575f80546001600160a01b03198116831782556001600160a01b0316907f8be0079c531659141344cd1fd0a4f28419497f9722a3daafe3b4186f6b6457e09080a3005b631e4fbdf760e01b5f525f60045260245ffd5b346100f7575f3660031901126100f757602061ffff60065460101c16604051908152f35b346100f7575f3660031901126100f757600654604051602091821c6001600160a01b03168152f35b346100f75760403660031901126100f7576102496107d3565b6004602435610256610962565b6007546040516315ab88c960e31b81529260209184919082906001600160a01b03165afa9182156103c8576102cd926020915f91610402575b5060065460405163e6a4390560e01b81526001600160a01b038781166004830152928316602482015294859291841c90911690829081906044820190565b03915afa9283156103c85761031282610367956040955f916103d3575b506001600160a01b031661030082303384610982565b6007546001600160a01b0316906109cb565b6007548351629d473b60e21b81526001600160a01b03928316600482015260248101939093525f60448401819052606484018190523360848501524260a48501529294859392909116918391829060c4820190565b03925af180156103c8575f905f9061038e575b604092506001805582519182526020820152f35b50506040813d6040116103c0575b816103a9604093836107e9565b810103126100f7578060206040925191015161037a565b3d915061039c565b6040513d5f823e3d90fd5b6103f5915060203d6020116103fb575b6103ed81836107e9565b81019061090f565b876102ea565b503d6103e3565b6104199150823d84116103fb576103ed81836107e9565b8561028f565b346100f7575f3660031901126100f7575f546040516001600160a01b039091168152602090f35b346100f75760203660031901126100f7576001600160a01b036104676107d3565b165f526005602052602060ff60405f2054166040519015158152f35b346100f7575f3660031901126100f75761049b610b0b565b5f80546001600160a01b0319811682556001600160a01b03167f8be0079c531659141344cd1fd0a4f28419497f9722a3daafe3b4186f6b6457e08280a3005b346100f75760203660031901126100f7576004356003548110156100f75760059060035f520260018060a01b03817fc2575a0e9e593c00f959f8c92f12db2869c3395a3b0502d05e2516446f71f85b01541661060c60018060a01b037fc2575a0e9e593c00f959f8c92f12db2869c3395a3b0502d05e2516446f71f85c84015416926105fe7fc2575a0e9e593c00f959f8c92f12db2869c3395a3b0502d05e2516446f71f85d820154916105da7fc2575a0e9e593c00f959f8c92f12db2869c3395a3b0502d05e2516446f71f85f6105d37fc2575a0e9e593c00f959f8c92f12db2869c3395a3b0502d05e2516446f71f85e840161081f565b920161081f565b9260405196879687526020870152604086015260a0606086015260a08501906108eb565b9083820360808501526108eb565b0390f35b346100f7575f3660031901126100f757602060ff600254166040519015158152f35b60403660031901126100f7576106c5606061064b6107d3565b60243590610657610962565b610671826001600160a01b03831661030082303384610982565b60075460405163f305d71960e01b81526001600160a01b03928316600482015260248101939093525f6044840181905260648401523360848401524260a484015291938492909116908290819060c4820190565b039134905af180156103c8575f905f5f916106f5575b606093506001805560405192835260208301526040820152f35b5050506060813d60601161072e575b81610711606093836107e9565b810103126100f757805160208201516040909201516060926106db565b3d9150610704565b346100f75760203660031901126100f7576001600160a01b036107576107d3565b165f526004602052602060405f2054604051908152f35b346100f7575f3660031901126100f757602060ff60075460a01c166040519015158152f35b346100f7575f3660031901126100f7576020600854604051908152f35b346100f7575f3660031901126100f7576007546001600160a01b03168152602090f35b600435906001600160a01b03821682036100f757565b90601f8019910116810190811067ffffffffffffffff82111761080b57604052565b634e487b7160e01b5f52604160045260245ffd5b90604051915f8154908160011c92600183169283156108e1575b6020851084146108cd5784875286939081156108ab5750600114610867575b50610865925003836107e9565b565b90505f9291925260205f20905f915b81831061088f575050906020610865928201015f610858565b6020919350806001915483858901015201910190918492610876565b90506020925061086594915060ff191682840152151560051b8201015f610858565b634e487b7160e01b5f52602260045260245ffd5b93607f1693610839565b805180835260209291819084018484015e5f828201840152601f01601f1916010190565b908160209103126100f757516001600160a01b03811681036100f75790565b60405162461bcd60e51b815260206004820152600c60248201526b2ab9b290313abcaa37b5b2b760a11b6044820152606490fd5b600260015414610973576002600155565b633ee5aeb560e01b5f5260045ffd5b6040516323b872dd60e01b60208201526001600160a01b039283166024820152929091166044830152606480830193909352918152610865916109c66084836107e9565b610b31565b604051636eb1769f60e11b81523060048201526001600160a01b038381166024830152909390821690602085604481855afa9485156103c8575f95610ad7575b508401809411610ac35760205f604051948286019063095ea7b360e01b825260018060a01b031696876024880152604487015260448652610a4d6064876107e9565b85519082865af1903d5f519083610aa4575b50505015610a6c57505050565b6109c6610865936040519063095ea7b360e01b602083015260248201525f604482015260448152610a9e6064826107e9565b82610b31565b91925090610ab957503b15155b5f8080610a5f565b6001915014610ab1565b634e487b7160e01b5f52601160045260245ffd5b9094506020813d602011610b03575b81610af3602093836107e9565b810103126100f75751935f610a0b565b3d9150610ae6565b5f546001600160a01b03163303610b1e57565b63118cdaa760e01b5f523360045260245ffd5b905f602091828151910182855af1156103c8575f513d610b8057506001600160a01b0381163b155b610b605750565b635274afe760e01b5f9081526001600160a01b0391909116600452602490fd5b60011415610b5956fea2646970667358221220f45a27167aef07415fc2b230c47765ff98c85c6c8ffc0273a3dce2f4d79ea38164736f6c634300081e0033",
    "sourcePath": "d:/NFT-MarketPlace/Contracts/my-meme-launcher/contracts/MemeCoinFactory.sol",
    "compiler": {
        "name": "solc",
        "version": "0.8.30+commit.73712a01"
    },
    "functionHashes": {
        "addLiquidity(address,uint256)": "56688700",
        "allTokens(uint256)": "634282af",
        "buysPaused()": "2319835c",
        "dexFactory()": "b8d8fbb4",
        "dexRouter()": "0758d924",
        "owner()": "8da5cb5b",
        "paused()": "5c975abb",
        "platformFeeBP()": "ff96092a",
        "presaleMerkleRoot()": "22212e2b",
        "referralFeeBP()": "dc4ec9be",
        "removeLiquidity(address,uint256)": "a201ccf6",
        "renounceOwnership()": "715018a6",
        "tokenIndexPlusOne(address)": "35a62e68",
        "tokenPaused(address)": "8995881d",
        "transferOwnership(address)": "f2fde38b",
        "vestingSchedules(address)": "fdb20ccb"
    },
    "gasEstimates": {
        "creation": {
            "codeDepositCost": "601400",
            "executionCost": "infinite",
            "totalCost": "infinite"
        },
        "external": {
            "": "547",
            "addLiquidity(address,uint256)": "infinite",
            "allTokens(uint256)": "infinite",
            "buysPaused()": "2318",
            "dexFactory()": "2522",
            "dexRouter()": "2266",
            "owner()": "2477",
            "paused()": "2378",
            "platformFeeBP()": "2589",
            "presaleMerkleRoot()": "2278",
            "referralFeeBP()": "2532",
            "removeLiquidity(address,uint256)": "infinite",
            "renounceOwnership()": "28204",
            "tokenIndexPlusOne(address)": "2472",
            "tokenPaused(address)": "2594",
            "transferOwnership(address)": "28456",
            "vestingSchedules(address)": "11222"
        }
    }
}