{
    "contractName": "SimpleVesting",
    "abi": [
        {
            "inputs": [
                {
                    "internalType": "contract IERC20",
                    "name": "_token",
                    "type": "address"
                },
                {
                    "internalType": "address",
                    "name": "_beneficiary",
                    "type": "address"
                },
                {
                    "internalType": "uint256",
                    "name": "_start",
                    "type": "uint256"
                },
                {
                    "internalType": "uint256",
                    "name": "_duration",
                    "type": "uint256"
                }
            ],
            "stateMutability": "nonpayable",
            "type": "constructor"
        },
        {
            "inputs": [],
            "name": "beneficiary",
            "outputs": [
                {
                    "internalType": "address",
                    "name": "",
                    "type": "address"
                }
            ],
            "stateMutability": "view",
            "type": "function"
        },
        {
            "inputs": [],
            "name": "duration",
            "outputs": [
                {
                    "internalType": "uint256",
                    "name": "",
                    "type": "uint256"
                }
            ],
            "stateMutability": "view",
            "type": "function"
        },
        {
            "inputs": [],
            "name": "release",
            "outputs": [],
            "stateMutability": "nonpayable",
            "type": "function"
        },
        {
            "inputs": [],
            "name": "released",
            "outputs": [
                {
                    "internalType": "uint256",
                    "name": "",
                    "type": "uint256"
                }
            ],
            "stateMutability": "view",
            "type": "function"
        },
        {
            "inputs": [],
            "name": "start",
            "outputs": [
                {
                    "internalType": "uint256",
                    "name": "",
                    "type": "uint256"
                }
            ],
            "stateMutability": "view",
            "type": "function"
        },
        {
            "inputs": [],
            "name": "token",
            "outputs": [
                {
                    "internalType": "contract IERC20",
                    "name": "",
                    "type": "address"
                }
            ],
            "stateMutability": "view",
            "type": "function"
        },
        {
            "inputs": [],
            "name": "vestedAmount",
            "outputs": [
                {
                    "internalType": "uint256",
                    "name": "",
                    "type": "uint256"
                }
            ],
            "stateMutability": "view",
            "type": "function"
        }
    ],
    "bytecode": "610100346100d257601f61070d38819003918201601f19168301916001600160401b038311848410176100d6578084926080946040528339810103126100d2578051906001600160a01b03821682036100d25760208101516001600160a01b03811681036100d257606060408301519201519260805260a05260c05260e05260405161062290816100eb8239608051818181607e015281816101960152610423015260a0518181816101470152610351015260c05181818160c8015261048b015260e05181818161039501526104690152f35b5f80fd5b634e487b7160e01b5f52604160045260245ffdfe6080806040526004361015610012575f80fd5b5f3560e01c9081630fb5a6b4146103805750806338af3eed1461033c57806344b1231f1461031a57806386d1a69f1461010757806396132521146100eb578063be9a6555146100b15763fc0c546a14610069575f80fd5b346100ad575f3660031901126100ad576040517f00000000000000000000000000000000000000000000000000000000000000006001600160a01b03168152602090f35b5f80fd5b346100ad575f3660031901126100ad5760206040517f00000000000000000000000000000000000000000000000000000000000000008152f35b346100ad575f3660031901126100ad5760205f54604051908152f35b346100ad575f3660031901126100ad5761011f610408565b61012a5f54826103fb565b9081156102ea575f5560405163a9059cbb60e01b602082019081527f00000000000000000000000000000000000000000000000000000000000000006001600160a01b0316602483015260448083019390935291815261018b6064826103b8565b5f8060018060a01b037f00000000000000000000000000000000000000000000000000000000000000001693604051936101c66040866103b8565b602085527f5361666545524332303a206c6f772d6c6576656c2063616c6c206661696c65646020860152519082865af13d156102dd573d9067ffffffffffffffff82116102c95760405161023894909261022a601f8201601f1916602001856103b8565b83523d5f602085013e610538565b80519081159182156102a6575b50501561024e57005b60405162461bcd60e51b815260206004820152602a60248201527f5361666545524332303a204552433230206f7065726174696f6e20646964206e6044820152691bdd081cdd58d8d9595960b21b6064820152608490fd5b81925090602091810103126100ad576020015180151581036100ad578180610245565b634e487b7160e01b5f52604160045260245ffd5b9161023892606091610538565b60405162461bcd60e51b81526020600482015260086024820152674e6f546f6b656e7360c01b6044820152606490fd5b346100ad575f3660031901126100ad576020610334610408565b604051908152f35b346100ad575f3660031901126100ad576040517f00000000000000000000000000000000000000000000000000000000000000006001600160a01b03168152602090f35b346100ad575f3660031901126100ad576020907f00000000000000000000000000000000000000000000000000000000000000008152f35b90601f8019910116810190811067ffffffffffffffff8211176102c957604052565b919082018092116103e757565b634e487b7160e01b5f52601160045260245ffd5b919082039182116103e757565b6040516370a0823160e01b81523060048201526020816024817f00000000000000000000000000000000000000000000000000000000000000006001600160a01b03165afa801561052d575f906104f9575b61046791505f54906103da565b7f0000000000000000000000000000000000000000000000000000000000000000907f00000000000000000000000000000000000000000000000000000000000000006104b483826103da565b42106104c05750905090565b6104ca90426103fb565b908181029181830414901517156103e75781156104e5570490565b634e487b7160e01b5f52601260045260245ffd5b506020813d602011610525575b81610513602093836103b8565b810103126100ad57610467905161045a565b3d9150610506565b6040513d5f823e3d90fd5b9192901561059a575081511561054c575090565b3b156105555790565b60405162461bcd60e51b815260206004820152601d60248201527f416464726573733a2063616c6c20746f206e6f6e2d636f6e74726163740000006044820152606490fd5b8251909150156105ad5750805190602001fd5b604460209160405192839162461bcd60e51b83528160048401528051918291826024860152018484015e5f828201840152601f01601f19168101030190fdfea2646970667358221220ae904f059f26000efb2de381d2dec159e0d28dc7e485a6780014f3a63fab583264736f6c634300081e0033",
    "sourcePath": "d:/NFT-MarketPlace/Contracts/my-meme-launcher/contracts/MemeCoinFactory.sol",
    "compiler": {
        "name": "solc",
        "version": "0.8.30+commit.73712a01"
    },
    "functionHashes": {
        "beneficiary()": "38af3eed",
        "duration()": "0fb5a6b4",
        "release()": "86d1a69f",
        "released()": "96132521",
        "start()": "be9a6555",
        "token()": "fc0c546a",
        "vestedAmount()": "44b1231f"
    },
    "gasEstimates": {
        "creation": {
            "codeDepositCost": "314000",
            "executionCost": "infinite",
            "totalCost": "infinite"
        },
        "external": {
            "beneficiary()": "infinite",
            "duration()": "infinite",
            "release()": "infinite",
            "released()": "2343",
            "start()": "infinite",
            "token()": "infinite",
            "vestedAmount()": "infinite"
        }
    }
}