{
  "_format": "hh-sol-artifact-1",
  "contractName": "MockRouter",
  "sourceName": "contracts/MockRouter.sol",
  "abi": [
    {
      "inputs": [
        {
          "internalType": "address",
          "name": "weth_",
          "type": "address"
        }
      ],
      "stateMutability": "nonpayable",
      "type": "constructor"
    },
    {
      "inputs": [],
      "name": "WETH",
      "outputs": [
        {
          "internalType": "address",
          "name": "",
          "type": "address"
        }
      ],
      "stateMutability": "view",
      "type": "function"
    },
    {
      "inputs": [],
      "name": "WETH_ADDRESS",
      "outputs": [
        {
          "internalType": "address",
          "name": "",
          "type": "address"
        }
      ],
      "stateMutability": "view",
      "type": "function"
    },
    {
      "inputs": [
        {
          "internalType": "uint256",
          "name": "",
          "type": "uint256"
        },
        {
          "internalType": "address[]",
          "name": "path",
          "type": "address[]"
        },
        {
          "internalType": "address",
          "name": "to",
          "type": "address"
        },
        {
          "internalType": "uint256",
          "name": "",
          "type": "uint256"
        }
      ],
      "name": "swapExactETHForTokensSupportingFeeOnTransferTokens",
      "outputs": [],
      "stateMutability": "payable",
      "type": "function"
    }
  ],
  "bytecode": "0x60a0346100a157601f61030238819003918201601f19168301916001600160401b038311848410176100a6578084926020946040528339810103126100a157516001600160a01b0381168082036100a157156100705760805260405161024590816100bd8239608051816102040152f35b60405162461bcd60e51b81526020600482015260096024820152680b4cae4de40ae8aa8960bb1b6044820152606490fd5b600080fd5b634e487b7160e01b600052604160045260246000fdfe608060405260048036101561001357600080fd5b600090813560e01c8063040141e5146101ee578063ad5c4648146101ee5763b6f9de951461004057600080fd5b60803660031901126101535760249081359167ffffffffffffffff908184116101ea57366023850112156101ea57838301359382851161018d5736828660051b8301011161018d576001600160a01b03946044358681169291908390036101e65734156101b5576000198101908082116101a3578110156101915760051b018201359485169485900361018d57606434029034820460640361017b5790604460209288604051988994859363a9059cbb60e01b85528a850152878401525af180156101705761010d578480f35b6020923d8411610168575b601f8401601f191685019283118584101761015757505060209183916040528101031261015357518015150361015057388080808480f35b80fd5b5080fd5b634e487b7160e01b86526041905284fd5b3d9350610118565b6040513d87823e3d90fd5b634e487b7160e01b8752601185528287fd5b8580fd5b634e487b7160e01b8852603286528388fd5b634e487b7160e01b8952601187528489fd5b60405162461bcd60e51b8152602081880152600b818601526a139bc8115512081cd95b9d60aa1b6044820152606490fd5b8780fd5b8480fd5b34610233576000366003190112610233576040517f00000000000000000000000000000000000000000000000000000000000000006001600160a01b03168152602090f35b600080fdfea164736f6c6343000814000a",
  "linkReferences": {},
  "deployedLinkReferences": {}
}