{
  "_format": "hh-sol-artifact-1",
  "contractName": "MemeCoinDEXHelper",
  "sourceName": "contracts/MemeCoinDEXHelper.sol",
  "abi": [
    {
      "inputs": [
        {
          "internalType": "address",
          "name": "_factory",
          "type": "address"
        }
      ],
      "stateMutability": "nonpayable",
      "type": "constructor"
    },
    {
      "anonymous": false,
      "inputs": [
        {
          "indexed": true,
          "internalType": "address",
          "name": "factory_",
          "type": "address"
        },
        {
          "indexed": true,
          "internalType": "address",
          "name": "router_",
          "type": "address"
        }
      ],
      "name": "DexConfigured",
      "type": "event"
    },
    {
      "anonymous": false,
      "inputs": [
        {
          "indexed": true,
          "internalType": "address",
          "name": "token",
          "type": "address"
        },
        {
          "indexed": true,
          "internalType": "address",
          "name": "to",
          "type": "address"
        },
        {
          "indexed": false,
          "internalType": "uint256",
          "name": "amount",
          "type": "uint256"
        }
      ],
      "name": "DustSwept",
      "type": "event"
    },
    {
      "anonymous": false,
      "inputs": [
        {
          "indexed": true,
          "internalType": "address",
          "name": "token",
          "type": "address"
        },
        {
          "indexed": false,
          "internalType": "uint256",
          "name": "amountToken",
          "type": "uint256"
        },
        {
          "indexed": false,
          "internalType": "uint256",
          "name": "amountETH",
          "type": "uint256"
        },
        {
          "indexed": false,
          "internalType": "uint256",
          "name": "liquidity",
          "type": "uint256"
        }
      ],
      "name": "LiquidityAdded",
      "type": "event"
    },
    {
      "anonymous": false,
      "inputs": [
        {
          "indexed": true,
          "internalType": "address",
          "name": "token",
          "type": "address"
        },
        {
          "indexed": true,
          "internalType": "address",
          "name": "pair",
          "type": "address"
        }
      ],
      "name": "LiquidityPairCreated",
      "type": "event"
    },
    {
      "anonymous": false,
      "inputs": [
        {
          "indexed": true,
          "internalType": "address",
          "name": "token",
          "type": "address"
        },
        {
          "indexed": false,
          "internalType": "uint256",
          "name": "liquidity",
          "type": "uint256"
        },
        {
          "indexed": false,
          "internalType": "uint256",
          "name": "amountToken",
          "type": "uint256"
        },
        {
          "indexed": false,
          "internalType": "uint256",
          "name": "amountETH",
          "type": "uint256"
        }
      ],
      "name": "LiquidityRemoved",
      "type": "event"
    },
    {
      "stateMutability": "payable",
      "type": "fallback"
    },
    {
      "inputs": [
        {
          "internalType": "address",
          "name": "token",
          "type": "address"
        },
        {
          "internalType": "uint256",
          "name": "amountToken",
          "type": "uint256"
        }
      ],
      "name": "addLiquidity",
      "outputs": [
        {
          "internalType": "uint256",
          "name": "amountTokenAdded",
          "type": "uint256"
        },
        {
          "internalType": "uint256",
          "name": "amountETHAdded",
          "type": "uint256"
        },
        {
          "internalType": "uint256",
          "name": "liquidity",
          "type": "uint256"
        }
      ],
      "stateMutability": "payable",
      "type": "function"
    },
    {
      "inputs": [
        {
          "internalType": "address",
          "name": "token",
          "type": "address"
        }
      ],
      "name": "createLiquidityPair",
      "outputs": [
        {
          "internalType": "address",
          "name": "pair",
          "type": "address"
        }
      ],
      "stateMutability": "nonpayable",
      "type": "function"
    },
    {
      "inputs": [],
      "name": "dexFactory",
      "outputs": [
        {
          "internalType": "address",
          "name": "",
          "type": "address"
        }
      ],
      "stateMutability": "view",
      "type": "function"
    },
    {
      "inputs": [],
      "name": "dexRouter",
      "outputs": [
        {
          "internalType": "address",
          "name": "",
          "type": "address"
        }
      ],
      "stateMutability": "view",
      "type": "function"
    },
    {
      "inputs": [],
      "name": "factory",
      "outputs": [
        {
          "internalType": "address",
          "name": "",
          "type": "address"
        }
      ],
      "stateMutability": "view",
      "type": "function"
    },
    {
      "inputs": [
        {
          "internalType": "address",
          "name": "token",
          "type": "address"
        },
        {
          "internalType": "uint256",
          "name": "liquidity",
          "type": "uint256"
        }
      ],
      "name": "removeLiquidity",
      "outputs": [
        {
          "internalType": "uint256",
          "name": "amountTokenReturned",
          "type": "uint256"
        },
        {
          "internalType": "uint256",
          "name": "amountETHReturned",
          "type": "uint256"
        }
      ],
      "stateMutability": "nonpayable",
      "type": "function"
    },
    {
      "inputs": [
        {
          "internalType": "address",
          "name": "_dexFactory",
          "type": "address"
        },
        {
          "internalType": "address",
          "name": "_dexRouter",
          "type": "address"
        }
      ],
      "name": "setDexAddresses",
      "outputs": [],
      "stateMutability": "nonpayable",
      "type": "function"
    },
    {
      "inputs": [
        {
          "internalType": "address",
          "name": "token",
          "type": "address"
        },
        {
          "internalType": "address",
          "name": "to",
          "type": "address"
        }
      ],
      "name": "sweepDust",
      "outputs": [],
      "stateMutability": "nonpayable",
      "type": "function"
    },
    {
      "stateMutability": "payable",
      "type": "receive"
    }
  ],
  "bytecode": "0x60a0346100c657601f610fbe38819003918201601f19168301916001600160401b038311848410176100cb578084926020946040528339810103126100c657516001600160a01b0381168082036100c6571561009257608052604051610edc90816100e28239608051818181609a0152818161012601528181610328015281816105e00152818161081801526109b80152f35b60405162461bcd60e51b815260206004820152600c60248201526b5a65726f20666163746f727960a01b6044820152606490fd5b600080fd5b634e487b7160e01b600052604160045260246000fdfe608060408181526004918236101561001f575b505050361561001d57005b005b600092833560e01c9182630758d92414610a7e5750816309cccaac1461098357816356688700146107f357816398e122fd146105b2578163a201ccf61461030b578163a9fb82d6146100f457508063b8d8fbb4146100cd5763c45a0155146100875780610012565b346100c957816003193601126100c957517f00000000000000000000000000000000000000000000000000000000000000006001600160a01b03168152602090f35b5080fd5b50346100c957816003193601126100c957905490516001600160a01b039091168152602090f35b90503461030757816003193601126103075761010e610aa3565b91610117610abe565b916001600160a01b0361014d337f0000000000000000000000000000000000000000000000000000000000000000831614610ad4565b8084169485156102d3571692836101ce575050479084848315801561019e575b5050507f3981c3c93633524805c93b00b61aa75cc59cd423c30c502354a7c347b0b22524916020915b51908152a380f35b90849183906101c5575b839283928392f1156101bc5784843861016d565b513d85823e3d90fd5b506108fc6101a8565b8251916370a0823160e01b83523090830152602082602481875afa9182156102c9578692610272575b50907f3981c3c93633524805c93b00b61aa75cc59cd423c30c502354a7c347b0b2252492602092828061022c575b5050610196565b825163a9059cbb60e01b868201526001600160a01b03929092166024830152604480830191909152815261026b90610265606482610b0f565b86610cab565b3880610225565b91506020823d82116102c1575b8161028c60209383610b0f565b810103126102bd579051907f3981c3c93633524805c93b00b61aa75cc59cd423c30c502354a7c347b0b225246101f7565b8580fd5b3d915061027f565b83513d88823e3d90fd5b835162461bcd60e51b8152602081850152600e60248201526d16995c9bc81c9958da5c1a595b9d60921b6044820152606490fd5b8280fd5b839150346100c957826003193601126100c957610326610aa3565b7f000000000000000000000000000000000000000000000000000000000000000091602435916001600160a01b03916103623384871614610ad4565b826001541694875180966315ab88c960e31b825281846020998a935afa90811561058b576103cb9188918a91610595575b5089548b5163e6a4390560e01b81526001600160a01b0380891688830190815293166020840152938492918916918391829160400190565b03915afa90811561058b57908591899161055e575b501680156105255791889161040e87809796956104036104669b9a308684610b66565b876001541690610bc1565b6001548351629d473b60e21b81526001600160a01b0380871694820194855260208501899052600060408601819052606086015290921660808401524260a0840152909788929186169183918b91839160c090910190565b03925af194851561051b578680966104c0575b50508651928352602083018690526040830185905216907f1dc8bb69df2b8e91fbdcbfcf93d951b3f0000f085a95fe3f7946d6161439245d90606090a28351928352820152f35b91955095508686813d8311610514575b6104da8183610b0f565b810103126105115750845194830151937f1dc8bb69df2b8e91fbdcbfcf93d951b3f0000f085a95fe3f7946d6161439245d88610479565b80fd5b503d6104d0565b87513d88823e3d90fd5b885162461bcd60e51b8152808401889052601360248201527214185a5c88191bd95cc81b9bdd08195e1a5cdd606a1b6044820152606490fd5b61057e9150883d8a11610584575b6105768183610b0f565b810190610b47565b8a6103e0565b503d61056c565b89513d8a823e3d90fd5b6105ac9150823d8411610584576105768183610b0f565b8b610393565b839150346100c95760209283600319360112610307576105d0610aa3565b926001600160a01b0392610607337f0000000000000000000000000000000000000000000000000000000000000000861614610ad4565b8382541684600154169184516315ab88c960e31b9081815289818481885afa90811561051b5761066f949392918b9188916107d6575b50885163e6a4390560e01b81526001600160a01b03808d16868301908152921660208301529586918291604090910190565b0381865afa93841561051b5788949392918b9188956107b7575b50858516156106c8575b505050507f46a64aef27261dae4a1a2eae3f60f92162166d881f6eb9814adc755791cf53d69250169384935195169180a38152f35b9193509193508287518096819382525afa9283156107ad5791878561072795938b95829561078e575b5088516364e329cb60e11b81526001600160a01b0393841691810191825292909416602085015290948593849291839160400190565b03925af1908115610784577f46a64aef27261dae4a1a2eae3f60f92162166d881f6eb9814adc755791cf53d69185918491610767575b5088808981610693565b61077e9150883d8a11610584576105768183610b0f565b8861075d565b83513d84823e3d90fd5b6107a6919550863d8811610584576105768183610b0f565b938c6106f1565b85513d86823e3d90fd5b6107cf919550823d8411610584576105768183610b0f565b938c610689565b6107ed9150823d8411610584576105768183610b0f565b8c61063d565b9180915060031936011261030757610809610aa3565b6001600160a01b0391906060907f0000000000000000000000000000000000000000000000000000000000000000906024356108483387851614610ad4565b858216956108588230868a610b66565b61086782826001541689610bc1565b600154865163f305d71960e01b81526001600160a01b03948516998101998a5260208a0193909352600060408a0181905260608a01529390921660808801524260a08801529586929083900360c0019183913491165af1918215610979578493858094610930575b50508151848152602081018690526040810184905261092c939291907f64b83944e79c3ce8d4c297411de637c3e102d064677aac0c163976ebdcd6f50e90606090a251938493846040919493926060820195825260208201520152565b0390f35b929550935091506060833d8211610971575b8161094f60609383610b0f565b8101031261051157508151602083015192840151929390929161092c386108cf565b3d9150610942565b81513d86823e3d90fd5b9190503461030757806003193601126103075761099e610aa3565b6109a6610abe565b926001600160a01b039182906109df337f0000000000000000000000000000000000000000000000000000000000000000841614610ad4565b169283151580610a73575b15610a3c5750506bffffffffffffffffffffffff60a01b92828486541617855516809260015416176001557fbd1f56340e71693e2714ef366858f586d668634bbaa3720ebf8b0faf0b1aa82c8380a380f35b906020606492519162461bcd60e51b83528201526011602482015270496e76616c69642061646472657373657360781b6044820152fd5b5082851615156109ea565b8490346100c957816003193601126100c9576001546001600160a01b03168152602090f35b600435906001600160a01b0382168203610ab957565b600080fd5b602435906001600160a01b0382168203610ab957565b15610adb57565b60405162461bcd60e51b815260206004820152600c60248201526b4f6e6c7920666163746f727960a01b6044820152606490fd5b90601f8019910116810190811067ffffffffffffffff821117610b3157604052565b634e487b7160e01b600052604160045260246000fd5b90816020910312610ab957516001600160a01b0381168103610ab95790565b6040516323b872dd60e01b60208201526001600160a01b03928316602482015292909116604483015260648083019390935291815260a081019181831067ffffffffffffffff841117610b3157610bbf92604052610cab565b565b604051636eb1769f60e11b81523060048201526001600160a01b03831660248201529192602083806044810103816001600160a01b0386165afa928315610c9f57600093610c6c575b508201809211610c565760405163095ea7b360e01b60208201526001600160a01b03939093166024840152604480840192909252908252610bbf9190610c51606483610b0f565b610cab565b634e487b7160e01b600052601160045260246000fd5b90926020823d8211610c97575b81610c8660209383610b0f565b810103126105115750519138610c0a565b3d9150610c79565b6040513d6000823e3d90fd5b60018060a01b0316906040516040810167ffffffffffffffff9082811082821117610b31576040526020938483527f5361666545524332303a206c6f772d6c6576656c2063616c6c206661696c6564858401526000808587829751910182855af1903d15610df0573d928311610ddc5790610d4693929160405192610d3988601f19601f8401160185610b0f565b83523d868885013e610dfb565b805191821591848315610db8575b505050905015610d615750565b6084906040519062461bcd60e51b82526004820152602a60248201527f5361666545524332303a204552433230206f7065726174696f6e20646964206e6044820152691bdd081cdd58d8d9595960b21b6064820152fd5b9193818094500103126100c957820151908115158203610511575080388084610d54565b634e487b7160e01b85526041600452602485fd5b90610d469392506060915b91929015610e5d5750815115610e0f575090565b3b15610e185790565b60405162461bcd60e51b815260206004820152601d60248201527f416464726573733a2063616c6c20746f206e6f6e2d636f6e74726163740000006044820152606490fd5b825190915015610e705750805190602001fd5b6040519062461bcd60e51b82528160208060048301528251908160248401526000935b828510610eb6575050604492506000838284010152601f80199101168101030190fd5b8481018201518686016044015293810193859350610e9356fea164736f6c6343000814000a",
  "linkReferences": {},
  "deployedLinkReferences": {}
}