{
  "_format": "hh-sol-artifact-1",
  "contractName": "MemeCoinDEXHelper",
  "sourceName": "contracts/MemeCoinDEXHelper.sol",
  "abi": [
    {
      "inputs": [
        {
          "internalType": "address",
          "name": "_factory",
          "type": "address"
        }
      ],
      "stateMutability": "nonpayable",
      "type": "constructor"
    },
    {
      "anonymous": false,
      "inputs": [
        {
          "indexed": true,
          "internalType": "address",
          "name": "factory_",
          "type": "address"
        },
        {
          "indexed": true,
          "internalType": "address",
          "name": "router_",
          "type": "address"
        }
      ],
      "name": "DexConfigured",
      "type": "event"
    },
    {
      "anonymous": false,
      "inputs": [
        {
          "indexed": true,
          "internalType": "address",
          "name": "token",
          "type": "address"
        },
        {
          "indexed": false,
          "internalType": "uint256",
          "name": "amountToken",
          "type": "uint256"
        },
        {
          "indexed": false,
          "internalType": "uint256",
          "name": "amountETH",
          "type": "uint256"
        },
        {
          "indexed": false,
          "internalType": "uint256",
          "name": "liquidity",
          "type": "uint256"
        }
      ],
      "name": "LiquidityAdded",
      "type": "event"
    },
    {
      "anonymous": false,
      "inputs": [
        {
          "indexed": true,
          "internalType": "address",
          "name": "token",
          "type": "address"
        },
        {
          "indexed": true,
          "internalType": "address",
          "name": "pair",
          "type": "address"
        }
      ],
      "name": "LiquidityPairCreated",
      "type": "event"
    },
    {
      "anonymous": false,
      "inputs": [
        {
          "indexed": true,
          "internalType": "address",
          "name": "token",
          "type": "address"
        },
        {
          "indexed": false,
          "internalType": "uint256",
          "name": "liquidity",
          "type": "uint256"
        },
        {
          "indexed": false,
          "internalType": "uint256",
          "name": "amountToken",
          "type": "uint256"
        },
        {
          "indexed": false,
          "internalType": "uint256",
          "name": "amountETH",
          "type": "uint256"
        }
      ],
      "name": "LiquidityRemoved",
      "type": "event"
    },
    {
      "stateMutability": "payable",
      "type": "fallback"
    },
    {
      "inputs": [
        {
          "internalType": "address",
          "name": "token",
          "type": "address"
        },
        {
          "internalType": "uint256",
          "name": "amountToken",
          "type": "uint256"
        }
      ],
      "name": "addLiquidity",
      "outputs": [
        {
          "internalType": "uint256",
          "name": "amountTokenAdded",
          "type": "uint256"
        },
        {
          "internalType": "uint256",
          "name": "amountETHAdded",
          "type": "uint256"
        },
        {
          "internalType": "uint256",
          "name": "liquidity",
          "type": "uint256"
        }
      ],
      "stateMutability": "payable",
      "type": "function"
    },
    {
      "inputs": [
        {
          "internalType": "address",
          "name": "token",
          "type": "address"
        }
      ],
      "name": "createLiquidityPair",
      "outputs": [
        {
          "internalType": "address",
          "name": "pair",
          "type": "address"
        }
      ],
      "stateMutability": "nonpayable",
      "type": "function"
    },
    {
      "inputs": [],
      "name": "dexFactory",
      "outputs": [
        {
          "internalType": "address",
          "name": "",
          "type": "address"
        }
      ],
      "stateMutability": "view",
      "type": "function"
    },
    {
      "inputs": [],
      "name": "dexRouter",
      "outputs": [
        {
          "internalType": "address",
          "name": "",
          "type": "address"
        }
      ],
      "stateMutability": "view",
      "type": "function"
    },
    {
      "inputs": [],
      "name": "factory",
      "outputs": [
        {
          "internalType": "address",
          "name": "",
          "type": "address"
        }
      ],
      "stateMutability": "view",
      "type": "function"
    },
    {
      "inputs": [
        {
          "internalType": "address",
          "name": "token",
          "type": "address"
        },
        {
          "internalType": "uint256",
          "name": "liquidity",
          "type": "uint256"
        }
      ],
      "name": "removeLiquidity",
      "outputs": [
        {
          "internalType": "uint256",
          "name": "amountTokenReturned",
          "type": "uint256"
        },
        {
          "internalType": "uint256",
          "name": "amountETHReturned",
          "type": "uint256"
        }
      ],
      "stateMutability": "nonpayable",
      "type": "function"
    },
    {
      "inputs": [
        {
          "internalType": "address",
          "name": "_dexFactory",
          "type": "address"
        },
        {
          "internalType": "address",
          "name": "_dexRouter",
          "type": "address"
        }
      ],
      "name": "setDexAddresses",
      "outputs": [],
      "stateMutability": "nonpayable",
      "type": "function"
    },
    {
      "stateMutability": "payable",
      "type": "receive"
    }
  ],
  "bytecode": "0x608060405234801561001057600080fd5b50604051610fea380380610fea83398101604081905261002f916100c1565b6001600160a01b03811661009c5760405162461bcd60e51b815260206004820152602a60248201527f4d656d65436f696e44455848656c7065723a20666163746f7279206973207a65604482015269726f206164647265737360b01b606482015260840160405180910390fd5b600080546001600160a01b0319166001600160a01b03929092169190911790556100f1565b6000602082840312156100d357600080fd5b81516001600160a01b03811681146100ea57600080fd5b9392505050565b610eea806101006000396000f3fe6080604052600436106100645760003560e01c80630758d924146100a257806309cccaac146100df578063566887001461010157806398e122fd14610123578063a201ccf614610143578063b8d8fbb414610178578063c45a0155146101985761008a565b3661008a5760405162461bcd60e51b815260040161008190610bd9565b60405180910390fd5b60405162461bcd60e51b815260040161008190610bd9565b3480156100ae57600080fd5b506002546100c2906001600160a01b031681565b6040516001600160a01b0390911681526020015b60405180910390f35b3480156100eb57600080fd5b506100ff6100fa366004610c34565b6101b8565b005b61011461010f366004610c6d565b6102b7565b6040516100d693929190610c99565b34801561012f57600080fd5b506100c261013e366004610caf565b6103f4565b34801561014f57600080fd5b5061016361015e366004610c6d565b6105d1565b604080519283526020830191909152016100d6565b34801561018457600080fd5b506001546100c2906001600160a01b031681565b3480156101a457600080fd5b506000546100c2906001600160a01b031681565b6000546001600160a01b031633146101e25760405162461bcd60e51b815260040161008190610cd3565b6001600160a01b0382161580159061020257506001600160a01b03811615155b6102595760405162461bcd60e51b815260206004820152602260248201527f4d656d65436f696e44455848656c7065723a20696e76616c6964206164647265604482015261737360f01b6064820152608401610081565b600180546001600160a01b03199081166001600160a01b03858116918217909355600280549092169284169283179091556040517fbd1f56340e71693e2714ef366858f586d668634bbaa3720ebf8b0faf0b1aa82c90600090a35050565b60008054819081906001600160a01b031633146102e65760405162461bcd60e51b815260040161008190610cd3565b600054610301906001600160a01b0387811691163087610853565b60025461031b906001600160a01b038781169116866108c4565b6002546000805460405163f305d71960e01b81526001600160a01b039384169363f305d71993349361035b938c938c939283929116904290600401610d1b565b60606040518083038185885af1158015610379573d6000803e3d6000fd5b50505050506040513d601f19601f8201168201806040525081019061039e9190610d56565b60405192955090935091506001600160a01b038616907f64b83944e79c3ce8d4c297411de637c3e102d064677aac0c163976ebdcd6f50e906103e590869086908690610c99565b60405180910390a29250925092565b600080546001600160a01b0316331461041f5760405162461bcd60e51b815260040161008190610cd3565b600154600254604080516315ab88c960e31b815290516001600160a01b0393841693600093169163ad5c46489160048083019260209291908290030181865afa158015610470573d6000803e3d6000fd5b505050506040513d601f19601f820116820180604052508101906104949190610d84565b60405163e6a4390560e01b81529091506001600160a01b0383169063e6a43905906104c59087908590600401610da1565b602060405180830381865afa1580156104e2573d6000803e3d6000fd5b505050506040513d601f19601f820116820180604052508101906105069190610d84565b92506001600160a01b03831661058a576040516364e329cb60e11b81526001600160a01b0383169063c9c65396906105449087908590600401610da1565b6020604051808303816000875af1158015610563573d6000803e3d6000fd5b505050506040513d601f19601f820116820180604052508101906105879190610d84565b92505b826001600160a01b0316846001600160a01b03167f46a64aef27261dae4a1a2eae3f60f92162166d881f6eb9814adc755791cf53d660405160405180910390a35050919050565b6000805481906001600160a01b031633146105fe5760405162461bcd60e51b815260040161008190610cd3565b600254604080516315ab88c960e31b815290516000926001600160a01b03169163ad5c46489160048083019260209291908290030181865afa158015610648573d6000803e3d6000fd5b505050506040513d601f19601f8201168201806040525081019061066c9190610d84565b60015460405163e6a4390560e01b81529192506000916001600160a01b039091169063e6a43905906106a49089908690600401610da1565b602060405180830381865afa1580156106c1573d6000803e3d6000fd5b505050506040513d601f19601f820116820180604052508101906106e59190610d84565b90506001600160a01b03811661074c5760405162461bcd60e51b815260206004820152602660248201527f4d656d65436f696e44455848656c7065723a207061697220646f6573206e6f7460448201526508195e1a5cdd60d21b6064820152608401610081565b600054610767906001600160a01b0383811691163088610853565b600254610781906001600160a01b038381169116876108c4565b60025460008054604051629d473b60e21b81526001600160a01b03938416936302751cec936107bc938c938c93839216904290600401610d1b565b60408051808303816000875af11580156107da573d6000803e3d6000fd5b505050506040513d601f19601f820116820180604052508101906107fe9190610dbb565b60405191955093506001600160a01b038716907f1dc8bb69df2b8e91fbdcbfcf93d951b3f0000f085a95fe3f7946d6161439245d9061084290889088908890610c99565b60405180910390a250509250929050565b6040516001600160a01b03808516602483015283166044820152606481018290526108be9085906323b872dd60e01b906084015b60408051601f198184030181529190526020810180516001600160e01b03166001600160e01b03199093169290921790915261096f565b50505050565b604051636eb1769f60e11b81526000906001600160a01b0385169063dd62ed3e906108f59030908790600401610da1565b602060405180830381865afa158015610912573d6000803e3d6000fd5b505050506040513d601f19601f820116820180604052508101906109369190610ddf565b90506108be8463095ea7b360e01b8561094f8686610df8565b6040516001600160a01b0390921660248301526044820152606401610887565b60006109c4826040518060400160405280602081526020017f5361666545524332303a206c6f772d6c6576656c2063616c6c206661696c6564815250856001600160a01b0316610a499092919063ffffffff16565b90508051600014806109e55750808060200190518101906109e59190610e1f565b610a445760405162461bcd60e51b815260206004820152602a60248201527f5361666545524332303a204552433230206f7065726174696f6e20646964206e6044820152691bdd081cdd58d8d9595960b21b6064820152608401610081565b505050565b6060610a588484600085610a60565b949350505050565b606082471015610ac15760405162461bcd60e51b815260206004820152602660248201527f416464726573733a20696e73756666696369656e742062616c616e636520666f6044820152651c8818d85b1b60d21b6064820152608401610081565b600080866001600160a01b03168587604051610add9190610e65565b60006040518083038185875af1925050503d8060008114610b1a576040519150601f19603f3d011682016040523d82523d6000602084013e610b1f565b606091505b5091509150610b3087838387610b3b565b979650505050505050565b60608315610baa578251600003610ba3576001600160a01b0385163b610ba35760405162461bcd60e51b815260206004820152601d60248201527f416464726573733a2063616c6c20746f206e6f6e2d636f6e74726163740000006044820152606401610081565b5081610a58565b610a588383815115610bbf5781518083602001fd5b8060405162461bcd60e51b81526004016100819190610e81565b60208082526023908201527f4d656d65436f696e44455848656c7065723a20757365206164644c697175696460408201526269747960e81b606082015260800190565b6001600160a01b0381168114610c3157600080fd5b50565b60008060408385031215610c4757600080fd5b8235610c5281610c1c565b91506020830135610c6281610c1c565b809150509250929050565b60008060408385031215610c8057600080fd5b8235610c8b81610c1c565b946020939093013593505050565b9283526020830191909152604082015260600190565b600060208284031215610cc157600080fd5b8135610ccc81610c1c565b9392505050565b60208082526028908201527f4d656d65436f696e44455848656c7065723a2063616c6c6572206973206e6f7460408201526720666163746f727960c01b606082015260800190565b6001600160a01b039687168152602081019590955260408501939093526060840191909152909216608082015260a081019190915260c00190565b600080600060608486031215610d6b57600080fd5b8351925060208401519150604084015190509250925092565b600060208284031215610d9657600080fd5b8151610ccc81610c1c565b6001600160a01b0392831681529116602082015260400190565b60008060408385031215610dce57600080fd5b505080516020909101519092909150565b600060208284031215610df157600080fd5b5051919050565b80820180821115610e1957634e487b7160e01b600052601160045260246000fd5b92915050565b600060208284031215610e3157600080fd5b81518015158114610ccc57600080fd5b60005b83811015610e5c578181015183820152602001610e44565b50506000910152565b60008251610e77818460208701610e41565b9190910192915050565b6020815260008251806020840152610ea0816040850160208701610e41565b601f01601f1916919091016040019291505056fea264697066735822122012ac20cc9da60fa6f3cdfc76de7c86e954ab8d0b5febca0023240361cec8aec464736f6c63430008140033",
  "linkReferences": {},
  "deployedLinkReferences": {}
}