{
  "_format": "hh-sol-artifact-1",
  "contractName": "AirdropMerkle",
  "sourceName": "contracts/AirdropMerkle.sol",
  "abi": [
    {
      "inputs": [
        {
          "internalType": "address",
          "name": "token_",
          "type": "address"
        },
        {
          "internalType": "bytes32",
          "name": "merkleRoot_",
          "type": "bytes32"
        }
      ],
      "stateMutability": "nonpayable",
      "type": "constructor"
    },
    {
      "anonymous": false,
      "inputs": [
        {
          "indexed": true,
          "internalType": "address",
          "name": "user",
          "type": "address"
        },
        {
          "indexed": false,
          "internalType": "uint256",
          "name": "amount",
          "type": "uint256"
        }
      ],
      "name": "AirdropClaimed",
      "type": "event"
    },
    {
      "anonymous": false,
      "inputs": [
        {
          "indexed": false,
          "internalType": "bytes32",
          "name": "newRoot",
          "type": "bytes32"
        }
      ],
      "name": "MerkleRootUpdated",
      "type": "event"
    },
    {
      "inputs": [
        {
          "internalType": "uint256",
          "name": "amount",
          "type": "uint256"
        },
        {
          "internalType": "bytes32[]",
          "name": "proof",
          "type": "bytes32[]"
        }
      ],
      "name": "claim",
      "outputs": [],
      "stateMutability": "nonpayable",
      "type": "function"
    },
    {
      "inputs": [
        {
          "internalType": "address",
          "name": "",
          "type": "address"
        }
      ],
      "name": "claimed",
      "outputs": [
        {
          "internalType": "bool",
          "name": "",
          "type": "bool"
        }
      ],
      "stateMutability": "view",
      "type": "function"
    },
    {
      "inputs": [],
      "name": "merkleRoot",
      "outputs": [
        {
          "internalType": "bytes32",
          "name": "",
          "type": "bytes32"
        }
      ],
      "stateMutability": "view",
      "type": "function"
    },
    {
      "inputs": [
        {
          "internalType": "bytes32",
          "name": "newRoot",
          "type": "bytes32"
        }
      ],
      "name": "setMerkleRoot",
      "outputs": [],
      "stateMutability": "nonpayable",
      "type": "function"
    },
    {
      "inputs": [],
      "name": "token",
      "outputs": [
        {
          "internalType": "contract IERC20",
          "name": "",
          "type": "address"
        }
      ],
      "stateMutability": "view",
      "type": "function"
    }
  ],
  "bytecode": "0x60a0346100b357601f6106d238819003918201601f19168301916001600160401b038311848410176100b85780849260409485528339810103126100b35780516001600160a01b03811691908290036100b357602001519080156100815760805260005560405161060390816100cf8239608051818181606f01526102430152f35b60405162461bcd60e51b815260206004820152600a6024820152692d32b937903a37b5b2b760b11b6044820152606490fd5b600080fd5b634e487b7160e01b600052604160045260246000fdfe608060408181526004918236101561001657600080fd5b600092833560e01c9182632eb4a7ab146104d0575081632f52ebb71461012a5781637cb64759146100e5578163c884ef83146100a2575063fc0c546a1461005c57600080fd5b3461009e578160031936011261009e57517f00000000000000000000000000000000000000000000000000000000000000006001600160a01b03168152602090f35b5080fd5b9050346100e15760203660031901126100e157356001600160a01b038116908190036100e157818360ff92602095526001855220541690519015158152f35b8280fd5b9050346100e15760203660031901126100e1577f90004c04698bc3322499a575ed3752dd4abf33e0a7294c06a787a0fe01bea94191602091359081855551908152a180f35b9050346100e157816003193601126100e15780359167ffffffffffffffff91602480358481116103a157366023820112156103a15780830135948086116104cc578560051b958387840101963688116104c857338a52600191602098838a5260ff898d205416610494578851908a8201923360601b84528c60348401526034835260608301938385108886111761048257918e916101d78e8996958f8990528651902094549801876104ea565b85526080988a018d848b015b83831061046f5750505050928d80935b61040a575b50505050036103d8573389528087528589209060ff1982541617905584518681019263a9059cbb60e01b8452338583015288604483015260448252810192818410838511176103a5577f00000000000000000000000000000000000000000000000000000000000000006001600160a01b03169160c08101848111868210176103c65788528885527f5361666545524332303a206c6f772d6c6576656c2063616c6c206661696c656460a0820152518a9182919082855af1903d156103b7573d9283116103a557906102e99392918751926102dc8a601f19601f84011601856104ea565b83523d8b8a85013e610522565b8051858115918215610381575b505090501561032e575050907f650e45f04ef8a0c267b2f78d983913f69ae3a353b2b32de5429307522be0ab5591519283523392a280f35b608493602a9293519362461bcd60e51b85528401528201527f5361666545524332303a204552433230206f7065726174696f6e20646964206e6044820152691bdd081cdd58d8d9595960b21b6064820152fd5b83809293500103126103a15784015180151581036103a1578085386102f6565b8680fd5b634e487b7160e01b8a5260418652848afd5b906102e9939250606091610522565b634e487b7160e01b8c5260418852868cfd5b855162461bcd60e51b8152808601889052600d818601526c24b73b30b634b210383937b7b360991b6044820152606490fd5b90919293825185101561046757888560051b850101519182821060001461045957528b52898d205b92600019811461044757850191908d866101f3565b634e487b7160e01b8e5260118a52888efd5b919091528b52898d20610432565b9350806101f8565b82358152899650918101918f91016101e3565b634e487b7160e01b8f5260418b52898ffd5b885162461bcd60e51b81528089018b9052600f818901526e105b1c9958591e4818db185a5b5959608a1b6044820152606490fd5b8980fd5b8780fd5b84903461009e578160031936011261009e57602091548152f35b90601f8019910116810190811067ffffffffffffffff82111761050c57604052565b634e487b7160e01b600052604160045260246000fd5b919290156105845750815115610536575090565b3b1561053f5790565b60405162461bcd60e51b815260206004820152601d60248201527f416464726573733a2063616c6c20746f206e6f6e2d636f6e74726163740000006044820152606490fd5b8251909150156105975750805190602001fd5b6040519062461bcd60e51b82528160208060048301528251908160248401526000935b8285106105dd575050604492506000838284010152601f80199101168101030190fd5b84810182015186860160440152938101938593506105ba56fea164736f6c6343000814000a",
  "linkReferences": {},
  "deployedLinkReferences": {}
}