{
  "_format": "hh-sol-artifact-1",
  "contractName": "BuybackBurn",
  "sourceName": "contracts/BuybackBurn.sol",
  "abi": [
    {
      "inputs": [
        {
          "internalType": "address",
          "name": "token_",
          "type": "address"
        },
        {
          "internalType": "address",
          "name": "router_",
          "type": "address"
        }
      ],
      "stateMutability": "nonpayable",
      "type": "constructor"
    },
    {
      "anonymous": false,
      "inputs": [
        {
          "indexed": false,
          "internalType": "uint256",
          "name": "ethSpent",
          "type": "uint256"
        },
        {
          "indexed": false,
          "internalType": "uint256",
          "name": "tokensBurned",
          "type": "uint256"
        }
      ],
      "name": "BuybackAndBurn",
      "type": "event"
    },
    {
      "inputs": [],
      "name": "BURN_ADDRESS",
      "outputs": [
        {
          "internalType": "address",
          "name": "",
          "type": "address"
        }
      ],
      "stateMutability": "view",
      "type": "function"
    },
    {
      "inputs": [
        {
          "internalType": "uint256",
          "name": "minTokensOut",
          "type": "uint256"
        },
        {
          "internalType": "address[]",
          "name": "path",
          "type": "address[]"
        }
      ],
      "name": "buyAndBurn",
      "outputs": [],
      "stateMutability": "payable",
      "type": "function"
    },
    {
      "inputs": [],
      "name": "router",
      "outputs": [
        {
          "internalType": "contract IUniswapV2Router02",
          "name": "",
          "type": "address"
        }
      ],
      "stateMutability": "view",
      "type": "function"
    },
    {
      "inputs": [],
      "name": "token",
      "outputs": [
        {
          "internalType": "contract IERC20",
          "name": "",
          "type": "address"
        }
      ],
      "stateMutability": "view",
      "type": "function"
    },
    {
      "stateMutability": "payable",
      "type": "receive"
    }
  ],
  "bytecode": "0x60c03461010557601f61074738819003918201601f19168301916001600160401b0383118484101761010a57808492604094855283398101031261010557610052602061004b83610120565b9201610120565b6001600160a01b03918216919082156100d357169081156100a05760805260a05260405161061290816101358239608051818181609101526101e4015260a05181818160d4015261015e0152f35b60405162461bcd60e51b815260206004820152600b60248201526a2d32b937903937baba32b960a91b6044820152606490fd5b60405162461bcd60e51b815260206004820152600a6024820152692d32b937903a37b5b2b760b11b6044820152606490fd5b600080fd5b634e487b7160e01b600052604160045260246000fd5b51906001600160a01b03821682036101055756fe6080604081815260049182361015610022575b505050361561002057600080fd5b005b600092833560e01c918263496033d4146101035750508063f887ea40146100c0578063fc0c546a1461007d5763fccc28131461005e5780610012565b346100795781600319360112610079576020905161dead8152f35b5080fd5b5034610079578160031936011261007957517f00000000000000000000000000000000000000000000000000000000000000006001600160a01b03168152602090f35b5034610079578160031936011261007957517f00000000000000000000000000000000000000000000000000000000000000006001600160a01b03168152602090f35b838591816003193601126104f557602493843567ffffffffffffffff928382116103a157366023830112156103a157818301359084821161044d5736888360051b8501011161044d5734156104c757506001600160a01b03917f0000000000000000000000000000000000000000000000000000000000000000831690813b156104c357865163b6f9de9560e01b815285358682015260808a820152608481018490529288928492909160a48401918c0190855b81811061049157505050828091306044830152426064830152039134905af1801561048757610462575b507f000000000000000000000000000000000000000000000000000000000000000016908351916370a0823160e01b8352308284015260209384848981855afa938415610458578794610425575b5083156103f05785519185830163a9059cbb60e01b815261dead8a850152856044850152604484526080840193808510848611176103dc5760c08101858110858211176103c85789528785527f5361666545524332303a206c6f772d6c6576656c2063616c6c206661696c656460a082015251899182919082855af1903d156103b9573d9283116103a557906102e49392918851926102d789601f19601f84011601856104f9565b83523d8a8985013e610531565b8051848115918215610381575b505090501561032c57507f0ec3929061cbbbeecb325623e7d5a86c3dae11cb8a22ca45dc0972955657da25939450825191348352820152a180f35b835162461bcd60e51b8152908101839052602a818701527f5361666545524332303a204552433230206f7065726174696f6e20646964206e6044820152691bdd081cdd58d8d9595960b21b6064820152608490fd5b83809293500103126103a15783015180151581036103a1578084896102f1565b8580fd5b89604186634e487b7160e01b600052526000fd5b906102e4939250606091610531565b8b604188634e487b7160e01b600052526000fd5b8a604187634e487b7160e01b600052526000fd5b855162461bcd60e51b81528084018690526010818a01526f139bc81d1bdad95b9cc8189bdd59da1d60821b6044820152606490fd5b9093508481813d8311610451575b61043d81836104f9565b8101031261044d5751928861022f565b8680fd5b503d610433565b86513d89823e3d90fd5b83819692961161047557845293866101e1565b5060418692634e487b7160e01b835252fd5b85513d88823e3d90fd5b9291945092945083358781168091036104bf57906001918152602080910194019101908a94928694926101b7565b8b80fd5b8780fd5b62461bcd60e51b8152602084820152600b888201526a139bc8115512081cd95b9d60aa1b6044820152606490fd5b8280fd5b90601f8019910116810190811067ffffffffffffffff82111761051b57604052565b634e487b7160e01b600052604160045260246000fd5b919290156105935750815115610545575090565b3b1561054e5790565b60405162461bcd60e51b815260206004820152601d60248201527f416464726573733a2063616c6c20746f206e6f6e2d636f6e74726163740000006044820152606490fd5b8251909150156105a65750805190602001fd5b6040519062461bcd60e51b82528160208060048301528251908160248401526000935b8285106105ec575050604492506000838284010152601f80199101168101030190fd5b84810182015186860160440152938101938593506105c956fea164736f6c6343000814000a",
  "linkReferences": {},
  "deployedLinkReferences": {}
}