{
  "_format": "hh-sol-artifact-1",
  "contractName": "WhitelistPresale",
  "sourceName": "contracts/WhitelistPresale.sol",
  "abi": [
    {
      "inputs": [
        {
          "internalType": "address payable",
          "name": "factoryAddress",
          "type": "address"
        }
      ],
      "stateMutability": "nonpayable",
      "type": "constructor"
    },
    {
      "anonymous": false,
      "inputs": [
        {
          "indexed": true,
          "internalType": "address",
          "name": "token",
          "type": "address"
        },
        {
          "indexed": true,
          "internalType": "address",
          "name": "buyer",
          "type": "address"
        },
        {
          "indexed": false,
          "internalType": "uint256",
          "name": "amt",
          "type": "uint256"
        },
        {
          "indexed": false,
          "internalType": "uint256",
          "name": "cost",
          "type": "uint256"
        }
      ],
      "name": "PresalePurchase",
      "type": "event"
    },
    {
      "anonymous": false,
      "inputs": [
        {
          "indexed": true,
          "internalType": "bytes32",
          "name": "newRoot",
          "type": "bytes32"
        }
      ],
      "name": "PresaleRootUpdated",
      "type": "event"
    },
    {
      "anonymous": false,
      "inputs": [
        {
          "indexed": true,
          "internalType": "bytes32",
          "name": "role",
          "type": "bytes32"
        },
        {
          "indexed": true,
          "internalType": "bytes32",
          "name": "previousAdminRole",
          "type": "bytes32"
        },
        {
          "indexed": true,
          "internalType": "bytes32",
          "name": "newAdminRole",
          "type": "bytes32"
        }
      ],
      "name": "RoleAdminChanged",
      "type": "event"
    },
    {
      "anonymous": false,
      "inputs": [
        {
          "indexed": true,
          "internalType": "bytes32",
          "name": "role",
          "type": "bytes32"
        },
        {
          "indexed": true,
          "internalType": "address",
          "name": "account",
          "type": "address"
        },
        {
          "indexed": true,
          "internalType": "address",
          "name": "sender",
          "type": "address"
        }
      ],
      "name": "RoleGranted",
      "type": "event"
    },
    {
      "anonymous": false,
      "inputs": [
        {
          "indexed": true,
          "internalType": "bytes32",
          "name": "role",
          "type": "bytes32"
        },
        {
          "indexed": true,
          "internalType": "address",
          "name": "account",
          "type": "address"
        },
        {
          "indexed": true,
          "internalType": "address",
          "name": "sender",
          "type": "address"
        }
      ],
      "name": "RoleRevoked",
      "type": "event"
    },
    {
      "anonymous": false,
      "inputs": [
        {
          "indexed": true,
          "internalType": "address",
          "name": "token",
          "type": "address"
        },
        {
          "indexed": true,
          "internalType": "address",
          "name": "user",
          "type": "address"
        }
      ],
      "name": "UserWhitelisted",
      "type": "event"
    },
    {
      "inputs": [],
      "name": "DEFAULT_ADMIN_ROLE",
      "outputs": [
        {
          "internalType": "bytes32",
          "name": "",
          "type": "bytes32"
        }
      ],
      "stateMutability": "view",
      "type": "function"
    },
    {
      "inputs": [],
      "name": "OPERATOR_ROLE",
      "outputs": [
        {
          "internalType": "bytes32",
          "name": "",
          "type": "bytes32"
        }
      ],
      "stateMutability": "view",
      "type": "function"
    },
    {
      "inputs": [
        {
          "internalType": "address",
          "name": "token",
          "type": "address"
        },
        {
          "internalType": "uint256",
          "name": "amountAtomic",
          "type": "uint256"
        },
        {
          "internalType": "uint256",
          "name": "",
          "type": "uint256"
        },
        {
          "internalType": "address",
          "name": "referrer",
          "type": "address"
        },
        {
          "internalType": "bytes32[]",
          "name": "proof",
          "type": "bytes32[]"
        }
      ],
      "name": "buyPresale",
      "outputs": [],
      "stateMutability": "payable",
      "type": "function"
    },
    {
      "inputs": [],
      "name": "factory",
      "outputs": [
        {
          "internalType": "contract MemeCoinFactory",
          "name": "",
          "type": "address"
        }
      ],
      "stateMutability": "view",
      "type": "function"
    },
    {
      "inputs": [
        {
          "internalType": "bytes32",
          "name": "role",
          "type": "bytes32"
        }
      ],
      "name": "getRoleAdmin",
      "outputs": [
        {
          "internalType": "bytes32",
          "name": "",
          "type": "bytes32"
        }
      ],
      "stateMutability": "view",
      "type": "function"
    },
    {
      "inputs": [
        {
          "internalType": "bytes32",
          "name": "role",
          "type": "bytes32"
        },
        {
          "internalType": "address",
          "name": "account",
          "type": "address"
        }
      ],
      "name": "grantRole",
      "outputs": [],
      "stateMutability": "nonpayable",
      "type": "function"
    },
    {
      "inputs": [
        {
          "internalType": "bytes32",
          "name": "role",
          "type": "bytes32"
        },
        {
          "internalType": "address",
          "name": "account",
          "type": "address"
        }
      ],
      "name": "hasRole",
      "outputs": [
        {
          "internalType": "bool",
          "name": "",
          "type": "bool"
        }
      ],
      "stateMutability": "view",
      "type": "function"
    },
    {
      "inputs": [
        {
          "internalType": "address",
          "name": "",
          "type": "address"
        },
        {
          "internalType": "address",
          "name": "",
          "type": "address"
        }
      ],
      "name": "isWhitelisted",
      "outputs": [
        {
          "internalType": "bool",
          "name": "",
          "type": "bool"
        }
      ],
      "stateMutability": "view",
      "type": "function"
    },
    {
      "inputs": [],
      "name": "presaleMerkleRoot",
      "outputs": [
        {
          "internalType": "bytes32",
          "name": "",
          "type": "bytes32"
        }
      ],
      "stateMutability": "view",
      "type": "function"
    },
    {
      "inputs": [
        {
          "internalType": "bytes32",
          "name": "role",
          "type": "bytes32"
        },
        {
          "internalType": "address",
          "name": "account",
          "type": "address"
        }
      ],
      "name": "renounceRole",
      "outputs": [],
      "stateMutability": "nonpayable",
      "type": "function"
    },
    {
      "inputs": [
        {
          "internalType": "bytes32",
          "name": "role",
          "type": "bytes32"
        },
        {
          "internalType": "address",
          "name": "account",
          "type": "address"
        }
      ],
      "name": "revokeRole",
      "outputs": [],
      "stateMutability": "nonpayable",
      "type": "function"
    },
    {
      "inputs": [
        {
          "internalType": "bytes32",
          "name": "newRoot",
          "type": "bytes32"
        }
      ],
      "name": "setPresaleRoot",
      "outputs": [],
      "stateMutability": "nonpayable",
      "type": "function"
    },
    {
      "inputs": [
        {
          "internalType": "bytes4",
          "name": "interfaceId",
          "type": "bytes4"
        }
      ],
      "name": "supportsInterface",
      "outputs": [
        {
          "internalType": "bool",
          "name": "",
          "type": "bool"
        }
      ],
      "stateMutability": "view",
      "type": "function"
    },
    {
      "inputs": [
        {
          "internalType": "address",
          "name": "token",
          "type": "address"
        },
        {
          "internalType": "address[]",
          "name": "users",
          "type": "address[]"
        }
      ],
      "name": "whitelistUsers",
      "outputs": [],
      "stateMutability": "nonpayable",
      "type": "function"
    }
  ],
  "bytecode": "0x60a03461017c57601f61107038819003918201601f1916830192916001600160401b03841183851017610181578083926040958652833960209283918101031261017c57516001600160a01b0381169081900361017c5760018055801561014a576080526000808052808252828120338252825260ff838220541615610114575b7f97667070c54ef182b0f5858b034beac1b6f3089aa2d3188bb1e8929f4fa9b92991828252818152838220338352815260ff8483205416156100db575b8351610eb89081610198823960805181818161018401526104e80152f35b8282528181528382209033835252828120600160ff198254161790553391600080516020611050833981519152339280a43880806100bd565b8080528082528281203382528252828120600160ff198254161790553333826000805160206110508339815191528180a4610080565b50606491519062461bcd60e51b82526004820152600c60248201526b466163746f7279207a65726f60a01b6044820152fd5b600080fd5b634e487b7160e01b600052604160045260246000fdfe608080604052600436101561001357600080fd5b600090813560e01c90816301ffc9a71461086e5750806322212e2b14610850578063248a9ca3146108245780632f2ff15d1461077657806336568abe146106e35780637de2d2de1461061357806391d14854146105cb578063a217fddf146105af578063b658b60f14610567578063b6b3527214610517578063c45a0155146104d2578063d547741f14610492578063d9d0a5be146100f85763f5b541a6146100bb57600080fd5b346100f557806003193601126100f55760206040517f97667070c54ef182b0f5858b034beac1b6f3089aa2d3188bb1e8929f4fa9b9298152f35b80fd5b5060a03660031901126100f55761010d6108e2565b6064356001600160a01b03811681036102a75760843567ffffffffffffffff81116102ab576101409036906004016108f8565b60026001541461044d5760026001556001600160a01b038416855260036020908152604080872033885290915285205460ff16918215610326575b5050156102f2577f00000000000000000000000000000000000000000000000000000000000000006001600160a01b031683813b156100f557604051630d257e9560e31b81526001600160a01b0385811660048301526024803590830181905294166044820152918290606490829034905af180156102b7576102c2575b5060405163a9059cbb60e01b815233600482015260248101829052602081604481876001600160a01b0388165af180156102b757610277575b506040805191825234602083015233926001600160a01b0316917fcf83e0e7c8ec7b3e7fdd3ba412ddc8f2301fc3079ecb681582c39e8d1c176fa49190a36001805580f35b6020813d6020116102af575b8161029060209383610cbb565b810103126102ab5751801515036102a75738610232565b8280fd5b8380fd5b3d9150610283565b6040513d86823e3d90fd5b67ffffffffffffffff81949294116102de5760405291386101f9565b634e487b7160e01b82526041600452602482fd5b60405162461bcd60e51b815260206004820152600c60248201526b4e6f7420656c696769626c6560a01b6044820152606490fd5b915093926002549460405192602084013360601b815260243560348601526034855284606081011067ffffffffffffffff6060870111176104395760608501604052845190209167ffffffffffffffff8111610439578060051b906103916020830160608801610cbb565b6060860152608085019082019136831161043557905b828210610425575050509284935b60608401518510156104165760808560051b8501015190818110600014610407578652602052604085205b9360001981146103f357600101936103b5565b634e487b7160e01b86526011600452602486fd5b908652602052604085206103e0565b9194959250925014388061017b565b81358152602091820191016103a7565b8780fd5b634e487b7160e01b87526041600452602487fd5b60405162461bcd60e51b815260206004820152601f60248201527f5265656e7472616e637947756172643a207265656e7472616e742063616c6c006044820152606490fd5b50346100f55760403660031901126100f5576104cf6004356104b26108c7565b90808452836020526104ca6001604086200154610b5b565b610cdd565b80f35b50346100f557806003193601126100f5576040517f00000000000000000000000000000000000000000000000000000000000000006001600160a01b03168152602090f35b50346100f55760403660031901126100f55760ff60406020926105386108e2565b6105406108c7565b6001600160a01b039182168352600386528383209116825284522054604051911615158152f35b50346100f55760203660031901126100f557600435610584610929565b806002557f27f971fd4accb41a60bcef5477f2a70aa17efca3a2c33b138e3aa62a3d891c6d8280a280f35b50346100f557806003193601126100f557602090604051908152f35b50346100f55760403660031901126100f55760ff60406020926105ec6108c7565b60043582528185528282206001600160a01b03909116825284522054604051911615158152f35b50346100f55760403660031901126100f55761062d6108e2565b60243567ffffffffffffffff81116102a75761064d9036906004016108f8565b9091610657610929565b6001600160a01b0390811690845b838110610670578580f35b82865260206003815260408720908361069261068d85898b610e87565b610e97565b1688525260408620906001918260ff19825416179055826106b761068d83888a610e87565b16847f4bc18aa4b0095c9a3b5cdf42d2322d5a145591b04045988a995a5da4260754578980a301610665565b50346100f55760403660031901126100f5576106fd6108c7565b336001600160a01b03821603610719576104cf90600435610cdd565b60405162461bcd60e51b815260206004820152602f60248201527f416363657373436f6e74726f6c3a2063616e206f6e6c792072656e6f756e636560448201526e103937b632b9903337b91039b2b63360891b6064820152608490fd5b50346100f55760403660031901126100f5576004356107936108c7565b818352826020526107aa6001604085200154610b5b565b818352602083815260408085206001600160a01b039093168086529290915283205460ff16156107d8578280f35b818352826020526040832081845260205260408320600160ff1982541617905533917f2f8788117e7eff1d82e926ec794901d17c78024a50270940304540a733656f0d8480a438808280f35b50346100f55760203660031901126100f557600160406020926004358152808452200154604051908152f35b50346100f557806003193601126100f5576020600254604051908152f35b9050346108c35760203660031901126108c35760043563ffffffff60e01b81168091036102a75760209250637965db0b60e01b81149081156108b2575b5015158152f35b6301ffc9a760e01b149050386108ab565b5080fd5b602435906001600160a01b03821682036108dd57565b600080fd5b600435906001600160a01b03821682036108dd57565b9181601f840112156108dd5782359167ffffffffffffffff83116108dd576020808501948460051b0101116108dd57565b3360009081527fee57cd81e84075558e8fcc182a1f4393f91fc97f963a136e66b7f949a62f319f6020908152604080832054909291907f97667070c54ef182b0f5858b034beac1b6f3089aa2d3188bb1e8929f4fa9b9299060ff161561098f5750505050565b61099833610d78565b908451906109a582610c89565b60428252838201946060368737825115610b475760308653825190600191821015610b475790607860218501536041915b818311610ad957505050610a975784610a656048610a89936044979851988991610a568984019876020b1b1b2b9b9a1b7b73a3937b61d1030b1b1b7bab73a1604d1b8a52610a2d815180928d603789019101610c66565b8401917001034b99036b4b9b9b4b733903937b6329607d1b603784015251809386840190610c66565b01036028810189520187610cbb565b5194859362461bcd60e51b8552600485015251809281602486015285850190610c66565b601f01601f19168101030190fd5b60648386519062461bcd60e51b825280600483015260248201527f537472696e67733a20686578206c656e67746820696e73756666696369656e746044820152fd5b909192600f81166010811015610b33576f181899199a1a9b1b9c1cb0b131b232b360811b901a610b098587610d51565b5360041c928015610b1f576000190191906109d6565b634e487b7160e01b82526011600452602482fd5b634e487b7160e01b83526032600452602483fd5b634e487b7160e01b81526032600452602490fd5b60008181526020818152604092838320338452825260ff848420541615610b825750505050565b610b8b33610d78565b90845190610b9882610c89565b60428252838201946060368737825115610b475760308653825190600191821015610b475790607860218501536041915b818311610c2057505050610a975784610a656048610a89936044979851988991610a568984019876020b1b1b2b9b9a1b7b73a3937b61d1030b1b1b7bab73a1604d1b8a52610a2d815180928d603789019101610c66565b909192600f81166010811015610b33576f181899199a1a9b1b9c1cb0b131b232b360811b901a610c508587610d51565b5360041c928015610b1f57600019019190610bc9565b60005b838110610c795750506000910152565b8181015183820152602001610c69565b6080810190811067ffffffffffffffff821117610ca557604052565b634e487b7160e01b600052604160045260246000fd5b90601f8019910116810190811067ffffffffffffffff821117610ca557604052565b9060009180835282602052604083209160018060a01b03169182845260205260ff604084205416610d0d57505050565b80835282602052604083208284526020526040832060ff1981541690557ff6391f5c32d9c69d2a47ea670b442974b53935d1edc7fd64eb21e047a839171b339380a4565b908151811015610d62570160200190565b634e487b7160e01b600052603260045260246000fd5b604051906060820182811067ffffffffffffffff821117610ca557604052602a8252602082016040368237825115610d6257603090538151600190811015610d6257607860218401536029905b808211610e19575050610dd55790565b606460405162461bcd60e51b815260206004820152602060248201527f537472696e67733a20686578206c656e67746820696e73756666696369656e746044820152fd5b9091600f81166010811015610e72576f181899199a1a9b1b9c1cb0b131b232b360811b901a610e488486610d51565b5360041c918015610e5d576000190190610dc5565b60246000634e487b7160e01b81526011600452fd5b60246000634e487b7160e01b81526032600452fd5b9190811015610d625760051b0190565b356001600160a01b03811681036108dd579056fea164736f6c6343000814000a2f8788117e7eff1d82e926ec794901d17c78024a50270940304540a733656f0d",
  "linkReferences": {},
  "deployedLinkReferences": {}
}