{
  "_format": "hh-sol-artifact-1",
  "contractName": "WhitelistPresale",
  "sourceName": "contracts/WhitelistPresale.sol",
  "abi": [
    {
      "inputs": [
        {
          "internalType": "address",
          "name": "factoryAddress",
          "type": "address"
        }
      ],
      "stateMutability": "nonpayable",
      "type": "constructor"
    },
    {
      "anonymous": false,
      "inputs": [
        {
          "indexed": true,
          "internalType": "address",
          "name": "token",
          "type": "address"
        },
        {
          "indexed": true,
          "internalType": "address",
          "name": "buyer",
          "type": "address"
        },
        {
          "indexed": false,
          "internalType": "uint256",
          "name": "amount",
          "type": "uint256"
        },
        {
          "indexed": false,
          "internalType": "uint256",
          "name": "cost",
          "type": "uint256"
        }
      ],
      "name": "PresalePurchase",
      "type": "event"
    },
    {
      "anonymous": false,
      "inputs": [
        {
          "indexed": true,
          "internalType": "bytes32",
          "name": "newRoot",
          "type": "bytes32"
        }
      ],
      "name": "PresaleRootUpdated",
      "type": "event"
    },
    {
      "anonymous": false,
      "inputs": [
        {
          "indexed": true,
          "internalType": "bytes32",
          "name": "role",
          "type": "bytes32"
        },
        {
          "indexed": true,
          "internalType": "bytes32",
          "name": "previousAdminRole",
          "type": "bytes32"
        },
        {
          "indexed": true,
          "internalType": "bytes32",
          "name": "newAdminRole",
          "type": "bytes32"
        }
      ],
      "name": "RoleAdminChanged",
      "type": "event"
    },
    {
      "anonymous": false,
      "inputs": [
        {
          "indexed": true,
          "internalType": "bytes32",
          "name": "role",
          "type": "bytes32"
        },
        {
          "indexed": true,
          "internalType": "address",
          "name": "account",
          "type": "address"
        },
        {
          "indexed": true,
          "internalType": "address",
          "name": "sender",
          "type": "address"
        }
      ],
      "name": "RoleGranted",
      "type": "event"
    },
    {
      "anonymous": false,
      "inputs": [
        {
          "indexed": true,
          "internalType": "bytes32",
          "name": "role",
          "type": "bytes32"
        },
        {
          "indexed": true,
          "internalType": "address",
          "name": "account",
          "type": "address"
        },
        {
          "indexed": true,
          "internalType": "address",
          "name": "sender",
          "type": "address"
        }
      ],
      "name": "RoleRevoked",
      "type": "event"
    },
    {
      "anonymous": false,
      "inputs": [
        {
          "indexed": true,
          "internalType": "address",
          "name": "token",
          "type": "address"
        },
        {
          "indexed": true,
          "internalType": "address",
          "name": "user",
          "type": "address"
        }
      ],
      "name": "UserWhitelisted",
      "type": "event"
    },
    {
      "inputs": [],
      "name": "DEFAULT_ADMIN_ROLE",
      "outputs": [
        {
          "internalType": "bytes32",
          "name": "",
          "type": "bytes32"
        }
      ],
      "stateMutability": "view",
      "type": "function"
    },
    {
      "inputs": [],
      "name": "OPERATOR_ROLE",
      "outputs": [
        {
          "internalType": "bytes32",
          "name": "",
          "type": "bytes32"
        }
      ],
      "stateMutability": "view",
      "type": "function"
    },
    {
      "inputs": [
        {
          "internalType": "address",
          "name": "token",
          "type": "address"
        },
        {
          "internalType": "uint256",
          "name": "amountAtomic",
          "type": "uint256"
        },
        {
          "internalType": "uint256",
          "name": "maxAllocation",
          "type": "uint256"
        },
        {
          "internalType": "address",
          "name": "referrer",
          "type": "address"
        },
        {
          "internalType": "bytes32[]",
          "name": "proof",
          "type": "bytes32[]"
        }
      ],
      "name": "buyPresale",
      "outputs": [],
      "stateMutability": "payable",
      "type": "function"
    },
    {
      "inputs": [],
      "name": "factory",
      "outputs": [
        {
          "internalType": "contract MemeCoinFactory",
          "name": "",
          "type": "address"
        }
      ],
      "stateMutability": "view",
      "type": "function"
    },
    {
      "inputs": [
        {
          "internalType": "bytes32",
          "name": "role",
          "type": "bytes32"
        }
      ],
      "name": "getRoleAdmin",
      "outputs": [
        {
          "internalType": "bytes32",
          "name": "",
          "type": "bytes32"
        }
      ],
      "stateMutability": "view",
      "type": "function"
    },
    {
      "inputs": [
        {
          "internalType": "bytes32",
          "name": "role",
          "type": "bytes32"
        },
        {
          "internalType": "address",
          "name": "account",
          "type": "address"
        }
      ],
      "name": "grantRole",
      "outputs": [],
      "stateMutability": "nonpayable",
      "type": "function"
    },
    {
      "inputs": [
        {
          "internalType": "bytes32",
          "name": "role",
          "type": "bytes32"
        },
        {
          "internalType": "address",
          "name": "account",
          "type": "address"
        }
      ],
      "name": "hasRole",
      "outputs": [
        {
          "internalType": "bool",
          "name": "",
          "type": "bool"
        }
      ],
      "stateMutability": "view",
      "type": "function"
    },
    {
      "inputs": [
        {
          "internalType": "address",
          "name": "",
          "type": "address"
        },
        {
          "internalType": "address",
          "name": "",
          "type": "address"
        }
      ],
      "name": "isWhitelisted",
      "outputs": [
        {
          "internalType": "bool",
          "name": "",
          "type": "bool"
        }
      ],
      "stateMutability": "view",
      "type": "function"
    },
    {
      "inputs": [],
      "name": "presaleMerkleRoot",
      "outputs": [
        {
          "internalType": "bytes32",
          "name": "",
          "type": "bytes32"
        }
      ],
      "stateMutability": "view",
      "type": "function"
    },
    {
      "inputs": [
        {
          "internalType": "bytes32",
          "name": "role",
          "type": "bytes32"
        },
        {
          "internalType": "address",
          "name": "account",
          "type": "address"
        }
      ],
      "name": "renounceRole",
      "outputs": [],
      "stateMutability": "nonpayable",
      "type": "function"
    },
    {
      "inputs": [
        {
          "internalType": "bytes32",
          "name": "role",
          "type": "bytes32"
        },
        {
          "internalType": "address",
          "name": "account",
          "type": "address"
        }
      ],
      "name": "revokeRole",
      "outputs": [],
      "stateMutability": "nonpayable",
      "type": "function"
    },
    {
      "inputs": [
        {
          "internalType": "bytes32",
          "name": "newRoot",
          "type": "bytes32"
        }
      ],
      "name": "setPresaleRoot",
      "outputs": [],
      "stateMutability": "nonpayable",
      "type": "function"
    },
    {
      "inputs": [
        {
          "internalType": "bytes4",
          "name": "interfaceId",
          "type": "bytes4"
        }
      ],
      "name": "supportsInterface",
      "outputs": [
        {
          "internalType": "bool",
          "name": "",
          "type": "bool"
        }
      ],
      "stateMutability": "view",
      "type": "function"
    },
    {
      "inputs": [
        {
          "internalType": "address",
          "name": "token",
          "type": "address"
        },
        {
          "internalType": "address[]",
          "name": "users",
          "type": "address[]"
        }
      ],
      "name": "whitelistUsers",
      "outputs": [],
      "stateMutability": "nonpayable",
      "type": "function"
    }
  ],
  "bytecode": "0x60a03461018d57601f61105238819003918201601f1916830192916001600160401b03841183851017610192578083926040958652833960209283918101031261018d57516001600160a01b0381169081900361018d5760018055801561014a576080526000808052808252828120338252825260ff838220541615610114575b7f97667070c54ef182b0f5858b034beac1b6f3089aa2d3188bb1e8929f4fa9b92991828252818152838220338352815260ff8483205416156100db575b8351610e8990816101a9823960805181818161018401526104b90152f35b8282528181528382209033835252828120600160ff198254161790553391600080516020611032833981519152339280a43880806100bd565b8080528082528281203382528252828120600160ff198254161790553333826000805160206110328339815191528180a4610080565b50606491519062461bcd60e51b82526004820152601460248201527f466163746f7279207a65726f20616464726573730000000000000000000000006044820152fd5b600080fd5b634e487b7160e01b600052604160045260246000fdfe608080604052600436101561001357600080fd5b600090813560e01c90816301ffc9a71461083f5750806322212e2b14610821578063248a9ca3146107f55780632f2ff15d1461074757806336568abe146106b45780637de2d2de146105e457806391d148541461059c578063a217fddf14610580578063b658b60f14610538578063b6b35272146104e8578063c45a0155146104a3578063d547741f14610463578063d9d0a5be146100f85763f5b541a6146100bb57600080fd5b346100f557806003193601126100f55760206040517f97667070c54ef182b0f5858b034beac1b6f3089aa2d3188bb1e8929f4fa9b9298152f35b80fd5b5060a03660031901126100f55761010d6108b3565b6064356001600160a01b03811681036102ae5760843567ffffffffffffffff81116102aa576101409036906004016108c9565b9060026001541461041e5760026001556001600160a01b038416855260036020908152604080872033885290915285205460ff1680156102f7575b156102b25784907f00000000000000000000000000000000000000000000000000000000000000006001600160a01b0316803b156102ae57604051636ce852df60e11b81526001600160a01b0387811660048301526024803590830181905260448035908401529616606482015260a0608482015260a48101859052936001600160fb1b0381116102aa5760c4858094819360051b809184840137810103019134905af1801561029f5761026f575b506040805191825234602083015233926001600160a01b0316917fcf83e0e7c8ec7b3e7fdd3ba412ddc8f2301fc3079ecb681582c39e8d1c176fa49190a36001805580f35b67ffffffffffffffff819492941161028b57604052913861022a565b634e487b7160e01b82526041600452602482fd5b6040513d86823e3d90fd5b8380fd5b8280fd5b60405162461bcd60e51b815260206004820152601860248201527f4e6f7420656c696769626c6520666f722070726573616c6500000000000000006044820152606490fd5b509193926002549460405192602084013360601b815260443560348601526034855284606081011067ffffffffffffffff60608701111761040a57606085016040528451902067ffffffffffffffff821161040a578160051b6103606020820160608801610c8c565b8260608701526080860136828901116104065787905b82890182106103f6575050509486955b60608601518710156103e75760808760051b87010151908181106000146103d8578852602052604087205b9560001981146103c45760010195610386565b634e487b7160e01b88526011600452602488fd5b908852602052604087206103b1565b9194509295969194501461017b565b8135815260209182019101610376565b8880fd5b634e487b7160e01b87526041600452602487fd5b60405162461bcd60e51b815260206004820152601f60248201527f5265656e7472616e637947756172643a207265656e7472616e742063616c6c006044820152606490fd5b50346100f55760403660031901126100f5576104a0600435610483610898565b908084528360205261049b6001604086200154610b2c565b610cae565b80f35b50346100f557806003193601126100f5576040517f00000000000000000000000000000000000000000000000000000000000000006001600160a01b03168152602090f35b50346100f55760403660031901126100f55760ff60406020926105096108b3565b610511610898565b6001600160a01b039182168352600386528383209116825284522054604051911615158152f35b50346100f55760203660031901126100f5576004356105556108fa565b806002557f27f971fd4accb41a60bcef5477f2a70aa17efca3a2c33b138e3aa62a3d891c6d8280a280f35b50346100f557806003193601126100f557602090604051908152f35b50346100f55760403660031901126100f55760ff60406020926105bd610898565b60043582528185528282206001600160a01b03909116825284522054604051911615158152f35b50346100f55760403660031901126100f5576105fe6108b3565b60243567ffffffffffffffff81116102ae5761061e9036906004016108c9565b90916106286108fa565b6001600160a01b0390811690845b838110610641578580f35b82865260206003815260408720908361066361065e85898b610e58565b610e68565b1688525260408620906001918260ff198254161790558261068861065e83888a610e58565b16847f4bc18aa4b0095c9a3b5cdf42d2322d5a145591b04045988a995a5da4260754578980a301610636565b50346100f55760403660031901126100f5576106ce610898565b336001600160a01b038216036106ea576104a090600435610cae565b60405162461bcd60e51b815260206004820152602f60248201527f416363657373436f6e74726f6c3a2063616e206f6e6c792072656e6f756e636560448201526e103937b632b9903337b91039b2b63360891b6064820152608490fd5b50346100f55760403660031901126100f557600435610764610898565b8183528260205261077b6001604085200154610b2c565b818352602083815260408085206001600160a01b039093168086529290915283205460ff16156107a9578280f35b818352826020526040832081845260205260408320600160ff1982541617905533917f2f8788117e7eff1d82e926ec794901d17c78024a50270940304540a733656f0d8480a438808280f35b50346100f55760203660031901126100f557600160406020926004358152808452200154604051908152f35b50346100f557806003193601126100f5576020600254604051908152f35b9050346108945760203660031901126108945760043563ffffffff60e01b81168091036102ae5760209250637965db0b60e01b8114908115610883575b5015158152f35b6301ffc9a760e01b1490503861087c565b5080fd5b602435906001600160a01b03821682036108ae57565b600080fd5b600435906001600160a01b03821682036108ae57565b9181601f840112156108ae5782359167ffffffffffffffff83116108ae576020808501948460051b0101116108ae57565b3360009081527fee57cd81e84075558e8fcc182a1f4393f91fc97f963a136e66b7f949a62f319f6020908152604080832054909291907f97667070c54ef182b0f5858b034beac1b6f3089aa2d3188bb1e8929f4fa9b9299060ff16156109605750505050565b61096933610d49565b9084519061097682610c5a565b60428252838201946060368737825115610b185760308653825190600191821015610b185790607860218501536041915b818311610aaa57505050610a685784610a366048610a5a936044979851988991610a278984019876020b1b1b2b9b9a1b7b73a3937b61d1030b1b1b7bab73a1604d1b8a526109fe815180928d603789019101610c37565b8401917001034b99036b4b9b9b4b733903937b6329607d1b603784015251809386840190610c37565b01036028810189520187610c8c565b5194859362461bcd60e51b8552600485015251809281602486015285850190610c37565b601f01601f19168101030190fd5b60648386519062461bcd60e51b825280600483015260248201527f537472696e67733a20686578206c656e67746820696e73756666696369656e746044820152fd5b909192600f81166010811015610b04576f181899199a1a9b1b9c1cb0b131b232b360811b901a610ada8587610d22565b5360041c928015610af0576000190191906109a7565b634e487b7160e01b82526011600452602482fd5b634e487b7160e01b83526032600452602483fd5b634e487b7160e01b81526032600452602490fd5b60008181526020818152604092838320338452825260ff848420541615610b535750505050565b610b5c33610d49565b90845190610b6982610c5a565b60428252838201946060368737825115610b185760308653825190600191821015610b185790607860218501536041915b818311610bf157505050610a685784610a366048610a5a936044979851988991610a278984019876020b1b1b2b9b9a1b7b73a3937b61d1030b1b1b7bab73a1604d1b8a526109fe815180928d603789019101610c37565b909192600f81166010811015610b04576f181899199a1a9b1b9c1cb0b131b232b360811b901a610c218587610d22565b5360041c928015610af057600019019190610b9a565b60005b838110610c4a5750506000910152565b8181015183820152602001610c3a565b6080810190811067ffffffffffffffff821117610c7657604052565b634e487b7160e01b600052604160045260246000fd5b90601f8019910116810190811067ffffffffffffffff821117610c7657604052565b9060009180835282602052604083209160018060a01b03169182845260205260ff604084205416610cde57505050565b80835282602052604083208284526020526040832060ff1981541690557ff6391f5c32d9c69d2a47ea670b442974b53935d1edc7fd64eb21e047a839171b339380a4565b908151811015610d33570160200190565b634e487b7160e01b600052603260045260246000fd5b604051906060820182811067ffffffffffffffff821117610c7657604052602a8252602082016040368237825115610d3357603090538151600190811015610d3357607860218401536029905b808211610dea575050610da65790565b606460405162461bcd60e51b815260206004820152602060248201527f537472696e67733a20686578206c656e67746820696e73756666696369656e746044820152fd5b9091600f81166010811015610e43576f181899199a1a9b1b9c1cb0b131b232b360811b901a610e198486610d22565b5360041c918015610e2e576000190190610d96565b60246000634e487b7160e01b81526011600452fd5b60246000634e487b7160e01b81526032600452fd5b9190811015610d335760051b0190565b356001600160a01b03811681036108ae579056fea164736f6c6343000814000a2f8788117e7eff1d82e926ec794901d17c78024a50270940304540a733656f0d",
  "linkReferences": {},
  "deployedLinkReferences": {}
}