{
  "_format": "hh-sol-artifact-1",
  "contractName": "UniswapV3Helper",
  "sourceName": "contracts/UniswapV3Helper.sol",
  "abi": [
    {
      "inputs": [
        {
          "internalType": "address",
          "name": "positionManager_",
          "type": "address"
        }
      ],
      "stateMutability": "nonpayable",
      "type": "constructor"
    },
    {
      "anonymous": false,
      "inputs": [
        {
          "indexed": true,
          "internalType": "uint256",
          "name": "tokenId",
          "type": "uint256"
        },
        {
          "indexed": true,
          "internalType": "address",
          "name": "collector",
          "type": "address"
        },
        {
          "indexed": false,
          "internalType": "uint256",
          "name": "amount0",
          "type": "uint256"
        },
        {
          "indexed": false,
          "internalType": "uint256",
          "name": "amount1",
          "type": "uint256"
        }
      ],
      "name": "FeesCollected",
      "type": "event"
    },
    {
      "anonymous": false,
      "inputs": [
        {
          "indexed": true,
          "internalType": "uint256",
          "name": "tokenId",
          "type": "uint256"
        },
        {
          "indexed": true,
          "internalType": "address",
          "name": "token0",
          "type": "address"
        },
        {
          "indexed": true,
          "internalType": "address",
          "name": "token1",
          "type": "address"
        },
        {
          "indexed": false,
          "internalType": "uint24",
          "name": "fee",
          "type": "uint24"
        },
        {
          "indexed": false,
          "internalType": "uint128",
          "name": "liquidity",
          "type": "uint128"
        },
        {
          "indexed": false,
          "internalType": "uint256",
          "name": "amount0",
          "type": "uint256"
        },
        {
          "indexed": false,
          "internalType": "uint256",
          "name": "amount1",
          "type": "uint256"
        }
      ],
      "name": "PositionMinted",
      "type": "event"
    },
    {
      "inputs": [
        {
          "internalType": "uint256",
          "name": "tokenId",
          "type": "uint256"
        },
        {
          "internalType": "address",
          "name": "recipient",
          "type": "address"
        }
      ],
      "name": "collectFees",
      "outputs": [
        {
          "internalType": "uint256",
          "name": "collected0",
          "type": "uint256"
        },
        {
          "internalType": "uint256",
          "name": "collected1",
          "type": "uint256"
        }
      ],
      "stateMutability": "nonpayable",
      "type": "function"
    },
    {
      "inputs": [],
      "name": "factory",
      "outputs": [
        {
          "internalType": "contract IUniswapV3Factory",
          "name": "",
          "type": "address"
        }
      ],
      "stateMutability": "view",
      "type": "function"
    },
    {
      "inputs": [
        {
          "internalType": "address",
          "name": "token0",
          "type": "address"
        },
        {
          "internalType": "address",
          "name": "token1",
          "type": "address"
        },
        {
          "internalType": "uint24",
          "name": "fee",
          "type": "uint24"
        },
        {
          "internalType": "int24",
          "name": "tickLower",
          "type": "int24"
        },
        {
          "internalType": "int24",
          "name": "tickUpper",
          "type": "int24"
        },
        {
          "internalType": "uint256",
          "name": "amount0Desired",
          "type": "uint256"
        },
        {
          "internalType": "uint256",
          "name": "amount1Desired",
          "type": "uint256"
        },
        {
          "internalType": "uint256",
          "name": "amount0Min",
          "type": "uint256"
        },
        {
          "internalType": "uint256",
          "name": "amount1Min",
          "type": "uint256"
        },
        {
          "internalType": "address",
          "name": "recipient",
          "type": "address"
        },
        {
          "internalType": "uint256",
          "name": "deadline",
          "type": "uint256"
        }
      ],
      "name": "mintPosition",
      "outputs": [
        {
          "internalType": "uint256",
          "name": "tokenId",
          "type": "uint256"
        },
        {
          "internalType": "uint128",
          "name": "liquidity",
          "type": "uint128"
        },
        {
          "internalType": "uint256",
          "name": "amount0",
          "type": "uint256"
        },
        {
          "internalType": "uint256",
          "name": "amount1",
          "type": "uint256"
        }
      ],
      "stateMutability": "nonpayable",
      "type": "function"
    },
    {
      "inputs": [],
      "name": "positionManager",
      "outputs": [
        {
          "internalType": "contract INonfungiblePositionManager",
          "name": "",
          "type": "address"
        }
      ],
      "stateMutability": "view",
      "type": "function"
    }
  ],
  "bytecode": "0x60c0806040523461012857610c93803803809161001c828561012d565b83396001600160a01b039182916100369190810190610166565b1680156100e3576020816004926080526040519283809263c45a015560e01b82525afa9081156100d7576000916100a9575b501660a052604051610b0d9081610186823960805181818160f701528181610130015281816102930152818161048901526104df015260a051816104440152f35b6100ca915060203d81116100d0575b6100c2818361012d565b810190610166565b38610068565b503d6100b8565b6040513d6000823e3d90fd5b60405162461bcd60e51b815260206004820152601460248201527f5a65726f206d616e6167657220616464726573730000000000000000000000006044820152606490fd5b600080fd5b601f909101601f19168101906001600160401b0382119082101761015057604052565b634e487b7160e01b600052604160045260246000fd5b9081602091031261012857516001600160a01b0381168103610128579056fe608080604052600436101561001357600080fd5b60003560e01c90816351f3b4bd146104b857508063791b98bc14610473578063c45a01551461042e5763eed4f65d1461004b57600080fd5b346103ff57610160806003193601126103ff576004356001600160a01b03811681036103ff576100796106e6565b6044359262ffffff841684036103ff576064358060020b8091036103ff576084358060020b81036103ff5761012435916001600160a01b03831683036103ff576100d060a43530336001600160a01b038a1661079f565b6100e760c43530336001600160a01b03891661079f565b61012060a4356001600160a01b037f000000000000000000000000000000000000000000000000000000000000000081169089166107f8565b61015960c4356001600160a01b037f000000000000000000000000000000000000000000000000000000000000000081169088166107f8565b60405193840184811067ffffffffffffffff8211176104185760405260018060a01b038616845260018060a01b038516602085015262ffffff87166040850152606084015260020b608083015260a43560a083015260c43560c083015260e43560e08301526101043561010083015260018060a01b03166101208201526101443561014082015261014060405191634418b22b60e11b835260018060a01b03815116600484015260018060a01b03602082015116602484015262ffffff6040820151166044840152606081015160020b6064840152608081015160020b608484015260a081015160a484015260c081015160c484015260e081015160e484015261010081015161010484015260018060a01b0361012082015116610124840152015161014482015260808161016481600060018060a01b037f0000000000000000000000000000000000000000000000000000000000000000165af191821561040c576000936000956000936000956103a1575b50857f270130c34f0f7f185a78775d15a8fefeebaf4093502a5e9b3c3b41236a6436cd60806001600160801b03819a60a435891061037d575b60c4358a10610359575b62ffffff60405196168652169586602086015287604086015288606086015260018060a01b03169460018060a01b031693a4604051938452602084015260408301526060820152f35b6103786103688b60c435610732565b336001600160a01b038b16610755565b610310565b61039c61038c8a60a435610732565b336001600160a01b038a16610755565b610306565b94509250935093506080823d608011610404575b816103c2608093836106fc565b810103126103ff576080936001600160801b03938351926103e56020860161071e565b6040860151606090960151909750939550929392856102cd565b600080fd5b3d91506103b5565b6040513d6000823e3d90fd5b634e487b7160e01b600052604160045260246000fd5b346103ff5760003660031901126103ff576040517f00000000000000000000000000000000000000000000000000000000000000006001600160a01b03168152602090f35b346103ff5760003660031901126103ff576040517f00000000000000000000000000000000000000000000000000000000000000006001600160a01b03168152602090f35b346103ff5760403660031901126103ff576004356104d46106e6565b916001600160a01b037f00000000000000000000000000000000000000000000000000000000000000008116916080810181811067ffffffffffffffff821117610418576040908152848252948216602082018181526001600160801b0383880181815260608501828152895163fc6f786560e01b8152955160048701529251909516602485015293518416604484015251831660648301529194816084816000875af1801561040c576106bb575b50604051809263133f757160e31b82528460048301528160246101809586935afa90811561040c576000936000926105fb575b50509380604095169216927f1df95d0058852523ea13aa1809224af942bd446ce86d3e431bf193c2bec269f1858051868152856020820152a382519182526020820152f35b8194508092503d83116106b4575b61061381836106fc565b810103126103ff5781516bffffffffffffffffffffffff8116036103ff5761063d60208301610ade565b5061064a60408301610ade565b5061065760608301610ade565b50608082015162ffffff8116036103ff5760409361067760a08401610af2565b5061068460c08401610af2565b5061069160e0840161071e565b50806106ad6101606106a6610140870161071e565b950161071e565b91956105b6565b503d610609565b604090813d83116106df575b6106d181836106fc565b810103126103ff5784610583565b503d6106c7565b602435906001600160a01b03821682036103ff57565b90601f8019910116810190811067ffffffffffffffff82111761041857604052565b51906001600160801b03821682036103ff57565b9190820391821161073f57565b634e487b7160e01b600052601160045260246000fd5b60405163a9059cbb60e01b60208201526001600160a01b039092166024830152604482019290925261079d9161079882606481015b03601f1981018452836106fc565b6108b6565b565b6040516323b872dd60e01b60208201526001600160a01b03928316602482015292909116604483015260648083019390935291815260a081019181831067ffffffffffffffff8411176104185761079d926040526108b6565b604051636eb1769f60e11b81523060048201526001600160a01b038084166024830152929390926020908490604490829086165afa92831561040c57600093610880575b50820180921161073f5760405163095ea7b360e01b60208201526001600160a01b039093166024840152604483019190915261079d9190610798826064810161078a565b90926020823d82116108ae575b8161089a602093836106fc565b810103126108ab575051913861083c565b80fd5b3d915061088d565b60018060a01b0316906040516040810167ffffffffffffffff9082811082821117610418576040526020938483527f5361666545524332303a206c6f772d6c6576656c2063616c6c206661696c6564858401526000808587829751910182855af1903d156109ff573d9283116109eb57906109519392916040519261094488601f19601f84011601856106fc565b83523d868885013e610a0a565b8051918215918483156109c3575b50505090501561096c5750565b6084906040519062461bcd60e51b82526004820152602a60248201527f5361666545524332303a204552433230206f7065726174696f6e20646964206e6044820152691bdd081cdd58d8d9595960b21b6064820152fd5b9193818094500103126109e7578201519081151582036108ab57508038808461095f565b5080fd5b634e487b7160e01b85526041600452602485fd5b906109519392506060915b91929015610a6c5750815115610a1e575090565b3b15610a275790565b60405162461bcd60e51b815260206004820152601d60248201527f416464726573733a2063616c6c20746f206e6f6e2d636f6e74726163740000006044820152606490fd5b825190915015610a7f5750805190602001fd5b6040519062461bcd60e51b82528160208060048301528251908160248401526000935b828510610ac5575050604492506000838284010152601f80199101168101030190fd5b8481018201518686016044015293810193859350610aa2565b51906001600160a01b03821682036103ff57565b51908160020b82036103ff5756fea164736f6c6343000814000a",
  "linkReferences": {},
  "deployedLinkReferences": {}
}