{
  "_format": "hh-sol-artifact-1",
  "contractName": "MemeCoinVestingManager",
  "sourceName": "contracts/MemeCoinVestingManager.sol",
  "abi": [
    {
      "inputs": [],
      "stateMutability": "nonpayable",
      "type": "constructor"
    },
    {
      "inputs": [],
      "name": "BadParams",
      "type": "error"
    },
    {
      "inputs": [],
      "name": "InsufficientBalance",
      "type": "error"
    },
    {
      "inputs": [],
      "name": "NothingToClaim",
      "type": "error"
    },
    {
      "anonymous": false,
      "inputs": [
        {
          "indexed": false,
          "internalType": "address",
          "name": "account",
          "type": "address"
        }
      ],
      "name": "Paused",
      "type": "event"
    },
    {
      "anonymous": false,
      "inputs": [
        {
          "indexed": true,
          "internalType": "bytes32",
          "name": "role",
          "type": "bytes32"
        },
        {
          "indexed": true,
          "internalType": "bytes32",
          "name": "previousAdminRole",
          "type": "bytes32"
        },
        {
          "indexed": true,
          "internalType": "bytes32",
          "name": "newAdminRole",
          "type": "bytes32"
        }
      ],
      "name": "RoleAdminChanged",
      "type": "event"
    },
    {
      "anonymous": false,
      "inputs": [
        {
          "indexed": true,
          "internalType": "bytes32",
          "name": "role",
          "type": "bytes32"
        },
        {
          "indexed": true,
          "internalType": "address",
          "name": "account",
          "type": "address"
        },
        {
          "indexed": true,
          "internalType": "address",
          "name": "sender",
          "type": "address"
        }
      ],
      "name": "RoleGranted",
      "type": "event"
    },
    {
      "anonymous": false,
      "inputs": [
        {
          "indexed": true,
          "internalType": "bytes32",
          "name": "role",
          "type": "bytes32"
        },
        {
          "indexed": true,
          "internalType": "address",
          "name": "account",
          "type": "address"
        },
        {
          "indexed": true,
          "internalType": "address",
          "name": "sender",
          "type": "address"
        }
      ],
      "name": "RoleRevoked",
      "type": "event"
    },
    {
      "anonymous": false,
      "inputs": [
        {
          "indexed": false,
          "internalType": "address",
          "name": "account",
          "type": "address"
        }
      ],
      "name": "Unpaused",
      "type": "event"
    },
    {
      "anonymous": false,
      "inputs": [
        {
          "indexed": true,
          "internalType": "address",
          "name": "beneficiary",
          "type": "address"
        },
        {
          "indexed": true,
          "internalType": "address",
          "name": "token",
          "type": "address"
        },
        {
          "indexed": false,
          "internalType": "uint256",
          "name": "amount",
          "type": "uint256"
        }
      ],
      "name": "VestedClaimed",
      "type": "event"
    },
    {
      "anonymous": false,
      "inputs": [
        {
          "indexed": true,
          "internalType": "address",
          "name": "beneficiary",
          "type": "address"
        },
        {
          "indexed": true,
          "internalType": "address",
          "name": "token",
          "type": "address"
        },
        {
          "indexed": false,
          "internalType": "uint256",
          "name": "total",
          "type": "uint256"
        },
        {
          "indexed": false,
          "internalType": "uint256",
          "name": "start",
          "type": "uint256"
        },
        {
          "indexed": false,
          "internalType": "uint256",
          "name": "cliff",
          "type": "uint256"
        },
        {
          "indexed": false,
          "internalType": "uint256",
          "name": "duration",
          "type": "uint256"
        }
      ],
      "name": "VestingScheduleSet",
      "type": "event"
    },
    {
      "stateMutability": "payable",
      "type": "fallback"
    },
    {
      "inputs": [],
      "name": "DEFAULT_ADMIN_ROLE",
      "outputs": [
        {
          "internalType": "bytes32",
          "name": "",
          "type": "bytes32"
        }
      ],
      "stateMutability": "view",
      "type": "function"
    },
    {
      "inputs": [],
      "name": "OPERATOR_ROLE",
      "outputs": [
        {
          "internalType": "bytes32",
          "name": "",
          "type": "bytes32"
        }
      ],
      "stateMutability": "view",
      "type": "function"
    },
    {
      "inputs": [],
      "name": "claimVested",
      "outputs": [],
      "stateMutability": "nonpayable",
      "type": "function"
    },
    {
      "inputs": [],
      "name": "emergencyWithdrawETH",
      "outputs": [],
      "stateMutability": "nonpayable",
      "type": "function"
    },
    {
      "inputs": [
        {
          "internalType": "bytes32",
          "name": "role",
          "type": "bytes32"
        }
      ],
      "name": "getRoleAdmin",
      "outputs": [
        {
          "internalType": "bytes32",
          "name": "",
          "type": "bytes32"
        }
      ],
      "stateMutability": "view",
      "type": "function"
    },
    {
      "inputs": [
        {
          "internalType": "address",
          "name": "beneficiary",
          "type": "address"
        },
        {
          "internalType": "uint256",
          "name": "index",
          "type": "uint256"
        }
      ],
      "name": "getVestingSchedule",
      "outputs": [
        {
          "internalType": "address",
          "name": "token",
          "type": "address"
        },
        {
          "internalType": "uint256",
          "name": "total",
          "type": "uint256"
        },
        {
          "internalType": "uint256",
          "name": "claimed",
          "type": "uint256"
        },
        {
          "internalType": "uint256",
          "name": "start",
          "type": "uint256"
        },
        {
          "internalType": "uint256",
          "name": "cliff",
          "type": "uint256"
        },
        {
          "internalType": "uint256",
          "name": "duration",
          "type": "uint256"
        }
      ],
      "stateMutability": "view",
      "type": "function"
    },
    {
      "inputs": [
        {
          "internalType": "bytes32",
          "name": "role",
          "type": "bytes32"
        },
        {
          "internalType": "address",
          "name": "account",
          "type": "address"
        }
      ],
      "name": "grantRole",
      "outputs": [],
      "stateMutability": "nonpayable",
      "type": "function"
    },
    {
      "inputs": [
        {
          "internalType": "bytes32",
          "name": "role",
          "type": "bytes32"
        },
        {
          "internalType": "address",
          "name": "account",
          "type": "address"
        }
      ],
      "name": "hasRole",
      "outputs": [
        {
          "internalType": "bool",
          "name": "",
          "type": "bool"
        }
      ],
      "stateMutability": "view",
      "type": "function"
    },
    {
      "inputs": [],
      "name": "pause",
      "outputs": [],
      "stateMutability": "nonpayable",
      "type": "function"
    },
    {
      "inputs": [],
      "name": "paused",
      "outputs": [
        {
          "internalType": "bool",
          "name": "",
          "type": "bool"
        }
      ],
      "stateMutability": "view",
      "type": "function"
    },
    {
      "inputs": [
        {
          "internalType": "bytes32",
          "name": "role",
          "type": "bytes32"
        },
        {
          "internalType": "address",
          "name": "account",
          "type": "address"
        }
      ],
      "name": "renounceRole",
      "outputs": [],
      "stateMutability": "nonpayable",
      "type": "function"
    },
    {
      "inputs": [
        {
          "internalType": "address",
          "name": "token",
          "type": "address"
        },
        {
          "internalType": "uint256",
          "name": "amount",
          "type": "uint256"
        }
      ],
      "name": "rescueERC20",
      "outputs": [],
      "stateMutability": "nonpayable",
      "type": "function"
    },
    {
      "inputs": [
        {
          "internalType": "bytes32",
          "name": "role",
          "type": "bytes32"
        },
        {
          "internalType": "address",
          "name": "account",
          "type": "address"
        }
      ],
      "name": "revokeRole",
      "outputs": [],
      "stateMutability": "nonpayable",
      "type": "function"
    },
    {
      "inputs": [
        {
          "internalType": "address",
          "name": "beneficiary",
          "type": "address"
        },
        {
          "internalType": "address",
          "name": "token",
          "type": "address"
        },
        {
          "internalType": "uint256",
          "name": "total",
          "type": "uint256"
        },
        {
          "internalType": "uint256",
          "name": "cliff",
          "type": "uint256"
        },
        {
          "internalType": "uint256",
          "name": "duration",
          "type": "uint256"
        }
      ],
      "name": "setVestingSchedule",
      "outputs": [],
      "stateMutability": "nonpayable",
      "type": "function"
    },
    {
      "inputs": [
        {
          "internalType": "bytes4",
          "name": "interfaceId",
          "type": "bytes4"
        }
      ],
      "name": "supportsInterface",
      "outputs": [
        {
          "internalType": "bool",
          "name": "",
          "type": "bool"
        }
      ],
      "stateMutability": "view",
      "type": "function"
    },
    {
      "inputs": [],
      "name": "unpause",
      "outputs": [],
      "stateMutability": "nonpayable",
      "type": "function"
    },
    {
      "inputs": [
        {
          "internalType": "address",
          "name": "beneficiary",
          "type": "address"
        }
      ],
      "name": "vestingScheduleCount",
      "outputs": [
        {
          "internalType": "uint256",
          "name": "",
          "type": "uint256"
        }
      ],
      "stateMutability": "view",
      "type": "function"
    },
    {
      "inputs": [
        {
          "internalType": "address",
          "name": "",
          "type": "address"
        },
        {
          "internalType": "uint256",
          "name": "",
          "type": "uint256"
        }
      ],
      "name": "vestingSchedules",
      "outputs": [
        {
          "internalType": "address",
          "name": "token",
          "type": "address"
        },
        {
          "internalType": "uint256",
          "name": "total",
          "type": "uint256"
        },
        {
          "internalType": "uint256",
          "name": "claimed",
          "type": "uint256"
        },
        {
          "internalType": "uint256",
          "name": "start",
          "type": "uint256"
        },
        {
          "internalType": "uint256",
          "name": "cliff",
          "type": "uint256"
        },
        {
          "internalType": "uint256",
          "name": "duration",
          "type": "uint256"
        }
      ],
      "stateMutability": "view",
      "type": "function"
    },
    {
      "stateMutability": "payable",
      "type": "receive"
    }
  ],
  "bytecode": "0x60806040818152346100f15760ff19806001541660015560016002556000908180526020828152838320338452815260ff8484205416156100bd575b7f97667070c54ef182b0f5858b034beac1b6f3089aa2d3188bb1e8929f4fa9b92993848452838252808420338552825260ff818520541615610084575b61145686816100f78239f35b6001918585528481528185209033865252832091825416179055339160008051602061154d833981519152339280a43880808080610078565b828052828152838320338452815283832060018382541617905533338460008051602061154d8339815191528180a461003b565b600080fdfe6080604081815260049182361015610025575b505050361561002057600080fd5b600080fd5b600092833560e01c91826301ffc9a714610c0857508163248a9ca314610bde5781632f2ff15d14610b3557816336568abe14610aa35781633d94bdbb146106905781633f4ba83a146105fa57816345626bd6146105ad5781635c975abb1461058957816384536017146105435781638456cb59146104e95781638cd4426d146104ae57816391d1485414610468578163a217fddf1461044d578163a9bb5c4c14610415578163bed9757e1461037d578163d01c44cd1461017a578163d547741f14610138575063f5b541a6146100fb5780610012565b34610134578160031936011261013457602090517f97667070c54ef182b0f5858b034beac1b6f3089aa2d3188bb1e8929f4fa9b9298152f35b5080fd5b91905034610176578060031936011261017657610173913561016e600161015d610c5b565b938387528660205286200154610e80565b61102c565b80f35b8280fd5b839150346101345781600319360112610134576101956111e3565b6002928380541461033a578380553383526003602094818652828520958591865b885481101561031a576101c9818a610c87565b508281018054906001830154808310610205575b5050505060001981146101f2576001016101b6565b634e487b7160e01b885260118752602488fd5b826102138a86015442611227565b8d8d8701549182811060001461029e575090506102309250611227565b9182156101dd57968293979161024a8461025195946110a0565b90556110a0565b9460018060a01b0390610268833384845416611234565b54169087519081527f3dea86ee53588906162d63de35783619d0db9b5d981641af560779a1e32940ec853392a3898080806101dd565b600588015491508181106102b85750505061023091611227565b829350916102c69192611227565b9283810293818504149015171561030757906102e191611227565b9081156102f45761023091849104611227565b634e487b7160e01b8d5260128c5260248dfd5b634e487b7160e01b8e5260118d5260248efd5b5094939250501561032d57836001845580f35b516312d37ee560e31b8152fd5b906020606492519162461bcd60e51b8352820152601f60248201527f5265656e7472616e637947756172643a207265656e7472616e742063616c6c006044820152fd5b8383346101345780600319360112610134576001600160a01b039161041191906103bd90846103aa610c71565b1681526003602052826024359120610c87565b509283541692600181015494600282015460056003840154928401549301549351968796879260a094919796959260c0850198600180881b0316855260208501526040840152606083015260808201520152565b0390f35b5050346101345760203660031901126101345760209181906001600160a01b0361043d610c71565b1681526003845220549051908152f35b50503461013457816003193601126101345751908152602090f35b9050346101765781600319360112610176578160209360ff92610489610c5b565b903582528186528282206001600160a01b039091168252855220549151911615158152f35b505034610134573660031901126104e6576101736104ca610c71565b6104d2610cb9565b6024359033906001600160a01b0316611234565b80fd5b50503461013457816003193601126101345760207f62e78cea01bee320cd4e420270b5ea74000d11b0c9f74754ebdbfc544b05a25891610527610cb9565b61052f6111e3565b600160ff198154161760015551338152a180f35b50503461013457816003193601126101345761055d610cb9565b8180808047818115610580575b3390f115610576575080f35b51903d90823e3d90fd5b506108fc61056a565b50503461013457816003193601126101345760209060ff6001541690519015158152f35b8383346101345780600319360112610134576105c7610c71565b6001600160a01b039081168352600360205281832080549193602435928310156104e6575061041192916103bd91610c87565b905034610176578260031936011261017657610614610cb9565b6001549060ff821615610656575060ff1916600155513381527f5db9ee0a495bf2e6ff9c91a7834c1ba4fdd244a5e8aa4e537bd38aeae4b073aa90602090a180f35b606490602084519162461bcd60e51b8352820152601460248201527314185d5cd8589b194e881b9bdd081c185d5cd95960621b6044820152fd5b9050346101765760a0366003190112610176576106ab610c71565b916106b4610c5b565b6044359160643590608435927f97667070c54ef182b0f5858b034beac1b6f3089aa2d3188bb1e8929f4fa9b92990818952602091898352838a20338b52835260ff848b205416156108e057506107086111e3565b851580156108d6575b6108c65782516370a0823160e01b815230888201526001600160a01b03918216989083816024818d5afa9081156108bc579088918c91610887575b501061087757811696878a5260038352838a209084519260c0840184811067ffffffffffffffff8211176108645786528a84528484018981528685018d8152606086019142835260808701938a855260a08801968c88528054906801000000000000000082101561084e57906107c791600182018155610c87565b98909861083a575188546001600160a01b0319169116178755516001870155516002860155516003850155519083015551600591909101558151948552429085015283015260608201527f85ea0818780c5d304e8bfc41cc38a02f61338ca0966c8bbb0b883de4cce660fd90608090a380f35b5050634e487b7160e01b8f528e855260248ffd5b50505060248f604187634e487b7160e01b835252fd5b634e487b7160e01b8d526041835260248dfd5b8351631e9acf1760e31b81528890fd5b809250858092503d83116108b5575b6108a08183610fde565b810103126108b1578790513861074c565b8a80fd5b503d610896565b85513d8d823e3d90fd5b825163019af63760e01b81528790fd5b5083851115610711565b87838b86936108ee336110d4565b8551916108fa83610fac565b60428352848301936060368637835115610a905760308553835190600191821015610a7d5790607860218601536041915b818311610a12575050506109d0576109cc9386936109b8936109a96048946109809a519a8576020b1b1b2b9b9a1b7b73a3937b61d1030b1b1b7bab73a1604d1b8d978801528251928391603789019101610f89565b8401917001034b99036b4b9b9b4b733903937b6329607d1b603784015251809386840190610f89565b01036028810187520185610fde565b5162461bcd60e51b81529283928301611000565b0390fd5b50505080606493519262461bcd60e51b845283015260248201527f537472696e67733a20686578206c656e67746820696e73756666696369656e746044820152fd5b909192600f81166010811015610a6a576f181899199a1a9b1b9c1cb0b131b232b360811b901a610a4285886110c3565b53881c928015610a575760001901919061092b565b634e487b7160e01b825260118952602482fd5b634e487b7160e01b835260328a52602483fd5b634e487b7160e01b815260328852602490fd5b634e487b7160e01b815260328752602490fd5b83915034610134578260031936011261013457610abe610c5b565b90336001600160a01b03831603610ada5790610173913561102c565b608490602085519162461bcd60e51b8352820152602f60248201527f416363657373436f6e74726f6c3a2063616e206f6e6c792072656e6f756e636560448201526e103937b632b9903337b91039b2b63360891b6064820152fd5b9050346101765781600319360112610176573590610b51610c5b565b9082845283602052610b6860018286200154610e80565b82845260208481528185206001600160a01b039093168086529290528084205460ff1615610b94578380f35b828452836020528084208285526020528320600160ff1982541617905533917f2f8788117e7eff1d82e926ec794901d17c78024a50270940304540a733656f0d8480a43880808380f35b90503461017657602036600319011261017657816020936001923581528085522001549051908152f35b849134610176576020366003190112610176573563ffffffff60e01b81168091036101765760209250637965db0b60e01b8114908115610c4a575b5015158152f35b6301ffc9a760e01b14905083610c43565b602435906001600160a01b038216820361002057565b600435906001600160a01b038216820361002057565b8054821015610ca3576000526006602060002091020190600090565b634e487b7160e01b600052603260045260246000fd5b3360009081527fad3228b676f7d3cd4284a5443f17f1962b36e491b30a40b2405849e597ba5fb5602090815260408083205490929060ff1615610cfb57505050565b610d04336110d4565b83519082610d1183610fac565b60428352848301936060368637835115610e6c5760308553835190600191821015610e6c5790607860218601536041915b818311610dfe57505050610dbc57610980938593610da693610d976048946109cc9951988576020b1b1b2b9b9a1b7b73a3937b61d1030b1b1b7bab73a1604d1b8b978801528251928391603789019101610f89565b01036028810185520183610fde565b5162461bcd60e51b815291829160048301611000565b60648486519062461bcd60e51b825280600483015260248201527f537472696e67733a20686578206c656e67746820696e73756666696369656e746044820152fd5b909192600f81166010811015610e58576f181899199a1a9b1b9c1cb0b131b232b360811b901a610e2e85886110c3565b5360041c928015610e4457600019019190610d42565b634e487b7160e01b82526011600452602482fd5b634e487b7160e01b83526032600452602483fd5b634e487b7160e01b81526032600452602490fd5b6000818152602090808252604092838220338352835260ff848320541615610ea85750505050565b610eb1336110d4565b845191610ebd83610fac565b60428352848301936060368637835115610e6c5760308553835190600191821015610e6c5790607860218601536041915b818311610f4357505050610dbc57610980938593610da693610d976048946109cc9951988576020b1b1b2b9b9a1b7b73a3937b61d1030b1b1b7bab73a1604d1b8b978801528251928391603789019101610f89565b909192600f81166010811015610e58576f181899199a1a9b1b9c1cb0b131b232b360811b901a610f7385886110c3565b5360041c928015610e4457600019019190610eee565b60005b838110610f9c5750506000910152565b8181015183820152602001610f8c565b6080810190811067ffffffffffffffff821117610fc857604052565b634e487b7160e01b600052604160045260246000fd5b90601f8019910116810190811067ffffffffffffffff821117610fc857604052565b604091602082526110208151809281602086015260208686019101610f89565b601f01601f1916010190565b9060009180835282602052604083209160018060a01b03169182845260205260ff60408420541661105c57505050565b80835282602052604083208284526020526040832060ff1981541690557ff6391f5c32d9c69d2a47ea670b442974b53935d1edc7fd64eb21e047a839171b339380a4565b919082018092116110ad57565b634e487b7160e01b600052601160045260246000fd5b908151811015610ca3570160200190565b604051906060820182811067ffffffffffffffff821117610fc857604052602a8252602082016040368237825115610ca357603090538151600190811015610ca357607860218401536029905b8082116111755750506111315790565b606460405162461bcd60e51b815260206004820152602060248201527f537472696e67733a20686578206c656e67746820696e73756666696369656e746044820152fd5b9091600f811660108110156111ce576f181899199a1a9b1b9c1cb0b131b232b360811b901a6111a484866110c3565b5360041c9180156111b9576000190190611121565b60246000634e487b7160e01b81526011600452fd5b60246000634e487b7160e01b81526032600452fd5b60ff600154166111ef57565b60405162461bcd60e51b815260206004820152601060248201526f14185d5cd8589b194e881c185d5cd95960821b6044820152606490fd5b919082039182116110ad57565b60405163a9059cbb60e01b60208083019182526001600160a01b03948516602484015260448084019690965294825292608082019267ffffffffffffffff92919083851183861017610fc857169060c0810184811084821117610fc8576040528584527f5361666545524332303a206c6f772d6c6576656c2063616c6c206661696c656460a0820152600080958192519082855af1903d156113ad573d9283116113995790611303939291604051926112f688601f19601f8401160185610fde565b83523d868885013e6113b8565b805191821591848315611375575b50505090501561131e5750565b6084906040519062461bcd60e51b82526004820152602a60248201527f5361666545524332303a204552433230206f7065726174696f6e20646964206e6044820152691bdd081cdd58d8d9595960b21b6064820152fd5b919381809450010312610134578201519081151582036104e6575080388084611311565b634e487b7160e01b85526041600452602485fd5b906113039392506060915b9192901561141a57508151156113cc575090565b3b156113d55790565b60405162461bcd60e51b815260206004820152601d60248201527f416464726573733a2063616c6c20746f206e6f6e2d636f6e74726163740000006044820152606490fd5b82519091501561142d5750805190602001fd5b60405162461bcd60e51b81529081906109cc906004830161100056fea164736f6c6343000814000a2f8788117e7eff1d82e926ec794901d17c78024a50270940304540a733656f0d",
  "linkReferences": {},
  "deployedLinkReferences": {}
}