{
  "_format": "hh-sol-artifact-1",
  "contractName": "LiquidityLocker",
  "sourceName": "contracts/MemeCoinFactory.sol",
  "abi": [
    {
      "anonymous": false,
      "inputs": [
        {
          "indexed": true,
          "internalType": "address",
          "name": "previousOwner",
          "type": "address"
        },
        {
          "indexed": true,
          "internalType": "address",
          "name": "newOwner",
          "type": "address"
        }
      ],
      "name": "OwnershipTransferred",
      "type": "event"
    },
    {
      "inputs": [
        {
          "internalType": "address",
          "name": "pair",
          "type": "address"
        },
        {
          "internalType": "uint256",
          "name": "amt",
          "type": "uint256"
        },
        {
          "internalType": "uint256",
          "name": "dur",
          "type": "uint256"
        }
      ],
      "name": "lockLP",
      "outputs": [],
      "stateMutability": "nonpayable",
      "type": "function"
    },
    {
      "inputs": [
        {
          "internalType": "address",
          "name": "",
          "type": "address"
        },
        {
          "internalType": "uint256",
          "name": "",
          "type": "uint256"
        }
      ],
      "name": "locks",
      "outputs": [
        {
          "internalType": "address",
          "name": "pair",
          "type": "address"
        },
        {
          "internalType": "uint256",
          "name": "amount",
          "type": "uint256"
        },
        {
          "internalType": "uint256",
          "name": "unlockTime",
          "type": "uint256"
        }
      ],
      "stateMutability": "view",
      "type": "function"
    },
    {
      "inputs": [],
      "name": "owner",
      "outputs": [
        {
          "internalType": "address",
          "name": "",
          "type": "address"
        }
      ],
      "stateMutability": "view",
      "type": "function"
    },
    {
      "inputs": [],
      "name": "renounceOwnership",
      "outputs": [],
      "stateMutability": "nonpayable",
      "type": "function"
    },
    {
      "inputs": [
        {
          "internalType": "address",
          "name": "newOwner",
          "type": "address"
        }
      ],
      "name": "transferOwnership",
      "outputs": [],
      "stateMutability": "nonpayable",
      "type": "function"
    },
    {
      "inputs": [
        {
          "internalType": "uint256",
          "name": "idx",
          "type": "uint256"
        }
      ],
      "name": "withdrawUnlocked",
      "outputs": [],
      "stateMutability": "nonpayable",
      "type": "function"
    }
  ],
  "bytecode": "0x608060405234801561001057600080fd5b5061001a3361001f565b61006f565b600080546001600160a01b038381166001600160a01b0319831681178455604051919092169283917f8be0079c531659141344cd1fd0a4f28419497f9722a3daafe3b4186f6b6457e09190a35050565b6108ed8061007e6000396000f3fe608060405234801561001057600080fd5b50600436106100625760003560e01c806332944865146100675780634561828e1461007c578063715018a61461008f5780638da5cb5b14610097578063b425f802146100bc578063f2fde38b146100f4575b600080fd5b61007a61007536600461074d565b610107565b005b61007a61008a366004610780565b6101ab565b61007a61028f565b61009f6102a3565b6040516001600160a01b0390911681526020015b60405180910390f35b6100cf6100ca366004610799565b6102b2565b604080516001600160a01b0390941684526020840192909252908201526060016100b3565b61007a6101023660046107c3565b6102fe565b61011c6001600160a01b038416333085610377565b3360009081526001602090815260409182902082516060810184526001600160a01b038716815291820185905291810161015684426107e5565b90528154600180820184556000938452602093849020835160039093020180546001600160a01b0319166001600160a01b03909316929092178255928201519281019290925560400151600290910155505050565b3360009081526001602052604081208054839081106101cc576101cc61080c565b9060005260206000209060030201905080600201544210156102245760405162461bcd60e51b815260206004820152600c60248201526b14dd1a5b1b081b1bd8dad95960a21b60448201526064015b60405180910390fd5b60018101548154610242916001600160a01b039091169033906103e8565b3360009081526001602052604090208054839081106102635761026361080c565b60009182526020822060039091020180546001600160a01b031916815560018101829055600201555050565b61029761041d565b6102a1600061047c565b565b6000546001600160a01b031690565b600160205281600052604060002081815481106102ce57600080fd5b60009182526020909120600390910201805460018201546002909201546001600160a01b03909116935090915083565b61030661041d565b6001600160a01b03811661036b5760405162461bcd60e51b815260206004820152602660248201527f4f776e61626c653a206e6577206f776e657220697320746865207a65726f206160448201526564647265737360d01b606482015260840161021b565b6103748161047c565b50565b6040516001600160a01b03808516602483015283166044820152606481018290526103e29085906323b872dd60e01b906084015b60408051601f198184030181529190526020810180516001600160e01b03166001600160e01b0319909316929092179091526104cc565b50505050565b6040516001600160a01b03831660248201526044810182905261041890849063a9059cbb60e01b906064016103ab565b505050565b336104266102a3565b6001600160a01b0316146102a15760405162461bcd60e51b815260206004820181905260248201527f4f776e61626c653a2063616c6c6572206973206e6f7420746865206f776e6572604482015260640161021b565b600080546001600160a01b038381166001600160a01b0319831681178455604051919092169283917f8be0079c531659141344cd1fd0a4f28419497f9722a3daafe3b4186f6b6457e09190a35050565b6000610521826040518060400160405280602081526020017f5361666545524332303a206c6f772d6c6576656c2063616c6c206661696c6564815250856001600160a01b03166105a19092919063ffffffff16565b90508051600014806105425750808060200190518101906105429190610822565b6104185760405162461bcd60e51b815260206004820152602a60248201527f5361666545524332303a204552433230206f7065726174696f6e20646964206e6044820152691bdd081cdd58d8d9595960b21b606482015260840161021b565b60606105b084846000856105b8565b949350505050565b6060824710156106195760405162461bcd60e51b815260206004820152602660248201527f416464726573733a20696e73756666696369656e742062616c616e636520666f6044820152651c8818d85b1b60d21b606482015260840161021b565b600080866001600160a01b031685876040516106359190610868565b60006040518083038185875af1925050503d8060008114610672576040519150601f19603f3d011682016040523d82523d6000602084013e610677565b606091505b509150915061068887838387610693565b979650505050505050565b606083156107025782516000036106fb576001600160a01b0385163b6106fb5760405162461bcd60e51b815260206004820152601d60248201527f416464726573733a2063616c6c20746f206e6f6e2d636f6e7472616374000000604482015260640161021b565b50816105b0565b6105b083838151156107175781518083602001fd5b8060405162461bcd60e51b815260040161021b9190610884565b80356001600160a01b038116811461074857600080fd5b919050565b60008060006060848603121561076257600080fd5b61076b84610731565b95602085013595506040909401359392505050565b60006020828403121561079257600080fd5b5035919050565b600080604083850312156107ac57600080fd5b6107b583610731565b946020939093013593505050565b6000602082840312156107d557600080fd5b6107de82610731565b9392505050565b8082018082111561080657634e487b7160e01b600052601160045260246000fd5b92915050565b634e487b7160e01b600052603260045260246000fd5b60006020828403121561083457600080fd5b815180151581146107de57600080fd5b60005b8381101561085f578181015183820152602001610847565b50506000910152565b6000825161087a818460208701610844565b9190910192915050565b60208152600082518060208401526108a3816040850160208701610844565b601f01601f1916919091016040019291505056fea264697066735822122087207bf78ee73ddf1c3e6867ac44917b045b29c88039834db199f48643ddcf0364736f6c63430008140033",
  "linkReferences": {},
  "deployedLinkReferences": {}
}