{
  "_format": "hh-sol-artifact-1",
  "contractName": "MemeCoinFactory",
  "sourceName": "contracts/MemeCoinFactory.sol",
  "abi": [
    {
      "inputs": [
        {
          "internalType": "address",
          "name": "forwarder_",
          "type": "address"
        },
        {
          "internalType": "uint16",
          "name": "platformFeeBP_",
          "type": "uint16"
        },
        {
          "internalType": "uint16",
          "name": "referralFeeBP_",
          "type": "uint16"
        },
        {
          "internalType": "uint256",
          "name": "_basePrice",
          "type": "uint256"
        },
        {
          "internalType": "uint256",
          "name": "_slope",
          "type": "uint256"
        },
        {
          "internalType": "address",
          "name": "positionManager_",
          "type": "address"
        },
        {
          "internalType": "address",
          "name": "v2Factory_",
          "type": "address"
        }
      ],
      "stateMutability": "nonpayable",
      "type": "constructor"
    },
    {
      "anonymous": false,
      "inputs": [
        {
          "indexed": true,
          "internalType": "address",
          "name": "token",
          "type": "address"
        },
        {
          "indexed": true,
          "internalType": "address",
          "name": "buyer",
          "type": "address"
        },
        {
          "indexed": false,
          "internalType": "uint256",
          "name": "amountAtomic",
          "type": "uint256"
        },
        {
          "indexed": false,
          "internalType": "uint256",
          "name": "cost",
          "type": "uint256"
        }
      ],
      "name": "Bought",
      "type": "event"
    },
    {
      "anonymous": false,
      "inputs": [
        {
          "indexed": true,
          "internalType": "string",
          "name": "name",
          "type": "string"
        },
        {
          "indexed": false,
          "internalType": "address",
          "name": "module",
          "type": "address"
        }
      ],
      "name": "ModuleSet",
      "type": "event"
    },
    {
      "anonymous": false,
      "inputs": [
        {
          "indexed": false,
          "internalType": "address",
          "name": "account",
          "type": "address"
        }
      ],
      "name": "Paused",
      "type": "event"
    },
    {
      "anonymous": false,
      "inputs": [
        {
          "indexed": true,
          "internalType": "bytes32",
          "name": "role",
          "type": "bytes32"
        },
        {
          "indexed": true,
          "internalType": "bytes32",
          "name": "previousAdminRole",
          "type": "bytes32"
        },
        {
          "indexed": true,
          "internalType": "bytes32",
          "name": "newAdminRole",
          "type": "bytes32"
        }
      ],
      "name": "RoleAdminChanged",
      "type": "event"
    },
    {
      "anonymous": false,
      "inputs": [
        {
          "indexed": true,
          "internalType": "bytes32",
          "name": "role",
          "type": "bytes32"
        },
        {
          "indexed": true,
          "internalType": "address",
          "name": "account",
          "type": "address"
        },
        {
          "indexed": true,
          "internalType": "address",
          "name": "sender",
          "type": "address"
        }
      ],
      "name": "RoleGranted",
      "type": "event"
    },
    {
      "anonymous": false,
      "inputs": [
        {
          "indexed": true,
          "internalType": "bytes32",
          "name": "role",
          "type": "bytes32"
        },
        {
          "indexed": true,
          "internalType": "address",
          "name": "account",
          "type": "address"
        },
        {
          "indexed": true,
          "internalType": "address",
          "name": "sender",
          "type": "address"
        }
      ],
      "name": "RoleRevoked",
      "type": "event"
    },
    {
      "anonymous": false,
      "inputs": [
        {
          "indexed": true,
          "internalType": "address",
          "name": "token",
          "type": "address"
        },
        {
          "indexed": true,
          "internalType": "address",
          "name": "creator",
          "type": "address"
        }
      ],
      "name": "TokenCreated",
      "type": "event"
    },
    {
      "anonymous": false,
      "inputs": [
        {
          "indexed": false,
          "internalType": "address",
          "name": "account",
          "type": "address"
        }
      ],
      "name": "Unpaused",
      "type": "event"
    },
    {
      "stateMutability": "payable",
      "type": "fallback"
    },
    {
      "inputs": [],
      "name": "DEFAULT_ADMIN_ROLE",
      "outputs": [
        {
          "internalType": "bytes32",
          "name": "",
          "type": "bytes32"
        }
      ],
      "stateMutability": "view",
      "type": "function"
    },
    {
      "inputs": [],
      "name": "OPERATOR_ROLE",
      "outputs": [
        {
          "internalType": "bytes32",
          "name": "",
          "type": "bytes32"
        }
      ],
      "stateMutability": "view",
      "type": "function"
    },
    {
      "inputs": [],
      "name": "PAUSER_ROLE",
      "outputs": [
        {
          "internalType": "bytes32",
          "name": "",
          "type": "bytes32"
        }
      ],
      "stateMutability": "view",
      "type": "function"
    },
    {
      "inputs": [
        {
          "internalType": "address",
          "name": "router",
          "type": "address"
        },
        {
          "internalType": "address",
          "name": "tokenA",
          "type": "address"
        },
        {
          "internalType": "address",
          "name": "tokenB",
          "type": "address"
        },
        {
          "internalType": "uint256",
          "name": "amtA",
          "type": "uint256"
        },
        {
          "internalType": "uint256",
          "name": "amtB",
          "type": "uint256"
        },
        {
          "internalType": "uint256",
          "name": "minA",
          "type": "uint256"
        },
        {
          "internalType": "uint256",
          "name": "minB",
          "type": "uint256"
        },
        {
          "internalType": "address",
          "name": "to",
          "type": "address"
        },
        {
          "internalType": "uint256",
          "name": "deadline",
          "type": "uint256"
        }
      ],
      "name": "addV2Liquidity",
      "outputs": [],
      "stateMutability": "nonpayable",
      "type": "function"
    },
    {
      "inputs": [],
      "name": "airdropModule",
      "outputs": [
        {
          "internalType": "contract AirdropMerkle",
          "name": "",
          "type": "address"
        }
      ],
      "stateMutability": "view",
      "type": "function"
    },
    {
      "inputs": [
        {
          "internalType": "uint256",
          "name": "",
          "type": "uint256"
        }
      ],
      "name": "allTokens",
      "outputs": [
        {
          "internalType": "address",
          "name": "token",
          "type": "address"
        },
        {
          "internalType": "address",
          "name": "creator",
          "type": "address"
        },
        {
          "internalType": "string",
          "name": "description",
          "type": "string"
        },
        {
          "internalType": "string",
          "name": "ipfsHash",
          "type": "string"
        },
        {
          "internalType": "bool",
          "name": "active",
          "type": "bool"
        }
      ],
      "stateMutability": "view",
      "type": "function"
    },
    {
      "inputs": [],
      "name": "basePrice",
      "outputs": [
        {
          "internalType": "uint256",
          "name": "",
          "type": "uint256"
        }
      ],
      "stateMutability": "view",
      "type": "function"
    },
    {
      "inputs": [],
      "name": "bridgeModule",
      "outputs": [
        {
          "internalType": "contract BridgeAdapter",
          "name": "",
          "type": "address"
        }
      ],
      "stateMutability": "view",
      "type": "function"
    },
    {
      "inputs": [
        {
          "internalType": "string",
          "name": "chain",
          "type": "string"
        },
        {
          "internalType": "string",
          "name": "receiver",
          "type": "string"
        },
        {
          "internalType": "address",
          "name": "token",
          "type": "address"
        },
        {
          "internalType": "uint256",
          "name": "amt",
          "type": "uint256"
        }
      ],
      "name": "bridgeToken",
      "outputs": [],
      "stateMutability": "payable",
      "type": "function"
    },
    {
      "inputs": [
        {
          "internalType": "address",
          "name": "token_",
          "type": "address"
        },
        {
          "internalType": "uint256",
          "name": "amt",
          "type": "uint256"
        },
        {
          "internalType": "uint256",
          "name": "maxAlloc",
          "type": "uint256"
        },
        {
          "internalType": "address",
          "name": "ref",
          "type": "address"
        },
        {
          "internalType": "bytes32[]",
          "name": "proof",
          "type": "bytes32[]"
        }
      ],
      "name": "buyPresale",
      "outputs": [],
      "stateMutability": "payable",
      "type": "function"
    },
    {
      "inputs": [
        {
          "internalType": "address",
          "name": "token_",
          "type": "address"
        },
        {
          "internalType": "uint256",
          "name": "amountAtomic",
          "type": "uint256"
        },
        {
          "internalType": "address",
          "name": "referrer",
          "type": "address"
        }
      ],
      "name": "buyToken",
      "outputs": [],
      "stateMutability": "payable",
      "type": "function"
    },
    {
      "inputs": [
        {
          "internalType": "uint256",
          "name": "minOut",
          "type": "uint256"
        },
        {
          "internalType": "address[]",
          "name": "path",
          "type": "address[]"
        }
      ],
      "name": "buybackAndBurn",
      "outputs": [],
      "stateMutability": "payable",
      "type": "function"
    },
    {
      "inputs": [],
      "name": "buybackModule",
      "outputs": [
        {
          "internalType": "contract BuybackBurn",
          "name": "",
          "type": "address"
        }
      ],
      "stateMutability": "view",
      "type": "function"
    },
    {
      "inputs": [
        {
          "internalType": "uint256",
          "name": "amt",
          "type": "uint256"
        },
        {
          "internalType": "bytes32[]",
          "name": "proof",
          "type": "bytes32[]"
        }
      ],
      "name": "claimAirdrop",
      "outputs": [],
      "stateMutability": "nonpayable",
      "type": "function"
    },
    {
      "inputs": [],
      "name": "claimStakeReward",
      "outputs": [],
      "stateMutability": "nonpayable",
      "type": "function"
    },
    {
      "inputs": [
        {
          "internalType": "address",
          "name": "token0",
          "type": "address"
        },
        {
          "internalType": "address",
          "name": "token1",
          "type": "address"
        },
        {
          "internalType": "uint24",
          "name": "fee",
          "type": "uint24"
        },
        {
          "internalType": "uint160",
          "name": "sqrtPriceX96",
          "type": "uint160"
        }
      ],
      "name": "createAndInitializePoolIfNeeded",
      "outputs": [],
      "stateMutability": "nonpayable",
      "type": "function"
    },
    {
      "inputs": [
        {
          "internalType": "string",
          "name": "name_",
          "type": "string"
        },
        {
          "internalType": "string",
          "name": "symbol_",
          "type": "string"
        },
        {
          "internalType": "string",
          "name": "description_",
          "type": "string"
        },
        {
          "internalType": "uint256",
          "name": "totalSupply_",
          "type": "uint256"
        },
        {
          "internalType": "uint256",
          "name": "",
          "type": "uint256"
        },
        {
          "internalType": "string",
          "name": "ipfsHash_",
          "type": "string"
        }
      ],
      "name": "createMemeCoin",
      "outputs": [
        {
          "internalType": "address",
          "name": "tokenAddr",
          "type": "address"
        }
      ],
      "stateMutability": "nonpayable",
      "type": "function"
    },
    {
      "inputs": [
        {
          "internalType": "address",
          "name": "",
          "type": "address"
        }
      ],
      "name": "creatorFeesAccrued",
      "outputs": [
        {
          "internalType": "uint256",
          "name": "",
          "type": "uint256"
        }
      ],
      "stateMutability": "view",
      "type": "function"
    },
    {
      "inputs": [],
      "name": "currentPrice",
      "outputs": [
        {
          "internalType": "uint256",
          "name": "",
          "type": "uint256"
        }
      ],
      "stateMutability": "view",
      "type": "function"
    },
    {
      "inputs": [
        {
          "internalType": "uint256",
          "name": "tokenId",
          "type": "uint256"
        },
        {
          "internalType": "uint128",
          "name": "liquidity",
          "type": "uint128"
        },
        {
          "internalType": "uint256",
          "name": "amount0Min",
          "type": "uint256"
        },
        {
          "internalType": "uint256",
          "name": "amount1Min",
          "type": "uint256"
        },
        {
          "internalType": "uint256",
          "name": "deadline",
          "type": "uint256"
        }
      ],
      "name": "decreaseAndCollect",
      "outputs": [
        {
          "internalType": "uint256",
          "name": "",
          "type": "uint256"
        },
        {
          "internalType": "uint256",
          "name": "",
          "type": "uint256"
        }
      ],
      "stateMutability": "nonpayable",
      "type": "function"
    },
    {
      "inputs": [
        {
          "internalType": "address",
          "name": "a",
          "type": "address"
        },
        {
          "internalType": "address",
          "name": "b",
          "type": "address"
        }
      ],
      "name": "ensureV2Pair",
      "outputs": [
        {
          "internalType": "address",
          "name": "pair",
          "type": "address"
        }
      ],
      "stateMutability": "nonpayable",
      "type": "function"
    },
    {
      "inputs": [
        {
          "internalType": "address[]",
          "name": "targets",
          "type": "address[]"
        },
        {
          "internalType": "uint256[]",
          "name": "values",
          "type": "uint256[]"
        },
        {
          "internalType": "bytes[]",
          "name": "calld",
          "type": "bytes[]"
        },
        {
          "internalType": "bytes32",
          "name": "descHash",
          "type": "bytes32"
        }
      ],
      "name": "executeProposal",
      "outputs": [],
      "stateMutability": "nonpayable",
      "type": "function"
    },
    {
      "inputs": [
        {
          "internalType": "bytes32",
          "name": "role",
          "type": "bytes32"
        }
      ],
      "name": "getRoleAdmin",
      "outputs": [
        {
          "internalType": "bytes32",
          "name": "",
          "type": "bytes32"
        }
      ],
      "stateMutability": "view",
      "type": "function"
    },
    {
      "inputs": [],
      "name": "govToken",
      "outputs": [
        {
          "internalType": "contract GovernanceToken",
          "name": "",
          "type": "address"
        }
      ],
      "stateMutability": "view",
      "type": "function"
    },
    {
      "inputs": [],
      "name": "governor",
      "outputs": [
        {
          "internalType": "contract GovernorContract",
          "name": "",
          "type": "address"
        }
      ],
      "stateMutability": "view",
      "type": "function"
    },
    {
      "inputs": [
        {
          "internalType": "bytes32",
          "name": "role",
          "type": "bytes32"
        },
        {
          "internalType": "address",
          "name": "account",
          "type": "address"
        }
      ],
      "name": "grantRole",
      "outputs": [],
      "stateMutability": "nonpayable",
      "type": "function"
    },
    {
      "inputs": [
        {
          "internalType": "bytes32",
          "name": "role",
          "type": "bytes32"
        },
        {
          "internalType": "address",
          "name": "account",
          "type": "address"
        }
      ],
      "name": "hasRole",
      "outputs": [
        {
          "internalType": "bool",
          "name": "",
          "type": "bool"
        }
      ],
      "stateMutability": "view",
      "type": "function"
    },
    {
      "inputs": [
        {
          "internalType": "address",
          "name": "forwarder",
          "type": "address"
        }
      ],
      "name": "isTrustedForwarder",
      "outputs": [
        {
          "internalType": "bool",
          "name": "",
          "type": "bool"
        }
      ],
      "stateMutability": "view",
      "type": "function"
    },
    {
      "inputs": [
        {
          "components": [
            {
              "internalType": "address",
              "name": "token0",
              "type": "address"
            },
            {
              "internalType": "address",
              "name": "token1",
              "type": "address"
            },
            {
              "internalType": "uint24",
              "name": "fee",
              "type": "uint24"
            },
            {
              "internalType": "int24",
              "name": "tickLower",
              "type": "int24"
            },
            {
              "internalType": "int24",
              "name": "tickUpper",
              "type": "int24"
            },
            {
              "internalType": "uint256",
              "name": "amount0Desired",
              "type": "uint256"
            },
            {
              "internalType": "uint256",
              "name": "amount1Desired",
              "type": "uint256"
            },
            {
              "internalType": "uint256",
              "name": "amount0Min",
              "type": "uint256"
            },
            {
              "internalType": "uint256",
              "name": "amount1Min",
              "type": "uint256"
            },
            {
              "internalType": "address",
              "name": "recipient",
              "type": "address"
            },
            {
              "internalType": "uint256",
              "name": "deadline",
              "type": "uint256"
            }
          ],
          "internalType": "struct INonfungiblePositionManager.MintParams",
          "name": "params",
          "type": "tuple"
        }
      ],
      "name": "mintV3Position",
      "outputs": [
        {
          "internalType": "uint256",
          "name": "tokenId",
          "type": "uint256"
        },
        {
          "internalType": "uint128",
          "name": "liquidity",
          "type": "uint128"
        },
        {
          "internalType": "uint256",
          "name": "amount0",
          "type": "uint256"
        },
        {
          "internalType": "uint256",
          "name": "amount1",
          "type": "uint256"
        }
      ],
      "stateMutability": "payable",
      "type": "function"
    },
    {
      "inputs": [],
      "name": "pause",
      "outputs": [],
      "stateMutability": "nonpayable",
      "type": "function"
    },
    {
      "inputs": [],
      "name": "paused",
      "outputs": [
        {
          "internalType": "bool",
          "name": "",
          "type": "bool"
        }
      ],
      "stateMutability": "view",
      "type": "function"
    },
    {
      "inputs": [],
      "name": "platformFeeBP",
      "outputs": [
        {
          "internalType": "uint16",
          "name": "",
          "type": "uint16"
        }
      ],
      "stateMutability": "view",
      "type": "function"
    },
    {
      "inputs": [],
      "name": "platformFeesAccrued",
      "outputs": [
        {
          "internalType": "uint256",
          "name": "",
          "type": "uint256"
        }
      ],
      "stateMutability": "view",
      "type": "function"
    },
    {
      "inputs": [],
      "name": "positionManager",
      "outputs": [
        {
          "internalType": "contract INonfungiblePositionManager",
          "name": "",
          "type": "address"
        }
      ],
      "stateMutability": "view",
      "type": "function"
    },
    {
      "inputs": [
        {
          "internalType": "address[]",
          "name": "targets",
          "type": "address[]"
        },
        {
          "internalType": "uint256[]",
          "name": "values",
          "type": "uint256[]"
        },
        {
          "internalType": "bytes[]",
          "name": "calld",
          "type": "bytes[]"
        },
        {
          "internalType": "string",
          "name": "desc",
          "type": "string"
        }
      ],
      "name": "propose",
      "outputs": [
        {
          "internalType": "uint256",
          "name": "",
          "type": "uint256"
        }
      ],
      "stateMutability": "nonpayable",
      "type": "function"
    },
    {
      "inputs": [],
      "name": "referralFeeBP",
      "outputs": [
        {
          "internalType": "uint16",
          "name": "",
          "type": "uint16"
        }
      ],
      "stateMutability": "view",
      "type": "function"
    },
    {
      "inputs": [
        {
          "internalType": "address",
          "name": "router",
          "type": "address"
        },
        {
          "internalType": "address",
          "name": "tokenA",
          "type": "address"
        },
        {
          "internalType": "address",
          "name": "tokenB",
          "type": "address"
        },
        {
          "internalType": "uint256",
          "name": "liquidity",
          "type": "uint256"
        },
        {
          "internalType": "uint256",
          "name": "minA",
          "type": "uint256"
        },
        {
          "internalType": "uint256",
          "name": "minB",
          "type": "uint256"
        },
        {
          "internalType": "address",
          "name": "to",
          "type": "address"
        },
        {
          "internalType": "uint256",
          "name": "deadline",
          "type": "uint256"
        }
      ],
      "name": "removeV2Liquidity",
      "outputs": [],
      "stateMutability": "nonpayable",
      "type": "function"
    },
    {
      "inputs": [
        {
          "internalType": "bytes32",
          "name": "role",
          "type": "bytes32"
        },
        {
          "internalType": "address",
          "name": "account",
          "type": "address"
        }
      ],
      "name": "renounceRole",
      "outputs": [],
      "stateMutability": "nonpayable",
      "type": "function"
    },
    {
      "inputs": [
        {
          "internalType": "bytes32",
          "name": "role",
          "type": "bytes32"
        },
        {
          "internalType": "address",
          "name": "account",
          "type": "address"
        }
      ],
      "name": "revokeRole",
      "outputs": [],
      "stateMutability": "nonpayable",
      "type": "function"
    },
    {
      "inputs": [
        {
          "internalType": "address",
          "name": "a",
          "type": "address"
        }
      ],
      "name": "setAirdropModule",
      "outputs": [],
      "stateMutability": "nonpayable",
      "type": "function"
    },
    {
      "inputs": [
        {
          "internalType": "address",
          "name": "a",
          "type": "address"
        }
      ],
      "name": "setBridgeModule",
      "outputs": [],
      "stateMutability": "nonpayable",
      "type": "function"
    },
    {
      "inputs": [
        {
          "internalType": "address",
          "name": "a",
          "type": "address"
        }
      ],
      "name": "setBuybackModule",
      "outputs": [],
      "stateMutability": "nonpayable",
      "type": "function"
    },
    {
      "inputs": [
        {
          "internalType": "address",
          "name": "gt",
          "type": "address"
        },
        {
          "internalType": "address",
          "name": "gv",
          "type": "address"
        }
      ],
      "name": "setGovernanceModules",
      "outputs": [],
      "stateMutability": "nonpayable",
      "type": "function"
    },
    {
      "inputs": [
        {
          "internalType": "address",
          "name": "a",
          "type": "address"
        }
      ],
      "name": "setPositionManager",
      "outputs": [],
      "stateMutability": "nonpayable",
      "type": "function"
    },
    {
      "inputs": [
        {
          "internalType": "address",
          "name": "a",
          "type": "address"
        }
      ],
      "name": "setStakingModule",
      "outputs": [],
      "stateMutability": "nonpayable",
      "type": "function"
    },
    {
      "inputs": [
        {
          "internalType": "address",
          "name": "a",
          "type": "address"
        }
      ],
      "name": "setV2Factory",
      "outputs": [],
      "stateMutability": "nonpayable",
      "type": "function"
    },
    {
      "inputs": [
        {
          "internalType": "address",
          "name": "a",
          "type": "address"
        }
      ],
      "name": "setV3Helper",
      "outputs": [],
      "stateMutability": "nonpayable",
      "type": "function"
    },
    {
      "inputs": [
        {
          "internalType": "address",
          "name": "a",
          "type": "address"
        }
      ],
      "name": "setWhitelistModule",
      "outputs": [],
      "stateMutability": "nonpayable",
      "type": "function"
    },
    {
      "inputs": [],
      "name": "slope",
      "outputs": [
        {
          "internalType": "uint256",
          "name": "",
          "type": "uint256"
        }
      ],
      "stateMutability": "view",
      "type": "function"
    },
    {
      "inputs": [
        {
          "internalType": "uint256",
          "name": "amountAtomic",
          "type": "uint256"
        }
      ],
      "name": "stakeTokens",
      "outputs": [],
      "stateMutability": "nonpayable",
      "type": "function"
    },
    {
      "inputs": [],
      "name": "stakingModule",
      "outputs": [
        {
          "internalType": "contract StakingRewards",
          "name": "",
          "type": "address"
        }
      ],
      "stateMutability": "view",
      "type": "function"
    },
    {
      "inputs": [
        {
          "internalType": "bytes4",
          "name": "interfaceId",
          "type": "bytes4"
        }
      ],
      "name": "supportsInterface",
      "outputs": [
        {
          "internalType": "bool",
          "name": "",
          "type": "bool"
        }
      ],
      "stateMutability": "view",
      "type": "function"
    },
    {
      "inputs": [
        {
          "internalType": "address",
          "name": "",
          "type": "address"
        }
      ],
      "name": "tokenIndexPlusOne",
      "outputs": [
        {
          "internalType": "uint256",
          "name": "",
          "type": "uint256"
        }
      ],
      "stateMutability": "view",
      "type": "function"
    },
    {
      "inputs": [
        {
          "internalType": "address",
          "name": "",
          "type": "address"
        }
      ],
      "name": "tokenPaused",
      "outputs": [
        {
          "internalType": "bool",
          "name": "",
          "type": "bool"
        }
      ],
      "stateMutability": "view",
      "type": "function"
    },
    {
      "inputs": [],
      "name": "totalSold",
      "outputs": [
        {
          "internalType": "uint256",
          "name": "",
          "type": "uint256"
        }
      ],
      "stateMutability": "view",
      "type": "function"
    },
    {
      "inputs": [],
      "name": "unpause",
      "outputs": [],
      "stateMutability": "nonpayable",
      "type": "function"
    },
    {
      "inputs": [],
      "name": "v2Factory",
      "outputs": [
        {
          "internalType": "contract IUniswapV2Factory",
          "name": "",
          "type": "address"
        }
      ],
      "stateMutability": "view",
      "type": "function"
    },
    {
      "inputs": [],
      "name": "v3Helper",
      "outputs": [
        {
          "internalType": "contract UniswapV3Helper",
          "name": "",
          "type": "address"
        }
      ],
      "stateMutability": "view",
      "type": "function"
    },
    {
      "inputs": [],
      "name": "whitelistModule",
      "outputs": [
        {
          "internalType": "contract WhitelistPresale",
          "name": "",
          "type": "address"
        }
      ],
      "stateMutability": "view",
      "type": "function"
    },
    {
      "inputs": [],
      "name": "withdrawCreatorFees",
      "outputs": [],
      "stateMutability": "nonpayable",
      "type": "function"
    },
    {
      "inputs": [
        {
          "internalType": "uint256",
          "name": "amt",
          "type": "uint256"
        }
      ],
      "name": "withdrawStake",
      "outputs": [],
      "stateMutability": "nonpayable",
      "type": "function"
    },
    {
      "stateMutability": "payable",
      "type": "receive"
    }
  ],
  "bytecode": "0x60e0346200030b57601f6200614b38819003918201601f191683019291906001600160401b0384118385101762000310578160e092849260409687528339810103126200030b57620000518162000326565b90602091620000628383016200033b565b91620000708582016200033b565b9060608101516080820151906200009860c06200009060a0860162000326565b940162000326565b9460805260ff19936001968588541688558760025561ffff80911690808316820190808211620002f55761271091161015620002c35763ffff00006003549260101b169163ffffffff1916171760035560a05260c05260018060a01b0380938160018060a01b0319931683600c541617600c551690600d541617600d55600092838052838552858420338552855260ff86852054161562000283575b7f65d7a28e3265b37a6474929f336521b332c1681b933f6cb9f3376673440d862a808552848652868520338652865260ff87862054161562000241575b507f97667070c54ef182b0f5858b034beac1b6f3089aa2d3188bb1e8929f4fa9b92994858552848152868520338652815260ff878620541615620001fd575b8651615da090816200038b823960805181818161212501526137a4015260a051818181610d66015281816114590152611c2d015260c051818181611432015281816118090152611c950152f35b8585528481528685209033865252858420918254161790556200021f6200034b565b16916000805160206200612b833981519152339280a4388080808080620001b0565b8085528486528685203386528652868520828482541617905583620002656200034b565b169033906000805160206200612b8339815191528780a43862000171565b8380528385528584203385528552858420818382541617905582620002a76200034b565b1633856000805160206200612b8339815191528180a462000134565b895162461bcd60e51b8152600481018a9052600b60248201526a08ccacae6a8dede90d2ced60ab1b6044820152606490fd5b634e487b7160e01b600052601160045260246000fd5b600080fd5b634e487b7160e01b600052604160045260246000fd5b51906001600160a01b03821682036200030b57565b519061ffff821682036200030b57565b6080516001600160a01b03163314806200037e575b156200037a576013193601368111620002f5573560601c90565b3390565b5060143610156200036056fe608080604052600436101562000022575b5036156200001d57600080fd5b600080fd5b600090813560e01c90816301ffc9a71462002bb257508063050cdf661462002b1e57806305268cff1462002af35780630bcae1ac1462002a785780630c340a241462002a4d5780630f0501be14620029b75780631dc1090014620028c057806322163b8614620028a0578063248a9ca3146200287257806325d5971f14620028195780632f2ff15d146200275557806332bb9b2c146200263757806335a62e6814620025fa57806336568abe1462002554578063372c28b41462002340578063392026f014620022a35780633f4ba83a1462002209578063474f07771462002177578063504b82bf146200214c578063572b6c0514620020f75780635760f2e314620020605780635c975abb146200203b578063634282af1462001f8f578063692bf4a81462001b835780636adfdf391462001aeb5780637547c7a31462001a1c578063768c044214620019f15780637882d04214620019c6578063791b98bc146200199b5780637d5e81e2146200182c57806383caf27514620017ef57806383f26f3814620017565780638456cb5914620016e2578063847a267514620015635780638995881d14620015205780638fea31b014620014f55780639106d7ba14620014d557806391d1485414620014865780639d1b464a14620014105780639fd3af8b14620013c0578063a0429de6146200132a578063a12ad0e614620011d0578063a217fddf14620011b2578063a91296931462001187578063b17c72c814620010bb578063b4b57c391462001090578063b60b87811462000ecf578063ba80d4891462000ea4578063c52d441a1462000e5d578063c60b494f1462000dc6578063c748713e1462000d89578063c7876ea41462000d4c578063d547741f1462000d04578063d634b41914620007a3578063d9d0a5be14620006da578063dc4ec9be14620006b3578063ddc43ad41462000451578063e1cd04b414620003a7578063e63ab1e9146200036a578063f5b541a6146200032d5763ff96092a036200001057346200032a57806003193601126200032a57602061ffff60035416604051908152f35b80fd5b50346200032a57806003193601126200032a5760206040517f97667070c54ef182b0f5858b034beac1b6f3089aa2d3188bb1e8929f4fa9b9298152f35b50346200032a57806003193601126200032a5760206040517f65d7a28e3265b37a6474929f336521b332c1681b933f6cb9f3376673440d862a8152f35b50346200032a57806003193601126200032a576001600160a01b0380620003cd620037a1565b16825260056020526040822054908115620004235782808093838294620003f3620037a1565b16835260056020528260408120556200040b620037a1565b1682f115620004175780f35b604051903d90823e3d90fd5b60405162461bcd60e51b81526020600482015260066024820152654e6f4665657360d01b6044820152606490fd5b5080600319608036820112620006b0576001600160401b0390600435828111620006ab5762000485903690600401620030ac565b92602435818111620006a757620004a1903690600401620030ac565b929094620004ae62002c3a565b60115460405163095ea7b360e01b81526001600160a01b03918216600482015260643560248201819052602096909390929190821687826044818f855af19081156200069c576004928d9262000668575b506040516395d89b4160e01b815292839182905afa9283156200065d578b93620005d7575b50506011541694853b15620005d3578997604051998a9889978897635e6d564960e11b89526004890160a0905260a48901906200056192620037fe565b90838883030160248901526200057792620037fe565b908582039081016044870152898252601c016064860152016200059a9162003072565b906084830152039134905af18015620005c857620005b55750f35b620005c09062002cd0565b6200032a5780f35b6040513d84823e3d90fd5b8980fd5b909192503d808c843e620005ec818462002d1c565b82019187818403126200065557805191821162000655570181601f82011215620006595780516200061d8162002e2c565b926200062d604051948562002d1c565b81845288828401011162000655576200064c918880850191016200304d565b90388062000524565b8b80fd5b8a80fd5b6040513d8d823e3d90fd5b6200068c908a3d8c1162000694575b62000683818362002d1c565b810190620038f3565b5038620004ff565b503d62000677565b6040513d8e823e3d90fd5b8580fd5b505050fd5b50fd5b50346200032a57806003193601126200032a57602061ffff60035460101c16604051908152f35b5060a03660031901126200032a57620006f262002c0c565b6064356001600160a01b0381811692918390036200001d5783926084356001600160401b0381116200079f576200072e90369060040162002c66565b93909280600a541691823b156200079b5762000786879560405197889687958695636ce852df60e11b875216600486015260243560248601526044356044860152606485015260a0608485015260a484019162003ad3565b039134905af18015620005c857620005b55750f35b8680fd5b8480fd5b50346200032a5760c03660031901126200032a576004356001600160401b03811162000d0057620007d9903690600401620030ac565b6024929192356001600160401b03811162000cfc57620007fe903690600401620030ac565b91906044356001600160401b0381116200079f5762000822903690600401620030ac565b92909560a4356001600160401b0381116200079b5762000847903690600401620030ac565b939095620008546200381f565b6200085e62003864565b62000868620037a1565b92604051948561201c8101106001600160401b0361201c8801111762000ce85792859492620008b5620008cc93620009009661201c62003d588a3960a061201c8a018181520191620037fe565b9161201c87018303602061201c89010152620037fe565b60643561201c850160408101919091526001600160a01b0390921660608301528181036080909201919091528487620037fe565b039085f092831562000cdd576200096090620009506200091f620037a1565b97604051956200092f8762002ce4565b6001600160a01b038881168852999099166020870190815298369162002e48565b9260408501938452369162002e48565b6060830152600160808301526007546801000000000000000081101562000be05780600162000993920160075562002f22565b95909562000cc957825186546001600160a01b03199081166001600160a01b0392831617885591516001880180549093169116179055518051906001600160401b03821162000be0578190620009ed600288015462002f5e565b601f811162000c74575b50602090601f831160011462000c0057869262000bf4575b50508160011b916000199060031b1c19161760028501555b60608101519384516001600160401b03811162000be05762000a4d600383015462002f5e565b95601f871162000b93575b602096508690601f831160011462000b2157918060809492600494899262000b15575b50508160011b916000199060031b1c19161760038201555b01910151151560ff8019835416911617905560075460018060a01b038216835260088452604083205560018060a01b0362000acd620037a1565b604051939116906001600160a01b038316907fd5f9bdf12adf29dab0248c349842c3822d53ae2bb4f36352f301630d018c81399080a360016002556001600160a01b03168152f35b01519050388062000a7b565b6003840187528787209190601f198416885b81811062000b7b5750926001928592600496608098961062000b61575b505050811b01600382015562000a93565b015160001960f88460031b161c1916905538808062000b50565b92938a60018192878601518155019501930162000b33565b60038301865260208620601f830160051c8101976020841062000bd5575b601f0160051c01965b87811062000bc9575062000a58565b86815560010162000bba565b909750879062000bb1565b634e487b7160e01b85526041600452602485fd5b01519050388062000a0f565b9250600287018652602086209086935b601f198416851062000c58576001945083601f1981161062000c3e575b505050811b01600285015562000a27565b015160001960f88460031b161c1916905538808062000c2d565b8181015183556020948501946001909301929091019062000c10565b90915060028701865260208620601f840160051c81016020851062000cc1575b90849392915b601f830160051c8201811062000cb2575050620009f7565b88815585945060010162000c9a565b508062000c94565b634e487b7160e01b85526004859052602485fd5b6040513d86823e3d90fd5b634e487b7160e01b8a52604160045260248afd5b8280fd5b5080fd5b50346200032a5760403660031901126200032a5762000d4960043562000d2962002c23565b908084528360205262000d43600160408620015462003471565b620035a4565b80f35b50346200032a57806003193601126200032a5760206040517f00000000000000000000000000000000000000000000000000000000000000008152f35b50346200032a5760203660031901126200032a576020906040906001600160a01b0362000db562002c0c565b168152600583522054604051908152f35b50346200032a5760203660031901126200032a577f5a31296b3cecaf3aaa3146a140f6ddf6d21caa95e28243dc507d90d7e883be7960008051602062005d74833981519152602062000e1762002c0c565b62000e21620030dc565b60018060a01b0316806001600160601b0360a01b600e541617600e556d5374616b696e675265776172647360901b60405152604051908152a280f35b50346200032a5760403660031901126200032a57602062000e9262000e8162002c0c565b62000e8b62002c23565b9062003b30565b6040516001600160a01b039091168152f35b50346200032a57806003193601126200032a576013546040516001600160a01b039091168152602090f35b50346200032a5760a03660031901126200032a5760043590602435916001600160801b0380841680940362000cfc5780604060018060a01b039560a487600c54168784519162000f1f8362002ce4565b888352602083019485528583016044358152606084016064358152608085019160843583528851998a988997630624e65f60e11b8952516004890152511660248701525160448601525160648501525160848401525af1801562000cdd576200106d575b5083600c541691604051608081018181106001600160401b038211176200105757604094608493879287528352602083019433865286840181815281606086019181835289519b8c998a9863fc6f786560e01b8a525160048a01525116602488015251166044860152511660648401525af180156200104a57604092829162001014575b5082519182526020820152f35b90506200103b9150823d841162001042575b62001032818362002d1c565b81019062003b19565b3862001007565b503d62001026565b50604051903d90823e3d90fd5b634e487b7160e01b600052604160045260246000fd5b620010899060403d604011620010425762001032818362002d1c565b5062000f83565b50346200032a57806003193601126200032a57600d546040516001600160a01b039091168152602090f35b50346200032a5760803660031901126200032a57620010d962002c0c565b620010e362002c23565b90620010ee62003099565b906001600160a01b0390606435828116919086908390036200032a5760209460849362ffffff86600c541692876040519a8b998a986309f56ab160e11b8a5216600489015216602487015216604485015260648401525af18015620005c85762001156575080f35b6200117b9060203d81116200117f575b62001172818362002d1c565b81019062003af8565b5080f35b503d62001166565b50346200032a57806003193601126200032a576011546040516001600160a01b039091168152602090f35b50346200032a57806003193601126200032a57602090604051908152f35b50346200032a576101003660031901126200032a57620011ef62002c0c565b620011f962002c23565b906200120462002c3a565b91606435916001600160a01b039160c435838116908190036200001d5786908462001230888562003b30565b1693620012408730338862003c37565b60405163095ea7b360e01b81526001600160a01b038216600482015260248101889052946020908690604490829087905af19182156200131f5760409760e4968894620012fc575b508389519a8b998a98635d5155ef60e11b8a521660048901521660248701526044860152608435606486015260a435608486015260a4850152843560c4850152165af18015620005c857620012db575080f35b620012f79060403d604011620010425762001032818362002d1c565b505080f35b620013179060203d8111620006945762000683818362002d1c565b503862001288565b6040513d85823e3d90fd5b50346200032a5760203660031901126200032a577f25009364035bfb2fe48a581c0ce939c5ed5c1dd5c34daf8b6948ea3740d4b2df60008051602062005d7483398151915260206200137b62002c0c565b62001385620030dc565b60018060a01b0316806001600160601b0360a01b60125416176012556c41697264726f704d65726b6c6560981b60405152604051908152a280f35b50346200032a57806003193601126200032a57600e5481906001600160a01b0316803b15620006b057818091600460405180948193631e8c5c8960e11b83525af18015620005c857620005b55750f35b50346200032a57806003193601126200032a5760206200147e620014576006547f000000000000000000000000000000000000000000000000000000000000000062003631565b7f00000000000000000000000000000000000000000000000000000000000000006200365b565b604051908152f35b50346200032a5760403660031901126200032a576040620014a662002c23565b91600435815280602052209060018060a01b0316600052602052602060ff604060002054166040519015158152f35b50346200032a57806003193601126200032a576020600654604051908152f35b50346200032a57806003193601126200032a57600a546040516001600160a01b039091168152602090f35b50346200032a5760203660031901126200032a5760209060ff906040906001600160a01b036200154f62002c0c565b168152600984522054166040519015158152f35b506101603660031901126200032a57600c54604051634418b22b60e11b8152906001600160a01b03908116816200159962002c0c565b16600484015281620015aa62002c23565b16602484015262ffffff620015be62003099565b1660448401526064358060020b8091036200001d5760648401526084358060020b8091036200001d57608484015260a43560a484015260c43560c484015260e43560e48401526101048035908401526101249182359081168091036200001d578380926101649260809583015261014480359083015234905af18015620005c8578291838091819362001671575b50506001600160801b0360809460405194855216602084015260408301526060820152f35b9350935050506080813d8211620016d9575b81620016926080938362002d1c565b8101031262000d00578051906020810151916001600160801b0383168303620016d557604082015160609092015192935091906001600160801b0360806200164c565b8380fd5b3d915062001683565b50346200032a57806003193601126200032a57620016ff62003302565b620017096200381f565b600160ff19815416176001557f62e78cea01bee320cd4e420270b5ea74000d11b0c9f74754ebdbfc544b05a258602062001742620037a1565b6040516001600160a01b039091168152a180f35b50346200032a5760203660031901126200032a577f3be8db72f80e4180e6ddff48717a4157a6b0f211136ee52b65023eed452e410d60008051602062005d748339815191526020620017a762002c0c565b620017b1620030dc565b60018060a01b0316806001600160601b0360a01b600a541617600a556f57686974656c69737450726573616c6560801b60405152604051908152a280f35b50346200032a57806003193601126200032a5760206040517f00000000000000000000000000000000000000000000000000000000000000008152f35b50346200032a5760031960803682011262000d00576001600160401b03600435818111620016d5576200186490369060040162002d56565b6024358281116200079f576200187f90369060040162002dc6565b92604435838111620006a7576200189b90369060040162002e84565b92606435908111620006a75736602382011215620006a75785620019249695936200194560209694620018dd6200191395369060248160040135910162002e48565b6200193560018060a01b0360105416976040519c8d9a8b998a98633eaf40f160e11b8a52608060048b015260848a019062003c82565b90868983030160248a015262003cc1565b908487830301604488015262003cf7565b9184830301606485015262003072565b03925af190811562000417579062001963575b602090604051908152f35b506020813d821162001992575b816200197f6020938362002d1c565b810103126200001d576020905162001958565b3d915062001970565b50346200032a57806003193601126200032a57600c546040516001600160a01b039091168152602090f35b50346200032a57806003193601126200032a57600b546040516001600160a01b039091168152602090f35b50346200032a57806003193601126200032a576012546040516001600160a01b039091168152602090f35b50346200032a5760203660031901126200032a5760043562001a40811515620038b9565b6007541562001ad5578190600760005260018060a01b0362001a9682827fa66cc928b5edb82af9bd49922954155ab7b0942694bea4ce44661d9a8736c688541662001a8a620037a1565b84600e54169162003c37565b600e541690813b1562001ad157829160248392604051948593849263534a7e1d60e11b845260048401525af18015620005c857620005b55750f35b5050fd5b634e487b7160e01b600052603260045260246000fd5b50346200032a5760203660031901126200032a577f2c6b157c4827ce000c1811cc1d974ee35c8be1e04bdd1903576fec37f88ad70560008051602062005d74833981519152602062001b3c62002c0c565b62001b46620030dc565b60018060a01b0316806001600160601b0360a01b600b541617600b556e2ab734b9bbb0b82b19a432b63832b960891b60405152604051908152a280f35b5060603660031901126200032a5762001b9b62002c0c565b90602491823562001bab62002c3a565b9062001bb66200381f565b62001bc062003864565b62001bcd811515620038b9565b6001600160a01b0392831680855260096020908152604086205490929060ff1662001f5d57818652600883526040862054938415158062001f23575b1562001ef257670de0b6b3a764000080830662001eae578204956006549162001c537f00000000000000000000000000000000000000000000000000000000000000008962003631565b9762001c60818562003631565b60001999828b019183831162001e9b5762001c9362001cba9162001c8962001cc1958762003631565b60011c906200365b565b7f000000000000000000000000000000000000000000000000000000000000000062003631565b906200365b565b9384340362001e68579062001cd6916200365b565b6006556003549661271061ffff98848262001cf48c84168962003631565b049416998a1560001462001e505750505089985b62001d2d62001d238b62001d1d868962003793565b62003793565b936004546200365b565b600455810190811162001e3d579162001dec8a9b6040959362001d8f878e86600162001d7b7fbf77fd13a39d14dc0da779342c14105c38d9a5d0c60f2caa22f5fd1d5525416d9d9b62002f22565b50015416815260058d52209182546200365b565b905562001de58962001dd68762001da5620037a1565b8a5163a9059cbb60e01b948101949094526001600160a01b0316948301948552602085015290928391604090910190565b03601f19810183528262002d1c565b876200390d565b62001df6620037a1565b16958351928352820152a38115801562001e14575b83600160025580f35b839283928392839062001e33575bf11562000417578038808062001e0b565b506108fc62001e22565b634e487b7160e01b8a5260116004528a8afd5b62001e609160101c168662003631565b049862001d08565b60405162461bcd60e51b815260048101899052600c818e01526b092dcc6dee4e4cac6e88aa8960a31b6044820152606490fd5b634e487b7160e01b8d5260116004528d8dfd5b60405162461bcd60e51b8152600481018690526018818b01527f4e6f6e2d696e746567657220746f6b656e20616d6f756e7400000000000000006044820152606490fd5b60405162461bcd60e51b815260048101859052600a818a0152694e6f74466f7253616c6560b01b6044820152606490fd5b50600019850185811162001f4a57600462001f4060ff9262002f22565b5001541662001c09565b634e487b7160e01b885260116004528888fd5b60405162461bcd60e51b815260048101849052600b818901526a151bdad95b94185d5cd95960aa1b6044820152606490fd5b50346200032a5760203660031901126200032a5760043560075481101562000d005762001fbc9062002f22565b50805460018201546001600160a01b03908116929116906200202f62001fe56002830162002f9b565b916200202060ff600462001ffc6003850162002f9b565b93015416936040519687968752602087015260a0604087015260a086019062003072565b90848203606086015262003072565b90151560808301520390f35b50346200032a57806003193601126200032a57602060ff600154166040519015158152f35b50346200032a5760203660031901126200032a577ebc5c4f1504c55f3a73056b292d2d3722673d8a05aa5386b1fec45f9f47f0de60008051602062005d748339815191526020620020b062002c0c565b620020ba620030dc565b60018060a01b0316806001600160601b0360a01b600c541617600c556e2837b9b4ba34b7b726b0b730b3b2b960891b60405152604051908152a280f35b50346200032a5760203660031901126200032a5760206200211762002c0c565b6040519060018060a01b03807f0000000000000000000000000000000000000000000000000000000000000000169116148152f35b50346200032a57806003193601126200032a57600e546040516001600160a01b039091168152602090f35b50346200032a5760203660031901126200032a577f7e85a138e2e866caafbe5c353d8d4c10515f743882c8b9345a9d053ce198959060008051602062005d748339815191526020620021c862002c0c565b620021d2620030dc565b60018060a01b0316806001600160601b0360a01b600d541617600d55685632466163746f727960b81b60405152604051908152a280f35b50346200032a57806003193601126200032a576200222662003302565b60015460ff811615620022675760ff19166001557f5db9ee0a495bf2e6ff9c91a7834c1ba4fdd244a5e8aa4e537bd38aeae4b073aa602062001742620037a1565b60405162461bcd60e51b815260206004820152601460248201527314185d5cd8589b194e881b9bdd081c185d5cd95960621b6044820152606490fd5b50620022af3662002c99565b6013546001600160a01b039081169493929190853b156200079f579080604051946312580cf560e21b865260448601906004870152604060248701525260648401929185905b82821062002319578680878181808a0381348f5af18015620005c857620005b55750f35b90919293600190826200232c8762002c51565b1681526020908101950193920190620022f5565b50346200032a576101203660031901126200032a576200235f62002c0c565b6200236962002c23565b906200237462002c3a565b916064359160e4356001600160a01b03811681036200001d5762002399858462003b30565b50620023b18430336001600160a01b03871662003c37565b620023ca60843530336001600160a01b03891662003c37565b60405163095ea7b360e01b81526001600160a01b038316600482015260248101859052602081806044810103818a6001600160a01b0389165af18015620025255762002530575b5060405163095ea7b360e01b81526001600160a01b0383166004820152608435602482015293602085806044810103818a6001600160a01b038b165af1948515620025255760609562002501575b5060405162e8e33760e81b81526001600160a01b0394851660048201529584166024870152604486015260848035606487015260a480359187019190915260c480359187019190915290831690850152610104803560e48601528492909183918791165af18015620005c857620024d4575080f35b606090813d8111620024f9575b620024ed818362002d1c565b810103126200032a5780f35b503d620024e1565b6200251d9060203d602011620006945762000683818362002d1c565b50386200245f565b6040513d89823e3d90fd5b6200254c9060203d602011620006945762000683818362002d1c565b503862002411565b50346200032a5760403660031901126200032a576200257262002c23565b6001600160a01b038062002585620037a1565b16908216036200259d5762000d4990600435620035a4565b60405162461bcd60e51b815260206004820152602f60248201527f416363657373436f6e74726f6c3a2063616e206f6e6c792072656e6f756e636560448201526e103937b632b9903337b91039b2b63360891b6064820152608490fd5b50346200032a5760203660031901126200032a576020906040906001600160a01b036200262662002c0c565b168152600883522054604051908152f35b50346200032a5780600319608036820112620006b0576001600160401b03600435818111620006ab576200267090369060040162002d56565b916024358281116200079f576200268c90369060040162002dc6565b916044359081116200079f57620026fc946020946200270c620026b8620026eb94369060040162002e84565b9460018060a01b036010541695604051998a9889978896632656227d60e01b885260806004890152608488019062003c82565b908487830301602488015262003cc1565b9184830301604485015262003cf7565b606435606483015203925af18015620005c85762002728575080f35b602090813d81116200274d575b62002741818362002d1c565b810103126200001d5780f35b503d62002735565b50346200032a5760403660031901126200032a576004356200277662002c23565b818352826020526200278f600160408520015462003471565b81835282602052604083209060018060a01b03809116918260005260205260ff6040600020541615620027c0578380f35b8284528360205260408420826000526020526040600020600160ff19825416179055620027ec620037a1565b16917f2f8788117e7eff1d82e926ec794901d17c78024a50270940304540a733656f0d8480a43880808380f35b50346200032a5760203660031901126200032a57600e5481906001600160a01b0316803b15620006b057818091602460405180948193632e1a7d4d60e01b835260043560048401525af18015620005c857620005b55750f35b50346200032a5760203660031901126200032a57600160406020926004358152808452200154604051908152f35b50346200032a57806003193601126200032a576020600454604051908152f35b50346200032a5760403660031901126200032a577f29841c193453d99e6bdfe2e861d737ca00299f11003cd23e5a2f944a659dd1036020806200290262002c0c565b7f52cc2123c5b8e3f056be8fd12b06d49cf9c7228fdef9974c01d8865a59efc4f46200292d62002c23565b9162002938620030dc565b60018060a01b03809116906001600160601b0360a01b938285600f541617600f5516809360105416176010556e23b7bb32b93730b731b2aa37b5b2b760891b6040515260405190815260008051602062005d74833981519152948591a26f11dbdd995c9b9bdc90dbdb9d1c9858dd60821b60405152604051908152a280f35b50346200032a5760203660031901126200032a577f716f6a289e8d46de6c40e7ca13c6dcc456cfb9e8776e637b6a36858489a21bb060008051602062005d74833981519152602062002a0862002c0c565b62002a12620030dc565b60018060a01b0316806001600160601b0360a01b60115416176011556c213934b233b2a0b230b83a32b960991b60405152604051908152a280f35b50346200032a57806003193601126200032a576010546040516001600160a01b039091168152602090f35b50346200032a578062002a8b3662002c99565b6012549293926001600160a01b031690813b15620016d5578362002ad49560405196879586948593632f52ebb760e01b8552600485015260406024850152604484019162003ad3565b03925af18015620005c85762002ae8575080f35b62000d499062002cd0565b50346200032a57806003193601126200032a57600f546040516001600160a01b039091168152602090f35b50346200032a5760203660031901126200032a577f6d6989b5cb420dbe39b6f3b2c9106595fd086c0d1a5b513c4806254b6164064660008051602062005d74833981519152602062002b6f62002c0c565b62002b79620030dc565b60018060a01b0316806001600160601b0360a01b60135416176013556a213abcb130b1b5a13ab93760a91b60405152604051908152a280f35b90503462000d0057602036600319011262000d005760043563ffffffff60e01b811680910362000cfc5760209250637965db0b60e01b811490811562002bfa575b5015158152f35b6301ffc9a760e01b1490503862002bf3565b600435906001600160a01b03821682036200001d57565b602435906001600160a01b03821682036200001d57565b604435906001600160a01b03821682036200001d57565b35906001600160a01b03821682036200001d57565b9181601f840112156200001d578235916001600160401b0383116200001d576020808501948460051b0101116200001d57565b9060406003198301126200001d5760043591602435906001600160401b0382116200001d5762002ccc9160040162002c66565b9091565b6001600160401b0381116200105757604052565b60a081019081106001600160401b038211176200105757604052565b608081019081106001600160401b038211176200105757604052565b90601f801991011681019081106001600160401b038211176200105757604052565b6001600160401b038111620010575760051b60200190565b81601f820112156200001d5780359162002d708362002d3e565b9262002d80604051948562002d1c565b808452602092838086019260051b8201019283116200001d578301905b82821062002dac575050505090565b83809162002dba8462002c51565b81520191019062002d9d565b81601f820112156200001d5780359162002de08362002d3e565b9262002df0604051948562002d1c565b808452602092838086019260051b8201019283116200001d578301905b82821062002e1c575050505090565b8135815290830190830162002e0d565b6001600160401b0381116200105757601f01601f191660200190565b92919262002e568262002e2c565b9162002e66604051938462002d1c565b8294818452818301116200001d578281602093846000960137010152565b81601f820112156200001d5780359062002e9e8262002d3e565b9260409262002eb08451958662002d1c565b808552602093848087019260051b850101938385116200001d57858101925b85841062002ee1575050505050505090565b83356001600160401b0381116200001d57820185603f820112156200001d57879162002f168783878680960135910162002e48565b81520193019262002ecf565b60075481101562001ad5576005906007600052027fa66cc928b5edb82af9bd49922954155ab7b0942694bea4ce44661d9a8736c6880190600090565b90600182811c9216801562002f90575b602083101462002f7a57565b634e487b7160e01b600052602260045260246000fd5b91607f169162002f6e565b906040519182600082549262002fb18462002f5e565b90818452600194858116908160001462003028575060011462002fe1575b505062002fdf9250038362002d1c565b565b9093915060005260209081600020936000915b8183106200300f57505062002fdf9350820101388062002fcf565b8554888401850152948501948794509183019162002ff4565b91505062002fdf94506020925060ff191682840152151560051b820101388062002fcf565b60005b838110620030615750506000910152565b818101518382015260200162003050565b906020916200308d815180928185528580860191016200304d565b601f01601f1916010190565b6044359062ffffff821682036200001d57565b9181601f840112156200001d578235916001600160401b0383116200001d57602083818601950101116200001d57565b620030e6620037a1565b6001600160a01b031660008181527fad3228b676f7d3cd4284a5443f17f1962b36e491b30a40b2405849e597ba5fb5602090815260408083205490939192919060ff1615620031355750505050565b62003140906200367b565b9080845190620031508262002d00565b60428252848201926060368537825115620032ee5760308453825190600191821015620032ee5790607860218501536041915b8183116200327b575050506200323957604862003235938693620032189362003208985198899376020b1b1b2b9b9a1b7b73a3937b61d1030b1b1b7bab73a1604d1b8a860152620031de815180928c6037890191016200304d565b8401917001034b99036b4b9b9b4b733903937b6329607d1b6037840152518093868401906200304d565b0103602881018752018562002d1c565b5192839262461bcd60e51b84526004840152602483019062003072565b0390fd5b60648486519062461bcd60e51b825280600483015260248201527f537472696e67733a20686578206c656e67746820696e73756666696369656e746044820152fd5b909192600f81166010811015620032da576f181899199a1a9b1b9c1cb0b131b232b360811b901a620032ae858762003669565b5360041c928015620032c65760001901919062003183565b634e487b7160e01b82526011600452602482fd5b634e487b7160e01b83526032600452602483fd5b634e487b7160e01b81526032600452602490fd5b6200330c620037a1565b6001600160a01b031660008181527ff7c9542c591017a21c74b6f3fab6263c7952fc0aaf9db4c22a2a04ddc7f8674f6020908152604080832054909391927f65d7a28e3265b37a6474929f336521b332c1681b933f6cb9f3376673440d862a92909160ff16156200337e575050505050565b62003389906200367b565b91845190620033988262002d00565b60428252848201926060368537825115620032ee5760308453825190600191821015620032ee5790607860218501536041915b81831162003426575050506200323957604862003235938693620032189362003208985198899376020b1b1b2b9b9a1b7b73a3937b61d1030b1b1b7bab73a1604d1b8a860152620031de815180928c6037890191016200304d565b909192600f81166010811015620032da576f181899199a1a9b1b9c1cb0b131b232b360811b901a62003459858762003669565b5360041c928015620032c657600019019190620033cb565b6200347b620037a1565b906000908082526020918083526040938482209060018060a01b031690818352845260ff858320541615620034b1575050505050565b620034bc906200367b565b91845190620034cb8262002d00565b60428252848201926060368537825115620032ee5760308453825190600191821015620032ee5790607860218501536041915b81831162003559575050506200323957604862003235938693620032189362003208985198899376020b1b1b2b9b9a1b7b73a3937b61d1030b1b1b7bab73a1604d1b8a860152620031de815180928c6037890191016200304d565b909192600f81166010811015620032da576f181899199a1a9b1b9c1cb0b131b232b360811b901a6200358c858762003669565b5360041c928015620032c657600019019190620034fe565b6000818152602081815260408083206001600160a01b039586168085529252822054919390929160ff16620035da575b50505050565b7ff6391f5c32d9c69d2a47ea670b442974b53935d1edc7fd64eb21e047a839171b9082855284602052604085208486526020526040852060ff19815416905562003623620037a1565b169380a438808080620035d4565b818102929181159184041417156200364557565b634e487b7160e01b600052601160045260246000fd5b919082018092116200364557565b90815181101562001ad5570160200190565b60405190606082018281106001600160401b038211176200105757604052602a825260208201604036823782511562001ad55760309053815160019081101562001ad557607860218401536029905b80821162003720575050620036dc5790565b606460405162461bcd60e51b815260206004820152602060248201527f537472696e67733a20686578206c656e67746820696e73756666696369656e746044820152fd5b9091600f811660108110156200377e576f181899199a1a9b1b9c1cb0b131b232b360811b901a62003752848662003669565b5360041c91801562003769576000190190620036ca565b60246000634e487b7160e01b81526011600452fd5b60246000634e487b7160e01b81526032600452fd5b919082039182116200364557565b337f00000000000000000000000000000000000000000000000000000000000000006001600160a01b03161480620037f2575b15620037ee57601319360136811162003645573560601c90565b3390565b506014361015620037d4565b908060209392818452848401376000828201840152601f01601f1916010190565b60ff600154166200382c57565b60405162461bcd60e51b815260206004820152601060248201526f14185d5cd8589b194e881c185d5cd95960821b6044820152606490fd5b6002805414620038745760028055565b60405162461bcd60e51b815260206004820152601f60248201527f5265656e7472616e637947756172643a207265656e7472616e742063616c6c006044820152606490fd5b15620038c157565b60405162461bcd60e51b815260206004820152600a60248201526916995c9bd05b5bdd5b9d60b21b6044820152606490fd5b908160209103126200001d575180151581036200001d5790565b60408051908101916001600160a01b03166001600160401b038311828410176200105757620039a3926040526000806020958685527f5361666545524332303a206c6f772d6c6576656c2063616c6c206661696c656487860152868151910182855af13d1562003a30573d91620039848362002e2c565b9262003994604051948562002d1c565b83523d60008785013e62003a34565b80519082821592831562003a15575b50505015620039be5750565b6084906040519062461bcd60e51b82526004820152602a60248201527f5361666545524332303a204552433230206f7065726174696f6e20646964206e6044820152691bdd081cdd58d8d9595960b21b6064820152fd5b62003a279350820181019101620038f3565b388281620039b2565b6060915b9192901562003a99575081511562003a4a575090565b3b1562003a545790565b60405162461bcd60e51b815260206004820152601d60248201527f416464726573733a2063616c6c20746f206e6f6e2d636f6e74726163740000006044820152606490fd5b82519091501562003aad5750805190602001fd5b60405162461bcd60e51b8152602060048201529081906200323590602483019062003072565b81835290916001600160fb1b0383116200001d5760209260051b809284830137010190565b908160209103126200001d57516001600160a01b03811681036200001d5790565b91908260409103126200001d576020825192015190565b600d5460405163e6a4390560e01b81526001600160a01b03838116600483015284811660248301529294909390926020928116908386604481855afa95861562003c075760009662003c13575b5085161562003b8f575b505050909150565b6040516364e329cb60e11b81526001600160a01b03968716600482015291909516602482015291939092508290829060449082906000905af191821562003c075760009262003be5575b50508138808062003b87565b62003bff9250803d106200117f5762001172818362002d1c565b388062003bd9565b6040513d6000823e3d90fd5b62003c2f919650843d86116200117f5762001172818362002d1c565b943862003b7d565b6040516323b872dd60e01b60208201526001600160a01b03928316602482015292909116604483015260648083019390935291815262002fdf9162003c7c8262002ce4565b6200390d565b90815180825260208080930193019160005b82811062003ca3575050505090565b83516001600160a01b03168552938101939281019260010162003c94565b90815180825260208080930193019160005b82811062003ce2575050505090565b83518552938101939281019260010162003cd3565b908082519081815260208091019281808460051b8301019501936000915b84831062003d265750505050505090565b909192939495848062003d46600193601f198682030187528a5162003072565b980193019301919493929062003d1556fe6101608060405234620007cd576200201c8038038091620000218285620007d2565b8339810160a082820312620007cd5781516001600160401b038111620007cd57816200004f9184016200081b565b60208301519092906001600160401b038111620007cd5782620000749183016200081b565b60408201516060830151939092906001600160a01b0385168503620007cd5760808201516001600160401b038111620007cd57620000b392016200081b565b604080519195919081016001600160401b03811182821017620005605760405260018152603160f81b602082015281516001600160401b0381116200056057600354600181811c91168015620007c2575b60208210146200053f57601f81116200075c575b50806020601f8211600114620006d257600091620006c6575b508160011b916000199060031b1c1916176003555b82516001600160401b0381116200056057600454600181811c91168015620006bb575b60208210146200053f57601f811162000651575b50806020601f8211600114620005c757600091620005bb575b508160011b916000199060031b1c1916176004555b620001b682620008bf565b61012052620001c58162000a64565b6101405281516020830120908160e0526020815191012080610100524660a052604051917f8b73c3c69bb8fe3d512ecc4cf759cc79239f7b179b0ffacaa9a75d522b39400f6020840152604083015260608201524660808201523060a082015260a081528060c081011060018060401b0360c083011117620005605760c08101604052805160208201206080523060c052620002613362000876565b6001600160a01b03851615620005a7575060039051109081156200059a575b5062000588578015620005765782516001600160401b0381116200056057600a54600181811c9116801562000555575b60208210146200053f57601f8111620004e6575b506020601f82116001146200046d578192939460009262000461575b50508160011b916000199060031b1c191617600a555b33156200041c576002548181018091116200040657600255336000526000602052604060002081815401905560405190815260007fddf252ad1be2c89b69c2b068fc378daa952ba7f163c4a11628f55a4df523b3ef60203393a3600954336001600160a01b0390911603620003c257620003709062000876565b604051611440908162000bbc82396080518161118b015260a05181611257015260c05181611155015260e051816111da01526101005181611200015261012051816106a8015261014051816106d20152f35b606460405162461bcd60e51b815260206004820152602060248201527f4f776e61626c653a2063616c6c6572206973206e6f7420746865206f776e65726044820152fd5b634e487b7160e01b600052601160045260246000fd5b60405162461bcd60e51b815260206004820152601f60248201527f45524332303a206d696e7420746f20746865207a65726f2061646472657373006044820152606490fd5b015190503880620002e0565b600a600090815260008051602062001ffc8339815191529190601f198416905b818110620004cd57509583600195969710620004b3575b505050811b01600a55620002f6565b015160001960f88460031b161c19169055388080620004a4565b9192602060018192868b0151815501940192016200048d565b600a60005260008051602062001ffc833981519152601f830160051c8101916020841062000534575b601f0160051c01905b818110620005275750620002c4565b6000815560010162000518565b90915081906200050f565b634e487b7160e01b600052602260045260246000fd5b90607f1690620002b0565b634e487b7160e01b600052604160045260246000fd5b60405163c16f3a9360e01b8152600490fd5b604051639432241960e01b8152600490fd5b6003915051103862000280565b60c060049163d92e233d60e01b8282015201fd5b90508401513862000196565b6004600090815292507f8a35acfbc15ff81a39ae7d344fd709f28e8600b4aa8c65c6b64bfe7fe36bd19b905b601f198316841062000638576001935082601f198116106200061e575b5050811b01600455620001ab565b86015160001960f88460031b161c19169055388062000610565b86810151825560209384019360019092019101620005f3565b60046000527f8a35acfbc15ff81a39ae7d344fd709f28e8600b4aa8c65c6b64bfe7fe36bd19b601f830160051c81019160208410620006b0575b601f0160051c01905b818110620006a357506200017d565b6000815560010162000694565b90915081906200068b565b90607f169062000169565b90508301513862000131565b6003600090815292507fc2575a0e9e593c00f959f8c92f12db2869c3395a3b0502d05e2516446f71f85b905b601f198316841062000743576001935082601f1981161062000729575b5050811b0160035562000146565b85015160001960f88460031b161c1916905538806200071b565b85810151825560209384019360019092019101620006fe565b60036000527fc2575a0e9e593c00f959f8c92f12db2869c3395a3b0502d05e2516446f71f85b601f830160051c810160208410620007ba575b601f830160051c82018110620007ad57505062000118565b6000815560010162000795565b508062000795565b90607f169062000104565b600080fd5b601f909101601f19168101906001600160401b038211908210176200056057604052565b60005b8381106200080a5750506000910152565b8181015183820152602001620007f9565b81601f82011215620007cd5780516001600160401b03811162000560576040519262000852601f8301601f191660200185620007d2565b81845260208284010111620007cd57620008739160208085019101620007f6565b90565b600980546001600160a01b039283166001600160a01b0319821681179092559091167f8be0079c531659141344cd1fd0a4f28419497f9722a3daafe3b4186f6b6457e0600080a3565b805160209190828110156200093f575090601f825111620008fd5780825192015190808310620008ee57501790565b82600019910360031b1b161790565b604490620009319260405193849263305a27a960e01b845280600485015282519283918260248701528686019101620007f6565b601f01601f19168101030190fd5b6001600160401b03811162000560576005928354926001938481811c9116801562000a59575b838210146200053f57601f811162000a22575b5081601f8411600114620009b85750928293918392600094620009ac575b50501b916000199060031b1c191617905560ff90565b01519250388062000996565b919083601f1981168760005284600020946000905b8883831062000a075750505010620009ed575b505050811b01905560ff90565b015160001960f88460031b161c19169055388080620009e0565b858701518855909601959485019487935090810190620009cd565b8560005284601f846000209201871c820191601f8601881c015b82811062000a4c57505062000978565b6000815501859062000a3c565b90607f169062000965565b80516020908181101562000a915750601f825111620008fd5780825192015190808310620008ee57501790565b906001600160401b0382116200056057600654926001938481811c9116801562000bb0575b838210146200053f57601f811162000b76575b5081601f841160011462000b0a575092829391839260009462000afe575b50501b916000199060031b1c19161760065560ff90565b01519250388062000ae7565b919083601f198116600660005284600020946000905b8883831062000b5b575050501062000b41575b505050811b0160065560ff90565b015160001960f88460031b161c1916905538808062000b33565b85870151885590960195948501948793509081019062000b20565b600660005284601f84600020920160051c820191601f860160051c015b82811062000ba357505062000ac9565b6000815501859062000b93565b90607f169062000ab656fe6080604081815260048036101561001557600080fd5b600092833560e01c90816306fdde0314610b3a57508063095ea7b314610b1057806318160ddd14610af157806323b872dd14610a27578063313ce56714610a0b5780633644e515146109e757806339509351146109805780633c130d901461087a57806370a0823114610843578063715018a6146107e65780637ecebe00146107ae57806384b0196e146106915780638da5cb5b1461066857806395d89b4114610594578063a457c2d7146104ed578063a9059cbb146104bc578063c623674f146103d3578063d505accf1461021a578063dd62ed3e146101cd5763f2fde38b146100ff57600080fd5b346101c95760203660031901126101c957610118610c22565b90610121610ce1565b6001600160a01b03918216928315610177575050600954826bffffffffffffffffffffffff60a01b821617600955167f8be0079c531659141344cd1fd0a4f28419497f9722a3daafe3b4186f6b6457e08380a380f35b906020608492519162461bcd60e51b8352820152602660248201527f4f776e61626c653a206e6577206f776e657220697320746865207a65726f206160448201526564647265737360d01b6064820152fd5b8280fd5b505034610216578060031936011261021657806020926101eb610c22565b6101f3610c3d565b6001600160a01b0391821683526001865283832091168252845220549051908152f35b5080fd5b508290346102165760e036600319011261021657610236610c22565b61023e610c3d565b906044359260643560843560ff811681036103cf5781421161038c5760018060a01b0390818516928389526007602052898920908154916001830190558a519060208201927f6e71edae12b1b97f4d1f60370fef10105fa2faae0126114a169c64845d6126c98452868d840152858a1660608401528a608084015260a083015260c082015260c0815260e0810181811067ffffffffffffffff821117610379578b5251902061032191610319916102f3611152565b908c519161190160f01b83526002830152602282015260c43591604260a43592206110c3565b919091610fa9565b16036103365750610333939450610ea7565b80f35b606490602087519162461bcd60e51b8352820152601e60248201527f45524332305065726d69743a20696e76616c6964207369676e617475726500006044820152fd5b634e487b7160e01b8b526041875260248bfd5b875162461bcd60e51b8152602081850152601d60248201527f45524332305065726d69743a206578706972656420646561646c696e650000006044820152606490fd5b8680fd5b50503461021657816003193601126102165780519082600a546103f581610c53565b808552916001918083169081156104945750600114610437575b50505061042182610433940383610cbf565b51918291602083526020830190610be2565b0390f35b9450600a85527fc65a7bb8d6351c1cf70c95a316cc6a92839c986682d98bc35f958f4883f9d2a85b82861061047c57505050610421826020610433958201019461040f565b8054602087870181019190915290950194810161045f565b61043397508693506020925061042194915060ff191682840152151560051b8201019461040f565b5050346102165780600319360112610216576020906104e66104dc610c22565b6024359033610d39565b5160018152f35b508234610591578260031936011261059157610507610c22565b918360243592338152600160205281812060018060a01b0386168252602052205490828210610540576020856104e68585038733610ea7565b608490602086519162461bcd60e51b8352820152602560248201527f45524332303a2064656372656173656420616c6c6f77616e63652062656c6f77604482015264207a65726f60d81b6064820152fd5b80fd5b5090346101c957826003193601126101c957805191838154906105b682610c53565b8086529260019280841690811561063d57506001146105e1575b6104338686610421828b0383610cbf565b815294507f8a35acfbc15ff81a39ae7d344fd709f28e8600b4aa8c65c6b64bfe7fe36bd19b5b828610610625575050506104218260206104339582010194386105d0565b80546020878701810191909152909501948101610607565b905061043397508693506020925061042194915060ff191682840152151560051b82010194386105d0565b50503461021657816003193601126102165760095490516001600160a01b039091168152602090f35b5090346101c957826003193601126101c9576106cc7f000000000000000000000000000000000000000000000000000000000000000061127d565b926106f67f0000000000000000000000000000000000000000000000000000000000000000611379565b908251926020928385019585871067ffffffffffffffff88111761079b57509280610751838896610744998b9996528686528151998a99600f60f81b8b5260e0868c015260e08b0190610be2565b91898303908a0152610be2565b924660608801523060808801528460a088015286840360c088015251928381520193925b82811061078457505050500390f35b835185528695509381019392810192600101610775565b634e487b7160e01b845260419052602483fd5b5050346102165760203660031901126102165760209181906001600160a01b036107d6610c22565b1681526007845220549051908152f35b83346105915780600319360112610591576107ff610ce1565b600980546001600160a01b0319811690915581906001600160a01b03167f8be0079c531659141344cd1fd0a4f28419497f9722a3daafe3b4186f6b6457e08280a380f35b5050346102165760203660031901126102165760209181906001600160a01b0361086b610c22565b16815280845220549051908152f35b8284346105915780600319360112610591578151918260209266697066733a2f2f60c81b8483015280600a54906108b082610c53565b9160019081811690811561095557506001146108f0575b50505061043392916108e19103601f198101865285610cbf565b51928284938452830190610be2565b8695949350600a82527fc65a7bb8d6351c1cf70c95a316cc6a92839c986682d98bc35f958f4883f9d2a85b83831061093c575093945091925082016027019050816108e16104336108c7565b80546027848b010152879689955090920191810161091b565b90506108e1945060279250610433969593915060ff19168284015280151502820101918193946108c7565b50913461059157816003193601126105915761099a610c22565b338252600160209081528383206001600160a01b03831684529052828220546024358101929083106109d4576020846104e6858533610ea7565b634e487b7160e01b815260118552602490fd5b505034610216578160031936011261021657602090610a04611152565b9051908152f35b5050346102165781600319360112610216576020905160128152f35b5082903461021657606036600319011261021657610a43610c22565b610a4b610c3d565b91846044359460018060a01b038416815260016020528181203382526020522054906000198203610a85575b6020866104e6878787610d39565b848210610aae5750918391610aa3602096956104e695033383610ea7565b919394819350610a77565b606490602087519162461bcd60e51b8352820152601d60248201527f45524332303a20696e73756666696369656e7420616c6c6f77616e63650000006044820152fd5b5050346102165781600319360112610216576020906002549051908152f35b5050346102165780600319360112610216576020906104e6610b30610c22565b6024359033610ea7565b849084346101c957826003193601126101c95782600354610b5a81610c53565b808552916001918083169081156104945750600114610b855750505061042182610433940383610cbf565b9450600385527fc2575a0e9e593c00f959f8c92f12db2869c3395a3b0502d05e2516446f71f85b5b828610610bca57505050610421826020610433958201019461040f565b80546020878701810191909152909501948101610bad565b919082519283825260005b848110610c0e575050826000602080949584010152601f8019910116010190565b602081830181015184830182015201610bed565b600435906001600160a01b0382168203610c3857565b600080fd5b602435906001600160a01b0382168203610c3857565b90600182811c92168015610c83575b6020831014610c6d57565b634e487b7160e01b600052602260045260246000fd5b91607f1691610c62565b6040810190811067ffffffffffffffff821117610ca957604052565b634e487b7160e01b600052604160045260246000fd5b90601f8019910116810190811067ffffffffffffffff821117610ca957604052565b6009546001600160a01b03163303610cf557565b606460405162461bcd60e51b815260206004820152602060248201527f4f776e61626c653a2063616c6c6572206973206e6f7420746865206f776e65726044820152fd5b6001600160a01b03908116918215610e545716918215610e0357600082815280602052604081205491808310610daf57604082827fddf252ad1be2c89b69c2b068fc378daa952ba7f163c4a11628f55a4df523b3ef958760209652828652038282205586815220818154019055604051908152a3565b60405162461bcd60e51b815260206004820152602660248201527f45524332303a207472616e7366657220616d6f756e7420657863656564732062604482015265616c616e636560d01b6064820152608490fd5b60405162461bcd60e51b815260206004820152602360248201527f45524332303a207472616e7366657220746f20746865207a65726f206164647260448201526265737360e81b6064820152608490fd5b60405162461bcd60e51b815260206004820152602560248201527f45524332303a207472616e736665722066726f6d20746865207a65726f206164604482015264647265737360d81b6064820152608490fd5b6001600160a01b03908116918215610f585716918215610f085760207f8c5be1e5ebec7d5bd14f71427d1e84f3dd0314c0f7b2291e5b200ac8c7c3b925918360005260018252604060002085600052825280604060002055604051908152a3565b60405162461bcd60e51b815260206004820152602260248201527f45524332303a20617070726f766520746f20746865207a65726f206164647265604482015261737360f01b6064820152608490fd5b60405162461bcd60e51b8152602060048201526024808201527f45524332303a20617070726f76652066726f6d20746865207a65726f206164646044820152637265737360e01b6064820152608490fd5b60058110156110ad5780610fba5750565b600181036110075760405162461bcd60e51b815260206004820152601860248201527f45434453413a20696e76616c6964207369676e617475726500000000000000006044820152606490fd5b600281036110545760405162461bcd60e51b815260206004820152601f60248201527f45434453413a20696e76616c6964207369676e6174757265206c656e677468006044820152606490fd5b60031461105d57565b60405162461bcd60e51b815260206004820152602260248201527f45434453413a20696e76616c6964207369676e6174757265202773272076616c604482015261756560f01b6064820152608490fd5b634e487b7160e01b600052602160045260246000fd5b9291907f7fffffffffffffffffffffffffffffff5d576e7357a4501ddfe92f46681b20a083116111465791608094939160ff602094604051948552168484015260408301526060820152600093849182805260015afa156111395781516001600160a01b03811615611133579190565b50600190565b50604051903d90823e3d90fd5b50505050600090600390565b307f00000000000000000000000000000000000000000000000000000000000000006001600160a01b03161480611254575b156111ad577f000000000000000000000000000000000000000000000000000000000000000090565b60405160208101907f8b73c3c69bb8fe3d512ecc4cf759cc79239f7b179b0ffacaa9a75d522b39400f82527f000000000000000000000000000000000000000000000000000000000000000060408201527f000000000000000000000000000000000000000000000000000000000000000060608201524660808201523060a082015260a0815260c0810181811067ffffffffffffffff821117610ca95760405251902090565b507f00000000000000000000000000000000000000000000000000000000000000004614611184565b60ff81146112bb5760ff811690601f82116112a9576040519161129f83610c8d565b8252602082015290565b604051632cd44ac360e21b8152600490fd5b506040516005548160006112ce83610c53565b8083529260019081811690811561135757506001146112f8575b506112f592500382610cbf565b90565b6005600090815291507f036b6384b5eca791c62761152d0c79bb0604c104a5fb6f4eb0703f3154bb3db05b84831061133c57506112f59350508101602001386112e8565b81935090816020925483858901015201910190918492611323565b9050602092506112f594915060ff191682840152151560051b820101386112e8565b60ff811461139b5760ff811690601f82116112a9576040519161129f83610c8d565b506040516006548160006113ae83610c53565b8083529260019081811690811561135757506001146113d457506112f592500382610cbf565b6006600090815291507ff652222313e28459528d920b65115c16c04f3efc82aaedc97be59f3f377c0d3f5b84831061141857506112f59350508101602001386112e8565b819350908160209254838589010152019101909184926113ff56fea164736f6c6343000814000ac65a7bb8d6351c1cf70c95a316cc6a92839c986682d98bc35f958f4883f9d2a8ebcfeb887c9fe4eaee3b330008d80b3d2c92a4fd53a9ba188170c974e31278e8a164736f6c6343000814000a2f8788117e7eff1d82e926ec794901d17c78024a50270940304540a733656f0d",
  "linkReferences": {},
  "deployedLinkReferences": {}
}