{
  "_format": "hh-sol-artifact-1",
  "contractName": "MemeCoinFactory",
  "sourceName": "contracts/MemeCoinFactory.sol",
  "abi": [
    {
      "inputs": [
        {
          "internalType": "uint16",
          "name": "_platformFeeBP",
          "type": "uint16"
        },
        {
          "internalType": "uint16",
          "name": "_referralFeeBP",
          "type": "uint16"
        },
        {
          "internalType": "address",
          "name": "_v2Factory",
          "type": "address"
        },
        {
          "internalType": "address",
          "name": "_router",
          "type": "address"
        }
      ],
      "stateMutability": "nonpayable",
      "type": "constructor"
    },
    {
      "anonymous": false,
      "inputs": [
        {
          "indexed": false,
          "internalType": "string",
          "name": "uri",
          "type": "string"
        }
      ],
      "name": "AuditReportUpdated",
      "type": "event"
    },
    {
      "anonymous": false,
      "inputs": [
        {
          "indexed": true,
          "internalType": "address",
          "name": "token",
          "type": "address"
        },
        {
          "indexed": true,
          "internalType": "address",
          "name": "buyer",
          "type": "address"
        },
        {
          "indexed": false,
          "internalType": "uint256",
          "name": "amount",
          "type": "uint256"
        },
        {
          "indexed": false,
          "internalType": "uint256",
          "name": "cost",
          "type": "uint256"
        }
      ],
      "name": "Bought",
      "type": "event"
    },
    {
      "anonymous": false,
      "inputs": [
        {
          "indexed": true,
          "internalType": "address",
          "name": "token",
          "type": "address"
        },
        {
          "indexed": true,
          "internalType": "address",
          "name": "buyer",
          "type": "address"
        },
        {
          "indexed": false,
          "internalType": "uint256",
          "name": "amountAtomic",
          "type": "uint256"
        },
        {
          "indexed": false,
          "internalType": "uint256",
          "name": "cost",
          "type": "uint256"
        },
        {
          "indexed": false,
          "internalType": "bytes32",
          "name": "referralCode",
          "type": "bytes32"
        }
      ],
      "name": "BuyExecuted",
      "type": "event"
    },
    {
      "anonymous": false,
      "inputs": [
        {
          "indexed": true,
          "internalType": "address",
          "name": "token",
          "type": "address"
        },
        {
          "indexed": true,
          "internalType": "address",
          "name": "payer",
          "type": "address"
        },
        {
          "indexed": false,
          "internalType": "uint256",
          "name": "platformFee",
          "type": "uint256"
        },
        {
          "indexed": false,
          "internalType": "uint256",
          "name": "creatorFee",
          "type": "uint256"
        },
        {
          "indexed": false,
          "internalType": "uint256",
          "name": "referralFee",
          "type": "uint256"
        }
      ],
      "name": "FeeDistributed",
      "type": "event"
    },
    {
      "anonymous": false,
      "inputs": [
        {
          "indexed": true,
          "internalType": "address",
          "name": "token",
          "type": "address"
        },
        {
          "indexed": false,
          "internalType": "uint256",
          "name": "nextPrice",
          "type": "uint256"
        },
        {
          "indexed": false,
          "internalType": "uint256",
          "name": "timestamp",
          "type": "uint256"
        }
      ],
      "name": "NextPrice",
      "type": "event"
    },
    {
      "anonymous": false,
      "inputs": [
        {
          "indexed": false,
          "internalType": "address",
          "name": "account",
          "type": "address"
        }
      ],
      "name": "Paused",
      "type": "event"
    },
    {
      "anonymous": false,
      "inputs": [
        {
          "indexed": true,
          "internalType": "address",
          "name": "token",
          "type": "address"
        },
        {
          "indexed": true,
          "internalType": "address",
          "name": "pair",
          "type": "address"
        }
      ],
      "name": "PoolCreated",
      "type": "event"
    },
    {
      "anonymous": false,
      "inputs": [
        {
          "indexed": true,
          "internalType": "address",
          "name": "token",
          "type": "address"
        },
        {
          "indexed": true,
          "internalType": "address",
          "name": "buyer",
          "type": "address"
        },
        {
          "indexed": false,
          "internalType": "uint256",
          "name": "amount",
          "type": "uint256"
        },
        {
          "indexed": false,
          "internalType": "uint256",
          "name": "cost",
          "type": "uint256"
        },
        {
          "indexed": false,
          "internalType": "address",
          "name": "referrer",
          "type": "address"
        }
      ],
      "name": "PresalePurchased",
      "type": "event"
    },
    {
      "anonymous": false,
      "inputs": [
        {
          "indexed": false,
          "internalType": "bytes32",
          "name": "code",
          "type": "bytes32"
        },
        {
          "indexed": true,
          "internalType": "address",
          "name": "creator",
          "type": "address"
        }
      ],
      "name": "ReferralCodeRegistered",
      "type": "event"
    },
    {
      "anonymous": false,
      "inputs": [
        {
          "indexed": true,
          "internalType": "bytes32",
          "name": "role",
          "type": "bytes32"
        },
        {
          "indexed": true,
          "internalType": "bytes32",
          "name": "previousAdminRole",
          "type": "bytes32"
        },
        {
          "indexed": true,
          "internalType": "bytes32",
          "name": "newAdminRole",
          "type": "bytes32"
        }
      ],
      "name": "RoleAdminChanged",
      "type": "event"
    },
    {
      "anonymous": false,
      "inputs": [
        {
          "indexed": true,
          "internalType": "bytes32",
          "name": "role",
          "type": "bytes32"
        },
        {
          "indexed": true,
          "internalType": "address",
          "name": "account",
          "type": "address"
        },
        {
          "indexed": true,
          "internalType": "address",
          "name": "sender",
          "type": "address"
        }
      ],
      "name": "RoleGranted",
      "type": "event"
    },
    {
      "anonymous": false,
      "inputs": [
        {
          "indexed": true,
          "internalType": "bytes32",
          "name": "role",
          "type": "bytes32"
        },
        {
          "indexed": true,
          "internalType": "address",
          "name": "account",
          "type": "address"
        },
        {
          "indexed": true,
          "internalType": "address",
          "name": "sender",
          "type": "address"
        }
      ],
      "name": "RoleRevoked",
      "type": "event"
    },
    {
      "anonymous": false,
      "inputs": [
        {
          "indexed": true,
          "internalType": "address",
          "name": "token",
          "type": "address"
        },
        {
          "indexed": true,
          "internalType": "address",
          "name": "seller",
          "type": "address"
        },
        {
          "indexed": false,
          "internalType": "uint256",
          "name": "amount",
          "type": "uint256"
        },
        {
          "indexed": false,
          "internalType": "uint256",
          "name": "refund",
          "type": "uint256"
        }
      ],
      "name": "Sold",
      "type": "event"
    },
    {
      "anonymous": false,
      "inputs": [
        {
          "indexed": true,
          "internalType": "address",
          "name": "token",
          "type": "address"
        },
        {
          "indexed": true,
          "internalType": "address",
          "name": "creator",
          "type": "address"
        }
      ],
      "name": "TokenCreated",
      "type": "event"
    },
    {
      "anonymous": false,
      "inputs": [
        {
          "indexed": false,
          "internalType": "address",
          "name": "account",
          "type": "address"
        }
      ],
      "name": "Unpaused",
      "type": "event"
    },
    {
      "anonymous": false,
      "inputs": [
        {
          "indexed": true,
          "internalType": "address",
          "name": "token",
          "type": "address"
        },
        {
          "indexed": true,
          "internalType": "address",
          "name": "user",
          "type": "address"
        },
        {
          "indexed": false,
          "internalType": "uint256",
          "name": "amount",
          "type": "uint256"
        }
      ],
      "name": "VaultClaimed",
      "type": "event"
    },
    {
      "anonymous": false,
      "inputs": [
        {
          "indexed": true,
          "internalType": "address",
          "name": "token",
          "type": "address"
        },
        {
          "indexed": true,
          "internalType": "address",
          "name": "user",
          "type": "address"
        },
        {
          "indexed": false,
          "internalType": "uint256",
          "name": "amount",
          "type": "uint256"
        }
      ],
      "name": "VaultDeposited",
      "type": "event"
    },
    {
      "anonymous": false,
      "inputs": [
        {
          "indexed": true,
          "internalType": "address",
          "name": "token",
          "type": "address"
        },
        {
          "indexed": false,
          "internalType": "uint256",
          "name": "timestamp",
          "type": "uint256"
        }
      ],
      "name": "VaultReleasedManual",
      "type": "event"
    },
    {
      "anonymous": false,
      "inputs": [
        {
          "indexed": true,
          "internalType": "address",
          "name": "token",
          "type": "address"
        },
        {
          "indexed": false,
          "internalType": "address",
          "name": "vestingContract",
          "type": "address"
        }
      ],
      "name": "VestingCreated",
      "type": "event"
    },
    {
      "stateMutability": "payable",
      "type": "fallback"
    },
    {
      "inputs": [],
      "name": "DEFAULT_ADMIN_ROLE",
      "outputs": [
        {
          "internalType": "bytes32",
          "name": "",
          "type": "bytes32"
        }
      ],
      "stateMutability": "view",
      "type": "function"
    },
    {
      "inputs": [],
      "name": "OPERATOR_ROLE",
      "outputs": [
        {
          "internalType": "bytes32",
          "name": "",
          "type": "bytes32"
        }
      ],
      "stateMutability": "view",
      "type": "function"
    },
    {
      "inputs": [],
      "name": "PAUSER_ROLE",
      "outputs": [
        {
          "internalType": "bytes32",
          "name": "",
          "type": "bytes32"
        }
      ],
      "stateMutability": "view",
      "type": "function"
    },
    {
      "inputs": [],
      "name": "POOL_CREATION_FEE",
      "outputs": [
        {
          "internalType": "uint256",
          "name": "",
          "type": "uint256"
        }
      ],
      "stateMutability": "view",
      "type": "function"
    },
    {
      "inputs": [],
      "name": "WETH",
      "outputs": [
        {
          "internalType": "address",
          "name": "",
          "type": "address"
        }
      ],
      "stateMutability": "view",
      "type": "function"
    },
    {
      "inputs": [],
      "name": "airdropModule",
      "outputs": [
        {
          "internalType": "contract AirdropMerkle",
          "name": "",
          "type": "address"
        }
      ],
      "stateMutability": "view",
      "type": "function"
    },
    {
      "inputs": [
        {
          "internalType": "uint256",
          "name": "",
          "type": "uint256"
        }
      ],
      "name": "allTokens",
      "outputs": [
        {
          "internalType": "address",
          "name": "token",
          "type": "address"
        },
        {
          "internalType": "address",
          "name": "creator",
          "type": "address"
        },
        {
          "internalType": "enum MemeCoinFactory.LaunchMode",
          "name": "launchMode",
          "type": "uint8"
        },
        {
          "internalType": "uint256",
          "name": "preMintCap",
          "type": "uint256"
        },
        {
          "internalType": "bool",
          "name": "active",
          "type": "bool"
        },
        {
          "internalType": "uint256",
          "name": "vaultEnd",
          "type": "uint256"
        }
      ],
      "stateMutability": "view",
      "type": "function"
    },
    {
      "inputs": [],
      "name": "auditReportURI",
      "outputs": [
        {
          "internalType": "string",
          "name": "",
          "type": "string"
        }
      ],
      "stateMutability": "view",
      "type": "function"
    },
    {
      "inputs": [
        {
          "internalType": "address",
          "name": "t",
          "type": "address"
        },
        {
          "internalType": "uint256",
          "name": "a",
          "type": "uint256"
        },
        {
          "internalType": "uint256",
          "name": "",
          "type": "uint256"
        },
        {
          "internalType": "address",
          "name": "r",
          "type": "address"
        },
        {
          "internalType": "bytes32[]",
          "name": "p",
          "type": "bytes32[]"
        }
      ],
      "name": "buyPresale",
      "outputs": [],
      "stateMutability": "payable",
      "type": "function"
    },
    {
      "inputs": [
        {
          "internalType": "address",
          "name": "token_",
          "type": "address"
        },
        {
          "internalType": "uint256",
          "name": "amountAtomic",
          "type": "uint256"
        },
        {
          "internalType": "bytes32",
          "name": "referralCode",
          "type": "bytes32"
        },
        {
          "internalType": "uint256",
          "name": "minCost",
          "type": "uint256"
        }
      ],
      "name": "buyToken",
      "outputs": [],
      "stateMutability": "payable",
      "type": "function"
    },
    {
      "inputs": [
        {
          "internalType": "uint256",
          "name": "a",
          "type": "uint256"
        },
        {
          "internalType": "bytes32[]",
          "name": "p",
          "type": "bytes32[]"
        }
      ],
      "name": "claimAirdrop",
      "outputs": [],
      "stateMutability": "nonpayable",
      "type": "function"
    },
    {
      "inputs": [],
      "name": "claimStakeReward",
      "outputs": [],
      "stateMutability": "nonpayable",
      "type": "function"
    },
    {
      "inputs": [
        {
          "internalType": "address",
          "name": "token_",
          "type": "address"
        }
      ],
      "name": "claimVault",
      "outputs": [],
      "stateMutability": "nonpayable",
      "type": "function"
    },
    {
      "inputs": [
        {
          "internalType": "address",
          "name": "token_",
          "type": "address"
        },
        {
          "internalType": "uint256",
          "name": "amountAtomic",
          "type": "uint256"
        }
      ],
      "name": "costToBuy",
      "outputs": [
        {
          "internalType": "uint256",
          "name": "",
          "type": "uint256"
        }
      ],
      "stateMutability": "view",
      "type": "function"
    },
    {
      "inputs": [
        {
          "internalType": "string",
          "name": "name_",
          "type": "string"
        },
        {
          "internalType": "string",
          "name": "symbol_",
          "type": "string"
        },
        {
          "internalType": "enum MemeCoinFactory.LaunchMode",
          "name": "launchMode_",
          "type": "uint8"
        },
        {
          "internalType": "uint256",
          "name": "preMintCap_",
          "type": "uint256"
        },
        {
          "internalType": "enum MemeCoinFactory.CurveType",
          "name": "curveType_",
          "type": "uint8"
        },
        {
          "internalType": "uint256",
          "name": "basePrice_",
          "type": "uint256"
        },
        {
          "internalType": "uint256",
          "name": "slope_",
          "type": "uint256"
        },
        {
          "internalType": "uint256",
          "name": "exponent_",
          "type": "uint256"
        },
        {
          "internalType": "uint256",
          "name": "stepSize_",
          "type": "uint256"
        },
        {
          "internalType": "uint256",
          "name": "fundingGoal_",
          "type": "uint256"
        },
        {
          "internalType": "uint16",
          "name": "startFeeBP_",
          "type": "uint16"
        },
        {
          "internalType": "uint16",
          "name": "endFeeBP_",
          "type": "uint16"
        },
        {
          "internalType": "uint256",
          "name": "feeChangeStart_",
          "type": "uint256"
        },
        {
          "internalType": "uint256",
          "name": "feeChangeEnd_",
          "type": "uint256"
        },
        {
          "internalType": "uint256",
          "name": "vaultEnd_",
          "type": "uint256"
        },
        {
          "internalType": "uint256",
          "name": "vestAmount_",
          "type": "uint256"
        },
        {
          "internalType": "uint256",
          "name": "vestStart_",
          "type": "uint256"
        },
        {
          "internalType": "uint256",
          "name": "vestDuration_",
          "type": "uint256"
        },
        {
          "internalType": "uint256",
          "name": "totalSupply_",
          "type": "uint256"
        },
        {
          "internalType": "string",
          "name": "ipfsHash_",
          "type": "string"
        }
      ],
      "name": "createMemeCoin",
      "outputs": [
        {
          "internalType": "address",
          "name": "tokenAddr",
          "type": "address"
        }
      ],
      "stateMutability": "nonpayable",
      "type": "function"
    },
    {
      "inputs": [
        {
          "internalType": "address",
          "name": "a",
          "type": "address"
        },
        {
          "internalType": "address",
          "name": "b",
          "type": "address"
        }
      ],
      "name": "createV2Pool",
      "outputs": [
        {
          "internalType": "address",
          "name": "pair",
          "type": "address"
        }
      ],
      "stateMutability": "payable",
      "type": "function"
    },
    {
      "inputs": [
        {
          "internalType": "address",
          "name": "",
          "type": "address"
        }
      ],
      "name": "creatorFeesAccrued",
      "outputs": [
        {
          "internalType": "uint256",
          "name": "",
          "type": "uint256"
        }
      ],
      "stateMutability": "view",
      "type": "function"
    },
    {
      "inputs": [
        {
          "internalType": "address",
          "name": "token_",
          "type": "address"
        }
      ],
      "name": "currentPrice",
      "outputs": [
        {
          "internalType": "uint256",
          "name": "",
          "type": "uint256"
        }
      ],
      "stateMutability": "view",
      "type": "function"
    },
    {
      "inputs": [
        {
          "internalType": "address",
          "name": "",
          "type": "address"
        }
      ],
      "name": "curves",
      "outputs": [
        {
          "internalType": "enum MemeCoinFactory.CurveType",
          "name": "curveType",
          "type": "uint8"
        },
        {
          "internalType": "uint256",
          "name": "basePrice",
          "type": "uint256"
        },
        {
          "internalType": "uint256",
          "name": "slope",
          "type": "uint256"
        },
        {
          "internalType": "uint256",
          "name": "exponent",
          "type": "uint256"
        },
        {
          "internalType": "uint256",
          "name": "stepSize",
          "type": "uint256"
        },
        {
          "internalType": "uint256",
          "name": "totalSold",
          "type": "uint256"
        },
        {
          "internalType": "uint256",
          "name": "fundingGoal",
          "type": "uint256"
        },
        {
          "internalType": "bool",
          "name": "poolCreated",
          "type": "bool"
        },
        {
          "internalType": "uint16",
          "name": "startFeeBP",
          "type": "uint16"
        },
        {
          "internalType": "uint16",
          "name": "endFeeBP",
          "type": "uint16"
        },
        {
          "internalType": "uint256",
          "name": "feeChangeStart",
          "type": "uint256"
        },
        {
          "internalType": "uint256",
          "name": "feeChangeEnd",
          "type": "uint256"
        }
      ],
      "stateMutability": "view",
      "type": "function"
    },
    {
      "inputs": [
        {
          "internalType": "address",
          "name": "token_",
          "type": "address"
        }
      ],
      "name": "depositVault",
      "outputs": [],
      "stateMutability": "payable",
      "type": "function"
    },
    {
      "inputs": [
        {
          "internalType": "bytes32",
          "name": "role",
          "type": "bytes32"
        }
      ],
      "name": "getRoleAdmin",
      "outputs": [
        {
          "internalType": "bytes32",
          "name": "",
          "type": "bytes32"
        }
      ],
      "stateMutability": "view",
      "type": "function"
    },
    {
      "inputs": [
        {
          "internalType": "bytes32",
          "name": "role",
          "type": "bytes32"
        },
        {
          "internalType": "address",
          "name": "account",
          "type": "address"
        }
      ],
      "name": "grantRole",
      "outputs": [],
      "stateMutability": "nonpayable",
      "type": "function"
    },
    {
      "inputs": [
        {
          "internalType": "bytes32",
          "name": "role",
          "type": "bytes32"
        },
        {
          "internalType": "address",
          "name": "account",
          "type": "address"
        }
      ],
      "name": "hasRole",
      "outputs": [
        {
          "internalType": "bool",
          "name": "",
          "type": "bool"
        }
      ],
      "stateMutability": "view",
      "type": "function"
    },
    {
      "inputs": [],
      "name": "pause",
      "outputs": [],
      "stateMutability": "nonpayable",
      "type": "function"
    },
    {
      "inputs": [],
      "name": "paused",
      "outputs": [
        {
          "internalType": "bool",
          "name": "",
          "type": "bool"
        }
      ],
      "stateMutability": "view",
      "type": "function"
    },
    {
      "inputs": [],
      "name": "platformFeeBP",
      "outputs": [
        {
          "internalType": "uint16",
          "name": "",
          "type": "uint16"
        }
      ],
      "stateMutability": "view",
      "type": "function"
    },
    {
      "inputs": [],
      "name": "platformFeesAccrued",
      "outputs": [
        {
          "internalType": "uint256",
          "name": "",
          "type": "uint256"
        }
      ],
      "stateMutability": "view",
      "type": "function"
    },
    {
      "inputs": [
        {
          "internalType": "bytes32",
          "name": "",
          "type": "bytes32"
        }
      ],
      "name": "referralCodes",
      "outputs": [
        {
          "internalType": "address",
          "name": "",
          "type": "address"
        }
      ],
      "stateMutability": "view",
      "type": "function"
    },
    {
      "inputs": [],
      "name": "referralFeeBP",
      "outputs": [
        {
          "internalType": "uint16",
          "name": "",
          "type": "uint16"
        }
      ],
      "stateMutability": "view",
      "type": "function"
    },
    {
      "inputs": [
        {
          "internalType": "bytes32",
          "name": "code",
          "type": "bytes32"
        }
      ],
      "name": "registerReferralCode",
      "outputs": [],
      "stateMutability": "nonpayable",
      "type": "function"
    },
    {
      "inputs": [
        {
          "internalType": "address",
          "name": "token_",
          "type": "address"
        }
      ],
      "name": "releaseVault",
      "outputs": [],
      "stateMutability": "nonpayable",
      "type": "function"
    },
    {
      "inputs": [
        {
          "internalType": "bytes32",
          "name": "role",
          "type": "bytes32"
        },
        {
          "internalType": "address",
          "name": "account",
          "type": "address"
        }
      ],
      "name": "renounceRole",
      "outputs": [],
      "stateMutability": "nonpayable",
      "type": "function"
    },
    {
      "inputs": [
        {
          "internalType": "bytes32",
          "name": "role",
          "type": "bytes32"
        },
        {
          "internalType": "address",
          "name": "account",
          "type": "address"
        }
      ],
      "name": "revokeRole",
      "outputs": [],
      "stateMutability": "nonpayable",
      "type": "function"
    },
    {
      "inputs": [],
      "name": "router",
      "outputs": [
        {
          "internalType": "contract IUniswapV2Router02",
          "name": "",
          "type": "address"
        }
      ],
      "stateMutability": "view",
      "type": "function"
    },
    {
      "inputs": [
        {
          "internalType": "address",
          "name": "token_",
          "type": "address"
        },
        {
          "internalType": "uint256",
          "name": "amountAtomic",
          "type": "uint256"
        },
        {
          "internalType": "uint256",
          "name": "minRefund",
          "type": "uint256"
        }
      ],
      "name": "sellToken",
      "outputs": [],
      "stateMutability": "nonpayable",
      "type": "function"
    },
    {
      "inputs": [
        {
          "internalType": "address",
          "name": "a",
          "type": "address"
        }
      ],
      "name": "setAirdropModule",
      "outputs": [],
      "stateMutability": "nonpayable",
      "type": "function"
    },
    {
      "inputs": [
        {
          "internalType": "address",
          "name": "a",
          "type": "address"
        }
      ],
      "name": "setStakingModule",
      "outputs": [],
      "stateMutability": "nonpayable",
      "type": "function"
    },
    {
      "inputs": [
        {
          "internalType": "address",
          "name": "a",
          "type": "address"
        }
      ],
      "name": "setWhitelistModule",
      "outputs": [],
      "stateMutability": "nonpayable",
      "type": "function"
    },
    {
      "inputs": [
        {
          "internalType": "uint256",
          "name": "amt",
          "type": "uint256"
        }
      ],
      "name": "stakeTokens",
      "outputs": [],
      "stateMutability": "nonpayable",
      "type": "function"
    },
    {
      "inputs": [],
      "name": "stakingModule",
      "outputs": [
        {
          "internalType": "contract StakingRewards",
          "name": "",
          "type": "address"
        }
      ],
      "stateMutability": "view",
      "type": "function"
    },
    {
      "inputs": [
        {
          "internalType": "bytes4",
          "name": "interfaceId",
          "type": "bytes4"
        }
      ],
      "name": "supportsInterface",
      "outputs": [
        {
          "internalType": "bool",
          "name": "",
          "type": "bool"
        }
      ],
      "stateMutability": "view",
      "type": "function"
    },
    {
      "inputs": [
        {
          "internalType": "address",
          "name": "",
          "type": "address"
        }
      ],
      "name": "tokenIndexPlusOne",
      "outputs": [
        {
          "internalType": "uint256",
          "name": "",
          "type": "uint256"
        }
      ],
      "stateMutability": "view",
      "type": "function"
    },
    {
      "inputs": [],
      "name": "unpause",
      "outputs": [],
      "stateMutability": "nonpayable",
      "type": "function"
    },
    {
      "inputs": [
        {
          "internalType": "string",
          "name": "uri",
          "type": "string"
        }
      ],
      "name": "updateAuditReport",
      "outputs": [],
      "stateMutability": "nonpayable",
      "type": "function"
    },
    {
      "inputs": [],
      "name": "v2Factory",
      "outputs": [
        {
          "internalType": "contract IUniswapV2Factory",
          "name": "",
          "type": "address"
        }
      ],
      "stateMutability": "view",
      "type": "function"
    },
    {
      "inputs": [
        {
          "internalType": "address",
          "name": "",
          "type": "address"
        },
        {
          "internalType": "address",
          "name": "",
          "type": "address"
        }
      ],
      "name": "vaultDeposits",
      "outputs": [
        {
          "internalType": "uint256",
          "name": "",
          "type": "uint256"
        }
      ],
      "stateMutability": "view",
      "type": "function"
    },
    {
      "inputs": [
        {
          "internalType": "address",
          "name": "",
          "type": "address"
        }
      ],
      "name": "vaultReleased",
      "outputs": [
        {
          "internalType": "bool",
          "name": "",
          "type": "bool"
        }
      ],
      "stateMutability": "view",
      "type": "function"
    },
    {
      "inputs": [
        {
          "internalType": "address",
          "name": "",
          "type": "address"
        }
      ],
      "name": "vaultTotal",
      "outputs": [
        {
          "internalType": "uint256",
          "name": "",
          "type": "uint256"
        }
      ],
      "stateMutability": "view",
      "type": "function"
    },
    {
      "inputs": [],
      "name": "whitelistModule",
      "outputs": [
        {
          "internalType": "contract WhitelistPresale",
          "name": "",
          "type": "address"
        }
      ],
      "stateMutability": "view",
      "type": "function"
    },
    {
      "inputs": [],
      "name": "withdrawCreatorFees",
      "outputs": [],
      "stateMutability": "nonpayable",
      "type": "function"
    },
    {
      "inputs": [
        {
          "internalType": "address",
          "name": "to",
          "type": "address"
        }
      ],
      "name": "withdrawPlatformFees",
      "outputs": [],
      "stateMutability": "nonpayable",
      "type": "function"
    },
    {
      "inputs": [
        {
          "internalType": "uint256",
          "name": "amt",
          "type": "uint256"
        }
      ],
      "name": "withdrawStake",
      "outputs": [],
      "stateMutability": "nonpayable",
      "type": "function"
    },
    {
      "stateMutability": "payable",
      "type": "receive"
    }
  ],
  "bytecode": "0x6080604090808252346200030d57608081620070ff803803809162000025828562000312565b8339810103126200030d576200003b816200034c565b906020916200004c8383016200034c565b91620000686060620000608784016200035c565b92016200035c565b60ff19936001938585541685558460025561ffff80911690808316820190808211620002f75761271091161015620002c55763ffff00006003549260101b169163ffffffff1916171760035560048560018060a01b0380938160018060a01b0319961686600654161760065516808560075416176007558851928380926315ab88c960e31b82525afa908115620002ba576000916200027a575b501690600854161760085560008052600083528360002033600052835260ff846000205416156200023f575b7f65d7a28e3265b37a6474929f336521b332c1681b933f6cb9f3376673440d862a80600052600084528460002033600052845260ff8560002054161562000202575b507f97667070c54ef182b0f5858b034beac1b6f3089aa2d3188bb1e8929f4fa9b9299283600052600081528460002033600052815260ff85600020541615620001c3575b8451616d6d9081620003728239f35b836000526000815284600020903360005252836000209182541617905533903390600080516020620070df833981519152600080a438808080620001b4565b80600052600084528460002033600052845284600020828482541617905533903390600080516020620070df833981519152600080a43862000170565b60008052600083528360002033600052835283600020818382541617905533336000600080516020620070df8339815191528180a46200012e565b908682813d8311620002b2575b62000293818362000312565b81010312620002af5750620002a8906200035c565b3862000102565b80fd5b503d62000287565b87513d6000823e3d90fd5b875162461bcd60e51b815260048101889052600b60248201526a08ccacae6a8dede90d2ced60ab1b6044820152606490fd5b634e487b7160e01b600052601160045260246000fd5b600080fd5b601f909101601f19168101906001600160401b038211908210176200033657604052565b634e487b7160e01b600052604160045260246000fd5b519061ffff821682036200030d57565b51906001600160a01b03821682036200030d5756fe60808060405260043610156200001f575b5036156200001d57600080fd5b005b600090813560e01c90816301ffc9a714620026ca575080630bcae1ac146200262957806322163b861462002609578063248a9ca314620025db57806324bf2f1e14620024e957806325d5971f14620024905780632cc3dc6e14620023c05780632f2ff15d146200230957806335a62e6814620022cc57806336568abe14620022325780633e11741f14620020c75780633f4ba83a146200202d57806349933e131462001b75578063504b82bf1462001b4a57806352ce0fb01462001b075780635c975abb1462001ae25780635e81e3641462001aa55780635f6501ab1462001a50578063606c9187146200184c578063634282af14620017bf5780637547c7a314620016fb578063768c044214620016d05780637b573c5414620016ac5780637e644547146200167757806382522bc01462000f4a57806383f26f381462000f045780638456cb591462000ea45780638943b28e1462000e765780638fea31b01462000e4b57806391d148541462000dfc57806392223cea1462000d095780639fd3af8b1462000ca3578063a0429de61462000c5d578063a217fddf1462000c3f578063ace03a0c1462000b8e578063ad5c46481462000b63578063b4b57c391462000b38578063c4f3e9d71462000967578063c60b494f1462000921578063c748713e14620008e4578063cd30f0381462000825578063d547741f14620007dd578063d9d0a5be146200069e578063dc4ec9be1462000677578063e1cd04b414620005ed578063e5a8a1231462000438578063e63ab1e914620003fb578063e9833c2f14620003c9578063ec3889b51462000326578063f5b541a614620002e9578063f887ea4014620002be5763ff96092a03620000105734620002bb5780600319360112620002bb57602061ffff60035416604051908152f35b80fd5b5034620002bb5780600319360112620002bb576007546040516001600160a01b039091168152602090f35b5034620002bb5780600319360112620002bb5760206040517f97667070c54ef182b0f5858b034beac1b6f3089aa2d3188bb1e8929f4fa9b9298152f35b5034620002bb576020366003190112620002bb576200034462002757565b6200034e62002c58565b6200035862004158565b6004548015620003935782808080936200038b958260045560018060a01b03165af162000384620042f5565b506200444f565b600160025580f35b60405162461bcd60e51b815260206004820152600e60248201526d4e6f506c6174666f726d4665657360901b6044820152606490fd5b5034620002bb576020366003190112620002bb576020620003f3620003ed62002757565b6200338a565b604051908152f35b5034620002bb5780600319360112620002bb5760206040517f65d7a28e3265b37a6474929f336521b332c1681b933f6cb9f3376673440d862a8152f35b5034620002bb57602080600319360112620005e9576200045762002757565b6200046162004158565b6001600160a01b031680835260108252604083205460ff1615620005b657808352600e82526040832033600052825260406000205480156200058557818452600e83526040842033600052835283604060002055818452600c835260408420546000198101908111620005715790620004fb6002620004e46200050194620027b5565b50015491848752600f865260408720549262002f20565b620030a3565b91670de0b6b3a7640000928381029381850414901517156200055d577fb1fd09750e7241fd2b620d8648c4b64ad833cb7d5966c13a8a09a81467681b5c906200054c843385620041ad565b6040519384523393a3600160025580f35b634e487b7160e01b84526011600452602484fd5b634e487b7160e01b85526011600452602485fd5b60405162461bcd60e51b8152600481018490526009602482015268139bd1195c1bdcda5d60ba1b6044820152606490fd5b60405162461bcd60e51b815260048101839052600b60248201526a139bdd14995b19585cd95960aa1b6044820152606490fd5b5080fd5b5034620002bb5780600319360112620002bb576200060a62004158565b3381526005602052604081205480156200064257818080806200038b943382526005602052816040812055335af162000384620042f5565b60405162461bcd60e51b815260206004820152600d60248201526c4e6f43726561746f724665657360981b6044820152606490fd5b5034620002bb5780600319360112620002bb57602061ffff60035460101c16604051908152f35b5060a0366003190112620002bb57620006b662002757565b602435906064356001600160a01b0381811691829003620007d85784906084356001600160401b038111620007d457620006f590369060040162002724565b94906200070162004158565b8260115416803b15620007d0576200075593859360405195869485938493636ce852df60e11b8552169a8b60048501528c60248501528760448501528a606485015260a0608485015260a48401916200442a565b039134905af18015620007c557620007a9575b505060405192835234602084015260408301527f43599fa4170a5a66483c3879de7c1549f90d4990dbe05e13daaf74a7031b863160603393a3600160025580f35b620007b4906200282e565b620007c157833862000768565b8380fd5b6040513d84823e3d90fd5b8480fd5b8280fd5b600080fd5b5034620002bb576040366003190112620002bb5762000822600435620008026200276e565b90808452836020526200081c600160408620015462002d8f565b62002eab565b80f35b5034620002bb576020366003190112620002bb576200084362002757565b6200084d62002aff565b6001600160a01b0316808252600c60205260408220546000198101908111620008d0576004620008816200088c92620027b5565b50015442116200409d565b808252601060205260408220600160ff198254161790557fcb87b7d9f91bab86bc1853ddeb30b507bdf5e886a0784bb2f188b8c5887a31116020604051428152a280f35b634e487b7160e01b83526011600452602483fd5b5034620002bb576020366003190112620002bb576020906040906001600160a01b036200091062002757565b168152600583522054604051908152f35b5034620002bb576020366003190112620002bb576200093f62002757565b6200094962002c58565b60018060a01b03166001600160601b0360a01b601254161760125580f35b506040366003190112620002bb576200097f62002757565b906200098a6200276e565b916200099562002aff565b66071afd498d0000340362000b08576001600160a01b038181169184821683101562000b0257935b60065460405163e6a4390560e01b81526001600160a01b038781166004830152831660248201526020969092918416908784604481855afa93841562000af7579088939291889562000ad3575b508585161562000a47575b505050501680917f4f2ce4e40f623ca765fc0167a25cb7842ceaafb8d82d3dec26ca0d0e0d2d48966040519480a38152f35b6040516364e329cb60e11b81526001600160a01b039182166004820152921660248301529092508290604490829088905af190811562000ac857849162000a94575b508438808062000a15565b62000ab99150853d871162000ac0575b62000ab081836200285e565b810190620040d8565b3862000a89565b503d62000aa4565b6040513d86823e3d90fd5b62000aef919550843d861162000ac05762000ab081836200285e565b933862000a0a565b6040513d89823e3d90fd5b620009bd565b60405162461bcd60e51b815260206004820152600860248201526757726f6e6746656560c01b6044820152606490fd5b5034620002bb5780600319360112620002bb576006546040516001600160a01b039091168152602090f35b5034620002bb5780600319360112620002bb576008546040516001600160a01b039091168152602090f35b5034620002bb576020366003190112620002bb57600435808252600a60205260408220546001600160a01b031662000c0d57808252600a60205260408220336001600160601b0360a01b8254161790556040519081527fbdd9868ce7c59bf465fd8f76e3e3d5b11bba4902126c46a31ed357e70582e02860203392a280f35b60405162461bcd60e51b815260206004820152600a602482015269436f646545786973747360b01b6044820152606490fd5b5034620002bb5780600319360112620002bb57602090604051908152f35b5034620002bb576020366003190112620002bb5762000c7b62002757565b62000c8562002c58565b60018060a01b03166001600160601b0360a01b601354161760135580f35b5034620002bb5780600319360112620002bb5760125481906001600160a01b0316803b1562000d0657818091600460405180948193631e8c5c8960e11b83525af18015620007c55762000cf35750f35b62000cfe906200282e565b620002bb5780f35b50fd5b5034620002bb5780600319360112620002bb57604051908060095462000d2f81620027f1565b8085529160019180831690811562000dcf575060011462000d6f575b62000d6b8562000d5e818703826200285e565b60405191829182620028a5565b0390f35b9250600983527f6e1540171b6c0c960b71a7020d9f60077f6af931a8bbf590da0223dacf75c7af5b82841062000db657505050810160200162000d5e8262000d6b62000d4b565b8054602085870181019190915290930192810162000d97565b86955062000d6b9693506020925062000d5e94915060ff191682840152151560051b820101929362000d4b565b5034620002bb576040366003190112620002bb57604062000e1c6200276e565b91600435815280602052209060018060a01b0316600052602052602060ff604060002054166040519015158152f35b5034620002bb5780600319360112620002bb576011546040516001600160a01b039091168152602090f35b5034620002bb576040366003190112620002bb576020620003f362000e9a62002757565b60243590620030d2565b5034620002bb5780600319360112620002bb5762000ec1620028d3565b62000ecb62004113565b600160ff19815416176001557f62e78cea01bee320cd4e420270b5ea74000d11b0c9f74754ebdbfc544b05a2586020604051338152a180f35b5034620002bb576020366003190112620002bb5762000f2262002757565b62000f2c62002c58565b60018060a01b03166001600160601b0360a01b601154161760115580f35b506080366003190112620002bb5762000f6262002757565b62000f6c62004113565b62000f7662004158565b62000f8460243582620030d2565b62000f946064358210156200405d565b80341062001640578262000fa98234620030c4565b801590811562001616575b5050506001600160a01b0382168352600c602052604083205460001981019081116200055d5762000fe590620027b5565b506001600160a01b0383168452600d60205260408420600482015490929190620010119042116200409d565b60ff600182015460a01c16600281101562001602576001146200159d575b506200104c670de0b6b3a764000060243504600584015462002f4a565b60058301556044358452600a60205260018060a01b036040852054169160018060a01b0384168552600d6020526127109261ffff93806200109d866200109560408b2062004492565b168662002f20565b0494826200158257505085905b620010c182620010bb8787620030c4565b620030c4565b90620010d08660045462002f4a565b6004556001600160a01b0387168852600c6020526040882054600019810181106200156e579062001106899260001901620027b5565b50600101546001600160a01b0316825260056020526040822080546200112e90859062002f4a565b9055838062001545575b5050506040519485526020850152604084015260609233907f5f3016edbdc7fdd9337fbde58cfd0b91bdc732c2c67cead807bc4302ccadb8008560018060a01b03881692a362001195602435336001600160a01b038716620041ad565b6040805160243581526020810184905233916001600160a01b038716917fbf77fd13a39d14dc0da779342c14105c38d9a5d0c60f2caa22f5fd1d5525416d9190a36040516024358152826020820152604435604082015233907f34c0fec97a6c52302fc3c015eb481637e81bcb84a35aea58bd692cf83a03c77a8560018060a01b03881692a362001226846200338a565b604080519182524260208301526001600160a01b038616917ffbcd82ed9d16e1204c8698f6c31409250e7a91d35f141fe4ab721148052f70f09190a2600781019081549060ff821615908162001504575b5062001287575b85600160025580f35b60ff1916600117905560065460085460405163e6a4390560e01b81526001600160a01b0386811660048301529182166024820181905290949287921690602086604481855afa958615620014f9578396620014d3575b506001600160a01b0386161562001454575b505060075460405163095ea7b360e01b81526001600160a01b0390911660048201526024803590820152905060208180604481010381896001600160a01b038a165af18015620014495762001413575b5060075460405163f305d71960e01b81526001600160a01b038681166004830152602480359083015260448201889052606482018890523060848301524260a483015290938392859260c49284929091165af19182620013e4575b5050620013ab575b8080806200127e565b6001600160a01b0390811691167f4f2ce4e40f623ca765fc0167a25cb7842ceaafb8d82d3dec26ca0d0e0d2d48968380a33880620013a2565b813d83116200140b575b620013fa81836200285e565b81010312620007c15738806200139a565b503d620013ee565b620014399060203d60201162001441575b6200143081836200285e565b810190620040f9565b50386200133f565b503d62001424565b6040513d88823e3d90fd5b6040516364e329cb60e11b81526001600160a01b038881166004830152919091166024820152929450602091839160449183915af1908115620014c8578591620014a4575b5091843880620012ef565b620014c1915060203d60201162000ac05762000ab081836200285e565b3862001499565b6040513d87823e3d90fd5b620014f191965060203d60201162000ac05762000ab081836200285e565b9438620012dd565b6040513d85823e3d90fd5b6005810154670de0b6b3a76400008082029350811591840414171562001531576006015411153862001277565b634e487b7160e01b88526011600452602488fd5b82809291819282821562001564575bf115620014495786388362001138565b506108fc62001554565b634e487b7160e01b89526011600452602489fd5b620015959060035460101c168562002f20565b0490620010aa565b6002620015bb670de0b6b3a764000060243504600586015462002f4a565b91015410620015cb57386200102f565b60405162461bcd60e51b815260206004820152600f60248201526e149d5cda10d85c115e18d959591959608a1b6044820152606490fd5b634e487b7160e01b86526021600452602486fd5b828092918192829062001636575b3390f115620007c55782388062000fb4565b506108fc62001624565b60405162461bcd60e51b815260206004820152600f60248201526e092dce6eaccccd2c6d2cadce88aa89608b1b6044820152606490fd5b5034620002bb576020366003190112620002bb576020906004358152600a8252604060018060a01b0391205416604051908152f35b5034620002bb5780600319360112620002bb57602060405166071afd498d00008152f35b5034620002bb5780600319360112620002bb576013546040516001600160a01b039091168152602090f35b5034620002bb576020366003190112620002bb576004356200171c62004113565b600b5415620017a9578190600b60005260018060a01b036200176a82827f0175b7a638427703f0dbe7bb9bbf987a2551717b34e79f33b5b1008d1fa01db954168360125416903390620043cf565b6012541690813b15620017a557829160248392604051948593849263534a7e1d60e11b845260048401525af18015620007c55762000cf35750f35b5050fd5b634e487b7160e01b600052603260045260246000fd5b5034620002bb576020366003190112620002bb57600435600b54811015620005e957620017ec90620027b5565b5060018060a01b03808254169160018101549160ff8360a01c16600283015491600460ff600386015416940154946040519687521660208601526002811015620016025760c09550604085015260608401521515608083015260a0820152f35b5034620002bb5760209081600319360112620002bb576001600160401b0391600435838111620007d4576200188690369060040162002785565b9190936200189362002c58565b821162001a3c57620018a7600954620027f1565b601f8111620019d5575b508293601f83116001146200192a5762001918908385967f6b86e5116747421b9a6543ee4017d9ed593c996144b1233306664721253598bb96916200191e575b508460011b906000198660031b1c1916176009555b60405193838594855284019162003082565b0390a180f35b905081013538620018f1565b600984527f6e1540171b6c0c960b71a7020d9f60077f6af931a8bbf590da0223dacf75c7af601f198416855b818110620019bd5750907f6b86e5116747421b9a6543ee4017d9ed593c996144b1233306664721253598bb95968562001918949310620019a2575b5050600184811b0160095562001906565b820135600019600387901b60f8161c19169055388062001991565b83880135835596840196600190920191840162001956565b600984527f6e1540171b6c0c960b71a7020d9f60077f6af931a8bbf590da0223dacf75c7af601f840160051c81019183851062001a31575b601f0160051c01905b81811062001a255750620018b1565b84815560010162001a16565b909150819062001a0d565b634e487b7160e01b83526041600452602483fd5b5034620002bb576040366003190112620002bb5762001a6e62002757565b604062001a7a6200276e565b9260018060a01b038093168152600e6020522091166000526020526020604060002054604051908152f35b5034620002bb576020366003190112620002bb576020906040906001600160a01b0362001ad162002757565b168152600f83522054604051908152f35b5034620002bb5780600319360112620002bb57602060ff600154166040519015158152f35b5034620002bb576020366003190112620002bb5760209060ff906040906001600160a01b0362001b3662002757565b168152601084522054166040519015158152f35b5034620002bb5780600319360112620002bb576012546040516001600160a01b039091168152602090f35b5034620002bb57610280366003190112620002bb576001600160401b0390600435828111620005e95762001bae90369060040162002785565b602435848111620007c15762001bc990369060040162002785565b90946044359360028510156200202957600460843510156200202957610144359361ffff93848616809603620007d85761016435948516809503620007d85761026435848111620020255762001c2490369060040162002785565b9162001c2f62004113565b62001c3962004158565b62001c4362002aff565b6040519461201c94858701958787108988111762001ffd579262001c848897959362001c969362001cb49896620045b78b3960a0885260a088019162003082565b9060209e8f8784039088015262003082565b92610244356040820152306060820152608081850391015262003082565b039086f0928315620014c8576040519461078e9586810196818810858911176200201157620065d382396001600160a01b038681168852338a890152610204356040890152610224356060890152968190036080019088f0801562000af757861662001d276101e43582898916620041ad565b6040519081527f2ee44d821b06c9aa990927d787f4adf9d8d3eb9bf798ef5c80415cd7a39656028988881692a26040519060c082018281108582111762001fbf5760405286861682528882013381526040830191825260608301606435815260808401916001835260a08501936101c4358552600b546801000000000000000081101562001ffd5780600162001dc19201600b55620027b5565b96909662001fe9578b9051166001600160601b0360a01b8754161786558a6001870192511682549151600281101562001fd5576001600160a81b03199092161760a09190911b60ff60a01b161790555160028401555160038301805491151560ff1660ff199290921691909117905560049051910155600b548585168752600c88526040872055604051916101808301908382109082111762001fbf5760405260843582528682019260a43584526040830160c43581526060840160e4358152608085019161010435835260a08601938a855260c08701956101243587528b60e0890152610100880152610120870152610184356101408701526101a4356101608701528888168a52600d8b5260408a20968651600481101562001fab57885460ff91821660ff19918216178a55915160018a0155915160028901559151600388015591516004870155915160058601559151600685015560e0830151600785018054911515909316911617815560099161016091610100820151815462ffff0064ffff00000061012086015160181b169260081b169064ffffffff00191617179055610140810151600885015501519101556040519233907fd5f9bdf12adf29dab0248c349842c3822d53ae2bb4f36352f301630d018c81398484169180a36001600255168152f35b634e487b7160e01b8c52602160045260248cfd5b634e487b7160e01b600052604160045260246000fd5b634e487b7160e01b8e52602160045260248efd5b634e487b7160e01b8d5260048d905260248dfd5b634e487b7160e01b8d52604160045260248dfd5b634e487b7160e01b89526041600452602489fd5b8880fd5b8580fd5b5034620002bb5780600319360112620002bb576200204a620028d3565b60015460ff8116156200208b5760ff19166001557f5db9ee0a495bf2e6ff9c91a7834c1ba4fdd244a5e8aa4e537bd38aeae4b073aa6020604051338152a180f35b60405162461bcd60e51b815260206004820152601460248201527314185d5cd8589b194e881b9bdd081c185d5cd95960621b6044820152606490fd5b5034620002bb576060366003190112620002bb57620020e562002757565b60243590620020f362004113565b620020fd62004158565b6001600160a01b038116808452600d6020526040842060058101805492949291670de0b6b3a76400008404808410620021fa576200214081620021519362004524565b93620010bb6044358610156200405d565b90556200216182303387620043cf565b8480828015620021ef575b8280929181923390f11562000ac8577ffbcd82ed9d16e1204c8698f6c31409250e7a91d35f141fe4ab721148052f70f092604092620021db9284519182526020820152857f16dd16959a056953a63cf14bf427881e762e54f03d86b864efea8238dd3b822f853393a36200338a565b8151908152426020820152a2600160025580f35b6108fc91506200216c565b60405162461bcd60e51b815260206004820152601060248201526f125b9cdd59999a58da595b9d14dbdb1960821b6044820152606490fd5b5034620002bb576040366003190112620002bb57620022506200276e565b336001600160a01b038216036200226f57620008229060043562002eab565b60405162461bcd60e51b815260206004820152602f60248201527f416363657373436f6e74726f6c3a2063616e206f6e6c792072656e6f756e636560448201526e103937b632b9903337b91039b2b63360891b6064820152608490fd5b5034620002bb576020366003190112620002bb576020906040906001600160a01b03620022f862002757565b168152600c83522054604051908152f35b5034620002bb576040366003190112620002bb576004356200232a6200276e565b8183528260205262002343600160408520015462002d8f565b81835282602052604083209060018060a01b0316908160005260205260ff604060002054161562002372578280f35b8183528260205260408320816000526020526040600020600160ff1982541617905533917f2f8788117e7eff1d82e926ec794901d17c78024a50270940304540a733656f0d8480a438808280f35b5034620002bb576020366003190112620002bb576001600160a01b03620023e662002757565b168152600d6020526040812060ff81541690600181015490600281015460038201546004830154600584015490600685015492600786015494600960088801549701549760405199600481101562001fab576101809b508a5260208a015260408901526060880152608087015260a086015260c085015260ff8116151560e085015261ffff90818160081c1661010086015260181c16610120840152610140830152610160820152f35b5034620002bb576020366003190112620002bb5760125481906001600160a01b0316803b1562000d0657818091602460405180948193632e1a7d4d60e01b835260043560048401525af18015620007c55762000cf35750f35b50602080600319360112620005e9576001600160a01b036200250a62002757565b16808352600c8252604083205460001981019081116200055d5762002531600491620027b5565b5001544211620025a857808352600e82526040832033600052825260406000206200255e34825462002f4a565b9055808352600f8252604083206200257834825462002f4a565b90557f2df8a6513637b00c16fac19a51061303422765fbadb402cc90d7b42acee9cf7d604051923484523393a380f35b60405162461bcd60e51b815260048101839052600b60248201526a15985d5b1d10db1bdcd95960aa1b6044820152606490fd5b5034620002bb576020366003190112620002bb57600160406020926004358152808452200154604051908152f35b5034620002bb5780600319360112620002bb576020600454604051908152f35b5034620002bb576040366003190112620002bb57806024356001600160401b03811162000d06576200266090369060040162002724565b601354909291906001600160a01b0316803b15620007d457620026ab9383604051809681958294632f52ebb760e01b845260043560048501526040602485015260448401916200442a565b03925af18015620007c557620026bf575080f35b62000822906200282e565b905034620005e9576020366003190112620005e95760043563ffffffff60e01b8116809103620007d45760209250637965db0b60e01b811490811562002712575b5015158152f35b6301ffc9a760e01b149050386200270b565b9181601f84011215620007d8578235916001600160401b038311620007d8576020808501948460051b010111620007d857565b600435906001600160a01b0382168203620007d857565b602435906001600160a01b0382168203620007d857565b9181601f84011215620007d8578235916001600160401b038311620007d85760208381860195010111620007d857565b600b54811015620017a957600590600b600052027f0175b7a638427703f0dbe7bb9bbf987a2551717b34e79f33b5b1008d1fa01db90190600090565b90600182811c9216801562002823575b60208310146200280d57565b634e487b7160e01b600052602260045260246000fd5b91607f169162002801565b6001600160401b03811162001fbf57604052565b608081019081106001600160401b0382111762001fbf57604052565b90601f801991011681019081106001600160401b0382111762001fbf57604052565b60005b838110620028945750506000910152565b818101518382015260200162002883565b60409160208252620028c7815180928160208601526020868601910162002880565b601f01601f1916010190565b3360009081527ff7c9542c591017a21c74b6f3fab6263c7952fc0aaf9db4c22a2a04ddc7f8674f60209081526040808320549092907f65d7a28e3265b37a6474929f336521b332c1681b933f6cb9f3376673440d862a9060ff1615620029395750505050565b620029443362002f6a565b845191620029528362002842565b6042835284830193606036863783511562002aeb576030855383519060019182101562002aeb5790607860218601536041915b81831162002a785750505062002a3657620029e193859362002a1b9362002a0b60489462002a329951988576020b1b1b2b9b9a1b7b73a3937b61d1030b1b1b7bab73a1604d1b8b97880152825192839160378901910162002880565b8401917001034b99036b4b9b9b4b733903937b6329607d1b60378401525180938684019062002880565b010360288101855201836200285e565b5162461bcd60e51b815291829160048301620028a5565b0390fd5b60648486519062461bcd60e51b825280600483015260248201527f537472696e67733a20686578206c656e67746820696e73756666696369656e746044820152fd5b909192600f8116601081101562002ad7576f181899199a1a9b1b9c1cb0b131b232b360811b901a62002aab858862002f58565b5360041c92801562002ac35760001901919062002985565b634e487b7160e01b82526011600452602482fd5b634e487b7160e01b83526032600452602483fd5b634e487b7160e01b81526032600452602490fd5b3360009081527fee57cd81e84075558e8fcc182a1f4393f91fc97f963a136e66b7f949a62f319f60209081526040808320549092907f97667070c54ef182b0f5858b034beac1b6f3089aa2d3188bb1e8929f4fa9b9299060ff161562002b655750505050565b62002b703362002f6a565b84519162002b7e8362002842565b6042835284830193606036863783511562002aeb576030855383519060019182101562002aeb5790607860218601536041915b81831162002c0d5750505062002a3657620029e193859362002a1b9362002a0b60489462002a329951988576020b1b1b2b9b9a1b7b73a3937b61d1030b1b1b7bab73a1604d1b8b97880152825192839160378901910162002880565b909192600f8116601081101562002ad7576f181899199a1a9b1b9c1cb0b131b232b360811b901a62002c40858862002f58565b5360041c92801562002ac35760001901919062002bb1565b3360009081527fad3228b676f7d3cd4284a5443f17f1962b36e491b30a40b2405849e597ba5fb5602090815260408083205490929060ff161562002c9b57505050565b62002ca63362002f6a565b8351908262002cb58362002842565b6042835284830193606036863783511562002aeb576030855383519060019182101562002aeb5790607860218601536041915b81831162002d445750505062002a3657620029e193859362002a1b9362002a0b60489462002a329951988576020b1b1b2b9b9a1b7b73a3937b61d1030b1b1b7bab73a1604d1b8b97880152825192839160378901910162002880565b909192600f8116601081101562002ad7576f181899199a1a9b1b9c1cb0b131b232b360811b901a62002d77858862002f58565b5360041c92801562002ac35760001901919062002ce8565b6000818152602090808252604092838220338352835260ff84832054161562002db85750505050565b62002dc33362002f6a565b84519162002dd18362002842565b6042835284830193606036863783511562002aeb576030855383519060019182101562002aeb5790607860218601536041915b81831162002e605750505062002a3657620029e193859362002a1b9362002a0b60489462002a329951988576020b1b1b2b9b9a1b7b73a3937b61d1030b1b1b7bab73a1604d1b8b97880152825192839160378901910162002880565b909192600f8116601081101562002ad7576f181899199a1a9b1b9c1cb0b131b232b360811b901a62002e93858862002f58565b5360041c92801562002ac35760001901919062002e04565b9060009180835282602052604083209160018060a01b03169182845260205260ff60408420541662002edc57505050565b80835282602052604083208284526020526040832060ff1981541690557ff6391f5c32d9c69d2a47ea670b442974b53935d1edc7fd64eb21e047a839171b339380a4565b8181029291811591840414171562002f3457565b634e487b7160e01b600052601160045260246000fd5b9190820180921162002f3457565b908151811015620017a9570160200190565b60405190606082018281106001600160401b0382111762001fbf57604052602a8252602082016040368237825115620017a957603090538151600190811015620017a957607860218401536029905b8082116200300f57505062002fcb5790565b606460405162461bcd60e51b815260206004820152602060248201527f537472696e67733a20686578206c656e67746820696e73756666696369656e746044820152fd5b9091600f811660108110156200306d576f181899199a1a9b1b9c1cb0b131b232b360811b901a62003041848662002f58565b5360041c9180156200305857600019019062002fb9565b60246000634e487b7160e01b81526011600452fd5b60246000634e487b7160e01b81526032600452fd5b908060209392818452848401376000828201840152601f01601f1916010190565b8115620030ae570490565b634e487b7160e01b600052601260045260246000fd5b9190820391821162002f3457565b90670de0b6b3a76400009004908115620031c0576001600160a01b0381166000908152600d60205260408120805490919060ff166004811015620031ac57156200313257505090620031286200312f926200338a565b9062002f20565b90565b9150916005830154916200315c8260026200315260018801548362002f20565b9601549462002f20565b916000198101918183116200319857506200319192620031876200312f969593620031289362002f20565b60011c9062002f4a565b9062002f4a565b634e487b7160e01b81526011600452602490fd5b634e487b7160e01b82526021600452602482fd5b5050600090565b9080156200326c578115620031c05781806001146200326457600214620032525760208110610133831016604e8210600b841016176200324d57600190815b808211620032205750508160001904811162002f34570290565b90928060001904811162002f345781841662003243575b800292811c9062003206565b8092029162003237565b900a90565b905060ff811162002f34576001901b90565b505050600190565b5050600190565b6000808052600d602052604081209060ff8254166004811015620031ac5780620032b9575050806200319160016200312f93015491600560028201549101549062002f20565b60018103620033255750620032d8600283015460058401549062002f20565b91677fffffffffffffff8311620005e9576001620032ff9101549260401b600f0b620033db565b600f0b90808212620002bb5750906001600160401b036200312f9260401d169062002f20565b6002141590506200335a57806200319160016200312f93015491620031286002820154916003600582015491015490620031c7565b806200319160016200312f930154916002620033806005830154600484015490620030a3565b9101549062002f20565b6001600160a01b03166000908152600d60205260408120805490919060ff166004811015620031ac5780620032b9575050806200319160016200312f93015491600560028201549101549062002f20565b600f0b600160461b811215620007d857683fffffffffffffffff1981126200342157700171547652b82fe1777d0ffda0d23a7d126200312f910260801d600f0b62003427565b50600090565b600f81810b600160461b811215620007d857683fffffffffffffffff19811262004055576001607f1b90600093846780000000000000008216850b136200403c575b846740000000000000008216850b136200401e575b846720000000000000008216850b1362004000575b846710000000000000008216850b1362003fe2575b846708000000000000008216850b1362003fc4575b846704000000000000008216850b1362003fa6575b846702000000000000008216850b1362003f88575b846701000000000000008216850b1362003f6a575b8466800000000000008216850b1362003f4c575b8466400000000000008216850b1362003f2e575b8466200000000000008216850b1362003f10575b8466100000000000008216850b1362003ef2575b8466080000000000008216850b1362003ed4575b8466040000000000008216850b1362003eb6575b8466020000000000008216850b1362003e98575b8466010000000000008216850b1362003e7a575b84658000000000008216850b1362003e5c575b84654000000000008216850b1362003e3e575b84652000000000008216850b1362003e20575b84651000000000008216850b1362003e02575b84650800000000008216850b1362003de4575b84650400000000008216850b1362003dc6575b84650200000000008216850b1362003da8575b84650100000000008216850b1362003d8a575b846480000000008216850b1362003d6c575b846440000000008216850b1362003d4e575b846420000000008216850b1362003d30575b846410000000008216850b1362003d12575b846408000000008216850b1362003cf4575b846404000000008216850b1362003cd6575b846402000000008216850b1362003cb8575b846401000000008216850b1362003c9a575b8463800000008216850b1362003c7c575b8463400000008216850b1362003c5e575b8463200000008216850b1362003c40575b8463100000008216850b1362003c22575b8463080000008216850b1362003c04575b8463040000008216850b1362003be6575b8463020000008216850b1362003bc8575b8463010000008216850b1362003baa575b84628000008216850b1362003b8c575b84624000008216850b1362003b6e575b84622000008216850b1362003b50575b84621000008216850b1362003b32575b84620800008216850b1362003b14575b84620400008216850b1362003af6575b84620200008216850b1362003ad8575b84620100008216850b1362003aba575b846180008216850b1362003a9c575b846140008216850b1362003a7e575b846120008216850b1362003a60575b846110008216850b1362003a42575b846108008216850b1362003a24575b846104008216850b1362003a06575b846102008216850b13620039e8575b846101008216850b13620039ca575b8460809181838216870b13620039ad575b8160408216870b1362003990575b8160208216870b1362003973575b8160108216870b1362003956575b8160088216870b1362003939575b8160048216870b136200391c575b8160028216870b13620038fe575b600116850b13620038df575b5060401d820b603f03820b1c916f7fffffffffffffffffffffffffffffff8311620002bb57500b90565b909170010000000000000000b17217f7d1cf79ab02901c9038620038b5565b7001000000000000000162e42fefa39ef358909402821c93620038a9565b9370010000000000000002c5c85fdf473de6b202821c936200389b565b93700100000000000000058b90bfbe8e7bcd6d02821c936200388d565b937001000000000000000b17217f7d1cf79afa02821c936200387f565b93700100000000000000162e42fefa39ef366f02821c9362003871565b937001000000000000002c5c85fdf473de6eca02821c9362003863565b9370010000000000000058b90bfbe8e7bce54402821c9362003855565b91700100000000000000b17217f7d1cf79e9490260801c9162003844565b9170010000000000000162e42fefa39ef44d910260801c9162003835565b91700100000000000002c5c85fdf473dea871f0260801c9162003826565b917001000000000000058b90bfbe8e7bdcbe2e0260801c9162003817565b9170010000000000000b17217f7d1cf7d83c1a0260801c9162003808565b917001000000000000162e42fefa39f02b772c0260801c91620037f9565b9170010000000000002c5c85fdf473e242ea380260801c91620037ea565b91700100000000000058b90bfbe8e7cc35c3f00260801c91620037db565b917001000000000000b17217f7d1cfb72b45e10260801c91620037cc565b91700100000000000162e42fefa39fe95583c20260801c91620037bc565b917001000000000002c5c85fdf4741bea6e77e0260801c91620037ac565b9170010000000000058b90bfbe8e8b2d3d4ede0260801c916200379c565b91700100000000000b17217f7d1d351a389d400260801c916200378c565b9170010000000000162e42fefa3ae53369388c0260801c916200377c565b91700100000000002c5c85fdf477b662b269450260801c916200376c565b917001000000000058b90bfbe8f71cb4e4b33d0260801c916200375c565b9170010000000000b17217f7d20cf927c8e94c0260801c916200374c565b917001000000000162e42fefa494f1478fde050260801c916200373b565b9170010000000002c5c85fdf4b15de6f17eb0d0260801c916200372a565b91700100000000058b90bfbe9ddbac5e109cce0260801c9162003719565b917001000000000b17217f7d5a7716bba4a9ae0260801c9162003708565b91700100000000162e42fefb2fed257559bdaa0260801c91620036f7565b917001000000002c5c85fdf84bd62ae30a74cc0260801c91620036e6565b9170010000000058b90bfbf8479bd5a81b51ad0260801c91620036d5565b91700100000000b17217f80f4ef5aadda455540260801c91620036c4565b9170010000000162e42ff0999ce3541b9fffcf0260801c91620036b2565b91700100000002c5c85fe31f35a6a30da1be500260801c91620036a0565b917001000000058b90bfcdee5acd3c1cedc8230260801c916200368e565b9170010000000b17217fba9c739aa5819f44f90260801c916200367c565b917001000000162e42fff037df38aa2b219f060260801c916200366a565b9170010000002c5c8601cc6b9e94213c72737a0260801c9162003658565b91700100000058b90c0b48c6be5df846c5b2ef0260801c9162003646565b917001000000b1721835514b86e6d96efd1bfe0260801c9162003634565b91700100000162e430e5a18f6119e3c02282a50260801c9162003621565b917001000002c5c863b73f016468f6bac5ca2b0260801c916200360e565b9170010000058b90cf1e6d97f9ca14dbcc16280260801c91620035fb565b91700100000b1721bcfc99d9f890ea069117630260801c91620035e8565b9170010000162e43f4f831060e02d839a9d16d0260801c91620035d5565b91700100002c5c89d5ec6ca4d7c8acc017b7c90260801c91620035c2565b917001000058b91b5bc9ae2eed81e9b7d4cfab0260801c91620035af565b9170010000b17255775c040618bf4a4ade83fc0260801c916200359c565b917001000162e525ee054754457d59952920260260801c9162003588565b9170010002c5cc37da9491d0985c348c68e7b30260801c9162003574565b91700100058ba01fb9f96d6cacd4b180917c3d0260801c9162003560565b917001000b175effdc76ba38e31671ca9397250260801c916200354c565b91700100162f3904051fa128bca9c55c31e5df0260801c9162003538565b917001002c605e2e8cec506d21bfc89a23a00f0260801c9162003524565b9170010058c86da1c09ea1ff19d294cf2f679b0260801c9162003510565b91700100b1afa5abcbed6129ab13ec11dc95430260801c91620034fc565b9170010163da9fb33356d84a66ae336dcdfa3f0260801c91620034e7565b91700102c9a3e778060ee6f7caca4f7a29bde80260801c91620034d2565b917001059b0d31585743ae7c548eb68ca417fd0260801c91620034bd565b9170010b5586cf9890f6298b92b71842a983630260801c91620034a8565b917001172b83c7d517adcdf7c8c50eb14a791f0260801c9162003493565b917001306fe0a31b7152de8d5a46305c85edec0260801c916200347e565b6fb504f333f9de6484597d89b3754abe9f925062003469565b505050600090565b156200406557565b60405162461bcd60e51b815260206004820152601060248201526f14db1a5c1c1859d9515e18d95959195960821b6044820152606490fd5b15620040a557565b60405162461bcd60e51b815260206004820152600b60248201526a5661756c7441637469766560a81b6044820152606490fd5b90816020910312620007d857516001600160a01b0381168103620007d85790565b90816020910312620007d857518015158103620007d85790565b60ff600154166200412057565b60405162461bcd60e51b815260206004820152601060248201526f14185d5cd8589b194e881c185d5cd95960821b6044820152606490fd5b6002805414620041685760028055565b60405162461bcd60e51b815260206004820152601f60248201527f5265656e7472616e637947756172643a207265656e7472616e742063616c6c006044820152606490fd5b60405163a9059cbb60e01b60208201526001600160a01b03929092166024830152604480830193909352918152620041f291620041ec6064836200285e565b620041f4565b565b60408051908101916001600160a01b03166001600160401b0383118284101762001fbf5762004268926040526000806020958685527f5361666545524332303a206c6f772d6c6576656c2063616c6c206661696c656487860152868151910182855af162004261620042f5565b9162004338565b805190828215928315620042da575b50505015620042835750565b6084906040519062461bcd60e51b82526004820152602a60248201527f5361666545524332303a204552433230206f7065726174696f6e20646964206e6044820152691bdd081cdd58d8d9595960b21b6064820152fd5b620042ec9350820181019101620040f9565b38828162004277565b3d1562004333573d906001600160401b03821162001fbf576040519162004327601f8201601f1916602001846200285e565b82523d6000602084013e565b606090565b919290156200439d57508151156200434e575090565b3b15620043585790565b60405162461bcd60e51b815260206004820152601d60248201527f416464726573733a2063616c6c20746f206e6f6e2d636f6e74726163740000006044820152606490fd5b825190915015620043b15750805190602001fd5b60405162461bcd60e51b815290819062002a329060048301620028a5565b6040516323b872dd60e01b60208201526001600160a01b03928316602482015292909116604483015260648083019390935291815260a08101918183106001600160401b0384111762001fbf57620041f292604052620041f4565b81835290916001600160fb1b038311620007d85760209260051b809284830137010190565b156200445757565b60405162461bcd60e51b815260206004820152601360248201527211551217d514905394d1915497d19052531151606a1b6044820152606490fd5b6008810154908142106200451457600981015491824210156200450357620044c981620044c260079342620030c4565b94620030c4565b91015461ffff928184809360081c1692839160181c16039284841162002f3457620004fb620031919286620044ff961662002f20565b1690565b5061ffff91506007015460181c1690565b61ffff91506007015460081c1690565b60ff8154166004811015620045a057156200454957506200312f906200312862003273565b600581015491620045708160026200456660018601548362002f20565b9401549462002f20565b926001820180831162002f34576200312f94620045966200312892620031919562002f20565b60011c90620030c4565b634e487b7160e01b600052602160045260246000fdfe6101608060405234620007cd576200201c8038038091620000218285620007d2565b8339810160a082820312620007cd5781516001600160401b038111620007cd57816200004f9184016200081b565b60208301519092906001600160401b038111620007cd5782620000749183016200081b565b60408201516060830151939092906001600160a01b0385168503620007cd5760808201516001600160401b038111620007cd57620000b392016200081b565b604080519195919081016001600160401b03811182821017620005605760405260018152603160f81b602082015281516001600160401b0381116200056057600354600181811c91168015620007c2575b60208210146200053f57601f81116200075c575b50806020601f8211600114620006d257600091620006c6575b508160011b916000199060031b1c1916176003555b82516001600160401b0381116200056057600454600181811c91168015620006bb575b60208210146200053f57601f811162000651575b50806020601f8211600114620005c757600091620005bb575b508160011b916000199060031b1c1916176004555b620001b682620008bf565b61012052620001c58162000a64565b6101405281516020830120908160e0526020815191012080610100524660a052604051917f8b73c3c69bb8fe3d512ecc4cf759cc79239f7b179b0ffacaa9a75d522b39400f6020840152604083015260608201524660808201523060a082015260a081528060c081011060018060401b0360c083011117620005605760c08101604052805160208201206080523060c052620002613362000876565b6001600160a01b03851615620005a7575060039051109081156200059a575b5062000588578015620005765782516001600160401b0381116200056057600a54600181811c9116801562000555575b60208210146200053f57601f8111620004e6575b506020601f82116001146200046d578192939460009262000461575b50508160011b916000199060031b1c191617600a555b33156200041c576002548181018091116200040657600255336000526000602052604060002081815401905560405190815260007fddf252ad1be2c89b69c2b068fc378daa952ba7f163c4a11628f55a4df523b3ef60203393a3600954336001600160a01b0390911603620003c257620003709062000876565b604051611440908162000bbc82396080518161118b015260a05181611257015260c05181611155015260e051816111da01526101005181611200015261012051816106a8015261014051816106d20152f35b606460405162461bcd60e51b815260206004820152602060248201527f4f776e61626c653a2063616c6c6572206973206e6f7420746865206f776e65726044820152fd5b634e487b7160e01b600052601160045260246000fd5b60405162461bcd60e51b815260206004820152601f60248201527f45524332303a206d696e7420746f20746865207a65726f2061646472657373006044820152606490fd5b015190503880620002e0565b600a600090815260008051602062001ffc8339815191529190601f198416905b818110620004cd57509583600195969710620004b3575b505050811b01600a55620002f6565b015160001960f88460031b161c19169055388080620004a4565b9192602060018192868b0151815501940192016200048d565b600a60005260008051602062001ffc833981519152601f830160051c8101916020841062000534575b601f0160051c01905b818110620005275750620002c4565b6000815560010162000518565b90915081906200050f565b634e487b7160e01b600052602260045260246000fd5b90607f1690620002b0565b634e487b7160e01b600052604160045260246000fd5b60405163c16f3a9360e01b8152600490fd5b604051639432241960e01b8152600490fd5b6003915051103862000280565b60c060049163d92e233d60e01b8282015201fd5b90508401513862000196565b6004600090815292507f8a35acfbc15ff81a39ae7d344fd709f28e8600b4aa8c65c6b64bfe7fe36bd19b905b601f198316841062000638576001935082601f198116106200061e575b5050811b01600455620001ab565b86015160001960f88460031b161c19169055388062000610565b86810151825560209384019360019092019101620005f3565b60046000527f8a35acfbc15ff81a39ae7d344fd709f28e8600b4aa8c65c6b64bfe7fe36bd19b601f830160051c81019160208410620006b0575b601f0160051c01905b818110620006a357506200017d565b6000815560010162000694565b90915081906200068b565b90607f169062000169565b90508301513862000131565b6003600090815292507fc2575a0e9e593c00f959f8c92f12db2869c3395a3b0502d05e2516446f71f85b905b601f198316841062000743576001935082601f1981161062000729575b5050811b0160035562000146565b85015160001960f88460031b161c1916905538806200071b565b85810151825560209384019360019092019101620006fe565b60036000527fc2575a0e9e593c00f959f8c92f12db2869c3395a3b0502d05e2516446f71f85b601f830160051c810160208410620007ba575b601f830160051c82018110620007ad57505062000118565b6000815560010162000795565b508062000795565b90607f169062000104565b600080fd5b601f909101601f19168101906001600160401b038211908210176200056057604052565b60005b8381106200080a5750506000910152565b8181015183820152602001620007f9565b81601f82011215620007cd5780516001600160401b03811162000560576040519262000852601f8301601f191660200185620007d2565b81845260208284010111620007cd57620008739160208085019101620007f6565b90565b600980546001600160a01b039283166001600160a01b0319821681179092559091167f8be0079c531659141344cd1fd0a4f28419497f9722a3daafe3b4186f6b6457e0600080a3565b805160209190828110156200093f575090601f825111620008fd5780825192015190808310620008ee57501790565b82600019910360031b1b161790565b604490620009319260405193849263305a27a960e01b845280600485015282519283918260248701528686019101620007f6565b601f01601f19168101030190fd5b6001600160401b03811162000560576005928354926001938481811c9116801562000a59575b838210146200053f57601f811162000a22575b5081601f8411600114620009b85750928293918392600094620009ac575b50501b916000199060031b1c191617905560ff90565b01519250388062000996565b919083601f1981168760005284600020946000905b8883831062000a075750505010620009ed575b505050811b01905560ff90565b015160001960f88460031b161c19169055388080620009e0565b858701518855909601959485019487935090810190620009cd565b8560005284601f846000209201871c820191601f8601881c015b82811062000a4c57505062000978565b6000815501859062000a3c565b90607f169062000965565b80516020908181101562000a915750601f825111620008fd5780825192015190808310620008ee57501790565b906001600160401b0382116200056057600654926001938481811c9116801562000bb0575b838210146200053f57601f811162000b76575b5081601f841160011462000b0a575092829391839260009462000afe575b50501b916000199060031b1c19161760065560ff90565b01519250388062000ae7565b919083601f198116600660005284600020946000905b8883831062000b5b575050501062000b41575b505050811b0160065560ff90565b015160001960f88460031b161c1916905538808062000b33565b85870151885590960195948501948793509081019062000b20565b600660005284601f84600020920160051c820191601f860160051c015b82811062000ba357505062000ac9565b6000815501859062000b93565b90607f169062000ab656fe6080604081815260048036101561001557600080fd5b600092833560e01c90816306fdde0314610b3a57508063095ea7b314610b1057806318160ddd14610af157806323b872dd14610a27578063313ce56714610a0b5780633644e515146109e757806339509351146109805780633c130d901461087a57806370a0823114610843578063715018a6146107e65780637ecebe00146107ae57806384b0196e146106915780638da5cb5b1461066857806395d89b4114610594578063a457c2d7146104ed578063a9059cbb146104bc578063c623674f146103d3578063d505accf1461021a578063dd62ed3e146101cd5763f2fde38b146100ff57600080fd5b346101c95760203660031901126101c957610118610c22565b90610121610ce1565b6001600160a01b03918216928315610177575050600954826bffffffffffffffffffffffff60a01b821617600955167f8be0079c531659141344cd1fd0a4f28419497f9722a3daafe3b4186f6b6457e08380a380f35b906020608492519162461bcd60e51b8352820152602660248201527f4f776e61626c653a206e6577206f776e657220697320746865207a65726f206160448201526564647265737360d01b6064820152fd5b8280fd5b505034610216578060031936011261021657806020926101eb610c22565b6101f3610c3d565b6001600160a01b0391821683526001865283832091168252845220549051908152f35b5080fd5b508290346102165760e036600319011261021657610236610c22565b61023e610c3d565b906044359260643560843560ff811681036103cf5781421161038c5760018060a01b0390818516928389526007602052898920908154916001830190558a519060208201927f6e71edae12b1b97f4d1f60370fef10105fa2faae0126114a169c64845d6126c98452868d840152858a1660608401528a608084015260a083015260c082015260c0815260e0810181811067ffffffffffffffff821117610379578b5251902061032191610319916102f3611152565b908c519161190160f01b83526002830152602282015260c43591604260a43592206110c3565b919091610fa9565b16036103365750610333939450610ea7565b80f35b606490602087519162461bcd60e51b8352820152601e60248201527f45524332305065726d69743a20696e76616c6964207369676e617475726500006044820152fd5b634e487b7160e01b8b526041875260248bfd5b875162461bcd60e51b8152602081850152601d60248201527f45524332305065726d69743a206578706972656420646561646c696e650000006044820152606490fd5b8680fd5b50503461021657816003193601126102165780519082600a546103f581610c53565b808552916001918083169081156104945750600114610437575b50505061042182610433940383610cbf565b51918291602083526020830190610be2565b0390f35b9450600a85527fc65a7bb8d6351c1cf70c95a316cc6a92839c986682d98bc35f958f4883f9d2a85b82861061047c57505050610421826020610433958201019461040f565b8054602087870181019190915290950194810161045f565b61043397508693506020925061042194915060ff191682840152151560051b8201019461040f565b5050346102165780600319360112610216576020906104e66104dc610c22565b6024359033610d39565b5160018152f35b508234610591578260031936011261059157610507610c22565b918360243592338152600160205281812060018060a01b0386168252602052205490828210610540576020856104e68585038733610ea7565b608490602086519162461bcd60e51b8352820152602560248201527f45524332303a2064656372656173656420616c6c6f77616e63652062656c6f77604482015264207a65726f60d81b6064820152fd5b80fd5b5090346101c957826003193601126101c957805191838154906105b682610c53565b8086529260019280841690811561063d57506001146105e1575b6104338686610421828b0383610cbf565b815294507f8a35acfbc15ff81a39ae7d344fd709f28e8600b4aa8c65c6b64bfe7fe36bd19b5b828610610625575050506104218260206104339582010194386105d0565b80546020878701810191909152909501948101610607565b905061043397508693506020925061042194915060ff191682840152151560051b82010194386105d0565b50503461021657816003193601126102165760095490516001600160a01b039091168152602090f35b5090346101c957826003193601126101c9576106cc7f000000000000000000000000000000000000000000000000000000000000000061127d565b926106f67f0000000000000000000000000000000000000000000000000000000000000000611379565b908251926020928385019585871067ffffffffffffffff88111761079b57509280610751838896610744998b9996528686528151998a99600f60f81b8b5260e0868c015260e08b0190610be2565b91898303908a0152610be2565b924660608801523060808801528460a088015286840360c088015251928381520193925b82811061078457505050500390f35b835185528695509381019392810192600101610775565b634e487b7160e01b845260419052602483fd5b5050346102165760203660031901126102165760209181906001600160a01b036107d6610c22565b1681526007845220549051908152f35b83346105915780600319360112610591576107ff610ce1565b600980546001600160a01b0319811690915581906001600160a01b03167f8be0079c531659141344cd1fd0a4f28419497f9722a3daafe3b4186f6b6457e08280a380f35b5050346102165760203660031901126102165760209181906001600160a01b0361086b610c22565b16815280845220549051908152f35b8284346105915780600319360112610591578151918260209266697066733a2f2f60c81b8483015280600a54906108b082610c53565b9160019081811690811561095557506001146108f0575b50505061043392916108e19103601f198101865285610cbf565b51928284938452830190610be2565b8695949350600a82527fc65a7bb8d6351c1cf70c95a316cc6a92839c986682d98bc35f958f4883f9d2a85b83831061093c575093945091925082016027019050816108e16104336108c7565b80546027848b010152879689955090920191810161091b565b90506108e1945060279250610433969593915060ff19168284015280151502820101918193946108c7565b50913461059157816003193601126105915761099a610c22565b338252600160209081528383206001600160a01b03831684529052828220546024358101929083106109d4576020846104e6858533610ea7565b634e487b7160e01b815260118552602490fd5b505034610216578160031936011261021657602090610a04611152565b9051908152f35b5050346102165781600319360112610216576020905160128152f35b5082903461021657606036600319011261021657610a43610c22565b610a4b610c3d565b91846044359460018060a01b038416815260016020528181203382526020522054906000198203610a85575b6020866104e6878787610d39565b848210610aae5750918391610aa3602096956104e695033383610ea7565b919394819350610a77565b606490602087519162461bcd60e51b8352820152601d60248201527f45524332303a20696e73756666696369656e7420616c6c6f77616e63650000006044820152fd5b5050346102165781600319360112610216576020906002549051908152f35b5050346102165780600319360112610216576020906104e6610b30610c22565b6024359033610ea7565b849084346101c957826003193601126101c95782600354610b5a81610c53565b808552916001918083169081156104945750600114610b855750505061042182610433940383610cbf565b9450600385527fc2575a0e9e593c00f959f8c92f12db2869c3395a3b0502d05e2516446f71f85b5b828610610bca57505050610421826020610433958201019461040f565b80546020878701810191909152909501948101610bad565b919082519283825260005b848110610c0e575050826000602080949584010152601f8019910116010190565b602081830181015184830182015201610bed565b600435906001600160a01b0382168203610c3857565b600080fd5b602435906001600160a01b0382168203610c3857565b90600182811c92168015610c83575b6020831014610c6d57565b634e487b7160e01b600052602260045260246000fd5b91607f1691610c62565b6040810190811067ffffffffffffffff821117610ca957604052565b634e487b7160e01b600052604160045260246000fd5b90601f8019910116810190811067ffffffffffffffff821117610ca957604052565b6009546001600160a01b03163303610cf557565b606460405162461bcd60e51b815260206004820152602060248201527f4f776e61626c653a2063616c6c6572206973206e6f7420746865206f776e65726044820152fd5b6001600160a01b03908116918215610e545716918215610e0357600082815280602052604081205491808310610daf57604082827fddf252ad1be2c89b69c2b068fc378daa952ba7f163c4a11628f55a4df523b3ef958760209652828652038282205586815220818154019055604051908152a3565b60405162461bcd60e51b815260206004820152602660248201527f45524332303a207472616e7366657220616d6f756e7420657863656564732062604482015265616c616e636560d01b6064820152608490fd5b60405162461bcd60e51b815260206004820152602360248201527f45524332303a207472616e7366657220746f20746865207a65726f206164647260448201526265737360e81b6064820152608490fd5b60405162461bcd60e51b815260206004820152602560248201527f45524332303a207472616e736665722066726f6d20746865207a65726f206164604482015264647265737360d81b6064820152608490fd5b6001600160a01b03908116918215610f585716918215610f085760207f8c5be1e5ebec7d5bd14f71427d1e84f3dd0314c0f7b2291e5b200ac8c7c3b925918360005260018252604060002085600052825280604060002055604051908152a3565b60405162461bcd60e51b815260206004820152602260248201527f45524332303a20617070726f766520746f20746865207a65726f206164647265604482015261737360f01b6064820152608490fd5b60405162461bcd60e51b8152602060048201526024808201527f45524332303a20617070726f76652066726f6d20746865207a65726f206164646044820152637265737360e01b6064820152608490fd5b60058110156110ad5780610fba5750565b600181036110075760405162461bcd60e51b815260206004820152601860248201527f45434453413a20696e76616c6964207369676e617475726500000000000000006044820152606490fd5b600281036110545760405162461bcd60e51b815260206004820152601f60248201527f45434453413a20696e76616c6964207369676e6174757265206c656e677468006044820152606490fd5b60031461105d57565b60405162461bcd60e51b815260206004820152602260248201527f45434453413a20696e76616c6964207369676e6174757265202773272076616c604482015261756560f01b6064820152608490fd5b634e487b7160e01b600052602160045260246000fd5b9291907f7fffffffffffffffffffffffffffffff5d576e7357a4501ddfe92f46681b20a083116111465791608094939160ff602094604051948552168484015260408301526060820152600093849182805260015afa156111395781516001600160a01b03811615611133579190565b50600190565b50604051903d90823e3d90fd5b50505050600090600390565b307f00000000000000000000000000000000000000000000000000000000000000006001600160a01b03161480611254575b156111ad577f000000000000000000000000000000000000000000000000000000000000000090565b60405160208101907f8b73c3c69bb8fe3d512ecc4cf759cc79239f7b179b0ffacaa9a75d522b39400f82527f000000000000000000000000000000000000000000000000000000000000000060408201527f000000000000000000000000000000000000000000000000000000000000000060608201524660808201523060a082015260a0815260c0810181811067ffffffffffffffff821117610ca95760405251902090565b507f00000000000000000000000000000000000000000000000000000000000000004614611184565b60ff81146112bb5760ff811690601f82116112a9576040519161129f83610c8d565b8252602082015290565b604051632cd44ac360e21b8152600490fd5b506040516005548160006112ce83610c53565b8083529260019081811690811561135757506001146112f8575b506112f592500382610cbf565b90565b6005600090815291507f036b6384b5eca791c62761152d0c79bb0604c104a5fb6f4eb0703f3154bb3db05b84831061133c57506112f59350508101602001386112e8565b81935090816020925483858901015201910190918492611323565b9050602092506112f594915060ff191682840152151560051b820101386112e8565b60ff811461139b5760ff811690601f82116112a9576040519161129f83610c8d565b506040516006548160006113ae83610c53565b8083529260019081811690811561135757506001146113d457506112f592500382610cbf565b6006600090815291507ff652222313e28459528d920b65115c16c04f3efc82aaedc97be59f3f377c0d3f5b84831061141857506112f59350508101602001386112e8565b819350908160209254838589010152019101909184926113ff56fea164736f6c6343000814000ac65a7bb8d6351c1cf70c95a316cc6a92839c986682d98bc35f958f4883f9d2a8610100346100cc57601f61078e38819003918201601f19168301916001600160401b038311848410176100d1578084926080946040528339810103126100cc578051906001600160a01b0380831683036100cc57602082015190811681036100cc57606060408301519201519260805260a05260c05260e0526040516106a690816100e882396080518181816085015281816101a9015261057c015260a05181818161015a01526103bc015260c05181818160cf01526105e6015260e05181818161040201526105c40152f35b600080fd5b634e487b7160e01b600052604160045260246000fdfe608060408181526004918236101561001657600080fd5b600092833560e01c9182630fb5a6b4146103eb5750816338af3eed146103a757816344b1231f1461038357816386d1a69f1461010e5750806396132521146100f2578063be9a6555146100b85763fc0c546a1461007257600080fd5b346100b457816003193601126100b457517f00000000000000000000000000000000000000000000000000000000000000006001600160a01b03168152602090f35b5080fd5b50346100b457816003193601126100b457602090517f00000000000000000000000000000000000000000000000000000000000000008152f35b50346100b457816003193601126100b457602091549051908152f35b9190503461037f578260031936011261037f57610129610561565b91610135845484610425565b928315610351578455815163a9059cbb60e01b60208083019182526001600160a01b037f00000000000000000000000000000000000000000000000000000000000000008116602485015260448085018890528452909392608081019267ffffffffffffffff928285108486111761033e577f0000000000000000000000000000000000000000000000000000000000000000169160c081018581108582111761032b5788528685527f5361666545524332303a206c6f772d6c6576656c2063616c6c206661696c656460a082015251899182919082855af1903d1561031c573d928311610309579061024793929187519261023a88601f19601f8401160185610448565b83523d8a8885013e610480565b80518381159182156102e5575b50509050156102915750907fc35bc0b152cc4084b62942d2235605f7e5db6fc6217bc7ef532ba71acf7a58ce91815193845242908401523092a280f35b915162461bcd60e51b815291820152602a60248201527f5361666545524332303a204552433230206f7065726174696f6e20646964206e6044820152691bdd081cdd58d8d9595960b21b6064820152608490fd5b838092935001031261030557820151801515810361030557808338610254565b8580fd5b634e487b7160e01b895260418552602489fd5b90610247939250606091610480565b634e487b7160e01b8b526041875260248bfd5b634e487b7160e01b8a526041865260248afd5b506020606492519162461bcd60e51b835282015260086024820152674e6f546f6b656e7360c01b6044820152fd5b8280fd5b5050346100b457816003193601126100b4576020906103a0610561565b9051908152f35b5050346100b457816003193601126100b457517f00000000000000000000000000000000000000000000000000000000000000006001600160a01b03168152602090f35b8490346100b457816003193601126100b4576020907f00000000000000000000000000000000000000000000000000000000000000008152f35b9190820391821161043257565b634e487b7160e01b600052601160045260246000fd5b90601f8019910116810190811067ffffffffffffffff82111761046a57604052565b634e487b7160e01b600052604160045260246000fd5b919290156104e25750815115610494575090565b3b1561049d5790565b60405162461bcd60e51b815260206004820152601d60248201527f416464726573733a2063616c6c20746f206e6f6e2d636f6e74726163740000006044820152606490fd5b8251909150156104f55750805190602001fd5b6040519062461bcd60e51b82528160208060048301528251908160248401526000935b82851061053b575050604492506000838284010152601f80199101168101030190fd5b8481018201518686016044015293810193859350610518565b9190820180921161043257565b6040516370a0823160e01b81523060048201526020816024817f00000000000000000000000000000000000000000000000000000000000000006001600160a01b03165afa801561068d57600090610657575b6105c2915060005490610554565b7f0000000000000000000000000000000000000000000000000000000000000000907f000000000000000000000000000000000000000000000000000000000000000061060f8382610554565b421015610651576106209042610425565b9081810291818304149015171561043257811561063b570490565b634e487b7160e01b600052601260045260246000fd5b50905090565b6020823d8211610685575b8161066f60209383610448565b8101031261068257506105c290516105b4565b80fd5b3d9150610662565b6040513d6000823e3d90fdfea164736f6c6343000814000aa164736f6c6343000814000a2f8788117e7eff1d82e926ec794901d17c78024a50270940304540a733656f0d",
  "linkReferences": {},
  "deployedLinkReferences": {}
}