{
  "_format": "hh-sol-artifact-1",
  "contractName": "MemeCoinFactory",
  "sourceName": "contracts/MemeCoinFactory.sol",
  "abi": [
    {
      "inputs": [
        {
          "internalType": "uint16",
          "name": "_platformFeeBP",
          "type": "uint16"
        },
        {
          "internalType": "uint16",
          "name": "_referralFeeBP",
          "type": "uint16"
        }
      ],
      "stateMutability": "nonpayable",
      "type": "constructor"
    },
    {
      "inputs": [],
      "name": "EnforcedPause",
      "type": "error"
    },
    {
      "inputs": [],
      "name": "ExpectedPause",
      "type": "error"
    },
    {
      "inputs": [],
      "name": "IncorrectETH",
      "type": "error"
    },
    {
      "inputs": [],
      "name": "NotAuthorized",
      "type": "error"
    },
    {
      "inputs": [],
      "name": "NotLaunched",
      "type": "error"
    },
    {
      "inputs": [
        {
          "internalType": "address",
          "name": "owner",
          "type": "address"
        }
      ],
      "name": "OwnableInvalidOwner",
      "type": "error"
    },
    {
      "inputs": [
        {
          "internalType": "address",
          "name": "account",
          "type": "address"
        }
      ],
      "name": "OwnableUnauthorizedAccount",
      "type": "error"
    },
    {
      "inputs": [],
      "name": "PriceZero",
      "type": "error"
    },
    {
      "inputs": [],
      "name": "ReentrancyGuardReentrantCall",
      "type": "error"
    },
    {
      "inputs": [
        {
          "internalType": "address",
          "name": "token",
          "type": "address"
        }
      ],
      "name": "SafeERC20FailedOperation",
      "type": "error"
    },
    {
      "inputs": [],
      "name": "TokenPaused",
      "type": "error"
    },
    {
      "inputs": [],
      "name": "ZeroAmount",
      "type": "error"
    },
    {
      "anonymous": false,
      "inputs": [
        {
          "indexed": true,
          "internalType": "address",
          "name": "token",
          "type": "address"
        },
        {
          "indexed": true,
          "internalType": "address",
          "name": "buyer",
          "type": "address"
        },
        {
          "indexed": false,
          "internalType": "uint256",
          "name": "amountAtomic",
          "type": "uint256"
        },
        {
          "indexed": false,
          "internalType": "uint256",
          "name": "costWei",
          "type": "uint256"
        },
        {
          "indexed": true,
          "internalType": "address",
          "name": "referrer",
          "type": "address"
        },
        {
          "indexed": false,
          "internalType": "uint256",
          "name": "platformShare",
          "type": "uint256"
        },
        {
          "indexed": false,
          "internalType": "uint256",
          "name": "referralShare",
          "type": "uint256"
        },
        {
          "indexed": false,
          "internalType": "uint256",
          "name": "creatorShare",
          "type": "uint256"
        }
      ],
      "name": "Bought",
      "type": "event"
    },
    {
      "anonymous": false,
      "inputs": [
        {
          "indexed": true,
          "internalType": "address",
          "name": "to",
          "type": "address"
        },
        {
          "indexed": false,
          "internalType": "uint256",
          "name": "amount",
          "type": "uint256"
        }
      ],
      "name": "ETHRescued",
      "type": "event"
    },
    {
      "anonymous": false,
      "inputs": [
        {
          "indexed": false,
          "internalType": "uint16",
          "name": "newPlatformFeeBP",
          "type": "uint16"
        },
        {
          "indexed": false,
          "internalType": "uint16",
          "name": "newReferralFeeBP",
          "type": "uint16"
        }
      ],
      "name": "FeesUpdated",
      "type": "event"
    },
    {
      "anonymous": false,
      "inputs": [
        {
          "indexed": true,
          "internalType": "address",
          "name": "token",
          "type": "address"
        },
        {
          "indexed": false,
          "internalType": "string",
          "name": "newDescription",
          "type": "string"
        },
        {
          "indexed": false,
          "internalType": "string",
          "name": "newIpfsHash",
          "type": "string"
        }
      ],
      "name": "MetadataUpdated",
      "type": "event"
    },
    {
      "anonymous": false,
      "inputs": [
        {
          "indexed": true,
          "internalType": "address",
          "name": "previousOwner",
          "type": "address"
        },
        {
          "indexed": true,
          "internalType": "address",
          "name": "newOwner",
          "type": "address"
        }
      ],
      "name": "OwnershipTransferred",
      "type": "event"
    },
    {
      "anonymous": false,
      "inputs": [
        {
          "indexed": false,
          "internalType": "address",
          "name": "account",
          "type": "address"
        }
      ],
      "name": "Paused",
      "type": "event"
    },
    {
      "anonymous": false,
      "inputs": [
        {
          "indexed": true,
          "internalType": "address",
          "name": "token",
          "type": "address"
        },
        {
          "indexed": false,
          "internalType": "uint256",
          "name": "newPriceWei",
          "type": "uint256"
        }
      ],
      "name": "PriceUpdated",
      "type": "event"
    },
    {
      "anonymous": false,
      "inputs": [
        {
          "indexed": true,
          "internalType": "address",
          "name": "token",
          "type": "address"
        },
        {
          "indexed": true,
          "internalType": "address",
          "name": "creator",
          "type": "address"
        },
        {
          "indexed": false,
          "internalType": "uint256",
          "name": "priceWei",
          "type": "uint256"
        },
        {
          "indexed": false,
          "internalType": "string",
          "name": "description",
          "type": "string"
        },
        {
          "indexed": false,
          "internalType": "string",
          "name": "ipfsHash",
          "type": "string"
        }
      ],
      "name": "TokenCreated",
      "type": "event"
    },
    {
      "anonymous": false,
      "inputs": [
        {
          "indexed": true,
          "internalType": "address",
          "name": "token",
          "type": "address"
        }
      ],
      "name": "TokenPausedEvent",
      "type": "event"
    },
    {
      "anonymous": false,
      "inputs": [
        {
          "indexed": true,
          "internalType": "address",
          "name": "token",
          "type": "address"
        },
        {
          "indexed": false,
          "internalType": "uint256",
          "name": "amount",
          "type": "uint256"
        }
      ],
      "name": "TokenRescued",
      "type": "event"
    },
    {
      "anonymous": false,
      "inputs": [
        {
          "indexed": true,
          "internalType": "address",
          "name": "token",
          "type": "address"
        }
      ],
      "name": "TokenUnpausedEvent",
      "type": "event"
    },
    {
      "anonymous": false,
      "inputs": [
        {
          "indexed": false,
          "internalType": "address",
          "name": "account",
          "type": "address"
        }
      ],
      "name": "Unpaused",
      "type": "event"
    },
    {
      "anonymous": false,
      "inputs": [
        {
          "indexed": true,
          "internalType": "address",
          "name": "token",
          "type": "address"
        },
        {
          "indexed": false,
          "internalType": "uint256",
          "name": "amount",
          "type": "uint256"
        }
      ],
      "name": "UnsoldReclaimed",
      "type": "event"
    },
    {
      "stateMutability": "payable",
      "type": "fallback"
    },
    {
      "inputs": [
        {
          "internalType": "uint256",
          "name": "",
          "type": "uint256"
        }
      ],
      "name": "allTokens",
      "outputs": [
        {
          "internalType": "address",
          "name": "token",
          "type": "address"
        },
        {
          "internalType": "address",
          "name": "creator",
          "type": "address"
        },
        {
          "internalType": "uint256",
          "name": "priceWei",
          "type": "uint256"
        },
        {
          "internalType": "string",
          "name": "description",
          "type": "string"
        },
        {
          "internalType": "string",
          "name": "ipfsHash",
          "type": "string"
        }
      ],
      "stateMutability": "view",
      "type": "function"
    },
    {
      "inputs": [
        {
          "internalType": "address",
          "name": "token_",
          "type": "address"
        },
        {
          "internalType": "uint256",
          "name": "amountAtomic",
          "type": "uint256"
        },
        {
          "internalType": "address",
          "name": "referrer",
          "type": "address"
        }
      ],
      "name": "buyToken",
      "outputs": [],
      "stateMutability": "payable",
      "type": "function"
    },
    {
      "inputs": [
        {
          "internalType": "string",
          "name": "name_",
          "type": "string"
        },
        {
          "internalType": "string",
          "name": "symbol_",
          "type": "string"
        },
        {
          "internalType": "string",
          "name": "description_",
          "type": "string"
        },
        {
          "internalType": "uint256",
          "name": "totalSupply_",
          "type": "uint256"
        },
        {
          "internalType": "uint256",
          "name": "priceWei_",
          "type": "uint256"
        },
        {
          "internalType": "string",
          "name": "ipfsHash_",
          "type": "string"
        }
      ],
      "name": "createMemeCoin",
      "outputs": [
        {
          "internalType": "address",
          "name": "tokenAddress",
          "type": "address"
        }
      ],
      "stateMutability": "nonpayable",
      "type": "function"
    },
    {
      "inputs": [
        {
          "internalType": "uint256",
          "name": "index",
          "type": "uint256"
        }
      ],
      "name": "getTokenDetails",
      "outputs": [
        {
          "internalType": "address",
          "name": "token",
          "type": "address"
        },
        {
          "internalType": "string",
          "name": "name_",
          "type": "string"
        },
        {
          "internalType": "string",
          "name": "symbol_",
          "type": "string"
        },
        {
          "internalType": "string",
          "name": "description_",
          "type": "string"
        },
        {
          "internalType": "string",
          "name": "ipfsHash_",
          "type": "string"
        },
        {
          "internalType": "uint256",
          "name": "priceWei_",
          "type": "uint256"
        },
        {
          "internalType": "address",
          "name": "creator_",
          "type": "address"
        }
      ],
      "stateMutability": "view",
      "type": "function"
    },
    {
      "inputs": [
        {
          "internalType": "address",
          "name": "token_",
          "type": "address"
        }
      ],
      "name": "getTokenDetailsByAddress",
      "outputs": [
        {
          "internalType": "address",
          "name": "token",
          "type": "address"
        },
        {
          "internalType": "string",
          "name": "name_",
          "type": "string"
        },
        {
          "internalType": "string",
          "name": "symbol_",
          "type": "string"
        },
        {
          "internalType": "string",
          "name": "description_",
          "type": "string"
        },
        {
          "internalType": "string",
          "name": "ipfsHash_",
          "type": "string"
        },
        {
          "internalType": "uint256",
          "name": "priceWei_",
          "type": "uint256"
        },
        {
          "internalType": "address",
          "name": "creator_",
          "type": "address"
        }
      ],
      "stateMutability": "view",
      "type": "function"
    },
    {
      "inputs": [
        {
          "internalType": "address",
          "name": "token_",
          "type": "address"
        }
      ],
      "name": "getTokenIndex",
      "outputs": [
        {
          "internalType": "uint256",
          "name": "",
          "type": "uint256"
        }
      ],
      "stateMutability": "view",
      "type": "function"
    },
    {
      "inputs": [
        {
          "internalType": "uint256",
          "name": "start",
          "type": "uint256"
        },
        {
          "internalType": "uint256",
          "name": "count",
          "type": "uint256"
        }
      ],
      "name": "getTokens",
      "outputs": [
        {
          "components": [
            {
              "internalType": "address",
              "name": "token",
              "type": "address"
            },
            {
              "internalType": "address",
              "name": "creator",
              "type": "address"
            },
            {
              "internalType": "uint256",
              "name": "priceWei",
              "type": "uint256"
            },
            {
              "internalType": "string",
              "name": "description",
              "type": "string"
            },
            {
              "internalType": "string",
              "name": "ipfsHash",
              "type": "string"
            }
          ],
          "internalType": "struct MemeCoinFactory.TokenInfo[]",
          "name": "page",
          "type": "tuple[]"
        }
      ],
      "stateMutability": "view",
      "type": "function"
    },
    {
      "inputs": [
        {
          "internalType": "address",
          "name": "creator_",
          "type": "address"
        }
      ],
      "name": "getTokensByCreator",
      "outputs": [
        {
          "components": [
            {
              "internalType": "address",
              "name": "token",
              "type": "address"
            },
            {
              "internalType": "address",
              "name": "creator",
              "type": "address"
            },
            {
              "internalType": "uint256",
              "name": "priceWei",
              "type": "uint256"
            },
            {
              "internalType": "string",
              "name": "description",
              "type": "string"
            },
            {
              "internalType": "string",
              "name": "ipfsHash",
              "type": "string"
            }
          ],
          "internalType": "struct MemeCoinFactory.TokenInfo[]",
          "name": "",
          "type": "tuple[]"
        }
      ],
      "stateMutability": "view",
      "type": "function"
    },
    {
      "inputs": [],
      "name": "owner",
      "outputs": [
        {
          "internalType": "address",
          "name": "",
          "type": "address"
        }
      ],
      "stateMutability": "view",
      "type": "function"
    },
    {
      "inputs": [],
      "name": "pause",
      "outputs": [],
      "stateMutability": "nonpayable",
      "type": "function"
    },
    {
      "inputs": [
        {
          "internalType": "address",
          "name": "token_",
          "type": "address"
        }
      ],
      "name": "pauseToken",
      "outputs": [],
      "stateMutability": "nonpayable",
      "type": "function"
    },
    {
      "inputs": [],
      "name": "paused",
      "outputs": [
        {
          "internalType": "bool",
          "name": "",
          "type": "bool"
        }
      ],
      "stateMutability": "view",
      "type": "function"
    },
    {
      "inputs": [],
      "name": "platformFeeBP",
      "outputs": [
        {
          "internalType": "uint16",
          "name": "",
          "type": "uint16"
        }
      ],
      "stateMutability": "view",
      "type": "function"
    },
    {
      "inputs": [
        {
          "internalType": "address",
          "name": "token_",
          "type": "address"
        }
      ],
      "name": "priceOf",
      "outputs": [
        {
          "internalType": "uint256",
          "name": "",
          "type": "uint256"
        }
      ],
      "stateMutability": "view",
      "type": "function"
    },
    {
      "inputs": [
        {
          "internalType": "address",
          "name": "token_",
          "type": "address"
        },
        {
          "internalType": "uint256",
          "name": "amount",
          "type": "uint256"
        }
      ],
      "name": "reclaimUnsold",
      "outputs": [],
      "stateMutability": "nonpayable",
      "type": "function"
    },
    {
      "inputs": [],
      "name": "referralFeeBP",
      "outputs": [
        {
          "internalType": "uint16",
          "name": "",
          "type": "uint16"
        }
      ],
      "stateMutability": "view",
      "type": "function"
    },
    {
      "inputs": [],
      "name": "renounceOwnership",
      "outputs": [],
      "stateMutability": "nonpayable",
      "type": "function"
    },
    {
      "inputs": [
        {
          "internalType": "address",
          "name": "token_",
          "type": "address"
        },
        {
          "internalType": "uint256",
          "name": "amount",
          "type": "uint256"
        }
      ],
      "name": "rescueERC20",
      "outputs": [],
      "stateMutability": "nonpayable",
      "type": "function"
    },
    {
      "inputs": [
        {
          "internalType": "address",
          "name": "",
          "type": "address"
        }
      ],
      "name": "tokenIndexPlusOne",
      "outputs": [
        {
          "internalType": "uint256",
          "name": "",
          "type": "uint256"
        }
      ],
      "stateMutability": "view",
      "type": "function"
    },
    {
      "inputs": [
        {
          "internalType": "address",
          "name": "",
          "type": "address"
        }
      ],
      "name": "tokenPaused",
      "outputs": [
        {
          "internalType": "bool",
          "name": "",
          "type": "bool"
        }
      ],
      "stateMutability": "view",
      "type": "function"
    },
    {
      "inputs": [],
      "name": "totalTokens",
      "outputs": [
        {
          "internalType": "uint256",
          "name": "",
          "type": "uint256"
        }
      ],
      "stateMutability": "view",
      "type": "function"
    },
    {
      "inputs": [
        {
          "internalType": "address",
          "name": "newOwner",
          "type": "address"
        }
      ],
      "name": "transferOwnership",
      "outputs": [],
      "stateMutability": "nonpayable",
      "type": "function"
    },
    {
      "inputs": [],
      "name": "unpause",
      "outputs": [],
      "stateMutability": "nonpayable",
      "type": "function"
    },
    {
      "inputs": [
        {
          "internalType": "address",
          "name": "token_",
          "type": "address"
        }
      ],
      "name": "unpauseToken",
      "outputs": [],
      "stateMutability": "nonpayable",
      "type": "function"
    },
    {
      "inputs": [
        {
          "internalType": "address",
          "name": "token_",
          "type": "address"
        }
      ],
      "name": "unsoldSupply",
      "outputs": [
        {
          "internalType": "uint256",
          "name": "",
          "type": "uint256"
        }
      ],
      "stateMutability": "view",
      "type": "function"
    },
    {
      "inputs": [
        {
          "internalType": "uint16",
          "name": "_pf",
          "type": "uint16"
        },
        {
          "internalType": "uint16",
          "name": "_rf",
          "type": "uint16"
        }
      ],
      "name": "updateFees",
      "outputs": [],
      "stateMutability": "nonpayable",
      "type": "function"
    },
    {
      "inputs": [
        {
          "internalType": "address",
          "name": "token_",
          "type": "address"
        },
        {
          "internalType": "string",
          "name": "newDescription",
          "type": "string"
        },
        {
          "internalType": "string",
          "name": "newIpfsHash",
          "type": "string"
        }
      ],
      "name": "updateMetadata",
      "outputs": [],
      "stateMutability": "nonpayable",
      "type": "function"
    },
    {
      "inputs": [
        {
          "internalType": "address",
          "name": "token_",
          "type": "address"
        },
        {
          "internalType": "uint256",
          "name": "newPriceWei",
          "type": "uint256"
        }
      ],
      "name": "updatePrice",
      "outputs": [],
      "stateMutability": "nonpayable",
      "type": "function"
    },
    {
      "inputs": [
        {
          "internalType": "uint256",
          "name": "amount",
          "type": "uint256"
        }
      ],
      "name": "withdrawETH",
      "outputs": [],
      "stateMutability": "nonpayable",
      "type": "function"
    },
    {
      "stateMutability": "payable",
      "type": "receive"
    }
  ],
  "bytecode": "0x60806040523480156200001157600080fd5b506040516200488d3803806200488d833981016040819052620000349162000152565b33806200005c57604051631e4fbdf760e01b8152600060048201526024015b60405180910390fd5b6200006781620000ea565b50600180556127106200007b82846200018a565b61ffff1610620000be5760405162461bcd60e51b815260206004820152600d60248201526c08ccacae640e8dede40d0d2ced609b1b604482015260640162000053565b6006805461ffff928316620100000263ffffffff199091169290931691909117919091179055620001bb565b600080546001600160a01b038381166001600160a01b0319831681178455604051919092169283917f8be0079c531659141344cd1fd0a4f28419497f9722a3daafe3b4186f6b6457e09190a35050565b805161ffff811681146200014d57600080fd5b919050565b600080604083850312156200016657600080fd5b62000171836200013a565b915062000181602084016200013a565b90509250929050565b61ffff818116838216019080821115620001b457634e487b7160e01b600052601160045260246000fd5b5092915050565b6146c280620001cb6000396000f3fe608060405260043610620001f35760003560e01c80637c41ad2c116200010f578063c1e0372811620000a3578063f14210a6116200006d578063f14210a61462000655578063f2fde38b146200067a578063f3d2350e146200069f578063ff96092a14620006c45762000235565b8063c1e0372814620005af578063d5c7127514620005d4578063d634b41914620005f9578063dc4ec9be146200061e5762000235565b80638995881d11620000e55780638995881d14620004fd5780638cd4426d14620005315780638da5cb5b1462000556578063b95ed06f146200058a5762000235565b80637c41ad2c14620004a95780637e1c0c0914620004ce5780638456cb5914620004e55762000235565b8063494cfc6c1162000187578063634282af116200015d578063634282af146200041d57806366c0bd241462000455578063692bf4a8146200047a578063715018a614620004915762000235565b8063494cfc6c146200039e5780635c975abb14620003d25780635e62bf9414620003f85762000235565b806335a62e6811620001c957806335a62e68146200030b5780633b3bff0f146200033c5780633f4ba83a1462000361578063457972de14620003795762000235565b80630e3f0cfc146200026d5780633338c5b6146200029457806333f3f07814620002d75762000235565b36620002355760405162461bcd60e51b815260206004820152600c60248201526b2ab9b290313abcaa37b5b2b760a11b60448201526064015b60405180910390fd5b60405162461bcd60e51b815260206004820152600c60248201526b2ab9b290313abcaa37b5b2b760a11b60448201526064016200022c565b3480156200027a57600080fd5b50620002926200028c3660046200215f565b620006e1565b005b348015620002a157600080fd5b50620002b9620002b33660046200218e565b620007fd565b604051620002ce979695949392919062002202565b60405180910390f35b348015620002e457600080fd5b50620002fc620002f63660046200218e565b620008d7565b604051908152602001620002ce565b3480156200031857600080fd5b50620002fc6200032a3660046200218e565b60046020526000908152604090205481565b3480156200034957600080fd5b50620002926200035b3660046200218e565b6200094b565b3480156200036e57600080fd5b50620002926200099e565b3480156200038657600080fd5b5062000292620003983660046200215f565b620009b4565b348015620003ab57600080fd5b50620003c3620003bd36600462002283565b62000ae5565b604051620002ce9190620022a6565b348015620003df57600080fd5b5060025460ff165b6040519015158152602001620002ce565b3480156200040557600080fd5b506200029262000417366004620023ae565b62000d68565b3480156200042a57600080fd5b50620004426200043c3660046200243a565b62000e9d565b604051620002ce95949392919062002454565b3480156200046257600080fd5b50620002fc620004743660046200218e565b62001010565b620002926200048b366004620024a9565b6200105f565b3480156200049e57600080fd5b506200029262001362565b348015620004b657600080fd5b5062000292620004c83660046200218e565b62001378565b348015620004db57600080fd5b50600354620002fc565b348015620004f257600080fd5b5062000292620013ce565b3480156200050a57600080fd5b50620003e76200051c3660046200218e565b60056020526000908152604090205460ff1681565b3480156200053e57600080fd5b5062000292620005503660046200215f565b620013e2565b3480156200056357600080fd5b506000546001600160a01b03165b6040516001600160a01b039091168152602001620002ce565b3480156200059757600080fd5b50620002fc620005a93660046200218e565b6200145d565b348015620005bc57600080fd5b50620002b9620005ce3660046200243a565b620014d4565b348015620005e157600080fd5b50620003c3620005f33660046200218e565b62001788565b3480156200060657600080fd5b506200057162000618366004620024f0565b62001a95565b3480156200062b57600080fd5b50600654620006419062010000900461ffff1681565b60405161ffff9091168152602001620002ce565b3480156200066257600080fd5b5062000292620006743660046200243a565b62001cc6565b3480156200068757600080fd5b5062000292620006993660046200218e565b62001da2565b348015620006ac57600080fd5b5062000292620006be366004620025ef565b62001de6565b348015620006d157600080fd5b50600654620006419061ffff1681565b620006eb62001ea3565b6001600160a01b038216600090815260046020526040812054908190036200072657604051638dda39df60e01b815260040160405180910390fd5b60006003620007376001846200263d565b815481106200074a576200074a62002653565b6000918252602090912060059091020160018101549091506001600160a01b031633146200078b5760405163ea8e4eb560e01b815260040160405180910390fd5b6001810154620007a9906001600160a01b0386811691168562001ece565b836001600160a01b03167fb42c9fecfb68f9bf84886f05b85865be2fda69a3ec869651d1320d8f528be6bb84604051620007e591815260200190565b60405180910390a25050620007f960018055565b5050565b6001600160a01b03811660009081526004602052604081205460609081908190819085908190808203620008455760405162461bcd60e51b81526004016200022c9062002669565b3063c1e03728620008586001846200263d565b6040518263ffffffff1660e01b81526004016200087791815260200190565b600060405180830381865afa15801562000895573d6000803e3d6000fd5b505050506040513d6000823e601f3d908101601f19168201604052620008bf919081019062002744565b959f949e50929c50909a509850965090945092505050565b6040516370a0823160e01b81523060048201526000906001600160a01b038316906370a0823190602401602060405180830381865afa1580156200091f573d6000803e3d6000fd5b505050506040513d601f19601f820116820180604052508101906200094591906200282d565b92915050565b6200095562001f22565b6001600160a01b038116600081815260056020526040808220805460ff19169055517f7236530905f7db97a79e0d447edb198efa7cc11d321386a4bc4f01c9dcaef73d9190a250565b620009a862001f22565b620009b262001f51565b565b620009be62001fa5565b80600003620009e057604051637294708f60e11b815260040160405180910390fd5b6001600160a01b0382166000908152600460205260408120549081900362000a1b57604051638dda39df60e01b815260040160405180910390fd5b6000600362000a2c6001846200263d565b8154811062000a3f5762000a3f62002653565b6000918252602090912060059091020160018101549091506001600160a01b0316331480159062000a7b57506000546001600160a01b03163314155b1562000a9a5760405163ea8e4eb560e01b815260040160405180910390fd5b600281018390556040518381526001600160a01b038516907f0d86730737b142fc160892fa8a0f2db687a92a0e294d1ad70624cf5acef03b849060200160405180910390a250505050565b60035460609060008162000afa858762002847565b1162000b125762000b0c848662002847565b62000b14565b815b905062000b2285826200263d565b67ffffffffffffffff81111562000b3d5762000b3d6200269c565b60405190808252806020026020018201604052801562000b7a57816020015b62000b66620020fa565b81526020019060019003908162000b5c5790505b509250845b8181101562000d5f576003818154811062000b9e5762000b9e62002653565b60009182526020918290206040805160a081018252600590930290910180546001600160a01b0390811684526001820154169383019390935260028301549082015260038201805491929160608401919062000bfa906200285d565b80601f016020809104026020016040519081016040528092919081815260200182805462000c28906200285d565b801562000c795780601f1062000c4d5761010080835404028352916020019162000c79565b820191906000526020600020905b81548152906001019060200180831162000c5b57829003601f168201915b5050505050815260200160048201805462000c94906200285d565b80601f016020809104026020016040519081016040528092919081815260200182805462000cc2906200285d565b801562000d135780601f1062000ce75761010080835404028352916020019162000d13565b820191906000526020600020905b81548152906001019060200180831162000cf557829003601f168201915b50505050508152505084878362000d2b91906200263d565b8151811062000d3e5762000d3e62002653565b6020026020010181905250808062000d569062002899565b91505062000b7f565b50505092915050565b6001600160a01b0385166000908152600460205260408120549081900362000da45760405162461bcd60e51b81526004016200022c9062002669565b6000600362000db56001846200263d565b8154811062000dc85762000dc862002653565b6000918252602090912060059091020160018101549091506001600160a01b0316331462000e275760405162461bcd60e51b815260206004820152600b60248201526a2737ba1031b932b0ba37b960a91b60448201526064016200022c565b6003810162000e3886888362002907565b506004810162000e4a84868362002907565b50866001600160a01b03167f6c1850fce35387a891e82ca88e975790ab6f0709e9ed6842e01397f296012a7e8787878760405162000e8c9493929190620029fe565b60405180910390a250505050505050565b6003818154811062000eae57600080fd5b600091825260209091206005909102018054600182015460028301546003840180546001600160a01b03948516965092909316939092909162000ef1906200285d565b80601f016020809104026020016040519081016040528092919081815260200182805462000f1f906200285d565b801562000f705780601f1062000f445761010080835404028352916020019162000f70565b820191906000526020600020905b81548152906001019060200180831162000f5257829003601f168201915b50505050509080600401805462000f87906200285d565b80601f016020809104026020016040519081016040528092919081815260200182805462000fb5906200285d565b8015620010065780601f1062000fda5761010080835404028352916020019162001006565b820191906000526020600020905b81548152906001019060200180831162000fe857829003601f168201915b5050505050905085565b6001600160a01b0381166000908152600460205260408120548082036200104b5760405162461bcd60e51b81526004016200022c9062002669565b620010586001826200263d565b9392505050565b6200106962001ea3565b6200107362001fa5565b816000036200109557604051631f2a200560e01b815260040160405180910390fd5b6001600160a01b03831660009081526005602052604090205460ff1615620010d05760405163e779249560e01b815260040160405180910390fd5b6001600160a01b038316600090815260046020526040812054908190036200110b57604051638dda39df60e01b815260040160405180910390fd5b600060036200111c6001846200263d565b815481106200112f576200112f62002653565b906000526020600020906005020190506000670de0b6b3a76400008583600201546200115c919062002a34565b62001168919062002a4e565b90508034146200118b5760405163d183fe4360e01b815260040160405180910390fd5b60065460009061271090620011a59061ffff168462002a34565b620011b1919062002a4e565b905060006001600160a01b03861615620011f45760065461271090620011e29062010000900461ffff168562002a34565b620011ee919062002a4e565b620011f7565b60005b90506000816200120884866200263d565b6200121491906200263d565b905082156200125957600080546040516001600160a01b039091169185156108fc02918691818181858888f1935050505015801562001257573d6000803e3d6000fd5b505b811562001299576040516001600160a01b0388169083156108fc029084906000818181858888f1935050505015801562001297573d6000803e3d6000fd5b505b60018501546040516001600160a01b039091169082156108fc029083906000818181858888f19350505050158015620012d6573d6000803e3d6000fd5b50620012ed6001600160a01b038a16338a62001ece565b604080518981526020810186905290810184905260608101839052608081018290526001600160a01b038089169133918c16907fa4d1d47447ad64a0c581f05071df4ce987ba94440d913925dc004a21f28f42269060a00160405180910390a45050505050506200135d60018055565b505050565b6200136c62001f22565b620009b2600062001fca565b6200138262001f22565b6001600160a01b038116600081815260056020526040808220805460ff19166001179055517f32a6dcd04455c92a601afd4a2aa0ee840ddab8a4383114e4f00ecf91324329339190a250565b620013d862001f22565b620009b26200201a565b620013ec62001f22565b62001415620014036000546001600160a01b031690565b6001600160a01b038416908362001ece565b816001600160a01b03167fe82be315ba1a0d0362d09d5cf59781f214b53a74eb978c35b76ad687099c670c826040516200145191815260200190565b60405180910390a25050565b6001600160a01b038116600090815260046020526040812054808203620014985760405162461bcd60e51b81526004016200022c9062002669565b6003620014a76001836200263d565b81548110620014ba57620014ba62002653565b906000526020600020906005020160020154915050919050565b600060608060608060008060038054905088106200152b5760405162461bcd60e51b8152602060048201526013602482015272496e646578206f7574206f6620626f756e647360681b60448201526064016200022c565b60006003898154811062001543576200154362002653565b6000918252602082206005909102018054604080516306fdde0360e01b815290516001600160a01b039092169b509193508a926306fdde0392600480820193918290030181865afa1580156200159d573d6000803e3d6000fd5b505050506040513d6000823e601f3d908101601f19168201604052620015c7919081019062002a71565b9650876001600160a01b03166395d89b416040518163ffffffff1660e01b8152600401600060405180830381865afa15801562001608573d6000803e3d6000fd5b505050506040513d6000823e601f3d908101601f1916820160405262001632919081019062002a71565b955080600301805462001645906200285d565b80601f016020809104026020016040519081016040528092919081815260200182805462001673906200285d565b8015620016c45780601f106200169857610100808354040283529160200191620016c4565b820191906000526020600020905b815481529060010190602001808311620016a657829003601f168201915b50505050509450806004018054620016dc906200285d565b80601f01602080910402602001604051908101604052809291908181526020018280546200170a906200285d565b80156200175b5780601f106200172f576101008083540402835291602001916200175b565b820191906000526020600020905b8154815290600101906020018083116200173d57829003601f168201915b50505060028401546001909401549a9c999b509799969891975091956001600160a01b0316945092505050565b6003546060906000805b828110156200180357846001600160a01b031660038281548110620017bb57620017bb62002653565b60009182526020909120600160059092020101546001600160a01b031603620017ee5781620017ea8162002899565b9250505b80620017fa8162002899565b91505062001792565b5060008167ffffffffffffffff8111156200182257620018226200269c565b6040519080825280602002602001820160405280156200185f57816020015b6200184b620020fa565b815260200190600190039081620018415790505b5090506000805b8481101562001a8a57866001600160a01b0316600382815481106200188f576200188f62002653565b60009182526020909120600160059092020101546001600160a01b03160362001a755760038181548110620018c857620018c862002653565b60009182526020918290206040805160a081018252600590930290910180546001600160a01b0390811684526001820154169383019390935260028301549082015260038201805491929160608401919062001924906200285d565b80601f016020809104026020016040519081016040528092919081815260200182805462001952906200285d565b8015620019a35780601f106200197757610100808354040283529160200191620019a3565b820191906000526020600020905b8154815290600101906020018083116200198557829003601f168201915b50505050508152602001600482018054620019be906200285d565b80601f0160208091040260200160405190810160405280929190818152602001828054620019ec906200285d565b801562001a3d5780601f1062001a115761010080835404028352916020019162001a3d565b820191906000526020600020905b81548152906001019060200180831162001a1f57829003601f168201915b50505050508152505083838062001a549062002899565b94508151811062001a695762001a6962002653565b60200260200101819052505b8062001a818162002899565b91505062001866565b509095945050505050565b600062001aa162001ea3565b62001aab62001fa5565b8360000362001acd57604051637294708f60e11b815260040160405180910390fd5b60008b8b8b8b8933898960405162001ae5906200213b565b62001af898979695949392919062002ab2565b604051809103906000f08015801562001b15573d6000803e3d6000fd5b50905080915060036040518060a00160405280846001600160a01b03168152602001336001600160a01b031681526020018781526020018a8a8080601f016020809104026020016040519081016040528093929190818152602001838380828437600092019190915250505090825250604080516020601f8901819004810282018101909252878152918101919088908890819084018382808284376000920182905250939094525050835460018082018655948252602091829020845160059092020180546001600160a01b03199081166001600160a01b039384161782559285015195810180549093169590911694909417905550604081015160028301556060810151909190600382019062001c2f908262002b19565b506080820151600482019062001c46908262002b19565b50506003546001600160a01b038416600081815260046020526040908190209290925590513392507f75c1f35492cd2bcb2820d5ff2434b9dc6d19432975f20761140109f0844a7b8a9062001ca59089908d908d908b908b9062002be6565b60405180910390a35062001cb860018055565b9a9950505050505050505050565b62001cd062001f22565b8047101562001d155760405162461bcd60e51b815260206004820152601060248201526f092dce6eaccccd2c6d2cadce8408aa8960831b60448201526064016200022c565b600080546040516001600160a01b039091169183156108fc02918491818181858888f1935050505015801562001d4f573d6000803e3d6000fd5b506000546001600160a01b03166001600160a01b03167fb3579861130e4da8bb7b87c54d2d139937f23bcd6e4ebed9e75d0f78ab1cc1188260405162001d9791815260200190565b60405180910390a250565b62001dac62001f22565b6001600160a01b03811662001dd857604051631e4fbdf760e01b8152600060048201526024016200022c565b62001de38162001fca565b50565b62001df062001f22565b61271062001dff828462002c17565b61ffff161062001e425760405162461bcd60e51b815260206004820152600d60248201526c08ccacae640e8dede40d0d2ced609b1b60448201526064016200022c565b6006805461ffff84811663ffffffff19909216821762010000918516918202179092556040805191825260208201929092527f2ac80c14c28700f7b5e36f947d572149fe2e3947bac32c3a8c098f3e03722c11910160405180910390a15050565b60026001540362001ec757604051633ee5aeb560e01b815260040160405180910390fd5b6002600155565b604080516001600160a01b038416602482015260448082018490528251808303909101815260649091019091526020810180516001600160e01b031663a9059cbb60e01b1790526200135d9084906200205a565b6000546001600160a01b03163314620009b25760405163118cdaa760e01b81523360048201526024016200022c565b62001f5b620020d6565b6002805460ff191690557f5db9ee0a495bf2e6ff9c91a7834c1ba4fdd244a5e8aa4e537bd38aeae4b073aa335b6040516001600160a01b03909116815260200160405180910390a1565b60025460ff1615620009b25760405163d93c066560e01b815260040160405180910390fd5b600080546001600160a01b038381166001600160a01b0319831681178455604051919092169283917f8be0079c531659141344cd1fd0a4f28419497f9722a3daafe3b4186f6b6457e09190a35050565b6200202462001fa5565b6002805460ff191660011790557f62e78cea01bee320cd4e420270b5ea74000d11b0c9f74754ebdbfc544b05a25862001f883390565b600080602060008451602086016000885af1806200207e576040513d6000823e3d81fd5b50506000513d9150811562002098578060011415620020a5565b6001600160a01b0384163b155b15620020d057604051635274afe760e01b81526001600160a01b03851660048201526024016200022c565b50505050565b60025460ff16620009b257604051638dfc202b60e01b815260040160405180910390fd5b6040518060a0016040528060006001600160a01b0316815260200160006001600160a01b031681526020016000815260200160608152602001606081525090565b611a508062002c3d83390190565b6001600160a01b038116811462001de357600080fd5b600080604083850312156200217357600080fd5b8235620021808162002149565b946020939093013593505050565b600060208284031215620021a157600080fd5b8135620010588162002149565b60005b83811015620021cb578181015183820152602001620021b1565b50506000910152565b60008151808452620021ee816020860160208601620021ae565b601f01601f19169290920160200192915050565b600060018060a01b03808a16835260e060208401526200222660e084018a620021d4565b83810360408501526200223a818a620021d4565b90508381036060850152620022508189620021d4565b90508381036080850152620022668188620021d4565b60a0850196909652509290921660c0909101525095945050505050565b600080604083850312156200229757600080fd5b50508035926020909101359150565b60006020808301818452808551808352604092508286019150828160051b87010184880160005b838110156200235457888303603f19018552815180516001600160a01b039081168552888201511688850152868101518785015260608082015160a082870181905291906200231f83880182620021d4565b92505050608080830151925085820381870152506200233f8183620021d4565b968901969450505090860190600101620022cd565b509098975050505050505050565b60008083601f8401126200237557600080fd5b50813567ffffffffffffffff8111156200238e57600080fd5b602083019150836020828501011115620023a757600080fd5b9250929050565b600080600080600060608688031215620023c757600080fd5b8535620023d48162002149565b9450602086013567ffffffffffffffff80821115620023f257600080fd5b6200240089838a0162002362565b909650945060408801359150808211156200241a57600080fd5b50620024298882890162002362565b969995985093965092949392505050565b6000602082840312156200244d57600080fd5b5035919050565b6001600160a01b038681168252851660208201526040810184905260a0606082018190526000906200248990830185620021d4565b82810360808401526200249d8185620021d4565b98975050505050505050565b600080600060608486031215620024bf57600080fd5b8335620024cc8162002149565b9250602084013591506040840135620024e58162002149565b809150509250925092565b60008060008060008060008060008060c08b8d0312156200251057600080fd5b8a3567ffffffffffffffff808211156200252957600080fd5b620025378e838f0162002362565b909c509a5060208d01359150808211156200255157600080fd5b6200255f8e838f0162002362565b909a50985060408d01359150808211156200257957600080fd5b620025878e838f0162002362565b909850965060608d0135955060808d0135945060a08d0135915080821115620025af57600080fd5b50620025be8d828e0162002362565b915080935050809150509295989b9194979a5092959850565b803561ffff81168114620025ea57600080fd5b919050565b600080604083850312156200260357600080fd5b6200260e83620025d7565b91506200261e60208401620025d7565b90509250929050565b634e487b7160e01b600052601160045260246000fd5b8181038181111562000945576200094562002627565b634e487b7160e01b600052603260045260246000fd5b6020808252600c908201526b139bdd081b185d5b98da195960a21b604082015260600190565b8051620025ea8162002149565b634e487b7160e01b600052604160045260246000fd5b600082601f830112620026c457600080fd5b815167ffffffffffffffff80821115620026e257620026e26200269c565b604051601f8301601f19908116603f011681019082821181831017156200270d576200270d6200269c565b816040528381528660208588010111156200272757600080fd5b6200273a846020830160208901620021ae565b9695505050505050565b600080600080600080600060e0888a0312156200276057600080fd5b6200276b886200268f565b9650602088015167ffffffffffffffff808211156200278957600080fd5b620027978b838c01620026b2565b975060408a0151915080821115620027ae57600080fd5b620027bc8b838c01620026b2565b965060608a0151915080821115620027d357600080fd5b620027e18b838c01620026b2565b955060808a0151915080821115620027f857600080fd5b50620028078a828b01620026b2565b93505060a088015191506200281f60c089016200268f565b905092959891949750929550565b6000602082840312156200284057600080fd5b5051919050565b8082018082111562000945576200094562002627565b600181811c908216806200287257607f821691505b6020821081036200289357634e487b7160e01b600052602260045260246000fd5b50919050565b600060018201620028ae57620028ae62002627565b5060010190565b601f8211156200135d57600081815260208120601f850160051c81016020861015620028de5750805b601f850160051c820191505b81811015620028ff57828155600101620028ea565b505050505050565b67ffffffffffffffff8311156200292257620029226200269c565b6200293a836200293383546200285d565b83620028b5565b6000601f841160018114620029715760008515620029585750838201355b600019600387901b1c1916600186901b178355620029ce565b600083815260209020601f19861690835b82811015620029a4578685013582556020948501946001909201910162002982565b5086821015620029c25760001960f88860031b161c19848701351681555b505060018560011b0183555b5050505050565b81835281816020850137506000828201602090810191909152601f909101601f19169091010190565b60408152600062002a14604083018688620029d5565b828103602084015262002a29818587620029d5565b979650505050505050565b808202811582820484141762000945576200094562002627565b60008262002a6c57634e487b7160e01b600052601260045260246000fd5b500490565b60006020828403121562002a8457600080fd5b815167ffffffffffffffff81111562002a9c57600080fd5b62002aaa84828501620026b2565b949350505050565b60a08152600062002ac860a083018a8c620029d5565b828103602084015262002add81898b620029d5565b604084018890526001600160a01b03871660608501528381036080850152905062002b0a818587620029d5565b9b9a5050505050505050505050565b815167ffffffffffffffff81111562002b365762002b366200269c565b62002b4e8162002b4784546200285d565b84620028b5565b602080601f83116001811462002b86576000841562002b6d5750858301515b600019600386901b1c1916600185901b178555620028ff565b600085815260208120601f198616915b8281101562002bb75788860151825594840194600190910190840162002b96565b508582101562002bd65787850151600019600388901b60f8161c191681555b5050505050600190811b01905550565b85815260606020820152600062002c02606083018688620029d5565b82810360408401526200249d818587620029d5565b61ffff81811683821601908082111562002c355762002c3562002627565b509291505056fe6101606040523480156200001257600080fd5b5060405162001a5038038062001a50833981016040819052620000359162000598565b338580604051806040016040528060018152602001603160f81b81525088888160039081620000659190620006e4565b506004620000748282620006e4565b50620000869150839050600562000217565b610120526200009781600662000217565b61014052815160208084019190912060e052815190820120610100524660a0526200012560e05161010051604080517f8b73c3c69bb8fe3d512ecc4cf759cc79239f7b179b0ffacaa9a75d522b39400f60208201529081019290925260608201524660808201523060a082015260009060c00160405160208183030381529060405280519060200120905090565b60805250503060c052506001600160a01b0381166200015f57604051631e4fbdf760e01b8152600060048201526024015b60405180910390fd5b6200016a8162000250565b506001600160a01b038216620001935760405163d92e233d60e01b815260040160405180910390fd5b600385511080620001a5575060038451105b15620001c457604051639432241960e01b815260040160405180910390fd5b82600003620001e65760405163c16f3a9360e01b815260040160405180910390fd5b6009620001f48282620006e4565b50620002013384620002a2565b6200020c82620002e0565b50505050506200082c565b600060208351101562000237576200022f8362000324565b90506200024a565b81620002448482620006e4565b5060ff90505b92915050565b600880546001600160a01b038381166001600160a01b0319831681179093556040519116919082907f8be0079c531659141344cd1fd0a4f28419497f9722a3daafe3b4186f6b6457e090600090a35050565b6001600160a01b038216620002ce5760405163ec442f0560e01b81526000600482015260240162000156565b620002dc6000838362000367565b5050565b620002ea6200049a565b6001600160a01b0381166200031657604051631e4fbdf760e01b81526000600482015260240162000156565b620003218162000250565b50565b600080829050601f8151111562000352578260405163305a27a960e01b8152600401620001569190620007b0565b80516200035f82620007e5565b179392505050565b6001600160a01b038316620003965780600260008282546200038a91906200080a565b909155506200040a9050565b6001600160a01b03831660009081526020819052604090205481811015620003eb5760405163391434e360e21b81526001600160a01b0385166004820152602481018290526044810183905260640162000156565b6001600160a01b03841660009081526020819052604090209082900390555b6001600160a01b038216620004285760028054829003905562000447565b6001600160a01b03821660009081526020819052604090208054820190555b816001600160a01b0316836001600160a01b03167fddf252ad1be2c89b69c2b068fc378daa952ba7f163c4a11628f55a4df523b3ef836040516200048d91815260200190565b60405180910390a3505050565b6008546001600160a01b03163314620004c95760405163118cdaa760e01b815233600482015260240162000156565b565b634e487b7160e01b600052604160045260246000fd5b60005b83811015620004fe578181015183820152602001620004e4565b50506000910152565b600082601f8301126200051957600080fd5b81516001600160401b0380821115620005365762000536620004cb565b604051601f8301601f19908116603f01168101908282118183101715620005615762000561620004cb565b816040528381528660208588010111156200057b57600080fd5b6200058e846020830160208901620004e1565b9695505050505050565b600080600080600060a08688031215620005b157600080fd5b85516001600160401b0380821115620005c957600080fd5b620005d789838a0162000507565b96506020880151915080821115620005ee57600080fd5b620005fc89838a0162000507565b604089015160608a0151919750955091506001600160a01b03821682146200062357600080fd5b6080880151919350808211156200063957600080fd5b50620006488882890162000507565b9150509295509295909350565b600181811c908216806200066a57607f821691505b6020821081036200068b57634e487b7160e01b600052602260045260246000fd5b50919050565b601f821115620006df57600081815260208120601f850160051c81016020861015620006ba5750805b601f850160051c820191505b81811015620006db57828155600101620006c6565b5050505b505050565b81516001600160401b03811115620007005762000700620004cb565b620007188162000711845462000655565b8462000691565b602080601f831160018114620007505760008415620007375750858301515b600019600386901b1c1916600185901b178555620006db565b600085815260208120601f198616915b82811015620007815788860151825594840194600190910190840162000760565b5085821015620007a05787850151600019600388901b60f8161c191681555b5050505050600190811b01905550565b6020815260008251806020840152620007d1816040850160208701620004e1565b601f01601f19169190910160400192915050565b805160208083015191908110156200068b5760001960209190910360031b1b16919050565b808201808211156200024a57634e487b7160e01b600052601160045260246000fd5b60805160a05160c05160e0516101005161012051610140516111c9620008876000396000610913015260006108e60152600061080f015260006107e7015260006107420152600061076c0152600061079601526111c96000f3fe608060405234801561001057600080fd5b50600436106101165760003560e01c80637ecebe00116100a2578063a9059cbb11610071578063a9059cbb14610224578063c623674f14610237578063d505accf1461023f578063dd62ed3e14610252578063f2fde38b1461028b57600080fd5b80637ecebe00146101d357806384b0196e146101e65780638da5cb5b1461020157806395d89b411461021c57600080fd5b8063313ce567116100e9578063313ce567146101815780633644e515146101905780633c130d901461019857806370a08231146101a0578063715018a6146101c957600080fd5b806306fdde031461011b578063095ea7b31461013957806318160ddd1461015c57806323b872dd1461016e575b600080fd5b61012361029e565b6040516101309190610e77565b60405180910390f35b61014c610147366004610ead565b610330565b6040519015158152602001610130565b6002545b604051908152602001610130565b61014c61017c366004610ed7565b61034a565b60405160128152602001610130565b61016061036e565b61012361037d565b6101606101ae366004610f13565b6001600160a01b031660009081526020819052604090205490565b6101d16103a5565b005b6101606101e1366004610f13565b6103b9565b6101ee6103d7565b6040516101309796959493929190610f2e565b6008546040516001600160a01b039091168152602001610130565b61012361041d565b61014c610232366004610ead565b61042c565b61012361043a565b6101d161024d366004610fc4565b6104c8565b610160610260366004611037565b6001600160a01b03918216600090815260016020908152604080832093909416825291909152205490565b6101d1610299366004610f13565b610607565b6060600380546102ad9061106a565b80601f01602080910402602001604051908101604052809291908181526020018280546102d99061106a565b80156103265780601f106102fb57610100808354040283529160200191610326565b820191906000526020600020905b81548152906001019060200180831161030957829003601f168201915b5050505050905090565b60003361033e818585610645565b60019150505b92915050565b600033610358858285610657565b6103638585856106d6565b506001949350505050565b6000610378610735565b905090565b6060600960405160200161039191906110a4565b604051602081830303815290604052905090565b6103ad610860565b6103b7600061088d565b565b6001600160a01b038116600090815260076020526040812054610344565b6000606080600080600060606103eb6108df565b6103f361090c565b60408051600080825260208201909252600f60f81b9b939a50919850469750309650945092509050565b6060600480546102ad9061106a565b60003361033e8185856106d6565b600980546104479061106a565b80601f01602080910402602001604051908101604052809291908181526020018280546104739061106a565b80156104c05780601f10610495576101008083540402835291602001916104c0565b820191906000526020600020905b8154815290600101906020018083116104a357829003601f168201915b505050505081565b834211156104f15760405163313c898160e11b8152600481018590526024015b60405180910390fd5b60007f6e71edae12b1b97f4d1f60370fef10105fa2faae0126114a169c64845d6126c988888861053e8c6001600160a01b0316600090815260076020526040902080546001810190915590565b6040805160208101969096526001600160a01b0394851690860152929091166060840152608083015260a082015260c0810186905260e001604051602081830303815290604052805190602001209050600061059982610939565b905060006105a982878787610966565b9050896001600160a01b0316816001600160a01b0316146105f0576040516325c0072360e11b81526001600160a01b0380831660048301528b1660248201526044016104e8565b6105fb8a8a8a610645565b50505050505050505050565b61060f610860565b6001600160a01b03811661063957604051631e4fbdf760e01b8152600060048201526024016104e8565b6106428161088d565b50565b6106528383836001610994565b505050565b6001600160a01b038381166000908152600160209081526040808320938616835292905220546000198110156106d057818110156106c157604051637dc7a0d960e11b81526001600160a01b038416600482015260248101829052604481018390526064016104e8565b6106d084848484036000610994565b50505050565b6001600160a01b03831661070057604051634b637e8f60e11b8152600060048201526024016104e8565b6001600160a01b03821661072a5760405163ec442f0560e01b8152600060048201526024016104e8565b610652838383610a69565b6000306001600160a01b037f00000000000000000000000000000000000000000000000000000000000000001614801561078e57507f000000000000000000000000000000000000000000000000000000000000000046145b156107b857507f000000000000000000000000000000000000000000000000000000000000000090565b610378604080517f8b73c3c69bb8fe3d512ecc4cf759cc79239f7b179b0ffacaa9a75d522b39400f60208201527f0000000000000000000000000000000000000000000000000000000000000000918101919091527f000000000000000000000000000000000000000000000000000000000000000060608201524660808201523060a082015260009060c00160405160208183030381529060405280519060200120905090565b6008546001600160a01b031633146103b75760405163118cdaa760e01b81523360048201526024016104e8565b600880546001600160a01b038381166001600160a01b0319831681179093556040519116919082907f8be0079c531659141344cd1fd0a4f28419497f9722a3daafe3b4186f6b6457e090600090a35050565b60606103787f00000000000000000000000000000000000000000000000000000000000000006005610b93565b60606103787f00000000000000000000000000000000000000000000000000000000000000006006610b93565b6000610344610946610735565b8360405161190160f01b8152600281019290925260228201526042902090565b60008060008061097888888888610c3e565b9250925092506109888282610d0d565b50909695505050505050565b6001600160a01b0384166109be5760405163e602df0560e01b8152600060048201526024016104e8565b6001600160a01b0383166109e857604051634a1406b160e11b8152600060048201526024016104e8565b6001600160a01b03808516600090815260016020908152604080832093871683529290522082905580156106d057826001600160a01b0316846001600160a01b03167f8c5be1e5ebec7d5bd14f71427d1e84f3dd0314c0f7b2291e5b200ac8c7c3b92584604051610a5b91815260200190565b60405180910390a350505050565b6001600160a01b038316610a94578060026000828254610a89919061115c565b90915550610b069050565b6001600160a01b03831660009081526020819052604090205481811015610ae75760405163391434e360e21b81526001600160a01b038516600482015260248101829052604481018390526064016104e8565b6001600160a01b03841660009081526020819052604090209082900390555b6001600160a01b038216610b2257600280548290039055610b41565b6001600160a01b03821660009081526020819052604090208054820190555b816001600160a01b0316836001600160a01b03167fddf252ad1be2c89b69c2b068fc378daa952ba7f163c4a11628f55a4df523b3ef83604051610b8691815260200190565b60405180910390a3505050565b606060ff8314610bad57610ba683610dca565b9050610344565b818054610bb99061106a565b80601f0160208091040260200160405190810160405280929190818152602001828054610be59061106a565b8015610c325780601f10610c0757610100808354040283529160200191610c32565b820191906000526020600020905b815481529060010190602001808311610c1557829003601f168201915b50505050509050610344565b600080807f7fffffffffffffffffffffffffffffff5d576e7357a4501ddfe92f46681b20a0841115610c795750600091506003905082610d03565b604080516000808252602082018084528a905260ff891692820192909252606081018790526080810186905260019060a0016020604051602081039080840390855afa158015610ccd573d6000803e3d6000fd5b5050604051601f1901519150506001600160a01b038116610cf957506000925060019150829050610d03565b9250600091508190505b9450945094915050565b6000826003811115610d2157610d2161117d565b03610d2a575050565b6001826003811115610d3e57610d3e61117d565b03610d5c5760405163f645eedf60e01b815260040160405180910390fd5b6002826003811115610d7057610d7061117d565b03610d915760405163fce698f760e01b8152600481018290526024016104e8565b6003826003811115610da557610da561117d565b03610dc6576040516335e2f38360e21b8152600481018290526024016104e8565b5050565b60606000610dd783610e09565b604080516020808252818301909252919250600091906020820181803683375050509182525060208101929092525090565b600060ff8216601f81111561034457604051632cd44ac360e21b815260040160405180910390fd5b6000815180845260005b81811015610e5757602081850181015186830182015201610e3b565b506000602082860101526020601f19601f83011685010191505092915050565b602081526000610e8a6020830184610e31565b9392505050565b80356001600160a01b0381168114610ea857600080fd5b919050565b60008060408385031215610ec057600080fd5b610ec983610e91565b946020939093013593505050565b600080600060608486031215610eec57600080fd5b610ef584610e91565b9250610f0360208501610e91565b9150604084013590509250925092565b600060208284031215610f2557600080fd5b610e8a82610e91565b60ff60f81b881681526000602060e081840152610f4e60e084018a610e31565b8381036040850152610f60818a610e31565b606085018990526001600160a01b038816608086015260a0850187905284810360c0860152855180825283870192509083019060005b81811015610fb257835183529284019291840191600101610f96565b50909c9b505050505050505050505050565b600080600080600080600060e0888a031215610fdf57600080fd5b610fe888610e91565b9650610ff660208901610e91565b95506040880135945060608801359350608088013560ff8116811461101a57600080fd5b9699959850939692959460a0840135945060c09093013592915050565b6000806040838503121561104a57600080fd5b61105383610e91565b915061106160208401610e91565b90509250929050565b600181811c9082168061107e57607f821691505b60208210810361109e57634e487b7160e01b600052602260045260246000fd5b50919050565b66697066733a2f2f60c81b8152600060076000845481600182811c9150808316806110d057607f831692505b602080841082036110ef57634e487b7160e01b86526022600452602486fd5b818015611103576001811461111c5761114d565b60ff1986168a89015284151585028a018801965061114d565b60008b81526020902060005b868110156111435781548c82018b0152908501908301611128565b505087858b010196505b50949998505050505050505050565b8082018082111561034457634e487b7160e01b600052601160045260246000fd5b634e487b7160e01b600052602160045260246000fdfea2646970667358221220360c70b11b00375decee0665a1206bf9cff285381b8d2f9f357b6d3790e9562164736f6c63430008140033a2646970667358221220230b73b969e8ff00a5ec063235bd7a427c8ddc948bb2da718383f0ef1a822f3d64736f6c63430008140033",
  "linkReferences": {},
  "deployedLinkReferences": {}
}