{
  "_format": "hh-sol-artifact-1",
  "contractName": "MemeCoinFactory",
  "sourceName": "contracts/MemeCoinFactory.sol",
  "abi": [
    {
      "inputs": [
        {
          "internalType": "uint16",
          "name": "_platformFeeBP",
          "type": "uint16"
        },
        {
          "internalType": "uint16",
          "name": "_referralFeeBP",
          "type": "uint16"
        }
      ],
      "stateMutability": "nonpayable",
      "type": "constructor"
    },
    {
      "inputs": [],
      "name": "BuysPaused",
      "type": "error"
    },
    {
      "inputs": [],
      "name": "IncorrectETH",
      "type": "error"
    },
    {
      "inputs": [],
      "name": "NoVesting",
      "type": "error"
    },
    {
      "inputs": [],
      "name": "NotAuthorized",
      "type": "error"
    },
    {
      "inputs": [],
      "name": "NotLaunched",
      "type": "error"
    },
    {
      "inputs": [],
      "name": "NotWhitelisted",
      "type": "error"
    },
    {
      "inputs": [],
      "name": "NothingToClaim",
      "type": "error"
    },
    {
      "inputs": [],
      "name": "PriceZero",
      "type": "error"
    },
    {
      "inputs": [],
      "name": "TokenPaused",
      "type": "error"
    },
    {
      "inputs": [],
      "name": "ZeroAmount",
      "type": "error"
    },
    {
      "anonymous": false,
      "inputs": [
        {
          "indexed": true,
          "internalType": "address",
          "name": "token",
          "type": "address"
        },
        {
          "indexed": true,
          "internalType": "address",
          "name": "buyer",
          "type": "address"
        },
        {
          "indexed": false,
          "internalType": "uint256",
          "name": "amountAtomic",
          "type": "uint256"
        },
        {
          "indexed": false,
          "internalType": "uint256",
          "name": "costWei",
          "type": "uint256"
        },
        {
          "indexed": true,
          "internalType": "address",
          "name": "referrer",
          "type": "address"
        },
        {
          "indexed": false,
          "internalType": "uint256",
          "name": "platformShare",
          "type": "uint256"
        },
        {
          "indexed": false,
          "internalType": "uint256",
          "name": "referralShare",
          "type": "uint256"
        },
        {
          "indexed": false,
          "internalType": "uint256",
          "name": "creatorShare",
          "type": "uint256"
        }
      ],
      "name": "Bought",
      "type": "event"
    },
    {
      "anonymous": false,
      "inputs": [],
      "name": "BuysPausedEvent",
      "type": "event"
    },
    {
      "anonymous": false,
      "inputs": [],
      "name": "BuysUnpausedEvent",
      "type": "event"
    },
    {
      "anonymous": false,
      "inputs": [
        {
          "indexed": false,
          "internalType": "address",
          "name": "factory",
          "type": "address"
        },
        {
          "indexed": false,
          "internalType": "address",
          "name": "router",
          "type": "address"
        }
      ],
      "name": "DexConfigured",
      "type": "event"
    },
    {
      "anonymous": false,
      "inputs": [
        {
          "indexed": true,
          "internalType": "address",
          "name": "to",
          "type": "address"
        },
        {
          "indexed": false,
          "internalType": "uint256",
          "name": "amount",
          "type": "uint256"
        }
      ],
      "name": "ETHRescued",
      "type": "event"
    },
    {
      "anonymous": false,
      "inputs": [
        {
          "indexed": false,
          "internalType": "uint16",
          "name": "newPlatformBP",
          "type": "uint16"
        },
        {
          "indexed": false,
          "internalType": "uint16",
          "name": "newReferralBP",
          "type": "uint16"
        }
      ],
      "name": "FeesUpdated",
      "type": "event"
    },
    {
      "anonymous": false,
      "inputs": [
        {
          "indexed": true,
          "internalType": "address",
          "name": "token",
          "type": "address"
        },
        {
          "indexed": false,
          "internalType": "string",
          "name": "newDescription",
          "type": "string"
        },
        {
          "indexed": false,
          "internalType": "string",
          "name": "newIpfsHash",
          "type": "string"
        }
      ],
      "name": "MetadataUpdated",
      "type": "event"
    },
    {
      "anonymous": false,
      "inputs": [
        {
          "indexed": true,
          "internalType": "address",
          "name": "previousOwner",
          "type": "address"
        },
        {
          "indexed": true,
          "internalType": "address",
          "name": "newOwner",
          "type": "address"
        }
      ],
      "name": "OwnershipTransferred",
      "type": "event"
    },
    {
      "anonymous": false,
      "inputs": [
        {
          "indexed": false,
          "internalType": "address",
          "name": "account",
          "type": "address"
        }
      ],
      "name": "Paused",
      "type": "event"
    },
    {
      "anonymous": false,
      "inputs": [
        {
          "indexed": false,
          "internalType": "bytes32",
          "name": "newRoot",
          "type": "bytes32"
        }
      ],
      "name": "PresaleRootUpdated",
      "type": "event"
    },
    {
      "anonymous": false,
      "inputs": [
        {
          "indexed": true,
          "internalType": "address",
          "name": "token",
          "type": "address"
        },
        {
          "indexed": false,
          "internalType": "uint256",
          "name": "newPriceWei",
          "type": "uint256"
        }
      ],
      "name": "PriceUpdated",
      "type": "event"
    },
    {
      "anonymous": false,
      "inputs": [
        {
          "indexed": true,
          "internalType": "address",
          "name": "token",
          "type": "address"
        },
        {
          "indexed": true,
          "internalType": "address",
          "name": "creator",
          "type": "address"
        },
        {
          "indexed": false,
          "internalType": "uint256",
          "name": "priceWei",
          "type": "uint256"
        },
        {
          "indexed": false,
          "internalType": "string",
          "name": "description",
          "type": "string"
        },
        {
          "indexed": false,
          "internalType": "string",
          "name": "ipfsHash",
          "type": "string"
        }
      ],
      "name": "TokenCreated",
      "type": "event"
    },
    {
      "anonymous": false,
      "inputs": [
        {
          "indexed": true,
          "internalType": "address",
          "name": "token",
          "type": "address"
        }
      ],
      "name": "TokenPausedEvent",
      "type": "event"
    },
    {
      "anonymous": false,
      "inputs": [
        {
          "indexed": true,
          "internalType": "address",
          "name": "token",
          "type": "address"
        },
        {
          "indexed": false,
          "internalType": "uint256",
          "name": "amount",
          "type": "uint256"
        }
      ],
      "name": "TokenRescued",
      "type": "event"
    },
    {
      "anonymous": false,
      "inputs": [
        {
          "indexed": true,
          "internalType": "address",
          "name": "token",
          "type": "address"
        }
      ],
      "name": "TokenUnpausedEvent",
      "type": "event"
    },
    {
      "anonymous": false,
      "inputs": [
        {
          "indexed": false,
          "internalType": "address",
          "name": "account",
          "type": "address"
        }
      ],
      "name": "Unpaused",
      "type": "event"
    },
    {
      "anonymous": false,
      "inputs": [
        {
          "indexed": true,
          "internalType": "address",
          "name": "token",
          "type": "address"
        },
        {
          "indexed": false,
          "internalType": "uint256",
          "name": "amount",
          "type": "uint256"
        }
      ],
      "name": "UnsoldReclaimed",
      "type": "event"
    },
    {
      "anonymous": false,
      "inputs": [
        {
          "indexed": true,
          "internalType": "address",
          "name": "beneficiary",
          "type": "address"
        },
        {
          "indexed": false,
          "internalType": "uint256",
          "name": "amountClaimed",
          "type": "uint256"
        }
      ],
      "name": "VestedClaimed",
      "type": "event"
    },
    {
      "anonymous": false,
      "inputs": [
        {
          "indexed": true,
          "internalType": "address",
          "name": "beneficiary",
          "type": "address"
        },
        {
          "indexed": false,
          "internalType": "uint256",
          "name": "total",
          "type": "uint256"
        },
        {
          "indexed": false,
          "internalType": "uint256",
          "name": "start",
          "type": "uint256"
        },
        {
          "indexed": false,
          "internalType": "uint256",
          "name": "cliff",
          "type": "uint256"
        },
        {
          "indexed": false,
          "internalType": "uint256",
          "name": "duration",
          "type": "uint256"
        }
      ],
      "name": "VestingScheduleSet",
      "type": "event"
    },
    {
      "stateMutability": "payable",
      "type": "fallback"
    },
    {
      "inputs": [
        {
          "internalType": "address",
          "name": "token_",
          "type": "address"
        },
        {
          "internalType": "uint256",
          "name": "amt",
          "type": "uint256"
        }
      ],
      "name": "addLiquidity",
      "outputs": [
        {
          "internalType": "uint256",
          "name": "",
          "type": "uint256"
        },
        {
          "internalType": "uint256",
          "name": "",
          "type": "uint256"
        },
        {
          "internalType": "uint256",
          "name": "",
          "type": "uint256"
        }
      ],
      "stateMutability": "payable",
      "type": "function"
    },
    {
      "inputs": [
        {
          "internalType": "address",
          "name": "token_",
          "type": "address"
        },
        {
          "internalType": "address[]",
          "name": "users",
          "type": "address[]"
        }
      ],
      "name": "addToWhitelist",
      "outputs": [],
      "stateMutability": "nonpayable",
      "type": "function"
    },
    {
      "inputs": [
        {
          "internalType": "uint256",
          "name": "",
          "type": "uint256"
        }
      ],
      "name": "allTokens",
      "outputs": [
        {
          "internalType": "address",
          "name": "token",
          "type": "address"
        },
        {
          "internalType": "address",
          "name": "creator",
          "type": "address"
        },
        {
          "internalType": "uint256",
          "name": "priceWei",
          "type": "uint256"
        },
        {
          "internalType": "string",
          "name": "description",
          "type": "string"
        },
        {
          "internalType": "string",
          "name": "ipfsHash",
          "type": "string"
        }
      ],
      "stateMutability": "view",
      "type": "function"
    },
    {
      "inputs": [
        {
          "internalType": "address",
          "name": "token_",
          "type": "address"
        },
        {
          "internalType": "uint256",
          "name": "amt",
          "type": "uint256"
        },
        {
          "internalType": "address",
          "name": "ref",
          "type": "address"
        },
        {
          "internalType": "bytes32[]",
          "name": "proof",
          "type": "bytes32[]"
        }
      ],
      "name": "buyPresale",
      "outputs": [],
      "stateMutability": "payable",
      "type": "function"
    },
    {
      "inputs": [
        {
          "internalType": "address",
          "name": "token_",
          "type": "address"
        },
        {
          "internalType": "uint256",
          "name": "amountAtomic",
          "type": "uint256"
        },
        {
          "internalType": "address",
          "name": "referrer",
          "type": "address"
        }
      ],
      "name": "buyToken",
      "outputs": [],
      "stateMutability": "payable",
      "type": "function"
    },
    {
      "inputs": [],
      "name": "buysPaused",
      "outputs": [
        {
          "internalType": "bool",
          "name": "",
          "type": "bool"
        }
      ],
      "stateMutability": "view",
      "type": "function"
    },
    {
      "inputs": [],
      "name": "claimVested",
      "outputs": [],
      "stateMutability": "nonpayable",
      "type": "function"
    },
    {
      "inputs": [
        {
          "internalType": "address",
          "name": "token_",
          "type": "address"
        }
      ],
      "name": "createLiquidityPair",
      "outputs": [
        {
          "internalType": "address",
          "name": "pair",
          "type": "address"
        }
      ],
      "stateMutability": "nonpayable",
      "type": "function"
    },
    {
      "inputs": [
        {
          "internalType": "string",
          "name": "name_",
          "type": "string"
        },
        {
          "internalType": "string",
          "name": "symbol_",
          "type": "string"
        },
        {
          "internalType": "string",
          "name": "description_",
          "type": "string"
        },
        {
          "internalType": "uint256",
          "name": "totalSupply_",
          "type": "uint256"
        },
        {
          "internalType": "uint256",
          "name": "priceWei_",
          "type": "uint256"
        },
        {
          "internalType": "string",
          "name": "ipfsHash_",
          "type": "string"
        }
      ],
      "name": "createMemeCoin",
      "outputs": [
        {
          "internalType": "address",
          "name": "tokenAddress",
          "type": "address"
        }
      ],
      "stateMutability": "nonpayable",
      "type": "function"
    },
    {
      "inputs": [
        {
          "internalType": "address",
          "name": "",
          "type": "address"
        }
      ],
      "name": "creatorFeesAccrued",
      "outputs": [
        {
          "internalType": "uint256",
          "name": "",
          "type": "uint256"
        }
      ],
      "stateMutability": "view",
      "type": "function"
    },
    {
      "inputs": [],
      "name": "dexFactory",
      "outputs": [
        {
          "internalType": "address",
          "name": "",
          "type": "address"
        }
      ],
      "stateMutability": "view",
      "type": "function"
    },
    {
      "inputs": [],
      "name": "dexRouter",
      "outputs": [
        {
          "internalType": "address",
          "name": "",
          "type": "address"
        }
      ],
      "stateMutability": "view",
      "type": "function"
    },
    {
      "inputs": [],
      "name": "emergencyWithdrawETH",
      "outputs": [],
      "stateMutability": "nonpayable",
      "type": "function"
    },
    {
      "inputs": [
        {
          "internalType": "address",
          "name": "t",
          "type": "address"
        }
      ],
      "name": "emergencyWithdrawToken",
      "outputs": [],
      "stateMutability": "nonpayable",
      "type": "function"
    },
    {
      "inputs": [
        {
          "internalType": "address",
          "name": "token_",
          "type": "address"
        }
      ],
      "name": "getPoolAddress",
      "outputs": [
        {
          "internalType": "address",
          "name": "",
          "type": "address"
        }
      ],
      "stateMutability": "view",
      "type": "function"
    },
    {
      "inputs": [
        {
          "internalType": "uint256",
          "name": "amt",
          "type": "uint256"
        }
      ],
      "name": "getRevenueSplit",
      "outputs": [
        {
          "internalType": "uint256",
          "name": "pf",
          "type": "uint256"
        },
        {
          "internalType": "uint256",
          "name": "rf",
          "type": "uint256"
        },
        {
          "internalType": "uint256",
          "name": "cf",
          "type": "uint256"
        }
      ],
      "stateMutability": "view",
      "type": "function"
    },
    {
      "inputs": [
        {
          "internalType": "address",
          "name": "token_",
          "type": "address"
        }
      ],
      "name": "getSalesStats",
      "outputs": [
        {
          "internalType": "uint256",
          "name": "sold_",
          "type": "uint256"
        },
        {
          "internalType": "uint256",
          "name": "raised_",
          "type": "uint256"
        }
      ],
      "stateMutability": "view",
      "type": "function"
    },
    {
      "inputs": [
        {
          "internalType": "uint256",
          "name": "start",
          "type": "uint256"
        },
        {
          "internalType": "uint256",
          "name": "count",
          "type": "uint256"
        }
      ],
      "name": "getTokens",
      "outputs": [
        {
          "components": [
            {
              "internalType": "address",
              "name": "token",
              "type": "address"
            },
            {
              "internalType": "address",
              "name": "creator",
              "type": "address"
            },
            {
              "internalType": "uint256",
              "name": "priceWei",
              "type": "uint256"
            },
            {
              "internalType": "string",
              "name": "description",
              "type": "string"
            },
            {
              "internalType": "string",
              "name": "ipfsHash",
              "type": "string"
            }
          ],
          "internalType": "struct MemeCoinFactory.TokenInfo[]",
          "name": "page",
          "type": "tuple[]"
        }
      ],
      "stateMutability": "view",
      "type": "function"
    },
    {
      "inputs": [
        {
          "internalType": "address",
          "name": "token_",
          "type": "address"
        }
      ],
      "name": "isListed",
      "outputs": [
        {
          "internalType": "bool",
          "name": "",
          "type": "bool"
        }
      ],
      "stateMutability": "view",
      "type": "function"
    },
    {
      "inputs": [
        {
          "internalType": "uint256",
          "name": "s",
          "type": "uint256"
        },
        {
          "internalType": "uint256",
          "name": "c",
          "type": "uint256"
        }
      ],
      "name": "listTokensPaginated",
      "outputs": [
        {
          "components": [
            {
              "internalType": "address",
              "name": "token",
              "type": "address"
            },
            {
              "internalType": "address",
              "name": "creator",
              "type": "address"
            },
            {
              "internalType": "uint256",
              "name": "priceWei",
              "type": "uint256"
            },
            {
              "internalType": "string",
              "name": "description",
              "type": "string"
            },
            {
              "internalType": "string",
              "name": "ipfsHash",
              "type": "string"
            }
          ],
          "internalType": "struct MemeCoinFactory.TokenInfo[]",
          "name": "page",
          "type": "tuple[]"
        },
        {
          "internalType": "uint256",
          "name": "total",
          "type": "uint256"
        }
      ],
      "stateMutability": "view",
      "type": "function"
    },
    {
      "inputs": [],
      "name": "owner",
      "outputs": [
        {
          "internalType": "address",
          "name": "",
          "type": "address"
        }
      ],
      "stateMutability": "view",
      "type": "function"
    },
    {
      "inputs": [],
      "name": "pauseBuys",
      "outputs": [],
      "stateMutability": "nonpayable",
      "type": "function"
    },
    {
      "inputs": [
        {
          "internalType": "address",
          "name": "t",
          "type": "address"
        }
      ],
      "name": "pauseTokenSales",
      "outputs": [],
      "stateMutability": "nonpayable",
      "type": "function"
    },
    {
      "inputs": [],
      "name": "paused",
      "outputs": [
        {
          "internalType": "bool",
          "name": "",
          "type": "bool"
        }
      ],
      "stateMutability": "view",
      "type": "function"
    },
    {
      "inputs": [],
      "name": "platformFeeBP",
      "outputs": [
        {
          "internalType": "uint16",
          "name": "",
          "type": "uint16"
        }
      ],
      "stateMutability": "view",
      "type": "function"
    },
    {
      "inputs": [],
      "name": "platformFeesAccrued",
      "outputs": [
        {
          "internalType": "uint256",
          "name": "",
          "type": "uint256"
        }
      ],
      "stateMutability": "view",
      "type": "function"
    },
    {
      "inputs": [],
      "name": "platformFeesAccumulated",
      "outputs": [
        {
          "internalType": "uint256",
          "name": "",
          "type": "uint256"
        }
      ],
      "stateMutability": "view",
      "type": "function"
    },
    {
      "inputs": [],
      "name": "presaleMerkleRoot",
      "outputs": [
        {
          "internalType": "bytes32",
          "name": "",
          "type": "bytes32"
        }
      ],
      "stateMutability": "view",
      "type": "function"
    },
    {
      "inputs": [
        {
          "internalType": "address",
          "name": "token_",
          "type": "address"
        }
      ],
      "name": "priceOf",
      "outputs": [
        {
          "internalType": "uint256",
          "name": "",
          "type": "uint256"
        }
      ],
      "stateMutability": "view",
      "type": "function"
    },
    {
      "inputs": [
        {
          "internalType": "address",
          "name": "token_",
          "type": "address"
        },
        {
          "internalType": "uint256",
          "name": "amount",
          "type": "uint256"
        }
      ],
      "name": "reclaimUnsold",
      "outputs": [],
      "stateMutability": "nonpayable",
      "type": "function"
    },
    {
      "inputs": [
        {
          "internalType": "address[]",
          "name": "toks",
          "type": "address[]"
        },
        {
          "internalType": "uint256[]",
          "name": "amts",
          "type": "uint256[]"
        }
      ],
      "name": "reclaimUnsoldBatch",
      "outputs": [],
      "stateMutability": "nonpayable",
      "type": "function"
    },
    {
      "inputs": [],
      "name": "referralFeeBP",
      "outputs": [
        {
          "internalType": "uint16",
          "name": "",
          "type": "uint16"
        }
      ],
      "stateMutability": "view",
      "type": "function"
    },
    {
      "inputs": [
        {
          "internalType": "address",
          "name": "who",
          "type": "address"
        }
      ],
      "name": "referralFees",
      "outputs": [
        {
          "internalType": "uint256",
          "name": "",
          "type": "uint256"
        }
      ],
      "stateMutability": "view",
      "type": "function"
    },
    {
      "inputs": [
        {
          "internalType": "address",
          "name": "",
          "type": "address"
        }
      ],
      "name": "referralFeesAccrued",
      "outputs": [
        {
          "internalType": "uint256",
          "name": "",
          "type": "uint256"
        }
      ],
      "stateMutability": "view",
      "type": "function"
    },
    {
      "inputs": [
        {
          "internalType": "address",
          "name": "token_",
          "type": "address"
        },
        {
          "internalType": "uint256",
          "name": "liq",
          "type": "uint256"
        }
      ],
      "name": "removeLiquidity",
      "outputs": [
        {
          "internalType": "uint256",
          "name": "",
          "type": "uint256"
        },
        {
          "internalType": "uint256",
          "name": "",
          "type": "uint256"
        }
      ],
      "stateMutability": "nonpayable",
      "type": "function"
    },
    {
      "inputs": [],
      "name": "renounceOwnership",
      "outputs": [],
      "stateMutability": "nonpayable",
      "type": "function"
    },
    {
      "inputs": [
        {
          "internalType": "address",
          "name": "token_",
          "type": "address"
        },
        {
          "internalType": "uint256",
          "name": "amount",
          "type": "uint256"
        }
      ],
      "name": "rescueERC20",
      "outputs": [],
      "stateMutability": "nonpayable",
      "type": "function"
    },
    {
      "inputs": [
        {
          "internalType": "address",
          "name": "f",
          "type": "address"
        },
        {
          "internalType": "address",
          "name": "r",
          "type": "address"
        }
      ],
      "name": "setDexAddresses",
      "outputs": [],
      "stateMutability": "nonpayable",
      "type": "function"
    },
    {
      "inputs": [
        {
          "internalType": "bytes32",
          "name": "root_",
          "type": "bytes32"
        }
      ],
      "name": "setPresaleMerkleRoot",
      "outputs": [],
      "stateMutability": "nonpayable",
      "type": "function"
    },
    {
      "inputs": [
        {
          "internalType": "address",
          "name": "b",
          "type": "address"
        },
        {
          "internalType": "uint256",
          "name": "tot",
          "type": "uint256"
        },
        {
          "internalType": "uint256",
          "name": "cliff_",
          "type": "uint256"
        },
        {
          "internalType": "uint256",
          "name": "dur",
          "type": "uint256"
        }
      ],
      "name": "setVestingSchedule",
      "outputs": [],
      "stateMutability": "nonpayable",
      "type": "function"
    },
    {
      "inputs": [
        {
          "internalType": "address",
          "name": "token_",
          "type": "address"
        },
        {
          "internalType": "bool",
          "name": "on",
          "type": "bool"
        }
      ],
      "name": "setWhitelistEnabled",
      "outputs": [],
      "stateMutability": "nonpayable",
      "type": "function"
    },
    {
      "inputs": [
        {
          "internalType": "address",
          "name": "",
          "type": "address"
        }
      ],
      "name": "tokenIndexPlusOne",
      "outputs": [
        {
          "internalType": "uint256",
          "name": "",
          "type": "uint256"
        }
      ],
      "stateMutability": "view",
      "type": "function"
    },
    {
      "inputs": [
        {
          "internalType": "address",
          "name": "",
          "type": "address"
        }
      ],
      "name": "tokenPaused",
      "outputs": [
        {
          "internalType": "bool",
          "name": "",
          "type": "bool"
        }
      ],
      "stateMutability": "view",
      "type": "function"
    },
    {
      "inputs": [],
      "name": "totalTokens",
      "outputs": [
        {
          "internalType": "uint256",
          "name": "",
          "type": "uint256"
        }
      ],
      "stateMutability": "view",
      "type": "function"
    },
    {
      "inputs": [
        {
          "internalType": "address",
          "name": "newOwner",
          "type": "address"
        }
      ],
      "name": "transferOwnership",
      "outputs": [],
      "stateMutability": "nonpayable",
      "type": "function"
    },
    {
      "inputs": [],
      "name": "unpauseBuys",
      "outputs": [],
      "stateMutability": "nonpayable",
      "type": "function"
    },
    {
      "inputs": [
        {
          "internalType": "address",
          "name": "t",
          "type": "address"
        }
      ],
      "name": "unpauseTokenSales",
      "outputs": [],
      "stateMutability": "nonpayable",
      "type": "function"
    },
    {
      "inputs": [
        {
          "internalType": "address[]",
          "name": "toks",
          "type": "address[]"
        }
      ],
      "name": "unsoldForAll",
      "outputs": [
        {
          "internalType": "uint256[]",
          "name": "out",
          "type": "uint256[]"
        }
      ],
      "stateMutability": "view",
      "type": "function"
    },
    {
      "inputs": [
        {
          "internalType": "uint16",
          "name": "_pf",
          "type": "uint16"
        },
        {
          "internalType": "uint16",
          "name": "_rf",
          "type": "uint16"
        }
      ],
      "name": "updateFees",
      "outputs": [],
      "stateMutability": "nonpayable",
      "type": "function"
    },
    {
      "inputs": [
        {
          "internalType": "address",
          "name": "token_",
          "type": "address"
        },
        {
          "internalType": "string",
          "name": "d",
          "type": "string"
        },
        {
          "internalType": "string",
          "name": "h",
          "type": "string"
        }
      ],
      "name": "updateMetadata",
      "outputs": [],
      "stateMutability": "nonpayable",
      "type": "function"
    },
    {
      "inputs": [
        {
          "internalType": "address",
          "name": "token_",
          "type": "address"
        },
        {
          "internalType": "uint256",
          "name": "newPriceWei",
          "type": "uint256"
        }
      ],
      "name": "updatePrice",
      "outputs": [],
      "stateMutability": "nonpayable",
      "type": "function"
    },
    {
      "inputs": [
        {
          "internalType": "address",
          "name": "",
          "type": "address"
        }
      ],
      "name": "vestingSchedules",
      "outputs": [
        {
          "internalType": "uint256",
          "name": "total",
          "type": "uint256"
        },
        {
          "internalType": "uint256",
          "name": "claimed",
          "type": "uint256"
        },
        {
          "internalType": "uint256",
          "name": "start",
          "type": "uint256"
        },
        {
          "internalType": "uint256",
          "name": "cliff",
          "type": "uint256"
        },
        {
          "internalType": "uint256",
          "name": "duration",
          "type": "uint256"
        }
      ],
      "stateMutability": "view",
      "type": "function"
    },
    {
      "inputs": [
        {
          "internalType": "address",
          "name": "",
          "type": "address"
        }
      ],
      "name": "whitelistEnabled",
      "outputs": [
        {
          "internalType": "bool",
          "name": "",
          "type": "bool"
        }
      ],
      "stateMutability": "view",
      "type": "function"
    },
    {
      "inputs": [
        {
          "internalType": "address",
          "name": "",
          "type": "address"
        },
        {
          "internalType": "address",
          "name": "",
          "type": "address"
        }
      ],
      "name": "whitelisted",
      "outputs": [
        {
          "internalType": "bool",
          "name": "",
          "type": "bool"
        }
      ],
      "stateMutability": "view",
      "type": "function"
    },
    {
      "inputs": [
        {
          "internalType": "address",
          "name": "token_",
          "type": "address"
        }
      ],
      "name": "withdrawCreatorFees",
      "outputs": [],
      "stateMutability": "nonpayable",
      "type": "function"
    },
    {
      "inputs": [],
      "name": "withdrawPlatformFees",
      "outputs": [],
      "stateMutability": "nonpayable",
      "type": "function"
    },
    {
      "inputs": [],
      "name": "withdrawReferralFees",
      "outputs": [],
      "stateMutability": "nonpayable",
      "type": "function"
    },
    {
      "stateMutability": "payable",
      "type": "receive"
    }
  ],
  "bytecode": "0x60806040523480156200001157600080fd5b50604051620063e9380380620063e9833981016040819052620000349162000136565b6200003f33620000ce565b600180556002805460ff191690556127106200005c82846200016e565b61ffff1610620000a25760405162461bcd60e51b815260206004820152600d60248201526c08ccacae640e8dede40d0d2ced609b1b604482015260640160405180910390fd5b6006805461ffff928316620100000263ffffffff1990911692909316919091179190911790556200019f565b600080546001600160a01b038381166001600160a01b0319831681178455604051919092169283917f8be0079c531659141344cd1fd0a4f28419497f9722a3daafe3b4186f6b6457e09190a35050565b805161ffff811681146200013157600080fd5b919050565b600080604083850312156200014a57600080fd5b62000155836200011e565b915062000165602084016200011e565b90509250929050565b61ffff8181168382160190808211156200019857634e487b7160e01b600052601160045260246000fd5b5092915050565b61623a80620001af6000396000f3fe608060405260043610620002c55760003560e01c80630758d924146200030857806309cccaac14620003425780630e3f0cfc14620003695780631228cbee146200038e578063173608e714620003b35780631af0320314620003cb57806322163b8614620003f057806322212e2b14620004175780632319835c146200042f57806328d7b276146200046357806335a62e681462000488578063457972de14620004b9578063494cfc6c14620004de57806356688700146200051257806359f3a97d14620005455780635c975abb146200056a5780635e62bf941462000584578063620bfa7b14620005a9578063634282af14620005c157806364618cf914620005f957806366c5b06c1462000610578063692bf4a81462000635578063715018a6146200064c57806375780f42146200066457806379c8ffd6146200069e5780637a86279b14620006d25780637e1c0c0914620006f75780637e8def1d146200070e5780638453601714620007495780638604cfef14620007615780638995881d14620007795780638cd4426d14620007ad5780638da5cb5b14620007d257806398e122fd14620007ea5780639b53a7f5146200080f578063a201ccf61462000844578063b8d8fbb41462000869578063b95ed06f146200088b578063bc120fe714620008b0578063c748713e14620008ef578063d01c44cd1462000920578063d0b7830b1462000938578063d260be7c1462000950578063d634b4191462000984578063dad4412c14620009a9578063dc4ec9be14620009ce578063e559afd91462000a05578063f0b6374b1462000a2a578063f2fde38b1462000a4f578063f37ef78c1462000a74578063f3d2350e1462000aa5578063f4c5cdca1462000aca578063f641fe391462000aef578063f6e4b62b1462000b06578063f794062e1462000b2b578063fdb20ccb1462000b50578063ff96092a1462000bb157620002ee565b36620002ee5760405162461bcd60e51b8152600401620002e590620038ab565b60405180910390fd5b60405162461bcd60e51b8152600401620002e590620038ab565b3480156200031557600080fd5b50600b546200032a906001600160a01b031681565b604051620003399190620038d1565b60405180910390f35b3480156200034f57600080fd5b506200036762000361366004620038fb565b62000bce565b005b3480156200037657600080fd5b50620003676200038836600462003939565b62000caa565b3480156200039b57600080fd5b506200032a620003ad36600462003968565b62000db5565b348015620003c057600080fd5b506200036762000eb2565b348015620003d857600080fd5b5062000367620003ea36600462003968565b62000f5d565b348015620003fd57600080fd5b506200040860075481565b60405190815260200162000339565b3480156200042457600080fd5b5062000408600c5481565b3480156200043c57600080fd5b50600b546200045290600160a01b900460ff1681565b604051901515815260200162000339565b3480156200047057600080fd5b50620003676200048236600462003988565b62001087565b3480156200049557600080fd5b5062000408620004a736600462003968565b60046020526000908152604090205481565b348015620004c657600080fd5b5062000367620004d836600462003939565b620010cc565b348015620004eb57600080fd5b5062000503620004fd366004620039a2565b6200120e565b60405162000339919062003acc565b620005296200052336600462003939565b62001490565b6040805193845260208401929092529082015260600162000339565b3480156200055257600080fd5b50620003676200056436600462003ae1565b6200156e565b3480156200057757600080fd5b5060025460ff1662000452565b3480156200059157600080fd5b5062000367620005a336600462003b63565b62001668565b348015620005b657600080fd5b5062000367620017bb565b348015620005ce57600080fd5b50620005e6620005e036600462003988565b620017fd565b6040516200033995949392919062003bee565b620003676200060a36600462003c8a565b62001970565b3480156200061d57600080fd5b50620003676200062f36600462003968565b62001a28565b620003676200064636600462003cf3565b62001a7e565b3480156200065957600080fd5b506200036762001ddb565b3480156200067157600080fd5b50620004086200068336600462003968565b6001600160a01b031660009081526008602052604090205490565b348015620006ab57600080fd5b5062000452620006bd36600462003968565b600d6020526000908152604090205460ff1681565b348015620006df57600080fd5b5062000367620006f136600462003d3a565b62001df1565b3480156200070457600080fd5b5060035462000408565b3480156200071b57600080fd5b50620007336200072d36600462003968565b62001fba565b6040805192835260208301919091520162000339565b3480156200075657600080fd5b5062000367620020a9565b3480156200076e57600080fd5b50620003676200216e565b3480156200078657600080fd5b50620004526200079836600462003968565b60056020526000908152604090205460ff1681565b348015620007ba57600080fd5b5062000367620007cc36600462003939565b620021b6565b348015620007df57600080fd5b506200032a62002215565b348015620007f757600080fd5b506200032a6200080936600462003968565b62002224565b3480156200081c57600080fd5b50620008346200082e366004620039a2565b620023b0565b6040516200033992919062003dac565b3480156200085157600080fd5b50620007336200086336600462003939565b62002632565b3480156200087657600080fd5b50600a546200032a906001600160a01b031681565b3480156200089857600080fd5b5062000408620008aa36600462003968565b620027fb565b348015620008bd57600080fd5b5062000452620008cf366004620038fb565b600e60209081526000928352604080842090915290825290205460ff1681565b348015620008fc57600080fd5b50620004086200090e36600462003968565b60096020526000908152604090205481565b3480156200092d57600080fd5b506200036762002871565b3480156200094557600080fd5b5062000367620029c1565b3480156200095d57600080fd5b50620009756200096f36600462003dd0565b62002a0a565b60405162000339919062003e15565b3480156200099157600080fd5b506200032a620009a336600462003e5b565b62002b39565b348015620009b657600080fd5b5062000529620009c836600462003988565b62002d6a565b348015620009db57600080fd5b50600654620009f19062010000900461ffff1681565b60405161ffff909116815260200162000339565b34801562000a1257600080fd5b506200036762000a2436600462003f41565b62002de3565b34801562000a3757600080fd5b506200036762000a4936600462003968565b62002e7d565b34801562000a5c57600080fd5b506200036762000a6e36600462003968565b62002ed0565b34801562000a8157600080fd5b506200040862000a9336600462003968565b60086020526000908152604090205481565b34801562000ab257600080fd5b506200036762000ac436600462003fb3565b62002f4c565b34801562000ad757600080fd5b506200036762000ae936600462003968565b62003003565b34801562000afc57600080fd5b5060075462000408565b34801562000b1357600080fd5b506200036762000b2536600462003ffa565b6200316d565b34801562000b3857600080fd5b506200045262000b4a36600462003968565b620031a2565b34801562000b5d57600080fd5b5062000b9e62000b6f36600462003968565b600f60205260009081526040902080546001820154600283015460038401546004909401549293919290919085565b604051620003399594939291906200402d565b34801562000bbe57600080fd5b50600654620009f19061ffff1681565b62000bd8620032af565b6001600160a01b0382161580159062000bf957506001600160a01b03811615155b62000c3a5760405162461bcd60e51b815260206004820152601060248201526f24b73b30b634b2102222ac1030b2323960811b6044820152606401620002e5565b600a80546001600160a01b038085166001600160a01b031992831617909255600b8054928416929091169190911790556040517fbd1f56340e71693e2714ef366858f586d668634bbaa3720ebf8b0faf0b1aa82c9062000c9e908490849062004050565b60405180910390a15050565b62000cb462003312565b6001600160a01b0382166000908152600460205260408120549081900362000cef57604051638dda39df60e01b815260040160405180910390fd5b6000600362000d0060018462004080565b8154811062000d135762000d1362004096565b6000918252602090912060059091020160018101549091506001600160a01b0316331462000d545760405163ea8e4eb560e01b815260040160405180910390fd5b600181015462000d72906001600160a01b038681169116856200336d565b836001600160a01b0316600080516020620061a58339815191528460405162000d9d91815260200190565b60405180910390a2505062000db160018055565b5050565b600080600b60009054906101000a90046001600160a01b03166001600160a01b031663ad5c46486040518163ffffffff1660e01b8152600401602060405180830381865afa15801562000e0c573d6000803e3d6000fd5b505050506040513d601f19601f8201168201806040525081019062000e329190620040ac565b600a5460405163e6a4390560e01b81529192506001600160a01b03169063e6a439059062000e67908690859060040162004050565b602060405180830381865afa15801562000e85573d6000803e3d6000fd5b505050506040513d601f19601f8201168201806040525081019062000eab9190620040ac565b9392505050565b62000ebc62003312565b336000908152600860205260408120549081900362000eee5760405163d183fe4360e01b815260040160405180910390fd5b336000818152600860205260408082208290555183156108fc0291849190818181858888f1935050505015801562000f2a573d6000803e3d6000fd5b506040518181523390600080516020620061e5833981519152906020015b60405180910390a25062000f5b60018055565b565b62000f67620032af565b62000f7162003312565b6040516370a0823160e01b81526000906001600160a01b038316906370a082319062000fa2903090600401620038d1565b602060405180830381865afa15801562000fc0573d6000803e3d6000fd5b505050506040513d601f19601f8201168201806040525081019062000fe69190620040cc565b905060008111620010265760405162461bcd60e51b81526020600482015260096024820152684e6f20746f6b656e7360b81b6044820152606401620002e5565b620010466200103462002215565b6001600160a01b03841690836200336d565b816001600160a01b0316600080516020620061c5833981519152826040516200107191815260200190565b60405180910390a2506200108460018055565b50565b62001091620032af565b600c8190556040518181527f27f971fd4accb41a60bcef5477f2a70aa17efca3a2c33b138e3aa62a3d891c6d9060200160405180910390a150565b620010d6620033c7565b80600003620010f857604051637294708f60e11b815260040160405180910390fd5b6001600160a01b038216600090815260046020526040812054908190036200113357604051638dda39df60e01b815260040160405180910390fd5b600060036200114460018462004080565b8154811062001157576200115762004096565b6000918252602090912060059091020160018101549091506001600160a01b03163314801590620011a357506200118d62002215565b6001600160a01b0316336001600160a01b031614155b15620011c25760405163ea8e4eb560e01b815260040160405180910390fd5b600281018390556040518381526001600160a01b038516907f0d86730737b142fc160892fa8a0f2db687a92a0e294d1ad70624cf5acef03b84906020015b60405180910390a250505050565b600354606090600081620012238587620040e6565b116200123b57620012358486620040e6565b6200123d565b815b90506200124b858262004080565b6001600160401b03811115620012655762001265620040fc565b604051908082528060200260200182016040528015620012a257816020015b6200128e6200385c565b815260200190600190039081620012845790505b509250845b81811015620014875760038181548110620012c657620012c662004096565b60009182526020918290206040805160a081018252600590930290910180546001600160a01b03908116845260018201541693830193909352600283015490820152600382018054919291606084019190620013229062004112565b80601f0160208091040260200160405190810160405280929190818152602001828054620013509062004112565b8015620013a15780601f106200137557610100808354040283529160200191620013a1565b820191906000526020600020905b8154815290600101906020018083116200138357829003601f168201915b50505050508152602001600482018054620013bc9062004112565b80601f0160208091040260200160405190810160405280929190818152602001828054620013ea9062004112565b80156200143b5780601f106200140f576101008083540402835291602001916200143b565b820191906000526020600020905b8154815290600101906020018083116200141d57829003601f168201915b50505050508152505084878362001453919062004080565b8151811062001466576200146662004096565b602002602001018190525080806200147e906200414e565b915050620012a7565b50505092915050565b60008060006200149f62003312565b620014b66001600160a01b0386163330876200340f565b600b54620014d2906001600160a01b0387811691168662003449565b600b5460405163f305d71960e01b81526001600160a01b039091169063f305d7199034906200151190899089906000908190339042906004016200416a565b60606040518083038185885af115801562001530573d6000803e3d6000fd5b50505050506040513d601f19601f82011682018060405250810190620015579190620041a5565b9250925092506200156760018055565b9250925092565b62001578620032af565b6000831180156200158857508181115b620015c35760405162461bcd60e51b815260206004820152600a60248201526942616420706172616d7360b01b6044820152606401620002e5565b6040805160a081018252848152600060208083018281524284860181815260608087018a815260808089018b81526001600160a01b038f16808a52600f8952988b902099518a55955160018a0155925160028901555160038801559251600490960195909555855189815292830152938101869052928301849052917fd866979bd0fd6a601e699d26906fc9bcf80527e2bc1b9a2cc05afffb1691785f910162001200565b6001600160a01b03851660009081526004602052604081205490819003620016c25760405162461bcd60e51b815260206004820152600c60248201526b139bdd081b185d5b98da195960a21b6044820152606401620002e5565b60006003620016d360018462004080565b81548110620016e657620016e662004096565b6000918252602090912060059091020160018101549091506001600160a01b03163314620017455760405162461bcd60e51b815260206004820152600b60248201526a2737ba1031b932b0ba37b960a91b6044820152606401620002e5565b60038101620017568688836200423b565b5060048101620017688486836200423b565b50866001600160a01b03167f6c1850fce35387a891e82ca88e975790ab6f0709e9ed6842e01397f296012a7e87878787604051620017aa94939291906200432c565b60405180910390a250505050505050565b620017c5620032af565b600b805460ff60a01b191690556040517ffaee94fdb90e4c47971dcc61a8c020c8bd768eb0e6326218ca262cdd66e20a2e90600090a1565b600381815481106200180e57600080fd5b600091825260209091206005909102018054600182015460028301546003840180546001600160a01b039485169650929093169390929091620018519062004112565b80601f01602080910402602001604051908101604052809291908181526020018280546200187f9062004112565b8015620018d05780601f10620018a457610100808354040283529160200191620018d0565b820191906000526020600020905b815481529060010190602001808311620018b257829003601f168201915b505050505090806004018054620018e79062004112565b80601f0160208091040260200160405190810160405280929190818152602001828054620019159062004112565b8015620019665780601f106200193a5761010080835404028352916020019162001966565b820191906000526020600020905b8154815290600101906020018083116200194857829003601f168201915b5050505050905085565b6200197a62003312565b620019ec82828080602002602001604051908101604052809392919081815260200183836020028082843760009201919091525050600c546040516001600160601b03193360601b166020820152909250603401905060405160208183030381529060405280519060200120620034ef565b62001a0a57604051630b094f2760e31b815260040160405180910390fd5b62001a1785858562001a7e565b62001a2160018055565b5050505050565b62001a32620032af565b6001600160a01b038116600081815260056020526040808220805460ff19166001179055517f32a6dcd04455c92a601afd4a2aa0ee840ddab8a4383114e4f00ecf91324329339190a250565b62001a8862003312565b62001a92620033c7565b600b54600160a01b900460ff161562001abe57604051631ef9b76b60e31b815260040160405180910390fd5b8160000362001ae057604051631f2a200560e01b815260040160405180910390fd5b6001600160a01b03831660009081526005602052604090205460ff161562001b1b5760405163e779249560e01b815260040160405180910390fd5b6001600160a01b0383166000908152600460205260408120549081900362001b5657604051638dda39df60e01b815260040160405180910390fd5b6001600160a01b0384166000908152600d602052604090205460ff16801562001ba357506001600160a01b0384166000908152600e6020908152604080832033845290915290205460ff16155b1562001bc257604051630b094f2760e31b815260040160405180910390fd5b6000600362001bd360018462004080565b8154811062001be65762001be662004096565b906000526020600020906005020190506000670de0b6b3a764000085836002015462001c13919062004357565b62001c1f919062004371565b905080341462001c425760405163d183fe4360e01b815260040160405180910390fd5b6006546000906127109062001c5c9061ffff168462004357565b62001c68919062004371565b905060006001600160a01b0386161562001cab576006546127109062001c999062010000900461ffff168562004357565b62001ca5919062004371565b62001cae565b60005b905060008162001cbf848662004080565b62001ccb919062004080565b9050826007600082825462001ce19190620040e6565b9091555050811562001d1d576001600160a01b0387166000908152600860205260408120805484929062001d17908490620040e6565b90915550505b60018501546001600160a01b03166000908152600960205260408120805483929062001d4b908490620040e6565b9091555062001d6790506001600160a01b038a16338a6200336d565b866001600160a01b0316336001600160a01b03168a6001600160a01b03167fa4d1d47447ad64a0c581f05071df4ce987ba94440d913925dc004a21f28f42268b8888888860405162001dbe9594939291906200402d565b60405180910390a450505050505062001dd660018055565b505050565b62001de5620032af565b62000f5b600062003507565b62001dfb62003312565b82811462001e3e5760405162461bcd60e51b815260206004820152600f60248201526e098cadccee8d040dad2e6dac2e8c6d608b1b6044820152606401620002e5565b60005b8381101562001fa957600085858381811062001e615762001e6162004096565b905060200201602081019062001e78919062003968565b9050600084848481811062001e915762001e9162004096565b6001600160a01b038516600090815260046020908152604082205492029390930135935091829003905062001ed957604051638dda39df60e01b815260040160405180910390fd5b6000600362001eea60018462004080565b8154811062001efd5762001efd62004096565b6000918252602090912060059091020160018101549091506001600160a01b0316331462001f3e5760405163ea8e4eb560e01b815260040160405180910390fd5b600181015462001f5c906001600160a01b038681169116856200336d565b836001600160a01b0316600080516020620061a58339815191528460405162001f8791815260200190565b60405180910390a250505050808062001fa0906200414e565b91505062001e41565b5062001fb460018055565b50505050565b600080826001600160a01b03166370a08231306040518263ffffffff1660e01b815260040162001feb9190620038d1565b602060405180830381865afa15801562002009573d6000803e3d6000fd5b505050506040513d601f19601f820116820180604052508101906200202f9190620040cc565b836001600160a01b03166318160ddd6040518163ffffffff1660e01b8152600401602060405180830381865afa1580156200206e573d6000803e3d6000fd5b505050506040513d601f19601f82011682018060405250810190620020949190620040cc565b620020a0919062004080565b93479350915050565b620020b3620032af565b620020bd62003312565b4780620020f65760405162461bcd60e51b815260206004820152600660248201526509cde408aa8960d31b6044820152606401620002e5565b6200210062002215565b6001600160a01b03166108fc829081150290604051600060405180830381858888f1935050505015801562002139573d6000803e3d6000fd5b506200214462002215565b6001600160a01b0316600080516020620061e58339815191528260405162000f4891815260200190565b62002178620032af565b600b805460ff60a01b1916600160a01b1790556040517fd9dbf0a31ba3fb34c2c7dab69690eb663f5bdeca5006139e71338cfa84c7c53790600090a1565b620021c0620032af565b620021ca62003312565b620021d86200103462002215565b816001600160a01b0316600080516020620061c5833981519152826040516200220391815260200190565b60405180910390a262000db160018055565b6000546001600160a01b031690565b600062002230620032af565b600a54600b54604080516315ab88c960e31b815290516001600160a01b0393841693600093169163ad5c46489160048083019260209291908290030181865afa15801562002282573d6000803e3d6000fd5b505050506040513d601f19601f82011682018060405250810190620022a89190620040ac565b60405163e6a4390560e01b81529091506001600160a01b0383169063e6a4390590620022db908790859060040162004050565b602060405180830381865afa158015620022f9573d6000803e3d6000fd5b505050506040513d601f19601f820116820180604052508101906200231f9190620040ac565b92506001600160a01b038316620023a9576040516364e329cb60e11b81526001600160a01b0383169063c9c653969062002360908790859060040162004050565b6020604051808303816000875af115801562002380573d6000803e3d6000fd5b505050506040513d601f19601f82011682018060405250810190620023a69190620040ac565b92505b5050919050565b600354606090600081620023c58587620040e6565b11620023dd57620023d78486620040e6565b620023df565b815b9050620023ed858262004080565b6001600160401b03811115620024075762002407620040fc565b6040519080825280602002602001820160405280156200244457816020015b620024306200385c565b815260200190600190039081620024265790505b509250845b8181101562002629576003818154811062002468576200246862004096565b60009182526020918290206040805160a081018252600590930290910180546001600160a01b03908116845260018201541693830193909352600283015490820152600382018054919291606084019190620024c49062004112565b80601f0160208091040260200160405190810160405280929190818152602001828054620024f29062004112565b8015620025435780601f10620025175761010080835404028352916020019162002543565b820191906000526020600020905b8154815290600101906020018083116200252557829003601f168201915b505050505081526020016004820180546200255e9062004112565b80601f01602080910402602001604051908101604052809291908181526020018280546200258c9062004112565b8015620025dd5780601f10620025b157610100808354040283529160200191620025dd565b820191906000526020600020905b815481529060010190602001808311620025bf57829003601f168201915b505050505081525050848783620025f5919062004080565b8151811062002608576200260862004096565b6020026020010181905250808062002620906200414e565b91505062002449565b50509250929050565b6000806200263f62003312565b600b54604080516315ab88c960e31b815290516000926001600160a01b03169163ad5c46489160048083019260209291908290030181865afa1580156200268a573d6000803e3d6000fd5b505050506040513d601f19601f82011682018060405250810190620026b09190620040ac565b600a5460405163e6a4390560e01b81529192506000916001600160a01b039091169063e6a4390590620026ea908990869060040162004050565b602060405180830381865afa15801562002708573d6000803e3d6000fd5b505050506040513d601f19601f820116820180604052508101906200272e9190620040ac565b9050620027476001600160a01b0382163330886200340f565b600b5462002763906001600160a01b0383811691168762003449565b600b54604051629d473b60e21b81526001600160a01b03909116906302751cec906200279f90899089906000908190339042906004016200416a565b60408051808303816000875af1158015620027be573d6000803e3d6000fd5b505050506040513d601f19601f82011682018060405250810190620027e4919062004394565b935093505050620027f460018055565b9250929050565b6001600160a01b0381166000908152600460205260408120548082036200283557604051638dda39df60e01b815260040160405180910390fd5b60036200284460018362004080565b8154811062002857576200285762004096565b906000526020600020906005020160020154915050919050565b6200287b62003312565b336000908152600f602052604081208054909103620028ad576040516301715d7960e21b815260040160405180910390fd5b6000816002015442620028c1919062004080565b90506000826003015482106200292d578260040154821015620029255782600301548360040154620028f4919062004080565b600384015462002905908462004080565b845462002913919062004357565b6200291f919062004371565b62002930565b825462002930565b60005b9050600083600101548262002946919062004080565b9050806000036200296a576040516312d37ee560e31b815260040160405180910390fd5b600184018290556200297e3033836200336d565b60405181815233907fc15eb22beb780252072bdeec94b7fce7b15822d73417b8a4f92640577eb6fceb9060200160405180910390a25050505062000f5b60018055565b620029cb620032af565b620029d562003312565b6007546000819003620029fb5760405163d183fe4360e01b815260040160405180910390fd5b60006007556200210062002215565b6060816001600160401b0381111562002a275762002a27620040fc565b60405190808252806020026020018201604052801562002a51578160200160208202803683370190505b50905060005b8281101562002b325783838281811062002a755762002a7562004096565b905060200201602081019062002a8c919062003968565b6001600160a01b03166370a08231306040518263ffffffff1660e01b815260040162002ab99190620038d1565b602060405180830381865afa15801562002ad7573d6000803e3d6000fd5b505050506040513d601f19601f8201168201806040525081019062002afd9190620040cc565b82828151811062002b125762002b1262004096565b60209081029190910101528062002b29816200414e565b91505062002a57565b5092915050565b600062002b4562003312565b62002b4f620033c7565b8360000362002b7157604051637294708f60e11b815260040160405180910390fd5b60008b8b8b8b8933898960405162002b89906200389d565b62002b9c989796959493929190620043b9565b604051809103906000f08015801562002bb9573d6000803e3d6000fd5b50905080915060036040518060a00160405280846001600160a01b03168152602001336001600160a01b031681526020018781526020018a8a8080601f016020809104026020016040519081016040528093929190818152602001838380828437600092019190915250505090825250604080516020601f8901819004810282018101909252878152918101919088908890819084018382808284376000920182905250939094525050835460018082018655948252602091829020845160059092020180546001600160a01b03199081166001600160a01b039384161782559285015195810180549093169590911694909417905550604081015160028301556060810151909190600382019062002cd3908262004420565b506080820151600482019062002cea908262004420565b50506003546001600160a01b038416600081815260046020526040908190209290925590513392507f75c1f35492cd2bcb2820d5ff2434b9dc6d19432975f20761140109f0844a7b8a9062002d499089908d908d908b908b90620044e8565b60405180910390a35062002d5c60018055565b9a9950505050505050505050565b600654600090819081906127109062002d889061ffff168662004357565b62002d94919062004371565b6006549093506127109062002db49062010000900461ffff168662004357565b62002dc0919062004371565b91508162002dcf848662004080565b62002ddb919062004080565b929491935050565b62002ded620032af565b60005b8181101562001fb4576001600160a01b0384166000908152600e6020526040812060019185858581811062002e295762002e2962004096565b905060200201602081019062002e40919062003968565b6001600160a01b031681526020810191909152604001600020805460ff19169115159190911790558062002e74816200414e565b91505062002df0565b62002e87620032af565b6001600160a01b038116600081815260056020526040808220805460ff19169055517f7236530905f7db97a79e0d447edb198efa7cc11d321386a4bc4f01c9dcaef73d9190a250565b62002eda620032af565b6001600160a01b03811662002f415760405162461bcd60e51b815260206004820152602660248201527f4f776e61626c653a206e6577206f776e657220697320746865207a65726f206160448201526564647265737360d01b6064820152608401620002e5565b620010848162003507565b62002f56620032af565b61271062002f65828462004519565b61ffff161062002fa85760405162461bcd60e51b815260206004820152600d60248201526c08ccacae640e8dede40d0d2ced609b1b6044820152606401620002e5565b6006805461ffff84811663ffffffff19909216821762010000918516918202179092556040805191825260208201929092527f2ac80c14c28700f7b5e36f947d572149fe2e3947bac32c3a8c098f3e03722c11910162000c9e565b6200300d62003312565b6001600160a01b038116600090815260046020526040812054908190036200304857604051638dda39df60e01b815260040160405180910390fd5b600060036200305960018462004080565b815481106200306c576200306c62004096565b60009182526020909120600160059092020101546001600160a01b03169050338114620030ac5760405163ea8e4eb560e01b815260040160405180910390fd5b6001600160a01b03811660009081526009602052604081205490819003620030e75760405163d183fe4360e01b815260040160405180910390fd5b6001600160a01b0382166000818152600960205260408082208290555183156108fc0291849190818181858888f193505050501580156200312c573d6000803e3d6000fd5b50816001600160a01b0316600080516020620061e5833981519152826040516200315891815260200190565b60405180910390a25050506200108460018055565b62003177620032af565b6001600160a01b03919091166000908152600d60205260409020805460ff1916911515919091179055565b600080600b60009054906101000a90046001600160a01b03166001600160a01b031663ad5c46486040518163ffffffff1660e01b8152600401602060405180830381865afa158015620031f9573d6000803e3d6000fd5b505050506040513d601f19601f820116820180604052508101906200321f9190620040ac565b600a5460405163e6a4390560e01b81529192506000916001600160a01b039091169063e6a439059062003259908790869060040162004050565b602060405180830381865afa15801562003277573d6000803e3d6000fd5b505050506040513d601f19601f820116820180604052508101906200329d9190620040ac565b6001600160a01b031614159392505050565b33620032ba62002215565b6001600160a01b03161462000f5b5760405162461bcd60e51b815260206004820181905260248201527f4f776e61626c653a2063616c6c6572206973206e6f7420746865206f776e65726044820152606401620002e5565b600260015403620033665760405162461bcd60e51b815260206004820152601f60248201527f5265656e7472616e637947756172643a207265656e7472616e742063616c6c006044820152606401620002e5565b6002600155565b62001dd68363a9059cbb60e01b84846040516024016200338f92919062004537565b60408051601f198184030181529190526020810180516001600160e01b03166001600160e01b03199093169290921790915262003557565b60025460ff161562000f5b5760405162461bcd60e51b815260206004820152601060248201526f14185d5cd8589b194e881c185d5cd95960821b6044820152606401620002e5565b6040516001600160a01b038085166024830152831660448201526064810182905262001fb49085906323b872dd60e01b906084016200338f565b604051636eb1769f60e11b81526000906001600160a01b0385169063dd62ed3e906200347c903090879060040162004050565b602060405180830381865afa1580156200349a573d6000803e3d6000fd5b505050506040513d601f19601f82011682018060405250810190620034c09190620040cc565b905062001fb48463095ea7b360e01b85620034dc8686620040e6565b6040516024016200338f92919062004537565b600082620034fe858462003633565b14949350505050565b600080546001600160a01b038381166001600160a01b0319831681178455604051919092169283917f8be0079c531659141344cd1fd0a4f28419497f9722a3daafe3b4186f6b6457e09190a35050565b6000620035ae826040518060400160405280602081526020017f5361666545524332303a206c6f772d6c6576656c2063616c6c206661696c6564815250856001600160a01b03166200368b9092919063ffffffff16565b9050805160001480620035d2575080806020019051810190620035d2919062004550565b62001dd65760405162461bcd60e51b815260206004820152602a60248201527f5361666545524332303a204552433230206f7065726174696f6e20646964206e6044820152691bdd081cdd58d8d9595960b21b6064820152608401620002e5565b600081815b845181101562003681576200366a828683815181106200365c576200365c62004096565b6020026020010151620036a4565b91508062003678816200414e565b91505062003638565b5090505b92915050565b60606200369c8484600085620036d2565b949350505050565b6000818310620036c257600082815260208490526040902062000eab565b5060009182526020526040902090565b606082471015620037355760405162461bcd60e51b815260206004820152602660248201527f416464726573733a20696e73756666696369656e742062616c616e636520666f6044820152651c8818d85b1b60d21b6064820152608401620002e5565b600080866001600160a01b0316858760405162003753919062004570565b60006040518083038185875af1925050503d806000811462003792576040519150601f19603f3d011682016040523d82523d6000602084013e62003797565b606091505b5091509150620037aa87838387620037b5565b979650505050505050565b606083156200382957825160000362003821576001600160a01b0385163b620038215760405162461bcd60e51b815260206004820152601d60248201527f416464726573733a2063616c6c20746f206e6f6e2d636f6e74726163740000006044820152606401620002e5565b50816200369c565b6200369c8383815115620038405781518083602001fd5b8060405162461bcd60e51b8152600401620002e591906200458e565b6040518060a0016040528060006001600160a01b0316815260200160006001600160a01b031681526020016000815260200160608152602001606081525090565b611c0180620045a483390190565b6020808252600c908201526b2ab9b290313abcaa37b5b2b760a11b604082015260600190565b6001600160a01b0391909116815260200190565b6001600160a01b03811681146200108457600080fd5b600080604083850312156200390f57600080fd5b82356200391c81620038e5565b915060208301356200392e81620038e5565b809150509250929050565b600080604083850312156200394d57600080fd5b82356200395a81620038e5565b946020939093013593505050565b6000602082840312156200397b57600080fd5b813562000eab81620038e5565b6000602082840312156200399b57600080fd5b5035919050565b60008060408385031215620039b657600080fd5b50508035926020909101359150565b60005b83811015620039e2578181015183820152602001620039c8565b50506000910152565b6000815180845262003a05816020860160208601620039c5565b601f01601f19169290920160200192915050565b600082825180855260208086019550808260051b84010181860160005b8481101562003abf57858303601f19018952815180516001600160a01b0390811685528582015116858501526040808201519085015260608082015160a0828701819052919062003a8a83880182620039eb565b925050506080808301519250858203818701525062003aaa8183620039eb565b9a86019a945050509083019060010162003a36565b5090979650505050505050565b60208152600062000eab602083018462003a19565b6000806000806080858703121562003af857600080fd5b843562003b0581620038e5565b966020860135965060408601359560600135945092505050565b60008083601f84011262003b3257600080fd5b5081356001600160401b0381111562003b4a57600080fd5b602083019150836020828501011115620027f457600080fd5b60008060008060006060868803121562003b7c57600080fd5b853562003b8981620038e5565b945060208601356001600160401b038082111562003ba657600080fd5b62003bb489838a0162003b1f565b9096509450604088013591508082111562003bce57600080fd5b5062003bdd8882890162003b1f565b969995985093965092949392505050565b6001600160a01b038681168252851660208201526040810184905260a06060820181905260009062003c2390830185620039eb565b828103608084015262003c378185620039eb565b98975050505050505050565b60008083601f84011262003c5657600080fd5b5081356001600160401b0381111562003c6e57600080fd5b6020830191508360208260051b8501011115620027f457600080fd5b60008060008060006080868803121562003ca357600080fd5b853562003cb081620038e5565b945060208601359350604086013562003cc981620038e5565b925060608601356001600160401b0381111562003ce557600080fd5b62003bdd8882890162003c43565b60008060006060848603121562003d0957600080fd5b833562003d1681620038e5565b925060208401359150604084013562003d2f81620038e5565b809150509250925092565b6000806000806040858703121562003d5157600080fd5b84356001600160401b038082111562003d6957600080fd5b62003d778883890162003c43565b9096509450602087013591508082111562003d9157600080fd5b5062003da08782880162003c43565b95989497509550505050565b60408152600062003dc1604083018562003a19565b90508260208301529392505050565b6000806020838503121562003de457600080fd5b82356001600160401b0381111562003dfb57600080fd5b62003e098582860162003c43565b90969095509350505050565b6020808252825182820181905260009190848201906040850190845b8181101562003e4f5783518352928401929184019160010162003e31565b50909695505050505050565b60008060008060008060008060008060c08b8d03121562003e7b57600080fd5b8a356001600160401b038082111562003e9357600080fd5b62003ea18e838f0162003b1f565b909c509a5060208d013591508082111562003ebb57600080fd5b62003ec98e838f0162003b1f565b909a50985060408d013591508082111562003ee357600080fd5b62003ef18e838f0162003b1f565b909850965060608d0135955060808d0135945060a08d013591508082111562003f1957600080fd5b5062003f288d828e0162003b1f565b915080935050809150509295989b9194979a5092959850565b60008060006040848603121562003f5757600080fd5b833562003f6481620038e5565b925060208401356001600160401b0381111562003f8057600080fd5b62003f8e8682870162003c43565b9497909650939450505050565b803561ffff8116811462003fae57600080fd5b919050565b6000806040838503121562003fc757600080fd5b62003fd28362003f9b565b915062003fe26020840162003f9b565b90509250929050565b80151581146200108457600080fd5b600080604083850312156200400e57600080fd5b82356200401b81620038e5565b915060208301356200392e8162003feb565b948552602085019390935260408401919091526060830152608082015260a00190565b6001600160a01b0392831681529116602082015260400190565b634e487b7160e01b600052601160045260246000fd5b818103818111156200368557620036856200406a565b634e487b7160e01b600052603260045260246000fd5b600060208284031215620040bf57600080fd5b815162000eab81620038e5565b600060208284031215620040df57600080fd5b5051919050565b808201808211156200368557620036856200406a565b634e487b7160e01b600052604160045260246000fd5b600181811c908216806200412757607f821691505b6020821081036200414857634e487b7160e01b600052602260045260246000fd5b50919050565b6000600182016200416357620041636200406a565b5060010190565b6001600160a01b039687168152602081019590955260408501939093526060840191909152909216608082015260a081019190915260c00190565b600080600060608486031215620041bb57600080fd5b8351925060208401519150604084015190509250925092565b601f82111562001dd657600081815260208120601f850160051c81016020861015620041fd5750805b601f850160051c820191505b818110156200421e5782815560010162004209565b505050505050565b600019600383901b1c191660019190911b1790565b6001600160401b03831115620042555762004255620040fc565b6200426d8362004266835462004112565b83620041d4565b6000601f841160018114620042a057600085156200428b5750838201355b62004297868262004226565b84555062001a21565b600083815260209020601f19861690835b82811015620042d35786850135825560209485019460019092019101620042b1565b5086821015620042f15760001960f88860031b161c19848701351681555b505060018560011b0183555050505050565b81835281816020850137506000828201602090810191909152601f909101601f19169091010190565b6040815260006200434260408301868862004303565b8281036020840152620037aa81858762004303565b80820281158282048414176200368557620036856200406a565b6000826200438f57634e487b7160e01b600052601260045260246000fd5b500490565b60008060408385031215620043a857600080fd5b505080516020909101519092909150565b60a081526000620043cf60a083018a8c62004303565b8281036020840152620043e481898b62004303565b604084018890526001600160a01b0387166060850152838103608085015290506200441181858762004303565b9b9a5050505050505050505050565b81516001600160401b038111156200443c576200443c620040fc565b62004454816200444d845462004112565b84620041d4565b602080601f831160018114620044885760008415620044735750858301515b6200447f858262004226565b8655506200421e565b600085815260208120601f198616915b82811015620044b95788860151825594840194600190910190840162004498565b5085821015620044d85787850151600019600388901b60f8161c191681555b5050505050600190811b01905550565b8581526060602082015260006200450460608301868862004303565b828103604084015262003c3781858762004303565b61ffff81811683821601908082111562002b325762002b326200406a565b6001600160a01b03929092168252602082015260400190565b6000602082840312156200456357600080fd5b815162000eab8162003feb565b6000825162004584818460208701620039c5565b9190910192915050565b60208152600062000eab6020830184620039eb56fe6101606040523480156200001257600080fd5b5060405162001c0138038062001c01833981016040819052620000359162000526565b6040805180820190915260018152603160f81b6020820152859081908187600362000061838262000671565b50600462000070828262000671565b506200008291508390506005620001e2565b6101205262000093816006620001e2565b61014052815160208084019190912060e052815190820120610100524660a0526200012160e05161010051604080517f8b73c3c69bb8fe3d512ecc4cf759cc79239f7b179b0ffacaa9a75d522b39400f60208201529081019290925260608201524660808201523060a082015260009060c00160405160208183030381529060405280519060200120905090565b60805250503060c0525062000136336200021b565b6001600160a01b0382166200015e5760405163d92e233d60e01b815260040160405180910390fd5b60038551108062000170575060038451105b156200018f57604051639432241960e01b815260040160405180910390fd5b82600003620001b15760405163c16f3a9360e01b815260040160405180910390fd5b600a620001bf828262000671565b50620001cc33846200026d565b620001d78262000334565b5050505050620007b9565b60006020835110156200020257620001fa83620003b3565b905062000215565b816200020f848262000671565b5060ff90505b92915050565b600980546001600160a01b038381166001600160a01b0319831681179093556040519116919082907f8be0079c531659141344cd1fd0a4f28419497f9722a3daafe3b4186f6b6457e090600090a35050565b6001600160a01b038216620002c95760405162461bcd60e51b815260206004820152601f60248201527f45524332303a206d696e7420746f20746865207a65726f20616464726573730060448201526064015b60405180910390fd5b8060026000828254620002dd91906200073d565b90915550506001600160a01b038216600081815260208181526040808320805486019055518481527fddf252ad1be2c89b69c2b068fc378daa952ba7f163c4a11628f55a4df523b3ef910160405180910390a35050565b6200033e620003fb565b6001600160a01b038116620003a55760405162461bcd60e51b815260206004820152602660248201527f4f776e61626c653a206e6577206f776e657220697320746865207a65726f206160448201526564647265737360d01b6064820152608401620002c0565b620003b0816200021b565b50565b600080829050601f81511115620003e1578260405163305a27a960e01b8152600401620002c091906200075f565b8051620003ee8262000794565b179392505050565b505050565b6009546001600160a01b03163314620004575760405162461bcd60e51b815260206004820181905260248201527f4f776e61626c653a2063616c6c6572206973206e6f7420746865206f776e65726044820152606401620002c0565b565b634e487b7160e01b600052604160045260246000fd5b60005b838110156200048c57818101518382015260200162000472565b50506000910152565b600082601f830112620004a757600080fd5b81516001600160401b0380821115620004c457620004c462000459565b604051601f8301601f19908116603f01168101908282118183101715620004ef57620004ef62000459565b816040528381528660208588010111156200050957600080fd5b6200051c8460208301602089016200046f565b9695505050505050565b600080600080600060a086880312156200053f57600080fd5b85516001600160401b03808211156200055757600080fd5b6200056589838a0162000495565b965060208801519150808211156200057c57600080fd5b6200058a89838a0162000495565b604089015160608a0151919750955091506001600160a01b0382168214620005b157600080fd5b608088015191935080821115620005c757600080fd5b50620005d68882890162000495565b9150509295509295909350565b600181811c90821680620005f857607f821691505b6020821081036200061957634e487b7160e01b600052602260045260246000fd5b50919050565b601f821115620003f657600081815260208120601f850160051c81016020861015620006485750805b601f850160051c820191505b81811015620006695782815560010162000654565b505050505050565b81516001600160401b038111156200068d576200068d62000459565b620006a5816200069e8454620005e3565b846200061f565b602080601f831160018114620006dd5760008415620006c45750858301515b600019600386901b1c1916600185901b17855562000669565b600085815260208120601f198616915b828110156200070e57888601518255948401946001909101908401620006ed565b50858210156200072d5787850151600019600388901b60f8161c191681555b5050505050600190811b01905550565b808201808211156200021557634e487b7160e01b600052601160045260246000fd5b6020815260008251806020840152620007808160408501602087016200046f565b601f01601f19169190910160400192915050565b80516020808301519190811015620006195760001960209190910360031b1b16919050565b60805160a05160c05160e0516101005161012051610140516113ed62000814600039600061041d015260006103f201526000610bcb01526000610ba301526000610afe01526000610b2801526000610b5201526113ed6000f3fe608060405234801561001057600080fd5b50600436106100fc5760003560e01c806306fdde0314610101578063095ea7b31461011f57806318160ddd1461014257806323b872dd14610154578063313ce567146101675780633644e51514610176578063395093511461017e5780633c130d901461019157806370a0823114610199578063715018a6146101c25780637ecebe00146101cc57806384b0196e146101df5780638da5cb5b146101fa57806395d89b411461021a578063a457c2d714610222578063a9059cbb14610235578063c623674f14610248578063d505accf14610250578063dd62ed3e14610263578063f2fde38b14610276575b600080fd5b610109610289565b60405161011691906110a1565b60405180910390f35b61013261012d3660046110d7565b61031b565b6040519015158152602001610116565b6002545b604051908152602001610116565b610132610162366004611101565b610335565b60405160128152602001610116565b610146610359565b61013261018c3660046110d7565b610368565b61010961038a565b6101466101a736600461113d565b6001600160a01b031660009081526020819052604090205490565b6101ca6103b2565b005b6101466101da36600461113d565b6103c6565b6101e76103e4565b6040516101169796959493929190611158565b61020261046d565b6040516001600160a01b039091168152602001610116565b61010961047c565b6101326102303660046110d7565b61048b565b6101326102433660046110d7565b61050b565b610109610519565b6101ca61025e3660046111ee565b6105a7565b610146610271366004611261565b61070b565b6101ca61028436600461113d565b610736565b60606003805461029890611294565b80601f01602080910402602001604051908101604052809291908181526020018280546102c490611294565b80156103115780601f106102e657610100808354040283529160200191610311565b820191906000526020600020905b8154815290600101906020018083116102f457829003601f168201915b5050505050905090565b6000336103298185856107af565b60019150505b92915050565b6000336103438582856108d3565b61034e85858561094d565b506001949350505050565b6000610363610af1565b905090565b60003361032981858561037b838361070b565b61038591906112c8565b6107af565b6060600a60405160200161039e91906112e9565b604051602081830303815290604052905090565b6103ba610c1c565b6103c46000610c7b565b565b6001600160a01b03811660009081526007602052604081205461032f565b6000606080828080836104187f00000000000000000000000000000000000000000000000000000000000000006005610ccd565b6104437f00000000000000000000000000000000000000000000000000000000000000006006610ccd565b60408051600080825260208201909252600f60f81b9b939a50919850469750309650945092509050565b6009546001600160a01b031690565b60606004805461029890611294565b60003381610499828661070b565b9050838110156104fe5760405162461bcd60e51b815260206004820152602560248201527f45524332303a2064656372656173656420616c6c6f77616e63652062656c6f77604482015264207a65726f60d81b60648201526084015b60405180910390fd5b61034e82868684036107af565b60003361032981858561094d565b600a805461052690611294565b80601f016020809104026020016040519081016040528092919081815260200182805461055290611294565b801561059f5780601f106105745761010080835404028352916020019161059f565b820191906000526020600020905b81548152906001019060200180831161058257829003601f168201915b505050505081565b834211156105f75760405162461bcd60e51b815260206004820152601d60248201527f45524332305065726d69743a206578706972656420646561646c696e6500000060448201526064016104f5565b60007f6e71edae12b1b97f4d1f60370fef10105fa2faae0126114a169c64845d6126c98888886106268c610d78565b6040805160208101969096526001600160a01b0394851690860152929091166060840152608083015260a082015260c0810186905260e001604051602081830303815290604052805190602001209050600061068182610da0565b9050600061069182878787610dcd565b9050896001600160a01b0316816001600160a01b0316146106f45760405162461bcd60e51b815260206004820152601e60248201527f45524332305065726d69743a20696e76616c6964207369676e6174757265000060448201526064016104f5565b6106ff8a8a8a6107af565b50505050505050505050565b6001600160a01b03918216600090815260016020908152604080832093909416825291909152205490565b61073e610c1c565b6001600160a01b0381166107a35760405162461bcd60e51b815260206004820152602660248201527f4f776e61626c653a206e6577206f776e657220697320746865207a65726f206160448201526564647265737360d01b60648201526084016104f5565b6107ac81610c7b565b50565b6001600160a01b0383166108115760405162461bcd60e51b8152602060048201526024808201527f45524332303a20617070726f76652066726f6d20746865207a65726f206164646044820152637265737360e01b60648201526084016104f5565b6001600160a01b0382166108725760405162461bcd60e51b815260206004820152602260248201527f45524332303a20617070726f766520746f20746865207a65726f206164647265604482015261737360f01b60648201526084016104f5565b6001600160a01b0383811660008181526001602090815260408083209487168084529482529182902085905590518481527f8c5be1e5ebec7d5bd14f71427d1e84f3dd0314c0f7b2291e5b200ac8c7c3b925910160405180910390a3505050565b60006108df848461070b565b90506000198114610947578181101561093a5760405162461bcd60e51b815260206004820152601d60248201527f45524332303a20696e73756666696369656e7420616c6c6f77616e636500000060448201526064016104f5565b61094784848484036107af565b50505050565b6001600160a01b0383166109b15760405162461bcd60e51b815260206004820152602560248201527f45524332303a207472616e736665722066726f6d20746865207a65726f206164604482015264647265737360d81b60648201526084016104f5565b6001600160a01b038216610a135760405162461bcd60e51b815260206004820152602360248201527f45524332303a207472616e7366657220746f20746865207a65726f206164647260448201526265737360e81b60648201526084016104f5565b6001600160a01b03831660009081526020819052604090205481811015610a8b5760405162461bcd60e51b815260206004820152602660248201527f45524332303a207472616e7366657220616d6f756e7420657863656564732062604482015265616c616e636560d01b60648201526084016104f5565b6001600160a01b03848116600081815260208181526040808320878703905593871680835291849020805487019055925185815290927fddf252ad1be2c89b69c2b068fc378daa952ba7f163c4a11628f55a4df523b3ef910160405180910390a3610947565b6000306001600160a01b037f000000000000000000000000000000000000000000000000000000000000000016148015610b4a57507f000000000000000000000000000000000000000000000000000000000000000046145b15610b7457507f000000000000000000000000000000000000000000000000000000000000000090565b610363604080517f8b73c3c69bb8fe3d512ecc4cf759cc79239f7b179b0ffacaa9a75d522b39400f60208201527f0000000000000000000000000000000000000000000000000000000000000000918101919091527f000000000000000000000000000000000000000000000000000000000000000060608201524660808201523060a082015260009060c00160405160208183030381529060405280519060200120905090565b33610c2561046d565b6001600160a01b0316146103c45760405162461bcd60e51b815260206004820181905260248201527f4f776e61626c653a2063616c6c6572206973206e6f7420746865206f776e657260448201526064016104f5565b600980546001600160a01b038381166001600160a01b0319831681179093556040519116919082907f8be0079c531659141344cd1fd0a4f28419497f9722a3daafe3b4186f6b6457e090600090a35050565b606060ff8314610ce757610ce083610df5565b905061032f565b818054610cf390611294565b80601f0160208091040260200160405190810160405280929190818152602001828054610d1f90611294565b8015610d6c5780601f10610d4157610100808354040283529160200191610d6c565b820191906000526020600020905b815481529060010190602001808311610d4f57829003601f168201915b5050505050905061032f565b6001600160a01b03811660009081526007602052604090208054600181018255905b50919050565b600061032f610dad610af1565b8360405161190160f01b8152600281019290925260228201526042902090565b6000806000610dde87878787610e34565b91509150610deb81610eee565b5095945050505050565b60606000610e0283611033565b604080516020808252818301909252919250600091906020820181803683375050509182525060208101929092525090565b6000806fa2a8918ca85bafe22016d0b997e4df60600160ff1b03831115610e615750600090506003610ee5565b6040805160008082526020820180845289905260ff881692820192909252606081018690526080810185905260019060a0016020604051602081039080840390855afa158015610eb5573d6000803e3d6000fd5b5050604051601f1901519150506001600160a01b038116610ede57600060019250925050610ee5565b9150600090505b94509492505050565b6000816004811115610f0257610f026113a1565b03610f0a5750565b6001816004811115610f1e57610f1e6113a1565b03610f665760405162461bcd60e51b815260206004820152601860248201527745434453413a20696e76616c6964207369676e617475726560401b60448201526064016104f5565b6002816004811115610f7a57610f7a6113a1565b03610fc75760405162461bcd60e51b815260206004820152601f60248201527f45434453413a20696e76616c6964207369676e6174757265206c656e6774680060448201526064016104f5565b6003816004811115610fdb57610fdb6113a1565b036107ac5760405162461bcd60e51b815260206004820152602260248201527f45434453413a20696e76616c6964207369676e6174757265202773272076616c604482015261756560f01b60648201526084016104f5565b600060ff8216601f81111561032f57604051632cd44ac360e21b815260040160405180910390fd5b6000815180845260005b8181101561108157602081850181015186830182015201611065565b506000602082860101526020601f19601f83011685010191505092915050565b6020815260006110b4602083018461105b565b9392505050565b80356001600160a01b03811681146110d257600080fd5b919050565b600080604083850312156110ea57600080fd5b6110f3836110bb565b946020939093013593505050565b60008060006060848603121561111657600080fd5b61111f846110bb565b925061112d602085016110bb565b9150604084013590509250925092565b60006020828403121561114f57600080fd5b6110b4826110bb565b60ff60f81b881681526000602060e08184015261117860e084018a61105b565b838103604085015261118a818a61105b565b606085018990526001600160a01b038816608086015260a0850187905284810360c0860152855180825283870192509083019060005b818110156111dc578351835292840192918401916001016111c0565b50909c9b505050505050505050505050565b600080600080600080600060e0888a03121561120957600080fd5b611212886110bb565b9650611220602089016110bb565b95506040880135945060608801359350608088013560ff8116811461124457600080fd5b9699959850939692959460a0840135945060c09093013592915050565b6000806040838503121561127457600080fd5b61127d836110bb565b915061128b602084016110bb565b90509250929050565b600181811c908216806112a857607f821691505b602082108103610d9a57634e487b7160e01b600052602260045260246000fd5b8082018082111561032f57634e487b7160e01b600052601160045260246000fd5b66697066733a2f2f60c81b8152600060076000845481600182811c91508083168061131557607f831692505b6020808410820361133457634e487b7160e01b86526022600452602486fd5b818015611348576001811461136157611392565b60ff1986168a89015284151585028a0188019650611392565b60008b81526020902060005b868110156113885781548c82018b015290850190830161136d565b505087858b010196505b50949998505050505050505050565b634e487b7160e01b600052602160045260246000fdfea2646970667358221220f1f0e77efd43c1ed3129e9422c1f778ad458cfbd181e98219bdec1839a3a2a2b64736f6c63430008140033b42c9fecfb68f9bf84886f05b85865be2fda69a3ec869651d1320d8f528be6bbe82be315ba1a0d0362d09d5cf59781f214b53a74eb978c35b76ad687099c670cb3579861130e4da8bb7b87c54d2d139937f23bcd6e4ebed9e75d0f78ab1cc118a2646970667358221220b9045a4971a72c76edb9aa61cb9883d7c2c0628b6081fa372222a8a3cc8d049a64736f6c63430008140033",
  "linkReferences": {},
  "deployedLinkReferences": {}
}