{
  "_format": "hh-sol-artifact-1",
  "contractName": "MemeCoinFactory",
  "sourceName": "contracts/MemeCoinFactory.sol",
  "abi": [
    {
      "inputs": [
        {
          "internalType": "address",
          "name": "forwarder_",
          "type": "address"
        },
        {
          "internalType": "uint16",
          "name": "_platformFeeBP",
          "type": "uint16"
        },
        {
          "internalType": "uint16",
          "name": "_referralFeeBP",
          "type": "uint16"
        },
        {
          "internalType": "uint256",
          "name": "_basePrice",
          "type": "uint256"
        },
        {
          "internalType": "uint256",
          "name": "_slope",
          "type": "uint256"
        },
        {
          "internalType": "address",
          "name": "v2Factory_",
          "type": "address"
        }
      ],
      "stateMutability": "nonpayable",
      "type": "constructor"
    },
    {
      "anonymous": false,
      "inputs": [
        {
          "indexed": true,
          "internalType": "address",
          "name": "token",
          "type": "address"
        },
        {
          "indexed": true,
          "internalType": "address",
          "name": "buyer",
          "type": "address"
        },
        {
          "indexed": false,
          "internalType": "uint256",
          "name": "amount",
          "type": "uint256"
        },
        {
          "indexed": false,
          "internalType": "uint256",
          "name": "cost",
          "type": "uint256"
        }
      ],
      "name": "Bought",
      "type": "event"
    },
    {
      "anonymous": false,
      "inputs": [
        {
          "indexed": true,
          "internalType": "string",
          "name": "name",
          "type": "string"
        },
        {
          "indexed": false,
          "internalType": "address",
          "name": "module",
          "type": "address"
        }
      ],
      "name": "ModuleSet",
      "type": "event"
    },
    {
      "anonymous": false,
      "inputs": [
        {
          "indexed": false,
          "internalType": "address",
          "name": "account",
          "type": "address"
        }
      ],
      "name": "Paused",
      "type": "event"
    },
    {
      "anonymous": false,
      "inputs": [
        {
          "indexed": true,
          "internalType": "bytes32",
          "name": "role",
          "type": "bytes32"
        },
        {
          "indexed": true,
          "internalType": "bytes32",
          "name": "previousAdminRole",
          "type": "bytes32"
        },
        {
          "indexed": true,
          "internalType": "bytes32",
          "name": "newAdminRole",
          "type": "bytes32"
        }
      ],
      "name": "RoleAdminChanged",
      "type": "event"
    },
    {
      "anonymous": false,
      "inputs": [
        {
          "indexed": true,
          "internalType": "bytes32",
          "name": "role",
          "type": "bytes32"
        },
        {
          "indexed": true,
          "internalType": "address",
          "name": "account",
          "type": "address"
        },
        {
          "indexed": true,
          "internalType": "address",
          "name": "sender",
          "type": "address"
        }
      ],
      "name": "RoleGranted",
      "type": "event"
    },
    {
      "anonymous": false,
      "inputs": [
        {
          "indexed": true,
          "internalType": "bytes32",
          "name": "role",
          "type": "bytes32"
        },
        {
          "indexed": true,
          "internalType": "address",
          "name": "account",
          "type": "address"
        },
        {
          "indexed": true,
          "internalType": "address",
          "name": "sender",
          "type": "address"
        }
      ],
      "name": "RoleRevoked",
      "type": "event"
    },
    {
      "anonymous": false,
      "inputs": [
        {
          "indexed": true,
          "internalType": "address",
          "name": "token",
          "type": "address"
        },
        {
          "indexed": true,
          "internalType": "address",
          "name": "creator",
          "type": "address"
        }
      ],
      "name": "TokenCreated",
      "type": "event"
    },
    {
      "anonymous": false,
      "inputs": [
        {
          "indexed": false,
          "internalType": "address",
          "name": "account",
          "type": "address"
        }
      ],
      "name": "Unpaused",
      "type": "event"
    },
    {
      "anonymous": false,
      "inputs": [
        {
          "indexed": true,
          "internalType": "address",
          "name": "t0",
          "type": "address"
        },
        {
          "indexed": true,
          "internalType": "address",
          "name": "t1",
          "type": "address"
        },
        {
          "indexed": false,
          "internalType": "address",
          "name": "pair",
          "type": "address"
        }
      ],
      "name": "V2PairCreated",
      "type": "event"
    },
    {
      "stateMutability": "payable",
      "type": "fallback"
    },
    {
      "inputs": [],
      "name": "DEFAULT_ADMIN_ROLE",
      "outputs": [
        {
          "internalType": "bytes32",
          "name": "",
          "type": "bytes32"
        }
      ],
      "stateMutability": "view",
      "type": "function"
    },
    {
      "inputs": [],
      "name": "OPERATOR_ROLE",
      "outputs": [
        {
          "internalType": "bytes32",
          "name": "",
          "type": "bytes32"
        }
      ],
      "stateMutability": "view",
      "type": "function"
    },
    {
      "inputs": [],
      "name": "PAUSER_ROLE",
      "outputs": [
        {
          "internalType": "bytes32",
          "name": "",
          "type": "bytes32"
        }
      ],
      "stateMutability": "view",
      "type": "function"
    },
    {
      "inputs": [],
      "name": "POOL_CREATION_FEE",
      "outputs": [
        {
          "internalType": "uint256",
          "name": "",
          "type": "uint256"
        }
      ],
      "stateMutability": "view",
      "type": "function"
    },
    {
      "inputs": [
        {
          "internalType": "address",
          "name": "router",
          "type": "address"
        },
        {
          "internalType": "address",
          "name": "tokenA",
          "type": "address"
        },
        {
          "internalType": "address",
          "name": "tokenB",
          "type": "address"
        },
        {
          "internalType": "uint256",
          "name": "amtA",
          "type": "uint256"
        },
        {
          "internalType": "uint256",
          "name": "amtB",
          "type": "uint256"
        },
        {
          "internalType": "uint256",
          "name": "minA",
          "type": "uint256"
        },
        {
          "internalType": "uint256",
          "name": "minB",
          "type": "uint256"
        },
        {
          "internalType": "address",
          "name": "to",
          "type": "address"
        },
        {
          "internalType": "uint256",
          "name": "dl",
          "type": "uint256"
        }
      ],
      "name": "addV2Liquidity",
      "outputs": [],
      "stateMutability": "nonpayable",
      "type": "function"
    },
    {
      "inputs": [],
      "name": "airdropModule",
      "outputs": [
        {
          "internalType": "contract AirdropMerkle",
          "name": "",
          "type": "address"
        }
      ],
      "stateMutability": "view",
      "type": "function"
    },
    {
      "inputs": [
        {
          "internalType": "uint256",
          "name": "",
          "type": "uint256"
        }
      ],
      "name": "allTokens",
      "outputs": [
        {
          "internalType": "address",
          "name": "token",
          "type": "address"
        },
        {
          "internalType": "address",
          "name": "creator",
          "type": "address"
        },
        {
          "internalType": "string",
          "name": "description",
          "type": "string"
        },
        {
          "internalType": "string",
          "name": "ipfsHash",
          "type": "string"
        },
        {
          "internalType": "bool",
          "name": "active",
          "type": "bool"
        }
      ],
      "stateMutability": "view",
      "type": "function"
    },
    {
      "inputs": [],
      "name": "basePrice",
      "outputs": [
        {
          "internalType": "uint256",
          "name": "",
          "type": "uint256"
        }
      ],
      "stateMutability": "view",
      "type": "function"
    },
    {
      "inputs": [
        {
          "internalType": "address",
          "name": "token_",
          "type": "address"
        },
        {
          "internalType": "uint256",
          "name": "amt",
          "type": "uint256"
        },
        {
          "internalType": "uint256",
          "name": "maxAlloc",
          "type": "uint256"
        },
        {
          "internalType": "address",
          "name": "ref",
          "type": "address"
        },
        {
          "internalType": "bytes32[]",
          "name": "proof",
          "type": "bytes32[]"
        }
      ],
      "name": "buyPresale",
      "outputs": [],
      "stateMutability": "payable",
      "type": "function"
    },
    {
      "inputs": [
        {
          "internalType": "address",
          "name": "token_",
          "type": "address"
        },
        {
          "internalType": "uint256",
          "name": "amountAtomic",
          "type": "uint256"
        },
        {
          "internalType": "address",
          "name": "referrer",
          "type": "address"
        }
      ],
      "name": "buyToken",
      "outputs": [],
      "stateMutability": "payable",
      "type": "function"
    },
    {
      "inputs": [
        {
          "internalType": "uint256",
          "name": "amt",
          "type": "uint256"
        },
        {
          "internalType": "bytes32[]",
          "name": "proof",
          "type": "bytes32[]"
        }
      ],
      "name": "claimAirdrop",
      "outputs": [],
      "stateMutability": "nonpayable",
      "type": "function"
    },
    {
      "inputs": [],
      "name": "claimStakeReward",
      "outputs": [],
      "stateMutability": "nonpayable",
      "type": "function"
    },
    {
      "inputs": [
        {
          "internalType": "string",
          "name": "name_",
          "type": "string"
        },
        {
          "internalType": "string",
          "name": "symbol_",
          "type": "string"
        },
        {
          "internalType": "string",
          "name": "description_",
          "type": "string"
        },
        {
          "internalType": "uint256",
          "name": "totalSupply_",
          "type": "uint256"
        },
        {
          "internalType": "uint256",
          "name": "",
          "type": "uint256"
        },
        {
          "internalType": "string",
          "name": "ipfsHash_",
          "type": "string"
        }
      ],
      "name": "createMemeCoin",
      "outputs": [
        {
          "internalType": "address",
          "name": "tokenAddr",
          "type": "address"
        }
      ],
      "stateMutability": "nonpayable",
      "type": "function"
    },
    {
      "inputs": [
        {
          "internalType": "address",
          "name": "a",
          "type": "address"
        },
        {
          "internalType": "address",
          "name": "b",
          "type": "address"
        }
      ],
      "name": "createV2Pool",
      "outputs": [
        {
          "internalType": "address",
          "name": "pair",
          "type": "address"
        }
      ],
      "stateMutability": "payable",
      "type": "function"
    },
    {
      "inputs": [
        {
          "internalType": "uint256",
          "name": "",
          "type": "uint256"
        }
      ],
      "name": "createdV2Pools",
      "outputs": [
        {
          "internalType": "address",
          "name": "",
          "type": "address"
        }
      ],
      "stateMutability": "view",
      "type": "function"
    },
    {
      "inputs": [
        {
          "internalType": "address",
          "name": "",
          "type": "address"
        }
      ],
      "name": "creatorFeesAccrued",
      "outputs": [
        {
          "internalType": "uint256",
          "name": "",
          "type": "uint256"
        }
      ],
      "stateMutability": "view",
      "type": "function"
    },
    {
      "inputs": [],
      "name": "currentPrice",
      "outputs": [
        {
          "internalType": "uint256",
          "name": "",
          "type": "uint256"
        }
      ],
      "stateMutability": "view",
      "type": "function"
    },
    {
      "inputs": [
        {
          "internalType": "address",
          "name": "a",
          "type": "address"
        },
        {
          "internalType": "address",
          "name": "b",
          "type": "address"
        }
      ],
      "name": "ensureV2Pair",
      "outputs": [
        {
          "internalType": "address",
          "name": "pair",
          "type": "address"
        }
      ],
      "stateMutability": "nonpayable",
      "type": "function"
    },
    {
      "inputs": [
        {
          "internalType": "bytes32",
          "name": "role",
          "type": "bytes32"
        }
      ],
      "name": "getRoleAdmin",
      "outputs": [
        {
          "internalType": "bytes32",
          "name": "",
          "type": "bytes32"
        }
      ],
      "stateMutability": "view",
      "type": "function"
    },
    {
      "inputs": [
        {
          "internalType": "uint256",
          "name": "i",
          "type": "uint256"
        }
      ],
      "name": "getV2Pool",
      "outputs": [
        {
          "internalType": "address",
          "name": "",
          "type": "address"
        }
      ],
      "stateMutability": "view",
      "type": "function"
    },
    {
      "inputs": [],
      "name": "getV2PoolCount",
      "outputs": [
        {
          "internalType": "uint256",
          "name": "",
          "type": "uint256"
        }
      ],
      "stateMutability": "view",
      "type": "function"
    },
    {
      "inputs": [
        {
          "internalType": "uint256",
          "name": "i",
          "type": "uint256"
        }
      ],
      "name": "getV2PoolTokens",
      "outputs": [
        {
          "internalType": "address",
          "name": "t0",
          "type": "address"
        },
        {
          "internalType": "address",
          "name": "t1",
          "type": "address"
        }
      ],
      "stateMutability": "view",
      "type": "function"
    },
    {
      "inputs": [
        {
          "internalType": "bytes32",
          "name": "role",
          "type": "bytes32"
        },
        {
          "internalType": "address",
          "name": "account",
          "type": "address"
        }
      ],
      "name": "grantRole",
      "outputs": [],
      "stateMutability": "nonpayable",
      "type": "function"
    },
    {
      "inputs": [
        {
          "internalType": "bytes32",
          "name": "role",
          "type": "bytes32"
        },
        {
          "internalType": "address",
          "name": "account",
          "type": "address"
        }
      ],
      "name": "hasRole",
      "outputs": [
        {
          "internalType": "bool",
          "name": "",
          "type": "bool"
        }
      ],
      "stateMutability": "view",
      "type": "function"
    },
    {
      "inputs": [
        {
          "internalType": "address",
          "name": "forwarder",
          "type": "address"
        }
      ],
      "name": "isTrustedForwarder",
      "outputs": [
        {
          "internalType": "bool",
          "name": "",
          "type": "bool"
        }
      ],
      "stateMutability": "view",
      "type": "function"
    },
    {
      "inputs": [],
      "name": "pause",
      "outputs": [],
      "stateMutability": "nonpayable",
      "type": "function"
    },
    {
      "inputs": [],
      "name": "paused",
      "outputs": [
        {
          "internalType": "bool",
          "name": "",
          "type": "bool"
        }
      ],
      "stateMutability": "view",
      "type": "function"
    },
    {
      "inputs": [],
      "name": "platformFeeBP",
      "outputs": [
        {
          "internalType": "uint16",
          "name": "",
          "type": "uint16"
        }
      ],
      "stateMutability": "view",
      "type": "function"
    },
    {
      "inputs": [],
      "name": "platformFeesAccrued",
      "outputs": [
        {
          "internalType": "uint256",
          "name": "",
          "type": "uint256"
        }
      ],
      "stateMutability": "view",
      "type": "function"
    },
    {
      "inputs": [],
      "name": "referralFeeBP",
      "outputs": [
        {
          "internalType": "uint16",
          "name": "",
          "type": "uint16"
        }
      ],
      "stateMutability": "view",
      "type": "function"
    },
    {
      "inputs": [
        {
          "internalType": "address",
          "name": "router",
          "type": "address"
        },
        {
          "internalType": "address",
          "name": "tokenA",
          "type": "address"
        },
        {
          "internalType": "address",
          "name": "tokenB",
          "type": "address"
        },
        {
          "internalType": "uint256",
          "name": "liquidity",
          "type": "uint256"
        },
        {
          "internalType": "uint256",
          "name": "minA",
          "type": "uint256"
        },
        {
          "internalType": "uint256",
          "name": "minB",
          "type": "uint256"
        },
        {
          "internalType": "address",
          "name": "to",
          "type": "address"
        },
        {
          "internalType": "uint256",
          "name": "dl",
          "type": "uint256"
        }
      ],
      "name": "removeV2Liquidity",
      "outputs": [],
      "stateMutability": "nonpayable",
      "type": "function"
    },
    {
      "inputs": [
        {
          "internalType": "bytes32",
          "name": "role",
          "type": "bytes32"
        },
        {
          "internalType": "address",
          "name": "account",
          "type": "address"
        }
      ],
      "name": "renounceRole",
      "outputs": [],
      "stateMutability": "nonpayable",
      "type": "function"
    },
    {
      "inputs": [
        {
          "internalType": "bytes32",
          "name": "role",
          "type": "bytes32"
        },
        {
          "internalType": "address",
          "name": "account",
          "type": "address"
        }
      ],
      "name": "revokeRole",
      "outputs": [],
      "stateMutability": "nonpayable",
      "type": "function"
    },
    {
      "inputs": [
        {
          "internalType": "address",
          "name": "a",
          "type": "address"
        }
      ],
      "name": "setAirdropModule",
      "outputs": [],
      "stateMutability": "nonpayable",
      "type": "function"
    },
    {
      "inputs": [
        {
          "internalType": "address",
          "name": "a",
          "type": "address"
        }
      ],
      "name": "setStakingModule",
      "outputs": [],
      "stateMutability": "nonpayable",
      "type": "function"
    },
    {
      "inputs": [
        {
          "internalType": "address",
          "name": "a",
          "type": "address"
        }
      ],
      "name": "setV2Factory",
      "outputs": [],
      "stateMutability": "nonpayable",
      "type": "function"
    },
    {
      "inputs": [
        {
          "internalType": "address",
          "name": "a",
          "type": "address"
        }
      ],
      "name": "setWhitelistModule",
      "outputs": [],
      "stateMutability": "nonpayable",
      "type": "function"
    },
    {
      "inputs": [],
      "name": "slope",
      "outputs": [
        {
          "internalType": "uint256",
          "name": "",
          "type": "uint256"
        }
      ],
      "stateMutability": "view",
      "type": "function"
    },
    {
      "inputs": [
        {
          "internalType": "uint256",
          "name": "amt",
          "type": "uint256"
        }
      ],
      "name": "stakeTokens",
      "outputs": [],
      "stateMutability": "nonpayable",
      "type": "function"
    },
    {
      "inputs": [],
      "name": "stakingModule",
      "outputs": [
        {
          "internalType": "contract StakingRewards",
          "name": "",
          "type": "address"
        }
      ],
      "stateMutability": "view",
      "type": "function"
    },
    {
      "inputs": [
        {
          "internalType": "bytes4",
          "name": "interfaceId",
          "type": "bytes4"
        }
      ],
      "name": "supportsInterface",
      "outputs": [
        {
          "internalType": "bool",
          "name": "",
          "type": "bool"
        }
      ],
      "stateMutability": "view",
      "type": "function"
    },
    {
      "inputs": [
        {
          "internalType": "address",
          "name": "",
          "type": "address"
        }
      ],
      "name": "tokenIndexPlusOne",
      "outputs": [
        {
          "internalType": "uint256",
          "name": "",
          "type": "uint256"
        }
      ],
      "stateMutability": "view",
      "type": "function"
    },
    {
      "inputs": [
        {
          "internalType": "address",
          "name": "",
          "type": "address"
        }
      ],
      "name": "tokenPaused",
      "outputs": [
        {
          "internalType": "bool",
          "name": "",
          "type": "bool"
        }
      ],
      "stateMutability": "view",
      "type": "function"
    },
    {
      "inputs": [],
      "name": "totalSold",
      "outputs": [
        {
          "internalType": "uint256",
          "name": "",
          "type": "uint256"
        }
      ],
      "stateMutability": "view",
      "type": "function"
    },
    {
      "inputs": [],
      "name": "unpause",
      "outputs": [],
      "stateMutability": "nonpayable",
      "type": "function"
    },
    {
      "inputs": [],
      "name": "v2Factory",
      "outputs": [
        {
          "internalType": "contract IUniswapV2Factory",
          "name": "",
          "type": "address"
        }
      ],
      "stateMutability": "view",
      "type": "function"
    },
    {
      "inputs": [],
      "name": "whitelistModule",
      "outputs": [
        {
          "internalType": "contract WhitelistPresale",
          "name": "",
          "type": "address"
        }
      ],
      "stateMutability": "view",
      "type": "function"
    },
    {
      "inputs": [
        {
          "internalType": "uint256",
          "name": "amt",
          "type": "uint256"
        }
      ],
      "name": "withdrawStake",
      "outputs": [],
      "stateMutability": "nonpayable",
      "type": "function"
    },
    {
      "stateMutability": "payable",
      "type": "receive"
    }
  ],
  "bytecode": "0x60e034620002ef57601f6200529f38819003918201601f191683019291906001600160401b03841183851017620002f4578160c09284926040968752833981010312620002ef5762000051816200030a565b90602091620000628383016200031f565b91620000708582016200031f565b9060608101516200008960a0608084015193016200030a565b9360805260ff19926001958487541687558660025561ffff80911690808316820190808211620002d95761271091161015620002a75763ffff00006003549260101b169163ffffffff1916171760035560a05260c05260018060a01b0380921660018060a01b0319600b541617600b55600092838052838552858420338552855260ff86852054161562000267575b7f65d7a28e3265b37a6474929f336521b332c1681b933f6cb9f3376673440d862a808552848652868520338652865260ff87862054161562000225575b507f97667070c54ef182b0f5858b034beac1b6f3089aa2d3188bb1e8929f4fa9b92994858552848152868520338652815260ff878620541615620001e1575b8651614f1090816200036f82396080518181816118470152612926015260a0518181816109e701528181610fb501526113c8015260c051818181610f8e015281816111e601526114300152f35b858552848152868520903386525285842091825416179055620002036200032f565b16916000805160206200527f833981519152339280a438808080808062000194565b8085528486528685203386528652868520828482541617905583620002496200032f565b169033906000805160206200527f8339815191528780a43862000155565b83805283855285842033855285528584208183825416179055826200028b6200032f565b1633856000805160206200527f8339815191528180a462000118565b885162461bcd60e51b815260048101899052600b60248201526a08ccacae6a8dede90d2ced60ab1b6044820152606490fd5b634e487b7160e01b600052601160045260246000fd5b600080fd5b634e487b7160e01b600052604160045260246000fd5b51906001600160a01b0382168203620002ef57565b519061ffff82168203620002ef57565b6080516001600160a01b031633148062000362575b156200035e576013193601368111620002d9573560601c90565b3390565b5060143610156200034456fe608080604052600436101562000022575b5036156200001d57600080fd5b600080fd5b600090813560e01c90816301ffc9a71462001f3f575080630bcae1ac1462001e9e5780631aac52c71462001e6e57806322163b861462001e4e578063248a9ca31462001e2057806325d5971f1462001dc7578063296a65d81462001da75780632f2ff15d1462001ce357806335a62e681462001ca657806336568abe1462001c00578063372c28b41462001a015780633f4ba83a1462001967578063474f077714620018d55780634d1605061462001899578063504b82bf146200186e578063572b6c0514620018195780635c975abb14620017f4578063634282af1462001748578063692bf4a814620013245780637547c7a31462001258578063768c0442146200122d5780637b573c54146200120957806383caf27514620011cc57806383f26f3814620011335780638456cb5914620010bf5780638995881d146200107c5780638fea31b014620010515780639106d7ba146200103157806391d148541462000fe25780639d1b464a1462000f6c5780639df026601462000e625780639fd3af8b1462000e0f578063a0429de61462000d79578063a12ad0e61462000c01578063a217fddf1462000be3578063b4b57c391462000bb8578063c4f3e9d71462000b25578063c52d441a1462000ade578063c60b494f1462000a47578063c748713e1462000a0a578063c7876ea414620009cd578063d547741f1462000985578063d634b4191462000419578063d9d0a5be1462000332578063dc4ec9be146200030b578063e63ab1e914620002ce578063f5b541a614620002915763ff96092a036200001057346200028e57806003193601126200028e57602061ffff60035416604051908152f35b80fd5b50346200028e57806003193601126200028e5760206040517f97667070c54ef182b0f5858b034beac1b6f3089aa2d3188bb1e8929f4fa9b9298152f35b50346200028e57806003193601126200028e5760206040517f65d7a28e3265b37a6474929f336521b332c1681b933f6cb9f3376673440d862a8152f35b50346200028e57806003193601126200028e57602061ffff60035460101c16604051908152f35b5060a03660031901126200028e576200034a6200201b565b6064356001600160a01b0381811692918390036200001d5783926084356001600160401b03811162000415576200038690369060040162001f99565b93909280600a541691823b156200041157620003de879560405197889687958695636ce852df60e11b875216600486015260243560248601526044356044860152606485015260a0608485015260a484019162002c57565b039134905af180156200040657620003f35750f35b620003fe90620020c2565b6200028e5780f35b6040513d84823e3d90fd5b8680fd5b8480fd5b50346200028e5760c03660031901126200028e576004356001600160401b03811162000981576200044f90369060040162002212565b91906024356001600160401b0381116200097d576200047390369060040162002212565b90936044356001600160401b03811162000415576200049790369060040162002212565b93909260a4356001600160401b0381116200041157620004bc90369060040162002212565b939097620004c9620029dd565b620004d362002a22565b620004dd62002923565b926040519461201c93848701948786106001600160401b03871117620009695792620005266200053593899896936200055e989662002ec88b3960a0875260a087019162002980565b91848303602086015262002980565b60643560408301526001600160a01b039092166060820152808203608090910152848962002980565b039085f09283156200095e576200057462002923565b956040519360a08501908582106001600160401b038311176200094857620005d093620005c09260405260018060a01b0388168752602087019960018060a01b03168a523691620029a1565b92604085019384523691620029a1565b606083015260016080830152600754600160401b8110156200084b57806001620005fe920160075562002049565b9590956200093457825186546001600160a01b03199081166001600160a01b0392831617885591516001880180549093169116179055518051906001600160401b0382116200084b57819062000658600288015462002085565b601f8111620008df575b50602090601f83116001146200086b5786926200085f575b50508160011b916000199060031b1c19161760028501555b60608101519384516001600160401b0381116200084b57620006b8600383015462002085565b95601f8711620007fe575b602096508690601f83116001146200078c57918060809492600494899262000780575b50508160011b916000199060031b1c19161760038201555b01910151151560ff8019835416911617905560075460018060a01b038216835260088452604083205560018060a01b036200073862002923565b604051939116906001600160a01b038316907fd5f9bdf12adf29dab0248c349842c3822d53ae2bb4f36352f301630d018c81399080a360016002556001600160a01b03168152f35b015190503880620006e6565b6003840187528787209190601f198416885b818110620007e657509260019285926004966080989610620007cc575b505050811b016003820155620006fe565b015160001960f88460031b161c19169055388080620007bb565b92938a6001819287860151815501950193016200079e565b60038301865260208620601f830160051c8101976020841062000840575b601f0160051c01965b878110620008345750620006c3565b86815560010162000825565b90975087906200081c565b634e487b7160e01b85526041600452602485fd5b0151905038806200067a565b9250600287018652602086209086935b601f1984168510620008c3576001945083601f19811610620008a9575b505050811b01600285015562000692565b015160001960f88460031b161c1916905538808062000898565b818101518355602094850194600190930192909101906200087b565b90915060028701865260208620601f840160051c8101602085106200092c575b90849392915b601f830160051c820181106200091d57505062000662565b88815585945060010162000905565b5080620008ff565b634e487b7160e01b85526004859052602485fd5b634e487b7160e01b600052604160045260246000fd5b6040513d86823e3d90fd5b634e487b7160e01b8c52604160045260248cfd5b8280fd5b5080fd5b50346200028e5760403660031901126200028e57620009ca600435620009aa62002004565b9080845283602052620009c46001604086200154620025d7565b6200270a565b80f35b50346200028e57806003193601126200028e5760206040517f00000000000000000000000000000000000000000000000000000000000000008152f35b50346200028e5760203660031901126200028e576020906040906001600160a01b0362000a366200201b565b168152600583522054604051908152f35b50346200028e5760203660031901126200028e577f5a31296b3cecaf3aaa3146a140f6ddf6d21caa95e28243dc507d90d7e883be7960008051602062004ee4833981519152602062000a986200201b565b62000aa26200248a565b60018060a01b0316806001600160601b0360a01b600c541617600c556d5374616b696e675265776172647360901b60405152604051908152a280f35b50346200028e5760403660031901126200028e57602062000b1362000b026200201b565b62000b0c62002004565b9062002c9d565b6040516001600160a01b039091168152f35b5060403660031901126200028e5762000b3d6200201b565b62000b4762002004565b9066071afd498d0000340362000b885760209162000b659162002c9d565b62000b7334600454620027c1565b6004556040516001600160a01b039091168152f35b60405162461bcd60e51b815260206004820152600860248201526757726f6e6746656560c01b6044820152606490fd5b50346200028e57806003193601126200028e57600b546040516001600160a01b039091168152602090f35b50346200028e57806003193601126200028e57602090604051908152f35b50346200028e576101003660031901126200028e5762000c206200201b565b62000c2a62002004565b9062000c3562002032565b91606435916001600160a01b039160c435838116908190036200001d5786908462000c61888562002c9d565b169362000c718730338862002e6c565b60405163095ea7b360e01b81526001600160a01b038216600482015260248101889052946020908690604490829087905af191821562000d6e5760409760e496889462000d39575b508389519a8b998a98635d5155ef60e11b8a521660048901521660248701526044860152608435606486015260a435608486015260a4850152843560c4850152165af18015620004065762000d0c575080f35b604090813d831162000d31575b62000d258183620020f2565b810103126200028e5780f35b503d62000d19565b62000d5e9060203d811162000d66575b62000d558183620020f2565b81019062002a77565b503862000cb9565b503d62000d49565b6040513d85823e3d90fd5b50346200028e5760203660031901126200028e577f25009364035bfb2fe48a581c0ce939c5ed5c1dd5c34daf8b6948ea3740d4b2df60008051602062004ee4833981519152602062000dca6200201b565b62000dd46200248a565b60018060a01b0316806001600160601b0360a01b600d541617600d556c41697264726f704d65726b6c6560981b60405152604051908152a280f35b50346200028e57806003193601126200028e57600c5481906001600160a01b0316803b1562000e5f57818091600460405180948193631e8c5c8960e11b83525af180156200040657620003f35750f35b50fd5b50346200028e57602080600319360112620009815762000e8460043562001fcc565b9054604051630dfe168160e01b815260039290921b1c6001600160a01b0316918082600481865afa9182156200095e57849262000f45575b5080600492936040519384809263d21220a760e01b82525afa93841562000f39579362000f03575b5050604080516001600160a01b03928316815292909116602083015290f35b62000f28929350803d1062000f31575b62000f1f8183620020f2565b81019062002c7c565b90388062000ee4565b503d62000f13565b604051903d90823e3d90fd5b6004925062000f648291823d841162000f315762000f1f8183620020f2565b925062000ebc565b50346200028e57806003193601126200028e57602062000fda62000fb36006547f000000000000000000000000000000000000000000000000000000000000000062002797565b7f0000000000000000000000000000000000000000000000000000000000000000620027c1565b604051908152f35b50346200028e5760403660031901126200028e5760406200100262002004565b91600435815280602052209060018060a01b0316600052602052602060ff604060002054166040519015158152f35b50346200028e57806003193601126200028e576020600654604051908152f35b50346200028e57806003193601126200028e57600a546040516001600160a01b039091168152602090f35b50346200028e5760203660031901126200028e5760209060ff906040906001600160a01b03620010ab6200201b565b168152600984522054166040519015158152f35b50346200028e57806003193601126200028e57620010dc62002242565b620010e6620029dd565b600160ff19815416176001557f62e78cea01bee320cd4e420270b5ea74000d11b0c9f74754ebdbfc544b05a25860206200111f62002923565b6040516001600160a01b039091168152a180f35b50346200028e5760203660031901126200028e577f3be8db72f80e4180e6ddff48717a4157a6b0f211136ee52b65023eed452e410d60008051602062004ee48339815191526020620011846200201b565b6200118e6200248a565b60018060a01b0316806001600160601b0360a01b600a541617600a556f57686974656c69737450726573616c6560801b60405152604051908152a280f35b50346200028e57806003193601126200028e5760206040517f00000000000000000000000000000000000000000000000000000000000000008152f35b50346200028e57806003193601126200028e57602060405166071afd498d00008152f35b50346200028e57806003193601126200028e57600d546040516001600160a01b039091168152602090f35b50346200028e5760203660031901126200028e5760043562001279620029dd565b600754156200130e578190600760005260018060a01b03620012cf82827fa66cc928b5edb82af9bd49922954155ab7b0942694bea4ce44661d9a8736c6885416620012c362002923565b84600c54169162002e6c565b600c541690813b156200130a57829160248392604051948593849263534a7e1d60e11b845260048401525af180156200040657620003f35750f35b5050fd5b634e487b7160e01b600052603260045260246000fd5b5060603660031901126200028e576200133c6200201b565b9060249182356200134c62002032565b9062001357620029dd565b6200136162002a22565b801562001717576001600160a01b0392831680855260096020908152604086205490929060ff16620016e5578186526008835260408620549384151580620016ab575b156200167a57670de0b6b3a7640000808306620016495782049560065491620013ee7f00000000000000000000000000000000000000000000000000000000000000008962002797565b97620013fb818562002797565b60001999828b019183831162001636576200142e6200145591620014246200145c958762002797565b60011c90620027c1565b7f000000000000000000000000000000000000000000000000000000000000000062002797565b90620027c1565b938434036200160357906200147191620027c1565b6006556003549661271061ffff9884826200148f8c84168962002797565b049416998a15600014620015eb5750505089985b620014c8620014be8b620014b8868962002915565b62002915565b93600454620027c1565b6004558101908111620015d85791620015878a9b604095936200152a878e866001620015167fbf77fd13a39d14dc0da779342c14105c38d9a5d0c60f2caa22f5fd1d5525416d9d9b62002049565b50015416815260058d5220918254620027c1565b9055620015808962001571876200154062002923565b8a5163a9059cbb60e01b948101949094526001600160a01b0316948301948552602085015290928391604090910190565b03601f198101835282620020f2565b8762002a91565b6200159162002923565b16958351928352820152a381158015620015af575b83600160025580f35b8392839283928390620015ce575bf11562000f395780388080620015a6565b506108fc620015bd565b634e487b7160e01b8a5260116004528a8afd5b620015fb9160101c168662002797565b0498620014a3565b60405162461bcd60e51b815260048101899052600c818e01526b092dcc6dee4e4cac6e88aa8960a31b6044820152606490fd5b634e487b7160e01b8d5260116004528d8dfd5b60405162461bcd60e51b815260048101869052600a818b0152692737b724b73a32b3b2b960b11b6044820152606490fd5b60405162461bcd60e51b815260048101859052600a818a0152694e6f74466f7253616c6560b01b6044820152606490fd5b506000198501858111620016d2576004620016c860ff9262002049565b50015416620013a4565b634e487b7160e01b885260116004528888fd5b60405162461bcd60e51b815260048101849052600b818901526a151bdad95b94185d5cd95960aa1b6044820152606490fd5b60405162461bcd60e51b815260206004820152600a818701526916995c9bd05b5bdd5b9d60b21b6044820152606490fd5b50346200028e5760203660031901126200028e576004356007548110156200098157620017759062002049565b50805460018201546001600160a01b0390811692911690620017e86200179e6002830162002114565b91620017d960ff6004620017b56003850162002114565b93015416936040519687968752602087015260a0604087015260a0860190620021eb565b908482036060860152620021eb565b90151560808301520390f35b50346200028e57806003193601126200028e57602060ff600154166040519015158152f35b50346200028e5760203660031901126200028e576020620018396200201b565b6040519060018060a01b03807f0000000000000000000000000000000000000000000000000000000000000000169116148152f35b50346200028e57806003193601126200028e57600c546040516001600160a01b039091168152602090f35b50346200028e5760203660031901126200028e576020620018bc60043562001fcc565b905460405160039290921b1c6001600160a01b03168152f35b50346200028e5760203660031901126200028e577f7e85a138e2e866caafbe5c353d8d4c10515f743882c8b9345a9d053ce198959060008051602062004ee48339815191526020620019266200201b565b620019306200248a565b60018060a01b0316806001600160601b0360a01b600b541617600b55685632466163746f727960b81b60405152604051908152a280f35b50346200028e57806003193601126200028e576200198462002242565b60015460ff811615620019c55760ff19166001557f5db9ee0a495bf2e6ff9c91a7834c1ba4fdd244a5e8aa4e537bd38aeae4b073aa60206200111f62002923565b60405162461bcd60e51b815260206004820152601460248201527314185d5cd8589b194e881b9bdd081c185d5cd95960621b6044820152606490fd5b50346200028e576101203660031901126200028e5762001a206200201b565b62001a2a62002004565b9062001a3562002032565b916064359160e4356001600160a01b03811681036200001d5762001a5a858462002c9d565b5062001a728430336001600160a01b03871662002e6c565b62001a8b60843530336001600160a01b03891662002e6c565b60405163095ea7b360e01b81526001600160a01b038316600482015260248101859052602081806044810103818a6001600160a01b0389165af1801562001bd15762001bdc575b5060405163095ea7b360e01b81526001600160a01b0383166004820152608435602482015293602085806044810103818a6001600160a01b038b165af194851562001bd15760609562001bad575b5060405162e8e33760e81b81526001600160a01b0394851660048201529584166024870152604486015260848035606487015260a480359187019190915260c480359187019190915290831690850152610104803560e48601528492909183918791165af18015620004065762001b95575080f35b606090813d811162000d315762000d258183620020f2565b62001bc99060203d60201162000d665762000d558183620020f2565b503862001b20565b6040513d89823e3d90fd5b62001bf89060203d60201162000d665762000d558183620020f2565b503862001ad2565b50346200028e5760403660031901126200028e5762001c1e62002004565b6001600160a01b038062001c3162002923565b169082160362001c4957620009ca906004356200270a565b60405162461bcd60e51b815260206004820152602f60248201527f416363657373436f6e74726f6c3a2063616e206f6e6c792072656e6f756e636560448201526e103937b632b9903337b91039b2b63360891b6064820152608490fd5b50346200028e5760203660031901126200028e576020906040906001600160a01b0362001cd26200201b565b168152600883522054604051908152f35b50346200028e5760403660031901126200028e5760043562001d0462002004565b8183528260205262001d1d6001604085200154620025d7565b81835282602052604083209060018060a01b03809116918260005260205260ff604060002054161562001d4e578380f35b8284528360205260408420826000526020526040600020600160ff1982541617905562001d7a62002923565b16917f2f8788117e7eff1d82e926ec794901d17c78024a50270940304540a733656f0d8480a43880808380f35b50346200028e57806003193601126200028e576020600e54604051908152f35b50346200028e5760203660031901126200028e57600c5481906001600160a01b0316803b1562000e5f57818091602460405180948193632e1a7d4d60e01b835260043560048401525af180156200040657620003f35750f35b50346200028e5760203660031901126200028e57600160406020926004358152808452200154604051908152f35b50346200028e57806003193601126200028e576020600454604051908152f35b50346200028e5760203660031901126200028e5760043590600e548210156200028e576020620018bc8362001fcc565b50346200028e5760403660031901126200028e57806024356001600160401b03811162000e5f5762001ed590369060040162001f99565b600d54909291906001600160a01b0316803b156200097d5762001f209383604051809681958294632f52ebb760e01b8452600435600485015260406024850152604484019162002c57565b03925af18015620004065762001f34575080f35b620009ca90620020c2565b90503462000981576020366003190112620009815760043563ffffffff60e01b81168091036200097d5760209250637965db0b60e01b811490811562001f87575b5015158152f35b6301ffc9a760e01b1490503862001f80565b9181601f840112156200001d578235916001600160401b0383116200001d576020808501948460051b0101116200001d57565b600e548110156200130e57600e6000527fbb7b4a454dc3493923482f07822329ed19e8244eff582cc204f8554c3620c3fd0190600090565b602435906001600160a01b03821682036200001d57565b600435906001600160a01b03821682036200001d57565b604435906001600160a01b03821682036200001d57565b6007548110156200130e576005906007600052027fa66cc928b5edb82af9bd49922954155ab7b0942694bea4ce44661d9a8736c6880190600090565b90600182811c92168015620020b7575b6020831014620020a157565b634e487b7160e01b600052602260045260246000fd5b91607f169162002095565b6001600160401b0381116200094857604052565b608081019081106001600160401b038211176200094857604052565b90601f801991011681019081106001600160401b038211176200094857604052565b90604051918260008254926200212a8462002085565b908184526001948581169081600014620021a157506001146200215a575b50506200215892500383620020f2565b565b9093915060005260209081600020936000915b81831062002188575050620021589350820101388062002148565b855488840185015294850194879450918301916200216d565b9150506200215894506020925060ff191682840152151560051b820101388062002148565b60005b838110620021da5750506000910152565b8181015183820152602001620021c9565b906020916200220681518092818552858086019101620021c6565b601f01601f1916010190565b9181601f840112156200001d578235916001600160401b0383116200001d57602083818601950101116200001d57565b6200224c62002923565b6001600160a01b031660008181527ff7c9542c591017a21c74b6f3fab6263c7952fc0aaf9db4c22a2a04ddc7f8674f6020908152604080832054909391927f65d7a28e3265b37a6474929f336521b332c1681b933f6cb9f3376673440d862a92909160ff1615620022be575050505050565b620022c990620027fd565b91845190620022d882620020d6565b60428252848201926060368537825115620024765760308453825190600191821015620024765790607860218501536041915b8183116200240357505050620023c1576048620023bd938693620023a09362002390985198899376020b1b1b2b9b9a1b7b73a3937b61d1030b1b1b7bab73a1604d1b8a86015262002366815180928c603789019101620021c6565b8401917001034b99036b4b9b9b4b733903937b6329607d1b603784015251809386840190620021c6565b01036028810187520185620020f2565b5192839262461bcd60e51b845260048401526024830190620021eb565b0390fd5b60648486519062461bcd60e51b825280600483015260248201527f537472696e67733a20686578206c656e67746820696e73756666696369656e746044820152fd5b909192600f8116601081101562002462576f181899199a1a9b1b9c1cb0b131b232b360811b901a620024368587620027eb565b5360041c9280156200244e576000190191906200230b565b634e487b7160e01b82526011600452602482fd5b634e487b7160e01b83526032600452602483fd5b634e487b7160e01b81526032600452602490fd5b6200249462002923565b6001600160a01b031660008181527fad3228b676f7d3cd4284a5443f17f1962b36e491b30a40b2405849e597ba5fb5602090815260408083205490939192919060ff1615620024e35750505050565b620024ee90620027fd565b9080845190620024fe82620020d6565b60428252848201926060368537825115620024765760308453825190600191821015620024765790607860218501536041915b8183116200258c57505050620023c1576048620023bd938693620023a09362002390985198899376020b1b1b2b9b9a1b7b73a3937b61d1030b1b1b7bab73a1604d1b8a86015262002366815180928c603789019101620021c6565b909192600f8116601081101562002462576f181899199a1a9b1b9c1cb0b131b232b360811b901a620025bf8587620027eb565b5360041c9280156200244e5760001901919062002531565b620025e162002923565b906000908082526020918083526040938482209060018060a01b031690818352845260ff85832054161562002617575050505050565b6200262290620027fd565b918451906200263182620020d6565b60428252848201926060368537825115620024765760308453825190600191821015620024765790607860218501536041915b818311620026bf57505050620023c1576048620023bd938693620023a09362002390985198899376020b1b1b2b9b9a1b7b73a3937b61d1030b1b1b7bab73a1604d1b8a86015262002366815180928c603789019101620021c6565b909192600f8116601081101562002462576f181899199a1a9b1b9c1cb0b131b232b360811b901a620026f28587620027eb565b5360041c9280156200244e5760001901919062002664565b6000818152602081815260408083206001600160a01b039586168085529252822054919390929160ff1662002740575b50505050565b7ff6391f5c32d9c69d2a47ea670b442974b53935d1edc7fd64eb21e047a839171b9082855284602052604085208486526020526040852060ff1981541690556200278962002923565b169380a4388080806200273a565b81810292918115918404141715620027ab57565b634e487b7160e01b600052601160045260246000fd5b91908201809211620027ab57565b6001600160401b0381116200094857601f01601f191660200190565b9081518110156200130e570160200190565b60405190606082018281106001600160401b038211176200094857604052602a82526020820160403682378251156200130e576030905381516001908110156200130e57607860218401536029905b808211620028a25750506200285e5790565b606460405162461bcd60e51b815260206004820152602060248201527f537472696e67733a20686578206c656e67746820696e73756666696369656e746044820152fd5b9091600f8116601081101562002900576f181899199a1a9b1b9c1cb0b131b232b360811b901a620028d48486620027eb565b5360041c918015620028eb5760001901906200284c565b60246000634e487b7160e01b81526011600452fd5b60246000634e487b7160e01b81526032600452fd5b91908203918211620027ab57565b337f00000000000000000000000000000000000000000000000000000000000000006001600160a01b0316148062002974575b1562002970576013193601368111620027ab573560601c90565b3390565b50601436101562002956565b908060209392818452848401376000828201840152601f01601f1916010190565b929192620029af82620027cf565b91620029bf6040519384620020f2565b8294818452818301116200001d578281602093846000960137010152565b60ff60015416620029ea57565b60405162461bcd60e51b815260206004820152601060248201526f14185d5cd8589b194e881c185d5cd95960821b6044820152606490fd5b600280541462002a325760028055565b60405162461bcd60e51b815260206004820152601f60248201527f5265656e7472616e637947756172643a207265656e7472616e742063616c6c006044820152606490fd5b908160209103126200001d575180151581036200001d5790565b60408051908101916001600160a01b03166001600160401b03831182841017620009485762002b27926040526000806020958685527f5361666545524332303a206c6f772d6c6576656c2063616c6c206661696c656487860152868151910182855af13d1562002bb4573d9162002b0883620027cf565b9262002b186040519485620020f2565b83523d60008785013e62002bb8565b80519082821592831562002b99575b5050501562002b425750565b6084906040519062461bcd60e51b82526004820152602a60248201527f5361666545524332303a204552433230206f7065726174696f6e20646964206e6044820152691bdd081cdd58d8d9595960b21b6064820152fd5b62002bab935082018101910162002a77565b38828162002b36565b6060915b9192901562002c1d575081511562002bce575090565b3b1562002bd85790565b60405162461bcd60e51b815260206004820152601d60248201527f416464726573733a2063616c6c20746f206e6f6e2d636f6e74726163740000006044820152606490fd5b82519091501562002c315750805190602001fd5b60405162461bcd60e51b815260206004820152908190620023bd906024830190620021eb565b81835290916001600160fb1b0383116200001d5760209260051b809284830137010190565b908160209103126200001d57516001600160a01b03811681036200001d5790565b600b546001600160a01b03939290841691821562002e3357818516818616101562002e2c5790935b60405163e6a4390560e01b81526001600160a01b038381166004830152861660248201529460208087604481885afa96871562002dfc5760009762002e08575b508287161562002d17575b5050505050565b6040516364e329cb60e11b81526001600160a01b0385811660048301528316602482015296509293919290918190879060449082906000905af195861562002dfc5760009662002dd8575b5085600e54600160401b81101562000948577f62175b8617bb04b29540329e39d065560ba9c36e1ab18024c9b22838b195ad0493859262002dab836001869501600e5562001fcc565b979091169681549060031b908489831b921b191617905560405195865216941692a3388080808062002d10565b8162002df49297503d881162000f315762000f1f8183620020f2565b943862002d62565b6040513d6000823e3d90fd5b8162002e249298503d891162000f315762000f1f8183620020f2565b953862002d05565b9362002cc5565b60405162461bcd60e51b8152602060048201526011602482015270158c919858dd1bdc9e481b9bdd081cd95d607a1b6044820152606490fd5b6040516323b872dd60e01b60208201526001600160a01b03928316602482015292909116604483015260648083019390935291815260a08101918183106001600160401b038411176200094857620021589260405262002a9156fe6101608060405234620007cd576200201c8038038091620000218285620007d2565b8339810160a082820312620007cd5781516001600160401b038111620007cd57816200004f9184016200081b565b60208301519092906001600160401b038111620007cd5782620000749183016200081b565b60408201516060830151939092906001600160a01b0385168503620007cd5760808201516001600160401b038111620007cd57620000b392016200081b565b604080519195919081016001600160401b03811182821017620005605760405260018152603160f81b602082015281516001600160401b0381116200056057600354600181811c91168015620007c2575b60208210146200053f57601f81116200075c575b50806020601f8211600114620006d257600091620006c6575b508160011b916000199060031b1c1916176003555b82516001600160401b0381116200056057600454600181811c91168015620006bb575b60208210146200053f57601f811162000651575b50806020601f8211600114620005c757600091620005bb575b508160011b916000199060031b1c1916176004555b620001b682620008bf565b61012052620001c58162000a64565b6101405281516020830120908160e0526020815191012080610100524660a052604051917f8b73c3c69bb8fe3d512ecc4cf759cc79239f7b179b0ffacaa9a75d522b39400f6020840152604083015260608201524660808201523060a082015260a081528060c081011060018060401b0360c083011117620005605760c08101604052805160208201206080523060c052620002613362000876565b6001600160a01b03851615620005a7575060039051109081156200059a575b5062000588578015620005765782516001600160401b0381116200056057600a54600181811c9116801562000555575b60208210146200053f57601f8111620004e6575b506020601f82116001146200046d578192939460009262000461575b50508160011b916000199060031b1c191617600a555b33156200041c576002548181018091116200040657600255336000526000602052604060002081815401905560405190815260007fddf252ad1be2c89b69c2b068fc378daa952ba7f163c4a11628f55a4df523b3ef60203393a3600954336001600160a01b0390911603620003c257620003709062000876565b604051611440908162000bbc82396080518161118b015260a05181611257015260c05181611155015260e051816111da01526101005181611200015261012051816106a8015261014051816106d20152f35b606460405162461bcd60e51b815260206004820152602060248201527f4f776e61626c653a2063616c6c6572206973206e6f7420746865206f776e65726044820152fd5b634e487b7160e01b600052601160045260246000fd5b60405162461bcd60e51b815260206004820152601f60248201527f45524332303a206d696e7420746f20746865207a65726f2061646472657373006044820152606490fd5b015190503880620002e0565b600a600090815260008051602062001ffc8339815191529190601f198416905b818110620004cd57509583600195969710620004b3575b505050811b01600a55620002f6565b015160001960f88460031b161c19169055388080620004a4565b9192602060018192868b0151815501940192016200048d565b600a60005260008051602062001ffc833981519152601f830160051c8101916020841062000534575b601f0160051c01905b818110620005275750620002c4565b6000815560010162000518565b90915081906200050f565b634e487b7160e01b600052602260045260246000fd5b90607f1690620002b0565b634e487b7160e01b600052604160045260246000fd5b60405163c16f3a9360e01b8152600490fd5b604051639432241960e01b8152600490fd5b6003915051103862000280565b60c060049163d92e233d60e01b8282015201fd5b90508401513862000196565b6004600090815292507f8a35acfbc15ff81a39ae7d344fd709f28e8600b4aa8c65c6b64bfe7fe36bd19b905b601f198316841062000638576001935082601f198116106200061e575b5050811b01600455620001ab565b86015160001960f88460031b161c19169055388062000610565b86810151825560209384019360019092019101620005f3565b60046000527f8a35acfbc15ff81a39ae7d344fd709f28e8600b4aa8c65c6b64bfe7fe36bd19b601f830160051c81019160208410620006b0575b601f0160051c01905b818110620006a357506200017d565b6000815560010162000694565b90915081906200068b565b90607f169062000169565b90508301513862000131565b6003600090815292507fc2575a0e9e593c00f959f8c92f12db2869c3395a3b0502d05e2516446f71f85b905b601f198316841062000743576001935082601f1981161062000729575b5050811b0160035562000146565b85015160001960f88460031b161c1916905538806200071b565b85810151825560209384019360019092019101620006fe565b60036000527fc2575a0e9e593c00f959f8c92f12db2869c3395a3b0502d05e2516446f71f85b601f830160051c810160208410620007ba575b601f830160051c82018110620007ad57505062000118565b6000815560010162000795565b508062000795565b90607f169062000104565b600080fd5b601f909101601f19168101906001600160401b038211908210176200056057604052565b60005b8381106200080a5750506000910152565b8181015183820152602001620007f9565b81601f82011215620007cd5780516001600160401b03811162000560576040519262000852601f8301601f191660200185620007d2565b81845260208284010111620007cd57620008739160208085019101620007f6565b90565b600980546001600160a01b039283166001600160a01b0319821681179092559091167f8be0079c531659141344cd1fd0a4f28419497f9722a3daafe3b4186f6b6457e0600080a3565b805160209190828110156200093f575090601f825111620008fd5780825192015190808310620008ee57501790565b82600019910360031b1b161790565b604490620009319260405193849263305a27a960e01b845280600485015282519283918260248701528686019101620007f6565b601f01601f19168101030190fd5b6001600160401b03811162000560576005928354926001938481811c9116801562000a59575b838210146200053f57601f811162000a22575b5081601f8411600114620009b85750928293918392600094620009ac575b50501b916000199060031b1c191617905560ff90565b01519250388062000996565b919083601f1981168760005284600020946000905b8883831062000a075750505010620009ed575b505050811b01905560ff90565b015160001960f88460031b161c19169055388080620009e0565b858701518855909601959485019487935090810190620009cd565b8560005284601f846000209201871c820191601f8601881c015b82811062000a4c57505062000978565b6000815501859062000a3c565b90607f169062000965565b80516020908181101562000a915750601f825111620008fd5780825192015190808310620008ee57501790565b906001600160401b0382116200056057600654926001938481811c9116801562000bb0575b838210146200053f57601f811162000b76575b5081601f841160011462000b0a575092829391839260009462000afe575b50501b916000199060031b1c19161760065560ff90565b01519250388062000ae7565b919083601f198116600660005284600020946000905b8883831062000b5b575050501062000b41575b505050811b0160065560ff90565b015160001960f88460031b161c1916905538808062000b33565b85870151885590960195948501948793509081019062000b20565b600660005284601f84600020920160051c820191601f860160051c015b82811062000ba357505062000ac9565b6000815501859062000b93565b90607f169062000ab656fe6080604081815260048036101561001557600080fd5b600092833560e01c90816306fdde0314610b3a57508063095ea7b314610b1057806318160ddd14610af157806323b872dd14610a27578063313ce56714610a0b5780633644e515146109e757806339509351146109805780633c130d901461087a57806370a0823114610843578063715018a6146107e65780637ecebe00146107ae57806384b0196e146106915780638da5cb5b1461066857806395d89b4114610594578063a457c2d7146104ed578063a9059cbb146104bc578063c623674f146103d3578063d505accf1461021a578063dd62ed3e146101cd5763f2fde38b146100ff57600080fd5b346101c95760203660031901126101c957610118610c22565b90610121610ce1565b6001600160a01b03918216928315610177575050600954826bffffffffffffffffffffffff60a01b821617600955167f8be0079c531659141344cd1fd0a4f28419497f9722a3daafe3b4186f6b6457e08380a380f35b906020608492519162461bcd60e51b8352820152602660248201527f4f776e61626c653a206e6577206f776e657220697320746865207a65726f206160448201526564647265737360d01b6064820152fd5b8280fd5b505034610216578060031936011261021657806020926101eb610c22565b6101f3610c3d565b6001600160a01b0391821683526001865283832091168252845220549051908152f35b5080fd5b508290346102165760e036600319011261021657610236610c22565b61023e610c3d565b906044359260643560843560ff811681036103cf5781421161038c5760018060a01b0390818516928389526007602052898920908154916001830190558a519060208201927f6e71edae12b1b97f4d1f60370fef10105fa2faae0126114a169c64845d6126c98452868d840152858a1660608401528a608084015260a083015260c082015260c0815260e0810181811067ffffffffffffffff821117610379578b5251902061032191610319916102f3611152565b908c519161190160f01b83526002830152602282015260c43591604260a43592206110c3565b919091610fa9565b16036103365750610333939450610ea7565b80f35b606490602087519162461bcd60e51b8352820152601e60248201527f45524332305065726d69743a20696e76616c6964207369676e617475726500006044820152fd5b634e487b7160e01b8b526041875260248bfd5b875162461bcd60e51b8152602081850152601d60248201527f45524332305065726d69743a206578706972656420646561646c696e650000006044820152606490fd5b8680fd5b50503461021657816003193601126102165780519082600a546103f581610c53565b808552916001918083169081156104945750600114610437575b50505061042182610433940383610cbf565b51918291602083526020830190610be2565b0390f35b9450600a85527fc65a7bb8d6351c1cf70c95a316cc6a92839c986682d98bc35f958f4883f9d2a85b82861061047c57505050610421826020610433958201019461040f565b8054602087870181019190915290950194810161045f565b61043397508693506020925061042194915060ff191682840152151560051b8201019461040f565b5050346102165780600319360112610216576020906104e66104dc610c22565b6024359033610d39565b5160018152f35b508234610591578260031936011261059157610507610c22565b918360243592338152600160205281812060018060a01b0386168252602052205490828210610540576020856104e68585038733610ea7565b608490602086519162461bcd60e51b8352820152602560248201527f45524332303a2064656372656173656420616c6c6f77616e63652062656c6f77604482015264207a65726f60d81b6064820152fd5b80fd5b5090346101c957826003193601126101c957805191838154906105b682610c53565b8086529260019280841690811561063d57506001146105e1575b6104338686610421828b0383610cbf565b815294507f8a35acfbc15ff81a39ae7d344fd709f28e8600b4aa8c65c6b64bfe7fe36bd19b5b828610610625575050506104218260206104339582010194386105d0565b80546020878701810191909152909501948101610607565b905061043397508693506020925061042194915060ff191682840152151560051b82010194386105d0565b50503461021657816003193601126102165760095490516001600160a01b039091168152602090f35b5090346101c957826003193601126101c9576106cc7f000000000000000000000000000000000000000000000000000000000000000061127d565b926106f67f0000000000000000000000000000000000000000000000000000000000000000611379565b908251926020928385019585871067ffffffffffffffff88111761079b57509280610751838896610744998b9996528686528151998a99600f60f81b8b5260e0868c015260e08b0190610be2565b91898303908a0152610be2565b924660608801523060808801528460a088015286840360c088015251928381520193925b82811061078457505050500390f35b835185528695509381019392810192600101610775565b634e487b7160e01b845260419052602483fd5b5050346102165760203660031901126102165760209181906001600160a01b036107d6610c22565b1681526007845220549051908152f35b83346105915780600319360112610591576107ff610ce1565b600980546001600160a01b0319811690915581906001600160a01b03167f8be0079c531659141344cd1fd0a4f28419497f9722a3daafe3b4186f6b6457e08280a380f35b5050346102165760203660031901126102165760209181906001600160a01b0361086b610c22565b16815280845220549051908152f35b8284346105915780600319360112610591578151918260209266697066733a2f2f60c81b8483015280600a54906108b082610c53565b9160019081811690811561095557506001146108f0575b50505061043392916108e19103601f198101865285610cbf565b51928284938452830190610be2565b8695949350600a82527fc65a7bb8d6351c1cf70c95a316cc6a92839c986682d98bc35f958f4883f9d2a85b83831061093c575093945091925082016027019050816108e16104336108c7565b80546027848b010152879689955090920191810161091b565b90506108e1945060279250610433969593915060ff19168284015280151502820101918193946108c7565b50913461059157816003193601126105915761099a610c22565b338252600160209081528383206001600160a01b03831684529052828220546024358101929083106109d4576020846104e6858533610ea7565b634e487b7160e01b815260118552602490fd5b505034610216578160031936011261021657602090610a04611152565b9051908152f35b5050346102165781600319360112610216576020905160128152f35b5082903461021657606036600319011261021657610a43610c22565b610a4b610c3d565b91846044359460018060a01b038416815260016020528181203382526020522054906000198203610a85575b6020866104e6878787610d39565b848210610aae5750918391610aa3602096956104e695033383610ea7565b919394819350610a77565b606490602087519162461bcd60e51b8352820152601d60248201527f45524332303a20696e73756666696369656e7420616c6c6f77616e63650000006044820152fd5b5050346102165781600319360112610216576020906002549051908152f35b5050346102165780600319360112610216576020906104e6610b30610c22565b6024359033610ea7565b849084346101c957826003193601126101c95782600354610b5a81610c53565b808552916001918083169081156104945750600114610b855750505061042182610433940383610cbf565b9450600385527fc2575a0e9e593c00f959f8c92f12db2869c3395a3b0502d05e2516446f71f85b5b828610610bca57505050610421826020610433958201019461040f565b80546020878701810191909152909501948101610bad565b919082519283825260005b848110610c0e575050826000602080949584010152601f8019910116010190565b602081830181015184830182015201610bed565b600435906001600160a01b0382168203610c3857565b600080fd5b602435906001600160a01b0382168203610c3857565b90600182811c92168015610c83575b6020831014610c6d57565b634e487b7160e01b600052602260045260246000fd5b91607f1691610c62565b6040810190811067ffffffffffffffff821117610ca957604052565b634e487b7160e01b600052604160045260246000fd5b90601f8019910116810190811067ffffffffffffffff821117610ca957604052565b6009546001600160a01b03163303610cf557565b606460405162461bcd60e51b815260206004820152602060248201527f4f776e61626c653a2063616c6c6572206973206e6f7420746865206f776e65726044820152fd5b6001600160a01b03908116918215610e545716918215610e0357600082815280602052604081205491808310610daf57604082827fddf252ad1be2c89b69c2b068fc378daa952ba7f163c4a11628f55a4df523b3ef958760209652828652038282205586815220818154019055604051908152a3565b60405162461bcd60e51b815260206004820152602660248201527f45524332303a207472616e7366657220616d6f756e7420657863656564732062604482015265616c616e636560d01b6064820152608490fd5b60405162461bcd60e51b815260206004820152602360248201527f45524332303a207472616e7366657220746f20746865207a65726f206164647260448201526265737360e81b6064820152608490fd5b60405162461bcd60e51b815260206004820152602560248201527f45524332303a207472616e736665722066726f6d20746865207a65726f206164604482015264647265737360d81b6064820152608490fd5b6001600160a01b03908116918215610f585716918215610f085760207f8c5be1e5ebec7d5bd14f71427d1e84f3dd0314c0f7b2291e5b200ac8c7c3b925918360005260018252604060002085600052825280604060002055604051908152a3565b60405162461bcd60e51b815260206004820152602260248201527f45524332303a20617070726f766520746f20746865207a65726f206164647265604482015261737360f01b6064820152608490fd5b60405162461bcd60e51b8152602060048201526024808201527f45524332303a20617070726f76652066726f6d20746865207a65726f206164646044820152637265737360e01b6064820152608490fd5b60058110156110ad5780610fba5750565b600181036110075760405162461bcd60e51b815260206004820152601860248201527f45434453413a20696e76616c6964207369676e617475726500000000000000006044820152606490fd5b600281036110545760405162461bcd60e51b815260206004820152601f60248201527f45434453413a20696e76616c6964207369676e6174757265206c656e677468006044820152606490fd5b60031461105d57565b60405162461bcd60e51b815260206004820152602260248201527f45434453413a20696e76616c6964207369676e6174757265202773272076616c604482015261756560f01b6064820152608490fd5b634e487b7160e01b600052602160045260246000fd5b9291907f7fffffffffffffffffffffffffffffff5d576e7357a4501ddfe92f46681b20a083116111465791608094939160ff602094604051948552168484015260408301526060820152600093849182805260015afa156111395781516001600160a01b03811615611133579190565b50600190565b50604051903d90823e3d90fd5b50505050600090600390565b307f00000000000000000000000000000000000000000000000000000000000000006001600160a01b03161480611254575b156111ad577f000000000000000000000000000000000000000000000000000000000000000090565b60405160208101907f8b73c3c69bb8fe3d512ecc4cf759cc79239f7b179b0ffacaa9a75d522b39400f82527f000000000000000000000000000000000000000000000000000000000000000060408201527f000000000000000000000000000000000000000000000000000000000000000060608201524660808201523060a082015260a0815260c0810181811067ffffffffffffffff821117610ca95760405251902090565b507f00000000000000000000000000000000000000000000000000000000000000004614611184565b60ff81146112bb5760ff811690601f82116112a9576040519161129f83610c8d565b8252602082015290565b604051632cd44ac360e21b8152600490fd5b506040516005548160006112ce83610c53565b8083529260019081811690811561135757506001146112f8575b506112f592500382610cbf565b90565b6005600090815291507f036b6384b5eca791c62761152d0c79bb0604c104a5fb6f4eb0703f3154bb3db05b84831061133c57506112f59350508101602001386112e8565b81935090816020925483858901015201910190918492611323565b9050602092506112f594915060ff191682840152151560051b820101386112e8565b60ff811461139b5760ff811690601f82116112a9576040519161129f83610c8d565b506040516006548160006113ae83610c53565b8083529260019081811690811561135757506001146113d457506112f592500382610cbf565b6006600090815291507ff652222313e28459528d920b65115c16c04f3efc82aaedc97be59f3f377c0d3f5b84831061141857506112f59350508101602001386112e8565b819350908160209254838589010152019101909184926113ff56fea164736f6c6343000814000ac65a7bb8d6351c1cf70c95a316cc6a92839c986682d98bc35f958f4883f9d2a8ebcfeb887c9fe4eaee3b330008d80b3d2c92a4fd53a9ba188170c974e31278e8a164736f6c6343000814000a2f8788117e7eff1d82e926ec794901d17c78024a50270940304540a733656f0d",
  "linkReferences": {},
  "deployedLinkReferences": {}
}