{
  "_format": "hh-sol-artifact-1",
  "contractName": "MemeCoinFactory",
  "sourceName": "contracts/MemeCoinFactory.sol",
  "abi": [
    {
      "inputs": [
        {
          "internalType": "uint16",
          "name": "_platformFeeBP",
          "type": "uint16"
        },
        {
          "internalType": "uint16",
          "name": "_referralFeeBP",
          "type": "uint16"
        }
      ],
      "stateMutability": "nonpayable",
      "type": "constructor"
    },
    {
      "anonymous": false,
      "inputs": [
        {
          "indexed": true,
          "internalType": "address",
          "name": "token",
          "type": "address"
        },
        {
          "indexed": true,
          "internalType": "address",
          "name": "buyer",
          "type": "address"
        },
        {
          "indexed": false,
          "internalType": "uint256",
          "name": "amountAtomic",
          "type": "uint256"
        },
        {
          "indexed": false,
          "internalType": "uint256",
          "name": "costWei",
          "type": "uint256"
        },
        {
          "indexed": true,
          "internalType": "address",
          "name": "referrer",
          "type": "address"
        },
        {
          "indexed": false,
          "internalType": "uint256",
          "name": "platformShare",
          "type": "uint256"
        },
        {
          "indexed": false,
          "internalType": "uint256",
          "name": "referralShare",
          "type": "uint256"
        },
        {
          "indexed": false,
          "internalType": "uint256",
          "name": "creatorShare",
          "type": "uint256"
        }
      ],
      "name": "Bought",
      "type": "event"
    },
    {
      "anonymous": false,
      "inputs": [
        {
          "indexed": true,
          "internalType": "address",
          "name": "helper",
          "type": "address"
        }
      ],
      "name": "DexHelperSet",
      "type": "event"
    },
    {
      "anonymous": false,
      "inputs": [
        {
          "indexed": true,
          "internalType": "address",
          "name": "to",
          "type": "address"
        },
        {
          "indexed": false,
          "internalType": "uint256",
          "name": "amount",
          "type": "uint256"
        }
      ],
      "name": "ETHRescued",
      "type": "event"
    },
    {
      "anonymous": false,
      "inputs": [
        {
          "indexed": false,
          "internalType": "uint16",
          "name": "newPlatformBP",
          "type": "uint16"
        },
        {
          "indexed": false,
          "internalType": "uint16",
          "name": "newReferralBP",
          "type": "uint16"
        }
      ],
      "name": "FeesUpdated",
      "type": "event"
    },
    {
      "anonymous": false,
      "inputs": [
        {
          "indexed": true,
          "internalType": "address",
          "name": "token",
          "type": "address"
        },
        {
          "indexed": false,
          "internalType": "string",
          "name": "desc",
          "type": "string"
        },
        {
          "indexed": false,
          "internalType": "string",
          "name": "ipfsHash",
          "type": "string"
        }
      ],
      "name": "MetadataUpdated",
      "type": "event"
    },
    {
      "anonymous": false,
      "inputs": [
        {
          "indexed": false,
          "internalType": "address",
          "name": "account",
          "type": "address"
        }
      ],
      "name": "Paused",
      "type": "event"
    },
    {
      "anonymous": false,
      "inputs": [
        {
          "indexed": false,
          "internalType": "bytes32",
          "name": "newRoot",
          "type": "bytes32"
        }
      ],
      "name": "PresaleRootUpdated",
      "type": "event"
    },
    {
      "anonymous": false,
      "inputs": [
        {
          "indexed": true,
          "internalType": "address",
          "name": "token",
          "type": "address"
        },
        {
          "indexed": false,
          "internalType": "uint256",
          "name": "newPriceWei",
          "type": "uint256"
        }
      ],
      "name": "PriceUpdated",
      "type": "event"
    },
    {
      "anonymous": false,
      "inputs": [
        {
          "indexed": true,
          "internalType": "bytes32",
          "name": "role",
          "type": "bytes32"
        },
        {
          "indexed": true,
          "internalType": "bytes32",
          "name": "previousAdminRole",
          "type": "bytes32"
        },
        {
          "indexed": true,
          "internalType": "bytes32",
          "name": "newAdminRole",
          "type": "bytes32"
        }
      ],
      "name": "RoleAdminChanged",
      "type": "event"
    },
    {
      "anonymous": false,
      "inputs": [
        {
          "indexed": true,
          "internalType": "bytes32",
          "name": "role",
          "type": "bytes32"
        },
        {
          "indexed": true,
          "internalType": "address",
          "name": "account",
          "type": "address"
        },
        {
          "indexed": true,
          "internalType": "address",
          "name": "sender",
          "type": "address"
        }
      ],
      "name": "RoleGranted",
      "type": "event"
    },
    {
      "anonymous": false,
      "inputs": [
        {
          "indexed": true,
          "internalType": "bytes32",
          "name": "role",
          "type": "bytes32"
        },
        {
          "indexed": true,
          "internalType": "address",
          "name": "account",
          "type": "address"
        },
        {
          "indexed": true,
          "internalType": "address",
          "name": "sender",
          "type": "address"
        }
      ],
      "name": "RoleRevoked",
      "type": "event"
    },
    {
      "anonymous": false,
      "inputs": [
        {
          "indexed": true,
          "internalType": "address",
          "name": "token",
          "type": "address"
        },
        {
          "indexed": true,
          "internalType": "address",
          "name": "creator",
          "type": "address"
        },
        {
          "indexed": false,
          "internalType": "uint256",
          "name": "priceWei",
          "type": "uint256"
        },
        {
          "indexed": false,
          "internalType": "string",
          "name": "description",
          "type": "string"
        },
        {
          "indexed": false,
          "internalType": "string",
          "name": "ipfsHash",
          "type": "string"
        }
      ],
      "name": "TokenCreated",
      "type": "event"
    },
    {
      "anonymous": false,
      "inputs": [
        {
          "indexed": true,
          "internalType": "address",
          "name": "token",
          "type": "address"
        }
      ],
      "name": "TokenPaused",
      "type": "event"
    },
    {
      "anonymous": false,
      "inputs": [
        {
          "indexed": true,
          "internalType": "address",
          "name": "token",
          "type": "address"
        },
        {
          "indexed": false,
          "internalType": "uint256",
          "name": "amount",
          "type": "uint256"
        }
      ],
      "name": "TokenRescued",
      "type": "event"
    },
    {
      "anonymous": false,
      "inputs": [
        {
          "indexed": true,
          "internalType": "address",
          "name": "token",
          "type": "address"
        }
      ],
      "name": "TokenUnpaused",
      "type": "event"
    },
    {
      "anonymous": false,
      "inputs": [
        {
          "indexed": false,
          "internalType": "address",
          "name": "account",
          "type": "address"
        }
      ],
      "name": "Unpaused",
      "type": "event"
    },
    {
      "anonymous": false,
      "inputs": [
        {
          "indexed": true,
          "internalType": "address",
          "name": "token",
          "type": "address"
        },
        {
          "indexed": false,
          "internalType": "uint256",
          "name": "amount",
          "type": "uint256"
        }
      ],
      "name": "UnsoldReclaimed",
      "type": "event"
    },
    {
      "anonymous": false,
      "inputs": [
        {
          "indexed": true,
          "internalType": "address",
          "name": "token",
          "type": "address"
        },
        {
          "indexed": true,
          "internalType": "address",
          "name": "user",
          "type": "address"
        }
      ],
      "name": "UserWhitelisted",
      "type": "event"
    },
    {
      "anonymous": false,
      "inputs": [
        {
          "indexed": true,
          "internalType": "address",
          "name": "beneficiary",
          "type": "address"
        },
        {
          "indexed": true,
          "internalType": "address",
          "name": "token",
          "type": "address"
        },
        {
          "indexed": false,
          "internalType": "uint256",
          "name": "amountClaimed",
          "type": "uint256"
        }
      ],
      "name": "VestedClaimed",
      "type": "event"
    },
    {
      "anonymous": false,
      "inputs": [
        {
          "indexed": true,
          "internalType": "address",
          "name": "beneficiary",
          "type": "address"
        },
        {
          "indexed": true,
          "internalType": "address",
          "name": "token",
          "type": "address"
        },
        {
          "indexed": false,
          "internalType": "uint256",
          "name": "total",
          "type": "uint256"
        },
        {
          "indexed": false,
          "internalType": "uint256",
          "name": "start",
          "type": "uint256"
        },
        {
          "indexed": false,
          "internalType": "uint256",
          "name": "cliff",
          "type": "uint256"
        },
        {
          "indexed": false,
          "internalType": "uint256",
          "name": "duration",
          "type": "uint256"
        }
      ],
      "name": "VestingScheduleSet",
      "type": "event"
    },
    {
      "anonymous": false,
      "inputs": [
        {
          "indexed": true,
          "internalType": "address",
          "name": "token",
          "type": "address"
        },
        {
          "indexed": false,
          "internalType": "bool",
          "name": "enabled",
          "type": "bool"
        }
      ],
      "name": "WhitelistToggled",
      "type": "event"
    },
    {
      "stateMutability": "payable",
      "type": "fallback"
    },
    {
      "inputs": [],
      "name": "DEFAULT_ADMIN_ROLE",
      "outputs": [
        {
          "internalType": "bytes32",
          "name": "",
          "type": "bytes32"
        }
      ],
      "stateMutability": "view",
      "type": "function"
    },
    {
      "inputs": [],
      "name": "OPERATOR_ROLE",
      "outputs": [
        {
          "internalType": "bytes32",
          "name": "",
          "type": "bytes32"
        }
      ],
      "stateMutability": "view",
      "type": "function"
    },
    {
      "inputs": [],
      "name": "PAUSER_ROLE",
      "outputs": [
        {
          "internalType": "bytes32",
          "name": "",
          "type": "bytes32"
        }
      ],
      "stateMutability": "view",
      "type": "function"
    },
    {
      "inputs": [
        {
          "internalType": "address",
          "name": "token_",
          "type": "address"
        },
        {
          "internalType": "address[]",
          "name": "users",
          "type": "address[]"
        }
      ],
      "name": "addToWhitelist",
      "outputs": [],
      "stateMutability": "nonpayable",
      "type": "function"
    },
    {
      "inputs": [
        {
          "internalType": "address",
          "name": "token_",
          "type": "address"
        },
        {
          "internalType": "uint256",
          "name": "amountToken_",
          "type": "uint256"
        }
      ],
      "name": "addTokenLiquidity",
      "outputs": [],
      "stateMutability": "payable",
      "type": "function"
    },
    {
      "inputs": [
        {
          "internalType": "uint256",
          "name": "",
          "type": "uint256"
        }
      ],
      "name": "allTokens",
      "outputs": [
        {
          "internalType": "address",
          "name": "token",
          "type": "address"
        },
        {
          "internalType": "address",
          "name": "creator",
          "type": "address"
        },
        {
          "internalType": "uint256",
          "name": "priceWei",
          "type": "uint256"
        },
        {
          "internalType": "string",
          "name": "description",
          "type": "string"
        },
        {
          "internalType": "string",
          "name": "ipfsHash",
          "type": "string"
        }
      ],
      "stateMutability": "view",
      "type": "function"
    },
    {
      "inputs": [
        {
          "internalType": "address",
          "name": "token_",
          "type": "address"
        },
        {
          "internalType": "uint256",
          "name": "amt",
          "type": "uint256"
        },
        {
          "internalType": "address",
          "name": "ref",
          "type": "address"
        },
        {
          "internalType": "bytes32[]",
          "name": "proof",
          "type": "bytes32[]"
        }
      ],
      "name": "buyPresale",
      "outputs": [],
      "stateMutability": "payable",
      "type": "function"
    },
    {
      "inputs": [
        {
          "internalType": "address",
          "name": "token_",
          "type": "address"
        },
        {
          "internalType": "uint256",
          "name": "amountAtomic",
          "type": "uint256"
        },
        {
          "internalType": "address",
          "name": "referrer",
          "type": "address"
        }
      ],
      "name": "buyToken",
      "outputs": [],
      "stateMutability": "payable",
      "type": "function"
    },
    {
      "inputs": [],
      "name": "claimVested",
      "outputs": [],
      "stateMutability": "nonpayable",
      "type": "function"
    },
    {
      "inputs": [
        {
          "internalType": "address",
          "name": "factory_",
          "type": "address"
        },
        {
          "internalType": "address",
          "name": "router_",
          "type": "address"
        }
      ],
      "name": "configureDex",
      "outputs": [],
      "stateMutability": "nonpayable",
      "type": "function"
    },
    {
      "inputs": [
        {
          "internalType": "string",
          "name": "name_",
          "type": "string"
        },
        {
          "internalType": "string",
          "name": "symbol_",
          "type": "string"
        },
        {
          "internalType": "string",
          "name": "description_",
          "type": "string"
        },
        {
          "internalType": "uint256",
          "name": "totalSupply_",
          "type": "uint256"
        },
        {
          "internalType": "uint256",
          "name": "priceWei_",
          "type": "uint256"
        },
        {
          "internalType": "string",
          "name": "ipfsHash_",
          "type": "string"
        }
      ],
      "name": "createMemeCoin",
      "outputs": [
        {
          "internalType": "address",
          "name": "",
          "type": "address"
        }
      ],
      "stateMutability": "nonpayable",
      "type": "function"
    },
    {
      "inputs": [
        {
          "internalType": "address",
          "name": "token_",
          "type": "address"
        }
      ],
      "name": "createPair",
      "outputs": [],
      "stateMutability": "nonpayable",
      "type": "function"
    },
    {
      "inputs": [
        {
          "internalType": "address",
          "name": "",
          "type": "address"
        }
      ],
      "name": "creatorFeesAccrued",
      "outputs": [
        {
          "internalType": "uint256",
          "name": "",
          "type": "uint256"
        }
      ],
      "stateMutability": "view",
      "type": "function"
    },
    {
      "inputs": [],
      "name": "dexHelper",
      "outputs": [
        {
          "internalType": "contract IMemeCoinDEXHelper",
          "name": "",
          "type": "address"
        }
      ],
      "stateMutability": "view",
      "type": "function"
    },
    {
      "inputs": [],
      "name": "emergencyWithdrawETH",
      "outputs": [],
      "stateMutability": "nonpayable",
      "type": "function"
    },
    {
      "inputs": [
        {
          "internalType": "address",
          "name": "token_",
          "type": "address"
        }
      ],
      "name": "emergencyWithdrawToken",
      "outputs": [],
      "stateMutability": "nonpayable",
      "type": "function"
    },
    {
      "inputs": [
        {
          "internalType": "bytes32",
          "name": "role",
          "type": "bytes32"
        }
      ],
      "name": "getRoleAdmin",
      "outputs": [
        {
          "internalType": "bytes32",
          "name": "",
          "type": "bytes32"
        }
      ],
      "stateMutability": "view",
      "type": "function"
    },
    {
      "inputs": [
        {
          "internalType": "uint256",
          "name": "index",
          "type": "uint256"
        }
      ],
      "name": "getTokenDetails",
      "outputs": [
        {
          "internalType": "address",
          "name": "token",
          "type": "address"
        },
        {
          "internalType": "address",
          "name": "creator",
          "type": "address"
        },
        {
          "internalType": "uint256",
          "name": "priceWei",
          "type": "uint256"
        },
        {
          "internalType": "string",
          "name": "description",
          "type": "string"
        },
        {
          "internalType": "string",
          "name": "ipfsHash",
          "type": "string"
        }
      ],
      "stateMutability": "view",
      "type": "function"
    },
    {
      "inputs": [
        {
          "internalType": "address",
          "name": "token_",
          "type": "address"
        }
      ],
      "name": "getTokenDetailsByAddress",
      "outputs": [
        {
          "internalType": "address",
          "name": "creator",
          "type": "address"
        },
        {
          "internalType": "uint256",
          "name": "priceWei",
          "type": "uint256"
        },
        {
          "internalType": "string",
          "name": "description",
          "type": "string"
        },
        {
          "internalType": "string",
          "name": "ipfsHash",
          "type": "string"
        }
      ],
      "stateMutability": "view",
      "type": "function"
    },
    {
      "inputs": [
        {
          "internalType": "address",
          "name": "token_",
          "type": "address"
        }
      ],
      "name": "getTokenIndex",
      "outputs": [
        {
          "internalType": "uint256",
          "name": "",
          "type": "uint256"
        }
      ],
      "stateMutability": "view",
      "type": "function"
    },
    {
      "inputs": [
        {
          "internalType": "address",
          "name": "creator_",
          "type": "address"
        }
      ],
      "name": "getTokensByCreator",
      "outputs": [
        {
          "components": [
            {
              "internalType": "address",
              "name": "token",
              "type": "address"
            },
            {
              "internalType": "address",
              "name": "creator",
              "type": "address"
            },
            {
              "internalType": "uint256",
              "name": "priceWei",
              "type": "uint256"
            },
            {
              "internalType": "string",
              "name": "description",
              "type": "string"
            },
            {
              "internalType": "string",
              "name": "ipfsHash",
              "type": "string"
            }
          ],
          "internalType": "struct MemeCoinFactory.TokenInfo[]",
          "name": "",
          "type": "tuple[]"
        }
      ],
      "stateMutability": "view",
      "type": "function"
    },
    {
      "inputs": [
        {
          "internalType": "bytes32",
          "name": "role",
          "type": "bytes32"
        },
        {
          "internalType": "address",
          "name": "account",
          "type": "address"
        }
      ],
      "name": "grantRole",
      "outputs": [],
      "stateMutability": "nonpayable",
      "type": "function"
    },
    {
      "inputs": [
        {
          "internalType": "bytes32",
          "name": "role",
          "type": "bytes32"
        },
        {
          "internalType": "address",
          "name": "account",
          "type": "address"
        }
      ],
      "name": "hasRole",
      "outputs": [
        {
          "internalType": "bool",
          "name": "",
          "type": "bool"
        }
      ],
      "stateMutability": "view",
      "type": "function"
    },
    {
      "inputs": [],
      "name": "pause",
      "outputs": [],
      "stateMutability": "nonpayable",
      "type": "function"
    },
    {
      "inputs": [
        {
          "internalType": "address",
          "name": "token_",
          "type": "address"
        }
      ],
      "name": "pauseTokenSales",
      "outputs": [],
      "stateMutability": "nonpayable",
      "type": "function"
    },
    {
      "inputs": [],
      "name": "paused",
      "outputs": [
        {
          "internalType": "bool",
          "name": "",
          "type": "bool"
        }
      ],
      "stateMutability": "view",
      "type": "function"
    },
    {
      "inputs": [],
      "name": "platformFeeBP",
      "outputs": [
        {
          "internalType": "uint16",
          "name": "",
          "type": "uint16"
        }
      ],
      "stateMutability": "view",
      "type": "function"
    },
    {
      "inputs": [],
      "name": "platformFeesAccrued",
      "outputs": [
        {
          "internalType": "uint256",
          "name": "",
          "type": "uint256"
        }
      ],
      "stateMutability": "view",
      "type": "function"
    },
    {
      "inputs": [],
      "name": "presaleMerkleRoot",
      "outputs": [
        {
          "internalType": "bytes32",
          "name": "",
          "type": "bytes32"
        }
      ],
      "stateMutability": "view",
      "type": "function"
    },
    {
      "inputs": [
        {
          "internalType": "address",
          "name": "token_",
          "type": "address"
        },
        {
          "internalType": "uint256",
          "name": "amount",
          "type": "uint256"
        }
      ],
      "name": "reclaimUnsold",
      "outputs": [],
      "stateMutability": "nonpayable",
      "type": "function"
    },
    {
      "inputs": [
        {
          "internalType": "address[]",
          "name": "toks",
          "type": "address[]"
        },
        {
          "internalType": "uint256[]",
          "name": "amts",
          "type": "uint256[]"
        }
      ],
      "name": "reclaimUnsoldBatch",
      "outputs": [],
      "stateMutability": "nonpayable",
      "type": "function"
    },
    {
      "inputs": [],
      "name": "referralFeeBP",
      "outputs": [
        {
          "internalType": "uint16",
          "name": "",
          "type": "uint16"
        }
      ],
      "stateMutability": "view",
      "type": "function"
    },
    {
      "inputs": [
        {
          "internalType": "address",
          "name": "",
          "type": "address"
        }
      ],
      "name": "referralFeesAccrued",
      "outputs": [
        {
          "internalType": "uint256",
          "name": "",
          "type": "uint256"
        }
      ],
      "stateMutability": "view",
      "type": "function"
    },
    {
      "inputs": [
        {
          "internalType": "address",
          "name": "token_",
          "type": "address"
        },
        {
          "internalType": "uint256",
          "name": "liq_",
          "type": "uint256"
        }
      ],
      "name": "removeTokenLiquidity",
      "outputs": [],
      "stateMutability": "nonpayable",
      "type": "function"
    },
    {
      "inputs": [
        {
          "internalType": "bytes32",
          "name": "role",
          "type": "bytes32"
        },
        {
          "internalType": "address",
          "name": "account",
          "type": "address"
        }
      ],
      "name": "renounceRole",
      "outputs": [],
      "stateMutability": "nonpayable",
      "type": "function"
    },
    {
      "inputs": [
        {
          "internalType": "address",
          "name": "token_",
          "type": "address"
        },
        {
          "internalType": "uint256",
          "name": "amount",
          "type": "uint256"
        }
      ],
      "name": "rescueERC20",
      "outputs": [],
      "stateMutability": "nonpayable",
      "type": "function"
    },
    {
      "inputs": [
        {
          "internalType": "bytes32",
          "name": "role",
          "type": "bytes32"
        },
        {
          "internalType": "address",
          "name": "account",
          "type": "address"
        }
      ],
      "name": "revokeRole",
      "outputs": [],
      "stateMutability": "nonpayable",
      "type": "function"
    },
    {
      "inputs": [
        {
          "internalType": "address",
          "name": "helper_",
          "type": "address"
        }
      ],
      "name": "setDexHelper",
      "outputs": [],
      "stateMutability": "nonpayable",
      "type": "function"
    },
    {
      "inputs": [
        {
          "internalType": "bytes32",
          "name": "root_",
          "type": "bytes32"
        }
      ],
      "name": "setPresaleMerkleRoot",
      "outputs": [],
      "stateMutability": "nonpayable",
      "type": "function"
    },
    {
      "inputs": [
        {
          "internalType": "address",
          "name": "beneficiary",
          "type": "address"
        },
        {
          "internalType": "address",
          "name": "token_",
          "type": "address"
        },
        {
          "internalType": "uint256",
          "name": "total",
          "type": "uint256"
        },
        {
          "internalType": "uint256",
          "name": "cliff",
          "type": "uint256"
        },
        {
          "internalType": "uint256",
          "name": "duration",
          "type": "uint256"
        }
      ],
      "name": "setVestingSchedule",
      "outputs": [],
      "stateMutability": "nonpayable",
      "type": "function"
    },
    {
      "inputs": [
        {
          "internalType": "bytes4",
          "name": "interfaceId",
          "type": "bytes4"
        }
      ],
      "name": "supportsInterface",
      "outputs": [
        {
          "internalType": "bool",
          "name": "",
          "type": "bool"
        }
      ],
      "stateMutability": "view",
      "type": "function"
    },
    {
      "inputs": [
        {
          "internalType": "address",
          "name": "token_",
          "type": "address"
        },
        {
          "internalType": "bool",
          "name": "on",
          "type": "bool"
        }
      ],
      "name": "toggleWhitelist",
      "outputs": [],
      "stateMutability": "nonpayable",
      "type": "function"
    },
    {
      "inputs": [
        {
          "internalType": "address",
          "name": "",
          "type": "address"
        }
      ],
      "name": "tokenIndexPlusOne",
      "outputs": [
        {
          "internalType": "uint256",
          "name": "",
          "type": "uint256"
        }
      ],
      "stateMutability": "view",
      "type": "function"
    },
    {
      "inputs": [
        {
          "internalType": "address",
          "name": "",
          "type": "address"
        }
      ],
      "name": "tokenPaused",
      "outputs": [
        {
          "internalType": "bool",
          "name": "",
          "type": "bool"
        }
      ],
      "stateMutability": "view",
      "type": "function"
    },
    {
      "inputs": [],
      "name": "unpause",
      "outputs": [],
      "stateMutability": "nonpayable",
      "type": "function"
    },
    {
      "inputs": [
        {
          "internalType": "address",
          "name": "token_",
          "type": "address"
        }
      ],
      "name": "unpauseTokenSales",
      "outputs": [],
      "stateMutability": "nonpayable",
      "type": "function"
    },
    {
      "inputs": [
        {
          "internalType": "address",
          "name": "token_",
          "type": "address"
        }
      ],
      "name": "unsoldSupply",
      "outputs": [
        {
          "internalType": "uint256",
          "name": "",
          "type": "uint256"
        }
      ],
      "stateMutability": "view",
      "type": "function"
    },
    {
      "inputs": [
        {
          "internalType": "address",
          "name": "",
          "type": "address"
        }
      ],
      "name": "vestingSchedules",
      "outputs": [
        {
          "internalType": "address",
          "name": "token",
          "type": "address"
        },
        {
          "internalType": "uint256",
          "name": "total",
          "type": "uint256"
        },
        {
          "internalType": "uint256",
          "name": "claimed",
          "type": "uint256"
        },
        {
          "internalType": "uint256",
          "name": "start",
          "type": "uint256"
        },
        {
          "internalType": "uint256",
          "name": "cliff",
          "type": "uint256"
        },
        {
          "internalType": "uint256",
          "name": "duration",
          "type": "uint256"
        }
      ],
      "stateMutability": "view",
      "type": "function"
    },
    {
      "inputs": [
        {
          "internalType": "address",
          "name": "",
          "type": "address"
        }
      ],
      "name": "whitelistEnabled",
      "outputs": [
        {
          "internalType": "bool",
          "name": "",
          "type": "bool"
        }
      ],
      "stateMutability": "view",
      "type": "function"
    },
    {
      "inputs": [
        {
          "internalType": "address",
          "name": "",
          "type": "address"
        },
        {
          "internalType": "address",
          "name": "",
          "type": "address"
        }
      ],
      "name": "whitelisted",
      "outputs": [
        {
          "internalType": "bool",
          "name": "",
          "type": "bool"
        }
      ],
      "stateMutability": "view",
      "type": "function"
    },
    {
      "stateMutability": "payable",
      "type": "receive"
    }
  ],
  "bytecode": "0x60806040523480156200001157600080fd5b5060405162005cd638038062005cd68339810160408190526200003491620001ea565b6001805460ff1916815560025561271062000050828462000222565b61ffff1610620000965760405162461bcd60e51b815260206004820152600d60248201526c08ccacae640e8dede40d0d2ced609b1b604482015260640160405180910390fd5b6003805461ffff838116620100000263ffffffff1990921690851617179055620000c260003362000122565b620000ee7f65d7a28e3265b37a6474929f336521b332c1681b933f6cb9f3376673440d862a3362000122565b6200011a7f97667070c54ef182b0f5858b034beac1b6f3089aa2d3188bb1e8929f4fa9b9293362000122565b505062000253565b6200012e828262000132565b5050565b6000828152602081815260408083206001600160a01b038516845290915290205460ff166200012e576000828152602081815260408083206001600160a01b03851684529091529020805460ff191660011790556200018e3390565b6001600160a01b0316816001600160a01b0316837f2f8788117e7eff1d82e926ec794901d17c78024a50270940304540a733656f0d60405160405180910390a45050565b805161ffff81168114620001e557600080fd5b919050565b60008060408385031215620001fe57600080fd5b6200020983620001d2565b91506200021960208401620001d2565b90509250929050565b61ffff8181168382160190808211156200024c57634e487b7160e01b600052601160045260246000fd5b5092915050565b615a7380620002636000396000f3fe608060405260043610620002715760003560e01c806301ffc9a714620002b45780630e3f0cfc14620002ee57806314fe72aa146200031557806315a1603b146200032c5780631af03203146200035157806322163b86146200037657806322212e2b146200039d578063248a9ca314620003b557806328d7b27614620003da5780632f2ff15d14620003ff5780633338c5b6146200042457806333f3f078146200045b578063349123d1146200048057806335a62e6814620004a557806336568abe14620004d65780633d94bdbb14620004fb5780633f4ba83a14620005205780635c975abb1462000538578063634282af146200055257806364618cf9146200058a57806366c0bd2414620005a157806366c5b06c14620005c6578063692bf4a814620005eb57806379c8ffd614620006025780637a86279b146200063657806384536017146200065b5780638456cb59146200067357806384d93612146200068b5780638995881d14620006b05780638cd4426d14620006e457806391d1485414620007095780639ccb0744146200072e578063a217fddf1462000753578063bc120fe7146200076a578063c1e0372814620007a9578063c748713e14620007ce578063d01c44cd14620007ff578063d547741f1462000817578063d5c71275146200083c578063d634b4191462000870578063dc4ec9be14620008a4578063dc97ecf614620008db578063e4c608f11462000900578063e559afd91462000922578063e63ab1e91462000947578063f0b6374b146200096c578063f37ef78c1462000991578063f5b541a614620009c2578063fdb20ccb14620009e7578063ff96092a1462000a7d576200029a565b366200029a5760405162461bcd60e51b815260040162000291906200325d565b60405180910390fd5b60405162461bcd60e51b815260040162000291906200325d565b348015620002c157600080fd5b50620002d9620002d336600462003283565b62000a9a565b60405190151581526020015b60405180910390f35b348015620002fb57600080fd5b50620003136200030d366004620032c5565b62000ad2565b005b6200031362000326366004620032c5565b62000bea565b3480156200033957600080fd5b50620003136200034b366004620032f4565b62000c92565b3480156200035e57600080fd5b506200031362000370366004620032f4565b62000d32565b3480156200038357600080fd5b506200038e60045481565b604051908152602001620002e5565b348015620003aa57600080fd5b506200038e60075481565b348015620003c257600080fd5b506200038e620003d436600462003314565b62000e52565b348015620003e757600080fd5b5062000313620003f936600462003314565b62000e67565b3480156200040c57600080fd5b50620003136200041e3660046200332e565b62000ebe565b3480156200043157600080fd5b506200044962000443366004620032f4565b62000ee5565b604051620002e59493929190620033b5565b3480156200046857600080fd5b506200038e6200047a366004620032f4565b620010b9565b3480156200048d57600080fd5b50620003136200049f36600462003401565b6200112e565b348015620004b257600080fd5b506200038e620004c4366004620032f4565b600b6020526000908152604090205481565b348015620004e357600080fd5b5062000313620004f53660046200332e565b620011aa565b3480156200050857600080fd5b50620003136200051a36600462003434565b62001228565b3480156200052d57600080fd5b5062000313620013dc565b3480156200054557600080fd5b5060015460ff16620002d9565b3480156200055f57600080fd5b50620005776200057136600462003314565b62001404565b604051620002e59594939291906200348a565b620003136200059b3660046200352d565b62001577565b348015620005ae57600080fd5b506200038e620005c0366004620032f4565b6200163b565b348015620005d357600080fd5b5062000313620005e5366004620032f4565b6200168a565b62000313620005fc366004620035a7565b620016f2565b3480156200060f57600080fd5b50620002d962000621366004620032f4565b60086020526000908152604090205460ff1681565b3480156200064357600080fd5b506200031362000655366004620035ee565b62001a77565b3480156200066857600080fd5b506200031362001c4c565b3480156200068057600080fd5b506200031362001d0b565b3480156200069857600080fd5b5062000313620006aa366004620032c5565b62001d30565b348015620006bd57600080fd5b50620002d9620006cf366004620032f4565b600c6020526000908152604090205460ff1681565b348015620006f157600080fd5b506200031362000703366004620032c5565b62001dce565b3480156200071657600080fd5b50620002d9620007283660046200332e565b62001e26565b3480156200073b57600080fd5b50620003136200074d366004620032f4565b62001e4f565b3480156200076057600080fd5b506200038e600081565b3480156200077757600080fd5b50620002d96200078936600462003660565b600960209081526000928352604080842090915290825290205460ff1681565b348015620007b657600080fd5b5062000577620007c836600462003314565b62001eec565b348015620007db57600080fd5b506200038e620007ed366004620032f4565b60066020526000908152604090205481565b3480156200080c57600080fd5b506200031362002084565b3480156200082457600080fd5b5062000313620008363660046200332e565b6200223d565b3480156200084957600080fd5b50620008616200085b366004620032f4565b6200225f565b604051620002e5919062003693565b3480156200087d57600080fd5b50620008956200088f36600462003793565b62002588565b604051620002e5919062003879565b348015620008b157600080fd5b50600354620008c79062010000900461ffff1681565b60405161ffff9091168152602001620002e5565b348015620008e857600080fd5b5062000313620008fa36600462003660565b620027f6565b3480156200090d57600080fd5b50600e5462000895906001600160a01b031681565b3480156200092f57600080fd5b5062000313620009413660046200388d565b6200287b565b3480156200095457600080fd5b506200038e600080516020620059de83398151915281565b3480156200097957600080fd5b50620003136200098b366004620032f4565b62002991565b3480156200099e57600080fd5b506200038e620009b0366004620032f4565b60056020526000908152604090205481565b348015620009cf57600080fd5b506200038e600080516020620059be83398151915281565b348015620009f457600080fd5b5062000a4562000a06366004620032f4565b600d602052600090815260409020805460018201546002830154600384015460048501546005909501546001600160a01b039094169492939192909186565b604080516001600160a01b0390971687526020870195909552938501929092526060840152608083015260a082015260c001620002e5565b34801562000a8a57600080fd5b50600354620008c79061ffff1681565b60006001600160e01b03198216637965db0b60e01b148062000acc57506301ffc9a760e01b6001600160e01b03198316145b92915050565b62000adc620029f6565b62000ae662002a3e565b6001600160a01b0382166000908152600b60205260408120549081900362000b225760405162461bcd60e51b81526004016200029190620038e7565b6000600a62000b3360018462003922565b8154811062000b465762000b4662003938565b6000918252602090912060059091020160018101549091506001600160a01b0316331462000b885760405162461bcd60e51b815260040162000291906200394e565b600181015462000ba6906001600160a01b0386811691168562002a97565b836001600160a01b0316600080516020620059fe8339815191528460405162000bd191815260200190565b60405180910390a2505062000be66001600255565b5050565b600080516020620059be83398151915262000c058162002af1565b62000c0f620029f6565b600e546040516256688760e81b81526001600160a01b0390911690635668870090349062000c44908790879060040162003975565b60606040518083038185885af115801562000c63573d6000803e3d6000fd5b50505050506040513d601f19601f8201168201806040525081019062000c8a91906200398e565b505050505050565b600062000c9f8162002af1565b6001600160a01b03821662000ce75760405162461bcd60e51b815260206004820152600d60248201526c24b73b30b634b22432b63832b960991b604482015260640162000291565b600e80546001600160a01b0319166001600160a01b0384169081179091556040517fc420e02f8f25bc483d2d29b2f718e07c863d3e50c4775cb9e4d3c16984c13a4d90600090a25050565b600062000d3f8162002af1565b62000d4962002a3e565b6040516370a0823160e01b81526000906001600160a01b038416906370a082319062000d7a90309060040162003879565b602060405180830381865afa15801562000d98573d6000803e3d6000fd5b505050506040513d601f19601f8201168201806040525081019062000dbe9190620039bd565b90506000811162000dfd5760405162461bcd60e51b81526020600482015260086024820152674e6f546f6b656e7360c01b604482015260640162000291565b62000e136001600160a01b038416338362002a97565b826001600160a01b031660008051602062005a1e8339815191528260405162000e3e91815260200190565b60405180910390a25062000be66001600255565b60009081526020819052604090206001015490565b600080516020620059be83398151915262000e828162002af1565b60078290556040518281527f27f971fd4accb41a60bcef5477f2a70aa17efca3a2c33b138e3aa62a3d891c6d9060200160405180910390a15050565b62000ec98262000e52565b62000ed48162002af1565b62000ee0838362002afd565b505050565b6001600160a01b0381166000908152600b60205260408120548190606090819080840362000f275760405162461bcd60e51b81526004016200029190620038e7565b6000600a62000f3860018462003922565b8154811062000f4b5762000f4b62003938565b906000526020600020906005020190508060010160009054906101000a90046001600160a01b03168160020154826003018360040181805462000f8e90620039d7565b80601f016020809104026020016040519081016040528092919081815260200182805462000fbc90620039d7565b80156200100d5780601f1062000fe1576101008083540402835291602001916200100d565b820191906000526020600020905b81548152906001019060200180831162000fef57829003601f168201915b505050505091508080546200102290620039d7565b80601f01602080910402602001604051908101604052809291908181526020018280546200105090620039d7565b8015620010a15780601f106200107557610100808354040283529160200191620010a1565b820191906000526020600020905b8154815290600101906020018083116200108357829003601f168201915b50505050509050955095509550955050509193509193565b6040516370a0823160e01b81526000906001600160a01b038316906370a0823190620010ea90309060040162003879565b602060405180830381865afa15801562001108573d6000803e3d6000fd5b505050506040513d601f19601f8201168201806040525081019062000acc9190620039bd565b600080516020620059be833981519152620011498162002af1565b6001600160a01b038316600081815260086020908152604091829020805460ff191686151590811790915591519182527fdb17f7dcc6b9d3c099107ae3eea3dcc0ce959cda4b7b164cac7f8f9c8413971991015b60405180910390a2505050565b6001600160a01b03811633146200121c5760405162461bcd60e51b815260206004820152602f60248201527f416363657373436f6e74726f6c3a2063616e206f6e6c792072656e6f756e636560448201526e103937b632b9903337b91039b2b63360891b606482015260840162000291565b62000be6828262002b85565b600080516020620059be833981519152620012438162002af1565b6200124d620029f6565b6000841180156200125d57508282115b620012975760405162461bcd60e51b8152602060048201526009602482015268426164506172616d7360b81b604482015260640162000291565b620012ae6001600160a01b03861633308762002bed565b6040518060c00160405280866001600160a01b031681526020018581526020016000815260200142815260200184815260200183815250600d6000886001600160a01b03166001600160a01b0316815260200190815260200160002060008201518160000160006101000a8154816001600160a01b0302191690836001600160a01b031602179055506020820151816001015560408201518160020155606082015181600301556080820151816004015560a08201518160050155905050846001600160a01b0316866001600160a01b03167f85ea0818780c5d304e8bfc41cc38a02f61338ca0966c8bbb0b883de4cce660fd86428787604051620013cc949392919093845260208401929092526040830152606082015260800190565b60405180910390a3505050505050565b600080516020620059de833981519152620013f78162002af1565b6200140162002c27565b50565b600a81815481106200141557600080fd5b600091825260209091206005909102018054600182015460028301546003840180546001600160a01b0394851696509290931693909290916200145890620039d7565b80601f01602080910402602001604051908101604052809291908181526020018280546200148690620039d7565b8015620014d75780601f10620014ab57610100808354040283529160200191620014d7565b820191906000526020600020905b815481529060010190602001808311620014b957829003601f168201915b505050505090806004018054620014ee90620039d7565b80601f01602080910402602001604051908101604052809291908181526020018280546200151c90620039d7565b80156200156d5780601f1062001541576101008083540402835291602001916200156d565b820191906000526020600020905b8154815290600101906020018083116200154f57829003601f168201915b5050505050905085565b62001581620029f6565b6200158b62002a3e565b620015fd828280806020026020016040519081016040528093929190818152602001838360200280828437600092019190915250506007546040516001600160601b03193360601b16602082015290925060340190506040516020818303038152906040528051906020012062002c77565b6200161c5760405162461bcd60e51b8152600401620002919062003a13565b62001629858585620016f2565b620016346001600255565b5050505050565b6001600160a01b0381166000908152600b6020526040812054808203620016765760405162461bcd60e51b81526004016200029190620038e7565b6200168360018262003922565b9392505050565b600080516020620059be833981519152620016a58162002af1565b6001600160a01b0382166000818152600c6020526040808220805460ff19166001179055517ff017c0de579727a3cd3ee18077ee8b4c43bf21892985952d1d5a0d52f983502d9190a25050565b620016fc620029f6565b6200170662002a3e565b60008211620017455760405162461bcd60e51b815260206004820152600a60248201526916995c9bd05b5bdd5b9d60b21b604482015260640162000291565b6001600160a01b0383166000908152600c602052604090205460ff16156200179e5760405162461bcd60e51b815260206004820152600b60248201526a151bdad95b94185d5cd95960aa1b604482015260640162000291565b6001600160a01b0383166000908152600b602052604081205490819003620017da5760405162461bcd60e51b81526004016200029190620038e7565b6001600160a01b03841660009081526008602052604090205460ff161562001842576001600160a01b038416600090815260096020908152604080832033845290915290205460ff16620018425760405162461bcd60e51b8152600401620002919062003a13565b6000600a6200185360018462003922565b8154811062001866576200186662003938565b906000526020600020906005020190506000670de0b6b3a764000085836002015462001893919062003a3b565b6200189f919062003a55565b9050803414620018e15760405162461bcd60e51b815260206004820152600c60248201526b092dcc6dee4e4cac6e88aa8960a31b604482015260640162000291565b60035460009061271090620018fb9061ffff168462003a3b565b62001907919062003a55565b905060006001600160a01b038616156200194a5760035461271090620019389062010000900461ffff168562003a3b565b62001944919062003a55565b6200194d565b60005b90506000816200195e848662003922565b6200196a919062003922565b9050826004600082825462001980919062003a78565b90915550508115620019bc576001600160a01b03871660009081526005602052604081208054849290620019b690849062003a78565b90915550505b60018501546001600160a01b031660009081526006602052604081208054839290620019ea90849062003a78565b9091555062001a0690506001600160a01b038a16338a62002a97565b604080518981526020810186905290810184905260608101839052608081018290526001600160a01b038089169133918c16907fa4d1d47447ad64a0c581f05071df4ce987ba94440d913925dc004a21f28f42269060a00160405180910390a450505050505062000ee06001600255565b62001a81620029f6565b62001a8b62002a3e565b82811462001acd5760405162461bcd60e51b815260206004820152600e60248201526d098cadccee8d09ad2e6dac2e8c6d60931b604482015260640162000291565b60005b8381101562001c3a57600085858381811062001af05762001af062003938565b905060200201602081019062001b079190620032f4565b9050600084848481811062001b205762001b2062003938565b6001600160a01b0385166000908152600b6020908152604082205492029390930135935091829003905062001b695760405162461bcd60e51b81526004016200029190620038e7565b6000600a62001b7a60018462003922565b8154811062001b8d5762001b8d62003938565b6000918252602090912060059091020160018101549091506001600160a01b0316331462001bcf5760405162461bcd60e51b815260040162000291906200394e565b600181015462001bed906001600160a01b0386811691168562002a97565b836001600160a01b0316600080516020620059fe8339815191528460405162001c1891815260200190565b60405180910390a250505050808062001c319062003a8e565b91505062001ad0565b5062001c466001600255565b50505050565b600062001c598162002af1565b62001c6362002a3e565b478062001c9b5760405162461bcd60e51b815260206004820152600560248201526409cde8aa8960db1b604482015260640162000291565b604051339082156108fc029083906000818181858888f1935050505015801562001cc9573d6000803e3d6000fd5b5060405181815233907fb3579861130e4da8bb7b87c54d2d139937f23bcd6e4ebed9e75d0f78ab1cc1189060200160405180910390a250620014016001600255565b600080516020620059de83398151915262001d268162002af1565b6200140162002c8f565b600080516020620059be83398151915262001d4b8162002af1565b62001d55620029f6565b600e54604051635100e67b60e11b81526001600160a01b039091169063a201ccf69062001d89908690869060040162003975565b60408051808303816000875af115801562001da8573d6000803e3d6000fd5b505050506040513d601f19601f8201168201806040525081019062001634919062003aaa565b600062001ddb8162002af1565b62001de5620029f6565b62001dfb6001600160a01b038416338462002a97565b826001600160a01b031660008051602062005a1e833981519152836040516200119d91815260200190565b6000918252602082815260408084206001600160a01b0393909316845291905290205460ff1690565b600080516020620059be83398151915262001e6a8162002af1565b62001e74620029f6565b600e546040516398e122fd60e01b81526001600160a01b03909116906398e122fd9062001ea690859060040162003879565b6020604051808303816000875af115801562001ec6573d6000803e3d6000fd5b505050506040513d601f19601f8201168201806040525081019062000ee0919062003acf565b60008060006060806000600a878154811062001f0c5762001f0c62003938565b600091825260209091206005909102018054600182015460028301546003840180549495506001600160a01b0393841694929093169290916004860190829062001f5690620039d7565b80601f016020809104026020016040519081016040528092919081815260200182805462001f8490620039d7565b801562001fd55780601f1062001fa95761010080835404028352916020019162001fd5565b820191906000526020600020905b81548152906001019060200180831162001fb757829003601f168201915b5050505050915080805462001fea90620039d7565b80601f01602080910402602001604051908101604052809291908181526020018280546200201890620039d7565b8015620020695780601f106200203d5761010080835404028352916020019162002069565b820191906000526020600020905b8154815290600101906020018083116200204b57829003601f168201915b50505050509050955095509550955095505091939590929450565b6200208e620029f6565b6200209862002a3e565b336000908152600d602052604090206001810154620020e65760405162461bcd60e51b81526020600482015260096024820152684e6f56657374696e6760b81b604482015260640162000291565b6000816003015442620020fa919062003922565b90506000826004015482106200216c5782600501548210156200216157826004015483600501546200212d919062003922565b60048401546200213e908462003922565b84600101546200214f919062003a3b565b6200215b919062003a55565b6200216f565b82600101546200216f565b60005b9050600083600201548262002185919062003922565b905060008111620021ca5760405162461bcd60e51b815260206004820152600e60248201526d4e6f7468696e67546f436c61696d60901b604482015260640162000291565b600284018290558354620021e9906001600160a01b0316338362002a97565b83546040518281526001600160a01b039091169033907f3dea86ee53588906162d63de35783619d0db9b5d981641af560779a1e32940ec9060200160405180910390a3505050506200223b6001600255565b565b620022488262000e52565b620022538162002af1565b62000ee0838362002b85565b600a546060906000805b82811015620022da57846001600160a01b0316600a828154811062002292576200229262003938565b60009182526020909120600160059092020101546001600160a01b031603620022c55781620022c18162003a8e565b9250505b80620022d18162003a8e565b91505062002269565b506000816001600160401b03811115620022f857620022f862003aef565b6040519080825280602002602001820160405280156200235257816020015b6040805160a0810182526000808252602080830182905292820152606080820181905260808201528252600019909201910181620023175790505b5090506000805b848110156200257d57866001600160a01b0316600a828154811062002382576200238262003938565b60009182526020909120600160059092020101546001600160a01b0316036200256857600a8181548110620023bb57620023bb62003938565b60009182526020918290206040805160a081018252600590930290910180546001600160a01b039081168452600182015416938301939093526002830154908201526003820180549192916060840191906200241790620039d7565b80601f01602080910402602001604051908101604052809291908181526020018280546200244590620039d7565b8015620024965780601f106200246a5761010080835404028352916020019162002496565b820191906000526020600020905b8154815290600101906020018083116200247857829003601f168201915b50505050508152602001600482018054620024b190620039d7565b80601f0160208091040260200160405190810160405280929190818152602001828054620024df90620039d7565b8015620025305780601f10620025045761010080835404028352916020019162002530565b820191906000526020600020905b8154815290600101906020018083116200251257829003601f168201915b505050505081525050838380620025479062003a8e565b9450815181106200255c576200255c62003938565b60200260200101819052505b80620025748162003a8e565b91505062002359565b509095945050505050565b6000600080516020620059be833981519152620025a58162002af1565b620025af620029f6565b620025b962002a3e565b60008511620025f75760405162461bcd60e51b815260206004820152600960248201526850726963655a65726f60b81b604482015260640162000291565b60008c8c8c8c8a338a8a6040516200260f906200324f565b6200262298979695949392919062003b2e565b604051809103906000f0801580156200263f573d6000803e3d6000fd5b5090506000819050600a6040518060a00160405280836001600160a01b03168152602001336001600160a01b031681526020018981526020018c8c8080601f016020809104026020016040519081016040528093929190818152602001838380828437600092019190915250505090825250604080516020601f8b0181900481028201810190925289815291810191908a908a90819084018382808284376000920182905250939094525050835460018082018655948252602091829020845160059092020180546001600160a01b03199081166001600160a01b03938416178255928501519581018054909316959091169490941790555060408101516002830155606081015190919060038201906200275b908262003bdf565b506080820151600482019062002772908262003bdf565b5050600a546001600160a01b0383166000818152600b6020526040908190209290925590513392507f75c1f35492cd2bcb2820d5ff2434b9dc6d19432975f20761140109f0844a7b8a90620027d1908b908f908f908d908d9062003cab565b60405180910390a3925050620027e76001600255565b509a9950505050505050505050565b6000620028038162002af1565b6200280d620029f6565b600e5460405163027332ab60e21b81526001600160a01b0385811660048301528481166024830152909116906309cccaac90604401600060405180830381600087803b1580156200285d57600080fd5b505af115801562002872573d6000803e3d6000fd5b50505050505050565b600080516020620059be833981519152620028968162002af1565b60005b8281101562001634576001600160a01b0385166000908152600960205260408120600191868685818110620028d257620028d262003938565b9050602002016020810190620028e99190620032f4565b6001600160a01b031681526020810191909152604001600020805460ff191691151591909117905583838281811062002926576200292662003938565b90506020020160208101906200293d9190620032f4565b6001600160a01b0316856001600160a01b03167f4bc18aa4b0095c9a3b5cdf42d2322d5a145591b04045988a995a5da42607545760405160405180910390a380620029888162003a8e565b91505062002899565b600080516020620059be833981519152620029ac8162002af1565b6001600160a01b0382166000818152600c6020526040808220805460ff19169055517ff38578ed892ce2ce655ca8ae03c73464ad74915a1331a9b4085e637534daeedf9190a25050565b60015460ff16156200223b5760405162461bcd60e51b815260206004820152601060248201526f14185d5cd8589b194e881c185d5cd95960821b604482015260640162000291565b600280540362002a915760405162461bcd60e51b815260206004820152601f60248201527f5265656e7472616e637947756172643a207265656e7472616e742063616c6c00604482015260640162000291565b60028055565b62000ee08363a9059cbb60e01b848460405160240162002ab992919062003975565b60408051601f198184030181529190526020810180516001600160e01b03166001600160e01b03199093169290921790915262002ccd565b62001401813362002da9565b62002b09828262001e26565b62000be6576000828152602081815260408083206001600160a01b03851684529091529020805460ff1916600117905562002b413390565b6001600160a01b0316816001600160a01b0316837f2f8788117e7eff1d82e926ec794901d17c78024a50270940304540a733656f0d60405160405180910390a45050565b62002b91828262001e26565b1562000be6576000828152602081815260408083206001600160a01b0385168085529252808320805460ff1916905551339285917ff6391f5c32d9c69d2a47ea670b442974b53935d1edc7fd64eb21e047a839171b9190a45050565b6040516001600160a01b038085166024830152831660448201526064810182905262001c469085906323b872dd60e01b9060840162002ab9565b62002c3162002e0d565b6001805460ff191690557f5db9ee0a495bf2e6ff9c91a7834c1ba4fdd244a5e8aa4e537bd38aeae4b073aa335b60405162002c6d919062003879565b60405180910390a1565b60008262002c86858462002e58565b14949350505050565b62002c99620029f6565b6001805460ff1916811790557f62e78cea01bee320cd4e420270b5ea74000d11b0c9f74754ebdbfc544b05a2583362002c5e565b600062002d24826040518060400160405280602081526020017f5361666545524332303a206c6f772d6c6576656c2063616c6c206661696c6564815250856001600160a01b031662002eae9092919063ffffffff16565b905080516000148062002d4857508080602001905181019062002d48919062003cdc565b62000ee05760405162461bcd60e51b815260206004820152602a60248201527f5361666545524332303a204552433230206f7065726174696f6e20646964206e6044820152691bdd081cdd58d8d9595960b21b606482015260840162000291565b62002db5828262001e26565b62000be65762002dc58162002ec7565b62002dd283602062002eda565b60405160200162002de592919062003cfc565b60408051601f198184030181529082905262461bcd60e51b8252620002919160040162003d6f565b60015460ff166200223b5760405162461bcd60e51b815260206004820152601460248201527314185d5cd8589b194e881b9bdd081c185d5cd95960621b604482015260640162000291565b600081815b845181101562002ea65762002e8f8286838151811062002e815762002e8162003938565b602002602001015162003093565b91508062002e9d8162003a8e565b91505062002e5d565b509392505050565b606062002ebf8484600085620030c5565b949350505050565b606062000acc6001600160a01b03831660145b6060600062002eeb83600262003a3b565b62002ef890600262003a78565b6001600160401b0381111562002f125762002f1262003aef565b6040519080825280601f01601f19166020018201604052801562002f3d576020820181803683370190505b509050600360fc1b8160008151811062002f5b5762002f5b62003938565b60200101906001600160f81b031916908160001a905350600f60fb1b8160018151811062002f8d5762002f8d62003938565b60200101906001600160f81b031916908160001a905350600062002fb384600262003a3b565b62002fc090600162003a78565b90505b600181111562003042576f181899199a1a9b1b9c1cb0b131b232b360811b85600f166010811062002ff85762002ff862003938565b1a60f81b82828151811062003011576200301162003938565b60200101906001600160f81b031916908160001a90535060049490941c936200303a8162003d84565b905062002fc3565b508315620016835760405162461bcd60e51b815260206004820181905260248201527f537472696e67733a20686578206c656e67746820696e73756666696369656e74604482015260640162000291565b6000818310620030b157600082815260208490526040902062001683565b600083815260208390526040902062001683565b606082471015620031285760405162461bcd60e51b815260206004820152602660248201527f416464726573733a20696e73756666696369656e742062616c616e636520666f6044820152651c8818d85b1b60d21b606482015260840162000291565b600080866001600160a01b0316858760405162003146919062003d9e565b60006040518083038185875af1925050503d806000811462003185576040519150601f19603f3d011682016040523d82523d6000602084013e6200318a565b606091505b50915091506200319d87838387620031a8565b979650505050505050565b606083156200321c57825160000362003214576001600160a01b0385163b620032145760405162461bcd60e51b815260206004820152601d60248201527f416464726573733a2063616c6c20746f206e6f6e2d636f6e7472616374000000604482015260640162000291565b508162002ebf565b62002ebf8383815115620032335781518083602001fd5b8060405162461bcd60e51b815260040162000291919062003d6f565b611c018062003dbd83390190565b6020808252600c908201526b2ab9b290313abcaa37b5b2b760a11b604082015260600190565b6000602082840312156200329657600080fd5b81356001600160e01b0319811681146200168357600080fd5b6001600160a01b03811681146200140157600080fd5b60008060408385031215620032d957600080fd5b8235620032e681620032af565b946020939093013593505050565b6000602082840312156200330757600080fd5b81356200168381620032af565b6000602082840312156200332757600080fd5b5035919050565b600080604083850312156200334257600080fd5b8235915060208301356200335681620032af565b809150509250929050565b60005b838110156200337e57818101518382015260200162003364565b50506000910152565b60008151808452620033a181602086016020860162003361565b601f01601f19169290920160200192915050565b60018060a01b0385168152836020820152608060408201526000620033de608083018562003387565b82810360608401526200319d818562003387565b80151581146200140157600080fd5b600080604083850312156200341557600080fd5b82356200342281620032af565b915060208301356200335681620033f2565b600080600080600060a086880312156200344d57600080fd5b85356200345a81620032af565b945060208601356200346c81620032af565b94979496505050506040830135926060810135926080909101359150565b6001600160a01b038681168252851660208201526040810184905260a060608201819052600090620034bf9083018562003387565b8281036080840152620034d3818562003387565b98975050505050505050565b60008083601f840112620034f257600080fd5b5081356001600160401b038111156200350a57600080fd5b6020830191508360208260051b85010111156200352657600080fd5b9250929050565b6000806000806000608086880312156200354657600080fd5b85356200355381620032af565b94506020860135935060408601356200356c81620032af565b925060608601356001600160401b038111156200358857600080fd5b6200359688828901620034df565b969995985093965092949392505050565b600080600060608486031215620035bd57600080fd5b8335620035ca81620032af565b9250602084013591506040840135620035e381620032af565b809150509250925092565b600080600080604085870312156200360557600080fd5b84356001600160401b03808211156200361d57600080fd5b6200362b88838901620034df565b909650945060208701359150808211156200364557600080fd5b506200365487828801620034df565b95989497509550505050565b600080604083850312156200367457600080fd5b82356200368181620032af565b915060208301356200335681620032af565b60006020808301818452808551808352604092508286019150828160051b87010184880160005b838110156200374157888303603f19018552815180516001600160a01b039081168552888201511688850152868101518785015260608082015160a082870181905291906200370c8388018262003387565b92505050608080830151925085820381870152506200372c818362003387565b968901969450505090860190600101620036ba565b509098975050505050505050565b60008083601f8401126200376257600080fd5b5081356001600160401b038111156200377a57600080fd5b6020830191508360208285010111156200352657600080fd5b60008060008060008060008060008060c08b8d031215620037b357600080fd5b8a356001600160401b0380821115620037cb57600080fd5b620037d98e838f016200374f565b909c509a5060208d0135915080821115620037f357600080fd5b620038018e838f016200374f565b909a50985060408d01359150808211156200381b57600080fd5b620038298e838f016200374f565b909850965060608d0135955060808d0135945060a08d01359150808211156200385157600080fd5b50620038608d828e016200374f565b915080935050809150509295989b9194979a5092959850565b6001600160a01b0391909116815260200190565b600080600060408486031215620038a357600080fd5b8335620038b081620032af565b925060208401356001600160401b03811115620038cc57600080fd5b620038da86828701620034df565b9497909650939450505050565b6020808252600b908201526a139bdd13185d5b98da195960aa1b604082015260600190565b634e487b7160e01b600052601160045260246000fd5b8181038181111562000acc5762000acc6200390c565b634e487b7160e01b600052603260045260246000fd5b6020808252600d908201526c139bdd105d5d1a1bdc9a5e9959609a1b604082015260600190565b6001600160a01b03929092168252602082015260400190565b600080600060608486031215620039a457600080fd5b8351925060208401519150604084015190509250925092565b600060208284031215620039d057600080fd5b5051919050565b600181811c90821680620039ec57607f821691505b60208210810362003a0d57634e487b7160e01b600052602260045260246000fd5b50919050565b6020808252600e908201526d139bdd15da1a5d195b1a5cdd195960921b604082015260600190565b808202811582820484141762000acc5762000acc6200390c565b60008262003a7357634e487b7160e01b600052601260045260246000fd5b500490565b8082018082111562000acc5762000acc6200390c565b60006001820162003aa35762003aa36200390c565b5060010190565b6000806040838503121562003abe57600080fd5b505080516020909101519092909150565b60006020828403121562003ae257600080fd5b81516200168381620032af565b634e487b7160e01b600052604160045260246000fd5b81835281816020850137506000828201602090810191909152601f909101601f19169091010190565b60a08152600062003b4460a083018a8c62003b05565b828103602084015262003b5981898b62003b05565b604084018890526001600160a01b03871660608501528381036080850152905062003b8681858762003b05565b9b9a5050505050505050505050565b601f82111562000ee057600081815260208120601f850160051c8101602086101562003bbe5750805b601f850160051c820191505b8181101562000c8a5782815560010162003bca565b81516001600160401b0381111562003bfb5762003bfb62003aef565b62003c138162003c0c8454620039d7565b8462003b95565b602080601f83116001811462003c4b576000841562003c325750858301515b600019600386901b1c1916600185901b17855562000c8a565b600085815260208120601f198616915b8281101562003c7c5788860151825594840194600190910190840162003c5b565b508582101562003c9b5787850151600019600388901b60f8161c191681555b5050505050600190811b01905550565b85815260606020820152600062003cc760608301868862003b05565b8281036040840152620034d381858762003b05565b60006020828403121562003cef57600080fd5b81516200168381620033f2565b76020b1b1b2b9b9a1b7b73a3937b61d1030b1b1b7bab73a1604d1b81526000835162003d3081601785016020880162003361565b7001034b99036b4b9b9b4b733903937b6329607d1b601791840191820152835162003d6381602884016020880162003361565b01602801949350505050565b60208152600062001683602083018462003387565b60008162003d965762003d966200390c565b506000190190565b6000825162003db281846020870162003361565b919091019291505056fe6101606040523480156200001257600080fd5b5060405162001c0138038062001c01833981016040819052620000359162000526565b6040805180820190915260018152603160f81b6020820152859081908187600362000061838262000671565b50600462000070828262000671565b506200008291508390506005620001e2565b6101205262000093816006620001e2565b61014052815160208084019190912060e052815190820120610100524660a0526200012160e05161010051604080517f8b73c3c69bb8fe3d512ecc4cf759cc79239f7b179b0ffacaa9a75d522b39400f60208201529081019290925260608201524660808201523060a082015260009060c00160405160208183030381529060405280519060200120905090565b60805250503060c0525062000136336200021b565b6001600160a01b0382166200015e5760405163d92e233d60e01b815260040160405180910390fd5b60038551108062000170575060038451105b156200018f57604051639432241960e01b815260040160405180910390fd5b82600003620001b15760405163c16f3a9360e01b815260040160405180910390fd5b600a620001bf828262000671565b50620001cc33846200026d565b620001d78262000334565b5050505050620007b9565b60006020835110156200020257620001fa83620003b3565b905062000215565b816200020f848262000671565b5060ff90505b92915050565b600980546001600160a01b038381166001600160a01b0319831681179093556040519116919082907f8be0079c531659141344cd1fd0a4f28419497f9722a3daafe3b4186f6b6457e090600090a35050565b6001600160a01b038216620002c95760405162461bcd60e51b815260206004820152601f60248201527f45524332303a206d696e7420746f20746865207a65726f20616464726573730060448201526064015b60405180910390fd5b8060026000828254620002dd91906200073d565b90915550506001600160a01b038216600081815260208181526040808320805486019055518481527fddf252ad1be2c89b69c2b068fc378daa952ba7f163c4a11628f55a4df523b3ef910160405180910390a35050565b6200033e620003fb565b6001600160a01b038116620003a55760405162461bcd60e51b815260206004820152602660248201527f4f776e61626c653a206e6577206f776e657220697320746865207a65726f206160448201526564647265737360d01b6064820152608401620002c0565b620003b0816200021b565b50565b600080829050601f81511115620003e1578260405163305a27a960e01b8152600401620002c091906200075f565b8051620003ee8262000794565b179392505050565b505050565b6009546001600160a01b03163314620004575760405162461bcd60e51b815260206004820181905260248201527f4f776e61626c653a2063616c6c6572206973206e6f7420746865206f776e65726044820152606401620002c0565b565b634e487b7160e01b600052604160045260246000fd5b60005b838110156200048c57818101518382015260200162000472565b50506000910152565b600082601f830112620004a757600080fd5b81516001600160401b0380821115620004c457620004c462000459565b604051601f8301601f19908116603f01168101908282118183101715620004ef57620004ef62000459565b816040528381528660208588010111156200050957600080fd5b6200051c8460208301602089016200046f565b9695505050505050565b600080600080600060a086880312156200053f57600080fd5b85516001600160401b03808211156200055757600080fd5b6200056589838a0162000495565b965060208801519150808211156200057c57600080fd5b6200058a89838a0162000495565b604089015160608a0151919750955091506001600160a01b0382168214620005b157600080fd5b608088015191935080821115620005c757600080fd5b50620005d68882890162000495565b9150509295509295909350565b600181811c90821680620005f857607f821691505b6020821081036200061957634e487b7160e01b600052602260045260246000fd5b50919050565b601f821115620003f657600081815260208120601f850160051c81016020861015620006485750805b601f850160051c820191505b81811015620006695782815560010162000654565b505050505050565b81516001600160401b038111156200068d576200068d62000459565b620006a5816200069e8454620005e3565b846200061f565b602080601f831160018114620006dd5760008415620006c45750858301515b600019600386901b1c1916600185901b17855562000669565b600085815260208120601f198616915b828110156200070e57888601518255948401946001909101908401620006ed565b50858210156200072d5787850151600019600388901b60f8161c191681555b5050505050600190811b01905550565b808201808211156200021557634e487b7160e01b600052601160045260246000fd5b6020815260008251806020840152620007808160408501602087016200046f565b601f01601f19169190910160400192915050565b80516020808301519190811015620006195760001960209190910360031b1b16919050565b60805160a05160c05160e0516101005161012051610140516113ed62000814600039600061041d015260006103f201526000610bcb01526000610ba301526000610afe01526000610b2801526000610b5201526113ed6000f3fe608060405234801561001057600080fd5b50600436106100fc5760003560e01c806306fdde0314610101578063095ea7b31461011f57806318160ddd1461014257806323b872dd14610154578063313ce567146101675780633644e51514610176578063395093511461017e5780633c130d901461019157806370a0823114610199578063715018a6146101c25780637ecebe00146101cc57806384b0196e146101df5780638da5cb5b146101fa57806395d89b411461021a578063a457c2d714610222578063a9059cbb14610235578063c623674f14610248578063d505accf14610250578063dd62ed3e14610263578063f2fde38b14610276575b600080fd5b610109610289565b60405161011691906110a1565b60405180910390f35b61013261012d3660046110d7565b61031b565b6040519015158152602001610116565b6002545b604051908152602001610116565b610132610162366004611101565b610335565b60405160128152602001610116565b610146610359565b61013261018c3660046110d7565b610368565b61010961038a565b6101466101a736600461113d565b6001600160a01b031660009081526020819052604090205490565b6101ca6103b2565b005b6101466101da36600461113d565b6103c6565b6101e76103e4565b6040516101169796959493929190611158565b61020261046d565b6040516001600160a01b039091168152602001610116565b61010961047c565b6101326102303660046110d7565b61048b565b6101326102433660046110d7565b61050b565b610109610519565b6101ca61025e3660046111ee565b6105a7565b610146610271366004611261565b61070b565b6101ca61028436600461113d565b610736565b60606003805461029890611294565b80601f01602080910402602001604051908101604052809291908181526020018280546102c490611294565b80156103115780601f106102e657610100808354040283529160200191610311565b820191906000526020600020905b8154815290600101906020018083116102f457829003601f168201915b5050505050905090565b6000336103298185856107af565b60019150505b92915050565b6000336103438582856108d3565b61034e85858561094d565b506001949350505050565b6000610363610af1565b905090565b60003361032981858561037b838361070b565b61038591906112c8565b6107af565b6060600a60405160200161039e91906112e9565b604051602081830303815290604052905090565b6103ba610c1c565b6103c46000610c7b565b565b6001600160a01b03811660009081526007602052604081205461032f565b6000606080828080836104187f00000000000000000000000000000000000000000000000000000000000000006005610ccd565b6104437f00000000000000000000000000000000000000000000000000000000000000006006610ccd565b60408051600080825260208201909252600f60f81b9b939a50919850469750309650945092509050565b6009546001600160a01b031690565b60606004805461029890611294565b60003381610499828661070b565b9050838110156104fe5760405162461bcd60e51b815260206004820152602560248201527f45524332303a2064656372656173656420616c6c6f77616e63652062656c6f77604482015264207a65726f60d81b60648201526084015b60405180910390fd5b61034e82868684036107af565b60003361032981858561094d565b600a805461052690611294565b80601f016020809104026020016040519081016040528092919081815260200182805461055290611294565b801561059f5780601f106105745761010080835404028352916020019161059f565b820191906000526020600020905b81548152906001019060200180831161058257829003601f168201915b505050505081565b834211156105f75760405162461bcd60e51b815260206004820152601d60248201527f45524332305065726d69743a206578706972656420646561646c696e6500000060448201526064016104f5565b60007f6e71edae12b1b97f4d1f60370fef10105fa2faae0126114a169c64845d6126c98888886106268c610d78565b6040805160208101969096526001600160a01b0394851690860152929091166060840152608083015260a082015260c0810186905260e001604051602081830303815290604052805190602001209050600061068182610da0565b9050600061069182878787610dcd565b9050896001600160a01b0316816001600160a01b0316146106f45760405162461bcd60e51b815260206004820152601e60248201527f45524332305065726d69743a20696e76616c6964207369676e6174757265000060448201526064016104f5565b6106ff8a8a8a6107af565b50505050505050505050565b6001600160a01b03918216600090815260016020908152604080832093909416825291909152205490565b61073e610c1c565b6001600160a01b0381166107a35760405162461bcd60e51b815260206004820152602660248201527f4f776e61626c653a206e6577206f776e657220697320746865207a65726f206160448201526564647265737360d01b60648201526084016104f5565b6107ac81610c7b565b50565b6001600160a01b0383166108115760405162461bcd60e51b8152602060048201526024808201527f45524332303a20617070726f76652066726f6d20746865207a65726f206164646044820152637265737360e01b60648201526084016104f5565b6001600160a01b0382166108725760405162461bcd60e51b815260206004820152602260248201527f45524332303a20617070726f766520746f20746865207a65726f206164647265604482015261737360f01b60648201526084016104f5565b6001600160a01b0383811660008181526001602090815260408083209487168084529482529182902085905590518481527f8c5be1e5ebec7d5bd14f71427d1e84f3dd0314c0f7b2291e5b200ac8c7c3b925910160405180910390a3505050565b60006108df848461070b565b90506000198114610947578181101561093a5760405162461bcd60e51b815260206004820152601d60248201527f45524332303a20696e73756666696369656e7420616c6c6f77616e636500000060448201526064016104f5565b61094784848484036107af565b50505050565b6001600160a01b0383166109b15760405162461bcd60e51b815260206004820152602560248201527f45524332303a207472616e736665722066726f6d20746865207a65726f206164604482015264647265737360d81b60648201526084016104f5565b6001600160a01b038216610a135760405162461bcd60e51b815260206004820152602360248201527f45524332303a207472616e7366657220746f20746865207a65726f206164647260448201526265737360e81b60648201526084016104f5565b6001600160a01b03831660009081526020819052604090205481811015610a8b5760405162461bcd60e51b815260206004820152602660248201527f45524332303a207472616e7366657220616d6f756e7420657863656564732062604482015265616c616e636560d01b60648201526084016104f5565b6001600160a01b03848116600081815260208181526040808320878703905593871680835291849020805487019055925185815290927fddf252ad1be2c89b69c2b068fc378daa952ba7f163c4a11628f55a4df523b3ef910160405180910390a3610947565b6000306001600160a01b037f000000000000000000000000000000000000000000000000000000000000000016148015610b4a57507f000000000000000000000000000000000000000000000000000000000000000046145b15610b7457507f000000000000000000000000000000000000000000000000000000000000000090565b610363604080517f8b73c3c69bb8fe3d512ecc4cf759cc79239f7b179b0ffacaa9a75d522b39400f60208201527f0000000000000000000000000000000000000000000000000000000000000000918101919091527f000000000000000000000000000000000000000000000000000000000000000060608201524660808201523060a082015260009060c00160405160208183030381529060405280519060200120905090565b33610c2561046d565b6001600160a01b0316146103c45760405162461bcd60e51b815260206004820181905260248201527f4f776e61626c653a2063616c6c6572206973206e6f7420746865206f776e657260448201526064016104f5565b600980546001600160a01b038381166001600160a01b0319831681179093556040519116919082907f8be0079c531659141344cd1fd0a4f28419497f9722a3daafe3b4186f6b6457e090600090a35050565b606060ff8314610ce757610ce083610df5565b905061032f565b818054610cf390611294565b80601f0160208091040260200160405190810160405280929190818152602001828054610d1f90611294565b8015610d6c5780601f10610d4157610100808354040283529160200191610d6c565b820191906000526020600020905b815481529060010190602001808311610d4f57829003601f168201915b5050505050905061032f565b6001600160a01b03811660009081526007602052604090208054600181018255905b50919050565b600061032f610dad610af1565b8360405161190160f01b8152600281019290925260228201526042902090565b6000806000610dde87878787610e34565b91509150610deb81610eee565b5095945050505050565b60606000610e0283611033565b604080516020808252818301909252919250600091906020820181803683375050509182525060208101929092525090565b6000806fa2a8918ca85bafe22016d0b997e4df60600160ff1b03831115610e615750600090506003610ee5565b6040805160008082526020820180845289905260ff881692820192909252606081018690526080810185905260019060a0016020604051602081039080840390855afa158015610eb5573d6000803e3d6000fd5b5050604051601f1901519150506001600160a01b038116610ede57600060019250925050610ee5565b9150600090505b94509492505050565b6000816004811115610f0257610f026113a1565b03610f0a5750565b6001816004811115610f1e57610f1e6113a1565b03610f665760405162461bcd60e51b815260206004820152601860248201527745434453413a20696e76616c6964207369676e617475726560401b60448201526064016104f5565b6002816004811115610f7a57610f7a6113a1565b03610fc75760405162461bcd60e51b815260206004820152601f60248201527f45434453413a20696e76616c6964207369676e6174757265206c656e6774680060448201526064016104f5565b6003816004811115610fdb57610fdb6113a1565b036107ac5760405162461bcd60e51b815260206004820152602260248201527f45434453413a20696e76616c6964207369676e6174757265202773272076616c604482015261756560f01b60648201526084016104f5565b600060ff8216601f81111561032f57604051632cd44ac360e21b815260040160405180910390fd5b6000815180845260005b8181101561108157602081850181015186830182015201611065565b506000602082860101526020601f19601f83011685010191505092915050565b6020815260006110b4602083018461105b565b9392505050565b80356001600160a01b03811681146110d257600080fd5b919050565b600080604083850312156110ea57600080fd5b6110f3836110bb565b946020939093013593505050565b60008060006060848603121561111657600080fd5b61111f846110bb565b925061112d602085016110bb565b9150604084013590509250925092565b60006020828403121561114f57600080fd5b6110b4826110bb565b60ff60f81b881681526000602060e08184015261117860e084018a61105b565b838103604085015261118a818a61105b565b606085018990526001600160a01b038816608086015260a0850187905284810360c0860152855180825283870192509083019060005b818110156111dc578351835292840192918401916001016111c0565b50909c9b505050505050505050505050565b600080600080600080600060e0888a03121561120957600080fd5b611212886110bb565b9650611220602089016110bb565b95506040880135945060608801359350608088013560ff8116811461124457600080fd5b9699959850939692959460a0840135945060c09093013592915050565b6000806040838503121561127457600080fd5b61127d836110bb565b915061128b602084016110bb565b90509250929050565b600181811c908216806112a857607f821691505b602082108103610d9a57634e487b7160e01b600052602260045260246000fd5b8082018082111561032f57634e487b7160e01b600052601160045260246000fd5b66697066733a2f2f60c81b8152600060076000845481600182811c91508083168061131557607f831692505b6020808410820361133457634e487b7160e01b86526022600452602486fd5b818015611348576001811461136157611392565b60ff1986168a89015284151585028a0188019650611392565b60008b81526020902060005b868110156113885781548c82018b015290850190830161136d565b505087858b010196505b50949998505050505050505050565b634e487b7160e01b600052602160045260246000fdfea2646970667358221220f1f0e77efd43c1ed3129e9422c1f778ad458cfbd181e98219bdec1839a3a2a2b64736f6c6343000814003397667070c54ef182b0f5858b034beac1b6f3089aa2d3188bb1e8929f4fa9b92965d7a28e3265b37a6474929f336521b332c1681b933f6cb9f3376673440d862ab42c9fecfb68f9bf84886f05b85865be2fda69a3ec869651d1320d8f528be6bbe82be315ba1a0d0362d09d5cf59781f214b53a74eb978c35b76ad687099c670ca2646970667358221220824d6d3eef18f02f41cbe6a51dbb46ff9aa7d6f840618aa3913d8b55e4f3364b64736f6c63430008140033",
  "linkReferences": {},
  "deployedLinkReferences": {}
}