{
  "_format": "hh-sol-artifact-1",
  "contractName": "MemeCoinFactory",
  "sourceName": "contracts/MemeCoinFactory.sol",
  "abi": [
    {
      "inputs": [
        {
          "internalType": "uint16",
          "name": "_platformFeeBP",
          "type": "uint16"
        },
        {
          "internalType": "uint16",
          "name": "_referralFeeBP",
          "type": "uint16"
        },
        {
          "internalType": "address",
          "name": "_v2Factory",
          "type": "address"
        },
        {
          "internalType": "address",
          "name": "_router",
          "type": "address"
        }
      ],
      "stateMutability": "nonpayable",
      "type": "constructor"
    },
    {
      "anonymous": false,
      "inputs": [
        {
          "indexed": true,
          "internalType": "address",
          "name": "token",
          "type": "address"
        },
        {
          "indexed": true,
          "internalType": "address",
          "name": "buyer",
          "type": "address"
        },
        {
          "indexed": false,
          "internalType": "uint256",
          "name": "amount",
          "type": "uint256"
        },
        {
          "indexed": false,
          "internalType": "uint256",
          "name": "cost",
          "type": "uint256"
        }
      ],
      "name": "Bought",
      "type": "event"
    },
    {
      "anonymous": false,
      "inputs": [
        {
          "indexed": true,
          "internalType": "address",
          "name": "token",
          "type": "address"
        },
        {
          "indexed": false,
          "internalType": "uint256",
          "name": "nextPrice",
          "type": "uint256"
        },
        {
          "indexed": false,
          "internalType": "uint256",
          "name": "timestamp",
          "type": "uint256"
        }
      ],
      "name": "NextPrice",
      "type": "event"
    },
    {
      "anonymous": false,
      "inputs": [
        {
          "indexed": false,
          "internalType": "address",
          "name": "account",
          "type": "address"
        }
      ],
      "name": "Paused",
      "type": "event"
    },
    {
      "anonymous": false,
      "inputs": [
        {
          "indexed": true,
          "internalType": "address",
          "name": "token",
          "type": "address"
        },
        {
          "indexed": true,
          "internalType": "address",
          "name": "pair",
          "type": "address"
        }
      ],
      "name": "PoolCreated",
      "type": "event"
    },
    {
      "anonymous": false,
      "inputs": [
        {
          "indexed": true,
          "internalType": "bytes32",
          "name": "role",
          "type": "bytes32"
        },
        {
          "indexed": true,
          "internalType": "bytes32",
          "name": "previousAdminRole",
          "type": "bytes32"
        },
        {
          "indexed": true,
          "internalType": "bytes32",
          "name": "newAdminRole",
          "type": "bytes32"
        }
      ],
      "name": "RoleAdminChanged",
      "type": "event"
    },
    {
      "anonymous": false,
      "inputs": [
        {
          "indexed": true,
          "internalType": "bytes32",
          "name": "role",
          "type": "bytes32"
        },
        {
          "indexed": true,
          "internalType": "address",
          "name": "account",
          "type": "address"
        },
        {
          "indexed": true,
          "internalType": "address",
          "name": "sender",
          "type": "address"
        }
      ],
      "name": "RoleGranted",
      "type": "event"
    },
    {
      "anonymous": false,
      "inputs": [
        {
          "indexed": true,
          "internalType": "bytes32",
          "name": "role",
          "type": "bytes32"
        },
        {
          "indexed": true,
          "internalType": "address",
          "name": "account",
          "type": "address"
        },
        {
          "indexed": true,
          "internalType": "address",
          "name": "sender",
          "type": "address"
        }
      ],
      "name": "RoleRevoked",
      "type": "event"
    },
    {
      "anonymous": false,
      "inputs": [
        {
          "indexed": true,
          "internalType": "address",
          "name": "token",
          "type": "address"
        },
        {
          "indexed": true,
          "internalType": "address",
          "name": "seller",
          "type": "address"
        },
        {
          "indexed": false,
          "internalType": "uint256",
          "name": "amount",
          "type": "uint256"
        },
        {
          "indexed": false,
          "internalType": "uint256",
          "name": "refund",
          "type": "uint256"
        }
      ],
      "name": "Sold",
      "type": "event"
    },
    {
      "anonymous": false,
      "inputs": [
        {
          "indexed": true,
          "internalType": "address",
          "name": "token",
          "type": "address"
        },
        {
          "indexed": true,
          "internalType": "address",
          "name": "creator",
          "type": "address"
        }
      ],
      "name": "TokenCreated",
      "type": "event"
    },
    {
      "anonymous": false,
      "inputs": [
        {
          "indexed": false,
          "internalType": "address",
          "name": "account",
          "type": "address"
        }
      ],
      "name": "Unpaused",
      "type": "event"
    },
    {
      "anonymous": false,
      "inputs": [
        {
          "indexed": true,
          "internalType": "address",
          "name": "token",
          "type": "address"
        },
        {
          "indexed": false,
          "internalType": "address",
          "name": "vestingContract",
          "type": "address"
        }
      ],
      "name": "VestingCreated",
      "type": "event"
    },
    {
      "stateMutability": "payable",
      "type": "fallback"
    },
    {
      "inputs": [],
      "name": "DEFAULT_ADMIN_ROLE",
      "outputs": [
        {
          "internalType": "bytes32",
          "name": "",
          "type": "bytes32"
        }
      ],
      "stateMutability": "view",
      "type": "function"
    },
    {
      "inputs": [],
      "name": "OPERATOR_ROLE",
      "outputs": [
        {
          "internalType": "bytes32",
          "name": "",
          "type": "bytes32"
        }
      ],
      "stateMutability": "view",
      "type": "function"
    },
    {
      "inputs": [],
      "name": "PAUSER_ROLE",
      "outputs": [
        {
          "internalType": "bytes32",
          "name": "",
          "type": "bytes32"
        }
      ],
      "stateMutability": "view",
      "type": "function"
    },
    {
      "inputs": [],
      "name": "POOL_CREATION_FEE",
      "outputs": [
        {
          "internalType": "uint256",
          "name": "",
          "type": "uint256"
        }
      ],
      "stateMutability": "view",
      "type": "function"
    },
    {
      "inputs": [],
      "name": "WETH",
      "outputs": [
        {
          "internalType": "address",
          "name": "",
          "type": "address"
        }
      ],
      "stateMutability": "view",
      "type": "function"
    },
    {
      "inputs": [],
      "name": "airdropModule",
      "outputs": [
        {
          "internalType": "contract AirdropMerkle",
          "name": "",
          "type": "address"
        }
      ],
      "stateMutability": "view",
      "type": "function"
    },
    {
      "inputs": [
        {
          "internalType": "uint256",
          "name": "",
          "type": "uint256"
        }
      ],
      "name": "allTokens",
      "outputs": [
        {
          "internalType": "address",
          "name": "token",
          "type": "address"
        },
        {
          "internalType": "address",
          "name": "creator",
          "type": "address"
        },
        {
          "internalType": "enum MemeCoinFactory.LaunchMode",
          "name": "launchMode",
          "type": "uint8"
        },
        {
          "internalType": "uint256",
          "name": "preMintCap",
          "type": "uint256"
        },
        {
          "internalType": "bool",
          "name": "active",
          "type": "bool"
        },
        {
          "internalType": "uint256",
          "name": "vaultEnd",
          "type": "uint256"
        }
      ],
      "stateMutability": "view",
      "type": "function"
    },
    {
      "inputs": [
        {
          "internalType": "address",
          "name": "t",
          "type": "address"
        },
        {
          "internalType": "uint256",
          "name": "a",
          "type": "uint256"
        },
        {
          "internalType": "uint256",
          "name": "m",
          "type": "uint256"
        },
        {
          "internalType": "address",
          "name": "r",
          "type": "address"
        },
        {
          "internalType": "bytes32[]",
          "name": "p",
          "type": "bytes32[]"
        }
      ],
      "name": "buyPresale",
      "outputs": [],
      "stateMutability": "payable",
      "type": "function"
    },
    {
      "inputs": [
        {
          "internalType": "address",
          "name": "token_",
          "type": "address"
        },
        {
          "internalType": "uint256",
          "name": "amountAtomic",
          "type": "uint256"
        },
        {
          "internalType": "address",
          "name": "referrer",
          "type": "address"
        }
      ],
      "name": "buyToken",
      "outputs": [],
      "stateMutability": "payable",
      "type": "function"
    },
    {
      "inputs": [
        {
          "internalType": "uint256",
          "name": "a",
          "type": "uint256"
        },
        {
          "internalType": "bytes32[]",
          "name": "p",
          "type": "bytes32[]"
        }
      ],
      "name": "claimAirdrop",
      "outputs": [],
      "stateMutability": "nonpayable",
      "type": "function"
    },
    {
      "inputs": [],
      "name": "claimStakeReward",
      "outputs": [],
      "stateMutability": "nonpayable",
      "type": "function"
    },
    {
      "inputs": [
        {
          "internalType": "address",
          "name": "token_",
          "type": "address"
        }
      ],
      "name": "claimVault",
      "outputs": [],
      "stateMutability": "nonpayable",
      "type": "function"
    },
    {
      "inputs": [
        {
          "internalType": "address",
          "name": "token_",
          "type": "address"
        },
        {
          "internalType": "uint256",
          "name": "amountAtomic",
          "type": "uint256"
        }
      ],
      "name": "costToBuy",
      "outputs": [
        {
          "internalType": "uint256",
          "name": "",
          "type": "uint256"
        }
      ],
      "stateMutability": "view",
      "type": "function"
    },
    {
      "inputs": [
        {
          "internalType": "string",
          "name": "name_",
          "type": "string"
        },
        {
          "internalType": "string",
          "name": "symbol_",
          "type": "string"
        },
        {
          "internalType": "enum MemeCoinFactory.LaunchMode",
          "name": "launchMode_",
          "type": "uint8"
        },
        {
          "internalType": "uint256",
          "name": "preMintCap_",
          "type": "uint256"
        },
        {
          "internalType": "enum MemeCoinFactory.CurveType",
          "name": "curveType_",
          "type": "uint8"
        },
        {
          "internalType": "uint256",
          "name": "basePrice_",
          "type": "uint256"
        },
        {
          "internalType": "uint256",
          "name": "slope_",
          "type": "uint256"
        },
        {
          "internalType": "uint256",
          "name": "exponent_",
          "type": "uint256"
        },
        {
          "internalType": "uint256",
          "name": "stepSize_",
          "type": "uint256"
        },
        {
          "internalType": "uint256",
          "name": "fundingGoal_",
          "type": "uint256"
        },
        {
          "internalType": "uint16",
          "name": "startFeeBP_",
          "type": "uint16"
        },
        {
          "internalType": "uint16",
          "name": "endFeeBP_",
          "type": "uint16"
        },
        {
          "internalType": "uint256",
          "name": "feeChangeStart_",
          "type": "uint256"
        },
        {
          "internalType": "uint256",
          "name": "feeChangeEnd_",
          "type": "uint256"
        },
        {
          "internalType": "uint256",
          "name": "vaultEnd_",
          "type": "uint256"
        },
        {
          "internalType": "uint256",
          "name": "vestAmount_",
          "type": "uint256"
        },
        {
          "internalType": "uint256",
          "name": "vestStart_",
          "type": "uint256"
        },
        {
          "internalType": "uint256",
          "name": "vestDuration_",
          "type": "uint256"
        },
        {
          "internalType": "uint256",
          "name": "totalSupply_",
          "type": "uint256"
        },
        {
          "internalType": "string",
          "name": "ipfsHash_",
          "type": "string"
        }
      ],
      "name": "createMemeCoin",
      "outputs": [
        {
          "internalType": "address",
          "name": "tokenAddr",
          "type": "address"
        }
      ],
      "stateMutability": "nonpayable",
      "type": "function"
    },
    {
      "inputs": [
        {
          "internalType": "address",
          "name": "a",
          "type": "address"
        },
        {
          "internalType": "address",
          "name": "b",
          "type": "address"
        }
      ],
      "name": "createV2Pool",
      "outputs": [
        {
          "internalType": "address",
          "name": "pair",
          "type": "address"
        }
      ],
      "stateMutability": "payable",
      "type": "function"
    },
    {
      "inputs": [
        {
          "internalType": "address",
          "name": "",
          "type": "address"
        }
      ],
      "name": "creatorFeesAccrued",
      "outputs": [
        {
          "internalType": "uint256",
          "name": "",
          "type": "uint256"
        }
      ],
      "stateMutability": "view",
      "type": "function"
    },
    {
      "inputs": [
        {
          "internalType": "address",
          "name": "token_",
          "type": "address"
        }
      ],
      "name": "currentPrice",
      "outputs": [
        {
          "internalType": "uint256",
          "name": "",
          "type": "uint256"
        }
      ],
      "stateMutability": "view",
      "type": "function"
    },
    {
      "inputs": [
        {
          "internalType": "address",
          "name": "",
          "type": "address"
        }
      ],
      "name": "curves",
      "outputs": [
        {
          "internalType": "enum MemeCoinFactory.CurveType",
          "name": "curveType",
          "type": "uint8"
        },
        {
          "internalType": "uint256",
          "name": "basePrice",
          "type": "uint256"
        },
        {
          "internalType": "uint256",
          "name": "slope",
          "type": "uint256"
        },
        {
          "internalType": "uint256",
          "name": "exponent",
          "type": "uint256"
        },
        {
          "internalType": "uint256",
          "name": "stepSize",
          "type": "uint256"
        },
        {
          "internalType": "uint256",
          "name": "totalSold",
          "type": "uint256"
        },
        {
          "internalType": "uint256",
          "name": "fundingGoal",
          "type": "uint256"
        },
        {
          "internalType": "bool",
          "name": "poolCreated",
          "type": "bool"
        },
        {
          "internalType": "uint16",
          "name": "startFeeBP",
          "type": "uint16"
        },
        {
          "internalType": "uint16",
          "name": "endFeeBP",
          "type": "uint16"
        },
        {
          "internalType": "uint256",
          "name": "feeChangeStart",
          "type": "uint256"
        },
        {
          "internalType": "uint256",
          "name": "feeChangeEnd",
          "type": "uint256"
        }
      ],
      "stateMutability": "view",
      "type": "function"
    },
    {
      "inputs": [
        {
          "internalType": "address",
          "name": "token_",
          "type": "address"
        }
      ],
      "name": "depositVault",
      "outputs": [],
      "stateMutability": "payable",
      "type": "function"
    },
    {
      "inputs": [
        {
          "internalType": "bytes32",
          "name": "role",
          "type": "bytes32"
        }
      ],
      "name": "getRoleAdmin",
      "outputs": [
        {
          "internalType": "bytes32",
          "name": "",
          "type": "bytes32"
        }
      ],
      "stateMutability": "view",
      "type": "function"
    },
    {
      "inputs": [
        {
          "internalType": "bytes32",
          "name": "role",
          "type": "bytes32"
        },
        {
          "internalType": "address",
          "name": "account",
          "type": "address"
        }
      ],
      "name": "grantRole",
      "outputs": [],
      "stateMutability": "nonpayable",
      "type": "function"
    },
    {
      "inputs": [
        {
          "internalType": "bytes32",
          "name": "role",
          "type": "bytes32"
        },
        {
          "internalType": "address",
          "name": "account",
          "type": "address"
        }
      ],
      "name": "hasRole",
      "outputs": [
        {
          "internalType": "bool",
          "name": "",
          "type": "bool"
        }
      ],
      "stateMutability": "view",
      "type": "function"
    },
    {
      "inputs": [],
      "name": "pause",
      "outputs": [],
      "stateMutability": "nonpayable",
      "type": "function"
    },
    {
      "inputs": [],
      "name": "paused",
      "outputs": [
        {
          "internalType": "bool",
          "name": "",
          "type": "bool"
        }
      ],
      "stateMutability": "view",
      "type": "function"
    },
    {
      "inputs": [],
      "name": "platformFeeBP",
      "outputs": [
        {
          "internalType": "uint16",
          "name": "",
          "type": "uint16"
        }
      ],
      "stateMutability": "view",
      "type": "function"
    },
    {
      "inputs": [],
      "name": "platformFeesAccrued",
      "outputs": [
        {
          "internalType": "uint256",
          "name": "",
          "type": "uint256"
        }
      ],
      "stateMutability": "view",
      "type": "function"
    },
    {
      "inputs": [],
      "name": "referralFeeBP",
      "outputs": [
        {
          "internalType": "uint16",
          "name": "",
          "type": "uint16"
        }
      ],
      "stateMutability": "view",
      "type": "function"
    },
    {
      "inputs": [
        {
          "internalType": "address",
          "name": "token_",
          "type": "address"
        }
      ],
      "name": "releaseVault",
      "outputs": [],
      "stateMutability": "nonpayable",
      "type": "function"
    },
    {
      "inputs": [
        {
          "internalType": "bytes32",
          "name": "role",
          "type": "bytes32"
        },
        {
          "internalType": "address",
          "name": "account",
          "type": "address"
        }
      ],
      "name": "renounceRole",
      "outputs": [],
      "stateMutability": "nonpayable",
      "type": "function"
    },
    {
      "inputs": [
        {
          "internalType": "bytes32",
          "name": "role",
          "type": "bytes32"
        },
        {
          "internalType": "address",
          "name": "account",
          "type": "address"
        }
      ],
      "name": "revokeRole",
      "outputs": [],
      "stateMutability": "nonpayable",
      "type": "function"
    },
    {
      "inputs": [],
      "name": "router",
      "outputs": [
        {
          "internalType": "contract IUniswapV2Router02",
          "name": "",
          "type": "address"
        }
      ],
      "stateMutability": "view",
      "type": "function"
    },
    {
      "inputs": [
        {
          "internalType": "address",
          "name": "token_",
          "type": "address"
        },
        {
          "internalType": "uint256",
          "name": "amountAtomic",
          "type": "uint256"
        }
      ],
      "name": "sellToken",
      "outputs": [],
      "stateMutability": "nonpayable",
      "type": "function"
    },
    {
      "inputs": [
        {
          "internalType": "address",
          "name": "a",
          "type": "address"
        }
      ],
      "name": "setAirdropModule",
      "outputs": [],
      "stateMutability": "nonpayable",
      "type": "function"
    },
    {
      "inputs": [
        {
          "internalType": "address",
          "name": "a",
          "type": "address"
        }
      ],
      "name": "setStakingModule",
      "outputs": [],
      "stateMutability": "nonpayable",
      "type": "function"
    },
    {
      "inputs": [
        {
          "internalType": "address",
          "name": "a",
          "type": "address"
        }
      ],
      "name": "setWhitelistModule",
      "outputs": [],
      "stateMutability": "nonpayable",
      "type": "function"
    },
    {
      "inputs": [
        {
          "internalType": "uint256",
          "name": "amt",
          "type": "uint256"
        }
      ],
      "name": "stakeTokens",
      "outputs": [],
      "stateMutability": "nonpayable",
      "type": "function"
    },
    {
      "inputs": [],
      "name": "stakingModule",
      "outputs": [
        {
          "internalType": "contract StakingRewards",
          "name": "",
          "type": "address"
        }
      ],
      "stateMutability": "view",
      "type": "function"
    },
    {
      "inputs": [
        {
          "internalType": "bytes4",
          "name": "interfaceId",
          "type": "bytes4"
        }
      ],
      "name": "supportsInterface",
      "outputs": [
        {
          "internalType": "bool",
          "name": "",
          "type": "bool"
        }
      ],
      "stateMutability": "view",
      "type": "function"
    },
    {
      "inputs": [
        {
          "internalType": "address",
          "name": "",
          "type": "address"
        }
      ],
      "name": "tokenIndexPlusOne",
      "outputs": [
        {
          "internalType": "uint256",
          "name": "",
          "type": "uint256"
        }
      ],
      "stateMutability": "view",
      "type": "function"
    },
    {
      "inputs": [],
      "name": "unpause",
      "outputs": [],
      "stateMutability": "nonpayable",
      "type": "function"
    },
    {
      "inputs": [],
      "name": "v2Factory",
      "outputs": [
        {
          "internalType": "contract IUniswapV2Factory",
          "name": "",
          "type": "address"
        }
      ],
      "stateMutability": "view",
      "type": "function"
    },
    {
      "inputs": [
        {
          "internalType": "address",
          "name": "",
          "type": "address"
        },
        {
          "internalType": "address",
          "name": "",
          "type": "address"
        }
      ],
      "name": "vaultDeposits",
      "outputs": [
        {
          "internalType": "uint256",
          "name": "",
          "type": "uint256"
        }
      ],
      "stateMutability": "view",
      "type": "function"
    },
    {
      "inputs": [
        {
          "internalType": "address",
          "name": "",
          "type": "address"
        }
      ],
      "name": "vaultReleased",
      "outputs": [
        {
          "internalType": "bool",
          "name": "",
          "type": "bool"
        }
      ],
      "stateMutability": "view",
      "type": "function"
    },
    {
      "inputs": [
        {
          "internalType": "address",
          "name": "",
          "type": "address"
        }
      ],
      "name": "vaultTotal",
      "outputs": [
        {
          "internalType": "uint256",
          "name": "",
          "type": "uint256"
        }
      ],
      "stateMutability": "view",
      "type": "function"
    },
    {
      "inputs": [],
      "name": "whitelistModule",
      "outputs": [
        {
          "internalType": "contract WhitelistPresale",
          "name": "",
          "type": "address"
        }
      ],
      "stateMutability": "view",
      "type": "function"
    },
    {
      "inputs": [],
      "name": "withdrawCreatorFees",
      "outputs": [],
      "stateMutability": "nonpayable",
      "type": "function"
    },
    {
      "inputs": [
        {
          "internalType": "address",
          "name": "to",
          "type": "address"
        }
      ],
      "name": "withdrawPlatformFees",
      "outputs": [],
      "stateMutability": "nonpayable",
      "type": "function"
    },
    {
      "inputs": [
        {
          "internalType": "uint256",
          "name": "amt",
          "type": "uint256"
        }
      ],
      "name": "withdrawStake",
      "outputs": [],
      "stateMutability": "nonpayable",
      "type": "function"
    },
    {
      "stateMutability": "payable",
      "type": "receive"
    }
  ],
  "bytecode": "0x6080604090808252346200030d5760808162006a9d803803809162000025828562000312565b8339810103126200030d576200003b816200034c565b906020916200004c8383016200034c565b91620000686060620000608784016200035c565b92016200035c565b60ff19936001938585541685558460025561ffff80911690808316820190808211620002f75761271091161015620002c55763ffff00006003549260101b169163ffffffff1916171760035560048560018060a01b0380938160018060a01b0319961686600654161760065516808560075416176007558851928380926315ab88c960e31b82525afa908115620002ba576000916200027a575b501690600854161760085560008052600083528360002033600052835260ff846000205416156200023f575b7f65d7a28e3265b37a6474929f336521b332c1681b933f6cb9f3376673440d862a80600052600084528460002033600052845260ff8560002054161562000202575b507f97667070c54ef182b0f5858b034beac1b6f3089aa2d3188bb1e8929f4fa9b9299283600052600081528460002033600052815260ff85600020541615620001c3575b845161670b9081620003728239f35b83600052600081528460002090336000525283600020918254161790553390339060008051602062006a7d833981519152600080a438808080620001b4565b8060005260008452846000203360005284528460002082848254161790553390339060008051602062006a7d833981519152600080a43862000170565b6000805260008352836000203360005283528360002081838254161790553333600060008051602062006a7d8339815191528180a46200012e565b908682813d8311620002b2575b62000293818362000312565b81010312620002af5750620002a8906200035c565b3862000102565b80fd5b503d62000287565b87513d6000823e3d90fd5b875162461bcd60e51b815260048101889052600b60248201526a08ccacae6a8dede90d2ced60ab1b6044820152606490fd5b634e487b7160e01b600052601160045260246000fd5b600080fd5b601f909101601f19168101906001600160401b038211908210176200033657604052565b634e487b7160e01b600052604160045260246000fd5b519061ffff821682036200030d57565b51906001600160a01b03821682036200030d5756fe60808060405260043610156200001f575b5036156200001d57600080fd5b005b600090813560e01c90816301ffc9a71462002120575080630bcae1ac146200207b57806322163b86146200205b578063248a9ca3146200202d57806324bf2f1e1462001f5257806325d5971f1462001ef95780632cc3dc6e1462001e295780632f2ff15d1462001d7257806335a62e681462001d3557806336568abe1462001c9b5780633f4ba83a1462001c0157806349933e131462001759578063504b82bf146200172e57806352ce0fb014620016eb5780635c975abb14620016c65780635e81e36414620016895780635f6501ab1462001634578063634282af1462001593578063692bf4a81462000f505780637547c7a31462000e8c578063768c04421462000e615780637b573c541462000e3d57806383f26f381462000df75780638456cb591462000d975780638943b28e1462000d695780638fea31b01462000d3e57806391d148541462000cef5780639fd3af8b1462000c9c578063a0429de61462000c56578063a217fddf1462000c38578063ad5c46481462000c0d578063b4b57c391462000be2578063c4f3e9d71462000a11578063c60b494f14620009cb578063c748713e146200098e578063cd30f038146200090e578063d547741f14620008c6578063d9d0a5be14620007da578063dc4ec9be14620007b3578063e1cd04b41462000729578063e5a8a12314620005a4578063e63ab1e91462000567578063e9833c2f1462000535578063ec3889b51462000492578063f464e7db14620002f6578063f5b541a614620002b9578063f887ea40146200028e5763ff96092a036200001057346200028b57806003193601126200028b57602061ffff60035416604051908152f35b80fd5b50346200028b57806003193601126200028b576007546040516001600160a01b039091168152602090f35b50346200028b57806003193601126200028b5760206040517f97667070c54ef182b0f5858b034beac1b6f3089aa2d3188bb1e8929f4fa9b9298152f35b50346200028b5760403660031901126200028b5762000314620021ad565b602435906200032262003ac4565b6200032c62003b09565b6001600160a01b038116808452600b60209081526040852060058101805493959391670de0b6b3a76400008504908184106200045a579062000373816200037a9362003eb0565b9362002abc565b90556200038a8330338862003d80565b85808280156200044f575b8280929181923390f1156200044457604093849386620004309386519083825280878301527f16dd16959a056953a63cf14bf427881e762e54f03d86b864efea8238dd3b822f9183838a3393a382620003ee8662002d7b565b895190815242898201527ffbcd82ed9d16e1204c8698f6c31409250e7a91d35f141fe4ab721148052f70f09a8b91a2875193845286840152863393a362002d7b565b9082519182524290820152a2600160025580f35b6040513d87823e3d90fd5b6108fc915062000395565b60405162461bcd60e51b815260048101869052601060248201526f125b9cdd59999a58da595b9d14dbdb1960821b6044820152606490fd5b50346200028b5760203660031901126200028b57620004b0620021ad565b620004ba620025cc565b620004c462003b09565b6004548015620004ff578280808093620004f7958260045560018060a01b03165af1620004f062003ca6565b5062003ddb565b600160025580f35b60405162461bcd60e51b815260206004820152600e60248201526d4e6f506c6174666f726d4665657360901b6044820152606490fd5b50346200028b5760203660031901126200028b5760206200055f62000559620021ad565b62002d7b565b604051908152f35b50346200028b57806003193601126200028b5760206040517f65d7a28e3265b37a6474929f336521b332c1681b933f6cb9f3376673440d862a8152f35b50346200028b576020806003193601126200072557620005c3620021ad565b620005cd62003b09565b6001600160a01b0316808352600e8252604083205490919060ff1615620006f357818352600c8152604083203360005281526040600020548015620006c257828452600c82526040842033600052825283604060002055828452600a825260408420546000198101908111620006ae57620006709291600d6002620006566200066a946200220b565b500154938688525260408620549262002939565b62002a9b565b90670de0b6b3a7640000918281029281840414901517156200069a5790620004f791339062003b5e565b634e487b7160e01b83526011600452602483fd5b634e487b7160e01b85526011600452602485fd5b60405162461bcd60e51b8152600481018390526009602482015268139bd1195c1bdcda5d60ba1b6044820152606490fd5b6064906040519062461bcd60e51b82526004820152600b60248201526a139bdd14995b19585cd95960aa1b6044820152fd5b5080fd5b50346200028b57806003193601126200028b576200074662003b09565b3381526005602052604081205480156200077e5781808080620004f7943382526005602052816040812055335af1620004f062003ca6565b60405162461bcd60e51b815260206004820152600d60248201526c4e6f43726561746f724665657360981b6044820152606490fd5b50346200028b57806003193601126200028b57602061ffff60035460101c16604051908152f35b5060a03660031901126200028b57620007f2620021ad565b6064356001600160a01b038181169291839003620008c15783926084356001600160401b038111620008bd576200082e9036906004016200217a565b93909280600f541691823b15620008b95762000886879560405197889687958695636ce852df60e11b875216600486015260243560248601526044356044860152606485015260a0608485015260a484019162003f63565b039134905af18015620008ae576200089b5750f35b620008a69062002844565b6200028b5780f35b6040513d84823e3d90fd5b8680fd5b8480fd5b600080fd5b50346200028b5760403660031901126200028b576200090b600435620008eb620021c4565b908084528360205262000905600160408620015462002703565b620028c4565b80f35b50346200028b5760203660031901126200028b576200092c620021ad565b6200093662002473565b6001600160a01b0316808252600a602052604082205460001981019081116200069a5760046200096a62000975926200220b565b500154421162003a4e565b8152600e60205260408120805460ff1916600117905580f35b50346200028b5760203660031901126200028b576020906040906001600160a01b03620009ba620021ad565b168152600583522054604051908152f35b50346200028b5760203660031901126200028b57620009e9620021ad565b620009f3620025cc565b60018060a01b03166001600160601b0360a01b601054161760105580f35b5060403660031901126200028b5762000a29620021ad565b9062000a34620021c4565b9162000a3f62002473565b66071afd498d0000340362000bb2576001600160a01b038181169184821683101562000bac57935b60065460405163e6a4390560e01b81526001600160a01b038781166004830152831660248201526020969092918416908784604481855afa93841562000ba1579088939291889562000b7d575b508585161562000af1575b505050501680917f4f2ce4e40f623ca765fc0167a25cb7842ceaafb8d82d3dec26ca0d0e0d2d48966040519480a38152f35b6040516364e329cb60e11b81526001600160a01b039182166004820152921660248301529092508290604490829088905af190811562000b7257849162000b3e575b508438808062000abf565b62000b639150853d871162000b6a575b62000b5a818362002874565b81019062003a89565b3862000b33565b503d62000b4e565b6040513d86823e3d90fd5b62000b99919550843d861162000b6a5762000b5a818362002874565b933862000ab4565b6040513d89823e3d90fd5b62000a67565b60405162461bcd60e51b815260206004820152600860248201526757726f6e6746656560c01b6044820152606490fd5b50346200028b57806003193601126200028b576006546040516001600160a01b039091168152602090f35b50346200028b57806003193601126200028b576008546040516001600160a01b039091168152602090f35b50346200028b57806003193601126200028b57602090604051908152f35b50346200028b5760203660031901126200028b5762000c74620021ad565b62000c7e620025cc565b60018060a01b03166001600160601b0360a01b601154161760115580f35b50346200028b57806003193601126200028b5760105481906001600160a01b0316803b1562000cec57818091600460405180948193631e8c5c8960e11b83525af18015620008ae576200089b5750f35b50fd5b50346200028b5760403660031901126200028b57604062000d0f620021c4565b91600435815280602052209060018060a01b0316600052602052602060ff604060002054166040519015158152f35b50346200028b57806003193601126200028b57600f546040516001600160a01b039091168152602090f35b50346200028b5760403660031901126200028b5760206200055f62000d8d620021ad565b6024359062002aca565b50346200028b57806003193601126200028b5762000db462002247565b62000dbe62003ac4565b600160ff19815416176001557f62e78cea01bee320cd4e420270b5ea74000d11b0c9f74754ebdbfc544b05a2586020604051338152a180f35b50346200028b5760203660031901126200028b5762000e15620021ad565b62000e1f620025cc565b60018060a01b03166001600160601b0360a01b600f541617600f5580f35b50346200028b57806003193601126200028b57602060405166071afd498d00008152f35b50346200028b57806003193601126200028b576011546040516001600160a01b039091168152602090f35b50346200028b5760203660031901126200028b5760043562000ead62003ac4565b6009541562000f3a578190600960005260018060a01b0362000efb82827f6e1540171b6c0c960b71a7020d9f60077f6af931a8bbf590da0223dacf75c7af5416836010541690339062003d80565b6010541690813b1562000f3657829160248392604051948593849263534a7e1d60e11b845260048401525af18015620008ae576200089b5750f35b5050fd5b634e487b7160e01b600052603260045260246000fd5b5060603660031901126200028b5762000f68620021ad565b6001600160a01b036044358181169290839003620008c15762000f8a62003ac4565b62000f9462003b09565b81811692838552602090600a82526040862054600019908181019081116200157f5762000fc1906200220b565b5091868852600b84526040882062000fdf6004850154421162003a4e565b6024359262000fef848862002aca565b9485341062001548578a62001005873462002abc565b80159081156200151e575b50505060ff600182015460a01c1660028110156200150a57600114620014a7575b5088670de0b6b3a7640000938b600585019362001052878904865462002963565b8555838252600b8a5260406127109261ffff9584620010818d896200107987872062003e1e565b169062002939565b049687958d886200147d57620010b69250620010ac9150620010a6859a8b9262002abc565b62002abc565b9560045462002963565b6004558152600a8c5220549081019081116200146957908b60018f959493620010df906200220b565b50015416845260058a52620010fa6040852091825462002963565b90558115801562001435575b505050506200111784338b62003b5e565b6040518481528587820152897fbf77fd13a39d14dc0da779342c14105c38d9a5d0c60f2caa22f5fd1d5525416d60403393a3887ffbcd82ed9d16e1204c8698f6c31409250e7a91d35f141fe4ab721148052f70f06040620011788a62002d7b565b8151908152428a820152a2600782019283549260ff8416159283620013fd575b505050620011aa575b88600160025580f35b60ff1916600117905560065460085460405163e6a4390560e01b81526001600160a01b0387811660048301529188169182166024820152949187168286604481845afa958615620013f2578a96620013ce575b508786161562001352575b505060075460405163095ea7b360e01b81529087166001600160a01b0316600482015260248101839052939450919291808380604481015b03818b8b5af1928315620013475760609362001312575b505060c4856007541691604051948593849263f305d71960e01b84528a600485015260248401528a60448401528a60648401523060848401524260a48401525af19081620012e1575b50620012b2575b8080808080620011a1565b16907f4f2ce4e40f623ca765fc0167a25cb7842ceaafb8d82d3dec26ca0d0e0d2d48968380a3388080620012a7565b606090813d81116200130a575b620012fa818362002874565b81010312620008bd5738620012a0565b503d620012ee565b816200133692903d106200133f575b6200132d818362002874565b81019062003aaa565b50388062001257565b503d62001321565b6040513d8a823e3d90fd5b6040516364e329cb60e11b81526001600160a01b0397881660048201529190961660248201529094929350918490839060449082908b905af1801562000ba15762001240928891620013ac575b5092915083388062001208565b620013c79150853d871162000b6a5762000b5a818362002874565b386200139f565b620013ea919650833d851162000b6a5762000b5a818362002874565b9438620011fd565b6040513d8c823e3d90fd5b54808302935090918115918404141715620014215760060154111538808062001198565b634e487b7160e01b8b52601160045260248bfd5b83928392839283906200145f575bf11562001454578938808062001106565b6040513d8b823e3d90fd5b506108fc62001443565b634e487b7160e01b8e52601160045260248efd5b620010a6620010ac926200149d620010b69560035460101c168462002939565b049a8b9262002abc565b6002620014c3670de0b6b3a76400008704600586015462002963565b91015410620014d3573862001031565b60405162461bcd60e51b815260048101879052600f60248201526e149d5cda10d85c115e18d959591959608a1b6044820152606490fd5b634e487b7160e01b8c52602160045260248cfd5b82809291819282906200153e575b3390f115620013f2578a388062001010565b506108fc6200152c565b60405162461bcd60e51b815260048101889052600f60248201526e092dce6eaccccd2c6d2cadce88aa89608b1b6044820152606490fd5b634e487b7160e01b88526011600452602488fd5b50346200028b5760203660031901126200028b576004356009548110156200072557620015c0906200220b565b5060018060a01b03808254169160018101549160ff8360a01c16600283015491600460ff600386015416940154946040519687521660208601526002811015620016205760c09550604085015260608401521515608083015260a0820152f35b634e487b7160e01b86526021600452602486fd5b50346200028b5760403660031901126200028b5762001652620021ad565b60406200165e620021c4565b9260018060a01b038093168152600c6020522091166000526020526020604060002054604051908152f35b50346200028b5760203660031901126200028b576020906040906001600160a01b03620016b5620021ad565b168152600d83522054604051908152f35b50346200028b57806003193601126200028b57602060ff600154166040519015158152f35b50346200028b5760203660031901126200028b5760209060ff906040906001600160a01b036200171a620021ad565b168152600e84522054166040519015158152f35b50346200028b57806003193601126200028b576010546040516001600160a01b039091168152602090f35b50346200028b576102803660031901126200028b576001600160401b0390600435828111620007255762001792903690600401620021db565b60243584811162001bfd57620017ad903690600401620021db565b909460443593600285101562001bf9576004608435101562001bf957610144359361ffff93848616809603620008c15761016435948516809503620008c1576102643584811162001bf55762001808903690600401620021db565b916200181362003ac4565b6200181d62003b09565b6200182762002473565b6040519461201c94858701958787108988111762001bcd579262001868889795936200187a9362001898989662003f898b3960a0885260a088019162003f42565b9060209e8f8784039088015262003f42565b92610244356040820152306060820152608081850391015262003f42565b039086f092831562000444576040519461075a95868101968188108589111762001be15762005fa582396001600160a01b038681168852338a890152610204356040890152610224356060890152968190036080019088f0801562000ba15786166200190b6101e4358289891662003b5e565b6040519081527f2ee44d821b06c9aa990927d787f4adf9d8d3eb9bf798ef5c80415cd7a39656028988881692a26040519060c082018281108582111762001b8f5760405286861682528882013381526040830191825260608301606435815260808401916001835260a08501936101c43585526009546801000000000000000081101562001bcd57806001620019a592016009556200220b565b96909662001bb9578b9051166001600160601b0360a01b8754161786558a6001870192511682549151600281101562001ba5576001600160a81b03199092161760a09190911b60ff60a01b161790555160028401555160038301805491151560ff1660ff1992909216919091179055600490519101556009548585168752600a88526040872055604051916101808301908382109082111762001b8f5760405260843582528682019260a43584526040830160c43581526060840160e4358152608085019161010435835260a08601938a855260c08701956101243587528b60e0890152610100880152610120870152610184356101408701526101a4356101608701528888168a52600b8b5260408a2096865160048110156200150a57885460ff91821660ff19918216178a55915160018a0155915160028901559151600388015591516004870155915160058601559151600685015560e0830151600785018054911515909316911617815560099161016091610100820151815462ffff0064ffff00000061012086015160181b169260081b169064ffffffff00191617179055610140810151600885015501519101556040519233907fd5f9bdf12adf29dab0248c349842c3822d53ae2bb4f36352f301630d018c81398484169180a36001600255168152f35b634e487b7160e01b600052604160045260246000fd5b634e487b7160e01b8e52602160045260248efd5b634e487b7160e01b8d5260048d905260248dfd5b634e487b7160e01b8d52604160045260248dfd5b634e487b7160e01b89526041600452602489fd5b8880fd5b8580fd5b8380fd5b50346200028b57806003193601126200028b5762001c1e62002247565b60015460ff81161562001c5f5760ff19166001557f5db9ee0a495bf2e6ff9c91a7834c1ba4fdd244a5e8aa4e537bd38aeae4b073aa6020604051338152a180f35b60405162461bcd60e51b815260206004820152601460248201527314185d5cd8589b194e881b9bdd081c185d5cd95960621b6044820152606490fd5b50346200028b5760403660031901126200028b5762001cb9620021c4565b336001600160a01b0382160362001cd8576200090b90600435620028c4565b60405162461bcd60e51b815260206004820152602f60248201527f416363657373436f6e74726f6c3a2063616e206f6e6c792072656e6f756e636560448201526e103937b632b9903337b91039b2b63360891b6064820152608490fd5b50346200028b5760203660031901126200028b576020906040906001600160a01b0362001d61620021ad565b168152600a83522054604051908152f35b50346200028b5760403660031901126200028b5760043562001d93620021c4565b8183528260205262001dac600160408520015462002703565b81835282602052604083209060018060a01b0316908160005260205260ff604060002054161562001ddb578280f35b8183528260205260408320816000526020526040600020600160ff1982541617905533917f2f8788117e7eff1d82e926ec794901d17c78024a50270940304540a733656f0d8480a438808280f35b50346200028b5760203660031901126200028b576001600160a01b0362001e4f620021ad565b168152600b6020526040812060ff8154169060018101549060028101546003820154600483015460058401549060068501549260078601549460096008880154970154976040519960048110156200150a576101809b508a5260208a015260408901526060880152608087015260a086015260c085015260ff8116151560e085015261ffff90818160081c1661010086015260181c16610120840152610140830152610160820152f35b50346200028b5760203660031901126200028b5760105481906001600160a01b0316803b1562000cec57818091602460405180948193632e1a7d4d60e01b835260043560048401525af18015620008ae576200089b5750f35b5060208060031936011262000725576001600160a01b0362001f73620021ad565b16808352600a825260408320546000198101908111620020195762001f9a6004916200220b565b500154421162001fe6579081600d928452600c825260408420336000528252604060002062001fcb34825462002963565b90558352526040812062001fe134825462002963565b905580f35b60405162461bcd60e51b815260048101839052600b60248201526a15985d5b1d10db1bdcd95960aa1b6044820152606490fd5b634e487b7160e01b84526011600452602484fd5b50346200028b5760203660031901126200028b57600160406020926004358152808452200154604051908152f35b50346200028b57806003193601126200028b576020600454604051908152f35b50346200028b5760403660031901126200028b57806024356001600160401b03811162000cec57620020b29036906004016200217a565b601154909291906001600160a01b0316803b156200211c57620020fd9383604051809681958294632f52ebb760e01b8452600435600485015260406024850152604484019162003f63565b03925af18015620008ae5762002111575080f35b6200090b9062002844565b8280fd5b90503462000725576020366003190112620007255760043563ffffffff60e01b81168091036200211c5760209250637965db0b60e01b811490811562002168575b5015158152f35b6301ffc9a760e01b1490503862002161565b9181601f84011215620008c1578235916001600160401b038311620008c1576020808501948460051b010111620008c157565b600435906001600160a01b0382168203620008c157565b602435906001600160a01b0382168203620008c157565b9181601f84011215620008c1578235916001600160401b038311620008c15760208381860195010111620008c157565b60095481101562000f3a576005906009600052027f6e1540171b6c0c960b71a7020d9f60077f6af931a8bbf590da0223dacf75c7af0190600090565b3360009081527ff7c9542c591017a21c74b6f3fab6263c7952fc0aaf9db4c22a2a04ddc7f8674f60209081526040808320549092907f65d7a28e3265b37a6474929f336521b332c1681b933f6cb9f3376673440d862a9060ff1615620022ad5750505050565b620022b83362002983565b845191620022c68362002858565b604283528483019360603686378351156200245f57603085538351906001918210156200245f5790607860218601536041915b818311620023ec57505050620023aa57620023559385936200238f936200237f604894620023a69951988576020b1b1b2b9b9a1b7b73a3937b61d1030b1b1b7bab73a1604d1b8b9788015282519283916037890191016200281f565b8401917001034b99036b4b9b9b4b733903937b6329607d1b6037840152518093868401906200281f565b0103602881018552018362002874565b5162461bcd60e51b81529182916004830162002896565b0390fd5b60648486519062461bcd60e51b825280600483015260248201527f537472696e67733a20686578206c656e67746820696e73756666696369656e746044820152fd5b909192600f811660108110156200244b576f181899199a1a9b1b9c1cb0b131b232b360811b901a6200241f858862002971565b5360041c9280156200243757600019019190620022f9565b634e487b7160e01b82526011600452602482fd5b634e487b7160e01b83526032600452602483fd5b634e487b7160e01b81526032600452602490fd5b3360009081527fee57cd81e84075558e8fcc182a1f4393f91fc97f963a136e66b7f949a62f319f60209081526040808320549092907f97667070c54ef182b0f5858b034beac1b6f3089aa2d3188bb1e8929f4fa9b9299060ff1615620024d95750505050565b620024e43362002983565b845191620024f28362002858565b604283528483019360603686378351156200245f57603085538351906001918210156200245f5790607860218601536041915b8183116200258157505050620023aa57620023559385936200238f936200237f604894620023a69951988576020b1b1b2b9b9a1b7b73a3937b61d1030b1b1b7bab73a1604d1b8b9788015282519283916037890191016200281f565b909192600f811660108110156200244b576f181899199a1a9b1b9c1cb0b131b232b360811b901a620025b4858862002971565b5360041c928015620024375760001901919062002525565b3360009081527fad3228b676f7d3cd4284a5443f17f1962b36e491b30a40b2405849e597ba5fb5602090815260408083205490929060ff16156200260f57505050565b6200261a3362002983565b83519082620026298362002858565b604283528483019360603686378351156200245f57603085538351906001918210156200245f5790607860218601536041915b818311620026b857505050620023aa57620023559385936200238f936200237f604894620023a69951988576020b1b1b2b9b9a1b7b73a3937b61d1030b1b1b7bab73a1604d1b8b9788015282519283916037890191016200281f565b909192600f811660108110156200244b576f181899199a1a9b1b9c1cb0b131b232b360811b901a620026eb858862002971565b5360041c92801562002437576000190191906200265c565b6000818152602090808252604092838220338352835260ff8483205416156200272c5750505050565b620027373362002983565b845191620027458362002858565b604283528483019360603686378351156200245f57603085538351906001918210156200245f5790607860218601536041915b818311620027d457505050620023aa57620023559385936200238f936200237f604894620023a69951988576020b1b1b2b9b9a1b7b73a3937b61d1030b1b1b7bab73a1604d1b8b9788015282519283916037890191016200281f565b909192600f811660108110156200244b576f181899199a1a9b1b9c1cb0b131b232b360811b901a62002807858862002971565b5360041c928015620024375760001901919062002778565b60005b838110620028335750506000910152565b818101518382015260200162002822565b6001600160401b03811162001b8f57604052565b608081019081106001600160401b0382111762001b8f57604052565b90601f801991011681019081106001600160401b0382111762001b8f57604052565b60409160208252620028b881518092816020860152602086860191016200281f565b601f01601f1916010190565b9060009180835282602052604083209160018060a01b03169182845260205260ff604084205416620028f557505050565b80835282602052604083208284526020526040832060ff1981541690557ff6391f5c32d9c69d2a47ea670b442974b53935d1edc7fd64eb21e047a839171b339380a4565b818102929181159184041417156200294d57565b634e487b7160e01b600052601160045260246000fd5b919082018092116200294d57565b90815181101562000f3a570160200190565b60405190606082018281106001600160401b0382111762001b8f57604052602a825260208201604036823782511562000f3a5760309053815160019081101562000f3a57607860218401536029905b80821162002a28575050620029e45790565b606460405162461bcd60e51b815260206004820152602060248201527f537472696e67733a20686578206c656e67746820696e73756666696369656e746044820152fd5b9091600f8116601081101562002a86576f181899199a1a9b1b9c1cb0b131b232b360811b901a62002a5a848662002971565b5360041c91801562002a71576000190190620029d2565b60246000634e487b7160e01b81526011600452fd5b60246000634e487b7160e01b81526032600452fd5b811562002aa6570490565b634e487b7160e01b600052601260045260246000fd5b919082039182116200294d57565b6001600160a01b0381166000908152600b602052604081208054670de0b6b3a76400009094049390919060ff16600481101562002b9d571562002b235750509062002b1962002b209262002d7b565b9062002939565b90565b91509160058301549162002b4d82600262002b4360018801548362002939565b9601549462002939565b9160001981019181831162002b89575062002b829262002b7862002b2096959362002b199362002939565b60011c9062002963565b9062002963565b634e487b7160e01b81526011600452602490fd5b634e487b7160e01b82526021600452602482fd5b90801562002c5d57811562002c5657818060011462002c4e5760021462002c3c5760208110610133831016604e8210600b8410161762002c3757600190815b80821162002c0a575050816000190481116200294d570290565b9092806000190481116200294d5781841662002c2d575b800292811c9062002bf0565b8092029162002c21565b900a90565b905060ff81116200294d576001901b90565b505050600190565b5050600090565b5050600190565b6000808052600b602052604081209060ff825416600481101562002b9d578062002caa5750508062002b82600162002b2093015491600560028201549101549062002939565b6001810362002d16575062002cc9600283015460058401549062002939565b91677fffffffffffffff83116200072557600162002cf09101549260401b600f0b62002dcc565b600f0b908082126200028b5750906001600160401b0362002b209260401d169062002939565b60021415905062002d4b578062002b82600162002b209301549162002b19600282015491600360058201549101549062002bb1565b8062002b82600162002b2093015491600262002d71600583015460048401549062002a9b565b9101549062002939565b6001600160a01b03166000908152600b60205260408120805490919060ff16600481101562002b9d578062002caa5750508062002b82600162002b2093015491600560028201549101549062002939565b600f0b600160461b811215620008c157683fffffffffffffffff19811262002e1257700171547652b82fe1777d0ffda0d23a7d1262002b20910260801d600f0b62002e18565b50600090565b600f81810b600160461b811215620008c157683fffffffffffffffff19811262003a46576001607f1b90600093846780000000000000008216850b1362003a2d575b846740000000000000008216850b1362003a0f575b846720000000000000008216850b13620039f1575b846710000000000000008216850b13620039d3575b846708000000000000008216850b13620039b5575b846704000000000000008216850b1362003997575b846702000000000000008216850b1362003979575b846701000000000000008216850b136200395b575b8466800000000000008216850b136200393d575b8466400000000000008216850b136200391f575b8466200000000000008216850b1362003901575b8466100000000000008216850b13620038e3575b8466080000000000008216850b13620038c5575b8466040000000000008216850b13620038a7575b8466020000000000008216850b1362003889575b8466010000000000008216850b136200386b575b84658000000000008216850b136200384d575b84654000000000008216850b136200382f575b84652000000000008216850b1362003811575b84651000000000008216850b13620037f3575b84650800000000008216850b13620037d5575b84650400000000008216850b13620037b7575b84650200000000008216850b1362003799575b84650100000000008216850b136200377b575b846480000000008216850b136200375d575b846440000000008216850b136200373f575b846420000000008216850b1362003721575b846410000000008216850b1362003703575b846408000000008216850b13620036e5575b846404000000008216850b13620036c7575b846402000000008216850b13620036a9575b846401000000008216850b136200368b575b8463800000008216850b136200366d575b8463400000008216850b136200364f575b8463200000008216850b1362003631575b8463100000008216850b1362003613575b8463080000008216850b13620035f5575b8463040000008216850b13620035d7575b8463020000008216850b13620035b9575b8463010000008216850b136200359b575b84628000008216850b136200357d575b84624000008216850b136200355f575b84622000008216850b1362003541575b84621000008216850b1362003523575b84620800008216850b1362003505575b84620400008216850b13620034e7575b84620200008216850b13620034c9575b84620100008216850b13620034ab575b846180008216850b136200348d575b846140008216850b136200346f575b846120008216850b1362003451575b846110008216850b1362003433575b846108008216850b1362003415575b846104008216850b13620033f7575b846102008216850b13620033d9575b846101008216850b13620033bb575b8460809181838216870b136200339e575b8160408216870b1362003381575b8160208216870b1362003364575b8160108216870b1362003347575b8160088216870b136200332a575b8160048216870b136200330d575b8160028216870b13620032ef575b600116850b13620032d0575b5060401d820b603f03820b1c916f7fffffffffffffffffffffffffffffff83116200028b57500b90565b909170010000000000000000b17217f7d1cf79ab02901c9038620032a6565b7001000000000000000162e42fefa39ef358909402821c936200329a565b9370010000000000000002c5c85fdf473de6b202821c936200328c565b93700100000000000000058b90bfbe8e7bcd6d02821c936200327e565b937001000000000000000b17217f7d1cf79afa02821c9362003270565b93700100000000000000162e42fefa39ef366f02821c9362003262565b937001000000000000002c5c85fdf473de6eca02821c9362003254565b9370010000000000000058b90bfbe8e7bce54402821c9362003246565b91700100000000000000b17217f7d1cf79e9490260801c9162003235565b9170010000000000000162e42fefa39ef44d910260801c9162003226565b91700100000000000002c5c85fdf473dea871f0260801c9162003217565b917001000000000000058b90bfbe8e7bdcbe2e0260801c9162003208565b9170010000000000000b17217f7d1cf7d83c1a0260801c91620031f9565b917001000000000000162e42fefa39f02b772c0260801c91620031ea565b9170010000000000002c5c85fdf473e242ea380260801c91620031db565b91700100000000000058b90bfbe8e7cc35c3f00260801c91620031cc565b917001000000000000b17217f7d1cfb72b45e10260801c91620031bd565b91700100000000000162e42fefa39fe95583c20260801c91620031ad565b917001000000000002c5c85fdf4741bea6e77e0260801c916200319d565b9170010000000000058b90bfbe8e8b2d3d4ede0260801c916200318d565b91700100000000000b17217f7d1d351a389d400260801c916200317d565b9170010000000000162e42fefa3ae53369388c0260801c916200316d565b91700100000000002c5c85fdf477b662b269450260801c916200315d565b917001000000000058b90bfbe8f71cb4e4b33d0260801c916200314d565b9170010000000000b17217f7d20cf927c8e94c0260801c916200313d565b917001000000000162e42fefa494f1478fde050260801c916200312c565b9170010000000002c5c85fdf4b15de6f17eb0d0260801c916200311b565b91700100000000058b90bfbe9ddbac5e109cce0260801c916200310a565b917001000000000b17217f7d5a7716bba4a9ae0260801c91620030f9565b91700100000000162e42fefb2fed257559bdaa0260801c91620030e8565b917001000000002c5c85fdf84bd62ae30a74cc0260801c91620030d7565b9170010000000058b90bfbf8479bd5a81b51ad0260801c91620030c6565b91700100000000b17217f80f4ef5aadda455540260801c91620030b5565b9170010000000162e42ff0999ce3541b9fffcf0260801c91620030a3565b91700100000002c5c85fe31f35a6a30da1be500260801c9162003091565b917001000000058b90bfcdee5acd3c1cedc8230260801c916200307f565b9170010000000b17217fba9c739aa5819f44f90260801c916200306d565b917001000000162e42fff037df38aa2b219f060260801c916200305b565b9170010000002c5c8601cc6b9e94213c72737a0260801c9162003049565b91700100000058b90c0b48c6be5df846c5b2ef0260801c9162003037565b917001000000b1721835514b86e6d96efd1bfe0260801c9162003025565b91700100000162e430e5a18f6119e3c02282a50260801c9162003012565b917001000002c5c863b73f016468f6bac5ca2b0260801c9162002fff565b9170010000058b90cf1e6d97f9ca14dbcc16280260801c9162002fec565b91700100000b1721bcfc99d9f890ea069117630260801c9162002fd9565b9170010000162e43f4f831060e02d839a9d16d0260801c9162002fc6565b91700100002c5c89d5ec6ca4d7c8acc017b7c90260801c9162002fb3565b917001000058b91b5bc9ae2eed81e9b7d4cfab0260801c9162002fa0565b9170010000b17255775c040618bf4a4ade83fc0260801c9162002f8d565b917001000162e525ee054754457d59952920260260801c9162002f79565b9170010002c5cc37da9491d0985c348c68e7b30260801c9162002f65565b91700100058ba01fb9f96d6cacd4b180917c3d0260801c9162002f51565b917001000b175effdc76ba38e31671ca9397250260801c9162002f3d565b91700100162f3904051fa128bca9c55c31e5df0260801c9162002f29565b917001002c605e2e8cec506d21bfc89a23a00f0260801c9162002f15565b9170010058c86da1c09ea1ff19d294cf2f679b0260801c9162002f01565b91700100b1afa5abcbed6129ab13ec11dc95430260801c9162002eed565b9170010163da9fb33356d84a66ae336dcdfa3f0260801c9162002ed8565b91700102c9a3e778060ee6f7caca4f7a29bde80260801c9162002ec3565b917001059b0d31585743ae7c548eb68ca417fd0260801c9162002eae565b9170010b5586cf9890f6298b92b71842a983630260801c9162002e99565b917001172b83c7d517adcdf7c8c50eb14a791f0260801c9162002e84565b917001306fe0a31b7152de8d5a46305c85edec0260801c9162002e6f565b6fb504f333f9de6484597d89b3754abe9f925062002e5a565b505050600090565b1562003a5657565b60405162461bcd60e51b815260206004820152600b60248201526a5661756c7441637469766560a81b6044820152606490fd5b90816020910312620008c157516001600160a01b0381168103620008c15790565b90816020910312620008c157518015158103620008c15790565b60ff6001541662003ad157565b60405162461bcd60e51b815260206004820152601060248201526f14185d5cd8589b194e881c185d5cd95960821b6044820152606490fd5b600280541462003b195760028055565b60405162461bcd60e51b815260206004820152601f60248201527f5265656e7472616e637947756172643a207265656e7472616e742063616c6c006044820152606490fd5b60405163a9059cbb60e01b60208201526001600160a01b0392909216602483015260448083019390935291815262003ba39162003b9d60648362002874565b62003ba5565b565b60408051908101916001600160a01b03166001600160401b0383118284101762001b8f5762003c19926040526000806020958685527f5361666545524332303a206c6f772d6c6576656c2063616c6c206661696c656487860152868151910182855af162003c1262003ca6565b9162003ce9565b80519082821592831562003c8b575b5050501562003c345750565b6084906040519062461bcd60e51b82526004820152602a60248201527f5361666545524332303a204552433230206f7065726174696f6e20646964206e6044820152691bdd081cdd58d8d9595960b21b6064820152fd5b62003c9d935082018101910162003aaa565b38828162003c28565b3d1562003ce4573d906001600160401b03821162001b8f576040519162003cd8601f8201601f19166020018462002874565b82523d6000602084013e565b606090565b9192901562003d4e575081511562003cff575090565b3b1562003d095790565b60405162461bcd60e51b815260206004820152601d60248201527f416464726573733a2063616c6c20746f206e6f6e2d636f6e74726163740000006044820152606490fd5b82519091501562003d625750805190602001fd5b60405162461bcd60e51b8152908190620023a6906004830162002896565b6040516323b872dd60e01b60208201526001600160a01b03928316602482015292909116604483015260648083019390935291815260a08101918183106001600160401b0384111762001b8f5762003ba39260405262003ba5565b1562003de357565b60405162461bcd60e51b815260206004820152601360248201527211551217d514905394d1915497d19052531151606a1b6044820152606490fd5b60088101549081421062003ea0576009810154918242101562003e8f5762003e558162003e4e6007934262002abc565b9462002abc565b91015461ffff928184809360081c1692839160181c1603928484116200294d576200066a62002b82928662003e8b961662002939565b1690565b5061ffff91506007015460181c1690565b61ffff91506007015460081c1690565b60ff815416600481101562003f2c571562003ed5575062002b209062002b1962002c64565b60058101549162003efc81600262003ef260018601548362002939565b9401549462002939565b92600182018083116200294d5762002b209462003f2262002b199262002b829562002939565b60011c9062002abc565b634e487b7160e01b600052602160045260246000fd5b908060209392818452848401376000828201840152601f01601f1916010190565b81835290916001600160fb1b038311620008c15760209260051b80928483013701019056fe6101608060405234620007cd576200201c8038038091620000218285620007d2565b8339810160a082820312620007cd5781516001600160401b038111620007cd57816200004f9184016200081b565b60208301519092906001600160401b038111620007cd5782620000749183016200081b565b60408201516060830151939092906001600160a01b0385168503620007cd5760808201516001600160401b038111620007cd57620000b392016200081b565b604080519195919081016001600160401b03811182821017620005605760405260018152603160f81b602082015281516001600160401b0381116200056057600354600181811c91168015620007c2575b60208210146200053f57601f81116200075c575b50806020601f8211600114620006d257600091620006c6575b508160011b916000199060031b1c1916176003555b82516001600160401b0381116200056057600454600181811c91168015620006bb575b60208210146200053f57601f811162000651575b50806020601f8211600114620005c757600091620005bb575b508160011b916000199060031b1c1916176004555b620001b682620008bf565b61012052620001c58162000a64565b6101405281516020830120908160e0526020815191012080610100524660a052604051917f8b73c3c69bb8fe3d512ecc4cf759cc79239f7b179b0ffacaa9a75d522b39400f6020840152604083015260608201524660808201523060a082015260a081528060c081011060018060401b0360c083011117620005605760c08101604052805160208201206080523060c052620002613362000876565b6001600160a01b03851615620005a7575060039051109081156200059a575b5062000588578015620005765782516001600160401b0381116200056057600a54600181811c9116801562000555575b60208210146200053f57601f8111620004e6575b506020601f82116001146200046d578192939460009262000461575b50508160011b916000199060031b1c191617600a555b33156200041c576002548181018091116200040657600255336000526000602052604060002081815401905560405190815260007fddf252ad1be2c89b69c2b068fc378daa952ba7f163c4a11628f55a4df523b3ef60203393a3600954336001600160a01b0390911603620003c257620003709062000876565b604051611440908162000bbc82396080518161118b015260a05181611257015260c05181611155015260e051816111da01526101005181611200015261012051816106a8015261014051816106d20152f35b606460405162461bcd60e51b815260206004820152602060248201527f4f776e61626c653a2063616c6c6572206973206e6f7420746865206f776e65726044820152fd5b634e487b7160e01b600052601160045260246000fd5b60405162461bcd60e51b815260206004820152601f60248201527f45524332303a206d696e7420746f20746865207a65726f2061646472657373006044820152606490fd5b015190503880620002e0565b600a600090815260008051602062001ffc8339815191529190601f198416905b818110620004cd57509583600195969710620004b3575b505050811b01600a55620002f6565b015160001960f88460031b161c19169055388080620004a4565b9192602060018192868b0151815501940192016200048d565b600a60005260008051602062001ffc833981519152601f830160051c8101916020841062000534575b601f0160051c01905b818110620005275750620002c4565b6000815560010162000518565b90915081906200050f565b634e487b7160e01b600052602260045260246000fd5b90607f1690620002b0565b634e487b7160e01b600052604160045260246000fd5b60405163c16f3a9360e01b8152600490fd5b604051639432241960e01b8152600490fd5b6003915051103862000280565b60c060049163d92e233d60e01b8282015201fd5b90508401513862000196565b6004600090815292507f8a35acfbc15ff81a39ae7d344fd709f28e8600b4aa8c65c6b64bfe7fe36bd19b905b601f198316841062000638576001935082601f198116106200061e575b5050811b01600455620001ab565b86015160001960f88460031b161c19169055388062000610565b86810151825560209384019360019092019101620005f3565b60046000527f8a35acfbc15ff81a39ae7d344fd709f28e8600b4aa8c65c6b64bfe7fe36bd19b601f830160051c81019160208410620006b0575b601f0160051c01905b818110620006a357506200017d565b6000815560010162000694565b90915081906200068b565b90607f169062000169565b90508301513862000131565b6003600090815292507fc2575a0e9e593c00f959f8c92f12db2869c3395a3b0502d05e2516446f71f85b905b601f198316841062000743576001935082601f1981161062000729575b5050811b0160035562000146565b85015160001960f88460031b161c1916905538806200071b565b85810151825560209384019360019092019101620006fe565b60036000527fc2575a0e9e593c00f959f8c92f12db2869c3395a3b0502d05e2516446f71f85b601f830160051c810160208410620007ba575b601f830160051c82018110620007ad57505062000118565b6000815560010162000795565b508062000795565b90607f169062000104565b600080fd5b601f909101601f19168101906001600160401b038211908210176200056057604052565b60005b8381106200080a5750506000910152565b8181015183820152602001620007f9565b81601f82011215620007cd5780516001600160401b03811162000560576040519262000852601f8301601f191660200185620007d2565b81845260208284010111620007cd57620008739160208085019101620007f6565b90565b600980546001600160a01b039283166001600160a01b0319821681179092559091167f8be0079c531659141344cd1fd0a4f28419497f9722a3daafe3b4186f6b6457e0600080a3565b805160209190828110156200093f575090601f825111620008fd5780825192015190808310620008ee57501790565b82600019910360031b1b161790565b604490620009319260405193849263305a27a960e01b845280600485015282519283918260248701528686019101620007f6565b601f01601f19168101030190fd5b6001600160401b03811162000560576005928354926001938481811c9116801562000a59575b838210146200053f57601f811162000a22575b5081601f8411600114620009b85750928293918392600094620009ac575b50501b916000199060031b1c191617905560ff90565b01519250388062000996565b919083601f1981168760005284600020946000905b8883831062000a075750505010620009ed575b505050811b01905560ff90565b015160001960f88460031b161c19169055388080620009e0565b858701518855909601959485019487935090810190620009cd565b8560005284601f846000209201871c820191601f8601881c015b82811062000a4c57505062000978565b6000815501859062000a3c565b90607f169062000965565b80516020908181101562000a915750601f825111620008fd5780825192015190808310620008ee57501790565b906001600160401b0382116200056057600654926001938481811c9116801562000bb0575b838210146200053f57601f811162000b76575b5081601f841160011462000b0a575092829391839260009462000afe575b50501b916000199060031b1c19161760065560ff90565b01519250388062000ae7565b919083601f198116600660005284600020946000905b8883831062000b5b575050501062000b41575b505050811b0160065560ff90565b015160001960f88460031b161c1916905538808062000b33565b85870151885590960195948501948793509081019062000b20565b600660005284601f84600020920160051c820191601f860160051c015b82811062000ba357505062000ac9565b6000815501859062000b93565b90607f169062000ab656fe6080604081815260048036101561001557600080fd5b600092833560e01c90816306fdde0314610b3a57508063095ea7b314610b1057806318160ddd14610af157806323b872dd14610a27578063313ce56714610a0b5780633644e515146109e757806339509351146109805780633c130d901461087a57806370a0823114610843578063715018a6146107e65780637ecebe00146107ae57806384b0196e146106915780638da5cb5b1461066857806395d89b4114610594578063a457c2d7146104ed578063a9059cbb146104bc578063c623674f146103d3578063d505accf1461021a578063dd62ed3e146101cd5763f2fde38b146100ff57600080fd5b346101c95760203660031901126101c957610118610c22565b90610121610ce1565b6001600160a01b03918216928315610177575050600954826bffffffffffffffffffffffff60a01b821617600955167f8be0079c531659141344cd1fd0a4f28419497f9722a3daafe3b4186f6b6457e08380a380f35b906020608492519162461bcd60e51b8352820152602660248201527f4f776e61626c653a206e6577206f776e657220697320746865207a65726f206160448201526564647265737360d01b6064820152fd5b8280fd5b505034610216578060031936011261021657806020926101eb610c22565b6101f3610c3d565b6001600160a01b0391821683526001865283832091168252845220549051908152f35b5080fd5b508290346102165760e036600319011261021657610236610c22565b61023e610c3d565b906044359260643560843560ff811681036103cf5781421161038c5760018060a01b0390818516928389526007602052898920908154916001830190558a519060208201927f6e71edae12b1b97f4d1f60370fef10105fa2faae0126114a169c64845d6126c98452868d840152858a1660608401528a608084015260a083015260c082015260c0815260e0810181811067ffffffffffffffff821117610379578b5251902061032191610319916102f3611152565b908c519161190160f01b83526002830152602282015260c43591604260a43592206110c3565b919091610fa9565b16036103365750610333939450610ea7565b80f35b606490602087519162461bcd60e51b8352820152601e60248201527f45524332305065726d69743a20696e76616c6964207369676e617475726500006044820152fd5b634e487b7160e01b8b526041875260248bfd5b875162461bcd60e51b8152602081850152601d60248201527f45524332305065726d69743a206578706972656420646561646c696e650000006044820152606490fd5b8680fd5b50503461021657816003193601126102165780519082600a546103f581610c53565b808552916001918083169081156104945750600114610437575b50505061042182610433940383610cbf565b51918291602083526020830190610be2565b0390f35b9450600a85527fc65a7bb8d6351c1cf70c95a316cc6a92839c986682d98bc35f958f4883f9d2a85b82861061047c57505050610421826020610433958201019461040f565b8054602087870181019190915290950194810161045f565b61043397508693506020925061042194915060ff191682840152151560051b8201019461040f565b5050346102165780600319360112610216576020906104e66104dc610c22565b6024359033610d39565b5160018152f35b508234610591578260031936011261059157610507610c22565b918360243592338152600160205281812060018060a01b0386168252602052205490828210610540576020856104e68585038733610ea7565b608490602086519162461bcd60e51b8352820152602560248201527f45524332303a2064656372656173656420616c6c6f77616e63652062656c6f77604482015264207a65726f60d81b6064820152fd5b80fd5b5090346101c957826003193601126101c957805191838154906105b682610c53565b8086529260019280841690811561063d57506001146105e1575b6104338686610421828b0383610cbf565b815294507f8a35acfbc15ff81a39ae7d344fd709f28e8600b4aa8c65c6b64bfe7fe36bd19b5b828610610625575050506104218260206104339582010194386105d0565b80546020878701810191909152909501948101610607565b905061043397508693506020925061042194915060ff191682840152151560051b82010194386105d0565b50503461021657816003193601126102165760095490516001600160a01b039091168152602090f35b5090346101c957826003193601126101c9576106cc7f000000000000000000000000000000000000000000000000000000000000000061127d565b926106f67f0000000000000000000000000000000000000000000000000000000000000000611379565b908251926020928385019585871067ffffffffffffffff88111761079b57509280610751838896610744998b9996528686528151998a99600f60f81b8b5260e0868c015260e08b0190610be2565b91898303908a0152610be2565b924660608801523060808801528460a088015286840360c088015251928381520193925b82811061078457505050500390f35b835185528695509381019392810192600101610775565b634e487b7160e01b845260419052602483fd5b5050346102165760203660031901126102165760209181906001600160a01b036107d6610c22565b1681526007845220549051908152f35b83346105915780600319360112610591576107ff610ce1565b600980546001600160a01b0319811690915581906001600160a01b03167f8be0079c531659141344cd1fd0a4f28419497f9722a3daafe3b4186f6b6457e08280a380f35b5050346102165760203660031901126102165760209181906001600160a01b0361086b610c22565b16815280845220549051908152f35b8284346105915780600319360112610591578151918260209266697066733a2f2f60c81b8483015280600a54906108b082610c53565b9160019081811690811561095557506001146108f0575b50505061043392916108e19103601f198101865285610cbf565b51928284938452830190610be2565b8695949350600a82527fc65a7bb8d6351c1cf70c95a316cc6a92839c986682d98bc35f958f4883f9d2a85b83831061093c575093945091925082016027019050816108e16104336108c7565b80546027848b010152879689955090920191810161091b565b90506108e1945060279250610433969593915060ff19168284015280151502820101918193946108c7565b50913461059157816003193601126105915761099a610c22565b338252600160209081528383206001600160a01b03831684529052828220546024358101929083106109d4576020846104e6858533610ea7565b634e487b7160e01b815260118552602490fd5b505034610216578160031936011261021657602090610a04611152565b9051908152f35b5050346102165781600319360112610216576020905160128152f35b5082903461021657606036600319011261021657610a43610c22565b610a4b610c3d565b91846044359460018060a01b038416815260016020528181203382526020522054906000198203610a85575b6020866104e6878787610d39565b848210610aae5750918391610aa3602096956104e695033383610ea7565b919394819350610a77565b606490602087519162461bcd60e51b8352820152601d60248201527f45524332303a20696e73756666696369656e7420616c6c6f77616e63650000006044820152fd5b5050346102165781600319360112610216576020906002549051908152f35b5050346102165780600319360112610216576020906104e6610b30610c22565b6024359033610ea7565b849084346101c957826003193601126101c95782600354610b5a81610c53565b808552916001918083169081156104945750600114610b855750505061042182610433940383610cbf565b9450600385527fc2575a0e9e593c00f959f8c92f12db2869c3395a3b0502d05e2516446f71f85b5b828610610bca57505050610421826020610433958201019461040f565b80546020878701810191909152909501948101610bad565b919082519283825260005b848110610c0e575050826000602080949584010152601f8019910116010190565b602081830181015184830182015201610bed565b600435906001600160a01b0382168203610c3857565b600080fd5b602435906001600160a01b0382168203610c3857565b90600182811c92168015610c83575b6020831014610c6d57565b634e487b7160e01b600052602260045260246000fd5b91607f1691610c62565b6040810190811067ffffffffffffffff821117610ca957604052565b634e487b7160e01b600052604160045260246000fd5b90601f8019910116810190811067ffffffffffffffff821117610ca957604052565b6009546001600160a01b03163303610cf557565b606460405162461bcd60e51b815260206004820152602060248201527f4f776e61626c653a2063616c6c6572206973206e6f7420746865206f776e65726044820152fd5b6001600160a01b03908116918215610e545716918215610e0357600082815280602052604081205491808310610daf57604082827fddf252ad1be2c89b69c2b068fc378daa952ba7f163c4a11628f55a4df523b3ef958760209652828652038282205586815220818154019055604051908152a3565b60405162461bcd60e51b815260206004820152602660248201527f45524332303a207472616e7366657220616d6f756e7420657863656564732062604482015265616c616e636560d01b6064820152608490fd5b60405162461bcd60e51b815260206004820152602360248201527f45524332303a207472616e7366657220746f20746865207a65726f206164647260448201526265737360e81b6064820152608490fd5b60405162461bcd60e51b815260206004820152602560248201527f45524332303a207472616e736665722066726f6d20746865207a65726f206164604482015264647265737360d81b6064820152608490fd5b6001600160a01b03908116918215610f585716918215610f085760207f8c5be1e5ebec7d5bd14f71427d1e84f3dd0314c0f7b2291e5b200ac8c7c3b925918360005260018252604060002085600052825280604060002055604051908152a3565b60405162461bcd60e51b815260206004820152602260248201527f45524332303a20617070726f766520746f20746865207a65726f206164647265604482015261737360f01b6064820152608490fd5b60405162461bcd60e51b8152602060048201526024808201527f45524332303a20617070726f76652066726f6d20746865207a65726f206164646044820152637265737360e01b6064820152608490fd5b60058110156110ad5780610fba5750565b600181036110075760405162461bcd60e51b815260206004820152601860248201527f45434453413a20696e76616c6964207369676e617475726500000000000000006044820152606490fd5b600281036110545760405162461bcd60e51b815260206004820152601f60248201527f45434453413a20696e76616c6964207369676e6174757265206c656e677468006044820152606490fd5b60031461105d57565b60405162461bcd60e51b815260206004820152602260248201527f45434453413a20696e76616c6964207369676e6174757265202773272076616c604482015261756560f01b6064820152608490fd5b634e487b7160e01b600052602160045260246000fd5b9291907f7fffffffffffffffffffffffffffffff5d576e7357a4501ddfe92f46681b20a083116111465791608094939160ff602094604051948552168484015260408301526060820152600093849182805260015afa156111395781516001600160a01b03811615611133579190565b50600190565b50604051903d90823e3d90fd5b50505050600090600390565b307f00000000000000000000000000000000000000000000000000000000000000006001600160a01b03161480611254575b156111ad577f000000000000000000000000000000000000000000000000000000000000000090565b60405160208101907f8b73c3c69bb8fe3d512ecc4cf759cc79239f7b179b0ffacaa9a75d522b39400f82527f000000000000000000000000000000000000000000000000000000000000000060408201527f000000000000000000000000000000000000000000000000000000000000000060608201524660808201523060a082015260a0815260c0810181811067ffffffffffffffff821117610ca95760405251902090565b507f00000000000000000000000000000000000000000000000000000000000000004614611184565b60ff81146112bb5760ff811690601f82116112a9576040519161129f83610c8d565b8252602082015290565b604051632cd44ac360e21b8152600490fd5b506040516005548160006112ce83610c53565b8083529260019081811690811561135757506001146112f8575b506112f592500382610cbf565b90565b6005600090815291507f036b6384b5eca791c62761152d0c79bb0604c104a5fb6f4eb0703f3154bb3db05b84831061133c57506112f59350508101602001386112e8565b81935090816020925483858901015201910190918492611323565b9050602092506112f594915060ff191682840152151560051b820101386112e8565b60ff811461139b5760ff811690601f82116112a9576040519161129f83610c8d565b506040516006548160006113ae83610c53565b8083529260019081811690811561135757506001146113d457506112f592500382610cbf565b6006600090815291507ff652222313e28459528d920b65115c16c04f3efc82aaedc97be59f3f377c0d3f5b84831061141857506112f59350508101602001386112e8565b819350908160209254838589010152019101909184926113ff56fea164736f6c6343000814000ac65a7bb8d6351c1cf70c95a316cc6a92839c986682d98bc35f958f4883f9d2a8610100346100cc57601f61075a38819003918201601f19168301916001600160401b038311848410176100d1578084926080946040528339810103126100cc578051906001600160a01b0380831683036100cc57602082015190811681036100cc57606060408301519201519260805260a05260c05260e05260405161067290816100e882396080518181816085015281816101a60152610549015260a05181818161015c0152610389015260c05181818160cf01526105b3015260e0518181816103cf01526105910152f35b600080fd5b634e487b7160e01b600052604160045260246000fdfe608060408181526004918236101561001657600080fd5b600092833560e01c9182630fb5a6b4146103b85750816338af3eed1461037457816344b1231f1461035057816386d1a69f1461010e5750806396132521146100f2578063be9a6555146100b85763fc0c546a1461007257600080fd5b346100b457816003193601126100b457517f00000000000000000000000000000000000000000000000000000000000000006001600160a01b03168152602090f35b5080fd5b50346100b457816003193601126100b457602090517f00000000000000000000000000000000000000000000000000000000000000008152f35b50346100b457816003193601126100b457602091549051908152f35b9190503461034c578260031936011261034c5761012961052e565b906101358454836103f2565b91821561031e57845580516020928382019163a9059cbb60e01b835260018060a01b0391827f0000000000000000000000000000000000000000000000000000000000000000166024830152604482015260448152608081019267ffffffffffffffff928285108486111761030b577f0000000000000000000000000000000000000000000000000000000000000000169160c08101858110858211176102f85786528685527f5361666545524332303a206c6f772d6c6576656c2063616c6c206661696c656460a082015251889182919082855af1903d156102e9573d9283116102d6579061024493929185519261023788601f19601f8401160185610415565b83523d898885013e61044d565b80518381159182156102b2575b505090501561025e578380f35b5162461bcd60e51b815291820152602a60248201527f5361666545524332303a204552433230206f7065726174696f6e20646964206e6044820152691bdd081cdd58d8d9595960b21b606482015260849150fd5b83809293500103126102d25782015180151581036102d257808338610251565b8480fd5b634e487b7160e01b885260418752602488fd5b9061024493925060609161044d565b634e487b7160e01b8a526041895260248afd5b634e487b7160e01b895260418852602489fd5b815162461bcd60e51b815260208186015260086024820152674e6f546f6b656e7360c01b6044820152606490fd5b8280fd5b5050346100b457816003193601126100b45760209061036d61052e565b9051908152f35b5050346100b457816003193601126100b457517f00000000000000000000000000000000000000000000000000000000000000006001600160a01b03168152602090f35b8490346100b457816003193601126100b4576020907f00000000000000000000000000000000000000000000000000000000000000008152f35b919082039182116103ff57565b634e487b7160e01b600052601160045260246000fd5b90601f8019910116810190811067ffffffffffffffff82111761043757604052565b634e487b7160e01b600052604160045260246000fd5b919290156104af5750815115610461575090565b3b1561046a5790565b60405162461bcd60e51b815260206004820152601d60248201527f416464726573733a2063616c6c20746f206e6f6e2d636f6e74726163740000006044820152606490fd5b8251909150156104c25750805190602001fd5b6040519062461bcd60e51b82528160208060048301528251908160248401526000935b828510610508575050604492506000838284010152601f80199101168101030190fd5b84810182015186860160440152938101938593506104e5565b919082018092116103ff57565b6040516370a0823160e01b81523060048201526020816024817f00000000000000000000000000000000000000000000000000000000000000006001600160a01b03165afa801561065957600090610623575b61058f915060005490610521565b7f0000000000000000000000000000000000000000000000000000000000000000907f00000000000000000000000000000000000000000000000000000000000000006105dc8382610521565b42106105e85750905090565b6105f290426103f2565b908181029181830414901517156103ff57811561060d570490565b634e487b7160e01b600052601260045260246000fd5b6020823d8211610651575b8161063b60209383610415565b8101031261064e575061058f9051610581565b80fd5b3d915061062e565b6040513d6000823e3d90fdfea164736f6c6343000814000aa164736f6c6343000814000a2f8788117e7eff1d82e926ec794901d17c78024a50270940304540a733656f0d",
  "linkReferences": {},
  "deployedLinkReferences": {}
}