{
  "_format": "hh-sol-artifact-1",
  "contractName": "SimpleVesting",
  "sourceName": "contracts/MemeCoinFactory.sol",
  "abi": [
    {
      "inputs": [
        {
          "internalType": "contract IERC20",
          "name": "_token",
          "type": "address"
        },
        {
          "internalType": "address",
          "name": "_beneficiary",
          "type": "address"
        },
        {
          "internalType": "uint256",
          "name": "_start",
          "type": "uint256"
        },
        {
          "internalType": "uint256",
          "name": "_duration",
          "type": "uint256"
        }
      ],
      "stateMutability": "nonpayable",
      "type": "constructor"
    },
    {
      "inputs": [],
      "name": "beneficiary",
      "outputs": [
        {
          "internalType": "address",
          "name": "",
          "type": "address"
        }
      ],
      "stateMutability": "view",
      "type": "function"
    },
    {
      "inputs": [],
      "name": "duration",
      "outputs": [
        {
          "internalType": "uint256",
          "name": "",
          "type": "uint256"
        }
      ],
      "stateMutability": "view",
      "type": "function"
    },
    {
      "inputs": [],
      "name": "release",
      "outputs": [],
      "stateMutability": "nonpayable",
      "type": "function"
    },
    {
      "inputs": [],
      "name": "released",
      "outputs": [
        {
          "internalType": "uint256",
          "name": "",
          "type": "uint256"
        }
      ],
      "stateMutability": "view",
      "type": "function"
    },
    {
      "inputs": [],
      "name": "start",
      "outputs": [
        {
          "internalType": "uint256",
          "name": "",
          "type": "uint256"
        }
      ],
      "stateMutability": "view",
      "type": "function"
    },
    {
      "inputs": [],
      "name": "token",
      "outputs": [
        {
          "internalType": "contract IERC20",
          "name": "",
          "type": "address"
        }
      ],
      "stateMutability": "view",
      "type": "function"
    },
    {
      "inputs": [],
      "name": "vestedAmount",
      "outputs": [
        {
          "internalType": "uint256",
          "name": "",
          "type": "uint256"
        }
      ],
      "stateMutability": "view",
      "type": "function"
    }
  ],
  "bytecode": "0x610100346100cc57601f61075a38819003918201601f19168301916001600160401b038311848410176100d1578084926080946040528339810103126100cc578051906001600160a01b0380831683036100cc57602082015190811681036100cc57606060408301519201519260805260a05260c05260e05260405161067290816100e882396080518181816085015281816101a60152610549015260a05181818161015c0152610389015260c05181818160cf01526105b3015260e0518181816103cf01526105910152f35b600080fd5b634e487b7160e01b600052604160045260246000fdfe608060408181526004918236101561001657600080fd5b600092833560e01c9182630fb5a6b4146103b85750816338af3eed1461037457816344b1231f1461035057816386d1a69f1461010e5750806396132521146100f2578063be9a6555146100b85763fc0c546a1461007257600080fd5b346100b457816003193601126100b457517f00000000000000000000000000000000000000000000000000000000000000006001600160a01b03168152602090f35b5080fd5b50346100b457816003193601126100b457602090517f00000000000000000000000000000000000000000000000000000000000000008152f35b50346100b457816003193601126100b457602091549051908152f35b9190503461034c578260031936011261034c5761012961052e565b906101358454836103f2565b91821561031e57845580516020928382019163a9059cbb60e01b835260018060a01b0391827f0000000000000000000000000000000000000000000000000000000000000000166024830152604482015260448152608081019267ffffffffffffffff928285108486111761030b577f0000000000000000000000000000000000000000000000000000000000000000169160c08101858110858211176102f85786528685527f5361666545524332303a206c6f772d6c6576656c2063616c6c206661696c656460a082015251889182919082855af1903d156102e9573d9283116102d6579061024493929185519261023788601f19601f8401160185610415565b83523d898885013e61044d565b80518381159182156102b2575b505090501561025e578380f35b5162461bcd60e51b815291820152602a60248201527f5361666545524332303a204552433230206f7065726174696f6e20646964206e6044820152691bdd081cdd58d8d9595960b21b606482015260849150fd5b83809293500103126102d25782015180151581036102d257808338610251565b8480fd5b634e487b7160e01b885260418752602488fd5b9061024493925060609161044d565b634e487b7160e01b8a526041895260248afd5b634e487b7160e01b895260418852602489fd5b815162461bcd60e51b815260208186015260086024820152674e6f546f6b656e7360c01b6044820152606490fd5b8280fd5b5050346100b457816003193601126100b45760209061036d61052e565b9051908152f35b5050346100b457816003193601126100b457517f00000000000000000000000000000000000000000000000000000000000000006001600160a01b03168152602090f35b8490346100b457816003193601126100b4576020907f00000000000000000000000000000000000000000000000000000000000000008152f35b919082039182116103ff57565b634e487b7160e01b600052601160045260246000fd5b90601f8019910116810190811067ffffffffffffffff82111761043757604052565b634e487b7160e01b600052604160045260246000fd5b919290156104af5750815115610461575090565b3b1561046a5790565b60405162461bcd60e51b815260206004820152601d60248201527f416464726573733a2063616c6c20746f206e6f6e2d636f6e74726163740000006044820152606490fd5b8251909150156104c25750805190602001fd5b6040519062461bcd60e51b82528160208060048301528251908160248401526000935b828510610508575050604492506000838284010152601f80199101168101030190fd5b84810182015186860160440152938101938593506104e5565b919082018092116103ff57565b6040516370a0823160e01b81523060048201526020816024817f00000000000000000000000000000000000000000000000000000000000000006001600160a01b03165afa801561065957600090610623575b61058f915060005490610521565b7f0000000000000000000000000000000000000000000000000000000000000000907f00000000000000000000000000000000000000000000000000000000000000006105dc8382610521565b42106105e85750905090565b6105f290426103f2565b908181029181830414901517156103ff57811561060d570490565b634e487b7160e01b600052601260045260246000fd5b6020823d8211610651575b8161063b60209383610415565b8101031261064e575061058f9051610581565b80fd5b3d915061062e565b6040513d6000823e3d90fdfea164736f6c6343000814000a",
  "linkReferences": {},
  "deployedLinkReferences": {}
}