{
  "_format": "hh-sol-artifact-1",
  "contractName": "StakingRewards",
  "sourceName": "contracts/StakingRewards.sol",
  "abi": [
    {
      "inputs": [
        {
          "internalType": "address",
          "name": "_stakingToken",
          "type": "address"
        },
        {
          "internalType": "address",
          "name": "_rewardsToken",
          "type": "address"
        },
        {
          "internalType": "uint256",
          "name": "_rewardRate",
          "type": "uint256"
        }
      ],
      "stateMutability": "nonpayable",
      "type": "constructor"
    },
    {
      "anonymous": false,
      "inputs": [
        {
          "indexed": true,
          "internalType": "address",
          "name": "user",
          "type": "address"
        },
        {
          "indexed": false,
          "internalType": "uint256",
          "name": "reward",
          "type": "uint256"
        }
      ],
      "name": "RewardPaid",
      "type": "event"
    },
    {
      "anonymous": false,
      "inputs": [
        {
          "indexed": false,
          "internalType": "uint256",
          "name": "newRate",
          "type": "uint256"
        }
      ],
      "name": "RewardRateUpdated",
      "type": "event"
    },
    {
      "anonymous": false,
      "inputs": [
        {
          "indexed": true,
          "internalType": "address",
          "name": "user",
          "type": "address"
        },
        {
          "indexed": false,
          "internalType": "uint256",
          "name": "amount",
          "type": "uint256"
        }
      ],
      "name": "Staked",
      "type": "event"
    },
    {
      "anonymous": false,
      "inputs": [
        {
          "indexed": true,
          "internalType": "address",
          "name": "user",
          "type": "address"
        },
        {
          "indexed": false,
          "internalType": "uint256",
          "name": "amount",
          "type": "uint256"
        }
      ],
      "name": "Withdrawn",
      "type": "event"
    },
    {
      "inputs": [
        {
          "internalType": "address",
          "name": "",
          "type": "address"
        }
      ],
      "name": "balances",
      "outputs": [
        {
          "internalType": "uint256",
          "name": "",
          "type": "uint256"
        }
      ],
      "stateMutability": "view",
      "type": "function"
    },
    {
      "inputs": [
        {
          "internalType": "address",
          "name": "account",
          "type": "address"
        }
      ],
      "name": "earned",
      "outputs": [
        {
          "internalType": "uint256",
          "name": "",
          "type": "uint256"
        }
      ],
      "stateMutability": "view",
      "type": "function"
    },
    {
      "inputs": [],
      "name": "exit",
      "outputs": [],
      "stateMutability": "nonpayable",
      "type": "function"
    },
    {
      "inputs": [],
      "name": "getReward",
      "outputs": [],
      "stateMutability": "nonpayable",
      "type": "function"
    },
    {
      "inputs": [],
      "name": "lastUpdateTime",
      "outputs": [
        {
          "internalType": "uint256",
          "name": "",
          "type": "uint256"
        }
      ],
      "stateMutability": "view",
      "type": "function"
    },
    {
      "inputs": [],
      "name": "rewardPerToken",
      "outputs": [
        {
          "internalType": "uint256",
          "name": "",
          "type": "uint256"
        }
      ],
      "stateMutability": "view",
      "type": "function"
    },
    {
      "inputs": [],
      "name": "rewardPerTokenStored",
      "outputs": [
        {
          "internalType": "uint256",
          "name": "",
          "type": "uint256"
        }
      ],
      "stateMutability": "view",
      "type": "function"
    },
    {
      "inputs": [],
      "name": "rewardRate",
      "outputs": [
        {
          "internalType": "uint256",
          "name": "",
          "type": "uint256"
        }
      ],
      "stateMutability": "view",
      "type": "function"
    },
    {
      "inputs": [
        {
          "internalType": "address",
          "name": "",
          "type": "address"
        }
      ],
      "name": "rewards",
      "outputs": [
        {
          "internalType": "uint256",
          "name": "",
          "type": "uint256"
        }
      ],
      "stateMutability": "view",
      "type": "function"
    },
    {
      "inputs": [],
      "name": "rewardsToken",
      "outputs": [
        {
          "internalType": "contract IERC20",
          "name": "",
          "type": "address"
        }
      ],
      "stateMutability": "view",
      "type": "function"
    },
    {
      "inputs": [
        {
          "internalType": "uint256",
          "name": "newRate",
          "type": "uint256"
        }
      ],
      "name": "setRewardRate",
      "outputs": [],
      "stateMutability": "nonpayable",
      "type": "function"
    },
    {
      "inputs": [
        {
          "internalType": "uint256",
          "name": "amount",
          "type": "uint256"
        }
      ],
      "name": "stake",
      "outputs": [],
      "stateMutability": "nonpayable",
      "type": "function"
    },
    {
      "inputs": [],
      "name": "stakingToken",
      "outputs": [
        {
          "internalType": "contract IERC20",
          "name": "",
          "type": "address"
        }
      ],
      "stateMutability": "view",
      "type": "function"
    },
    {
      "inputs": [],
      "name": "totalSupply",
      "outputs": [
        {
          "internalType": "uint256",
          "name": "",
          "type": "uint256"
        }
      ],
      "stateMutability": "view",
      "type": "function"
    },
    {
      "inputs": [
        {
          "internalType": "address",
          "name": "",
          "type": "address"
        }
      ],
      "name": "userRewardPerTokenPaid",
      "outputs": [
        {
          "internalType": "uint256",
          "name": "",
          "type": "uint256"
        }
      ],
      "stateMutability": "view",
      "type": "function"
    },
    {
      "inputs": [
        {
          "internalType": "uint256",
          "name": "amount",
          "type": "uint256"
        }
      ],
      "name": "withdraw",
      "outputs": [],
      "stateMutability": "nonpayable",
      "type": "function"
    }
  ],
  "bytecode": "0x60c03461010857601f610de738819003918201601f19168301916001600160401b0383118484101761010d578084926060946040528339810103126101085761004781610123565b604061005560208401610123565b9201516001600055916001600160a01b03918216801515806100fd575b156100c9576080521660a05260015542600255604051610caf908161013882396080518181816101410152818161044d015281816105a5015261075d015260a0518181816101f801528181610313015261062a0152f35b60405162461bcd60e51b815260206004820152600c60248201526b5a65726f206164647265737360a01b6044820152606490fd5b508282161515610072565b600080fd5b634e487b7160e01b600052604160045260246000fd5b51906001600160a01b03821682036101085756fe60406080815260048036101561001457600080fd5b600091823560e01c80628cc2621461086f5780630700037d1461083557806318160ddd1461081657806327e235e3146107dc5780632e1a7d4d146106d25780633d18b912146105d457806372f702f3146105905780637b0a47ee146105715780638b876347146105335780639e447fc6146104de578063a694fc3a14610385578063c8f33c9114610366578063cd3daf9d14610342578063d1af0c7d146102fe578063df136d65146102db5763e9fad8ee146100cf57600080fd5b346102d757826003193601126102d75733835260209060068252808420546100f56108c6565b6100fd610bf1565b6003554260025533151590816102b4575b801561027a5733865260068452828620610129828254610b7f565b905561013781600754610b7f565b60075561016581337f0000000000000000000000000000000000000000000000000000000000000000610b8c565b82519081527f7084f5476618d8e60b11ef0d7d3f06914655adb8793e28ff7f018d4c76d505d5843392a26001855561019b6108c6565b6101a3610bf1565b60035542600255610257575b338452600582528084205492831561022a5750907fe2403640ba68fed3a2f88b7557551d1993f84b99bb10ff833f0cf8db0c5e04869133855260058252848181205561021c84337f0000000000000000000000000000000000000000000000000000000000000000610b8c565b519283523392a26001815580f35b82606492519162461bcd60e51b83528201526009602482015268139bc81c995dd85c9960ba1b6044820152fd5b61026033610c46565b3385526005835281852055600354838352818520556101af565b50505162461bcd60e51b815291820152601460248201527343616e6e6f74207769746864726177207a65726f60601b604482015260649150fd5b6102bd33610c46565b33875260058552838720556003548585528387205561010e565b8280fd5b8382346102fa57816003193601126102fa576020906003549051908152f35b5080fd5b8382346102fa57816003193601126102fa57517f00000000000000000000000000000000000000000000000000000000000000006001600160a01b03168152602090f35b8382346102fa57816003193601126102fa5760209061035f610bf1565b9051908152f35b8382346102fa57816003193601126102fa576020906002549051908152f35b508290346102fa576020806003193601126102d7578335916103a56108c6565b6103ad610bf1565b60035542600255336104bb575b8215610484576103cc836007546108a3565b600755338452600682528084206103e48482546108a3565b905580516323b872dd60e01b838201523360248201523060448201526064808201859052815260a0810167ffffffffffffffff81118282101761047157829161021c917f9e71bc8eea02a63969f509818f2dafb9254532904319f9dbda79b67bd34a5f3d9594527f000000000000000000000000000000000000000000000000000000000000000061091c565b634e487b7160e01b865260418752602486fd5b5162461bcd60e51b815280850191909152601160248201527043616e6e6f74207374616b65207a65726f60781b6044820152606490fd5b6104c433610c46565b3385526005835281852055600354858352818520556103ba565b5090346102d75760203660031901126102d7577f41d466ebd06fb97e7786086ac8b69b7eb7da798592036251291d34e9791cde01916020913590610520610bf1565b600355426002558160015551908152a180f35b5090346102d75760203660031901126102d75780356001600160a01b0381169081900361056d579282916020948252845220549051908152f35b8380fd5b8382346102fa57816003193601126102fa576020906001549051908152f35b8382346102fa57816003193601126102fa57517f00000000000000000000000000000000000000000000000000000000000000006001600160a01b03168152602090f35b50346102d757826003193601126102d7576105ed6108c6565b6105f5610bf1565b60035542600255336106ad575b33835260056020528083205491821561067f57503383526005602052828181205561064e82337f0000000000000000000000000000000000000000000000000000000000000000610b8c565b519081527fe2403640ba68fed3a2f88b7557551d1993f84b99bb10ff833f0cf8db0c5e048660203392a26001815580f35b6020606492519162461bcd60e51b83528201526009602482015268139bc81c995dd85c9960ba1b6044820152fd5b6106b633610c46565b3384526005602052818420556003548260205281842055610602565b50346102d7576020908160031936011261056d578235926106f16108c6565b6106f9610bf1565b60035542600255336107b9575b83156107815750907f7084f5476618d8e60b11ef0d7d3f06914655adb8793e28ff7f018d4c76d505d59133855260068252808520610745858254610b7f565b905561075384600754610b7f565b60075561021c84337f0000000000000000000000000000000000000000000000000000000000000000610b8c565b82606492519162461bcd60e51b8352820152601460248201527343616e6e6f74207769746864726177207a65726f60601b6044820152fd5b6107c233610c46565b338652600584528286205560035481845282862055610706565b5090346102d75760203660031901126102d757356001600160a01b038116908190036102d757828291602094526006845220549051908152f35b8382346102fa57816003193601126102fa576020906007549051908152f35b5090346102d75760203660031901126102d757356001600160a01b038116908190036102d757828291602094526005845220549051908152f35b5090346102d75760203660031901126102d75735916001600160a01b03831683036108a0575061035f602092610c46565b80fd5b919082018092116108b057565b634e487b7160e01b600052601160045260246000fd5b6002600054146108d7576002600055565b60405162461bcd60e51b815260206004820152601f60248201527f5265656e7472616e637947756172643a207265656e7472616e742063616c6c006044820152606490fd5b6040805167ffffffffffffffff94936001600160a01b03909316929080830186811182821017610a955783526020938482527f5361666545524332303a206c6f772d6c6576656c2063616c6c206661696c6564858301526000808487829651910182855af13d15610a84573d91888311610a7057855192601f19603f81601f8401160116840199848b10908b1117610a5c57869798996109c696975283528286893d92013e610aab565b805191821591858315610a38575b5050509050156109e2575050565b60849250519062461bcd60e51b82526004820152602a60248201527f5361666545524332303a204552433230206f7065726174696f6e20646964206e6044820152691bdd081cdd58d8d9595960b21b6064820152fd5b9193818094500103126102fa578301519081151582036108a05750803880856109d4565b634e487b7160e01b86526041600452602486fd5b634e487b7160e01b85526041600452602485fd5b6109c6939495969750606091610aab565b634e487b7160e01b600052604160045260246000fd5b91929015610b0d5750815115610abf575090565b3b15610ac85790565b60405162461bcd60e51b815260206004820152601d60248201527f416464726573733a2063616c6c20746f206e6f6e2d636f6e74726163740000006044820152606490fd5b825190915015610b205750805190602001fd5b6040519062461bcd60e51b82528160208060048301528251908160248401526000935b828510610b66575050604492506000838284010152601f80199101168101030190fd5b8481018201518686016044015293810193859350610b43565b919082039182116108b057565b60405163a9059cbb60e01b60208201526001600160a01b039092166024830152604480830193909352918152608081019167ffffffffffffffff831182841017610a9557610bdc9260405261091c565b565b818102929181159184041417156108b057565b6007548015610c3f57610c0660025442610b7f565b610c166003549160015490610bde565b91670de0b6b3a7640000928381029381850414901517156108b057610c3c9204906108a3565b90565b5060035490565b610c3c9060018060a01b0316604060008281526006602052670de0b6b3a7640000610c9183832054610c8b610c79610bf1565b87865260046020528686205490610b7f565b90610bde565b0492815260056020522054906108a356fea164736f6c6343000814000a",
  "linkReferences": {},
  "deployedLinkReferences": {}
}