{
  "_format": "hh-sol-artifact-1",
  "contractName": "GovernanceToken",
  "sourceName": "contracts/GovernanceToken.sol",
  "abi": [
    {
      "inputs": [
        {
          "internalType": "uint256",
          "name": "initialSupply",
          "type": "uint256"
        }
      ],
      "stateMutability": "nonpayable",
      "type": "constructor"
    },
    {
      "inputs": [],
      "name": "InvalidShortString",
      "type": "error"
    },
    {
      "inputs": [
        {
          "internalType": "string",
          "name": "str",
          "type": "string"
        }
      ],
      "name": "StringTooLong",
      "type": "error"
    },
    {
      "anonymous": false,
      "inputs": [
        {
          "indexed": true,
          "internalType": "address",
          "name": "owner",
          "type": "address"
        },
        {
          "indexed": true,
          "internalType": "address",
          "name": "spender",
          "type": "address"
        },
        {
          "indexed": false,
          "internalType": "uint256",
          "name": "value",
          "type": "uint256"
        }
      ],
      "name": "Approval",
      "type": "event"
    },
    {
      "anonymous": false,
      "inputs": [],
      "name": "EIP712DomainChanged",
      "type": "event"
    },
    {
      "anonymous": false,
      "inputs": [
        {
          "indexed": true,
          "internalType": "address",
          "name": "from",
          "type": "address"
        },
        {
          "indexed": true,
          "internalType": "address",
          "name": "to",
          "type": "address"
        },
        {
          "indexed": false,
          "internalType": "uint256",
          "name": "value",
          "type": "uint256"
        }
      ],
      "name": "Transfer",
      "type": "event"
    },
    {
      "inputs": [],
      "name": "DOMAIN_SEPARATOR",
      "outputs": [
        {
          "internalType": "bytes32",
          "name": "",
          "type": "bytes32"
        }
      ],
      "stateMutability": "view",
      "type": "function"
    },
    {
      "inputs": [
        {
          "internalType": "address",
          "name": "owner",
          "type": "address"
        },
        {
          "internalType": "address",
          "name": "spender",
          "type": "address"
        }
      ],
      "name": "allowance",
      "outputs": [
        {
          "internalType": "uint256",
          "name": "",
          "type": "uint256"
        }
      ],
      "stateMutability": "view",
      "type": "function"
    },
    {
      "inputs": [
        {
          "internalType": "address",
          "name": "spender",
          "type": "address"
        },
        {
          "internalType": "uint256",
          "name": "amount",
          "type": "uint256"
        }
      ],
      "name": "approve",
      "outputs": [
        {
          "internalType": "bool",
          "name": "",
          "type": "bool"
        }
      ],
      "stateMutability": "nonpayable",
      "type": "function"
    },
    {
      "inputs": [
        {
          "internalType": "address",
          "name": "account",
          "type": "address"
        }
      ],
      "name": "balanceOf",
      "outputs": [
        {
          "internalType": "uint256",
          "name": "",
          "type": "uint256"
        }
      ],
      "stateMutability": "view",
      "type": "function"
    },
    {
      "inputs": [],
      "name": "decimals",
      "outputs": [
        {
          "internalType": "uint8",
          "name": "",
          "type": "uint8"
        }
      ],
      "stateMutability": "view",
      "type": "function"
    },
    {
      "inputs": [
        {
          "internalType": "address",
          "name": "spender",
          "type": "address"
        },
        {
          "internalType": "uint256",
          "name": "subtractedValue",
          "type": "uint256"
        }
      ],
      "name": "decreaseAllowance",
      "outputs": [
        {
          "internalType": "bool",
          "name": "",
          "type": "bool"
        }
      ],
      "stateMutability": "nonpayable",
      "type": "function"
    },
    {
      "inputs": [],
      "name": "eip712Domain",
      "outputs": [
        {
          "internalType": "bytes1",
          "name": "fields",
          "type": "bytes1"
        },
        {
          "internalType": "string",
          "name": "name",
          "type": "string"
        },
        {
          "internalType": "string",
          "name": "version",
          "type": "string"
        },
        {
          "internalType": "uint256",
          "name": "chainId",
          "type": "uint256"
        },
        {
          "internalType": "address",
          "name": "verifyingContract",
          "type": "address"
        },
        {
          "internalType": "bytes32",
          "name": "salt",
          "type": "bytes32"
        },
        {
          "internalType": "uint256[]",
          "name": "extensions",
          "type": "uint256[]"
        }
      ],
      "stateMutability": "view",
      "type": "function"
    },
    {
      "inputs": [
        {
          "internalType": "address",
          "name": "spender",
          "type": "address"
        },
        {
          "internalType": "uint256",
          "name": "addedValue",
          "type": "uint256"
        }
      ],
      "name": "increaseAllowance",
      "outputs": [
        {
          "internalType": "bool",
          "name": "",
          "type": "bool"
        }
      ],
      "stateMutability": "nonpayable",
      "type": "function"
    },
    {
      "inputs": [],
      "name": "name",
      "outputs": [
        {
          "internalType": "string",
          "name": "",
          "type": "string"
        }
      ],
      "stateMutability": "view",
      "type": "function"
    },
    {
      "inputs": [
        {
          "internalType": "address",
          "name": "owner",
          "type": "address"
        }
      ],
      "name": "nonces",
      "outputs": [
        {
          "internalType": "uint256",
          "name": "",
          "type": "uint256"
        }
      ],
      "stateMutability": "view",
      "type": "function"
    },
    {
      "inputs": [
        {
          "internalType": "address",
          "name": "owner",
          "type": "address"
        },
        {
          "internalType": "address",
          "name": "spender",
          "type": "address"
        },
        {
          "internalType": "uint256",
          "name": "value",
          "type": "uint256"
        },
        {
          "internalType": "uint256",
          "name": "deadline",
          "type": "uint256"
        },
        {
          "internalType": "uint8",
          "name": "v",
          "type": "uint8"
        },
        {
          "internalType": "bytes32",
          "name": "r",
          "type": "bytes32"
        },
        {
          "internalType": "bytes32",
          "name": "s",
          "type": "bytes32"
        }
      ],
      "name": "permit",
      "outputs": [],
      "stateMutability": "nonpayable",
      "type": "function"
    },
    {
      "inputs": [],
      "name": "symbol",
      "outputs": [
        {
          "internalType": "string",
          "name": "",
          "type": "string"
        }
      ],
      "stateMutability": "view",
      "type": "function"
    },
    {
      "inputs": [],
      "name": "totalSupply",
      "outputs": [
        {
          "internalType": "uint256",
          "name": "",
          "type": "uint256"
        }
      ],
      "stateMutability": "view",
      "type": "function"
    },
    {
      "inputs": [
        {
          "internalType": "address",
          "name": "to",
          "type": "address"
        },
        {
          "internalType": "uint256",
          "name": "amount",
          "type": "uint256"
        }
      ],
      "name": "transfer",
      "outputs": [
        {
          "internalType": "bool",
          "name": "",
          "type": "bool"
        }
      ],
      "stateMutability": "nonpayable",
      "type": "function"
    },
    {
      "inputs": [
        {
          "internalType": "address",
          "name": "from",
          "type": "address"
        },
        {
          "internalType": "address",
          "name": "to",
          "type": "address"
        },
        {
          "internalType": "uint256",
          "name": "amount",
          "type": "uint256"
        }
      ],
      "name": "transferFrom",
      "outputs": [
        {
          "internalType": "bool",
          "name": "",
          "type": "bool"
        }
      ],
      "stateMutability": "nonpayable",
      "type": "function"
    }
  ],
  "bytecode": "0x610160346200050c57601f19906001600160401b0390601f906200195e3881900383810186168301929190858411838510176200040e57808392604095865283396020928391810103126200050c5751908251936200005e8562000511565b600c8552818501956b2630bab731b43830b223b7bb60a11b91828852855192620000888462000511565b600c8452848401528551926200009e8462000511565b6003998a8552624c504760e81b8686015287519a620000bd8c62000511565b600190818d52878d0193603160f81b85528051908782116200040e578254908482811c9216801562000501575b8b831014620004eb57818884931162000495575b508a90888311600114620004305760009262000424575b505060001982841b1c191690831b1781555b8651918683116200040e5760049788548281811c9116801562000403575b8b821014620003ee57878111620003a3575b5089908785116001146200033a57849550908492916000956200032e575b50501b92600019911b1c19161784555b62000190886200052d565b98610120998a52620001a28b620006f1565b98610140998a52519020998a60e0525190209061010099828b524660a052875192868401917f8b73c3c69bb8fe3d512ecc4cf759cc79239f7b179b0ffacaa9a75d522b39400f83528985015260608401524660808401523060a084015260a0835260c0830193838510908511176200031957838852825190206080523060c0523315620002d85750505060025490838201809211620002c357506000917fddf252ad1be2c89b69c2b068fc378daa952ba7f163c4a11628f55a4df523b3ef9160025533835282815284832084815401905584519384523393a351916110b49384620008aa853960805184610dff015260a05184610ecb015260c05184610dc9015260e05184610e4e01525183610e74015251826104ae015251816104d80152f35b601190634e487b7160e01b6000525260246000fd5b610104606493927f45524332303a206d696e7420746f20746865207a65726f206164647265737300928762461bcd60e51b865260c483015260e48201520152fd5b604185634e487b7160e01b6000525260246000fd5b01519350388062000175565b92919484169289600052848b6000209460005b8d898383106200038b575050501062000370575b50505050811b01845562000185565b01519060f884600019921b161c191690553880808062000361565b8686015189559097019694850194889350016200034d565b896000528a6000208880870160051c8201928d8810620003e4575b0160051c019083905b828110620003d757505062000157565b60008155018390620003c7565b92508192620003be565b60228a634e487b7160e01b6000525260246000fd5b90607f169062000145565b634e487b7160e01b600052604160045260246000fd5b01519050388062000115565b908686941691856000528c600020928d6000905b8282106200047d575050841162000464575b505050811b01815562000127565b015160001983861b60f8161c1916905538808062000456565b83850151865589979095019493840193018e62000444565b909150836000528a6000208880850160051c8201928d8610620004e1575b918791869594930160051c01915b828110620004d1575050620000fe565b60008155859450879101620004c1565b92508192620004b3565b634e487b7160e01b600052602260045260246000fd5b91607f1691620000ea565b600080fd5b604081019081106001600160401b038211176200040e57604052565b80516020919082811015620005cc575090601f8251116200056b57808251920151908083106200055c57501790565b82600019910360031b1b161790565b90604051809263305a27a960e01b82528060048301528251908160248401526000935b828510620005b2575050604492506000838284010152601f80199101168101030190fd5b84810182015186860160440152938101938593506200058e565b6001600160401b0381116200040e576005928354926001938481811c91168015620006e6575b83821014620004eb57601f8111620006af575b5081601f841160011462000645575092829391839260009462000639575b50501b916000199060031b1c191617905560ff90565b01519250388062000623565b919083601f1981168760005284600020946000905b888383106200069457505050106200067a575b505050811b01905560ff90565b015160001960f88460031b161c191690553880806200066d565b8587015188559096019594850194879350908101906200065a565b8560005284601f846000209201871c820191601f8601881c015b828110620006d957505062000605565b60008155018590620006c9565b90607f1690620005f2565b8051602090818110156200077f5750601f8251116200071e57808251920151908083106200055c57501790565b90604051809263305a27a960e01b82528060048301528251908160248401526000935b82851062000765575050604492506000838284010152601f80199101168101030190fd5b848101820151868601604401529381019385935062000741565b906001600160401b0382116200040e57600654926001938481811c911680156200089e575b83821014620004eb57601f811162000864575b5081601f8411600114620007f85750928293918392600094620007ec575b50501b916000199060031b1c19161760065560ff90565b015192503880620007d5565b919083601f198116600660005284600020946000905b888383106200084957505050106200082f575b505050811b0160065560ff90565b015160001960f88460031b161c1916905538808062000821565b8587015188559096019594850194879350908101906200080e565b600660005284601f84600020920160051c820191601f860160051c015b82811062000891575050620007b7565b6000815501859062000881565b90607f1690620007a456fe608060408181526004918236101561001657600080fd5b600092833560e01c91826306fdde03146107dd57508163095ea7b3146107b357816318160ddd1461079457816323b872dd146106ca578163313ce567146106ae5781633644e5151461068a578163395093511461062357816370a08231146105ec5781637ecebe00146105b457816384b0196e1461049657816395d89b41146103a7578163a457c2d7146102ff578163a9059cbb146102ce578163d505accf14610115575063dd62ed3e146100ca57600080fd5b34610111578060031936011261011157806020926100e66108ee565b6100ee610909565b6001600160a01b0391821683526001865283832091168252845220549051908152f35b5080fd5b839150346101115760e0366003190112610111576101316108ee565b610139610909565b906044359260643560843560ff811681036102ca578142116102875760018060a01b0390818516928389526007602052898920908154916001830190558a519060208201927f6e71edae12b1b97f4d1f60370fef10105fa2faae0126114a169c64845d6126c98452868d840152858a1660608401528a608084015260a083015260c082015260c0815260e0810181811067ffffffffffffffff821117610274578b5251902061021c91610214916101ee610dc6565b908c519161190160f01b83526002830152602282015260c43591604260a4359220610d37565b919091610c1d565b1603610231575061022e939450610b1b565b80f35b606490602087519162461bcd60e51b8352820152601e60248201527f45524332305065726d69743a20696e76616c6964207369676e617475726500006044820152fd5b634e487b7160e01b8b526041875260248bfd5b875162461bcd60e51b8152602081850152601d60248201527f45524332305065726d69743a206578706972656420646561646c696e650000006044820152606490fd5b8680fd5b5050346101115780600319360112610111576020906102f86102ee6108ee565b60243590336109ad565b5160018152f35b905082346103a457826003193601126103a45761031a6108ee565b918360243592338152600160205281812060018060a01b0386168252602052205490828210610353576020856102f88585038733610b1b565b608490602086519162461bcd60e51b8352820152602560248201527f45524332303a2064656372656173656420616c6c6f77616e63652062656c6f77604482015264207a65726f60d81b6064820152fd5b80fd5b91905034610492578260031936011261049257805191838154906103ca8261091f565b80865292600192808416908115610467575060011461040b575b61040786866103f5828b038361098b565b519182916020835260208301906108ae565b0390f35b815294507f8a35acfbc15ff81a39ae7d344fd709f28e8600b4aa8c65c6b64bfe7fe36bd19b5b82861061044f575050506103f58260206104079582010194386103e4565b80546020878701810191909152909501948101610431565b90506104079750869350602092506103f594915060ff191682840152151560051b82010194386103e4565b8280fd5b919050346104925782600319360112610492576104d27f0000000000000000000000000000000000000000000000000000000000000000610ef1565b926104fc7f0000000000000000000000000000000000000000000000000000000000000000610fed565b908251926020928385019585871067ffffffffffffffff8811176105a15750928061055783889661054a998b9996528686528151998a99600f60f81b8b5260e0868c015260e08b01906108ae565b91898303908a01526108ae565b924660608801523060808801528460a088015286840360c088015251928381520193925b82811061058a57505050500390f35b83518552869550938101939281019260010161057b565b634e487b7160e01b845260419052602483fd5b5050346101115760203660031901126101115760209181906001600160a01b036105dc6108ee565b1681526007845220549051908152f35b5050346101115760203660031901126101115760209181906001600160a01b036106146108ee565b16815280845220549051908152f35b8284346103a457816003193601126103a45761063d6108ee565b338252600160209081528383206001600160a01b0383168452905282822054602435810192908310610677576020846102f8858533610b1b565b634e487b7160e01b815260118552602490fd5b5050346101115781600319360112610111576020906106a7610dc6565b9051908152f35b5050346101115781600319360112610111576020905160128152f35b83915034610111576060366003190112610111576106e66108ee565b6106ee610909565b91846044359460018060a01b038416815260016020528181203382526020522054906000198203610728575b6020866102f88787876109ad565b8482106107515750918391610746602096956102f895033383610b1b565b91939481935061071a565b606490602087519162461bcd60e51b8352820152601d60248201527f45524332303a20696e73756666696369656e7420616c6c6f77616e63650000006044820152fd5b5050346101115781600319360112610111576020906002549051908152f35b5050346101115780600319360112610111576020906102f86107d36108ee565b6024359033610b1b565b84908434610492578260031936011261049257826003546107fd8161091f565b808552916001918083169081156108865750600114610829575b5050506103f58261040794038361098b565b9450600385527fc2575a0e9e593c00f959f8c92f12db2869c3395a3b0502d05e2516446f71f85b5b82861061086e575050506103f58260206104079582010194610817565b80546020878701810191909152909501948101610851565b6104079750869350602092506103f594915060ff191682840152151560051b82010194610817565b919082519283825260005b8481106108da575050826000602080949584010152601f8019910116010190565b6020818301810151848301820152016108b9565b600435906001600160a01b038216820361090457565b600080fd5b602435906001600160a01b038216820361090457565b90600182811c9216801561094f575b602083101461093957565b634e487b7160e01b600052602260045260246000fd5b91607f169161092e565b6040810190811067ffffffffffffffff82111761097557604052565b634e487b7160e01b600052604160045260246000fd5b90601f8019910116810190811067ffffffffffffffff82111761097557604052565b6001600160a01b03908116918215610ac85716918215610a7757600082815280602052604081205491808310610a2357604082827fddf252ad1be2c89b69c2b068fc378daa952ba7f163c4a11628f55a4df523b3ef958760209652828652038282205586815220818154019055604051908152a3565b60405162461bcd60e51b815260206004820152602660248201527f45524332303a207472616e7366657220616d6f756e7420657863656564732062604482015265616c616e636560d01b6064820152608490fd5b60405162461bcd60e51b815260206004820152602360248201527f45524332303a207472616e7366657220746f20746865207a65726f206164647260448201526265737360e81b6064820152608490fd5b60405162461bcd60e51b815260206004820152602560248201527f45524332303a207472616e736665722066726f6d20746865207a65726f206164604482015264647265737360d81b6064820152608490fd5b6001600160a01b03908116918215610bcc5716918215610b7c5760207f8c5be1e5ebec7d5bd14f71427d1e84f3dd0314c0f7b2291e5b200ac8c7c3b925918360005260018252604060002085600052825280604060002055604051908152a3565b60405162461bcd60e51b815260206004820152602260248201527f45524332303a20617070726f766520746f20746865207a65726f206164647265604482015261737360f01b6064820152608490fd5b60405162461bcd60e51b8152602060048201526024808201527f45524332303a20617070726f76652066726f6d20746865207a65726f206164646044820152637265737360e01b6064820152608490fd5b6005811015610d215780610c2e5750565b60018103610c7b5760405162461bcd60e51b815260206004820152601860248201527f45434453413a20696e76616c6964207369676e617475726500000000000000006044820152606490fd5b60028103610cc85760405162461bcd60e51b815260206004820152601f60248201527f45434453413a20696e76616c6964207369676e6174757265206c656e677468006044820152606490fd5b600314610cd157565b60405162461bcd60e51b815260206004820152602260248201527f45434453413a20696e76616c6964207369676e6174757265202773272076616c604482015261756560f01b6064820152608490fd5b634e487b7160e01b600052602160045260246000fd5b9291907f7fffffffffffffffffffffffffffffff5d576e7357a4501ddfe92f46681b20a08311610dba5791608094939160ff602094604051948552168484015260408301526060820152600093849182805260015afa15610dad5781516001600160a01b03811615610da7579190565b50600190565b50604051903d90823e3d90fd5b50505050600090600390565b307f00000000000000000000000000000000000000000000000000000000000000006001600160a01b03161480610ec8575b15610e21577f000000000000000000000000000000000000000000000000000000000000000090565b60405160208101907f8b73c3c69bb8fe3d512ecc4cf759cc79239f7b179b0ffacaa9a75d522b39400f82527f000000000000000000000000000000000000000000000000000000000000000060408201527f000000000000000000000000000000000000000000000000000000000000000060608201524660808201523060a082015260a0815260c0810181811067ffffffffffffffff8211176109755760405251902090565b507f00000000000000000000000000000000000000000000000000000000000000004614610df8565b60ff8114610f2f5760ff811690601f8211610f1d5760405191610f1383610959565b8252602082015290565b604051632cd44ac360e21b8152600490fd5b50604051600554816000610f428361091f565b80835292600190818116908115610fcb5750600114610f6c575b50610f699250038261098b565b90565b6005600090815291507f036b6384b5eca791c62761152d0c79bb0604c104a5fb6f4eb0703f3154bb3db05b848310610fb05750610f69935050810160200138610f5c565b81935090816020925483858901015201910190918492610f97565b905060209250610f6994915060ff191682840152151560051b82010138610f5c565b60ff811461100f5760ff811690601f8211610f1d5760405191610f1383610959565b506040516006548160006110228361091f565b80835292600190818116908115610fcb57506001146110485750610f699250038261098b565b6006600090815291507ff652222313e28459528d920b65115c16c04f3efc82aaedc97be59f3f377c0d3f5b84831061108c5750610f69935050810160200138610f5c565b8193509081602092548385890101520191019091849261107356fea164736f6c6343000814000a",
  "linkReferences": {},
  "deployedLinkReferences": {}
}