{
  "_format": "hh-sol-artifact-1",
  "contractName": "GovernorContract",
  "sourceName": "contracts/GovernorContract.sol",
  "abi": [
    {
      "inputs": [
        {
          "internalType": "contract IVotes",
          "name": "token_",
          "type": "address"
        },
        {
          "internalType": "contract TimelockController",
          "name": "timelock_",
          "type": "address"
        }
      ],
      "stateMutability": "nonpayable",
      "type": "constructor"
    },
    {
      "inputs": [],
      "name": "Empty",
      "type": "error"
    },
    {
      "inputs": [],
      "name": "InvalidShortString",
      "type": "error"
    },
    {
      "inputs": [
        {
          "internalType": "string",
          "name": "str",
          "type": "string"
        }
      ],
      "name": "StringTooLong",
      "type": "error"
    },
    {
      "anonymous": false,
      "inputs": [],
      "name": "EIP712DomainChanged",
      "type": "event"
    },
    {
      "anonymous": false,
      "inputs": [
        {
          "indexed": false,
          "internalType": "uint256",
          "name": "proposalId",
          "type": "uint256"
        }
      ],
      "name": "ProposalCanceled",
      "type": "event"
    },
    {
      "anonymous": false,
      "inputs": [
        {
          "indexed": false,
          "internalType": "uint256",
          "name": "proposalId",
          "type": "uint256"
        },
        {
          "indexed": false,
          "internalType": "address",
          "name": "proposer",
          "type": "address"
        },
        {
          "indexed": false,
          "internalType": "address[]",
          "name": "targets",
          "type": "address[]"
        },
        {
          "indexed": false,
          "internalType": "uint256[]",
          "name": "values",
          "type": "uint256[]"
        },
        {
          "indexed": false,
          "internalType": "string[]",
          "name": "signatures",
          "type": "string[]"
        },
        {
          "indexed": false,
          "internalType": "bytes[]",
          "name": "calldatas",
          "type": "bytes[]"
        },
        {
          "indexed": false,
          "internalType": "uint256",
          "name": "voteStart",
          "type": "uint256"
        },
        {
          "indexed": false,
          "internalType": "uint256",
          "name": "voteEnd",
          "type": "uint256"
        },
        {
          "indexed": false,
          "internalType": "string",
          "name": "description",
          "type": "string"
        }
      ],
      "name": "ProposalCreated",
      "type": "event"
    },
    {
      "anonymous": false,
      "inputs": [
        {
          "indexed": false,
          "internalType": "uint256",
          "name": "proposalId",
          "type": "uint256"
        }
      ],
      "name": "ProposalExecuted",
      "type": "event"
    },
    {
      "anonymous": false,
      "inputs": [
        {
          "indexed": false,
          "internalType": "uint256",
          "name": "proposalId",
          "type": "uint256"
        },
        {
          "indexed": false,
          "internalType": "uint256",
          "name": "eta",
          "type": "uint256"
        }
      ],
      "name": "ProposalQueued",
      "type": "event"
    },
    {
      "anonymous": false,
      "inputs": [
        {
          "indexed": false,
          "internalType": "uint256",
          "name": "oldProposalThreshold",
          "type": "uint256"
        },
        {
          "indexed": false,
          "internalType": "uint256",
          "name": "newProposalThreshold",
          "type": "uint256"
        }
      ],
      "name": "ProposalThresholdSet",
      "type": "event"
    },
    {
      "anonymous": false,
      "inputs": [
        {
          "indexed": false,
          "internalType": "address",
          "name": "oldTimelock",
          "type": "address"
        },
        {
          "indexed": false,
          "internalType": "address",
          "name": "newTimelock",
          "type": "address"
        }
      ],
      "name": "TimelockChange",
      "type": "event"
    },
    {
      "anonymous": false,
      "inputs": [
        {
          "indexed": true,
          "internalType": "address",
          "name": "voter",
          "type": "address"
        },
        {
          "indexed": false,
          "internalType": "uint256",
          "name": "proposalId",
          "type": "uint256"
        },
        {
          "indexed": false,
          "internalType": "uint8",
          "name": "support",
          "type": "uint8"
        },
        {
          "indexed": false,
          "internalType": "uint256",
          "name": "weight",
          "type": "uint256"
        },
        {
          "indexed": false,
          "internalType": "string",
          "name": "reason",
          "type": "string"
        }
      ],
      "name": "VoteCast",
      "type": "event"
    },
    {
      "anonymous": false,
      "inputs": [
        {
          "indexed": true,
          "internalType": "address",
          "name": "voter",
          "type": "address"
        },
        {
          "indexed": false,
          "internalType": "uint256",
          "name": "proposalId",
          "type": "uint256"
        },
        {
          "indexed": false,
          "internalType": "uint8",
          "name": "support",
          "type": "uint8"
        },
        {
          "indexed": false,
          "internalType": "uint256",
          "name": "weight",
          "type": "uint256"
        },
        {
          "indexed": false,
          "internalType": "string",
          "name": "reason",
          "type": "string"
        },
        {
          "indexed": false,
          "internalType": "bytes",
          "name": "params",
          "type": "bytes"
        }
      ],
      "name": "VoteCastWithParams",
      "type": "event"
    },
    {
      "anonymous": false,
      "inputs": [
        {
          "indexed": false,
          "internalType": "uint256",
          "name": "oldVotingDelay",
          "type": "uint256"
        },
        {
          "indexed": false,
          "internalType": "uint256",
          "name": "newVotingDelay",
          "type": "uint256"
        }
      ],
      "name": "VotingDelaySet",
      "type": "event"
    },
    {
      "anonymous": false,
      "inputs": [
        {
          "indexed": false,
          "internalType": "uint256",
          "name": "oldVotingPeriod",
          "type": "uint256"
        },
        {
          "indexed": false,
          "internalType": "uint256",
          "name": "newVotingPeriod",
          "type": "uint256"
        }
      ],
      "name": "VotingPeriodSet",
      "type": "event"
    },
    {
      "inputs": [],
      "name": "BALLOT_TYPEHASH",
      "outputs": [
        {
          "internalType": "bytes32",
          "name": "",
          "type": "bytes32"
        }
      ],
      "stateMutability": "view",
      "type": "function"
    },
    {
      "inputs": [],
      "name": "CLOCK_MODE",
      "outputs": [
        {
          "internalType": "string",
          "name": "",
          "type": "string"
        }
      ],
      "stateMutability": "view",
      "type": "function"
    },
    {
      "inputs": [],
      "name": "COUNTING_MODE",
      "outputs": [
        {
          "internalType": "string",
          "name": "",
          "type": "string"
        }
      ],
      "stateMutability": "pure",
      "type": "function"
    },
    {
      "inputs": [],
      "name": "EXTENDED_BALLOT_TYPEHASH",
      "outputs": [
        {
          "internalType": "bytes32",
          "name": "",
          "type": "bytes32"
        }
      ],
      "stateMutability": "view",
      "type": "function"
    },
    {
      "inputs": [
        {
          "internalType": "address[]",
          "name": "targets",
          "type": "address[]"
        },
        {
          "internalType": "uint256[]",
          "name": "values",
          "type": "uint256[]"
        },
        {
          "internalType": "bytes[]",
          "name": "calldatas",
          "type": "bytes[]"
        },
        {
          "internalType": "bytes32",
          "name": "descriptionHash",
          "type": "bytes32"
        }
      ],
      "name": "cancel",
      "outputs": [
        {
          "internalType": "uint256",
          "name": "",
          "type": "uint256"
        }
      ],
      "stateMutability": "nonpayable",
      "type": "function"
    },
    {
      "inputs": [
        {
          "internalType": "uint256",
          "name": "proposalId",
          "type": "uint256"
        },
        {
          "internalType": "uint8",
          "name": "support",
          "type": "uint8"
        }
      ],
      "name": "castVote",
      "outputs": [
        {
          "internalType": "uint256",
          "name": "",
          "type": "uint256"
        }
      ],
      "stateMutability": "nonpayable",
      "type": "function"
    },
    {
      "inputs": [
        {
          "internalType": "uint256",
          "name": "proposalId",
          "type": "uint256"
        },
        {
          "internalType": "uint8",
          "name": "support",
          "type": "uint8"
        },
        {
          "internalType": "uint8",
          "name": "v",
          "type": "uint8"
        },
        {
          "internalType": "bytes32",
          "name": "r",
          "type": "bytes32"
        },
        {
          "internalType": "bytes32",
          "name": "s",
          "type": "bytes32"
        }
      ],
      "name": "castVoteBySig",
      "outputs": [
        {
          "internalType": "uint256",
          "name": "",
          "type": "uint256"
        }
      ],
      "stateMutability": "nonpayable",
      "type": "function"
    },
    {
      "inputs": [
        {
          "internalType": "uint256",
          "name": "proposalId",
          "type": "uint256"
        },
        {
          "internalType": "uint8",
          "name": "support",
          "type": "uint8"
        },
        {
          "internalType": "string",
          "name": "reason",
          "type": "string"
        }
      ],
      "name": "castVoteWithReason",
      "outputs": [
        {
          "internalType": "uint256",
          "name": "",
          "type": "uint256"
        }
      ],
      "stateMutability": "nonpayable",
      "type": "function"
    },
    {
      "inputs": [
        {
          "internalType": "uint256",
          "name": "proposalId",
          "type": "uint256"
        },
        {
          "internalType": "uint8",
          "name": "support",
          "type": "uint8"
        },
        {
          "internalType": "string",
          "name": "reason",
          "type": "string"
        },
        {
          "internalType": "bytes",
          "name": "params",
          "type": "bytes"
        }
      ],
      "name": "castVoteWithReasonAndParams",
      "outputs": [
        {
          "internalType": "uint256",
          "name": "",
          "type": "uint256"
        }
      ],
      "stateMutability": "nonpayable",
      "type": "function"
    },
    {
      "inputs": [
        {
          "internalType": "uint256",
          "name": "proposalId",
          "type": "uint256"
        },
        {
          "internalType": "uint8",
          "name": "support",
          "type": "uint8"
        },
        {
          "internalType": "string",
          "name": "reason",
          "type": "string"
        },
        {
          "internalType": "bytes",
          "name": "params",
          "type": "bytes"
        },
        {
          "internalType": "uint8",
          "name": "v",
          "type": "uint8"
        },
        {
          "internalType": "bytes32",
          "name": "r",
          "type": "bytes32"
        },
        {
          "internalType": "bytes32",
          "name": "s",
          "type": "bytes32"
        }
      ],
      "name": "castVoteWithReasonAndParamsBySig",
      "outputs": [
        {
          "internalType": "uint256",
          "name": "",
          "type": "uint256"
        }
      ],
      "stateMutability": "nonpayable",
      "type": "function"
    },
    {
      "inputs": [],
      "name": "clock",
      "outputs": [
        {
          "internalType": "uint48",
          "name": "",
          "type": "uint48"
        }
      ],
      "stateMutability": "view",
      "type": "function"
    },
    {
      "inputs": [],
      "name": "eip712Domain",
      "outputs": [
        {
          "internalType": "bytes1",
          "name": "fields",
          "type": "bytes1"
        },
        {
          "internalType": "string",
          "name": "name",
          "type": "string"
        },
        {
          "internalType": "string",
          "name": "version",
          "type": "string"
        },
        {
          "internalType": "uint256",
          "name": "chainId",
          "type": "uint256"
        },
        {
          "internalType": "address",
          "name": "verifyingContract",
          "type": "address"
        },
        {
          "internalType": "bytes32",
          "name": "salt",
          "type": "bytes32"
        },
        {
          "internalType": "uint256[]",
          "name": "extensions",
          "type": "uint256[]"
        }
      ],
      "stateMutability": "view",
      "type": "function"
    },
    {
      "inputs": [
        {
          "internalType": "address[]",
          "name": "targets",
          "type": "address[]"
        },
        {
          "internalType": "uint256[]",
          "name": "values",
          "type": "uint256[]"
        },
        {
          "internalType": "bytes[]",
          "name": "calldatas",
          "type": "bytes[]"
        },
        {
          "internalType": "bytes32",
          "name": "descriptionHash",
          "type": "bytes32"
        }
      ],
      "name": "execute",
      "outputs": [
        {
          "internalType": "uint256",
          "name": "",
          "type": "uint256"
        }
      ],
      "stateMutability": "payable",
      "type": "function"
    },
    {
      "inputs": [
        {
          "internalType": "address",
          "name": "account",
          "type": "address"
        },
        {
          "internalType": "uint256",
          "name": "timepoint",
          "type": "uint256"
        }
      ],
      "name": "getVotes",
      "outputs": [
        {
          "internalType": "uint256",
          "name": "",
          "type": "uint256"
        }
      ],
      "stateMutability": "view",
      "type": "function"
    },
    {
      "inputs": [
        {
          "internalType": "address",
          "name": "account",
          "type": "address"
        },
        {
          "internalType": "uint256",
          "name": "timepoint",
          "type": "uint256"
        },
        {
          "internalType": "bytes",
          "name": "params",
          "type": "bytes"
        }
      ],
      "name": "getVotesWithParams",
      "outputs": [
        {
          "internalType": "uint256",
          "name": "",
          "type": "uint256"
        }
      ],
      "stateMutability": "view",
      "type": "function"
    },
    {
      "inputs": [
        {
          "internalType": "uint256",
          "name": "proposalId",
          "type": "uint256"
        },
        {
          "internalType": "address",
          "name": "account",
          "type": "address"
        }
      ],
      "name": "hasVoted",
      "outputs": [
        {
          "internalType": "bool",
          "name": "",
          "type": "bool"
        }
      ],
      "stateMutability": "view",
      "type": "function"
    },
    {
      "inputs": [
        {
          "internalType": "address[]",
          "name": "targets",
          "type": "address[]"
        },
        {
          "internalType": "uint256[]",
          "name": "values",
          "type": "uint256[]"
        },
        {
          "internalType": "bytes[]",
          "name": "calldatas",
          "type": "bytes[]"
        },
        {
          "internalType": "bytes32",
          "name": "descriptionHash",
          "type": "bytes32"
        }
      ],
      "name": "hashProposal",
      "outputs": [
        {
          "internalType": "uint256",
          "name": "",
          "type": "uint256"
        }
      ],
      "stateMutability": "pure",
      "type": "function"
    },
    {
      "inputs": [],
      "name": "name",
      "outputs": [
        {
          "internalType": "string",
          "name": "",
          "type": "string"
        }
      ],
      "stateMutability": "view",
      "type": "function"
    },
    {
      "inputs": [
        {
          "internalType": "address",
          "name": "",
          "type": "address"
        },
        {
          "internalType": "address",
          "name": "",
          "type": "address"
        },
        {
          "internalType": "uint256[]",
          "name": "",
          "type": "uint256[]"
        },
        {
          "internalType": "uint256[]",
          "name": "",
          "type": "uint256[]"
        },
        {
          "internalType": "bytes",
          "name": "",
          "type": "bytes"
        }
      ],
      "name": "onERC1155BatchReceived",
      "outputs": [
        {
          "internalType": "bytes4",
          "name": "",
          "type": "bytes4"
        }
      ],
      "stateMutability": "nonpayable",
      "type": "function"
    },
    {
      "inputs": [
        {
          "internalType": "address",
          "name": "",
          "type": "address"
        },
        {
          "internalType": "address",
          "name": "",
          "type": "address"
        },
        {
          "internalType": "uint256",
          "name": "",
          "type": "uint256"
        },
        {
          "internalType": "uint256",
          "name": "",
          "type": "uint256"
        },
        {
          "internalType": "bytes",
          "name": "",
          "type": "bytes"
        }
      ],
      "name": "onERC1155Received",
      "outputs": [
        {
          "internalType": "bytes4",
          "name": "",
          "type": "bytes4"
        }
      ],
      "stateMutability": "nonpayable",
      "type": "function"
    },
    {
      "inputs": [
        {
          "internalType": "address",
          "name": "",
          "type": "address"
        },
        {
          "internalType": "address",
          "name": "",
          "type": "address"
        },
        {
          "internalType": "uint256",
          "name": "",
          "type": "uint256"
        },
        {
          "internalType": "bytes",
          "name": "",
          "type": "bytes"
        }
      ],
      "name": "onERC721Received",
      "outputs": [
        {
          "internalType": "bytes4",
          "name": "",
          "type": "bytes4"
        }
      ],
      "stateMutability": "nonpayable",
      "type": "function"
    },
    {
      "inputs": [
        {
          "internalType": "uint256",
          "name": "proposalId",
          "type": "uint256"
        }
      ],
      "name": "proposalDeadline",
      "outputs": [
        {
          "internalType": "uint256",
          "name": "",
          "type": "uint256"
        }
      ],
      "stateMutability": "view",
      "type": "function"
    },
    {
      "inputs": [
        {
          "internalType": "uint256",
          "name": "proposalId",
          "type": "uint256"
        }
      ],
      "name": "proposalEta",
      "outputs": [
        {
          "internalType": "uint256",
          "name": "",
          "type": "uint256"
        }
      ],
      "stateMutability": "view",
      "type": "function"
    },
    {
      "inputs": [
        {
          "internalType": "uint256",
          "name": "proposalId",
          "type": "uint256"
        }
      ],
      "name": "proposalProposer",
      "outputs": [
        {
          "internalType": "address",
          "name": "",
          "type": "address"
        }
      ],
      "stateMutability": "view",
      "type": "function"
    },
    {
      "inputs": [
        {
          "internalType": "uint256",
          "name": "proposalId",
          "type": "uint256"
        }
      ],
      "name": "proposalSnapshot",
      "outputs": [
        {
          "internalType": "uint256",
          "name": "",
          "type": "uint256"
        }
      ],
      "stateMutability": "view",
      "type": "function"
    },
    {
      "inputs": [],
      "name": "proposalThreshold",
      "outputs": [
        {
          "internalType": "uint256",
          "name": "",
          "type": "uint256"
        }
      ],
      "stateMutability": "view",
      "type": "function"
    },
    {
      "inputs": [
        {
          "internalType": "uint256",
          "name": "proposalId",
          "type": "uint256"
        }
      ],
      "name": "proposalVotes",
      "outputs": [
        {
          "internalType": "uint256",
          "name": "againstVotes",
          "type": "uint256"
        },
        {
          "internalType": "uint256",
          "name": "forVotes",
          "type": "uint256"
        },
        {
          "internalType": "uint256",
          "name": "abstainVotes",
          "type": "uint256"
        }
      ],
      "stateMutability": "view",
      "type": "function"
    },
    {
      "inputs": [
        {
          "internalType": "address[]",
          "name": "targets",
          "type": "address[]"
        },
        {
          "internalType": "uint256[]",
          "name": "values",
          "type": "uint256[]"
        },
        {
          "internalType": "bytes[]",
          "name": "calldatas",
          "type": "bytes[]"
        },
        {
          "internalType": "string",
          "name": "description",
          "type": "string"
        }
      ],
      "name": "propose",
      "outputs": [
        {
          "internalType": "uint256",
          "name": "",
          "type": "uint256"
        }
      ],
      "stateMutability": "nonpayable",
      "type": "function"
    },
    {
      "inputs": [
        {
          "internalType": "address[]",
          "name": "targets",
          "type": "address[]"
        },
        {
          "internalType": "uint256[]",
          "name": "values",
          "type": "uint256[]"
        },
        {
          "internalType": "bytes[]",
          "name": "calldatas",
          "type": "bytes[]"
        },
        {
          "internalType": "bytes32",
          "name": "descriptionHash",
          "type": "bytes32"
        }
      ],
      "name": "queue",
      "outputs": [
        {
          "internalType": "uint256",
          "name": "",
          "type": "uint256"
        }
      ],
      "stateMutability": "nonpayable",
      "type": "function"
    },
    {
      "inputs": [
        {
          "internalType": "uint256",
          "name": "blockNumber",
          "type": "uint256"
        }
      ],
      "name": "quorum",
      "outputs": [
        {
          "internalType": "uint256",
          "name": "",
          "type": "uint256"
        }
      ],
      "stateMutability": "view",
      "type": "function"
    },
    {
      "inputs": [
        {
          "internalType": "address",
          "name": "target",
          "type": "address"
        },
        {
          "internalType": "uint256",
          "name": "value",
          "type": "uint256"
        },
        {
          "internalType": "bytes",
          "name": "data",
          "type": "bytes"
        }
      ],
      "name": "relay",
      "outputs": [],
      "stateMutability": "payable",
      "type": "function"
    },
    {
      "inputs": [
        {
          "internalType": "uint256",
          "name": "newProposalThreshold",
          "type": "uint256"
        }
      ],
      "name": "setProposalThreshold",
      "outputs": [],
      "stateMutability": "nonpayable",
      "type": "function"
    },
    {
      "inputs": [
        {
          "internalType": "uint256",
          "name": "newVotingDelay",
          "type": "uint256"
        }
      ],
      "name": "setVotingDelay",
      "outputs": [],
      "stateMutability": "nonpayable",
      "type": "function"
    },
    {
      "inputs": [
        {
          "internalType": "uint256",
          "name": "newVotingPeriod",
          "type": "uint256"
        }
      ],
      "name": "setVotingPeriod",
      "outputs": [],
      "stateMutability": "nonpayable",
      "type": "function"
    },
    {
      "inputs": [
        {
          "internalType": "uint256",
          "name": "proposalId",
          "type": "uint256"
        }
      ],
      "name": "state",
      "outputs": [
        {
          "internalType": "enum IGovernor.ProposalState",
          "name": "",
          "type": "uint8"
        }
      ],
      "stateMutability": "view",
      "type": "function"
    },
    {
      "inputs": [
        {
          "internalType": "bytes4",
          "name": "interfaceId",
          "type": "bytes4"
        }
      ],
      "name": "supportsInterface",
      "outputs": [
        {
          "internalType": "bool",
          "name": "",
          "type": "bool"
        }
      ],
      "stateMutability": "view",
      "type": "function"
    },
    {
      "inputs": [],
      "name": "timelock",
      "outputs": [
        {
          "internalType": "address",
          "name": "",
          "type": "address"
        }
      ],
      "stateMutability": "view",
      "type": "function"
    },
    {
      "inputs": [],
      "name": "token",
      "outputs": [
        {
          "internalType": "contract IERC5805",
          "name": "",
          "type": "address"
        }
      ],
      "stateMutability": "view",
      "type": "function"
    },
    {
      "inputs": [
        {
          "internalType": "contract TimelockController",
          "name": "newTimelock",
          "type": "address"
        }
      ],
      "name": "updateTimelock",
      "outputs": [],
      "stateMutability": "nonpayable",
      "type": "function"
    },
    {
      "inputs": [],
      "name": "version",
      "outputs": [
        {
          "internalType": "string",
          "name": "",
          "type": "string"
        }
      ],
      "stateMutability": "view",
      "type": "function"
    },
    {
      "inputs": [],
      "name": "votingDelay",
      "outputs": [
        {
          "internalType": "uint256",
          "name": "",
          "type": "uint256"
        }
      ],
      "stateMutability": "view",
      "type": "function"
    },
    {
      "inputs": [],
      "name": "votingPeriod",
      "outputs": [
        {
          "internalType": "uint256",
          "name": "",
          "type": "uint256"
        }
      ],
      "stateMutability": "view",
      "type": "function"
    },
    {
      "stateMutability": "payable",
      "type": "receive"
    }
  ],
  "bytecode": "0x6101803462000447576001600160401b0362003f91601f1938829003601f8101821685019085821085831117620004315780869160409586948552833981010312620004475783516001600160a01b03948582169391849003620004475760208091015190868216809203620004475782516200007c816200044c565b6011815281810194702630bab731b43830b223b7bb32b93737b960791b8652845198620000a98a6200044c565b6001808b52848b0199603160f81b8b52620000c48562000468565b9a6101209b8c52620000d68d6200063b565b996101409a8b52865190209c8d60e0525190209b8c6101009d8e524660a052895190888201927f8b73c3c69bb8fe3d512ecc4cf759cc79239f7b179b0ffacaa9a75d522b39400f84528b83015260608201524660808201523060a082015260a0815260c081018181108482111762000431578a525190206080523060c05284519081116200043157600254938285811c9516801562000426575b87861014620004105784601f8a9611620003b4575b508690601f831160011462000329575081907f08f74ea46ef7894f65eabfb5e6e695de773a000b47c529ab559178069b226401966000926200031d575b5050600019600383901b1c191690821b176002555b7fc565b045403dc03c2eea82b81a0465edad9e2e7fc4d97e11421c209da93d7a938360065481519081528388820152a160065560075482519081527f7e3f7f0708a84de9203036abaa450dccc85ad5ff52f78c170f3edb55cf5e88288361b2fa928388820152a16007557fccb45da8d5717e6c4544694297c4ba5cf151d455c9bb0ed4fc7a38411bc05461826008548151908152600087820152a1600060085561016097885284600a549483519286168352820152a16001600160a01b03191617600a55516137be9490939085620007d3863960805185612866015260a0518561291b015260c05185612830015260e051856128b5015251846128db015251836113210152518261134d01525181818161146b01528181611a4d01528181611bb001528181611ee10152818161241a015281816124f1015281816125e70152612bd10152f35b015190503880620001c2565b8216956002600052876000209660005b898282106200039c575050917f08f74ea46ef7894f65eabfb5e6e695de773a000b47c529ab559178069b2264019791848695941062000382575b505050811b01600255620001d7565b015160001960f88460031b161c1916905538808062000373565b848401518a55988601988c9850938401930162000339565b909192939450600260005286600020601f840160051c81019188851062000405575b90601f8b9796959493920160051c01905b818110620003f6575062000185565b600081558a96508401620003e7565b9091508190620003d6565b634e487b7160e01b600052602260045260246000fd5b94607f169462000170565b634e487b7160e01b600052604160045260246000fd5b600080fd5b604081019081106001600160401b038211176200043157604052565b8051602091908281101562000507575090601f825111620004a657808251920151908083106200049757501790565b82600019910360031b1b161790565b90604051809263305a27a960e01b82528060048301528251908160248401526000935b828510620004ed575050604492506000838284010152601f80199101168101030190fd5b8481018201518686016044015293810193859350620004c9565b6001600160401b03811162000431576000928354926001938481811c9116801562000630575b838210146200061c57601f8111620005e6575b5081601f84116001146200057f5750928293918392869462000573575b50501b916000199060031b1c191617905560ff90565b0151925038806200055d565b919083601f1981168780528488209488905b88838310620005cb5750505010620005b1575b505050811b01905560ff90565b015160001960f88460031b161c19169055388080620005a4565b85870151885590960195948501948793509081019062000591565b85805284601f848820920160051c820191601f860160051c015b8281106200061057505062000540565b87815501859062000600565b634e487b7160e01b86526022600452602486fd5b90607f16906200052d565b805160209081811015620006c95750601f8251116200066857808251920151908083106200049757501790565b90604051809263305a27a960e01b82528060048301528251908160248401526000935b828510620006af575050604492506000838284010152601f80199101168101030190fd5b84810182015186860160440152938101938593506200068b565b9192916001600160401b038111620004315760019182548381811c91168015620007c7575b828210146200041057601f81116200078e575b5080601f83116001146200074157508192939460009262000735575b5050600019600383901b1c191690821b17905560ff90565b0151905038806200071d565b90601f198316958460005282600020926000905b888210620007765750508385969710620005b157505050811b01905560ff90565b80878596829496860151815501950193019062000755565b8360005283601f83600020920160051c820191601f850160051c015b828110620007ba57505062000701565b60008155018490620007aa565b90607f1690620006ee56fe60806040526004361015610023575b361561001957600080fd5b610021611bdf565b005b60003560e01c806301ffc9a7146102c357806302a251a3146102be57806303420181146102b957806306fdde03146102b4578063143489d0146102af578063150b7a02146102aa578063160cbed7146102a55780632656227d146102a05780632d63f6931461029b5780632fe3e261146102965780633932abb1146102915780633bccf4fd1461028c5780633e4f49e6146102875780634385963214610282578063452115d61461027d5780634bf5d7e914610278578063544ffc9c1461027357806354fd4d501461026e57806356781388146102695780635f398a141461026457806370b0f6601461025f5780637b3c71d31461025a5780637d5e81e21461025557806384b0196e1461025057806391ddadf41461024b5780639a802a6d14610246578063a890c91014610241578063ab58fb8e1461023c578063b58131b014610237578063bc197c8114610232578063c01f9e371461022d578063c28bc2fa14610228578063c59057e414610223578063d33219b41461021e578063dd4e2ba514610219578063deaaa7cc14610214578063ea0217cf1461020f578063eb9019d41461020a578063ece40cc114610205578063f23a6e6114610200578063f8ce560a146101fb5763fc0c546a0361000e57611b9a565b611b7c565b611b23565b611a91565b6119f1565b611904565b6118c9565b61186b565b611842565b611826565b611705565b6116cd565b611641565b611623565b61157a565b6114ce565b6113fd565b6113d2565b611308565b61123b565b6111e6565b611154565b6110e5565b611095565b611053565b611010565b610fe0565b610f29565b610ed0565b610ea1565b610dd4565b610db6565b610d7b565b610d46565b610ba9565b6109bf565b6107a7565b61075f565b61067e565b61059d565b610398565b346103885760203660031901126103885760043563ffffffff60e01b81168091036103885761031190636e665ced60e01b8114908115610315575b5060405190151581529081906020820190565b0390f35b63bf26d89760e01b811491508115610377575b8115610366575b8115610355575b8115610344575b50386102fe565b6301ffc9a760e01b1490503861033d565b630271189760e51b81149150610336565b63288ace0360e11b8114915061032f565b6379dd796f60e01b81149150610328565b600080fd5b600091031261038857565b34610388576000366003190112610388576020600754604051908152f35b6024359060ff8216820361038857565b6044359060ff8216820361038857565b9181601f84011215610388578235916001600160401b038311610388576020838186019501011161038857565b634e487b7160e01b600052604160045260246000fd5b6001600160401b03811161042c57604052565b610403565b608081019081106001600160401b0382111761042c57604052565b602081019081106001600160401b0382111761042c57604052565b604081019081106001600160401b0382111761042c57604052565b606081019081106001600160401b0382111761042c57604052565b60c081019081106001600160401b0382111761042c57604052565b90601f801991011681019081106001600160401b0382111761042c57604052565b6040519060e082018281106001600160401b0382111761042c57604052565b6001600160401b03811161042c57601f01601f191660200190565b91909161051f816104f8565b61052c60405191826104b8565b8093828252821161038857818160009384602080950137010152565b929192610554826104f8565b9161056260405193846104b8565b829481845281830111610388578281602093846000960137010152565b9080601f830112156103885781602061059a93359101610548565b90565b346103885760e0366003190112610388576105b66103b6565b6001600160401b03604435818111610388576105d69036906004016103d6565b91606435908111610388576105ef90369060040161057f565b9260843560ff8116810361038857610311946106159460c4359460a43594600435611f2d565b6040519081529081906020820190565b60005b8381106106385750506000910152565b8181015183820152602001610628565b9060209161066181518092818552858086019101610625565b601f01601f1916010190565b90602061059a928181520190610648565b346103885760008060031936011261075c5760405190806002546106a181611c38565b8085529160019180831690811561073257506001146106d7575b610311856106cb818703826104b8565b6040519182918261066d565b9250600283527f405787fa12a823e0f2b7631cc41b3ba8828b3321ca811111fa75cd3aa3bb5ace5b82841061071a5750505081016020016106cb826103116106bb565b805460208587018101919091529093019281016106ff565b869550610311969350602092506106cb94915060ff191682840152151560051b82010192936106bb565b80fd5b34610388576020366003190112610388576004356000526003602052602060018060a01b0360406000205460401c16604051908152f35b6001600160a01b0381160361038857565b34610388576080366003190112610388576107c3600435610796565b6107ce602435610796565b6064356001600160401b038111610388576107ed90369060040161057f565b50604051630a85bd0160e11b8152602090f35b6001600160401b03811161042c5760051b60200190565b81601f820112156103885780359161082e83610800565b9261083c60405194856104b8565b808452602092838086019260051b820101928311610388578301905b828210610866575050505090565b838091833561087481610796565b815201910190610858565b81601f820112156103885780359161089683610800565b926108a460405194856104b8565b808452602092838086019260051b820101928311610388578301905b8282106108ce575050505090565b813581529083019083016108c0565b9080601f83011215610388578135906108f582610800565b9261090360405194856104b8565b828452602092838086019160051b8301019280841161038857848301915b8483106109315750505050505090565b82356001600160401b0381116103885786916109528484809489010161057f565b815201920191610921565b6080600319820112610388576001600160401b0391600435838111610388578261098991600401610817565b9260243581811161038857836109a19160040161087f565b92604435918211610388576109b8916004016108dd565b9060643590565b34610388576109cd3661095d565b926109dd84838584969596611d04565b926109fb60046109ec86612c5b565b6109f581610e97565b14611d68565b600a54610a18906001600160a01b03165b6001600160a01b031690565b60405163793d064960e11b815293906020908186600481845afa958615610b5857600096610b8a575b5081604051809263b1c5f42760e01b82528180610a648d8a8a8d60048601612371565b03915afa918215610b5857600092610b5d575b5050610a8d86600052600b602052604060002090565b55600a54610aa3906001600160a01b0316610a0c565b90813b156103885760008094610ad0876040519a8b97889687956308f2a0bb60e41b8752600487016123b7565b03925af1928315610b5857610b147f9a2e42fd6722813d69113e7d0079d3d940171428df7373df9c7f7617cfda289292610b2c9261031196610b3f575b5042612221565b60408051858152602081019290925290918291820190565b0390a16040519081529081906020820190565b80610b4c610b5292610419565b8061038d565b38610b0d565b612365565b610b7c9250803d10610b83575b610b7481836104b8565b810190612356565b3880610a77565b503d610b6a565b610ba2919650823d8411610b8357610b7481836104b8565b9438610a41565b610bb23661095d565b610bc0818385879597611d04565b92610bca84612c5b565b926008841015610d4157610beb600494858114908115610d2d575b50611d68565b610c126002610c04876000526003602052604060002090565b01805460ff19166001179055565b6040938451908682527f712ae1383f79ac853f8d882153778e0260ef8f03b504e2866e0593e04d2b291f60208093a1600a546001600160a01b039081163003610c7e575b50505094610c689291610311966135b5565b610c70611e6e565b519081529081906020820190565b9092979591949396600094855b8a51811015610d1157808988828b8f89610ca9610cba983093611e55565b511614610cbf575b50505050611e2b565b610c8b565b610cce600192610d0895611e55565b5181815191012060058c5460801d92600f9584870b9052528a8d205501900b6001600160801b036004549181199060801b16911617600455565b8988828b610cb1565b509450969195925050610c689350610311969196819394610c56565b60059150610d3a81610e97565b1438610be5565b610e81565b3461038857602036600319011261038857600435600052600360205260206001600160401b0360406000205416604051908152f35b346103885760003660031901126103885760206040517fb3b3f3b703cd84ce352197dcff232b1b5d3cfb2025ce47cf04742d0651f1af888152f35b34610388576000366003190112610388576020600654604051908152f35b346103885760a036600319011261038857610311610615600435610df66103b6565b610e6b610e63610e046103c6565b60405160208101917f150214d74d59b7d1e90c73fc22ef3d991dd0a76b046543d4d80ab92d2a50328f835286604083015260ff8616606083015260608252610e4b82610431565b610e5e6084359360643593519020612807565b612785565b919091612665565b60405192610e788461044c565b60008452611fc8565b634e487b7160e01b600052602160045260246000fd5b60081115610d4157565b3461038857602036600319011261038857610ebd600435612c5b565b6040516008821015610d41576020918152f35b3461038857604036600319011261038857602060ff610f1d602435610ef481610796565b6004356000526009845260036040600020019060018060a01b0316600052602052604060002090565b54166040519015158152f35b3461038857610f373661095d565b90610f4482828587611d04565b92610f4e84612c5b565b6008811015610d4157610f9b5761031194610f96610f8f610a0c610f7f610615986000526003602052604060002090565b5460401c6001600160a01b031690565b3314611dbe565b613609565b60405162461bcd60e51b815260206004820152601c60248201527f476f7665726e6f723a20746f6f206c61746520746f2063616e63656c000000006044820152606490fd5b3461038857600036600319011261038857610311610ffc6124db565b604051918291602083526020830190610648565b3461038857602036600319011261038857600435600052600960205260606040600020805490600260018201549101549060405192835260208301526040820152f35b346103885760003660031901126103885761031160405161107381610467565b60018152603160f81b6020820152604051918291602083526020830190610648565b346103885760403660031901126103885760206110dd6110b36103b6565b6040516110bf8161044c565b60008152604051916110d08361044c565b6000835233600435612044565b604051908152f35b34610388576080366003190112610388576110fe6103b6565b6001600160401b03906044358281116103885761111f9036906004016103d6565b90916064359384116103885761114a6110dd93611142602096369060040161057f565b933691610548565b9033600435612044565b3461038857602036600319011261038857600a54600435906001600160a01b0316611180338214612179565b30036111c0575b60065460408051918252602082018390527fc565b045403dc03c2eea82b81a0465edad9e2e7fc4d97e11421c209da93d7a9391a1600655005b6111ca3636610513565b602081519101205b806111db612b57565b036111d25750611187565b34610388576060366003190112610388576111ff6103b6565b6044356001600160401b0381116103885760209161122e6112276110dd9336906004016103d6565b3691610548565b604051916110d08361044c565b34610388576080366003190112610388576001600160401b036004358181116103885761126c903690600401610817565b906024358181116103885761128590369060040161087f565b916044358281116103885761129e9036906004016108dd565b606435928311610388573660238401121561038857610311936112ce610615943690602481600401359101610548565b92613286565b90815180825260208080930193019160005b8281106112f4575050505090565b8351855293810193928101926001016112e6565b34610388576000366003190112610388576113a36113457f0000000000000000000000000000000000000000000000000000000000000000612941565b6103116113717f0000000000000000000000000000000000000000000000000000000000000000612a38565b6113b1604051916113818361044c565b60008352604051958695600f60f81b875260e0602088015260e0870190610648565b908582036040870152610648565b90466060850152306080850152600060a085015283820360c08501526112d4565b346103885760003660031901126103885760206113ed612405565b65ffffffffffff60405191168152f35b346103885760603660031901126103885760043561141a81610796565b6044356001600160401b0381116103885760449161143e602092369060040161057f565b50604051630748d63560e31b81526001600160a01b039182166004820152602480359082015292839182907f0000000000000000000000000000000000000000000000000000000000000000165afa8015610b5857610311916000916114b0575b506040519081529081906020820190565b6114c8915060203d8111610b8357610b7481836104b8565b3861149f565b34610388576020366003190112610388576004356114eb81610796565b600a546001600160a01b0391908216611505338214612179565b3003611554575b7f08f74ea46ef7894f65eabfb5e6e695de773a000b47c529ab559178069b226401604083600a5493169381519084168152846020820152a16001600160a01b03191617600a55005b61155e3636610513565b602081519101205b8061156f612b57565b03611566575061150c565b34610388576020366003190112610388576115d3602060018060a01b03600a54166115b1600435600052600b602052604060002090565b5490604051808095819463d45c443560e01b8352600483019190602083019252565b03915afa908115610b5857600091611605575b50600181036115fc575060405160008152602090f35b61031190610615565b61161d915060203d8111610b8357610b7481836104b8565b386115e6565b34610388576000366003190112610388576020600854604051908152f35b346103885760a03660031901126103885761165d600435610796565b611668602435610796565b6001600160401b036044358181116103885761168890369060040161087f565b50606435818111610388576116a190369060040161087f565b50608435908111610388576116ba90369060040161057f565b5060405163bc197c8160e01b8152602090f35b3461038857602036600319011261038857600435600052600360205260206001600160401b0360016040600020015416604051908152f35b60603660031901126103885760043561171d81610796565b6044356001600160401b0381116103885761173c9036906004016103d6565b600a54909291906001600160a01b0316611757338214612179565b3003611800575b6117f591836040519485938437820190600094859383858095520391602435905af13d156117f9573d611790816104f8565b9061179e60405192836104b8565b81523d84602083013e5b604051916117b583610482565b602883527f476f7665726e6f723a2072656c617920726576657274656420776974686f7574602084015267206d65737361676560c01b604084015261261b565b5080f35b60606117a8565b61180a3636610513565b602081519101205b8061181b612b57565b03611812575061175e565b346103885760206110dd6118393661095d565b92919091611d04565b3461038857600036600319011261038857600a546040516001600160a01b039091168152602090f35b346103885760003660031901126103885761031160405161188b81610467565b602081527f737570706f72743d627261766f2671756f72756d3d666f722c6162737461696e6020820152604051918291602083526020830190610648565b346103885760003660031901126103885760206040517f150214d74d59b7d1e90c73fc22ef3d991dd0a76b046543d4d80ab92d2a50328f8152f35b3461038857602036600319011261038857600a54600435906001600160a01b0316611930338214612179565b30036119cb575b80156119765760075460408051918252602082018390527f7e3f7f0708a84de9203036abaa450dccc85ad5ff52f78c170f3edb55cf5e882891a1600755005b60405162461bcd60e51b815260206004820152602760248201527f476f7665726e6f7253657474696e67733a20766f74696e6720706572696f6420604482015266746f6f206c6f7760c81b6064820152608490fd5b6119d53636610513565b602081519101205b806119e6612b57565b036119dd5750611937565b346103885760403660031901126103885760446020600435611a1281610796565b6000604051611a208161044c565b52604051630748d63560e31b81526001600160a01b039182166004820152602480359082015292839182907f0000000000000000000000000000000000000000000000000000000000000000165afa8015610b5857610311916000916114b057506040519081529081906020820190565b3461038857602036600319011261038857600a54600435906001600160a01b0316611abd338214612179565b3003611afd575b60085460408051918252602082018390527fccb45da8d5717e6c4544694297c4ba5cf151d455c9bb0ed4fc7a38411bc0546191a1600855005b611b073636610513565b602081519101205b80611b18612b57565b03611b0f5750611ac4565b346103885760a036600319011261038857611b3f600435610796565b611b4a602435610796565b6084356001600160401b03811161038857611b6990369060040161057f565b5060405163f23a6e6160e01b8152602090f35b346103885760203660031901126103885760206110dd600435612bb4565b34610388576000366003190112610388576040517f00000000000000000000000000000000000000000000000000000000000000006001600160a01b03168152602090f35b600a546001600160a01b03163003611bf357565b60405162461bcd60e51b815260206004820152601f60248201527f476f7665726e6f723a206d7573742073656e6420746f206578656375746f72006044820152606490fd5b90600182811c92168015611c68575b6020831014611c5257565b634e487b7160e01b600052602260045260246000fd5b91607f1691611c47565b90815180825260208080930193019160005b828110611c92575050505090565b83516001600160a01b031685529381019392810192600101611c84565b90815180825260208092019182818360051b85019501936000915b848310611cda5750505050505090565b9091929394958480611cf483856001950387528a51610648565b9801930193019194939290611cca565b9290611d5092611d6292604051948592611d40611d2d602086019960808b5260a0870190611c72565b601f1996878783030160408801526112d4565b9085858303016060860152611caf565b906080830152039081018352826104b8565b51902090565b15611d6f57565b60405162461bcd60e51b815260206004820152602160248201527f476f7665726e6f723a2070726f706f73616c206e6f74207375636365737366756044820152601b60fa1b6064820152608490fd5b15611dc557565b60405162461bcd60e51b815260206004820152602260248201527f476f7665726e6f723a206f6e6c792070726f706f7365722063616e2063616e63604482015261195b60f21b6064820152608490fd5b634e487b7160e01b600052601160045260246000fd5b6000198114611e3a5760010190565b611e15565b634e487b7160e01b600052603260045260246000fd5b8051821015611e695760209160051b010190565b611e3f565b600a546001600160a01b03163003611e83575b565b60045480600f0b9060801d600f0b13611e9857565b6000600455565b906020906000604051611eb18161044c565b52604051630748d63560e31b81526001600160a01b039384166004820152602481019190915291829060449082907f0000000000000000000000000000000000000000000000000000000000000000165afa908115610b5857600091611f15575090565b61059a915060203d8111610b8357610b7481836104b8565b9492611fba61059a98611fc29493969861122796610e5e8a8a8d611f52368a8c610548565b6020815191012090602081519101209060ff6040519360208501957fb3b3f3b703cd84ce352197dcff232b1b5d3cfb2025ce47cf04742d0651f1af8887526040860152166060840152608083015260a082015260a08152611fb28161049d565b519020612807565b949094612665565b92612044565b9161059a939160405193611fdb8561044c565b60008552612044565b93909260ff6120109361059a97958752166020860152604085015260a0606085015260a0840190610648565b916080818403910152610648565b909260ff60809361059a9695845216602083015260408201528160608201520190610648565b9291908360005260036020526040600020600161206086612c5b565b61206981610e97565b036121285761209161208561209792546001600160401b031690565b6001600160401b031690565b826125b6565b946120a48684848861222e565b80516120ec57506120e67fb8e138887d0aa13bab447e82de9d5c1777041ecd21ca36ba824ff1e6c07ddda4938660405194859460018060a01b0316978561201e565b0390a290565b6120e6907fe2babfbac5889a709b63bb7f598b324e08bc5a4fb9ec647fb3cbc9ec07eb8712948760405195869560018060a01b03169886611fe4565b60405162461bcd60e51b815260206004820152602360248201527f476f7665726e6f723a20766f7465206e6f742063757272656e746c792061637460448201526269766560e81b6064820152608490fd5b1561218057565b60405162461bcd60e51b815260206004820152601860248201527f476f7665726e6f723a206f6e6c79476f7665726e616e636500000000000000006044820152606490fd5b156121cc57565b60405162461bcd60e51b815260206004820152602760248201527f476f7665726e6f72566f74696e6753696d706c653a20766f746520616c726561604482015266191e4818d85cdd60ca1b6064820152608490fd5b91908201809211611e3a57565b916122aa61229d61224c60ff94956000526009602052604060002090565b946003860161228661228161227d61227685859060018060a01b0316600052602052604060002090565b5460ff1690565b1590565b6121c5565b9060018060a01b0316600052602052604060002090565b805460ff19166001179055565b16806122c15750906122bd908254612221565b9055565b600181036122d9575060016122bd9101918254612221565b6002036122ef5760026122bd9101918254612221565b60405162461bcd60e51b815260206004820152603560248201527f476f7665726e6f72566f74696e6753696d706c653a20696e76616c69642076616044820152746c756520666f7220656e756d20566f74655479706560581b6064820152608490fd5b0390fd5b90816020910312610388575190565b6040513d6000823e3d90fd5b94939261239d60809361238f6123ab9460a08a5260a08a0190611c72565b9088820360208a01526112d4565b908682036040880152611caf565b93600060608201520152565b91926123e660a0946123d86123f4949998979960c0875260c0870190611c72565b9085820360208701526112d4565b908382036040850152611caf565b946000606083015260808201520152565b6040516324776b7d60e21b81526020816004817f00000000000000000000000000000000000000000000000000000000000000006001600160a01b03165afa809160009161245e575b509061059a575061059a43612af0565b6020813d821161249a575b81612476602093836104b8565b8101031261249657519065ffffffffffff8216820361075c57503861244e565b5080fd5b3d9150612469565b604051906124af82610467565b601d82527f6d6f64653d626c6f636b6e756d6265722666726f6d3d64656661756c740000006020830152565b604051634bf5d7e960e01b8152600080826004817f00000000000000000000000000000000000000000000000000000000000000006001600160a01b03165afa90918282612533575b505061059a575061059a6124a2565b909192503d8082843e61254681846104b8565b820191602081840312612496578051906001600160401b0382116125b2570182601f820112156124965780519161257c836104f8565b9361258a60405195866104b8565b8385526020848401011161075c5750906125aa9160208085019101610625565b903880612524565b8280fd5b604051630748d63560e31b81526001600160a01b0391821660048201526024810192909252602090829060449082907f0000000000000000000000000000000000000000000000000000000000000000165afa908115610b5857600091611f15575090565b90919015612627575090565b8151156126375750805190602001fd5b60405162461bcd60e51b815260206004820152908190612352906024830190610648565b60051115610d4157565b61266e8161265b565b806126765750565b61267f8161265b565b600181036126cc5760405162461bcd60e51b815260206004820152601860248201527f45434453413a20696e76616c6964207369676e617475726500000000000000006044820152606490fd5b6126d58161265b565b600281036127225760405162461bcd60e51b815260206004820152601f60248201527f45434453413a20696e76616c6964207369676e6174757265206c656e677468006044820152606490fd5b8061272e60039261265b565b1461273557565b60405162461bcd60e51b815260206004820152602260248201527f45434453413a20696e76616c6964207369676e6174757265202773272076616c604482015261756560f01b6064820152608490fd5b9291907f7fffffffffffffffffffffffffffffff5d576e7357a4501ddfe92f46681b20a083116127fb5791608094939160ff602094604051948552168484015260408301526060820152600093849182805260015afa15610b585781516001600160a01b038116156127f5579190565b50600190565b50505050600090600390565b60429061281261282d565b906040519161190160f01b8352600283015260228201522090565b307f00000000000000000000000000000000000000000000000000000000000000006001600160a01b03161480612918575b15612888577f000000000000000000000000000000000000000000000000000000000000000090565b60405160208101907f8b73c3c69bb8fe3d512ecc4cf759cc79239f7b179b0ffacaa9a75d522b39400f82527f000000000000000000000000000000000000000000000000000000000000000060408201527f000000000000000000000000000000000000000000000000000000000000000060608201524660808201523060a082015260a08152611d628161049d565b507f0000000000000000000000000000000000000000000000000000000000000000461461285f565b60ff811461297f5760ff811690601f821161296d576040519161296383610467565b8252602082015290565b604051632cd44ac360e21b8152600490fd5b5060405160008181549161299283611c38565b80835292600190818116908115612a1657506001146129b9575b5061059a925003826104b8565b600080805291507f290decd9548b62a8d60345a988386fc84ba6bc95484008f6362f93160ef3e5635b8483106129fb575061059a9350508101602001386129ac565b819350908160209254838589010152019101909184926129e2565b90506020925061059a94915060ff191682840152151560051b820101386129ac565b60ff8114612a5a5760ff811690601f821161296d576040519161296383610467565b50604051600081600191825492612a7084611c38565b80845293818116908115612a165750600114612a93575061059a925003826104b8565b600081815291507fb10e2d527612073b26eecdfd717e6a320cf44b4afac2b0732d9fcbe2b7fa0cf65b848310612ad5575061059a9350508101602001386129ac565b81935090816020925483858901015201910190918492612abc565b65ffffffffffff90818111612b03571690565b60405162461bcd60e51b815260206004820152602660248201527f53616665436173743a2076616c756520646f65736e27742066697420696e203460448201526538206269747360d01b6064820152608490fd5b6004549081600f0b809260801d600f0b1315612ba25781600052600560205260406000209160008354935560016001600160801b03196004541691016001600160801b031617600455565b604051631ed9509560e11b8152600490fd5b604051632394e7a360e21b815260048101919091526020816024817f00000000000000000000000000000000000000000000000000000000000000006001600160a01b03165afa908115610b5857600091612c25575b508060021b9080820460041490151715611e3a576064900490565b612c3d915060203d8111610b8357610b7481836104b8565b38612c0a565b90816020910312610388575180151581036103885790565b612c6481612d78565b90612c6e82610e97565b60048203612d7457612c8a90600052600b602052604060002090565b5480612c94575090565b600a54909150612cac906001600160a01b0316610a0c565b604051632ab0f52960e01b81526004810183905260209291908381602481855afa908115610b5857600091612d57575b5015612cea57505050600790565b604051632c258a9f60e11b815260048101929092528290829060249082905afa918215610b5857600092612d2a575b505015612d2557600590565b600290565b612d499250803d10612d50575b612d4181836104b8565b810190612c43565b3880612d19565b503d612d37565b612d6e9150843d8611612d5057612d4181836104b8565b38612cdc565b5090565b6002612d8e826000526003602052604060002090565b015460ff8116612eb25760081c60ff16612eac57612dc9612085612dbc836000526003602052604060002090565b546001600160401b031690565b8015612e6757612de5612dda612405565b65ffffffffffff1690565b80911015612e6057612e176120856001612e09856000526003602052604060002090565b01546001600160401b031690565b10156127f557612e2681612eb9565b9081612e3d575b5015612e3857600490565b600390565b612e5a915060005260096020526040600020600181015490541090565b38612e2d565b5050600090565b60405162461bcd60e51b815260206004820152601d60248201527f476f7665726e6f723a20756e6b6e6f776e2070726f706f73616c2069640000006044820152606490fd5b50600290565b5050600790565b600052600960205260406000206003602052612ee26001600160401b0360406000205416612bb4565b600260018301549201548201809211611e3a57111590565b15612f0157565b60405162461bcd60e51b815260206004820152601d60248201527f476f7665726e6f723a2070726f706f73657220726573747269637465640000006044820152606490fd5b600019810191908211611e3a57565b602719810191908211611e3a57565b15612f6b57565b60405162461bcd60e51b815260206004820152603160248201527f476f7665726e6f723a2070726f706f73657220766f7465732062656c6f7720706044820152701c9bdc1bdcd85b081d1a1c995cda1bdb19607a1b6064820152608490fd5b15612fd157565b60405162461bcd60e51b815260206004820152602160248201527f476f7665726e6f723a20696e76616c69642070726f706f73616c206c656e67746044820152600d60fb1b6064820152608490fd5b1561302757565b60405162461bcd60e51b815260206004820152601860248201527f476f7665726e6f723a20656d7074792070726f706f73616c00000000000000006044820152606490fd5b1561307357565b60405162461bcd60e51b815260206004820152602160248201527f476f7665726e6f723a2070726f706f73616c20616c72656164792065786973746044820152607360f81b6064820152608490fd5b815160208301516040808501516001600160401b039384169290911b68010000000000000000600160e01b0316919091176001600160e01b03199091161782556060830151608084015167ffffffffffffffff19169116176001820155611e8191906131589060c0906002019261315161313f60a0830151151590565b859060ff801983541691151516179055565b0151151590565b815461ff00191690151560081b61ff0016179055565b9061317882610800565b61318560405191826104b8565b8281528092613196601f1991610800565b019060005b8281106131a757505050565b80606060208093850101520161319b565b95926131eb906131f9939b9a9899969592885260209b60018060a01b03168c8901526101208060408a0152880190611c72565b9086820360608801526112d4565b9784890360808601528251808a52818a019180808360051b8d01019501926000905b83821061325857505050505061059a9697509061323f9184820360a0860152611caf565b9360c083015260e0820152610100818403910152610648565b909192939583806132778f93600194601f199082030186528a51610648565b9801920192019093929161321b565b6133f97f7d84a6263ae0d98d3329bd7b46bb4e8d6f98cd35a7adb45c274c8b7fd5ebd5e093946132be6132b98233613410565b612efa565b6132c9612dda612405565b956132e96132df6132d989612f46565b33611e9f565b6008541115612f64565b6133576132fe83516020850120838888611d04565b9761330c8651885114612fca565b6133198651845114612fca565b61332586511515613020565b61334e6001600160401b03613347612dbc8c6000526003602052604060002090565b161561306c565b60065490612221565b61336360075482612221565b916133e16133708361354d565b6133b361337c8661354d565b6133966133876104d9565b6001600160401b039094168452565b336020840152600060408401526001600160401b03166060830152565b60006080820152600060a0820152600060c08201526133dc8b6000526003602052604060002090565b6130c2565b6133eb865161316e565b604051978897338c8a6131b8565b0390a190565b908151811015611e69570160200190565b8151603481106134c75760131981840101516001600160a01b0319166b1b91f1b211f2119351b859f160a31b016134c7579160009261344e81612f55565b915b81831061346b575050506001600160a01b0391821691161490565b90919361349161348c61347e87856133ff565b516001600160f81b03191690565b6134cf565b9190156134bc5760041b6010600160a01b031660ff9190911617936134b590611e2b565b9190613450565b505050505050600190565b505050600190565b60f81c9081602f1080613543575b156134ef57600191602f190160ff1690565b8160401080613539575b1561350b576001916036190160ff1690565b816060108061352f575b15613527576001916056190160ff1690565b600091508190565b5060678210613515565b50604782106134f9565b50603a82106134dd565b6001600160401b0390818111613561571690565b60405162461bcd60e51b815260206004820152602660248201527f53616665436173743a2076616c756520646f65736e27742066697420696e203660448201526534206269747360d01b6064820152608490fd5b919060018060a01b03600a541690813b15610388576000936135ed6040519687958694859463e38335e560e01b865260048601612371565b039134905af18015610b58576136005750565b611e8190610419565b90613615939291611d04565b61361e81612c5b565b6008811015610d4157806002613643921415908161374f575b8161373a575b50613765565b61366c600261365c836000526003602052604060002090565b01805461ff001916610100179055565b6040518181527f789cf55be980739dad1d0699b93b58e806b51c9d96619bfa8fe0a28abaa7b30c90602090a16136ac81600052600b602052604060002090565b546136b45790565b600a546136c9906001600160a01b0316610a0c565b6136dd82600052600b602052604060002090565b5490803b156103885760405163c4d252f560e01b815260048101929092526000908290602490829084905af18015610b5857613727575b506000818152600b602052604081205590565b80610b4c61373492610419565b38613714565b6007915061374781610e97565b14153861363d565b905061375a81610e97565b600681141590613637565b1561376c57565b60405162461bcd60e51b815260206004820152601d60248201527f476f7665726e6f723a2070726f706f73616c206e6f74206163746976650000006044820152606490fdfea164736f6c6343000814000a",
  "linkReferences": {},
  "deployedLinkReferences": {}
}